:020000040000FA
:100000002C714120D5070000000000000000000016
:1000100000000000000000000000000000000000E0
:1000200000000000000000000000000000000000D0
:1000300000000000000000000000000000000000C0
:1000400000000000000000000000000000000000B0
:1007C000DFF80CD000F0FAFC0048004737120000B8
:1007D0002C7141200048804791EF0100EFF3108019
:1007E00072B6704780F31088704740BF644A136840
:1007F000012B04D04FF001031360624A1060624A7B
:10080000116062484FF0805101607047EFF3108231
:1008100072B65B48016851B34FF00001016059485E
:10082000016891B1EFF309811EF0100F08BF21EDAF
:10083000108B21E9F00F4FF000041EF0100F08BFDD
:10084000012441F8044D006801604F4909680968B6
:1008500008C9B1E8F00F002B18BFB1EC108B81F381
:1008600009884EF0100E002B18BF2EF0100E82F3E8
:1008700010884EF0040E704745484FF47F01D0F8C1
:10088000002041EA0201016070473F490860EFF330
:10089000148222F0040282F314883A494FF00000D7
:1008A000086037494FF00100086039484FF47F0174
:1008B000D0F8002041EA0201016034484FF0805135
:1008C000016034480068006880F3088861B662B649
:1008D000704720BF70471EF0040F0CBFEFF3088075
:1008E000EFF3098020E9F00F40F804ED40F804ED43
:1008F0001EF0040F0CBF80F3088880F3098800B550
:100900004EF00EFE5DF804EB4EF0040E70471EF044
:10091000040F0CBFEFF30880EFF3098020E9F00F1C
:1009200040F804ED40F804ED1EF0040F0CBF80F316
:10093000088880F3098800B54EF0F5FD5DF804EBFA
:100940004EF0040E704710B4EFF3038410B47C46ED
:1009500010B400B54DF804CD0FB4089C2DE9F00F8C
:1009600000B568464EF030FD01BCBDE8F00F0FBC8D
:100970005DF804CB5DF804EB10BC10BC10BCFEE7C6
:10098000D0674120206541202465412004ED00E02E
:1009900020ED00E008ED00E02DE9F05F05460020C5
:1009A00092469B4688460646814640241BE02846E0
:1009B00041464746224600F0FAFA53465A46C01AC4
:1009C000914110D311461846224600F0E1FA2D1A43
:1009D00067EB01084F4622460120002100F0D8FABB
:1009E00017EB00094E41201EA4F10104DFDC48464C
:1009F00031462A464346BDE8F09F00000649074AB3
:100A00000868504343F239021044086040087047B8
:100A10000149086070470000004441206D4EC64106
:100A200010B5431A934209D28318881803E010F8CE
:100A3000011D03F8011D521EF9D210BD40EA010349
:100A40009B0703D009E008C9121F08C0042AFAD284
:100A500003E011F8013B00F8013B521EF9D210BD32
:100A6000D2B201E000F8012B491EFBD270470022F0
:100A7000F6E710B513460A4604461946FFF7F0FF9D
:100A8000204610BD10B5044604E00B7800F8013B89
:100A900003B1491C521EF8D2204610BD421C10F86A
:100AA000011B0029FBD1801A704730B50446002095
:100AB000034600E05B1C934203D2E05CCD5C401B2C
:100AC000F8D030BD034611F8012B00F8012B002AA5
:100AD000F9D11846704730B505460020034600E0BE
:100AE0005B1C934205D2EC5CC85C201A01D1002C3F
:100AF000F6D130BD0022CBB20178994200D1024636
:100B0000401C0029F8D1104670472DE9FE4F804661
:100B100081EA0300C00F0C46009021F0004123F051
:100B20000045B8EB0200A94105D240462146904657
:100B30001C460B46024623F00040104347D0270DC9
:100B4000C7F30A00C3F30A510290401A01904028EB
:100B50006BDAC3F3130040F4801B0098924620B177
:100B60000023D2EB030A63EB0B0B01985946C0F14B
:100B70004002504600F00CFA06460D4650465946D3
:100B8000019A00F024FA10EB08006141002487EA82
:100B9000115284EAE7731A4340D0009A62B3019A73
:100BA000012A4FEA075215DC001B61EB02014FF0EE
:100BB000004202EA0752CDE90042001C41F58011D3
:100BC00032462B4600F05BFA03B0BDE8F08F40469A
:100BD0002146F9E7001B61EB0201001C41F580137F
:100BE00000185B412018A2F5001747EB030140EA0B
:100BF000D570B6196D4111E06D084FEA360645EA29
:100C0000C0754FEA0752001B61EB0201001C41F561
:100C1000801149084FEA30000019514132462B46F5
:100C200003B0BDE8F04F00F01BBA0098012240006D
:100C30000023D0EB020263EBE073009821464FEAF9
:100C4000E074B8EB000061EB0401E9E783F00043D6
:100C50005BE781F0004158E72DE9FE4F81EA03048C
:100C600004F0004421F0004100944FF0000B23F009
:100C7000004350EA01045ED052EA03045BD0C3F3A0
:100C80000A54C1F30A552C44A4F2F3340194A0FB96
:100C90000254C1F3130141F48011C3F3130343F46D
:100CA000801301FB024400FB034E840A970A44EAC6
:100CB000815447EA8357A4FB076802958D0A05FB18
:100CC00007854FEA932C04FB0C542705029D4FEA3D
:100CD000065847EA1637B5EB08056EEB070C870E8A
:100CE000920E47EA811742EA8312A7FB0201B6EB94
:100CF0000B0164EB00042B0D43EA0C335E1844EB4C
:100D00001C50DA465146E7FB0201C5F313044FEAD3
:100D10000B3343EA14534FEA0432019C43EA0603BF
:100D2000A4F10C040294009CCDE900B400F0A7F9F2
:100D300003B0BDE8F08F00200146F9E72DE9F04D42
:100D400081EA030404F0004B21F0004514464FF003
:100D5000000A23F0004150EA050220D054EA0102C3
:100D60001DD0C5F30A570246C5F31303C1F31300A0
:100D7000C1F30A5640F4801543F48013A7EB06082C
:100D8000101BD64608F2FD3873EB050002D308F1BC
:100D9000010801E092185B41B8F1000F03DA00206E
:100DA0000146BDE8F08D00204FF4801106468446D0
:100DB0000EE0171B73EB050705D3121B63EB05034E
:100DC00006434CEA010C49084FEA300092185B4197
:100DD00050EA0107EDD152EA030012D082EA040082
:100DE00083EA0501084305D0101BAB4106D201225E
:100DF000002306E000224FF0004302E06FF0010202
:100E000053101AEB06004CEB085110EB0A0041EBB3
:100E10000B01BDE8F04D00F023B930B5041E71F1AF
:100E2000000404DB4FF00044404264EB0101141E57
:100E300073F1000405DB1C464FF00043524263EBA4
:100E40000403801A994101D3012030BD002030BD38
:100E500030B5041E71F1000404DB4FF00044404241
:100E600064EB0101141E73F1000405DB1C464FF016
:100E70000043524263EB0403101A8B4101D201205C
:100E800030BD002030BD30B5041E71F1000404DB1C
:100E90004FF00044404264EB0101141E73F1000462
:100EA00005DB1C464FF00043524263EB0403101A6B
:100EB0008B4101D3012030BD002030BD30B5041E70
:100EC00071F1000404DB4FF00044404264EB010187
:100ED000141E73F1000405DB1C464FF00043524220
:100EE00063EB040342404B401A4301D0002030BD65
:100EF000012030BD70B5C1F30A5201F00045002455
:100F0000C1F3130140F2FF3341F480119A4201DA38
:100F1000002070BD40F233439A42A2F2334203DC18
:100F2000524200F044F800E090402C43F1D040429F
:100F300070BD00F0004230F000400AD0C10D01F554
:100F40006071C0F3160042EA0151C2084007114324
:100F5000704700200146704701F0004330B421F093
:100F6000004150EA010206D00A0DA2F56072C1F3F9
:100F70001301002A02DC30BC00207047440F44EA11
:100F8000C104C100E01830BC00EBC25000F031B821
:100F9000202A04DB203A00FA02F100207047914039
:100FA000C2F1200320FA03F3194390407047202A2E
:100FB00004DB203A21FA02F00021704721FA02F303
:100FC000D040C2F120029140084319467047202AC0
:100FD00006DBCB17203A41FA02F043EAE07306E061
:100FE00041FA02F3D040C2F1200291400843194671
:100FF00070470029A8BF7047401C490008BF20F077
:101000000100704710B4B0FA80FC00FA0CF050EA0E
:10101000010404BF10BC704749B1CCF1200421FA8F
:1010200004F411FA0CF118BF012121430843A3EB8A
:101030000C01CB1D4FEA00614FEA102042BF002097
:1010400010BC704700EBC35010440029A4BF10BC73
:101050007047401C490008BF20F0010010BC7047D9
:1010600010B5141E73F1000408DA401C41F10001B0
:1010700092185B411A4301D120F0010010BD2DE907
:10108000F04D92469B4611B1B1FA81F202E0B0FAFE
:1010900080F220329046FFF77BFF04460F4640EA7D
:1010A0000A0041EA0B0153465A46084313D0114641
:1010B00053EA010019D0C8F140025046FFF777FF0C
:1010C00005460E46504659464246FFF761FF084323
:1010D00005D0012004E020463946BDE8F08D00200F
:1010E000054346EAE0762C4337430A986305E40A51
:1010F000A0EB08000022FD0A44EA47540A3002D55A
:1011000000200146E9E7010510196941DDE90845BC
:1011100000196941BDE8F04DA2E72DE9F04D00232B
:101120001A461B1A8A4103DB00200146BDE8F08DF8
:10113000C1F30A52C1F3130141F480154FF0000BC3
:10114000D10702D100186D41521E0027044640F21B
:10115000FF11384601EB620A3E46804602460020F7
:101160004FF48011FFF723FFC2197141BB1846EB02
:101170000100B4EB030C75EB000C04D3E41A65EB2F
:10118000000517460E46241908F101006D418046FE
:101190003428E3DDF91946EB0600091BA84103D208
:1011A0004FF0FF32134601E0002213461BEB07000D
:1011B00046EB0A51BDE8F04DFFF752BF064C074D14
:1011C00006E0E06840F0010394E807009847103417
:1011D000AC42F6D3FFF7F8FAD0E30500F0E30500E0
:1011E00070B58C1810F8015B15F0070301D110F8E9
:1011F000013B2A1106D110F8012B03E010F8016B16
:1012000001F8016B5B1EF9D12B0705D40023521E98
:101210000DD401F8013BFAE710F8013BCB1A921C00
:1012200003E013F8015B01F8015B521EF9D5A142FE
:10123000D8D3002070BD80B553F051FE002080BD92
:1012400070B5002208230024002B0FD450F823503F
:1012500051F82360641942F10005A41940F82340B5
:1012600045F10004013B04F00104EDE7BDE87040E6
:1012700057F004BBF8B51446002208230025002BC4
:101280000FD450F8236051F82370AD1942F10006D5
:10129000ED1944F8235046F10005013B05F0010526
:1012A000EDE7204657F0EAFA0020A062F8BD000002
:1012B00010B51446FFF7DEFFA06A20B12046BDE856
:1012C000104000F00DB84149204614F032FB28B11F
:1012D0003E492046BDE8104001F0EEBD10BD00BF04
:1012E000B0B58CB0044601AD384821462A4601F01D
:1012F0007BFD204629462422FFF792FB0A99002015
:10130000C4E909100CB0B0BDF0B58BB00446806ADA
:1013100000B32E4D2046294614F0F3FA80B308207E
:101320000021002200283AD455F8206054F82030DB
:10133000B718921941F100069A1AA3EB070771EB4F
:10134000060244F82070A0F101004FF0000238BFFF
:101350000122E7E71D4A00200821002300291ED4AE
:1013600054F8215052F821605B1940F100059B1997
:1013700044F8213045F10003013903F00103EDE7A2
:101380006D46124821462A4601F02EFD2046294688
:101390002422FFF745FB09990020C4E90910002029
:1013A000002109290BD054F821205FEA50004FEAB0
:1013B000320044F8210002F001000131F1E720463B
:1013C0000BB0BDE8F04057F059BA00BF2CA20500A1
:1013D000F0B597B007AC01AD07AE0FC41D9831460C
:1013E00013ACADF818001C98224605902198049083
:1013F000209803901F9802901E980190284601F0B3
:10140000D2F828462146224601F0EFFB0FAD05A891
:10141000294601F0CFF9204629462A4601F0B8F8BE
:101420000BAF3046394601F01BFB284639462246B1
:1014300001F0E6F8DDE922200021042903D0635CF5
:1014400053540131F9E7211D00220C2A04BF17B0C3
:10145000F0BD8B5C83540132F7E7B0B58EB002ACBF
:101460000FC4139900220AAB149CADF80410129912
:10147000009102A901310F2A03D09854885C0132EF
:10148000F9E780F0060006AD8DF83700684629467A
:1014900001F090F90AA92846224601F0B1F80EB0F1
:1014A000B0BDF0B593B007AC0FC4199901ABDDE93D
:1014B0001E42ADF818101899254605911D99049102
:1014C0001C9903911B9902911A9901910FA90E463B
:1014D0002DB113F8017B013D06F8017BF8E70D19EA
:1014E000002605AFA319052E98BF102B03D2BB5DB4
:1014F000AB550136F6E700241D46102D08D20E5DCF
:101500004E551E1B0135013E18BF661C3446F4E7DC
:1015100007A900240BAD01310F2C03D02855085D1D
:101520000134F9E758400FA98DF83B000BA801F0F2
:1015300067F813B0F0BD70B598B008AC14AD0FC427
:101540001E9808A92A4601AC07901D9806901C9881
:1015500005902298049021980390209802901F985B
:101560000190204601F01FF8204629462A4601F046
:101570003CFB239C002005A910AA0023102B08D0B7
:101580000D5CD554451C0133B5F10C0018BF28463D
:10159000F4E710AD14A829462A4600F0F9FF0CAE76
:1015A00008A8314601F05CFA28463146224601F08F
:1015B00027F818B070BD00002DE9F04FADF5277D7C
:1015C0000E460546104684211446FFF750FA9CA8A3
:1015D0002C21FFF74CFA91A82C21FFF748FA86A896
:1015E0002C21FFF744FA7BA82C21FFF740FA70A8C2
:1015F0002C21FFF73CFA65A82C21FFF738FA5AA8EE
:101600002C21FFF734FA4FA82C21FFF730FA44A819
:101610002C21FFF72CFA39A82C21FFF728FA2EA845
:101620002C21FFF724FA23A82C21FFF720FA2846C3
:1016300000F0D0FB0746304600F0CCFB17B120B1DC
:10164000C74803E050B1284600E03046214600F08C
:10165000C3F800200DF5277DBDE8F08F3046294600
:1016600006F12C0705F12C0A4BF0B6FF002800F01C
:10167000978005F15809DFF8E0B29CAA384606F1D8
:1016800058084946D84791AA50464146D84786AFA0
:10169000304649463A46D8477BAE28464146324610
:1016A000D847384631464BF097FF002800F0888035
:1016B00004F15800A74D91A970AA019004F12C00E3
:1016C00000909CA8A84765AF86A87BA93A46A84782
:1016D0004FAA48464146D84718A82C21FFF7C7F91A
:1016E0000DA82C21FFF7C3F90DF1080A2C21504653
:1016F000FFF7BDF944AE384639463246D84739ADD2
:10170000304639462A46D8470DF1B80870A8014638
:101710004246D8470DF18C0930467BA94A46D84746
:1017200048460221524601F086FA18AE40464FA9BB
:101730003246D84729460DADDFF8188230462A4692
:10174000C0475AAE284651463246C0473846314611
:101750002246D84718AF2C213846FFF788F90DAC40
:101760002C212046FFF783F902AD2C212846FFF7F4
:101770007EF9484631463A46C04770A83946224667
:10178000D84739AE91A92A463046D847009A204614
:101790002946C047019A30464FA9D847012059E74A
:1017A000384651464BF018FF00287FF449AF306DA2
:1017B00001283FF65EAFF06C00287FF45AAF3FE798
:1017C0009CA891A94BF008FF00287FF439AF284668
:1017D000214600F025F83CE7B0B505460C46084622
:1017E00024222946FFF71CF9D5E909012422C4E97E
:1017F000090104F12C0005F12C01FFF711F9D5E9DD
:1018000014012422C4E9140104F1580005F158011F
:10181000FFF706F9D5E91F01C4E91F01B0BD0000BB
:101820002DE9F04FF9B00646006D8B46012801D82E
:10183000F06C18B1304600F0CDFA20B14848594656
:10184000FFF7CAFF81E006F1580563AC304606F1A8
:101850002C0729462246FFF72BFD0DF5B0783D4BAE
:1018600030462946424698470DF59A79DFF8E8A0B8
:10187000204641464A46D0470DF5DC78374B48466E
:101880000321424698470DF5C679384629464A460F
:10189000D0474DAC384649462246D04758AA304634
:1018A00021461646D04742AC404641462246D047E4
:1018B00037ADDFF8A880304608212A46C0474DAE34
:1018C000244B204629463246984742AC304649468A
:1018D0002246D047204602215A46C04737AC3846F8
:1018E000394646462246D04742AD484649462A46F2
:1018F000D0470DF1B00820462946A9464246D047B8
:1019000021AD404608212A46B04716AC58A804210C
:101910002246B047B0460BAE0E4F20464DA9324688
:10192000B8476C466EA831462246D0470BF12C02D0
:1019300020462946B84737AC484663A92246D047D7
:101940000BF1580220460821C047002079B0BDE8BD
:10195000F08F00BF2D2E00006D2C0000372C0000F2
:10196000D4A40500F0B58BB0184F054614460E46BA
:10197000F87DFF2809D003F0C9FEF97D1022C900C7
:1019800002FA01F1084303F0CFFE05F15800694661
:1019900002F08AFDF87DFF2809D003F0B7FEF97D3B
:1019A0001022C90002FA01F1884303F0BDFE6F4620
:1019B00028463246394601F059F905F12C003946DE
:1019C000224601F053F90BB0F0BD00BF7446412030
:1019D000B0B588B01548056815480168C90717D122
:1019E00000F580500121019001A800F0C9F9D0B1A3
:1019F00004461048844204D30FA016A1BD224CF027
:101A0000F3F9A4FB05010B4A0023FEF7C5FF0BE029
:101A1000E80B4FF47A716FF3DF3505FB01F24843B1
:101A200000EBD23000E0E80808B0B0BD440004503C
:101A300000A00450007C920076203C2028343830EE
:101A40003030202A204C58545F4C505F4359434C4F
:101A50004529000048414C5F4765745469636B0039
:101A6000014951F82000704730B0045080B500F0B3
:101A7000DBF800F0D7F8032000F04AF8002000F06F
:101A800004F8002818BF012080BD00207047000026
:101A90000448016841F0040101600168B1F1FF3FB1
:101AA000FBDC70470C00045001281CBF012070476C
:101AB0000448016841F00101016001688906FCD514
:101AC000002070472800045070470000102A00D3FF
:101AD000FEE7102900D3FEE770B5154B4FF0FF3538
:101AE0001B68C3F302231C1F83F0070338BF0024C5
:101AF000032B28BF032305FA04F605FA03F3B243C8
:101B00009943A1401143BDE8704001F049BA00BFBC
:101B1000C11E05290AD206494FF6FF030A681A407A
:101B200060F30A220348104308607047FEE700BFD5
:101B30000CED00E00000FA050B480C4900688842F3
:101B400018BF70470048004701000E1C0649074AAD
:101B5000086890421CBF0020704701F108004968E6
:101B60000022C90800F004B800FF0E1C484354507E
:101B70002DE9F0432A4B002516464FF0010C4FF09B
:101B80000008002AC3F880509E46164B18BF012655
:101B90009946A9421BD00CFA05F707EA0204B4FAE9
:101BA00084F46409344210D150F835404B4648EA79
:101BB0000708734604EA09044EF8254000EBC50403
:101BC000CEF884706468CEF888400135E1E70020E3
:101BD000002ACEF88400404608BF4246CEF8802056
:101BE000BDE8F083FCFF070070B5034600200C4CF5
:101BF0000DE0D4F88050C540ED070CD054F82050CB
:101C000003EBC00643F8305001302D6875601F2883
:101C100098BF8842EDD3D4F88010116070BD00BF2A
:101C2000004000507047000080B5FFF731FF0A48C0
:101C30000222016841F00101016008490A80032283
:101C4000016841F0100101600120012100F05CF801
:101C5000BDE88040FFF738BF100000509C44412091
:101C600010B50446002808BF0224204600F014F8EE
:101C70000849012C06D0022C03D101F180513F22EA
:101C800001E0FEE7FF220968114008BF0121B0FB17
:101C9000F1F010BD14000040012807D1054800688C
:101CA00000F00300032808BF00F006B800487047A2
:101CB000006CDC0210000040012000F001B80000C0
:101CC0000E49012806D0032803D0022814D104317C
:101CD00000E008310868C1070ED0C0F38301084A4C
:101CE0005143084A531C994206D20123511A23EA50
:101CF000503001FA00F07047002070471C0000408F
:101D000000366E0100B0710B10B50023002820EAE8
:101D1000E074C8BF3F23B1F1FF3FC8BF03F5E063E4
:101D2000B2F1FF3FC8BF03F5E043B1F1FF3FC8BFC9
:101D300044EA0124B2F1FF3FC8BF44EA0234A3B130
:101D40000D49012803D10A6842F040020A600A687E
:101D5000012822EA030242EA04020A6005D00028B0
:101D600003D4086820F0400008600220FFF778FFE5
:101D70000249086010BD00BF1400005028444120F3
:101D8000006800EB8100006B704700006FF00401F9
:101D9000084200D0FEE70D4904280A6822F0040337
:101DA00008BF42F004030B60704700BF411E0020D3
:101DB000B0EB116F1CBF01207047044AE023516053
:101DC00003490B70072190601160704710E000E03C
:101DD00023ED00E0B0B50C4D044629464BF0FCFB6A
:101DE00030B904F12C0005F12C014BF0F5FB08B1E2
:101DF0000020B0BD04F1580005F158014BF0ECFB98
:101E0000B0FA80F04009B0BDD4A405002DE9F04F30
:101E1000BFB033AC0FC4DDE94868102E0BD233AD30
:101E2000284600F056FE0020102810D0295C08F843
:101E300000100130F8E7002033A9102804BF3FB09C
:101E4000BDE8F08F0A5C08F800200130F5E7DFF804
:101E50002807711E37AB229100EB011000211029D9
:101E600003D0425C5A540131F9E79DF8EB009DF82C
:101E7000EA509DF8E9309DF8E5209DF8E3C09DF813
:101E8000E0409DF8DCE09DF8DD109DF8DEB09DF8A7
:101E9000DFA04FF0FF3732909DF8E80028909DF8C2
:101EA000E7002F909DF8E60027909DF8E4002E9023
:101EB0009DF8E20026909DF8E100309031914FFAB4
:101EC0008EF1B1F1FF3F68DD1846329B6E00D9B24A
:101ED0005B0046EAD11146002D91E9B2650046EA61
:101EE000D1112C91C1B22898460046EAD1112B910C
:101EF000C1B22F98460046EAD1112A91C1B2279863
:101F0000460046EAD11156002991C1B246EAD110E5
:101F1000D1B225902E98460046EAD1112491C1B243
:101F200038464FEA4C0747EAD11123915FFA8CF10A
:101F3000269A570047EAD116D1B2309A570047EA9D
:101F4000D119D1B22246074645EAD114D0B24FEAA0
:101F50004A0152465D46013F41EAD01AD0B2319A59
:101F60004FEA4B01329341EAD01BE8B22BAD51004E
:101F700041EAD011D0B2C00940EA4E0E29CD2890D6
:101F80002A982F9029982790DDE924022E90DDF8D9
:101F90008CC02696CDE9309191E732982B952A9303
:101FA00029468DF8EA5055468DF8E930A1468DF85E
:101FB000E0408DF8DCE08DF8E5208DF8E3C059466F
:101FC000289E279BDDF898A0AB468DF8DF508DF852
:101FD000EB002F980C468DF8DE108DF8E8608DF838
:101FE000E6308DF8E2A08DF8E7002E988DF8E40039
:101FF0003098CDF8A4E031992F9D8DF8E1008DF84F
:10200000DD1000212D9180212C91DDF8B8E02B9876
:10201000002F00F0E78028972D992C9F2B9018F81F
:1020200001100F4267D02F95CDF8B8E098F8001056
:1020300010461A46334698F8016098F803E098F87D
:102040000250299F794088F80010319971401E464E
:10205000134602468EEA0B00DDF8B8E088F803006C
:1020600098F8040088F8011085EA04012F9D88F88B
:102070000210309980EA090088F8040098F80500F9
:1020800048402A9988F8050098F8060080EA0A0076
:1020900088F8060098F8070080EA0C0088F8070026
:1020A00098F8080080EA0E0088F8080098F80900FF
:1020B000504088F8090098F80A00584088F80A004B
:1020C00098F80B00684088F80B0098F80C007040F6
:1020D00088F80C0098F80D0048402B9988F80D00FE
:1020E00098F80E004840329988F80E0098F80F00D2
:1020F000484088F80F002C992D9801294FEA51018A
:1021000008BF01302D9008BF80212C91E0B2319F93
:10211000F90141EA5000E1012F905FFA8BF041EAAA
:1021200050004FEACB112E905FFA89F041EA50003F
:102130004FEAC9112790309CE0B241EA50095FFA9A
:102140008AF0E10141EA50004FEACA1130905FFA8B
:102150008CF041EA500A5FFA8EF04FEACC1141EA66
:1021600050004FEACE112690D0B2D20141EA500E73
:10217000D8B22A9CDB012B9942EA500CEAB2ED015D
:10218000304643EA5203F2B24FEAC41B45EA520614
:10219000E2B2329CC501384645EA5205CAB2C901CD
:1021A000E7B24BEA520241EA57013291C1B2299C8F
:1021B000490841EAC410E1B231904808289F2990AB
:1021C0002A9510461D4663467246D446DDF898E0CF
:1021D000DDF8C0A0CDF8C090DDF89C90DDE92EB40C
:1021E000013715E7E548229AE5A13BAB002537AF5B
:1021F00000EB0210895C0022102D08D018F8056051
:1022000008F805207E55465D5E550135F4E7481C0B
:102210009DF8EB109DF8E6B09DF8EF709DF8F390F7
:102220009DF8F4A09DF8F5E09DF8F6C09DF8F760E4
:102230009DF8F8509DF8F9309DF8FA2031919DF8FD
:10224000EA1024919DF8E9101D919DF8E810239162
:102250009DF8E71022919DF8E51030919DF8E4106B
:102260002F919DF8E3102E919DF8E2102D919DF88D
:10227000E1102C919DF8E0102B919DF8DC10289135
:102280009DF8DD1026919DF8DE102A919DF8DF1053
:1022900029919DF8EC1027919DF8ED1021919DF862
:1022A000EE1025919DF8F01020919DF8F1101F91EE
:1022B0009DF8F2101E919DF8FB103291002800F05D
:1022C000558116A9013881E86850CDF86CA0CDE998
:1022D00014721C905B46DDE922653298DDF8A0E0BF
:1022E000DDF898C0249F1D9CC0075BD098F80000C3
:1022F00098F8011098F8022098F803A080EA0E00E0
:1023000088F8000081EA0C002B9988F801002A98CF
:10231000504088F80200299880EA0A0088F80300F3
:1023200098F8040048402C9988F8040098F80500B3
:1023300048402D9988F8050098F8060048402E99E5
:1023400088F8060098F8070048402F9988F8070099
:1023500098F808004840309988F8080098F8090073
:102360004840319988F8090098F80A00584088F8E0
:102370000A0098F80B00704088F80B0098F80C00E1
:10238000684088F80C0098F80D00604088F80D004F
:1023900098F80E00784088F80E0098F80F00484032
:1023A00088F80F00DDF8C4B079005FFA8BF041EADD
:1023B000D01061001390F8B241EAD0106900129079
:1023C000E0B241EAD01071001190E8B241EAD010B9
:1023D00059001090F0B241EAD0100F90D8B2309A64
:1023E000510041EAD0100E90D0B22F9A510041EA2C
:1023F000D0100D90D0B22E9A510041EAD0100C901E
:10240000D0B22D9A510041EAD0100B90D0B22C9A44
:10241000510041EAD0100A90D0B22B9A510041EA03
:10242000D0100990D0B2299A510041EAD0100890FA
:10243000D0B22A9A510041EAD0104FEA4C010790DD
:10244000D0B241EAD0104FEA4E0106905FFA8CF00C
:1024500041EAD0102890219B2799D8B2400840EA41
:10246000C1100590259AD0B2400840EAC3100490EC
:10247000DDF850C05FFA8CF0400840EAC2100390CB
:10248000209AD0B2400840EACC1014901F9BD8B2DA
:10249000400840EAC21002901E9AD0B2400840EABA
:1024A000C31001905FFA89F0400840EAC210009022
:1024B0001B9A1A9B169CD0B2400840EAC91AD8B29F
:1024C000DDF85490400840EAC21E199AD0B2400884
:1024D00040EAC31C189BD8B2400840EAC216179ABB
:1024E000D0B2400840EAC315E0B2400840EAC21347
:1024F0005FFA89F0400840EAC412329C58465FFAFD
:1025000084FB04464FEA5B07640047EAC910CFB278
:1025100032907808319427901398249012981D9047
:102520001198239010982290DDE90E0B30900D98B1
:102530002F900C982E900B982D900A982C9009981B
:102540002B900898299007982A900698269005982D
:102550002190049825901498039F209002981F9032
:1025600001981E90DDF800901C98A7E640463FB009
:10257000BDE8F04F00F0ADBAB99D0500B99E050069
:1025800077706860584D473F312A231C150E0700AD
:10259000B0B50023102B08BFB0BDC45CCD5C2C448B
:1025A000D4540133F6E7F0B589B0144600228DF813
:1025B0000220102A03D0835CA3540132F9E70DF105
:1025C00013050846294600F0D9F908270DF102063F
:1025D00037B120462946324600F050F8013FF7E770
:1025E0000DF103050DF113000DF10202294600F073
:1025F000FFF920462946224600F002FB09B0F0BD53
:102600002DE9F0418EB0144600220DF116038DF82D
:102610000520102A05D0855CA554855C9D540132A7
:10262000F7E70DF127050846294600F0A7F900262F
:102630000DF116080DF10507022E02D0082E05D166
:102640000BE020464146224600F0DAFA20462946B1
:102650003A4600F013F80136EEE70DF106050DF1EC
:1026600027000DF10502294600F0C2F9204629464F
:10267000224600F0C5FA0EB0BDE8F0812DE9F04722
:1026800088B0EA460446894608469046514600F01E
:10269000AFF920465146224600F0B2FAEF49394AD6
:1026A00000200F280ED8235CCB5C23542318043061
:1026B0005E78DD789F78965D4D5D5E70D65DDD70ED
:1026C0009E70EEE748465146424600F091F90020E0
:1026D000102818D2215C1AF800200AEB000677783F
:1026E000B578F67811442154211804304A788B7853
:1026F00091F803C07A404A7085EA03028A7006EBBB
:102700000C02CA70E4E74FF0000C1AA104AABCF155
:10271000030F1ED000230F2B09D8E618E55C77784D
:1027200007EB4500E054781902337070F3E700239B
:10273000102B03D0E05CD0540133F9E70023102BB9
:1027400004D0C85C105CE0540133F8E70CF1010CD4
:10275000DDE700200F2884BF08B0BDE8F08722180D
:10276000215C537803EB4105194451702554023024
:10277000F0E700BF080B0C0F020106050A090E0D59
:1027800000070403B99F050043F206310840401AD0
:1027900018BF0120704700B952B900EA01024CF697
:1027A000F843084343F20E311A40084040EA020160
:1027B0000846704710B500220023102B08BF10BD3B
:1027C000845CCC54541C0133A21F18BF2246F4E78A
:1027D00020F07F0110200AB2002A03D410B1013882
:1027E0004900F8E7C0B27047C1F3C20201F0070127
:1027F000805CC84000F00100704700002DE9F04106
:10280000DFF87C80064614460D460027D8F84800BD
:1028100010B1FEF743F900E000202070B781B760E7
:10282000776037600E2F0CD0E819F72809D8217887
:10283000884206D2D8F848002844C05DF0550137D8
:10284000F0E7BDE8F08100BF0A4890F856007047F5
:10285000084910224631FEF7E3B800BF05491022AF
:102860002631FEF7DDB800BF024910223631FEF7EF
:10287000D7B800BF045C41200148807F704700BF8B
:10288000606341202DE9F8431D460C9B032B84BF58
:102890000020BDE8F88314460246DDE90A60DDE960
:1028A0000889DFE803F0020A122B0978B9B302297C
:1028B00037D001293BD012203CE0318832B90629BB
:1028C0003CBF1E20BDE8F88300E0318821F0010103
:1028D00031801CF0CDFA284940F2712248433188FA
:1028E0005143B0FBF1F0206000202860C8F80010D0
:1028F0004FF0FF31C9F80010BDE8F88308780128CF
:102900001CBF2020BDE8F8833088002102303080D1
:1029100080B2C82888BF01214801BDE8F883C820DB
:1029200006E01CF0A5FA21684A1C022A15D22820CC
:1029300030800020D8F800104A1CEED040F27122FE
:10294000B1FBF2F1328821F001019142E5D2052973
:1029500098BF06213180BDE8F88340F271225143CF
:10296000054A5043B0FBF1F04FF6FE7108400628CF
:1029700098BF0620DCE700BF40420F0010B50022E0
:102980000023102A05D0845C8C54845C013263409F
:10299000F7E70B7410BD1CB5ADF8041000900020D3
:1029A0006946062808BF1CBD0B5C14181354A3719C
:1029B0000130F6E7B0B504460025102D08BFB0BDC4
:1029C000FEF71CF860550135F7E700F01E0100F432
:1029D000706200F47040063918BF0121B2F5407FE3
:1029E00018BF0321B0F5405F18BF052108467047A6
:1029F000F0B585B0144605460A4600212078102916
:102A000007D0102888BF00202B5C013053540131BF
:102A1000F5E7207890B100EB0010104B002101AEDB
:102A20001230102906D04718FFB2DF5DDF5D775402
:102A30000131F6E701A91046FFF7AAFD0020112891
:102A400006D0295CCA0042EA511129540130F6E748
:102A500020780130207005B0F0BD00BFB99C0500A2
:102A60000278173A0A70427882F0E5024A7082785A
:102A7000213A8A70C27882F0C102CA7002794D3A56
:102A80000A71427982F0A7024A7182796B3A8A719F
:102A9000C27982F08302CA71027A82F0E9020A7274
:102AA000427A1B3A4A72827A82F0DF028A72C27AD2
:102AB0003F3ACA72027B82F0B3020A73427B593AF0
:102AC0004A73827B82F095028A73C07B7D38C8731B
:102AD000704784B000226946102A03D0835C8B546F
:102AE0000132F9E70F22531C04BF04B070478B5C1E
:102AF000013A00F8013BF6E70288052922F0E103DC
:102B0000038006D003290BD14FF440714FF21E030E
:102B100003E04FF4405140F61E731A401143018008
:102B20007047F0B501F002050124860752B284EA2D
:102B300055044FEA440448BF022411F0040104F193
:102B4000040608BF3446470748BF3446002D04F545
:102B5000807608BF3446C70548BF3446002A58BFB0
:102B60003446002944F4007608BF3446870548BF40
:102B70003446002A58BF344613F0010344F480520F
:102B800008BF1446002D08BF1446C50448BF1446AC
:102B9000002B44F4005208BF1446002908BF144615
:102BA000800448BF1446A0B2F0BD10B500F0180272
:102BB0004405134661F38A2358BF13461A46040599
:102BC00061F3CB2258BF1A464B08144663F38E3488
:102BD000430458BF14468907214648BF41F40041C9
:102BE000000458BF214688B210BDB0B50023102B99
:102BF00008BFB0BDC45CCD5C6C40D4540133F6E773
:102C0000F0B500230F2B88BFF0BDC45CCD5CCE189F
:102C10006C40D454C418657877783D44D718043391
:102C20007D7094F802C0B5786544BD70E478F5789D
:102C30006C40FC70E6E770B514460546082000229B
:102C4000002809D455F820300026E3FB012644F87B
:102C5000202001383246F3E7204655F00FFEA86ADF
:102C6000A0622046BDE8704056F0D0BA2DE9F04F82
:102C70009FB00DF12C0A894683465021904650465C
:102C8000FDF7F5FE09F120000AF144010822B2F136
:102C9000FF3F13DD5BF822300024002714F1080504
:102CA00009D451F8245050F82460E6FB635741F8EA
:102CB0002450013CF2E70439013AE8E70022122AE5
:102CC00004D05AF8220008B90132F8E7D9F82800F0
:102CD000DBF82810C2F1120300261D930C1A18BF4E
:102CE00001241E945AF82610701C082E02D80029C0
:102CF0000646F7D0082B0A9415D8471E0A2A15D184
:102D0000204C0AF128020023082B0CD004EB830688
:102D100052F823500133B66AAE42F5D003D305E032
:102D20005AF8201001300029FAD0471E6E460AEBEF
:102D3000870124223046FDF773FE304655F09EFD94
:102D400007F10904371D304656F060FA112C0CD8F3
:102D5000304639462022FDF763FE5AF824000890D9
:102D6000304655F08BFD0134EDE76946404624229C
:102D7000FDF756FEDDE90901C8E909011FB0BDE80C
:102D8000F08F00BF68E3050000F00F01000900EBC1
:102D9000800001EB4000C0B2704701460A220928BA
:102DA00098BF0921B1FBF2F202EB8203A1EB4303CE
:102DB000591A084440EA0210C0B27047B0B5044640
:102DC0000068C16841F48061C160FEF701FE0546FC
:102DD0002068C068800505D4FEF7FAFD401BB0F5F9
:102DE0007A7FF5D90020B0BDF0B5944600230824C1
:102DF0000025002C14D451F8247050F824607A195E
:102E0000B21A4CF824207A19A4F1010443F1000508
:102E1000B21A73EB05024FF0000538BF0125E8E751
:102E20006046BDE8F04055F029BD000070B506468B
:102E30000D46886A1446B16A41B170B128463146E0
:102E400012F077FD78B12846314616E070B1304671
:102E500029462246FEF70EFA12E03046294622465F
:102E6000FEF708FA1FE03046294619E030462946A9
:102E700012F05FFD90B1304629462246FFF7B4FFBD
:102E800000200C49A062204612F053FD28B10949E8
:102E90002046BDE8704000F00FB870BD28463146AE
:102EA0002246FFF7A1FF0120A0622046BDE8704046
:102EB000FEF716BA2CA20500F0B500220823002464
:102EC000002B15D451F8236050F823503719A4195A
:102ED00042F100062C1BA5EB070772EB060440F835
:102EE0002370A3F101034FF0000438BF0124E7E78A
:102EF000BDE8F04055F0C2BC70B58CB004460D463C
:102F0000886AA16AB1B1B0B12846214612F011FD1C
:102F1000E8B101AE284621463246FFF765FF20465C
:102F200031462422FDF77CFD00200A996162A062EF
:102F30000CB070BD30B1204629460CB0BDE87040E1
:102F4000FEF77EB92046294612F0F3FC30B1204648
:102F500029460CB0BDE87040FFF7AEBF01AE284671
:102F600021463246FFF740FF204631462422FDF736
:102F700057FD0120D9E7704780B588B004AF0FC76F
:102F80000D980E9A694603900C9802900B98019048
:102F90000A98009004A8FFF728FE08B080BD000042
:102FA00010B500F00F03064C044AB0F1FF3F234474
:102FB000C8BF83184801187010BD00BF00E400E0CE
:102FC00014ED00E018B1C1B219B101200EE00020EB
:102FD000704710F47F4102D0090A092006E010F47E
:102FE0007F0107BF010E1920090C1120014A515C15
:102FF000084470471CA105000020704770B50446C6
:10300000FDF7ECFB04F114060546304651F080FA5A
:10301000304651F043F9208A20F0020020822846F1
:10302000FDF7E0FB606C2146BDE8704000F090BE0B
:10303000E0B5A84890F89400400709D50A480DF17A
:10304000070204210368252098479DF8070048B12E
:1030500001F06CFB30B1426922B1418C0348036836
:10306000104698478CBD00BFC444412070444120A5
:103070002DE9F0410D4604460A2800D82DB91C4A16
:1030800020462946EB2351F05DFF0A2C1DD8194E2E
:10309000DFF8648006EB8400D8F800100561204654
:1030A00088470546301906EB850680F85450012004
:1030B000A040374657F83C1F57F8382C40EA02002A
:1030C00047F8380C19B100240FE003240DE00BA0E1
:1030D0000021002451F06FFFD8F80410B06408A05C
:1030E0002A462B4651F070FF38602046BDE8F0813B
:1030F000F7DC05007C5B4120084441204B45000083
:103100004B455F455654000010B50B2809D20121EC
:1031100001FA00F4FDF762FB62490A68A2430A6003
:1031200007E04A4A002140F21D1351F00BFFFDF762
:1031300055FBBDE81040FDF755BB00BF594800687E
:10314000704700BF80B557486021FDF790FC80BDF7
:10315000F8B5544F3D4C3D68F5B1B5FA85F080F0B7
:103160001F060B2E06D330462946224640F2531343
:1031700051F0E8FE0620314604F0BEF807EB860069
:10318000006908B18047E6E730462946224640F20A
:10319000611351F0D7FEDEE7F8BD00BF2DE9F04125
:1031A000404DDFF8A8800446286810EA040608BFEE
:1031B000BDE8F081B6FA86F080F01F070B2F06D32A
:1031C0003846314642464FF4BC7351F0BBFE0620F0
:1031D000394604F091F805EB8700006908B1804793
:1031E000E2E73846314642464FF4C27351F0AAFE38
:1031F000DAE700BFF8B504460B280CD2294E301987
:1032000090F85450012000FA04F7FDF7E7FA31680E
:10321000394331600CE00D4A2046002140F2091389
:1032200051F090FE1F48204490F85450FDF7D6FA14
:10323000FDF7D8FA1B4800EB8500806C51F0C2FE08
:1032400005202146BDE8F84004F056B8F7DC05003B
:103250000A280ED810B50A4B002200210B2A0AD0EA
:1032600013F81240844204BF03EB42014978013253
:10327000F4E7002101E0BDE81040C8B2704700BF8C
:1032800020B805000749C0B2074E01EB8000041DBD
:1032900000F14805286851F091FE206831688847A0
:1032A000F8E700BF7C5B412040444120E0B509487D
:1032B00090F8A10040060AD507480DF107024FF427
:1032C00080410368282098479DF8071001B100202D
:1032D0008CBD00BF0C564120C044412000207047E7
:1032E00010B5354A1268904768B10446043002F0C0
:1032F0008CFF36482146283002F024FB2046BDE8EA
:10330000104013F081BA10BD10B50446C189808900
:10331000FF2213F037FD2D48043C2146283002F0EF
:1033200011FB2046BDE8104013F06EBA10B52748D7
:1033300000F12804204602F039FC10B113F064FAC1
:10334000F8E710BD024621482830006838B1038AEA
:103350009342FAD1438A8B4208BF7047F5E70020B9
:10336000704700BF2DE9F041DFF84C8014460F464E
:103370000646D8F8002090470546B0B91420012130
:1033800013F070FC054620B90CA00DA1A22251F04B
:10339000BBFDD8F80410281D6F822E8202F0B6FE05
:1033A0000A482946283002F013FC281D2146BDE8B2
:1033B000F04102F020BF00BF1044412041535300B0
:1033C0006B655F74696D65722E630000205B412040
:1033D0000020704710B5044620B9114811A14B22B6
:1033E0004AF002FDA06A0178232906D1E1698142F1
:1033F00003D9E26A0244914207D920A021464CF049
:1034000099F9FDF7EBF918B1FEE72030814200D9B8
:1034100010BD0BA02146BDE810404CF08BB900BF99
:10342000E1D805005F72745F7363686564756C65ED
:10343000725F737461636B5F636865636B00000048
:103440007761726E696E673A2025732073746163C9
:103450006B20697320636C6F736520746F207468D0
:103460006520626F74746F6D206F66207374616382
:103470006B20616464726573732E0A0074687265F0
:1034800061643A257320737461636B206F76657293
:10349000666C6F770A0000007CB5069D00F120067F
:1034A000044614302EC6C4E90500184623212A46D6
:1034B0004DF0D4FA04F120030FCB1A44154B043A13
:1034C0004CF07CF8E061DDE90756202D04D312A012
:1034D0001AA196224AF088FC00201C4AC4E9116611
:1034E00084F8355084F8365021462346A063C4E959
:1034F0001F0084F834002063CDE9000004F14C0083
:1035000050F01EFF1248016819B12046BDE87C400A
:1035100008477CBDA93805007072696F72697479BB
:10352000203C2052545F5448524541445F50524918
:103530004F524954595F4D41580000005F72745F0B
:103540007468726561645F696E697400A93E050004
:10355000C465412050F8141F42684A6042681160F7
:10356000C0E900007047000010B501280AD84AF0F1
:10357000C1FB044660B9074907A0B02251F0C4FC62
:10358000002405E0034A0021B523002451F0DAFCB1
:10359000204610BD67DD0500415353007CB504464D
:1035A000534890F89400C0060CD552480DF107021C
:1035B0001021234605682520A8479DF8070000280C
:1035C00000F095804C4D4D484D494E4AC5E90121CA
:1035D000E86013F02FFA01F0A9F80168064619B166
:1035E000328B002013F058FB716819B1728B0120E7
:1035F00013F052FBF16819B1F28B022013F04CFB6F
:10360000012005F8100B002003F08AFA002003F0D7
:1036100017F928464AF048F952F0F0FC002004F06F
:103620007BFD394D2868016801208847014601204B
:1036300006F0BAFD2868016800208847014600208E
:1036400006F0B2FD002009F07DF851F023FD2F4D6A
:103650004FF4C67105F1FC00FDF709FA002051F0A6
:10366000E9FC05F14000BC21FDF701FA002000F063
:10367000E1FD002053F0EEF9002054F033FB002070
:1036800053F0DCFD002052F083FF002055F010F8CD
:10369000002052F089FA002002F0B4F8002002F075
:1036A000BDFCB4F1A53F03D0F4B1B4F1C33F03D1E5
:1036B000204603F045FA17E041F2021000211022E3
:1036C0000123012613F00EFB0546B4F1F23F01D1B0
:1036D0002E7006E00EA22046002140F2CB3351F0BE
:1036E00031FC28460FF012FF0B48006880477CBD74
:1036F0000C564120A4444120D8474120D98E0500D2
:10370000F18E0500E58E050070454120D867412007
:10371000727769702E63000060444120BCB52A486E
:1037200090F89500C0060BD528480DF107024FF41C
:1037300080510368252098479DF80700002842D053
:10374000FDF74CF80446224800688047012002F04B
:1037500059F8012002F062FC012003F0E1F9012098
:1037600004F0DAFC012008F0EDFF012052F01CFA11
:1037700051F0B0FCF04D4FF4C67105F1FC00FDF7BF
:1037800076F9012051F056FC05F14000BC21FDF70F
:103790006EF9012000F04EFD012053F05BF901208D
:1037A00054F0A0FA012053F049FD012052F0F0FE40
:1037B000012054F07DFF13F015F80648006980479A
:1037C0002046FDF70FF8BCBD0C564120C4444120F3
:1037D00054444120D84741202DE9F04F85B0DFF80F
:1037E000848F98F89B00C0070CD0D14801AA4FF0F5
:1037F000807103682620984704469DF8040000283D
:1038000000F09181CB4E7078FF2816D001F07EFF3A
:1038100071780222C90002FA01F1084301F084FF25
:103820007078FF2809D001F071FF7178F022C9008B
:1038300002FA01F1884301F077FFBF4F3878C007E3
:1038400004D113F0F9FA002800F05F817078FF28A6
:103850000CD001F05BFF71781022F023C9008A4080
:1038600003FA01F18843104301F05EFF386808B1A4
:1038700001244BE17078FF280CD001F047FF7178EC
:103880002022F023C9008A4003FA01F18843104343
:1038900001F04AFFBD6A3869B7F82CA0B5F1FF31D5
:1038A00018BF5146421C10D06A1C0AD0421BA34BC1
:1038B00022F070429A4204D8A84207D1BA8A9142B3
:1038C00004D9B7F814A0054600E08A467868411C80
:1038D00025D09B49097801443889A0F5876000B25A
:1038E000B0F1FF3F0ADC6FF41C7240F2712390FBD1
:1038F000F2F2013202FB030092B2891A21F0704207
:103900006B1C0AD0491B8D4B21F07041994204D8A1
:10391000AA4204D181B28A4501D9824615467078FF
:10392000FF280CD001F0F2FE71783022F023C9009C
:103930008A4003FA01F18843104301F0F5FE681C48
:1039400036D001A852F004FC01987C492C1A24F0CE
:10395000704B8B453FF68CAF854206D11FFA8AF03B
:10396000BDF8081088427FF683AF98F89B000007E7
:103970000DD574480DF113024FF000615B460568E8
:103980002620A84781469DF81300002843D04AF01E
:103990009FF980B16C48834505D36C486C4940F26F
:1039A000231251F0B1FAA0026421B0FBF1F932E028
:1039B000D7F888424DE04AF07FF9814698F89A009E
:1039C00040060AD563480DF113024FF480010368E5
:1039D000262098479DF8130040B10420FEF740F8D8
:1039E00020B10420FEF73CF8C7F89402ABFB0901B4
:1039F00043F69822A0FB024001FB020952F05AFA5A
:103A000002462046494600230025FCF7C5FFB0F1D9
:103A1000060938BFA9461FFA8AF0BDF80810884287
:103A200006D2081A401052F035FDA9EB000004E060
:103A3000401A401052F02EFD4844D7F89012113829
:103A400001318842FFF614AFD7F88842A04238BF50
:103A500004467078FF280CD001F058FE717840229F
:103A6000F023C9008A4003FA01F18843104301F0B2
:103A70005BFE06F085FD002847D07078FF2809D04E
:103A800001F044FE71780222C90002FA01F1884374
:103A900001F04AFE092003F0E5FA2F4804602F4C9C
:103AA00098F89B00800709D52A4801AA4FF00071B9
:103AB0000368262098479DF8040060B128480068F4
:103AC0003862D4F8F40378622068F861002020603E
:103AD0004FF0FF30A060022020604FF0FF30A06068
:103AE0007078FF2809D001F011FE71780122C90019
:103AF00002FA01F1084301F017FE0220022452F0FD
:103B000061FA1848806A80470DE000247078FF2829
:103B100009D001F0FBFD71780222C90002FA01F11F
:103B2000884301F001FEE0B205B0BDE8F08F00BFB0
:103B3000C044412074464120D8674120FEFFFF0762
:103B4000786A4120A0444120FFFF3F006ADA050067
:103B500022DD0500C44441202C0004501800095007
:103B60000C080950E84741202DE9F0415F4D2978C4
:103B700001291CBF0120BDE8F081411EC9B28E2978
:103B800026D855F0BBF918B36C68012190F8018074
:103B90002D89E18004F10807A688417801440231AB
:103BA000CA1B93B2B34205D8B21A130402D092B220
:103BB000FCF736FFA6EB0800861EB1B217FA86F0B6
:103BC000691AFCF754FF0020A680E080BDE8F08170
:103BD0000220BDE8F08100BFB0B50D464349097829
:103BE00001291CBF0120B0BD411EC9B28E290CD8CD
:103BF000144655F083F940B141782970811C427810
:103C00002046FCF70DFF0020B0BD0220B0BD00BF74
:103C100010B5364C2181606055F032F900B110BD0D
:103C20000121217010BD00BFF8B5304F064638782D
:103C300001281CBF0120F8BD701EC0B28E2884BFB1
:103C40000220F8BD304614460D4655F057F968B1CC
:103C500041787E68A9420FD1012102302A46F180C5
:103C60002146FCF7DDFE0020F080F8BD30462946F5
:103C7000224655F0E9F8F8BD07D2B3883A892B44BB
:103C8000591A9142C4BF0320F8BD06490678096855
:103C90003046884730462946224655F0D5F8002060
:103CA000F8BD00BF6844412070B5104E054630781D
:103CB000012805D10C463189A1F10800A04201D2AA
:103CC000012070BD7068FCF7D2FE55F0D9F800B144
:103CD00070BD7668012029462246F08006F1080072
:103CE000FCF79EFE0020B480F08070BDF0574120AC
:103CF00070B50446406CB8B1218ACA0717D188074D
:103D00001AD5FCF76BFD04F114060546304650F059
:103D1000FFFB304650F0C2FA208A20F002002082D9
:103D20002846FCF75FFD07E06FF015050EE0214621
:103D300050F0B4FE054648B9FCF750FD218A002535
:103D4000656421F001012182FCF74CFD284670BD1D
:103D5000F8B50E460446FCF741FD0546308AC0071B
:103D60001BD1A068B04218D030464BF02BFDD4E9EF
:103D70000107016831604E60318A06607060284634
:103D800041F001013182FCF72DFD27B9E06A4FF0C7
:103D900017FF4EF065FF0020F8BD2846FCF722FD16
:103DA0006FF00600F8BD0000044620B91C481DA1B4
:103DB00039224AF019F804F10C054FF00008206888
:103DC000A04205D14FF03EFF50F02EF84EF048FFD4
:103DD000FCF704FD2768064638464BF0F3FC388AAA
:103DE000A76020F0010038823046FCF7FBFCD7E9E1
:103DF000022138469047FCF7F1FCC4F80880FCF734
:103E0000F1FC4AF0E3FD28464FF0DEF9023003D121
:103E100028464FF0FBF8F6E74BF048F8CFE700BF35
:103E2000D8E105005F776F726B71756575655F74BA
:103E300068726561645F656E7472790070B504467E
:103E400090F82C0001281ED020BB002594F82D20CE
:103E50000123012684F82B50C4F82750C4F82350BE
:103E6000C4F81F508878A07700F03F0009881043FD
:103E70002246A077204622F81C1FA16900F0DCFA38
:103E800084F82C600CE0A07F01254871A08BA1F87C
:103E9000030005E0616903A29A2351F053F800255D
:103EA000284670BD6165735F7270612E630000000B
:103EB00070B50E4602211C46154612F0D3FE446131
:103EC000C0E9016570BD0000F0B589B0044690F806
:103ED000322090F83300904216D2228E04F1200551
:103EE0001023A2EB0010A2690244284600F0C0FA99
:103EF000E16920462A46012300F09EFA94F8330037
:103F0000013084F8330072E0FD280BD8FE20102227
:103F100084F8330004F12000FCF782FDE169354AA2
:103F2000204661E0FF2801D1012061E0FF2005AAC1
:103F3000258E84F83300084691F90F60114600F091
:103F400067FA05F00F05B6F1FF3F05DC9DF8140098
:103F500080F087008DF814005DB305A89DF92360FB
:103F6000014600F055FAB6F1FF3F05DC9DF814005C
:103F700080F087008DF8140001A885F00F034FF042
:103F8000000C4FF0800E0026411B00F10F02103193
:103F9000102E17D0AE4203D2A769BF5D8F5505E042
:103FA000B54214BF82F800C000F803E0013A0136C0
:103FB000EEE794F832000028CFD0A16901A81022C2
:103FC000FCF72EFD01AD05AA10232846294600F076
:103FD0004FFA04F12006294610233046324600F0FD
:103FE00047FAE16920463246012300F025FA002015
:103FF00009B0F0BD1CA2050010B50124038680F8AD
:104000003340C0E9062103F10F0100220909C0E98C
:104010000922C26280F83210014641F8202FBDE823
:104020001040FFF751BFF8B51E46069B0C460546EB
:10403000BAB1382000213246FFF73AFF00F11807E5
:104040000646294610223846FCF7EAFC06F1280508
:10405000214610222846FCF7E3FC304639462A4622
:1040600006E0182000213246FFF722FF29462246AB
:10407000002301B0BDE8F04000F0DEB9F8B51E46FF
:10408000069B0C460546BAB1382000213246FFF7A0
:104090000FFF00F118070646294610223846FCF7A4
:1040A000BFFC06F12805214610222846FCF7B8FC83
:1040B000304639462A4606E0182000213246FFF7EE
:1040C000F7FE29462246012301B0BDE8F04000F08A
:1040D000B3B9000070B50D460E4906463020FFF713
:1040E000E7FE80F82D508661044600F11C051C2671
:1040F0002C2E04D0FCF782FCA0550136F8E7A1690C
:1041000020462A46012300F097F9002084F82C006D
:1041100070BD00BF3D3E0000F8B50C460C49054699
:104120004820FFF7C5FE064620682946102234467F
:1041300006F1380744F8340F3846FCF771FC304676
:1041400039462246042301B0BDE8F040FFF754BFD2
:1041500055410000FFF7B8BEF8B50C460E490546BC
:104160005420FFF7A5FE00F1440706462946102219
:104170003846FCF755FC06F1340521461022284646
:10418000FCF74EFC304639462A46102301B0BDE804
:10419000F040FFF731BF00BF9D410000FFF794BE24
:1041A0002DE9F0411F460D461249069B90460646F2
:1041B0005C203A46FFF77CFE00F1340407463146A6
:1041C00010222046FCF72CFC07F144062946102259
:1041D0003046FCF725FCD8F8000031462246102373
:1041E0007865002087F858003846BDE8F041FFF7B1
:1041F00003BF00BFF941000070B50D460446FFF74C
:1042000063FEA0B194F85810012001B170BD04F113
:10421000440684F85800294610223046FCF700FC7A
:1042200004F15402204631460423FFF7E5FE002046
:1042300070BD000010B540B18C4C206828B12046FC
:1042400001F0B4FC12F0E0FAF7E7884C204601F0E8
:1042500027FC0020207510BDF0B589B00D4604463E
:10426000002701AE082F05D0FCF7C8FB46F8270051
:104270000137F7E706F11001304601222346009589
:10428000FFF7FCFE09B0F0BDF8B5784F06460C46C6
:10429000384601F08BFC396805460020387531B18D
:1042A000012001223875D1E9030150F073FF9DB15F
:1042B00056B1AB681BB16A6930462146984728461B
:1042C000BDE8F84012F0A0BA6A68002AF1D028468A
:1042D000214690470028ECD1F8BD00BF13460A469E
:1042E0004021FFF7F7BE00002DE9F84306464020C5
:1042F000994688462249089B15460022002700EB74
:104300000610FFF7D5FD0446C0F818903E30320184
:104310004146FCF785FBA888296884F83D60C4F80D
:104320002F70C4F83370C4F8377084F83B70A0461F
:10433000DFF8D890E1612084687984F82E00B5F820
:104340000300751E28F82C0FFEB2B54209DD04EB00
:104350000610494610223E30FCF7A7FB08B901378A
:10436000F2E704EB061084F83C704246012300F1AA
:104370003E01204601B0BDE8F04300F05DB800BF4B
:10438000854300002DE9F84300F11C08054603228F
:104390004046FCF78AFB10B395F83C4095F83D6029
:1043A000DFF868900134E0B2B04216D205EB00109D
:1043B0004946102200F13E073846FCF776FB0028FC
:1043C000F0D005F12C0228463946012385F83C40FF
:1043D00000F032F80020BDE8F88385F83C40AC6975
:1043E00084B195F83C1095F83D306A6905EB0110F1
:1043F0009942434600F13E0000904FF01F0038BF45
:104400000020A0470120BDE8F88300BFBEA2050040
:1044100010B5002212F10F0309D083189C7BDB7BBF
:10442000E40944EA43038C18013AE373F2E70078A5
:104430004000087010BD00002DE9F0410B4F04460C
:104440000E46984615462146384601F0C1FBC4E9A0
:104450000365387D08B1BDE8F08101202946424658
:1044600038753046BDE8F04150F094BE24484120F4
:10447000B0B5013B5BB2002B04D4CC5CD55C6C4086
:10448000C454F6E7B0BD000010B5064C20684000EB
:1044900006D40120FDF708FB206840F08050206022
:1044A00010BD00BF14F000502DE9F047ACB04FF044
:1044B00000090BAD884604462C21C0F828902846F8
:1044C000FCF7D5FA6E462C213046FCF7D0FA21AF26
:1044D000214624223846FCF7A3FAD4F824A016ACCF
:1044E0003A492422CDF8AC902046CDF8A8A0FCF79C
:1044F00097FA0820CDF880901F900120CDE9130095
:10450000CDE90890BAF1000F0ED13BE0384603F038
:1045100077F99DF84C00C00703D1284603F070F9E5
:1045200002E02846FCF7F0FE9DF8A400C007EDD09D
:104530000DE0204603F064F99DF82000C00703D188
:10454000304603F05DF902E03046FCF7DDFE9DF8F1
:104550007800C007EDD03846214611F0EAF930B1B5
:1045600038462146FEF7A8FC2846314605E020469D
:104570003946FEF7A1FC30462946FEF7BDFCDDF8C2
:10458000A8A0BFE70A9868B16C46204654F03EFEEA
:10459000404621462422FCF743FADDE90910C8F819
:1045A00024100EE00948694611F0ABF90028EBD061
:1045B000694640462422FCF733FA0998C8F82400DB
:1045C0000020C8F828002CB0BDE8F0872CA2050018
:1045D000E0B5764890F8A000C00709D062480DF118
:1045E000070201210368282098479DF8070010B1B1
:1045F0000148006880478CBD484441201CB50346F3
:104600006A4890F89400C00709D009480DF10702E4
:10461000012104682520A0479DF8070030B1054C12
:104620002068804761684FF0C33088471CBD00BFD9
:10463000A444412018444120E0B55C4890F8A00013
:10464000800706D548480DF107020221036828209B
:1046500098478CBDE0B5554890F8A000400709D5B3
:1046600053480DF1070204210368282098479DF85C
:10467000071019B14F48006840F380108CBD00BF8F
:104680007CB51F4890F8B400400709D51D480DF1CE
:104690000702042103682D2098479DF8070070B396
:1046A000194CA078FF2809D001F030F8A178042235
:1046B000C90002FA01F1084301F036F8134D2E68E3
:1046C000F00309D54FF4803011A28C236860286D67
:1046D000296D090C50F036FC300603D58020686047
:1046E00036F0C4F8A078FF2809D001F00FF8A178BF
:1046F0000422C90002FA01F1884301F015F87CBDDB
:104700000C564120C44441207446412010080950F1
:104710007277626C652E6300054890F9240070473B
:10472000014603482822FCF77BB900BF00487047C8
:10473000E44C4120E0B51D4890F8A000000709D5E1
:1047400009480DF1070208210368282098479DF8C1
:10475000070028B1054849F0A7F8054800688047D8
:104760008CBD00BF0C564120C4444120E847412085
:104770007C444120E0B50D4890F8A000C00609D562
:104780000B480DF1070210210368282098479DF877
:10479000071051B107480068400644BF4FF0FF3092
:1047A0008CBD05480068804700208CBD0C56412018
:1047B000C04441203C00045080444120F8B5424FA1
:1047C0000446084616460D46B847C10EA171C0F30F
:1047D000CB31A180C0F380316FF39F302080A17076
:1047E000287940092072287900F01F00E07168796B
:1047F000A979EA7940EA012002F00F011309237434
:1048000040EA0140E060287A697AAA7A40EA012009
:1048100002F00F011309237640EA01406061E87A53
:10482000607605F10D00B847A06205F11100B847A8
:10483000010D6FF31F506184E061687DA97D40EA3E
:104840000120E084D5F81700E062E87E00F01F0048
:1048500084F83000E87E5F2807D81C49002701EB68
:104860005010407884F8240000E01127E869212ED8
:10487000C4F8310095F8200000F07F0084F835007E
:1048800095F820004FEAD01084F8200014D0392E7B
:1048900016D10120102284F83600D5F82100D5F871
:1048A0002510C4F83B10C4F8370004F13F0005F1AF
:1048B0002901FCF7B5F804E0002084F8360000E098
:1048C0001E273846F8BD00BF8B5F0000DCA2050044
:1048D000B0B5FBF783FF0546E048283001F066F9E4
:1048E00004462846FBF77EFF002C14BFA08800205A
:1048F000B0BD00BF10B50146E848C28A8B1A03EB71
:104900001363C3F30724008B801A00EB1060B4EB31
:10491000202F05DBE24A20464FF4AB7350F012FB28
:10492000E74800EBC40000F5B67010BD70B5014655
:10493000DA48C28A8B1A03EB1363C3F30724008B94
:10494000801A00EB1060B4EB202F05DBD44A204620
:104950004FF4B17350F0F6FAEE4E06EBC40000F5DA
:10496000B674FBF73BFF054606F12800214601F02F
:104970002FF92846BDE87040FBF734BFB0B5FBF710
:104980002DFF0546E9483C3001F010F90446284661
:10499000FBF728FF002C14BFA0880020B0BD00BF8B
:1049A00070B50146DA4840F2F643028A408A801A1E
:1049B0008A1A92FBF3F290FBF3F0D4B2844205DB47
:1049C000F24A20464FF4C17350F0BCFAF04E06EBA9
:1049D000C40000F5E674FBF701FF054606F13C0054
:1049E000214601F0F5F82846BDE87040FBF7FABE15
:1049F0002DE9F041DFF8108D0446B8F82400B0F539
:104A0000004F05D9EC4A800A2021802350F09AFA01
:104A1000002C66D0B8F80C00B8F80E10081A242143
:104A200090FBF1F3E34C7A4D082204F18C0120460F
:104A3000A847B8F81400B8F816104FF48276082288
:104A4000081A04F5967190FBF6F304F11400A847D8
:104A5000B8F81600B8F818100822081A04F5B6714C
:104A600000EB1060031204F12800A847B8F810000A
:104A7000B8F812100822081A40F2F64190FBF1F340
:104A800004F13C0004F5E671A847B8F81C00B8F83A
:104A90001E100822081A04F5FA7190FBF6F304F1CF
:104AA0005000A847B8F81800B8F81A100822081AD9
:104AB000202190FBF1F304F1780004F53971A84747
:104AC000B8F81A00B8F81C100822AC46081A0C21D5
:104AD00090FBF1F304F1640004F52571BDE8F041A9
:104AE0006047DD4C4FF441712046FBF7C0FFB8F83A
:104AF0000C00B8F80E102422091A91FBF2F31946A3
:104B00000AB2012A0ADB01398AB201EBC10604EBC1
:104B1000C20200EB8606A2F89060F1E7B8F8142014
:104B2000B8F816104FF48276881A053290FBF6F02A
:104B300006B2012E0ADB013886B200EB801704EBC7
:104B4000C60602EB8707A6F83071F1E7B8F818003F
:104B5000421A02EB1262121216B2012E08DB013A5F
:104B600097B201EB022604EBC707A7F87061F3E7E1
:104B7000B8F81010B8F81220561A40F2F64296FB18
:104B8000F2F637B2012F08DB013EB5B206FB021781
:104B900004EBC505A5F8D071F3E7B8F81C10B8F818
:104BA0001E204FF48275521A92FBF5F215B2012DB8
:104BB0000CDB013A95B202EB821604EBC50501EB62
:104BC000860685F8FA21A5F8F861EFE7B8F81A200B
:104BD0002026151A95FBF6F635B2012D08DB013EAD
:104BE000B7B200EB461504EBC707A7F8E852F3E7A6
:104BF000881A0C2190FBF1F001B20129FFF612AFE7
:104C0000013881B204EBC10181F89802F4E700BFDA
:104C1000815B000080B59048503000F0C7FF00284D
:104C200014BF8079FF2080BD10B504468848818B71
:104C3000C08B401A4FF4827190FBF1F0A04206DC69
:104C4000844A204600214FF4CD7350F07BF982480E
:104C500000EBC400B0F8F80110BD00BF3C48412093
:104C600010B504467A48818BC08B401A4FF482718C
:104C700090FBF1F0A04206DC764A204600214FF47A
:104C8000D07350F05FF9744800EBC401503001F567
:104C9000FA71BDE8104000F09BBF00BFAC57412047
:104CA00072DD0500B0B5FBF799FD04466A4800F0D7
:104CB0007DFF05462046FBF795FD2846B0BD00BFA9
:104CC0003C48412070B50146614824238289C0894F
:104CD000801A8A1A92FBF3F290FBF3F0D4B284426A
:104CE00005DB5C4A20464FF4817350F02BF95A4D96
:104CF00005EBC40000F18C04FBF770FD0646284666
:104D0000214600F065FF3046BDE87040FBF76ABD04
:104D1000AC5741203C48412080B54F48143000F04A
:104D200045FF002814BF8088002080BD3C484120FA
:104D300070B5014646484FF48273828AC08A801A51
:104D40008A1A053A90FBF3F092FBF3F2D4B2844254
:104D500005DB404A20464FF4907350F0F3F83E4D87
:104D600005EBC406FBF73AFD0446B6F8300139F00E
:104D700083F828B906F5967105F1140000F028FFB4
:104D80002046BDE87040FBF72DBD00BF72DD050079
:104D90003C48412080B53048783000F007FF08B12A
:104DA000808880BDDB482B4940F2D31250F0ACF82C
:104DB000002080BD3C48412072DD0500B0B5244D87
:104DC0000446288BA04203D800F18001A14207D8F5
:104DD000204A204600214FF4EE7350F0B3F8288BA0
:104DE000201A20211C4A90FBF1F0C0B202EBC00057
:104DF00000F5397102F17800BDE8B04000F0E8BE7E
:104E000080B51548643000F0D1FE08B1007980BD4E
:104E1000DA4810494FF4D97250F076F8FF2080BD7F
:104E20000B494A8B898B891A0C2291FBF2F1814242
:104E300008DD094A02EBC00000F5257102F16400AB
:104E400000F0C6BE034A00214FF4E17350F07AB877
:104E5000AC57412072DD05003C484120B0B5094BFC
:104E600000210422B2F1FF3FDCBFC8B2B0BD845CB8
:104E7000013A250904F00F041C5D5D5D21442944BD
:104E8000F0E700BFCCCE0500032907D8DFE801F02A
:104E9000020D1116502101EBC000704780B50AA227
:104EA000662350F04FF8002080BD2C2101EB8000DC
:104EB00070474FF4347101EB801070474FF4E77185
:104EC00001EB0010704700BF626C655F7574696C20
:104ED0002E63000010B50404B0F5006F05D306483A
:104EE00006A141F6BA1250F00FF8084801686FF3B6
:104EF0001A412143016010BD6ADA05007265675FDF
:104F00006274636F72652E680000000030050950FE
:104F100010B5044610F4404F05D0DD48DD4940F29D
:104F2000DC724FF0F1FF0148046010BD2804095005
:104F30002DE9F0471D4616460F46804611F0FE0F3C
:104F400004D0D3488E4943224FF0DEFF16F0FE0F07
:104F500004D0CF488A4944224FF0D6FFDDF820A084
:104F600015F0FE0F04D0CA48854945224FF0CCFF0A
:104F7000DDF82490FF03B6036D034FEA0A241AF00C
:104F8000E00F04D0C2487E4946224FF0BDFF46EAFA
:104F900007004FEA4811044A2843204340EA090029
:104FA0005050BDE8F08700BF1006095070B5144698
:104FB0000E460546B1F5804F05D3B548704940F21D
:104FC00089124FF0A1FF360414F4404F05D0B048C9
:104FD0006B494FF4C5724FF097FF46EA0400690130
:104FE000014A505070BD00BF1C06095070B51446F0
:104FF0000E460546B1F5804F05D3A548604940F2FD
:105000003F124FF081FF360414F4404F05D0A04802
:105010005B494FF4A0724FF077FF46EA0400690144
:10502000014A505070BD00BF180609502DE9F041EB
:105030001D4616460F46804611F0FE0F05D09448D7
:105040004F494FF4F0724FF05FFF16F0FE0F05D09E
:105050008F484B4940F2E1124FF056FF069C15F085
:10506000FE0F05D08A4846494FF4F1724FF04CFFCD
:105070007F013601ED0014F0F80F05D08448404957
:1050800040F2E3124FF040FF47EA06004FEA4811B2
:10509000034A2843204300F580305050BDE8F0819A
:1050A000200609502DE9F0410F051D4616468046A1
:1050B000B7F1804F05D37648314940F262224FF074
:1050C00023FF16F0F00F05D071482D4940F26322FE
:1050D0004FF01AFF069C15F47C4F05D06C48284908
:1050E0004FF419724FF010FF36042D0114F0F00F39
:1050F00005D06748224940F265224FF005FF46EA95
:1051000007004FEA48111F4A284320435050BDE88A
:10511000F08100BF6ADA0500F8B507051C461546A0
:105120000E46B7F1804F05D35948154940F2622227
:105130004FF0EAFE16F0F00F05D05548104940F246
:1051400063224FF0E1FE15F47C4F05D050480C4926
:105150004FF419724FF0D8FE36042D0114F0F00F01
:1051600005D04B48064940F265224FF0CDFE46EA95
:1051700007000449284320430860F8BD6ADA0500A7
:1051800015E00500240609507CB5294890F8B800C0
:1051900040070AD527480DF10702042103682E2095
:1051A00098479DF80700002841D0234CA078FF289D
:1051B00009D000F0ABFAA1780222C90002FA01F18D
:1051C000084300F0B1FA1D4D55F8046CF00309D501
:1051D0004FF480301AA28F232860E86CE96C090C28
:1051E0004FF0B0FEB00405D54FF400502860002009
:1051F00024F0C4FA700405D54FF4804028600120E3
:1052000024F0BCFA300405D54FF400402860022099
:1052100024F0B4FAA078FF2809D000F077FAA1783A
:105220000222C90002FA01F1884300F07DFA7CBD38
:105230000C564120C44441207446412014040950B6
:10524000727762742E63000010B50402000605D563
:105250000F48104941F2ED524FF056FE0E480168DA
:1052600021F4FE412143016010BD00BF10B504468A
:10527000000605D50648074941F2F9524FF044FEB1
:105280000548016821F07F012143016010BD00BF86
:105290006ADA0500ECDF0500D40409500149086012
:1052A000704700BF404B4120E348143000F07EBC03
:1052B00070B50146E14840F20442808F081A053873
:1052C00090FBF2F0C4B2062C04D3BD4A2046D4238E
:1052D0004FF038FE04EB4400E24D05EB8006FBF78F
:1052E0007DFA0446B6F87C0024F090F928B906F15E
:1052F000740105F1140000F06BFC2046BDE870401D
:10530000FBF770BAB0B5FBF769FA0546EA482830F2
:1053100000F04CFC04462846FBF764FA002C14BF4E
:1053200020890020B0BD00BF10B50146E14840F221
:105330000442C08F081A90FBF2F0C4B2082C05D3C7
:10534000DE4A20464FF485734FF0FCFD04EB440029
:10535000EB4901EB8000BC3010BD00BF70B5EA49DD
:10536000E74EC98F401A40F2044190FBF1F0C1B200
:10537000490051FA80F006EB800000F1BC04FBF715
:105380002DFA054606F12800214600F021FC2846AA
:10539000BDE87040FBF726BAF8B5DB4D0446B5F81A
:1053A0004200B0F5004F05D9C44A800A2021792374
:1053B0004FF0C8FD2CB1D248D0F81C0108B111F053
:1053C00023FACF4C4FF490712046FBF750FBE88D49
:1053D000298E18260822081A04F13C0190FBF6F3E6
:1053E000204600F0CDFBE88D298E0022091A91FBA2
:1053F000F6F18A4209DA02EB420604EBC2030132FB
:1054000000EBC606A3F84060F3E7A88FE98F40F2EF
:1054100004460C22081A04F1740190FBF6F304F11F
:10542000140000F0ADFBA98FE88F04F17C03421A51
:1054300092FBF6F20026964208DA06EB06270136C2
:1054400001EB8707053723F80C7BF4E7B5F840102C
:1054500040F204460C22081A04F1BC0190FBF6F35A
:1054600004F1280000F08CFBE88FB5F8401004F13F
:10547000C4020023091A91FBF6F18B42A8BFF8BDC4
:1054800003EB0324013300EB840422F80C4BF4E714
:105490009B4800F08BBB00BF9B49C98D401A182167
:1054A00090FBF1F0C1B2964800EBC1013C3100F035
:1054B0008FBB00BF10B5924901EB8001D1F81C01F0
:1054C00028B101F58E7411F09FF90020206010BD05
:1054D0002DE9F84F064601EB410003EB430B8846EC
:1054E00000219A461446850005EB8B00343011F0FC
:1054F000B9FB07462F48002F00EB8600C0F81C714F
:105500004FD007F13401DDF828900C2243464819AA
:10551000C7E90A10384600F033FBF96A07F11400B6
:105520000C22534600F02CFB4FF4076004F1030EED
:10553000009406FB00FC20462EF0030300261E48C4
:105540006146B54208D0BC6AB0F8402034440A44F1
:1055500019440C36A280F4E74FEA9E0109F10303D7
:105560004FEA8B02002501FB08F123F0030304330B
:105570000CEB8101AA4209D0B0F84060FC6A0E44ED
:105580002C4419440C350436A680F3E7009887F8BC
:10559000339087F832A087F8308087F83100BDE873
:1055A000F88F464905A040F24712BDE8F84F4FF08A
:1055B000ABBC00BF444B4120AC574120415353008A
:1055C00032DF05004E4A02EB8000D0F81C0130B1FA
:1055D00090F833208A4224BF143000F0E7BA00204C
:1055E000704700BF464A02EB8002D2F81C2112B37A
:1055F000444B10FB0310444992F83130B1F840108D
:10560000033323F00303401A92F8301003FB110018
:1056100092F833100731043821F0030190FBF1F0C8
:10562000C1B2490051FA80F0D16A01EB800102F168
:10563000140000F0CDBA7047444B4120AC574120D4
:1056400080B52F4A02EB8000D0F81C0140B190F8E1
:1056500031208A4204D300F0A9FA08B1808880BDC5
:10566000002080BD444B4120B0B5274B254A10FB9C
:105670000212B3F84030D21A214B03EB8000D0F86D
:105680001C5195F8313095F83000033323F00303B3
:1056900092FBF3F2D4B2844205D3084A20464FF479
:1056A000BA734FF04FFC04EB4400A96A01EB800091
:1056B000B0BD00BFAC574120444B412032DF050054
:1056C00002460F4800EB8200D0F81C01B0B10D4B30
:1056D00012FB03110C4AB2F84020891A90F83120CD
:1056E000033222F0030291FBF2F1CAB2520052FAE5
:1056F00081F1826A02EB810100F06ABA704700BF53
:10570000444B412090F7FFFFAC57412010B50D4CA2
:1057100048F0DAFA28B1012814BF04F5806404F5D2
:105720000064206810BD00BFB0B50446054D48F0C8
:10573000CBFA28B1012814BF05F5806505F5006591
:105740002C60B0BD6400095010B50C4602464FF401
:1057500088500021012311F0C5FA0470BDE8104003
:105760000DF0D4BEC088401AB0FA80F040097047EE
:1057700010B50022062A04BF012010BD8B5C845C9A
:1057800001329C421CBF002010BDF3E70078044AA0
:10579000010900F00F00515C105C0844C0B2704772
:1057A000CCCE0500114483180139984228BF7047B8
:1057B00011F8012900F8012BF7E71144831801398A
:1057C000984228BF704711F8012900F8012BF7E72C
:1057D000B0B5584D05F1140000F0E8F904466869C9
:1057E00018B9434801680520884734B10020616832
:1057F00020602046BDE8B0400847B0BD0022C0E9A7
:105800000021704710B580B90D4C0E490320226865
:10581000904722680C490520904722680B490A20CE
:1058200090474448283000F03BF9424C204600F0B5
:1058300037F904F11400BDE8104000F031B900BFA1
:105840002C444120C5580000D15700005158000099
:1058500070B5FAF7C3FF374E054606F1280000F091
:10586000A5F90446B06A18B9214801680A2088479A
:105870002846FAF7B7FF34B100206168206020465F
:10588000BDE87040084770BDF8B52A4D0446214672
:1058900005F1280000F0FAF860B955F8287FFAF70A
:1058A0009DFF06462846214600F092F93046FAF759
:1058B00099FF07B1F8BD224801680A20BDE8F84009
:1058C000084700BFB0B51B4D284600F06FF90446ED
:1058D000286818B9064801680320884734B10020B9
:1058E000616820602046BDE8B0400847B0BD00BFF9
:1058F0003044412070B50C460546022804D3ED48DB
:105900000D49B7224FF000FB206800B170BD05EBD8
:105910008500084901EB8006306820B9074808492E
:10592000405D0968884730462146BDE8704000F078
:105930004FB900BF644C412030DD0500B6A2050020
:1059400044444120F8B50D46044620B9E448CD4909
:10595000C6224FF0D9FACB4E002027463F68BFB190
:10596000AF4217D038682168814206D1B9B23814E5
:105970003246D7234FF0E6FA386887423846EDD1F1
:10598000B9B238143246D8234FF0DCFA3846E5E78E
:105990000020F8BD0146002808BF21462A680A6099
:1059A0006168A94208BF6060A06821690138A060F1
:1059B000814238BF084620610120F8BD70B5164607
:1059C0000D46044620B9E748AE49FC224FF09CFA48
:1059D00026B9EF48AB49FD224FF096FA5DB1286831
:1059E000B04205D0EA48A74940F209124FF08CFABC
:1059F000306828600BE02068B04206D0EF48A1492B
:105A00004FF481724FF080FA20680068206060686F
:105A1000B04208BF6560A06821690138A06081427A
:105A200038BF0846206170BDF8B504460846002915
:105A300015460E4608BF204607682CB9EA4891492A
:105A40004FF491724FF060FA2DB9F2488D4940F24F
:105A500023124FF059FA3046002E08BF204629681D
:105A600001606068A8424FF0000008BF66602860CF
:105A700027B1A0683F680138A060F9E7A0682169F4
:105A8000814238BF08462061F8BD00BF00688842E7
:105A900018BF0028FAD1401AB0FA80F040097047C8
:105AA00000214FF0FF32C0E90011C0E9021102618C
:105AB0007047000070B515460E4604462AB9EB48FB
:105AC00070494FF4CF724FF01FFA6EB1306800B9D1
:105AD000656028603560D4E902010130814298BFD9
:105AE0000146C4E9020170BD20462946BDE8704068
:105AF00000F06EB870B515460E4604462AB9E64861
:105B000060494FF4BB724FF0FFF9A6B10020224666
:105B100001461068B04202D000280246F8D151B1C7
:105B20000D602860D4E902010130814298BF01462E
:105B3000C4E9020170BD20462946BDE8704000F06E
:105B400089B800BFB0B5054608680C4630B9D248E0
:105B50004C4940F259124FF0D7F9206829680029C2
:105B600029461ABF51F8042F106001C1D4E901027F
:105B7000AB6808601A44AA6000222260A260B0BD2F
:105B80009BB1B0B501240160A34204D08D1801344B
:105B90000D602946F8E74FF0FF32C0E90113C0E974
:105BA000033200200860BDE8B0407047014600683D
:105BB00060B102680A600AB900224A608A680B690B
:105BC000013A8A60934238BF1A460A617047000062
:105BD000B0B50D46044621B9AF482A4959224FF0C5
:105BE00093F9206808B1606800E020460560002055
:105BF00065602860D4E902010130A060814288BF5D
:105C00000846E060B0BD00BF70B516460D460446BC
:105C100021B9A1481B4973224FF076F926B99E4855
:105C2000184974224FF070F9206808B1606800E0EC
:105C30002046056000206660306025B1A0682D68B0
:105C40000130A060F9E7D4E90201814288BF08462B
:105C5000E06070BDB0B50D46044621B9ED48094974
:105C600097224FF051F9206800B9656025602860DF
:105C7000D4E902010130814298BF0146C4E9020122
:105C8000B0BD00BF3ADD05000021006808B1013158
:105C9000FBE788B270470000B0B50C46054621B955
:105CA000044805A1A3224FF02FF9B5FBF4F000FB47
:105CB0001450B0BD6ADA0500636F5F6D6174682EC1
:105CC00068000000B0B50C46054621B9044805A19E
:105CD000A3224FF019F9B5FBF4F000FB1450B0BD4E
:105CE0006ADA0500636F5F6D6174682E68000000FA
:105CF000B0B50C46054621B9044805A1A3224FF0D2
:105D000003F9B5FBF4F000FB1450B0BD6ADA0500EE
:105D1000636F5F6D6174682E68000000B0B50C465B
:105D2000054621B9044805A1A3224FF0EDF8B5FBC3
:105D3000F4F000FB1450B0BD6ADA0500636F5F6DCC
:105D40006174682E68000000B0B50C46054621B9A4
:105D5000044805A1A3224FF0D7F8B5FBF4F000FBEF
:105D60001450B0BD6ADA0500636F5F6D6174682E10
:105D700068000000B0B50C46054621B9044805A1ED
:105D8000A3224FF0C1F8B5FBF4F000FB1450B0BDF6
:105D90006ADA0500636F5F6D6174682E6800000049
:105DA000B0B50C46054621B9044805A1A3224FF021
:105DB000ABF8B5FBF4F000FB1450B0BD6ADA050097
:105DC000636F5F6D6174682E68000000B0B50C46AB
:105DD000054621B9044805A1A3224FF095F8B5FB6B
:105DE000F4F000FB1450B0BD6ADA0500636F5F6D1C
:105DF0006174682E68000000B0B50C46054621B9F4
:105E0000044805A1A3224FF07FF8B5FBF4F000FB96
:105E10001450B0BD6ADA0500636F5F6D6174682E5F
:105E200068000000B0B50C46054621B9044805A13C
:105E3000A3224FF069F8B5FBF4F000FB1450B0BD9D
:105E40006ADA0500636F5F6D6174682E6800000098
:105E5000B0B50C46054621B9044805A1A3224FF070
:105E600053F8B5FBF4F000FB1450B0BD6ADA05003E
:105E7000636F5F6D6174682E68000000B0B50C46FA
:105E8000054621B9044805A1A3224FF03DF8B5FB12
:105E9000F4F000FB1450B0BD6ADA0500636F5F6D6B
:105EA0006174682E68000000B0B5094B002109221A
:105EB000B2F1FF3FDCBFC8B2B0BD845C013A250936
:105EC00004F00F041C5D5D5D21442944F0E700BF30
:105ED000CCCE050080B5FAF791FDC0B280BD80B58B
:105EE000FAF78CFDC0B280BD80B5FAF787FDC0B26D
:105EF00080BD80B5FAF782FDC0B280BD80B5FAF7EB
:105F00007DFDC0B280BD80B5FAF778FDC0B280BD1E
:105F100080B5FAF773FDC0B280BD80B5FAF76EFDAB
:105F2000C0B280BD80B5FAF769FDC0B280BD80B552
:105F3000FAF764FDC0B280BD80B5FAF75FFDC0B26C
:105F400080BD80B5FAF75AFDC0B280BD80B5FAF7C2
:105F500055FDC0B280BD80B5FAF750FDC0B280BD1E
:105F600080B5FAF74BFDC0B280BD80B5FAF746FDAB
:105F700080B280BD0178427841EA02218278C078FF
:105F800041EA024141EA006070470178427841EA03
:105F900002218278C07841EA024141EA00607047FC
:105FA00002090121012A88BF010908467047000043
:105FB000FEB50446684650F0CBF86B4D029E68680B
:105FC000371AB7F1FF3F05DC7A487B494FF4C272BC
:105FD0004EF09AFF4FF47A700F492A89B7FBF0F020
:105FE00000FB017111448AB22981B2F57A7F22BF88
:105FF000A1F57A7129810130E968CA43904202D93A
:106000002A7C01322A7408446E60E8602969C4E978
:106010000001FEBD6ADA050018FCFFFF10B586B06E
:1060200070B9514C00202074E060208103A850F02A
:106030008FF8059808496060064802680720904775
:1060400049480021016001A8FFF7B2FF00F006F8FF
:1060500006B010BD2C444120CD60000042480C49E0
:1060600002688AB1C3689268D21A012A08DB094B18
:106070009A4209DC4FF47A715143B1F57A7F03D823
:1060800005480168072008474068084450F0B0B947
:1060900000E9A4359FBB0D0044444120324B00224F
:1060A00011461A6862B182421346F9D12E4A00297C
:1060B00018BF0A460368B1FA81F14909136000E08C
:1060C00000214FF0FF320260084670477CB50E4851
:1060D000016807208847244D6C460026286870B167
:1060E0002046FFF765FF2868009A8168891A002911
:1060F00005DCD0E90012066029609047EEE7BDE8B4
:106100007C40FFF7ABBF00BF30444120B0B50C4628
:10611000054629B9F54828494FF4DD724EF0F4FEE2
:106120004FF0FF30C5E90004B0BD00BFB0B5044674
:10613000006801300EBF00202046FFF7AFFF0A497C
:106140000022096829B18B68A568EB1A01D40A46B8
:10615000F7E7054B002A18BF13461C602160B2FA0E
:1061600082F149090843B0BDA04C412010B5044656
:10617000806821690844A0602046FFF7D7FF08B176
:10618000FFF76CFFE1682046BDE8104008470000BB
:10619000B0B50D46044629B9D448074940F2DF128C
:1061A0004EF0B2FE05484FF0FF31E560C4E9001043
:1061B000B0BD00BF6ADA050044DD05006D61000076
:1061C000002908BF01216FF00042914228BF11460B
:1061D0000161AFF30080BCB5054668460C46FFF789
:1061E000E7FE00982044A8602846FFF79FFF08B10B
:1061F000FFF734FFBCBD002908BF01216FF000424A
:10620000914228BF1146FFF7E6BFE0B501680131B2
:1062100009D0FFF743FF30B16846FFF7C9FEBDE87C
:106220008C40FFF71BBF8CBD2DE9F04F87B0109C51
:10623000002989460192054698460E46074606946F
:1062400018BF4FF00109002818BF01252CB9A74835
:10625000A7494FF49F724EF057FE20783E2805D094
:106260003C2801D101340694012002E001340020D1
:106270000694029006EB08004FF0000B0097049084
:1062800005EA090001254FF0000905903846002075
:106290000390207880B9BBF1000F00F0FC800399D7
:1062A000A9F101095C46CDF818B056FA81F0C9B2DF
:1062B0004942013800EA0106BBF1000F03D05FEA52
:1062C000096000F0E88020783038092804D806A852
:1062D00000F0EEF8069C054604F1010A01210320B6
:1062E000CDF818A094F80080A8F142020C2A29D811
:1062F000DFE802F051DA3DDADA5007DADADA62DAA8
:106300000700A8B2059A711C21F001014500002A7E
:1063100066D0049A4E19964200F2C380029A22B1C6
:1063200038462A46FAF77CFB5BE0002800F08E80B6
:1063300031F8022B013812BA130C120E3B707A702E
:106340000237F2E7B8F1530F06D0B8F16E0F22D042
:10635000B8F1730F40F0A8800498741C844200F2D6
:10636000A080B8F1530F3ED196F800903FE0059918
:10637000F01C20F00300002976D0049A011D8A4207
:10638000C0F08F80029A0168002A68D00A0A39702A
:10639000090C67E000210598ADB2E8B3049A7019C2
:1063A00090427ED802980843012830D138463146C1
:1063B0002A46FAF735FB2FE0A8B28500F01C20F042
:1063C0000301059800283ED004984E19864268D8EB
:1063D000029800284CD038462A46FAF721FB33E0D1
:1063E0004E192F4433E03046FFF7D0F98146059827
:1063F00018B130783870DDF818A09AF8000031280C
:1064000012D0342812D032284DD102210FE0384664
:1064100031462A46FFF7C6F92E442F44B8F16E0FD5
:106420001BD116F8015C21E0012100E00421601875
:106430000AF1010B0391494201370138CDF818B038
:1064400000EA010612E04E192F4406E00E46B8F1AC
:106450004E0F02D136F8025C08E0012506E00A0C76
:106460003A700A0A7A70B9700337061D069C10E765
:1064700000203A1885420AD00B5804301BBA1C0A77
:10648000137054701C0C1B0E9470D370F1E70E182F
:1064900001251746EAE700980199381A088000207C
:1064A00002E0012000E0032007B0BDE8F08F00BF4C
:1064B00010B5044620B90D480D49E5224EF024FDE3
:1064C0002068411C2160007830380A78303A092A67
:1064D00009D84A1C00EB80002260097801EB4000DB
:1064E00011463038F1E780B210BD00BF6ADA05000E
:1064F0004EDD05002DE9F04F87B00E46109F01924A
:1065000011880446002E3246069718BF0122002843
:1065100018BF01243D783E2D05D03C2D01D1013717
:106520000697012502E001370025069722400295D3
:10653000334401444FF0010A4FF0000805464FF084
:10654000000C0024009003910493059201463978D1
:1065500079B9B8F1000F00F03B8155FA84F0E1B24F
:10656000ACF1010C4746CDF818804942013800EAE9
:106570000105B8F1000F03D05FEA0C6100F028813B
:1065800039783039092906D806A86746FFF790FF01
:10659000BC46069F824607F1010901210320CDF880
:1065A000189097F800B0ABF142020C2A3AD8DFE815
:1065B00012F06700100148001001100166000D0084
:1065C000100110011001820010010D001FFA8AF065
:1065D000059B691C274621F001014200002B00F0B9
:1065E0008880049BB4189C4200F20481039B8D18A0
:1065F0009D4200F20181029B33B108463146664656
:10660000FAF70EFAB446B8E0002800F0B480327809
:1066100073780138023642EA032212BA120C21F8CA
:10662000022BF1E7BBF1530F66D0BBF16E0F27D001
:10663000BBF1730F40F0CD803046FFF7A7F88446DA
:106640005CE00599E81C20F00300002900F0A5801B
:10665000049AF11C914200F2C780039A011D8A42FC
:10666000C0F0C480317873782546B278029C1B0252
:10667000002C00F08D80194341EA02418BE000219B
:1066800005981FFA8AF700285BD0049AF019904207
:1066900000F2AA80039AE819904200F2A7800298BB
:1066A0000843012844D1284631463A46A14664466B
:1066B000FAF7B6F943E01FFA8AF08200E81C20F0EE
:1066C00003010598002851D004982746B418844245
:1066D00000F2908003988D18854200F28D80029818
:1066E00000285ED0084631466646FAF799F9B44666
:1066F00049E0B4188D1840E096F800C0059858B1EC
:106700000499701C88426FD80399681C88426DD820
:1067100030782870DDF8189099F8000001350136BE
:10672000312816D0342816D0322861D1022413E043
:10673000284631463A46A1466446FFF733F8A44658
:106740004C463E443D44BBF16E0F11D116F801ACEE
:1067500025E0012400E00424281909F10108614220
:106760000138CDF8188000EA010518E016448D18AC
:106770004FF0010A13E00D463446BBF14E0F02D133
:1067800035F802AC01E04FF0010A26463C4606E02F
:1067900043EA014111432C4601600336051D069F63
:1067A000D5E60020331882420DD01C785D7844EA8B
:1067B00005249D78DB7844EA054444EA03631BBA68
:1067C0000B500430EEE70D184FF0010A1E46DDE7CE
:1067D00000200099019A691A118004998E4288BF9D
:1067E000012007B0BDE8F08F0120F2E70220F0E7BA
:1067F0000320EEE7012000E002200D46E9E70A0A47
:10680000017042700A0C090E8270C17070470A0A4A
:10681000017042700A0C090E8270C17070470A0A3A
:10682000017042700A0C090E8270C17070470A0A2A
:10683000017042700A0C090E8270C170704700002E
:1068400000B170470149082010F0B2BBBCA00500A0
:106850002DE9F84F2DED0E4BB0EE408A56EC107B33
:1068600020EAE0708A4600211C469146F0EE608ADC
:106870009FED890B116031464E28A8BF4E20019034
:1068800058EC105B384643462A46FAF7FCFA60B9E2
:106890009FED830B01203A463346C9F8000051ECC6
:1068A000100BFAF7D3F941EC180BB0EE480ADDF8FB
:1068B00060B006A8F0EE680A52F012FD9DED06AB3E
:1068C000B0EE408A2A464346F0EE608A51EC1A0B3D
:1068D000FAF7F4FA00284FD19FED730BCDE9025877
:1068E0004FF0000BCDF800A056EC105B9FED720B43
:1068F00058EC107BDDE902235AEC1A9B51464846BE
:10690000FAF7DCFA20BB484651462A463346FAF7E6
:1069100015FA41EC100B06A852F0E2FC51EC100BFA
:10692000B0EE409A3A464346F0EE609AFAF7EDF838
:106930002A463346FAF790F9FAF7DCFA04EB0B0132
:1069400030309DED06ABABF1010B81F84F00D1E784
:10695000DDF800A0CBF1000500208DED049B854201
:1069600006D02118594491F8501021540130F6E70F
:10697000DDF860B02E462CE051EC180B2A46434659
:10698000FAF74BFA18BB9FED480B012559EC108B19
:106990009FED470B56EC107B51EC180BB0EE489A6C
:1069A00042464B46F0EE689AFAF756F93A463346B5
:1069B00041EC180BFAF74CFA013D0028ECD18DEDB3
:1069C000048BB0EE498A0026F0EE698A01E00025CA
:1069D0000026BBF1000FDDF804B0CAF80050A04655
:1069E00008BFAB44BBF1000F29D49FED2F0B04EB84
:1069F0000B080DF1100957EC105B5E451ADC4F2EA9
:106A000018D851EC180B2A463B46FAF725F941EC09
:106A1000100B484652F064FCB0EE408AF0EE608AFB
:106A20009DED040B51EC100BFAF764FA3030A055D1
:106A30000136E2E7BBF1500F0ADB04F14F080020FA
:106A400088F800002046BDEC0E4B01B0BDE8F08F89
:106A500098F80000189D31214246431D302088F8E7
:106A60000030DBB23A2BEAD3A242107004D912F8FC
:106A7000013D013313700DE01170DAF8003003F1BD
:106A80000103CAF800302DB9A04588BF88F800007E
:106A900008F101081378E4E700000000000000009E
:106AA0000000000000000080000000000000244002
:106AB000000000000000F03FB81E85EB51B89E3F7B
:106AC000F23818BF1220704710B504460FF020FCB2
:106AD00020460EF065FF2046BDE8104046F0B7BDE9
:106AE0000E49401AB0FA80F04009704780B5FF287F
:106AF00006D0F22806D048B908460FF05BFC07E044
:106B0000002005E008460EF06DFF01E046F0A0FD14
:106B10000249002818BF0146084680BDACA3050005
:106B200010B5044628B90549062010F041FA00F0D6
:106B300025F82046BDE8104000F090B8C8A0050038
:106B400010B504464FF4885000214FF6114201233E
:106B500010F0C8F8B4F1A53F04D0B4F1C33F03D19D
:106B6000002100E003210170BDE810400CF0CEBC14
:106B700001490880704700BFB04641201CB5042081
:106B80001C4C0DF107018DF807004E4822460368A2
:106B90003220984708B10248206000F003F81CBD7D
:106BA0001A031E01F8B50425F9F718FE114E044624
:106BB000FF203F2D02D070550135FAE700270EA5C2
:106BC000042F0ED0F05DFF2809D03B2805D33B21D0
:106BD0002A4651234EF0B6F9F05D30440771013773
:106BE000EEE70020FEF7A0FD2046BDE8F840F9F7EB
:106BF000F9BD00BF704641206462675F73776469C6
:106C000061672E6300000000B0B5954804258178C7
:106C1000C2780379447905710025457141EA022162
:106C2000CE4A41EA0341536841EA046119400B0A24
:106C30008171C3710B0C037203231160090E45703F
:106C4000C3704172EA4801680220BDE8B0400847BD
:106C5000E5494A6810400860704700BFE0B504216C
:106C60008DF8071048B9144814490268022090476B
:106C7000ED481349416000F0B9F812480DF10701E1
:106C80000DF1030203682F20984708B100200DE0A2
:106C90009DF803009DF8041040EA01209DF80510BE
:106CA00040EA01409DF8061040EA0160EC490860A6
:106CB00000F060FD8CBD00BF2C444120C96C000079
:106CC000FFEF1900DC47412080B50448016802202D
:106CD0008847BDE8804000F089BD00BF30444120B6
:106CE000FEB50546F9F77AFD594E0446F168087875
:106CF000552818D1708A77684A190432384482427C
:106D000001D20F4603E0B2688A4208BFB760397803
:106D1000552908D179190431814204D2B0688742DB
:106D20000CD281420AD3307800250F281CBF0130D5
:106D300030702046F9F756FD2846FEBD280AF76058
:106D40007D70AA21B870281F787139700121000A5E
:106D50003971B871308A01303082F871000A3872A6
:106D600068464FF0F5F90098010A7872B972010C83
:106D7000F972010E39733178090141EA10603873F4
:106D800000203070F068284407F10D05C11CF16047
:106D90005521C170CDE700BF70B5F9F71FFD114D4A
:106DA0000446A8680178552905D12A490EA0F02289
:106DB0004EF0AAF8A86855212A1D017007CA4B7821
:106DC0008E7843EA0623194411F8033F914208BF25
:106DD0000846552B18BF0846A8602046BDE87040FD
:106DE000F9F700BDFC46412041535300B0B5184CA3
:106DF0000025C4E90155C4E90355FDF797FC016975
:106E0000008C258260825520C4E90111E160087080
:106E1000B0BD00BF70B5F9F7E1FC0D4E0446D6E9F0
:106E200001158D4203D3708A0844854205D3094A6F
:106E30002846DF234EF086F8B56815F8016B20462A
:106E4000F9F7D0FCAA2E18BF0025284670BD00BF58
:106E5000FC46412059DD050001480230704700BF63
:106E6000C04C412010B50446DA488078400716D55A
:106E700060880D3080B2FFF733FF80B13521924B2F
:106E800001706288A0F80120033021881944F9F7C5
:106E9000C7FDE24801680220BDE81040084710BD68
:106EA0002DE9F0410446DC488078800727D58648E4
:106EB0004E4F0D46804640EA01100F21861C78890E
:106EC000305A01EB1020FFF70BFFC0B1047029010D
:106ED00008F104047A892143B35A8C5A1A0AA0F89B
:106EE0000140A0F8032005307B89C95A4144F9F7D5
:106EF00097FDE74801680220BDE8F0410847BDE87A
:106F0000F08100BFF8B50646DE488078800724D5BA
:106F100001F10E0014460D46FFF7E2FEE8B1074608
:106F20003320DA493870C6EBC600098901EB8000CE
:106F30000B49405A00F00F007870304601F0BAFB60
:106F4000B870381D21462A46FD70F9F769FDE948F9
:106F500001680220BDE8F8400847F8BDB84C412060
:106F6000048041202DE9FC410646DF4880788007F7
:106F700038D513200D46FFF7B3FE98B304463420EE
:106F8000DA49207041EA0610D94E88467189475A7D
:106F9000284601F0A5FA7188942207F00F0747EA06
:106FA000002015FB02114144CA88130A8DF80620FF
:106FB0008DF805300D892E0A8DF804508DF8036088
:106FC0004989A4F80100E27023716571A671080A6D
:106FD000E17120728DF802108DF80100E648016819
:106FE00002208847BDE8FC81B84C4120AC574120C5
:106FF0004444412010B50446DE480078000611D50F
:107000009F20FFF76DFE68B11121942200F8011B4B
:107010009D492144F9F704FDE74801680220BDE8D5
:107020001040084710BD00BFB84C412010B50446C1
:10703000EE484078C00711D06B20FFF751FE68B1D1
:107040001221602200F8011B8F492144F9F7E8FC66
:10705000E74801680220BDE81040084710BD00BFA6
:10706000B84C412010B50446E0480078C0060AD567
:107070000B20FFF735FE30B10470EE4801680220A6
:10708000BDE81040084710BD10B50446E848007838
:10709000400618D51020FFF723FEA0B10D21447043
:1070A000794A01702101515A8170090AC17042EA7E
:1070B000041109890171090A4171F048016802202F
:1070C000BDE81040084710BD00804120B0B505461E
:1070D000E9480078400612D50F200C46FFF700FE65
:1070E00068B1290A457081700E21C4700170210AAF
:1070F0000171E24801680220BDE8B0400847B0BD18
:10710000F8B50646F2480078400617D51420144614
:107110000D46FFF7E5FD88B107461020314638706F
:10712000781CFFF76CFBB81D21467D71FFF767FBEC
:10713000E84801680220BDE8F8400847F8BD00BFF4
:10714000F8B50646F3488078C00722D002F1100057
:107150001C4615460F4680B2FFF7C2FDC8B1390A7A
:107160008770012E2A46C1704FF0020105714170EF
:107170004FF0620108BF61210170290A4171063098
:107180002146F9F74DFCF64801680220BDE8F840B9
:107190000847F8BD70B50646F0488078C00718D09B
:1071A00001F10F0014460D46FFF79AFD88B140F239
:1071B0006111867005712A460180310AC17005305F
:1071C0002146F9F72DFCF74801680220BDE8704020
:1071D000084770BDB84C4120F8B50646F0488078A5
:1071E000C00717D002F10E001C4615460F46FFF7E8
:1071F00077FD78B10421C570877006702A4641700A
:1072000004302146F9F70CFCE64801680220BDE88D
:10721000F8400847F8BD00BFB84C41204444412025
:107220002DE9FE430546DE488078800728D51420E6
:107230000C46FFF755FD18B3064629202C49F94A9C
:107240003070C5EBC500A7189146098942EA800055
:107250000844B0F80480284601F02CFAB98854F8A4
:107260000920B07008F00F007070F048C6F80320D5
:10727000A6F80710ADF808100192016802208847AF
:10728000BDE8FE83B84C412000804120AC5741202E
:10729000444441202DE9F0410646F14880788007BA
:1072A00020D5132014460D46FFF71AFDD0B107462E
:1072B0003020DD4938700D4840EA0610498930F821
:1072C0000180304601F00CF9B87008F00F00C7F8E3
:1072D0000350A7F807407870F64801680220BDE81F
:1072E000F0410847BDE8F081B84C412002804120C0
:1072F000AC57412044444120B0B50D4604460A290C
:1073000006D8012040F20C41A840084200D0B0BD90
:10731000E74800784007FAD50C20FFF7E1FC002889
:10732000F5D045700470F74801680220BDE8B04010
:10733000084700BFF8B50746F0480078C00718D0E6
:1073400012201D4614460E46FFF7CAFC88B1390AC2
:1073500047708170310AC670017101214471C57195
:107360000170210A8171E74801680220BDE8F840F8
:107370000847F8BDB84C412044444120B0B504460C
:10738000DE480078C00715D0658905F1130080B28A
:10739000FFF7A6FC70B105F10802002100F8011BFF
:1073A00092B2211DF9F73CFBD64801680220BDE8E6
:1073B000B0400847B0BD00BF4444412070B5064608
:1073C000EB488078C00610D50E2015460C46FFF716
:1073D00087FC50B1210A44700670C5708170C9489D
:1073E00001680220BDE87040084770BDB84C4120DC
:1073F00044444120F8B59A4219D00646DC4840780A
:10740000400614D510201D4614460F46FFF768FCB1
:1074100068B123214670C7700170310A81704571CF
:107420000471B84801680220BDE8F8400847F8BD7B
:10743000B84C412044444120F8B50746CC48407838
:10744000400717D502F10E001C4615460E46FFF701
:1074500047FC78B1310A46700770C5702A468170C2
:1074600004302146F9F7DCFAA64801680220BDE89D
:10747000F8400847F8BD00BFB84C412044444120C3
:10748000F8B50746BA48407800071FD502F110004A
:107490001C4615460E46FFF723FCB8B1310A46706C
:1074A0000770C5706A1E8170217801F001010171B9
:1074B00014F8011B4908417106302146F9F7B0FA6A
:1074C000904801680220BDE8F8400847F8BD00BFB9
:1074D000B84C412044444120F8B50746A4484078C0
:1074E000000715D50F201C4615460E46FFF7F8FB82
:1074F00070B1310A46700770C5707F2D817018BF5A
:10750000002404717F4801680220BDE8F840084764
:10751000F8BD00BFB84C41202DE9F0410646944823
:107520000078000717D51420984615460F46FFF738
:10753000D7FB80B104464770067002302946FFF73A
:107540005EF9A01D4146FFF75AF96E480168022016
:10755000BDE8F0410847BDE8F08100BFB84C4120CC
:107560004444412070B5054681484078800715D5D0
:10757000292014460E46FFF7B3FB78B1132186701D
:1075800045701C220170274903302144F9F748FA5D
:107590005C4801680220BDE87040084770BD00BF2C
:1075A000B84C4120444441202DE9FC410646704836
:1075B0008078800734D5887F0C461530FFF790FB24
:1075C00070B30546312017492870C6EBC6008846BF
:1075D00041EA80001449098908448788304601F04F
:1075E00069F823896668A27FA17DA87007F00F0063
:1075F0006870C5F80360A5F807306972AA72009632
:10760000ADF8043094F82200218C084418FA80F177
:1076100005F10B00F9F704FA3A480168022088479F
:10762000BDE8FC8100804120AC574120444441200A
:10763000B0B505464E48407880060FD50F200C4661
:10764000FFF74EFB50B100F8015B2146FFF7D7F87A
:107650002C4801680220BDE8B0400847B0BD00BF1B
:10766000B84C4120F8B506464148407880061DD503
:107670003C2014460D46FFF733FBB8B107461D20EA
:1076800031463870781CFFF7BAF8781D2146FFF7AD
:10769000B6F807F10A00214628227D72F9F7C0F9F1
:1076A000184801680220BDE8F8400847F8BD00BF4F
:1076B000B84C41204444412070B504462C484078E1
:1076C000800619D51820FFF70BFBA8B1054621202D
:1076D0000B4E21462870681CB047A07E6871A81D1B
:1076E0006169B047616805F10A00B0470548016863
:1076F0000220BDE87040084770BD00BFB84C412073
:10770000FF670000444441202DE9F843044618482F
:107710000078800629D5DDF8208025209946164678
:107720000D46FFF7DDFA00B30746047028465C21DA
:10773000F9F7E0F9411C781CF9F7C4F9300A7E74B6
:107740004946B87407F11300FFF759F807F117001D
:107750004146FFF754F8F9F741F8044600F046F8BF
:107760002046BDE8F843F9F73DB8BDE8F88300BF0F
:10777000B84C412021480021C0F80610C0F8021082
:107780004FF481710180704710B51C4C207801289E
:1077900006BF01206070FFF7FFFA02202070BDE8ED
:1077A000104000F001B800BF10B5144C607850B123
:1077B000FFF730FBB0B10178427841EA02214A1E5E
:1077C000C11C002006E02079617940EA0120E11C1B
:1077D000C21C0120044B207092B20620BDE810406C
:1077E00002F054BF10BD00BF897700000348007845
:1077F000022808BFFFF7D8BF704700BFC04C412028
:1078000000210022092908BF51F038B850F8213072
:107810005FEA52024FEA330240F8212003F00102EE
:107820000131EFE72DE9F04786B0DFF84C8598F895
:107830009800C0070BD0DFF8440502AA01210368B5
:10784000262098479DF80800002800F09182DFF874
:10785000446CB078FF2809D0FDF758FFB1780822B2
:10786000C90002FA01F10843FDF75EFFDF4D6F68C2
:10787000B8061DD5B07EFF2809D0FDF747FFB17EC1
:107880004022C90002FA01F10843FDF74DFF202014
:10789000A8604EF017FDB07EFF2809D0FDF736FF37
:1078A000B17E4022C90002FA01F18843FDF73CFF96
:1078B00078061DD5B07EFF2809D0FDF727FFB17EE1
:1078C0000422C90002FA01F10843FDF72DFF402010
:1078D000A8604EF087FCB07EFF2809D0FDF716FFA8
:1078E000B17E0422C90002FA01F18843FDF71CFFB2
:1078F000F80700F0A180B07EFF2809D0FDF706FF51
:10790000B17E0122C90002FA01F10843FDF70CFF24
:107910000120DFF86C44A8602078C00702D14FF046
:1079200095FF7CE098F89D0040070BD5DFF84C04EC
:1079300002AA4FF480610368272098479DF8080049
:1079400000286CD07078FF2809D0FDF7DFFE717831
:107950000422C90002FA01F10843FDF7E5FE02A87E
:107960004EF0F6FB286820F00100286098F89B0094
:1079700040070BD5DFF804040DF117024FF08061CA
:107980000368262098479DF8170040B1206A98495F
:10799000984A5050606AC5F8F403E069286060684E
:1079A000411C0CD00299081A934920F0704088427B
:1079B00083BF286840F0200028604EF083FC2069D7
:1079C000411C0CD00299081A8B4920F07040884263
:1079D00083BF286840F0400028604EF003FCA06A96
:1079E000411C0CD00299081A834920F0704088424B
:1079F00083BF286840F0800028604EF0D3FC01204F
:107A00004EF0C2FA7078FF2809D0FDF77FFE71783A
:107A10000422C90002FA01F18843FDF785FEB07E19
:107A2000FF2809D0FDF772FEB17E0122C90002FADB
:107A300001F18843FDF778FE38061DD5B07EFF289A
:107A400009D0FDF763FEB17E0222C90002FA01F1FE
:107A50000843FDF769FE8020A8604EF0A3FCB07ECD
:107A6000FF2809D0FDF752FEB17E0222C90002FABA
:107A700001F18843FDF758FE38072FD5B07EFF2867
:107A800009D0FDF743FEB17E2022C90002FA01F1C0
:107A90000843FDF749FE0820A86098F89B00C0063F
:107AA00009D5B64802AA4FF08051036826209847AE
:107AB0009DF8080028B1286820F0080028604FF0E1
:107AC0003DFBB07EFF2809D0FDF720FEB17E2022CD
:107AD000C90002FA01F18843FDF726FE38041ED5DD
:107AE000B07EFF2809D0FDF711FEB17E8022C900CB
:107AF00002FA01F10843FDF717FE50F017F84FF4B2
:107B00000040A860B07EFF2809D0FDF7FFFDB17EE0
:107B10008022C90002FA01F18843FDF705FEB8078B
:107B200040F1DE80B07EFF2809D0FDF7EFFDB17E89
:107B30000822C90002FA01F10843FDF7F5FD022011
:107B4000A86098F89D00C0070BD08C4802AA4FF49B
:107B500080710368272098479DF80800002800F0EE
:107B6000B2808948AA4604687078FF2809D0FDF7DA
:107B7000CDFD71780122C90002FA01F18843FDF7B9
:107B8000D3FD02204EF000FA01204EF01BFA98F8C7
:107B90009A00C00710D07D4802AA4FF480312346D6
:107BA0000568774800F5237000902620A847054611
:107BB0009DF80800002848D07548844204D37548D1
:107BC0007549C2224DF0A0F946F082F8B0B16C4977
:107BD00004EBC400D1F88C221044C2B2C1F88C224C
:107BE0003D21614301EB10252FE000BF1800095033
:107BF0004CFEFFFFC0090950FEFFFF0746F05CF88E
:107C000005464EF057F9A4FB00014FF0640900232C
:107C1000A0FB090201FB092105EB4502D200F8F7A0
:107C2000BBFE642200230446F8F7B6FE054600FBBF
:107C300019415348D0F88C2211446429C0F88C12A1
:107C400003D364390135C0F88C1240F271205346D9
:107C5000B5FBF0F1484301F10042CAF82C20401B6B
:107C600000F51C7084B210F47C4F05D049484B4994
:107C700040F285524DF048F9CAF828404148016861
:107C800041F0010101606908816005F0010155467C
:107C9000C160DAF8180040F00800CAF81800DAF8F5
:107CA000000020F0E040CAF80000DAF8000040F0E0
:107CB0000100CAF800000120CAF8080002F052FCD6
:107CC0000A20FFF7CFF9B07EFF2809D0FDF71EFD8F
:107CD000B17E0822C90002FA01F18843FDF724FDB4
:107CE000780734D5B07EFF2809D0FDF70FFDB17EAF
:107CF0001022C90002FA01F10843FDF715FD042026
:107D0000A86098F89900C00609D51C4802AA4FF44B
:107D100080510368262098479DF8080050B1042040
:107D20004EF032F9286820F004002860C548016848
:107D300006208847B07EFF2809D0FDF7E7FCB17E1A
:107D40001022C90002FA01F18843FDF7EDFCF806A4
:107D500044BF1020A860B078FF2809D0FDF7D6FCFA
:107D6000B1780822C90002FA01F18843FDF7DCFC72
:107D700006B0BDE8F08700BF0C564120C444412046
:107D8000D8674120C009095030000450A844412060
:107D900080841E006ADA050022DD050002DD050090
:107DA00070470000B0B5EF4C00212468A4B1D4F8AE
:107DB0004021824201D02146F7E7EA4D224628467B
:107DC000FDF7FCFDD4F8500108B10EF01DFD204672
:107DD0000EF01AFD286800B1B0BDE148016800202E
:107DE000BDE8B040084700BFBFB514460A4601468B
:107DF00008980025CDE9005323460290022000F0A8
:107E000003F804B0B0BD00002DE9F04FADF5057DDD
:107E10000D469099002900F09180DFF878A6009037
:107E200000200DF1880B1E4617460DF1E008389032
:107E300042902D9022900BF12C099AF81700FF2800
:107E40000AD0FDF763FC9AF817100122C90002FA64
:107E500001F10843FDF768FCDDF838A208F10400E1
:107E60000021002212F120030DD0AB18BC18DB69F1
:107E7000E46943500BEB010304315C60B418043A2D
:107E8000E4691C63EEE76B4C4046A04722A8A0477C
:107E90004846A0474FF0000BBAF1000FCDF8DCB018
:107EA000CDF8B0B04CD101AE2C213046F8F7DFFD53
:107EB0007AAC2C212046F8F7DAFD6FA82C21F8F7D0
:107EC000D6FD0DF5C87A2C215046F8F7D0FD59AFF4
:107ED0002C213846F8F7CBFD4EA82C21F8F7C7FD2A
:107EE00043A82C21F8F7C3FD534D48464946324676
:107EF000A8470DF18808224640464146A8476FAE84
:107F0000404621463246A8474C4C404641465246E0
:107F1000A047504641463A46A0474EAD3046394606
:107F20002A46FAF783FF284643AD45492A46A0472B
:107F300001A829462422F8F7B8FD08B1122473E0FD
:107F40004FF4AA7002210EF08DFE0646C0F850B123
:107F5000009801AD22A9242286F84C012846F8F7A2
:107F60005FFD2B9849462422CDF82CB00A9005F1EC
:107F70002C00F8F755FD36982421159005F1540092
:107F8000F8F775FD06F18C0401272846CDF884B07A
:107F90002146CDE91F77F9F71FFC06F5887038A94F
:107FA0002422F8F73DFDDDE94101C6E94D0106F166
:107FB00008002421F8F75BFD06F130002421F76268
:107FC000F8F755FD06F15C002821C6E91577F8F7AA
:107FD0004EFD3F20C6E9217BC6E951B00920706003
:107FE00096F84C01022810D140F2BC7002210EF02C
:107FF00039FE0146C6F850012046F9F7EDFB002096
:10800000C6F84801032086F84C0190983146C6F81E
:108010003C018F98C6F840015248FDF7D9FD094848
:10802000002401680020884720460DF5057DBDE845
:10803000F08F00BF7D8805006D2C0000B11200009C
:1080400014A30500444441201FB504460120064BFB
:108050008DE80700034A01202146FFF7D5FE04B052
:1080600010BD00BF96940500B69405002DE9FE4FA3
:1080700004461C30DFF89480DFF89490DFF894A079
:10808000029004F1180004F1100B04F10C0604F145
:108090000807251D019004F114000090C047014617
:1080A0002046C847C04701462846C847C047014642
:1080B0003846C847C04701463046C847C047014612
:1080C0005846C847C04701460098C847C0470146C0
:1080D0000198C847C04701460298C8471F2000289A
:1080E00004D4215C01380029F9D002E0207800286E
:1080F000D4D01F20002807D41AF80010225C8A422E
:10810000CCD8A0F10100F5D2BDE8FE8FFD0900003A
:108110000F680000ACCE0500B0B598B1E448016826
:1081200000208847DC4C206888B12046FDF73EFDE2
:108130000546D0F8500108B10EF066FB28460EF057
:1081400063FBF0E704480549026800209047D248E5
:10815000BDE8B040FDF7A4BC2C444120698100007B
:1081600030444120CC4C41202DE9F047C2B0C94FEA
:10817000F87DFF2809D0FDF7C9FAF97D0222C90070
:1081800002FA01F10843FDF7CFFADFF80C8340460D
:10819000FDF70CFD002800F078800546F87D696841
:1081A000002900F07980FF2809D0FDF7AFFAF97DAA
:1081B0000422C90002FA01F10843FDF7B5FA95F867
:1081C0004C01421E032A00F2F180D5F84801B34960
:1081D000DFE802F00402A6C1D5F85011C0F1FF0695
:1081E000C0F1BF0305F5887200F01F0405F1080A0D
:1081F00076095B0902EB860602EB830376685B680F
:10820000E640E34006F0010663F34106C0F17F0358
:108210005B0902EB83035B68E34003F0010346EA7A
:108220008303C0F13F06760902EB86025268E24002
:1082300002F0010243EAC202AAB102EB42100DF1C0
:10824000840901EB800049468438F9F7C5FA6C4689
:10825000484651462246F9F7AFF920465146F9F70C
:10826000BBFAD5F84801002800F088806C465046DB
:108270002146F9F7D5FA20465146F9F7ADFAD5F877
:1082800048010138C5F8480190E085A085A140F675
:1082900021124CF039FE9AE0FF2809D0FDF736FA9A
:1082A000F97D0822C90002FA01F10843FDF73CFA02
:1082B00021AE58213046F8F7DAFB05F1080006F147
:1082C0002C023146F9F74EFBD5F8500108B10EF0FB
:1082D0009BFA311D0022684612F1080305D000EB1D
:1082E000820310C9013ADC61F6E706F13001002291
:1082F00012F1080305D000EB820310C9013ADC63D8
:10830000F6E7D5E94F206946904728460EF07CFAFB
:10831000F87DFF285BD0FDF7F9F9F97D082250E0E0
:1083200005F18C0621AC30462146F9F779FA204652
:108330003146F9F751FAD5F84801411CBF28C5F874
:1083400048111ED07F282AD03F282FD1D5F85001C0
:1083500000F1840127E0C11E042900F27C80DFE8DF
:1083600001F0037A5A647000D5F8500100F18401DD
:1083700000F58472F9F720F9052083E70020686092
:1083800014E0D5F8500100F567713046F9F724FA8A
:108390000320C5F84801042085F84C0106E0D5F813
:1083A000500100F5C6713046F9F716FA3A482946E9
:1083B000FDF70EFCF87DFF2809D0FDF7A7F9F97D40
:1083C0000422C90002FA01F18843FDF7ADF9D8F89B
:1083D000000080B93648016800208847F87DFF28F2
:1083E00016D0FDF793F9F97D0122C90002FA01F1D7
:1083F0008843FDF799F9F87DFF2809D0FDF786F944
:10840000F97D0222C90002FA01F18843FDF78CF9D7
:1084100042B0BDE8F087D5F8500100F5C67100F50F
:108420000472F9F7C9F806202CE7D5F8502102F1BB
:10843000840002F5C67102F52572F9F7BDF8072030
:1084400020E7D5F8500100F5257100F54672F9F7DF
:10845000B3F8092016E7A0F109010629A6D8D5F836
:10846000503100EB401001EB411103EB800003EBB6
:108470008101A0F1840203F56770F9F79DF8D5F842
:1084800048010F2804D13F20C5F84801022083E7A6
:108490000130F7E674464120CC4C4120F8940500A9
:1084A000415353006563635F703235362E630000BD
:1084B00030444120B0B50C460546B1F5804F05D398
:1084C000CD48CE4940F61C224CF01EFDCC489421EC
:1084D000408805FB010001494452B0BD4480412061
:1084E000C7499422498800FB02101A49405AC0F338
:1084F00042107047B0B50C460546402905D3D14817
:10850000D14940F66D024CF0FFFCD04894214088E0
:1085100005FB01000F49425A6FF39F2242EA842271
:108520004252B0BDB0B50C460546402905D3D848E7
:10853000D84940F66D024CF0E7FCD74894214088BA
:1085400005FB01000349425A6FF39F2242EA84224D
:108550004252B0BD368041202DE9F8431D461746F2
:108560000E46804612F0FE0F05D0DC48DC494FF481
:108570005C724CF0C9FC089C15F0FE0F05D0D74882
:10858000D74940F271324CF0BFFCDDF8249014F072
:10859000FE0F05D0D148D24940F272324CF0B4FC03
:1085A0003F013602ED00A40019F0FE0F05D0CB48C4
:1085B000CB494FF45D724CF0A7FCD0489421124A8D
:1085C000408808FB010047EA06012943214341EAAC
:1085D00009018152BDE8F883B0B50C460546022971
:1085E00005D3E248BE494FF469724CF08DFCE04877
:1085F0009421408805FB01000349425A22F00802F9
:1086000042EAC4024252B0BD16804120B0B50C46C9
:108610000546022904D3094809A160224CF074FCE4
:10862000DF4905EB4500898801EB80004249425A49
:1086300022F4804242EA84324252B0BD6ADA050036
:108640007265675F656D5F626C655F7770616C2EE8
:1086500068000000DE49C0EBC000C98801EBC00023
:108660003549405AC0F34010704700BFD849C0EBAD
:10867000C000C98801EBC0002F49405AC0F3C010A8
:10868000704700BFD249C0EBC000C98801EBC000F1
:108690002949405AC0F34000704700BFDD49C0EB94
:1086A000C000C98801EBC0002349405AC0F3C00094
:1086B000704700BFD749C0EBC000098901EB8000BB
:1086C0008F49405AC0F30520704700BF10B50949D3
:1086D000C0EBC000098901EB80000749445AB4F59A
:1086E000805F05D3054806A140F625024CF00CFC3E
:1086F000204610BDAC5741200A8041206ADA0500AF
:108700007265675F656D5F626C655F72785F6465F7
:1087100073632E680000000010B5DE4C00EB801083
:10872000A48B04EB8000DC4C005B840B0C70C0F36A
:1087300001211170187010BD00804120D549C0EB97
:10874000C000098901EB80001449405AC0F3C010F1
:10875000704700BFCF49C0EBC000098901EB800022
:108760000E49405AC0F38010704700BFC949C0EBA2
:10877000C000098901EB80000849405AC0F380100D
:10878000704700BFE749C0EBC000098901EB8000DA
:108790000249405AC0F38010704700BF0480412056
:1087A000E749C0EBC000098901EB8000E549405A68
:1087B000C0F34020704700BF70B514460D46064612
:1087C000022905D3D548464940F2B5524CF09CFBEE
:1087D00020B2B0F1FF3F05DCD048414940F2B6522B
:1087E0004CF092FBDE4894213E4A408806FB010093
:1087F00044EAC531815270BD6ADA0500B2DE050077
:10880000AC57412070B514460D460646022905D3E3
:10881000C248334940F2B5524CF076FB20B2B0F179
:10882000FF3F05DCBD482E4940F2B6524CF06CFBD0
:10883000CB489421EB4A408806FB010044EAC5314D
:10884000815270BD6ADA0500B2DE0500AC574120E6
:1088500070B514460D460646022905D3AF48204997
:1088600040F2B5524CF050FB20B2B0F1FF3F05DCB6
:10887000AA481B4940F2B6524CF046FBB848942136
:10888000D84A408806FB010044EAC531815270BDD8
:108890006ADA0500B2DE0500AC57412070B5144617
:1088A0000D460646022905D3EB480D4940F2B55264
:1088B0004CF02AFB20B2B0F1FF3F05DCE648084946
:1088C00040F2B6524CF020FBA5489421C54A40889E
:1088D00006FB010044EAC531815270BD6ADA050029
:1088E000B2DE05001E804120E749498901EB0010F6
:1088F0000349405AC0F30030704700BFAC574120D5
:10890000068041202DE9F0411D4617460E460446DB
:1089100012F0FE0F05D0DB48814940F2BE224CF038
:10892000F3FADDF8188015F0FE0F05D0D5487C4924
:1089300040F2BF224CF0E8FAFF013602AD0118F018
:10894000C00F05D0EB4876494FF430724CF0DCFA9A
:10895000CD4847EA0601934A2943408941EA080184
:1089600000EB04108152BDE8F08100BF6ADA050017
:10897000AC574120B0B50C460546402905D3E9481F
:10898000674940F2FA224CF0BFFABF488549408956
:1089900000EB0510425A22F03F0222434252B0BD82
:1089A000AC574120B0B50C460546402905D3E948EF
:1089B0005B4940F2FA224CF0A7FAE748794940892E
:1089C00000EB0510425A22F03F0222434252B0BD52
:1089D000AC57412070B515460E46044611F0F80F0D
:1089E00005D0E9484E4940F222324CF08DFA76012A
:1089F00015F0E00F05D0E448494940F223324CF02D
:108A000083FAE24946EA0500034A498901EB041169
:108A1000885270BDAC5741200A804120B0B50C4649
:108A20000546B1F5804F04D3E8483D4955224CF046
:108A30006BFAD648E649408900EB0510425A02F429
:108A4000404222434252B0BD70B5144605460E0264
:108A500011F0FC0F04D0084808A13A224CF054FA57
:108A6000CA4A05EB851146EA0400928B02EB8101AC
:108A7000E64A885270BD00BF6ADA05007265675F1A
:108A8000656D5F626C655F74785F69736F5F627557
:108A9000662E6800AC574120008041202DE9F84344
:108AA0001D4617460E46804612F0FE0F05D0E448DC
:108AB0001B494FF499724CF027FA089C15F0FE0FF1
:108AC00005D0F048164940F233124CF01DFADDF89B
:108AD000249014F0FE0F05D0EA4811494FF49A7221
:108AE0004CF012FAFF013602AD01640119F0F00FEB
:108AF00005D0E4480A494FF49B724CF005FAA348AC
:108B000047EA06016F4A29434089214341EA0901A6
:108B100000EB08108152BDE8F88300BF6ADA050057
:108B20009DDE0500AC574120984A528902EB0010A7
:108B3000644A835ADBB243EA01218152704700BF85
:108B4000AC57412002804120904900EB4000C98C85
:108B500001EB40100349405AC0F34030704700BF5A
:108B6000AC5741205E80412010B50446132045F0EB
:108B7000B3F804EB440100EB41100249405AC0F342
:108B8000802010BD5C804120B0B500EB4000144651
:108B9000400100EB4105132045F09EF828440149AF
:108BA0004452B0BD08804120B0B5054613200C46A4
:108BB00045F092F805EB450100EB411001494452A4
:108BC000B0BD00BF1C804120B0B5054613200C4647
:108BD00045F082F805EB450100EB41100149445294
:108BE000B0BD00BF1E804120B0B5054613200C4625
:108BF00045F072F805EB450100EB41100149445284
:108C0000B0BD00BF20804120B0B5054613200C4602
:108C100045F062F805EB450100EB41100149445273
:108C2000B0BD00BF22804120B0B5054608B20C4659
:108C3000B0F1FF3F05DCC848C84940F211524CF082
:108C400063F9132045F048F805EB450100EB4110AE
:108C500002494452B0BD00BF6ADA050024804120B9
:108C600010B5044600B2B0F1FF3F05DCDE48DF4935
:108C700040F211524CF048F9DD480449C08C44528E
:108C800010BD00BF6ADA0500AC574120A481412025
:108C900010B50446132045F01FF804EB440100EB27
:108CA00041100849405A10BDB0B5054613200C4686
:108CB00045F012F805EB450100EB41100149445223
:108CC000B0BD00BF0280412010B50446132045F01E
:108CD00003F804EB440100EB41102D49445AB4F56C
:108CE000805F05D3DF48E0494FF488724CF00CF9FF
:108CF000204610BD6ADA0500B0B50C460546B1F550
:108D0000805F05D3D748D8494FF48B724CF0FCF8FC
:108D1000132044F0E1FF05EB450100EB41101C4935
:108D20004452B0BD6ADA0500B0B50C460546B1F54F
:108D3000805F05D3E248E3494FF48B724CF0E4F8CE
:108D4000E14905EB4500C98C01EB40101049445244
:108D5000B0BD00BF6ADA0500AC574120B0B50C4683
:108D60000546B1F5805F05D3D548D6494FF48B72DF
:108D70004CF0CAF8DC4905EB4500C98C01EB40100A
:108D800003494452B0BD00BF6ADA0500AC57412028
:108D900004804120B0B50C460546022904D3C848DA
:108DA000C8496E224CF0B0F805EB4500174901EBBD
:108DB0004015132044F090FF285A6FF3DF3040EA4B
:108DC000C434132044F088FF2C52B0BD6ADA050089
:108DD00000804120B0B50C460546022904D3B848AE
:108DE000B849AA224CF090F805EB4500074901EB81
:108DF0004015132044F070FF285A20F0800040EA0C
:108E0000C414132044F068FF2C52B0BD00804120F0
:108E100070B514460D460646042905DBA848A94945
:108E200040F254624CF070F806EB4600400100EB53
:108E30004505132044F050FF28440249445270BDB8
:108E40006ADA05003E804120B0B50C46054602298D
:108E500005D3E048E04940F2A1124CF055F805EB8B
:108E600045003F4901EB4015132044F035FF285AD7
:108E700020F4006040EAC424132044F02DFF2C525B
:108E8000B0BD00BF6ADA050010B50446132044F0F7
:108E900023FF04EB440100EB41103149405AC0F379
:108EA000022010BDB0B50C460546022905D3D648B0
:108EB000D64940F27D124CF027F805EB45002849D1
:108EC00001EB4015132044F007FF285A20F480409E
:108ED00040EA8434132044F0FFFE2C52B0BD00BFA2
:108EE000B0B50C460546022905D3EA48C74940F209
:108EF00089124CF009F805EB4500194901EB4015C2
:108F0000132044F0E9FE285A20F4005040EA44348B
:108F1000132044F0E1FE2C52B0BD00BFB0B50C46AA
:108F20000546022905D3DB48DB4940F295124BF098
:108F3000EBFF05EB45000A4901EB4015132044F017
:108F4000CBFE285A20F4805040EA0434132044F029
:108F5000C3FE2C52B0BD00BF6ADA050027E0050051
:108F600006804120B0B500EB40000C46154901EBEE
:108F70004015132044F0B0FE285A20F0FF000444AE
:108F8000132044F0A9FE2C52B0BD00BFE54A00EB0F
:108F90004000D28C02EB40100A4A835A23F0FF03B0
:108FA00019448152704700BFDE4A00EB4000D28C6A
:108FB00002EB4010034A835A23F0FF031944815205
:108FC000704700BF2680412010B50446B0F5005F11
:108FD00005D3CE48C24940F284524BF095FFD148A8
:108FE0000449C08C445210BD6ADA050027E0050030
:108FF000AC574120E8804120B0B50C460546B1F59C
:10900000005F05D3C148B64940F284524BF07CFF63
:10901000C44905EB4500C98C01EB4010014944529D
:10902000B0BD00BF28804120B0B50C4605460229DE
:1090300005D3B648AA4940F2DB224BF065FF05EBA9
:1090400045002A4901EB4015132044F045FE285AFB
:109050006FF3DF3040EAC434132044F03DFE2C525D
:10906000B0BD00BF6ADA050027E0050070B5044610
:1090700015460E02080605D5E248E34940F2C5222E
:109080004BF042FF1320354344F026FE04EB44012D
:1090900000EB41101549455270BD00BFB0B5050247
:1090A0000C46000605D5E448E44940F2C5224BF0E1
:1090B0002BFFE34945EA04000C4AC98C8852B0BD35
:1090C0006ADA050027E00500AC574120DC4900EBD7
:1090D0004000C98C01EB40100449425A42F007029B
:1090E00022F0F80242527047AC57412014804120D0
:1090F000B0B5054614200C4644F0EEFD00EB05101B
:1091000001494452B0BD00BF0A80412010B5044659
:10911000132044F0E1FD04EB440100EB411002494F
:10912000405AC00B10BD00BF5680412010B5044608
:10913000132044F0D1FD04EB4401002200EB411068
:109140000149425210BD00BF4C80412010B5044679
:10915000132044F0C1FD04EB4401002200EB411058
:109160000149425210BD00BF4E80412010B5044657
:10917000132044F0B1FD04EB4401002200EB411048
:109180000149425210BD00BF5080412010B5044635
:10919000132044F0A1FD04EB440100EB4110014910
:1091A000405A10BD5280412010B50446132044F0AF
:1091B00093FD04EB440100EB41101249445AB4F50D
:1091C000805F05D3DB489D4940F28F724BF09CFED7
:1091D000204610BD6ADA050027E0050010B5B84941
:1091E00000EB4000C98C01EB40100649445AB4F52D
:1091F000805F05D3DE48914940F28F724BF084FEC8
:10920000204610BD548041206ADA050027E00500A1
:1092100010B50446142044F05FFD00EB04100C4927
:10922000405AC0F3C30010BDDD49098D01EB0010A9
:109230000749405AC0F3C300704700BFD849098DA1
:1092400001EB00100249405AC0F3C300704700BF51
:109250000480412010B50446142044F03DFD00EB8D
:1092600004100149405A10BD0C804120B0B50C4695
:109270000546042905D3C948704940F26B224BF0DA
:1092800043FEC74905EB4500C98C01EB4010154969
:109290004452B0BD6ADA050027E0050070B51446F7
:1092A0000E46054611F47C4F05D0E048634940F274
:1092B00069224BF029FEB60114F0FC0F05D0DB4803
:1092C0005E4940F26B224BF01FFEB54A05EB4501AB
:1092D00046EA0400D28C02EB4111024A885270BD6A
:1092E00027E0050012804120B0B50C460546B1F5D7
:1092F000804F04D3054806A135224BF005FEE14816
:109300000949008D00EB05104452B0BD6ADA050032
:109310007265675F656D5F62745F727864657363C1
:109320002E680000AC5741200080412010B5044653
:10933000142044F0D1FC00EB04109A49405A10BDAF
:1093400010B50446152044F0C7FC04EB440100EBC3
:1093500081000849405A10BDB0B5054615200C469D
:1093600044F0BAFC05EB450100EB81000149445291
:10937000B0BD00BF0680412010B50446132044F064
:10938000ABFC04EB4401002200EB411001494252C6
:1093900010BD00BF4680412010B50446132044F0A4
:1093A0009BFC04EB4401002200EB411001494252B6
:1093B00010BD00BF4880412010B50446132044F082
:1093C0008BFC04EB4401002200EB411001494252A6
:1093D00010BD00BF4A804120B0B50C460546B1F52E
:1093E000804F05D3E048154940F23F424BF08CFDD9
:1093F000132044F071FC05EB450100EB41101149CD
:109400004452B0BD6ADA050027E00500B0B50C464D
:109410000546B1F5804F05D3D348084940F23F4295
:109420004BF072FDD14905EB4500C98C01EB4010B2
:1094300004494452B0BD00BF6ADA050027E00500C8
:10944000AC5741201A8041202DE9F8431D461646AD
:109450000F46804611F0FE0F04D0E048E049932209
:109460004BF052FD16F0FE0F04D0DC48DC4994228C
:109470004BF04AFDDDF8209015F0FE0F04D0D748E0
:10948000D74995224BF040FD7F023602ED014FEAAD
:10949000C90419F0F00F04D0E148E24996224BF0DC
:1094A00033FDD04908EB48003E4A498D01EB80006E
:1094B00046EA0701294321438152BDE8F88300BFF2
:1094C000AC574120B0B50C460546022904D3D44818
:1094D000D449B0224BF018FD05EB4500314901EBB2
:1094E0008005152044F0F8FB285A6FF3DF3040EA7E
:1094F000C434152044F0F0FB2C52B0BDB0B50C467E
:109500000546082904D3D748C649F8224BF0FCFC8D
:1095100005EB4500234901EB8005152044F0DCFBF9
:10952000285A20F007000443152044F0D5FB2C52A4
:10953000B0BD00BF6ADA0500B0B50C46054610297B
:1095400004D3D848B749EC224BF0DEFC05EB4500CC
:10955000144901EB8005152044F0BEFB285A20F089
:10956000780040EAC404152044F0B6FB2C52B0BD8C
:109570006ADA050010B50446102804D3D948A94971
:10958000EC224BF0C1FC97480649408D425A22F02C
:10959000780242EAC402425210BD00BF6ADA0500F6
:1095A000AC5741200280412010B50446152044F0FC
:1095B00093FB04EB440100EB81000849405A10BDC5
:1095C000B0B5054615200C4644F086FB05EB450179
:1095D00000EB810001494452B0BD00BF088041202A
:1095E00070B514460E46054611F47C4F05D0DE4892
:1095F0008C494FF495724BF087FCF60014F0FC0F89
:1096000005D0D94887494FF496724BF07DFC152060
:1096100044F062FB05EB4501484A00EB810046EA55
:10962000040141F00401815270BD00BF6ADA0500F7
:1096300070B514460D46064610F47C4F05D0D94847
:1096400078494FF495724BF05FFC15F0FE0F05D092
:10965000D448744940F22B124BF056FCF600AD0092
:1096600014F0FC0F05D0E1486E494FF496724BF0B0
:109670004BFCE04945EA0600034A2043498D8852E5
:1096800070BD00BFAC57412034804120B0B50446C6
:10969000CD00B1F5806F05D3E04862494FF4957273
:1096A0004BF032FCD34904EB4400244A498D01EBD2
:1096B000800045F002018152B0BD00BFB0B5044644
:1096C000CD00B1F5806F05D3D44856494FF4A77249
:1096D0004BF01AFC04EB4400184901EB8004152000
:1096E00044F0FAFA205A4EF20701084005431520CB
:1096F00044F0F2FA2552B0BD10B50446152044F0EE
:10970000EBFA04EB440100EB81000C49405A00F0F5
:10971000030010BDB0B500EB4000084901EB800428
:10972000152044F0D9FA205A40F0010020F002053B
:10973000152044F0D1FA2552B0BD00BF048041206D
:1097400010B50446B0F5804F04D3E448354955229E
:109750004BF0DAFBA7480649408D425A02F44042DA
:109760002243425210BD00BF6ADA0500AC574120C7
:109770003C80412070B515460E460446022904D3AC
:10978000E548284934224BF0BFFBB5F5804F04D3A0
:10979000E148244935224BF0B7FB152045EAC63590
:1097A00044F09AFA04EB440100EB8100E949455288
:1097B00070BD00BFB0B50C460546B1F5804F04D36F
:1097C000D548184935224BF09FFB8A4905EB4500E7
:1097D000498D01EB8000DF494452B0BD6ADA0500D3
:1097E00002E00500AC574120B0B50C460546022901
:1097F00004D3C9480B4949224BF086FB05EB4500D1
:10980000D44901EB8005152044F066FA285A6FF31D
:10981000DF3040EAC434152044F05EFA2C52B0BD6B
:109820006ADA050002E00500B0B50C4605460229DB
:1098300005D3B9486E4940F279324BF065FB05EB30
:109840004500374901EB4015132044F045FA285AEA
:1098500020F4806040EA8424132044F03DFA2C5226
:10986000B0BD00BF6ADA0500B0B50C460546042954
:1098700005D3A9485E4940F285324BF045FB05EB24
:109880004500274901EB4015132044F025FA285ADA
:1098900020F4407040EA0424132044F01DFA2C52B6
:1098A000B0BD00BF6ADA0500B0B50C460546082910
:1098B00005D399484E4940F261324BF025FB05EB48
:1098C0004500174901EB4015132044F005FA285ACA
:1098D0006FF35F3040EA4434132044F0FDF92C521A
:1098E000B0BD00BF6ADA0500B0B50C4605460429D4
:1098F00005D389483E4940F2CD324BF005FB05EBDC
:109900004500074901EB4015132044F0E5F9285ABA
:1099100020F003000443132044F0DEF92C52B0BDC4
:109920001680412070B515460E460446022905D31F
:1099300079482F494FF47D724BF0E6FAB5F5005F98
:1099400005D375482A4940F2F5324BF0DDFA132071
:1099500045EAC63544F0C0F904EB440100EB411080
:109960002549455270BD00BF6ADA0500B0B50C4606
:109970000546022805D368481D494FF47D724BF017
:10998000C3FAB4F5005F05D36348194940F2F532D4
:109990004BF0BAFA174944EAC530034AC98C8852D9
:1099A000B0BD00BF6ADA05003881412070B51446A9
:1099B0000E460546022905D357480D494FF47D72DE
:1099C0004BF0A2FAB4F5005F05D35348084940F2C2
:1099D000F5324BF099FA074A05EB450144EAC630E7
:1099E000D28C02EB4111044A885270BD6ADA05003C
:1099F00027E00500AC57412018804120B0B50C4647
:109A00000546B1F5804F05D34348444940F2212231
:109A10004BF07AFA280102490C52B0BD6ADA05000F
:109A2000088041202DE9F84F1D4616460F4611F0DB
:109A3000E00F009005D0384838494FF482724BF05F
:109A400063FA16F0FE0F05D03348344940F2051290
:109A50004BF05AFADDF8289015F0FE0F05D02E488D
:109A60002E494FF483724BF04FFADDF82CA019F019
:109A7000FE0F05D02848294940F207124BF044FA5E
:109A8000DDF830B01AF0FE0F05D0234823494FF41B
:109A900084724BF039FA4FEAC7284FEA0924B6021C
:109AA0006D024FEACA174FEA8B191BF0FE0F05D063
:109AB00019481A4940F209124BF026FA46EA080002
:109AC0000099244A284320430901384340EA090009
:109AD00040F002005052BDE8F88F00BF6ADA05007E
:109AE00070B514460E460546022905D30A480B49AF
:109AF0004FF412724BF008FA20B2B0F1FF3F05DCD0
:109B00000548064940F249224BF0FEF944EAC630C6
:109B10002901034A505270BD6ADA0500B3E005001E
:109B20000A8041200B49425C0844417842EA012105
:109B30008278C07841EA024141EA0060704700BF84
:109B4000044A815410440A0A42700A0C090E8270B9
:109B5000C17070470080412010B5064C206840005D
:109B600006D40120F7F7A0FF206840F08050206065
:109B7000012010BD14F000501CB500240094FCF727
:109B800067FE1CBDF0B59FB0054600680C46002876
:109B900064D000EB4000696801AF01EBC0003946BA
:109BA000A0F1180628463C2EA8BF3C26324600F0FD
:109BB00055FA2868B7EE002A9FED2C1A9FED2E4A21
:109BC000B0EE423A013800EE100A0020B8EEC00AAA
:109BD00000EE013A9FED260A83FE003A00EE106A7D
:109BE000B8EEC00A82EE000A32EE401A20EE032AD6
:109BF000B0EE405A21EE031A9FED1E3AB0422BDA26
:109C000034F9101006EE101AB8EEC66A37F91010C3
:109C100007EE101A25EE066AB8EEC77A01EE076A5B
:109C2000B0EE437AB4EE436AF1EE10FA08DCB4EE1B
:109C3000446AB0EE467AF1EE10FAB8BFB0EE447A5C
:109C4000BDEEC76A30EE055A31EE421A16EE101A12
:109C500024F810100130D1E7002028602846214662
:109C60001FB0BDE8F04000F053BA00BFCDCC4CBEF1
:109C70000000000000FEFF46000000C70021016058
:109C800000F23461416100F2AC604FF4C37100F046
:109C900081BA10B500239342A8BF10BD90ED000A11
:109CA0000430BDEEC00A10EE104A21F81340013313
:109CB000F1E710B500239342A8BF10BD30F8134060
:109CC00021F813400133F6E72DE9F84F2DED0A8B0B
:109CD00092B0054600688B46411E022963D203AE4E
:109CE000D5E901242846314600F0B8F9E8680119A1
:109CF000091A8142FCDCA9606B68D5E904120844AA
:109D00002861A2EB8000A2EB8302A0EB8301A86193
:109D100005F2346000F0C0F9284659463C2200F0B4
:109D20009DF96868002800F07E8100EE100A9FED22
:109D3000C62A9FEDC63A0021B8EEC01AB7EE000A57
:109D400080EE011AB0EE414A814280F26C813BF90B
:109D5000112030EE410A05EE102AB8EEC55A36F948
:109D6000112006EE102A24EE055AB8EEC66A00EE5F
:109D7000065AB0EE426AB4EE425AF1EE10FA08DC2E
:109D8000B4EE435AB0EE456AF1EE10FAB8BFB0EE49
:109D9000436ABDEEC65A31EE044A15EE102A2BF87E
:109DA00011200131D0E788B905EB800105F2AC62E2
:109DB0001C31B0F5C37F11D032F91030013000EE04
:109DC000103AB8EEC00AA1EC010AF2E70628C0F288
:109DD000258158463C2100F0DDF928E16A699C485C
:109DE0009FED9CAA02EB8001B0EE4A9AA2F5207684
:109DF000002001928A469F280AD891ED000A91ED31
:109E0000781A0831023000EE01AA00EE009AF2E75B
:109E10009FED918A029589FE080A10EE100AF7F765
:109E200088F841EC100B4FF0C3FA51EC100BF7F728
:109E300093F800EE100A9FED87BA50460AF1080920
:109E400002274FF0000800258AEE00AA502F39D8CB
:109E500090ED001A90EDA00AB0EE4BCA00F1080494
:109E6000002049469F280AD801EB080291ED763A76
:109E70000831023092ED002A02EE03CAF2E701EE49
:109E8000419A00EE009A89FE080A10EE100AF7F7D0
:109E900050F841EC100B4FF08BFA51EC100BF7F728
:109EA0005BF800EE100A08F1080820468CEE000A64
:109EB000B4EE4A0A80FE0AAAF1EE10FAA8BF3D46A7
:109EC0000237C3E79FED63AA4FF00009002D4FF062
:109ED0000000C8BFA5F101090AEB8904B0EE4A9A57
:109EE000B0F5207F0BD0311891ED000A2118043015
:109EF00091ED001A01EE00AA01EE019AF0E789FE49
:109F0000080A4FF05008502D10EE100AB8BF05F1A6
:109F10000108F7F70EF841EC100B4FF049FA51EC3D
:109F2000100BF7F719F800EE100A01989FED49BAE7
:109F30004F468AEE00AA00EB8900A0F25C45474537
:109F400037DA94ED001A94EDA00AB0EE4BCA01374F
:109F500004F1040A0020B0F5207F09D0311891EDFA
:109F6000002A2918043091ED003A03EE02CAF2E704
:109F700001EE419A00EE009A89FE080A10EE100ADE
:109F8000F6F7D7FF41EC100B4FF012FA51EC100B23
:109F9000F6F7E2FF00EE100A043554468CEE000A94
:109FA000B4EE4A0A80FE0AAAF1EE10FAC8BFB9461A
:109FB000C5E7029DC9F178040026A6EBA40C24F0A5
:109FC0000300A3106969EC606B600A1A05F2346043
:109FD0009E4205DA52F8267040F826700136F7E7FF
:109FE0002C610024AC6001EB8904A4F5F07404EB4F
:109FF0008C01AC6100F050F86A686869C2F5C37101
:10A00000A0EB820005EB410101F2AC61FFF741FEDC
:10A01000284659463C2200F021F808E028465946D7
:10A020003C2200F01BF82846594600F08BF82868BF
:10A03000594601302860284612B0BDEC0A8B01B0A9
:10A04000BDE8F04F00F064B800FEFF46000000C716
:10A05000E8FEFFFF0000000000007A43F8B5144658
:10A060000D460646BCB1B0683169B2690F1A02EB01
:10A0700080002946A742C8BF27463A46FFF709FE97
:10A08000B0683169E41B05EB47053844411A18BF35
:10A090000146B160E6E7F8BD10B59BB300EE103A9B
:10A0A0009FED192A9FED193A0024B8EEC01AB7EEB9
:10A0B000000A80EE011AB0EE414A9C4222DA91ED8C
:10A0C000005A30EE410A90ED006A24EE055A00EE87
:10A0D000065AB0EE426AB4EE425AF1EE10FA08DCCB
:10A0E000B4EE435AB0EE456AF1EE10FAB8BFB0EEE6
:10A0F000436A82ED006A31EE044A043204310430CE
:10A100000134DAE710BD00BF00FEFF46000000C7C3
:10A1100070B505460A4E0C4600F224704FF4A57245
:10A1200005F2AC61B04705F5146120463C22B0470A
:10A1300005F6041021463C223346BDE8704018471E
:10A14000B39C000000689FED112A013800EE100A50
:10A150000020B8EEC01AB7EE000A01EE020A9FED29
:10A160000C1A3C2808BF704731F9102002EE102A63
:10A17000B8EEC22A20EE022A30EE010ABDEEC22A53
:10A1800012EE102A21F810200130EAE7CDCC4CBEA7
:10A190000E745ABB002200238B42A8BF704720F8E0
:10A1A00013200133F8E7000070B500EBC002F34B59
:10A1B00003EBC204FF22002384F8442084F8430008
:10A1C000002000222161242A07D0A518DE430C328A
:10A1D000013385F82260A861F5E788688047074960
:10A1E00004F10800FBF70AFB05492046FBF706FBD4
:10A1F0002046BDE8704000F03DB800BFBDA500009E
:10A20000A5A20000B0B5044641F2021000211022C0
:10A21000012300250CF066FD057009F077F994F82C
:10A220003F00A58784F83E00204600F00BF894F824
:10A2300043004FF4805101FA00F0BDE8B0404BF00C
:10A24000A3BE000003460320BE4A012183F840005C
:10A250001869D0F800C003F13F0060470346A0F83A
:10A260004610022083F84000D3E90420D2F800C051
:10A27000B44A6047B0B504460020B24A012184F8D0
:10A28000400020692346056804F13F00A84794F880
:10A2900043004FF4805101FA00F0BDE8B0404BF0AC
:10A2A00073BE00BFBCB5044690F8420058B1012807
:10A2B00004D094F84000002800F02A812046BDE830
:10A2C000BC40FFF79FBF94F84000032800F287804E
:10A2D000DFE800F00223466F94F83F10062984F867
:10A2E0004110EBD8012202FA01F010F06E0FE5D018
:10A2F00084F84020924A04F13C002346515C2269D4
:10A300001568904AA84794F843004FF4805101FA29
:10A3100000F0BDE8BC404BF055BE94F84100411E32
:10A32000052900F2A180DFE801F003748D9FA7B535
:10A3300094F83C0094F83E5094F83D1040EA012017
:10A34000A08780B209F0D0FE854200F29F8094F889
:10A350003E00002800F0E78001210CF083FC7EE045
:10A3600094F841007649B4F84630626904F13C053E
:10A37000095CCDE900510121FDF712FD94F841007F
:10A38000411E052900F2B380DFE801F003A2A9B164
:10A39000BBC0636994F83E20A18F012009F0B0FE94
:10A3A0006069002800F0B4800CF02EFA0020606193
:10A3B000AEE0E06B614988421FD094F843004FF44F
:10A3C000805101FA00F04BF0FDFD002003280FD072
:10A3D0002118013091F83D2081F83C20F6E7AA4889
:10A3E000D84940F2C73202B0BDE8B0404AF08CBD57
:10A3F0002046BDE8BC40FFF725BF40F6034009F00A
:10A4000073FE012040F603410022002309F078FE8C
:10A410007EE094F83E0094F83F1040EA0120E08787
:10A4200094F83C1094F83D2041EA02210204A187EF
:10A4300089B272D082B2012009F0A0FD606128B318
:10A44000E18F31E094F83C0094F83E2094F83D1000
:10A4500040EA012081B2A08701200AF003FA60617E
:10A46000A0B194F83E101FE094F84310B54A40F2B2
:10A4700036334AF067FD1AE004F13C000BF04CFD66
:10A48000606118B1E18F6FF39F310DE02046FFF757
:10A49000B9FE0CE0FCF7E0FC606194F83D0094F834
:10A4A0003E1040EA012081B22046FFF7D7FE94F823
:10A4B000400000B1BCBD002194F8410004F13C0211
:10A4C000CDE900111E490B5C0121FDF769FCBCBD03
:10A4D0006369E28FA18F012009F0B4FD18E0636980
:10A4E00094F83E20A18F01200AF0E6F910E094F8DC
:10A4F0004310944A40F2AA3302B0BDE8B0404AF09B
:10A5000021BD616928460BF067FD01E0FCF77CFB8B
:10A510002046BDE8BC40FFF7ADBE0120002200236D
:10A5200009F090FD05E0A18F01200022002309F031
:10A53000E7FD2046FFF79EFEB9E700BF01030C00D0
:10A54000E8A5050049A50000024680F8421090F8F1
:10A55000430018B100201146FBF7CCB91046FBF7B9
:10A5600093B90000B0B5754D1024A02C08BFB0BD44
:10A570002859806880474834F7E700BFFC574120DE
:10A58000F8B56E480124002600F110052F46E007BB
:10A5900008D0012E06D857F8480BC06880470446FB
:10A5A0000136F4E710B104F00100F8BD002EFAD036
:10A5B00055F8480B80688047013EF7E7F8B590F8FA
:10A5C0003C70054600F11006A0F10804FF2F06D1EB
:10A5D0005C4A2846214640F226234AF0B3FC07EBAA
:10A5E0004700002146F8201006EB8000406800B1CB
:10A5F0008047FF2000213246002385F83C000329D4
:10A6000009D0176827B1977A9F4284BF08463B4616
:10A610000C320131F3E7C1B285F83C00FF2911D0BB
:10A620004900AA68234651FA80F1D2F804C0444A8E
:10A6300056F8210006EB81010989013101B0BDE81E
:10A64000F040604794F843004FF4806101FA00F055
:10A65000BDE8F8404BF098BC10B5044629B10A4853
:10A66000384940F2F3124AF04FFC94F8430004F1E9
:10A67000080120B10020BDE81040FBF73BB90846B7
:10A68000BDE81040FBF700B96ADA05002DE9FC418E
:10A690000C461546984600260021074622462B46C2
:10A6A000CDE90066FDF77CFB781E04F8017D0428E7
:10A6B00002D20020002607E0052F04D0062F2BD160
:10A6C0000126022000E0012046EAC6021B4900EBF9
:10A6D000400301EBC20202EB83031D84C3E9064879
:10A6E00012F8443FFF2B18BFBDE8FC81107006EB49
:10A6F000C600134A01EBC006691C3069334647683F
:10A700002046B84796F843004FF4806101FA00F004
:10A71000BDE8FC414BF056BC0A4C3846022140F2E1
:10A72000B54322464AF00EFC38460221224640F24A
:10A73000D14302B0BDE8F0414AF004BCFC574120CF
:10A7400059A60000F0DC0500F8B50446011D474895
:10A750004422F6F765F94648052104F19005017099
:10A76000444805604448016821B104F12800884745
:10A77000002879D04148424E2946B047616C414893
:10A78000B047A16A4048B047E16A4048B047216BF2
:10A790003F48B047616B3F48B047A1683EA0B04713
:10A7A000E16841A0B047216943A0B047616946A074
:10A7B000B047A16948A0B047E1694BA0B047216A02
:10A7C0004DA0B047616A50A0B047A16B5248B04756
:10A7D000E16B5248B047216C5148B04720784007A0
:10A7E00003D4584844F0A6FF05E049F02BFA01468F
:10A7F0004CA044F09FFF544844F09CFF5348EFF3B3
:10A800000981EFF3088244F095FF48F0F1FC2078CD
:10A81000C00602D44E4844F08DFF4E48002143F656
:10A82000E07C4160BFF34F8F0268C2F34E31C2F348
:10A83000C9039A0701330CEA411516461F4646EA3A
:10A84000050406F14046013FC0F8EC41F7D14C1E2B
:10A8500000292146EFD1BFF34F8F0120BFF36F8F47
:10A86000BDE8F840F7F720B9F8BD00BF7C6A412089
:10A87000E04C4120C06A41201C65412080E1050078
:10A8800035F704009AE1050032E105003FE10500DB
:10A890004CE1050066E105007230343A203078253D
:10A8A0003038780A000000007230353A20307825C0
:10A8B0003038780A000000007230363A20307825AF
:10A8C0003038780A000000007230373A203078259E
:10A8D0003038780A000000007230383A203078258D
:10A8E0003038780A000000007230393A203078257C
:10A8F0003038780A000000007231303A2030782574
:10A900003038780A000000007231313A2030782562
:10A910003038780A0000000059E105008DE105009B
:10A9200073E1050068617264206661756C74206F64
:10A930006E207468726561643A2025730D0A0D0AF1
:10A9400000000000DDE0050005E105001CE1050058
:10A95000F7E0050080ED00E02DE9F04190B0804681
:10A96000E9480D0A16460C4650F8257008460CF0CA
:10A9700081FA09280DD0042837D101AD2C493C2299
:10A980002846F6F74DF8204631462A4611F0A8F839
:10A9900048E026482146026840F20560904720467C
:10A9A00001210CF091FA304600210DF0C2FC97F81D
:10A9B000780100F00300032805D04FF4C26021465F
:10A9C00022460CF0DFF998F8060098B907F1380133
:10A9D00028463CF025FF68B1012087F8440087F83D
:10A9E000C40220460EF0B0FE0DE030460C210DF002
:10A9F000A0FC17E0012097F83920332187F84500A3
:10AA0000284612F0A5FB3AF01DFD28B140F2176070
:10AA1000214622460CF0B6F940F21A602146224641
:10AA20000CF0B0F9002010B0BDE8F0815044412096
:10AA30005494050070B590B00646084614460D467D
:10AA40000CF018FA042862D10020344A03900990CF
:10AA50008DF81000CDF81200CDF816008DF8280002
:10AA6000CDF82A00CDF83600D6E90201CDE9010182
:10AA7000CDE907011821708A01EAC00122FA01F12B
:10AA800001228DF80C108DF8111081064FF0100185
:10AA900058BF0821ADF82E10ADF83010C1B200F447
:10AAA000407002EB9112B0F5007F8DF832208DF8E6
:10AAB0003320C1F382018DF834108DF835104FF03A
:10AAC000040108BF0121B0F5807018BF08468DF859
:10AAD00024008DF829002146308AADF83A00307DF7
:10AAE0008DF83E00F08A01AE324680F47070ADF809
:10AAF0003C00284610F0F4FF9849280A3C2251F8FF
:10AB00002000314600F53470F5F78AFF03E0204657
:10AB10000C210DF00EFC002010B070BD02000103EE
:10AB20002DE9F0412648140A0D4650F824702046BD
:10AB300023F008FAC0BB688828B3A888F9F7DAFEC2
:10AB4000698806460020F08011F47C4F0CD01DA2CD
:10AB500040F2FF304FF4C07340F2FF384AF0F2F990
:10AB6000F088698820EA0800084329880A4660F3CB
:10AB70000D02F28022F4405097F89D205AB1002136
:10AB800087F89D100AE0288810F4405F04BF012078
:10AB900087F89D0008E001F440510843F08020460A
:10ABA00031462AF049FB38B1688810B1A888F9F716
:10ABB000BDFE204623F0C2F80020BDE8F08100BFB2
:10ABC000105D41206C6C635F6863692E6300000058
:10ABD00070B5488868B388881E460D46FAF7A4FB0E
:10ABE0006988044611F47C4F07D0134A40F2FF30C5
:10ABF0004FF460734AF0A6F9698860896FF31F31DA
:10AC00000E4A00F4406096810843298801F44053BD
:10AC100001F440411844137D08442146608100201E
:10AC20001AF01EFC18B12089FAF798FB01E039F000
:10AC30007FFE002070BD00BF40DF0500045C4120A6
:10AC4000F8B50D46DC49140A104651F824700CF092
:10AC500011F9192811D8012101FA00F040490842E0
:10AC60000BD0688810B1A888FAF778FB04F180004F
:10AC700001210DF0DDFB0020F8BD688828B3A8880D
:10AC8000FAF752FB698806460020708111F47C4F68
:10AC90000AD01E4A40F2FF3041F243134AF052F903
:10ACA0007089698800F47C40084329886FF39F30DD
:10ACB00001F44042104497F85120708120F4405034
:10ACC0005AB1002187F851100AE0288810F4405F3B
:10ACD00004BF012087F85100C3E701F44051084345
:10ACE000708197F84B1039B100F44050B0F5805F97
:10ACF000B7D0002087F84B002046314614F038FFCB
:10AD00000028AED1B7E700BF605C4120D8DF050066
:10AD100070B50D46080ADF49144651F820602846F0
:10AD20000CF0A8F819280BD8012101FA00F0DA4933
:10AD3000084205D0022120460DF0FBFA002070BD2C
:10AD40003AF0C6FE10B1002086F8810140F217608B
:10AD500029462A460CF016F80021ECE7605C4120F9
:10AD60000100C00310B504460A2806D3414A204614
:10AD70000A2140F2FB434AF0E5F83F48044414F846
:10AD8000180F28B163483B4940F2FC424AF0BCF836
:10AD90000120207010BD00BF10B504460A2806D35C
:10ADA000344A20460A2140F204534AF0CBF8324894
:10ADB000044414F8180F28B956482E4940F2055299
:10ADC0004AF0A2F80020207010BD00BF70B50C46FC
:10ADD0000546022806D3274A2846002140F20F5391
:10ADE0004AF0B0F8C5EBC50023490D182E4616F8F9
:10ADF000220F28B11F4A00214FF4A2634AF0A2F8A3
:10AE00002068A18801223270A5F82710C5F8230018
:10AE100070BD00BF10B50446022806D3154A20466F
:10AE2000002140F224534AF08DF8C4EBC400F749E6
:10AE30000844002180F8221010BD00BF10B5044660
:10AE4000022806D30B4A2046002140F21B534AF049
:10AE500079F8C4EBC400ED490C1814F8220F01284E
:10AE600005D0044A002140F21C534AF06BF802203E
:10AE7000207010BD6EDA050090584120F8B5244FBF
:10AE8000244C254D0026082E1ED007EBC60137F8AE
:10AE90003600496802380C3102B2002A12D40B88FD
:10AEA00001F10C0231F80C1C01386FF39F236FF392
:10AEB0009F2199421146EFD32046294640F6BE0213
:10AEC0004AF022F80136DEE71448312101F024F976
:10AED00028B91048104940F6C3024AF015F8104846
:10AEE000022101F019F928B90A480B4940F6C702B6
:10AEF0004AF00AF80B481F2101F00EF900B1F8BD25
:10AF0000FA48054940F6CC02BDE8F84049F0FCBFDC
:10AF1000F0A505006ADA0500DDDC050024B50500B2
:10AF200014B50500ACB605002DE9F0410D46080A40
:10AF30005849144651F8207028460BF09BFFA0F1A9
:10AF40001701032908D338B101280DD197F8B802A9
:10AF500060B12046232101E020460C210DF0E9F9E3
:10AF600000263046BDE8F0810226FAE797F8810115
:10AF700001281DD13AF0ACFD10B1062087F8800100
:10AF800097F885014FF0010887F8C28218B187F859
:10AF9000B88287F8BB822046002100260DF0C9F94F
:10AFA000284687F87A6187F8448013F0A9FCD8E72F
:10AFB00020460621D2E700BF605C41202DE9F04128
:10AFC00090B00646DD480F0A90460D4650F82740DF
:10AFD00008460BF04FFF19280ED8012101FA00F0A6
:10AFE0002D49084208D0404602210DF0A2F9002761
:10AFF000384610B0BDE8F081308807F18001814209
:10B0000025D194F854107088F7F7CFFD074694F8CF
:10B01000571094F8582094F859307088F7F781FD4C
:10B020003843E083718888422FD140F00800002126
:10B030000027E08340460DF07CF9012029462A468E
:10B0400084F8BF0240F214600BF09CFED0E7284663
:10B050000BF010FF01281BD1002701210122ADF8C0
:10B060003A708DF83E70CDE901777088C0F34210D8
:10B070003388ADF83C0001A80090284610F04CFE43
:10B08000014640460DF055F9B2E740461A21ACE7BB
:10B090000227ADE7605C41200100C003B0B5084C59
:10B0A0000020202804BF0020B0BD255A08309D4252
:10B0B000F7D1204450F804CC1846BDE8B0406047B2
:10B0C00040A30500B0B5094C0020B0F5847F04BF53
:10B0D0000020B0BD255A08309D42F6D1204450F8DA
:10B0E00004CC1846BDE8B040604700BFC4A30500CB
:10B0F00010B5094A0020182804BF002010BD145ABA
:10B1000008309C42F7D1104450F8042C08461946E8
:10B11000BDE81040104700BF38B80500B0B50A4C74
:10B120000020B0F5007F04BF0020B0BD255A0830D4
:10B130009D42F6D1204450F804CC084611461A46E8
:10B14000BDE8B040604700BF88B8050010B5094AA7
:10B150000020B0F5807F04BF002010BD145A0830D5
:10B160009C42F6D110441A4650F804CC0878BDE849
:10B17000104060477CBC050010B5094A0020B0288B
:10B1800004BF002010BD145A08309C42F7D110446F
:10B1900050F8042C08461946BDE81040104700BF7F
:10B1A0008CC0050010B5094A0020B0F5407F04BFEF
:10B1B000002010BD145A08309C42F6D1104450F8BB
:10B1C000042C08461946BDE81040104784C105000C
:10B1D00010B5094A0020B0F53A7F04BF002010BD29
:10B1E000145A08309C42F6D1104450F8042C0846FA
:10B1F0001946BDE81040104784C505000348B0F863
:10B20000740070470149A1F87400704790584120BC
:10B2100010B543780C468178C21C1846FBF750FCE9
:10B220000146204638F0D8FC002010BD10B5437808
:10B230000C468178C21C1846FBF742FC01462046AA
:10B2400039F0F5FD002010BD2DE9F843DFF85C8CE6
:10B2500089460546002708F13A06B81C3BD03478E9
:10B260002CB1B01F29460622F5F71FFC10B1093694
:10B27000013FF2E7601F02280AD278420002013043
:10B2800081B228464A460BF057FD0120BDE8F883FD
:10B29000012C25D1D8F8001051B9D8F8040038B9DC
:10B2A0006848694940F21A5249F02EFED8F8001059
:10B2B00089B128460622F5F7F8FB28B161486249B2
:10B2C00040F21F5249F020FE1DF09CF90C280AD1D3
:10B2D00028460021D6E7484602212A4639F092FD49
:10B2E0000020BDE8F88302203070F9E76ADA050033
:10B2F00070B50446084615460E460BF0BBFD40B13E
:10B30000A349300A51F8201091F8491019B10B26C1
:10B310000DE00C260BE018F01FFF38B10646494837
:10B32000074940F22D5249F0EFFD00E00026284683
:10B33000314622460CF0D8FF002070BD605C4120F1
:10B34000D8DF05002DE9F04387B03C4F894605461C
:10B350000024122C0ED0381990F83A10012911D07F
:10B36000052905D3343029460622F5F79EFB58B14E
:10B370000934EEE7287A022802D8287B012805D96B
:10B38000122154E00C2152E00B2150E00024022C49
:10B390004CD004EBC4003E1896F83A0008B10134D2
:10B3A000F5E73BF0F7F9002886F83C003ED08DF831
:10B3B0001600A888398C8DF815402C7AADF8080055
:10B3C00028680190B87E8DF81400B88A084403906C
:10B3D000B5F90A00C10B01EA4000ADF810003AF0DF
:10B3E00099FA00210130ADF81710154931F8141001
:10B3F0004843ADF8120001A81DF02AF8804601204C
:10B4000086F83A00B8F1000FA88829683D6071639A
:10B41000308705D00B480C4940F2EE4249F074FDEC
:10B420004846414639F011FD012004E00921484613
:10B4300039F00BFD002007B0BDE8F08360634120C8
:10B44000BCC805006ADA05006EE005002DE9FE4380
:10B4500014460029CDE901014CD00546208801EBB6
:10B46000030801270E46029101A94246009705EB09
:10B47000000902A84B4606F011FBC0BB701C01A9D5
:10B4800042464B460097029002A806F007FB70BBAD
:10B49000301D042701A942464B46029002A800979E
:10B4A00006F0FCFA18BB06F1080001A942464B461B
:10B4B0000097029002A806F0F1FAC0B906F10C005C
:10B4C00001A942464B4602900420009002A806F0D3
:10B4D000E5FA60B906F110000290F5F7DFFAC0B2A4
:10B4E00001A942464B46009002A806F0D7FA0199FE
:10B4F000491B01E0002100202180BDE8FE8370B5DA
:10B500000A4604464FF488500021082300260BF019
:10B51000E9FB0546208832F063F9686020882E70C8
:10B520006880284607F0F2FF002070BD70B50A461B
:10B5300004464FF488500021042300260BF0D2FB70
:10B540000546A188208832F063F920882E70688033
:10B55000284607F0DBFF002070BD000070B51446E0
:10B560000B4A0546080A52F8206008460BF082FC98
:10B5700038B1A8780021002818BF012086F85300B0
:10B5800000E00C212A8820460CF0C3FE002070BD8C
:10B59000605C412070B50546084616460C460BF027
:10B5A00069FCC0B1692804BF022070BDF9F770FFC3
:10B5B000064680880B49AA780844E91CF5F730FA5A
:10B5C000A8783146B071200A15F028FA2046692182
:10B5D0000BF07AFC04E02A8830460C210CF099FE2E
:10B5E000002070BD0080412070B50C464FF488509B
:10B5F00000214FF60342012300260BF073FB0546A2
:10B60000AD4881682078884728462E7007F07EFF75
:10B61000002070BD80B51A464FF4885000210123E8
:10B620000BF060FB1121017007F070FF002080BD5E
:10B6300080B51A464FF48850002102230BF052FBCC
:10B640001121017007F062FF002080BD7CB5044627
:10B6500011480D4690F8C000C0070CD00F480DF1FE
:10B66000070201212346009506683020B0470646B0
:10B670009DF8070068B14FF4885000212A46012345
:10B6800000260BF02FFB2168054A0670916007F039
:10B690003DFF30467CBD00BF0C564120A8444120F0
:10B6A000585E4120B0B50C4641F2011000214FF622
:10B6B0001742012300250BF015FB30B1057007F090
:10B6C00025FFA17820882AF0A7F90020B0BD00004E
:10B6D00080B50246BD48897850F822000029B0F8AC
:10B6E000963018BF012123F0400343EA8111012362
:10B6F000A0F8961011464FF488504FF636420BF0E2
:10B70000F1FA0021017007F001FF002080BD00BFA9
:10B7100070B50E464FF4885000214FF611420123B8
:10B7200000240BF0DFFA05463078012808BF4FF0FF
:10B73000A534002808BF4FF0C33414B1204641F0AF
:10B7400085FF12202870284607F0E0FE002070BD1B
:10B7500080B51A464FF48850002182230BF0C2FABC
:10B760001121017007F0D2FE002080BD70B54FF4AA
:10B77000885000214FF61042182300260BF0B2FA31
:10B78000051D044600F1080100F10C0200F1100350
:10B7900028460BF0FFFB30B111202070C5E9006690
:10B7A000C5E9026600E0267000206061204607F0CF
:10B7B000ADFE002070BDB0B51A460C464FF488505F
:10B7C000002182230BF08EFA61794A1E52B2002AC0
:10B7D00010D423792268082B0ED0102B15D0202BE3
:10B7E0001BD100238B4218D2D458C5180433C5F896
:10B7F0000240F7E7122112E0831C0C466CB112F8EC
:10B80000015B013C03F8015BF8E700238B4204D2A3
:10B81000D45AC51802336C80F8E7417000210170DA
:10B8200007F074FE0020B0BD7CB5A1F10C000BF058
:10B8300089FA00240DF10205032C06D0E0B20BF0CA
:10B84000CBF825F814000134F6E70BF0BFF80446F6
:10B850004FF4885000214FF612420C2300260BF0C3
:10B8600041FA032E06D000EB460135F816200136CA
:10B870004A80F6E700218460017007F047FE01204E
:10B880007CBD000070B51A460C464FF4885000216C
:10B89000822300260BF026FA054680202946AA1CA2
:10B8A00001F8010FEE4803682078984728462E706B
:10B8B00007F02CFE002070BDDC47412010B5024689
:10B8C0004FF488500021012300240BF00BFA047080
:10B8D00007F01CFE002010BD10B502464FF4885042
:10B8E0000021012300240BF0FDF9047007F00EFE87
:10B8F000002010BD10B502464FF4885000210123EE
:10B9000000240BF0EFF9047007F000FE002010BDDA
:10B9100070B50C464FF4885000214FF63942082389
:10B9200000260BF0DFF905461348016A2088884796
:10B93000686020882E706880284607F0E7FD0020A8
:10B9400070BD00BF70B50C464FF4885000214FF613
:10B950003A42042300260BF0C5F905460648616803
:10B96000426A2088904720882E706880284607F019
:10B97000CDFD002070BD00BFE84741202DE9F0411A
:10B98000054612480E46904650F825408878012119
:10B990000C300BF067F90746B078F11C38720020C4
:10B9A000B278786007F10900F5F73AF804F124005D
:10B9B0003946FAF70DF9284622F006FE2846414698
:10B9C000002221F0CFFD0020BDE8F081105D412074
:10B9D00010B508684AF0DCFB4FF4885000214FF6A0
:10B9E0000F42012300240BF07DF9047007F08EFD57
:10B9F000002010BD10B50868FBF72AF94FF48850F5
:10BA000000214FF68442012300240BF06BF90470EF
:10BA100007F07CFD002010BDBFB50C464FF48850E8
:10BA200000214FF6634201230BF05CF9054694E8D0
:10BA30000700D4F80E30ADF80810ADF80620ADF8C8
:10BA40000400A0890393ADF80A0001A84BF0DCFBC9
:10BA50002870284607F05AFD002004B0B0BD000051
:10BA6000B0B50D464FF4885000214FF662420123D5
:10BA70000BF038F904462888411E022909D800EB4A
:10BA80004000464901EBC00014384BF085FD002012
:10BA900000E002202070204607F038FD0020B0BDF5
:10BAA000B0B586B00D4619464FF488504FF6644243
:10BAB00010230BF017F904460020D5F81230ADF82A
:10BAC0000A002868D5E902120493ADF80000A8889E
:10BAD000ADF80610298AADF802000138ADF80E1055
:10BAE000A97DADF80C006846ADF808208DF814105B
:10BAF0004BF070FD2070BDF804006060BDF80A00D6
:10BB0000A060BDF80C00E060204607F0FFFC0020BC
:10BB100006B0B0BD2DE9F8430D464FF48850002122
:10BB20004FF6614204234FF000080BF0DBF80446A7
:10BB3000288A411E022928D8DFF8609000EB4001D6
:10BB4000AA8AA9F8008029F8312009EBC101144A1A
:10BB500041F8102C95E8CC0021F8040C688A21F8F3
:10BB60000A3C21F8086C21F8067C21F8020CA87D1B
:10BB700021F80C2C8870A1F114004BF0B1FDB9F83C
:10BB8000000084F80080608001E0022020702046E0
:10BB900007F0BCFC0020BDE8F88300BFB0464120A0
:10BBA000716B000080B51A464FF4885000210123C4
:10BBB0000BF098F81121017007F0A8FC002080BD5F
:10BBC000B0B50C464FF4885000214FF602420123D5
:10BBD0000BF088F861794A1E52B2002A10D42379FA
:10BBE0002268082B0ED0102B14D0202B1AD1002342
:10BBF0008B4217D2E518D5F80650D5500433F7E735
:10BC0000122110E0A31D69B113F8014B013902F8AC
:10BC1000014BF8E700238B4204D2E518ED88D5529A
:10BC20000233F8E70021017007F070FC0020B0BD7E
:10BC300070B51A460C464FF48850002101230026A7
:10BC40000BF050F805463648A178E21C436820788E
:10BC5000984728462E7007F059FC002070BD00BFA1
:10BC6000DC4741202DE9F04F87B00A4680464FF46B
:10BC700088500021042300250BF034F8458005701E
:10BC8000044698F80600012821D0A8BB8748DFF8B1
:10BC900090A04FF0160B0DF105090DF1060790F875
:10BCA000F860012E31DB06F16000DAF80030494619
:10BCB0003A468DF805B0C5B22846984728B940469F
:10BCC00039460622F4F7F1FEC0B1013EE9E77748B4
:10BCD000134D90F8F810012917DB01F16000AA68F4
:10BCE0004E1EC0B2904702283146F4D058B9608841
:10BCF000314601306080EEE7122005E0DAF80810E6
:10BD00002846884740B103202070204607F0FEFBFC
:10BD1000002007B0BDE8F08F01206080F5E700BF8C
:10BD2000DC4741207CB505460F480C4690F8AC0036
:10BD3000C0070BD00D480DF1070201212B460094DE
:10BD400006682B20B0479DF8071059B1298841F2A9
:10BD50000110224601230AF0C5FF0C21017007F0F3
:10BD6000D5FB00207CBD00BF0C564120A8444120DB
:10BD70002DE9F84391468846054622F09BF808B124
:10BD80000C272BE0194850F82540B4F89A00C0075A
:10BD900023D128020C23011D40F209100A460AF0A3
:10BDA000A1FF134A0121064624F0E0F93046294656
:10BDB0000022002724F018FA98F8020030721328A5
:10BDC00008BF1620707230460AF0C4FFB4F89A001B
:10BDD00040F00100A4F89A0000E03A2728464946BE
:10BDE0003A4621F0CFFB0020BDE8F883105D4120EA
:10BDF00099D702002DE9F041064622480F0A144661
:10BE00000D4650F8278008460BF034F819280CD856
:10BE1000012101FA00F01C49084206D00C212046FD
:10BE20000CF087FA0020BDE8F081B078002117A25D
:10BE3000062915D0535C01318342F9D1318807F1CD
:10BE400080028A420ED1012188F8370040F21E603C
:10BE50002A4688F8BE1229460AF094FF0021DEE740
:10BE60001221DCE728460BF005F801281CBF022050
:10BE7000BDE8F081B2783188284610F011F801460B
:10BE8000CDE700BF605C41200100C003051314151D
:10BE90001A29000080B508460449012281F83120A2
:10BEA000002138F0C4FF002080BD00BF6063412046
:10BEB00070B590B00646084614460D460AF0DAFF03
:10BEC000042856D1D6E90201D6F81A20336ACDE902
:10BED0000101CDF8162021460793706A0890D6F824
:10BEE0003200CDF82E00D6F83600CDF83200708F33
:10BEF000ADF8360096F83C008DF8380096F83D0015
:10BF00008DF83900F08FADF83A0096F842008DF8C0
:10BF10003E0030690390307D8DF81000D6F8150092
:10BF2000CDF81100707E8DF81500B06A099096F872
:10BF30002C008DF8280096F831008DF82D00D6F8E9
:10BF40002D00CDF82900B6F8400001AE324680F44D
:10BF50007070ADF83C0028460FF0C2FD6D49280A0C
:10BF60003C2251F82000314600F53470F4F758FDBA
:10BF700003E020460C210CF0DCF9002010B070BD6D
:10BF80007CB50446084615460E460AF073FF58B1C4
:10BF900000216048360A8DF80710A17850F8260075
:10BFA00039B12846122101E0284602210CF0C1F9DE
:10BFB0001DE0012180F84B10284600210CF0B9F952
:10BFC0000DF107013046002213F03AFC9DF80710EE
:10BFD00011B120880CF02CFA218841F2021039228C
:10BFE00002230AF07FFE2188018007F08FFA0020EB
:10BFF0007CBD00BF2DE9F0410446E9480F0A904698
:10C000000D4650F8276008460AF034FFA0F11701EA
:10C01000032902D240460C2102E030B940460221F9
:10C020000CF087F90020BDE8F081D4F82E00C6F8A6
:10C03000FA02D4E90101D4F81620E369C6F8E22235
:10C04000C6E9B401C6F8E83206F53471206AC6F8CC
:10C05000EC0294F8320086F8FE0294F8330086F879
:10C06000FF0294F8340086F8000394F8350086F84F
:10C07000010394F8360086F8020394F8370086F836
:10C08000030394F8380086F8040394F8390086F81E
:10C090000503608FA6F8060394F83E0086F80A03AD
:10C0A000207C86F8DC02E068C6F8D802607D86F85D
:10C0B000E102D4F81100C6F8DD0294F8280086F8F1
:10C0C000F402606AC6F8F002D4F82900C6F8F50256
:10C0D00094F82D0086F8F902A08F80F47070A6F80D
:10C0E0000803384611F0AEFA0746404639460CF0D0
:10C0F00020F9002F96D140F20C6029462A460423ED
:10C100000AF0F0FD4FF480714180218801800AF02F
:10C1100021FE87E7605C4120B0B50C46054628B992
:10C120008C480C4940F6250248F0EEFE05F1080166
:10C13000A01E02B2002A0BD401F1080211F8083C3B
:10C14000097801388B42114624BF0020B0BDF0E7CA
:10C150000120B0BDDDDC0500F8B5044600780228FA
:10C160000ED0012829D000285DD1A249002000224C
:10C17000322A00F085808B180A3283F83000F7E706
:10C180006078411E02292BD2267A701E02284AD8D6
:10C190009849A51C00200022322A46D08B1893F81B
:10C1A000307047B193F83170022F04D193F8327098
:10C1B0000FB983F830000A32EEE76078411E022999
:10C1C00022D200F05FF8002854D00121417061783C
:10C1D0000129817033D0E1880181D4F802104EE04A
:10C1E00000284DD1A4780020611E02291CD8814965
:10C1F0000022322A36D08B180A3293F83150022DA1
:10C2000008BF83F83000F4E768B97A4900200022BB
:10C21000322A35D08B180A3293F83140012C08BFEE
:10C2200083F83000F4E71220F8BD00F02BF808B3D3
:10C230000221C67041706178012981701CD1E179B9
:10C240004172B4F80510A0F80710A1786279114086
:10C250000171E178A279114041712179E2791140AF
:10C2600081710DE000F00EF820B10221C470A0F839
:10C27000011005E00720F8BDA98801812968416007
:10C280000020F8BD5B4A0021322904BF002070471E
:10C29000501890F830300BB10A31F5E7012100F861
:10C2A000301F704710B504290BD8DFE801F00303F5
:10C2B00011172600144A084640F2325348F042FE55
:10C2C00020E02448104940F2515248F01DFE19E088
:10C2D000016840680D4AC2E9021013E00168426833
:10C2E0000A48C0E90012002109A208290AD0535CBB
:10C2F000445C234343540131F7E701684068034A33
:10C30000C2E90410002010BD6EDA050090584120EB
:10C3100000600400F807400270B50D4E0C4696F818
:10C320004C0002280DD11AF0D3FD054628B109486A
:10C33000094940F2794248F0E7FD002086F84C00B8
:10C3400000E00C252046294638F071FD002070BD24
:10C35000606341206ADA05006EE0050070B50D46A5
:10C36000080AB749144651F8206028460AF082FDB1
:10C3700032280ED008B902210CE096F83C000228C1
:10C3800007D140F20B6029462A460AF0FBFC002147
:10C3900000E00C2120460BF0CCFF002070BD00BF58
:10C3A000605C4120B0F57F7F91BF11203A48418009
:10C3B0000020704710B5F24A00210A2906D0531810
:10C3C00001311B7E002BF8D00C2100E0002100235E
:10C3D000DC1D152C07D0134493F82230002B234684
:10C3E000F6D00C2103E011B92B4908700021084652
:10C3F00010BD00BF905841202748017811B14189F4
:10C4000001314181704700BF2348017801291CBFD9
:10C410004FF6FF70704741884089814298BF0146BE
:10C42000081A80B2704700BF1B48817901291CBFE0
:10C430004FF6FF70704701898089814298BF01469D
:10C44000081A80B2704700BF13494A89824298BFD8
:10C450000246101A488170470F498A89824298BF64
:10C460000246101A888170470B4800218181C0E97B
:10C4700000118160704700BF0748018100207047AC
:10C4800005498871704700BF0348817911B18189DE
:10C4900001318181704700BF085941202DE9F041E9
:10C4A00086B0074666480E0A14460D4650F82680A8
:10C4B00008460AF0DFFC50B101280ED1F8780128B7
:10C4C00002D83A79032A0DD32046122101E02046F2
:10C4D00002210BF02EFF002700E00227384606B0AD
:10C4E000BDE8F081B9687B6988F83D0001383C6996
:10C4F000B0FA80F0C8F80010F968C8F81410B978DC
:10C5000088F84210414601F83E2F424642F8103F5B
:10C51000434643F8044F440998F83600471EB7FADB
:10C5200087F77F09BC4228D0B8F820C0002708F15F
:10C53000240E08F10C048DE814404246CDE903C7EF
:10C54000F6F7A0F904464FF4016021460BF0F1FE26
:10C55000002CC3D10BF05EF8013098F83630B8F8F3
:10C560002420C1B2304610F06CFF284612F002FAC7
:10C57000284668210AF0A8FCADE706F1800441F2E4
:10C5800002102122182321460AF0ACFB05464FF485
:10C590000160002100270BF0CCFE2F716C802F7002
:10C5A000D8E90001D8E904232961B8F83D10A5F8BD
:10C5B0000510C5E9020328466A6106F0A7FF8DE76A
:10C5C0002DE9F8430446F4480D0A0F460423218858
:10C5D00050F825804FF488500AF084FB4FF0000992
:10C5E000064680F800902088708038460AF042FCA9
:10C5F000E8B130468DF8039006F088FF01200DF178
:10C600000301012288F84B00284613F019F99DF820
:10C61000031011B120880BF00BFF218841F20210AA
:10C62000112202230AF05EFB2188018002E0022031
:10C630003070304606F06AFF0020BDE8F88300BF86
:10C64000605C412010B50C4681880088FFF7AAFE87
:10C650000146204637F0C0FA002010BDB0B50C46A8
:10C66000054681880088FFF79DFE014620B9E988CC
:10C67000A878FFF701FF0146204638F0D8FB0020DC
:10C68000B0BD000010B510F8022B0C4600213AB1E5
:10C690000388092B08D843880430013A1944F6E787
:10C6A00088B2FFF7D1FE09E005A006A14FF41A7287
:10C6B00048F02AFC2046122137F08EFA002010BDE7
:10C6C000415353006C6C6D5F6863692E630000001A
:10C6D0002DE9F047DFF8BC9DDFF8B0A1054688469C
:10C6E000002600200027002429788E4219D205EB6D
:10C6F00086014A8822F00103802B02D189880F44E9
:10C700000DE0D30509D4092AF8D94846514640F628
:10C71000542248F0F9FB122001E089880C440136CC
:10C72000E2E7010604D0C1B2404638F080FB05E0E4
:10C73000B8B2FFF789FEA0B2FFF78EFE0020BDE879
:10C74000F08700BFB0B5044608B9FEF797FB0C4D63
:10C7500078212846F4F78BF90A480321FFF7A2FD58
:10C7600000201F21C5E904104FF4FD50A5F8740006
:10C77000FFF77AFE2046BDE8B04007F085BD00BF58
:10C78000905841200CB5050070B53E4E0C4696F809
:10C790004C0001280DD11AF09BFB054628B13A4800
:10C7A0003A494FF4846248F0AFFB002086F84C0011
:10C7B00000E00C252046294638F039FB002070BDEA
:10C7C00070B586B02F4E05460C4696F84C0008B161
:10C7D0000C250DE0E87801382F2808D8A8789E2885
:10C7E00005D168788B2802D128783F2807D91225EF
:10C7F0002046294638F029FB002006B070BD39F0EC
:10C8000089F800212B79EA78029129888DF80E3079
:10C8100096F82430ADF80410A9788DF80F30738C99
:10C820008DF80610F17C02EBD322A1F10201B1FADE
:10C8300081F1ADF80C204FEA51118DF8101030B194
:10C84000012814BF4FF440704FF4007001E04FF422
:10C850008070ADF8120000208DF8140001A81AF0C5
:10C8600043FA054628B10848084940F2064248F014
:10C870004BFB01203D2186F84C0006F5BA70F4F719
:10C88000F6F8B5E7606341206ADA05006EE005005E
:10C89000F8B5044640480E0A0D4650F82670084682
:10C8A0000AF0E8FA38280ED0392816D10F48294660
:10C8B000026840F20460904797F8B532A27930469A
:10C8C000192110F073FD40F23440002122460BF094
:10C8D0000BFD284611F012FE05E040F234400C2119
:10C8E00022460BF001FD0020F8BD00BF504441205E
:10C8F000FEB5044628480E0A0D4650F82670084634
:10C900000AF0B8FA00F0FE0038281ED197F8B702F6
:10C910000121002808BF0221E279A079114387F89C
:10C92000AC020339B1FA81F1490987F8AD12207AD6
:10C9300087F8AE0228460AF09DFA392807D130461A
:10C9400010F0E6FC28463D2118E00C211CE01920DF
:10C9500097F8B5128DF8050097F8AE028DF808002B
:10C96000B7F8AC02ADF8060041F0FE0001A98DF861
:10C970000400304610F096FB28463A210AF0A4FA4B
:10C98000284611F0F7FF002140F22B4022460BF021
:10C99000ABFC0020FEBD00BF605C41207CB50546BD
:10C9A0000F480C4690F8AC0080070BD50D480DF1F0
:10C9B000070202212B46009406682B20B0479DF801
:10C9C000071059B1298841F20110224601230AF0CB
:10C9D00089F90C21017006F099FD00207CBD00BF93
:10C9E0000C564120A84441202DE9F0470546C07966
:10C9F0000C460F2802D82F78012F07D9122620467F
:10CA0000314637F0E9F80020BDE8F087DFF87C9A7E
:10CA100099F8E604012801D10C26F0E7022089F8F4
:10CA2000E60436F03BFC0C260A28E8D305F10108A1
:10CA30003946404637F006F9924F8246B888F98861
:10CA4000081A90FBF6F050450EDD0AEB8A0009EB60
:10CA5000400191F89D03420719D5B1F89A13EA797C
:10CA6000D140C907CAD112E037F0D2F88246B8885F
:10CA7000F988081A0C2190FBF1F0504501D10726E6
:10CA8000BDE70AEB8A0009EB400090F89D030AEB32
:10CA90008A0140F0050009EB4103B8F80410A3F83F
:10CAA0009813B3F89A63D8F8001083F89D03012017
:10CAB000C3F89413EA792978904083F89C133043A3
:10CAC000A3F89A03404637F0F7F928B92A78EB79AA
:10CAD000504641462FF0BCFE002690E72DE9FE4F60
:10CAE00007780C46012F2FD8EC4E054696F85204D5
:10CAF00020B137F00FFA08B10C2126E005F1010A48
:10CB00003946504637F09EF85E4FB988FA88511A78
:10CB10000C2291FBF2F1814208DD00EB800006EB74
:10CB2000400090F89D03C0F3400901E04FF0000978
:10CB30002978504637F090FBF9883A89511A382203
:10CB400091FBF2F1814206DD1221204637F044F8D4
:10CB50000020BDE8FE8F00202722C7B2B94206DDC3
:10CB600017FB02639B79FF2B01D00130F5E7B94237
:10CB700001D10721E9E7A846514618F8170BCDE97E
:10CB8000000905F1070938464A46434630F05CFE85
:10CB900027202978102217FB006B78438BF80610AA
:10CBA000DAF8001031504146BAF80400ABF804003E
:10CBB0000BF10700F3F734FF0BF117004946102281
:10CBC000F3F72EFF0021C0E72DE9F843884605461C
:10CBD00037F0BAF9F0B12978022901D3FF2917D12A
:10CBE0006E1C304637F02EF8E04C07464FF00C092B
:10CBF000A088E188081A90FBF9F0B8420CDD07EB39
:10CC00008700F64901EB400090F89D03810716D597
:10CC1000122130E00C212EE036F0FAFF0746A08802
:10CC2000E188081A90FBF9F0B84201D1072122E00F
:10CC300007EB8700E94901EB400090F89D0307EB03
:10CC40008701E64A40F0030002EB4102B188A2F8F6
:10CC50009813316882F89D033046C2F894132978FE
:10CC600082F89C1337F006F920B92A783846314605
:10CC700036F004F80021404636F0AEFF0020BDE853
:10CC8000F88300BFAC5741202DE9F04F91B0164614
:10CC9000059131B1054601EB030828B130882F1802
:10CCA00005E00021002078E006AD05F12B07012406
:10CCB00005A804A942463B46CDE90455009404F07A
:10CCC000EDFE002867D1681C04A942463B4600944B
:10CCD0000390059005A804F0E1FE00285BD105F162
:10CCE0002A0A4FF0FF3402960398013400788442F8
:10CCF00057D2AAF128000DF1100B0DF114090126ED
:10CD000042463B46059048465946009604F0C6FE0A
:10CD100000283FD1AAF12700594642463B460096DB
:10CD20000590484604F0BAFEA0BBAAF12600594679
:10CD300042463B46059006200090484604F0AEFE71
:10CD400040BBAAF12000594642463B46009605905A
:10CD5000484604F0A3FEE8B9AAF11F00594642462E
:10CD60003B4605901AF8200C0090484604F096FEC9
:10CD700080B90120594642463B460AF12906CDF8C2
:10CD800014A00090484604F089FEB246029E002896
:10CD9000AAD000E0029E0499491B318011B0BDE881
:10CDA000F08F0020F7E70000BCB50346E5480C46CD
:10CDB00090F8A800C0070BD0E3480DF1070201214D
:10CDC000009405682A20A84705469DF8070058B139
:10CDD00041F20110002122460123002509F082FFC3
:10CDE0000C21017006F092FB2846BCBDBCB5044680
:10CDF000E74890F8A80080070CD5E64800910DF1AF
:10CE000007020221234605682A20A84705469DF807
:10CE1000070070B14FF48850002142F26C020223E7
:10CE2000002509F05FFF0C2101702178417006F0A8
:10CE30006DFB2846BCBD00BF70B5F1480C4690F8AC
:10CE4000E614012901D10C2122E00221012243F242
:10CE50000C0380F8E6144FF49E71B1F56F7F08D093
:10CE6000455C0D2D03D802FA05F51D42EBD140318A
:10CE7000F3E700F59E7500260A2E08D028780128D1
:10CE800004BFF0B236F06CFD40350136F4E7002106
:10CE9000204636F0A1FE002070BD00BF745E412028
:10CEA0002DE9F843DFF8C09F884699F8E604012889
:10CEB00001D10C252DE0022089F8E60436F0EEF9C8
:10CEC0000C250A2825D3444C0027A088E188081A9D
:10CED00090FBF5F1F8B281421ADD00EB800109EB1D
:10CEE000410191F89D23D30710D0960701F29D339D
:10CEF0004FF0FB0658BFFA2632401A7091F89C2377
:10CF000001F565714FF6FF732FF014FD0137DCE773
:10CF100000254046294636F05FFE0020BDE8F88334
:10CF200070B5B74D0C4695F8520420B136F0F2FFBB
:10CF300008B10C2114E028482722FF23C18800896A
:10CF4000401A382190FBF1F00021CEB2B04204DD4E
:10CF500016FB02560131B371F7E730F011FD0021E5
:10CF6000204636F039FE002070BD00BFAC5741208E
:10CF70002DE9F84388460C2536F0E6FF28B3164F16
:10CF8000DFF8909F0026B888F988081A90FBF5F121
:10CF9000F0B2814218DD00EB800109EB410191F80C
:10CFA0009D23D3070ED0540701F29D334FF0FD04AB
:10CFB00058BFFC2422401A7091F89C2301F565713A
:10CFC00035F0C0FE0136DEE700254046294636F042
:10CFD00003FE0020BDE8F883AC574120745E412079
:10CFE0002DE9F8430546334890460E4650F8259003
:10CFF000284620F04BFF08B10C2752E0284621F0CC
:10D0000021F828B9B9F89600C00701D11A2748E0DD
:10D01000B9F89A00C00641D43389F2887188B08883
:10D0200020F028FBE0B328023023011D4FF4867066
:10D030000A4609F057FE204A0521044623F096F8D7
:10D04000204629460022002723F0CEF8B0887188B8
:10D0500060812181D6F80620E260B289B2EB400FF0
:10D0600028BF420070896282B0EB410F28BF4800A0
:10D070002082284620F0E6FF80F0010040F20111F6
:10D0800084F82C002046A4F82D1009F063FEB9F8AE
:10D090009A0040F01000A9F89A0002E03A2700E058
:10D0A0001227284641463A4620F06CFA0020BDE897
:10D0B000F88300BF105D412041EB0200BCB5034680
:10D0C00033480C4690F8A80040070BD531480DF1C5
:10D0D00007020421009405682A20A84705469DF808
:10D0E000070058B141F2011000212246012300251A
:10D0F00009F0F8FD0C21017006F008FA2846BCBDC5
:10D10000BCB5034622480C4690F8A80000070BD592
:10D1100020480DF107020821009405682A20A8473D
:10D1200005469DF8070058B141F201100021224642
:10D130000123002509F0D6FD0C21017006F0E6F967
:10D140002846BCBD0C564120A8444120BCB503462E
:10D150000F480C4690F8AC0040070BD50D480DF178
:10D1600007020421009405682B20A84705469DF876
:10D17000070058B141F20110002122460123002589
:10D1800009F0B0FD0C21017006F0C0F92846BCBDC5
:10D190000C564120A844412070B50546BB480C46BA
:10D1A000002101F14002B2F5307F1AD0014491F81C
:10D1B0003C1105291146F4D18618D6F8C00028B9CB
:10D1C000B448B54940F2162247F09EFE2DF0B4FA5D
:10D1D0000C280CD128460321224609F0ADFD012080
:10D1E00070BD20460C2136F0F7FC002070BDD6F84B
:10D1F000C0000C3809F0A6FD0020C6F8C00070BDC4
:10D20000745E41202DE9F04198B0A04E0546002003
:10D210000C468DF8070096F8E60402280FD001208E
:10D2200006F59E7186F8E6044FF0FF3009280ED00F
:10D2300011F8402B0130052AF8D18DF807000C2198
:10D24000204636F0D7FC002018B0BDE8F0810A2057
:10D250008DF80700287930B96979A81D36F00AFEE3
:10D2600008B10B21ECE729886888884201D912218E
:10D27000E6E70B1F43F6FC72122193429CBF043871
:10D280009042DDD8288AEB898342D9D8298BEA8A53
:10D290008A42ECD8AA8A12210A2AD1D3B0F5486F63
:10D2A000CED8062BCCD3B2F5486FC9D8698A8B0883
:10D2B0007C2BDCD86B79032BD9D82B7B032BD6D8CE
:10D2C00001314843B0EB820FD1D2D80706D0704964
:10D2D00006F28630F8F74CFA0028C8D10DF10700A5
:10D2E00035F0A0FF01460028AAD100200121B5F8A1
:10D2F00018808DF81C00ADF812009DF80700ADF8FD
:10D300001A10ADF81800ADF81600288A8100B8EBA5
:10D31000400FADF80A104FF0FF3101EB8001ADF87E
:10D320001410E9894FEA8102ADF8082028BF4FEABE
:10D3300040080220B8F1020F98BF8046EF8A4FEAFA
:10D340004802ADF81020B7EB410F28BF4F00022F65
:10D3500098BF07467800ADF80E0002A84AF03AF9E7
:10D3600008B10D216CE79DF8070006EB8010D0F89E
:10D37000000120B147484849A92247F0C5FD0020D7
:10D38000002100223A2309F0ADFC9DF8071006EBBE
:10D390008112C2F80001F8B10121417269798170EE
:10D3A000297B41702968C0F80A10297901706989C0
:10D3B000A0F80710D5F80610C0F80310D5F80E1025
:10D3C000A0F81880C782C0F80E109DF807106A8A6E
:10D3D0004282AB8A838201E0AB8A6A8A06EB8110C3
:10D3E00005278DF833100021ADF84020ADF842300C
:10D3F0008DF8311080F83C7101208DF832001F202B
:10D4000029796A798DF830004FF0FF300B90BDF824
:10D4100012008DF8361096F852148DF83520ADF8BC
:10D420003E0028688DF85C100E90BDF80C00800856
:10D43000ADF83C00D5F80600CDF826006889ADF8B7
:10D440002A00287B03288DF8340012D8DFE800F08A
:10D4500002090209B6F88403ADF82400D6F8800367
:10D4600005E0B6F88A03ADF82400D6F886030890E4
:10D4700004E0094A0021EE2347F064FD08A82CF0DF
:10D480009BFD0146002818BF0321D9E6745E4120A8
:10D49000B8A205006ADA05001CDF05002DE9F84393
:10D4A00005462E481446894650F82560284620F047
:10D4B00025FD18B9B6F89600C00708D10C272846F4
:10D4C00021463A4620F05EF80020BDE8F883092D99
:10D4D00003D896F83800C00701D11A27EFE7B6F84D
:10D4E0009A00000738D4284635F022FD0028E5D1FF
:10D4F00028023C23011D4FF485700A4609F0F2FB17
:10D50000174A0321804622F031FE40462946002278
:10D51000002722F069FED9F80200D9F8061010227F
:10D52000C8E9020109F10C01B9F80A00A8F83800AD
:10D5300008F11000F3F774FA96F89600C0F3401063
:10D5400088F83A00404609F005FCB6F89A0040F029
:10D550000800A6F89A00B2E73A27B0E7105D41202C
:10D5600001F00200E0B50021044B0122009100F11E
:10D570001001F6F783FD00208CBD00BF633A040064
:10D5800070B50C46098806464FF48850082309F008
:10D59000A9FB0546304620F01DFD08B1022012E02F
:10D5A000A17819B1042903D911200CE012200AE056
:10D5B00030462AF003FF68710A4890F82D0035F0D4
:10D5C00037FBA8710020A178287029712188698013
:10D5D00010B10020A5F80500284605F097FF0020AF
:10D5E00070BD00BFE84741202DE9F04FC5B093461C
:10D5F000049131B10546CE1830B1BBF800002F18A8
:10D6000005E0002100201AE005AD05F58077012432
:10D6100004A803A932463B46CDE90355009404F023
:10D620003DFA50B9681C03A932463B46009402906B
:10D63000049004A804F032FA30B10399491BABF806
:10D64000001045B0BDE8F08F05F11A0A4FF0FF3128
:10D650000222029801310078814280F0C080AAF154
:10D6600018000DF110080DF10C09019100923246DD
:10D670003B46012404904046494604F00FFA002836
:10D68000DBD1AAF11600494632463B46009404908D
:10D69000404604F003FA0028CFD1AAF1150049460C
:10D6A00032463B46049006200090404604F0F6F9CE
:10D6B0000028C2D1AAF10F005C464FF0010B494689
:10D6C00032463B4604904046CDF800B004F0E6F9FF
:10D6D000002840F08280AAF10E00494632463B46BF
:10D6E000CDF800B00490404604F0D8F9002874D179
:10D6F000AAF10D00494632463B46CDF800B00490F1
:10D70000404604F0CBF9002867D1AAF10C00494645
:10D7100032463B46CDF800B00490404604F0BEF9D6
:10D7200000285AD1AAF10B00494632463B46CDF8B3
:10D7300000B00490404604F0B1F900284DD1AAF1A0
:10D740000A00494632463B4604900220009040467B
:10D7500004F0A4F90028A3467FF46FAFAAF10800F3
:10D76000494632463B46049001200090404604F072
:10D7700095F900287FF461AFAAF1070049463246C7
:10D780003B46049006200090404604F087F90028AC
:10D790007FF453AFAAF10100494632463B4604905C
:10D7A00001200090404604F079F900287FF445AF4D
:10D7B000CDF810A0404632463B460AF1FE081AF862
:10D7C000011C0091494604F069F901990028C246FC
:10D7D0004FF002023FF43DAF2FE7A3462DE70020B4
:10D7E0002BE700002DE9F04FA5B00DF110088A4697
:10D7F00083460027422140468DF80F70F3F737F932
:10D80000DFF8E09D99F8E604012810D0022009F520
:10D810009E7189F8E6044FF0FF3009280FD011F807
:10D82000402B0130052AF8D100278DF80F000C217C
:10D83000504636F0DFF9384625B0BDE8F08F0A20B3
:10D840008DF80F009BF8000048B99BF802100BF10F
:10D85000030036F00FFB10B100270B21E8E79BF81F
:10D860000910072902D900271121E1E711F0F80F6B
:10D8700002D000271221DBE7A44A01F00F000B09B8
:10D880000027105CD25C0BF10A030293104401F0F4
:10D8900002025FFA80FE01F00100122174466CB1B1
:10D8A00002B138B11E88042EC2D35D88042DBFD3C7
:10D8B000B542BDD810330138013CF0E7102000EB31
:10D8C0000E1C002000F11002944529D00BEB00043F
:10D8D000238AE6899E42CCD8208BE18A8142C8D82F
:10D8E000A08A002712210A28A2D3B3F5486F9FD837
:10D8F000062E9DD3B0F5486F9AD8618A8C087C2C8F
:10D90000B7D8013100EB800000275943400001EBFC
:10D9100081014B1C1221B0EB530F1046D2D287E786
:10D920009BF802000128A4D89BF801000328A0D886
:10D930007646C00707D0764909F28630F7F718FF18
:10D9400000287FF496AF0DF10F0035F06BFC10B19D
:10D95000014600276CE716200BF10E020027314626
:10D9600016FB000000900020009900F11604A1426F
:10D9700034D002F110014FF0FF35019111888B0076
:10D9800028F800304044012343829DF80F3007758A
:10D9900047810382C381538805EB830585819D0000
:10D9A00045801589B5EB410F28BF4D00022D98BF6A
:10D9B00002256900C1805189B1EB430F28BF59008E
:10D9C000A94298BF29464900018149F003FE019A06
:10D9D00000284FF03B012046C6D029E79DF80FC034
:10D9E00009EB8C11D1F8001139B14A484A494FF47A
:10D9F000D37247F089FA9DF80FC009EB8C1105220C
:10DA000008F10A03B046002781F83C21C1F800B1B3
:10DA10001F21029A8DF864104FF0FF319BF809E046
:10DA20001891DBF803108DF866E0CDF85A10BBF8BA
:10DA30000710ADF85E1006EB46018C0015A9BC423C
:10DA40000ED09068CD19166810320C37286233F862
:10DA5000060CAE611E8816338008EE83A883EEE7BD
:10DA60000EF00500052818D1A8F1010201F11800F7
:10DA700002EB4203BDF86E2000EB830001EB830153
:10DA800040880244BDF86C00824288BFADF86C202B
:10DA900031F8180F824288BF0A8001209BF80010DD
:10DAA0009BF802208DF867C08DF865009BF8010097
:10DAB0008DF86A1099F852148DF8692003288DF8B2
:10DAC00068008DF8901012D8DFE800F00209020912
:10DAD000B9F88403ADF85800D9F8800305E0B9F827
:10DAE0008A03ADF85800D9F88603159005E00A4A74
:10DAF000002140F2F31347F025FA15A82CF05CFA48
:10DB000001460127002818BF032191E6CCCE05006D
:10DB1000B8A205006ADA05001CDF05001CB5044642
:10DB20000AB10E480AE0FB481F2200F22F401306FC
:10DB30000DD0D3B2013AC35C002BF8D0084A0323BE
:10DB4000009201F12002FAF74FF9014600E00C21A2
:10DB50002046BDE81C4036F04DB800BFD694050005
:10DB6000993C040080B50246084611460022FFF7A2
:10DB7000D5FF002080BD80B5034690F840200846C0
:10DB80001946FFF7CBFF002080BDB0B50A4604461A
:10DB90004FF488500021102309F0A4F8054620888E
:10DBA000291D05F1080205F10C036880C0B207F0D9
:10DBB000D9FE2870284605F0A9FC0020B0BDF8B5B4
:10DBC0000A4604464FF488500021042309F08AF8DD
:10DBD0000546A078022801D9122623E02088B0F556
:10DBE000007F0AD300F0FE0109291AD8C7B201212B
:10DBF000F222384635F02AF90CE0B0F5807F10D3D8
:10DC000000F0FE0109290CD8C7B20121F2223846E2
:10DC100035F076F9A27806463846012107F0F0FE85
:10DC200000E0022620882E706880284605F06EFCF1
:10DC30000020F8BD70B50A4604464FF48850002114
:10DC4000102309F04FF805462088B0F5007F1AD35D
:10DC500000F0FE01092934D8C6B2291D05F10802D9
:10DC600005F10C03304607F07DFE112818BF00288F
:10DC700028D13046012135F0D3F858B33046002181
:10DC800035F0CEF81EE0B0F5807F1AD300F0FE012B
:10DC9000092916D8C6B2291D05F1080205F10C03A1
:10DCA000304607F05FFE112818BF00280AD1304621
:10DCB000012135F00BF968B13046002135F006F945
:10DCC00000E00220287020886880284605F01EFCAD
:10DCD000002070BD0020F5E7F8B50A4604464FF471
:10DCE00088500021042308F0FDFF0546A078022893
:10DCF00001D9122623E02088B0F5007F0AD300F076
:10DD0000FE0109291AD8C7B20021F222384635F09F
:10DD10009DF80CE0B0F5807F10D300F0FE010929DA
:10DD20000CD8C7B20021F222384635F0E9F8A278C3
:10DD300006463846002107F063FE00E002262088F0
:10DD40002E706880284605F0E1FB0020F8BD000039
:10DD500070B51446054620F0D1F818BB28460121BD
:10DD600022F0F0F903281DD12846012122F0D6F92E
:10DD7000064622F037FA0F2814D196F83A00C0B1BF
:10DD80002846012122F0CCFA0D4850F82500B0F8C1
:10DD9000961021F40071A0F896102846062120F074
:10DDA00013F80BE00C22284621461FF0DBFB002075
:10DDB00070BD28460F21062222F05EFD0022F2E708
:10DDC000105D4120F8B514460E46054620F096F841
:10DDD000D8B92846012122F0B5F9032815D12846E3
:10DDE000012122F09BF9074622F0FCF90F280CD103
:10DDF00007F11000B11C1022F2F712FE28460F2185
:10DE00000022002622F038FD00E00C26284621469C
:10DE100032461FF0A7FB0020F8BD0000F8B505460C
:10DE2000E2480C46D0F8EC10002918BF01212A78EE
:10DE3000B2FA82F2520991420ED000F59E76002786
:10DE40000A2F0BD03078092803D12978F8B21FF0B7
:10DE50003DFB40360137F3E7432100E00021204637
:10DE600035F0BAFE0020F8BD745E4120F8B5CF4F02
:10DE700004460D4697F8E604012815D0022087F8DD
:10DE8000E60435F00BFA09280ED8064630F0A0FA61
:10DE900088B1304634F058F850B1204603212A4664
:10DEA00008F04AFF012404E028460C2135F094FED6
:10DEB00000242046F8BD07EB86170024D7F80001A0
:10DEC00087F83C410C3808F03DFF28460021C7F890
:10DED000004135F081FE41F2031000213E22122361
:10DEE00008F000FF44F20E4146800123018097F8BC
:10DEF0002C11017197F833114171D7F81C11B7F843
:10DF000020210373C48104744281C0F8061005F017
:10DF1000FDFACEE7745E41202DE9FE430546808977
:10DF20000C4643F6F6710A3888420ED82F78032F34
:10DF30000BD8AE78012E08D895F80190B9F10F0FE3
:10DF400003D8688980087C2807D90025122120463B
:10DF500035F050FE2846BDE8FE83DFF8488F98F87C
:10DF6000E604012808D0022088F8E60435F096F986
:10DF70000A288DF80B0002D200250C21E7E7F807EC
:10DF800008D1E81C31464A4635F096FF10B100250D
:10DF90000B21DCE70DF10B0035F044F910B101461F
:10DFA0000025D4E79DF80B000E2208EB801181F8C4
:10DFB0003C21D1F8001139B10B480C4940F25B32D9
:10DFC00046F0A2FF9DF80B0008EB80116A78AB7851
:10DFD000C1F8005129780335009501F0010130F0B6
:10DFE000ABF901460125B2E76ADA050027DF050033
:10DFF0007CB514460E46054635F032FF28B935F09B
:10E0000047FB28461FF0C2FF30B10C2228462146AC
:10E010001FF0A8FA00207CBD284620F033F848B352
:10E0200030790DF107010DF1060235F047F902468E
:10E030000028EBD19DF8070000210022002335F0D5
:10E0400053FC02460028E1D128020623011D40F2BC
:10E0500011100A4608F046FE012181707188018086
:10E060009DF80610C1709DF80710017108F072FE4E
:10E070000022CBE71A22C9E7F8B514460E4605463A
:10E0800035F0EEFE28B935F003FB28461FF07EFF81
:10E0900030B10C22284621461FF064FA0020F8BD5A
:10E0A00028461FF0EFFFD0B1307900210022002375
:10E0B000002736F0AFF902460028EBD128020623EC
:10E0C000011D40F211100A4608F00CFE718887709D
:10E0D00001803179C17008F03DFE0022DAE71A2292
:10E0E000D8E70000B0B50C46F54991F8E624012ABE
:10E0F00014D00078022281F8E62409280ED801EB1A
:10E10000801595F83C110F2908D133F01DFF014609
:10E1100028B905F59E701021017003E00C212046FE
:10E1200035F05AFD0020B0BD70B54FF48850002185
:10E1300042F218020923002608F0D4FD0446451CCB
:10E14000F2F75CFC01462846F8F769FB651DF2F71B
:10E1500055FC01462846F8F762FB2046267005F07C
:10E16000D5F9002070BD000010B50A464FF4885064
:10E170000021022308F0B6FD04460B4890F82D005C
:10E1800034F056FD6070EF4890F8E61402290FBF96
:10E190000C20012180F8E61400202070204605F0B4
:10E1A000B5F9002010BD00BFE8474120745E412052
:10E1B00010B54FF48850002142F2020206230024D9
:10E1C00008F090FDF649FB2304700A8BC98A43804E
:10E1D000511A01EB1161090A017105F097F900204C
:10E1E00010BD00BF10B50A464FF4885000210A2325
:10E1F000002408F077FDFB2140F6FF730470418096
:10E2000005210172F849CA8A098BC380891A01EB7A
:10E210001161090A017105F079F9002010BD00BFF4
:10E2200070B50C46098806464FF4885042F2150234
:10E230000A2308F057FD054630461FF001FE08B1DD
:10E240000C2007E0F84850F82600017B297280680E
:10E2500068600020287020886880284605F056F9FC
:10E26000002070BD70B586B004462A480D4690F86F
:10E27000C00080070CD528480DF117020221234663
:10E28000009506683020B0479DF8171000293FD050
:10E290004FF4885000212A46202308F023FD202136
:10E2A0000546F2F7E4FB2188B1F5007F0DD301F0BC
:10E2B000FE0009288FBF0220C8B205F1140105F144
:10E2C000180298BF34F0DAFD1BE00220B1F5807F20
:10E2D00017D301F0FE02092A13D805F11C0005F13D
:10E2E000180205F1140305F11006CDE90063CDE92C
:10E2F0000220C8B2291D05F1080205F10C0334F013
:10E3000045FE287020886880284605F0FFF8002028
:10E3100006B070BD0C564120A84441202DE9F041C3
:10E320000A4604464FF48850002110234FF000089D
:10E3300008F0D8FC054620882E462F462C4646F885
:10E340000C8F47F8088F24F8048F5FFA80F86880F4
:10E35000B8F1090F01D9022013E0404621463A46A0
:10E36000334607F0BDFF08B10C200AE0208810B941
:10E3700038680028F8D006484044017B002001B9E5
:10E3800030602870284605F0C1F80020BDE8F08113
:10E39000585E4120B0B50A4605464FF4885000212A
:10E3A000072308F09FFC29780446122020700129D9
:10E3B00010D8681C35F050FF8B49CA880989891A22
:10E3C000382291FBF2F18142D2BF0220611C2FF072
:10E3D00001FB2070204605F099F80020B0BD00BF79
:10E3E000BCB508460021002435F004FC1B4D01207B
:10E3F0000DF106010DF107028DF8060082202B6851
:10E40000984790B120208DF807408DF80600754898
:10E4100000F22F40F9F72AFE7248114A032100F258
:10E420002F40F9F711FE0020BCBD20208DF806001A
:10E430009DF807000028EAD06A482B680DF1060114
:10E4400000F22F428020984718B100208DF8070075
:10E45000DDE79DF807000028DED1D8E7DC47412042
:10E46000C9410400B0B54FF48850002142F20302C4
:10E470000923002508F036FC0446013035F0A2FDE2
:10E480002046257005F042F80020B0BD80B50A4650
:10E490004FF488500021042308F024FCF34991F83C
:10E4A000E624012A0FBF0C21022281F8E624002174
:10E4B000017040F2F642428005F028F8002080BD4D
:10E4C000745E412010B50A464FF4885000210A239B
:10E4D000002408F007FC05490470C0F80610C0F8D5
:10E4E000021005F013F8002010BD00BFFB009042A1
:10E4F000B0B50A464FF488500021022300240225BB
:10E5000008F0F0FBD949447091F8E624012A02D1C1
:10E510000C21017011E04FF49E72047081F8E654F2
:10E52000B2F56F7F06D08B5C4032032B9CBF013469
:10E530004470F5E7E1B24908417004F0E7FF0020BC
:10E54000B0BD00BF745E4120F8B50A4606464FF4E0
:10E55000885000210723002708F0C4FB0446A0F8D8
:10E56000057012202546207045F8017F3178012979
:10E5700010D8701C35F070FEE349CA880989891AE1
:10E58000382291FBF2F18142D2BF022029462FF0BE
:10E5900057FA2070204604F0B9FF0020F8BD00BFF4
:10E5A000AC57412010B50A464FF488500021022391
:10E5B000022408F097FBAD4A0C2192F8E634012BB7
:10E5C0004FF00C031CBF82F8E6440023CE4A0370D0
:10E5D0009388D288D21A92FBF1F1417004F096FF31
:10E5E000002010BD745E4120AC57412070B50C4630
:10E5F000098806464FF48850062308F073FB054649
:10E6000030461FF0D5FC08B10C2005E0734850F8E7
:10E610002600808BA88000202870208868802846EB
:10E6200004F074FF002070BD105D41202DE9F04121
:10E6300005466A48904650F8254028461FF070FC71
:10E6400008B10C2630E0B4F89A00400729D4092D0F
:10E6500003D894F83800000704D4B4F8960010F0FA
:10E66000810F20D028020C23011D4FF484700A462C
:10E6700008F038FB104A0421074621F077FD3846A0
:10E6800029460022002621F0AFFD012038723846CD
:10E6900008F060FBB4F89A0040F00400A4F89A0077
:10E6A00002E03A2600E01A262846414632461EF08D
:10E6B00069FF0020BDE8F08175DA02002DE9F04322
:10E6C00085B00446002015460E468DF813002046FE
:10E6D0001FF080FC08B102275DE0204621211FF0D9
:10E6E000F1FC28B1B07828B1042805D9112752E0EF
:10E6F0001A2750E012274EE038490DF1130251F865
:10E7000024903749095C204628F02AFE7F2819D03A
:10E71000804699F88700A8B19DF81300802811D091
:10E7200020462946002200271EF02CFF9DF81300EA
:10E73000B37800210222CDE90080204602971FF025
:10E74000E1FA2EE0B9F89A00C0052ED42002102379
:10E75000011D4FF48A700A4608F0C4FA214A0D21BF
:10E76000804621F003FD4FF48170002721460022EE
:10E77000A8F8090088F80D70B07888F808004046BD
:10E7800021F032FD404608F0E5FAB9F89A0040F46D
:10E790008070A9F89A00204629463A461EF0F2FEFB
:10E7A0000027384605B0BDE8F0832046002121F05F
:10E7B000C9FC0D2809D12046002121F0AFFC017AC7
:10E7C000B278914201D1817A09B10227E9E74FF489
:10E7D00081710027A0F80910DDE700BF105D41201E
:10E7E000E9A2050041050300B0B54FF488500021AF
:10E7F00042F24C020623002508F074FA044634F075
:10E8000001FA60802FF0C4FAA0802046257004F041
:10E810007DFE0020B0BD000010B50A464FF48850C0
:10E8200000210223002408F05DFA37490470CA88E9
:10E830000989891A382291FBF2F1417004F066FED1
:10E84000002010BD10B54FF48850002142F2230281
:10E850000623002408F046FAD7490470D1F82014A2
:10E86000C0F8021004F052FE002010BD745E41207A
:10E8700010B54FF48850002142F21C0209230024F5
:10E8800008F030FA40F2FF310470C0F805104FF084
:10E89000FF31C0F8011004F039FE002010BD000067
:10E8A000B0B54FF48850002142F24B0203230025FB
:10E8B00008F018FA0570084D044695F82C0034F05D
:10E8C000B7F9607095F82D0034F0B2F9A0702046C9
:10E8D00004F01CFE0020B0BDE847412010B50A46F8
:10E8E0004FF4885000210223002408F0FBF9F74977
:10E8F00004708A88C988891A0C2291FBF2F1417050
:10E9000004F004FE002010BDAC5741207CB5044645
:10E910004F480D4690F8AC0000070BD54D480DF15F
:10E92000070208212346009506682B20B0479DF872
:10E93000071069B121884FF488502A46042308F053
:10E94000D1F90C2101702188418004F0DFFD002005
:10E950007CBD00BF70B514460E4605461FF096FA02
:10E9600008B10C2210E0B0783B280CD128460121D8
:10E9700021F0D4FB0028F4D0B2782846082121F0F9
:10E9800051FE002200E01222284621461EF0EAFD38
:10E99000002070BD70B514460E4605461FF076FA8D
:10E9A00008B10C2626E03389F2887188B0881EF001
:10E9B00061FEF0B12846012121F0B0FB0028F0D023
:10E9C0004189B288914288BF0A4642810189728892
:10E9D000914288BF0A460281C1893289002691424C
:10E9E00088BF0A46C28128460821002221F01AFE6B
:10E9F00000E020262846214632461EF0B3FD0020C6
:10EA000070BD00007CB5044611480D4690F8AC007E
:10EA1000C0060CD50F480DF10702102123460095C2
:10EA200006682B20B04706469DF8070068B14FF4F2
:10EA3000885000212A460223002608F053F90C21B1
:10EA400001702178417004F061FD30467CBD00BF4B
:10EA50000C564120A844412070B50A4604464FF4A4
:10EA600088500021042308F03DF926880546B6F5B4
:10EA7000007F13D306F0FE00092823D8A078810771
:10EA800005D5F0B2012134F0CBF9E0B9A078C00788
:10EA900016D0F0B2002134F0C3F914E0B6F5807F4F
:10EAA00010D306F0FE0009280CD8A078810705D500
:10EAB000F0B2012134F00AFA28B9A078C0070AD1CF
:10EAC000002000E00220287020886880284604F09A
:10EAD0001DFD002070BDF0B2002134F0F7F9F2E71F
:10EAE000B0B5154604461FF0BDF908B10C222BE065
:10EAF00020461FF099FA30B32046294600221EF026
:10EB000041FD20020C23011D4FF488700A4608F0D5
:10EB1000E9F8104A0A21054621F028FB284621463B
:10EB2000002221F061FB4FF48070A5F809000A482B
:10EB300050F82400B0F89600C0F3802028722846D0
:10EB400008F008F904E01A22204629461EF01AFDB2
:10EB50000020B0BD1DD50200105D4120BCB5D14DD7
:10EB60000C4695F8E61401291ED00221007885F89C
:10EB7000E61401A934F060FDFF2817D005EB8011E1
:10EB800091F83C1101290FD105EB801191F8391151
:10EB9000092905D805EB811191F83C110A2903D107
:10EBA00034F0DEFE002102E00C2100E0422120468C
:10EBB00035F012F80020BCBD745E41202DE9F84309
:10EBC0000646C0790C460F2802D83778012F07D99E
:10EBD00012252046294634F0FFFF0020BDE8F883C7
:10EBE000DFF8249C99F8E604012801D10C25F0E710
:10EBF000022089F8E60434F051FB0C250A28E8D3FA
:10EC000006F101083946404635F01CF84C498A881F
:10EC1000C988891A91FBF5F1814207DD00EB80017B
:10EC200009EB410595F89D13490701D44225D0E72A
:10EC3000F1790123327803FA01F1B5F89A338B4365
:10EC4000A5F89A338BB241462DF074FEB5F89A03BD
:10EC500050B905F29D30017801F0FB0202708A077D
:10EC60005CBF01F0FA0101700025B2E7F8B5057844
:10EC70000C46012D01D9122122E0BA4F064697F821
:10EC8000520420B135F046F908B10C2118E0701C8F
:10EC9000294635F0E1FA05462948C1880089401A1D
:10ECA000382190FBF1F0A84209DD28462EF024FF20
:10ECB0002720FF2115FB00708171002100E0022157
:10ECC000204634F089FF0020F8BD00BFAC5741203A
:10ECD00070B50C46054635F037F9E0B129780229C0
:10ECE00001D3FF2915D16E1C304634F0ABFF144917
:10ECF0008A88C988891A0C2291FBF2F1814208DDC9
:10ED000000EB8001974A02EB410292F89D138B07BA
:10ED100007D4122100E00C21204634F05DFF0020D2
:10ED200070BD4B0702F29D324FF0FD0358BFFC232C
:10ED3000194011702A78314634F004F80021EBE7CD
:10ED4000AC574120B0B586B00C46054635F07CF98D
:10ED500020B12878272803D912210DE00C210BE0DF
:10ED60008DF80100002001218DF800006846ADF803
:10ED7000041033F0C7FB0146204634F02DFF00207D
:10ED800006B0B0BDB0B586B00C46054635F05CF9AE
:10ED900058B12878272806D869784A1E022A02D84E
:10EDA000AA78012A08D9122100E00C21204634F06B
:10EDB00013FF002006B0B0BD00228DF801006846A8
:10EDC0008DF804108DF805208DF8002033F09AFBA3
:10EDD0000146EBE7F0B587B00C46054635F034F94F
:10EDE00008B32878272806D86B78591E022902D83C
:10EDF000A978012901D9122116E0EE781221012EFD
:10EE000012D0142E10D829790229F4D895F805C00B
:10EE1000ACF10102012AEED8AA79971E492FEAD84F
:10EE2000032B07D136B10C21204634F0D5FE00204B
:10EE300007B0F0BD0C2A01D91121F5E78DF8096062
:10EE40008DF80500002001AE8DF80A10E91D8DF83F
:10EE50000C208DF80BC08DF808308DF8040006F1F9
:10EE60000900F1F7DDFD304633F04CFB0146DBE7EE
:10EE7000B0B50C46054635F04DF808B10C210BE055
:10EE80002878012807D8D949002818BF012081F81F
:10EE90005204002100E01221204634F09DFE0020A3
:10EEA000B0BD00BF745E41202DE9FC41CF4E054648
:10EEB0000C4696F8E604022801D10C214CE0012012
:10EEC00086F8E60428781F2801D9122144E0FF20A3
:10EED000002134F0B1FBFF288DF8070026D02978F7
:10EEE00006EB801019B9B0F81E218A4233D0B0F871
:10EEF0001C81F5F743FD30B3294607461A4811F83F
:10EF0000012B3844F1F78CFD9DF8070006EB8011CA
:10EF1000A1F81C712A78A1F81E2191F83C11022950
:10EF200013D129783A4622F0F9F914E00DF10700DF
:10EF300034F078F9014678B99DF8070034F098FC70
:10EF40009DF80700CBE7072106E0B8F1000F1CBFD2
:10EF50004046F5F725FD0021204634F03DFE002017
:10EF6000BDE8FC81745E4120008041202DE9F04322
:10EF70008DB0F44F05460C4697F8E604022801D1FF
:10EF80000C2129E10120002187F8E604FF2034F05C
:10EF900053FB29788DF83300012913D0D9B90928FA
:10EFA0001BD807EB801696F83C11022915D125F0E5
:10EFB000C3FA0146002840F00F8106F59E70032138
:10EFC000017004E109280AD807EB801191F83C117F
:10EFD0000129D5D111E01221FEE00120F8E00DF168
:10EFE000330034F01FF90146002840F0F5809DF809
:10EFF000330034F03DFC9DF8330007EB8010002116
:10F000008DF83210D0F8009199F80B00C00707D0A6
:10F01000CD4907F28630F6F7ABFB08B11221D5E0F7
:10F02000B9F80200C1073CD1ADF81C0099F80820DE
:10F0300099F80930B9F80A1099F807001202ADF8EA
:10F04000211042EA034299F80C1010448DF8231065
:10F050000490484650F80D2FCDF80A208288ADF86C
:10F060000E2082798DF82420C2798DF82520027A2D
:10F070008DF826208DF82820427A8DF82720C27A34
:10F080008DF82920027B8DF82A2010F802CC5FEA47
:10F09000CC731ED1B7F88433ADF80830D7F880337D
:10F0A0001DE00DF1320034F0BDF80146002840F0BB
:10F0B0008D80B9F8020010F00C0FB5D099F80C1043
:10F0C00009F10D0034F0D6FE002800F08C800B21F1
:10F0D0007CE0B7F88A33ADF80830D7F886339DF86E
:10F0E00033200193DFF8788B00238DF82030ADF8C2
:10F0F0001E3097F8523407EB82128DF82B30B2F89D
:10F100001C61ADF81460B2F81E61ADF81860B2F879
:10F110002461B2F82621ADF81660ADF81A20B8F8CF
:10F120000620B8F80860A6EB02024FF0380692FB02
:10F13000F6F28DF82C201BB1B9F80220520702D448
:10F140005FEA8C7222D535F087F8B8F80610B8F867
:10F1500008208DF82C00511A382291FBF2F18142DF
:10F1600014DD99F80B10890710D52721102210FB08
:10F1700001701F4900F107084046F1F796FC28B1DD
:10F180009DF833201B494046F5F7A8F89DF8330059
:10F1900001A924F095FD0146C0B99DF83300022273
:10F1A00007EB801181F83C2199F80210C9070CD0B7
:10F1B00007F580719DF8322001EB801080F83A202D
:10F1C00001EB8210042180F83C10002121B90020BD
:10F1D000002108B9287810B1204634F0FDFC002049
:10F1E0000DB0BDE8F083B9F802001DE7745E412060
:10F1F000BEA20500313804002DE9FC41514E054600
:10F200000C4696F8E604022810D00120002186F86A
:10F21000E604FF2034F010FAFF288DF8070007D02D
:10F2200006EB801090F83C0101280BD00C212FE058
:10F230000DF1070033F0F6FF014648BB9DF80700CB
:10F2400034F016FB2879042821D8012809D06A88CF
:10F250001221B2F5804F1BD82B88202B18D3934254
:10F2600016D8697B0139062911D8A97B03290ED844
:10F27000697903290BD8A979012908D8042818BF6E
:10F2800001280FD13049E81DF6F772FA30B112218A
:10F29000204634F0A1FC0020BDE8FC8128794FF025
:10F2A000010C01E04FF0000C9DF807E00023BCF1D9
:10F2B000000F06EB8E18D8F800717B72E97839726E
:10F2C000A978BB71F97169787971297839711FA1B1
:10F2D000085CA9796A7B78806879BA723973F872A8
:10F2E000D5F80700C7F80D00B5F80B00A7F8110016
:10F2F00008BFAB7B6879FB74032813D8DFE800F004
:10F3000002090209B6F88403A8F83001D6F8800390
:10F3100005E0B6F88A03A8F83001D6F88603C8F8E5
:10F320002C0107E00B4A002140F27F2345F00AFE42
:10F330009DF807E006EB8E10012180F83C110021BA
:10F34000A6E700BF745E4120B8A20500131D12108D
:10F350001500000012DF05007CB5B14E05460C46D5
:10F3600096F8E604012801D10C2130E0022001A921
:10F3700086F8E604287834F05FF909281AD806EBF5
:10F38000801191F83C11022916D101994988C907C9
:10F39000EAD106EB8011B5F80520A1F83021D5F8A7
:10F3A0000120C1F82C21D5F80110B5F8052024F072
:10F3B000ABF80BE042210AE006EB8010B5F805102F
:10F3C000A0F83011D5F80110C0F82C11002120460A
:10F3D00034F002FC00207CBD7CB5044624480D4678
:10F3E00090F8AC0080060CD522480DF107022021D0
:10F3F0002346009506682B20B04706469DF8070077
:10F4000070B14FF4885000212A462423002607F0CB
:10F4100069FC0C21867001702178417004F076F847
:10F4200030467CBD7CB5044611480D4690F8AC00D2
:10F4300040060CD50F480DF10702402123460095E8
:10F4400006682B20B04706469DF8070070B14FF4C0
:10F45000885000212A462423002607F043FC0C2173
:10F46000867001702178417004F050F830467CBD00
:10F470000C564120A84441202DE9F04105462F4873
:10F4800014460E4650F8257028461EF025FD08B19A
:10F490000C2219E0B7F89A00800612D428460521FC
:10F4A0001EF0DEFD78B17088A0F11B01E02906D8BE
:10F4B000B18844F24813A1F5A4729A420BD91222E2
:10F4C00002E03A2200E01A22284621461EF04AF8BD
:10F4D0000020BDE8F081BA8A904202D13A8B914275
:10F4E00026D028021423011D40F20B100A4607F013
:10F4F000F9FB134A0721804620F038FE4046294692
:10F50000002220F071FE012088F810000D48C8F894
:10F510000C00D6F80200C8F80800404607F01AFCB4
:10F52000B7F89A00B18840F02000A7F89A007088D8
:10F530000022A7F88C10A7F88A00C5E7105D4120CB
:10F540001DD90200FB009042F8B50A46AE4991F879
:10F55000E634012B01D10C2115E0022381F8E634B9
:10F560000378022B0ED84488A5087C2D0AD88588FC
:10F5700043F6F677A5F10A06BE4203D8807910F06B
:10F58000E80F05D01221104634F026FB0020F8BD0C
:10F5900081F82E0481F82834A1F82C54A1F82A44CB
:10F5A0000021F0E710B50A46017811F0020301D1FD
:10F5B00084788CB111F0010101D1447864B113B9A0
:10F5C0008478072C03D821B94478072C01D911215C
:10F5D0000FE01BB9847802E012210AE007248A4B6D
:10F5E00083F8274409B9407800E00720002183F818
:10F5F0002604104634F0F0FA002010BD10B50C4679
:10F6000001684268804840F8F81F04214260FCF716
:10F6100049FE2046002134F0DFFA002010BD00BF73
:10F62000745E41202DE9FC47774D06460C4695F85F
:10F63000E604012801D10C275AE0022001A985F82F
:10F64000E604307833F0F8FFFF2817D08146707851
:10F6500004284CD8B178012949D8F178FB2946D83B
:10F6600004280DD105EB891090F83C21012A3ED0E9
:10F670001227E9BBB0F81C0128B939E0422737E06E
:10F680000338022801D2012001E081B3002005EBFC
:10F69000891797F83C21012A15D1B7F8220107F5FF
:10F6A0009178014440F2F740814228D3B7F8200115
:10F6B00000284DD007F59075F5F772F90020A8F8ED
:10F6C0000000288044E00028B5D00198428802F06C
:10F6D0001103012B04D133F097FE40B90198428801
:10F6E00002F01C00F1781028D7D11F29D5D9122794
:10F6F0002046394634F070FA0020BDE8FC870198B6
:10F700004288D20611D4037A457AC27989B21B02A3
:10F7100043EA05431A4440F2712302FB03F5B7F8AC
:10F72000262133F097FEA84214D2707840F00200F0
:10F7300003281CD1B7F8200107F5907520B1F5F723
:10F740002FF90020A8F80000F5F718F9288080B9F3
:10F750000727CDE7B7F8200138B107F59075F5F721
:10F760001FF90020A8F8000028804527C0E7B7F857
:10F770002001B8F80010F2780844244911FA80F00A
:10F78000311DF1F74DF9F078B8F800100844A8F8E9
:10F79000000071788A1E022A0FD207F590750104C5
:10F7A00014D1B7F81E1182B28A420FD12888F5F71A
:10F7B000F7F80027A8F8007024E00027042997D163
:10F7C00048460021002221F0A9FD91E707F59E712E
:10F7D00007F58E7607F58F7A0978022905D12A88F0
:10F7E000C1B2484621F09AFD03E0308808B1F5F730
:10F7F000D7F8288800273080B8F80000A8F80070F3
:10F80000AAF800002F8073E7745E41200080412039
:10F810002DE9F04F8FB0DFF81C5F834695F8E604C2
:10F82000012802D14FF00C0A0DE24FF0020A85F8D0
:10F83000E6A49BF8000020B995F8E524002A40F0E2
:10F840000882012802D94FF0120AFCE19BF801005E
:10F8500001D118B9F7E7002800F094800BF10204F9
:10F860004FF000094FF0000A0291814580F0A3801B
:10F870002078EF2800F28380002133F0DDFEFF289E
:10F8800000F0B78007469BF8000028B905EB871108
:10F8900091F83C1101296CD005EB8718B8F82011BC
:10F8A00000296CD1B8F82811002968D101285FD14E
:10F8B000D8F800617088810706D5C10604D4B8F86D
:10F8C0002611002900F0AB8100F01101012907D1B8
:10F8D000B8F81E11304633F097FD00284FD17088DC
:10F8E000C1060ED510F00C0F04D1B8F81E111F2957
:10F8F00000F29581810704D5B8F826111F2900F27E
:10F900008E81F17AC90706D0D84908F59670F5F7C7
:10F910002FFFA0BB7088C1070DD010F00C0F08D0CE
:10F92000317B06F10D0034F0A5FA002840F0868105
:10F9300070880AF1010AC0061AD4F079B8F82621B5
:10F94000B8F81E11D04696F808A0757A0190304696
:10F9500033F080FD4FEA0A21019AC24641EA05418F
:10F96000BE4D114440F271225143884280F06381C0
:10F9700027709BF80100063409F1010975E74FF083
:10F98000120A5FE105F59E740025032602910A2DF7
:10F9900000F03A81207802280AD1E8B224F0CCFDA8
:10F9A00030B9AE49267091F8E504013081F8E504DC
:10F9B00040340135EBE75FEA0A601DD09BF8000098
:10F9C000D0B100204FF49E725FFA8AF102F1400339
:10F9D000B3F57F7F07D0AA5C002A08BF0130C2B20E
:10F9E0008A421A46F2D3C0B2884205D24FF0070AC3
:10F9F00028E14FF0420A25E104A80BF10408002693
:10FA00004FF00009063000909BF80100814580F01E
:10FA1000FB8018F8024C914800EB84179BF800001B
:10FA200097F83C1107F59E75022908D1E0B398F8C4
:10FA30000220B8F80010204624F04EF8DFE000283D
:10FA400000F0DD8007F58070019505686888ADF8E5
:10FA500028002A7A6B7A6989E8791202ADF82D10AC
:10FA600042EA0342297B009B10448DF82F10079037
:10FA7000B5F811009880284650F80D2F1A606A8852
:10FA8000530754BFEB7C00238DF83030D2066B7DDA
:10FA90008DF8323097F838318DF8313013D4EA7D53
:10FAA000AB7D8DF8333011E0204624F045FD002871
:10FAB00040F0A58069490320287091F8E5040130E1
:10FAC00081F8E5049BE08DF833600122D7F82C31F2
:10FAD000634E0493B7F83031ADF814302B8B8DF8AA
:10FAE0003420B7F81C21ADF82020B7F81E21ADF85E
:10FAF0003530F3883689ADF82420B7F82421F31A7D
:10FB0000382693FBF6F3ADF82220B7F82621ADF89E
:10FB10002620B8F80020ADF82A2098F802208DF8A9
:10FB200038308DF82C20EB4A92F852248DF837208B
:10FB300012B16A88520702D4EA7A920720D534F0CB
:10FB40008BFB474A8DF83800D1881289511A382228
:10FB500091FBF2F1814213DDE97A890710D5DD4985
:10FB6000272210FB02103F49102200F1070A5046DD
:10FB7000F0F79BFF20B13C4950462246F4F7AEFB1C
:10FB8000204604A924F09CF800284BD100200199BC
:10FB90000026C7F83201A7F836010220087097F84E
:10FBA0003911688809290ED810F013020BD1C94AFF
:10FBB00002EB811292F83C210B2A04D1204633F04B
:10FBC00073FDE0B13DE0C00719D00DF10F0033F037
:10FBD00029FB30B1C148C24940F6070245F094F90B
:10FBE0000DE0BC489DF80F2000F5807000EB8411FB
:10FBF00000EB821081F83A20042180F83C1008F1D3
:10FC0000060809F10109FFE69BF800004FF0000A21
:10FC1000C0B9B048029990F8E504D0B913E04FF0AC
:10FC20000C0A0FE0AE4A82462046002140F60E0341
:10FC300045F088F906E04FF0450A03E04FF00B0A63
:10FC400000E0824602990846514633F0C5FF4FF066
:10FC5000000A50460FB0BDE8F08F00BF745E41202F
:10FC6000AC574120BEA2050031380400B8A20500FF
:10FC70002DE9F8430A4605464FF488500021022337
:10FC80000026022707F02EF8DFF8A48F04464670FE
:10FC900098F8E604012810D02878002188F8E67446
:10FCA00033F0CAFCFF288DF8030008D008EB801061
:10FCB00090F83C01012811D000260C2713E00DF12B
:10FCC000030033F0AFFA10B1002607270BE09DF8D0
:10FCD0000300FF2108EB801080F839112878EF2805
:10FCE00008D9002612272046277003F00FFC304663
:10FCF000BDE8F883688810F0100C08D000261227A1
:10FD00001D28F0D80122744B82401A42EBD0C20663
:10FD10000CD400F0030200261227032AE3D010F0CF
:10FD20000803E0D112B110F02002DAD1BCF1000FCB
:10FD300002D06A7D012AD4D12B7A6A7A6E79E97968
:10FD4000AF791B0243EA02422B7902EB010931022F
:10FD500041EA0741CA184A45C3D8A97A0139062998
:10FD6000BFD8E97C0329BCD8202A4FF000064FF009
:10FD7000120728BFB9F1200FB5D3697D41F0020108
:10FD80000329AED1BCF1000F03D1E97D013902296D
:10FD9000A7D8400706D5D84905F10D00F5F7E8FCCE
:10FDA00000289ED1287E0F289BD8687E012898D8ED
:10FDB0009DF8030008EB801090F83911092905D847
:10FDC00008EB811191F83C110A293ED16888C006E0
:10FDD00013D49DF8030008EB8010B0F82621B0F88A
:10FDE0001E1151EA020008D0284633F033FB40F2DE
:10FDF000712109FB01F1884269D29DF8031008EBDB
:10FE00008110D0F8000148B10C3806F09BFF9DF836
:10FE10000310002208EB8110C0F8002108EB8112CA
:10FE2000FF2082F83A01C2F80051E87A032820D86E
:10FE3000DFE800F002270227B8F88403A2F83001B7
:10FE4000D8F88003C2F82C011BE0D0F800612EB96D
:10FE5000A748234940F2964245F056F8688810F0CA
:10FE6000330F7FF43EAFF07DE97D81427FF424AF14
:10FE7000ACE71B4A002140F2DB4345F063F89DF8F4
:10FE800003102D7D08EB811001217F2D80F83C119E
:10FE900006D1144991F82D004A690121904705E0E7
:10FEA00032F0B0FE0A2190FBF1F0281A0D4940B261
:10FEB00000278A690021904732F0BAFE9DF80310AE
:10FEC000012608EB811181F8380160700BE70026EC
:10FED000452708E7745E412000002D206ADA0500FE
:10FEE00012DF0500E84741202DE9FC41C14F0546DE
:10FEF0000C4697F8E604012801D10C26F0E0022018
:10FF0000002187F8E60407F59E700A2906D00278DA
:10FF1000063A032A04D340300131F6E70A2000E014
:10FF2000C8B22A788DF80700012A18D0002A5FD1BC
:10FF30000928E2D807EB801090F83C11072940F01F
:10FF4000CE8000F59E7530F01BFC00285DD00620A9
:10FF5000032128706948026802209047BFE06B784F
:10FF6000022B45D8AA88022B04D1002A40D06B88E6
:10FF70000BB93DE01AB16B88B3EBC21F38D2092927
:10FF800038D807EB801696F83C110829B5D0072918
:10FF90003ED1D6F8000148B95548564940F2C12231
:10FFA00006F5807844F0B0FFD8F80000007807F23A
:10FFB0008631800701EAE07168882FF083F869884C
:10FFC0006878A6F81C110028A988A6F81E11A0F1CF
:10FFD000020118BF0120B7F8E224B1FA81F122F042
:10FFE00003024909104440EA4100A7F8E20476E020
:10FFF000122675E00DF1070033F014F906460028CB
:020000040001F9
:100000006ED19DF80700002603E0082028706BE001
:10001000122607EB8011D1F8001101BB002000214E
:10002000002210234FF0000806F05CFE9DF8072028
:1000300007F5807180F8008080F804809201885074
:100040004FF01012C0F806204FF48072A0F8012083
:100050009DF80700062201EB801181F83C2007EB98
:100060008010D0F8008198F80000012807D12249BB
:1000700007F28630F5F77CFB90BB98F80000032868
:1000800008D134F0CDF828B11B4907F28630F5F7D6
:100090006FFB28BB9DF8070007F580766B886A78B0
:1000A00006EB8011002A8B83AB88CB83A2F102017F
:1000B00018BF0122B7F8E234B1FA81F123F003034B
:1000C00049091A4442EA4101A7F8E21434F002F95E
:1000D0009DF80700072106EB801080F83C100026F1
:1000E0002046314633F078FD0020BDE8FC8100BF9A
:1000F0006ADA050027DF0500B8A205005044412058
:100100002DE9FC41DE4F80460C4697F8E6040128B5
:1001100001D10C2122E00220002187F8E60407F536
:100120009E700A2906D00278063A032A0CD3403082
:100130000131F6E70A208DF807000DF1070033F0D2
:1001400071F830B1014609E000788DF807100628F3
:10015000DFD198F80210072907D91121002620467F
:1001600033F03AFD3046BDE8FC8101294FF0010033
:1001700018BF042914D108F104020130122100260D
:10018000013811D055889388AB4215D8042D28BF6B
:10019000042BE4D3931D1278012A1A46F0D9DEE726
:1001A000052909D10220E6E798F80000032803D8C2
:1001B00098F80100032801D91221CFE79DF8070024
:1001C00007EB8011D1F8001151B1A1F10C0006F03C
:1001D000B9FD9DF80700002207EB8011C1F800214E
:1001E00007EB80100621012680F83C110021C0F8A1
:1001F0000081B4E7745E41202DE9F843A04F064624
:100200000C4697F8E604012801D10C2618E00220DC
:10021000694687F8E604307833F00EFAFF280ED0EE
:100220007178032909D80546B078012805D8F078F7
:10023000FB2802D803290AD048B9122600E042263A
:100240002046314633F0C8FC0020BDE8F88307EBB8
:10025000851797F83C21012A05D00329D5D1009AAA
:100260005288930741D4B7F82A2107F595780244BC
:1002700040F2F74082420BD3B7F8280198B307F554
:100280009475F4F78DFB0020A8F8000028802AE080
:1002900000984388DB0613D4037A417A90F807C0AC
:1002A00092B21B0243EA014140F27123614401FB17
:1002B00003F9B7F81E1133F0CDF8484521D2717813
:1002C00041F00200032829D1B7F8280107F59479F5
:1002D00020B1F4F765FB0020A8F80000F4F74EFB0E
:1002E000A9F80000E0B90726AAE702F010030343CB
:1002F0003FF48BAF2028B6D302F01202122A9CD012
:10030000B1E7B7F8280138B107F59475F4F748FB61
:100310000020A8F800002880452691E7B7F82801BA
:10032000B8F80010F2780844254911FA80F0311D20
:10033000F0F776FBF078B8F800100844A8F8000051
:1003400071788A1E022A10D207F59479010416D119
:10035000B7F8261182B28A4211D1B9F80000F4F739
:100360001FFB0026A8F8006026E0002604297FF481
:1003700067AF28460021002223F064FC60E707F500
:100380009E7107F5927607F593770978022906D1D1
:10039000B9F80020C1B2284623F054FC03E03088AD
:1003A00008B1F4F7FDFAB9F800003080B8F80000A1
:1003B0000026A8F800603880A9F8006040E700BF78
:1003C0000080412070B5DB4E05460C4696F892033E
:1003D00008B10C2122E028791F281ED82846F4F7FE
:1003E0003DFD0138242818D8287903214FF47A726A
:1003F00086F890032868C6F88C030B48036804202D
:1004000098470120032186F89203084802680320D8
:10041000904733F07FFB002100E01221204633F0AB
:10042000DBFB002070BD00BF5844412050444120F8
:10043000B0B50A464178012901D912211AE0BD4B15
:100440004FF49E7404F14005B5F57F7F05D01C5D27
:10045000092C2C46F6D10C210CE00078202808D17C
:1004600093F8F40000F0FE000843002183F8F40044
:1004700000E01121104633F0AFFB0020B0BD00BFFB
:10048000745E41202DE9F8430C46098806464FF476
:100490008850042306F026FC054630461DF09AFDE0
:1004A00008B102273EE0434850F8269099F88800AA
:1004B000A8B3A1783046002918BF012126F0DAFC44
:1004C000A07870B3B9F89A000027C0052AD430028A
:1004D0001023011D4FF48A700A4606F003FC164AE9
:1004E0000D2180461FF042FE304627F0A9F8012179
:1004F000002288F80D70A8F809101049085C3146F0
:1005000088F8080040461FF06FFE404606F022FCC7
:10051000B9F89A0040F48070A9F89A0002E00C271C
:1005200000E0002720882F706880284602F0EEFF48
:100530000020BDE8F88300BF41050300FCA20500D0
:100540002DE9FC410C46098806464FF488500423E7
:1005500006F0C8FB054630461DF03CFD08B1022000
:1005600011E0A178E2785018FF280BD823791220E7
:100570008B4208D86779BB4205D3A1EB020CF8186F
:10058000604509DD1220287020886880284602F026
:10059000BDFF0020BDE8FC81064850F82680E088B9
:1005A000CDE90070304626F019FC012088F888005B
:1005B0000020E8E7105D41202DE9F047F94F05469E
:1005C0000C4697F8E604012801D10C213DE00220F9
:1005D00087F8E6042878EF2801D9122135E00021B8
:1005E00033F02AF8FF282FD007EB801191F83961FA
:1005F000FF2EEAD06A78032AEFD8A978FC29ECD834
:10060000032A01D00029E8D0032A05D007EB86127F
:1006100092F83C210C2AD8D007EB861ABAF822218E
:100620000AF591780A4440F2F7418A4213D3BAF8A6
:10063000200138B10AF59075F4F7B2F90020A8F856
:1006400000002880072100E04221204633F0C4FA50
:100650000020BDE8F08707F58071800101EB861965
:10066000085819F83C1F0C2902D1BAF80C7104E0A3
:100670000AF58071096889888F00C17D90B233F0D6
:10068000F9FC874213D9687840F0020003281BD197
:10069000BAF820010AF5907720B1F4F781F900202B
:1006A000A8F80000F4F76AF9388078B9CAE7BAF810
:1006B000200138B10AF59075F4F772F90020A8F816
:1006C000000028804521C0E7BAF82001B8F80010E2
:1006D000AA780844184911FA80F0E91CF0F7A0F94B
:1006E000A878B8F800100844A8F80000697801F06C
:1006F000FE0102290DD199F800100AF58E770AF54E
:1007000090750C2907D12A88C1B230462BF0F0FA37
:1007100005E0002199E7388808B1F4F741F9288805
:10072000002129803880B8F80000A8F80010AAF845
:100730001E018AE7745E4120008041202DE9F84FB8
:10074000984E05460C4696F8E604012801D10C2681
:1007500009E0022086F8E6042878012802D86878A3
:10076000EF2807D912262046314633F035FA00200B
:10077000BDE8F88F002132F05FFFFF2843D0074625
:1007800006EB801090F83981B8F1FF0FDFD006EB4F
:100790008819B9F820110029D9D1297800F580707D
:1007A00099B3D0F800A0BAF8020010F0330FCED100
:1007B00009F58071B9F81E010968B1F804B09AF81A
:1007C000171033F057FCB0EB8B0F4ED299F83C0169
:1007D0000D28BCD00A2803D10B2009F59E710870A2
:1007E000BAF8021011F0130F39D106EB871191F806
:1007F0003C11022908BF0B2831D13846414632F05E
:1008000053FF064628E04226ADE799F83C1109F56A
:100810009E7A0C2905D00B2925D10A208AF80000E0
:1008200021E00068408880070AD106EB871090F825
:100830003C01022804D138464146002224F006F843
:1008400040462CF06DFE064610B90D208AF80000D7
:1008500009F5827046F0A0FE002E7FF484AF287860
:1008600000283FF484AF00267DE745267BE700BFE4
:100870002DE9FC41EE4C0546884694F8E604012833
:1008800002D100260C2120E0022084F8E60428781A
:10089000EF2802D90026122117E00021002632F0AD
:1008A000CBFEFF2810D004EB8016074696F83911CE
:1008B000FF298DF807100ED10DF1070032F0B2FCC0
:1008C00080B10026072100E04221404633F084F940
:1008D0003046BDE8FC8104EB811090F83C010A2809
:1008E000CFD109E09DF8071006F23910FF22017000
:1008F00004EB811080F824212878EF28CAD8688872
:100900000628C7D3AE88B042C4D804EB8710D0F80D
:100910000021508810F0330FBCD104EB8110B0F8E7
:100920001E0138B1D17D33F0A5FBB0EB860F1AD292
:100930009DF8071004EB8110D0F8000148B10C3885
:1009400006F000FA9DF80710002204EB8110C0F8B1
:10095000002104EB81100A21012680F83C110021BE
:10096000C0F80051B1E700264521AEE710B50C46AE
:100970008178012901D912210EE0007809280AD8CE
:10098000AB4A02EB801292F83C210F2A03D130F0DF
:1009900049FE014600E04221204633F01DF90020C7
:1009A00010BD00BF745E4120F8B50546624814468C
:1009B0000E4650F8257033F053FA28B932F068FE2D
:1009C00028461DF0E3FA08B10C2213E0B0780228A3
:1009D0000FD8B1888A087C2A0BD8B6F806C043F62F
:1009E000F672ACF10A03934203D8337A13F0E80F9E
:1009F00006D01222284621461CF0B4FD0020F8BD86
:100A0000002287F87E3087F87800A7F87CC0A7F826
:100A10007A10EFE72DE9F047894608219046054610
:100A20001DF03EFB00284FF0010628464FF00B0159
:100A300018BF03261DF034FB044628461DF0B8FA03
:100A400008B10C276DE03C4850F825A0BAF89A0090
:100A500040061BD499F8022012F0020003D199F845
:100A6000041000295CD012F0010103D199F8033081
:100A7000002B55D018B999F80430072B04D839B990
:100A800099F80330072B03D911274AE03A2748E0A9
:100A90001127032A45D8B9F80620022A41D864F361
:100AA000820618B999F80400304242D019B999F871
:100AB000030030423DD028021423011D40F20F10E4
:100AC0000A4606F00FF91D4A092104461FF04EFBA5
:100AD0002046294600221FF087FB99F802000027D4
:100AE000810754BF99F804100721C00701EA0601E5
:100AF000E1724FF001010CBF99F803000720A781B4
:100B0000A1733040A072B9F806002082204606F09A
:100B100021F9BAF89A0040F04000AAF89A0000E0E3
:100B20001227284641463A461CF02CFD0020BDE81D
:100B3000F0871A27F5E700BF105D41201DF5020080
:100B4000B0B50546E2480C4690F8520420B133F0A7
:100B5000E1F908B10C2117E0E879012813D82978C8
:100B6000012910D8681C33F077FB0B49CA88098922
:100B7000891A382291FBF2F181420ADDE9792CF0E1
:100B800091FF002100E01221204633F025F80020DB
:100B9000B0BD0221F8E700BFAC574120F8B5FC4ECC
:100BA0000C460546002196F8E62406F59E700A29B3
:100BB00011D00378012A04BF03F0FE07022F06D0EC
:100BC00043F00203072B02D040300131EFE70A293E
:100BD00001D20C210DE07A492846F4F7C9FD08B18D
:100BE000122106E0A8880021A6F88A032868C6F822
:100BF0008603204632F0F0FF0020F8BD10B50088D3
:100C00000C464AF2B712411E91420BD84FF47A714A
:100C1000DF4A4143A2F8500402F20C40F5F7D0FA43
:100C2000002100E01221204632F0D6FF002010BD46
:100C3000745E41202DE9F843D54F05460C4697F8E0
:100C4000E604022801D10C262EE00120002187F8BD
:100C5000E60407F59E7087F8E4140A2906D00278A6
:100C6000063A032A04D340300131F6E70A2000E0B7
:100C7000C8B22A788DF80300012A11D09AB9092840
:100C8000E1D807EB801595F83C01072827D12FF014
:100C900077FD064640B905F59E700821017007E012
:100CA0006A78012A07D912262046314632F094FF8D
:100CB0000020BDE8F883092913D807EB801191F8CB
:100CC0003C110829BFD0072916D1002A18BF0122DC
:100CD000B7F8E20420F001001044A7F8E20400266F
:100CE000E2E70DF1030032F09DFA06460028DBD161
:100CF0009DF80300002600E0122607EB8011D1F8D2
:100D0000001101BB00200021002210234FF0000839
:100D100005F0E8FF9DF8032007F5807180F800805A
:100D200080F80480920188504FF01012C0F806201D
:100D30004FF48072A0F801209DF80300062201EB19
:100D4000801181F83C2007EB8010D0F8009199F8D1
:100D5000000040F00200032814D107F28638184939
:100D60004046F4F705FD00289ED199F800000328BD
:100D700008D133F055FA28B111494046F4F7F8FC90
:100D8000002891D19DF8030007F580786A78002645
:100D900008EB8011002ACE6118BF0122B7F8E214D7
:100DA00021F001011144A7F8E21433F093FA9DF801
:100DB0000300072108EB801080F83C1074E700BFA7
:100DC000B8A20500F8B5724E05460C4696F8E60442
:100DD000022801D10C2135E00120002386F8E60429
:100DE00006F59E700A2B06D001780639032913D325
:100DF00040300133F6E70A208DF803000DF10300BF
:100E000032F010FA0146E8B99DF80330062106EBEE
:100E1000831080F83C1104E000788DF80330062838
:100E2000D8D16888B5F804E0864501D9122109E0D7
:100E3000021F43F6FC771221BA429CBFAEF10402B6
:100E4000BA4204D9204632F0C7FE0020F8BD2F7800
:100E5000012FF7D8A9790329E8D895F807C0BCF184
:100E6000030FE3D8BCF1020F03D396F85224002AF3
:100E7000DCD0DBB206EB8312D2F8002192B900205D
:100E800000210022102305F02DFF9DF803302F785C
:100E900095F807C0B5F804E006EB8311C1F800012E
:100EA000A97968889A0106F580739A581170D080E4
:100EB00001200621A2F808E0177182F801C09070A5
:100EC0009DF8030003EB801080F83C100021B9E787
:100ED000745E41202DE9FC412D4E05460C4696F8E6
:100EE000E604022801D10C214CE0012086F8E6043A
:100EF00028781F2801D9122144E0FF20002132F078
:100F00009BFBFF288DF8070026D0297806EB801080
:100F100019B9B0F826218A4233D0B0F82481F3F70A
:100F20002DFD30B3294607461A4811F8012B3844E5
:100F3000EFF776FD9DF8070006EB8011A1F824710C
:100F40002A78A1F8262191F83C11022913D1297899
:100F50003A4622F077FE14E00DF1070032F062F914
:100F6000014678B99DF8070032F082FC9DF8070031
:100F7000CBE7072106E0B8F1000F1CBF4046F3F7AE
:100F80000FFD0021204632F027FE0020BDE8FC8145
:100F9000745E4120008041202DE9F8430C46098809
:100FA00006464FF48850042305F09CFE0546304663
:100FB0001DF010F808B102270DE0304621211DF088
:100FC00081F838B1A078012802D8E17801290BD93D
:100FD000122700E01A2720882F706880284602F028
:100FE00095FA0020BDE8F883224A002952F826909D
:100FF0000A4618BF0122002889F88520024618BF3A
:101000000122084389F8842031D0B9F89A000027DA
:10101000C005E0D430021023011D4FF48A700A4647
:1010200005F060FE144A0D2180461FF09FF83046FF
:1010300026F006FB1149002288F80D7088F80A7026
:10104000085C314688F80800A078B0FA80F04009C2
:1010500088F8090040461FF0C7F8404605F07AFEC0
:10106000B9F89A0040F48070A9F89A00B3E7002715
:10107000B1E700BF105D412041050300FCA205005F
:10108000B0B50A4604464FF488500021042305F009
:1010900029FEA178054611B101291BD10121238820
:1010A000B3F5007F09D303F0FE0009288FBF0220AB
:1010B000E278D8B231F0CAFE0DE00220B3F5807FAD
:1010C00009D303F0FE02092A05D8E278D8B231F03C
:1010D00017FF00E01220287020886880284602F060
:1010E00015FA0020B0BD0000BCB503460F480C4601
:1010F00090F8A800C0060BD50D480DF1070210218D
:10110000009405682A20A84705469DF8070058B1B5
:1011100041F20110002122460123002505F0E2FDE5
:101120000C21017002F0F2F92846BCBD0C5641209A
:10113000A8444120B0B531F013FD68B104464FF426
:101140008850002142F21F020423002505F0CAFD49
:101150004580047002F0DAF90020B0BDB0B586B069
:101160000C46054632F070FF38B12978272902D89D
:10117000A878072803D9122114E00C2112E08DF879
:10118000030068788DF8011001217F228DF800108E
:101190008DF81520ADF804108DF80200684631F086
:1011A000B1F90146204632F017FD002006B0B0BD6F
:1011B000B0B586B00C46054632F046FF58B12978E6
:1011C000272906D8A878072803D8EA78531E032BC6
:1011D00008D9122100E00C21204632F0FDFC00204D
:1011E00006B0B0BD8DF8011001218DF803006878BC
:1011F0008DF804208DF800107F218DF81510002146
:101200008DF8020068468DF8051031F07BF9014633
:10121000E2E7F0B587B00C46054632F015FFE8B1BD
:101220002B78272B06D8A878072803D8EE78711ECC
:10123000032901D9122112E02F791221012F0ED09A
:10124000142F0CD895F805C0BCF1020FF2D8AA797A
:10125000911E4929EED8032E07D337B10C21204621
:1012600032F0BAFC002007B0F0BD0C2A01D91121E0
:10127000F5E78DF80700687801218DF8086001AE68
:101280008DF805308DF80C208DF80AC08DF80970A6
:101290008DF80410E91D8DF8060006F10900EFF73E
:1012A000BFFB7F208DF81900304631F02BF9014645
:1012B000D5E72DE9F04186B00C46054632F0C4FE74
:1012C00040B32B78272B06D8A878072803D8EE78C8
:1012D000711E032901D912211DE02F791221012F3E
:1012E00019D0142F17D895F805C0BCF1020FF2D809
:1012F000AA79911E4929EED895F8528008F17F010C
:10130000C9B2942903D308F0FE017E29E3D1032E4C
:1013100008D33FB10C21204632F05EFC002006B01D
:10132000BDE8F0810C2A01D91121F4E78DF8030002
:10133000687801218DF804606E468DF801308DF8D3
:1013400008208DF806C08DF805708DF80010E91D95
:101350008DF8020006F10900EFF762FB30468DF8C8
:10136000158031F0CFF80146D5E72DE9F04F99B05F
:101370001446039131B1054601EB030928B12088D9
:101380002F1805E00020532177E004AD05F1530745
:10139000012603A802A94A463B460295009600F0A2
:1013A0007DFB002867D1681C02A94A463B4600968F
:1013B000029003A800F072FB00285CD1A81C012653
:1013C00002A94A463B46029003A8009600F066FB3D
:1013D000002850D1E81C02A94A463B4600960290DC
:1013E00003A800F05BFB002845D1281D012602A9B7
:1013F0004A463B46029003A8009600F04FFBD0BB44
:10140000681D02A94A463B460096029003A800F0D8
:1014100045FB80BB012005F1060A02A94A463B466E
:10142000009003A8CDF808A000F038FB18BB05F128
:10143000070B4FF0000802AE9AF8000080450FD26B
:101440000BEB080031464A463B46029001200090D3
:1014500003A800F023FB08F101080028ECD00AE003
:1014600005F1520002A94A463B4602900120009035
:1014700003A800F013FB0299491B218019B0BDE8B5
:10148000F08FB0B505464FF48850002142F24D026E
:10149000012305F027FC6988044601F5A06080B2AD
:1014A000B0F5206F0CD8288800F5A06292B2B2F592
:1014B000206F05D800B209B22AF054FA002000E0EB
:1014C00012202070204602F021F80020B0BD00005C
:1014D00010B50A460188A1F11B03E02B0DD8408806
:1014E00044F24814A0F5A473A34206D8064BA3F80F
:1014F00020140021A3F8220400E01221104632F04B
:101500006BFB002010BD00BF745E41202DE9F0414F
:10151000064656480D0A0C4650F82570084605F058
:10152000A9FC212824D140F20C40002132464FF082
:10153000000806F0D9FE4E48214602684FF4C46008
:10154000904797F8C702A7F8818187F87A81B0B1F0
:1015500097F8393028460B21062287F8C18287F890
:10156000C7820BF015FF2046012105F0ADFC0AE013
:1015700040F20C400C21324606F0B6FE03E0204655
:10158000294609F021F80020BDE8F0812DE9F04F4F
:1015900089B0064635480D0A0C4650F825700846B5
:1015A00005F068FC212820D140F20B400021324692
:1015B00006F09AFE2E48214602684FF4C460904718
:1015C00007F5CC70B11D1022EFF72AFA012087F839
:1015D000810187F87A0197F8C702E0B397F8B7025C
:1015E00050B1204609F0EAFD35E040F20B400C21F5
:1015F000324606F079FE35E0D7F8A401D7F86CC082
:10160000B7F870E0D7F89831D7F8C881D7F89C11AF
:10161000D7F8A021D7F8CC91D7F8D0A1D7F8D4B17A
:1016200007F5FC760890CDE900CE0DF1080C07F522
:1016300000708CE8000FCDE906601846089BEFF7B4
:10164000C7FE97F83920284631460BF0AFFF2046F9
:10165000002106F05FFA97F8C10218B1204629462A
:1016600008F008F8002009B0BDE8F08F605C412068
:101670005044412010B504460078012817D806F0E0
:1016800065FD21780C244A1EB2FA82F252091042FA
:101690000ED10E4890F823208A4209D0012280F80A
:1016A000231080F8242005F05DFE002400E01224C1
:1016B00041F20110002140F21742012305F012FB14
:1016C000047001F023FF002010BD00BF045C412026
:1016D000BCB540B1806830B1069C0125CDE900451C
:1016E00000F012F9BCBD0420BCBD00002DE9F84F8C
:1016F00083464FF0FF3000EB9B20C0B2082802D297
:101700001D49085C04E04FEA9B203F282DD10620AC
:101710001A496FF39F2B4FF0020A31F8307001EB3A
:10172000C00045687E1E002004B230B284421CDC3A
:1017300004FA86F090FBFAF81FFA88F9B94505D348
:10174000C648C74940F60A1243F0DEFB09EB4900E0
:1017500035F820106FF39F21594503D308D9A8F11C
:101760000106E2E708F10100DEE70020BDE8F88F9E
:1017700005EB8000BDE8F88FA4B70500F0A50500D3
:10178000807870470088C0F383207047BCB540B1B3
:10179000406830B1069C0025CDE9004500F0B4F862
:1017A000BCBD0420BCBD0000FEB5074600201446A9
:1017B0000D46ADF80A008FB1B86878B100214FF638
:1017C000FF721E460DF10A03CDE90021002100221F
:1017D00000F09AF868B14FF4885001E041F201102E
:1017E00000212A46012305F07DFA047001F08EFEE7
:1017F000FEBDB86844F64202018891421AD018A191
:101800000322EFF752F9BDF80A3007464FF488502B
:1018100000212A4605F066FABDF80A100546EFF7E2
:1018200026F92C70CFB9B088A5F805003068C5F846
:10183000010012E030787178BDF80A302A4640EA9B
:1018400001264FF48850B1B205F04CFABDF80A10E9
:101850000546EFF70CF96E802C702846C6E700BFEE
:10186000423642000149022200F008B814B50500D2
:101870000149312200F002B824B505002DE9F84FE6
:10188000834615460C46571E00204FF0020A06B24A
:1018900038B28642C4BF0020BDE8F88F06FA87F050
:1018A00090FBFAF81FFA88F9A94505D3C3486C499B
:1018B00040F68A0243F028FB14F83900584503D358
:1018C00005D9A8F10107E3E708F10100DFE704EB20
:1018D000C900BDE8F88F00BFBCB540B14068069CA8
:1018E00038B10125CDE9004500F00EF8BCBD04205B
:1018F000BCBD002C18BF0124A000BCBD01491F22A3
:10190000FFF7BCBFACB60500BCB5069C10F5807FE8
:101910000FD3C0B2042884BF0420BCBD0E4D55F8BF
:1019200020C0084611461A46234602B0BDE8B04022
:101930006047079D3DB10090084611461A46234670
:10194000F4F772FCBCBD0090084611461A462346C7
:10195000F4F7D0FDBCBD00BFACB7050070B50A28D8
:1019600016D80D4614460326DFE800F01A06730663
:101970001E06243C43454700022D0FD32078617892
:1019800040EA012401F00F01012938D1052643E086
:101990008A48334940F6B32243F0B6FAFF2658E0AE
:1019A0003CF07EF9002850D03CF07AF9461E18BF72
:1019B000FF264EE03CF074F9FF26062D49D300289F
:1019C00047D02548002500F12206022DE6D03078C8
:1019D00028B1711C20460622EFF767F8B8B3073626
:1019E0000135F2E73CF05CF9FF26012808BF02262A
:1019F0002FE006262DE005262BE0082629E02146CB
:101A00006FF31F31092906D8134A1144097E11B119
:101A10000002061D00E0FF2640F6FE6004EA000515
:101A20003CF03EF9802D08BF012812D140F6FF603E
:101A3000094A20408038C0EBC001114491F82210BF
:101A4000022904BF0002461C03E0032601E028022D
:101A5000461CB0B270BD00BF905841206ADA050044
:101A6000DDDC0500B0B51A460C464FF48850002165
:101A7000012305F037F914F8011B054606480268F2
:101A800020469047002818BF1F202870284601F0E4
:101A90003DFD0020B0BD00BF784441202DE9F84352
:101AA0000C460168DDF82080074601EB08009042F3
:101AB00001D9012515E01E46002563B1D4F8009038
:101AC00042464846EEF7ACFF09EB0800B04288BF3B
:101AD000012539686D0001EB08003860206840443A
:101AE00020602846BDE8F883F0B585B0CF4F0646A4
:101AF0000C4697F84C0008B10C2557E070883188E7
:101B0000814237D9F17912254A1E2F2A4ED8022850
:101B10004CD37A8C01EBD221814247D233F0FAFECA
:101B2000B188337AF279ADF80010B1798DF80A30C6
:101B300097F824308DF8021071888DF80B307B8C6B
:101B4000ADF80410318802EBD322ADF80610F97C11
:101B5000ADF80820A1F10201B1FA81F14FEA51116B
:101B60008DF80C1040B1012814BF4FF440704FF4B1
:101B7000007003E0122519E04FF48070ADF80E00FC
:101B800000208DF81000684615F0AEF8054628B123
:101B90000A480B4940F25F4243F0B6F902203D216A
:101BA00087F84C0007F5BA70EEF761FF204629462A
:101BB00033F03DF9002005B0F0BD00BF6ADA050042
:101BC0006EE00500F8B50646C0480D0A0C4650F810
:101BD0002570084605F04EF9222836D140F20E4015
:101BE0000021324606F080FB36482146026840F26A
:101BF0000460904797F8440030B997F83930284688
:101C0000082118220BF0C4FB97F8C102A8B12046A6
:101C100006F0FEFC88B1803541F202100622042352
:101C2000294605F05FF818214580017001F06EFC2F
:101C3000002087F8440087F8C10297F8460058B1A1
:101C40002046012105F040F90AE040F20E400C2147
:101C5000324606F049FB03E02046182106F0E6FC78
:101C60000020F8BD70B505460C46080A974951F8A2
:101C70002060204605F0FEF822281AD140F20D40DF
:101C800000212A4606F030FBAA7906F50370E91D0B
:101C900086F88321EEF7C4FE0120214686F88201F2
:101CA0000848026840F204609047204608F0E6FCCD
:101CB00005E040F20D400C212A4606F015FB0020FD
:101CC00070BD00BF504441202DE9F04186B0074669
:101CD0000C46080AF349154651F82060204605F0E5
:101CE000C9F819280DD8012101FA00F01B49084252
:101CF00007D02846022106F01CFB002006B0BDE8F4
:101D0000F0817868314633463246B6F820C04FF04D
:101D1000000E06F124083060F87801F83E0FB8682C
:101D200043F8040FF86842F8080F3869374647F857
:101D30000C0F96F836008DE884513246F0F7A2FD7C
:101D400006462846314606F0F4FA002ED5D140F278
:101D50001D602146224605F015F8CEE70100C003BC
:101D6000B0B50A464FF4885000210223002504F044
:101D7000B9FF0446057043F093FB6070204601F004
:101D8000C5FB0020B0BDB0B50A464FF48850002115
:101D90000223002504F0A6FF0446057043F080FBF3
:101DA0006070204601F0B2FB0020B0BDF8B50546DA
:101DB0000E46080ADF49102351F8207029884FF495
:101DC000885004F08FFF0446304605F053F8192878
:101DD0000CD8012101FA00F03D49084206D00C2040
:101DE0002070204601F092FB0020F8BD002007F58E
:101DF0000A710A2220702888608097F84C022071AE
:101E0000601DEEF70DFEECE710B50A464FF4885062
:101E100000210223002404F065FFF8490470C97F03
:101E2000417001F073FB002010BD00BF60634120D2
:101E300070B50C46098806464FF4885040F67B4240
:101E4000062304F04FFF054630461CF08DF808B11C
:101E50000C2006E0074850F82600B0F84600A8809D
:101E60000020287020886880284601F04FFB002061
:101E700070BD00BF105D4120F8B504460E46080A4B
:101E8000AC4940F67B42062351F8207021884FF47C
:101E9000885004F027FF0546304604F0EBFF192870
:101EA0000ED8012101FA00F0F449084208D00C20B4
:101EB000287020886880284601F028FB0020F8BDA3
:101EC00000202870B88DA880F3E700BF605C412037
:101ED0000100800370B50C46018805464FF4885018
:101EE000062304F0FFFE064600203070288870802C
:101EF000200A0EF001FBB080304601F007FB002005
:101F000070BD000010B50A464FF488500021072329
:101F1000002404F0E7FE0749B1F88423D1F88013C8
:101F20000470C0F80110A0F8052001F0EFFA0020BD
:101F300010BD00BF745E4120B0B50A464FF4885012
:101F400000210723002504F0CDFE0446013014F0E3
:101F500057F92046257001F0D9FA0020B0BD0000E5
:101F600010B50A464FF4885000210A23002404F0DB
:101F7000B9FEFF210423047001710949B1F8402022
:101F8000C98F038140F2FD334380511A40F204426D
:101F900091FBF2F1C18001F0B9FA002010BD00BF41
:101FA000AC574120B0B50A464FF4885000210423B5
:101FB000002504F097FE044600F8015B14F03AF99E
:101FC000204601F0A3FA0020B0BD00002DE9F04149
:101FD000044680788846012805D0E0B9002517F02E
:101FE00015FA064619E0208820F00101802912D157
:101FF00080F08000DF4A00EBC001114491F83A10F4
:10200000052908D300024246013081B2204604F07F
:1020100093FE012712E0122500264FF4885000217C
:1020200042460C23002704F05DFE4FF6FF71466028
:10203000057001812188418001F068FA3846BDE8C9
:10204000F08100BFFEB50D46018806464FF488506A
:102050000C2304F047FE044630886080284604F0D4
:1020600009FFB8B1D4482E0A50F8260090F836700F
:1020700017F0CCF905463FB1684631460DF076FBC6
:102080000098284420F070454FF6FF70656020816D
:10209000002000E002202070204601F037FA0020E6
:1020A000FEBD00BF605C41202DE9FE438046C24872
:1020B0000C0A17460E4650F82450084604F0DAFE83
:1020C00019280CD8012101FA00F01B49084206D05A
:1020D0003846022106F02DF90020BDE8FE8338467F
:1020E00000214FF0000906F024F995F83600C8B138
:1020F000B8F8001041F202101C22062304F0F2FD91
:10210000064680F80090B8F80000214670806846C6
:102110000DF02CFB0098C0F38E00B080304601F02B
:10212000F5F9D9E740F212603146324604F02AFE52
:10213000D2E700BF605C41200100C003B0B50A4691
:102140004FF4885000210423002504F0CBFD044601
:102150000570F9F753F86080204601F0D7F90020A8
:10216000B0BDB0B50A464FF48850002104230025C5
:1021700004F0B8FD04460570F9F740F86080204689
:1021800001F0C4F90020B0BD80B50A464FF4885074
:102190000021052304F0A6FD4FF480710180B949A8
:1021A000B1F82520428091F82710017101F0AEF9B5
:1021B000002080BD10B50A464FF48850002102234C
:1021C000002404F08FFDAF49047091F83010417085
:1021D00001F09CF9002010BD10B50A464FF488505C
:1021E00000210423002404F07DFDA6490470098D1C
:1021F000418001F08BF9002010BD00BF60634120D9
:1022000070B51546B04A0446080A52F820600846E0
:1022100004F030FE192816D8012101FA00F0174900
:10222000084210D021884FF488502A46062304F033
:1022300059FD002101710C2101702188418001F0BC
:1022400065F9002070BD21884FF488502A46062386
:1022500004F048FD2188418096F83C1019B10C210A
:102260000170002106E096F8851129B10021017066
:1022700096F884110171E2E72F21F1E70100800354
:1022800070B50D46018806464FF48850082304F0C7
:1022900029FD044630886080B078A0B1012822D1A1
:1022A0005B4D012195F82D006A69904720716A699C
:1022B00095F82D000221904760716A6995F82D000C
:1022C000032190470CE02D0A0D4E01212846B0470E
:1022D000207128460221B047607128460321B0478B
:1022E000A071204604E00020A08012202070A01DD4
:1022F00000210170204601F009F9002070BD00BFE7
:10230000B1F7010010B50A464FF4885000210423AC
:10231000002404F0E7FCCC490470498C418001F0B2
:10232000F5F8002010BD00BF10B50A464FF48850E4
:102330000021F22304F0D6FC04460130A11C14F065
:1023400033FE2070204601F0E1F8002010BD0000AF
:1023500010B50A464FF4885000210423002404F0ED
:10236000C1FCB9490470098C418001F0CFF800200C
