:020000040000FA
:10000000B81B4020150100006D2C000051020000BB
:100010008D020000290100002B0100002D010000CD
:100020000000000000000000000000002F010000A0
:100030003101000000000000B5010000E92E0000C1
:100040002D0E0000054F00003B0100003D010000A7
:100050003F01000041010000430100004501000094
:1000600047010000490100004B010000896D0000BC
:100070004F0100005101000053010000C95700006A
:100080005701000059010000092D00005D0100002A
:100090005F01000061010000630100003D1D0000E0
:1000A00067010000690100006B0100006D010000A4
:1000B0006F01000071010000730100007501000074
:1000C0000000000000000000000000000000000030
:1000D0000000000000000000000000000000000020
:1000E0000000000000000000000000000000000010
:1000F0000000000000000000000000000000000000
:10010000DFF80CD000F02EFA00480047810D000007
:10011000B81B4020184880F30A88184880471848C0
:100120000047FEE7FEE7FEE7FEE7FEE7FEE7FEE745
:10013000FEE7FEE7FEE7FEE7FEE7FEE7FEE7FEE797
:10014000FEE7FEE7FEE7FEE7FEE7FEE7FEE7FEE787
:10015000FEE7FEE7FEE7FEE7FEE7FEE7FEE7FEE777
:10016000FEE7FEE7FEE7FEE7FEE7FEE7FEE7FEE767
:10017000FEE7FEE7FEE70000B8174020492F000029
:1001800001010000EFF3108072B6704780F3108811
:10019000704740BF5D4A1368012B04D04FF0010344
:1001A00013605B4A10605B4A11605B484FF08051FE
:1001B00001607047EFF3108272B654480168C9B10C
:1001C0004FF0000101605248016849B1EFF3098125
:1001D00021E9F00FEFF30B8441F8044D0068016052
:1001E0004C490968096810C984F30B88B1E8F00F1D
:1001F00081F3098882F310884EF0040E7047474857
:100200004FF47F01D0F8002041EA020101607047FD
:10021000404908603E494FF0000008603B494FF0FC
:10022000010008603D484FF47F01D0F8002041EA0A
:100230000201016038484FF0805101603848006881
:10024000006880F3088861B662B6704720BF7047C7
:100250001EF0040F0CBFEFF30880EFF3098020E9D4
:10026000F00FEFF30B8440F8044D40F804ED1EF05E
:10027000040F0CBF80F3088880F3098800B551F0A3
:10028000FBFB5DF804EB4EF0040E70471EF0040F0C
:100290000CBFEFF30880EFF3098020E9F00FEFF3D4
:1002A0000B8440F8044D40F804ED1EF0040F0CBF21
:1002B00080F3088880F3098800B551F0E0FB5DF811
:1002C00004EB4EF0040E704710B4EFF3038410B447
:1002D0007C4610B400B54DF804CD0FB4089C2DE950
:1002E000F00FEFF30B8410B4684651F077FB10BCAD
:1002F00084F30B88BDE8F00F0FBC5DF804CB5DF80C
:1003000004EB10BC10BC10BCFEE700007C134020C6
:10031000201340202413402004ED00E020ED00E0F5
:1003200008ED00E00649074A0868504343F23902E5
:100330001044086040087047014908607047000099
:10034000000040206D4EC64110B5044604E00B7815
:1003500000F8013B03B1491C521EF8D2204610BDE3
:10036000421C10F8011B0029FBD1801A704730B5E0
:1003700004460020034600E05B1C934203D2E05C8D
:10038000CD5C401BF8D030BD034611F8012B00F8BE
:10039000012B002AF9D11846704730B505460020D8
:1003A000034600E05B1C934205D2EC5CC85C201A5B
:1003B00001D1002CF6D130BDF0B4002802DCF0BC35
:1003C00000207047C0F3C751C0F3160040F400008E
:1003D000CA0701D14000491E3F2202EB61050022FD
:1003E00011464FF4000626FA01F31344D418844250
:1003F00001D8001B1A464000491C1729F3DD5100A3
:10040000814202D24FF0FF3100E0002102EBC550E3
:10041000F0BC00F0DAB82DE9FE4F804681EA030017
:10042000C00F0C46009021F0004123F00045B8EBCE
:100430000200A94105D24046214690461C460B4683
:10044000024623F00040104347D0270DC7F30A00AF
:10045000C3F30A510290401A019040286BDAC3F3AB
:10046000130040F4801B0098924620B10023D2EB89
:10047000030A63EB0B0B01985946C0F1400250464A
:1004800000F082F806460D4650465946019A00F0A3
:100490008AF810EB08006141002487EA115284EACF
:1004A000E7731A4340D0009A62B3019A012A4FEAD7
:1004B000075215DC001B61EB02014FF0004202EA1B
:1004C0000752CDE90042001C41F5801132462B460F
:1004D00000F0C1F803B0BDE8F08F40462146F9E7CF
:1004E000001B61EB0201001C41F5801300185B4109
:1004F0002018A2F5001747EB030140EAD570B619A2
:100500006D4111E06D084FEA360645EAC0754FEAC5
:100510000752001B61EB0201001C41F580114908E4
:100520004FEA30000019514132462B4603B0BDE876
:10053000F04F00F081B80098012240000023D0EB7A
:10054000020263EBE073009821464FEAE074B8EBD7
:10055000000061EB0401E9E783F000435BE781F011
:10056000004158E7064C074D06E0E06840F0010303
:1005700094E8070098471034AC42F6D3FFF7C4FD67
:1005800030FA050050FA0500202A04DB203A00FA70
:1005900002F1002070479140C2F1200320FA03F3DA
:1005A000194390407047202A06DBCB17203A41FAC6
:1005B00002F043EAE07306E041FA02F3D040C2F1F0
:1005C000200291400843194670470029A8BF704790
:1005D000401C490008BF20F00100704710B4B0FA79
:1005E00080FC00FA0CF050EA010404BF10BC704714
:1005F00049B1CCF1200421FA04F411FA0CF118BF2E
:10060000012121430843A3EB0C01CB1D4FEA0061FC
:100610004FEA102042BF002010BC704700EBC350CF
:1006200010440029A4BF10BC7047401C490008BFFB
:1006300020F0010010BC704710B5141E73F10004C7
:1006400008DA401C41F1000192185B411A4301D1C4
:1006500020F0010010BD2DE9F04D92469B4611B1EE
:10066000B1FA81F202E0B0FA80F220329046FFF750
:100670008BFF04460F4640EA0A0041EA0B0153464D
:100680005A46084313D0114653EA010019D0C8F165
:100690004002504600F02DF805460E465046594699
:1006A0004246FFF771FF084305D0012004E02046D1
:1006B0003946BDE8F08D0020054346EAE0762C433C
:1006C00037430A986305E40AA0EB08000022FD0AFC
:1006D00044EA47540A3002D500200146E9E7010503
:1006E00010196941DDE9084500196941BDE8F04D7F
:1006F000A2E7202A04DB203A21FA02F00021704709
:1007000021FA02F3D040C2F1200291400843194679
:1007100070472DE9F05F0546002092469B468846CB
:100720000646814640241BE028464146474622466D
:10073000FFF7DFFF53465A46C01A914110D31146C6
:1007400018462246FFF720FF2D1A67EB01084F4697
:10075000224601200021FFF717FF17EB00094E4149
:10076000201EA4F10104DFDC484631462A464346F8
:10077000BDE8F09F10B5431A934209D28318881838
:1007800003E010F8011D03F8011D521EF9D210BD3F
:1007900040EA01039B0703D009E008C9121F08C003
:1007A000042AFAD203E011F8013B00F8013B521E83
:1007B000F9D210BDD2B201E000F8012B491EFBD2E4
:1007C00070470022F6E710B513460A46044619465C
:1007D000FFF7F0FF204610BDF0B480EA0102D40F0D
:1007E0004200B2EB410F02D20246084611464A00CF
:1007F00042D0C30DDDB2C1F3C752AD1A202D35DA98
:10080000C1F3160141F4000204B15242C5F12006C1
:1008100002FA06F12A411044B3EBD05F23D0C4B1F1
:10082000012DA0EBC35009DCF0BC4FF0004202EAFE
:10083000C352DBB200F50000FFF7D0BE400000F16C
:10084000807000EBC350A0F1807040EAD170490085
:1008500009E0490841EAC071A0EBC35000F500006F
:10086000400800EBC350F0BCFFF7AFBE614201226D
:1008700002EB4101001BF6E7F0BC704781F000413C
:10088000AAE780F00040A7E780EA010210B502F075
:100890000043400022D04A001FD0010E01EB12613C
:1008A000C0F35600C2F3560240F4000042F40002C6
:1008B000A0FB022000047F39140400D0401C50EA41
:1008C000124001D44000491EC2B20C0604EBD01005
:1008D000401C4008802A02D003E0002010BD20F018
:1008E0000100002900DA0020184310BD30B480EA6E
:1008F000010202F0004530F0004221F0004013D028
:1009000090B1C30DD40DC2F31601C0F31600E41A62
:1009100041F4000140F400027D34914201D3641C93
:1009200000E04900002C02DA30BC002070474FF490
:1009300000000023914201D3891A034340084FEA83
:100940004101F7D151B1914202D14FF0004105E090
:1009500002D24FF0010101E06FF0010103EBC4503E
:10096000284430BCFFF731BE2DE9FE4F81EA030475
:1009700004F0004421F0004100944FF0000B23F0FC
:10098000004350EA01045ED052EA03045BD0C3F393
:100990000A54C1F30A552C44A4F2F3340194A0FB89
:1009A0000254C1F3130141F48011C3F3130343F460
:1009B000801301FB024400FB034E840A970A44EAB9
:1009C000815447EA8357A4FB076802958D0A05FB0B
:1009D00007854FEA932C04FB0C542705029D4FEA30
:1009E000065847EA1637B5EB08056EEB070C870E7D
:1009F000920E47EA811742EA8312A7FB0201B6EB87
:100A00000B0164EB00042B0D43EA0C335E1844EB3E
:100A10001C50DA465146E7FB0201C5F313044FEAC6
:100A20000B3343EA14534FEA0432019C43EA0603B2
:100A3000A4F10C040294009CCDE900B4FFF70BFE76
:100A400003B0BDE8F08F00200146F9E72DE9F04D35
:100A500081EA030404F0004B21F0004514464FF0F6
:100A6000000A23F0004150EA050220D054EA0102B6
:100A70001DD0C5F30A570246C5F31303C1F3130093
:100A8000C1F30A5640F4801543F48013A7EB06081F
:100A9000101BD64608F2FD3873EB050002D308F1AF
:100AA000010801E092185B41B8F1000F03DA002061
:100AB0000146BDE8F08D00204FF4801106468446C3
:100AC0000EE0171B73EB050705D3121B63EB050341
:100AD00006434CEA010C49084FEA300092185B418A
:100AE00050EA0107EDD152EA030012D082EA040075
:100AF00083EA0501084305D0101BAB4106D2012251
:100B0000002306E000224FF0004302E06FF00102F4
:100B100053101AEB06004CEB085110EB0A0041EBA6
:100B20000B01BDE8F04DFFF787BD002801DBC0F1E8
:100B30000040002901DBC1F10041814201D20120C6
:100B4000704700207047002801DBC0F100400029F9
:100B500001DBC1F10041814201D301207047002037
:100B60007047002801DBC0F10040002901DBC1F122
:100B70000041814201D9012070470020704730B503
:100B8000041E71F1000404DB4FF00044404264EBAA
:100B90000101141E73F1000405DB1C464FF00043F5
:100BA000524263EB0403801A994101D3012030BD06
:100BB000002030BD30B5041E71F1000404DB4FF09D
:100BC0000044404264EB0101141E73F1000405DB94
:100BD0001C464FF00043524263EB0403101A8B4152
:100BE00001D2012030BD002030BD30B5041E71F1AE
:100BF000000404DB4FF00044404264EB0101141E8A
:100C000073F1000405DB1C464FF00043524263EBD6
:100C10000403101A8B4101D3012030BD002030BDE8
:100C200030B5041E71F1000404DB4FF00044404273
:100C300064EB0101141E73F1000405DB1C464FF048
:100C40000043524263EB040342404B401A4301D03D
:100C5000002030BD012030BDC10F80EAE0700844A3
:100C6000CA0796230021FFF7B9BC9623002211463C
:100C7000FFF7B4BC30B4044696230800214604D0E4
:100C8000B62330BC0022FFF7A9BC20460021F8E7BC
:100C900000F0004220F00040C10DC0F3160040F407
:100CA00000007F2901DA00207047962903DCC1F19A
:100CB0009601C84001E096398840002AF4D04042AD
:100CC000704720F00040C10DC0F3160040F4000052
:100CD0007F2901DA00207047962903DCC1F19601D3
:100CE000C840704796398840704770B5C1F30A52C2
:100CF00001F000450024C1F3130140F2FF3341F439
:100D000080119A4201DA002070BD40F233439A42CA
:100D1000A2F2334203DC5242FFF7EBFC00E09040CA
:100D20002C43F1D0404270BD70B58C1810F8015BB7
:100D300015F0070301D110F8013B2A1106D110F874
:100D4000012B03E010F8016B01F8016B5B1EF9D178
:100D50002B0705D40023521E0DD401F8013BFAE7FE
:100D600010F8013BCB1A921C03E013F8015B01F869
:100D7000015B521EF9D5A142D8D3002070BD0000FE
:100D8000B0B5AAB015AC522152252046FFF719FD87
:100D9000002018211490CDE912000CA8FFF711FDD6
:100DA00001A82C21FFF70DFD0DF1A6020920214617
:100DB000ADF8A65000F010FD38B99DF8540020B1F0
:100DC0001948A11C4422FFF7D5FC0C2012A90DF1F3
:100DD000A602ADF8A6000A2000F0FEFC10B912A889
:100DE0004FF094FB18200CA90DF1A602ADF8A60057
:100DF0000B2000F0F1FC10B90CA84FF00DFC2C20DA
:100E000001A90DF1A602ADF8A6000C2000F0E4FC4B
:100E100010B901A84FF0BAFB04F03CFC55F030FDCE
:100E200000202AB0B0BD00BFF80040201CB551F032
:100E30003DF816480121016015480021BFF34F8F8E
:100E4000BFF36F8F0160446A44F000418162114832
:100E500090F8A000C00709D00F480DF1070201214A
:100E60000368282098479DF8070010B10B480068D8
:100E70008047C4F31420002120B1142902D8013185
:100E80004008F9E7BDE81C4051F02AB880E100E0D5
:100E900000000440A8084020B80140208000402005
:100EA00070B5002208230024002B0FD450F82350E3
:100EB00051F82360641942F10005A41940F8234059
:100EC00045F10004013B04F00104EDE7BDE870408A
:100ED00058F074BFF8B51446002208230025002BF3
:100EE0000FD450F8236051F82370AD1942F1000679
:100EF000ED1944F8235046F10005013B05F00105CA
:100F0000EDE7204658F05AFF0020A062F8BD00002F
:100F100010B51446FFF7DEFFA06A20B12046BDE8F9
:100F2000104000F00DB84149204617F0DDFD28B112
:100F30003E492046BDE8104001F076BF10BD00BF1D
:100F4000B0B58CB0044601AD384821462A4601F0C0
:100F500003FF204629462422FFF70CFC0A990020B3
:100F6000C4E909100CB0B0BDF0B58BB00446806A7E
:100F700000B32E4D2046294617F09EFD80B3082071
:100F80000021002200283AD455F8206054F820307F
:100F9000B718921941F100069A1AA3EB070771EBF3
:100FA000060244F82070A0F101004FF0000238BFA3
:100FB0000122E7E71D4A00200821002300291ED452
:100FC00054F8215052F821605B1940F100059B193B
:100FD00044F8213045F10003013903F00103EDE746
:100FE0006D46124821462A4601F0B6FE20462946A3
:100FF0002422FFF7BFFB09990020C4E90910002053
:10100000002109290BD054F821205FEA50004FEA53
:10101000320044F8210002F001000131F1E72046DE
:101020000BB0BDE8F04058F0C9BE00BF84C0050059
:10103000F0B597B007AC01AD07AE0FC41D983146AF
:1010400013ACADF818001C98224605902198049026
:10105000209803901F9802901E980190284601F056
:1010600062FA28462146224601F02BFD0FAD05A865
:10107000294601F049FB204629462A4601F048FA54
:101080000BAF3046394601F057FC28463946224618
:1010900001F076FADDE922200021042903D0635C07
:1010A00053540131F9E7211D00220C2A04BF17B067
:1010B000F0BD8B5C83540132F7E7B0B58EB002AC63
:1010C0000FC4139900220AAB149CADF804101299B6
:1010D000009102A901310F2A03D09854885C013293
:1010E000F9E780F0060006AD8DF83700684629461E
:1010F00001F00AFB0AA92846224601F041FA0EB087
:10110000B0BDF0B593B007AC0FC4199901ABDDE9E0
:101110001E42ADF818101899254605911D990491A5
:101120001C9903911B9902911A9901910FA90E46DE
:101130002DB113F8017B013D06F8017BF8E70D198D
:10114000002605AFA319052E98BF102B03D2BB5D57
:10115000AB550136F6E700241D46102D08D20E5D72
:101160004E551E1B0135013E18BF661C3446F4E780
:1011700007A900240BAD01310F2C03D02855085DC1
:101180000134F9E758400FA98DF83B000BA801F096
:10119000F7F913B0F0BD70B598B008AC14AD0FC43A
:1011A0001E9808A92A4601AC07901D9806901C9825
:1011B00005902298049021980390209802901F98FF
:1011C0000190204601F0AFF9204629462A4601F059
:1011D00078FC239C002005A910AA0023102B08D01E
:1011E0000D5CD554451C0133B5F10C0018BF2846E1
:1011F000F4E710AD14A829462A4601F089F90CAE8F
:1012000008A8314601F098FB28463146224601F0F5
:10121000B7F918B070BD00002DE9F04FAFB00E4621
:1012200007464FF404700221934618F073FA0446FF
:1012300058468421FFF7C5FA20464FF40471FFF7A2
:10124000C0FA384600F086FD0546304600F082FDC3
:1012500015B120B1EB4803E058B1384600E0304604
:10126000594600F0EDF820462FB0BDE8F04F18F0D9
:1012700007B93046394606F12C0807F12C054EF027
:10128000ADF8002800F0C08004F1840004F12C01C6
:1012900007F1580AD94B224604F158090C904046F0
:1012A000884651460D9506F1580598470D98CDF89A
:1012B00034804246DFF844832946C04730465146D1
:1012C0004A46CDF81CA04646C047089529463846F0
:1012D0000C9D2A46C04748462946CA46A8464EF0B5
:1012E0007DF8002800F0A08004F5F27004F59A75EE
:1012F00004F1B002C04F04F1DC060A9004F5DC7082
:10130000039004F5C670029004F5B070019004F5E6
:1013100084700B9504900BF15800099206900BF124
:101320002C00059020460D99B8475046414632465C
:10133000B847DDE90701DFF8C4922A46C84724A868
:101340002C21FFF73EFA19A82C21FFF73AFA0EA834
:101350002C21FFF736FA019F304631463A46C847FE
:10136000DDF808A0384631465246C8474D46099830
:10137000DDF80C9001464A46A84738460A9F414688
:101380003A46A8470DF1380838460221424601F096
:10139000BEFB24AF0B994846A9463A46A8473846B3
:1013A00019AD954F51462A46B8472846049D4146F7
:1013B0002A46B847304629465A46B846C84724AE5A
:1013C0002C213046FFF7FDF90DF1640B2C21584616
:1013D000FFF7F7F90EAF2C213846FFF7F2F90A981C
:1013E00029463246C047099831465A46C8470D99A2
:1013F00050463A46C847059A58463946C0470B9961
:10140000069A5046C8472EE7404629464DF0E6FF6B
:1014100000287FF41FAF306D01283FF635AFF06C28
:1014200000287FF431AF15E70D9920464DF0D6FF27
:1014300000287FF40FAF3846594600F025F812E730
:10144000B0B505460C46084624222946FFF792F916
:10145000D5E909012422C4E9090104F12C0005F1B0
:101460002C01FFF787F9D5E914012422C4E91401FE
:1014700004F1580005F15801FFF77CF9D5E91F0187
:10148000C4E91F01B0BD00002DE9F04FA7B00E4622
:1014900005464FF4F270022118F03CF90446286D1D
:1014A000012801D8E86C18B1284600F053FC20B19F
:1014B00054483146FFF7C4FF97E004F1B00005F14E
:1014C000580805F12C0B039004F18400414602906A
:1014D00004F15800049004F12C00019005961CAE14
:1014E00028463246FFF714FD0DF1440A424B2846C8
:1014F0004146524698470DF11809404F3046514633
:101500004A46B8473E463E4F484603212246B84722
:101510004146DDF804805846B9464246B0471CAF04
:10152000584641463A46B0472846049D39462A4621
:10153000B0470DF1700A204621465246B04711AF20
:10154000284608213A46C8475046DDF808A02A4BED
:101550003946524698471CAD5046414637462A46C2
:10156000B047059A28460221C84704F1DC055846D1
:1015700059462A46B04740464146C346DDF80C80EE
:101580004246B04704F58476284641463246B8477D
:10159000B94604F59A751A4F304608212A46B847CD
:1015A00004F5B076049804213246B84704F5C677AE
:1015B0005146DFF844A030463A46D04704F5DC7681
:1015C000204639463246C847059F3046294607F12E
:1015D0002C02D0471CAD404659462A46C847084B06
:1015E00007F15802284608219847204627B0BDE851
:1015F000F04F17F045BF00BF9D2D0000452B0000A8
:101600000F2B000094C205002DE9FE4F0120DFF8EA
:10161000C0A02E4C42F2107500264FF00C084FF47B
:101620007A7900902B488346009800284CD04FF4DC
:101630007A77002F44D0791B34BF31462F4620687B
:10164000C00738460F4624D10290DAF8000002990C
:1016500001B150B9002000F049FAB0FBFBF0594647
:10166000CAF8000002990029E3D0312802D3029978
:101670000139029102990029DBD0029901394843CE
:10168000B0FBF8F001900198411E00280191FAD1B9
:10169000CFE70290606802994143B1FBF9F10291F2
:1016A0000021A268A3689A42FCD011449A42A1EB9F
:1016B000030198BF0144029A91421A46F2D3B8E757
:1016C000009801380090AFE7BDE8FE8F10E000E021
:1016D000B806402040420F001CB501240DF107015F
:1016E00001AA0020ADF8044000F076F810B18DF8A2
:1016F000074001E09DF8074020461CBD10B50D4C89
:101700002078FF2805D1FFF7E7FFB0FA80F0400905
:1017100020700949096818B10A20B1FBF0F010BD2A
:10172000C80B4FF47A726FF3DF315143504300EB33
:10173000D13010BD50024020480004401CB5204C60
:1017400094F8E000C00709D01E480DF107020121FE
:101750000368382098479DF80700E8B11A480168E7
:1017600041F0020101600168B1F1FF3FFBDC174865
:101770000122016862F3010147F23F7201600168D2
:1017800041F0100101604168914343F2021211439C
:101790004160022000F0AAF997484FF6FF02016865
:1017A00011400B4A1143016094F8E000000706D590
:1017B00008480DF1060208210368382098471CBD2F
:1017C000A8084020B801402010000440100000404C
:1017D0000003FA05B401402070B50346012000293A
:1017E00000F08280002A00F07F80404D4048AC6CC1
:1017F0000CB90446A86405683E4EB54210D10E2BC4
:1018000013D8DFE803F00814191E23282E33393EBD
:10181000475059646A001288012A06D1807E29E067
:101820003548016821F001010160012070BD128876
:10183000042AFAD1406855E01288042AF5D180685C
:1018400050E01288042AF0D1C0684BE01288042AC4
:10185000EBD1006946E01288022AE6D1008B0880AD
:1018600041E01288042AE0D140693BE01288012A55
:10187000DBD1C07E087036E01288042AD5D1C06959
:1018800030E010885228D0D104F1200208461146D9
:10189000522219E010880C28C7D104F174020846BE
:1018A00011460C2210E010881828BED104F1AC02B9
:1018B00008461146182207E010882C28B5D104F1FB
:1018C0008002084611462C22FEF754FF0BE01288D6
:1018D000042AAAD1D0F8C40004E01288042AA4D1B2
:1018E000D0F8C8000860002070BD00BF580240203A
:1018F000002A4020787845452C000C5004480168A7
:1019000041F00101016001688906FCD5704700BF04
:101910002C000440E0B5FFF7DFFE10B14FF08E4021
:101920008CBD042001A90DF10202ADF802000220D5
:10193000FFF752FF00B1FEE7019848B1FFF795F9B4
:1019400001460548FEF7D2FF0449FEF79DFF8CBD16
:1019500000488CBD00901746001B374C00004843E0
:1019600070B5044600680026056985604DB1E8073A
:1019700004D0A26812B1F1B22046904701366D083A
:10198000F4E770BDB0F1FF3F0CDD00F01F01012254
:10199000C0B202FA01F1044A42EAD00020F003008A
:1019A00001607047FEE700BF00E100E010B500F005
:1019B0000F03114C0F4AB0F1FF3FA3F1040323447E
:1019C00003F10C03C8BF831820684FF0FF34C0F345
:1019D0000220021F80F0070038BF0022032828BF22
:1019E000032004FA00F021EA000090404001187042
:1019F00010BD00BF00E400E00CED00E00B480C4916
:101A00000068884218BF70470048004701604000E6
:101A10000649074A086890421CBF0020704701F140
:101A2000080049680022C90800F004B8007F40207F
:101A3000484354502DE9F0472B4B002591464FF079
:101A4000010E4FF0402C002A1D609846174B18BF1E
:101A50004FF001099A460023A9421BD00EFA05F463
:101A600004EA0207B7FA87F77F0917EA090F0FD1CF
:101A700050F8357056462343464607EA0A074CF8A5
:101A8000257000EBC507C8F804407F68C8F80870E7
:101A90000135E1E70020002AC8F80400184608BF15
:101AA0001A46C8F80020BDE8F08700BFFCFF070019
:101AB000F0B5034600200C4C4FF040250CE02668A2
:101AC000C640F6070CD055F8206003EBC00743F87A
:101AD0003060013036687E601F2898BF8842EED3A0
:101AE00021681160F0BD00BF80400040002808BFA1
:101AF00002201449012805D0022802D13F221048B3
:101B000016E0FEE7104850F8042C02F00302032A06
:101B10000AD1816851B1C1F383020C4B01F001017C
:101B2000494202FB03321140FF2201E0FF22002163
:101B30000068104008BF0120B1FBF0F0704700BF03
:101B400014000040006CDC022400005000366E01DE
:101B500010B510480168002907D4016841F002015E
:101B600001600168B1F1FF3FFBDC0B4C01212068F3
:101B700061F3010020600220FFF7B8FF0749B0FBC6
:101B8000F1F061686FF3184141EA004040F4000051
:101B9000606010BD100004401000004000127A0088
:101BA000F8B50C460546FFF797FD10B14FF0FF3032
:101BB000F8BD304E3068002805D410F00F001CBF6F
:101BC0006FF00200F8BD2C4F0121386861F3DC4052
:101BD0004FF6FF713860386840F000503860386860
:101BE00020F480303860386838603868884338605E
:101BF000386828433860386840F400303860FFF7B0
:101C000003FD7868B0F1FF3FFBDC1C487968C36CCA
:101C100021F000410A46FBB1026D9D1AFB2D04D351
:101C2000934288BFB1EB02050AD8551A04D9C92DD1
:101C300028BFB2EB030306D8C2EB02120A4409E044
:101C4000FA2D02D8F1E7C82BF6D902EB42020D2398
:101C500001FB032208321209C0E913120849836C00
:101C600003B981648A602260306840F000403060CF
:101C70000020F8BD14200040140109405802402003
:101C8000002A4020B0B52C4C206B08B91C482063BA
:101C90001B4988421CBF1B49884209D1A16CB1F184
:101CA000807F00D3FEE7E26CB2F1807F04D3FEE7D1
:101CB00015498842F2D0FEE743699B070FD53421CE
:101CC0000025C16041692F2D07D811F0020104D011
:101CD0000135FFF799FC206BF4E7D4E9121201609B
:101CE000002576214260C16040692F2D07D810F091
:101CF000020004D10135FFF787FC206BF4E7B0BD8B
:101D000000B000400040095000C00C50B0B5094878
:101D10007621094C00250160206B40692F2D07D8E2
:101D200010F0020004D10135FFF76EFC206BF4E7E0
:101D3000B0BD00BF0CB00040CC03402080B550F0D7
:101D4000B5F80348FFF70CFEBDE8804050F0C8B876
:101D50003C014020B0B50C4D044629464DF03EFBF9
:101D600030B904F12C0005F12C014DF037FB08B11E
:101D70000020B0BD04F1580005F158014DF02EFBD4
:101D8000B0FA80F04009B0BD94C205002DE9F04FD3
:101D9000BFB033AC0FC4DDE94868102E0BD233ADB1
:101DA000284600F002FE0020102810D0295C08F818
:101DB00000100130F8E7002033A9102804BF3FB01D
:101DC000BDE8F08F0A5C08F800200130F5E7DFF885
:101DD0002807711E37AB229100EB0110002110295A
:101DE00003D0425C5A540131F9E79DF8EB009DF8AD
:101DF000EA509DF8E9309DF8E5209DF8E3C09DF894
:101E0000E0409DF8DCE09DF8DD109DF8DEB09DF827
:101E1000DFA04FF0FF3732909DF8E80028909DF842
:101E2000E7002F909DF8E60027909DF8E4002E90A3
:101E30009DF8E20026909DF8E100309031914FFA34
:101E40008EF1B1F1FF3F68DD1846329B6E00D9B2CA
:101E50005B0046EAD11146002D91E9B2650046EAE1
:101E6000D1112C91C1B22898460046EAD1112B918C
:101E7000C1B22F98460046EAD1112A91C1B22798E3
:101E8000460046EAD11156002991C1B246EAD11066
:101E9000D1B225902E98460046EAD1112491C1B2C4
:101EA00038464FEA4C0747EAD11123915FFA8CF18B
:101EB000269A570047EAD116D1B2309A570047EA1E
:101EC000D119D1B22246074645EAD114D0B24FEA21
:101ED0004A0152465D46013F41EAD01AD0B2319ADA
:101EE0004FEA4B01329341EAD01BE8B22BAD5100CF
:101EF00041EAD011D0B2C00940EA4E0E29CD289057
:101F00002A982F9029982790DDE924022E90DDF859
:101F10008CC02696CDE9309191E732982B952A9383
:101F200029468DF8EA5055468DF8E930A1468DF8DE
:101F3000E0408DF8DCE08DF8E5208DF8E3C05946EF
:101F4000289E279BDDF898A0AB468DF8DF508DF8D2
:101F5000EB002F980C468DF8DE108DF8E8608DF8B8
:101F6000E6308DF8E2A08DF8E7002E988DF8E400B9
:101F70003098CDF8A4E031992F9D8DF8E1008DF8CF
:101F8000DD1000212D9180212C91DDF8B8E02B98F7
:101F9000002F00F0E78028972D992C9F2B9018F8A0
:101FA00001100F4267D02F95CDF8B8E098F80010D7
:101FB00010461A46334698F8016098F803E098F8FE
:101FC0000250299F794088F80010319971401E46CF
:101FD000134602468EEA0B00DDF8B8E088F80300ED
:101FE00098F8040088F8011085EA04012F9D88F80C
:101FF0000210309980EA090088F8040098F805007A
:1020000048402A9988F8050098F8060080EA0A00F6
:1020100088F8060098F8070080EA0C0088F80700A6
:1020200098F8080080EA0E0088F8080098F809007F
:10203000504088F8090098F80A00584088F80A00CB
:1020400098F80B00684088F80B0098F80C00704076
:1020500088F80C0098F80D0048402B9988F80D007E
:1020600098F80E004840329988F80E0098F80F0052
:10207000484088F80F002C992D9801294FEA51010A
:1020800008BF01302D9008BF80212C91E0B2319F14
:10209000F90141EA5000E1012F905FFA8BF041EA2B
:1020A00050004FEACB112E905FFA89F041EA5000C0
:1020B0004FEAC9112790309CE0B241EA50095FFA1B
:1020C0008AF0E10141EA50004FEACA1130905FFA0C
:1020D0008CF041EA500A5FFA8EF04FEACC1141EAE7
:1020E00050004FEACE112690D0B2D20141EA500EF4
:1020F000D8B22A9CDB012B9942EA500CEAB2ED01DE
:10210000304643EA5203F2B24FEAC41B45EA520694
:10211000E2B2329CC501384645EA5205CAB2C9014D
:10212000E7B24BEA520241EA57013291C1B2299C0F
:10213000490841EAC410E1B231904808289F29902B
:102140002A9510461D4663467246D446DDF898E04F
:10215000DDF8C0A0CDF8C090DDF89C90DDE92EB48C
:10216000013715E7E548229AE5A13BAB002537AFDB
:1021700000EB0210895C0022102D08D018F80560D1
:1021800008F805207E55465D5E550135F4E7481C8C
:102190009DF8EB109DF8E6B09DF8EF709DF8F39078
:1021A0009DF8F4A09DF8F5E09DF8F6C09DF8F76065
:1021B0009DF8F8509DF8F9309DF8FA2031919DF87E
:1021C000EA1024919DF8E9101D919DF8E8102391E3
:1021D0009DF8E71022919DF8E51030919DF8E410EC
:1021E0002F919DF8E3102E919DF8E2102D919DF80E
:1021F000E1102C919DF8E0102B919DF8DC102891B6
:102200009DF8DD1026919DF8DE102A919DF8DF10D3
:1022100029919DF8EC1027919DF8ED1021919DF8E2
:10222000EE1025919DF8F01020919DF8F1101F916E
:102230009DF8F2101E919DF8FB103291002800F0DD
:10224000558116A9013881E86850CDF86CA0CDE918
:1022500014721C905B46DDE922653298DDF8A0E03F
:10226000DDF898C0249F1D9CC0075BD098F8000043
:1022700098F8011098F8022098F803A080EA0E0060
:1022800088F8000081EA0C002B9988F801002A9850
:10229000504088F80200299880EA0A0088F8030074
:1022A00098F8040048402C9988F8040098F8050034
:1022B00048402D9988F8050098F8060048402E9966
:1022C00088F8060098F8070048402F9988F807001A
:1022D00098F808004840309988F8080098F80900F4
:1022E0004840319988F8090098F80A00584088F861
:1022F0000A0098F80B00704088F80B0098F80C0062
:10230000684088F80C0098F80D00604088F80D00CF
:1023100098F80E00784088F80E0098F80F004840B2
:1023200088F80F00DDF8C4B079005FFA8BF041EA5D
:10233000D01061001390F8B241EAD01069001290F9
:10234000E0B241EAD01071001190E8B241EAD01039
:1023500059001090F0B241EAD0100F90D8B2309AE4
:10236000510041EAD0100E90D0B22F9A510041EAAC
:10237000D0100D90D0B22E9A510041EAD0100C909E
:10238000D0B22D9A510041EAD0100B90D0B22C9AC5
:10239000510041EAD0100A90D0B22B9A510041EA84
:1023A000D0100990D0B2299A510041EAD01008907B
:1023B000D0B22A9A510041EAD0104FEA4C0107905E
:1023C000D0B241EAD0104FEA4E0106905FFA8CF08D
:1023D00041EAD0102890219B2799D8B2400840EAC2
:1023E000C1100590259AD0B2400840EAC31004906D
:1023F000DDF850C05FFA8CF0400840EAC21003904C
:10240000209AD0B2400840EACC1014901F9BD8B25A
:10241000400840EAC21002901E9AD0B2400840EA3A
:10242000C31001905FFA89F0400840EAC2100090A2
:102430001B9A1A9B169CD0B2400840EAC91AD8B21F
:10244000DDF85490400840EAC21E199AD0B2400804
:1024500040EAC31C189BD8B2400840EAC216179A3B
:10246000D0B2400840EAC315E0B2400840EAC213C7
:102470005FFA89F0400840EAC412329C58465FFA7D
:1024800084FB04464FEA5B07640047EAC910CFB2F9
:1024900032907808319427901398249012981D90C8
:1024A0001198239010982290DDE90E0B30900D9832
:1024B0002F900C982E900B982D900A982C9009989C
:1024C0002B900898299007982A90069826900598AE
:1024D0002190049825901498039F209002981F90B3
:1024E00001981E90DDF800901C98A7E640463FB08A
:1024F000BDE8F04F00F059BAD6BB0500D6BC0500C8
:1025000077706860584D473F312A231C150E07002D
:10251000B0B50023102B08BFB0BDC45CCD5C2C440B
:10252000D4540133F6E7F0B589B0144600228DF893
:102530000220102A03D0835CA3540132F9E70DF185
:1025400013050846294600F085F908270DF1020613
:1025500037B120462946324600F050F8013FF7E7F0
:102560000DF103050DF113000DF10202294600F0F3
:10257000ABF920462946224600F0AEFA09B0F0BD7C
:102580002DE9F0418EB0144600220DF116038DF8AE
:102590000520102A05D0855CA554855C9D54013228
:1025A000F7E70DF127050846294600F053F9002604
:1025B0000DF116080DF10507022E02D0082E05D1E7
:1025C0000BE020464146224600F086FA2046294686
:1025D0003A4600F013F80136EEE70DF106050DF16D
:1025E00027000DF10502294600F06EF92046294624
:1025F000224600F071FA0EB0BDE8F0812DE9F047F7
:1026000088B0EA460446894608469046514600F09E
:102610005BF920465146224600F05EFAC549394A28
:1026200000200F280ED8235CCB5C235423180430E1
:102630005E78DD789F78965D4D5D5E70D65DDD706D
:102640009E70EEE748465146424600F03DF90020B4
:10265000102818D2215C1AF800200AEB00067778BF
:10266000B578F67811442154211804304A788B78D3
:1026700091F803C07A404A7085EA03028A7006EB3B
:102680000C02CA70E4E74FF0000C1AA104AABCF1D6
:10269000030F1ED000230F2B09D8E618E55C7778CE
:1026A00007EB4500E054781902337070F3E700231C
:1026B000102B03D0E05CD0540133F9E70023102B3A
:1026C00004D0C85C105CE0540133F8E70CF1010C55
:1026D000DDE700200F2884BF08B0BDE8F08722188E
:1026E000215C537803EB41051944517025540230A5
:1026F000F0E700BF080B0C0F020106050A090E0DDA
:1027000000070403D6BD050010B500220023102BDE
:1027100008BF10BD845CCC54541C0133A21F18BFE9
:102720002246F4E7E0B50A4890F8CA0080070AD5C7
:1027300008480DF107024FF4003103683220984732
:102740009DF8071009B10448807FC0B28CBD00BF5E
:10275000A8084020B40140208C1240202DE9F84305
:102760001D460C9B032B84BF0020BDE8F883144654
:102770000246DDE90A60DDE90889DFE803F0020AC4
:10278000122B0978B9B3022937D001293BD0122086
:102790003CE0318832B906293CBF1E20BDE8F883F1
:1027A00000E0318821F00101318020F03FFA284912
:1027B00040F27122484331885143B0FBF1F0206070
:1027C00000202860C8F800104FF0FF31C9F8001051
:1027D000BDE8F883087801281CBF2020BDE8F883F5
:1027E000308800210230308080B2C82888BF0121A3
:1027F0004801BDE8F883C82006E020F017FA2168F8
:102800004A1C022A15D2282030800020D8F8001057
:102810004A1CEED040F27122B1FBF2F1328821F075
:1028200001019142E5D2052998BF06213180BDE81A
:10283000F88340F271225143054A5043B0FBF1F056
:102840004FF6FE710840062898BF0620DCE700BF5F
:1028500040420F0010B500220023102A05D0845CEE
:102860008C54845C01326340F7E70B7410BD1CB5D7
:10287000ADF80410009000206946062808BF1CBD72
:102880000B5C14181354A3710130F6E7B0B504467D
:102890000025102D08BFB0BDFDF744FD6055013582
:1028A000F7E700F01E0100F4706200F47040063992
:1028B00018BF0121B2F5407F18BF0321B0F5405F7A
:1028C00018BF052108467047F0B585B01446054687
:1028D0000A4600212078102907D0102888BF002040
:1028E0002B5C013053540131F5E7207890B100EBB7
:1028F0000010104B002101AE1230102906D04718ED
:10290000FFB2DF5DDF5D77540131F6E701A91046C4
:10291000FFF7FEFD0020112806D0295CCA0042EA1C
:10292000511129540130F6E720780130207005B0AC
:10293000F0BD00BFD6BA05000278173A0A70427897
:1029400082F0E5024A708278213A8A70C27882F079
:10295000C102CA7002794D3A0A71427982F0A70227
:102960004A7182796B3A8A71C27982F08302CA71A4
:10297000027A82F0E9020A72427A1B3A4A72827A39
:1029800082F0DF028A72C27A3F3ACA72027B82F018
:10299000B3020A73427B593A4A73827B82F09502F2
:1029A0008A73C07B7D38C873704784B00022694643
:1029B000102A03D0835C8B540132F9E70F22531C99
:1029C00004BF04B070478B5C013A00F8013BF6E7A6
:1029D0000288052922F0E103038006D003290BD1E8
:1029E0004FF440714FF21E0303E04FF4405140F6A4
:1029F0001E731A40114301807047F0B501F00205C3
:102A00000124860752B284EA55044FEA440448BFC1
:102A1000022411F0040104F1040608BF34464707FC
:102A200048BF3446002D04F5807608BF3446C705FC
:102A300048BF3446002A58BF3446002944F4007683
:102A400008BF3446870548BF3446002A58BF34467D
:102A500013F0010344F4805208BF1446002D08BF50
:102A60001446C50448BF1446002B44F4005208BF66
:102A70001446002908BF1446800448BF1446A0B27B
:102A8000F0BD10B500F018024405134661F38A2327
:102A900058BF13461A46040561F3CB2258BF1A46A5
:102AA0004B08144663F38E34430458BF1446890719
:102AB000214648BF41F40041000458BF214688B276
:102AC00010BDB0B50023102B08BFB0BDC45CCD5CF9
:102AD0006C40D4540133F6E7F0B500230F2B88BFC8
:102AE000F0BDC45CCD5CCE186C40D454C41865787D
:102AF00077783D44D71804337D7094F802C0B578D8
:102B00006544BD70E478F5786C40FC70E6E770B51C
:102B10001446054608200022002809D455F8203024
:102B20000026E3FB012644F8202001383246F3E773
:102B3000204657F043F9A86AA0622046BDE87040DD
:102B400057F060BF2DE9F04F9FB00DF12C0A894678
:102B50008346502190465046FDF733FE0AF144006B
:102B600009F120014FF0080C0023BCF1FF3F17DDF5
:102B70005BF82C400027002517F108060CD450F80C
:102B8000272051F82760521943F10005E6FB042580
:102B900040F82720013FEFE70438ACF1010CE4E7EF
:102BA0000020122804D05AF8201011B90130F8E79B
:102BB0001220C0F11202D9F82800DBF828100024F6
:102BC0001D920B1A18BF01231E935AF82410601C83
:102BD000082C02D800290446F7D0082A0A9315D8F1
:102BE000A0F1010715D1204C0AF128020023082B7F
:102BF0000CD004EB830652F823500133B66AAE4280
:102C0000F5D003D305E05AF8201001300029FAD09E
:102C1000471E6E460AEB870124223046FDF7AAFDC7
:102C2000304657F0CBF807F10904371D304657F00E
:102C3000E9FE112C0CD8304639462022FDF79AFDCA
:102C40005AF824000890304657F0B8F80134EDE700
:102C5000694640462422FDF78DFDDDE90901C8E9FA
:102C600009011FB0BDE8F08FB0F9050070B51C4C2C
:102C70002069400023D4B248017F81BB0121017744
:102C8000206940002BD4FEF739FE1D4D1D4E2E63EA
:102C9000206940F080502061FFF738F8FEF7B4FC5F
:102CA0003420F0600026286B40692F2E13D810F0D6
:102CB000020010D00136FEF7A7FC286BF4E74FF0B6
:102CC000F5F8084808A140F25D124DF041FDBDE85D
:102CD00070404FF005B9206840F00100206070BDE1
:102CE00000F0004027EC05004442475F54726967DA
:102CF0006765725F49525148616E646C657200008D
:102D0000CC03402000B00040B0B5104C25684FF017
:102D1000CDF8A80716D5DC480121002290F8340030
:102D200001FA00F06168084340F6FF7160600848EE
:102D300000686FF31F30B2EBD02F18BF484008B1C6
:102D400004490860BDE8B0404FF0CAB800C0004078
:102D50009840084090270840F0B594460023082486
:102D60000025002C14D451F8247050F824607A19EE
:102D7000B21A4CF824207A19A4F1010443F1000599
:102D8000B21A73EB05024FF0000538BF0125E8E7E2
:102D90006046BDE8F04057F011B8000070B5064637
:102DA0000D46886A1446B16A41B170B12846314671
:102DB00015F09AFE78B12846314616E070B13046DB
:102DC00029462246FEF786F812E03046294622467A
:102DD000FEF780F81FE03046294619E030462946C4
:102DE00015F082FE90B1304629462246FFF7B4FF27
:102DF00000200C49A062204615F076FE28B1094952
:102E00002046BDE8704000F00FB870BD284631463E
:102E10002246FFF7A1FF0120A0622046BDE87040D6
:102E2000FEF78EB884C00500F0B500220823002408
:102E3000002B15D451F8236050F823503719A419EA
:102E400042F100062C1BA5EB070772EB060440F8C5
:102E50002370A3F101034FF0000438BF0124E7E71A
:102E6000BDE8F04056F0AABF70B58CB004460D46E0
:102E7000886AA16AB1B1B0B12846214615F034FE86
:102E8000E8B101AE284621463246FFF765FF2046ED
:102E900031462422FDF76EFC00200A996162A0628F
:102EA0000CB070BD30B1204629460CB0BDE8704072
:102EB000FDF7F6BF2046294615F016FE30B1204634
:102EC00029460CB0BDE87040FFF7AEBF01AE284602
:102ED00021463246FFF740FF204631462422FDF7C7
:102EE00049FC0120D9E70000F8B54EF0DFFF134898
:102EF000144E016864494A6C01324A64B7688168BB
:102F0000890602D452F014FC13E0456A7C1CFEF7DB
:102F100001FD0246204629464CF02AFBB84208D063
:102F2000054652F005FCA54203D052F001FCB81C46
:102F30007060BDE8F8404EF0D3BF00BF24000440ED
:102F40005802402050034020B0B588B04A49494853
:102F50000DF11E020160D0F8801041F03F01C0F871
:102F60008010182001A9ADF81E000B20FEF734FCDC
:102F7000424CA8B99DF80500800711D59DF81400B2
:102F800002280CD001280BD1D4F8BC0080F30A88A9
:102F9000D4F8BC008546D4F8C000874600E0FEE7C0
:102FA0004CF0B4F902F0C8FF54F8440C344900F076
:102FB00003000338B0FA80F04FEA5010087056D181
:102FC00053F00EFA2F48016841F00051016020686B
:102FD00020F002002060206820F001002060FEF751
:102FE000ADFBFDF7CFF82848012404754EF080FDB5
:102FF000FDF705F96A4890F8E400C00709D0694870
:1030000001AA01210368392098479DF8040000288F
:103010002DD01E4A506C80F31088D06C80F311883C
:10302000906C80F31388106D80F31488906D80F39A
:103030000988D06D80F30B88506D80F30888106E7E
:1030400080F30A8812480460D2E90F34956D84F346
:10305000008885F30988194602B4114601C901B4F4
:103060000846B0E8FE1FD0F804E001BC00BD08B07F
:10307000B0BD00BF08ED00E00000000044000440C7
:10308000B81B402010F0004058024020501740204C
:1030900000E100E080B588B004AF0FC70D980E9A2C
:1030A000694603900C9802900B9801900A98009042
:1030B00004A8FFF706FD08B080BD000018B1C1B23A
:1030C00019B101200EE00020704710F47F4102D0BA
:1030D000090A092006E010F47F0107BF010E19203C
:1030E000090C1120014A515C0844704774BF050067
:1030F000002070470022F22809D080B90A4801292F
:103100000A4A18BF0020002918BF024607E00848F5
:10311000012908BF02460748002908BF02460648A1
:10312000002A18BF104670477CD5050064D50500FD
:1031300034D505004CD5050074C2050070B50446B1
:10314000FDF720F804F114060546304652F080FDE4
:10315000304652F045FC208A20F0020020822846AA
:10316000FDF714F8606C2146BDE8704001F09CBB8F
:10317000E0B5C94890F89400400709D509480DF119
:10318000070204210368252098479DF8070030B105
:103190000549C86A18B1054A898F126890478CBDE5
:1031A000A8084020B801402008004020B800402076
:1031B0002DE9F04385B00C4605460A2800D81CB915
:1031C0002E48F12153F089FB0A2D2AD82C4E06EB0C
:1031D000850004612B480168284688470446701919
:1031E00080F854400120A84006EB84052F4657F88C
:1031F0003C1F57F8382C40EA020047F8380CC9BB8E
:1032000021A000210022002651F0AEF9A864022C72
:10321000254628BF022506D3254851F019FF04464C
:1032200027E0032027E019480DF1080818A20A2119
:103230002B46ADF81060CDE90266D0F8009040460C
:1032400051F062FB14204946224640F2645301903B
:1032500012A010F825000090404651F0E5FD04460C
:1032600018B1204652F032F903E00FA0502153F07C
:1032700031FB3C60002005B0BDE8F083E2F10500C1
:10328000C0104020780040204B4500007C004020CA
:103290004B455F45565425640000000006000000C1
:1032A000040000000300000072775F6F732E63005C
:1032B00052F7050010B50B2809D2012101FA00F4DC
:1032C000FCF760FF68490A68A2430A6006E05248BA
:1032D00040F2231153F001FBFCF754FFBDE810400E
:1032E000FCF754BF6048002101607047B0B5044648
:1032F0000B2804D348484FF49A7153F0EEFAFCF7C8
:1033000041FF59490D68FCF741FF002025FA04F1FF
:103310000B2C38BF01F00100B0BD00BF524800685F
:10332000704700BF80B550486021FDF74AFA80BD64
:1033300070B54D4D384C286888B1B0FA80F080F0F7
:103340001F060B2E04D3204640F2591153F0C5FA44
:1033500005EB860000690028EDD08047EBE770BDE3
:103360002DE9F047DFF80091DFF8AC80824616487F
:10337000D9F800700568044617EA0A0008BFBDE8DE
:10338000F087B0FA80F080F01F070B2F04D340467F
:103390004FF4C97153F0A1FA09EB8700006900B13D
:1033A00080472068D9F80070461BFEF795F9002881
:1033B0004FF4803008BF44F620608642DCD94EF0DE
:1033C0000DFC2046D6E700BF4800044070B5044617
:1033D0000B280CD2244E301990F85450012000FADA
:1033E00004F4FCF7CFFE3168214331600AE00A485B
:1033F00040F20F1153F071FA1B48204490F85450DA
:10340000FCF7C0FEFCF7C2FE174800EB8500806C9D
:10341000BDE8704051F096B9E2F105000A280DD8D8
:10342000074A00210B2909D012F8113001318342DB
:10343000F8D102EB410010F8010C704702207047F0
:1034400094D505000849C0B2084E01EB8000041D68
:1034500000F1480528684FF0FF3151F0A9F93168B3
:1034600020688847F6E700BFC01040207000402069
:10347000E0B5094890F8A10040060AD507480DF1CB
:1034800007024FF480410368282098479DF80710F1
:1034900001B100208CBD00BFA8084020B40140202D
:1034A0000020704780B5414A12689047002818BF35
:1034B000012080BD1CB53D4A12689047B0B104465A
:1034C00050F8041F013107D003F08AF820B1684694
:1034D00002F08AFF02F0D6FF39482146103002F090
:1034E00085FE2046BDE81C4015F0CABF1CBD00BFCC
:1034F00010B50446C1898089FF2216F0D3F93048FF
:10350000043C2146103002F071FE2046BDE8104018
:1035100015F0B6BF10B52A4800F11004204602F09D
:10352000C8FE10B115F0ACFFF8E710BD0246244804
:103530001030006838B1038A9342FAD1438A8B4233
:1035400008BF7047F5E70020704700BFF8B5064692
:10355000164814460F460268304690470546B0B9F3
:103560001420012116F0D6F8054618B910A0A221A2
:1035700053F0B0F911494FF0FF306F822E82096885
:10358000C5E901010E482946103002F09CFE002CCE
:1035900008BF01246FF00040844228BF0446281D64
:1035A0002146BDE8F84003F099B800BF98004020DC
:1035B0006B655F74696D65722E630000900040203A
:1035C0008805402070B5154E0446002596F8480041
:1035D000854228BF70BDF06C00EBC50149688A6860
:1035E0001AB150F83500214690470135EEE700BF8B
:1035F00070B50A4E0446002596F84800854228BF5B
:1036000070BDF06C00EBC50149684A681AB150F80A
:103610003500214690470135EEE700BFBC0640204B
:1036200080B5202905D0212906D1D0B250F020F84C
:1036300002E0D0B250F006F8002080BDF8B51C467C
:1036400015460E46074628B90AA00EA140F2BA2236
:103650004DF07EF8052EC4BF0020F8BDB8190EA2AB
:10366000214690F84030284601B0BDE8F04051F0C6
:103670004BB900BF706D20213D2052545F4E554C18
:103680004C0000005F72745F706D5F646576696303
:10369000655F7265616400002564000080B553B108
:1036A000107828B1012806D1C8B24FF0E1FF02E03E
:1036B000C8B24FF0C7FF012080BD000010B504461E
:1036C00020B90A480AA14B224DF042F8A06A0178BD
:1036D000232906D1E169814203D9E26A104481427B
:1036E00003D9FCF74FFD00B1FEE710BD6BEF0500FD
:1036F0005F72745F7363686564756C65725F737421
:1037000061636B5F636865636B0000007CB5069D59
:1037100000F12006044614302EC6C4E90500184600
:1037200023212A464EF062FF04F120030FCB1A44F6
:10373000164B043A4EF0BEF9A16AE0610160DDE982
:103740000756082D04D312A01AA199224DF000F8B3
:1037500000201C4A21462346C4E90E06266484F84C
:10376000355084F83650C4E91D0084F834002063D5
:10377000CDE9000004F1440052F08CF912480168D0
:1037800019B12046BDE87C4008477CBDF94F0500D3
:103790007072696F72697479203C2052545F54488A
:1037A000524541445F5052494F524954595F4D412F
:1037B000580000005F72745F7468726561645F69CD
:1037C0006E697400F555050030134020012898BF3C
:1037D0004CF01EBE80B503A0B52153F07EF800204A
:1037E00080BD00BF72775F6F735F746C2E630000E3
:1037F0002DE9F04F87B0DFF8949E804699F8940049
:10380000C0060CD5DFF80C0601AA10214346046857
:103810002520A0479DF80400002800F0F782DFF87B
:103820000C5C122105F11800FCF7CBFFDFF8E8056E
:103830000068804728461821FCF7C3FFDFF8C80B53
:103840002421FCF7BEFFDFF8D805DFF8D8150268A1
:1038500004209047DFF8D00500688047DFF8AC7B94
:10386000F96919B1BA8E002015F06EFF396A19B1E5
:10387000FA8E012015F068FF796A19B13A8F02209B
:1038800015F062FFDFF8A4150820012216F0D2F827
:10389000002054F047FB002002F01EFC002002F044
:1038A000CFFDDFF8FC4DA06F08B115F0E9FDDFF8A2
:1038B00074ABDAF8000008B115F0E2FD3820002101
:1038C00015F028FF3821A067FCF77BFF4CF03CFD8A
:1038D0001424002104EB800015F01CFF0646CAF8F2
:1038E00000004CF031FD04EB80013046FCF769FF2D
:1038F0004CF024F899F8950000070AD5DFF8A80DD8
:1039000001AA4FF400610368252098479DF8040040
:10391000E8B101A854F06AFD06200DF11B0104AACC
:103920008DF81B006D480468DFF8E80ABDF8085000
:10393000019E0368012098477119DDE904230028DE
:1039400021440A4408BFD1180846FCF7F5FC0020C2
:10395000002405F0DFFB002004F0C4FB0020FFF78B
:1039600035FFDFF8486D4FF47F410022A6F8431081
:1039700000213061242907D07318D5430C3101325E
:1039800083F822509C61F5E780688047DFF8A8043F
:10399000DFF8A8240021C6E90012C6E9021030466B
:1039A00006F098FC002008F051FD99F8B800C00717
:1039B0000BD0DFF8F40C01AA012103682E209847F0
:1039C0009DF80400002800F0D6814CF0B7FC0028D8
:1039D00000F0D181002002F095F8D9F84440DFF8DA
:1039E000285A60060DD5DFF8C00C01AA40210368F3
:1039F000112098479DF80400002800F05E81D9F856
:103A0000444005F14C0B28215846FCF7DAFEE0074C
:103A1000334E0BD0DFF8900C01AA0121036811206E
:103A200098479DF80400002800F08180042004A934
:103A300001AACDF800808DF81000DFF8D8090368DE
:103A400030209847274918B9019840F08030086520
:103A5000DFF8BC5906F10C094FF0000A4FF01008CE
:103A6000288D698D091A91FBF8F18A451FDA0AF150
:103A7000010409EB0002B4FBF1F303FB114100EB7D
:103A80000110800822F80C0C01F0B2FF298D00898A
:103A9000494421F8020C0AEB8A00A246A98D01EBE9
:103AA0008000298D29F8010009F11009D8E7DDF817
:103AB0000080DFF8D89BDFF86CA9063600244CF0B4
:103AC00043FC073084420FD2E88CE2B20134315A11
:103AD00021F01F01114331526036F0E718E000E099
:103AE0000080402000040940288DD64A0D21CB4D8E
:103AF000D34E80089062106861F305001060D348CF
:103B0000D0604FF0FF305061D2F8900000F07F009D
:103B100085F86E00D2F89000C0F3062085F86F009B
:103B20004430116841F48071116085F87000C14C17
:103B300000200DF11B015A4685F86D000620236810
:103B40008DF81B000120984728B1C1488188006882
:103B5000A5F85010E8640820236805F155020DF11E
:103B60001B018DF81B002D20984728B1B948C5F8D6
:103B70005900B948C5F8550005F16501584627F0C8
:103B8000AFFB99F85C00800608D5A94801AA20215E
:103B90000368172098479DF8040010B10020CAF868
:103BA000600099F86000000608D5A14801AA8021AC
:103BB0000368182098479DF8040040B10020F021C8
:103BC000CAF86400A048808E3044FCF7FAFD99F8EA
:103BD0006400000608D5964801AA802103681920D0
:103BE00098479DF8040010B10020CAF8680099F8C1
:103BF0006D00800709D58E4801AA4FF40071036853
:103C00001B2098479DF8040010B10020CAF86C00F2
:103C100099F84C00C00708D0854801AA0121036823
:103C2000132098479DF8040028B3DAF8540008B12F
:103C300015F026FC4CF088FB8000002115F06AFD91
:103C40000546CAF854004CF07FFB81002846FCF77B
:103C5000B8FDDAF8580008B115F012FC38680021F8
:103C60004078800015F056FD3968CAF85800497848
:103C70008900FCF7A6FD99F85800800708D56C4824
:103C800001AA02210368162098479DF8040020B17C
:103C90000020CAF85C0023F073FC99F878008007D4
:103CA00008D5634801AA022103681E2098479DF8A1
:103CB000040010B10020CAF87000684DA86908B16E
:103CC00015F0DEFB28465421FCF77BFD4CF03CFB55
:103CD00000EB400000210024400015F01BFD0646CB
:103CE000A8614CF031FB00EB400041003046FCF78E
:103CF00068FD02214FF0FF3001222975C5E900005F
:103D000047F6FF7056492881022015F093FE0220E5
:103D1000002115F023FE16F0DFF8DAF8440008B1B0
:103D200015F0AEFB4F4EB0478000002115F0F2FCBD
:103D30000546CAF84400B04781002846FCF741FD1B
:103D4000B047388307F110010120002215F072FE00
:103D500000254CF0F9FA854203D2786944550135C3
:103D6000F7E700201DF0F8FC1AF04CFC45F01EFEB1
:103D7000002045F063FD3C484FF4C6714030FCF72D
:103D800020FD002052F0ACFD002000F095FF002047
:103D900054F092FE002055F05BFC002055F052F9E3
:103DA000002054F0A7FC002055F09AFE002002F0FD
:103DB00047FBB8F1A53F05D0B8F1000F23D0B8F10B
:103DC000C33F0FD14FF4885000214FF61142012319
:103DD00015F0DEFCB8F1A53F11D0B8F1C33F10D10A
:103DE00000210DE041F2021000211022012315F004
:103DF000CFFC0221B8F1F23F08BF012100E003210E
:103E0000017011F0A7FB19480068804707B0BDE8B2
:103E1000F08F00BF9801402068004020140540202A
:103E2000540040206D9A01008400402038BF0500F6
:103E3000B8014020B4004020F1A8000009A3000010
:103E40000080402000040940F800402016000100D6
:103E5000D8C005000100008000002530201140205E
:103E600044BF05004903050084134020A8004020FA
:103E70002DE9FE4FDFF8149899F89500C0060CD58F
:103E8000DFF8240801AA4FF48051036825209847E1
:103E90009DF80400002800F0AD824CF081FAE8BBE8
:103EA00099F8C50040070AD5DFF8FC0701AA4FF4CE
:103EB00080610368312098479DF8040070B30420A6
:103EC00001A90DF10202ADF802000620FDF784FC05
:103ED0009DF80710DFF8C8078172F9B199F8C4009E
:103EE00000060AD5DFF8C0070DF10B028021036838
:103EF000312098479DF80B0030B1D4488021002331
:103F00006022C0E9003182604FF4004054F018FA9A
:103F1000CF484FF48021C0F880110160FCF732F9DE
:103F20008046DFF8D80400688047DFF8D404002119
:103F3000C0E90511C0E90711012002F081FA012052
:103F400005F0E8F8012004F0CDF8012008F07EFA31
:103F5000012053F0E7FF99F8B80080070BD5DFF890
:103F6000480701AA022103682E2098479DF8040003
:103F7000002800F00E824CF0E1F9002800F00982E0
:103F8000012001F0BFFDD9F84440B24F20060DD505
:103F9000DFF8140701AA80210368112098479DF8D3
:103FA0000400002800F08781D9F84440DFF858B4B5
:103FB00028210BF14C0A5046FCF703FCA007A64D44
:103FC0000AD5DFF8E40601AA022103681120984708
:103FD0009DF80400002869D0386820F480703860AB
:103FE000386840F00040386038680028FCD4D7F8C2
:103FF0008002DFF8C41F20F00100C7F8800207F537
:10400000047009684978013131B10268013922F43C
:10401000804240F8202BF7E7DFF8F473C14605F142
:104020000C064FF000081025388D798D091A91FB88
:10403000F5F188451CDA08F101043218B4FBF1F3FC
:1040400003FB114100EB0110800822F80C0C01F079
:10405000CFFC398D0089314421F8020C08EB88002F
:10406000A046B98D01EB8000398D70521036DBE728
:104070008008784FC846DFF8209F774DB8627748B0
:10408000F8604FF0FF30786140F60D603860D7F887
:10409000900000F07F008BF86E00D7F89000C0F31E
:1040A00006208BF86F0044308BF87000DFF8644313
:1040B00006200DF1020152468DF80200012023680E
:1040C000984738B1DFF8500381880068ABF850108A
:1040D000CBF84C00082023680BF155020DF10201CA
:1040E0008DF802002D20984728B1CC48CBF8590014
:1040F000CB48CBF855000BF16501504627F0F0F89E
:1041000099F85C00000608D5BB4801AA8021036825
:10411000172098479DF8040030B1C24C206E18B1AA
:1041200015F0AEF90020206699F86100000709D566
:10413000B14801AA4FF400610368182098479DF820
:10414000040060B1B74C606E18B115F099F9002009
:104150006066AF48F021808E2844FCF732FB99F866
:104160006500800709D5A44801AA4FF400710368CF
:10417000192098479DF8040030B1AA4CA06E18B1E0
:1041800015F07EF90020A06699F86D00400609D56B
:10419000994801AA4FF4804103681B2098479DF875
:1041A000040030B19F4CE06E18B115F069F90020A1
:1041B000E06699F84D0080070AD58F4801AA4FF4B0
:1041C00000710368132098479DF8040000284DD023
:1041D0004CF0BAF8934C461E701C00281FDD606D31
:1041E000D8B150F82650C5B1D5F8E40068B1D7F879
:1041F000D41021F40031C7F8D410D7F8D41021F42A
:104200008031C7F8D41015F03BF9D5F8E00008B1BB
:1042100015F036F9284615F033F9013EDCE7656DF7
:104220004CF092F881002846FCF7CBFA774D2868CD
:104230004078461E701C002812DDA06D20B150F899
:10424000260008B115F01CF9013EF3E79427084059
:1042500000E100E000040940008040201600010059
:104260002968A06D49788900FCF7ABFA99F85800E5
:10427000400708D5604801AA042103681620984722
:104280009DF8040040B1674CE06D18B115F0F8F8E6
:104290000020E06523F074F999F87800800708D5CC
:1042A000554801AA022103681E2098479DF8040082
:1042B00008B126F0C9FB5C4D5421AC692846FCF7D7
:1042C00080FA4FF0FF30AC6100210027C5E9000003
:1042D00047F6FF70288102202875022015F03EFB6A
:1042E00015F0FAFD082054F00DF84E4C474D00260D
:1042F0004CF02AF886421CD2616C51F82620A2B1FB
:10430000D2F8640120B115F0BBF8616C51F8262099
:10431000D2F8840010B115F0B3F8616C51F82600A2
:1043200015F0AEF8606C40F8267068698755013664
:10433000DEE701201DF010FA0026324F2868407891
:1043400086420ED2A16C51F8360010B115F098F8E3
:10435000A16C01EBC600406808B115F091F8013678
:10436000ECE71AF04FF9002628684078864207D219
:10437000206D50F8260008B115F082F80136F3E7F9
:1043800045F014FB012045F059FA386840F480707C
:104390003860C0484FF4C6714030FCF712FA012073
:1043A00052F09EFA012000F087FC012054F084FBBB
:1043B000012055F04DF9012054F044FE012054F045
:1043C00099F9012055F08CFB184D284601F071FF3A
:1043D00010B115F005FAF8E70835284601F069FF35
:1043E00010B115F0FDF9F8E7B44800688047404681
:1043F000FBF7CCFEBDE8FE8FB801402094004020C2
:10440000B00440200004094014054020080040206A
:10441000F8004020B4004020D8C005000100008012
:1044200000002530D4024020201140208805402083
:104430002DE9F04385B0DFF8308F98F89B00C00776
:104440000CD093486A464FF0807103682620984745
:1044500004469DF80000002800F0CD808D4E3068A5
:10446000C10706D18C480068804708B10024C2E02B
:104470003068002840F0BE80B56A3069B6F82C90EC
:10448000B5F1FF3118BF4946421C10D06A1C0AD052
:10449000421B824B22F070429A4204D8A84207D1B4
:1044A000B28A914204D9B6F81490054600E08946D4
:1044B0007068411C26D07A49097801443089A0F5FA
:1044C000876000B2B0F1FF3F0ADC6FF41C7240F26B
:1044D000712390FBF2F2013202FB030092B2891ABF
:1044E00021F070426B1C0AD0491B6C4B21F07041CB
:1044F000994204D8AA4207D181B2894504D9154608
:10450000814601E0681C29D0684653F06FFF00988F
:1045100062492F1A27F070448C426BD8854205D12E
:104520001FFA89F0BDF80410884263D998F89B00FF
:1045300000070BD55B4803AA4FF0006123460568CE
:104540002620A84705469DF80C00E0B34BF04EFF2F
:1045500038B1B8026421B0FBF1F534E0D6F8CC51A3
:1045600052E04BF025FF054698F89A00400609D521
:104570004D4803AA4FF480010368262098479DF810
:104580000C0060B1042003A90DF11202ADF8120075
:104590000220FDF721F9039808B1C6F8D801A4FB61
:1045A000050143F69822A0FB024001FB020553F0EF
:1045B00011FE02462046294600230027FCF7A9F8F1
:1045C000851F38BF3D461FFA89F0BDF804108842A8
:1045D00005D2081A401054F033F8281A04E0401AA3
:1045E000401054F02DF82844D6F8D4111138013178
:1045F000884204DA0124E0B205B0BDE8F083D6F8C1
:10460000CC51A84238BF0546284F00240120C007DE
:1046100005D024B93869C06880470124F7E748B35A
:1046200023480560234D98F89B00800709D51E4854
:104630006A464FF000710368262098479DF80000F5
:1046400060B11D4800683062D5F8F40370622868D4
:10465000F061002028604FF0FF30A86002244FF086
:10466000FF302C60A860022053F06AFE1348406BB4
:104670008047C0E707F11005002C3FF4F7AE55F86E
:10468000480B80688047013CF6E700BFA80840203F
:10469000B40140208413402060004020FEFFFF074B
:1046A0005802402094014020B8014020800C402056
:1046B00030000440180009400C0809406C154020E7
:1046C0002DE9F0415F4D297801291CBF0120BDE88B
:1046D000F081411EC9B28E2925D855F05DFE10B378
:1046E0006C68012190F801802D89E18004F10807B0
:1046F000A688417801440231CA1B93B2B34205D85F
:10470000B21A130402D092B2FCF734F8A6EB0800F8
:10471000861EB1B27818691AFCF753F80020A680FB
:10472000E080BDE8F0810220BDE8F081B0B50D4623
:104730004449097801291CBF0120B0BD411EC9B2FE
:104740008E290CD8144655F027FE40B141782970C7
:10475000811C42782046FCF70DF80020B0BD0220F5
:10476000B0BD00BF10B5374C2181606055F0E8FD49
:1047700000B110BD0121217010BD00BF01207047A4
:10478000F8B5304F0646387801281CBF0120F8BD27
:10479000701EC0B28E2884BF0220F8BD3046144679
:1047A0000D4655F0F9FD68B141787E68A9420FD1F8
:1047B000012102302A46F1802146FBF7DBFF002071
:1047C000F080F8BD30462946224655F09DFDF8BDE3
:1047D00007D2B3883A892B44591A9142C4BF0320A7
:1047E000F8BD0649067809683046884730462946AC
:1047F000224655F089FD0020F8BD00BFB0004020E2
:1048000070B5104E05463078012805D10C46318927
:10481000A1F10800A04201D2012070BD7068FBF731
:10482000D0FF55F08DFD00B170BD7668012029469E
:104830002246F08006F10800FBF79CFF0020B480C0
:10484000F08070BD740C402070B50446406CB8B167
:10485000218ACA0717D188071AD5FBF793FC04F100
:1048600014060546304651F0F3F9304651F0B8F8D9
:10487000208A20F0020020822846FBF787FC07E010
:104880006FF015050EE0214651F0E4FD054648B9EC
:10489000FBF778FC218A0025656421F00101218263
:1048A000FBF774FC284670BDF8B50E460446FBF7CE
:1048B00069FC0546308AC0071BD1A068B04218D0F9
:1048C00030464DF062FBD4E90107016831604E606B
:1048D000318A06607060284641F001013182FBF7A1
:1048E00055FC27B9E06A50F011FD4FF061FD002042
:1048F000F8BD2846FBF74AFC6FF00600F8BD000043
:10490000044620B91D481EA139224BF021FFDFF8D3
:10491000D48C04F10C054FF000092068A04205D1A9
:10492000D8F85C0050F026FE4FF042FDFBF72AFC61
:104930002768064638464DF028FB388AA76020F0E5
:10494000010038823046FBF721FCD7E902213846C6
:104950009047FBF717FCC4F80890FBF717FC4CF0E6
:10496000B7FD28464FF0B6FF023003D128464FF07E
:10497000E9FEF6E74CF0B8FDCFE700BF7DEF05009C
:104980005F776F726B71756575655F74687265616D
:10499000645F656E7472790070B5044690F82C00FF
:1049A00001281ED020BB002594F82D2001230126CC
:1049B00084F82B50C4F82750C4F82350C4F81F5073
:1049C0008878A07700F03F00098810432246A0773E
:1049D000204622F81C1FA16900F018FA84F82C6008
:1049E0000BE0A07F01254871A08BA1F8030004E033
:1049F00003A09A2151F071FF0025284670BD00BF29
:104A00006165735F7270612E6300000070B50E46C1
:104A100002211C46154614F07DFE4461C0E9016583
:104A200070BD0000F0B589B0044690F8322090F8CF
:104A30003300904215D2228E04F12005A2EB001023
:104A4000A2690244284600F0FDF9E16920462A46A1
:104A5000012300F0DBF994F83300013084F83300CF
:104A600070E0FD280BD8FE20102284F8330004F1FA
:104A70002000FBF77FFEE169344A20465FE0FF2813
:104A800001D101205FE0FF2005AA258E84F83300C4
:104A9000084691F90F60114600F0A4F905F00F05E2
:104AA000B6F1FF3F05DC9DF8140080F087008DF81B
:104AB00014005DB305A89DF92360014600F092F94A
:104AC000B6F1FF3F05DC9DF8140080F087008DF8FB
:104AD000140001A885F00F034FF0000C4FF0800E7A
:104AE0000026411B00F10F021031102E17D0AE42EC
:104AF00003D2A769BF5D8F5505E0B54214BF82F8A8
:104B000000C000F803E0013A0136EEE794F8320005
:104B10000028CFD0A16901A81022FBF72BFE01AD20
:104B200005AA2846294600F08DF904F120062946F9
:104B30003046324600F086F9E169204632460123CC
:104B400000F064F9002009B0F0BD00BF74C005009A
:104B500010B50124038680F83340C0E9062103F133
:104B60000F0100220909C0E90922C26280F832104F
:104B7000014641F8202FBDE81040FFF753BFF8B5BC
:104B80000C46054638200021FFF740FF00F11807CA
:104B90000646294610223846FBF7ECFD06F12805AB
:104BA000214610222846FBF7E5FD304639462A46C5
:104BB000012301B0BDE8F04000F028B9FFF732BF93
:104BC000F8B50B461049114A04465420FFF71EFF62
:104BD00005460FA0D0E90112C0682E4605F1340742
:104BE000C5E9121228650A482146102246F8440FEA
:104BF0003846FBF7BFFD284631463A46102301B040
:104C0000BDE8F040FFF7A4BF214C0000D1470400ED
:104C10003147494200000000000000000000000091
:104C2000FFF700BFF8B513460C461149114A054677
:104C30005C20FFF7EBFE00F1340706462946102200
:104C40003846FBF797FD06F1440521461022284619
:104C5000FBF790FD002029463A46102386F85800BD
:104C600005487065304601B0BDE8F040FFF770BF01
:104C70007D4C0000D14704003347494270B50D46D2
:104C80000446FFF7CFFEA0B194F85810012001B1FF
:104C900070BD04F1440684F85800294610223046BD
:104CA000FBF768FD04F15402204631460423FFF768
:104CB0004FFF002070BD000010B540B1604C20686F
:104CC00028B1204601F0F5FA14F0DAFBF7E75C486A
:104CD00000210172C0E9001110BD00BFF0B589B01C
:104CE0000C460546002701AE082F05D0FBF71AFB3E
:104CF00046F827000137F7E706F1100130462A464B
:104D00002346FFF73CFF09B0F0BD000070B50B462D
:104D10000F49104A05463020FFF778FE0446402030
:104D20001C26A56104F11C0584F82D002C2E04D04E
:104D3000FBF7F8FAA0550136F8E7A16920462A46A4
:104D4000012300F063F8002084F82C0070BD00BF40
:104D500099490000497104002DE9F84300F11C084D
:104D6000054603224046FBF702FB10B395F83C4092
:104D700095F83D60DFF868900134E0B2B04216D299
:104D800005EB00104946102200F13E073846FBF7BC
:104D9000EEFA0028F0D005F12C022846394601230E
:104DA00085F83C4000F032F80020BDE8F88385F833
:104DB0003C40AC6984B195F83C1095F83D306A6987
:104DC00005EB01109942434600F13E0000904FF080
:104DD0001F0038BF0020A0470120BDE8F88300BFB6
:104DE000E4C0050010B5002212F10F0309D08318AA
:104DF0009C7BDB7BE40944EA43038C18013AE373B0
:104E0000F2E700784000087010BD00002DE9F04185
:104E10000B4F04460E46984615462146384601F08B
:104E200052FAC4E90365387A08B1BDE8F08101207F
:104E30002946424638723046BDE8F04152F0FEBD88
:104E400024074020B0B50F235C1C012CB8BFB0BDB7
:104E5000CC5CD55C6C40C454013BF5E710B5054C07
:104E60002068400005D4FCF749FD206840F08050E0
:104E7000206010BD10F000407CB516460D4601AA1A
:104E80000121044641F0D0FB00B17CBD0198817E38
:104E900001F003010229F8D1EA8847F6FE73B11A3E
:104EA00089B2994202D84078282108E0691C20463E
:104EB00031F0E0FA0028E8D001982421407831F060
:104EC00093FC7CBDBCB514460D4601AA012141F0FE
:104ED000ABFB00B1BCBD0198817E01F00302022A48
:104EE000F8D16B8841F003016A788176E11A47F6C0
:104EF000FF7389B2994238BF28224078D1B231F08D
:104F000073FCBCBD7CB5B04C94F8B400400709D527
:104F10009A480DF10602042103682D2098479DF858
:104F2000060018B31D4D6E68F00306D54FF48030AF
:104F3000A8602020696D53F065F9300616D58020F1
:104F4000A86094F82C00400709D58C480DF10702A1
:104F5000042103680B2098479DF8070030B1104EDC
:104F600096F82C0018B1002086F82C007CBD06F1C4
:104F7000240001F09EF90446802053F0C3F900207C
:104F80006073286820F080002860706A0028EDD0E7
:104F900038F0E4F97CBD00BFA80840200C080940A7
:104FA00044044020074890F94000704701460548F6
:104FB00028221C30FBF7DEBB0800402001481C30D3
:104FC000704700BF0800402070B54BF0E9F9012898
:104FD00040F09A8051485221534B0324554D1C26D2
:104FE00041610160416001614D49086820F47870B9
:104FF0000860086840F438700860086840F4006091
:105000000860086840F001000860C86B20F07F006D
:10501000C863C86B40F00400C863C86B40F480707C
:10502000C863486840F480604860886840F00800C1
:1050300088603C481031426922F0010242610268F6
:1050400022F0010202604E4A126F1A6000F10C0257
:10505000036244F29003C2610022826143614369AA
:1050600043F400634361436943F40073436143695C
:1050700043F001034361C260816001462B4B41F85C
:10508000042F4266426E22F018024266426E42F0DF
:10509000E052426690220260026842F400620260BE
:1050A000026842F400720260026842F0010202608B
:1050B0001F4ADC6015605360946005F101141461AF
:1050C0006FF0030453619461EC1C1B4D14620124C6
:1050D00053629462156353636FF00103174D93633A
:1050E0006223136400F118034038536494642E6003
:1050F00069600421A96065211166536694662E6279
:1051000068624FF48030A862FCF722FD00F018F8C6
:105110000020BDE870404AF067BF00BF94300050E7
:1051200000500950441008508000094004000A5003
:1051300010C00040630005006700060060000850D2
:10514000E0B5894890F8A000000709D50B480DF19B
:10515000070208210368282098479DF8070058B1E6
:105160000748426F1AB107482021FCF763FC4AF058
:10517000E5FB0548006880478CBD00BFB8014020B2
:1051800058024020A8074020C8004020AFF300800C
:10519000E0B5754890F8A000C00609D50B480DF1A0
:1051A000070210210368282098479DF8071051B185
:1051B00007480068400644BF4FF0FF308CBD0548EB
:1051C0000068804700208CBDA8084020B401402022
:1051D00040000440CC004020B0B5FAF7D3FF0546AC
:1051E0008848103001F065F804462846FAF7CEFFEB
:1051F000002C14BFA0880020B0BD00BFB0B57F490F
:10520000C98A401A00EB1060C0F30725FAF7BAFF0D
:1052100004467C48016C103001EBC50101F053F8E5
:105220002046BDE8B040FAF7B1BF00BFB0B5FAF70D
:10523000A9FF05467348183001F03BF8044628469C
:10524000FAF7A4FF002C14BFA0880020B0BD00BF57
:10525000B0B56A49098A401A4FF4FE7190FBF1F02B
:10526000C5B2FAF78FFF04466648416C183001EB6F
:10527000C50101F028F82046BDE8B040FAF786BF26
:1052800080B56048203001F014F8002814BF807900
:10529000FF2080BD5B4A916C01EBC00102F1200050
:1052A00001F011B8B0B5FAF76DFF0446554801F0AA
:1052B00000F805462046FAF769FF2846B0BD00BF52
:1052C000B0B54E498989401A242190FBF1F0C5B24E
:1052D000FAF758FF04464B48816B01EBC50100F01B
:1052E000F2FF2046BDE8B040FAF750BF80B5454810
:1052F000083000F0DEFF002814BF8088002080BD49
:105300002DE9FC413D49DFF8FC80898AD8F83C70E2
:10531000401A4FF48271053890FBF1F0C5B2FAF7EC
:1053200031FF0446D7488078400606D407EBC50114
:1053300008F1080000F0C7FF10E007EBC5000DF111
:1053400007024FF480018388084806680020B047B0
:105350009DF807100029E9D10028E7D02046BDE8D4
:10536000FC41FAF713BF00BFA80840209401402079
:1053700080B52448303000F09CFF08B1808880BDA3
:105380001F484FF4FB7151F0A5FA002080BD00BF0B
:105390001A491C4A098B401A202190FBF1F0116D2B
:1053A000C0B201EBC00102F1300000F08CBF00BFC1
:1053B00080B51448283000F07CFF08B1007980BD2A
:1053C0000F4840F2D51151F085FAFF2080BD00BF93
:1053D0000A494A8B898B891A0C2291FBF2F181428E
:1053E00007DD084AD16C01EBC00102F1280000F092
:1053F0006ABF034840F2E51151F06FBAF80040204F
:10540000C2F0050030074020B0B5094B002104224E
:10541000B2F1FF3FDCBFC8B2B0BD845C013A2509E0
:1054200004F00F041C5D5D5D21442944F0E700BFDA
:10543000BCC10500032907D8DFE801F0020D1116F1
:10544000502101EBC000704780B50AA0662151F0E1
:1054500044FA002080BD2C2101EB800070474FF4FE
:10546000347101EB801070474FF4E77101EB0010CD
:10547000704700BF626C655F7574696C2E630000D5
:1054800014F08AB8B0B58AB001204AF0ADFD4CF0F6
:1054900037FA4A4800240E21C0E9144480F8481025
:1054A000474934304DF0DCFF46484FF0BDFE4648DA
:1054B000464941654AF074FF012803D144484549F3
:1054C0000068086702A90DF106020E200294FCF79D
:1054D00083F908B9029808B93F4802904FF4007167
:1054E0003E4A0791002106928DF80C100991CDE9F2
:1054F00004023B48089003A813F042F8394CA06717
:1055000030B9454938A040F292324BF021F9A06FF2
:1055100013F09AF828B1404940A040F293324BF082
:1055200017F9484800214AF0E9FF47A04BF0B6FDC3
:10553000474DE862D0B1C18A0A054FF4006258BFF6
:105540004FF48062890540F2032158BF40F20311F5
:1055500011444BF071FE28B13EA043A140F26A32E3
:105560004BF0F6F8E86A45494BF028FF4448012122
:105570004AF0C4FFFCF7ECFA022002AA02218DF8DF
:105580000800E06D4FF008FCAA4890F89400C007AE
:1055900009D03D4803AA0121002304682520A04723
:1055A0009DF80C0038B139480068804738480168D8
:1055B0004FF0C330884700200AB0B0BD44064020F9
:1055C00020C4050081540000BC064020D1560000D4
:1055D000800009405802402000FE072A0028402091
:1055E000B9F10400500340204950435F51554555DF
:1055F000455F494E56414C49445F48414E444C45F5
:1056000020213D206D626F785F656E762E69706334
:105610005F706F727400000066F9050030203D3D38
:10562000206970635F71756575655F6F70656E2861
:105630006D626F785F656E762E6970635F706F72F2
:10564000742900001CEA05007561727434000000C2
:10565000CC03402052545F454F4B203D3D207265A6
:1056600073756C7400000000706F72745F636F6E0E
:105670006669675F7561727431000000D5AE050020
:10568000A0F90500A80840209801402050004020C3
:10569000A40040200448054A0168914202D1806874
:1056A00000B10047704700BF0050402050414348C0
:1056B000064A343290421CBF0020704702293CBF8A
:1056C0004FF0FF30704714F0F5B800BF440640209B
:1056D00001301CBF0120704780B514F0EBF80121A8
:1056E000002808BF0421084680BD000070B5204A8C
:1056F000A4481E49BD4D146B016013682046002C60
:1057000004BF4EF20000C2F2400000F1400600F17A
:105710005001D28F6865002CEE6500F120062966E5
:10572000AE6508BF4FF480625B78841803EB830397
:105730005B4202EB830204EB83040E4B1A446FF0CE
:105740000303AC664FF6FC7403EA520304EA520208
:105750001CB20A442B876A6622464EF095FCA86D5F
:10576000696E22464EF090FC002070BDCD580000BE
:1057700008004020B0FF01004901400141EA021148
:10578000009A41EAC3011143024A01F580311150E8
:10579000704700BF200609401204400142EA01514F
:1057A000009A41EA03111143064A1150704700BFA5
:1057B000090441EA0050034940EA02101843086016
:1057C000704700BF24060940BCB5B54890F8B80042
:1057D000400709D518480DF10702042103682E205F
:1057E00098479DF8070018B3144C54F8045CE8037C
:1057F00006D54FF4803020604020E16C52F002FD6D
:10580000A80405D54FF400502060002024F064FB6C
:10581000680405D54FF480402060012024F05CFB33
:10582000280405D54FF400402060022024F054FBEA
:10583000BCBD00BFA8084020B801402014040940A6
:105840002DE9F0411F4E05460C4601220A2C306816
:1058500050F8251021F40061C8BF01F5006140F83F
:105860002510204600214AF059FC31685F4F0B2C6F
:1058700051F8252060F30A2241F82520124905DB62
:10588000B87A18B1086840F00C000860787B884648
:10589000022803D0022078734AF01CFC2046012124
:1058A00000224AF03BFC316801F82500B87A38B193
:1058B0000A2C05DCD8F8000020F00C00C8F8000025
:1058C000BDE8F081D4024020EC400840B0B5044669
:1058D0000078032815D0022819D000284AD1434D5A
:1058E000686D4EF0ADFA014620792A8F01440431EB
:1058F000914227D900F048F8E86DC1880131C18094
:105900002FE03A48C06D01890131018132E02179EF
:10591000364D1422A86E01EB810100EB810016497F
:105920005631FAF727FF686D4EF0FCFCA86D4EF07B
:10593000F9FCE86D00210022062A1BD020F8121085
:105940000132F9E7D4E9010141F8040C2279A16898
:10595000686D043904324EF0B3FB207900F014F87E
:10596000E86D41890022002301314181E86E002168
:1059700012F0D8FF0020B0BD440440200149086067
:10598000704700BF84074020FEB504464AF014FD6E
:10599000002818BF04348DF804400120E4B22146E9
:1059A0004AF09CFF114F05460290BE6D30464EF006
:1059B00047FAA04202D2F86D04300FE03046294683
:1059C00022464EF073FA01A814F048FF022804D0D2
:1059D000012806D1F86D023000E0F86D0188013130
:1059E000018002984BF09AFDFEBD00BF5802402096
:1059F000B0B5FAF7C7FB0446C8482C3000F059FC94
:105A000005462046FAF7C2FB2846B0BD2DE9F8430B
:105A1000DFF82085DFF81495B8F83C10401A40F202
:105A20000441053890FBF1F0D9F84010C0B200EB0A
:105A3000400001EB8005FAF7A5FB044618482E89C3
:105A400090F84500C0060BD516480DF103024FF43F
:105A50008051334607681120B8479DF8031099B16B
:105A600099F8640088B190FAA0F10F4AB8F828308C
:105A7000B1FA81F142EA0112D652012202FA01F191
:105A8000884389F8640005E020B909F12C00294613
:105A900000F019FC2046BDE8F843FAF777BB00BFD9
:105AA000A8084020940140200A804020B0B5FAF7B1
:105AB00069FB0546E348343000F0FBFB044628460A
:105AC000FAF764FB002C14BF20890020B0BD00BF92
:105AD000B0B5F549C98F401A40F2044190FBF1F08E
:105AE000C0B200EB4005FAF74DFB0446ED48416CAF
:105AF000343001EB850100F0E6FB2046BDE8B04004
:105B0000FAF744BB2DE9F84390B1674EF34D0024FA
:105B100000273068407887426ED2A86C50F8270082
:105B200020B113F0ADFCA86C40F827400137F0E736
:105B3000DFF8F893D9F83C0008B113F0A1FCD9F8CC
:105B4000400008B113F09CFCD9F8440008B113F0F0
:105B500097FCD9F8480008B113F092FC09F1240031
:105B60002821FAF72EFE504DDFF840810021002653
:105B7000286840788000C0472968C9F848004978FB
:105B80008900FAF71EFEEB4D1827E88D298E081ABA
:105B9000002190FBF7F0C000C047C9F83C00A88F77
:105BA000E98F40F20444081A002190FBF4F000EB66
:105BB00040008000C047C9F84000E88FB5F84010A9
:105BC000081A002190FBF4F000EB40008000C04771
:105BD000D9F83C10C9F84400081DEA8D2B8E9B1A99
:105BE00093FBF7F39E4230DA06EB460302EBC30267
:105BF00020F836200136F0E7E96BCE4CCB4D2C4F28
:105C0000E08D228E101A182290FBF2F305F1240089
:105C10000822B847A08FE18F40F204460C22081AF0
:105C2000296C90FBF6F305F12C00B847E08FB4F82F
:105C300040100C22BC46081A696C90FBF6F305F183
:105C4000340001B0BDE8F0436047D9F840000023BC
:105C500040F2044600F10802AF8FE88FC41B94FBAA
:105C6000F6F4A34208DA03EB0320013307EB8000CC
:105C7000053022F80C0BEFE7D9F84420002340F25E
:105C80000444083286B2B5F84070BE1B96FBF4F6A9
:105C9000B342B2DA03EB0326013300EB860022F8AD
:105CA0000C0BE88FEEE700BF0800402015970100BD
:105CB00093620000B0B5FAF765FA04469B482430B9
:105CC00000F0F7FA05462046FAF760FA2846B0BD1C
:105CD000B0B59849C98D401A182190FBF1F0C5B2B2
:105CE000FAF750FA04469148C16B243001EBC50124
:105CF00000F0E9FA2046BDE8B040FAF747BA00BF25
:105D0000B0B58A4D0446A86C50F8240028B113F0B1
:105D1000B7FBA86C002140F82410B0BD140540204A
:105D20002DE9F84F064601EB410003EB430B884693
:105D300000219A461446850005EB8B001C3013F0B9
:105D4000E9FC2F498A6C42F82600886C50F82670CE
:105D5000002F4ED007F11C01DDF828900C2243469D
:105D60004819C7E90410384600F093FA796907F139
:105D700008000C22534600F08CFA4FF4076004F13F
:105D8000030E009406FB00FC20462EF003030026C1
:105D90001C486146B54208D03C69B0F84020344404
:105DA0000A4419440C36A280F4E74FEA9E0109F137
:105DB00003034FEA8B02002501FB08F123F00303E4
:105DC00004330CEB8101AA4209D0B0F840607C6931
:105DD0000E442C4419440C350436A680F3E7009891
:105DE00087F81B9087F81AA087F818807876BDE8A6
:105DF000F88F05A04FF4B971BDE8F84F50F06ABDB7
:105E000014054020F800402062745F7574696C5F6F
:105E10006275662E63000000B0B54449896C51F884
:105E2000205065B1FAF7AEF9044605F1080000F01C
:105E300040FA05462046FAF7A9F92846B0BD0020E9
:105E4000B0BD00BF1405402070B5384A926C52F8BE
:105E5000205035B3364AEB7E00FB021035496A7E8E
:105E6000B1F84010033222F00302401A297E02FBEF
:105E70001100D91D21F00301043890FBF1F0C0B2EC
:105E800000EB4006FAF77EF90446686900EB8601EC
:105E900005F1080000F017FA2046BDE87040FAF757
:105EA00075B970BD14054020F8004020B0B51F4AF8
:105EB000926C52F820407CB1607E88420CD3FAF795
:105EC00061F90546204600F0F4F904462846FAF741
:105ED0005DF90CB1A088B0BD0020B0BD1405402014
:105EE00070B5124A926C52F82040ECB1104A00FB97
:105EF00002101049B1F84010401A617E033121F0C0
:105F0000030190FBF1F0C0B200EB4006FAF73AF95A
:105F10000546206900EB8601204600F0D4F92846AA
:105F2000BDE87040FAF732B970BD00BF14054020DB
:105F300090F7FFFFF8004020F0B521480168890381
:105F400012D4BFF34F8F0021BFF36F8FC0F83C1204
:105F5000BFF34F8FBFF36F8F016841F400310160D1
:105F6000BFF34F8FBFF36F8F0168C90326D40021A1
:105F700043F6E07C0167BFF34F8FC26EC2F34E3130
:105F8000C2F3C9039A0701330CEA411516461F46AE
:105F900046EA050406F14046013FC0F84C42F7D1FD
:105FA0004C1E00292146EFD1BFF34F8F016841F409
:105FB00080310160BFF34F8FBFF36F8FF0BD00BF23
:105FC00014ED00E010B5D0E9021282EA0104A3B298
:105FD000002B18BF0123B4F5803F28BF022323B153
:105FE000012B04D1B0F9100010BD002010BD120C1F
:105FF0000B0CB2EB114F8FBFD01AD11AB0F91000B1
:10600000084410BD10B50A4A002008494FF0FF337C
:10601000102808BF10BD51F8204042F8204001EB85
:1060200080040130C4F88030F2E700BF00E100E0F6
:106030008010402010B50C4602464FF488500021D5
:10604000012313F0A5FB0470BDE810400FF082BAE5
:1060500010B50022062A04BF012010BD8B5C845CB1
:1060600001329C421CBF002010BDF3E700F00F017D
:10607000C0B2A44A0009515C105C0844C0B2704729
:10608000114483180139984228BF704711F801293B
:1060900000F8012BF7E7114483180139984228BF13
:1060A000704711F8012900F8012BF7E7B0B54D4D05
:1060B00005F11C0000F0FDF80446E86918B93E48F7
:1060C00001680520884734B10020616820602046BF
:1060D000BDE8B0400847B0BD10B580B9E74C0B49EA
:1060E00003202268904722680949052090472268CA
:1060F00008490A2090473B480021C0E90911394866
:106100000021C0E90511C0E9071110BD8D61000033
:10611000AD6000001961000070B5FAF733F8314E38
:10612000054606F1240000F0C4F80446706A18B968
:10613000214801680A2088472846FAF727F834B131
:106140000020616820602046BDE87040084770BDAF
:10615000F8B5244D0446214605F1240000F069F805
:1061600060B955F8247FFAF70DF80646284621460F
:1061700000F0A9F83046FAF709F807B1F8BD1A4857
:1061800001680A20BDE8F840084700BFB0B5154DCA
:1061900005F1140000F08DF80446686918B9064846
:1061A00001680320884734B10020616820602046E0
:1061B000BDE8B0400847B0BD58004020B0B5044627
:1061C000006800B1B0BD074D686918B9064801689C
:1061D0000320884705F114002146BDE8B04000F0D7
:1061E00072B800BFB00440207400402010B50023F6
:1061F00004461A46236873B18B421C46F9D11346F4
:10620000002A08BF03460C681C6043688B4208BF25
:106210004260012010BD002010BD11B113680B6059
:1062200002E003681B6803604368934208BF416053
:1062300070470068884218BF0028FAD1401AB0FAA7
:1062400080F04009704729B10B6803B942601360C0
:106250000A607047016809B1416800E001460A60C0
:106260000021426011607047B0B561B1002305465E
:106270001C462B688B4202D0002B1D46F8D114B16E
:1062800022601360B0BD016801B942600260116014
:10629000B0BD6BB110B5013B016023B18C18013B5F
:1062A0000C602146F9E7416000200860BDE810401D
:1062B00070470146006810B102680A6002B1704779
:1062C00000224A60704702680AB1426800E0024654
:1062D0001160002241600A6070470000B0B5094BB0
:1062E00000210922B2F1FF3FDCBFC8B2B0BD845C1F
:1062F000013A250904F00F041C5D5D5D2144294429
:10630000F0E700BFBCC1050080B5FAF70BF8C0B2DA
:1063100080BD80B5FAF706F8C0B280BD80B5FAF747
:1063200001F8C0B280BD80B5F9F7FCFFC0B280BDF6
:1063300080B5F9F7F7FFC0B280BD80B5F9F7F2FF7D
:10634000C0B280BD80B5F9F7EDFFC0B280BD80B5A9
:10635000F9F7E8FFC0B280BD80B5F9F7E3FFC0B23E
:1063600080BD80B5F9F7DEFFC0B280BD80B5F9F71A
:10637000D9FFC0B280BD80B5F9F7D4FFC0B280BDEF
:1063800080B5F9F7CFFFC0B280BD80B5F9F7CAFF7D
:10639000C0B280BD80B5F9F7C5FFC0B280BD80B581
:1063A000F9F7C0FFC0B280BD80B5F9F7BBFFC0B23E
:1063B00080BD80B5F9F7B6FF80B280BD0178427824
:1063C00041EA02218278C07841EA024141EA006054
:1063D00070470178427841EA02218278C07841EA28
:1063E000024141EA00607047BFB5044601A851F080
:1063F000FDFFA8480399114D42688B1A4FF47A7239
:10640000B3FBF2F202FB053305892B449DB20381F5
:10641000B5F57A7F22BFA3F57A7303810132C36891
:10642000DD43AA4202D9057C013505744160991803
:10643000C1600069C4E90010BFBD00BF18FCFFFFC8
:1064400010B586B070B9934C00202074E0602081B4
:1064500003A851F0CBFF059809496060074802681E
:10646000072090478B480021016001A8FFF7BCFF7F
:1064700006B0BDE8104000F005B800BF5400402051
:106480001166000070B586B082484D490268A2B11D
:10649000C3689268D21A012A08DB4A4B9A420CDC84
:1064A0004FF47A715143B1F57A7F06D846480168B6
:1064B000072006B0BDE8704008474068434E4518C5
:1064C00096F89C0000070BD541480DF116020821F3
:1064D0002B4604682720A0479DF81600002868D0A6
:1064E000F9F750FE044696F8980000070FD5394A90
:1064F00002A82B46011D1668CDE900010DF1170217
:1065000026200821B0479DF81700002853D0324AB2
:10651000D36B108F516BEA1AADF80C000291012A6F
:1065200016DB530040F27125B3FBF5F36FF41C75D5
:1065300019446B43029103EB4202104482B2ADF85E
:106540000C00B2F51C7F1BD9A0F27120013114E0C0
:106550005B1B40F271255A00B2FBF5F26FF41C751B
:10656000554305EB4303834205D9013900F27120FD
:106570000291ADF80C00C01A891AADF80C00029116
:1065800021F070410291144A02AE80B268CE2832E6
:10659000C0F51C7068C2114AC2F8E010C2F8E400ED
:1065A00080209060106840F0800010602046F9F76D
:1065B000EDFD06B070BDBDF80C000299E3E700BF29
:1065C00000E9A4359FBB0D0074004020A8084020BE
:1065D00098014020A8014020841340201800094061
:1065E0002C4B002211461A6862B182421346F9D13F
:1065F000284A002918BF0A460368B1FA81F14909FF
:10660000136000E000214FF0FF320260084670473F
:106610007CB50F480168072088476C462046FFF785
:10662000E3FE1C4D0026286868B18168009A891A2B
:10663000002908DCD0E90012066029609047204656
:10664000FFF7D2FEEFE7BDE87C40FFF71BBF00BFBE
:1066500058004020B0B50446006801300EBF00204D
:106660002046FFF7BDFF0B490022096829B18B685E
:10667000A568EB1A02D40A46F7E70021054B002A69
:1066800018BF13461C602160B2FA82F14909084321
:10669000B0BD00BF8807402010B50446806821695E
:1066A0000844A0602046FFF7D5FF08B1FFF7EAFED7
:1066B000E1682046BDE81040084700000146002878
:1066C0006FF0004008BF0121814228BF0146024807
:1066D0004164343000F002B878114020BCB5054662
:1066E00068460C46FFF780FE00982044A8602846C4
:1066F000FFF7B0FF08B1FFF7C5FEBCBD2DE9F04FB5
:1067000087B0109D0292002902460E460746069564
:1067100018BF0121002818BF01222C783E2C06D07A
:106720003C2C01D1013506954FF0010A03E00135FB
:106730004FF0000A06953344114000204FF0010C41
:106740004FF0000B00240197059104933946039004
:10675000297871B9BBF1000F00F004810398013C66
:106760005D46CDF818B0C0B281194042013901EA46
:106770000006BBF1000F02D0210600F0F38029785B
:106780003039092904D806A800F0F8F8069D844697
:1067900005F1010901210320CDF8189095F800803A
:1067A000A8F142020C2A2CD8DFE802F06BE557E58D
:1067B000E56A07E5E5E57DE507001FFA8CF0059A37
:1067C000711C21F001014500002A00F08080049A2C
:1067D0004E19964200F2CC80BAF1000F04D0384630
:1067E0002A46F9F7C7FF73E0002800F0948031F8DB
:1067F000022B013812BA130C120E3B707A7002375A
:10680000F2E7B8F1530F06D0B8F16E0F39D0B8F1F6
:10681000730F40F0B0800498554606F1010A824596
:1068200000F2A6803678B8F1530F344605D03046D2
:106830006446FFF71BFCA4460446059810B13E7061
:10684000DDF8189099F80000312850D0342850D045
:10685000322840F08F8002214CE00599F01C20F096
:106860000300002966D0049A011D8A42C0F080808E
:106870000168BAF1000F58D00A0A3970090C57E0C4
:10688000002105981FFA8CF548B3049A70199042BC
:106890006ED84AEA010001281CD1384631462A4602
:1068A000F9F768FF1BE01FFA8CF08500F01C20F060
:1068B0000301059860B304984E19864258D8BAF17E
:1068C000000F3BD038462A46F9F754FF21E04E1915
:1068D0002F4421E0384631462A46FFF7D1FB2E44AB
:1068E0002F44B8F16E0F1DD116F801CC24E0012120
:1068F00000E004210AEB010009F1010B0391494278
:106900000137AA460138CDF818B000EA010613E0B5
:106910004E192F4406E00E46B8F14E0F02D136F85C
:1069200002CC09E04FF0010C06E00A0C3A700A0AAA
:106930007A70B9700337061D069D09E700203A18E2
:1069400085420AD00B5804301BBA1E0A13705670C9
:106950001E0C1B0E9670D370F1E70E184FF0010C51
:106960001746E9E701980299381A0880002002E0EA
:10697000012000E0032007B0BDE8F08F01684A1C49
:106980000260097830391378303B092B84BF88B214
:106990007047531C01EB81010360127802EB410147
:1069A0001A463039EFE700002DE9F04F87B0DDF8E7
:1069B00040A001921588002902460E46CDF818A085
:1069C00018BF0121002818BF01229AF800403E2C70
:1069D00007D03C2C03D10AF1010ACDF818A00124FC
:1069E00004E00AF1010A0024CDF818A01140029435
:1069F000334401274FF000084FF0000B00240090B3
:106A00000591411905460493039101469AF8000047
:106A100008B150460EE0B8F1000F00F02B81E0B253
:106A2000ABF1010BCDF8188029184042013901EA79
:106A300000054046B8F1000F03D05FEA0B6100F09B
:106A4000198101783039092904D806A8FFF796FF83
:106A50000746069800F1010A0121CDF818A090F828
:106A600000900320A9F142020C2A2CD8DFE812F092
:106A70005A0003013B000301030159000D0003010B
:106A800003010301720003010D00B8B2059B691CEC
:106A900021F001014200002B7AD0049B2746B41854
:106AA0009C4200F2F980039B8D189D4200F2F68013
:106AB000029B002B00F0AA8008463146F9F75AFEE7
:106AC00026463C46B0E0B9F1530F64D0B9F16E0FE1
:106AD00028D0B9F1730F40F0CE8034782046FFF70C
:106AE000C5FA834659E00599E81C20F00300002907
:106AF00000F0A680049AF11C914200F2C780039A2C
:106B0000011D8A42C0F0C480317873782546B2787E
:106B1000029C1B02002C00F08E80194341EA0241C6
:106B20008CE000210598BFB2002854D0049AF019D7
:106B3000904200F2AB80039AE819904200F2A880DC
:106B400002980843012841D1284631463A46F9F7D0
:106B500011FE40E0B8B28200E81C20F00301059865
:106B600000284FD00498A146B418844200F29480C3
:106B700003988D18854200F291800298002862D017
:106B800008463146F9F7F6FD264601274C463DE713
:106B900016448D1848E03478A346059850B10499FE
:106BA000701C884272D80399681C884270D82C7077
:106BB000DDF818A09AF8000001350136312813D00D
:106BC000342813D0322865D1022410E028463146FB
:106BD0003A46FFF755FA3E443D440127B9F16E0F9E
:106BE00008BF16F8017C11E7012400E004242819ED
:106BF0000AF1010A61420138CDF818A0D04600EA36
:106C0000010503E716448D180127FFE63C4650B105
:106C1000327873780138023642EA032212BA120C33
:106C200021F8022BF3E70D460127B9F14E0F08BFFB
:106C300035F8027CEAE643EA014111432C46016043
:106C40000336051DE2E60020331882420DD01C7881
:106C50005D7844EA05249D78DB7844EA054444EAFB
:106C600003631BBA0B500430EEE70D1801271E46D4
:106C70004C46CBE600200099019A691A11800499CC
:106C80008E4288BF012007B0BDE8F08F0120F2E7F7
:106C90000220F0E70320EEE7012000E002200D468D
:106CA000E9E70A0A017042700A0C090E8270C1708D
:106CB00070470A0A017042700A0C090E8270C17096
:106CC00070470A0A017042700A0C090E8270C17086
:106CD00070470A0A017042700A0C090E8270C17076
:106CE00070470000BFB504461B4890F8D400C007A9
:106CF0000CD00A48CDE900120DF10F020121234604
:106D000005683520A8479DF80F1019B1B4F1F200BD
:106D100018BF1220C0B204B0B0BD00BFA401402013
:106D2000BCB504460C4890F8D40040070DD50B487C
:106D30000DF107020421234605683520A8470028E5
:106D400018BF01209DF8071021B10548201AB0FA9C
:106D500080F04009BCBD00BFA8084020940140203D
:106D600074C2050000210022092908BF53F026B88B
:106D700050F821305FEA52024FEA330240F82120F6
:106D800003F001020131EFE72DE9F04F85B0DFF8A4
:106D9000048698F89800C0070BD0DFF8FC0502AA1B
:106DA00001210368262098479DF80800002800F07C
:106DB000EE824BF07BF8D14EF768B80603D5202061
:106DC000306151F0C5FB780603D54020306151F0A9
:106DD0002FFBF80700F089800120DFF8C045306103
:106DE0002078C0071ED198F88C00C0070AD0DFF8C1
:106DF000A80502AA01210368232098479DF80800EE
:106E0000002872D0DFF89C45D4F8040100286CD02B
:106E100002A851F0EBFA94F80811D4F80421029872
:106E2000904762E098F89D0040070BD5DFF86805B1
:106E300002AA4FF480610368272098479DF8080054
:106E4000002852D002A851F0D1FAB06820F0010019
:106E5000B06098F89B0040070BD5DFF83C050DF1BA
:106E600007024FF080610368262098479DF80700CD
:106E700040B1206AA249A34A5050606AC6F8FC0398
:106E8000E069B0606068411C0CD00299081A9E4904
:106E900020F07040884283BFB06840F02000B060AE
:106EA00051F056FB2069411C0CD00299081A9649F2
:106EB00020F07040884283BFB06840F04000B0606E
:106EC00051F0B6FAA06A411C0CD00299081A8E49FA
:106ED00020F07040884283BFB06840F08000B0600E
:106EE00051F086FB012051F00DFA380603D58020C1
:106EF000306151F07DFB380700F1BA80380440F171
:106F0000788198F88C00C0060BD5DFF88C0402AAB3
:106F100010210368232098479DF80800002800F0FE
:106F20006581B3467669C6F3036430071AD598F8CD
:106F30008D0000070BD5DFF8740402AA4FF400613E
:106F4000234605682320A8479DF8080050B1DFF8C4
:106F5000540400EB04114B6823B122018968805866
:106F600003229847F0061AD598F88D00C0070BD079
:106F7000DFF8380402AA4FF4807123460568232005
:106F8000A8479DF8080050B1DFF8180400EB041181
:106F90004B6823B122018968805802229847700605
:106FA00019D598F88C0000060AD5DFF8000402AA6B
:106FB0008021234605682320A8479DF8080050B18A
:106FC000DFF8E00300EB04114B6823B1220189686C
:106FD000805805229847B0061AD598F88D004007CA
:106FE0000BD5DFF8C80302AA4FF480612346056879
:106FF0002320A8479DF8080050B1DFF8A80300EB54
:1070000004114B6823B122018968805806229847F1
:10701000700740F1A08098F88D00350F80070ED5DD
:10702000DFF8880302AA4FF400712B46D0F800C0A5
:107030002320E0479DF80800002800F08C80DFF84E
:1070400064932801DA4A09EB05118A461AF80C3FC5
:10705000125A002B49D002F03002302A45D14B6839
:10706000002B53D059F8000089680422984752E059
:107070000820306198F89B00C0060BD5C64802AACC
:107080004FF080510368262098479DF8080000289B
:107090003FF434AFB06820F00800B06098F8850085
:1070A00080070BD5BC4802AA4FF400710368212069
:1070B00098479DF8080000283FF420AFBA4D95F896
:1070C000400020B1002085F8400051F035FC05F16A
:1070D0003804A86B00283FF411AF2046FFF7E9F809
:1070E000416A0029F5D08847F3E7B24840F24F11D2
:1070F0004FF0F0FB99F802011EE000BF10000940BC
:107100004CFEFFFFC0090940FEFFFF07A9484FF4EE
:107110009F714FF0DFFB99F80001A84202BF681C85
:1071200000F00F0089F8000100208AF8000099F8AB
:107130000201013889F80201C0B248B101280AD120
:1071400099F80001013000F00F0089F8010102E018
:10715000402051F0D7F8B0075E4647D598F88C002C
:10716000000709D5914802AA082123460568232073
:10717000A8479DF80800C8B320018D49095AC1F3FA
:10718000C201032906D0052906D0042914BFFF2215
:10719000012202E0002200E00722824D05EB0416E6
:1071A00073681BB12858B168984704E0814840F2E1
:1071B00095114FF08FFB95F80201002295F801110F
:1071C00032735E46013885F8020142B98C4206D01E
:1071D000621C02F00F0405EB0412127BF5E70006B7
:1071E00085F8004104BF402051F08CF84FF4004076
:1071F0003061B80740F18D800220306198F89D0021
:10720000C0070AD0644802AA4FF48071036827209F
:1072100098479DF8080000287BD067480468022042
:1072200051F070F8012051F08BF898F89A00C007DF
:107230000ED0624802AA4FF48031234605685748B1
:1072400000F5E87000902620A8479DF80810B9B313
:1072500049F0CCF868B1514904EBC400D1F8D02111
:107260001044C2B2C1F8D0213D21614301EB10208E
:1072700026E049F09DF8054650F0ACFFA4FB000164
:107280006422A0FB020301FB023105EB450200234F
:10729000D200F9F73EFA642200230446F9F739FADE
:1072A0006FF0630100FB01423C49D1F8D0311A4430
:1072B000642AC1F8D02103D3643A0130C1F8D02147
:1072C00040F27121B0FBF1F2514302F100437363CC
:1072D000091A01F51C7189B2316331490A6842F01B
:1072E00001020A60420800F001008A60C860306A4A
:1072F00040F008003062B06820F0E040B060B06854
:1073000040F00100B060012030612D4800698068C4
:10731000804778071AD50420306198F89900C00694
:1073200009D51D4802AA4FF48051036826209847CA
:107330009DF8080050B1042050F0E4FFB06820F040
:107340000400B0608B48016806208847F80644BFF7
:107350001020306198F89800400708D50E4802AA1E
:1073600004210368262098479DF8080068B130681A
:10737000C0030AD54FF480307060306D10F00D0FEF
:1073800003D0316D602050F03DFF4AF0A9FD05B0FB
:10739000BDE8F08FA8084020B801402084134020A9
:1073A000C0090940FC154020B0044020980140204D
:1073B00000804020D1F00500340004409C014020B2
:1073C000800C40202DE9F04F9DB0279C002C41D02F
:1073D0000F4606464FF434700121984615464FF08B
:1073E000010A12F0A9F9B8B3DDF898904FF434719E
:1073F0008346F9F7E6F9CBE9014900200DF10409CC
:107400005A4C3146019009F10400A0470BF5B070C9
:107410003946A0470BF5BE702946A0470BF5CA7048
:107420001C21F9F7CEF948460121CBF898A101F0CB
:1074300048FC60B90BF5AE750121284601F041FC0E
:1074400028B90BF5BC70012101F03BFC40B1584656
:1074500012F016F8122000E007201DB0BDE8F08FF2
:10746000B8F1000F04D1284600F080FE0028EED0CD
:107470000DF104090121484601F034FC044602984C
:107480000BF5017A002600F00F073B488046301DBF
:107490000FB9A04228D2F90701D1002117E007F067
:1074A0000701A04238BFA7F110013A0758BF39467B
:1074B000CA1D0E2ACBD811F00102C8D07F1A102F96
:1074C000C5D801224346BA4012EA080FBFD00AF8D5
:1074D000061081B2484601F0E6FBC000013600EB21
:1074E0006707112FD3DBB2E7601C8642AFD8CBF819
:1074F000C8620BF10C06294654223046F9F73AF9D6
:1075000008AD54212846F9F75CF92846314600F0C9
:107510008DFC00289BD0164808AD10F154040CD007
:107520000BEB00012A4601F5D87001F5AE7100F0B1
:107530000BFB00282046F0D189E7304601F014FC0F
:1075400000283FF484AF01205946ABF8CD029BF8E8
:10755000C80201388BF8CC028E485030FEF7B3FEDB
:107560008D48016801208847002076E71B7E0000D7
:10757000B0FEFFFF74004020010101002DE9F04F33
:10758000ADF5057DDDF84092B9F1000F7ED0009099
:1075900038A80DF1880CDDF838820026002500F1AE
:1075A000040E0CF12C0B389642962D96229616F16D
:1075B00020040ED08C199719E469FF694EF8054034
:1075C0000CEB0504043567609F19043EFF692763CF
:1075D000EDE76C4CA04722A8A0475846A0474FF0C3
:1075E000000AB8F1000FCDF8DCA0CDF8B0A04FD163
:1075F0000DF104092C214846F9F7E3F87AAE2C2165
:107600003046F9F7DEF86FA82C21F9F7DAF80DF516
:10761000C8782C214046F9F7D4F859AF2C213846C8
:10762000F9F7CFF84EAC2C212046F9F7CAF843A859
:107630002C21F9F7C6F8544D584659464A46A847F2
:107640000DF18809324648464946A84731466FAE93
:1076500048463246A8474D4D484649464246A84707
:1076600049464046DDF840923A46A84730463946FA
:107670002246FBF793FB204643AC45492246A847E8
:1076800001A821462422F8F772FE08B1122473E003
:107690004FF4AA70022112F03DF80646C0F850A13E
:1076A000009801AF22A9242286F84C013846F9F748
:1076B00061F82B9859462422CDF82CA00A9007F1A6
:1076C0002C00F9F757F836982421159007F154004B
:1076D000F9F777F806F18C0401253846CDF884A037
:1076E0002146CDE91F55F9F7ABFE06F5887038A99C
:1076F0002422F9F73FF8DDE94101C6E94D0106F121
:1077000008002421F9F75DF806F130002421F56224
:10771000F9F757F806F15C002821C6E91555F9F785
:1077200050F83F20C6E9215AC6E951A009207060EF
:1077300096F84C01022810D140F2BC70022111F0E1
:10774000E9FF0146C6F850012046F9F779FE00200E
:10775000C6F84801032086F84C018F983146C6F8D8
:107760003C91C6F84001F4485830FEF7ACFD0A4899
:10777000002401680020884720460DF5057DBDE8FE
:10778000F08F00BFBD9D0500452B0000110F0000CC
:1077900008C10500CC034020740040202DE9F04FC3
:1077A000EFB0DFF8144C04F158052846FEF781FDD0
:1077B000002800F0788181464068002866D099F85A
:1077C0004C01421E032A00F26A81D9F84801DB49C4
:1077D000DFE812F0060004001F013A01D9F8501149
:1077E000C0F1FF07C0F1BF0309F5887200F01F0662
:1077F00009F108087F095B0902EB870702EB8303A5
:107800007F685B68F740F34007F0010763F34107C7
:10781000C0F17F035B0902EB83035B68F34003F075
:10782000010347EA8303C0F13F077F0902EB8702A8
:107830005268F24002F0010243EAC202A2B102EB36
:10784000421022AE01EB800031468438F9F7F8FD92
:1078500001AF304641463A46F9F7DEFC384641462C
:10786000F9F7EEFDD9F84801002800F0FF8001AEDD
:1078700040463146F9F708FE30464146F9F7E0FD4B
:10788000D9F848010138C9F8480108E10DF1880824
:1078900058214046F8F795FF59AF4FF0000B2C21C7
:1078A0003846C9F888B0F8F78CFF4EAE2C21304628
:1078B000F8F787FF01AD09F1600124222846F8F7A7
:1078C00059FFD9F884A064AC9D492422CDF82CB08E
:1078D0002046CDF828A0F8F74DFF082008F12C0825
:1078E000CDF8B8B16D900120CDE96100CDE956B079
:1078F000BAF1000F3BD09DF82400C0071CD12846E8
:10790000FFF730FA9DF88401C00703D13846FFF72E
:1079100029FAF0E73846F9F727FBECE72046FFF7AE
:1079200021FA9DF85801C00703D13046FFF71AFA33
:1079300002E03046F9F718FB9DF8B001C007EDD022
:107940002846214611F0D0F830B128462146FBF7F1
:107950006BFA3846314605E020462946FBF764FAC3
:1079600030463946FBF780FADDF828A0C0E7589882
:1079700009F1080460B14EAE304653F043F843A815
:1079800031462422F8F7F6FEDDE957104C910DE060
:107990006B484EA911F090F80028ECD043A84EA9EE
:1079A0002422F8F7E7FE57984C90002043AF22AE10
:1079B0004D90204639463246FBF7C4F809F13400B1
:1079C00039464246FBF7BEF8D9F8500108B111F02C
:1079D00057FD594C301D002111F1080205D005EB6F
:1079E000810208C80139D361F6E706F130000021B1
:1079F00011F1080205D005EB810208C80139D363F3
:107A0000F6E7D9E94F2001A99047484611F038FD23
:107A100049E009F18C0722AE38463146F9F734FDCA
:107A200030463946F9F70CFDD9F84801411CBF280A
:107A3000C9F848111ED07F282AD03F282FD1D9F865
:107A4000500100F1840127E0C11E042954D8DFE869
:107A500001F00353333D4900D9F8500100F184018E
:107A600000F58472F9F7D8FB05200CE70020C9F86F
:107A7000040014E0D9F8500100F567713846F9F7B1
:107A8000DFFC0320C9F84801042089F84C0106E016
:107A9000D9F8500100F5C6713846F9F7D1FC2846EF
:107AA0004946FEF710FCA06D18B926480168002071
:107AB00088476FB0BDE8F08FD9F8500100F5C67166
:107AC00000F50472F9F7A8FB0620DCE6D9F850218E
:107AD00002F1840002F5C67102F52572F9F79CFBEC
:107AE0000720D0E6D9F8500100F5257100F546725F
:107AF000F9F792FB0920C6E6A0F109010629CED8C4
:107B0000D9F8503100EB401001EB411103EB80003C
:107B100003EB8101A0F1840203F56770F9F77CFBA8
:107B2000D9F848010F2804D13F20C9F848010220A4
:107B3000ABE70130A7E600BFCC03402018B3050037
:107B400084C00500580040202DE9F04F93B00E4648
:107B50000546C4200221914611F0DCFDC4210446F3
:107B6000F8F72FFE4E4506D0304600F0FBFA60B124
:107B7000284631460FE0204611F082FC2846314667
:107B800013B0BDE8F04F00F051B9484600F0EAFAF2
:107B900060B1284649465422F8F7ECFD204611F022
:107BA0006FFC0125284613B0BDE8F08F04F18C006E
:107BB00004F1540A04F11C0B039004F170000590C9
:107BC00004F13800049009F13800029001F05BF8EC
:107BD00080B1B34504D0584631461C22F8F7CAFD9F
:107BE000049806F11C0188421BD004981C22F8F767
:107BF000C1FD16E0DDF808802046414600F02FFE6A
:107C00005746DFF8B8A7584631462246D0472046A7
:107C100021464246D047049806F11C012246D0472F
:107C2000BA4606F13807384601F02DF8019788B1B9
:107C3000CA4504D0504649461C22F8F79BFD0598DA
:107C400009F11C01D946884218D005981C22F8F782
:107C500091FD13E02046394600F001FEDFF85C8715
:107C6000504649462246C047204621463A46C0472C
:107C7000059809F11C012246C047D946039F494691
:107C80005246384600F0FEFD002800F0B380DDE9E2
:107C9000041204F1A80B584600F0F4FD002800F08F
:107CA000A9803846012101F00CF868B1584601213D
:107CB00001F007F860B32846314600F0B7F80546F2
:107CC000204611F0DDFB6DE748464946524600F07C
:107CD000DEFB002800F08E800498059A014600F033
:107CE000D6FB002800F08680DDF80480404600F0D6
:107CF000CAFF0646029800F0C6FF7EB1A0B105F1AA
:107D00003800874224D039461C22F8F733FD1FE0A3
:107D100005F138001C21F8F754FD3FE768B14445F0
:107D200010D02046414604E0029884420AD00299CD
:107D300020461C22F8F71EFD04E0029A2046414628
:107D400000F036FD05F1380021463A4600F030FDDE
:107D50002046594600F083FD059E3946304600F026
:107D60007EFD50464946324600F022FD2846214617
:107D7000524600F087FDE8B32046294600F082FC19
:107D8000C0B320465146224600F07CFD90B31C4E05
:107D9000204621465A46B047059938463A46B047EC
:107DA000049948463A46B047204621464A4600F0E4
:107DB00069FDF8B12079C00707D105F11C00214603
:107DC0000122012500F075FE7AE706AE2146304615
:107DD00000F010FB70B130463146022200F069FE1F
:107DE00005F11C00B0423FF4D9AE06A91C22F8F7F9
:107DF000C1FCD3E6204611F043FB0025D2E600BFCC
:107E0000B18700000022D2B2172A88BF704702F063
:107E1000FC03CB5883500432F5E70022182A08BF30
:107E200070478B5883500432F8E700002DE9F04387
:107E30009DB00DF158090D4604461C214846F8F73F
:107E4000C0FC0FA81C21F8F7BCFC08A81C21F8F7FF
:107E5000B8FC01A81C21F8F7B4FC284600F082F910
:107E600030B104F138001C21F8F7ABFC0120A4E08C
:107E700005F13807384600F006FFC8B116AE2946AE
:107E8000304600F0ECFC0FA8314600F0FBFB002868
:107E900000F0928016A80FAA014600F0F8FA002818
:107EA00000F08A80464816A900F154020FA823E08A
:107EB0000FAE3946304600F0D2FC16A829463246AD
:107EC00000F0E5FA002877D008A80FAA294600F0AC
:107ED000D9FC002870D00DF13C0816AE08AA404627
:107EE000314600F065FC3046414600F0CBFB0028EF
:107EF00062D00FA816A9024600F0C9FA00285BD08C
:107F0000384600F0C0FE05F11C0838B1C1450AD062
:107F100016A841461C22F8F72DFC04E016A841469D
:107F20003A4600F045FC04F1380016A900F0AAFB1F
:107F3000002841D001AE4146304600F090FC08AF29
:107F400029463246384600F033FC3846394602228C
:107F500000F0B9FB80B316A808A900F093FB58B352
:107F60000FA9204600F07BFC16AA2046214600F00F
:107F700089FC08B316AD01AE2846314600F06FFC0F
:107F800030462946032200F09EFBA8B116A808A996
:107F9000224600F077FC78B116AD0FA928462A4694
:107FA00000F006FC04F11C0001AA294600F06AFC5E
:107FB000002818BF012000E000201DB0BDE8F083BC
:107FC00064C305002DE9F04F91B0984617460E4660
:107FD000B8B13CA130461822F8F7CCFB3F4805AEBB
:107FE00090E83E0040693EC60A903D4890E83E0059
:107FF000406910900BA83EC005AA00213846C04732
:1080000049E0CDE90278DFF89480DFF8949006F13A
:10801000140006F1100B06F10C0506F10807341DDB
:108020000FF2800A0490C04701463046C847C04757
:1080300001462046C847C04701463846C847C047A2
:1080400001462846C847C04701465846C847C0476A
:1080500001460498C8471720002804D4315C013831
:108060000029F9D002E030780028DCD01720002861
:1080700007D41AF80010325C8A42D4D8A0F101006B
:10808000F5D202980D490E4A012300900398019001
:108090003046FFF797F911B0BDE8F08F25030000D7
:1080A000A36C0000181469DAD8E4350A1B7CEFCC05
:1080B000FFFFFFFFFFFFFFFFFFFFFF7F18C305006C
:1080C00030C30500FF18A5F4EFD25E622B140CCF6D
:1080D000D6F15D0027DC8D91865F9107D4C3050042
:1080E000ECC30500B0B570B1B54801680120884700
:1080F000B14D05F15004286D50B12046FEF7D9F876
:1081000011F0BEF9F7E705480549026801209047DC
:10811000A9480021C0E91411B0BD00BF540040209F
:1081200021820000B0B588B0044600F01BF808B109
:10813000012514E01C3401210125204600F0C1FD79
:1081400068B901A8A04204D001A821461C22F8F772
:1081500011FBBD4901AA204600F060FD05462846F6
:1081600008B0B0BD3830012100F0ABBD2DE9F04FB3
:10817000B1B005462AA81C21F8F723FB23AC1C212B
:108180002046F8F71EFB0DF170091C214846F8F750
:1081900018FB15AF1C213846F8F713FB0DF1380B0F
:1081A0001C215846F8F70DFB07AE1C213046F8F7A6
:1081B00008FBEA461C215046F8F703FB05F11C01B9
:1081C000DFF8D88C2AA80A46C047204629462A4606
:1081D000C047484629462246C0470F4C38462946E4
:1081E0002A46A047584629463A46A04730464946BF
:1081F0005A4600F047FB094A50463146A0472AA894
:108200000AF1040118220430F8F7B1F8B0FA80F04E
:10821000400931B0BDE8F08F8F84000048C30500ED
:108220002DE9F04F95B06448056D002D00F0B88041
:1082300005F5017095F8CC6295F8CD7205F5D87802
:108240000824019095F8CE02009020063CD00198B9
:1082500010F906A037B940464146FFF7E7FD002870
:1082600000F08280BAF1000F2AD0D346A9465FFA07
:108270008AF048BFCAF1000B0099CDB2B5EBD01F10
:108280000AD02FB94046FFF74DFF002800F08F803D
:10829000B5FA85F0400900904FEA5B0054214D4645
:1082A00000FB019000F10C02404627B94146FFF760
:1082B0004BFC20B958E011465422F8F75BFA00272E
:1082C000013C013EC1DA0AE0701C08D0009885F834
:1082D000CD72394F85F8CC6285F8CE025EE0DFB30F
:1082E00005F5F4701C21F8F76CFA02A81C21F8F7C8
:1082F00068FA0EA81C21F8F764FA05F5F476304602
:1083000000F0C1FC2C4F28BB4046FFF72BFF08BBF9
:1083100002A8314600F0DEF838B30DF138090DF14E
:10832000080A4846514600F09AFA244C404649460D
:108330004246A047484649465246A04705F5E670E2
:1083400049460246A04730461C21F8F73AFA012078
:10835000C5F8EC01002409E000980006C5D04046AD
:10836000FFF7E0FE0028C0D1134F1F2407F1500093
:10837000FDF79FFF02AE05F5DA713046FFF742FDCB
:1083800006F1180005F5E871FFF73CFDD5E901306D
:10839000214632469847284611F072F8386D18B9D0
:1083A000074801680120884715B0BDE8F08F024FEB
:1083B0001F244D46DAE700BFCC034020B187000000
:1083C00058004020016811B14FF0FF30704700F0B5
:1083D00001B8000010B50221044600F083FCC0285B
:1083E000C4BF012010BDA6492046BDE8104000F0E2
:1083F00003BC00BFB0B5044608680D4678B1A0487C
:10840000294600F0F9FBB0F1FF3F11DD9C49204601
:108410002A4600F003FC0146002031B9B0BD984A5D
:108420002046294600F0D9FB002020600120B0BD85
:10843000934A2046294600F0F1FB00280EBF002099
:1084400001202060B0BD00BF04C40500B0B50D46DA
:108450000446814209D004F11C001821F8F7B1F953
:10846000204629461C22F8F785F90021012007281B
:1084700008D055F8202041EA420144F82010D10FDD
:108480000130F4E711B1012144F82010B0BDF0B57E
:108490008DB06D460F460446342116462846F8F73F
:1084A00090F928463946324600F097FB2846FFF7F8
:1084B00091FF002804D46946204600F0BFFB07E086
:1084C000A54204D0694620461C22F8F753F9012042
:1084D0000DB0F0BD2DE9F04FA9B00C46804614A8B0
:1084E0001C21F8F76EF90DAD1C212846F8F769F943
:1084F00022A81C21F8F765F901201C2123901BA854
:10850000F8F75FF9A5420ED00DA821461C22F8F716
:1085100031F95B490D9C14A81C22F8F72BF90020B7
:1085200014906CB906E0564914A81C22F8F722F9F9
:10853000002014900DA814A900F05EFB00280FD4B1
:108540006C46182104F11C00F8F73BF90DAD2046EC
:108550001C222946F8F70EF92846214600F0E0F9DA
:108560000DF1340A22AF6C460DF150090DF16C0B80
:108570005046012100F0A5FB00286FD10025AEB2C6
:108580005046314600F08FFBD0B99DF88C00013584
:10859000C00705D138463946012200F08AFAEEE7D5
:1085A00020463946FFF726FF002864D020462146A2
:1085B000022200F07EFA3846214600F0B1F9DEE7EB
:1085C000280404D050465146324600F041FA0025B6
:1085D000AEB24846314600F066FBC8B99DF870005F
:1085E0000135C00705D158465946012200F061FA0D
:1085F000EEE720465946FFF7FDFEE0B32046214650
:10860000022200F056FA5846214600F089F9DFE7C9
:10861000280404D048464946324600F019FA50462C
:10862000494600F0E9FA002809D4384639465A4646
:1086300000F028F9F8B1504651464A4608E058463D
:1086400059463A4600F01EF9A8B1484649465246F6
:1086500000F018F900287FF48BAF0CE014A800F0AC
:1086600012FB40B1C34504D01BA940461C22F8F7B9
:1086700081F8012000E0002029B0BDE8F08F00BFA4
:1086800004C4050070B58EB001AD0E460446342119
:108690002846F8F796F828463146FFF7D7FE2846D1
:1086A000FFF790FE002804D401A9204600F0C6FA86
:1086B00007E0A54204D001A920461C22F8F75AF889
:1086C00001200EB070BD2DE9F04F8DB0EB460F4686
:1086D0008046342192465846F8F773F8BB4504D0DB
:1086E000684639461C22F8F745F80BF10409BAF13F
:1086F000010F52DB5846012100F0F4FAC0284ADC91
:10870000C0F1C0045445C8BF544634B1A0B2B0F55E
:10871000906F09D9584634212EE058465946FFF744
:1087200095FEAAF1010A2BE0C4F34A1C14F01F01C4
:1087300014D00BEB8C03C1F120020027781D18D454
:108740000BEB870503EB8700013FAD6905FA01F6E6
:10875000D5408661C6693543C561EFE70BEB8C01F7
:108760000622531E05D45BF8227041F822701A4687
:10877000F7E74FEA8C014846F8F723F8AAEB040A1A
:108780005846FFF71FFE0028B1D45846594600F05E
:1087900055FA0028ABD1002007E0C34504D0694654
:1087A00040461C22F7F7E6FF01200DB0BDE8F08F30
:1087B0002DE9F04F8FB00E46019002A834211746E4
:1087C000F7F7FFFFBE423FD0304600F04BFA0546B8
:1087D000384600F047FA0DF10808044634214046B7
:1087E000F7F7EFFFA5B39CB3BA46A542AB4638BF37
:1087F000B246DAF8043038BF3E4606F1040938BF05
:10880000A3465A462E4608F104054946284600F07C
:108810005FFB45F82B00A64238BF344605EB8B05BD
:108820000026013CB0B2844212DD471C49465A463C
:108830000AEB8700436808EB8700043000F073FB05
:1088400045F827000136EDE702A8314600F056F959
:10885000019802A900F064F80FB0BDE8F08F70B580
:108860008EB001AE0C46054634213046F7F7A9FF1D
:108870003046214600F042F92846314600F050F8D3
:108880000EB070BD2DE9F0418EB00E46804601A8B5
:1088900034211546F7F795FF3168286811B120B1EA
:1088A000374610E068B1002402E0B0FA80F04409D5
:1088B00001AF31462A46384600F08FF901942CBBAF
:1088C00012E02F4635462846394600F095F9B0F1BA
:1088D000FF3F12DD01A829463A4600F09FF9014604
:1088E0000020B9B101AF0190474504D001A940462D
:1088F0001C22F7F73FFF01200CE001A839462A4669
:1089000000F08CF948B1012001AF01904046394692
:10891000FFF770FD0EB0BDE8F0810020FAE700001F
:108920002DE9F04794B00DF11C080D4604463421A2
:108930004046F7F746FF6F461C213846F7F741FFE0
:10894000002002212060284600F0BBF938B1A54282
:1089500072D0204629463422F7F70CFF6CE02846F7
:10896000FFF730FD002863D0B0F1FF3F67DDA84579
:1089700004D007A829461C22F7F7FCFE38461C2124
:10898000F7F71FFFD5E90701261DDFF8C090062382
:10899000CDE90301CDE9010108F1040107F1040863
:1089A00030464246C8474FF0000A07464246062373
:1089B000CDE900AACDF808A0D5E90901CDE9050166
:1089C000CDE9030130463146C847CDF800A0002F5D
:1089D0004FF00603D5E90B12CDE90512CDE90312DC
:1089E000CDE901124FF0010142461CBF02210127CF
:1089F0000028304618BF0F463146C847002898481F
:108A000018BF0137051D37B1304631462A4600F000
:108A1000B7FA013FF7E7924D2046294600F0ECF8FF
:108A2000002809D42A1D3046314600F0A9FA03E097
:108A300020461C21F7F7C5FE14B0BDE8F087A5421B
:108A4000FAD0204629461C2286E700BFA18E0000EE
:108A5000F8B5C12A03DB1C21F7F7B3FEF8BD884245
:108A600002D00B68036000E0D2B12023043092FBF7
:108A7000F3F4A2EB4412A2B101EB8405C2F120038E
:108A8000023404352D6825FA02F6072C07D051F878
:108A90002450013405FA03F73E4340C0F3E7066073
:108AA000F8BD621C072AFBD051F82230013208C001
:108AB000F8E770B504460D4608461146164600F024
:108AC00000F938B12046022E0CBF34211C21F7F7E3
:108AD00078FE70BDA5421CBF2868206006EB4600EA
:108AE000410000204A1E48BF70BD55F8213040EAC1
:108AF000530044F82100D8071146F3E72DE9F04F61
:108B00008FB000240E4682463421046002A8F7F795
:108B100058FE304600F0A6F8D346814606F1040818
:108B20004BF8044FB9F1020F0BEBC0000BF1040737
:108B300040F8044C4FEA490001900ED3A9F101001E
:108B40007368083682B23846314600F0C1F90AEB44
:108B500089010AF11007486000E04646A9F10204C5
:108B6000043607EB8405012C0BDB56F8043CA2B25B
:108B70003846314600F0D7F901C50436013C0837C4
:108B8000F1E7019D584659465A462B4600F088F9B0
:108B900002A8B9F1000F00F1040216D01046B9F195
:108BA000000F12D058F8041BA9F101090B0C89B26F
:108BB00001FB03F449435B4311EB44414FEAD434D6
:108BC0006341C0E900130830E9E7584659462B468F
:108BD00000F066F90FB0BDE8F08F70B50D46342196
:108BE00014460646F7F7EDFD301D291D221D06230C
:108BF00000F056F9F06170BD10B50622531E44BF57
:108C0000002010BD51F8224050F82220A2421A46FE
:108C1000F4D04FF0FF3088BF012010BD70B50D4675
:108C20001C2114460646F7F7CCFD301D291D221DD8
:108C300000F0A6F9B0FA80F0400970BD10B5084AFE
:108C40000C4604300431043200F09AF930B1E16985
:108C500021B1081AE0611CBF002010BD012010BD29
:108C600004C40500021D05214FF0FF300BB2834202
:108C700006DD8BB252F823300BB90139F6E708460E
:108C8000013080B270470221072906D050F8212018
:108C90000131002AF8D00020704740680138B0FA4E
:108CA00080F040097047BF2984BF002070474A09FF
:108CB00001F01F0100EB82004068C84000F0010095
:108CC000704701EB410104300022490093B2994200
:108CD0009CBF0120704750F823300132002BF5D0A3
:108CE00000207047F8B501EB41060446750029469F
:108CF000FFF7E7FF08B10020F8BD6FF01F0000EBA1
:108D0000861210466B1E2CD454F82510A0F12002B8
:108D10001D460029F5D000220B460F0CB2EB114F77
:108D200018BF0B0C13F47F4418BF1B0A13F0F00597
:108D300018BF1B0903F00C06B2EB114F18BF012737
:108D400039010831002C08BF3901002D18BF04314A
:108D5000002E1CBF02319B08C3F3400211440131B5
:108D600000E000210844F8BD2DE9F84F04464FF417
:108D70008C70022110F0CEFC4FF48C718246F7F714
:108D800020FD0AF11C09009404F13805A824B4F56B
:108D90008C7F0AD00AEB0400854203D029461C22AE
:108DA000F7F7E8FC54351C34F1E70AF18C05A824E8
:108DB0005CB10AEB040000F1380100F154022846CE
:108DC000FFF7F6FC383C1C3DF2E70AF15407384641
:108DD0003946FFF77FFB002858D04FF0020B0024E4
:108DE000BBF1080F23D20AEB04065046394606F1C0
:108DF0008C052A46FFF7DCFC703648463946324679
:108E0000FFF7D6FC14F1700804D0304651461C22FE
:108E1000F7F7B0FCB8F1000F04D0284649461C22F1
:108E2000F7F7A8FC38341C370BF1020BD8E7DFF852
:108E30006CB00AF1A80700244FF00108B4F5A87F30
:108E400022D000980121051905F138063046FFF7B8
:108E500038FFB0B948463946FFF701FD2846294694
:108E60004A46D847484649463A46D84705F11C0085
:108E70004A460146D84730461C21F7F7A2FCC5F800
:108E80003C801C375434D9E7012500E000255046CA
:108E900010F0F6FA2846BDE8F88F00BFB187000051
:108EA00084460020012B12DBF0B5002563B180C998
:108EB00040CA013B7C19A41940F10006ED194CF899
:108EC000044B46F10005F1E72846BDE8F040704745
:108ED0008446002032B32DE9F0411FFA83F84FEAAF
:108EE000134E0026DAB180C9013A3C0CBFB204FB34
:108EF00008F504FB0EF407FB0EF35B1907FB08F5FE
:108F000028BF04F5803404EB134415EB034340F110
:108F100000059B1944EB05064CF8043BE2E730469C
:108F2000BDE8F04170472DE9F041044600202AB326
:108F30001FFA83FE4FEA134C4FF00008EAB180C9D4
:108F4000013A3D0CBFB205FB0EF305FB0CF507FB28
:108F50000CF69B1907FB0EF628BF05F58035276830
:108F600016EB034645EB134316EB080540F10006EC
:108F7000ED1943EB060820C4E0E74046BDE8F08168
:108F8000F0B5034600200024062C08BFF0BD51F8C0
:108F9000246052F82450371AAE42A7EB05074FF071
:108FA000000543F8247038BF012518BF2846013456
:108FB000EAE7BFB514460A46014608980025CDE900
:108FC0000053234602900220FEF7D8FA04B0B0BD49
:108FD00070B590B01C4615460E46A8B110493046F3
:108FE0002022F7F7C7FB6E460E4920223046F7F7DE
:108FF000C1FB0D4906F120002022F7F7BBFB2846F4
:109000003146A04710B070BD304600F01FF8304622
:109010002946224610B0BDE8704000F007B800BFF6
:10902000F8B20500B8B20500D8B205001FB5044675
:109030000120054B8DE80700024A01202146FEF77A
:109040009DFA1FBD76B2050096B205002DE9FE4FD0
:1090500004461C30DFF89480DFF894900FF2940AF5
:10906000029004F1180004F1100B04F10C0604F155
:109070000807251D019004F114000090C047014627
:109080002046C847C04701462846C847C047014652
:109090003846C847C04701463046C847C047014622
:1090A0005846C847C04701460098C847C0470146D0
:1090B0000198C847C04701460298C8471F200028AA
:1090C00004D4215C01380029F9D002E0207800287E
:1090D000D4D01F20002807D41AF80010225C8A423E
:1090E000CCD8A0F10100F5D2BDE8FE8F2503000029
:1090F000B36C0000A892317E61E5DC7942CF8BD35E
:10910000567D73DEFFFFFFFFFFFFFF7F0000008043
:10911000FFFFFF7F70B5A8B11148016800208847A4
:10912000104E06F15804B06D88B12046FDF7C1F825
:109130000546D0F8500108B110F0A2F9284610F009
:109140009FF9F0E704480549026800209047054868
:109150000021C0E9161170BD540040209D77000029
:1091600058004020CC0340209A4A9423528800FBA8
:1091700003200B4A835A6FF39F2343EA81218152D4
:10918000704700BF934A9423528800FB0320044A8F
:10919000835A6FF39F2343EA81218152704700BFB6
:1091A00036804020B0B512018A4C942542EA012154
:1091B000049A648841EAC30100FB054041EA820148
:1091C000059A1143084A8152B0BD00BF814A9423D9
:1091D000528800FB0320044A835A23F0080343EA21
:1091E000C1018152704700BF16804020794A942304
:1091F000528800FB0320034A835A23F0FF031944DB
:109200008152704768804020724A00EB400092888B
:1092100002EB8000CF4A835A23F4804343EA813132
:10922000815270476B49C0EBC000C98801EBC00098
:10923000C849405AC0F3C010704700BF6549C0EB31
:10924000C000C98801EBC000C249405AC0F34000C9
:10925000704700BF5F49C0EBC000C98801EBC00088
:10926000BC49405AC0F3C000704700BF10B5594C0C
:1092700000EB8010A48B04EB8000B64C005B840BE9
:109280000C70C0F301211170187010BD5149C0EB72
:10929000C000098901EB8000A349405AC0F3401087
:1092A000704700BF4B49C0EBC000098901EB80004B
:1092B0009D49405AC0F3C010704700BF4549C0EBFC
:1092C000C000098901EB80009749405AC0F3801023
:1092D000704700BF3F49C0EBC000098901EB800027
:1092E0009149405AC0F38010704700BF3949C0EB24
:1092F000C000098901EB80008B49405AC0F38010FF
:10930000704700BF3349C0EBC000098901EB800002
:109310007749405AC0F34020704700BF2D49498922
:1093200001EB0010B949405AC0F30030704700BF4C
:1093300010B5284CD20142EA0121029A648941EA1F
:10934000831104EB00101143334A815210BD00BF5A
:10935000204A528902EB00102F4A835A23F03F0320
:1093600019438152704700BF1A4A528902EB00101C
:10937000294A835A23F03F0319438152704700BFA3
:1093800010B5D201134C42EA0121029A648941EAE4
:10939000831104EB001041EA4211039A1143544A2D
:1093A000815210BD0B4A528902EB0010504A835A79
:1093B000DBB243EA01218152704700BF054900EB4F
:1093C0004000C98C01EB40100349405AC0F34030C3
:1093D000704700BFF80040205E80402010B5044672
:1093E000132047F007F804EB440100EB4110024959
:1093F000405AC0F3802010BD5C804020B0B500EB27
:1094000040001446400100EB4105132046F0F2FFF6
:10941000284401494452B0BD08804020B0B50546FB
:1094200013200C4646F0E6FF05EB450100EB41102A
:1094300001494452B0BD00BF1C804020B0B5054674
:1094400013200C4646F0D6FF05EB450100EB41101A
:1094500001494452B0BD00BF1E804020B0B5054652
:1094600013200C4646F0C6FF05EB450100EB41100A
:1094700001494452B0BD00BF20804020B0B5054630
:1094800013200C4646F0B6FF05EB450100EB4110FA
:1094900001494452B0BD00BF22804020B0B505460E
:1094A00013200C4646F0A6FF05EB450100EB4110EA
:1094B00001494452B0BD00BF2480402010B504468D
:1094C000132046F097FF04EB440100EB4110F249F2
:1094D000405A10BDB0B5054613200C4646F08AFF31
:1094E00005EB450100EB4110F6494452B0BD00BF09
:1094F0000280402010B50446132046F07BFF04EBA9
:10950000440100EB41100849405A10BDB0B5054672
:1095100013200C4646F06EFF05EB450100EB4110B1
:1095200001494452B0BD00BF04804020B0B500EBFB
:1095300040000C46074901EB4015132046F05AFF46
:10954000285A6FF3DF3040EAC434132046F052FF4C
:109550002C52B0BD00804020B0B500EB4000144656
:10956000400100EB4105132046F044FF2844014927
:109570004452B0BD3E804020B0B500EB40000C46E8
:10958000904901EB4015132046F034FF285A20F48F
:10959000006040EAC424132046F02CFF2C52B0BDDA
:1095A00010B50446132046F025FF04EB440100EB00
:1095B00041108449405AC0F3022010BDB0B500EB01
:1095C00040000C467F4901EB4015132046F012FF86
:1095D000285A20F4804040EA8434132046F00AFFE1
:1095E0002C52B0BDB0B500EB40000C46754901EB04
:1095F0004015132046F0FEFE285A20F4805040EA21
:109600000434132046F0F6FE2C52B0BD06804020F4
:10961000B0B500EB40000C46074901EB40151320A4
:1096200046F0E8FE285A20F0FF000444132046F0DC
:10963000E1FE2C52B0BD00BF26804020B0B500EB4B
:1096400040000C460E4901EB4015132046F0D2FEB7
:10965000285A6FF3DF3040EAC434132046F0CAFEC4
:109660002C52B0BDB0B50446132042EA012546F0A5
:10967000C1FE04EB440100EB411001494552B0BD6D
:1096800014804020B0B5054614200C4646F0B2FECA
:1096900000EB051001494452B0BD00BF0A804020D4
:1096A00070B50646132014460D4646F0A3FE06EBA1
:1096B000460100EB41100449405AC10B6FF39F2053
:1096C0002970208070BD00BF5680402010B5044630
:1096D000132046F08FFE04EB4401002200EB411002
:1096E0000149425210BD00BF4C80402010B50446D5
:1096F000132046F07FFE04EB4401002200EB4110F2
:109700000149425210BD00BF4E80402010B50446B2
:10971000132046F06FFE04EB4401002200EB4110E1
:109720000149425210BD00BF5080402010B5044690
:10973000132046F05FFE04EB440100EB41100149A9
:10974000405A10BD5280402010B50446132046F008
:1097500051FE04EB440100EB41100149405A10BD99
:109760005480402010B50446142046F043FE00EB20
:1097700004100149405A10BD0C80402010B5044629
:10978000142046F037FE00EB04105549405A10BD36
:1097900010B50446152046F02DFE04EB440100EB05
:1097A00081000849405A10BDB0B5054615200C4649
:1097B00046F020FE05EB450100EB810001494452D3
:1097C000B0BD00BF0680402010B50446132046F00F
:1097D00011FE04EB4401002200EB4110014942520A
:1097E00010BD00BF4680402010B50446132046F04F
:1097F00001FE04EB4401002200EB411001494252FA
:1098000010BD00BF4880402010B50446132046F02C
:10981000F1FD04EB4401002200EB411001494252EA
:1098200010BD00BF4A804020B0B5054613200C464D
:1098300046F0E0FD05EB450100EB411001494452C3
:10984000B0BD00BF1A804020B0B500EB40000C4610
:10985000234901EB8005152046F0CCFD285A6FF313
:10986000DF3040EAC434152046F0C4FD2C52B0BDB0
:10987000B0B500EB40000C46194901EB80051520FE
:1098800046F0B8FD285A20F007000443152046F0A2
:10989000B1FD2C52B0BD00BF02804020B0B500EB3E
:1098A00040000C460E4901EB8005152046F0A2FD54
:1098B000285A20F0780040EAC404152046F09AFDAA
:1098C0002C52B0BD028040200449054A498D8B5A74
:1098D00023F0780343EAC00088527047F800402024
:1098E0000280402010B50446152046F083FD04EBAD
:1098F000440100EB81000849405A10BDB0B505464F
:1099000015200C4646F076FD05EB450100EB810085
:1099100001494452B0BD00BF0880402070B50646E2
:10992000152014460D4646F065FD06EB4601204A1B
:1099300000EB810044EAC50141F00401815270BD91
:10994000B0B500EB40000C46194901EB800515202D
:1099500046F050FD285A4EF20701084040EAC40480
:10996000152046F047FD2C52B0BD00BF10B504468F
:10997000152046F03FFD04EB440100EB81000C494B
:10998000405A00F0030010BDB0B500EB400008499C
:1099900001EB8004152046F02DFD205A40F0010017
:1099A00020F00205152046F025FD2552B0BD00BF70
:1099B00004804020B0B50446152042EAC13546F087
:1099C00019FD04EB440100EB810048494552B0BD4C
:1099D000B0B500EB40000C46444901EB8005152072
:1099E00046F008FD285A6FF3DF3040EAC4341520F2
:1099F00046F000FD2C52B0BDB0B500EB40000C4667
:109A0000254901EB4015132046F0F4FC285A20F4B8
:109A1000806040EA8424132046F0ECFC2C52B0BD58
:109A2000B0B500EB40000C461B4901EB401513207C
:109A300046F0E0FC285A20F4407040EA0424132049
:109A400046F0D8FC2C52B0BDB0B500EB40000C463F
:109A5000114901EB4015132046F0CCFC285A6FF356
:109A60005F3040EA4434132046F0C4FC2C52B0BDB1
:109A7000B0B500EB40000C46074901EB4015132040
:109A800046F0B8FC285A20F003000443132046F0A7
:109A9000B1FC2C52B0BD00BF16804020B0B50446CA
:109AA000132042EAC13546F0A5FC04EB440100EB6B
:109AB000411001494552B0BD188040200B49425C1D
:109AC0000844417842EA01218278C07841EA0241A3
:109AD00041EA0060704700BF044A815410440A0AFA
:109AE00042700A0C090E8270C170704700804020DD
:109AF00010B5064C2068400005D4F7F7FFFE20683B
:109B000040F080502060012010BD00BF10F00040E8
:109B10002DE9F04FA1B0054600680C46002879D029
:109B200000EB4000696801EBC00003A9A0F1180731
:109B300028463C2FA8BF3C273A4600F0D1FA2868B7
:109B400001950138F7F788F83649F6F79DFE4FF092
:109B50007E51F6F741FE002105464FF0000AF6F768
:109B6000E4FF064638460297F7F776F801464FF0CD
:109B70007E50F6F7BBFE002E18BF00252946804612
:109B8000F6F782FE83464FF07E504146F6F776FEAA
:109B90002946F6F779FE064645460298824536DAAA
:109BA00003A830F91A00F7F757F801463046F6F7E0
:109BB0006BFE074634F91A00F7F74EF801462846BF
:109BC000F6F762FE01463846F6F706FE164F814666
:109BD0003946F6F7C6FF40B948464FF04741F6F719
:109BE000B2FF4F4608B94FF047473846F7F750F8ED
:109BF00024F81A0030465946F6F740FE064640461D
:109C00002946F6F7E9FD05460AF1010AC5E7019D77
:109C1000002028602846214621B0BDE8F04F00F022
:109C2000D7BA00BFCDCC4CBE00FEFF46002101607C
:109C300000F23461416100F2AC604FF4C37100F096
:109C40000BBBF8B514460D4606460027A742A8BF31
:109C5000F8BD01CEF7F71CF825F817000137F5E736
:109C600010B500239342A8BF10BD30F8134021F86F
:109C700013400133F6E700002DE9F04F99B080461C
:109C800000688A46411E022971D2D8E901240AA936
:109C9000404600F025FAD8F80C000119091A814253
:109CA000FCDCC8F80810D8F80430D8E904120844DD
:109CB000C8F81000A2EB8000A2EB8302A0EB8301A6
:109CC000C8F8180008F2346000F028FA40465146FF
:109CD0003C2200F005FAD8F804B0CDF80C80BBF1B6
:109CE000000F55D05846F6F7B7FF01464FF07E50AB
:109CF0004FF07E56F6F7FAFD8146002704463046BF
:109D00004946F6F7BBFD5F4542DA06460AA830F938
:109D10001700F6F7A1FF01463046F6F7B5FD0546F8
:109D20003AF91700F6F798FF01462046F6F7ACFD22
:109D300001462846F6F750FDE64D80462946F6F7DF
:109D400010FF40B940464FF04741F6F7FCFE45464C
:109D500008B94FF047452846F6F79AFF2AF817004A
:109D600048462146F6F738FD04460137C7E790B963
:109D700040F2AC640025B5F5C36F14D038F9040087
:109D8000F6F76AFF08EB050104350234C861F2E713
:109D9000DDF80C808CE10628C0F2858150463C211C
:109DA00000F05AFA89E1D8F81410CB48CDF80C80AD
:109DB0004FF000084FF0000B4FF0000901EB80045A
:109DC000A1F5207601910294B9F19F0F18D825686A
:109DD000D4F8E07128462946F6F756FD0146584664
:109DE000F6F7FAFC834628463946F6F74DFD01465C
:109DF0004046F6F7F1FC8046083409F10209E3E732
:109E0000B6495846CDF814A0F6F78FFE00285846FC
:109E10001CBF0020C4F27A3051F0F6F901464046EA
:109E2000F6F764FD0546029802224FF0000A00F1A1
:109E3000080104910021502A099157D800F1080126
:109E4000CDE9075200244FF000080691D0F8805267
:109E50000768DDF81090B8F19F0F0FD859F80A0085
:109E6000D9F8D811F6F710FD01462046F6F7B4FCF4
:109E7000044609F1080908F10208ECE738463946BA
:109E8000F6F702FD074628462946F6F7FDFC05468B
:109E900058463946F6F7F2FC2946F6F79DFC8F49FD
:109EA0008346F6F742FE002858461CBF0020C4F245
:109EB0007A3051F0A9F901462046F6F717FD079FC1
:109EC00004463946F6F731FE002825462046394635
:109ED00018BF3D46F6F729FEDDE9082100280AF102
:109EE000080A08BF114606980232A4E74FF000099D
:109EF00000294FF000044FF000084FF0000BC8BFDE
:109F0000A1F101090298DDF814A000EB8907B4F56E
:109F1000207F14D03D5931592846F6F7B5FC01464B
:109F20004046F6F759FC804628462946F6F7ACFC31
:109F300001465846F6F750FC83460434E7E7099893
:109F400050215028B8BF411C069158466349F6F786
:109F5000ECFD002858461CBF0020C4F27A3051F0B6
:109F600053F901464046F6F7C1FC80460198494640
:109F700000EB8900A0F25C450698814255DA381D55
:109F8000D7F880A23F68CDF8249001314FF0000946
:109F9000002408910790B9F5207F0DD055F80900ED
:109FA00056F80910F6F770FC01462046F6F714FC47
:109FB000044609F10409EEE738463946F6F764FC31
:109FC000074650465146F6F75FFC824658463946EA
:109FD000F6F754FC5146F6F7FFFB40498346F6F787
:109FE000A4FD002858461CBF0020C4F27A3051F06E
:109FF0000BF901462046F6F779FC41460446F6F790
:10A00000B0FD002847462046414618BF2746F6F7D0
:10A01000A8FDDDE908190028B84605F1040518BFB8
:10A020008946079FDDF814A0A6E7DDF80C80C9F18A
:10A0300078040026A6EBA40124F00300A310D8F8AE
:10A040001450C8F80C40C8F804302A1A08F23460DA
:10A050009E4205DA52F8267040F826700136F7E77E
:10A06000C8F810400024C8F8084005EB8904A4F59E
:10A07000F07404EB8101C8F8184000F04FF8D8F8EC
:10A080000420D8F81400C2F5C371A0EB820008EBDD
:10A09000410101F2AC61FFF7D4FD404651463C223C
:10A0A00000F01EF809E0404651463C2200F018F846
:10A0B000D8F80000514600F0A5F8D8F80000514645
:10A0C0000130C8F80000404619B0BDE8F04F00F07C
:10A0D0007FB800BF00FEFF46E8FEFFFF00007A43A6
:10A0E000F8B514460D460646BCB1B0683169B26990
:10A0F0000F1A02EB80002946A742C8BF27463A46FE
:10A10000FFF79FFDB0683169E41B05EB4705384454
:10A11000411A18BF0146B160E6E7F8BD2DE9F04FDE
:10A1200085B00446002B184602934BD00298914606
:10A130000F46F6F791FD01464FF07E504FF07E5AE4
:10A14000F6F7D4FB05460026834601905046294683
:10A15000F6F794FB82460298864233DA216850462D
:10A1600003964D460494F6F78FFB39680646584629
:10A17000B846F6F789FB01463046F6F72DFB134942
:10A1800006468946F6F7EDFC0028484609D13046D8
:10A190004FF04741F6F7D7FC0028304608BF4FF094
:10A1A0004740A946019D594649F8040B2846F6F751
:10A1B00013FB049C039E4746834608F104070434BE
:10A1C0000136C3E705B0BDE8F08F00BF00FEFF46D3
:10A1D00070B505460A4E0C4600F224704FF4A57285
:10A1E00005F2AC61B04705F5146120463C22B0474A
:10A1F00005F6041021463C223346BDE8704018475E
:10A20000619C0000F8B501380C46F6F725FD1049B1
:10A21000F6F73AFB4FF07E51F6F7DEFA06460027D6
:10A220000C4D3C2F08BFF8BD34F91700F6F714FDAC
:10A2300001463046F6F728FBF6F72AFD24F817000A
:10A2400030462946F6F7C8FA06460137E9E700BF67
:10A25000CDCC4CBE0E745ABB002200238B42A8BF4B
:10A26000704720F813200133F8E7B0B5044641F2F7
:10A27000021000211022012300250FF089FA057039
:10A280000BF068F994F83F00A58784F83E0020465B
:10A2900000F00AF894F843004FF4805101FA00F0FE
:10A2A000BDE8B0404EF02EB803460320154A012108
:10A2B00083F840001869D0F800C003F13F00604700
:10A2C0000346022083F84000D3E90420D2F800C0FE
:10A2D0000C4A6047B0B5044600200A4A012184F8C0
:10A2E000400020692346056804F13F00A84794F820
:10A2F00043004FF4805101FA00F0BDE8B0404EF049
:10A3000001B800BFDDA800002DE9FF47044690F822
:10A31000420060B1012804D094F84000002800F009
:10A320008E82204604B0BDE8F047FFF79EBF94F848
:10A330004000032827D8DFE800F0022F516B94F883
:10A340003F10062984F84110EBD8012202FA01F0EF
:10A3500010F06E0FE5D084F84020DFF8782504F186
:10A360003C002346515C22691568DFF86C25A8473C
:10A3700094F843004FF4805101FA00F004B0BDE8B6
:10A38000F0474DF0DDBFDFF8340540F2C73104B0CF
:10A39000BDE8F0474CF09EBA94F84100013805281A
:10A3A00000F2D380DFE800F0035B9AD1D6E294F8A4
:10A3B0003C0094F83E5094F83D1040EA0120A087FC
:10A3C00080B20CF0A7F88542ABD894F83E00002884
:10A3D00000F0E28101210FF09DF916E194F84100AF
:10A3E0000138052800F2DF80DFE800F003CBCFDD85
:10A3F000E5F0626994F83E10A08F0CF095F8606962
:10A40000002800F01C820FF03BF80020606116E28B
:10A41000E06BD449884217D094F843004FF4805140
:10A4200001FA00F04DF08CFF0020032806D021181F
:10A43000013091F83D2081F83C20F6E7204604B039
:10A44000BDE8F047FFF730BF40F603400CF062F87C
:10A4500040F60340002100220CF066F8EFE194F88A
:10A460003E0094F83F1040EA0129A4F83E905FEACC
:10A47000094094F83C7094F83D6047EA0625A587AA
:10A4800000F035816FF31F3545F054FF85424FEAE8
:10A4900096104FF000014FF0FF08B0FA80F238BF7D
:10A4A0000121520912EA010A4FEA07211CBF01F1FA
:10A4B00004084FF0FB0A0121B1EB961F00F0388130
:10A4C00038B9802D05D345F03FFF7F30A84280F09A
:10A4D000DE81B8F1FF0F40F0358137E1DFF8E0139E
:10A4E00094F83C0094F83E5094F83D20096840EA06
:10A4F000022002F00F02013A4978D6B2A0878E42BC
:10A500007BD26FF0FF026FF31F3002FA01F1FF31CF
:10A5100001EA0007802F70D345F016FF7F30B84264
:10A520006BD3DFF8A003C7EBC701C06908448E49AD
:10A53000405C022861D130462946FBF7B7FC002871
:10A540005BD08A490844606163E0DFF8700340F241
:10A5500036312BE0A78FB4F83E903E466FF31F369E
:10A56000B6F5407F58D3A6F540705BE0CB481A3073
:10A57000606194F83D0094F83E1040EA012081B2F9
:10A580007FE16269E18FA08FB4E0CB4E656996F8F8
:10A590002600002800F0B18028460EF071FF002050
:10A5A00086F826004BE1C54840F2AA3104B0BDE868
:10A5B000F0474CF092B9A18F60690A466FF31F32E1
:10A5C000B2F5407F6ED3A2F5407271E0B34803222A
:10A5D000817EC17E017F417F042101770021417787
:10A5E0008177C17780F820104176C27680F82110FB
:10A5F000AB4801680220884721E128460121012655
:10A600000FF088F8AC4981F82660002860613FF4BB
:10A6100088AE94F83E1034E1B6F5007F34BF38467A
:10A62000A6F500706FF39F39C5B245F083FE8542F1
:10A6300080F0C4809B48406950F82580B8F1000F35
:10A6400000F0BC80C7F30131380BDFE801F002A74E
:10A6500002A7D8F81410002940F0B080042121EAA4
:10A660000000C0F108018945C0F0A880B8F81C00BE
:10A6700001444945C0F0A28023300021002720F08A
:10A6800003000FF047F8002800F09880868104222C
:10A69000C8F81400A8F81E70A18F22EA11310844EE
:10A6A0001630F9E0B2F5007F34BF0A46A2F5007219
:10A6B0007C4DEB6A834236D0D0B26A6952F82050A2
:10A6C000002D00F0BC806E69C1F30137B4F83E8004
:10A6D0006FF39F38DFE807F0024C024C11F4804919
:10A6E00040F0838001A84DF081FE039887E0284662
:10A6F000002100220BF0BCFEA1E0A68F48F2010071
:10A7000094F83E700022062380EA062081B241F2CE
:10A7100007100FF03DF885F40041877006808180B6
:10A720000FF0AAF88BE00EF0ABFE0020E86286E0A6
:10A730004FF00208654840F2FD3AC07C002808BF8F
:10A7400040F2A72A1FFA89F5AA4502D200206061CB
:10A75000E7E55FFA88F0411E02293DD2FBF7A6F932
:10A760003EE000BF01030C0080FCFFFF00804020A2
:10A77000307C032F00F101003074E88B4044E88303
:10A7800056D0718980B2884252D058D346A04FF437
:10A79000F0714CF0A2F852E0A08F5BE6D8F81400FC
:10A7A00060B1B8F81E10B8F81C3001EB09029A42EB
:10A7B00070D90EF065FE0020C8F81400484602214A
:10A7C0000EF0A8FF374900286061C8623FF4A9ADC8
:10A7D000E18F6FF39F3154E0042836D1FAF7FCFC87
:10A7E000C0B33949084460614AE0B07DF17D40EA78
:10A7F0000120317E40EA0140717E40EA01607060D4
:10A800000120022F3074B07EF17E40EA01203081B9
:10A81000307F717F61F30B20708109D06FF00301ED
:10A8200081EA193141448AB2824201D2E98306E0C9
:10A8300028463146FBF747FD0020E8836861204643
:10A8400004B0BDE8F047FFF745BD214840F2F6618E
:10A850004CF040F841F2021000211A220123012697
:10A860000EF096FF06700AF075FE284601210EF0E4
:10A8700051FF11490028606181F826603FF451AD15
:10A88000E18F204604B0BDE8F047FFF719BD4FF057
:10A8900001084FE708441E30606199E744044020F6
:10A8A000740040204406402069736F6F6863695FDD
:10A8B000696E2E6300000000E00540203DF10500B8
:10A8C00008004020C80C402000804020DC004020D0
:10A8D00044F10500B4C40500DDA8000080F8421072
:10A8E00090F8431009B1FBF769BCFBF731BC0000DD
:10A8F000F8B5044600F1100690F83C000021A4F1E0
:10A90000080500EB400046F8201006EB8000406888
:10A9100000B18047FF2000213246002384F83C002C
:10A92000032909D0176827B1977A9F4284BF084648
:10A930003B460C320131F3E784F83C00C0B2FF28FB
:10A9400010D000EB4001A2682B4656F8210006EB20
:10A950008101D2F804C0084A0989013101B0BDE87B
:10A96000F040604795F843004FF4806101FA00F031
:10A97000BDE8F8404DF0C6BC7DA900000146083096
:10A9800091F8431009B1FBF719BCFBF7E1BB0000DC
:10A99000F8B50446011D1E484422F5F7EBFE1D489C
:10A9A000052101701C4904F1480008601B48416FF3
:10A9B00019B104F12800884748B31948002143F62B
:10A9C000E07C4160BFF34F8F0268C2F34E31C2F3A7
:10A9D000C9039A0701330CEA411516461F4646EA99
:10A9E000050406F14046013FC0F8EC41F7D14C1E8A
:10A9F00000292146EFD1BFF34F8F0A484FF0A53110
:10AA0000BFF36F8F0160BDE8F840F6F777BFF8BD80
:10AA1000AC1540209D074020F015402050034020F9
:10AA200080ED00E0BCFD40202DE9F04190B0804673
:10AA3000AF480D0A16460C46406C50F82570084683
:10AA40000EF068FF09280DD0042837D101AD2D493B
:10AA50003C222846F5F78EFE204631462A4613F062
:10AA600061FA48E026482146026840F204609047B7
:10AA7000204601210EF072FF3046002110F0FBF954
:10AA800097F8890000F00300032805D040F20F601A
:10AA9000214622460EF006FF98F8060098B907F105
:10AAA000380128463FF028FC68B1012087F84400AF
:10AAB00087F8D401204611F00BFC0DE030460C2144
:10AAC00010F0D9F917E0012097F83920332187F8E1
:10AAD0004500284616F042FA3EF00EF928B140F241
:10AAE0001660214622460EF0DDFE40F21960214636
:10AAF00022460EF0D7FE002010B0BDE8F08100BF66
:10AB00008C00402034B2050070B590B0064608466F
:10AB100014460D460EF0FEFE042863D10020354A8F
:10AB2000039009908DF81000CDF81200CDF81600B2
:10AB30008DF82800CDF82A00CDF83600D6E90201BC
:10AB4000CDE90101CDE907011821708A01EAC001B0
:10AB500022FA01F101228DF80C108DF811108106F6
:10AB60004FF0100158BF0821ADF82E10ADF830108D
:10AB7000C1B200F4407002EB9112B0F5007F8DF885
:10AB800032208DF83320C1F382018DF834108DF816
:10AB900035104FF0040108BF0121B0F5807018BFD7
:10ABA00008468DF824008DF829002146308AADF83A
:10ABB0003A00307D8DF83E00F08A01AE324680F4D6
:10ABC0007070ADF83C00284613F0ACF94849280AEB
:10ABD0003C22496C51F82000314600F5F070F5F741
:10ABE000C9FD03E020460C2110F045F9002010B00B
:10ABF00070BD00BF020001032DE9FE43DFF8F89AA3
:10AC0000140A0D46D9F8040050F82470204623F0A9
:10AC10007FFD002861D16988F1B128886FF39F31E9
:10AC2000AB8800F440420A443249C98A591A324B6F
:10AC300001EB1161C1F307211B6C03EBC10697F80F
:10AC40009930314621F8062F22F4405263B100209A
:10AC50000A8087F899000BE0288810F4405F04BF51
:10AC6000012087F8990038E000F440501043088034
:10AC70002248407F40060CD521480DF10B024FF4CD
:10AC800080412346009607680720B8479DF80B10BF
:10AC900009B3F5F777FA8046D9F8200050F8247008
:10ACA000A7B107F12C003146FBF70DFBB7F8860082
:10ACB00040F00800A7F88600204630F08BFD2046C3
:10ACC0003946012230F0FEFE002600E00C26404608
:10ACD000F5F75CFA00E0C6B23EB1688810B1A8880A
:10ACE000FAF78CFA204623F011FC0020BDE8FE8321
:10ACF000D4024020F800402030074020A80840201F
:10AD00009C0140202DE9F04F8FB0B1F802A0BAF1BC
:10AD1000000F00F00A82DFF8B8058A880988DFF89A
:10AD2000ACBEC08F101A40F2044290FBF2F0DFF884
:10AD3000682CC0B2526C00EB400002EB8008524617
:10AD40006FF31F32C14639F80A0F00F44060104318
:10AD500001F4405201F4404110440844DFF88C14DF
:10AD6000A9F800009BF858000E7D8B81C00710D019
:10AD7000DFF87C04CDE900810DF1390201210023C7
:10AD8000029604681620A0479DF83910002900F0AB
:10AD90008A806FF39F2AF5F7F5F905460C27BAF17B
:10ADA000000F00F0B781B9F8000000F44040B0F5A2
:10ADB000804F40F0AF81DFF8944F0D96E66D002E86
:10ADC00040F09B811EF0ECFF0C909BF85A00C007EE
:10ADD00013D0DFF820042646DFF810340DF13A02D4
:10ADE0004FF4803104680D9800901620A0479DF81C
:10ADF0003A003446002800F07F814C2000210EF0FC
:10AE000089FC0028E06500F07781074645F09CFA50
:10AE1000099038464C210026F5F7D3FCDFF8D8031B
:10AE2000DFF8D813C7E9070628207962B876C7E9A2
:10AE30000B6640F2E2400B970A9578610998871CEF
:10AE40009BF84800C0070AD0EE480DF13B020121F3
:10AE500003681220984706469DF83B0030B3BB4676
:10AE600045F072FA616D00260F1F00EB4001E44AC5
:10AE700002EB41118C1DF1B2032916D0012814DB1D
:10AE8000451E57F82000603C00282846F3D01320C8
:10AE900045F0B0FA005B40044FF0010058BF0220BB
:10AEA00006432846E1E7C7B237E15F46F9B2D44C22
:10AEB000CD4F01EB410B04F116000991F98C40EAEA
:10AEC0004B10425A22F008024252F98C425A6FF358
:10AED0005F324252F98C425A22F080024252CA49F1
:10AEE00004F1140040EA4B10FA8C91F8391001F586
:10AEF0000041815204F118001A2240EA4B10F98CEB
:10AF00004252A01C0022069040EA4B10F98C42529B
:10AF1000201D079040EA4B10F98C4252A01D40EAD8
:10AF20004B120890F88C0492115A21F4E0611152EE
:10AF300004EB4B11F88C059108440421A0F85E1035
:10AF400050200B997D8D81F8480004F11A0081F89A
:10AF50002860AE4E40EA4B100390B04700EB400033
:10AF6000F98C039A48F24203B44604F1080605EB53
:10AF7000C00065468008505244EA4B10F98C425A92
:10AF800002F400621A43D34B425246EA4B10B3F824
:10AF90004C10FA8C815204F10A0040EA4B10B3F8CD
:10AFA0004E10FA8C815204F10C0040EA4B10B3F8B9
:10AFB0005010FA8C815204F10E0040EA4B10B3F8A5
:10AFC0006510FA8C815204F1100040EA4B10B3F87E
:10AFD0006710FA8C815204F1120093F8692040EA5C
:10AFE0004B10F98C02F003024252F88C049A115A69
:10AFF00021F4805111527D4904F11C0040EA4B10AC
:10B000000B4609785A7841EA0221FA8C815204F100
:10B010001E009978DA7840EA4B1041EA0221FA8C56
:10B020008152F88C059C19795A7941EA0221204411
:10B030000184F88C9979DA7941EA0221204441842B
:10B04000F88C197A5A7A204462F30E218184E04701
:10B0500000EB40000699982241EAC000798D4252E7
:10B06000A84700EB400007994EF2070341EAC000F1
:10B07000798D425A1A404252A84700EB4000089985
:10B08000002441EAC000798D4452A84700EB4000FB
:10B09000798D06EBC00044520024A84700EB400025
:10B0A00057498B4641EAC000798D4452A8477C8DB0
:10B0B0000646A84706EB460100EB40004BEAC101FB
:10B0C00004EBC0000A5B02F4404242EA90000853DD
:10B0D0004D480999046A90F8393090F83B200120D6
:10B0E000A0470B994FF480400A9DEA4C08830C98C6
:10B0F000033020F003004860E66D0D9886F83C00B0
:10B10000706B08B9306CA0B106F12C004146FBF71A
:10B11000DAF800272846F5F739F827B1B8F808001B
:10B12000FAF7D6FC01E03DF031F900200FB0BDE8A0
:10B13000F08FAB4645F008F9B8F808104000A6F8C3
:10B140003AA0BAF1110F624F4FF002022C4CC0B27C
:10B15000318728BF4FF0110AB9F8001000EB40000A
:10B1600001F4405144EA8005B1F5805F08BF012237
:10B17000788D42EACA0128448180C6F8348096F866
:10B180002800318F00F0010086F84A00788D2844AD
:10B19000C18045F0D9F800EB4000F98C44EA40103A
:10B1A0000844B0F81C1121F48061A0F81C11788DBE
:10B1B000295A6FF3DF3129520D9886F83E00308FFF
:10B1C00050443087708FA0EB0A00708730464DF0F6
:10B1D00091FC002811BF0C27002786F8497086F8DB
:10B1E0004B705D4696E700BFF800402020114020DC
:10B1F000AC014020A0014020B97602002D7602006B
:10B2000000804020B40140206C1540204903050017
:10B21000F8B50D469F49140A1046496C51F8246050
:10B220000EF078FB192811D8012101FA00F09A4993
:10B2300008420BD0688810B1A888FAF749FC04F1DD
:10B24000800001210FF08EFE0020F8BD688808B351
:10B250002A886FF39F30AB8896F8517002F4404112
:10B2600008441B49C98FA3EB010140F2044391FB41
:10B27000F3F1184BC9B25B6C01EB410103EB8101A7
:10B280000B4623F80A0F20F440505FB1002286F8E5
:10B2900051200AE0288810F4405F04BF012086F89E
:10B2A0005100C7E702F44052104396F84B20188033
:10B2B0003AB100F44050B0F5805FBBD0002086F872
:10B2C0004B00204618F0D6F90028B3D1BCE700BFE8
:10B2D000F80040201405402070B50D46080A6D495D
:10B2E0001446496C51F8206028460EF013FB1928CB
:10B2F0000BD8012101FA00F06749084205D002216C
:10B3000020460FF0B8FD002070BD3EF017F810B1D8
:10B31000002086F8930040F2166029462A460EF077
:10B32000C1FA0021ECE700BF2DE9F0410D46080A03
:10B33000F1491446496C51F8207028460EF0EAFA9B
:10B34000A0F11701032908D338B101280DD197F8CE
:10B35000C80160B12046232101E020460C210FF0F6
:10B360008AFD00263046BDE8F0810226FAE797F80C
:10B37000930001281DD13DF0E1FF10B1062087F8B0
:10B38000920097F897004FF0010887F8D28118B122
:10B3900087F8C88187F8CB812046002100260FF06E
:10B3A0006AFD284687F88C6087F8448017F0E2F938
:10B3B000D8E720460621D2E72DE9F04190B00746B4
:10B3C000CD480E0A90460D46406C50F8264008467F
:10B3D0000EF0A0FA19280ED8012101FA00F02E492A
:10B3E000084208D0404602210FF045FD00263046B5
:10B3F00010B0BDE8F081388806F18001814225D186
:10B400007E8894F854103046F7F73BFB94F85710B9
:10B4100094F8582094F8593007463046F7F7EDFA7B
:10B420003843B042E0832FD146F0080000210026C7
:10B43000E08340460FF01FFD012029462A4684F88C
:10B44000CF0140F213600EF02DFAD0E728460EF03F
:10B4500061FA01281BD1002601210122ADF83A60D2
:10B460008DF83E60CDE901667888C0F342103B88D4
:10B47000ADF83C0001A80090284612F0D9FF014623
:10B4800040460FF0F8FCB2E740461A21ACE702262E
:10B49000ADE700BFD40240200100C003B0B5084CA6
:10B4A0000020802804BF0020B0BD255A08309D42EE
:10B4B000F7D1204450F804CC1846BDE8B0406047AE
:10B4C00034C1050010B5094A0020182804BF002027
:10B4D00010BD145A08309C42F7D1104450F8042C87
:10B4E00008461946BDE81040104700BFACD505001E
:10B4F000B0B50A4C0020B0F5F87F04BF0020B0BD05
:10B50000255A08309D42F6D1204450F804CC084614
:10B5100011461A46BDE8B040604700BFFCD50500A3
:10B5200010B5094A0020F02804BF002010BD145AAD
:10B5300008309C42F7D110441A4650F804CC0878E1
:10B54000BDE81040604700BFCCD9050010B5094ADE
:10B550000020A82804BF002010BD145A08309C42C7
:10B56000F7D1104450F8042C08461946BDE81040A5
:10B57000104700BFBCDD050010B5094A0020B0F53A
:10B580003C7F04BF002010BD145A08309C42F6D105
:10B59000104450F8042C08461946BDE810401047E6
:10B5A000ACDE050010B5094A0020B0F53A7F04BFB3
:10B5B000002010BD145A08309C42F6D1104450F8B7
:10B5C000042C08461946BDE81040104714E2050057
:10B5D00010B543780C468178C21C1846FBF782FBF5
:10B5E000014620463CF032F9002010BD10B54378EA
:10B5F0000C468178C21C1846FBF774FB01462046B6
:10B600003DF0BAF8002010BD2DE9F84F8946834679
:10B6100044F09AFE0546874800264FF00108D0F80E
:10B6200034A00AF106045746B54213D006EBC60013
:10B63000205C06280AD808FA00F010F0620F05D046
:10B64000384659460622F4F792FE10B10937013602
:10B65000EAE73546ECB244F077FEA04220D905EB8C
:10B66000C5040AEB04008079411F02290BD228028D
:10B670002BF8049C01302BF8060C58460EF0FCF811
:10B680000120BDE8F88F01280FD1F44D286838B1AA
:10B690001DF014FE0C280BD100202BF8049CEAE7C7
:10B6A000484602215A463DF052F80020BDE8F88F86
:10B6B000686B022120448171F7E700BF70B5044632
:10B6C000084615460E460EF025F948B10A49300ADB
:10B6D000496C51F8201091F8491019B10B2104E080
:10B6E0000C2102E01BF000F80146284622460FF02C
:10B6F0009DFB002070BD00BFD40240202DE9F04723
:10B7000086B08946824644F01FFEDFF8048F054666
:10B710000026D8F83470BC1DB5420FD006EBC60029
:10B72000205C01280CD0052805D338465146062256
:10B73000F4F71DFE30B109370136EDE70C2703E0C1
:10B740000C2700E00B273546EDB244F0FDFDA84282
:10B7500008D89AF80800022803D89AF80C000128A3
:10B7600009D91227484639463DF014F800263046DC
:10B7700006B0BDE8F08744F0E7FD064600208642AB
:10B7800006D000EBC001615C09B10130F7E7064665
:10B79000F4B244F0D9FDA0424AD906EBC6043EF00B
:10B7A0008BFAD8F834100028214401F8080F3FD054
:10B7B000BAF80400ADF80400DAF800000090BAF915
:10B7C0000A00C20B02EA4000B8F82020ADF80C00D5
:10B7D0000020ADF8130098F81A008DF81000B8F8A2
:10B7E00014001044144A02909AF8080032F810002D
:10B7F000124A527901325043ADF80E0008788DF8A4
:10B8000011608DF8120068461DF0A2FC0146D8F8C0
:10B810003400012602199671DAF800300351BAF8A3
:10B82000040090804846C8F800A03CF0B3FF9EE7B3
:10B83000092797E78C1240204CE50500580240206C
:10B8400010B50C464FF4885000214FF68552012365
:10B850000DF09EFF217805290DD0032917D002296C
:10B8600020D1A278617802F07F0242EAC111114A28
:10B8700082F8E41114E00E490A6842F400420A60BA
:10B88000D1F8002442F40042C1F8002408E0A27874
:10B89000617802F07F0242EAC111064A82F8E311A0
:10B8A000002100E01121017009F054FE002010BDBC
:10B8B000D00409408413402010B502464FF488504C
:10B8C0000021012300240DF063FF047009F042FE03
:10B8D000002010BD10B502464FF48850002101230E
:10B8E00000240DF055FF047009F034FE002010BD57
:10B8F00010B502464FF488500021012300240DF0BA
:10B9000047FF047009F026FE002010BDBCB50D46AF
:10B910004FF4885000214FF68A5201230DF038FF72
:10B920000446287808B1122030E06878022817D041
:10B9300001281DD00028F6D10620174D0DF1070172
:10B940008DF80700474805F14C020368012098472D
:10B95000A8B1124881880068A5F85010E8640EE08C
:10B96000E8880D49A1F85000D5F80200C86406E047
:10B97000094890F84C1081F0550180F84C100649A8
:10B9800001F14C0065311FF0ABFC00202070204617
:10B9900009F0E0FD0020BCBD14054020D8C0050022
:10B9A0002DE9F04F87B00A4680464FF488500021B9
:10B9B000042300250DF0ECFE45800570044698F840
:10B9C0000600012821D0A8BBEB48DFF898B04FF063
:10B9D000160A0DF105090DF1060790F84560012ED4
:10B9E00031DB06F16000DBF8003049463A468DF85D
:10B9F00005A0C5B22846984728B9404639460622D0
:10BA0000F4F7B5FCC0B1013EE9E7DB48144D90F80E
:10BA10004510012917DB01F160002A684E1EC0B2F3
:10BA2000904702283146F4D058B960883146013039
:10BA30006080EEE7122005E0094801682846884743
:10BA400040B103202070204609F084FD002007B09B
:10BA5000BDE8F08F01206080F5E700BF8C12402028
:10BA6000B0004020B40040202DE9FE4381465748F5
:10BA70000C4690F8AC00C0070CD055480DF10B02F5
:10BA800001214B46009406682B20B0479DF80B100F
:10BA9000002957D0B9F8001041F2011022460123C5
:10BAA0000DF076FEEA4F804699F80000396C51F8A7
:10BAB00020400020019044B194F8290001AA0021FF
:10BAC0003AF0B2FD18B11F2036E0022034E044F015
:10BAD00031FC3A6C019B002100E00131884220D00A
:10BAE00052F82170002FF8D05E7897F82950B542AF
:10BAF000F3D165797E79AE42EFD097F82D70022FA1
:10BB000018BF052FE9D1CDB244F014FCA84212D8D9
:10BB100094F82B1094F82D00012904D104280AD19F
:10BB200012E00146EFE705280ED8012101FA00F0E6
:10BB300010F0230F08D00C2088F80000404609F0D0
:10BB400009FD0020BDE8FE83002088F80000404683
:10BB500009F000FD94F82D00022828D194F828500F
:10BB600000210026284624F0FBFF41790129E8D86E
:10BB70000321442241712846032121F00FFCA17BBF
:10BB8000E37A01984422009121463AF05BFC20467A
:10BB900016213AF02BFC84F82D600E4C206800280A
:10BBA000CFD00C380DF06CFC00202060C9E70520D8
:10BBB00084F82D0094F82C002DF03CF9012084F835
:10BBC0002E0099F8020084F82A00BAE7A80840205D
:10BBD0009C014020CC0340202DE9F04114468846CA
:10BBE000054622F03BFD08B10C2727E0B648406827
:10BBF00050F82560B6F89600C0071ED128020C2325
:10BC0000011D40F209100A460DF0C2FD0121002776
:10BC100001710E49A0F80570016098F802100172D8
:10BC2000132908BF162141720DF026FEB6F89600C2
:10BC300040F00100A6F8960000E03A272846214689
:10BC40003A4622F04DF80020BDE8F081EDDE02001A
:10BC50002DE9F84FDFF8F4A006460F0A93460D468B
:10BC6000DAF8440050F8274008460DF053FE192832
:10BC70000CD8012101FA00F03549084206D00C2108
:10BC800058460FF0F8F80020BDE8F88FB078002192
:10BC900030A2062915D0535C01318342F9D1318895
:10BCA00007F180028A420ED1012184F8370040F268
:10BCB0001D602A4684F8CE1129460DF0F3FD0021BF
:10BCC000DEE71221DCE728460DF024FE01281CBF28
:10BCD0000220BDE8F88F2149308896F802800026BE
:10BCE0000968C01BA0F5C072DAF848004978B14273
:10BCF00007D050F8363003B122B1A2F58072013678
:10BD0000F5E70E465FFA86F949451DD950F8360029
:10BD1000C17F0429B3D190F8220010B948461EF023
:10BD200059FE28464946424613F082FB284616F043
:10BD300059FDDAF84800072150F83600C177284647
:10BD400005210DF00BFEBAE7022199E7D40240204D
:10BD50000100C003051314151A2900000800402033
:10BD600080B50846CE49012281F8312000213CF0FF
:10BD700003FD002080BD00BF8C12402070B590B044
:10BD80000646084614460D460DF0C4FD042857D15A
:10BD9000D6E90201D6F81A20336ACDE90101CDF8BF
:10BDA000162021460793706A0890D6F83200CDF825
:10BDB0002E00D6F83600CDF83200708FADF8360080
:10BDC00096F83C008DF8380096F83D008DF8390063
:10BDD000F08FADF83A0096F842008DF83E003069D9
:10BDE0000390307D8DF81000D6F81500CDF81100C5
:10BDF000707E8DF81500B06A099096F82C008DF8C9
:10BE0000280096F831008DF82D00D6F82D00CDF8D9
:10BE10002900B6F8400001AE324680F47070ADF8EB
:10BE20003C00284612F07EF8AF49280A3C22496CB3
:10BE300051F82000314600F5F070F4F79BFC03E068
:10BE400020460C210FF017F8002010B070BD00BF85
:10BE5000D40240207CB50446084615460E460DF037
:10BE600059FD60B1A0480021360A8DF80710A1786D
:10BE7000406C50F8260039B12846122101E02846CE
:10BE800002210EF0F8FF1DE0012180F84B1028463A
:10BE900000210EF0F0FF0DF107013046002217F0EF
:10BEA000C7FA9DF8071011B120880FF05BF82188C0
:10BEB00041F20210392202230DF06AFC2188018030
:10BEC00009F048FB00207CBDD40240202DE9F04160
:10BED0000446E6480F0A90460D46406C50F827602D
:10BEE00008460DF017FDA0F11701032902D24046C4
:10BEF0000C2102E030B9404602210EF0BCFF0020C8
:10BF0000BDE8F081D4F82E00C6F80A02D4E9010198
:10BF1000D4F81620E369C6F8F221C6E97801C6F81C
:10BF2000F83106F5F071206AC6F8FC0194F8320089
:10BF300086F80E0294F8330086F80F0294F8340065
:10BF400086F8100294F8350086F8110294F836004D
:10BF500086F8120294F8370086F8130294F8380035
:10BF600086F8140294F8390086F81502608FA6F856
:10BF7000160294F83E0086F81A02207C86F8EC013E
:10BF8000E068C6F8E801607D86F8F101D4F8110098
:10BF9000C6F8ED0194F8280086F80402606AC6F835
:10BFA0000002D4F82900C6F8050294F82D0086F89E
:10BFB0000902A08F80F47070A6F81802384615F0B8
:10BFC000F7F90746404639460EF055FF002F96D147
:10BFD00040F20B6029462A4604230DF0D9FB4FF4AA
:10BFE00080714180218801800DF046FC87E700BF09
:10BFF000524A0021322904BF00207047501890F89F
:10C0000020300BB10A31F5E7012100F8201F7047FD
:10C01000042906D810B5DFE801F00303090F1E005C
:10C0200010BD13A040F2AD514AF054BC0168406805
:10C030000C4AC2E9021010BD016842680948C0E913
:10C040000012002108A20829EAD0535C445C234373
:10C0500043540131F7E701684068024AC2E904101D
:10C0600010BD00BFC80C402000600400F80740026B
:10C070006863692E63000000B0B5094D0C4695F861
:10C080004400022806D11CF0E3F90146002085F89F
:10C09000440000E00C2120463CF06EFB0020B0BDC7
:10C0A0008C12402070B50D46080A92491446496C1E
:10C0B00051F8206028460DF02DFC32280ED008B92A
:10C0C00002210CE096F83C00022807D140F20A60F9
:10C0D00029462A460DF0E6FB002100E00C2120460F
:10C0E0000EF0C9FE002070BDD402402070B5044699
:10C0F00044F020F9114EB16930B111F8012B01382B
:10C10000002AF9D00C2500E0002544F01DF9F16962
:10C110007F3080220A4BD6B2B04208D3C6EBC606A7
:10C1200001320E44F65C002EF5D00C2504E01DB95A
:10C13000C448002580F84840284670BDC80C4020FF
:10C1400080FCFFFF2DE9F04186B0074669480E0AE2
:10C1500014460D46406C50F8268008460DF0DAFB78
:10C1600050B101280ED1F878012802D83A79032A73
:10C170000DD32046122101E0204602210EF07BFE65
:10C18000002700E00227384606B0BDE8F081B96814
:10C190007B6988F83D0001383C69B0FA80F0C8F846
:10C1A0000010F968C8F81410B97888F842104146B0
:10C1B00001F83E2F424642F8103F434643F8044FF1
:10C1C000440998F83600471EB7FA87F77F09BC4242
:10C1D00028D0B8F820C0002708F1240E08F10C047C
:10C1E0008DE814404246CDE903C7F6F7B7FA044696
:10C1F0004FF4016021460EF03EFE002CC3D11C48D6
:10C2000098F83630B8F82420007D0130C1B23046AD
:10C2100014F0ADFF284616F0E5FA284668210DF027
:10C220009DFBADE706F1800441F2021021221823A4
:10C2300021460DF0ADFA05464FF4016000210027BC
:10C240000EF019FE2F716C802F70D8E90001D8E92B
:10C2500004232961B8F83D10A5F80510C5E90203CB
:10C2600028466A6109F076F98DE700BFD4024020C4
:10C27000201140202DE9F84304461E480F460D0AC0
:10C2800004232188406C50F825804FF488500DF02D
:10C290007FFA4FF00009064680F8009020887080F1
:10C2A00038460DF037FBE8B130468DF8039009F0C1
:10C2B00051F901200DF10301012288F84B002846B5
:10C2C00017F0B6F89DF8031011B120880EF04AFE61
:10C2D000218841F20210112202230DF059FA21881F
:10C2E000018002E002203070304609F033F900206E
:10C2F000BDE8F883D402402080B50A460188B1F534
:10C300007F7F05D980888949A1F84A00002100E093
:10C31000112110463BF09AFA002080BD80B50A46F4
:10C320000188B1F57F7F08D98188804BC088A3F848
:10C330004A100021A3F8500000E0112110463CF003
:10C340001BFA002080BD00BF2DE9F041054688465C
:10C35000002615F8027B4FB12C8843F0EBFF844296
:10C360000FD268880435013F0644F4E76F48B2B243
:10C37000B0F85210914288BF0A46911BA0F85210A3
:10C3800003E0404612213BF061FA0020BDE8F08155
:10C390002DE9FE4FDFF868AA0546002000266FF061
:10C3A000FF0B0024002701910290287886422AD2B0
:10C3B00005EB8609B9F8028043F0C6FF7F3040459F
:10C3C00028BFB8F1800F11D2DAF8000040780BFADC
:10C3D00000F080F47F4010EA080F03D0B9F80400A1
:10C3E00007440EE043F0A6FF804503D2B9F80400ED
:10C3F000044406E0144840F67E214AF06BFA12200D
:10C4000002900136D1E70299080604D00198C9B21A
:10C410003CF0B2F912E04548A2B2B0F85210914295
:10C4200088BF0A46111BA0F85210B0F85410BAB2D7
:10C43000914288BF0A46D11BA0F854100020BDE8E5
:10C44000FE8F00BF4404402014F10500F8B50446F7
:10C4500010B13448C66917E0324DA86908B10DF033
:10C460000FF843F067FF00210DF054F9A861E86967
:10C4700008B10DF005F843F067FFC0EBC0000021E4
:10C480000DF048F90646E861264D6821AF69284657
:10C49000F4F797F9AF6143F04DFF01463846F4F7E2
:10C4A00090F9EE6143F050FFC0EBC0013046F4F765
:10C4B00088F91D480321FFF7ABFD00201F21C5E9C6
:10C4C00004104FF4FD51A5F864101849C1E9120099
:10C4D0000865A1F85400ECB9154CE06A08B10CF0FD
:10C4E000CFFF20463021F4F76CF943F023FF8000A2
:10C4F00000210DF00FF90546E06243F01BFF8100BB
:10C500002846F4F75EF920462021F4F75AF9012075
:10C5100084F824000748064990F8400081F8250077
:10C52000F8BD00BFC80C4020ACD205004404402038
:10C53000E005402008004020B0B5354D0C4695F888
:10C540004400012806D11BF083FF0146002085F836
:10C55000440000E00C2120463CF00EF90020B0BD64
:10C5600070B586B02A4E0C4696F8441009B10C25D9
:10C570000DE0C1784A1E2F2A08D882789E2A05D15C
:10C5800042788B2A02D102783F2A07D91225204609
:10C5900029463CF0FFF8002006B070BD0022029250
:10C5A0000288ADF80420827800798DF80E00F07CC6
:10C5B0008DF8062096F8242002388DF80F20728C12
:10C5C000B0FA80F0400901EBD2218DF8100011483B
:10C5D000ADF80C10407930B1012814BF4FF4407011
:10C5E0004FF4007001E04FF48070ADF812000020AD
:10C5F0008DF8140001A81BF00BFE054601203D211B
:10C6000086F8440006F15100F4F7DBF8BFE700BFFD
:10C610008C12402058024020F8B5044662480E0AA9
:10C620000D46406C50F8267008460DF073F9382816
:10C630000ED0392816D10F482946026840F203600F
:10C64000904797F8C531A2793046192114F044FD7E
:10C6500040F23440002122460EF0E8FB284615F057
:10C66000EFFB05E040F234400C2122460EF0DEFBE9
:10C670000020F8BD8C004020FEB504464A480E0A52
:10C680000D46406C50F8267008460DF043F900F056
:10C69000FE0038281ED197F8C7010121002808BFE5
:10C6A0000221E279A079114387F8BC010339B1FA7C
:10C6B00081F1490987F8BD11207A87F8BE01284623
:10C6C0000DF028F9392807D1304614F0CFFC284660
:10C6D0003D2118E00C211CE0192097F8C5118DF8B8
:10C6E000050097F8BE018DF80800B7F8BC01ADF859
:10C6F000060041F0FE0001A98DF80400304614F058
:10C7000031FB28463A210DF029F9284616F06AF83F
:10C71000002140F22B4022460EF088FB0020FEBD97
:10C720007FB50546E3480C4690F8AC0080070BD572
:10C730001C480DF10F0202212B46009406682B20A5
:10C74000B0479DF80F1059B3298841F201102246D5
:10C7500001230DF01DF8144904462878096C51F89E
:10C760002060AEB196F8290002AA002139F05CFFE2
:10C77000054680B996F82D0001280BD196F82800BF
:10C780000021002520F0AEFD022086F82D0002E0F9
:10C79000022500E00C252046257008F0DBFE002075
:10C7A00004B070BD9C014020D40240202DE9F04728
:10C7B000C4798A460F2C03D807780546012F07D97C
:10C7C0001226504631463BF041F80020BDE8F08784
:10C7D000DFF8909899F80E01012801D10C26F0E7B6
:10C7E000022089F80E013AF0EDF8804643F0A2FDF0
:10C7F0000C268045E5D305F10108394640463BF05B
:10C800005BF80746D8488188C088401A90FBF6F646
:10C81000BE420DDD07EB8701D9F8300000EB410186
:10C820004A7A52070DD5C988E140C907C8D108E046
:10C830003BF028F8864201D10726C2E70746D9F81F
:10C84000300007EB8701D8F8002040F8112000EBFA
:10C850004100B8F804208280D9F830002E78ED79B4
:10C8600000EB41000121A940C288067211432A460B
:10C87000C180417A41F005014172404631463BF0AA
:10C88000A5F828B93846414632462B4632F068F9B9
:10C89000002696E72DE9F04F8BB006788A46012EE8
:10C8A00036D8834603D19BF80600C02830D3DFF882
:10C8B000B49799F87A0020B13BF0C0F808B10C2188
:10C8C00027E00BF10104314620463AF0F5FFA64D72
:10C8D0000C22A988EF88791A91FBF2F1814209DDD7
:10C8E00000EB8000D9F8301001EB4000407AC0F333
:10C8F000400801E04FF00008204631463BF062F965
:10C90000298938223B46C91B91FBF2F7874207DD94
:10C91000122150463AF09AFF00200BB0BDE8F08F8C
:10C9200063490BF107001022CDE9063808940990FD
:10C93000F3F71DFDD9F8008098B100242725E0B257
:10C9400087420EDD00FB05808179FF2907D000F1C9
:10C95000170109981022F3F70AFD0028D8D00134F6
:10C96000EDE7002027215FFA80F94F4506DD09FB3E
:10C9700001829279FF2A01D00130F4E74F4501D1BD
:10C980000721C6E74B48089C0BF117084078C00602
:10C9900017D54948CDE900940DF12B024FF4805191
:10C9A000062307680998CDE90208079804960590C0
:10C9B0000020B8479DF82B00002858D06A48C0884E
:10C9C00006903B4F404610223946F3F7D0FC05460F
:10C9D000099839461022F3F7CAFC07460699C9EBB5
:10C9E000C9002268354B069501EBC00101F11A011F
:10C9F00089B2CA501944A28844464FEAC0088A80C6
:10CA00005DB15948214610221D46C088404420305F
:10CA100080B21844F3F7AEFE2B462546524C67B160
:10CA2000E08848F0040110221C460844099980B2AD
:10CA30001844F3F79FFE23464B4C0799069A48EAA1
:10CA40000300A84661F34D36002A18BF012246EACA
:10CA50008211002F18BF012741EA4211E28841EA02
:10CA6000870141EA470101F500418152089CE54DEB
:10CA700027269BF80020286809FB06018A7109FB1C
:10CA800006F2236883501022A088888041462868D7
:10CA900009FB06000730F3F76DFE2868099910229C
:10CAA00009FB06001730F3F765FE002131E700BFF0
:10CAB000E4C00500A8084020C001402000804020BC
:10CAC0002DE9F041884605463AF0D2FFE8B12978D1
:10CAD000022901D3FF2916D16E1C30463AF0ECFE34
:10CAE000074621488188C088401A0C2190FBF1F448
:10CAF000BC420CDDC34807EB8701006B00EB410132
:10CB0000497A89070CD5122128E00C2126E03AF059
:10CB1000B9FE844201D1072120E00746B948006BE5
:10CB200007EB8701326840F8112000EB4100B28822
:10CB30008280B4482D78006B00EB4100417A057289
:10CB400041F003014172304629463AF013FF20B903
:10CB5000384631462A4636F0FDFB002140463AF081
:10CB600075FE0020BDE8F081F80040202DE9F04F6F
:10CB700091B01646059131B1054601EB030828B185
:10CB800030882F1805E00021002078E006AD05F17F
:10CB90002B07012405A804A942463B46CDE90455CC
:10CBA000009406F0D1FE002867D1681C04A9424613
:10CBB0003B4600940390059005A806F0C5FE0028AA
:10CBC0005BD105F12A0A4FF0FF3402960398013435
:10CBD0000078844257D2AAF128000DF1100B0DF114
:10CBE0001409012642463B460590484659460096A0
:10CBF00006F0AAFE00283FD1AAF127005946424676
:10CC00003B4600960590484606F09EFEA0BBAAF162
:10CC10002600594642463B4605900620009048466D
:10CC200006F092FE40BBAAF12000594642463B4620
:10CC300000960590484606F087FEE8B9AAF11F0065
:10CC4000594642463B4605901AF8200C009048464B
:10CC500006F07AFE80B90120594642463B460AF169
:10CC60002906CDF814A00090484606F06DFEB246A5
:10CC7000029E0028AAD000E0029E0499491B318040
:10CC800011B0BDE8F08F0020F7E700002DE9F04F6C
:10CC900087B0054684480C4690F8A800C0070BD022
:10CCA00082480DF11B0201212B46009406682A20C0
:10CCB000B0479DF81B10C1B341F20110002122467C
:10CCC000012300270CF064FD8346287836F0C4FC6D
:10CCD000059010B105970C2621E0494C03AE03974F
:10CCE0002068007987420CD2F8B20121324639F02F
:10CCF0009BFC20B90399A878097E8142EBD00137CB
:10CD0000EEE7297E51B105F1190908464A4678B186
:10CD100012F8013B0138013B1E2BF8D91226584668
:10CD20008BF8006008F016FC002007B0BDE8F08F1B
:10CD300005A836F0F1FB059F0646002858D107F1FB
:10CD4000320A00240DF11008287E844216D219F808
:10CD500004307A780DF10B0001210090404637F045
:10CD6000DBFD00283ED19DF80B000AF8040097F87F
:10CD700031000134013087F83100E5E728780121DE
:10CD80000522B8756888B9763876C4B22979002941
:10CD900008BF0122BA76697DB9742A7EE98A87F8CC
:10CDA00031200022398228797A6028B107F11B00EE
:10CDB000691D1022F3F7DEFC43F0BCFAA04216D93D
:10CDC000A848816901EB841191F83C200F2A0ED10B
:10CDD0002C22002681F82E200521806900EB84108A
:10CDE00001869CE70646072808BF0D2600E042267C
:10CDF000002E94D0002F92D0787836F05FFB8EE72B
:10CE000008004020781140207CB50446264890F860
:10CE1000A80080070CD5254800910DF107020221DA
:10CE2000234605682A20A84706469DF8070098B3C0
:10CE3000207836F011FC98B10646807E01070DD4AB
:10CE400000F00300411E012908D802280AD1707899
:10CE5000162129F0C9FC08B305460CE00C250DE0AD
:10CE600042250BE0307E3BF047FA30464421002259
:10CE7000002536F0B7FB707836F020FB4FF4885071
:10CE8000002142F26C02022300260CF081FC217882
:10CE90000570417008F05EFB30467CBDB07E40F00E
:10CEA0000300B0760026F7E7A80840209C01402048
:10CEB000F8B56C4D0C4695F80E0101281DD00220E6
:10CEC00085F80E0143F036FAA969012343F20C06F6
:10CED00001F13C020021884209D017780D2F03D8B8
:10CEE00003FA07F7374203D140320131F3E7014635
:10CEF000CEB243F01FFAB04201D90C2110E0002657
:10CF00003C2743F017FA864209D2A869C05D012880
:10CF100004BFF0B23AF096F940370136F1E700214C
:10CF200020463AF093FC0020F8BD00BF2DE9F843FD
:10CF3000DFF8BC9E884699F80E01012801D10C2526
:10CF40002EE0022089F80E0139F03CFD064643F040
:10CF5000F1F90C25864223D3414C0026A088E188B4
:10CF6000081A90FBF5F1F0B2814218DD00EB800168
:10CF7000D9F8302002EB41010A4612F8093FDF07D9
:10CF80000BD09F074FF0FB0758BFFA273B401370A9
:10CF90000A7A4FF6FF7331F055FE0136DEE70025C1
:10CFA000404629463AF052FC0020BDE8F88300BF15
:10CFB00070B52C4D0C4695F87A0020B13AF03EFD44
:10CFC00008B10C2115E0264800222723C1880089DA
:10CFD000401A382190FBF1F02968FF25D6B2B04203
:10CFE00004DD06FB03160132B571F7E732F0F6FBFC
:10CFF000002120463AF02AFC002070BD2DE9F843BC
:10D0000088460C253AF034FD18B3154FDFF8E09D43
:10D010000026B888F988081A90FBF5F1F0B2814231
:10D0200016DD00EB8001D9F8302002EB41010A4601
:10D0300012F8093FDC0709D05C074FF0FD0458BF28
:10D04000FC24234013700A7A36F0E8F90136E0E751
:10D050000025404629463AF0F9FB0020BDE8F88358
:10D06000F8004020781140202DE9F8430546324869
:10D0700090460E46406850F82590284621F0D8FA90
:10D0800008B10C274FE0284621F0F8FB28B9B9F881
:10D090009200C00701D11A2745E0B9F89600C006F2
:10D0A0003ED43389F2887188B08820F081FEC8B3FD
:10D0B00028023023011D4FF486700A460CF068FBED
:10D0C00004460520002720711C48A4F805707188CB
:10D0D0002060B08821816081D6F80620E260B289A4
:10D0E000B2EB400F28BF420070896282B0EB410F63
:10D0F00028BF48002082284621F0C0FB80F00100B4
:10D1000040F2011184F82C002046A4F82D100CF0F8
:10D11000B3FBB9F8960040F01000A9F8960002E0C1
:10D120003A2700E01227284641463A4620F0D8FD2B
:10D130000020BDE8F88300BFD4024020D9F30200EC
:10D140002DE9F04F8BB005467B480C4690F8A800BF
:10D1500040070BD5794801AA04212B4600940668A4
:10D160002A20B0479DF8041000293FD02878EF28E6
:10D1700030D86978EF292DD8AA78531E1E2B29D8CC
:10D180006F686F4EA7F1FF03B34223D8B5F808804C
:10D1900040F6FE76A8F101039BB2B3421AD8B5F867
:10D1A0000AB040F69B76ABF10503B34212D82B7B55
:10D1B0001E2B0FD895F80D90B9F1070F0AD8AB7B4D
:10D1C000012B07D895F80FA0BAF1010F02D82E7CD9
:10D1D000022E0ED341F201100021224601230CF051
:10D1E000D7FA1121017008F0B5F900200BB0BDE8A5
:10D1F000F08F8DF8040001208DF806208DF80510C1
:10D2000005F1110110228DF81A608DF81530ADF876
:10D21000108002978DF8190001A81730F3F7AAFAC9
:10D220005FEA89704FF0020140F2E24058BF09F016
:10D2300001018DF81410B7FBF0F909FB00F08742EB
:10D240004FF0010018BF8246BAF1000F04D0B8F1C8
:10D25000F60F0ED8012717E04FF47A7240F6C4108B
:10D26000B8F1FB0F09FB00FC0BFB02F20FD8012306
:10D2700018E008F1F500F62280B2B0FBF2F708EBF7
:10D280000700013890FBF7F808F1050812E008F1F3
:10D29000FA03FB279BB2B3FBF7F308EB0307013F4D
:10D2A00097FBF3F80220624538BF012003FB00F72B
:10D2B00000FB09F9234A4046002E18BF0430515C98
:10D2C000214AC0B2515CF8F7B5F85FFA88F12A7BC1
:10D2D0008DF816A0ADF80C908DF81770ADF81210FF
:10D2E0001A490132496B7A430844A978D2B2963080
:10D2F000484341F64C5109FB01F100EB800040002E
:10D30000B1FBF0F0F9B2C0B20844013890FBF1F083
:10D310007843C0B2904288BF1046884298BF084602
:10D320008DF80E00B0FBF1F021468DF8180001A831
:10D3300000F00EF859E700BFA80840209C014020EB
:10D3400000FF0F00F9C005002CC205004404402076
:10D350002DE9F04F95B00546DFF8BC0B0C4690F870
:10D36000A80000070CD5DFF838070DAA08212B46C6
:10D37000009406682A20B0479DF83410002953D045
:10D3800068782F8900210D91EF2801D9122540E0FE
:10D390000DA939F047FCFF283AD0DFF854AA064619
:10D3A000DAF8180000EB861191F83990B9F1FF0F07
:10D3B0002ED000EB891090F83C000A38032827D8BB
:10D3C00040F2E240DFF89CB54FF0000878430DAF23
:10D3D000CDF834800C90DBF800000079804526D22F
:10D3E0005FFA88F001213A4639F01EF968B90D98C4
:10D3F0002A78817D8A4205D1807E00F003000228D0
:10D4000003D176E0007E814576D008F10108E2E79D
:10D41000422541F201100021224601230CF0B8F907
:10D42000057008F097F8002015B0BDE8F08F4FF0B8
:10D43000000CDBF800000179884509D2224641F250
:10D4400001100021012364460CF0A2F90470E8E702
:10D450002878EF2843D8A84618F8020F01381E286C
:10D460003DD8288940F67C420438904237D86A6813
:10D47000AC4BA2F1FF00984231D82B4613F80AEFCB
:10D48000AEF10100C0B21E2829D8B5F80EB0ABF13C
:10D49000010080B2FA2822D80B93AB890020B0EBB0
:10D4A000133F1CD1687C012819D8CDE9098C95F867
:10D4B0001280B8F1010F12D895F813C00893ACF19F
:10D4C0000100C0B206280AD82B7D18460793581EC3
:10D4D0000E2804D86B7D0F2B184606930FD941F206
:10D4E00001100021224601230CF052F91221017093
:10D4F00097E74FF00C0C9CE74FF0420C99E7BEFB0E
:10D50000FCF303FB0CF0C0B2864504D1079800FB86
:10D510000CF0704508D941F2011000212246012388
:10D520000CF036F91121E2E70ED206980028D6D089
:10D53000079801EB8101181A069B03FB0CF303FB10
:10D5400000C080B28842E6D8B8F1000F51D00C9BE1
:10D55000ABF1020000FB0CF099184FF6FD72013997
:10D56000B1FBF3F100FB0120089980B28842B6D3E9
:10D57000297C8807CFD0DFF8602F01F00F000B095E
:10D58000105CD25C10440128C5D1DFF8DC23A87DF3
:10D59000515CDFF8D823002818BF0BF1040B5FFAA9
:10D5A0008BF012F801804146F7F744FFA97D8346CE
:10D5B0000C200029414608BF0820CDF81480F7F759
:10D5C00039FF96305946CDF810B00890E848697C8C
:10D5D000406B01290391584400F196000C900846D5
:10D5E0001CD109980C99007801FB00F8CDF808804F
:10D5F0001DE00C99B1FBF2F000FB121000287FF443
:10D600006EAF02FB0CF00C99B0FBF1F008990BFB2C
:10D6100000F080B281423FF662AFA9E70B980C9907
:10D620000078029101FB00F80998CDE90B080898F1
:10D630000B9991F800B080B240F2E24108FB0B0276
:10D64000288948430692824202D93B200A9004E08E
:10D65000287836F001F8149090B1002541F20110BD
:10D660000021224601230CF093F80A99017007F07B
:10D6700071FF002D3FF4D7AE149836F093F8D2E640
:10D680000998017814A835F047FF01460A9020B1A7
:10D690000A980728E1D10D20D8E708FB0BF0149970
:10D6A0004FF000080190A87C0B91487501F1320001
:10D6B00007900998007880451AD20B9808F1010B61
:10D6C00000215FFA8BF3427813A8009737F024F912
:10D6D00001460A90D8B99DF83400079901F808006E
:10D6E0000B99D84691F83100013081F83100E0E71C
:10D6F000DAF8180000EB891090F83C100A39032979
:10D7000003D810F8241FFF290ED042200A900B9D49
:10D71000304649466A7839F069F9687835F0CEFEC6
:10D720009BE700BF00FF0F000B9991F817B080F83E
:10D7300000B0DAF8188008EB891797F83C000C283D
:10D740001CD1F88B0A90B00158F8000007F10408CA
:10D75000099040464BF00EFE0998C17D0A98393079
:10D7600080B23AF0C9F97882388240464BF0A4FE84
:10D770004846594630F0CEFBDAF8188028894FF039
:10D78000FF31069A00274FF0010A8DF84870ADF876
:10D7900046A0ADF83E7001EB80018000ADF8360088
:10D7A000ADF834000B98ADF840104FF41C7190F8B0
:10D7B00017B001EB420140F27122B1FBF2F10BF51F
:10D7C0000070ADF84400ADF842000DA8ADF83C1073
:10D7D000ADF83A104BF0ECFD00287FF45CAF08EB9D
:10D7E0008B10BDF84080A0F80E80BDF83610A0F870
:10D7F00018A08181DDF83A100161BDF842108776EA
:10D800008760C182818204304BF056FE2878DDF8B3
:10D810002CA00C218AF8160008208AF819608AF8D2
:10D82000189002268AF81A00A87D002808BF08214F
:10D830008AF81A10A87802218AF83100A889AAF873
:10D840000E00A87B8AF81300E87C8AF81400288967
:10D85000AAF80C006868CAF80800C1200BF05AFF4B
:10D86000CAF804009AF83100022106EB40000BF0E0
:10D8700051FFDAF80410C1F8840005999AF83100D4
:10D88000DAF80460B071A87AEA7C95F80EC03272BA
:10D89000F071A88986F819C0708402982A89F0600E
:10D8A0000C98B28070613348405C86F82400287D73
:10D8B0003076687D3074A87D0346002818BF0123A8
:10D8C00086F83630AB7C86F8203040F2E2435A438B
:10D8D0006B68A6F86480F361089BA6F86230049B2D
:10D8E000A6F86030019BC6E914329AF80120039B28
:10D8F00086F86E1086F86DC086F86C70D6F88410C5
:10D9000086F86F3086F86B209AF817200A7001EBC2
:10D9100047020B9B577093F831309F4204D2079B0C
:10D92000DB5D01379370F2E7B8B10B9F05F117018A
:10D93000102207F11B084046F2F71CFF0025C6F82D
:10D94000315086F83550B87E797800F0FC0001300F
:10D95000B8764046F7F734F900E0012500200A9038
:10D960007CE600BF08004020F9C005002CC205007D
:10D970004404402034C205002DE9F04F85B005462F
:10D980007A480C4690F8AC0040070CD544480DF19D
:10D99000130204212B46009406682B20B0479DF803
:10D9A0001310002961D041F2011000212246012309
:10D9B00000260BF0EDFECDE902066B480C22007B41
:10D9C000C0074DD037490968002949D1694EA81CC4
:10D9D000002403AA4FF00008019020E002295DD83E
:10D9E000B888C7B28BF82800384620F0C5FD00285B
:10D9F00040D1706850F82700B0F89200C00739D0C5
:10DA00000199204638B131F8042BB9F800300138BB
:10DA10009A42F7D12CE0013408F1010852462978E6
:10DA20005FFA88F0884227D205EB8007316CB9464F
:10DA300019F8020F51F820B0BBF1000F1AD09BF873
:10DA40002B0038BB9BF829000021924638F0ECFDF2
:10DA500010BB9BF82D100C22022918BF0529BDD13F
:10DA60000298027007F076FD002005B0BDE8F08F47
:10DA70001222F5E70222F3E702980026067007F06B
:10DA800069FD094880F828600648056037F0A0FA6B
:10DA90000120EAE70C22E3E71F22E1E70B22DFE7A0
:10DAA0009C014020CC034020580240202DE9F8433F
:10DAB0008946054642F03EFCDFF8648F0646D8F8FA
:10DAC000180000F13C010020864206D00A78052AA1
:10DAD00002D040310130F7E70646F4B242F02AFCAA
:10DAE000A04219D9214890F8290040060AD52048BB
:10DAF0000DF103024FF4804103680A2098479DF816
:10DB00000310A9B1F2F73EFB07461A48406A50B12C
:10DB10002EF0CEF8002407E048460C2139F096FE9E
:10DB20000020BDE8F8830C243846F2F72FFB00E014
:10DB3000C4B20C2C0AD1032025F8049C25F8060C4D
:10DB400028460BF099FE0120BDE8F883D8F81800AC
:10DB5000B40100590C380BF043FED8F8181000201F
:10DB60000851BDE8F88300BF78114020A808402084
:10DB7000B4014020D40240202DE9F04F97B0DFF8E7
:10DB8000C89F054600200C468DF8030099F80E0149
:10DB9000022818D0012089F80E01D9F8180000F1E8
:10DBA0003C070020064642F0C5FB864204D217F827
:10DBB000401B701C0529F5D18DF80360F6B242F0C8
:10DBC000B9FBB04207D90C21204639F04DFE0020A8
:10DBD00017B0BDE8F08F287930B96979A81D39F000
:10DBE000C9FE08B10B21EFE729886888884201D96E
:10DBF0001221E9E70B1F43F6FC72122193429CBFEE
:10DC000004389042E0D8288AEB898342DCD8298BFB
:10DC1000EA8A8A42ECD8AA8A12210A2AD4D3B0F519
:10DC2000486FD1D8062BCFD3B2F5486FCCD8698ACC
:10DC30008B087C2BDCD86B79032BD9D82B7B032B5F
:10DC4000D6D801314843B0EB820FD1D2D80706D0E5
:10DC5000684909F12200F8F7FBF90028C8D10DF155
:10DC6000030038F085FE01460028ADD1288A9DF8D2
:10DC700003B02F8B4FF0000801268DF81880ADF807
:10DC80001660ADF80E808100ADF814B0ADF812B09A
:10DC9000B7EB400FADF806104FF0FF3101EB8001FC
:10DCA000ADF81010E9894FEA8102ADF8042028BFD1
:10DCB00047000220022F98BF0746B5F816A07A0049
:10DCC000ADF80C20BAEB410F28BF4FEA410ABAF178
:10DCD000020F98BF82464FEA4A00ADF80A0001A839
:10DCE0004BF066FB08B10D216EE7002000210022F9
:10DCF0003A230BF04DFDD9F818204FEA8B1105237C
:10DD00005050467269798170297B41702968C0F84A
:10DD10000A10297901706989A0F80710D5F8061052
:10DD2000C0F80310E989C181298A0182698A418288
:10DD3000AA8A0783A0F816A08282D9F8180000EBFF
:10DD40008B1080F83C30ADF83C108DF82E60ADF8AB
:10DD50003E208DF82FB08DF82D8068896979ADF857
:10DD60002600D5F806008DF831102979CDF822006B
:10DD70001F208DF8321099F87A108DF82C004FF092
:10DD8000FF300A9028888DF85810ADF83400688864
:10DD9000ADF83600BDF808008008ADF83800BDF8D1
:10DDA0000E00ADF83A00287B03288DF8300012D819
:10DDB000DFE800F002090209B9F82000ADF8200000
:10DDC000D9F81C0005E0B9F82600ADF82000D9F814
:10DDD0002200079003E00848EE2148F07EFD07A8E6
:10DDE0002EF012FF0146002818BF0321ECE600BF09
:10DDF00078114020DEC00500D7F105002DE9FC4771
:10DE0000444C054692468946606850F8256028468D
:10DE100020F050FC18B9B6F89200C00708D10C27C2
:10DE2000284651463A461FF05BFF0020BDE8FC87BC
:10DE300042F080FA1A27A842F2D9002EF0D096F8C4
:10DE40003C00C00701D11A27EAE7B6F896000007A0
:10DE500020D4314890F8AD0000070CD52F480DF1C3
:10DE600007024FF400612B4607682B20B8479DF846
:10DE70000710002949D042F05DFA226C0021884247
:10DE80000BD052F821301BB193F82830AB4203D0AD
:10DE90000131F4E73A27C3E70846C4B242F04AFA30
:10DEA000A042BCD828023C23011D4FF485700A46CD
:10DEB0000BF06EFC804603200027102288F8040037
:10DEC0001748A8F80570C8F80000D9F80200D9F87A
:10DED0000610C8E9020109F10C01B9F80A00A8F816
:10DEE000380008F11000F2F745FC96F89200C0F3F4
:10DEF000401088F83A0040460BF0BEFCB6F8960099
:10DF000040F00800A6F896008AE700287FF487AF63
:10DF1000C8E700BFD4024020A80840209401402058
:10DF200011F8020080B5044A00F110010023F6F751
:10DF300026FE002080BD00BFBB73040070B50C46F8
:10DF4000098806464FF4885008230BF021FC05464B
:10DF5000304620F037FC08B1022017E0A178A1B1CB
:10DF60001120042912D8CA1ED2B2022A0ED330467A
:10DF70002DF000FC0C49687191F8390091F83B10C4
:10DF800035F0C0F9A871002000E01220A1782870B7
:10DF900029712188698010B10020A5F80500284664
:10DFA00007F0D8FA002070BD6C1540202DE9F04F25
:10DFB000C5B09346049131B10546CE1830B1BBF8D7
:10DFC00000002F1805E0002100201AE005AD05F53E
:10DFD0008077012404A803A932463B46CDE90355C6
:10DFE000009405F0B1FC50B9681C03A932463B46C9
:10DFF00000940290049004A805F0A6FC30B10399A7
:10E00000491BABF8001045B0BDE8F08F05F10D0AD3
:10E010004FF0FF310222029801310078814280F0F6
:10E02000C080AAF10B000DF110080DF10C0901914F
:10E03000009232463B46012404904046494605F092
:10E0400083FC0028DBD1AAF10900494632463B4651
:10E0500000940490404605F077FC0028CFD1AAF147
:10E060000800494632463B46049006200090404650
:10E0700005F06AFC0028C2D1AAF102005C464FF00C
:10E08000010B494632463B4604904046CDF800B06D
:10E0900005F05AFC002840F08280AAF101004946B0
:10E0A00032463B46CDF800B00490404605F04CFCAB
:10E0B000002874D14046494632463B46CDF810A070
:10E0C000CDF800B005F040FC002868D10AF101004D
:10E0D000494632463B46CDF800B00490404605F034
:10E0E00033FC00285BD10AF10200494632463B4628
:10E0F000CDF800B00490404605F026FC00284ED133
:10E100000AF10300494632463B4604900220009043
:10E11000404605F019FC0028A3467FF470AF0AF1D1
:10E120000500494632463B46049001200090404697
:10E1300005F00AFC00287FF462AF0AF106004946A8
:10E1400032463B46049006200090404605F0FCFB1A
:10E1500000287FF454AF0AF10C00494632463B4692
:10E16000049001200090404605F0EEFB00287FF46B
:10E1700046AF0AF10D01404632463B460AF1FE0821
:10E1800004919AF80C100091494605F0DDFB0199C5
:10E190000028C2464FF002023FF43DAF2FE7A346EE
:10E1A0002DE700202BE700002DE9F04FA5B00DF181
:10E1B0001008894683460027422140468DF80F709B
:10E1C000F2F7FFFADFF8B8AF9AF80E01012819D07C
:10E1D00002208AF80E01DAF8180000F13C0600204F
:10E1E000074642F0A7F8874204D216F8401B781C75
:10E1F0000529F5D18DF80F70FCB242F09BF8A042D2
:10E2000008D900270C21484639F02EFB384625B0A6
:10E21000BDE8F08F9BF8000048B99BF802100BF1A5
:10E22000030039F0A7FB10B100270B21EBE79BF8A7
:10E23000093000271121072BE5D813F00400E2D1A3
:10E2400013F0F80F02D000271221DCE7A24903F0F7
:10E250000F001A090027085C895C03F0010203F033
:10E260000203084412215FFA80FE0BF10C0076468F
:10E2700076B103B142B130F8024C042CC3D3058807
:10E28000042DC0D3A542BED8013E1030013AEFE7BD
:10E29000102000EB0E1C002000F11002944529D044
:10E2A0000BEB0006338AF4899C42CCD8308BF18A80
:10E2B0008142C8D8B08A002712210A28A3D3B3F517
:10E2C000486FA0D8062C9ED3B0F5486F9BD8718AB2
:10E2D0008C087C2CB7D8013100EB80000027594313
:10E2E000400001EB81014B1C1221B0EB530F104693
:10E2F000D2D288E79BF802000128A4D89BF801003D
:10E300000328A0D8C007CDF808E007D073490AF168
:10E310002200F7F79DFE00287FF495AF0DF10F0066
:10E3200038F026FB10B1014600276CE7DDF808E065
:10E3300016209DF80F100BF10E0200270EFB00F0C7
:10E340000191163000900020009900F11604A142BE
:10E3500034D011884FF0FF3502F110068B0028F8F9
:10E360000030404401234382019B077547810382AB
:10E37000C381538805EB830585819D004580158900
:10E38000B5EB410F28BF4D00022D98BF0225690053
:10E39000C1805189B1EB430F28BF5900A94298BFF2
:10E3A0002946490001814BF003F8DDF808E0002818
:10E3B0004FF03B0120463246C6D024E7019ADAF8F6
:10E3C00018100BF10A030027900141F800B001EB8F
:10E3D0008210052108F10A0280F83C104FF0FF304E
:10E3E00018901F209BF809C08DF86400DBF803002B
:10E3F0008DF866C0CDF85A00BBF80700ADF85E0096
:10E400000EEB4E00860015A8BE420ED09968C419C6
:10E410001D680C371033216232F8061CA56115887F
:10E4200016328908E583A183EEE70CF00501052982
:10E4300018D1AEF1010200F11801BDF86E3002EB07
:10E44000420201EB820100EB820049881944BDF8C9
:10E450006C30994288BFADF86C1030F8182F91429B
:10E4600088BF018001989BF800109BF802208DF86E
:10E47000670001208DF86A109AF87A108DF86920EB
:10E480008DF865009BF801008DF8901003288DF839
:10E49000680012D8DFE800F002090209BAF820008B
:10E4A000ADF85800DAF81C0005E0BAF82600ADF81F
:10E4B0005800DAF82200159004E0094840F2F31100
:10E4C00048F00BFA15A82EF09FFB01460127002803
:10E4D00018BF032197E600BFBCC10500DEC00500E0
:10E4E000D7F105001CB504460AB10D4809E0E9481A
:10E4F0001F22573013060DD0D3B2013AC35C002B54
:10E50000F8D0084A0323009201F12002FAF751FDE6
:10E51000014600E00C212046BDE81C4039F0A4B9BA
:10E52000F8B205000579040080B502460846114698
:10E530000022FFF7D7FF002080BD80B5034690F88A
:10E54000402008461946FFF7CDFF002080BDB0B53A
:10E550000A4604464FF48850002110230BF018F9A6
:10E5600005462088291D05F1080205F10C03688085
:10E57000C0B20AF0E5FA2870284606F0EBFF00204A
:10E58000B0BDF8B50A4604464FF488500021042374
:10E590000BF0FEF80546A078022801D9122623E0E8
:10E5A0002088B0F5007F0AD3C7B241F0C3FE87428E
:10E5B00019D238460121F22236F09AFA0CE0B0F571
:10E5C000807F10D3C7B241F0B5FE87420BD23846E8
:10E5D0000121F22237F020FEA278064638460121BA
:10E5E0000AF0CAFA00E0022620882E7068802846C9
:10E5F00006F0B0FF0020F8BD70B50A4604464FF49F
:10E600008850002110230BF0C3F805462088B0F590
:10E61000007F1AD3C6B241F08DFE864233D2291D47
:10E6200005F1080205F10C0330460AF089FA1128B9
:10E6300018BF002828D13046012136F0ABF958B375
:10E640003046002136F0A6F91EE0B0F5807F1AD3DF
:10E65000C6B241F06FFE864215D2291D05F10802AF
:10E6600005F10C0330460AF06BFA112818BF002898
:10E670000AD13046012137F025FD68B1304600212E
:10E6800037F020FD00E002202870208868802846AE
:10E6900006F060FF002070BD0020F5E7F8B50A46DF
:10E6A00004464FF48850002104230BF071F805460E
:10E6B000A078022801D9122623E02088B0F5007F37
:10E6C0000AD3C7B241F036FE874219D2384600213C
:10E6D000F22236F00DFA0CE0B0F5807F10D3C7B20D
:10E6E00041F028FE87420BD238460021F22237F053
:10E6F00093FDA2780646384600210AF03DFA00E074
:10E70000022620882E706880284606F023FF00200D
:10E71000F8BD000070B5144605461FF0CBFF90BB56
:10E720002846012122F026FA03282CD1284601216F
:10E7300022F016FA41790F2925D190F83A0050B30A
:10E7400028460121012622F093FA16480C2340683E
:10E7500050F82500B0F8921021F40071A0F8921042
:10E760002802011D40F209100A460BF011F80E496B
:10E7700006710026A0F80560016040F20661018183
:10E780000BF07AF800E00C262846214632461FF0AE
:10E7900097FA002070BD28460F21062222F002FDC4
:10E7A0000026F1E7D4024020EDDE020070B51446E9
:10E7B0000E4605461FF07EFFC0B92846012122F013
:10E7C000D9F9032812D12846012122F0C9F941794B
:10E7D0000F290BD11030B11C1022F1F7CBFF2846C6
:10E7E0000F210022002622F0DDFC00E00C26284646
:10E7F000214632461FF064FA002070BD2DE9F84F23
:10E80000E64F054688467868002818BF0120297819
:10E81000B1FA81F14909884232D04FF000093C2415
:10E820004FF0000A41F086FD82452BD2B869005DA9
:10E83000092821D15FFA8AF695F800B030461FF01A
:10E84000DFFEC8B9304620F007F8A8B14FEA0A2029
:10E850000C23043081B24FF488700A460AF098FF06
:10E860000A2180F80A9080F808B0A0F8059001719C
:10E87000094901600BF000F840340AF1010AD1E7C0
:10E88000432100E00021404638F0E0FF0020BDE8D1
:10E89000F88F00BF7811402069DC02002DE9F041BB
:10E8A000E14F04460D4697F80E0101281BD00220C7
:10E8B00087F80E0138F086F8064641F03BFD8642A7
:10E8C00011D2304631F0DEFAA8B1304634F0A4F867
:10E8D00068B1032024F8045C24F8060C20460AF0F2
:10E8E000CBFF012404E028460C2138F0AFFF0024C0
:10E8F0002046BDE8F081B8694FEA8618002400EB95
:10E90000861150F808000C3881F83C400AF068FF86
:10E91000B869002140F80840284638F097FF41F2D6
:10E92000031000213E2212230AF032FF44F20E416E
:10E93000468001230180B96901EB861191F82C20F2
:10E94000027191F833204271CA69098C0373C48142
:10E9500004744181C0F8062006F0FCFDC8E700BF42
:10E960002DE9FC47054680890C4643F6F6710A38C6
:10E9700088420ED82F78032F0BD8AE78012E08D8F6
:10E9800095F801A0BAF10F0F03D8688980087C2898
:10E9900007D900251221204638F066FF2846BDE839
:10E9A000FC87DFF8CC9C99F80E0101280BD00220DF
:10E9B00089F80E0138F006F880468DF8070041F01E
:10E9C000B9FC804502D200250C21E4E7F80708D104
:10E9D000E81C3146524638F0F9FF10B100250B21F2
:10E9E000D9E70DF1070037F0C3FF10B1014600254C
:10E9F000D1E79DF80700D9F81820AB788101555070
:10EA000002EB80110E2281F83C2029786A780335C8
:10EA1000009501F0010131F0EBF901460125BAE75B
:10EA2000781140202DE9F0417F4F0546144697F8B4
:10EA30000E01012808D00E4610B9022087F80E01F9
:10EA400028461FF091FE38B10C22284621461FF0BF
:10EA500037F90020BDE8F08128461FF039FFA0B348
:10EA6000022087F80E013079EF2830D8002138F0E5
:10EA7000D9F8FF282BD08046B86900EB881191F8AF
:10EA80003970FF2FE0D000EB871090F83C000C2885
:10EA9000DAD1404600210022002338F097FB0246DD
:10EAA0000028D2D128020623011D40F211100A4687
:10EAB0000AF06EFE012180F80480C77081707188B1
:10EAC00001800AF0D9FE0022BFE71A22BDE74222E8
:10EAD000BBE700BFF8B5054653480E46144690F80C
:10EAE0000E11012907D011B9022180F80E11284614
:10EAF0001FF03AFE30B10C22284621461FF0E0F804
:10EB00000020F8BD28461FF0E3FED0B13079002187
:10EB100000220023002739F003FC02460028EBD135
:10EB200028020623011D40F211100A460AF030FEA9
:10EB30007188877001803179C1700AF09DFE0022D2
:10EB4000DAE71A22D8E700BF7811402070B5364EB8
:10EB50000C4696F80E1101291AD00221057886F884
:10EB60000E1141F0E7FB854212D2B06900EB85102F
:10EB700090F83C000F280BD1284633F04DFF01469A
:10EB800038B9B069102100EB851080F83C1003E023
:10EB90000C21204638F05AFE002070BD781140202C
:10EBA00070B54FF48850002142F218020923002664
:10EBB0000AF0EEFD0446451CF1F7B4FB0146284679
:10EBC000F8F787F8651DF1F7ADFB01462846F8F721
:10EBD00080F82046267006F0BDFC002070BD0000C5
:10EBE00010B50A464FF48850002102230AF0D0FDE8
:10EBF0000C49044691F8390091F83B1034F082FB3F
:10EC00006070094890F80E1102290FBF0C200121F5
:10EC100080F80E1100202070204606F09BFC00209A
:10EC200010BD00BF6C1540207811402010B54FF486
:10EC30008850002142F20202062300240AF0A8FDB7
:10EC4000E049FB2304700A8BC98A4380511A01EB07
:10EC50001161090A017106F07DFC002010BD00BFA2
:10EC600010B50A464FF4885000210A2300240AF008
:10EC70008FFDFB2140F6FF73047041800521017276
:10EC8000D049CA8A098BC380891A01EB1161090A2C
:10EC9000017106F05FFC002010BD00BF70B50C468E
:10ECA000098806464FF4885042F215020A230AF0FA
:10ECB0006FFD054630461FF075FC08B10C2008E0DA
:10ECC000BF48406850F82600017B29728068686060
:10ECD0000020287020886880284606F03BFC002031
:10ECE00070BD00BF2DE9F04F91B0DFF8088F0446EA
:10ECF0000D4698F8C00080070DD5AF480DF13B02D6
:10ED000002212346009506683020B0479DF83B104D
:10ED1000002900F037814FF4885000212A46202333
:10ED20000AF036FD20210546F1F74BFD2088B0F5AD
:10ED3000007F75D3C7B241F0FDFA874280F01A8197
:10ED400098F8A90005F1180905F1140AC0060FD5B5
:10ED50009E4810AA4FF480513B46CDE900A90668B1
:10ED60002A20B04706469DF84000002800F00381A5
:10ED7000DFF8D0BC00210FAADBF83C0050F82700D8
:10ED80000F910121007937F04FFC0646002840F032
:10ED9000F2800F98807E000700F1F78098F810004D
:10EDA000C0070FD089480DF1410201213B46CDE952
:10EDB00000A906680420B04706469DF841000028D7
:10EDC00000F0D980DBF8140050F82700002800F08C
:10EDD000EB8090F82E00DBF8101051F82060F1F76E
:10EDE000D1F9002E00F0DE80B6F8921001F408711F
:10EDF000202940F0D780C24994220026498807FB89
:10EE00000211714A11444A8A0B8A43EA0242CAF843
:10EE10000020CA8A898A41EA0241C9F80010C6E086
:10EE2000B0F5807FC0F0A680C7B241F083FA874278
:10EE300080F0A08098F8AD0005F11C0305F11801E1
:10EE400005F1100205F1140905F10C0A05F1080B92
:10EE500005F1040ECDE90C2180061FD55748CDE9F8
:10EE6000007ECDE902BACDE90429CDE90613CDF83B
:10EE70002C9099460DF142024FF40051082376463A
:10EE8000D0F800C02B20E0474B46DDE90B92B64698
:10EE900006469DF842000D9900286CD0CDE90A3A4B
:10EEA000474B186C50F827A0BAF1000F62D098F8C1
:10EEB00017009AF82C7040071FD5404803AECDE9E3
:10EEC000007ECDF808B0D8469B460823D0F800C095
:10EED0000B9886E805020A9806910DF143024FF05F
:10EEE0008061764607900520E047B64606469DF8C5
:10EEF00043005B46C34600285CD0D869CDF824B0F7
:10EF0000F04650F82760F1F73DF9002E3FD07C49DC
:10EF10009422498807FB02112B4A8B185E88895A74
:10EF200041EA06410026C8F80010D9889A8842EACA
:10EF30000141099A116059891A890B9F42EA0141DE
:10EF40003960D9899A8942EA01410C9A1160598A3B
:10EF50001A8A42EA0141C9F80010D98A9A8A42EA1B
:10EF600001410D9A1160598B1A8B42EA01410A9AAC
:10EF700011600EE0022620882E706880284606F078
:10EF8000E9FA002011B0BDE8F08F0026F3E70B9FEF
:10EF90000C26F1F7FBF89AF82B000028EBD10020A3
:10EFA0003860E8E70C2602E00C26F1F7EBF8F1F701
:10EFB000EDF8E0E70B9FEEE79C014020BC0140200C
:10EFC000D4024020F800402070804020A40140205E
:10EFD00070B50A4605464FF48850002110230026DC
:10EFE0000AF0D6FBC0E90266044686802888608065
:10EFF000C5B241F09FF9A84215D9C4E90266A680BE
:10F0000041F098F9A8420CD90E48406950F82510F3
:10F0100039B188680A8AA060A280C968E1604AB9EB
:10F0200040B90C2000E002202070204606F092FA41
:10F03000002070BD0448806B415D00200029F3D1A1
:10F04000E060F1E744064020440440202DE9FC4103
:10F050000A4605464FF488500021072300260AF08F
:10F0600097FB297804461220207001292CD8681CAF
:10F0700038F0A8FDC14F05463822F8883989091AA9
:10F0800091FBF2F1A9421DDDA84904F1010849787C
:10F0900049060FD5A6480DF107024FF480412B46D3
:10F0A000CDF80080D0F800C00020E0479DF80710A0
:10F0B00011B3F888C5EBC5029E4941EAC2031B5A49
:10F0C0001B060BD402202070A4F80560C4F8016070
:10F0D000204606F03FFA0020BDE8FC8100EBC200AC
:10F0E000303080B242580844C8F800208088A8F820
:10F0F000040000202070EBE720700006E4D1E7E771
:10F10000F8004020BCB508460021002438F0ACFBD4
:10F110001A4D01200DF106010DF107028DF80600D0
:10F1200082202B68984780B120208DF807408DF809
:10F13000060091485730F9F789FF8F48114A03219B
:10F140005730F9F773FF0020BCBD20208DF8060072
:10F150009DF807000028ECD087482B680DF10601C8
:10F1600000F157028020984718B100208DF8070061
:10F17000DFE79DF807000028DFD1DAE7B400402080
:10F18000781140203D7B040010B54FF488500021D9
:10F1900042F20302092300240AF0FAFA7649D1E97F
:10F1A00002210470C0F80120C0F8051006F0D2F961
:10F1B000002010BD80B50A464FF48850002104237A
:10F1C0000AF0E6FA6C4991F80E21012A0FBF0C21D2
:10F1D000022281F80E21002101704FF4FE7242805C
:10F1E00006F0B8F9002080BD10B50A464FF48850EB
:10F1F00000210A2300240AF0CBFA05490470C0F864
:10F200000610C0F8021006F0A5F9002010BD00BFDE
:10F21000FB004808F8B50A464FF488500021022345
:10F22000002502260AF0B4FA04464570524890F8C8
:10F230000E11012902D10C20207015E0257080F8F4
:10F240000E610027806900F13C0641F073F88742A7
:10F2500007D230784036013703289CBF01356570EE
:10F26000F3E7E8B240086070204606F073F900202A
:10F27000F8BD00BF2DE9FC410A4605464FF4885011
:10F280000021072300260AF083FA0446A0F805604F
:10F2900012202746207047F8016F297801292DD8C0
:10F2A000681C38F08FFCDFF8588E05463822B8F815
:10F2B0000600B8F80810091A91FBF2F1A9421BDD0B
:10F2C000D349497809060FD519480DF107024FF4C3
:10F2D00000412B460097D0F800C00020E0479DF881
:10F2E0000710F9B1B8F80600C5EBC502114941EAAB
:10F2F000C2031B5A1B0709D402202070BE803E6047
:10F30000204606F027F90020BDE8FC8100EBC20092
:10F31000143080B2425808443A608088B880002097
:10F320002070EDE720700006E8D1E9E7A80840204A
:10F330009C0140200080402010B50A464FF48850C0
:10F340000021022302240AF023FAC94A0C2192F870
:10F350000E31012B4FF00C031CBF82F80E4100232D
:10F36000EC4A03709388D288D21A92FBF1F1417073
:10F3700006F0F0F8002010BD78114020F800402081
:10F3800070B50C46098806464FF4885006230AF0EB
:10F39000FFF9054630461FF0FFF908B10C2006E0E2
:10F3A0008548406850F82600808DA880002028708D
:10F3B00020886880284606F0CDF8002070BD00BF88
:10F3C000F8B505467C481446406850F82570284634
:10F3D0001FF088F908B10C262EE0B7F89600400718
:10F3E00027D440F0A7FFA84204D91FB197F83C00EA
:10F3F000000704D4B7F8920010F0810F1BD0280248
:10F400000C23011D4FF484700A460AF0C1F904214F
:10F41000002601710C49A0F805600160012101720C
:10F420000AF02AFAB7F8960040F00400A7F8960010
:10F4300002E03A2600E01A262846214632461EF00F
:10F440004FFC0020F8BD00BFE5E102002DE9FF47B9
:10F450000446002015460E468DF80E0020461FF08B
:10F46000B1F908B1022782E0204621211FF05EFA9F
:10F47000A0B3B078A0B31127042878D8C11E022900
:10F4800075D34C49DFF8D8AE0F5CDAF8040050F8B9
:10F490002490CD4890F82000000610D547480DF183
:10F4A0000F0280212346D0F800C00DF10E00CDE9F7
:10F4B00000700820E04780469DF80F00B0B1F0F7DB
:10F4C00061FEDAF8201051F8241059B1394491F84E
:10F4D000A68091F8AA108DF80E1005E01A2746E0D4
:10F4E000122744E04FF07F08F0F750FE5FFA88F0F3
:10F4F0007F281AD099F88B00B8B19DF80E008028AB
:10F5000013D020462946002200271EF0E9FB9DF873
:10F510000E004FFA88F1B3780222CDE900102046A0
:10F52000002102971EF0D6FF27E0B9F89600C0052B
:10F5300027D420021023011D4FF48A700A460AF0D6
:10F5400027F90D21002701711D49A0F805704773A7
:10F5500001604FF48171A0F80910B17801720AF0CE
:10F560008BF9B9F8960040F48070A9F8960020460F
:10F5700029463A461EF0B4FB0027384604B0BDE8E1
:10F58000F0872046002121F0F5FA0D2809D1204608
:10F59000002121F0E5FA017AB278914201D1817A15
:10F5A00009B10227E9E74FF481710027A0F809109B
:10F5B000DDE700BFFEC00500D4024020A4014020CA
:10F5C000790E03001CB54FF48850002142F24C0222
:10F5D00006230AF0DDF8044633F07EFE6080D6484C
:10F5E0000079400709D50B480DF107020421036893
:10F5F000012098479DF8071009B10748808E002127
:10F60000A0802046217005F0A5FF00201CBD00BF92
:10F61000A8084020B4014020E005402010B50A466B
:10F620004FF488500021022300240AF0B1F8394930
:10F630000470CA880989891A382291FBF2F1417055
:10F6400005F088FF002010BD10B54FF48850002150
:10F6500042F22302062300240AF09AF804490470B7
:10F66000896CC0F8021005F075FF002010BD00BFC6
:10F670007811402010B54FF48850002142F21C024E
:10F68000092300240AF084F840F2FF310470C0F826
:10F6900005104FF0FF31C0F8011005F05BFF0020AE
:10F6A00010BD0000B0B54FF48850002142F24B026B
:10F6B000032300250AF06CF805700A4D044695F8FE
:10F6C000380095F83A1033F01DFE607095F8390057
:10F6D00095F83B1033F016FEA070204605F03AFF77
:10F6E0000020B0BD6C15402010B50A464FF488507C
:10F6F0000021022300240AF04BF8064904708A888E
:10F70000C988891A0C2291FBF2F1417005F022FFA1
:10F71000002010BDF80040207FB5044686480D4605
:10F7200090F8AC0000070CD584480DF10F020821B9
:10F730002346009506682B20B0479DF80F1000293E
:10F740003FD021884FF488502A4604230AF020F83D
:10F75000BC4905462078096C51F820603EB396F804
:10F76000290002AA002136F05FFF18BB96F82D0091
:10F7700001281ED1A17809B94421A17096F828006A
:10F780001DF0B0FD304635F0C5FB0298314604301F
:10F79000F6F72CFD029890F82F10013980F82F1001
:10F7A000090602D1407836F0D7FE002002E00220A0
:10F7B00000E00C20287020886880284605F0CAFEEA
:10F7C000002004B070BD00BFA808402070B51446EA
:10F7D0000E4605461EF02CFF08B10C2210E0B07852
:10F7E0003B280CD12846012121F0BAF90028F4D099
:10F7F000284608213B2221F0BDFB002200E0122216
:10F80000284621461EF05CFA002070BD2DE9F0412B
:10F8100090460C4605461EF00BFF08B10C2426E06E
:10F8200026896788E288A4882046394633461EF038
:10F83000BFFAD8B12846012121F092F90028EDD075
:10F8400041890022A14288BF0C46018944810024DD
:10F85000B94288BF0F46C1890781B14288BF0E46B1
:10F86000C6812846082121F085FB00E02024284697
:10F87000414622461EF024FA0020BDE8F081000037
:10F880002DE9FC418046DB480D4690F8AC00C006EF
:10F890000CD52A480DF10702102143460095066851
:10F8A0002B20B0479DF80710002943D04FF4885013
:10F8B00000212A460223002709F06AFF054698F82E
:10F8C00000000021FF2235F0C1FA064640F032FD6B
:10F8D0005C49096CB8420DD051F8272042B17378C9
:10F8E00092F829409C4203D192F82D20012A04D895
:10F8F0000137EFE716B9022014E03846C4B240F0F1
:10F9000019FDA04201D90C200CE0371D386828B140
:10F910003846F6F7CEFC35F0FDFAF7E7707836F0AA
:10F920001BFE0020287098F800006870284605F03B
:10F9300011FE0020BDE8FC81A80840209C01402069
:10F9400070B50A4604464FF488500021042309F09C
:10F950001FFF05462088B0F5007F14D3C6B240F0E3
:10F96000E9FC864224D2A078810705D530460121E2
:10F9700035F010F8E8B9A078C00717D0304600215C
:10F9800035F008F815E0B0F5807F11D3C6B240F02D
:10F99000D1FC86420CD2A078810705D530460121E2
:10F9A00036F090FB28B9A078C0070AD1002000E00B
:10F9B0000220287020886880284605F0CBFD0020B2
:10F9C00070BD3046002136F07DFBF2E770B515467C
:10F9D00004461EF015FE18B1204629460C222BE0E5
:10F9E00020461EF039FF20B320462946002200267B
:10F9F0001EF076F920020C23011D4FF488700A4690
:10FA000009F0C6FE0E49A0F80560012201600A2136
:10FA100001714FF48071A0F809100A49496851F842
:10FA20002410B1F8921022EA9121017209F024FF0A
:10FA300004E0204629461A221EF052F9002070BD2B
:10FA400069DC0200D4024020F8B5E14E0C4696F87D
:10FA50000E11012921D00221007886F80E11694685
:10FA600037F0E0F8FF281AD0B669054606EB80109B
:10FA700090F83C10012910D190F8397040F05AFCF0
:10FA8000874205D206EB871090F83C000A2804D183
:10FA9000284637F0D7FB002102E00C2100E042218C
:10FAA000204637F0D3FE0020F8BD00BF2DE9F04717
:10FAB000C5790C460F2D05D890F800A00746BAF17D
:10FAC000010F07D912262046314637F0BFFE00202D
:10FAD000BDE8F087DFF8849899F80E01012801D17C
:10FAE0000C26F0E7022089F80E0136F06BFF804605
:10FAF00040F020FC0C268045E5D3013751463846BE
:10FB000037F0DAFE59498A88C988891A91FBF6F1DB
:10FB1000814208DD00EB8006D9F8301001EB460188
:10FB20004A7A520701D44226CDE70122CB88AA4067
:10FB30009343CB8093B2394652462FF083F8D9F8DD
:10FB4000300000EB4600C18849B910F8091F01F0E8
:10FB5000FB0202708A075CBF01F0FA010170002607
:10FB6000B1E700BFF8B505780C46012D01D9122187
:10FB70003BE0CA4F064697F87A0020B137F05EFFA7
:10FB800008B10C2131E0701C294638F01BF8374EC3
:10FB900005463822F0883189091A91FBF2F1A94211
:10FBA00022DD1449897889070DD513480DF1030228
:10FBB0004FF400312B46D0F800C00020E0479DF8FC
:10FBC000030048B1F088C5EBC501B54A42EAC1015E
:10FBD0000A5A6FF3DF320A523868272105FB010009
:10FBE000FF218171002100E00221204637F02EFE26
:10FBF0000020F8BDA80840209801402070B50C46B0
:10FC0000064637F035FFF0B13578022D01D3FF2DD0
:10FC100017D101362946304637F04EFE13498A88FF
:10FC2000C988891A0C2291FBF2F1814209DD9B4AB5
:10FC300000EB8001126B02EB410111F8092F9307D1
:10FC400007D4122100E00C21204637F0FFFD0020F0
:10FC500070BD53074FF0FD0358BFFC231A400A70D4
:10FC600031462A4633F0DAFB0021EDE7F800402068
:10FC7000B0B586B00C46054637F024FF20B1287891
:10FC8000272803D912210DE00C210BE08DF801008B
:10FC9000002001218DF800006846ADF8041033F013
:10FCA0006BF80146204637F0D1FD002006B0B0BD0C
:10FCB000B0B586B00C46054637F004FF58B1287839
:10FCC000272806D869784A1E022A02D8AA78012A6B
:10FCD00008D9122100E00C21204637F0B7FD0020A2
:10FCE00006B0B0BD00228DF8010068468DF8041002
:10FCF0008DF805208DF8002033F03EF80146EBE743
:10FD0000F0B587B00C46054637F0DCFE08B328781E
:10FD1000272806D86B78591E022902D8A97801290C
:10FD200001D9122116E0EE781221012E12D0142EE4
:10FD300010D829790229F4D895F805C0ACF1010250
:10FD4000012AEED8AA79971E492FEAD8032B07D1AA
:10FD500036B10C21204637F079FD002007B0F0BD08
:10FD60000C2A01D91121F5E78DF809608DF80500FD
:10FD7000002001AE8DF80A10E91D8DF80C208DF8D9
:10FD80000BC08DF808308DF8040006F10900F0F77B
:10FD9000F1FC304632F0F0FF0146DBE7B0B50C462F
:10FDA000054637F04BFE08B10C210BE028780128FE
:10FDB00007D8D249002818BF012081F87A00002115
:10FDC00000E01221204637F041FD0020B0BD00BF09
:10FDD000781140202DE9F843C84F05460C4697F8A6
:10FDE0000E01022801D10C2151E0012087F80E01FB
:10FDF00028781F2801D9122149E0FF20002136F080
:10FE000011FF0646FF288DF803002BD0B86929782A
:10FE100000EB861011B9C28B8A4237D0B0F81C8033
:10FE2000F5F704FA50B3294681461D4811F8012B15
:10FE30004844F0F79FFCB86900EB8610A0F81C90CE
:10FE4000B869297800EB8610C183B86900EB861089
:10FE500090F83C00022813D1297830464A4621F018
:10FE60004FFF13E00DF1030036F082FD014670B93B
:10FE70009DF80360304637F079F9C7E7072106E0BF
:10FE8000B8F1000F1CBF4046F5F7E2F9002120460B
:10FE900037F0DCFC0020BDE8F88300BF781140207B
:10FEA000008040202DE9F04F8DB0EB4F05460C4609
:10FEB00097F80E01022801D10C2117E10120002141
:10FEC00087F80E01FF2036F0ADFE06468DF83300B0
:10FED0002878012819D020BB40F02CFA864222D283
:10FEE000B86900EB861090F83C0002281BD1304620
:10FEF00024F03AFD0146002840F0F880B86903215B
:10FF000000EB861080F83C10EBE040F013FA8642DC
:10FF10000BD2B86900EB861191F83C100129CBD1C6
:10FF200011E01221E2E00120DCE00DF1330036F0B7
:10FF30001FFD0146002840F0D9809DF8336030460F
:10FF400037F014F9B869FF218DF83210B10150F87B
:10FF5000019099F80B00C00707D0C04907F12200B3
:10FF6000F6F776F808B11221BAE0B9F802805FEA34
:10FF7000C8703AD1ADF81C8099F8082099F809307A
:10FF8000B9F80A1099F807001202ADF8211042EAF8
:10FF9000034299F80C1010448DF823100490484641
:10FFA00050F80D2FCDF80A208288ADF80E20827906
:10FFB0008DF82420C2798DF82520027A8DF826202C
:10FFC0008DF82820427A8DF82720C27A8DF82920D2
:10FFD000027B8DF82A2010F8028C5FEAC8721AD1D1
:10FFE0003A8CADF80820FA691AE00DF1320036F0CB
:10FFF000BFFC0146002873D1B9F8028018F00C0F3D
:020000040001F9
:10000000B8D099F80C1009F10D0037F0B3FC0028B6
:10001000B0D00B2164E0FA8CADF80820D7F822208C
:100020000192BA699DF832A002EB8612938BADF86B
:100030001430D38BADF81830938CADF81630D28CC9
:100040008DF82DA0ADF81A20C74AD3881289D21A8C
:10005000382392FBF3FB97F87A200023ADF81E308B
:100060008DF820308DF82CB08DF82B201AB1B9F80E
:100070000220520702D45FEA887218D537F0A2FD39
:1000800083458DF82C0012DD18F002010FD039687D
:10009000272200FB02101B49102200F107084046EE
:1000A000F0F765F918B140463146F4F72FFE01A983
:1000B000304624F075F8014690B9B869022100EB8A
:1000C000861080F83C1099F80210C90707D080F814
:1000D0003AA00421B86900EB8A1080F83C10002196
:1000E00021B90020002108B9287810B1204637F046
:1000F000ADFB00200DB0BDE8F08F00BF78114020AF
:10010000F8004020E4C005002DE9FC41524F0646AE
:100110000C4697F80E01022812D00120002187F822
:100120000E01FF2036F07EFDFF288DF8070009D074
:100130000546B86900EB851090F83C0001280CD00A
:100140000C2135E00DF1070036F012FC014678BBBA
:100150009DF80750284637F009F896F80480B8F162
:10016000040F24D8B8F1010F09D070881221B0F51E
:10017000804F1DD83288202A1AD3824218D8707B2B
:100180000138062813D8B07B032810D870790328CB
:100190000DD8B07901280AD8B8F1040F18BFB8F10A
:1001A000010F0ED12D49F01DF5F752FF30B112218C
:1001B000204637F04BFB0020BDE8FC814FF0010CDE
:1001C00001E04FF0000CBA69A901BCF1000F5158D1
:1001D0004FF000024A72F3780B72B3788A71CB71D8
:1001E00073784B7133780B711DA313F8083096F8B0
:1001F00006E0707B4B807379887281F80CE0CB72DB
:10020000D6F80700C1F80D00B6F80B00A1F81100F0
:1002100008BFB27B7079CA74032810D8DFE800F0F9
:1002200002060206D7E906013A8C03E0B869D7F85E
:100230002210FA8C00EB85100286C16204E00A48A5
:100240004FF4267146F049FBB869012100EB851097
:1002500080F83C100021ABE778114020DEC005009B
:10026000131D1210150000000FF20500F0B585B047
:100270003A4F06460C4697F80E01012801D10C2191
:1002800066E0022001A987F80E01307836F0CAFC3A
:10029000054640F04FF8854259D2B86900EB851009
:1002A00090F83C10022903D101994988C907E6D189
:1002B000B6F805100186D6F80110C162B86900EBE6
:1002C000851090F83C0002283FD1D6F80110B6F80E
:1002D00005000A0A8DF80C00000A8DF810108DF840
:1002E0000F200A0C090E8DF80B008DF80E208DF8EA
:1002F0000D10EFF747FF1A49C96851F8251011B3DF
:1003000091F89410C9071ED01649942205FB0211DA
:100310009DF810209DF80F3042EA0322124B5D88B1
:100320004A535A889DF80E509DF80D6045EA0625FF
:100330000A4455805A8811449DF80C209DF80B30D2
:1003400042EA03228A80EFF721FF002100E04221E8
:10035000204637F07BFA002005B0F0BD7811402030
:10036000D402402008804020F80040202DE9F04FC2
:100370008FB00446DFF8D4090D4690F8AC00800633
:100380000DD5DFF8CC090DF13B0220212346009565
:1003900006682B20B0479DF83B10002947D04FF44A
:1003A000885000212A462423002609F0F1F9054649
:1003B00020780D96EF2827D8617B012924D8A04604
:1003C00058F8041FA1F1FF02CF498A421CD8A14668
:1003D00059F8082FFF3A8A4216D8217B072913D8EB
:1003E000A17B012910D8A2463AF8101F4A1F40F6F7
:1003F0009B718A4208D8A3463BF8122F053A8A42DD
:1004000002D8217D1F2915D912260020A870207836
:100410002E706870284605F09DF83EB10D9828B101
:1004200090F82F1011B9407836F096F800200FB0F0
:10043000BDE8F08F0021FF2234F008FD0D9018B1C7
:1004400090F83310A1BB13E00DAA0020342100273F
:1004500036F0A8F806460028D7D10D98FF2180F87D
:100460003170C0E90177C1858762217880F830104A
:1004700008903FF05FFFDFF8B019DDF820C00A6C8C
:10048000002188420FD052F821304BB19CF8016016
:1004900093F82970B74203D193F82D30012B01D87E
:1004A0000131EEE70846C6B23FF044FFB04201D941
:1004B0000C26AAE7281D4FF0000E00220021CDF8DF
:1004C00028B00390207D0691814280F0B68002EB37
:1004D00082002618B07DEF2800F2AB80308BBEEB97
:1004E000103F40F0A680708BBEEB103F40F0A18023
:1004F000B07F0F2800F29D80F07F0F2800F29980D6
:10050000307F81071EBF0B92717F5FEA817100F01F
:10051000A28134F00DFC8346707F34F009FC034661
:10052000B27E307E0121009159461F46079334F078
:100530004BFC09900D98B27D90F83010FF2034F0FC
:10054000B3FC07463FF0F6FE874205D2DC48006C5C
:1005500050F827700C9711E00CA834F001FD00282A
:1005600040F09B81DDE90C7039460430F5F7ABFEB5
:10057000D34897F82C10006C40F82170386AF6F7D1
:10058000CFFB10B9308B002855D0786AF6F7C8FB3E
:10059000718B09B900284ED00798089A4FF0000EC9
:1005A000DDF834C087F80BB03981DDF82CB00029B4
:1005B00087F82BE0B87340F20110508439749CF82E
:1005C0000100A37B87F82900B07D82F82430099AC6
:1005D00097F82C3078712078BA83039A03F58073EA
:1005E0003871308BF88022F80B300B46787318BFC7
:1005F0000123FB730028034618BF01233B73B27F1E
:10060000002887F82DE09CF82F3003F101038CF8C7
:100610002F3018BF501CF27F002918BF511C884290
:1006200088BF0146B9725A4606990BF102020131A0
:1006300048E7122610E10C260EE1A17B4FF0000ED8
:1006400007914FF6FF710B91C1B28E4580F0278163
:1006500005EB4E009A490B9F40F2E24CCDF808E0C2
:100660000079096C51F820200020114609929072FF
:10067000079A11460592012800F29D8049460028FC
:1006800008BF41460B680A9E08BF564600284FF037
:10069000080108BF062193B30B97099FF34637F86B
:1006A00001E0BEF1000F2CD0B3FBFCF10792059ADC
:1006B000368840F2E24B01FB0CF7BB424FF00107DA
:1006C00018BF3A460592120604921FD08FB207FB5C
:1006D0000BFC4FF47A777E43F627F31A0EF1F506FA
:1006E000B3FBFCF3B6FBF7FC5FFA8CF7A3F1010B4D
:1006F0000EEB0702013A92FBF7F2053228E0394689
:1007000056E00B99DE4653E000FF0F004FF47A737A
:1007100089B2022706FB03F240F6C41301FB03F67D
:10072000FB230192B2420EF1FA0638BF012779434A
:10073000B6FBF3F6F3B2019E0EEB030207FB03FCDC
:10074000013A92FBF3F28BB203FB0BF3B6FBF3FB24
:100750005FEA0B670B9E079F7DD0DDF808E050B184
:10076000099BBEF1000F83F80FC01A740DD1089ACF
:1007700082F823B009E0099BBEF1000F83F80CC09A
:100780005A7302D1089A82F822B08AB2B3B240F208
:10079000E24C934298BF3146002A08BF3146049A82
:1007A000002A4FF0010208BF3A463B0618BF3A46FE
:1007B00001300F465FE70B97099F07920126DDF88E
:1007C00020B0F97A787BBB7B3A7C0096764634F091
:1007D000FBFA06EB8601B88304EB41018B7FCA7FED
:1007E000934288BF1A463B7BF97B8B4288BF1946F0
:1007F0009BF822609BF823309E4288BF3346059EBB
:10080000360603D00A44B2FBF3F206E0013B0132A4
:100810004B434A43013392FBF3F20B9B80B241F608
:100820004C56D2B29BB200EB8000734340F2DC56D0
:1008300006EB4000B3FBF0F0C0B2824238BF104676
:10084000884298BF08460999DDF808E08872207D43
:100850000EF1010EF8E61126DFF8BC9DDDF80CA0C4
:10086000DDF818B04FF00008C3453FF4CEAD0D9849
:10087000D9F8402090F82F10013980F82F101AF87D
:100880001810043052F821703946F5F7AFFC38469D
:1008900034F040FB08F10108E6E70926DCE7089B95
:1008A0000B9900261984079983F82410D4E90112C2
:1008B000C3E90312617B0D9A82F83210A6E500BFEE
:1008C000D40240202DE9F04F89B00446DFF8400DF6
:1008D0000D4690F8AC0040060CD5DFF874040DF11D
:1008E000230240212346009506682B20B0479DF83F
:1008F0002310E1B34FF4885000212A462423002618
:1009000008F046FFE189054612270796B1F5486FC2
:100910001BD82078EF2818D86268A14EA2F1FF03F7
:10092000B34211D8A368A3F1FF07B7420CD8667B86
:1009300056B1267B46B1267C072E05D8667C012E53
:1009400002D8A67C012E15D912270020A870207885
:100950002F706870284604F0FDFD3FB1079828B15C
:1009600090F82F1011B9407835F0F6FD002009B04D
:10097000BDE8F08F40F2E24701FB07FA5EB10021CB
:10098000FF2234F063FA079090B1814690F833006B
:10099000002843D124E0BAFBF2F101FB12A129B9EE
:1009A000BAFBF3F101FB13A10029E8D01127CCE732
:1009B00007AA002034214FF0000835F0F3FD074668
:1009C0000028C2D1DDF81C90FF2089F83180C9E9E8
:1009D0000188A9F82E00C9F82880207889F830000D
:1009E0003FF0A8FCDFF8308C0021D8F84020884286
:1009F0000FD052F821304BB199F8017093F829606B
:100A0000BE4203D193F82D30012B01D80131EEE71E
:100A10000846C6B23FF08EFCB04201D90C2794E7DD
:100A2000DFF830C3281D04F1140900274FF6FD7EBE
:100A30004FF0000B01220121CDF808A0039016E130
:100A400031B900230020A9F80230A9F8063005903A
:100A500036B900220020A9F80420A9F80820049043
:100A6000A07CD0B10598676848437843029FA0EB0B
:100A70004100B0FBF7F0704480B29842C0F04A8168
:100A80000498A16870434843A0EB4600B0FBF7F020
:100A9000704480B2904230D23CE16068DDF808E0FA
:100AA000BEFBF0FAB1FBFAF707FB1A17002F40F074
:100AB0002381D4F808C0BEFBFCFAB6FBFAF808FBA9
:100AC0001A67002F40F0188148430599DDF80CA003
:100AD000B0FBFEF0484380B2834200F219810CFB68
:100AE00006F00499DFF8308BDFF868C2B0FBFEF047
:100AF000484380B2824200F20D8199F80A108807BB
:100B00001CBF99F80B205FEA827000F0F78001F0BB
:100B10000F000B091CF800001CF8033018440128D2
:100B200040F0F88002F00F0013091CF800001CF8D8
:100B300003301844012840F0DF80874B01200090EB
:100B4000585C86490F5C985C11F800A005980499E0
:100B5000CAB2C0B23946534634F036F999F801208A
:100B6000804680B200F19601013A02FB0100E18962
:100B700040F2E2425143884200F2BE8099F80020E0
:100B80002178FF2034F090F906463FF0D3FB8642EF
:100B900008D2A548006C50F82660069614E000BF05
:100BA00000FF0F0006A834F0DBF9002840F0AA800F
:100BB000DDE9066031460430F5F785FB9A4896F882
:100BC0002C10006C40F82160306AF6F7A9F820B9C3
:100BD000B9F80200002800F09380706A0597F6F7D4
:100BE0009FF8B9F8041011B9002800F0898007981F
:100BF000318199F8012099F8063099F808C000274A
:100C0000A6F81C80DFF8108A86F80EA04FF6FD7E4D
:100C100086F82B7086F82D704178B27296F82C20E9
:100C20007373039B86F810C0DFF828C186F829107B
:100C300099F8001002F58072717121783171B9F85C
:100C40000210F18099F80C1023F81B20627B0BF145
:100C5000010B31730599F17299F80D1009F10E0924
:100C6000F17390F82F10013180F82F10217BE07C78
:100C700083452ED299F80000DDF80CA0EF2849D862
:100C8000B9F80610FB290846059143D8B9F80810B1
:100C9000FB29084604913DD8B9F80230B7EB133F61
:100CA00038D1B9F80420B7EB123F33D199F80100DD
:100CB000411E1E292ED899F80D600F2E2AD899F8BA
:100CC0000C101227814226D8864298BF0F2922D8BD
:100CD000B6E6079B002783F82210E18983F82320DA
:100CE0001984D4E90112C3E90312A17C83F824100A
:100CF000617C83F8321029E6122704E011270AE00C
:100D00000C2700E00927DFF8F08EDDF80CA002E0E8
:100D1000DFF8E48E12274FF00009CB453FF415AE03
:100D20000798D8F8402090F82F10013980F82F103C
:100D30001AF81910043052F821603146F5F756FAC6
:100D4000304634F0E7F809F10109E6E7A808402049
:100D50009C014020BCC10500F9C005002CC2050063
:100D60002DE9F8430546304814468946406850F856
:100D7000256028461DF088FC08B10C271BE0B6F85A
:100D80009600800614D4284605211DF089FD88B1FF
:100D9000B9F80200A0F11B01E02907D8B9F8041046
:100DA00044F24813A1F5A4729A420CD9122702E02A
:100DB0003A2700E01A27284621463A461CF080FFD1
:100DC0000020BDE8F883B28A904204D1308B814282
:100DD00001D10027EFE728020C23011D40F20B1080
:100DE0000A4608F0D5FC80460720002788F8040052
:100DF0000E48A8F80570C8F80000B9F80200B082E3
:100E0000B9F80400308328461DF010F9012088F855
:100E10000800404608F030FDB6F8960040F020008B
:100E2000A6F89600C7E700BFD4024020A1E0020068
:100E3000F8B50A46C34991F80E31012B01D10C21B6
:100E400015E0022381F80E310378022B0ED8448876
:100E5000A5087C2D0AD8858843F6F677A5F10A0601
:100E6000BE4203D8807910F0E80F05D01221104659
:100E700036F0ECFC0020F8BD81F8560081F85030C7
:100E8000A1F85450A1F852400021F0E710B50A46ED
:100E9000017811F0020301D184788CB111F00101C5
:100EA00001D1447864B113B98478032C03D821B9F3
:100EB0004478032C01D911210FE01BB9847802E09A
:100EC00012210AE003249F4B83F84F4009B9407870
:100ED00000E00320002183F84E00104636F0B6FCF7
:100EE000002010BD80B502684068064BC3E90420AD
:100EF000944BC3E904200846002136F0A7FC0020EB
:100F000080BD00BFC80C40202DE9F84FDFF8B8AF16
:100F100006460C469AF80E01012801D10C2765E01F
:100F2000022069468AF80E01307835F07BFEFF28F2
:100F30001CD07578042D58D88146B078012854D833
:100F400096F80380B8F1FB0F4FD8042D10D1DAF8D2
:100F5000180000EB891090F83C10012945D01227A9
:100F6000B8F1000F42D1808B28B93FE042273DE025
:100F7000E81E022801D2012003E0B8F1000F34D0AE
:100F80000020DAF8181001EB891797F83C100129B6
:100F900016D1788C00EB0801B1F5FE7F2DD9388C85
:100FA00000285FD0F4F754F9DAF81800002100EBBC
:100FB00089100184DAF8180000EB8910418451E0AF
:100FC0000028ABD00098B0F802B00BF01100012857
:100FD00004D15846414635F041FD30B9B8F1200FF3
:100FE000D7D30BF01C001028D3D112272046394646
:100FF00036F02CFC0020BDE8F88F00984288D2061D
:1010000011D4037A457AC27989B21B0243EA0543B7
:101010001A4440F2712302FB03F5FA8C35F02EFDE1
:10102000A84221D2757845F00200032831D1DAF8C0
:10103000180000EB8910008C38B1F4F709F9DAF8E0
:101040001800002100EB89104184F4F7EFF8DAF87A
:10105000181001EB89110884DAF8180000EB8911E7
:10106000098CD9B90727C1E7DAF8180000EB891015
:10107000008C60B1F4F7ECF8DAF81800002100EB0E
:1010800089100184DAF8180000EB891041844527A3
:10109000ACE7DAF8180000EB8911098C00EB891035
:1010A000F278408C0844284980B20844311DEFF79B
:1010B00061FBDAF81800F27800EB8910418C1144DA
:1010C00041847078811E02290CD2DAF8180000EBF6
:1010D0008910418C81B9C28B91420DD1008CF4F7FB
:1010E000B7F823E0002704287FF480AF48460021AA
:1010F000002220F005FE79E790F83C20022A05D175
:10110000028CC9B2484620F0FBFD03E0808B08B199
:10111000F4F79EF8DAF8180000EB8910018C81834F
:10112000DAF8180000EB8910418CC183DAF8180056
:10113000002700EB89100784DAF8180000EB89100B
:10114000478453E778114020008040202DE9F04F7C
:1011500091B0DFF8345E8146049195F80E010128C4
:1011600001D10C260BE0022685F80E6199F80000EB
:1011700010B995F80D1139B9012809D9122604982A
:10118000314636F063FB0026304611B0BDE8F08FE3
:1011900099F8016001D11EB9F0E7002E00F09580AA
:1011A000002009F102084FF0000B0390B34580F0D6
:1011B000A68098F80000EF28E0D8002135F032FD35
:1011C000FF2800F0BB8099F800100746A86929B9EC
:1011D00000EB871292F83C20012A6FD0CA4600EB40
:1011E0008719B9F82020002AC8D1B9F82820002A88
:1011F000C4D101295FD1B90146587488A00705D52B
:10120000E10603D4B9F826100029AAD004F0110190
:10121000012906D1B9F81E10204635F01FFC88B10F
:10122000ACE7E1060ED514F00C0F04D1B9F81E108E
:101230001F293FF696AF002804D5B9F826001F28CD
:101240003FF68FAFF07AC00708D0DFF8B01909F188
:101250002C00F4F7FDFE00287FF490AFE00711D0DA
:1012600014F00C0F07D0317B06F10D0036F082FB35
:10127000002840F0C38199F83C000228039818BF69
:1012800001300390E00616D4F079B9F82620B9F8B9
:101290001E10347A96F809900290304635F0EEFB35
:1012A0002102029A41EA0941114440F2712251435C
:1012B000884280F0A181D14688F8007099F80160D9
:1012C00008F106080BF1010B70E700243C26032708
:1012D0003FF030F8844280F07C81A869805D02286C
:1012E0000AD1E0B223F040FB30B9A869875595F8E0
:1012F0000D01013085F80D0140360134E8E7039C0B
:1013000020061DD099F80000D0B13FF013F8411C21
:10131000A869E2B200F13C030020013909D003F1D1
:1013200040041B78002B08BF0130C3B29342234610
:10133000F3D3C0B2904203D2072620E742261EE72D
:1013400006A809F104044FF0000A4FF0000B063024
:101350000390B34580F03D8114F8027CA86900EB4E
:10136000871191F83C2099F80010022A30D1002909
:1013700046D0A748A678B4F80080807A40070FD5F9
:10138000A4484FF4802106AA3B46CDE90086D0F858
:1013900000C00220E0479DF81800002800F01081EE
:1013A000EEF7F0FE9C49C96851F8271000293FD09C
:1013B000B1F87C20A1F8806081F88EA0120731D4AA
:1013C000B8F1000F00F002814A6802EB48122CE0ED
:1013D000002900F0F580B90150F80180FF208DF858
:1013E0001700B8F80200C00732D00DF1170035F031
:1013F000BFFA00B3834840F69D0145F06BFA27E041
:10140000384623F0B1FA002840F0DA80A8690321B9
:1014100000EB871080F83C1095F80D01013085F83D
:101420000D01CDE04A6802F5805222F070420A6652
:10143000EEF7ACFEC4E0A8699DF8171000EB87102A
:1014400080F83A10A86900EB8110042180F83C1064
:10145000B8F80200ADF8300098F8082098F8093084
:10146000B8F80A1098F807001202ADF8351042EAF1
:10147000034298F80C10039B10448DF83710099024
:10148000404650F80D2F1A6082889A80B8F80230D2
:101490005A0754BF98F8132000228DF83820DB0635
:1014A000AA6902EB871292F838608DF8396098F8D3
:1014B00015608DF83A6006D498F8173098F81660E1
:1014C0008DF83B6002E08DF83BA001238DF83C30A5
:1014D0004D4EB8F81830ADF83D30D36A0693138EF0
:1014E000ADF81C30938BADF82830D38BADF82C3091
:1014F000938CADF82A30F3883689D28CF31A3826CB
:10150000ADF82E2093FBF6F69DF817302288ADF843
:101510003220A2788DF840608DF841308DF834206B
:1015200095F87A208DF83F201AB1B8F802205207BA
:1015300003D498F80B20920718D536F043FB864267
:101540008DF8400012DD98F80B1089070ED5296838
:10155000272200FB02102D491022C61D3046EEF74F
:1015600006FF18B130463946F3F7D0FB384606A9D6
:1015700022F016FEC8BBA86900214FF0000A00EB5C
:101580008710C0F83210C186022180F83C10B8F8EC
:10159000020010F0130F13D1AE6906EB871090F81C
:1015A00039803EF0C7FE80450AD206EB881090F8DD
:1015B0003C000B2804D13846414635F05BFBF8B9B6
:1015C00099F8016006340BF1010BC2E64FF0FF32CF
:1015D0002DE799F80000002600287FF4D0AD95F89B
:1015E0000D0100287FF4D0ADC9E50646CD484FF483
:1015F000116145F072F9C2E54526C0E50B26BEE54E
:101600000646BCE50FF20500F8004020E4C00500E6
:10161000A8084020A8014020D40240202DE9F04F26
:1016200085B00A4606464FF4885000210223002761
:10163000022508F0ADF8DFF8088F0446477098F8E7
:101640000E01012813D03078002188F80E5135F0B2
:10165000E9FAFF288DF813000CD00546D8F81800D9
:1016600000EB851090F83C00012815D000274FF0C2
:101670000C0B23E00DF1130035F07AF918B10027B7
:101680004FF0070B1AE09DF81350D8F81800FF210F
:1016900000EB851080F83910707D032804D096F88F
:1016A00017A0BAF1030F03D100274FF0110B05E08B
:1016B0003178EF290BD900274FF0120B204684F820
:1016C00000B003F047FF384605B0BDE8F08FD8F80A
:1016D000183003EB851C9CF83920FF2A05D003EB5A
:1016E000821191F83C100A29E5D1B6F802900392D4
:1016F00019F0100E0BD000274FF0120BB9F11D0F8F
:10170000DCD80121854A01FA09F11142D6D05FEAFD
:10171000C9610DD409F0030100274FF0120B032912
:10172000CCD019F00802C9D111B119F02001C2D1F1
:10173000012818BFBEF1000FBDD15FEA097118D4AE
:10174000327A717ACDF808E0B779E34696F804C0AA
:10175000120242EA014E7179F2790902724441EAB9
:10176000074161449142A6D8DDF808E01746DC46FF
:1017700001E020212027B27A013A062A9BD8F27C88
:10178000032A98D8019700274FF0120B012895D112
:10179000202993D301982028FFF490AFAAF10100EB
:1017A000032803D3BEF1000F3FF485AF5FEA497011
:1017B0000FD55B4906F10D009B466746CDF808E062
:1017C000F4F746FCDDF808E0BC465B4600287FF4F1
:1017D00072AF307E0F283FF66EAF707ECDF808C036
:1017E00001283FF668AFF3461F463EF0A3FD03997C
:1017F000814206D2039807EB801090F83C000A283B
:101800003BD1BBF1000F13D1DDF808B0BBF82620A7
:10181000BBF81E1051EA02000AD0304635F02EF90E
:10182000019A40F271215143884272D2D8F818705F
:101830004FEA851957F8090040B10C3807F0D0FF7E
:10184000D8F8181000200F4641F8090007EB851062
:10185000FF2147F8096080F83A10F07A032817D87A
:10186000DFE800F0021B021BD8E90601B8F82020CF
:1018700000EB85100286C1620FE019F0330F7FF490
:101880001AAFA8013858C07D82457FF4EFAEB8E7A3
:1018900024484FF4A76145F020F8D8F81800367DA9
:1018A000012100EB85107F2E80F83C100BD11E4FDC
:1018B000012197F83B2097F839007B69984797F802
:1018C0003B7006460BE031F007FD0A2190FBF1F07A
:1018D0001549361ACA69002170B290470746124866
:1018E00000213A464FF0000B836970B298473946A1
:1018F00031F008FDD8F81810012701EB851181F8A7
:101900003800D8F8180000EB851090F838006070A7
:10191000D4E600274FF0450BD0E600BF00002D2095
:10192000DEC005000FF205006C1540202DE9F04FD8
:1019300085B0DFF81C9E05468B4699F80E010128FC
:1019400001D10C2655E00220D9F81840002189F871
:101950000E0100200F4606463EF0ECFC874208D2FE
:10196000A019791C90F83C00821F06F14000022A61
:10197000F0D828788DF8127001281BD0C0BBFDB2BA
:101980003EF0D8FCA842DCD9A01990F83C0007280A
:101990000ED12FF015FFD9F818100028314464D06B
:1019A000062081F83C0096480321026802209047F7
:1019B00000261EE0697802291AD8A888022903D1D6
:1019C000B0B1698811B913E018B16988B1EBC01FD3
:1019D0000ED25FFA87F83EF0ADFC404511D9A01950
:1019E00090F83C00072844D00828AAD0122614E01A
:1019F00012265846314635F029FF002005B0BDE8D3
:101A0000F08F0DF1120034F0B3FF06460028F0D13C
:101A1000D9F818409DF812700026B80139462058B0
:101A2000D8B900200021002210234FF0000807F051
:101A3000AFFEF9B2D9F8184080F804808A01A050AE
:101A40004FF01012A0F80080C0F80620012282702A
:101A500004EB8110062280F83C2088012058007891
:101A600003283AD001283BD042E0082081F83C000E
:101A7000C3E7A05909F12201B5F802800778B80739
:101A800001EAE0745A4890F8390080060FD55948A9
:101A90000DF113024FF4005143460094D0F800C0FA
:101AA0000E20E0479DF81300002800F08480029487
:101AB000EEF768FB504C0390D4F82CA0BAF1000F5D
:101AC00076D007F00207B8F1000F3BD02DF06EFE84
:101AD00000EB481020F0704036E036F057F838B18F
:101AE000464909F12200F4F7B3FA00287FF481AFE8
:101AF0006878FFB2811E002818BF0120B9F80A21BA
:101B0000B1FA81F122F003024909104440EA410090
:101B10006988A9F80A01D9F8180000EB87108183B9
:101B2000D9F81800A98800EB8710C183384636F031
:101B3000D9F80646D9F81800072100EB871080F87D
:101B40003C1056E74FF0FF30CAF8080037B1029951
:101B50008888AAF812000868CAF80E004FF000083A
:101B6000B8F1020F24D0E06A50F82870EFB197F86E
:101B70003000D0B92DF01AFE82467868A0EB0A0139
:101B8000AAEB000021F0704120F07040B1F1006F2D
:101B900088BF41423D2908DB3846002147F002FA60
:101BA0003846C7F804A046F0A5FF08F10108D7E7BA
:101BB0000398EEF7EBFA6878811E002818BF012021
:101BC000B9F80A21B1FA81F122F00302490910445F
:101BD00040EA41006988A9F80A01D9F818003044A0
:101BE0008183D9F81800A9883044C183E0E600BF9A
:101BF000A80840209C014020D4024020DEC00500FF
