Component: ARM Compiler 6.14.1 Tool: armlink [5db06d00]

==============================================================================

Section Cross References

    clock.o(.text.rt_system_get_time) refers to clock.o(.bss.rt_tick) for [Anonymous Symbol]
    clock.o(.ARM.exidx.text.rt_system_get_time) refers to clock.o(.text.rt_system_get_time) for [Anonymous Symbol]
    clock.o(.text.rt_tick_get) refers to clock.o(.bss.rt_tick) for [Anonymous Symbol]
    clock.o(.ARM.exidx.text.rt_tick_get) refers to clock.o(.text.rt_tick_get) for [Anonymous Symbol]
    clock.o(.ARM.exidx.text.rt_system_tick_init) refers to clock.o(.text.rt_system_tick_init) for [Anonymous Symbol]
    clock.o(.text.rt_tick_set) refers to context_rvds.o(.text) for rt_hw_interrupt_disable
    clock.o(.text.rt_tick_set) refers to clock.o(.bss.rt_tick) for [Anonymous Symbol]
    clock.o(.ARM.exidx.text.rt_tick_set) refers to clock.o(.text.rt_tick_set) for [Anonymous Symbol]
    clock.o(.text.rt_tick_increase) refers to thread.o(.text.rt_thread_self) for rt_thread_self
    clock.o(.text.rt_tick_increase) refers to thread.o(.text.rt_thread_yield) for rt_thread_yield
    clock.o(.text.rt_tick_increase) refers to timer.o(.text.rt_timer_check) for rt_timer_check
    clock.o(.text.rt_tick_increase) refers to clock.o(.bss.rt_tick) for [Anonymous Symbol]
    clock.o(.ARM.exidx.text.rt_tick_increase) refers to clock.o(.text.rt_tick_increase) for [Anonymous Symbol]
    clock.o(.text.rt_tick_increase_by_step) refers to thread.o(.text.rt_thread_self) for rt_thread_self
    clock.o(.text.rt_tick_increase_by_step) refers to thread.o(.text.rt_thread_yield) for rt_thread_yield
    clock.o(.text.rt_tick_increase_by_step) refers to timer.o(.text.rt_timer_check) for rt_timer_check
    clock.o(.text.rt_tick_increase_by_step) refers to clock.o(.bss.rt_tick) for [Anonymous Symbol]
    clock.o(.ARM.exidx.text.rt_tick_increase_by_step) refers to clock.o(.text.rt_tick_increase_by_step) for [Anonymous Symbol]
==============================================================================

Removing Unused input sections from the image.

    Removing clock.o(.text), (0 bytes).
    Removing clock.o(.text.rt_system_get_time), (12 bytes).
    Removing clock.o(.ARM.exidx.text.rt_system_get_time), (8 bytes).
    Removing clock.o(.ARM.exidx.text.rt_tick_get), (8 bytes).
    Removing clock.o(.ARM.exidx.text.rt_system_tick_init), (8 bytes).
    Removing clock.o(.ARM.exidx.text.rt_tick_set), (8 bytes).
    Removing clock.o(.ARM.exidx.text.rt_tick_increase), (8 bytes).
    Removing clock.o(.ARM.exidx.text.rt_tick_increase_by_step), (8 bytes).
    Removing clock.o(.ARM.exidx.text.rt_tick_from_millisecond), (8 bytes).
    Removing clock.o(.ARM.exidx.text.rt_tick_get_millisecond), (8 bytes).
    Removing components.o(.text), (0 bytes).
    Removing components.o(.ARM.exidx.text.rti_start), (8 bytes).
    Removing components.o(.ARM.exidx.text.rti_board_start), (8 bytes).
    Removing components.o(.ARM.exidx.text.rti_board_end), (8 bytes).
    Removing components.o(.ARM.exidx.text.rti_end), (8 bytes).
    Removing components.o(.ARM.exidx.text.rt_components_board_init), (8 bytes).
    Removing components.o(.ARM.exidx.text.rt_components_init), (8 bytes).
    Removing components.o(.ARM.exidx.text.$Sub$$main), (8 bytes).
==============================================================================

Image Symbol Table

    Local Symbols

    Symbol Name                              Value     Ov Type        Size  Object(Section)

    ../clib/../cmprslib/zerorunl2.c          0x00000000   Number         0  __dczerorl2.o ABSOLUTE
    ../clib/microlib/division.c              0x00000000   Number         0  uldiv.o ABSOLUTE
    ../clib/microlib/errno.c                 0x00000000   Number         0  errno.o ABSOLUTE
    ../clib/microlib/init/entry.s            0x00000000   Number         0  entry.o ABSOLUTE
    ../clib/microlib/init/entry.s            0x00000000   Number         0  entry2.o ABSOLUTE
    ../clib/microlib/init/entry.s            0x00000000   Number         0  entry5.o ABSOLUTE
    ../clib/microlib/init/entry.s            0x00000000   Number         0  entry7a.o ABSOLUTE
    ../clib/microlib/init/entry.s            0x00000000   Number         0  entry7b.o ABSOLUTE
    ../clib/microlib/init/entry.s            0x00000000   Number         0  entry8a.o ABSOLUTE
    ../clib/microlib/init/entry.s            0x00000000   Number         0  entry8b.o ABSOLUTE
    ../clib/microlib/init/entry.s            0x00000000   Number         0  entry9a.o ABSOLUTE
    ../clib/microlib/init/entry.s            0x00000000   Number         0  entry9b.o ABSOLUTE
    ../clib/microlib/init/entry.s            0x00000000   Number         0  entry10a.o ABSOLUTE
    ../clib/microlib/init/entry.s            0x00000000   Number         0  entry10b.o ABSOLUTE
    ../clib/microlib/init/entry.s            0x00000000   Number         0  entry11a.o ABSOLUTE
    ../clib/microlib/init/entry.s            0x00000000   Number         0  entry11b.o ABSOLUTE
    ../clib/microlib/longlong.c              0x00000000   Number         0  llshl.o ABSOLUTE
    ../clib/microlib/longlong.c              0x00000000   Number         0  llushr.o ABSOLUTE
    ../clib/microlib/longlong.c              0x00000000   Number         0  llsshr.o ABSOLUTE
    ../clib/microlib/stdlib/rand.c           0x00000000   Number         0  rand.o ABSOLUTE
    ../clib/microlib/string/memcmp.c         0x00000000   Number         0  memcmp.o ABSOLUTE
    ../clib/microlib/string/memcpy.c         0x00000000   Number         0  memcpya.o ABSOLUTE
    ../clib/microlib/string/memcpy.c         0x00000000   Number         0  memmovea.o ABSOLUTE
    ../clib/microlib/string/memcpy.c         0x00000000   Number         0  memcpyb.o ABSOLUTE
    ../clib/microlib/string/memcpy.c         0x00000000   Number         0  memmoveb.o ABSOLUTE
    ../clib/microlib/string/memset.c         0x00000000   Number         0  memseta.o ABSOLUTE
    ../clib/microlib/string/strcmp.c         0x00000000   Number         0  strcmp.o ABSOLUTE
    ../clib/microlib/string/strlen.c         0x00000000   Number         0  strlen.o ABSOLUTE
    ../clib/microlib/string/strncmp.c        0x00000000   Number         0  strncmp.o ABSOLUTE
    ../clib/microlib/string/strncpy.c        0x00000000   Number         0  strncpy.o ABSOLUTE
    ../clib/microlib/stubs.s                 0x00000000   Number         0  useno.o ABSOLUTE
    ../clib/microlib/stubs.s                 0x00000000   Number         0  iusefp.o ABSOLUTE
    ../fplib/microlib/f2d.c                  0x00000000   Number         0  f2d.o ABSOLUTE
    ../fplib/microlib/fpadd.c                0x00000000   Number         0  fadd.o ABSOLUTE
    ../fplib/microlib/fpadd.c                0x00000000   Number         0  dadd.o ABSOLUTE
    ../fplib/microlib/fpcmp.c                0x00000000   Number         0  fcmplt.o ABSOLUTE
    ../fplib/microlib/fpcmp.c                0x00000000   Number         0  fcmpge.o ABSOLUTE
    ../fplib/microlib/fpcmp.c                0x00000000   Number         0  fcmpgt.o ABSOLUTE
    ../fplib/microlib/fpcmp.c                0x00000000   Number         0  dcmple.o ABSOLUTE
    ../fplib/microlib/fpcmp.c                0x00000000   Number         0  dcmplt.o ABSOLUTE
    ../fplib/microlib/fpcmp.c                0x00000000   Number         0  dcmpge.o ABSOLUTE
    ../fplib/microlib/fpcmp.c                0x00000000   Number         0  dcmpeq.o ABSOLUTE
    ../fplib/microlib/fpdiv.c                0x00000000   Number         0  fdiv.o ABSOLUTE
    ../fplib/microlib/fpdiv.c                0x00000000   Number         0  ddiv.o ABSOLUTE
    ../fplib/microlib/fpepilogue.c           0x00000000   Number         0  fepilogue.o ABSOLUTE
    ../fplib/microlib/fpepilogue.c           0x00000000   Number         0  depilogue.o ABSOLUTE
    ../fplib/microlib/fpfix.c                0x00000000   Number         0  ffixi.o ABSOLUTE
    ../fplib/microlib/fpfix.c                0x00000000   Number         0  ffixui.o ABSOLUTE
    ../fplib/microlib/fpfix.c                0x00000000   Number         0  dfixi.o ABSOLUTE
    ../fplib/microlib/fpflt.c                0x00000000   Number         0  fflti.o ABSOLUTE
    ../fplib/microlib/fpflt.c                0x00000000   Number         0  ffltui.o ABSOLUTE
    ../fplib/microlib/fpflt.c                0x00000000   Number         0  ffltul.o ABSOLUTE
    ../fplib/microlib/fpmul.c                0x00000000   Number         0  fmul.o ABSOLUTE
    ../fplib/microlib/fpmul.c                0x00000000   Number         0  dmul.o ABSOLUTE
    ../fplib/microlib/fpsqrt.c               0x00000000   Number         0  fsqrt.o ABSOLUTE
    ../mathlib/modf.c                        0x00000000   Number         0  modf.o ABSOLUTE
    ../mathlib/sqrtf.c                       0x00000000   Number         0  sqrtf.o ABSOLUTE
    ../mathlib/sqrtf.c                       0x00000000   Number         0  sqrtf_x.o ABSOLUTE
    ..\\..\\..\\..\\drivers\\cmsis\\sf32lb54x\\Templates\\arm\\startup_bf0_lcpu_rom.S 0x00000000   Number         0  startup_bf0_lcpu_rom.o ABSOLUTE
    ..\\..\\..\\..\\rtos\\rtthread\\libcpu\\arm\\Cortex-M33\\context_rvds.S 0x00000000   Number         0  context_rvds.o ABSOLUTE
    aes.c                                    0x00000000   Number         0  aes.o ABSOLUTE
    aes_c1.c                                 0x00000000   Number         0  aes_c1.o ABSOLUTE
    aes_ccm.c                                0x00000000   Number         0  aes_ccm.o ABSOLUTE
    aes_cmac.c                               0x00000000   Number         0  aes_cmac.o ABSOLUTE
    aes_f4.c                                 0x00000000   Number         0  aes_f4.o ABSOLUTE
    aes_f5.c                                 0x00000000   Number         0  aes_f5.o ABSOLUTE
    aes_f6.c                                 0x00000000   Number         0  aes_f6.o ABSOLUTE
    aes_g2.c                                 0x00000000   Number         0  aes_g2.o ABSOLUTE
    aes_h6.c                                 0x00000000   Number         0  aes_h6.o ABSOLUTE
    aes_h7.c                                 0x00000000   Number         0  aes_h7.o ABSOLUTE
    aes_h8.c                                 0x00000000   Number         0  aes_h8.o ABSOLUTE
    aes_h9.c                                 0x00000000   Number         0  aes_h9.o ABSOLUTE
    aes_k1.c                                 0x00000000   Number         0  aes_k1.o ABSOLUTE
    aes_k2.c                                 0x00000000   Number         0  aes_k2.o ABSOLUTE
    aes_k3.c                                 0x00000000   Number         0  aes_k3.o ABSOLUTE
    aes_k4.c                                 0x00000000   Number         0  aes_k4.o ABSOLUTE
    aes_rpa.c                                0x00000000   Number         0  aes_rpa.o ABSOLUTE
    aes_s1.c                                 0x00000000   Number         0  aes_s1.o ABSOLUTE
    arch_main.c                              0x00000000   Number         0  arch_main.o ABSOLUTE
    audio_3a.c                               0x00000000   Number         0  audio_3a.o ABSOLUTE
    audio_bt_music.c                         0x00000000   Number         0  audio_bt_music.o ABSOLUTE
    audio_mem.c                              0x00000000   Number         0  audio_mem.o ABSOLUTE
    audio_speaker_mic.c                      0x00000000   Number         0  audio_speaker_mic.o ABSOLUTE
    audioproc.c                              0x00000000   Number         0  audioproc.o ABSOLUTE
    backtrace.c                              0x00000000   Number         0  backtrace.o ABSOLUTE
    bf0_ap_hal_msp.c                         0x00000000   Number         0  bf0_ap_hal_msp.o ABSOLUTE
    bf0_common.c                             0x00000000   Number         0  bf0_common.o ABSOLUTE
    bf0_hal.c                                0x00000000   Number         0  bf0_hal.o ABSOLUTE
    bf0_hal_adc.c                            0x00000000   Number         0  bf0_hal_adc.o ABSOLUTE
    bf0_hal_aes.c                            0x00000000   Number         0  bf0_hal_aes.o ABSOLUTE
    bf0_hal_audcodec.c                       0x00000000   Number         0  bf0_hal_audcodec.o ABSOLUTE
    bf0_hal_audprc.c                         0x00000000   Number         0  bf0_hal_audprc.o ABSOLUTE
    bf0_hal_bleaon.c                         0x00000000   Number         0  bf0_hal_bleaon.o ABSOLUTE
    bf0_hal_busmon.c                         0x00000000   Number         0  bf0_hal_busmon.o ABSOLUTE
    bf0_hal_cortex.c                         0x00000000   Number         0  bf0_hal_cortex.o ABSOLUTE
    bf0_hal_crc.c                            0x00000000   Number         0  bf0_hal_crc.o ABSOLUTE
    bf0_hal_dma.c                            0x00000000   Number         0  bf0_hal_dma.o ABSOLUTE
    bf0_hal_dsi.c                            0x00000000   Number         0  bf0_hal_dsi.o ABSOLUTE
    bf0_hal_efuse.c                          0x00000000   Number         0  bf0_hal_efuse.o ABSOLUTE
    bf0_hal_epic.c                           0x00000000   Number         0  bf0_hal_epic.o ABSOLUTE
    bf0_hal_ext_dma.c                        0x00000000   Number         0  bf0_hal_ext_dma.o ABSOLUTE
    bf0_hal_ezip.c                           0x00000000   Number         0  bf0_hal_ezip.o ABSOLUTE
    bf0_hal_facc.c                           0x00000000   Number         0  bf0_hal_facc.o ABSOLUTE
    bf0_hal_fft.c                            0x00000000   Number         0  bf0_hal_fft.o ABSOLUTE
    bf0_hal_gpio.c                           0x00000000   Number         0  bf0_hal_gpio.o ABSOLUTE
    bf0_hal_hcd.c                            0x00000000   Number         0  bf0_hal_hcd.o ABSOLUTE
    bf0_hal_hlp.c                            0x00000000   Number         0  bf0_hal_hlp.o ABSOLUTE
    bf0_hal_hpaon.c                          0x00000000   Number         0  bf0_hal_hpaon.o ABSOLUTE
    bf0_hal_i2c.c                            0x00000000   Number         0  bf0_hal_i2c.o ABSOLUTE
    bf0_hal_i2s.c                            0x00000000   Number         0  bf0_hal_i2s.o ABSOLUTE
    bf0_hal_lcdc.c                           0x00000000   Number         0  bf0_hal_lcdc.o ABSOLUTE
    bf0_hal_lcpu_config.c                    0x00000000   Number         0  bf0_hal_lcpu_config.o ABSOLUTE
    bf0_hal_lpaon.c                          0x00000000   Number         0  bf0_hal_lpaon.o ABSOLUTE
    bf0_hal_lpcomp.c                         0x00000000   Number         0  bf0_hal_lpcomp.o ABSOLUTE
    bf0_hal_lptim.c                          0x00000000   Number         0  bf0_hal_lptim.o ABSOLUTE
    bf0_hal_lrc_cal.c                        0x00000000   Number         0  bf0_hal_lrc_cal.o ABSOLUTE
    bf0_hal_mailbox.c                        0x00000000   Number         0  bf0_hal_mailbox.o ABSOLUTE
    bf0_hal_mpi.c                            0x00000000   Number         0  bf0_hal_mpi.o ABSOLUTE
    bf0_hal_mpi_ex.c                         0x00000000   Number         0  bf0_hal_mpi_ex.o ABSOLUTE
    bf0_hal_mpi_psram.c                      0x00000000   Number         0  bf0_hal_mpi_psram.o ABSOLUTE
    bf0_hal_nn_acc.c                         0x00000000   Number         0  bf0_hal_nn_acc.o ABSOLUTE
    bf0_hal_patch.c                          0x00000000   Number         0  bf0_hal_patch.o ABSOLUTE
    bf0_hal_pcd.c                            0x00000000   Number         0  bf0_hal_pcd.o ABSOLUTE
    bf0_hal_pdm.c                            0x00000000   Number         0  bf0_hal_pdm.o ABSOLUTE
    bf0_hal_pinmux.c                         0x00000000   Number         0  bf0_hal_pinmux.o ABSOLUTE
    bf0_hal_pmu.c                            0x00000000   Number         0  bf0_hal_pmu.o ABSOLUTE
    bf0_hal_psram.c                          0x00000000   Number         0  bf0_hal_psram.o ABSOLUTE
    bf0_hal_ptc.c                            0x00000000   Number         0  bf0_hal_ptc.o ABSOLUTE
    bf0_hal_rcc.c                            0x00000000   Number         0  bf0_hal_rcc.o ABSOLUTE
    bf0_hal_rng.c                            0x00000000   Number         0  bf0_hal_rng.o ABSOLUTE
    bf0_hal_rtc.c                            0x00000000   Number         0  bf0_hal_rtc.o ABSOLUTE
    bf0_hal_sd_ex.c                          0x00000000   Number         0  bf0_hal_sd_ex.o ABSOLUTE
    bf0_hal_sdadc.c                          0x00000000   Number         0  bf0_hal_sdadc.o ABSOLUTE
    bf0_hal_sdhci.c                          0x00000000   Number         0  bf0_hal_sdhci.o ABSOLUTE
    bf0_hal_sdmmc.c                          0x00000000   Number         0  bf0_hal_sdmmc.o ABSOLUTE
    bf0_hal_secu.c                           0x00000000   Number         0  bf0_hal_secu.o ABSOLUTE
    bf0_hal_spi.c                            0x00000000   Number         0  bf0_hal_spi.o ABSOLUTE
    bf0_hal_tim.c                            0x00000000   Number         0  bf0_hal_tim.o ABSOLUTE
    bf0_hal_tim_ex.c                         0x00000000   Number         0  bf0_hal_tim_ex.o ABSOLUTE
    bf0_hal_tsen.c                           0x00000000   Number         0  bf0_hal_tsen.o ABSOLUTE
    bf0_hal_uart.c                           0x00000000   Number         0  bf0_hal_uart.o ABSOLUTE
    bf0_hal_wdt.c                            0x00000000   Number         0  bf0_hal_wdt.o ABSOLUTE
    bf0_pin_const.c                          0x00000000   Number         0  bf0_pin_const.o ABSOLUTE
    bf0_pm.c                                 0x00000000   Number         0  bf0_pm.o ABSOLUTE
    bf0_sys_cfg.c                            0x00000000   Number         0  bf0_sys_cfg.o ABSOLUTE
    ble_util.c                               0x00000000   Number         0  ble_util.o ABSOLUTE
    ble_util_buf.c                           0x00000000   Number         0  ble_util_buf.o ABSOLUTE
    bluetooth.c                              0x00000000   Number         0  bluetooth.o ABSOLUTE
    bluetooth_config.c                       0x00000000   Number         0  bluetooth_config.o ABSOLUTE
    bluetooth_misc.c                         0x00000000   Number         0  bluetooth_misc.o ABSOLUTE
    board.c                                  0x00000000   Number         0  board.o ABSOLUTE
    bsp_init.c                               0x00000000   Number         0  bsp_init.o ABSOLUTE
    bsp_lcd_tp.c                             0x00000000   Number         0  bsp_lcd_tp.o ABSOLUTE
    bsp_pinmux.c                             0x00000000   Number         0  bsp_pinmux.o ABSOLUTE
    bsp_power.c                              0x00000000   Number         0  bsp_power.o ABSOLUTE
    bt_audiopath.c                           0x00000000   Number         0  bt_audiopath.o ABSOLUTE
    bt_util_buf.c                            0x00000000   Number         0  bt_util_buf.o ABSOLUTE
    bt_util_key.c                            0x00000000   Number         0  bt_util_key.o ABSOLUTE
    btdm_patch.c                             0x00000000   Number         0  btdm_patch.o ABSOLUTE
    circular_buf.c                           0x00000000   Number         0  circular_buf.o ABSOLUTE
    clock.c                                  0x00000000   Number         0  clock.o ABSOLUTE
    co_buf.c                                 0x00000000   Number         0  co_buf.o ABSOLUTE
    co_djob.c                                0x00000000   Number         0  co_djob.o ABSOLUTE
    co_list.c                                0x00000000   Number         0  co_list.o ABSOLUTE
    co_time.c                                0x00000000   Number         0  co_time.o ABSOLUTE
    co_utils.c                               0x00000000   Number         0  co_utils.o ABSOLUTE
    common_task.c                            0x00000000   Number         0  common_task.o ABSOLUTE
    completion.c                             0x00000000   Number         0  completion.o ABSOLUTE
    components.c                             0x00000000   Number         0  components.o ABSOLUTE
    context_backup.c                         0x00000000   Number         0  context_backup.o ABSOLUTE
    cpu.c                                    0x00000000   Number         0  cpu.o ABSOLUTE
    cpuport.c                                0x00000000   Number         0  cpuport.o ABSOLUTE
    data_path.c                              0x00000000   Number         0  data_path.o ABSOLUTE
    dataqueue.c                              0x00000000   Number         0  dataqueue.o ABSOLUTE
    dbg.c                                    0x00000000   Number         0  dbg.o ABSOLUTE
    dbg_iqgen.c                              0x00000000   Number         0  dbg_iqgen.o ABSOLUTE
    dbg_mwsgen.c                             0x00000000   Number         0  dbg_mwsgen.o ABSOLUTE
    dbg_swdiag.c                             0x00000000   Number         0  dbg_swdiag.o ABSOLUTE
    dbg_task.c                               0x00000000   Number         0  dbg_task.o ABSOLUTE
    dbg_trc.c                                0x00000000   Number         0  dbg_trc.o ABSOLUTE
    dbg_trc_mem.c                            0x00000000   Number         0  dbg_trc_mem.o ABSOLUTE
    dbg_trc_tl.c                             0x00000000   Number         0  dbg_trc_tl.o ABSOLUTE
    dc.s                                     0x00000000   Number         0  dc.o ABSOLUTE
    device.c                                 0x00000000   Number         0  device.o ABSOLUTE
    div0.c                                   0x00000000   Number         0  div0.o ABSOLUTE
    drv_common.c                             0x00000000   Number         0  drv_common.o ABSOLUTE
    drv_dbg.c                                0x00000000   Number         0  drv_dbg.o ABSOLUTE
    drv_psram.c                              0x00000000   Number         0  drv_psram.o ABSOLUTE
    drv_wdt.c                                0x00000000   Number         0  drv_wdt.o ABSOLUTE
    dummy.c                                  0x00000000   Number         0  dummy.o ABSOLUTE
    ecc_p192.c                               0x00000000   Number         0  ecc_p192.o ABSOLUTE
    ecc_p256.c                               0x00000000   Number         0  ecc_p256.o ABSOLUTE
    flash_table.c                            0x00000000   Number         0  flash_table.o ABSOLUTE
    gmtime_r.c                               0x00000000   Number         0  gmtime_r.o ABSOLUTE
    h4tl.c                                   0x00000000   Number         0  h4tl.o ABSOLUTE
    handlers.s                               0x00000000   Number         0  handlers.o ABSOLUTE
    hci.c                                    0x00000000   Number         0  hci.o ABSOLUTE
    hci_fc.c                                 0x00000000   Number         0  hci_fc.o ABSOLUTE
    hci_msg.c                                0x00000000   Number         0  hci_msg.o ABSOLUTE
    hci_tl.c                                 0x00000000   Number         0  hci_tl.o ABSOLUTE
    hl_hci.c                                 0x00000000   Number         0  hl_hci.o ABSOLUTE
    hwmailbox.c                              0x00000000   Number         0  hwmailbox.o ABSOLUTE
    idle.c                                   0x00000000   Number         0  idle.o ABSOLUTE
    init.s                                   0x00000000   Number         0  init.o ABSOLUTE
    ipc.c                                    0x00000000   Number         0  ipc.o ABSOLUTE
    ipc_hw.c                                 0x00000000   Number         0  ipc_hw.o ABSOLUTE
    ipc_hw_port.c                            0x00000000   Number         0  ipc_hw_port.o ABSOLUTE
    ipc_queue.c                              0x00000000   Number         0  ipc_queue.o ABSOLUTE
    irq.c                                    0x00000000   Number         0  irq.o ABSOLUTE
    isogen.c                                 0x00000000   Number         0  isogen.o ABSOLUTE
    isogen_rx.c                              0x00000000   Number         0  isogen_rx.o ABSOLUTE
    isogen_tx.c                              0x00000000   Number         0  isogen_tx.o ABSOLUTE
    isoohci.c                                0x00000000   Number         0  isoohci.o ABSOLUTE
    isoohci_in.c                             0x00000000   Number         0  isoohci_in.o ABSOLUTE
    isoohci_out.c                            0x00000000   Number         0  isoohci_out.o ABSOLUTE
    ke.c                                     0x00000000   Number         0  ke.o ABSOLUTE
    ke_event.c                               0x00000000   Number         0  ke_event.o ABSOLUTE
    ke_lp.c                                  0x00000000   Number         0  ke_lp.o ABSOLUTE
    ke_mem.c                                 0x00000000   Number         0  ke_mem.o ABSOLUTE
    ke_msg.c                                 0x00000000   Number         0  ke_msg.o ABSOLUTE
    ke_queue.c                               0x00000000   Number         0  ke_queue.o ABSOLUTE
    ke_task.c                                0x00000000   Number         0  ke_task.o ABSOLUTE
    ke_timer.c                               0x00000000   Number         0  ke_timer.o ABSOLUTE
    kservice.c                               0x00000000   Number         0  kservice.o ABSOLUTE
    lb.c                                     0x00000000   Number         0  lb.o ABSOLUTE
    lb_task.c                                0x00000000   Number         0  lb_task.o ABSOLUTE
    lc.c                                     0x00000000   Number         0  lc.o ABSOLUTE
    lc_clk.c                                 0x00000000   Number         0  lc_clk.o ABSOLUTE
    lc_lmppdu.c                              0x00000000   Number         0  lc_lmppdu.o ABSOLUTE
    lc_sco.c                                 0x00000000   Number         0  lc_sco.o ABSOLUTE
    lc_sniff.c                               0x00000000   Number         0  lc_sniff.o ABSOLUTE
    lc_task.c                                0x00000000   Number         0  lc_task.o ABSOLUTE
    lc_util.c                                0x00000000   Number         0  lc_util.o ABSOLUTE
    ld.c                                     0x00000000   Number         0  ld.o ABSOLUTE
    ld_acl.c                                 0x00000000   Number         0  ld_acl.o ABSOLUTE
    ld_bcst.c                                0x00000000   Number         0  ld_bcst.o ABSOLUTE
    ld_csb_rx.c                              0x00000000   Number         0  ld_csb_rx.o ABSOLUTE
    ld_csb_tx.c                              0x00000000   Number         0  ld_csb_tx.o ABSOLUTE
    ld_inq.c                                 0x00000000   Number         0  ld_inq.o ABSOLUTE
    ld_iscan.c                               0x00000000   Number         0  ld_iscan.o ABSOLUTE
    ld_page.c                                0x00000000   Number         0  ld_page.o ABSOLUTE
    ld_pca.c                                 0x00000000   Number         0  ld_pca.o ABSOLUTE
    ld_pscan.c                               0x00000000   Number         0  ld_pscan.o ABSOLUTE
    ld_sscan.c                               0x00000000   Number         0  ld_sscan.o ABSOLUTE
    ld_strain.c                              0x00000000   Number         0  ld_strain.o ABSOLUTE
    ld_test.c                                0x00000000   Number         0  ld_test.o ABSOLUTE
    ld_util.c                                0x00000000   Number         0  ld_util.o ABSOLUTE
    libc.c                                   0x00000000   Number         0  libc.o ABSOLUTE
    llc.c                                    0x00000000   Number         0  llc.o ABSOLUTE
    llc_chmap_upd.c                          0x00000000   Number         0  llc_chmap_upd.o ABSOLUTE
    llc_cis.c                                0x00000000   Number         0  llc_cis.o ABSOLUTE
    llc_clk_acc.c                            0x00000000   Number         0  llc_clk_acc.o ABSOLUTE
    llc_con_upd.c                            0x00000000   Number         0  llc_con_upd.o ABSOLUTE
    llc_cte.c                                0x00000000   Number         0  llc_cte.o ABSOLUTE
    llc_dbg.c                                0x00000000   Number         0  llc_dbg.o ABSOLUTE
    llc_disconnect.c                         0x00000000   Number         0  llc_disconnect.o ABSOLUTE
    llc_dl_upd.c                             0x00000000   Number         0  llc_dl_upd.o ABSOLUTE
    llc_encrypt.c                            0x00000000   Number         0  llc_encrypt.o ABSOLUTE
    llc_feat_exch.c                          0x00000000   Number         0  llc_feat_exch.o ABSOLUTE
    llc_hci.c                                0x00000000   Number         0  llc_hci.o ABSOLUTE
    llc_le_ping.c                            0x00000000   Number         0  llc_le_ping.o ABSOLUTE
    llc_llcp.c                               0x00000000   Number         0  llc_llcp.o ABSOLUTE
    llc_past.c                               0x00000000   Number         0  llc_past.o ABSOLUTE
    llc_phy_upd.c                            0x00000000   Number         0  llc_phy_upd.o ABSOLUTE
    llc_pwr.c                                0x00000000   Number         0  llc_pwr.o ABSOLUTE
    llc_task.c                               0x00000000   Number         0  llc_task.o ABSOLUTE
    llc_ver_exch.c                           0x00000000   Number         0  llc_ver_exch.o ABSOLUTE
    lld.c                                    0x00000000   Number         0  lld.o ABSOLUTE
    lld_adv.c                                0x00000000   Number         0  lld_adv.o ABSOLUTE
    lld_bi.c                                 0x00000000   Number         0  lld_bi.o ABSOLUTE
    lld_ch_scan.c                            0x00000000   Number         0  lld_ch_scan.o ABSOLUTE
    lld_ci.c                                 0x00000000   Number         0  lld_ci.o ABSOLUTE
    lld_con.c                                0x00000000   Number         0  lld_con.o ABSOLUTE
    lld_init.c                               0x00000000   Number         0  lld_init.o ABSOLUTE
    lld_iso.c                                0x00000000   Number         0  lld_iso.o ABSOLUTE
    lld_isoal.c                              0x00000000   Number         0  lld_isoal.o ABSOLUTE
    lld_per_adv.c                            0x00000000   Number         0  lld_per_adv.o ABSOLUTE
    lld_scan.c                               0x00000000   Number         0  lld_scan.o ABSOLUTE
    lld_sync.c                               0x00000000   Number         0  lld_sync.o ABSOLUTE
    lld_test.c                               0x00000000   Number         0  lld_test.o ABSOLUTE
    lli.c                                    0x00000000   Number         0  lli.o ABSOLUTE
    lli_bi.c                                 0x00000000   Number         0  lli_bi.o ABSOLUTE
    lli_ci.c                                 0x00000000   Number         0  lli_ci.o ABSOLUTE
    lli_data_path.c                          0x00000000   Number         0  lli_data_path.o ABSOLUTE
    lli_task.c                               0x00000000   Number         0  lli_task.o ABSOLUTE
    lli_test.c                               0x00000000   Number         0  lli_test.o ABSOLUTE
    llm.c                                    0x00000000   Number         0  llm.o ABSOLUTE
    llm_adv.c                                0x00000000   Number         0  llm_adv.o ABSOLUTE
    llm_ch_scan.c                            0x00000000   Number         0  llm_ch_scan.o ABSOLUTE
    llm_hci.c                                0x00000000   Number         0  llm_hci.o ABSOLUTE
    llm_init.c                               0x00000000   Number         0  llm_init.o ABSOLUTE
    llm_scan.c                               0x00000000   Number         0  llm_scan.o ABSOLUTE
    llm_task.c                               0x00000000   Number         0  llm_task.o ABSOLUTE
    llm_test.c                               0x00000000   Number         0  llm_test.o ABSOLUTE
    llt_mem.c                                0x00000000   Number         0  llt_mem.o ABSOLUTE
    lm.c                                     0x00000000   Number         0  lm.o ABSOLUTE
    lm_sco.c                                 0x00000000   Number         0  lm_sco.o ABSOLUTE
    lm_task.c                                0x00000000   Number         0  lm_task.o ABSOLUTE
    lm_test.c                                0x00000000   Number         0  lm_test.o ABSOLUTE
    lowcfe.c                                 0x00000000   Number         0  lowcfe.o ABSOLUTE
    main.c                                   0x00000000   Number         0  main.o ABSOLUTE
    mem.c                                    0x00000000   Number         0  mem.o ABSOLUTE
    mem_std.c                                0x00000000   Number         0  mem_std.o ABSOLUTE
    mempool.c                                0x00000000   Number         0  mempool.o ABSOLUTE
    nand_table.c                             0x00000000   Number         0  nand_table.o ABSOLUTE
    object.c                                 0x00000000   Number         0  object.o ABSOLUTE
    os_adaptor_rtthread.c                    0x00000000   Number         0  os_adaptor_rtthread.o ABSOLUTE
    pipe.c                                   0x00000000   Number         0  pipe.o ABSOLUTE
    plf_data_path.c                          0x00000000   Number         0  plf_data_path.o ABSOLUTE
    pm.c                                     0x00000000   Number         0  pm.o ABSOLUTE
    rf_bf_dual_fpga.c                        0x00000000   Number         0  rf_bf_dual_fpga.o ABSOLUTE
    ringblk_buf.c                            0x00000000   Number         0  ringblk_buf.o ABSOLUTE
    ringbuffer.c                             0x00000000   Number         0  ringbuffer.o ABSOLUTE
    rom_config.c                             0x00000000   Number         0  rom_config.o ABSOLUTE
    rw_os.c                                  0x00000000   Number         0  rw_os.o ABSOLUTE
    rw_os_tl.c                               0x00000000   Number         0  rw_os_tl.o ABSOLUTE
    rwble.c                                  0x00000000   Number         0  rwble.o ABSOLUTE
    rwbt.c                                   0x00000000   Number         0  rwbt.o ABSOLUTE
    rwip.c                                   0x00000000   Number         0  rwip.o ABSOLUTE
    rwip_driver.c                            0x00000000   Number         0  rwip_driver.o ABSOLUTE
    sch_alarm.c                              0x00000000   Number         0  sch_alarm.o ABSOLUTE
    sch_arb.c                                0x00000000   Number         0  sch_arb.o ABSOLUTE
    sch_plan.c                               0x00000000   Number         0  sch_plan.o ABSOLUTE
    sch_prog.c                               0x00000000   Number         0  sch_prog.o ABSOLUTE
    sch_slice.c                              0x00000000   Number         0  sch_slice.o ABSOLUTE
    scheduler.c                              0x00000000   Number         0  scheduler.o ABSOLUTE
    sha.c                                    0x00000000   Number         0  sha.o ABSOLUTE
    sha_bloom_filter.c                       0x00000000   Number         0  sha_bloom_filter.o ABSOLUTE
    sha_bt.c                                 0x00000000   Number         0  sha_bt.o ABSOLUTE
    showmem.c                                0x00000000   Number         0  showmem.o ABSOLUTE
    sifli_bbm.c                              0x00000000   Number         0  sifli_bbm.o ABSOLUTE
    sifli_nvds.c                             0x00000000   Number         0  sifli_nvds.o ABSOLUTE
    signal.c                                 0x00000000   Number         0  signal.o ABSOLUTE
    stubs.c                                  0x00000000   Number         0  stubs.o ABSOLUTE
    system_bf0_ap.c                          0x00000000   Number         0  system_bf0_ap.o ABSOLUTE
    thread.c                                 0x00000000   Number         0  thread.o ABSOLUTE
    time.c                                   0x00000000   Number         0  time.o ABSOLUTE
    timer.c                                  0x00000000   Number         0  timer.o ABSOLUTE
    waitqueue.c                              0x00000000   Number         0  waitqueue.o ABSOLUTE
    watchdog.c                               0x00000000   Number         0  watchdog.o ABSOLUTE
    workqueue.c                              0x00000000   Number         0  workqueue.o ABSOLUTE
    RESET                                    0x00000000   Section     1984  startup_bf0_lcpu_rom.o(RESET)
    .ARM.Collect$$$$00000000                 0x000007c0   Section        0  entry.o(.ARM.Collect$$$$00000000)
    .ARM.Collect$$$$00000001                 0x000007c0   Section        4  entry2.o(.ARM.Collect$$$$00000001)
    .ARM.Collect$$$$00000004                 0x000007c4   Section        4  entry5.o(.ARM.Collect$$$$00000004)
    .ARM.Collect$$$$00000008                 0x000007c8   Section        0  entry7b.o(.ARM.Collect$$$$00000008)
    .ARM.Collect$$$$0000000A                 0x000007c8   Section        0  entry8b.o(.ARM.Collect$$$$0000000A)
    .ARM.Collect$$$$0000000B                 0x000007c8   Section        8  entry9a.o(.ARM.Collect$$$$0000000B)
    __lit__00000000                          0x000007d0   Data           4  entry2.o(.ARM.Collect$$$$00002712)
    .ARM.Collect$$$$0000000D                 0x000007d0   Section        0  entry10a.o(.ARM.Collect$$$$0000000D)
    .ARM.Collect$$$$0000000F                 0x000007d0   Section        0  entry11a.o(.ARM.Collect$$$$0000000F)
    .ARM.Collect$$$$00002712                 0x000007d0   Section        4  entry2.o(.ARM.Collect$$$$00002712)
    Reset_Handler                            0x000007d5   Thumb Code     4  startup_bf0_lcpu_rom.o(.text)
    .text                                    0x000007d4   Section        8  startup_bf0_lcpu_rom.o(.text)
    .text                                    0x000007dc   Section      416  context_rvds.o(.text)
    .text                                    0x0000097c   Section        0  uldiv.o(.text)
    .text                                    0x000009e0   Section        0  rand.o(.text)
    .text                                    0x00000a04   Section        0  memmovea.o(.text)
    .text                                    0x00000a44   Section        0  memseta.o(.text)
    .text                                    0x00000a68   Section        0  strncpy.o(.text)
    .text                                    0x00000a80   Section        0  strlen.o(.text)
    .text                                    0x00000a8e   Section        0  memcmp.o(.text)
    .text                                    0x00000aa8   Section        0  strncmp.o(.text)
    .text                                    0x00000ac6   Section        0  fadd.o(.text)
    .text                                    0x00000b76   Section        0  fmul.o(.text)
    .text                                    0x00000bda   Section        0  fdiv.o(.text)
    .text                                    0x00000c56   Section        0  dadd.o(.text)
    .text                                    0x00000da4   Section        0  dmul.o(.text)
    .text                                    0x00000e88   Section        0  ddiv.o(.text)
    .text                                    0x00000f66   Section        0  fcmplt.o(.text)
    .text                                    0x00000f82   Section        0  fcmpge.o(.text)
    .text                                    0x00000f9e   Section        0  fcmpgt.o(.text)
    .text                                    0x00000fba   Section        0  dcmple.o(.text)
    .text                                    0x00000ff0   Section        0  dcmplt.o(.text)
    .text                                    0x00001026   Section        0  dcmpge.o(.text)
    .text                                    0x0000105c   Section        0  dcmpeq.o(.text)
    .text                                    0x00001094   Section        0  fflti.o(.text)
    .text                                    0x000010a6   Section        0  ffltui.o(.text)
    .text                                    0x000010b0   Section        0  ffltul.o(.text)
    .text                                    0x000010cc   Section        0  ffixi.o(.text)
    .text                                    0x000010fe   Section        0  ffixui.o(.text)
    .text                                    0x00001126   Section        0  dfixi.o(.text)
    .text                                    0x00001164   Section        0  llshl.o(.text)
    .text                                    0x00001182   Section        0  llushr.o(.text)
    .text                                    0x000011a2   Section        0  llsshr.o(.text)
    .text                                    0x000011c6   Section        0  iusefp.o(.text)
    .text                                    0x000011c6   Section        0  fepilogue.o(.text)
    .text                                    0x00001234   Section        0  fsqrt.o(.text)
    .text                                    0x00001292   Section        0  depilogue.o(.text)
    .text                                    0x0000134c   Section       36  init.o(.text)
    .text                                    0x00001370   Section        0  __dczerorl2.o(.text)
    [Anonymous Symbol]                       0x000013c6   Section        0  components.o(.text.$Sub$$main)
    [Anonymous Symbol]                       0x000013d0   Section        0  bf0_pm.o(.text.AON_IRQHandler)
    [Anonymous Symbol]                       0x000013e4   Section        0  bf0_pm.o(.text.AON_LCPU_IRQHandler)
    __arm_cp.26_0                            0x00001468   Number         4  bf0_pm.o(.text.AON_LCPU_IRQHandler)
    __arm_cp.26_1                            0x0000146c   Number         4  bf0_pm.o(.text.AON_LCPU_IRQHandler)
    __arm_cp.26_2                            0x00001470   Number         4  bf0_pm.o(.text.AON_LCPU_IRQHandler)
    [Anonymous Symbol]                       0x00001490   Section        0  ecc_p256.o(.text.Add2SelfBigHex256)
    [Anonymous Symbol]                       0x000014c4   Section        0  ecc_p256.o(.text.AddBigHex256)
    [Anonymous Symbol]                       0x00001500   Section        0  ecc_p256.o(.text.AddBigHexModP256)
    [Anonymous Symbol]                       0x00001530   Section        0  ecc_p256.o(.text.AddP256)
    [Anonymous Symbol]                       0x00001558   Section        0  ecc_p256.o(.text.AddPdiv2_256)
    __arm_cp.8_0                             0x0000161c   Number         4  ecc_p256.o(.text.AddPdiv2_256)
    [Anonymous Symbol]                       0x00001620   Section        0  bf0_pm.o(.text.BSP_IO_Power_Down)
    [Anonymous Symbol]                       0x00001622   Section        0  bsp_power.o(.text.BSP_Power_Up)
    [Anonymous Symbol]                       0x00001624   Section        0  bf0_pm.o(.text.BSP_Power_Up)
    [Anonymous Symbol]                       0x00001626   Section        0  bt_util_key.o(.text.E1)
    [Anonymous Symbol]                       0x000016b0   Section        0  bt_util_key.o(.text.E21)
    [Anonymous Symbol]                       0x000016f8   Section        0  bt_util_key.o(.text.E22)
    [Anonymous Symbol]                       0x0000178c   Section        0  bt_util_key.o(.text.E3)
    [Anonymous Symbol]                       0x0000180c   Section        0  ecc_p256.o(.text.GF_Jacobian_Point_Addition256)
    GF_Jacobian_Point_Copy256                0x00001a3d   Thumb Code    70  ecc_p256.o(.text.GF_Jacobian_Point_Copy256)
    [Anonymous Symbol]                       0x00001a3c   Section        0  ecc_p256.o(.text.GF_Jacobian_Point_Copy256)
    [Anonymous Symbol]                       0x00001a84   Section        0  ecc_p256.o(.text.GF_Jacobian_Point_Double256)
    __arm_cp.21_0                            0x00001bf4   Number         4  ecc_p256.o(.text.GF_Jacobian_Point_Double256)
    __arm_cp.21_1                            0x00001bf8   Number         4  ecc_p256.o(.text.GF_Jacobian_Point_Double256)
    __arm_cp.21_2                            0x00001bfc   Number         4  ecc_p256.o(.text.GF_Jacobian_Point_Double256)
    __arm_cp.21_3                            0x00001c00   Number         4  ecc_p256.o(.text.GF_Jacobian_Point_Double256)
    [Anonymous Symbol]                       0x00001c04   Section        0  ecc_p256.o(.text.GF_Point_Jacobian_To_Affine256)
    [Anonymous Symbol]                       0x00001c32   Section        0  drv_common.o(.text.HAL_Delay)
    [Anonymous Symbol]                       0x00001c4c   Section        0  bf0_hal.o(.text.HAL_Delay_us)
    __arm_cp.11_0                            0x00001c8c   Number         4  bf0_hal.o(.text.HAL_Delay_us)
    [Anonymous Symbol]                       0x00001c90   Section        0  bf0_hal.o(.text.HAL_Delay_us2_)
    __arm_cp.10_0                            0x00001cc8   Number         4  bf0_hal.o(.text.HAL_Delay_us2_)
    [Anonymous Symbol]                       0x00001ccc   Section        0  bf0_hal.o(.text.HAL_Delay_us_)
    __arm_cp.9_0                             0x00001d14   Number         4  bf0_hal.o(.text.HAL_Delay_us_)
    __arm_cp.9_1                             0x00001d18   Number         4  bf0_hal.o(.text.HAL_Delay_us_)
    [Anonymous Symbol]                       0x00001d1c   Section        0  bf0_hal_gpio.o(.text.HAL_GPIO_ClearInterrupt)
    __arm_cp.12_1                            0x00001d44   Number         4  bf0_hal_gpio.o(.text.HAL_GPIO_ClearInterrupt)
    [Anonymous Symbol]                       0x00001d48   Section        0  bf0_hal_gpio.o(.text.HAL_GPIO_EXTI_Callback)
    [Anonymous Symbol]                       0x00001d4a   Section        0  bf0_hal.o(.text.HAL_GetLXTEnabled)
    [Anonymous Symbol]                       0x00001d70   Section        0  drv_common.o(.text.HAL_GetTick)
    __arm_cp.4_0                             0x00001dbc   Number         4  drv_common.o(.text.HAL_GetTick)
    __arm_cp.4_1                             0x00001dc0   Number         4  drv_common.o(.text.HAL_GetTick)
    __arm_cp.4_2                             0x00001dc4   Number         4  drv_common.o(.text.HAL_GetTick)
    __arm_cp.4_3                             0x00001dc8   Number         4  drv_common.o(.text.HAL_GetTick)
    [Anonymous Symbol]                       0x00001dcc   Section        0  bf0_hal_hlp.o(.text.HAL_Get_backup)
    __arm_cp.10_0                            0x00001dd4   Number         4  bf0_hal_hlp.o(.text.HAL_Get_backup)
    [Anonymous Symbol]                       0x00001dd8   Section        0  bf0_hal_hpaon.o(.text.HAL_HPAON_QueryWakeupGpioPin)
    __arm_cp.7_0                             0x00001dec   Number         4  bf0_hal_hpaon.o(.text.HAL_HPAON_QueryWakeupGpioPin)
    [Anonymous Symbol]                       0x00001df0   Section        0  bf0_hal.o(.text.HAL_Init)
    [Anonymous Symbol]                       0x00001e12   Section        0  drv_common.o(.text.HAL_InitTick)
    [Anonymous Symbol]                       0x00001e18   Section        0  bf0_hal_lcpu_config.o(.text.HAL_LCPU_CONFIG_get)
    __arm_cp.4_2                             0x00001ea0   Number         4  bf0_hal_lcpu_config.o(.text.HAL_LCPU_CONFIG_get)
    [Anonymous Symbol]                       0x00001ea4   Section        0  bf0_hal_lcpu_config.o(.text.HAL_LCPU_CONFIG_set)
    __arm_cp.3_0                             0x00001f28   Number         4  bf0_hal_lcpu_config.o(.text.HAL_LCPU_CONFIG_set)
    __arm_cp.3_1                             0x00001f2c   Number         4  bf0_hal_lcpu_config.o(.text.HAL_LCPU_CONFIG_set)
    [Anonymous Symbol]                       0x00001f30   Section        0  bf0_hal_lpaon.o(.text.HAL_LPAON_DisableWakeupSrc)
    __arm_cp.5_0                             0x00001f50   Number         4  bf0_hal_lpaon.o(.text.HAL_LPAON_DisableWakeupSrc)
    [Anonymous Symbol]                       0x00001f54   Section        0  bf0_hal_lpaon.o(.text.HAL_LPAON_EnableWakeupSrc)
    __arm_cp.4_0                             0x00001fac   Number         4  bf0_hal_lpaon.o(.text.HAL_LPAON_EnableWakeupSrc)
    [Anonymous Symbol]                       0x00001fb0   Section        0  bf0_hal_lpaon.o(.text.HAL_LPAON_EnableXT48)
    __arm_cp.13_0                            0x00001fc4   Number         4  bf0_hal_lpaon.o(.text.HAL_LPAON_EnableXT48)
    [Anonymous Symbol]                       0x00001fc8   Section        0  bf0_hal_lpaon.o(.text.HAL_LPAON_EnterDeepSleep)
    [Anonymous Symbol]                       0x00001fd4   Section        0  bf0_hal_lpaon.o(.text.HAL_LPAON_EnterLightSleep)
    [Anonymous Symbol]                       0x00001fe0   Section        0  bf0_hal_lpaon.o(.text.HAL_LPAON_EnterStandby)
    __arm_cp.3_0                             0x00001fec   Number         4  bf0_hal_lpaon.o(.text.HAL_LPAON_EnterStandby)
    [Anonymous Symbol]                       0x00001ff0   Section        0  bf0_hal_lpaon.o(.text.HAL_LPAON_QueryWakeupGpioPin)
    [Anonymous Symbol]                       0x00001ff4   Section        0  bf0_hal_lpaon.o(.text.HAL_LPAON_WakeCore)
    __arm_cp.0_0                             0x00002010   Number         4  bf0_hal_lpaon.o(.text.HAL_LPAON_WakeCore)
    [Anonymous Symbol]                       0x00002014   Section        0  bf0_hal_lrc_cal.o(.text.HAL_LPTIM_GetFreq)
    __arm_cp.0_0                             0x00002044   Number         4  bf0_hal_lrc_cal.o(.text.HAL_LPTIM_GetFreq)
    __arm_cp.0_1                             0x00002048   Number         4  bf0_hal_lrc_cal.o(.text.HAL_LPTIM_GetFreq)
    __arm_cp.0_2                             0x0000204c   Number         4  bf0_hal_lrc_cal.o(.text.HAL_LPTIM_GetFreq)
    [Anonymous Symbol]                       0x00002050   Section        0  bf0_ap_hal_msp.o(.text.HAL_MspInit)
    [Anonymous Symbol]                       0x00002054   Section        0  bf0_hal_cortex.o(.text.HAL_NVIC_DisableIRQ)
    __arm_cp.4_0                             0x00002080   Number         4  bf0_hal_cortex.o(.text.HAL_NVIC_DisableIRQ)
    [Anonymous Symbol]                       0x00002084   Section        0  bf0_hal_cortex.o(.text.HAL_NVIC_EnableIRQ)
    __arm_cp.3_0                             0x000020a8   Number         4  bf0_hal_cortex.o(.text.HAL_NVIC_EnableIRQ)
    [Anonymous Symbol]                       0x000020ac   Section        0  bf0_hal_cortex.o(.text.HAL_NVIC_SetPriority)
    [Anonymous Symbol]                       0x000020f0   Section        0  bf0_hal_cortex.o(.text.HAL_NVIC_SetPriorityGrouping)
    __arm_cp.0_0                             0x00002110   Number         4  bf0_hal_cortex.o(.text.HAL_NVIC_SetPriorityGrouping)
    __arm_cp.0_1                             0x00002114   Number         4  bf0_hal_cortex.o(.text.HAL_NVIC_SetPriorityGrouping)
    __tagsym$$used.2                         0x00002118   Number         0  bf0_hal_patch.o(.text.HAL_PATCH_Entry)
    [Anonymous Symbol]                       0x00002118   Section        0  bf0_hal_patch.o(.text.HAL_PATCH_Entry)
    __arm_cp.2_2                             0x00002128   Number         4  bf0_hal_patch.o(.text.HAL_PATCH_Entry)
    __tagsym$$used.1                         0x0000212c   Number         0  bf0_hal_patch.o(.text.HAL_PATCH_install)
    [Anonymous Symbol]                       0x0000212c   Section        0  bf0_hal_patch.o(.text.HAL_PATCH_install)
    __arm_cp.1_0                             0x00002148   Number         4  bf0_hal_patch.o(.text.HAL_PATCH_install)
    __arm_cp.1_1                             0x0000214c   Number         4  bf0_hal_patch.o(.text.HAL_PATCH_install)
    __tagsym$$used.0                         0x00002150   Number         0  bf0_hal_patch.o(.text.HAL_PATCH_install2)
    [Anonymous Symbol]                       0x00002150   Section        0  bf0_hal_patch.o(.text.HAL_PATCH_install2)
    __arm_cp.0_1                             0x000021c8   Number         4  bf0_hal_patch.o(.text.HAL_PATCH_install2)
    __tagsym$$used.3                         0x000021cc   Number         0  bf0_hal_patch.o(.text.HAL_PATCH_save)
    [Anonymous Symbol]                       0x000021cc   Section        0  bf0_hal_patch.o(.text.HAL_PATCH_save)
    __arm_cp.3_0                             0x00002204   Number         4  bf0_hal_patch.o(.text.HAL_PATCH_save)
    [Anonymous Symbol]                       0x00002208   Section        0  bf0_hal_pmu.o(.text.HAL_PMU_DisablePinWakeup)
    [Anonymous Symbol]                       0x00002224   Section        0  bf0_hal_pmu.o(.text.HAL_PMU_DisableRtcWakeup)
    [Anonymous Symbol]                       0x00002234   Section        0  bf0_hal_pmu.o(.text.HAL_PMU_EnablePinWakeup)
    [Anonymous Symbol]                       0x00002270   Section        0  bf0_hal_pmu.o(.text.HAL_PMU_EnableRtcWakeup)
    __arm_cp.2_0                             0x00002280   Number         4  bf0_hal_pmu.o(.text.HAL_PMU_EnableRtcWakeup)
    [Anonymous Symbol]                       0x00002284   Section        0  bf0_hal_pmu.o(.text.HAL_PMU_Init)
    [Anonymous Symbol]                       0x00002286   Section        0  bf0_hal.o(.text.HAL_PostMspInit)
    [Anonymous Symbol]                       0x00002288   Section        0  bsp_init.o(.text.HAL_PreInit)
    [Anonymous Symbol]                       0x000022b4   Section        0  bf0_hal_rcc.o(.text.HAL_RCC_GetHCLKFreq)
    __arm_cp.1_0                             0x000022e8   Number         4  bf0_hal_rcc.o(.text.HAL_RCC_GetHCLKFreq)
    [Anonymous Symbol]                       0x000022ec   Section        0  bf0_hal_rcc.o(.text.HAL_RCC_GetSysCLKFreq)
    __arm_cp.9_0                             0x00002304   Number         4  bf0_hal_rcc.o(.text.HAL_RCC_GetSysCLKFreq)
    __arm_cp.9_1                             0x00002308   Number         4  bf0_hal_rcc.o(.text.HAL_RCC_GetSysCLKFreq)
    [Anonymous Symbol]                       0x0000230c   Section        0  bf0_hal_rcc.o(.text.HAL_RCC_HCPU_GetDLL1Freq)
    [Anonymous Symbol]                       0x00002314   Section        0  bf0_hal_rcc.o(.text.HAL_RCC_HCPU_GetDLLFreq)
    __arm_cp.3_0                             0x0000233c   Number         4  bf0_hal_rcc.o(.text.HAL_RCC_HCPU_GetDLLFreq)
    __arm_cp.3_1                             0x00002340   Number         4  bf0_hal_rcc.o(.text.HAL_RCC_HCPU_GetDLLFreq)
    [Anonymous Symbol]                       0x00002344   Section        0  bf0_hal_rcc.o(.text.HAL_RCC_Init)
    [Anonymous Symbol]                       0x00002348   Section        0  bf0_hal_rcc.o(.text.HAL_RCC_LCPU_SetDiv)
    __arm_cp.7_1                             0x0000239c   Number         4  bf0_hal_rcc.o(.text.HAL_RCC_LCPU_SetDiv)
    [Anonymous Symbol]                       0x000023a0   Section        0  bf0_hal_rcc.o(.text.HAL_RCC_SetMacFreq)
    __arm_cp.15_0                            0x000023e4   Number         4  bf0_hal_rcc.o(.text.HAL_RCC_SetMacFreq)
    __arm_cp.15_1                            0x000023e8   Number         4  bf0_hal_rcc.o(.text.HAL_RCC_SetMacFreq)
    __arm_cp.15_2                            0x000023ec   Number         4  bf0_hal_rcc.o(.text.HAL_RCC_SetMacFreq)
    [Anonymous Symbol]                       0x000023f0   Section        0  bf0_hal_lrc_cal.o(.text.HAL_RC_CAL_get_reference_cycle_on_48M)
    [Anonymous Symbol]                       0x000023f8   Section        0  bf0_hal_lrc_cal.o(.text.HAL_RC_CAL_update_reference_cycle_on_48M)
    __arm_cp.2_0                             0x000024ec   Number         4  bf0_hal_lrc_cal.o(.text.HAL_RC_CAL_update_reference_cycle_on_48M)
    __arm_cp.2_1                             0x000024f0   Number         4  bf0_hal_lrc_cal.o(.text.HAL_RC_CAL_update_reference_cycle_on_48M)
    __arm_cp.2_2                             0x000024f4   Number         4  bf0_hal_lrc_cal.o(.text.HAL_RC_CAL_update_reference_cycle_on_48M)
    __arm_cp.2_3                             0x000024f8   Number         4  bf0_hal_lrc_cal.o(.text.HAL_RC_CAL_update_reference_cycle_on_48M)
    __arm_cp.2_4                             0x000024fc   Number         4  bf0_hal_lrc_cal.o(.text.HAL_RC_CAL_update_reference_cycle_on_48M)
    __arm_cp.2_5                             0x00002500   Number         4  bf0_hal_lrc_cal.o(.text.HAL_RC_CAL_update_reference_cycle_on_48M)
    __arm_cp.2_6                             0x00002504   Number         4  bf0_hal_lrc_cal.o(.text.HAL_RC_CAL_update_reference_cycle_on_48M)
    [Anonymous Symbol]                       0x00002508   Section        0  bf0_hal_cortex.o(.text.HAL_SYSTICK_CLKSourceConfig)
    [Anonymous Symbol]                       0x00002528   Section        0  bf0_hal_cortex.o(.text.HAL_SYSTICK_Config)
    __arm_cp.7_0                             0x00002548   Number         4  bf0_hal_cortex.o(.text.HAL_SYSTICK_Config)
    __arm_cp.7_1                             0x0000254c   Number         4  bf0_hal_cortex.o(.text.HAL_SYSTICK_Config)
    [Anonymous Symbol]                       0x00002550   Section        0  bf0_hal_hlp.o(.text.HAL_Set_backup)
    __arm_cp.9_0                             0x00002558   Number         4  bf0_hal_hlp.o(.text.HAL_Set_backup)
    [Anonymous Symbol]                       0x0000255c   Section        0  bf0_hal_wdt.o(.text.HAL_WDT_Init)
    __arm_cp.0_0                             0x000025e4   Number         4  bf0_hal_wdt.o(.text.HAL_WDT_Init)
    __arm_cp.0_1                             0x000025e8   Number         4  bf0_hal_wdt.o(.text.HAL_WDT_Init)
    __arm_cp.0_2                             0x000025ec   Number         4  bf0_hal_wdt.o(.text.HAL_WDT_Init)
    [Anonymous Symbol]                       0x000025f0   Section        0  bf0_hal_wdt.o(.text.HAL_WDT_Refresh)
    Is_Infinite256                           0x00002619   Thumb Code    56  ecc_p256.o(.text.Is_Infinite256)
    [Anonymous Symbol]                       0x00002618   Section        0  ecc_p256.o(.text.Is_Infinite256)
    __arm_cp.19_0                            0x0000264c   Number         4  ecc_p256.o(.text.Is_Infinite256)
    [Anonymous Symbol]                       0x00002650   Section        0  bt_util_key.o(.text.KPrimC)
    __arm_cp.4_0                             0x00002dbc   Number         4  bt_util_key.o(.text.KPrimC)
    __arm_cp.4_1                             0x00002dc0   Number         4  bt_util_key.o(.text.KPrimC)
    LM_G2Degree                              0x00002dc4   Number         0  bt_util_key.o(.text.KPrimC)
    LM_Add                                   0x00002dd5   Thumb Code    22  bt_util_key.o(.text.LM_Add)
    [Anonymous Symbol]                       0x00002dd4   Section        0  bt_util_key.o(.text.LM_Add)
    LM_Ar                                    0x00002deb   Thumb Code    90  bt_util_key.o(.text.LM_Ar)
    [Anonymous Symbol]                       0x00002dea   Section        0  bt_util_key.o(.text.LM_Ar)
    LM_ArPrim                                0x00002e45   Thumb Code   124  bt_util_key.o(.text.LM_ArPrim)
    [Anonymous Symbol]                       0x00002e44   Section        0  bt_util_key.o(.text.LM_ArPrim)
    LM_ArRound                               0x00002ec1   Thumb Code   272  bt_util_key.o(.text.LM_ArRound)
    [Anonymous Symbol]                       0x00002ec0   Section        0  bt_util_key.o(.text.LM_ArRound)
    LM_Permutation                           0x00002fb8   Number         0  bt_util_key.o(.text.LM_ArRound)
    __arm_cp.14_1                            0x00002fc8   Number         4  bt_util_key.o(.text.LM_ArRound)
    __arm_cp.14_2                            0x00002fcc   Number         4  bt_util_key.o(.text.LM_ArRound)
    [Anonymous Symbol]                       0x00002fd0   Section        0  lc_util.o(.text.LM_CheckEdrFeatureRequest)
    [Anonymous Symbol]                       0x00002fde   Section        0  lc_util.o(.text.LM_ComputePacketType)
    LM_ExpandAddr                            0x00002ffd   Thumb Code    28  bt_util_key.o(.text.LM_ExpandAddr)
    [Anonymous Symbol]                       0x00002ffc   Section        0  bt_util_key.o(.text.LM_ExpandAddr)
    [Anonymous Symbol]                       0x00003018   Section        0  lb.o(.text.LM_ExtractMaxEncKeySize)
    [Anonymous Symbol]                       0x00003030   Section        0  lc_util.o(.text.LM_GetFeature)
    [Anonymous Symbol]                       0x00003044   Section        0  lm.o(.text.LM_GetLocalNameSeg)
    __arm_cp.13_1                            0x000030b4   Number         4  lm.o(.text.LM_GetLocalNameSeg)
    [Anonymous Symbol]                       0x000030b8   Section        0  lb.o(.text.LM_GetMasterEncKeySize)
    [Anonymous Symbol]                       0x000030c0   Section        0  lb.o(.text.LM_GetMasterEncRand)
    [Anonymous Symbol]                       0x000030cc   Section        0  lb.o(.text.LM_GetMasterKey)
    [Anonymous Symbol]                       0x000030d8   Section        0  lb.o(.text.LM_GetMasterKeyRand)
    __arm_cp.12_0                            0x000030e4   Number         4  lb.o(.text.LM_GetMasterKeyRand)
    [Anonymous Symbol]                       0x000030e8   Section        0  lm.o(.text.LM_GetPINType)
    __arm_cp.12_0                            0x00003114   Number         4  lm.o(.text.LM_GetPINType)
    __arm_cp.12_1                            0x00003118   Number         4  lm.o(.text.LM_GetPINType)
    __arm_cp.12_2                            0x0000311c   Number         4  lm.o(.text.LM_GetPINType)
    [Anonymous Symbol]                       0x00003120   Section        0  lc_util.o(.text.LM_GetQoSParam)
    __arm_cp.6_0                             0x00003214   Number         4  lc_util.o(.text.LM_GetQoSParam)
    LM_InitKeySchedule                       0x00003219   Thumb Code    26  bt_util_key.o(.text.LM_InitKeySchedule)
    [Anonymous Symbol]                       0x00003218   Section        0  bt_util_key.o(.text.LM_InitKeySchedule)
    [Anonymous Symbol]                       0x00003232   Section        0  lc_util.o(.text.LM_MakeCof)
    [Anonymous Symbol]                       0x00003250   Section        0  bt_util_key.o(.text.LM_MakeRandVec)
    [Anonymous Symbol]                       0x00003266   Section        0  lc_util.o(.text.LM_MaxSlot)
    LM_NextKeySchedule                       0x0000328d   Thumb Code   112  bt_util_key.o(.text.LM_NextKeySchedule)
    [Anonymous Symbol]                       0x0000328c   Section        0  bt_util_key.o(.text.LM_NextKeySchedule)
    __arm_cp.15_0                            0x000032f8   Number         4  bt_util_key.o(.text.LM_NextKeySchedule)
    LM_Offset                                0x000032fd   Thumb Code   114  bt_util_key.o(.text.LM_Offset)
    [Anonymous Symbol]                       0x000032fc   Section        0  bt_util_key.o(.text.LM_Offset)
    LM_ReverseVector                         0x0000336f   Thumb Code    38  bt_util_key.o(.text.LM_ReverseVector)
    [Anonymous Symbol]                       0x0000336e   Section        0  bt_util_key.o(.text.LM_ReverseVector)
    [Anonymous Symbol]                       0x00003394   Section        0  lc_util.o(.text.LM_SuppressAclPacket)
    [Anonymous Symbol]                       0x000033be   Section        0  lc_util.o(.text.LM_UpdateAclEdrPacketType)
    [Anonymous Symbol]                       0x00003446   Section        0  lc_util.o(.text.LM_UpdateAclPacketType)
    LM_Xor                                   0x00003487   Thumb Code    22  bt_util_key.o(.text.LM_Xor)
    [Anonymous Symbol]                       0x00003486   Section        0  bt_util_key.o(.text.LM_Xor)
    LM_XorAdd                                0x0000349d   Thumb Code    54  bt_util_key.o(.text.LM_XorAdd)
    [Anonymous Symbol]                       0x0000349c   Section        0  bt_util_key.o(.text.LM_XorAdd)
    [Anonymous Symbol]                       0x000034d2   Section        0  ecc_p256.o(.text.MultiplyBigHexByUint32_256)
    [Anonymous Symbol]                       0x00003508   Section        0  ecc_p256.o(.text.MultiplyBigHexModP256)
    __arm_cp.13_0                            0x0000362c   Number         4  ecc_p256.o(.text.MultiplyBigHexModP256)
    [Anonymous Symbol]                       0x00003630   Section        0  ecc_p256.o(.text.SubtractBigHex256)
    [Anonymous Symbol]                       0x00003674   Section        0  ecc_p256.o(.text.SubtractBigHexMod256)
    __arm_cp.11_0                            0x000036fc   Number         4  ecc_p256.o(.text.SubtractBigHexMod256)
    [Anonymous Symbol]                       0x00003700   Section        0  ecc_p256.o(.text.SubtractFromSelfBigHex256)
    [Anonymous Symbol]                       0x00003740   Section        0  ecc_p256.o(.text.SubtractFromSelfBigHexSign256)
    [Anonymous Symbol]                       0x000037be   Section        0  board.o(.text.SystemClock_Config)
    [Anonymous Symbol]                       0x000037c0   Section        0  bf0_pm.o(.text.SystemPowerOnInitLCPU)
    __arm_cp.4_0                             0x00003804   Number         4  bf0_pm.o(.text.SystemPowerOnInitLCPU)
    [Anonymous Symbol]                       0x00003808   Section        0  bf0_pm.o(.text.SystemPowerOnModeGet)
    __arm_cp.6_0                             0x00003810   Number         4  bf0_pm.o(.text.SystemPowerOnModeGet)
    [Anonymous Symbol]                       0x00003814   Section        0  bf0_pm.o(.text.SystemPowerOnModeInit)
    [Anonymous Symbol]                       0x00003818   Section        0  bt_util_key.o(.text.XorKey)
    __NVIC_SetPriority                       0x00003841   Thumb Code    36  bf0_hal_cortex.o(.text.__NVIC_SetPriority)
    [Anonymous Symbol]                       0x00003840   Section        0  bf0_hal_cortex.o(.text.__NVIC_SetPriority)
    __arm_cp.2_0                             0x0000385c   Number         4  bf0_hal_cortex.o(.text.__NVIC_SetPriority)
    __arm_cp.2_1                             0x00003860   Number         4  bf0_hal_cortex.o(.text.__NVIC_SetPriority)
    [Anonymous Symbol]                       0x00003864   Section        0  kservice.o(.text.__rt_ffs)
    __arm_cp.34_0                            0x00003894   Number         4  kservice.o(.text.__rt_ffs)
    [Anonymous Symbol]                       0x00003898   Section        0  waitqueue.o(.text.__wqueue_default_wake)
    [Anonymous Symbol]                       0x0000389c   Section        0  data_path.o(.text._data_path_itf_get)
    __arm_cp.2_0                             0x000038cc   Number         4  data_path.o(.text._data_path_itf_get)
    _delayed_work_timeout_handler            0x000038d1   Thumb Code    52  workqueue.o(.text._delayed_work_timeout_handler)
    [Anonymous Symbol]                       0x000038d0   Section        0  workqueue.o(.text._delayed_work_timeout_handler)
    [Anonymous Symbol]                       0x00003904   Section        0  rwip.o(.text._env_init)
    __arm_cp.0_1                             0x0000393c   Number         4  rwip.o(.text._env_init)
    __arm_cp.0_2                             0x00003940   Number         4  rwip.o(.text._env_init)
    [Anonymous Symbol]                       0x00003944   Section        0  ke_event.o(.text._ke_event_callback_set)
    __arm_cp.3_2                             0x00003a10   Number         4  ke_event.o(.text._ke_event_callback_set)
    __arm_cp.3_3                             0x00003a14   Number         4  ke_event.o(.text._ke_event_callback_set)
    [Anonymous Symbol]                       0x00003a24   Section        0  ke_event.o(.text._ke_event_clear)
    __arm_cp.5_0                             0x00003a58   Number         4  ke_event.o(.text._ke_event_clear)
    [Anonymous Symbol]                       0x00003a6c   Section        0  ke_event.o(.text._ke_event_get_all)
    [Anonymous Symbol]                       0x00003a74   Section        0  ke_event.o(.text._ke_event_init)
    [Anonymous Symbol]                       0x00003a80   Section        0  ke_event.o(.text._ke_event_schedule)
    __arm_cp.9_0                             0x00003ab8   Number         4  ke_event.o(.text._ke_event_schedule)
    __arm_cp.9_1                             0x00003abc   Number         4  ke_event.o(.text._ke_event_schedule)
    [Anonymous Symbol]                       0x00003ad4   Section        0  ke_event.o(.text._ke_event_schedule_via_evt_mask)
    __arm_cp.10_0                            0x00003b18   Number         4  ke_event.o(.text._ke_event_schedule_via_evt_mask)
    __arm_cp.10_1                            0x00003b1c   Number         4  ke_event.o(.text._ke_event_schedule_via_evt_mask)
    [Anonymous Symbol]                       0x00003b40   Section        0  ke_event.o(.text._ke_event_set)
    __arm_cp.4_0                             0x00003b90   Number         4  ke_event.o(.text._ke_event_set)
    _ke_evt_get_priority                     0x00003ba5   Thumb Code    52  ke_event.o(.text._ke_evt_get_priority)
    [Anonymous Symbol]                       0x00003ba4   Section        0  ke_event.o(.text._ke_evt_get_priority)
    __arm_cp.0_0                             0x00003bd4   Number         4  ke_event.o(.text._ke_evt_get_priority)
    _ke_evt_task_entry                       0x00003bd9   Thumb Code    40  ke_event.o(.text._ke_evt_task_entry)
    [Anonymous Symbol]                       0x00003bd8   Section        0  ke_event.o(.text._ke_evt_task_entry)
    __arm_cp.1_0                             0x00003bf8   Number         4  ke_event.o(.text._ke_evt_task_entry)
    __arm_cp.1_1                             0x00003bfc   Number         4  ke_event.o(.text._ke_evt_task_entry)
    [Anonymous Symbol]                       0x00003c00   Section        0  ke_lp.o(.text._ke_sleep_os_hook)
    __arm_cp.0_0                             0x00003c28   Number         4  ke_lp.o(.text._ke_sleep_os_hook)
    __arm_cp.0_1                             0x00003c2c   Number         4  ke_lp.o(.text._ke_sleep_os_hook)
    _ke_task_handler_get_handler             0x00003c31   Thumb Code     4  ke_task.o(.text._ke_task_handler_get_handler)
    [Anonymous Symbol]                       0x00003c30   Section        0  ke_task.o(.text._ke_task_handler_get_handler)
    [Anonymous Symbol]                       0x00003c34   Section        0  ke_timer.o(.text._ke_timer_clear)
    _ke_timer_expired                        0x00003c5d   Thumb Code    36  ke_timer.o(.text._ke_timer_expired)
    [Anonymous Symbol]                       0x00003c5c   Section        0  ke_timer.o(.text._ke_timer_expired)
    [Anonymous Symbol]                       0x00003c80   Section        0  ke_timer.o(.text._ke_timer_flush)
    [Anonymous Symbol]                       0x00003c98   Section        0  ke_timer.o(.text._ke_timer_get)
    [Anonymous Symbol]                       0x00003cb8   Section        0  ke_timer.o(.text._ke_timer_set)
    __arm_cp.3_0                             0x00003d0c   Number         4  ke_timer.o(.text._ke_timer_set)
    __arm_cp.3_3                             0x00003d28   Number         4  ke_timer.o(.text._ke_timer_set)
    _lmp_get_pdu_handler_desc                0x00003d2d   Thumb Code     4  lc_task.o(.text._lmp_get_pdu_handler_desc)
    [Anonymous Symbol]                       0x00003d2c   Section        0  lc_task.o(.text._lmp_get_pdu_handler_desc)
    _pm_device_frequency_change              0x00003d31   Thumb Code    44  pm.o(.text._pm_device_frequency_change)
    [Anonymous Symbol]                       0x00003d30   Section        0  pm.o(.text._pm_device_frequency_change)
    _pm_device_resume                        0x00003d5d   Thumb Code    48  pm.o(.text._pm_device_resume)
    [Anonymous Symbol]                       0x00003d5c   Section        0  pm.o(.text._pm_device_resume)
    __arm_cp.23_0                            0x00003d88   Number         4  pm.o(.text._pm_device_resume)
    [Anonymous Symbol]                       0x00003d8c   Section        0  pm.o(.text._pm_select_sleep_mode)
    __arm_cp.2_0                             0x00003dd8   Number         4  pm.o(.text._pm_select_sleep_mode)
    _rt_pm_device_control                    0x00003df5   Thumb Code    28  pm.o(.text._rt_pm_device_control)
    [Anonymous Symbol]                       0x00003df4   Section        0  pm.o(.text._rt_pm_device_control)
    _rt_pm_device_read                       0x00003e11   Thumb Code    96  pm.o(.text._rt_pm_device_read)
    [Anonymous Symbol]                       0x00003e10   Section        0  pm.o(.text._rt_pm_device_read)
    _rt_pm_device_write                      0x00003e71   Thumb Code    30  pm.o(.text._rt_pm_device_write)
    [Anonymous Symbol]                       0x00003e70   Section        0  pm.o(.text._rt_pm_device_write)
    _rt_scheduler_stack_check                0x00003e91   Thumb Code    80  scheduler.o(.text._rt_scheduler_stack_check)
    [Anonymous Symbol]                       0x00003e90   Section        0  scheduler.o(.text._rt_scheduler_stack_check)
    __arm_cp.4_0                             0x00003ec0   Number         4  scheduler.o(.text._rt_scheduler_stack_check)
    _rt_thread_init                          0x00003ee1   Thumb Code   196  thread.o(.text._rt_thread_init)
    [Anonymous Symbol]                       0x00003ee0   Section        0  thread.o(.text._rt_thread_init)
    __arm_cp.5_0                             0x00003f64   Number         4  thread.o(.text._rt_thread_init)
    __arm_cp.5_3                             0x00003f9c   Number         4  thread.o(.text._rt_thread_init)
    __arm_cp.5_4                             0x00003fa0   Number         4  thread.o(.text._rt_thread_init)
    [Anonymous Symbol]                       0x00003fa4   Section        0  rw_os_tl.o(.text._rwip_eif_get)
    [Anonymous Symbol]                       0x00003fb8   Section        0  rwip.o(.text._rwip_init)
    __arm_cp.1_1                             0x000040e8   Number         4  rwip.o(.text._rwip_init)
    __arm_cp.1_3                             0x000040ec   Number         4  rwip.o(.text._rwip_init)
    __arm_cp.1_4                             0x000040f0   Number         4  rwip.o(.text._rwip_init)
    __arm_cp.1_5                             0x000040f4   Number         4  rwip.o(.text._rwip_init)
    __arm_cp.1_6                             0x000040f8   Number         4  rwip.o(.text._rwip_init)
    __arm_cp.1_8                             0x000040fc   Number         4  rwip.o(.text._rwip_init)
    [Anonymous Symbol]                       0x00004100   Section        0  rwip.o(.text._rwip_reset)
    __arm_cp.2_0                             0x000041a0   Number         4  rwip.o(.text._rwip_reset)
    __arm_cp.2_2                             0x000041a4   Number         4  rwip.o(.text._rwip_reset)
    __arm_cp.2_4                             0x000041a8   Number         4  rwip.o(.text._rwip_reset)
    [Anonymous Symbol]                       0x000041ac   Section        0  rwip_driver.o(.text._rwip_sleep)
    __arm_cp.0_0                             0x000043e0   Number         4  rwip_driver.o(.text._rwip_sleep)
    __arm_cp.0_1                             0x000043e4   Number         4  rwip_driver.o(.text._rwip_sleep)
    __arm_cp.0_2                             0x000043e8   Number         4  rwip_driver.o(.text._rwip_sleep)
    __arm_cp.0_3                             0x000043ec   Number         4  rwip_driver.o(.text._rwip_sleep)
    __arm_cp.0_4                             0x000043f0   Number         4  rwip_driver.o(.text._rwip_sleep)
    __arm_cp.0_5                             0x000043f4   Number         4  rwip_driver.o(.text._rwip_sleep)
    __arm_cp.0_6                             0x000043f8   Number         4  rwip_driver.o(.text._rwip_sleep)
    __arm_cp.0_7                             0x000043fc   Number         4  rwip_driver.o(.text._rwip_sleep)
    __arm_cp.0_8                             0x00004400   Number         4  rwip_driver.o(.text._rwip_sleep)
    __arm_cp.0_9                             0x00004404   Number         4  rwip_driver.o(.text._rwip_sleep)
    __arm_cp.0_10                            0x00004408   Number         4  rwip_driver.o(.text._rwip_sleep)
    _sifli_nvds_del                          0x0000440d   Thumb Code   108  sifli_nvds.o(.text._sifli_nvds_del)
    [Anonymous Symbol]                       0x0000440c   Section        0  sifli_nvds.o(.text._sifli_nvds_del)
    _sifli_nvds_get                          0x00004479   Thumb Code    56  sifli_nvds.o(.text._sifli_nvds_get)
    [Anonymous Symbol]                       0x00004478   Section        0  sifli_nvds.o(.text._sifli_nvds_get)
    [Anonymous Symbol]                       0x000044b0   Section        0  sifli_nvds.o(.text._sifli_nvds_init)
    _sifli_nvds_put                          0x000044c9   Thumb Code   128  sifli_nvds.o(.text._sifli_nvds_put)
    [Anonymous Symbol]                       0x000044c8   Section        0  sifli_nvds.o(.text._sifli_nvds_put)
    __arm_cp.3_1                             0x00004544   Number         4  sifli_nvds.o(.text._sifli_nvds_put)
    [Anonymous Symbol]                       0x00004548   Section        0  sifli_nvds.o(.text._sifli_nvds_update)
    __arm_cp.1_0                             0x0000458c   Number         4  sifli_nvds.o(.text._sifli_nvds_update)
    _workqueue_cancel_delayed_work           0x00004591   Thumb Code    96  workqueue.o(.text._workqueue_cancel_delayed_work)
    [Anonymous Symbol]                       0x00004590   Section        0  workqueue.o(.text._workqueue_cancel_delayed_work)
    _workqueue_submit_work                   0x000045f1   Thumb Code    86  workqueue.o(.text._workqueue_submit_work)
    [Anonymous Symbol]                       0x000045f0   Section        0  workqueue.o(.text._workqueue_submit_work)
    _workqueue_thread_entry                  0x00004649   Thumb Code   148  workqueue.o(.text._workqueue_thread_entry)
    [Anonymous Symbol]                       0x00004648   Section        0  workqueue.o(.text._workqueue_thread_entry)
    __arm_cp.1_0                             0x000046c0   Number         4  workqueue.o(.text._workqueue_thread_entry)
    aes_addr_gen_continue                    0x000046dd   Thumb Code    98  aes_rpa.o(.text.aes_addr_gen_continue)
    [Anonymous Symbol]                       0x000046dc   Section        0  aes_rpa.o(.text.aes_addr_gen_continue)
    [Anonymous Symbol]                       0x0000473e   Section        0  aes.o(.text.aes_alloc)
    [Anonymous Symbol]                       0x00004754   Section        0  aes_cmac.o(.text.aes_cmac_continue)
    __arm_cp.1_0                             0x00004880   Number         4  aes_cmac.o(.text.aes_cmac_continue)
    [Anonymous Symbol]                       0x00004884   Section        0  aes_cmac.o(.text.aes_cmac_start)
    [Anonymous Symbol]                       0x000048b2   Section        0  aes.o(.text.aes_decrypt)
    [Anonymous Symbol]                       0x00004908   Section        0  aes.o(.text.aes_encrypt)
    [Anonymous Symbol]                       0x00004960   Section        0  aes_rpa.o(.text.aes_gen_rand_addr)
    __arm_cp.0_0                             0x000049a0   Number         4  aes_rpa.o(.text.aes_gen_rand_addr)
    [Anonymous Symbol]                       0x000049a4   Section        0  aes_h6.o(.text.aes_h6)
    __arm_cp.0_0                             0x000049dc   Number         4  aes_h6.o(.text.aes_h6)
    aes_h6_continue                          0x000049e1   Thumb Code     4  aes_h6.o(.text.aes_h6_continue)
    [Anonymous Symbol]                       0x000049e0   Section        0  aes_h6.o(.text.aes_h6_continue)
    [Anonymous Symbol]                       0x000049e4   Section        0  aes_h7.o(.text.aes_h7)
    __arm_cp.0_0                             0x00004a24   Number         4  aes_h7.o(.text.aes_h7)
    aes_h7_continue                          0x00004a29   Thumb Code     4  aes_h7.o(.text.aes_h7_continue)
    [Anonymous Symbol]                       0x00004a28   Section        0  aes_h7.o(.text.aes_h7_continue)
    [Anonymous Symbol]                       0x00004a2c   Section        0  aes_h8.o(.text.aes_h8)
    __arm_cp.0_0                             0x00004a80   Number         4  aes_h8.o(.text.aes_h8)
    aes_h8_continue                          0x00004a85   Thumb Code    58  aes_h8.o(.text.aes_h8_continue)
    [Anonymous Symbol]                       0x00004a84   Section        0  aes_h8.o(.text.aes_h8_continue)
    [Anonymous Symbol]                       0x00004ac0   Section        0  aes.o(.text.aes_init)
    [Anonymous Symbol]                       0x00004ae4   Section        0  aes.o(.text.aes_rand)
    [Anonymous Symbol]                       0x00004b14   Section        0  aes.o(.text.aes_result_handler)
    [Anonymous Symbol]                       0x00004b68   Section        0  aes_rpa.o(.text.aes_rpa_gen)
    [Anonymous Symbol]                       0x00004b74   Section        0  aes_rpa.o(.text.aes_rpa_resolve)
    __arm_cp.3_0                             0x00004c0c   Number         4  aes_rpa.o(.text.aes_rpa_resolve)
    aes_rpa_resolve_continue                 0x00004c11   Thumb Code   140  aes_rpa.o(.text.aes_rpa_resolve_continue)
    [Anonymous Symbol]                       0x00004c10   Section        0  aes_rpa.o(.text.aes_rpa_resolve_continue)
    __arm_cp.4_0                             0x00004c98   Number         4  aes_rpa.o(.text.aes_rpa_resolve_continue)
    [Anonymous Symbol]                       0x00004c9c   Section        0  aes.o(.text.aes_shift_left_128)
    [Anonymous Symbol]                       0x00004cc4   Section        0  aes.o(.text.aes_start)
    __arm_cp.2_0                             0x00004cf8   Number         4  aes.o(.text.aes_start)
    [Anonymous Symbol]                       0x00004cfc   Section        0  aes.o(.text.aes_xor_128)
    [Anonymous Symbol]                       0x00004d12   Section        0  bf0_pm.o(.text.aon_irq_handler_hook)
    assert_hook                              0x00004d15   Thumb Code    32  bf0_common.o(.text.assert_hook)
    [Anonymous Symbol]                       0x00004d14   Section        0  bf0_common.o(.text.assert_hook)
    __arm_cp.5_0                             0x00004d30   Number         4  bf0_common.o(.text.assert_hook)
    [Anonymous Symbol]                       0x00004d34   Section        0  audio_mem.o(.text.audio_mem_calloc)
    [Anonymous Symbol]                       0x00004d38   Section        0  audio_mem.o(.text.audio_mem_free)
    [Anonymous Symbol]                       0x00004d3c   Section        0  ecc_p256.o(.text.bigHexInversion256)
    __arm_cp.23_0                            0x00004e60   Number         4  ecc_p256.o(.text.bigHexInversion256)
    big_channel_map_ind_handler              0x00004e65   Thumb Code    76  lli_bi.o(.text.big_channel_map_ind_handler)
    [Anonymous Symbol]                       0x00004e64   Section        0  lli_bi.o(.text.big_channel_map_ind_handler)
    big_terminate_ind_handler                0x00004eb1   Thumb Code    64  lli_bi.o(.text.big_terminate_ind_handler)
    [Anonymous Symbol]                       0x00004eb0   Section        0  lli_bi.o(.text.big_terminate_ind_handler)
    [Anonymous Symbol]                       0x00004ef0   Section        0  ke_lp.o(.text.ble_aon_irq_handler)
    __arm_cp.4_2                             0x00004f18   Number         4  ke_lp.o(.text.ble_aon_irq_handler)
    [Anonymous Symbol]                       0x00004f1c   Section        0  rwip.o(.text.ble_boot)
    __arm_cp.4_1                             0x00004f50   Number         4  rwip.o(.text.ble_boot)
    __arm_cp.4_2                             0x00004f54   Number         4  rwip.o(.text.ble_boot)
    [Anonymous Symbol]                       0x00004f58   Section        0  ke_lp.o(.text.ble_deep_sleep_after_handler)
    [Anonymous Symbol]                       0x00004f74   Section        0  ke_lp.o(.text.ble_deep_sleep_pre_handler)
    [Anonymous Symbol]                       0x00004fa0   Section        0  rwble.o(.text.ble_isr)
    __arm_cp.2_2                             0x00004fe8   Number         4  rwble.o(.text.ble_isr)
    __tagsym$$used.13                        0x00004fec   Number         0  rom_config.o(.text.ble_max_nb_of_cp_get)
    [Anonymous Symbol]                       0x00004fec   Section        0  rom_config.o(.text.ble_max_nb_of_cp_get)
    [Anonymous Symbol]                       0x00004ff4   Section        0  bluetooth_config.o(.text.ble_memory_config)
    __tagsym$$used.11                        0x00004ff8   Number         0  rom_config.o(.text.ble_memory_config)
    [Anonymous Symbol]                       0x00004ff8   Section        0  rom_config.o(.text.ble_memory_config)
    __tagsym$$used.12                        0x00005004   Number         0  rom_config.o(.text.ble_memory_config_get)
    [Anonymous Symbol]                       0x00005004   Section        0  rom_config.o(.text.ble_memory_config_get)
    __arm_cp.23_0                            0x00005008   Number         4  rom_config.o(.text.ble_memory_config_get)
    [Anonymous Symbol]                       0x0000500c   Section        0  bluetooth_config.o(.text.ble_port_config)
    [Anonymous Symbol]                       0x00005010   Section        0  ke_lp.o(.text.ble_standby_sleep_after_handler)
    __arm_cp.8_1                             0x0000504c   Number         4  ke_lp.o(.text.ble_standby_sleep_after_handler)
    __arm_cp.8_2                             0x00005050   Number         4  ke_lp.o(.text.ble_standby_sleep_after_handler)
    __arm_cp.8_3                             0x00005054   Number         4  ke_lp.o(.text.ble_standby_sleep_after_handler)
    __arm_cp.8_4                             0x00005058   Number         4  ke_lp.o(.text.ble_standby_sleep_after_handler)
    __arm_cp.8_5                             0x0000505c   Number         4  ke_lp.o(.text.ble_standby_sleep_after_handler)
    [Anonymous Symbol]                       0x00005060   Section        0  ke_lp.o(.text.ble_standby_sleep_pre_handler)
    __arm_cp.7_0                             0x00005098   Number         4  ke_lp.o(.text.ble_standby_sleep_pre_handler)
    __arm_cp.7_1                             0x0000509c   Number         4  ke_lp.o(.text.ble_standby_sleep_pre_handler)
    __arm_cp.7_2                             0x000050a0   Number         4  ke_lp.o(.text.ble_standby_sleep_pre_handler)
    __arm_cp.7_3                             0x000050a4   Number         4  ke_lp.o(.text.ble_standby_sleep_pre_handler)
    [Anonymous Symbol]                       0x000050a8   Section        0  ble_util.o(.text.ble_util_big_info_unpack)
    __arm_cp.2_0                             0x000051b4   Number         4  ble_util.o(.text.ble_util_big_info_unpack)
    __arm_cp.2_1                             0x000051b8   Number         4  ble_util.o(.text.ble_util_big_info_unpack)
    [Anonymous Symbol]                       0x000051bc   Section        0  ble_util_buf.o(.text.ble_util_buf_acl_tx_alloc)
    [Anonymous Symbol]                       0x000051e0   Section        0  ble_util_buf.o(.text.ble_util_buf_acl_tx_elt_get)
    [Anonymous Symbol]                       0x000051f8   Section        0  ble_util_buf.o(.text.ble_util_buf_acl_tx_free)
    [Anonymous Symbol]                       0x00005228   Section        0  ble_util_buf.o(.text.ble_util_buf_adv_tx_alloc)
    [Anonymous Symbol]                       0x0000524c   Section        0  ble_util_buf.o(.text.ble_util_buf_adv_tx_free)
    [Anonymous Symbol]                       0x0000527c   Section        0  ble_util_buf.o(.text.ble_util_buf_init)
    __arm_cp.0_3                             0x00005554   Number         4  ble_util_buf.o(.text.ble_util_buf_init)
    __arm_cp.0_4                             0x00005558   Number         4  ble_util_buf.o(.text.ble_util_buf_init)
    __arm_cp.0_5                             0x0000555c   Number         4  ble_util_buf.o(.text.ble_util_buf_init)
    [Anonymous Symbol]                       0x00005560   Section        0  ble_util_buf.o(.text.ble_util_buf_iso_alloc)
    [Anonymous Symbol]                       0x00005574   Section        0  ble_util_buf.o(.text.ble_util_buf_iso_emptr_get)
    [Anonymous Symbol]                       0x00005580   Section        0  ble_util_buf.o(.text.ble_util_buf_iso_free)
    __arm_cp.12_0                            0x00005590   Number         4  ble_util_buf.o(.text.ble_util_buf_iso_free)
    [Anonymous Symbol]                       0x00005594   Section        0  ble_util_buf.o(.text.ble_util_buf_llcp_tx_alloc)
    __arm_cp.1_0                             0x000055b0   Number         4  ble_util_buf.o(.text.ble_util_buf_llcp_tx_alloc)
    [Anonymous Symbol]                       0x000055b4   Section        0  ble_util_buf.o(.text.ble_util_buf_llcp_tx_free)
    __arm_cp.2_0                             0x000055e0   Number         4  ble_util_buf.o(.text.ble_util_buf_llcp_tx_free)
    __arm_cp.2_1                             0x000055e4   Number         4  ble_util_buf.o(.text.ble_util_buf_llcp_tx_free)
    [Anonymous Symbol]                       0x000055e8   Section        0  ble_util_buf.o(.text.ble_util_buf_rx_alloc)
    __arm_cp.3_0                             0x000055fc   Number         4  ble_util_buf.o(.text.ble_util_buf_rx_alloc)
    [Anonymous Symbol]                       0x00005600   Section        0  ble_util_buf.o(.text.ble_util_buf_rx_free)
    __arm_cp.4_0                             0x00005640   Number         4  ble_util_buf.o(.text.ble_util_buf_rx_free)
    __arm_cp.4_1                             0x00005644   Number         4  ble_util_buf.o(.text.ble_util_buf_rx_free)
    [Anonymous Symbol]                       0x00005648   Section        0  ble_util_buf.o(.text.ble_util_hop_seq_alloc)
    __arm_cp.15_0                            0x00005660   Number         4  ble_util_buf.o(.text.ble_util_hop_seq_alloc)
    [Anonymous Symbol]                       0x00005664   Section        0  ble_util_buf.o(.text.ble_util_hop_seq_free)
    [Anonymous Symbol]                       0x00005684   Section        0  ble_util_buf.o(.text.ble_util_isodesc_alloc)
    [Anonymous Symbol]                       0x0000569c   Section        0  ble_util_buf.o(.text.ble_util_isodesc_free)
    __arm_cp.14_0                            0x000056c4   Number         4  ble_util_buf.o(.text.ble_util_isodesc_free)
    __arm_cp.14_1                            0x000056c8   Number         4  ble_util_buf.o(.text.ble_util_isodesc_free)
    [Anonymous Symbol]                       0x000056cc   Section        0  ble_util.o(.text.ble_util_nb_good_channels)
    __arm_cp.0_0                             0x000056f4   Number         4  ble_util.o(.text.ble_util_nb_good_channels)
    [Anonymous Symbol]                       0x000056f8   Section        0  ble_util.o(.text.ble_util_pkt_dur_in_us)
    [Anonymous Symbol]                       0x00005734   Section        0  bluetooth_config.o(.text.bluetooth_config)
    __arm_cp.37_0                            0x00005770   Number         4  bluetooth_config.o(.text.bluetooth_config)
    __arm_cp.37_1                            0x00005774   Number         4  bluetooth_config.o(.text.bluetooth_config)
    [Anonymous Symbol]                       0x00005778   Section        0  bluetooth.o(.text.bluetooth_init)
    [Anonymous Symbol]                       0x000057a8   Section        0  bluetooth_config.o(.text.bluetooth_stack_ipc_register_tx_cb)
    [Anonymous Symbol]                       0x000057b0   Section        0  bluetooth_config.o(.text.bluetooth_stack_ipc_write_data)
    __arm_cp.27_1                            0x00005840   Number         4  bluetooth_config.o(.text.bluetooth_stack_ipc_write_data)
    __arm_cp.27_2                            0x00005844   Number         4  bluetooth_config.o(.text.bluetooth_stack_ipc_write_data)
    [Anonymous Symbol]                       0x00005860   Section        0  bt_audiopath.o(.text.bt_audiopath_init)
    __arm_cp.1_1                             0x000058a8   Number         4  bt_audiopath.o(.text.bt_audiopath_init)
    __arm_cp.1_2                             0x000058ac   Number         4  bt_audiopath.o(.text.bt_audiopath_init)
    bt_e_scoltcntl_pack                      0x000058b1   Thumb Code    32  ld_acl.o(.text.bt_e_scoltcntl_pack)
    [Anonymous Symbol]                       0x000058b0   Section        0  ld_acl.o(.text.bt_e_scoltcntl_pack)
    __arm_cp.27_0                            0x000058cc   Number         4  ld_acl.o(.text.bt_e_scoltcntl_pack)
    bt_e_scotrcntl_pack                      0x000058d1   Thumb Code    24  ld_acl.o(.text.bt_e_scotrcntl_pack)
    [Anonymous Symbol]                       0x000058d0   Section        0  ld_acl.o(.text.bt_e_scotrcntl_pack)
    bt_e_scotrcntl_pack                      0x000058e9   Thumb Code    24  ld_test.o(.text.bt_e_scotrcntl_pack)
    [Anonymous Symbol]                       0x000058e8   Section        0  ld_test.o(.text.bt_e_scotrcntl_pack)
    __arm_cp.4_0                             0x000058fc   Number         4  ld_test.o(.text.bt_e_scotrcntl_pack)
    [Anonymous Symbol]                       0x00005900   Section        0  rwbt.o(.text.bt_isr)
    __arm_cp.2_0                             0x00005970   Number         4  rwbt.o(.text.bt_isr)
    __arm_cp.2_1                             0x00005974   Number         4  rwbt.o(.text.bt_isr)
    __arm_cp.2_2                             0x00005978   Number         4  rwbt.o(.text.bt_isr)
    [Anonymous Symbol]                       0x0000597c   Section        0  bt_audiopath.o(.text.bt_sco_data_handle_callback)
    [Anonymous Symbol]                       0x00005a48   Section        0  bt_audiopath.o(.text.bt_sco_data_handle_callback_lite)
    [Anonymous Symbol]                       0x00005a4c   Section        0  lc_task.o(.text.bt_sco_data_handle_register)
    __arm_cp.0_0                             0x00005a54   Number         4  lc_task.o(.text.bt_sco_data_handle_register)
    [Anonymous Symbol]                       0x00005a58   Section        0  bt_audiopath.o(.text.bt_soc_send_data)
    __arm_cp.3_0                             0x00005ab8   Number         4  bt_audiopath.o(.text.bt_soc_send_data)
    [Anonymous Symbol]                       0x00005abc   Section        0  bt_util_buf.o(.text.bt_util_buf_acl_rx_alloc)
    [Anonymous Symbol]                       0x00005ac4   Section        0  bt_util_buf.o(.text.bt_util_buf_acl_rx_free)
    [Anonymous Symbol]                       0x00005b08   Section        0  bt_util_buf.o(.text.bt_util_buf_acl_tx_alloc)
    [Anonymous Symbol]                       0x00005b2c   Section        0  bt_util_buf.o(.text.bt_util_buf_acl_tx_elt_get)
    [Anonymous Symbol]                       0x00005b4c   Section        0  bt_util_buf.o(.text.bt_util_buf_acl_tx_free)
    [Anonymous Symbol]                       0x00005b80   Section        0  bt_util_buf.o(.text.bt_util_buf_init)
    __arm_cp.0_0                             0x00005cf4   Number         4  bt_util_buf.o(.text.bt_util_buf_init)
    __arm_cp.0_1                             0x00005cf8   Number         4  bt_util_buf.o(.text.bt_util_buf_init)
    __arm_cp.0_2                             0x00005cfc   Number         4  bt_util_buf.o(.text.bt_util_buf_init)
    __arm_cp.0_5                             0x00005d1c   Number         4  bt_util_buf.o(.text.bt_util_buf_init)
    [Anonymous Symbol]                       0x00005d20   Section        0  bt_util_buf.o(.text.bt_util_buf_lmp_tx_alloc)
    [Anonymous Symbol]                       0x00005d28   Section        0  bt_util_buf.o(.text.bt_util_buf_lmp_tx_free)
    [Anonymous Symbol]                       0x00005d44   Section        0  bt_util_buf.o(.text.bt_util_buf_sync_clear)
    [Anonymous Symbol]                       0x00005d5c   Section        0  bt_util_buf.o(.text.bt_util_buf_sync_init)
    __arm_cp.8_1                             0x00005e34   Number         4  bt_util_buf.o(.text.bt_util_buf_sync_init)
    [Anonymous Symbol]                       0x00005e38   Section        0  bt_util_buf.o(.text.bt_util_buf_sync_rx_alloc)
    __arm_cp.13_0                            0x00005e54   Number         4  bt_util_buf.o(.text.bt_util_buf_sync_rx_alloc)
    [Anonymous Symbol]                       0x00005e58   Section        0  bt_util_buf.o(.text.bt_util_buf_sync_rx_free)
    __arm_cp.14_2                            0x00005ea4   Number         4  bt_util_buf.o(.text.bt_util_buf_sync_rx_free)
    [Anonymous Symbol]                       0x00005ea8   Section        0  bt_util_buf.o(.text.bt_util_buf_sync_tx_alloc)
    __arm_cp.10_0                            0x00005ec8   Number         4  bt_util_buf.o(.text.bt_util_buf_sync_tx_alloc)
    [Anonymous Symbol]                       0x00005ecc   Section        0  bt_util_buf.o(.text.bt_util_buf_sync_tx_elt_get)
    __arm_cp.11_1                            0x00005efc   Number         4  bt_util_buf.o(.text.bt_util_buf_sync_tx_elt_get)
    __arm_cp.11_2                            0x00005f00   Number         4  bt_util_buf.o(.text.bt_util_buf_sync_tx_elt_get)
    [Anonymous Symbol]                       0x00005f04   Section        0  bt_util_buf.o(.text.bt_util_buf_sync_tx_free)
    __arm_cp.12_0                            0x00005f3c   Number         4  bt_util_buf.o(.text.bt_util_buf_sync_tx_free)
    __arm_cp.12_1                            0x00005f40   Number         4  bt_util_buf.o(.text.bt_util_buf_sync_tx_free)
    __arm_cp.12_2                            0x00005f44   Number         4  bt_util_buf.o(.text.bt_util_buf_sync_tx_free)
    [Anonymous Symbol]                       0x00005f48   Section        0  system_bf0_ap.o(.text.cache_enable)
    __arm_cp.4_0                             0x00005fd0   Number         4  system_bf0_ap.o(.text.cache_enable)
    [Anonymous Symbol]                       0x00005fd4   Section        0  circular_buf.o(.text.circular_buf_data_len)
    [Anonymous Symbol]                       0x00006014   Section        0  circular_buf.o(.text.circular_buf_get_and_update_len)
    __arm_cp.7_0                             0x000060d0   Number         4  circular_buf.o(.text.circular_buf_get_and_update_len)
    [Anonymous Symbol]                       0x000060f4   Section        0  circular_buf.o(.text.circular_buf_put)
    __arm_cp.3_0                             0x00006180   Number         4  circular_buf.o(.text.circular_buf_put)
    [Anonymous Symbol]                       0x00006198   Section        0  circular_buf.o(.text.circular_buf_rd_init)
    [Anonymous Symbol]                       0x0000619c   Section        0  circular_buf.o(.text.circular_buf_wr_init)
    __arm_cp.1_0                             0x000061d0   Number         4  circular_buf.o(.text.circular_buf_wr_init)
    __arm_cp.1_1                             0x000061d4   Number         4  circular_buf.o(.text.circular_buf_wr_init)
    __arm_cp.1_2                             0x000061d8   Number         4  circular_buf.o(.text.circular_buf_wr_init)
    clear_interrupt_setting                  0x000061dd   Thumb Code    48  bf0_pm.o(.text.clear_interrupt_setting)
    [Anonymous Symbol]                       0x000061dc   Section        0  bf0_pm.o(.text.clear_interrupt_setting)
    __arm_cp.10_0                            0x00006204   Number         4  bf0_pm.o(.text.clear_interrupt_setting)
    __arm_cp.10_1                            0x00006208   Number         4  bf0_pm.o(.text.clear_interrupt_setting)
    cmd_cmp_send                             0x0000620d   Thumb Code    28  lm_test.o(.text.cmd_cmp_send)
    [Anonymous Symbol]                       0x0000620c   Section        0  lm_test.o(.text.cmd_cmp_send)
    cmp_dest_id                              0x00006229   Thumb Code    12  ke_task.o(.text.cmp_dest_id)
    [Anonymous Symbol]                       0x00006228   Section        0  ke_task.o(.text.cmp_dest_id)
    [Anonymous Symbol]                       0x00006234   Section        0  co_utils.o(.text.co_bdaddr_compare)
    co_bit_cnt                               0x00006251   Thumb Code    20  co_utils.o(.text.co_bit_cnt)
    [Anonymous Symbol]                       0x00006250   Section        0  co_utils.o(.text.co_bit_cnt)
    co_bswap_copy                            0x00006265   Thumb Code    22  co_utils.o(.text.co_bswap_copy)
    [Anonymous Symbol]                       0x00006264   Section        0  co_utils.o(.text.co_bswap_copy)
    co_bswap_copy                            0x0000627b   Thumb Code    22  sha_bt.o(.text.co_bswap_copy)
    [Anonymous Symbol]                       0x0000627a   Section        0  sha_bt.o(.text.co_bswap_copy)
    co_djob_hp_evt_handler                   0x00006291   Thumb Code    44  co_djob.o(.text.co_djob_hp_evt_handler)
    [Anonymous Symbol]                       0x00006290   Section        0  co_djob.o(.text.co_djob_hp_evt_handler)
    [Anonymous Symbol]                       0x000062bc   Section        0  co_djob.o(.text.co_djob_init)
    [Anonymous Symbol]                       0x000062c4   Section        0  co_djob.o(.text.co_djob_initialize)
    __arm_cp.0_0                             0x00006300   Number         4  co_djob.o(.text.co_djob_initialize)
    __arm_cp.0_1                             0x00006304   Number         4  co_djob.o(.text.co_djob_initialize)
    __arm_cp.0_2                             0x00006308   Number         4  co_djob.o(.text.co_djob_initialize)
    __arm_cp.0_3                             0x0000630c   Number         4  co_djob.o(.text.co_djob_initialize)
    co_djob_isr_evt_handler                  0x00006311   Thumb Code    56  co_djob.o(.text.co_djob_isr_evt_handler)
    [Anonymous Symbol]                       0x00006310   Section        0  co_djob.o(.text.co_djob_isr_evt_handler)
    [Anonymous Symbol]                       0x00006348   Section        0  co_djob.o(.text.co_djob_isr_reg)
    co_djob_lp_evt_handler                   0x00006385   Thumb Code    48  co_djob.o(.text.co_djob_lp_evt_handler)
    [Anonymous Symbol]                       0x00006384   Section        0  co_djob.o(.text.co_djob_lp_evt_handler)
    __arm_cp.1_1                             0x000063b0   Number         4  co_djob.o(.text.co_djob_lp_evt_handler)
    [Anonymous Symbol]                       0x000063b4   Section        0  co_djob.o(.text.co_djob_reg)
    __arm_cp.5_0                             0x000063e0   Number         4  co_djob.o(.text.co_djob_reg)
    __arm_cp.5_1                             0x000063e4   Number         4  co_djob.o(.text.co_djob_reg)
    [Anonymous Symbol]                       0x000063e8   Section        0  co_list.o(.text.co_list_extract)
    [Anonymous Symbol]                       0x00006416   Section        0  co_list.o(.text.co_list_extract_after)
    [Anonymous Symbol]                       0x0000642e   Section        0  co_list.o(.text.co_list_extract_sublist)
    [Anonymous Symbol]                       0x0000644a   Section        0  co_list.o(.text.co_list_find)
    [Anonymous Symbol]                       0x0000645e   Section        0  co_list.o(.text.co_list_init)
    [Anonymous Symbol]                       0x00006466   Section        0  co_list.o(.text.co_list_insert_after)
    [Anonymous Symbol]                       0x00006488   Section        0  co_list.o(.text.co_list_insert_before)
    [Anonymous Symbol]                       0x000064b2   Section        0  co_list.o(.text.co_list_pool_init)
    [Anonymous Symbol]                       0x000064d2   Section        0  co_list.o(.text.co_list_pop_front)
    [Anonymous Symbol]                       0x000064e6   Section        0  co_list.o(.text.co_list_push_back)
    [Anonymous Symbol]                       0x000064fa   Section        0  co_list.o(.text.co_list_push_back_sublist)
    [Anonymous Symbol]                       0x0000650e   Section        0  co_list.o(.text.co_list_push_front)
    [Anonymous Symbol]                       0x0000651c   Section        0  co_utils.o(.text.co_nb_good_channels)
    __arm_cp.2_0                             0x00006544   Number         4  co_utils.o(.text.co_nb_good_channels)
    co_rand_byte                             0x00006549   Thumb Code    10  lld.o(.text.co_rand_byte)
    [Anonymous Symbol]                       0x00006548   Section        0  lld.o(.text.co_rand_byte)
    co_rand_byte                             0x00006553   Thumb Code    10  lld_adv.o(.text.co_rand_byte)
    [Anonymous Symbol]                       0x00006552   Section        0  lld_adv.o(.text.co_rand_byte)
    co_rand_byte                             0x0000655d   Thumb Code    10  lld_bi.o(.text.co_rand_byte)
    [Anonymous Symbol]                       0x0000655c   Section        0  lld_bi.o(.text.co_rand_byte)
    co_rand_byte                             0x00006567   Thumb Code    10  lld_ci.o(.text.co_rand_byte)
    [Anonymous Symbol]                       0x00006566   Section        0  lld_ci.o(.text.co_rand_byte)
    co_rand_byte                             0x00006571   Thumb Code    10  lld_con.o(.text.co_rand_byte)
    [Anonymous Symbol]                       0x00006570   Section        0  lld_con.o(.text.co_rand_byte)
    co_rand_byte                             0x0000657b   Thumb Code    10  lld_init.o(.text.co_rand_byte)
    [Anonymous Symbol]                       0x0000657a   Section        0  lld_init.o(.text.co_rand_byte)
    co_rand_byte                             0x00006585   Thumb Code    10  lld_per_adv.o(.text.co_rand_byte)
    [Anonymous Symbol]                       0x00006584   Section        0  lld_per_adv.o(.text.co_rand_byte)
    co_rand_byte                             0x0000658f   Thumb Code    10  lld_scan.o(.text.co_rand_byte)
    [Anonymous Symbol]                       0x0000658e   Section        0  lld_scan.o(.text.co_rand_byte)
    co_rand_byte                             0x00006599   Thumb Code    10  lld_sync.o(.text.co_rand_byte)
    [Anonymous Symbol]                       0x00006598   Section        0  lld_sync.o(.text.co_rand_byte)
    co_rand_byte                             0x000065a3   Thumb Code    10  lld_test.o(.text.co_rand_byte)
    [Anonymous Symbol]                       0x000065a2   Section        0  lld_test.o(.text.co_rand_byte)
    co_rand_byte                             0x000065ad   Thumb Code    10  ld_acl.o(.text.co_rand_byte)
    [Anonymous Symbol]                       0x000065ac   Section        0  ld_acl.o(.text.co_rand_byte)
    co_rand_byte                             0x000065b7   Thumb Code    10  ld_bcst.o(.text.co_rand_byte)
    [Anonymous Symbol]                       0x000065b6   Section        0  ld_bcst.o(.text.co_rand_byte)
    co_rand_byte                             0x000065c1   Thumb Code    10  ld_inq.o(.text.co_rand_byte)
    [Anonymous Symbol]                       0x000065c0   Section        0  ld_inq.o(.text.co_rand_byte)
    co_rand_byte                             0x000065cb   Thumb Code    10  ld_iscan.o(.text.co_rand_byte)
    [Anonymous Symbol]                       0x000065ca   Section        0  ld_iscan.o(.text.co_rand_byte)
    co_rand_byte                             0x000065d5   Thumb Code    10  ld_page.o(.text.co_rand_byte)
    [Anonymous Symbol]                       0x000065d4   Section        0  ld_page.o(.text.co_rand_byte)
    co_rand_byte                             0x000065df   Thumb Code    10  ld_pscan.o(.text.co_rand_byte)
    [Anonymous Symbol]                       0x000065de   Section        0  ld_pscan.o(.text.co_rand_byte)
    co_rand_byte                             0x000065e9   Thumb Code    10  ld_test.o(.text.co_rand_byte)
    [Anonymous Symbol]                       0x000065e8   Section        0  ld_test.o(.text.co_rand_byte)
    co_rand_hword                            0x000065f3   Thumb Code    10  lld_adv.o(.text.co_rand_hword)
    [Anonymous Symbol]                       0x000065f2   Section        0  lld_adv.o(.text.co_rand_hword)
    co_read32p                               0x000065fd   Thumb Code    22  rwip_driver.o(.text.co_read32p)
    [Anonymous Symbol]                       0x000065fc   Section        0  rwip_driver.o(.text.co_read32p)
    co_read32p                               0x00006613   Thumb Code    22  ble_util.o(.text.co_read32p)
    [Anonymous Symbol]                       0x00006612   Section        0  ble_util.o(.text.co_read32p)
    [Anonymous Symbol]                       0x00006628   Section        0  co_utils.o(.text.co_slot_to_duration)
    [Anonymous Symbol]                       0x00006638   Section        0  co_time.o(.text.co_time_get)
    __arm_cp.2_1                             0x0000668c   Number         4  co_time.o(.text.co_time_get)
    [Anonymous Symbol]                       0x00006690   Section        0  co_time.o(.text.co_time_init)
    __arm_cp.0_1                             0x000066c8   Number         4  co_time.o(.text.co_time_init)
    __arm_cp.0_2                             0x000066cc   Number         4  co_time.o(.text.co_time_init)
    co_time_sys_timer_update                 0x000066d1   Thumb Code    64  co_time.o(.text.co_time_sys_timer_update)
    [Anonymous Symbol]                       0x000066d0   Section        0  co_time.o(.text.co_time_sys_timer_update)
    __arm_cp.3_1                             0x00006704   Number         4  co_time.o(.text.co_time_sys_timer_update)
    __arm_cp.3_2                             0x00006708   Number         4  co_time.o(.text.co_time_sys_timer_update)
    __arm_cp.3_3                             0x0000670c   Number         4  co_time.o(.text.co_time_sys_timer_update)
    co_timer_extract                         0x00006711   Thumb Code    48  co_time.o(.text.co_timer_extract)
    [Anonymous Symbol]                       0x00006710   Section        0  co_time.o(.text.co_timer_extract)
    co_timer_handler                         0x00006741   Thumb Code    68  co_time.o(.text.co_timer_handler)
    [Anonymous Symbol]                       0x00006740   Section        0  co_time.o(.text.co_timer_handler)
    __arm_cp.1_0                             0x00006780   Number         4  co_time.o(.text.co_timer_handler)
    [Anonymous Symbol]                       0x00006784   Section        0  co_time.o(.text.co_timer_init)
    co_timer_insert                          0x00006791   Thumb Code    64  co_time.o(.text.co_timer_insert)
    [Anonymous Symbol]                       0x00006790   Section        0  co_time.o(.text.co_timer_insert)
    __arm_cp.14_0                            0x000067cc   Number         4  co_time.o(.text.co_timer_insert)
    co_timer_periodic_expires                0x000067d1   Thumb Code    34  co_time.o(.text.co_timer_periodic_expires)
    [Anonymous Symbol]                       0x000067d0   Section        0  co_time.o(.text.co_timer_periodic_expires)
    [Anonymous Symbol]                       0x000067f4   Section        0  co_time.o(.text.co_timer_periodic_init)
    __arm_cp.10_0                            0x00006804   Number         4  co_time.o(.text.co_timer_periodic_init)
    [Anonymous Symbol]                       0x00006808   Section        0  co_time.o(.text.co_timer_periodic_set)
    co_timer_prog                            0x0000681f   Thumb Code    32  co_time.o(.text.co_timer_prog)
    [Anonymous Symbol]                       0x0000681e   Section        0  co_time.o(.text.co_timer_prog)
    [Anonymous Symbol]                       0x0000683e   Section        0  co_time.o(.text.co_timer_set)
    [Anonymous Symbol]                       0x00006852   Section        0  co_time.o(.text.co_timer_stop)
    [Anonymous Symbol]                       0x00006870   Section        0  co_utils.o(.text.co_util_pack)
    co_util_read_array_size                  0x00006af7   Thumb Code    42  co_utils.o(.text.co_util_read_array_size)
    [Anonymous Symbol]                       0x00006af6   Section        0  co_utils.o(.text.co_util_read_array_size)
    [Anonymous Symbol]                       0x00006b20   Section        0  co_utils.o(.text.co_util_unpack)
    co_write32p                              0x00006e1d   Thumb Code    16  ecc_p192.o(.text.co_write32p)
    [Anonymous Symbol]                       0x00006e1c   Section        0  ecc_p192.o(.text.co_write32p)
    co_write32p                              0x00006e2d   Thumb Code    16  ecc_p256.o(.text.co_write32p)
    [Anonymous Symbol]                       0x00006e2c   Section        0  ecc_p256.o(.text.co_write32p)
    co_write32p                              0x00006e3d   Thumb Code    16  lli_bi.o(.text.co_write32p)
    [Anonymous Symbol]                       0x00006e3c   Section        0  lli_bi.o(.text.co_write32p)
    co_write32p                              0x00006e4d   Thumb Code    16  llm_hci.o(.text.co_write32p)
    [Anonymous Symbol]                       0x00006e4c   Section        0  llm_hci.o(.text.co_write32p)
    [Anonymous Symbol]                       0x00006e5c   Section        0  common_task.o(.text.common_task_init)
    __arm_cp.0_0                             0x00006e68   Number         4  common_task.o(.text.common_task_init)
    cvt                                      0x00006e6d   Thumb Code   504  kservice.o(.text.cvt)
    [Anonymous Symbol]                       0x00006e6c   Section        0  kservice.o(.text.cvt)
    __arm_cp.20_0                            0x00007054   Number         4  kservice.o(.text.cvt)
    __arm_cp.20_1                            0x00007058   Number         4  kservice.o(.text.cvt)
    __arm_cp.20_2                            0x0000705c   Number         4  kservice.o(.text.cvt)
    __arm_cp.20_3                            0x00007060   Number         4  kservice.o(.text.cvt)
    [Anonymous Symbol]                       0x00007064   Section        0  data_path.o(.text.data_path_config)
    __arm_cp.1_1                             0x0000709c   Number         4  data_path.o(.text.data_path_config)
    [Anonymous Symbol]                       0x000070a0   Section        0  data_path.o(.text.data_path_init)
    __arm_cp.0_1                             0x000070d8   Number         4  data_path.o(.text.data_path_init)
    [Anonymous Symbol]                       0x000070dc   Section        0  data_path.o(.text.data_path_is_disabled)
    __arm_cp.3_0                             0x00007114   Number         4  data_path.o(.text.data_path_is_disabled)
    __arm_cp.3_1                             0x00007118   Number         4  data_path.o(.text.data_path_is_disabled)
    __arm_cp.3_2                             0x0000711c   Number         4  data_path.o(.text.data_path_is_disabled)
    [Anonymous Symbol]                       0x00007120   Section        0  dbg.o(.text.dbg_platform_reset_complete)
    [Anonymous Symbol]                       0x00007150   Section        0  dbg_trc_tl.o(.text.dbg_trc_cfg_received)
    [Anonymous Symbol]                       0x00007198   Section        0  dbg_trc_mem.o(.text.dbg_trc_mem_alloc)
    __arm_cp.1_0                             0x00007250   Number         4  dbg_trc_mem.o(.text.dbg_trc_mem_alloc)
    [Anonymous Symbol]                       0x00007254   Section        0  dbg_trc_tl.o(.text.dbg_trc_pay_buff_get)
    __arm_cp.5_0                             0x0000725c   Number         4  dbg_trc_tl.o(.text.dbg_trc_pay_buff_get)
    [Anonymous Symbol]                       0x00007260   Section        0  dbg_trc.o(.text.dbg_trc_req_hci_acl_data)
    [Anonymous Symbol]                       0x000072b4   Section        0  dbg_trc.o(.text.dbg_trc_req_hci_cmd)
    [Anonymous Symbol]                       0x000072f4   Section        0  dbg_trc.o(.text.dbg_trc_req_hci_evt)
    __arm_cp.1_0                             0x00007334   Number         4  dbg_trc.o(.text.dbg_trc_req_hci_evt)
    __arm_cp.1_1                             0x00007338   Number         4  dbg_trc.o(.text.dbg_trc_req_hci_evt)
    divideByTwo256                           0x0000733d   Thumb Code    36  ecc_p256.o(.text.divideByTwo256)
    [Anonymous Symbol]                       0x0000733c   Section        0  ecc_p256.o(.text.divideByTwo256)
    [Anonymous Symbol]                       0x00007360   Section        0  rwip_driver.o(.text.dm_isr)
    __arm_cp.21_0                            0x00007628   Number         4  rwip_driver.o(.text.dm_isr)
    __arm_cp.21_1                            0x0000762c   Number         4  rwip_driver.o(.text.dm_isr)
    __arm_cp.21_2                            0x00007630   Number         4  rwip_driver.o(.text.dm_isr)
    __arm_cp.21_3                            0x00007634   Number         4  rwip_driver.o(.text.dm_isr)
    __arm_cp.21_4                            0x00007638   Number         4  rwip_driver.o(.text.dm_isr)
    __arm_cp.21_5                            0x0000763c   Number         4  rwip_driver.o(.text.dm_isr)
    __arm_cp.21_6                            0x00007640   Number         4  rwip_driver.o(.text.dm_isr)
    __arm_cp.21_7                            0x00007644   Number         4  rwip_driver.o(.text.dm_isr)
    __arm_cp.21_8                            0x00007648   Number         4  rwip_driver.o(.text.dm_isr)
    __arm_cp.21_9                            0x0000764c   Number         4  rwip_driver.o(.text.dm_isr)
    ecc_gen_key192                           0x00007651   Thumb Code   444  ecc_p192.o(.text.ecc_gen_key192)
    [Anonymous Symbol]                       0x00007650   Section        0  ecc_p192.o(.text.ecc_gen_key192)
    __arm_cp.5_0                             0x000077f8   Number         4  ecc_p192.o(.text.ecc_gen_key192)
    __arm_cp.5_1                             0x000077fc   Number         4  ecc_p192.o(.text.ecc_gen_key192)
    __arm_cp.5_2                             0x00007800   Number         4  ecc_p192.o(.text.ecc_gen_key192)
    __arm_cp.5_3                             0x00007804   Number         4  ecc_p192.o(.text.ecc_gen_key192)
    __arm_cp.5_4                             0x00007808   Number         4  ecc_p192.o(.text.ecc_gen_key192)
    ecc_gen_key256                           0x0000780d   Thumb Code   536  ecc_p256.o(.text.ecc_gen_key256)
    [Anonymous Symbol]                       0x0000780c   Section        0  ecc_p256.o(.text.ecc_gen_key256)
    __arm_cp.29_0                            0x00007a10   Number         4  ecc_p256.o(.text.ecc_gen_key256)
    __arm_cp.29_1                            0x00007a14   Number         4  ecc_p256.o(.text.ecc_gen_key256)
    __arm_cp.29_2                            0x00007a18   Number         4  ecc_p256.o(.text.ecc_gen_key256)
    __arm_cp.29_3                            0x00007a1c   Number         4  ecc_p256.o(.text.ecc_gen_key256)
    __arm_cp.29_5                            0x00007a20   Number         4  ecc_p256.o(.text.ecc_gen_key256)
    ecc_multiplication_event_handler         0x00007a25   Thumb Code   628  ecc_p256.o(.text.ecc_multiplication_event_handler)
    [Anonymous Symbol]                       0x00007a24   Section        0  ecc_p256.o(.text.ecc_multiplication_event_handler)
    __arm_cp.26_0                            0x00007c90   Number         4  ecc_p256.o(.text.ecc_multiplication_event_handler)
    __arm_cp.26_1                            0x00007c94   Number         4  ecc_p256.o(.text.ecc_multiplication_event_handler)
    [Anonymous Symbol]                       0x00007c98   Section        0  ecc_p192.o(.text.ecc_p192_abort_key_gen)
    __arm_cp.8_0                             0x00007cd0   Number         4  ecc_p192.o(.text.ecc_p192_abort_key_gen)
    __arm_cp.8_1                             0x00007cd4   Number         4  ecc_p192.o(.text.ecc_p192_abort_key_gen)
    ecc_p192_add                             0x00007cd9   Thumb Code   700  ecc_p192.o(.text.ecc_p192_add)
    [Anonymous Symbol]                       0x00007cd8   Section        0  ecc_p192.o(.text.ecc_p192_add)
    __arm_cp.14_0                            0x00007f90   Number         4  ecc_p192.o(.text.ecc_p192_add)
    ecc_p192_convert_u32_to_u8               0x00007f95   Thumb Code    22  ecc_p192.o(.text.ecc_p192_convert_u32_to_u8)
    [Anonymous Symbol]                       0x00007f94   Section        0  ecc_p192.o(.text.ecc_p192_convert_u32_to_u8)
    ecc_p192_convert_u8_to_u32               0x00007fab   Thumb Code    16  ecc_p192.o(.text.ecc_p192_convert_u8_to_u32)
    [Anonymous Symbol]                       0x00007faa   Section        0  ecc_p192.o(.text.ecc_p192_convert_u8_to_u32)
    ecc_p192_dbl                             0x00007fbd   Thumb Code   408  ecc_p192.o(.text.ecc_p192_dbl)
    [Anonymous Symbol]                       0x00007fbc   Section        0  ecc_p192.o(.text.ecc_p192_dbl)
    __arm_cp.12_0                            0x00008150   Number         4  ecc_p192.o(.text.ecc_p192_dbl)
    [Anonymous Symbol]                       0x00008154   Section        0  ecc_p192.o(.text.ecc_p192_gen_dh_key)
    [Anonymous Symbol]                       0x00008164   Section        0  ecc_p192.o(.text.ecc_p192_gen_key_pair)
    ecc_p192_debug_priv_key                  0x000081bc   Number         0  ecc_p192.o(.text.ecc_p192_gen_key_pair)
    [Anonymous Symbol]                       0x000081d4   Section        0  ecc_p192.o(.text.ecc_p192_gen_new_public_key)
    __arm_cp.4_0                             0x000081e8   Number         4  ecc_p192.o(.text.ecc_p192_gen_new_public_key)
    __arm_cp.4_1                             0x000081ec   Number         4  ecc_p192.o(.text.ecc_p192_gen_new_public_key)
    [Anonymous Symbol]                       0x000081f0   Section        0  ecc_p192.o(.text.ecc_p192_gen_new_secret_key)
    __arm_cp.2_0                             0x00008270   Number         4  ecc_p192.o(.text.ecc_p192_gen_new_secret_key)
    __arm_cp.2_1                             0x00008274   Number         4  ecc_p192.o(.text.ecc_p192_gen_new_secret_key)
    ecc_p192_max_secret_key                  0x00008278   Number         0  ecc_p192.o(.text.ecc_p192_gen_new_secret_key)
    [Anonymous Symbol]                       0x00008290   Section        0  ecc_p192.o(.text.ecc_p192_get_debug_pub_key_x)
    __arm_cp.9_0                             0x00008294   Number         4  ecc_p192.o(.text.ecc_p192_get_debug_pub_key_x)
    [Anonymous Symbol]                       0x00008298   Section        0  ecc_p192.o(.text.ecc_p192_get_debug_pub_key_y)
    __arm_cp.10_0                            0x0000829c   Number         4  ecc_p192.o(.text.ecc_p192_get_debug_pub_key_y)
    [Anonymous Symbol]                       0x000082a0   Section        0  ecc_p192.o(.text.ecc_p192_init)
    __arm_cp.0_0                             0x000082d4   Number         4  ecc_p192.o(.text.ecc_p192_init)
    __arm_cp.0_1                             0x000082d8   Number         4  ecc_p192.o(.text.ecc_p192_init)
    ecc_p192_invert                          0x000082dd   Thumb Code    64  ecc_p192.o(.text.ecc_p192_invert)
    [Anonymous Symbol]                       0x000082dc   Section        0  ecc_p192.o(.text.ecc_p192_invert)
    ecc_p192_is_point_at_inf                 0x0000831d   Thumb Code     8  ecc_p192.o(.text.ecc_p192_is_point_at_inf)
    [Anonymous Symbol]                       0x0000831c   Section        0  ecc_p192.o(.text.ecc_p192_is_point_at_inf)
    ecc_p192_is_point_valid                  0x00008325   Thumb Code   180  ecc_p192.o(.text.ecc_p192_is_point_valid)
    [Anonymous Symbol]                       0x00008324   Section        0  ecc_p192.o(.text.ecc_p192_is_point_valid)
    __arm_cp.45_1                            0x000083d0   Number         4  ecc_p192.o(.text.ecc_p192_is_point_valid)
    __arm_cp.45_2                            0x000083d4   Number         4  ecc_p192.o(.text.ecc_p192_is_point_valid)
    ecc_p192_multiplication_event_handler    0x000083d9   Thumb Code   416  ecc_p192.o(.text.ecc_p192_multiplication_event_handler)
    [Anonymous Symbol]                       0x000083d8   Section        0  ecc_p192.o(.text.ecc_p192_multiplication_event_handler)
    __arm_cp.1_0                             0x0000856c   Number         4  ecc_p192.o(.text.ecc_p192_multiplication_event_handler)
    __arm_cp.1_1                             0x00008570   Number         4  ecc_p192.o(.text.ecc_p192_multiplication_event_handler)
    __arm_cp.1_2                             0x00008574   Number         4  ecc_p192.o(.text.ecc_p192_multiplication_event_handler)
    ecc_p192_n192_384_cmp                    0x00008579   Thumb Code    14  ecc_p192.o(.text.ecc_p192_n192_384_cmp)
    [Anonymous Symbol]                       0x00008578   Section        0  ecc_p192.o(.text.ecc_p192_n192_384_cmp)
    ecc_p192_n192_384_ucmp                   0x00008589   Thumb Code    32  ecc_p192.o(.text.ecc_p192_n192_384_ucmp)
    [Anonymous Symbol]                       0x00008588   Section        0  ecc_p192.o(.text.ecc_p192_n192_384_ucmp)
    ecc_p192_n192_add                        0x000085a9   Thumb Code    88  ecc_p192.o(.text.ecc_p192_n192_add)
    [Anonymous Symbol]                       0x000085a8   Section        0  ecc_p192.o(.text.ecc_p192_n192_add)
    __arm_cp.38_0                            0x000085fc   Number         4  ecc_p192.o(.text.ecc_p192_n192_add)
    ecc_p192_n192_lshift1                    0x00008601   Thumb Code    64  ecc_p192.o(.text.ecc_p192_n192_lshift1)
    [Anonymous Symbol]                       0x00008600   Section        0  ecc_p192.o(.text.ecc_p192_n192_lshift1)
    ecc_p192_n192_mod_add                    0x00008641   Thumb Code    70  ecc_p192.o(.text.ecc_p192_n192_mod_add)
    [Anonymous Symbol]                       0x00008640   Section        0  ecc_p192.o(.text.ecc_p192_n192_mod_add)
    ecc_p192_n192_mod_inverse                0x00008689   Thumb Code   432  ecc_p192.o(.text.ecc_p192_n192_mod_inverse)
    [Anonymous Symbol]                       0x00008688   Section        0  ecc_p192.o(.text.ecc_p192_n192_mod_inverse)
    __arm_cp.41_0                            0x00008834   Number         4  ecc_p192.o(.text.ecc_p192_n192_mod_inverse)
    ecc_p192_n192_mod_lshift1_quick          0x00008839   Thumb Code    66  ecc_p192.o(.text.ecc_p192_n192_mod_lshift1_quick)
    [Anonymous Symbol]                       0x00008838   Section        0  ecc_p192.o(.text.ecc_p192_n192_mod_lshift1_quick)
    ecc_p192_n192_mod_lshift_quick           0x0000887b   Thumb Code   240  ecc_p192.o(.text.ecc_p192_n192_mod_lshift_quick)
    [Anonymous Symbol]                       0x0000887a   Section        0  ecc_p192.o(.text.ecc_p192_n192_mod_lshift_quick)
    ecc_p192_n192_mod_mul                    0x0000896b   Thumb Code   174  ecc_p192.o(.text.ecc_p192_n192_mod_mul)
    [Anonymous Symbol]                       0x0000896a   Section        0  ecc_p192.o(.text.ecc_p192_n192_mod_mul)
    ecc_p192_n192_mod_sqr                    0x00008a19   Thumb Code    38  ecc_p192.o(.text.ecc_p192_n192_mod_sqr)
    [Anonymous Symbol]                       0x00008a18   Section        0  ecc_p192.o(.text.ecc_p192_n192_mod_sqr)
    ecc_p192_n192_mod_sub                    0x00008a3f   Thumb Code   152  ecc_p192.o(.text.ecc_p192_n192_mod_sub)
    [Anonymous Symbol]                       0x00008a3e   Section        0  ecc_p192.o(.text.ecc_p192_n192_mod_sub)
    ecc_p192_n192_n_mod                      0x00008ad9   Thumb Code   304  ecc_p192.o(.text.ecc_p192_n192_n_mod)
    [Anonymous Symbol]                       0x00008ad8   Section        0  ecc_p192.o(.text.ecc_p192_n192_n_mod)
    __arm_cp.25_0                            0x00008c04   Number         4  ecc_p192.o(.text.ecc_p192_n192_n_mod)
    ecc_p192_n192_rshift                     0x00008c09   Thumb Code    98  ecc_p192.o(.text.ecc_p192_n192_rshift)
    [Anonymous Symbol]                       0x00008c08   Section        0  ecc_p192.o(.text.ecc_p192_n192_rshift)
    ecc_p192_n192_rshift1                    0x00008c6b   Thumb Code    74  ecc_p192.o(.text.ecc_p192_n192_rshift1)
    [Anonymous Symbol]                       0x00008c6a   Section        0  ecc_p192.o(.text.ecc_p192_n192_rshift1)
    ecc_p192_n192_sqr                        0x00008cb5   Thumb Code   220  ecc_p192.o(.text.ecc_p192_n192_sqr)
    [Anonymous Symbol]                       0x00008cb4   Section        0  ecc_p192.o(.text.ecc_p192_n192_sqr)
    ecc_p192_n192_uadd                       0x00008d91   Thumb Code    30  ecc_p192.o(.text.ecc_p192_n192_uadd)
    [Anonymous Symbol]                       0x00008d90   Section        0  ecc_p192.o(.text.ecc_p192_n192_uadd)
    ecc_p192_n192_ucmp                       0x00008daf   Thumb Code    36  ecc_p192.o(.text.ecc_p192_n192_ucmp)
    [Anonymous Symbol]                       0x00008dae   Section        0  ecc_p192.o(.text.ecc_p192_n192_ucmp)
    ecc_p192_n192_usub                       0x00008dd3   Thumb Code    32  ecc_p192.o(.text.ecc_p192_n192_usub)
    [Anonymous Symbol]                       0x00008dd2   Section        0  ecc_p192.o(.text.ecc_p192_n192_usub)
    ecc_p192_n384_192_sub                    0x00008df5   Thumb Code    40  ecc_p192.o(.text.ecc_p192_n384_192_sub)
    [Anonymous Symbol]                       0x00008df4   Section        0  ecc_p192.o(.text.ecc_p192_n384_192_sub)
    __arm_cp.36_0                            0x00008e18   Number         4  ecc_p192.o(.text.ecc_p192_n384_192_sub)
    ecc_p192_n_get_words                     0x00008e1d   Thumb Code    34  ecc_p192.o(.text.ecc_p192_n_get_words)
    [Anonymous Symbol]                       0x00008e1c   Section        0  ecc_p192.o(.text.ecc_p192_n_get_words)
    ecc_p192_n_is_one                        0x00008e3f   Thumb Code    32  ecc_p192.o(.text.ecc_p192_n_is_one)
    [Anonymous Symbol]                       0x00008e3e   Section        0  ecc_p192.o(.text.ecc_p192_n_is_one)
    ecc_p192_n_is_set                        0x00008e5f   Thumb Code    28  ecc_p192.o(.text.ecc_p192_n_is_set)
    [Anonymous Symbol]                       0x00008e5e   Section        0  ecc_p192.o(.text.ecc_p192_n_is_set)
    ecc_p192_n_is_zero                       0x00008e7b   Thumb Code    34  ecc_p192.o(.text.ecc_p192_n_is_zero)
    [Anonymous Symbol]                       0x00008e7a   Section        0  ecc_p192.o(.text.ecc_p192_n_is_zero)
    ecc_p192_n_num_bits                      0x00008e9d   Thumb Code   132  ecc_p192.o(.text.ecc_p192_n_num_bits)
    [Anonymous Symbol]                       0x00008e9c   Section        0  ecc_p192.o(.text.ecc_p192_n_num_bits)
    ecc_p192_points_jacobian_to_affine       0x00008f21   Thumb Code   316  ecc_p192.o(.text.ecc_p192_points_jacobian_to_affine)
    [Anonymous Symbol]                       0x00008f20   Section        0  ecc_p192.o(.text.ecc_p192_points_jacobian_to_affine)
    __arm_cp.46_0                            0x00009058   Number         4  ecc_p192.o(.text.ecc_p192_points_jacobian_to_affine)
    ecc_p192_word_add                        0x0000905d   Thumb Code    48  ecc_p192.o(.text.ecc_p192_word_add)
    [Anonymous Symbol]                       0x0000905c   Section        0  ecc_p192.o(.text.ecc_p192_word_add)
    ecc_p192_word_mul                        0x0000908d   Thumb Code    86  ecc_p192.o(.text.ecc_p192_word_mul)
    [Anonymous Symbol]                       0x0000908c   Section        0  ecc_p192.o(.text.ecc_p192_word_mul)
    ecc_p192_word_mul_add                    0x000090e3   Thumb Code    90  ecc_p192.o(.text.ecc_p192_word_mul_add)
    [Anonymous Symbol]                       0x000090e2   Section        0  ecc_p192.o(.text.ecc_p192_word_mul_add)
    ecc_p192_word_sub                        0x0000913d   Thumb Code    50  ecc_p192.o(.text.ecc_p192_word_sub)
    [Anonymous Symbol]                       0x0000913c   Section        0  ecc_p192.o(.text.ecc_p192_word_sub)
    [Anonymous Symbol]                       0x00009170   Section        0  ecc_p256.o(.text.ecc_p256_abort_key_gen)
    [Anonymous Symbol]                       0x000091b4   Section        0  ecc_p256.o(.text.ecc_p256_gen_dh_key)
    [Anonymous Symbol]                       0x000091d4   Section        0  ecc_p256.o(.text.ecc_p256_gen_key_pair)
    [Anonymous Symbol]                       0x00009220   Section        0  ecc_p256.o(.text.ecc_p256_gen_new_public_key)
    __arm_cp.28_0                            0x0000923c   Number         4  ecc_p256.o(.text.ecc_p256_gen_new_public_key)
    __arm_cp.28_1                            0x00009240   Number         4  ecc_p256.o(.text.ecc_p256_gen_new_public_key)
    [Anonymous Symbol]                       0x00009244   Section        0  ecc_p256.o(.text.ecc_p256_gen_new_secret_key)
    __arm_cp.31_0                            0x000092e4   Number         4  ecc_p256.o(.text.ecc_p256_gen_new_secret_key)
    __arm_cp.31_1                            0x000092e8   Number         4  ecc_p256.o(.text.ecc_p256_gen_new_secret_key)
    maxSecretKey_256                         0x000092ec   Number         0  ecc_p256.o(.text.ecc_p256_gen_new_secret_key)
    [Anonymous Symbol]                       0x0000930c   Section        0  ecc_p256.o(.text.ecc_p256_get_debug_priv_key)
    __arm_cp.34_0                            0x00009310   Number         4  ecc_p256.o(.text.ecc_p256_get_debug_priv_key)
    [Anonymous Symbol]                       0x00009314   Section        0  ecc_p256.o(.text.ecc_p256_get_debug_pub_key_x)
    __arm_cp.35_0                            0x00009318   Number         4  ecc_p256.o(.text.ecc_p256_get_debug_pub_key_x)
    [Anonymous Symbol]                       0x0000931c   Section        0  ecc_p256.o(.text.ecc_p256_get_debug_pub_key_y)
    __arm_cp.36_0                            0x00009320   Number         4  ecc_p256.o(.text.ecc_p256_get_debug_pub_key_y)
    [Anonymous Symbol]                       0x00009324   Section        0  ecc_p256.o(.text.ecc_p256_init)
    __arm_cp.25_0                            0x00009364   Number         4  ecc_p256.o(.text.ecc_p256_init)
    __arm_cp.25_1                            0x00009368   Number         4  ecc_p256.o(.text.ecc_p256_init)
    __arm_cp.25_2                            0x0000936c   Number         4  ecc_p256.o(.text.ecc_p256_init)
    __arm_cp.25_3                            0x00009370   Number         4  ecc_p256.o(.text.ecc_p256_init)
    em_ble_chmap2_ch_aux_setf                0x00009375   Thumb Code    28  lld_adv.o(.text.em_ble_chmap2_ch_aux_setf)
    [Anonymous Symbol]                       0x00009374   Section        0  lld_adv.o(.text.em_ble_chmap2_ch_aux_setf)
    em_ble_chmap2_ch_aux_setf                0x00009391   Thumb Code    32  lld_per_adv.o(.text.em_ble_chmap2_ch_aux_setf)
    [Anonymous Symbol]                       0x00009390   Section        0  lld_per_adv.o(.text.em_ble_chmap2_ch_aux_setf)
    __arm_cp.19_1                            0x000093ac   Number         4  lld_per_adv.o(.text.em_ble_chmap2_ch_aux_setf)
    em_ble_filtpol_ralcntl_pack              0x000093b1   Thumb Code    40  lld_scan.o(.text.em_ble_filtpol_ralcntl_pack)
    [Anonymous Symbol]                       0x000093b0   Section        0  lld_scan.o(.text.em_ble_filtpol_ralcntl_pack)
    em_ble_filtpol_ralcntl_peradv_filt_en_setf 0x000093d9   Thumb Code    32  lld_scan.o(.text.em_ble_filtpol_ralcntl_peradv_filt_en_setf)
    [Anonymous Symbol]                       0x000093d8   Section        0  lld_scan.o(.text.em_ble_filtpol_ralcntl_peradv_filt_en_setf)
    __arm_cp.14_1                            0x000093f4   Number         4  lld_scan.o(.text.em_ble_filtpol_ralcntl_peradv_filt_en_setf)
    em_ble_isoevtcntl_subevtcnt_setf         0x000093f9   Thumb Code    28  lld_bi.o(.text.em_ble_isoevtcntl_subevtcnt_setf)
    [Anonymous Symbol]                       0x000093f8   Section        0  lld_bi.o(.text.em_ble_isoevtcntl_subevtcnt_setf)
    __arm_cp.26_1                            0x00009410   Number         4  lld_bi.o(.text.em_ble_isoevtcntl_subevtcnt_setf)
    em_ble_list_info_idtype_setf             0x00009415   Thumb Code    28  lld.o(.text.em_ble_list_info_idtype_setf)
    [Anonymous Symbol]                       0x00009414   Section        0  lld.o(.text.em_ble_list_info_idtype_setf)
    em_ble_ral_info_local_rpa_valid_getf     0x00009431   Thumb Code    24  llm_scan.o(.text.em_ble_ral_info_local_rpa_valid_getf)
    [Anonymous Symbol]                       0x00009430   Section        0  llm_scan.o(.text.em_ble_ral_info_local_rpa_valid_getf)
    em_ble_ral_info_peer_irk_valid_getf      0x00009449   Thumb Code    24  lld_adv.o(.text.em_ble_ral_info_peer_irk_valid_getf)
    [Anonymous Symbol]                       0x00009448   Section        0  lld_adv.o(.text.em_ble_ral_info_peer_irk_valid_getf)
    em_ble_ral_info_peer_rpa_valid_getf      0x00009461   Thumb Code    24  llm_scan.o(.text.em_ble_ral_info_peer_rpa_valid_getf)
    [Anonymous Symbol]                       0x00009460   Section        0  llm_scan.o(.text.em_ble_ral_info_peer_rpa_valid_getf)
    em_ble_rxisobufsetup_unpack              0x00009479   Thumb Code    32  lld_isoal.o(.text.em_ble_rxisobufsetup_unpack)
    [Anonymous Symbol]                       0x00009478   Section        0  lld_isoal.o(.text.em_ble_rxisobufsetup_unpack)
    em_ble_rxphadv_rxchsel2_getf             0x00009499   Thumb Code    24  lld_adv.o(.text.em_ble_rxphadv_rxchsel2_getf)
    [Anonymous Symbol]                       0x00009498   Section        0  lld_adv.o(.text.em_ble_rxphadv_rxchsel2_getf)
    em_ble_rxphadv_rxrxadd_getf              0x000094b1   Thumb Code    24  lld_scan.o(.text.em_ble_rxphadv_rxrxadd_getf)
    [Anonymous Symbol]                       0x000094b0   Section        0  lld_scan.o(.text.em_ble_rxphadv_rxrxadd_getf)
    em_ble_rxphadv_rxtxadd_getf              0x000094c9   Thumb Code    24  lld_adv.o(.text.em_ble_rxphadv_rxtxadd_getf)
    [Anonymous Symbol]                       0x000094c8   Section        0  lld_adv.o(.text.em_ble_rxphadv_rxtxadd_getf)
    em_ble_rxphadv_rxtxadd_getf              0x000094e1   Thumb Code    24  lld_init.o(.text.em_ble_rxphadv_rxtxadd_getf)
    [Anonymous Symbol]                       0x000094e0   Section        0  lld_init.o(.text.em_ble_rxphadv_rxtxadd_getf)
    em_ble_rxphadv_rxtxadd_getf              0x000094f9   Thumb Code    24  lld_scan.o(.text.em_ble_rxphadv_rxtxadd_getf)
    [Anonymous Symbol]                       0x000094f8   Section        0  lld_scan.o(.text.em_ble_rxphadv_rxtxadd_getf)
    em_ble_rxstatadv_in_whl_getf             0x00009511   Thumb Code    24  lld_scan.o(.text.em_ble_rxstatadv_in_whl_getf)
    [Anonymous Symbol]                       0x00009510   Section        0  lld_scan.o(.text.em_ble_rxstatadv_in_whl_getf)
    em_ble_txaeheader_txauxptr_getf          0x00009529   Thumb Code    20  lld_adv.o(.text.em_ble_txaeheader_txauxptr_getf)
    [Anonymous Symbol]                       0x00009528   Section        0  lld_adv.o(.text.em_ble_txaeheader_txauxptr_getf)
    em_ble_txauxptr0_pack                    0x0000953d   Thumb Code    32  lld_adv.o(.text.em_ble_txauxptr0_pack)
    [Anonymous Symbol]                       0x0000953c   Section        0  lld_adv.o(.text.em_ble_txauxptr0_pack)
    em_ble_txauxptr0_tx_ll_ch_setf           0x0000955d   Thumb Code    24  lld_adv.o(.text.em_ble_txauxptr0_tx_ll_ch_setf)
    [Anonymous Symbol]                       0x0000955c   Section        0  lld_adv.o(.text.em_ble_txauxptr0_tx_ll_ch_setf)
    em_ble_txauxptr0_tx_ll_ch_setf           0x00009575   Thumb Code    24  lld_per_adv.o(.text.em_ble_txauxptr0_tx_ll_ch_setf)
    [Anonymous Symbol]                       0x00009574   Section        0  lld_per_adv.o(.text.em_ble_txauxptr0_tx_ll_ch_setf)
    em_ble_txcntl_nextptr_setf               0x0000958d   Thumb Code    28  lld_adv.o(.text.em_ble_txcntl_nextptr_setf)
    [Anonymous Symbol]                       0x0000958c   Section        0  lld_adv.o(.text.em_ble_txcntl_nextptr_setf)
    __arm_cp.7_1                             0x000095a4   Number         4  lld_adv.o(.text.em_ble_txcntl_nextptr_setf)
    em_ble_txphadv_pack                      0x000095a9   Thumb Code    36  lld_adv.o(.text.em_ble_txphadv_pack)
    [Anonymous Symbol]                       0x000095a8   Section        0  lld_adv.o(.text.em_ble_txphadv_pack)
    em_ble_txphadv_txadvlen_setf             0x000095cd   Thumb Code    24  lld_adv.o(.text.em_ble_txphadv_txadvlen_setf)
    [Anonymous Symbol]                       0x000095cc   Section        0  lld_adv.o(.text.em_ble_txphadv_txadvlen_setf)
    em_ble_txphce_pack                       0x000095e5   Thumb Code    24  lld_con.o(.text.em_ble_txphce_pack)
    [Anonymous Symbol]                       0x000095e4   Section        0  lld_con.o(.text.em_ble_txphce_pack)
    em_bt_aclrxstat_rxid_getf                0x000095fd   Thumb Code    32  ld_page.o(.text.em_bt_aclrxstat_rxid_getf)
    [Anonymous Symbol]                       0x000095fc   Section        0  ld_page.o(.text.em_bt_aclrxstat_rxid_getf)
    __arm_cp.11_0                            0x00009614   Number         4  ld_page.o(.text.em_bt_aclrxstat_rxid_getf)
    __arm_cp.11_1                            0x00009618   Number         4  ld_page.o(.text.em_bt_aclrxstat_rxid_getf)
    em_bt_acltxstat_waitack_getf             0x0000961d   Thumb Code    32  ld_acl.o(.text.em_bt_acltxstat_waitack_getf)
    [Anonymous Symbol]                       0x0000961c   Section        0  ld_acl.o(.text.em_bt_acltxstat_waitack_getf)
    __arm_cp.22_0                            0x00009638   Number         4  ld_acl.o(.text.em_bt_acltxstat_waitack_getf)
    em_bt_bdaddr_setf                        0x0000963d   Thumb Code    32  ld_acl.o(.text.em_bt_bdaddr_setf)
    [Anonymous Symbol]                       0x0000963c   Section        0  ld_acl.o(.text.em_bt_bdaddr_setf)
    __arm_cp.83_0                            0x00009658   Number         4  ld_acl.o(.text.em_bt_bdaddr_setf)
    em_bt_chmap0_setf                        0x0000965d   Thumb Code    32  ld_acl.o(.text.em_bt_chmap0_setf)
    [Anonymous Symbol]                       0x0000965c   Section        0  ld_acl.o(.text.em_bt_chmap0_setf)
    __arm_cp.67_0                            0x00009678   Number         4  ld_acl.o(.text.em_bt_chmap0_setf)
    em_bt_chmap1_setf                        0x0000967d   Thumb Code    32  ld_acl.o(.text.em_bt_chmap1_setf)
    [Anonymous Symbol]                       0x0000967c   Section        0  ld_acl.o(.text.em_bt_chmap1_setf)
    __arm_cp.68_0                            0x00009698   Number         4  ld_acl.o(.text.em_bt_chmap1_setf)
    em_bt_chmap2_setf                        0x0000969d   Thumb Code    32  ld_acl.o(.text.em_bt_chmap2_setf)
    [Anonymous Symbol]                       0x0000969c   Section        0  ld_acl.o(.text.em_bt_chmap2_setf)
    __arm_cp.69_0                            0x000096b8   Number         4  ld_acl.o(.text.em_bt_chmap2_setf)
    em_bt_chmap3_setf                        0x000096bd   Thumb Code    32  ld_acl.o(.text.em_bt_chmap3_setf)
    [Anonymous Symbol]                       0x000096bc   Section        0  ld_acl.o(.text.em_bt_chmap3_setf)
    __arm_cp.70_0                            0x000096d8   Number         4  ld_acl.o(.text.em_bt_chmap3_setf)
    em_bt_chmap4_setf                        0x000096dd   Thumb Code    32  ld_acl.o(.text.em_bt_chmap4_setf)
    [Anonymous Symbol]                       0x000096dc   Section        0  ld_acl.o(.text.em_bt_chmap4_setf)
    __arm_cp.71_0                            0x000096f8   Number         4  ld_acl.o(.text.em_bt_chmap4_setf)
    em_bt_clkoff0_getf                       0x000096fd   Thumb Code    24  ld_acl.o(.text.em_bt_clkoff0_getf)
    [Anonymous Symbol]                       0x000096fc   Section        0  ld_acl.o(.text.em_bt_clkoff0_getf)
    em_bt_clkoff0_setf                       0x00009715   Thumb Code    32  ld_acl.o(.text.em_bt_clkoff0_setf)
    [Anonymous Symbol]                       0x00009714   Section        0  ld_acl.o(.text.em_bt_clkoff0_setf)
    __arm_cp.53_0                            0x00009730   Number         4  ld_acl.o(.text.em_bt_clkoff0_setf)
    em_bt_clkoff1_getf                       0x00009735   Thumb Code    24  ld_acl.o(.text.em_bt_clkoff1_getf)
    [Anonymous Symbol]                       0x00009734   Section        0  ld_acl.o(.text.em_bt_clkoff1_getf)
    em_bt_clkoff1_setf                       0x0000974d   Thumb Code    32  ld_acl.o(.text.em_bt_clkoff1_setf)
    [Anonymous Symbol]                       0x0000974c   Section        0  ld_acl.o(.text.em_bt_clkoff1_setf)
    __arm_cp.54_0                            0x00009768   Number         4  ld_acl.o(.text.em_bt_clkoff1_setf)
    em_bt_frcntl_fpoll_setf                  0x0000976d   Thumb Code    44  ld_acl.o(.text.em_bt_frcntl_fpoll_setf)
    [Anonymous Symbol]                       0x0000976c   Section        0  ld_acl.o(.text.em_bt_frcntl_fpoll_setf)
    __arm_cp.58_0                            0x00009794   Number         4  ld_acl.o(.text.em_bt_frcntl_fpoll_setf)
    em_bt_frcntl_sam_en_setf                 0x00009799   Thumb Code    44  ld_acl.o(.text.em_bt_frcntl_sam_en_setf)
    [Anonymous Symbol]                       0x00009798   Section        0  ld_acl.o(.text.em_bt_frcntl_sam_en_setf)
    __arm_cp.8_0                             0x000097c0   Number         4  ld_acl.o(.text.em_bt_frcntl_sam_en_setf)
    em_bt_iv_setf                            0x000097c5   Thumb Code    32  ld_acl.o(.text.em_bt_iv_setf)
    [Anonymous Symbol]                       0x000097c4   Section        0  ld_acl.o(.text.em_bt_iv_setf)
    __arm_cp.106_0                           0x000097e0   Number         4  ld_acl.o(.text.em_bt_iv_setf)
    em_bt_linkcntl_acledr_setf               0x000097e5   Thumb Code    40  ld_acl.o(.text.em_bt_linkcntl_acledr_setf)
    [Anonymous Symbol]                       0x000097e4   Section        0  ld_acl.o(.text.em_bt_linkcntl_acledr_setf)
    em_bt_linkcntl_aclltaddr_getf            0x0000980d   Thumb Code    28  ld_acl.o(.text.em_bt_linkcntl_aclltaddr_getf)
    [Anonymous Symbol]                       0x0000980c   Section        0  ld_acl.o(.text.em_bt_linkcntl_aclltaddr_getf)
    em_bt_linkcntl_afhena_setf               0x00009829   Thumb Code    40  ld_acl.o(.text.em_bt_linkcntl_afhena_setf)
    [Anonymous Symbol]                       0x00009828   Section        0  ld_acl.o(.text.em_bt_linkcntl_afhena_setf)
    em_bt_linkcntl_iqval_setf                0x00009851   Thumb Code    32  rf_bf_dual_fpga.o(.text.em_bt_linkcntl_iqval_setf)
    [Anonymous Symbol]                       0x00009850   Section        0  rf_bf_dual_fpga.o(.text.em_bt_linkcntl_iqval_setf)
    __arm_cp.15_0                            0x0000986c   Number         4  rf_bf_dual_fpga.o(.text.em_bt_linkcntl_iqval_setf)
    em_bt_linkcntl_laap_setf                 0x00009871   Thumb Code    40  ld_acl.o(.text.em_bt_linkcntl_laap_setf)
    [Anonymous Symbol]                       0x00009870   Section        0  ld_acl.o(.text.em_bt_linkcntl_laap_setf)
    em_bt_linkcntl_whdsb_setf                0x00009899   Thumb Code    44  ld_acl.o(.text.em_bt_linkcntl_whdsb_setf)
    [Anonymous Symbol]                       0x00009898   Section        0  ld_acl.o(.text.em_bt_linkcntl_whdsb_setf)
    __arm_cp.25_0                            0x000098c0   Number         4  ld_acl.o(.text.em_bt_linkcntl_whdsb_setf)
    em_bt_loopcntl_att_nb_setf               0x000098c5   Thumb Code    40  ld_acl.o(.text.em_bt_loopcntl_att_nb_setf)
    [Anonymous Symbol]                       0x000098c4   Section        0  ld_acl.o(.text.em_bt_loopcntl_att_nb_setf)
    em_bt_loopcntl_att_nb_setf               0x000098ed   Thumb Code    32  ld_page.o(.text.em_bt_loopcntl_att_nb_setf)
    [Anonymous Symbol]                       0x000098ec   Section        0  ld_page.o(.text.em_bt_loopcntl_att_nb_setf)
    __arm_cp.9_0                             0x00009908   Number         4  ld_page.o(.text.em_bt_loopcntl_att_nb_setf)
    em_bt_loopcntl_att_nb_setf               0x0000990d   Thumb Code    36  ld_pscan.o(.text.em_bt_loopcntl_att_nb_setf)
    [Anonymous Symbol]                       0x0000990c   Section        0  ld_pscan.o(.text.em_bt_loopcntl_att_nb_setf)
    __arm_cp.9_0                             0x00009928   Number         4  ld_pscan.o(.text.em_bt_loopcntl_att_nb_setf)
    __arm_cp.9_1                             0x0000992c   Number         4  ld_pscan.o(.text.em_bt_loopcntl_att_nb_setf)
    em_bt_pwrcntl_fh_en_setf                 0x00009931   Thumb Code    40  ld_acl.o(.text.em_bt_pwrcntl_fh_en_setf)
    [Anonymous Symbol]                       0x00009930   Section        0  ld_acl.o(.text.em_bt_pwrcntl_fh_en_setf)
    em_bt_pwrcntl_pack                       0x00009959   Thumb Code    32  ld_acl.o(.text.em_bt_pwrcntl_pack)
    [Anonymous Symbol]                       0x00009958   Section        0  ld_acl.o(.text.em_bt_pwrcntl_pack)
    __arm_cp.31_0                            0x00009974   Number         4  ld_acl.o(.text.em_bt_pwrcntl_pack)
    em_bt_rxaclbufptr_setf                   0x00009979   Thumb Code    28  ld_acl.o(.text.em_bt_rxaclbufptr_setf)
    [Anonymous Symbol]                       0x00009978   Section        0  ld_acl.o(.text.em_bt_rxaclbufptr_setf)
    __arm_cp.24_0                            0x00009990   Number         4  ld_acl.o(.text.em_bt_rxaclbufptr_setf)
    em_bt_rxbit_unpack                       0x00009995   Thumb Code    44  ld_acl.o(.text.em_bt_rxbit_unpack)
    [Anonymous Symbol]                       0x00009994   Section        0  ld_acl.o(.text.em_bt_rxbit_unpack)
    __arm_cp.63_0                            0x000099bc   Number         4  ld_acl.o(.text.em_bt_rxbit_unpack)
    em_bt_rxccmpldcnt0_setf                  0x000099c1   Thumb Code    32  ld_acl.o(.text.em_bt_rxccmpldcnt0_setf)
    [Anonymous Symbol]                       0x000099c0   Section        0  ld_acl.o(.text.em_bt_rxccmpldcnt0_setf)
    __arm_cp.110_0                           0x000099dc   Number         4  ld_acl.o(.text.em_bt_rxccmpldcnt0_setf)
    em_bt_rxccmpldcnt1_setf                  0x000099e1   Thumb Code    32  ld_acl.o(.text.em_bt_rxccmpldcnt1_setf)
    [Anonymous Symbol]                       0x000099e0   Section        0  ld_acl.o(.text.em_bt_rxccmpldcnt1_setf)
    __arm_cp.111_0                           0x000099fc   Number         4  ld_acl.o(.text.em_bt_rxccmpldcnt1_setf)
    em_bt_rxccmpldcnt2_setf                  0x00009a01   Thumb Code    32  ld_acl.o(.text.em_bt_rxccmpldcnt2_setf)
    [Anonymous Symbol]                       0x00009a00   Section        0  ld_acl.o(.text.em_bt_rxccmpldcnt2_setf)
    __arm_cp.112_0                           0x00009a1c   Number         4  ld_acl.o(.text.em_bt_rxccmpldcnt2_setf)
    em_bt_rxclkn0_getf                       0x00009a21   Thumb Code    28  ld_acl.o(.text.em_bt_rxclkn0_getf)
    [Anonymous Symbol]                       0x00009a20   Section        0  ld_acl.o(.text.em_bt_rxclkn0_getf)
    __arm_cp.37_0                            0x00009a38   Number         4  ld_acl.o(.text.em_bt_rxclkn0_getf)
    em_bt_rxclkn1_getf                       0x00009a3d   Thumb Code    28  ld_acl.o(.text.em_bt_rxclkn1_getf)
    [Anonymous Symbol]                       0x00009a3c   Section        0  ld_acl.o(.text.em_bt_rxclkn1_getf)
    __arm_cp.36_0                            0x00009a54   Number         4  ld_acl.o(.text.em_bt_rxclkn1_getf)
    em_bt_rxlmbufptr_getf                    0x00009a59   Thumb Code    24  ld_acl.o(.text.em_bt_rxlmbufptr_getf)
    [Anonymous Symbol]                       0x00009a58   Section        0  ld_acl.o(.text.em_bt_rxlmbufptr_getf)
    __arm_cp.43_0                            0x00009a6c   Number         4  ld_acl.o(.text.em_bt_rxlmbufptr_getf)
    em_bt_rxstat_get                         0x00009a71   Thumb Code    24  ld_acl.o(.text.em_bt_rxstat_get)
    [Anonymous Symbol]                       0x00009a70   Section        0  ld_acl.o(.text.em_bt_rxstat_get)
    __arm_cp.42_0                            0x00009a84   Number         4  ld_acl.o(.text.em_bt_rxstat_get)
    em_bt_txaclbufptr_getf                   0x00009a89   Thumb Code    24  ld_acl.o(.text.em_bt_txaclbufptr_getf)
    [Anonymous Symbol]                       0x00009a88   Section        0  ld_acl.o(.text.em_bt_txaclbufptr_getf)
    em_bt_txaclbufptr_setf                   0x00009aa1   Thumb Code    32  ld_acl.o(.text.em_bt_txaclbufptr_setf)
    [Anonymous Symbol]                       0x00009aa0   Section        0  ld_acl.o(.text.em_bt_txaclbufptr_setf)
    __arm_cp.49_0                            0x00009abc   Number         4  ld_acl.o(.text.em_bt_txaclbufptr_setf)
    em_bt_txccmpldcnt0_setf                  0x00009ac1   Thumb Code    32  ld_acl.o(.text.em_bt_txccmpldcnt0_setf)
    [Anonymous Symbol]                       0x00009ac0   Section        0  ld_acl.o(.text.em_bt_txccmpldcnt0_setf)
    __arm_cp.107_0                           0x00009adc   Number         4  ld_acl.o(.text.em_bt_txccmpldcnt0_setf)
    em_bt_txccmpldcnt1_setf                  0x00009ae1   Thumb Code    32  ld_acl.o(.text.em_bt_txccmpldcnt1_setf)
    [Anonymous Symbol]                       0x00009ae0   Section        0  ld_acl.o(.text.em_bt_txccmpldcnt1_setf)
    __arm_cp.108_0                           0x00009afc   Number         4  ld_acl.o(.text.em_bt_txccmpldcnt1_setf)
    em_bt_txccmpldcnt2_setf                  0x00009b01   Thumb Code    32  ld_acl.o(.text.em_bt_txccmpldcnt2_setf)
    [Anonymous Symbol]                       0x00009b00   Section        0  ld_acl.o(.text.em_bt_txccmpldcnt2_setf)
    __arm_cp.109_0                           0x00009b1c   Number         4  ld_acl.o(.text.em_bt_txccmpldcnt2_setf)
    em_bt_txdescptr_setf                     0x00009b21   Thumb Code    32  ld_acl.o(.text.em_bt_txdescptr_setf)
    [Anonymous Symbol]                       0x00009b20   Section        0  ld_acl.o(.text.em_bt_txdescptr_setf)
    __arm_cp.76_0                            0x00009b3c   Number         4  ld_acl.o(.text.em_bt_txdescptr_setf)
    em_bt_txheader_txdv_setf                 0x00009b41   Thumb Code    40  ld_acl.o(.text.em_bt_txheader_txdv_setf)
    [Anonymous Symbol]                       0x00009b40   Section        0  ld_acl.o(.text.em_bt_txheader_txdv_setf)
    em_bt_txheader_txltaddr_setf             0x00009b69   Thumb Code    40  ld_acl.o(.text.em_bt_txheader_txltaddr_setf)
    [Anonymous Symbol]                       0x00009b68   Section        0  ld_acl.o(.text.em_bt_txheader_txltaddr_setf)
    em_bt_txheader_txtype_setf               0x00009b91   Thumb Code    40  ld_acl.o(.text.em_bt_txheader_txtype_setf)
    [Anonymous Symbol]                       0x00009b90   Section        0  ld_acl.o(.text.em_bt_txheader_txtype_setf)
    em_bt_txheader_txtype_setf               0x00009bb9   Thumb Code    28  ld_test.o(.text.em_bt_txheader_txtype_setf)
    [Anonymous Symbol]                       0x00009bb8   Section        0  ld_test.o(.text.em_bt_txheader_txtype_setf)
    __arm_cp.5_0                             0x00009bcc   Number         4  ld_test.o(.text.em_bt_txheader_txtype_setf)
    __arm_cp.5_1                             0x00009bd0   Number         4  ld_test.o(.text.em_bt_txheader_txtype_setf)
    em_bt_txlmbufptr_getf                    0x00009bd5   Thumb Code    24  ld_acl.o(.text.em_bt_txlmbufptr_getf)
    [Anonymous Symbol]                       0x00009bd4   Section        0  ld_acl.o(.text.em_bt_txlmbufptr_getf)
    em_bt_txlmbufptr_setf                    0x00009bed   Thumb Code    32  ld_acl.o(.text.em_bt_txlmbufptr_setf)
    [Anonymous Symbol]                       0x00009bec   Section        0  ld_acl.o(.text.em_bt_txlmbufptr_setf)
    __arm_cp.48_0                            0x00009c08   Number         4  ld_acl.o(.text.em_bt_txlmbufptr_setf)
    em_bt_txpheader_pack                     0x00009c0d   Thumb Code    36  ld_acl.o(.text.em_bt_txpheader_pack)
    [Anonymous Symbol]                       0x00009c0c   Section        0  ld_acl.o(.text.em_bt_txpheader_pack)
    em_bt_txpheader_txlength_setf            0x00009c31   Thumb Code    44  ld_acl.o(.text.em_bt_txpheader_txlength_setf)
    [Anonymous Symbol]                       0x00009c30   Section        0  ld_acl.o(.text.em_bt_txpheader_txlength_setf)
    em_bt_txpheader_txllid_getf              0x00009c5d   Thumb Code    28  ld_acl.o(.text.em_bt_txpheader_txllid_getf)
    [Anonymous Symbol]                       0x00009c5c   Section        0  ld_acl.o(.text.em_bt_txpheader_txllid_getf)
    em_bt_txpheader_txllid_setf              0x00009c79   Thumb Code    44  ld_acl.o(.text.em_bt_txpheader_txllid_setf)
    [Anonymous Symbol]                       0x00009c78   Section        0  ld_acl.o(.text.em_bt_txpheader_txllid_setf)
    __arm_cp.19_0                            0x00009ca0   Number         4  ld_acl.o(.text.em_bt_txpheader_txllid_setf)
    em_bt_txptr_pack                         0x00009ca5   Thumb Code    28  ld_acl.o(.text.em_bt_txptr_pack)
    [Anonymous Symbol]                       0x00009ca4   Section        0  ld_acl.o(.text.em_bt_txptr_pack)
    em_bt_txptr_txdone_setf                  0x00009cc1   Thumb Code    44  ld_acl.o(.text.em_bt_txptr_txdone_setf)
    [Anonymous Symbol]                       0x00009cc0   Section        0  ld_acl.o(.text.em_bt_txptr_txdone_setf)
    __arm_cp.20_0                            0x00009ce8   Number         4  ld_acl.o(.text.em_bt_txptr_txdone_setf)
    em_bt_txrxcntl_rxbcry_setf               0x00009ced   Thumb Code    40  ld_acl.o(.text.em_bt_txrxcntl_rxbcry_setf)
    [Anonymous Symbol]                       0x00009cec   Section        0  ld_acl.o(.text.em_bt_txrxcntl_rxbcry_setf)
    em_bt_txrxcntl_rxcrypt_setf              0x00009d15   Thumb Code    40  ld_acl.o(.text.em_bt_txrxcntl_rxcrypt_setf)
    [Anonymous Symbol]                       0x00009d14   Section        0  ld_acl.o(.text.em_bt_txrxcntl_rxcrypt_setf)
    em_bt_txrxcntl_rxthr_setf                0x00009d3d   Thumb Code    40  ld_acl.o(.text.em_bt_txrxcntl_rxthr_setf)
    [Anonymous Symbol]                       0x00009d3c   Section        0  ld_acl.o(.text.em_bt_txrxcntl_rxthr_setf)
    em_bt_txrxcntl_txcrypt_setf              0x00009d65   Thumb Code    44  ld_acl.o(.text.em_bt_txrxcntl_txcrypt_setf)
    [Anonymous Symbol]                       0x00009d64   Section        0  ld_acl.o(.text.em_bt_txrxcntl_txcrypt_setf)
    __arm_cp.84_0                            0x00009d8c   Number         4  ld_acl.o(.text.em_bt_txrxcntl_txcrypt_setf)
    em_bt_wincntl_pack                       0x00009d91   Thumb Code    32  ld_acl.o(.text.em_bt_wincntl_pack)
    [Anonymous Symbol]                       0x00009d90   Section        0  ld_acl.o(.text.em_bt_wincntl_pack)
    __arm_cp.55_0                            0x00009dac   Number         4  ld_acl.o(.text.em_bt_wincntl_pack)
    [Anonymous Symbol]                       0x00009db0   Section        0  bluetooth_config.o(.text.em_config)
    [Anonymous Symbol]                       0x00009e04   Section        0  bluetooth_config.o(.text.em_config_customized)
    __arm_cp.32_0                            0x0000a13c   Number         4  bluetooth_config.o(.text.em_config_customized)
    __arm_cp.32_1                            0x0000a140   Number         4  bluetooth_config.o(.text.em_config_customized)
    em_rd32p                                 0x0000a189   Thumb Code    28  ld_util.o(.text.em_rd32p)
    [Anonymous Symbol]                       0x0000a188   Section        0  ld_util.o(.text.em_rd32p)
    em_wr32p                                 0x0000a1a5   Thumb Code    24  ld_util.o(.text.em_wr32p)
    [Anonymous Symbol]                       0x0000a1a4   Section        0  ld_util.o(.text.em_wr32p)
    __arm_cp.4_0                             0x0000a1b8   Number         4  ld_util.o(.text.em_wr32p)
    [Anonymous Symbol]                       0x0000a1bc   Section        0  bf0_common.o(.text.exception_handler)
    __arm_cp.2_0                             0x0000a1d8   Number         4  bf0_common.o(.text.exception_handler)
    [Anonymous Symbol]                       0x0000a1dc   Section        0  kservice.o(.text.fcvtbuf)
    [Anonymous Symbol]                       0x0000a1f4   Section        0  lowcfe.o(.text.g711plc_addtohistory)
    __arm_cp.8_0                             0x0000a308   Number         4  lowcfe.o(.text.g711plc_addtohistory)
    __arm_cp.8_1                             0x0000a30c   Number         4  lowcfe.o(.text.g711plc_addtohistory)
    [Anonymous Symbol]                       0x0000a310   Section        0  lowcfe.o(.text.g711plc_construct)
    g711plc_convertfs                        0x0000a327   Thumb Code    30  lowcfe.o(.text.g711plc_convertfs)
    [Anonymous Symbol]                       0x0000a326   Section        0  lowcfe.o(.text.g711plc_convertfs)
    g711plc_copys                            0x0000a345   Thumb Code    22  lowcfe.o(.text.g711plc_copys)
    [Anonymous Symbol]                       0x0000a344   Section        0  lowcfe.o(.text.g711plc_copys)
    [Anonymous Symbol]                       0x0000a35c   Section        0  lowcfe.o(.text.g711plc_dofe)
    __arm_cp.2_0                             0x0000a794   Number         4  lowcfe.o(.text.g711plc_dofe)
    __arm_cp.2_1                             0x0000a798   Number         4  lowcfe.o(.text.g711plc_dofe)
    __arm_cp.2_2                             0x0000a79c   Number         4  lowcfe.o(.text.g711plc_dofe)
    g711plc_getfespeech                      0x0000a7a1   Thumb Code    60  lowcfe.o(.text.g711plc_getfespeech)
    [Anonymous Symbol]                       0x0000a7a0   Section        0  lowcfe.o(.text.g711plc_getfespeech)
    g711plc_overlapadd                       0x0000a7dd   Thumb Code   180  lowcfe.o(.text.g711plc_overlapadd)
    [Anonymous Symbol]                       0x0000a7dc   Section        0  lowcfe.o(.text.g711plc_overlapadd)
    __arm_cp.3_0                             0x0000a88c   Number         4  lowcfe.o(.text.g711plc_overlapadd)
    g711plc_savespeech                       0x0000a891   Thumb Code    52  lowcfe.o(.text.g711plc_savespeech)
    [Anonymous Symbol]                       0x0000a890   Section        0  lowcfe.o(.text.g711plc_savespeech)
    __arm_cp.7_0                             0x0000a8c0   Number         4  lowcfe.o(.text.g711plc_savespeech)
    g711plc_scalespeech                      0x0000a8c5   Thumb Code    84  lowcfe.o(.text.g711plc_scalespeech)
    [Anonymous Symbol]                       0x0000a8c4   Section        0  lowcfe.o(.text.g711plc_scalespeech)
    __arm_cp.6_0                             0x0000a910   Number         4  lowcfe.o(.text.g711plc_scalespeech)
    __arm_cp.6_1                             0x0000a914   Number         4  lowcfe.o(.text.g711plc_scalespeech)
    g711plc_zeros                            0x0000a919   Thumb Code    18  lowcfe.o(.text.g711plc_zeros)
    [Anonymous Symbol]                       0x0000a918   Section        0  lowcfe.o(.text.g711plc_zeros)
    [Anonymous Symbol]                       0x0000a92c   Section        0  h4tl.o(.text.h4tl_init)
    __arm_cp.0_1                             0x0000a980   Number         4  h4tl.o(.text.h4tl_init)
    __arm_cp.0_2                             0x0000a984   Number         4  h4tl.o(.text.h4tl_init)
    h4tl_out_of_sync                         0x0000a989   Thumb Code    62  h4tl.o(.text.h4tl_out_of_sync)
    [Anonymous Symbol]                       0x0000a988   Section        0  h4tl.o(.text.h4tl_out_of_sync)
    h4tl_read_next_out_of_sync               0x0000a9c9   Thumb Code    24  h4tl.o(.text.h4tl_read_next_out_of_sync)
    [Anonymous Symbol]                       0x0000a9c8   Section        0  h4tl.o(.text.h4tl_read_next_out_of_sync)
    h4tl_read_payl                           0x0000a9e1   Thumb Code    20  h4tl.o(.text.h4tl_read_payl)
    [Anonymous Symbol]                       0x0000a9e0   Section        0  h4tl.o(.text.h4tl_read_payl)
    h4tl_read_start                          0x0000a9f5   Thumb Code    48  h4tl.o(.text.h4tl_read_start)
    [Anonymous Symbol]                       0x0000a9f4   Section        0  h4tl.o(.text.h4tl_read_start)
    h4tl_rx_done_handler                     0x0000aa25   Thumb Code   552  h4tl.o(.text.h4tl_rx_done_handler)
    [Anonymous Symbol]                       0x0000aa24   Section        0  h4tl.o(.text.h4tl_rx_done_handler)
    __arm_cp.2_0                             0x0000ac40   Number         4  h4tl.o(.text.h4tl_rx_done_handler)
    __arm_cp.2_1                             0x0000ac44   Number         4  h4tl.o(.text.h4tl_rx_done_handler)
    __arm_cp.2_2                             0x0000ac48   Number         4  h4tl.o(.text.h4tl_rx_done_handler)
    h4tl_rx_done_isr_handler                 0x0000ac4d   Thumb Code    26  h4tl.o(.text.h4tl_rx_done_isr_handler)
    [Anonymous Symbol]                       0x0000ac4c   Section        0  h4tl.o(.text.h4tl_rx_done_isr_handler)
    [Anonymous Symbol]                       0x0000ac68   Section        0  h4tl.o(.text.h4tl_start)
    [Anonymous Symbol]                       0x0000ac70   Section        0  h4tl.o(.text.h4tl_stop)
    __arm_cp.7_0                             0x0000aca4   Number         4  h4tl.o(.text.h4tl_stop)
    h4tl_tx_done_handler                     0x0000aca9   Thumb Code   136  h4tl.o(.text.h4tl_tx_done_handler)
    [Anonymous Symbol]                       0x0000aca8   Section        0  h4tl.o(.text.h4tl_tx_done_handler)
    h4tl_tx_done_isr_handler                 0x0000ad31   Thumb Code    22  h4tl.o(.text.h4tl_tx_done_isr_handler)
    [Anonymous Symbol]                       0x0000ad30   Section        0  h4tl.o(.text.h4tl_tx_done_isr_handler)
    [Anonymous Symbol]                       0x0000ad48   Section        0  h4tl.o(.text.h4tl_write)
    __arm_cp.4_0                             0x0000adb4   Number         4  h4tl.o(.text.h4tl_write)
    __arm_cp.4_1                             0x0000adb8   Number         4  h4tl.o(.text.h4tl_write)
    handle_exception                         0x0000adbd   Thumb Code   132  cpuport.o(.text.handle_exception)
    [Anonymous Symbol]                       0x0000adbc   Section        0  cpuport.o(.text.handle_exception)
    __arm_cp.4_0                             0x0000ae38   Number         4  cpuport.o(.text.handle_exception)
    __arm_cp.4_1                             0x0000ae3c   Number         4  cpuport.o(.text.handle_exception)
    hci_accept_con_req_cmd_lc_handler        0x0000ae41   Thumb Code   220  lc_task.o(.text.hci_accept_con_req_cmd_lc_handler)
    [Anonymous Symbol]                       0x0000ae40   Section        0  lc_task.o(.text.hci_accept_con_req_cmd_lc_handler)
    __arm_cp.190_1                           0x0000af14   Number         4  lc_task.o(.text.hci_accept_con_req_cmd_lc_handler)
    __arm_cp.190_2                           0x0000af18   Number         4  lc_task.o(.text.hci_accept_con_req_cmd_lc_handler)
    hci_accept_sync_con_req_cmd_lc_handler   0x0000af1d   Thumb Code   236  lc_task.o(.text.hci_accept_sync_con_req_cmd_lc_handler)
    [Anonymous Symbol]                       0x0000af1c   Section        0  lc_task.o(.text.hci_accept_sync_con_req_cmd_lc_handler)
    __arm_cp.192_0                           0x0000b004   Number         4  lc_task.o(.text.hci_accept_sync_con_req_cmd_lc_handler)
    [Anonymous Symbol]                       0x0000b008   Section        0  llc_hci.o(.text.hci_acl_data_handler)
    __arm_cp.7_0                             0x0000b07c   Number         4  llc_hci.o(.text.hci_acl_data_handler)
    hci_acl_data_lb_handler                  0x0000b081   Thumb Code    84  lb_task.o(.text.hci_acl_data_lb_handler)
    [Anonymous Symbol]                       0x0000b080   Section        0  lb_task.o(.text.hci_acl_data_lb_handler)
    __arm_cp.6_0                             0x0000b0d0   Number         4  lb_task.o(.text.hci_acl_data_lb_handler)
    hci_acl_data_lc_handler                  0x0000b0d5   Thumb Code   164  lc_task.o(.text.hci_acl_data_lc_handler)
    [Anonymous Symbol]                       0x0000b0d4   Section        0  lc_task.o(.text.hci_acl_data_lc_handler)
    hci_auth_req_cmd_lc_handler              0x0000b179   Thumb Code    80  lc_task.o(.text.hci_auth_req_cmd_lc_handler)
    [Anonymous Symbol]                       0x0000b178   Section        0  lc_task.o(.text.hci_auth_req_cmd_lc_handler)
    __arm_cp.160_0                           0x0000b1c4   Number         4  lc_task.o(.text.hci_auth_req_cmd_lc_handler)
    [Anonymous Symbol]                       0x0000b1c8   Section        0  hci.o(.text.hci_ble_conhdl_register)
    [Anonymous Symbol]                       0x0000b1d4   Section        0  hci.o(.text.hci_ble_conhdl_unregister)
    [Anonymous Symbol]                       0x0000b1e0   Section        0  hci.o(.text.hci_bt_acl_bdaddr_register)
    [Anonymous Symbol]                       0x0000b1fc   Section        0  hci.o(.text.hci_bt_acl_bdaddr_unregister)
    [Anonymous Symbol]                       0x0000b20c   Section        0  hci.o(.text.hci_bt_acl_conhdl_register)
    hci_chg_con_lk_cmd_lc_handler            0x0000b21d   Thumb Code   144  lc_task.o(.text.hci_chg_con_lk_cmd_lc_handler)
    [Anonymous Symbol]                       0x0000b21c   Section        0  lc_task.o(.text.hci_chg_con_lk_cmd_lc_handler)
    hci_chg_con_pkt_type_cmd_lc_handler      0x0000b2ad   Thumb Code   224  lc_task.o(.text.hci_chg_con_pkt_type_cmd_lc_handler)
    [Anonymous Symbol]                       0x0000b2ac   Section        0  lc_task.o(.text.hci_chg_con_pkt_type_cmd_lc_handler)
    __arm_cp.169_0                           0x0000b384   Number         4  lc_task.o(.text.hci_chg_con_pkt_type_cmd_lc_handler)
    __arm_cp.169_1                           0x0000b388   Number         4  lc_task.o(.text.hci_chg_con_pkt_type_cmd_lc_handler)
    hci_command_handler                      0x0000b38d   Thumb Code    40  common_task.o(.text.hci_command_handler)
    [Anonymous Symbol]                       0x0000b38c   Section        0  common_task.o(.text.hci_command_handler)
    __arm_cp.1_0                             0x0000b3b0   Number         4  common_task.o(.text.hci_command_handler)
    hci_command_lb_handler                   0x0000b3b5   Thumb Code    44  lb_task.o(.text.hci_command_lb_handler)
    [Anonymous Symbol]                       0x0000b3b4   Section        0  lb_task.o(.text.hci_command_lb_handler)
    __arm_cp.5_0                             0x0000b3dc   Number         4  lb_task.o(.text.hci_command_lb_handler)
    hci_command_lc_handler                   0x0000b3e1   Thumb Code    48  lc_task.o(.text.hci_command_lc_handler)
    [Anonymous Symbol]                       0x0000b3e0   Section        0  lc_task.o(.text.hci_command_lc_handler)
    __arm_cp.150_0                           0x0000b40c   Number         4  lc_task.o(.text.hci_command_lc_handler)
    [Anonymous Symbol]                       0x0000b410   Section        0  llc_hci.o(.text.hci_command_llc_handler)
    __arm_cp.6_0                             0x0000b438   Number         4  llc_hci.o(.text.hci_command_llc_handler)
    hci_command_lli_handler                  0x0000b43d   Thumb Code    44  lli_task.o(.text.hci_command_lli_handler)
    [Anonymous Symbol]                       0x0000b43c   Section        0  lli_task.o(.text.hci_command_lli_handler)
    __arm_cp.0_0                             0x0000b464   Number         4  lli_task.o(.text.hci_command_lli_handler)
    [Anonymous Symbol]                       0x0000b468   Section        0  llm_hci.o(.text.hci_command_llm_handler)
    __arm_cp.0_0                             0x0000b490   Number         4  llm_hci.o(.text.hci_command_llm_handler)
    hci_command_lm_handler                   0x0000b495   Thumb Code    44  lm_task.o(.text.hci_command_lm_handler)
    [Anonymous Symbol]                       0x0000b494   Section        0  lm_task.o(.text.hci_command_lm_handler)
    __arm_cp.5_0                             0x0000b4bc   Number         4  lm_task.o(.text.hci_command_lm_handler)
    [Anonymous Symbol]                       0x0000b4c0   Section        0  hci.o(.text.hci_con_accept_to_get)
    [Anonymous Symbol]                       0x0000b4c8   Section        0  hci.o(.text.hci_con_accept_to_set)
    __arm_cp.2_0                             0x0000b4d0   Number         4  hci.o(.text.hci_con_accept_to_set)
    hci_config_data_path_cmd_handler         0x0000b4d5   Thumb Code    28  llm_hci.o(.text.hci_config_data_path_cmd_handler)
    [Anonymous Symbol]                       0x0000b4d4   Section        0  llm_hci.o(.text.hci_config_data_path_cmd_handler)
    hci_config_data_path_cmd_handler         0x0000b4f1   Thumb Code    28  lm_task.o(.text.hci_config_data_path_cmd_handler)
    [Anonymous Symbol]                       0x0000b4f0   Section        0  lm_task.o(.text.hci_config_data_path_cmd_handler)
    hci_create_con_cancel_cmd_handler        0x0000b50d   Thumb Code   120  lm_task.o(.text.hci_create_con_cancel_cmd_handler)
    [Anonymous Symbol]                       0x0000b50c   Section        0  lm_task.o(.text.hci_create_con_cancel_cmd_handler)
    hci_create_con_cancel_cmd_lc_handler     0x0000b585   Thumb Code    72  lc_task.o(.text.hci_create_con_cancel_cmd_lc_handler)
    [Anonymous Symbol]                       0x0000b584   Section        0  lc_task.o(.text.hci_create_con_cancel_cmd_lc_handler)
    __arm_cp.155_0                           0x0000b5c8   Number         4  lc_task.o(.text.hci_create_con_cancel_cmd_lc_handler)
    hci_create_con_cmd_handler               0x0000b5cd   Thumb Code   232  lm_task.o(.text.hci_create_con_cmd_handler)
    [Anonymous Symbol]                       0x0000b5cc   Section        0  lm_task.o(.text.hci_create_con_cmd_handler)
    __arm_cp.12_1                            0x0000b6b0   Number         4  lm_task.o(.text.hci_create_con_cmd_handler)
    hci_dbg_reserved_128_cmd_handler         0x0000b6b5   Thumb Code    28  common_task.o(.text.hci_dbg_reserved_128_cmd_handler)
    [Anonymous Symbol]                       0x0000b6b4   Section        0  common_task.o(.text.hci_dbg_reserved_128_cmd_handler)
    hci_dbg_reserved_32_cmd_handler          0x0000b6d1   Thumb Code    28  common_task.o(.text.hci_dbg_reserved_32_cmd_handler)
    [Anonymous Symbol]                       0x0000b6d0   Section        0  common_task.o(.text.hci_dbg_reserved_32_cmd_handler)
    hci_dbg_reserved_64_cmd_handler          0x0000b6ed   Thumb Code    28  common_task.o(.text.hci_dbg_reserved_64_cmd_handler)
    [Anonymous Symbol]                       0x0000b6ec   Section        0  common_task.o(.text.hci_dbg_reserved_64_cmd_handler)
    hci_del_stored_lk_cmd_handler            0x0000b709   Thumb Code   196  lm_task.o(.text.hci_del_stored_lk_cmd_handler)
    [Anonymous Symbol]                       0x0000b708   Section        0  lm_task.o(.text.hci_del_stored_lk_cmd_handler)
    __arm_cp.26_0                            0x0000b7c4   Number         4  lm_task.o(.text.hci_del_stored_lk_cmd_handler)
    __arm_cp.26_1                            0x0000b7c8   Number         4  lm_task.o(.text.hci_del_stored_lk_cmd_handler)
    [Anonymous Symbol]                       0x0000b7cc   Section        0  lli_ci.o(.text.hci_disconnect_cis_cmd_handler)
    __arm_cp.19_0                            0x0000b904   Number         4  lli_ci.o(.text.hci_disconnect_cis_cmd_handler)
    __arm_cp.19_1                            0x0000b908   Number         4  lli_ci.o(.text.hci_disconnect_cis_cmd_handler)
    __arm_cp.19_2                            0x0000b90c   Number         4  lli_ci.o(.text.hci_disconnect_cis_cmd_handler)
    [Anonymous Symbol]                       0x0000b910   Section        0  llc_disconnect.o(.text.hci_disconnect_cmd_handler)
    __arm_cp.7_0                             0x0000b98c   Number         4  llc_disconnect.o(.text.hci_disconnect_cmd_handler)
    __arm_cp.7_1                             0x0000b990   Number         4  llc_disconnect.o(.text.hci_disconnect_cmd_handler)
    hci_disconnect_cmd_lc_handler            0x0000b995   Thumb Code   160  lc_task.o(.text.hci_disconnect_cmd_lc_handler)
    [Anonymous Symbol]                       0x0000b994   Section        0  lc_task.o(.text.hci_disconnect_cmd_lc_handler)
    __arm_cp.154_0                           0x0000ba24   Number         4  lc_task.o(.text.hci_disconnect_cmd_lc_handler)
    __arm_cp.154_1                           0x0000ba28   Number         4  lc_task.o(.text.hci_disconnect_cmd_lc_handler)
    hci_en_dut_mode_cmd_handler              0x0000ba35   Thumb Code    28  lm_task.o(.text.hci_en_dut_mode_cmd_handler)
    [Anonymous Symbol]                       0x0000ba34   Section        0  lm_task.o(.text.hci_en_dut_mode_cmd_handler)
    __arm_cp.92_0                            0x0000ba4c   Number         4  lm_task.o(.text.hci_en_dut_mode_cmd_handler)
    hci_enh_accept_sync_con_cmd_lc_handler   0x0000ba51   Thumb Code   208  lc_task.o(.text.hci_enh_accept_sync_con_cmd_lc_handler)
    [Anonymous Symbol]                       0x0000ba50   Section        0  lc_task.o(.text.hci_enh_accept_sync_con_cmd_lc_handler)
    hci_enh_flush_cmd_lc_handler             0x0000bb21   Thumb Code   116  lc_task.o(.text.hci_enh_flush_cmd_lc_handler)
    [Anonymous Symbol]                       0x0000bb20   Section        0  lc_task.o(.text.hci_enh_flush_cmd_lc_handler)
    hci_enh_setup_sync_con_cmd_lc_handler    0x0000bb95   Thumb Code   288  lc_task.o(.text.hci_enh_setup_sync_con_cmd_lc_handler)
    [Anonymous Symbol]                       0x0000bb94   Section        0  lc_task.o(.text.hci_enh_setup_sync_con_cmd_lc_handler)
    [Anonymous Symbol]                       0x0000bcb4   Section        0  hci.o(.text.hci_evt_filter_add)
    hci_evt_filter_alloc                     0x0000bde1   Thumb Code    32  hci.o(.text.hci_evt_filter_alloc)
    [Anonymous Symbol]                       0x0000bde0   Section        0  hci.o(.text.hci_evt_filter_alloc)
    [Anonymous Symbol]                       0x0000be00   Section        0  hci.o(.text.hci_evt_mask_set)
    __arm_cp.1_0                             0x0000be50   Number         4  hci.o(.text.hci_evt_mask_set)
    hci_rsvd_evt_msk                         0x0000be54   Number         0  hci.o(.text.hci_evt_mask_set)
    hci_exit_per_inq_mode_cmd_handler        0x0000be5d   Thumb Code    44  lm_task.o(.text.hci_exit_per_inq_mode_cmd_handler)
    [Anonymous Symbol]                       0x0000be5c   Section        0  lm_task.o(.text.hci_exit_per_inq_mode_cmd_handler)
    __arm_cp.11_0                            0x0000be84   Number         4  lm_task.o(.text.hci_exit_per_inq_mode_cmd_handler)
    hci_exit_sniff_mode_cmd_lc_handler       0x0000be89   Thumb Code    72  lc_task.o(.text.hci_exit_sniff_mode_cmd_lc_handler)
    [Anonymous Symbol]                       0x0000be88   Section        0  lc_task.o(.text.hci_exit_sniff_mode_cmd_lc_handler)
    __arm_cp.177_0                           0x0000becc   Number         4  lc_task.o(.text.hci_exit_sniff_mode_cmd_lc_handler)
    [Anonymous Symbol]                       0x0000bed0   Section        0  hci_fc.o(.text.hci_fc_acl_buf_size_set)
    [Anonymous Symbol]                       0x0000bee0   Section        0  hci_fc.o(.text.hci_fc_acl_en)
    __arm_cp.3_0                             0x0000bf20   Number         4  hci_fc.o(.text.hci_fc_acl_en)
    [Anonymous Symbol]                       0x0000bf24   Section        0  hci_fc.o(.text.hci_fc_acl_packet_sent)
    [Anonymous Symbol]                       0x0000bf34   Section        0  hci_fc.o(.text.hci_fc_check_host_available_nb_acl_packets)
    [Anonymous Symbol]                       0x0000bf54   Section        0  hci_fc.o(.text.hci_fc_check_host_available_nb_sync_packets)
    [Anonymous Symbol]                       0x0000bf74   Section        0  hci_fc.o(.text.hci_fc_host_nb_acl_pkts_complete)
    [Anonymous Symbol]                       0x0000bf84   Section        0  hci_fc.o(.text.hci_fc_host_nb_sync_pkts_complete)
    [Anonymous Symbol]                       0x0000bf94   Section        0  hci_fc.o(.text.hci_fc_init)
    [Anonymous Symbol]                       0x0000bfa4   Section        0  hci_fc.o(.text.hci_fc_sync_buf_size_set)
    [Anonymous Symbol]                       0x0000bfac   Section        0  hci_fc.o(.text.hci_fc_sync_en)
    [Anonymous Symbol]                       0x0000bfb4   Section        0  hci_fc.o(.text.hci_fc_sync_packet_sent)
    __arm_cp.6_0                             0x0000bfc4   Number         4  hci_fc.o(.text.hci_fc_sync_packet_sent)
    hci_flow_spec_cmd_lc_handler             0x0000bfc9   Thumb Code   292  lc_task.o(.text.hci_flow_spec_cmd_lc_handler)
    [Anonymous Symbol]                       0x0000bfc8   Section        0  lc_task.o(.text.hci_flow_spec_cmd_lc_handler)
    hci_flush_cmd_lc_handler                 0x0000c0ed   Thumb Code   132  lc_task.o(.text.hci_flush_cmd_lc_handler)
    [Anonymous Symbol]                       0x0000c0ec   Section        0  lc_task.o(.text.hci_flush_cmd_lc_handler)
    __arm_cp.165_0                           0x0000c16c   Number         4  lc_task.o(.text.hci_flush_cmd_lc_handler)
    hci_host_buf_size_cmd_handler            0x0000c171   Thumb Code    24  llm_hci.o(.text.hci_host_buf_size_cmd_handler)
    [Anonymous Symbol]                       0x0000c170   Section        0  llm_hci.o(.text.hci_host_buf_size_cmd_handler)
    hci_host_buf_size_cmd_handler            0x0000c189   Thumb Code    38  lm_task.o(.text.hci_host_buf_size_cmd_handler)
    [Anonymous Symbol]                       0x0000c188   Section        0  lm_task.o(.text.hci_host_buf_size_cmd_handler)
    hci_host_nb_cmp_pkts_cmd_handler         0x0000c1af   Thumb Code    68  llm_hci.o(.text.hci_host_nb_cmp_pkts_cmd_handler)
    [Anonymous Symbol]                       0x0000c1ae   Section        0  llm_hci.o(.text.hci_host_nb_cmp_pkts_cmd_handler)
    hci_host_nb_cmp_pkts_cmd_handler         0x0000c1f3   Thumb Code    98  lm_task.o(.text.hci_host_nb_cmp_pkts_cmd_handler)
    [Anonymous Symbol]                       0x0000c1f2   Section        0  lm_task.o(.text.hci_host_nb_cmp_pkts_cmd_handler)
    [Anonymous Symbol]                       0x0000c254   Section        0  hci.o(.text.hci_initialize)
    __arm_cp.0_0                             0x0000c288   Number         4  hci.o(.text.hci_initialize)
    __arm_cp.0_1                             0x0000c28c   Number         4  hci.o(.text.hci_initialize)
    hci_inq_cancel_cmd_handler               0x0000c291   Thumb Code    40  lm_task.o(.text.hci_inq_cancel_cmd_handler)
    [Anonymous Symbol]                       0x0000c290   Section        0  lm_task.o(.text.hci_inq_cancel_cmd_handler)
    hci_inq_cmd_handler                      0x0000c2b9   Thumb Code   188  lm_task.o(.text.hci_inq_cmd_handler)
    [Anonymous Symbol]                       0x0000c2b8   Section        0  lm_task.o(.text.hci_inq_cmd_handler)
    __arm_cp.8_0                             0x0000c370   Number         4  lm_task.o(.text.hci_inq_cmd_handler)
    hci_io_cap_req_neg_reply_cmd_lc_handler  0x0000c375   Thumb Code    96  lc_task.o(.text.hci_io_cap_req_neg_reply_cmd_lc_handler)
    [Anonymous Symbol]                       0x0000c374   Section        0  lc_task.o(.text.hci_io_cap_req_neg_reply_cmd_lc_handler)
    __arm_cp.204_1                           0x0000c3d0   Number         4  lc_task.o(.text.hci_io_cap_req_neg_reply_cmd_lc_handler)
    hci_io_cap_req_reply_cmd_lc_handler      0x0000c3d5   Thumb Code   172  lc_task.o(.text.hci_io_cap_req_reply_cmd_lc_handler)
    [Anonymous Symbol]                       0x0000c3d4   Section        0  lc_task.o(.text.hci_io_cap_req_reply_cmd_lc_handler)
    __arm_cp.203_0                           0x0000c47c   Number         4  lc_task.o(.text.hci_io_cap_req_reply_cmd_lc_handler)
    [Anonymous Symbol]                       0x0000c480   Section        0  lli_ci.o(.text.hci_le_accept_cis_req_cmd_handler)
    __arm_cp.21_0                            0x0000c504   Number         4  lli_ci.o(.text.hci_le_accept_cis_req_cmd_handler)
    __arm_cp.21_1                            0x0000c508   Number         4  lli_ci.o(.text.hci_le_accept_cis_req_cmd_handler)
    __arm_cp.21_2                            0x0000c50c   Number         4  lli_ci.o(.text.hci_le_accept_cis_req_cmd_handler)
    [Anonymous Symbol]                       0x0000c510   Section        0  llm_scan.o(.text.hci_le_add_dev_to_per_adv_list_cmd_handler)
    hci_le_add_dev_to_rslv_list_cmd_handler  0x0000c609   Thumb Code   316  llm_hci.o(.text.hci_le_add_dev_to_rslv_list_cmd_handler)
    [Anonymous Symbol]                       0x0000c608   Section        0  llm_hci.o(.text.hci_le_add_dev_to_rslv_list_cmd_handler)
    __arm_cp.30_2                            0x0000c740   Number         4  llm_hci.o(.text.hci_le_add_dev_to_rslv_list_cmd_handler)
    hci_le_add_dev_to_wlst_cmd_handler       0x0000c745   Thumb Code   188  llm_hci.o(.text.hci_le_add_dev_to_wlst_cmd_handler)
    [Anonymous Symbol]                       0x0000c744   Section        0  llm_hci.o(.text.hci_le_add_dev_to_wlst_cmd_handler)
    __arm_cp.27_0                            0x0000c7f8   Number         4  llm_hci.o(.text.hci_le_add_dev_to_wlst_cmd_handler)
    __arm_cp.27_1                            0x0000c7fc   Number         4  llm_hci.o(.text.hci_le_add_dev_to_wlst_cmd_handler)
    hci_le_adv_report_evt_pkupk              0x0000c801   Thumb Code   286  hci_msg.o(.text.hci_le_adv_report_evt_pkupk)
    [Anonymous Symbol]                       0x0000c800   Section        0  hci_msg.o(.text.hci_le_adv_report_evt_pkupk)
    [Anonymous Symbol]                       0x0000c920   Section        0  lli_bi.o(.text.hci_le_big_create_sync_cmd_handler)
    [Anonymous Symbol]                       0x0000ca68   Section        0  lli_bi.o(.text.hci_le_big_terminate_sync_cmd_handler)
    __arm_cp.16_0                            0x0000cb08   Number         4  lli_bi.o(.text.hci_le_big_terminate_sync_cmd_handler)
    __arm_cp.16_1                            0x0000cb0c   Number         4  lli_bi.o(.text.hci_le_big_terminate_sync_cmd_handler)
    [Anonymous Symbol]                       0x0000cb10   Section        0  llm_adv.o(.text.hci_le_clear_adv_sets_cmd_handler)
    __arm_cp.23_0                            0x0000cb8c   Number         4  llm_adv.o(.text.hci_le_clear_adv_sets_cmd_handler)
    [Anonymous Symbol]                       0x0000cb90   Section        0  llm_scan.o(.text.hci_le_clear_per_adv_list_cmd_handler)
    hci_le_clear_rslv_list_cmd_handler       0x0000cc15   Thumb Code    76  llm_hci.o(.text.hci_le_clear_rslv_list_cmd_handler)
    [Anonymous Symbol]                       0x0000cc14   Section        0  llm_hci.o(.text.hci_le_clear_rslv_list_cmd_handler)
    hci_le_clear_wlst_cmd_handler            0x0000cc61   Thumb Code   108  llm_hci.o(.text.hci_le_clear_wlst_cmd_handler)
    [Anonymous Symbol]                       0x0000cc60   Section        0  llm_hci.o(.text.hci_le_clear_wlst_cmd_handler)
    __arm_cp.26_0                            0x0000ccc4   Number         4  llm_hci.o(.text.hci_le_clear_wlst_cmd_handler)
    __arm_cp.26_1                            0x0000ccc8   Number         4  llm_hci.o(.text.hci_le_clear_wlst_cmd_handler)
    [Anonymous Symbol]                       0x0000cccc   Section        0  llc_con_upd.o(.text.hci_le_con_upd_cmd_handler)
    __arm_cp.7_0                             0x0000cda0   Number         4  llc_con_upd.o(.text.hci_le_con_upd_cmd_handler)
    __arm_cp.7_1                             0x0000cda4   Number         4  llc_con_upd.o(.text.hci_le_con_upd_cmd_handler)
    [Anonymous Symbol]                       0x0000cda8   Section        0  lli_bi.o(.text.hci_le_create_big_cmd_handler)
    __arm_cp.11_0                            0x0000cfa8   Number         4  lli_bi.o(.text.hci_le_create_big_cmd_handler)
    __arm_cp.11_1                            0x0000cfac   Number         4  lli_bi.o(.text.hci_le_create_big_cmd_handler)
    __arm_cp.11_2                            0x0000cfb0   Number         4  lli_bi.o(.text.hci_le_create_big_cmd_handler)
    __arm_cp.11_3                            0x0000cfb4   Number         4  lli_bi.o(.text.hci_le_create_big_cmd_handler)
    __arm_cp.11_4                            0x0000cfb8   Number         4  lli_bi.o(.text.hci_le_create_big_cmd_handler)
    __arm_cp.11_5                            0x0000cfbc   Number         4  lli_bi.o(.text.hci_le_create_big_cmd_handler)
    [Anonymous Symbol]                       0x0000cfc0   Section        0  lli_bi.o(.text.hci_le_create_big_test_cmd_handler)
    __arm_cp.5_10                            0x0000d2ec   Number         4  lli_bi.o(.text.hci_le_create_big_test_cmd_handler)
    __arm_cp.5_3                             0x0000d4fc   Number         4  lli_bi.o(.text.hci_le_create_big_test_cmd_handler)
    __arm_cp.5_4                             0x0000d500   Number         4  lli_bi.o(.text.hci_le_create_big_test_cmd_handler)
    __arm_cp.5_5                             0x0000d504   Number         4  lli_bi.o(.text.hci_le_create_big_test_cmd_handler)
    __arm_cp.5_6                             0x0000d508   Number         4  lli_bi.o(.text.hci_le_create_big_test_cmd_handler)
    __arm_cp.5_7                             0x0000d50c   Number         4  lli_bi.o(.text.hci_le_create_big_test_cmd_handler)
    __arm_cp.5_8                             0x0000d510   Number         4  lli_bi.o(.text.hci_le_create_big_test_cmd_handler)
    __arm_cp.5_9                             0x0000d514   Number         4  lli_bi.o(.text.hci_le_create_big_test_cmd_handler)
    [Anonymous Symbol]                       0x0000d518   Section        0  lli_ci.o(.text.hci_le_create_cis_cmd_handler)
    __arm_cp.18_0                            0x0000d640   Number         4  lli_ci.o(.text.hci_le_create_cis_cmd_handler)
    __arm_cp.18_1                            0x0000d644   Number         4  lli_ci.o(.text.hci_le_create_cis_cmd_handler)
    __arm_cp.18_2                            0x0000d648   Number         4  lli_ci.o(.text.hci_le_create_cis_cmd_handler)
    [Anonymous Symbol]                       0x0000d64c   Section        0  llm_init.o(.text.hci_le_create_con_cancel_cmd_handler)
    [Anonymous Symbol]                       0x0000d6b8   Section        0  llm_init.o(.text.hci_le_create_con_cmd_handler)
    __arm_cp.0_0                             0x0000d92c   Number         4  llm_init.o(.text.hci_le_create_con_cmd_handler)
    __arm_cp.0_1                             0x0000d930   Number         4  llm_init.o(.text.hci_le_create_con_cmd_handler)
    [Anonymous Symbol]                       0x0000d934   Section        0  llc_encrypt.o(.text.hci_le_en_enc_cmd_handler)
    __arm_cp.9_0                             0x0000d9f4   Number         4  llc_encrypt.o(.text.hci_le_en_enc_cmd_handler)
    __arm_cp.9_1                             0x0000d9f8   Number         4  llc_encrypt.o(.text.hci_le_en_enc_cmd_handler)
    hci_le_enc_cmd_handler                   0x0000d9fd   Thumb Code    28  llm_hci.o(.text.hci_le_enc_cmd_handler)
    [Anonymous Symbol]                       0x0000d9fc   Section        0  llm_hci.o(.text.hci_le_enc_cmd_handler)
    __arm_cp.37_0                            0x0000da14   Number         4  llm_hci.o(.text.hci_le_enc_cmd_handler)
    [Anonymous Symbol]                       0x0000da18   Section        0  llc_pwr.o(.text.hci_le_enh_rd_tx_pwr_lvl_cmd_handler)
    __arm_cp.16_0                            0x0000da80   Number         4  llc_pwr.o(.text.hci_le_enh_rd_tx_pwr_lvl_cmd_handler)
    hci_le_ext_adv_report_evt_pkupk          0x0000da85   Thumb Code   506  hci_msg.o(.text.hci_le_ext_adv_report_evt_pkupk)
    [Anonymous Symbol]                       0x0000da84   Section        0  hci_msg.o(.text.hci_le_ext_adv_report_evt_pkupk)
    [Anonymous Symbol]                       0x0000dc80   Section        0  llm_init.o(.text.hci_le_ext_create_con_cmd_handler)
    __arm_cp.1_1                             0x0000dfa0   Number         4  llm_init.o(.text.hci_le_ext_create_con_cmd_handler)
    __arm_cp.1_2                             0x0000dfa4   Number         4  llm_init.o(.text.hci_le_ext_create_con_cmd_handler)
    hci_le_gen_dhkey_cmd_handler             0x0000dfa9   Thumb Code    76  llm_hci.o(.text.hci_le_gen_dhkey_cmd_handler)
    [Anonymous Symbol]                       0x0000dfa8   Section        0  llm_hci.o(.text.hci_le_gen_dhkey_cmd_handler)
    __arm_cp.60_0                            0x0000dfec   Number         4  llm_hci.o(.text.hci_le_gen_dhkey_cmd_handler)
    __arm_cp.60_1                            0x0000dff0   Number         4  llm_hci.o(.text.hci_le_gen_dhkey_cmd_handler)
    hci_le_gen_dhkey_v1_cmd_handler          0x0000dff5   Thumb Code    18  llm_hci.o(.text.hci_le_gen_dhkey_v1_cmd_handler)
    [Anonymous Symbol]                       0x0000dff4   Section        0  llm_hci.o(.text.hci_le_gen_dhkey_v1_cmd_handler)
    hci_le_gen_dhkey_v2_cmd_handler          0x0000e007   Thumb Code    20  llm_hci.o(.text.hci_le_gen_dhkey_v2_cmd_handler)
    [Anonymous Symbol]                       0x0000e006   Section        0  llm_hci.o(.text.hci_le_gen_dhkey_v2_cmd_handler)
    [Anonymous Symbol]                       0x0000e01a   Section        0  lli_test.o(.text.hci_le_iso_read_test_counters_cmd_handler)
    [Anonymous Symbol]                       0x0000e04e   Section        0  lli_test.o(.text.hci_le_iso_rx_test_cmd_handler)
    [Anonymous Symbol]                       0x0000e0c4   Section        0  lli_test.o(.text.hci_le_iso_test_end_cmd_handler)
    [Anonymous Symbol]                       0x0000e168   Section        0  lli_test.o(.text.hci_le_iso_tx_test_cmd_handler)
    [Anonymous Symbol]                       0x0000e1e0   Section        0  llc_encrypt.o(.text.hci_le_ltk_req_neg_reply_cmd_handler)
    __arm_cp.13_0                            0x0000e250   Number         4  llc_encrypt.o(.text.hci_le_ltk_req_neg_reply_cmd_handler)
    [Anonymous Symbol]                       0x0000e254   Section        0  llc_encrypt.o(.text.hci_le_ltk_req_reply_cmd_handler)
    hci_le_mod_sleep_clk_acc_cmd_handler     0x0000e2ad   Thumb Code    88  llm_hci.o(.text.hci_le_mod_sleep_clk_acc_cmd_handler)
    [Anonymous Symbol]                       0x0000e2ac   Section        0  llm_hci.o(.text.hci_le_mod_sleep_clk_acc_cmd_handler)
    __arm_cp.44_0                            0x0000e300   Number         4  llm_hci.o(.text.hci_le_mod_sleep_clk_acc_cmd_handler)
    [Anonymous Symbol]                       0x0000e304   Section        0  llm_scan.o(.text.hci_le_per_adv_create_sync_cancel_cmd_handler)
    [Anonymous Symbol]                       0x0000e3c0   Section        0  llm_scan.o(.text.hci_le_per_adv_create_sync_cmd_handler)
    [Anonymous Symbol]                       0x0000e47c   Section        0  llc_past.o(.text.hci_le_per_adv_set_info_transf_cmd_handler)
    [Anonymous Symbol]                       0x0000e504   Section        0  llc_past.o(.text.hci_le_per_adv_sync_transf_cmd_handler)
    [Anonymous Symbol]                       0x0000e570   Section        0  llm_scan.o(.text.hci_le_per_adv_term_sync_cmd_handler)
    hci_le_rand_cmd_handler                  0x0000e5c1   Thumb Code    62  llm_hci.o(.text.hci_le_rand_cmd_handler)
    [Anonymous Symbol]                       0x0000e5c0   Section        0  llm_hci.o(.text.hci_le_rand_cmd_handler)
    [Anonymous Symbol]                       0x0000e600   Section        0  llm_adv.o(.text.hci_le_rd_adv_ch_tx_pw_cmd_handler)
    __arm_cp.1_0                             0x0000e644   Number         4  llm_adv.o(.text.hci_le_rd_adv_ch_tx_pw_cmd_handler)
    __arm_cp.1_1                             0x0000e648   Number         4  llm_adv.o(.text.hci_le_rd_adv_ch_tx_pw_cmd_handler)
    hci_le_rd_buf_size_cmd_handler           0x0000e64d   Thumb Code    52  llm_hci.o(.text.hci_le_rd_buf_size_cmd_handler)
    [Anonymous Symbol]                       0x0000e64c   Section        0  llm_hci.o(.text.hci_le_rd_buf_size_cmd_handler)
    [Anonymous Symbol]                       0x0000e680   Section        0  lli_data_path.o(.text.hci_le_rd_buf_size_v2_cmd_handler)
    [Anonymous Symbol]                       0x0000e6bc   Section        0  llc_chmap_upd.o(.text.hci_le_rd_ch_map_cmd_handler)
    __arm_cp.7_0                             0x0000e700   Number         4  llc_chmap_upd.o(.text.hci_le_rd_ch_map_cmd_handler)
    [Anonymous Symbol]                       0x0000e704   Section        0  lli.o(.text.hci_le_rd_iso_link_quality_cmd_handler)
    __arm_cp.5_0                             0x0000e7b4   Number         4  lli.o(.text.hci_le_rd_iso_link_quality_cmd_handler)
    __arm_cp.5_1                             0x0000e7b8   Number         4  lli.o(.text.hci_le_rd_iso_link_quality_cmd_handler)
    [Anonymous Symbol]                       0x0000e7bc   Section        0  lli_data_path.o(.text.hci_le_rd_iso_tx_sync_cmd_handler)
    __arm_cp.0_0                             0x0000e830   Number         4  lli_data_path.o(.text.hci_le_rd_iso_tx_sync_cmd_handler)
    hci_le_rd_loc_rslv_addr_cmd_handler      0x0000e835   Thumb Code    96  llm_hci.o(.text.hci_le_rd_loc_rslv_addr_cmd_handler)
    [Anonymous Symbol]                       0x0000e834   Section        0  llm_hci.o(.text.hci_le_rd_loc_rslv_addr_cmd_handler)
    __arm_cp.36_0                            0x0000e890   Number         4  llm_hci.o(.text.hci_le_rd_loc_rslv_addr_cmd_handler)
    hci_le_rd_local_p256_public_key_cmd_handler 0x0000e895   Thumb Code   132  llm_hci.o(.text.hci_le_rd_local_p256_public_key_cmd_handler)
    [Anonymous Symbol]                       0x0000e894   Section        0  llm_hci.o(.text.hci_le_rd_local_p256_public_key_cmd_handler)
    __arm_cp.48_0                            0x0000e90c   Number         4  llm_hci.o(.text.hci_le_rd_local_p256_public_key_cmd_handler)
    __arm_cp.48_1                            0x0000e910   Number         4  llm_hci.o(.text.hci_le_rd_local_p256_public_key_cmd_handler)
    __arm_cp.48_2                            0x0000e914   Number         4  llm_hci.o(.text.hci_le_rd_local_p256_public_key_cmd_handler)
    hci_le_rd_local_supp_feats_cmd_handler   0x0000e919   Thumb Code    40  llm_hci.o(.text.hci_le_rd_local_supp_feats_cmd_handler)
    [Anonymous Symbol]                       0x0000e918   Section        0  llm_hci.o(.text.hci_le_rd_local_supp_feats_cmd_handler)
    [Anonymous Symbol]                       0x0000e940   Section        0  llm_adv.o(.text.hci_le_rd_max_adv_data_len_cmd_handler)
    hci_le_rd_max_data_len_cmd_handler       0x0000e975   Thumb Code    44  llm_hci.o(.text.hci_le_rd_max_data_len_cmd_handler)
    [Anonymous Symbol]                       0x0000e974   Section        0  llm_hci.o(.text.hci_le_rd_max_data_len_cmd_handler)
    __arm_cp.47_0                            0x0000e99c   Number         4  llm_hci.o(.text.hci_le_rd_max_data_len_cmd_handler)
    [Anonymous Symbol]                       0x0000e9a0   Section        0  llm_adv.o(.text.hci_le_rd_nb_supp_adv_sets_cmd_handler)
    __arm_cp.20_0                            0x0000e9fc   Number         4  llm_adv.o(.text.hci_le_rd_nb_supp_adv_sets_cmd_handler)
    hci_le_rd_peer_rslv_addr_cmd_handler     0x0000ea01   Thumb Code   100  llm_hci.o(.text.hci_le_rd_peer_rslv_addr_cmd_handler)
    [Anonymous Symbol]                       0x0000ea00   Section        0  llm_hci.o(.text.hci_le_rd_peer_rslv_addr_cmd_handler)
    __arm_cp.35_0                            0x0000ea60   Number         4  llm_hci.o(.text.hci_le_rd_peer_rslv_addr_cmd_handler)
    [Anonymous Symbol]                       0x0000ea64   Section        0  llm_scan.o(.text.hci_le_rd_per_adv_list_size_cmd_handler)
    __arm_cp.12_0                            0x0000eaa4   Number         4  llm_scan.o(.text.hci_le_rd_per_adv_list_size_cmd_handler)
    __arm_cp.12_1                            0x0000eaa8   Number         4  llm_scan.o(.text.hci_le_rd_per_adv_list_size_cmd_handler)
