:020000040000FA
:10000000C4FD1220D5070000000000000000000021
:1000100000000000000000000000000000000000E0
:1000200000000000000000000000000000000000D0
:1000300000000000000000000000000000000000C0
:1000400000000000000000000000000000000000B0
:1007C000DFF80CD000F058FE00480047B5150000D7
:1007D000C4FD122000488047E5FC0200EFF31080C2
:1007E00072B6704780F31088704740BF644A136840
:1007F000012B04D04FF001031360624A1060624A7B
:10080000116062484FF0805101607047EFF3108231
:1008100072B65B48016851B34FF00001016059485E
:10082000016891B1EFF309811EF0100F08BF21EDAF
:10083000108B21E9F00F4FF000041EF0100F08BFDD
:10084000012441F8044D006801604F4909680968B6
:1008500008C9B1E8F00F002B18BFB1EC108B81F381
:1008600009884EF0100E002B18BF2EF0100E82F3E8
:1008700010884EF0040E704745484FF47F01D0F8C1
:10088000002041EA0201016070473F490860EFF330
:10089000148222F0040282F314883A494FF00000D7
:1008A000086037494FF00100086039484FF47F0174
:1008B000D0F8002041EA0201016034484FF0805135
:1008C000016034480068006880F3088861B662B649
:1008D000704720BF70471EF0040F0CBFEFF3088075
:1008E000EFF3098020E9F00F40F804ED40F804ED43
:1008F0001EF0040F0CBF80F3088880F3098800B550
:1009000041F0D4FE5DF804EB4EF0040E70471EF08B
:10091000040F0CBFEFF30880EFF3098020E9F00F1C
:1009200040F804ED40F804ED1EF0040F0CBF80F316
:10093000088880F3098800B542F012F85DF804EBEE
:100940004EF0040E704710B4EFF3038410B47C46ED
:1009500010B400B54DF804CD0FB4089C2DE9F00F8C
:1009600000B5684641F0FCFD01BCBDE8F00F0FBCCE
:100970005DF804CB5DF804EB10BC10BC10BCFEE7C6
:1009800010F4122060F2122064F2122004ED00E054
:1009900020ED00E008ED00E00649074A08685043F2
:1009A00043F239021044086040087047014908606A
:1009B0007047000004D412206D4EC64138B5D0E90E
:1009C0000221491E01EB410102EBC1014268C1EB6A
:1009D000011102EB81010268C1EB011102EB8102FE
:1009E000D0E9043101EB410103EB81013023A1F592
:1009F000527191FBF3F4174D6C4302EBC41291FB5F
:100A0000F3F403FB141100921A2902DB124B1A446F
:100A100000920C2291FBF2F3104C6343009C04EB18
:100A2000C313009391FBF2F302FB13110C4A08E08D
:100A3000491E40F2A324535C6343009C04EBC313A0
:100A400000930029F4DC0146684600F075FB00982D
:100A500038BD00003F0C0F008051010067C2030049
:100A6000943B050010B500F061FBBDE8104000F0BC
:100A7000A9BB10B5431A934209D28318881803E022
:100A800010F8011D03F8011D521EF9D210BD40EAF5
:100A900001039B0703D009E008C9121F08C0042AFC
:100AA000FAD203E011F8013B00F8013B521EF9D2E3
:100AB00010BDD2B201E000F8012B491EFBD27047F5
:100AC0000022F6E710B513460A4604461946FFF71A
:100AD000F0FF204610BD421E12F8013F002BFBD153
:100AE00011F8013B02F8013B002BF9D1704710B51A
:100AF000044604E00B7800F8013B03B1491C521E88
:100B0000F8D2204610BD421C10F8011B0029FBD171
:100B1000801A704710B5002200E0521C835C8C5C88
:100B2000A34201D1002BF8D1D8B2E1B2401A10BDD6
:100B300030B504460020034600E05B1C934203D21C
:100B4000E05CCD5C401BF8D030BD034611F8012BB2
:100B500000F8012B002AF9D11846704730B5054638
:100B60000020034600E05B1C934205D2EC5CC85CAD
:100B7000201A01D1002CF6D130BD70B5064652F0D6
:100B800029FB046805460A220021304600F078FB64
:100B90002C6070BD2DE9FE4F804681EA0300C00F36
:100BA0000C46009021F0004123F00045B8EB020014
:100BB000A94105D24046214690461C460B460246B6
:100BC00023F00040104347D0270DC7F30A00C3F3BA
:100BD0000A510290401A019040286BDAC3F31300C7
:100BE00040F4801B0098924620B10023D2EB030A08
:100BF00063EB0B0B01985946C0F14002504600F0E0
:100C000064FA06460D4650465946019A00F07CFAB1
:100C100010EB08006141002487EA115284EAE7736F
:100C20001A4340D0009A62B3019A012A4FEA075250
:100C300015DC001B61EB02014FF0004202EA075293
:100C4000CDE90042001C41F5801132462B4600F0F0
:100C500095FB03B0BDE8F08F40462146F9E7001B45
:100C600061EB0201001C41F5801300185B41201864
:100C7000A2F5001747EB030140EAD570B6196D41A4
:100C800011E06D084FEA360645EAC0754FEA075293
:100C9000001B61EB0201001C41F5801149084FEA7D
:100CA00030000019514132462B4603B0BDE8F04FE9
:100CB00000F055BB0098012240000023D0EB020257
:100CC00063EBE073009821464FEAE074B8EB000054
:100CD00061EB0401E9E783F000435BE781F0004149
:100CE00058E72DE9FE4F81EA030404F0004421F0A7
:100CF000004100944FF0000B23F0004350EA010440
:100D00005ED052EA03045BD0C3F30A54C1F30A5520
:100D10002C44A4F2F3340194A0FB0254C1F3130158
:100D200041F48011C3F3130343F4801301FB024425
:100D300000FB034E840A970A44EA815447EA83572A
:100D4000A4FB076802958D0A05FB07854FEA932CE3
:100D500004FB0C542705029D4FEA065847EA163754
:100D6000B5EB08056EEB070C870E920E47EA81176C
:100D700042EA8312A7FB0201B6EB0B0164EB00040D
:100D80002B0D43EA0C335E1844EB1C50DA465146F7
:100D9000E7FB0201C5F313044FEA0B3343EA145394
:100DA0004FEA0432019C43EA0603A4F10C040294C6
:100DB000009CCDE900B400F0E1FA03B0BDE8F08F8B
:100DC00000200146F9E72DE9F04D81EA030404F023
:100DD000004B21F0004514464FF0000A23F000417B
:100DE00050EA050220D054EA01021DD0C5F30A578B
:100DF0000246C5F31303C1F31300C1F30A5640F4CE
:100E0000801543F48013A7EB0608101BD64608F2A2
:100E1000FD3873EB050002D308F1010801E09218D8
:100E20005B41B8F1000F03DA00200146BDE8F08D08
:100E300000204FF48011064684460EE0171B73EB2A
:100E4000050705D3121B63EB050306434CEA010CAF
:100E500049084FEA300092185B4150EA0107EDD192
:100E600052EA030012D082EA040083EA0501084333
:100E700005D0101BAB4106D20122002306E0002260
:100E80004FF0004302E06FF0010253101AEB06002E
:100E90004CEB085110EB0A0041EB0B01BDE8F04DA3
:100EA00000F05DBA30B5041E71F1000404DB4FF0B0
:100EB0000044404264EB0101141E73F1000405DBA1
:100EC0001C464FF00043524263EB0403801A9941E1
:100ED00001D3012030BD002030BD30B5041E71F1BA
:100EE000000404DB4FF00044404264EB0101141E97
:100EF00073F1000405DB1C464FF00043524263EBE4
:100F00000403101A8B4101D2012030BD002030BDF6
:100F100030B5041E71F1000404DB4FF00044404280
:100F200064EB0101141E73F1000405DB1C464FF055
:100F30000043524263EB0403101A8B4101D301209A
:100F400030BD002030BD30B5041E71F1000404DB5B
:100F50004FF00044404264EB0101141E73F10004A1
:100F600005DB1C464FF00043524263EB0403424052
:100F70004B401A4301D0002030BD012030BD0EB5DA
:100F8000C10F80EAE0700844CA07002140F23343F1
:100F90008DE80E000A460B4600F0F0F903B000BDE4
:100FA00070B5C1F30A5201F000450024C1F31301EA
:100FB00040F2FF3341F480119A4201DA002070BD03
:100FC00040F233439A42A2F2334203DC524200F031
:100FD0008BF800E090402C43F1D0404270BD00F00F
:100FE000004230F000400AD0C10D01F56071C0F33D
:100FF000160042EA0151C208400711437047002021
:101000000146704701F0004330B421F0004150EA3E
:10101000010206D00A0DA2F56072C1F31301002A85
:1010200002DC30BC00207047440F44EAC104C10018
:10103000E01830BC00EBC25000F05AB930B50B4696
:10104000014600202022012409E021FA02F59D42F8
:1010500005D303FA02F5491B04FA02F52844151ECC
:10106000A2F10102F1DC30BD2DE9F05F0546002060
:1010700092469B4688460646814640241BE0284609
:1010800041464746224600F02FF853465A46C01ABA
:10109000914110D311461846224600F016F82D1A39
:1010A00067EB01084F4622460120002100F00DF8B1
:1010B00017EB00094E41201EA4F10104DFDC484675
:1010C00031462A464346BDE8F09F202A04DB203AF9
:1010D00000FA02F1002070479140C2F1200320FA8B
:1010E00003F3194390407047202A04DB203A21FA89
:1010F00002F00021704721FA02F3D040C2F1200231
:101100009140084319467047202A06DBCB17203A46
:1011100041FA02F043EAE07306E041FA02F3D040FC
:10112000C2F120029140084319467047014900F07E
:1011300003B8000018D9122010B500683C22B0FB9B
:10114000F2F302FB1303B0FBF2F00B60B0FBF2F31F
:1011500002FB1303B0FBF2F018224B60B0FBF2F37A
:1011600002FB1303B0FBF2F0021D8B600723B2FBFE
:10117000F3F403FB1422800040F2B55300F66C3008
:101180008A61B0FBF3F2B0FBF3F403FB14004432CA
:1011900080084A61C8613B2802D3920700D0401CF6
:1011A0000022074C13460A61E25C824203D8801A8F
:1011B0005B1C0B61F8E7401CC860084610BD0000CE
:1011C000A03B0500F0B52A4B2A4C85B0002182696E
:1011D00002EB42020A44491CA25C03F8012B0329DA
:1011E000F5DB244C4FF0200C002103F801CB153423
:1011F000026902EB42020A44491CA25C03F8012B7B
:101200000329F5DBC1680091816801914168029171
:1012100001680391406918A200F26C706C460A27BD
:10122000049017E003F8010B12F8010F08B1022532
:1012300000E0042502CC284607E091FBF7F607FB07
:10124000161691FBF7F130361E54061EA0F1010070
:10125000F3DC2B4410780028E4D11F705870044848
:10126000017A302901D180F808C005B00048F0BDEE
:1012700044D91220AC3B050020203A3A200000005F
:101280002DE9F04791460F4680460446002614F8A3
:10129000015B2DB100F002F90068405DC007F6D196
:1012A0002B2D02D02D2D18D0641E4A4639462046DB
:1012B00000F0F8F827B13968A14201D1C7F80080E1
:1012C00071054FF002040BD54042002803DD51F0B8
:1012D00081FF0460A007BDE8F08746F48066E4E77C
:1012E0000028F8DA51F076FF04606FF00040F2E772
:1012F0000029A8BF7047401C490008BF20F001002A
:10130000704710B4B0FA80FC00FA0CF050EA010407
:1013100004BF10BC704749B1CCF1200421FA04F499
:1013200011FA0CF118BF012121430843A3EB0C0172
:10133000CB1D4FEA00614FEA102042BF002010BCD5
:10134000704700EBC35010440029A4BF10BC704785
:10135000401C490008BF20F0010010BC704710B5C8
:10136000141E73F1000408DA401C41F100019218C8
:101370005B411A4301D120F0010010BD2DE9F04D71
:1013800092469B4611B1B1FA81F202E0B0FA80F2C6
:1013900020329046FFF799FE04460F4640EA0A00C5
:1013A00041EA0B0153465A46084313D0114653EA0B
:1013B000010019D0C8F140025046FFF795FE0546DE
:1013C0000E46504659464246FFF77FFE084305D079
:1013D000012004E020463946BDE8F08D0020054399
:1013E00046EAE0762C4337430A986305E40AA0EB0B
:1013F00008000022FD0A44EA47540A3002D50020C2
:101400000146E9E7010510196941DDE908450019C0
:101410006941BDE8F04DA2E7C1F30A52C1F31301DF
:1014200040F2FF3341F480119A4202DA0020014673
:10143000704740F233439A42A2F2334202DC5242F6
:10144000FFF752BEFFF741BE30B5041E71F1000434
:1014500004DB4FF00044404264EB0101141E73F1C1
:10146000000405DB1C464FF00043524263EB0403CB
:10147000994208BF904230BD064C074D06E0E06837
:1014800040F0010394E8070098471034AC42F6D3CB
:10149000FFF79AF964D3050084D30500004870472C
:1014A000683C05002DE9F05F82460078002715466C
:1014B0008B460AF10104B946302801D09DB113E0F2
:1014C00014F8010B0127782803D0582801D045B122
:1014D0000AE00DB1102D07D10027102514F8010BDB
:1014E00002E0082500E00A250026B0460EE005FBD4
:1014F000080005FB06F1012701EB10461FFA80F8F2
:10150000B6F5803F00D3B94614F8010B294600F028
:1015100018F80028EBDABBF1000F05D00FB1641EFC
:1015200000E05446CBF80040B9F1000F06D051F06E
:1015300051FE02210160C81EBDE8F09F48EA064046
:10154000FAE73A2800D2303820F02002412A01D3AD
:10155000A2F13700884201D34FF0FF30704770B5D9
:101560008C1810F8015B15F0070301D110F8013B4E
:101570002A1106D110F8012B03E010F8016B01F8D5
:10158000016B5B1EF9D12B0705D40023521E0DD42D
:1015900001F8013BFAE710F8013BCB1A921C03E07B
:1015A00013F8015B01F8015B521EF9D5A142D8D3B3
:1015B000002070BD80B549F04AFC002080BD0000CD
:1015C0002DE9FC4742F03EFB2348012101602348FE
:1015D0000021BFF34F8FBFF36F8F0160D0F81CA0C5
:1015E0004AF00041BAF1000F01621D4808BF4FF0F8
:1015F000020AC0F800A0CAF345172FB119484FF0EE
:10160000FF3101608163016700240DF106050FF2CF
:1016100058080FF25C09BFB1062C15D2F80710D09C
:10162000E0B2294605F0CEFD064628B940464946B7
:1016300040F24D523FF06CFABDF80610304602F011
:10164000FFF801347F08E6E7504613F091FF42F0BF
:1016500011FBBDE8FC8700BF80E100E0000007400F
:10166000C8FD1220340004506770696F000000004C
:10167000414F4E5F49525148616E646C6572000083
:1016800070B5002208230024002B0FD450F82350FB
:1016900051F82360641942F10005A41940F8234071
:1016A00045F10004013B04F00104EDE7BDE87040A2
:1016B0004BF048B8F8B51446002208230025002B4B
:1016C0000FD450F8236051F82370AD1942F1000691
:1016D000ED1944F8235046F10005013B05F00105E2
:1016E000EDE720464BF02EF80020A062F8BD000088
:1016F00010B51446FFF7DEFFA06A20B12046BDE812
:10170000104000F00DB8414920462BF0D7FA28B11F
:101710003E492046BDE810400BF0A6BD10BD00BFFD
:10172000B0B58CB0044601AD384821462A460BF0CE
:101730000BFD204629462422FFF79BF90A99002039
:10174000C4E909100CB0B0BDF0B58BB00446806A96
:1017500000B32E4D204629462BF098FA80B308207E
:101760000021002200283AD455F8206054F8203097
:10177000B718921941F100069A1AA3EB070771EB0B
:10178000060244F82070A0F101004FF0000238BFBB
:101790000122E7E71D4A00200821002300291ED46A
:1017A00054F8215052F821605B1940F100059B1953
:1017B00044F8213045F10003013903F00103EDE75E
:1017C0006D46124821462A460BF0BEFC20462946AB
:1017D0002422FFF74EF909990020C4E909100020DE
:1017E000002109290BD054F821205FEA50004FEA6C
:1017F000320044F8210002F001000131F1E72046F7
:101800000BB0BDE8F0404AF09DBF00BF544A050050
:101810007FB5054600204FF0A0460C46002A01A9DE
:1018200003904FF00100029004BF0026C5F20406A9
:101830003046019502F05CF8A9B2E2B2304602F0FF
:10184000F8F87FBD3F480088704700BF40480088D7
:10185000704700BF10B5334C0520F2213022002321
:10186000A0470620F32130220023A0471A204FF47E
:10187000C97130220023A0471B2040F2931130226F
:101880000023A0472E20E12130220023A0472F2053
:10189000E02130220023A0471D20E2213022002336
:1018A000A0471E20E32130220023A0470D20E52180
:1018B00030220023A0470F20E42130220023A0473C
:1018C0000520F22130220023A0470620F3213022F8
:1018D0000023A04721204FF48D7130220023A04720
:1018E000222040F2191130220023A047242040F288
:1018F0001B1130220023A04725204FF48E71302287
:101900000023A04713204FF4907130220023A047FA
:10191000122040F21F1130220023A0470248342138
:10192000016010BDED8500000C5005407047704708
:101930007047704770477047704700000149088042
:10194000704700BF74D6122001490880704700BF5D
:1019500076D61220704770477047F0B585680468E6
:10196000D0E911600127102D00F01C0007FA00F0EB
:1019700070600846636008BF1046A06008BF0A4652
:10198000E260F0BD2DE9F04FADF5277D0E4605462E
:10199000104684211446FFF793F89CA82C21FFF7EA
:1019A0008FF891A82C21FFF78BF886A82C21FFF740
:1019B00087F87BA82C21FFF783F870A82C21FFF76C
:1019C0007FF865A82C21FFF77BF85AA82C21FFF798
:1019D00077F84FA82C21FFF773F844A82C21FFF7C4
:1019E0006FF839A82C21FFF76BF82EA82C21FFF7F0
:1019F00067F823A82C21FFF763F828460AF0F2FCC9
:101A0000074630460AF0EEFC17B120B1C74803E0A4
:101A100050B1284600E03046214600F0C3F80020CF
:101A20000DF5277DBDE8F08F3046294606F12C07DD
:101A300005F12C0A3DF06FFE002800F0978005F1BB
:101A40005809DFF8E0B29CAA384606F15808494622
:101A5000D84791AA50464146D84786AF30464946B6
:101A60003A46D8477BAE284641463246D8473846A4
:101A700031463DF050FE002800F0888004F1580007
:101A8000A74D91A970AA019004F12C0000909CA888
:101A9000A84765AF86A87BA93A46A8474FAA4846FB
:101AA0004146D84718A82C21FFF70AF80DA82C2189
:101AB000FFF706F80DF1080A2C215046FFF700F851
:101AC00044AE384639463246D84739AD30463946B5
:101AD0002A46D8470DF1B80870A801464246D847B3
:101AE0000DF18C0930467BA94A46D8474846022169
:101AF00052460AF0A2FC18AE40464FA93246D847DB
:101B000029460DADDFF8188230462A46C0475AAE46
:101B1000284651463246C047384631462246D847C5
:101B200018AF2C213846FEF7CBFF0DAC2C212046F8
:101B3000FEF7C6FF02AD2C212846FEF7C1FF48463E
:101B400031463A46C04770A839462246D84739AE92
:101B500091A92A463046D847009A20462946C047D0
:101B6000019A30464FA9D847012059E738465146D7
:101B70003DF0D1FD00287FF449AF306D01283FF6DC
:101B80005EAFF06C00287FF45AAF3FE79CA891A9A4
:101B90003DF0C1FD00287FF439AF2846214600F012
:101BA00025F83CE7B0B505460C46084624222946F0
:101BB000FEF75FFFD5E909012422C4E9090104F118
:101BC0002C0005F12C01FEF754FFD5E91401242265
:101BD000C4E9140104F1580005F15801FEF749FF6A
:101BE000D5E91F01C4E91F01B0BD00002DE9F04F88
:101BF000F9B00646006D8B46012801D8F06C18B18B
:101C000030460AF0EFFB20B148485946FFF7CAFFBB
:101C100081E006F1580563AC304606F12C072946F1
:101C20002246FFF765FD0DF5B0783D4B304629465D
:101C3000424698470DF59A79DFF8E8A020464146DC
:101C40004A46D0470DF5DC78374B484603214246DB
:101C500098470DF5C679384629464A46D0474DACD7
:101C6000384649462246D04758AA304621461646AD
:101C7000D04742AC404641462246D04737ADDFF818
:101C8000A880304608212A46C0474DAE244B204646
:101C900029463246984742AC304649462246D0470C
:101CA000204602215A46C04737AC38463946464698
:101CB0002246D04742AD484649462A46D0470DF114
:101CC000B00820462946A9464246D04721AD4046A5
:101CD00008212A46B04716AC58A804212246B0472E
:101CE000B0460BAE0E4F20464DA93246B8476C4663
:101CF0006EA831462246D0470BF12C0220462946D9
:101D0000B84737AC484663A92246D0470BF1580282
:101D100020460821C047002079B0BDE8F08F00BF01
:101D20008DD1000071C400003BC40000844C05004C
:101D30002DE9F0418CB0174C054690460E46164FE3
:101D4000E07DFF2806D0C000102101FA00F03968BC
:101D50000843386005F1580001A916F039FDE07D0F
:101D6000FF2807D0C000102101FA00F0396821EAED
:101D70000000386001AF2846324639460AF078FB49
:101D800005F12C00394642460AF072FB0CB0BDE862
:101D9000F08100BFC8DB12206400055010B541F08F
:101DA00051FF0024532C06D0A1B24FF0A04001F007
:101DB00049FD0134F6E7BDE8104041F05BBF00008B
:101DC00070B541F03FFF1048104C002500688006B8
:101DD00007D4312D13D0A9B2204601F033FD0135CF
:101DE000F7E70B4EB5F5C07F09D0705F602804DBC4
:101DF000603881B2204601F025FD0C35F2E7BDE8E0
:101E0000704041F037BF00BF24000740000004507D
:101E1000DCD612204023B0F1A04F08BF60238B42D4
:101E20009CBF0020704701F01F0313804A09D200B5
:101E3000A2EB511100EBC1007047000010B5AB4A96
:101E40000368904208D0AA4CA04205D0A94CA042F9
:101E50001CBFA94CA04218D14C6823F07003234347
:101E6000036090420B688C68C462836208D0E24AC7
:101E7000904205D0E24A90421CBFE24A904208D10B
:101E8000C96801630121416110BDDC4CA042E3D06F
:101E9000E6E7DA4A9042F3D0F4E700BF10B5012339
:101EA000046A8B4002FA01F124EA03030362026A26
:101EB0001143016210BD10B5C46A012184F83610C7
:101EC000E26982420DD0216A814207D0616A814273
:101ED00006D0A16A814205D1082102E0022100E07A
:101EE00004212175204602F0D5F90020207510BD8F
:101EF00010B5C46A012184F83610E26982420DD01F
:101F0000216A814207D0616A814206D0A16A81427A
:101F100005D1082102E0022100E0042121752046BC
:101F200002F057FF0020207510BDC06A012180F823
:101F3000361002F09DB9C06A012180F8361003F016
:101F400081B80000F0B5026A4F4E22F00102026231
:101F50000B688A68046A24F0020422434468856995
:101F600035402B43A34DA84208D0A34DA84205D02D
:101F7000A34DA8421CBFA34DA84211D1D1E90567CA
:101F8000CD6824F4407422F00C02344325F004059B
:101F90002A433C4344608361496841630262F0BD67
:101FA000964DA842EAD0F5E7F0B5026A4E4E22F00F
:101FB000100202620C688A68036A23F0200343EA75
:101FC000021243688569354045EA0424894DA842D8
:101FD00008D0894DA84205D0894DA8421CBF894D23
:101FE000A84215D1D1E9056723F44063CD6822F0FA
:101FF000C00243EA86036FF0400606EA051543EA8D
:1020000087032A4343608461496881630262F0BDAB
:102010007A4DA842E6D0F5E7F0B5026A1A4E22F4EE
:10202000807202620C688A68036A23F4007343EAD0
:1020300002224368C56935402C436E4DA84208D042
:102040006D4DA84205D06E4DA8421CBF6D4DA842F3
:1020500015D1D1E90567CD6823F4405322F44062DD
:1020600043EA06132D0240F2FF46B54343EA071345
:102070002A434360C4614968C1630262F0BD5F4D99
:10208000A842E6D0F5E700BFFCFF0FFF70B5026A7B
:10209000154E22F4805202620C688A68036A23F4A7
:1020A000005343EA02324368C569354045EA0424D7
:1020B000504DA84208D0504DA84205D0504DA842DE
:1020C0001CBF504DA8420AD14D6923F4804343EA16
:1020D00085134360C46149680164026270BD474D65
:1020E000A842F1D0F5E700BFFFFCFF0F0000014060
:1020F000001001400000054000200540B0B5006818
:102100001D4B82681A40D1E9003424F470252A431B
:102110001A4382606FF0030202EB3412032A2AD8BA
:10212000DFE802F00210171E026A036A23F00103BF
:1021300003620969836923F0F00343EA01118161B5
:102140000262B0BD8B680A691946BDE8B04000F074
:1021500015B88B680A691946BDE8B04000F054B85C
:10216000D1E9022309691A4342EA0121826822F473
:102170007F4211438160B0BD8FFFF0FF10B5036A4D
:10218000046A24F001040462846924F0F00444EA3F
:102190000212826123F00A021143016210BD0000A5
:1021A00070B5046A134EB04224F0010404628569DC
:1021B000046A08D0104EB04205D0104EB04202D092
:1021C0000F4EB0420FD125F0F30522F0F0021B01B3
:1021D00001F00A01DBB22B431A43826124F00A02A8
:1021E0001144016270BD074E25F0F305B042ECD0FA
:1021F0000122ECE700000140001001400010054002
:102200000000054000200540036A23F0100303622C
:10221000836923F4704343EA0232036A826123F044
:10222000A00242EA01110162704710B5046A12026D
:1022300001F00A0124F0100404624FF2FF04A243EB
:1022400063F30F32836923F473431A43036A826191
:1022500023F0A00242EA0111016210BD2DE9F04114
:1022600004680223A5680679012E57D04371012323
:1022700025F0060C037111F003031DD063F0030673
:10228000C3F10403002788464FF0000E3EB118F852
:10229000015B0136BD4008374EEA050EF6E76FF0E8
:1022A000010505EB430545EA0C05A560C4F800E00F
:1022B0006568ED07FCD000E00023A56845F0060541
:1022C000A560D51EAB4206D2CE5826606668F607DA
:1022D000FCD00433F6E7934214D26FF0010E0027CE
:1022E0000025934207D2CE5C0EF1020E0133BE40B0
:1022F00008373543F5E74EEA0C01A16025606168B7
:10230000C907FCD001214171002101718079354953
:1023100001EB00102168C06880EA01031846BDE89F
:10232000F08100BF10B503689C6844F001049C6014
:10233000BDE81040FFF792BF50B110B5044602202F
:102340006071204600F02AF800202071607110BDF5
:102350000120704740797047D0B110B5044600683D
:1023600008B90C482060617929B900202071204605
:1023700000F015F8206802216171A62181604FF0FC
:10238000FF3101610449416101206071002010BDED
:102390000120704700E00040B71DC104704770473E
:1023A000B0B5104A056802EB0113D3E901432C6173
:1023B0000C0112596A61AB608171A86840F001009C
:1023C000A860B0BD10B5046821610649626101EBE7
:1023D00003118968A1608371A06840F00100A060CA
:1023E00010BD00BFE0680500F0B51F4A6FF097050B
:1023F0009728144605F1580502F5802388BF1C462E
:1024000088BF6FF097052E18B0B24FF66875402858
:1024100002D3403E703403E0202824BF203E3834ED
:10242000B6B201273748972907FA06F6C0E90064D3
:10243000A76846EA0706A6608CBF1A4658352944A5
:102440008BB2402B02D34039703203E0202B24BFE3
:102450002039383289B2012303FA01F1C0E90212AE
:10246000906808439060F0BD0400005070B50C46C1
:1024700005460026A642A8BF70BDA85D00F002F880
:102480000136F7E72DE9F0411E4CE168B9B30B685E
:10249000D4F808C0072743EA0C036FEA0C080B6066
:1024A00063681D68D4F800E045EA0E056FEA0E0681
:1024B0001D600D6825EA0C050D601A68002F02EA00
:1024C00006021A600FD40A6820FA07F5013FED07EB
:1024D00042EA0C0408BF02EA08040C601A6842EAE7
:1024E0000E021A60E9E7086800EA08000860186848
:1024F00040EA0E001860086840EA0C000860BDE879
:10250000F08100BF80DA12202DE9FE4F294D1446DC
:102510000E4680464F2120224FF0200B2846FEF722
:10252000C8FA0027A81C0296B04405F106092E46F9
:1025300085F84F700190A7422FDA17F00F0A17D1D4
:1025400002982946C6191C4800F038F828464F2141
:102550002022FEF7AEFAC6F3072128463DF0AAFC7A
:102560000198F1B23DF0A6FC42F23A004E46A88036
:1025700018F80700A0F121015D290AEB050128BF29
:102580002E2081F83C00304618F807103DF092FCF0
:1025900086F802B001370336CDE7064C06482146DF
:1025A00000F00CF820464F212022FEF782FABDE809
:1025B000FE8F00BFB8DD122030CB0500704701460A
:1025C0000120C1B1B0B50A68D1E91134156825F010
:1025D0000E051560156825F00105156004F01C0254
:1025E00000FA02F25A60002281F8282081F82900BE
:1025F0000020BDE8B0407047B0B590F8291002291E
:102600001CD10168C26BD0E911340D6825F00E05AC
:102610000D600D6825F001050D6004F01C014FF000
:10262000010404FA01F159604FF0000180F828100C
:1026300080F829402AB19047002102E0042101647A
:1026400001210846B0BD000068B1B0B5026811684C
:1026500021F0010111607B49114401F580238C2B8D
:1026600003D8794B06E0012139E08D290CD2764957
:1026700001F58023A2F1080114244364C9B2B1FB1F
:10268000F4F18C00846401E0D0E9113400210125CB
:10269000102C116004F01C0205FA02F24FF018052C
:1026A0005A604FF0380205EA440538BF02EA440593
:1026B0004FF03F024FF0AC0402FA05F238BFA824F5
:1026C0001D5925EA02021A51016480F82810C0E958
:1026D0000C11C0E90E1180F82910BDE8B040084681
:1026E000704700BF006C704790F829007047F0B544
:1026F000D0E9111302680C68156803F01C036E071B
:102700000ED504269E4016EA040709D013689B06DE
:1027100003D4136823F0040313604E60416B2BE075
:10272000AE0714D502269E4016EA04070FD01368A0
:102730009B0606D4136823F00A031360012280F875
:102740002920002280F828204E60016B14E02D071C
:1027500016D508259D402C4012D0146824F00E0494
:102760001460012202FA03F34B600021026480F836
:10277000281080F82920816B11B1BDE8F04008478E
:10278000F0BD000000283ED070B501682D4A8B18BE
:102790002D4A03F580248D2C03D38C2B0AD802F507
:1027A0008022A1F108031424DBB2B3FBF4F39B00F5
:1027B000C0E91123022247F6F07300F1080680F801
:1027C0002920426A0A610A689A4378CE1A43B3F50F
:1027D000804F42EA0402846942EA050242EA0602A4
:1027E00042EA0402C46942EA0402046A42EA0402B8
:1027F0000A601CD0816CC1F38202032A05D8D10083
:10280000426CA83207E001211AE08908182202EA86
:10281000C101426CAC323F2314688B4024EA0303AD
:102820001360436803FA01F1136819431160002132
:102830000122016480F8281080F82920BDE870404A
:1028400008467047F8EFFBBF001000402DE9F84341
:10285000044690F8290002282DD1206800688006DF
:102860002ED4042000298846164608BF0220A16CF9
:1028700001F01C0100FA01F502F047FC8146771CCB
:10288000616C0868284221D10868A26C02F01C0221
:10289000D040000725D4002FF2D002F036FC1EB144
:1028A000A0EB0900B042EBD920202064002084F87E
:1028B000280001201DE0002084F82800042001E009
:1028C0004FF4807020640120BDE8F883A06CB8F15B
:1028D000000F00F01C0010D0042202FA00F0486043
:1028E00012E0012000FA02F24A600021206484F81C
:1028F000281084F82900BDE8F883022202FA00F0CB
:102900004860012084F82900002084F82800BDE8F0
:10291000F883000010B590F82830012B01D1022374
:1029200019E0012380F8283090F82940012C0FD1BC
:10293000032905D8DFE801F00206080A026306E071
:10294000012305E0426302E0826300E0C2630023EA
:10295000002180F82810184610BD3F291BD840F6EA
:10296000FF7220EA02026FF31F30A0F10803142067
:10297000B3FBF0F04F2B01D8C00005E09F2B0AD825
:102980006FF01F0303EBC00001FA00F0D2F8A810AB
:102990000843C2F8A800704770B5044690F82800B4
:1029A00001281CD0012084F8280094F8290001286F
:1029B00012D10220002584F82900256420680668C9
:1029C00026F0010606602046FEF7C7FF2068016872
:1029D00041F00101016003E0002084F82800022595
:1029E000284670BDB0B5044690F8280001281DD0D7
:1029F000012084F8280094F82900012813D102202E
:102A000084F82900002020642068056825F001056D
:102A100005602046FEF7A1FF2068626B01683AB1AD
:102A200041F00E010AE0002084F828000220B0BD29
:102A300021F004010160016841F00A0101600168B0
:102A400041F0010101600020B0BD000090F8282095
:102A5000012A01D1022222E0012280F8282090F8E8
:102A60002930012B18D1042907D8DFE801F0030829
:102A70000B0E1000002202630EE001220CE0002287
:102A8000426309E00022826306E0002203E00022A4
:102A9000C0E90C228263C263002180F8281010462E
:102AA000704780B504F084FF002080BDE0B5019040
:102AB000019830B14FF47A7000F004F801980138B1
:102AC000F5E78CBDF8B504460E4D28B92868C00757
:102AD00004BF002000F036F842F2107684B1A71B44
:102AE00034BF002734462868C00704D1204600F0D0
:102AF00029F83C46F2E7204600F006F83C46EDE7B0
:102B0000F8BD00BF10E000E018B500900C484FF48D
:102B10007A730168009A4A43B2FBF3F200920022F2
:102B200043684468A342FCD01A44A342A2EB0402C7
:102B300098BF0A44009B9A42234628BF18BDF0E77D
:102B400014E000E01CB5114C01902068019901B11E
:102B500040B9002006F062FE0D49B0FBF1F02060A4
:102B6000019991B1312802D301990139019101995B
:102B700059B10199013948430521B0FBF1F00090AA
:102B80000098411E00280091FAD11CBD08DE1220D9
:102B900040420F0060B110B5002918BF0121044662
:102BA00000F060FD20460121BDE8104000F0A1BA10
:102BB000704750B1B0B51C46054600F082FD28466E
:102BC0002146BDE8B04000F072BD70472DE9F041EC
:102BD0000127002862D00E4600295FD0069F3146AB
:102BE00098461546044606F0DFFB0220E56006F134
:102BF000080284F82A004FF0000084F820002071B9
:102C000007CA84F828204FEA0151C4E90B01B5B185
:102C1000B8F1000F13D008204FF48051C5E9081017
:102C200000208021E861C5E90500C5E90301102005
:102C3000A860D8F80000D8F80C10C5E90001F9B276
:102C4000204600F04FFD94F82900012803D0022807
:102C500005D1012100E00021204600F076FD20464C
:102C600000F083FA84F8210020460121012700F0BA
:102C70005CFA204606F07FFC606294F82020C3B224
:102C8000C0F3074118464FF043F9206130B12046A8
:102C900006F06CF91E20FFF715FF00273846BDE847
:102CA000F081C0B1F0B59202DDE90576DDE90754A7
:102CB000006842EAC131826C41EA03216FF31002DD
:102CC00041EA871141EA061141EA85012143114396
:102CD0008164BDE8F0407047C0B1F0B59202DDE913
:102CE0000576DDE90754006842EAC131026D41EA28
:102CF00003216FF3100241EA871141EA061141EA0C
:102D00008501214311430165BDE8F0407047A8B13A
:102D1000032908D002290CD001290FD10068416D88
:102D200041F0010109E0006840F20112416D1143D8
:102D300003E00068416D41F480714165704720B146
:102D40000068416941F00101416170472DE9F0419E
:102D5000002800F09980044690F82100012101FA32
:102D600000F62069B5B290F86C712046294600F053
:102D700039FD20460221002200F062FA17B128B185
:102D8000002706E0C0B34FF0000839E02068406833
:102D9000C7B2206915210022C679204600F050FAFA
:102DA000002E18BF27EA060610B320460021002295
:102DB00000F046FA206829464660204600F012FDE1
:102DC00020460321002200F03BFA94F82100012163
:102DD00001FA00F081B2204600F004FD20460221F5
:102DE000002200F02DFA20684068C007F6D14BE0C1
:102DF0002068294646604DE0206840685FFA80F808
:102E0000204614210022002500F01AFA10B920688B
:102E10004068C5B22069C779002F18BF28EA0707A4
:102E200094F8210028B1280640EA054040EA072529
:102E300000E02D0220461521002200F001FA3D435A
:102E400020B320460021002200F0FAF920684560F6
:102E5000700081B2204600F0C5FC2046032100220C
:102E600000F0EEF994F82100012101FA00F081B29E
:102E7000204600F0B7FC20460221002200F0E0F9D5
:102E800020684068C007F6D1BDE8F0812068456041
:102E9000700081B2204600F0A5FC204603210022EC
:102EA000BDE8F04100F0CCB918B1006842691143A7
:102EB00041617047F0B585B0F0B105690446E9B1EC
:102EC00095F864100120D1B395F9683095F9672021
:102ED00095F9661095F9696095F96A7095F96B50E6
:102EE000CDE90067CDE902502046FFF7DAFE2169FF
:102EF000206891F864101CE0012020E095F844104F
:102F00000120E1B195F9483095F9472095F946102F
:102F100095F9496095F94A7095F94B50CDE90067EC
:102F2000CDE902502046FFF7BCFE2169206891F8E8
:102F30004410026C22F0FF0211440164002005B02D
:102F4000F0BDE0B1F0B585B004460069C9B190F9B3
:102F5000483190F9472190F9461190F9495190F97B
:102F60004A6190F94B010127CDE90056CDE90207EE
:102F70002046FFF796FE206900F5A27018E00120B8
:102F8000704790F9383190F9372190F9361190F95E
:102F9000395190F93A6190F93B010127CDE900568A
:102FA000CDE902072046FFF77CFE206900F59A7004
:102FB000216800780A6C22F0FF02104408640020A7
:102FC00005B0F0BDD0B1C9B1B0B5044606F0ECF91A
:102FD0002046012100F0B9FB2046012100F0A5F8B0
:102FE000204600F0FFF805462046002100F09DF83D
:102FF0002046002100F0A9FB2846B0BD0020704704
:1030000070B50024E0B1D9B1054606F0CDF92846E7
:103010000021002400F099FB2846012185F8214079
:1030200000F083F8284600F0A8F80646284600215C
:1030300000F07BF826B16FF07F40864218BF012474
:10304000204670BD2DE9F84390B10D461C46012184
:1030500033B30646C06818B33168D1F800904AB15E
:10306000102201F1040800212746826000220CE0B2
:10307000012115E000220B1DE11CA84682608F088B
:103080004FF400624FF400711D46C0E90512FFF7CE
:10309000DBFA014620B9F068FFF774FB014610B176
:1030A0000846BDE8F883316849F02002F0683B46E5
:1030B0000A60621E4A622946424601B0BDE8F043FA
:1030C000FFF76ABC10B560B10446C06848B10A4653
:1030D0000021FFF7BBFB21680A6822F020020A608A
:1030E00010BD012010BD80B5002100F01EF80020A9
:1030F00080BD50B100680029026842F0400308BF5B
:1031000022F040030360002070470120704750B157
:1031100000680029026842F4A02308BF22F4A0231B
:103120000360002070470120704750B100680029FB
:10313000026842F0010308BF22F00103036000208F
:10314000704701207047B0B50C4605463CF08BF93E
:1031500028462146BDE8B040FFF7F3BE10B1006835
:10316000C06800E00020C0B2704720B100688068ED
:10317000C0F34000704700207047B0B5044630B13E
:10318000206848F20102816A62F31101816294F8B9
:103190002100032101FA00F081B2204600F022FB59
:1031A00020469F210022002500F0A0FA0CB12068E3
:1031B000456894F8210050B14FF47F40E9B200EA2D
:1031C0001520084421684968C9B240EA014525F044
:1031D0007F40B0BD20B10068D0F88800C00F7047B4
:1031E00000207047B0B530B3054600688168890794
:1031F00021D5816A48F20102002462F31101002204
:1032000081620521416228469F2100F06FFA2968FA
:103210004868421C022A0FD380EA1022496812062D
:1032200009D1C0F30742B2EB106F04BF81EA11204D
:103230005FEA006002D000242046B0BD0124FBE715
:103240002DE9F04186B00546006910B10E463429DB
:1032500001D9012026E000EBC6070120397D09B322
:10326000144697F9173097F9162097F9151097F922
:1032700018C097F919E097F91A8097F91B70CDE9F2
:1032800000CECDE902870490284600F06DF9286948
:10329000224600EBC600017D284600F027FA0028F0
:1032A00018BF012006B0BDE8F0812DE9F04786B0D7
:1032B0000D46016951B1342D08D8074601EBC50010
:1032C0009046027D12B11E46342B04D901242046BB
:1032D00006B0BDE8F08701EBC6010124097D002995
:1032E000F5D090F9173090F9162090F9151090F953
:1032F00018C090F919E090F91AA090F91B00DDF8B8
:103300003890CDE900CECDE902A03846049400F013
:103310002BF9386900EBC60090F9173090F91620A8
:1033200090F9151090F918C090F919E090F91AA0C9
:1033300090F91B00CDE900CECDE902A038460494F7
:1033400000F032F9396938680022C267143111F887
:103350003620C262C0F88090026842F4A022026067
:10336000C0F81C8011F83510816101690907FCD58E
:103370004169002441F009014161016821F4A02163
:103380000160A4E718B100680069C00F7047002011
:10339000704720B10068006900F00100704700200C
:1033A00070470146012011B1096849688843704798
:1033B00020B10068406DC0F34000704700207047A6
:1033C00020B100680069C0F34000704700207047DA
:1033D00020B10068406DC0F3402070470020704766
:1033E0002DE9F0410127002800F0B5800E460029A4
:1033F00000F0B180069F314698461546044605F018
:10340000D3FF0220E56006F1080284F82A0007CA0B
:1034100084F828204FEA0151C4E90B01A2F1010010
:10342000B0FA80F04FEA501084F82000D5B1B8F11E
:10343000000F17D001204FF48051C5E9081000207B
:103440008021E861C5E90500C5E903011020A860F5
:10345000D8F80000D8F80C10C5E900012046012179
:1034600000F0A3F9F9B2204600F03CF994F82900E5
:10347000012803D0022805D1012100E000212046C7
:1034800000F063F92046FFF770FE84F82100204623
:103490000121FFF74AFE656AFF2D18BF002D04D1F8
:1034A000204606F068F80546606294F82020EEB2E7
:1034B000C5F3074130464EF02BFD2061C8B1280C02
:1034C00094F82020C1B230464EF040FD20B194F86F
:1034D000211088402063A06194F8200078B1204634
:1034E0003BF0CCFE2079F0B12046012104F020FB16
:1034F00030E020460021FFF718FE01272BE0204690
:10350000FFF724FCA069B0F1807F05D9B0F1007FFE
:1035100015D894F8210090B1207950B120460121AE
:1035200000F02EF916E020460021002704F000FBF1
:1035300011E020460021002700F022F90BE0204690
:1035400021210022FFF77CFE207938B1204601219D
:10355000FFF7F9FD00273846BDE8F081204600213D
:103560000027FFF7F0FDF6E7E8B1F0B5D203DDE99B
:103570000547DDE907650068DDF824C042EA4141FE
:10358000826A41EA83216FF3110241EA042141EA90
:10359000871141EA061141EA850141EA0C01114314
:1035A0008162BDE8F0407047E8B1F0B5D203DDE9D3
:1035B0000547DDE907650068DDF824C042EA4141BE
:1035C000C26B41EA83216FF3110241EA042141EA0F
:1035D000871141EA061141EA850141EA0C011143D4
:1035E000C163BDE8F040704770B16BB170B50D4676
:1035F00019461446064600F0B6F8304629462246DB
:10360000BDE8704000F092B87047F0B585B0044650
:10361000012034291ED82269E2B102EBC100037DEA
:103620000120BBB102EBC10595F9173095F91620C1
:1036300095F9151095F9186095F9197095F91AC052
:1036400095F91B508DE8C010CDE903502046FFF7D7
:103650008BFF002005B0F0BD10B1006840687047D6
:103660000020704750B100680129026822F08003F1
:1036700008BF42F0800303600020704701207047BC
:1036800038B10068026C22F0FF021144016400208E
:1036900070470120704740B10068026C22F47F42FD
:1036A00042EA01210164002070470120704730B1D7
:1036B00040F2FF32006891434167002070470120CB
:1036C000704768B140F2FF33006821EA03031144F8
:1036D00001F2FF31C3666FF30901016700207047F3
:1036E0000120704708B10068C160704758B1006898
:1036F000C26181610169C907FCD0416941F00101E2
:103700004161002070470120704768B14FF4E00329
:10371000006803EA015162F3132182686FF31622F5
:1037200011448160002070470120704758B140F279
:10373000FF3300689943C16502F2FF316FF309015D
:103740000166002070470120704750B100680029D1
:10375000826842F0020308BF22F002038360002067
:103760007047012070470246012042B139B110680C
:103770000A6812BA4266496809BA81660020704731
:10378000B0B50C4605463BF06EFE28462146BDE826
:10379000B040FFF78FBB30B10068826861F38402EC
:1037A0008260002070470120704740B1006801F03E
:1037B0001F01426D22F4F84242EA812141657047BF
:1037C00030B100686FF39F21C0F888100020704767
:1037D0000120704720B100680069C0F3C000704745
:1037E0000020704730B1013900686FF31F5141620A
:1037F000002070470120704730B1013900686FF335
:103800001F518163002070470120704718B1006884
:1038100041600020704701207047E0B589B20DF18A
:103820000602FEF7F7FA50B1BDF80610012202FABF
:1038300001F102690A430261C2691143C1618CBD91
:103840003CF0B0B8BCB50DF106020C460546FEF7DB
:10385000E1FA60B1BDF80610012202FA01F1426BF3
:10386000114204D0416328462146FFF7E9FFBCBD61
:10387000E0B50DF10602FEF7CDFA30B30146BDF812
:10388000062001208B6800FA02F21A4200D08CBD9B
:103890004869104204BF00208CBD086ACB6A1340FF
:1038A00010420ED04B482BB10B6B13421CBF00F5DE
:1038B00000108CBDCB6A1342E9D1096B00F5801072
:1038C00010E02BB1086B104202D04FF0FF308CBDDE
:1038D000CB6A404813421CBF00F540108CBD096BF9
:1038E00000F58000114208BF4FF0FF308CBD00BFD3
:1038F0001CB50C4609880DF10602FEF78BFA00286C
:1039000061D06168C9B1012921D0324A914226D0E3
:10391000314A91422CD0314A914234D0304A9142BE
:103920003FD0304A91424FD1BDF80610012202FA31
:1039300001F1826A0A43826222E0BDF80610012288
:103940008A4001691143016150F81C1F39E0BDF83C
:103950000610012202FA01F150F80C2F31E0BDF8F7
:103960000610012202FA01F1426A0A43426220E093
:10397000BDF80610012202FA01F1426A0A434262CE
:10398000C26A8A4309E0BDF80610012202FA01F179
:10399000426A0A434262C26A0A43C262026B0A4333
:1039A0000CE0BDF80610012202FA01F1826A0A4316
:1039B0008262C26A0A43C262026B8A43026350F89F
:1039C000182F114301601CBDBDF80610012202FA38
:1039D00001F1F4E700001110000021100000311087
:1039E0000000411000005110E0B50DF10602FEF795
:1039F00011FA68B1BDF80610012202FA01F18268DD
:103A0000114218BF04300068084018BF01208CBD67
:103A100000208CBDE0B50DF10602FEF7FBF938B1D0
:103A2000BDF80610012202FA01F1426851404160DE
:103A30008CBD1CB514460DF10602FEF7EBF958B12A
:103A4000BDF806100122002C02FA01F142680CBFF9
:103A500022EA0101114341601CBD10B50446022059
:103A600041F2111284F836002068016A114208D12F
:103A7000016A40F24442114203D1016821F0010180
:103A80000160204600F02CF8002084F8340084F80F
:103A90003600002010BD90F836007047F0B110B528
:103AA000044690F8360028B9002084F834002046F7
:103AB00000F017F80220211D84F836002068FEF778
:103AC000BDF920686FF001010161016841F0040156
:103AD0000160012084F83600002010BD01207047ED
:103AE00070477047022180F8361001680A6842F07A
:103AF00001020A60012180F83610002070470000A2
:103B0000B0B5044690F83600022804BF0220B0BDCC
:103B100094F836001346012806D111B90BB10120E3
:103B2000B0BD022084F83600A0690A4D2268056302
:103B3000094D2C32A0698563A069FEF753FF206808
:103B4000C16841F48071C160016841F00101016008
:103B50000020B0BD371F00002B1F00000068C168A7
:103B600041F00101C160016841F0010101600020E4
:103B70007047022141F2111380F8361001680A6A79
:103B80001A4208D10A6A40F244431A4203D10A6831
:103B900022F001020A60012180F8361000207047EF
:103BA000016841F21113CA6822F48072CA600A6A7D
:103BB0001A4208D10A6A40F244431A4203D10A6801
:103BC00022F001020A60012180F8361000207047BF
:103BD000006841F21112C16821F00101C160016A5F
:103BE000114208D1016A40F24442114203D10168F6
:103BF00021F00101016000207047000010B590F82D
:103C0000342004460220012A00F0858084F8360022
:103C10000120414B84F83400206882681A40826099
:103C20000A68BAB1102A1BD0202A1FD0302A23D00C
:103C3000402A27D0502A31D0602A3BD0702A45D064
:103C4000B2F5005F52D0B2F5805F5ED1816821F499
:103C5000702159E0816841F0070121F0700153E0C3
:103C6000816841F0170121F060014DE0816841F069
:103C7000270121F0500147E0816841F0370121F030
:103C8000400141E04B68CA681946FEF777FA2068A0
:103C9000816841F0470121F0300135E04B68CA6886
:103CA0001946FEF76BFA2068816841F0570121F050
:103CB000200129E04B68CA681946FEF7A5FA20687A
:103CC000816841F0670121F010011DE0D1E9012375
:103CD000C9681A4342EA0121826822F47F421143F3
:103CE0000E4A81608168114077310DE0D1E90123EE
:103CF000C9681A4342EA0121826822F47F421143D3
:103D00008160816841F4804181600020012184F854
:103D1000340084F8361010BD8F00F0FF88FFF0FFEC
:103D2000B0B590F834400223012C4AD080F83630E8
:103D3000012380F834304B68012B0BD101F10805C9
:103D400038CD2343046843EA0523A56825F47F455D
:103D50002B43A3604FEAB202032A2CD8DFE802F01B
:103D6000020C172102689369096800290CBF23F42B
:103D7000803143F4803108E00268936909680029C2
:103D80000CBF23F0807143F08071916113E00268F1
:103D9000D369096800290CBF23F4803143F48031D2
:103DA00008E00268D369096811B143F0807101E04D
:103DB00023F08071D1610023012180F8343080F834
:103DC00036101846B0BD0068426822F080021143E8
:103DD00041600020704701207047B0B50C46054691
:103DE000B1F5804F14D0B4F5007F14D0B4F5806FD6
:103DF00014D0B4F5006F14D0B4F5805F14D0B4F5CE
:103E0000005F14D0B4F5807F16D105F1180010E0E2
:103E100005F130000DE005F11C000AE005F120007D
:103E200007E005F1240004E005F1280001E005F1B8
:103E30002C000068FEF7C3FB2868C168A143C1607D
:103E40000020B0BD01207047B0B50C460546B1F565
:103E5000804F14D0B4F5007F14D0B4F5806F14D027
:103E6000B4F5006F14D0B4F5805F14D0B4F5005FE2
:103E700014D0B4F5807F16D105F1180010E005F1DB
:103E800030000DE005F11C000AE005F1200007E01C
:103E900005F1240004E005F1280001E005F12C0003
:103EA0000068FEF78CFB2868C168A143C160002050
:103EB000B0BD10B50446022041F2111284F836005C
:103EC0002068016A114208D1016A40F2444211425D
:103ED00003D1016821F001010160204600F052F891
:103EE000002084F8340084F83600002010BD90F8DB
:103EF00036007047002843D0F8B5044690F83600E5
:103F00000D4628B9002084F83400204600F03BF824
:103F1000022084F836002068816821F470218160D5
:103F2000211DFDF78BFF2668D5E9000CD5E902239A
:103F3000B7683843B769316AB060A86942EA0020BF
:103F40004FF6FC4290434FF6FF7227EA02021A43F3
:103F50001043EA6940EA02202A6940EA02102A6A0C
:103F600040EA0230B06121F0AA00696940EA0C0021
:103F700040EA01103062012084F836000020F8BDCC
:103F8000012070477047704710B50446042907D0D8
:103F900009B9002105E0206800210122FDF77EFF1C
:103FA000042120680122FDF779FF2068016841F0B3
:103FB00001010160002010BD2DE9F041044690F898
:103FC0003600022801D1022584E094F83600069DCF
:103FD0001E4601280FD1002E3046134618BF01207F
:103FE000002A18BF0123034202D10DB1012571E05F
:103FF000022084F8360018291ED004294FD0002949
:1040000067D1E069354B21680363354B3431E06992
:1040100083632B46E069FEF7E5FC2068012200255A
:10402000C16841F40071C160016841F001010160A3
:104030000021FDF733FF4DE0E069DFF89C84284F55
:1040400021682B46C0F830803431E0698763E0692D
:10405000FEF7C8FC206A216832462B46C0F8308043
:104060003831206A8763206AFEF7BCFC2068012291
:104070000025016841F0010101600021FDF70EFFFC
:10408000206804210122FDF709FF2068C16841F47E
:104090000071C160C16841F48061C1601AE0206AAA
:1040A0000E4A21682B4602630D4A3831206A82632A
:1040B0003246206AFEF796FC20680122C16841F46E
:1040C0008061C160016841F0010101600421FDF7D8
:1040D000E5FE00252846BDE8F08100BFB71E0000C0
:1040E0002B1F0000B0B50446042908D079B9206818
:1040F00000210122FDF7D2FE2068022517E020688A
:10410000042101220425FDF7C9FE20680FE0206884
:1041100000210122FDF7C2FE2068042101220425AE
:10412000FDF7BCFE2068C16841F00201C160C168B2
:104130002943C160016841F0010101600020B0BD68
:1041400010B50446042907D009B9002105E020680C
:1041500000210022FDF7A2FE042120680022FDF7C5
:104160009DFE206841F21112016A114208D1016AD4
:1041700040F24442114203D1016821F00101016083
:10418000002010BD10B5044641B1206804290ED1AD
:1041900004210022FDF782FE206816E0206800213D
:1041A0000022FDF77BFE20686FF400710FE0002114
:1041B0000022FDF773FE206804210022FDF76EFE49
:1041C0002068C16821F40071C1606FF48061C26829
:1041D000114041F21112C160016A114208D1016A15
:1041E00040F24442114203D1016821F00101016013
:1041F000012084F83600002010BD10B5044641B1FE
:10420000206804290ED104210022FDF747FE206812
:1042100016E0206800210022FDF740FE20686FF0C4
:1042200002010FE000210022FDF738FE2068042182
:104230000022FDF733FE2068C16821F00201C16051
:104240006FF00401C268114041F21112C160016AAD
:10425000114208D1016A40F24442114203D101687F
:1042600021F001010160012084F83600002010BD1A
:10427000704790F834300222012B09D080F83620A4
:10428000026851610022012180F8342080F8361044
:10429000104670477047F8B50D4690F83410044644
:1042A0000220012963D084F836000120042A84F812
:1042B00034000AD09AB9D5E90012EB682068FDF7FE
:1042C0006FFF206850F8181F25E0D5E90012EB6851
:1042D0002068FDF7AAFF206850F8181F39E0D5E9DB
:1042E00000362168E868082A0F6A19D127F480721D
:1042F00060F3071608460A6250F81C2F22F0F302FA
:1043000032430E6A026003F00A0226F4206343EA95
:1043100002220A62016821F00C010160A9681DE017
:1043200027F480520A6232024FF2FF06B24360F372
:104330000F32084650F81C6F26F4734632430E6A5B
:10434000026003F00A0226F4204343EA02320A62C2
:10435000016821F440610160A96809020268114303
:1043600001600020012184F8340084F83610F8BD83
:1043700010B50446022041F2111284F8360020687C
:10438000016A114208D1016A40F24442114203D14C
:10439000016821F001010160204600F024F80020AE
:1043A00084F8340084F83600002010BD90F8360000
:1043B0007047B0B110B5044690F8360028B9002017
:1043C00084F83400204600F00FF80220211D84F804
:1043D00036002068FDF732FD012084F83600002009
:1043E00010BD012070477047704710B50446006843
:1043F0000122FDF753FD2068016841F001010160D1
:10440000002010BD70B5044690F83600022804BFA5
:10441000022070BD94F836000D46012806D112B96D
:104420000BB1012070BD022084F836004FEAB500C0
:10443000032813D8DFE800F002142434E069264E84
:1044400021680663254E3431E0698663E069FEF732
:10445000C9FA2068C16841F4007130E020682FE09B
:10446000206A1D4E216806631C4E3831206A86631F
:10447000206AFEF7B7FA2068C16841F480611EE047
:10448000606A154E21680663144E3C31606A86638B
:10449000606AFEF7A7FA2068C16841F400610EE087
:1044A000A06A0D4E216806630C4E4031A06A8663F7
:1044B000A06AFEF797FA2068C16841F48051C16094
:1044C00029460122FDF7EAFC2068016841F001015C
:1044D0000160002070BD00BFB71E00002B1F000050
:1044E00010B504464FEAB100032808D8DFE800F011
:1044F00002090E132068C26842F002020FE0206831
:104500000EE02068C26842F0040208E02068C26839
:1045100042F0080203E02068C26842F01002C26064
:104520000122FDF7BBFC2068016841F00101016038
:10453000002010BD10B5044600680022FDF7AEFC57
:10454000206841F21112016A114208D1016A40F259
:104550004442114203D1016821F0010101600020B1
:1045600010BD000010B504464FEAB100032808D87A
:10457000DFE800F002090E132068C26822F400721E
:104580000FE020680EE02068C26822F4806208E034
:104590002068C26822F4006203E02068C26822F446
:1045A0008052C2600022FDF779FC206841F21112AE
:1045B000016A114208D1016A40F24442114203D11A
:1045C000016821F001010160012084F8360000201B
:1045D00010BD000010B504464FEAB100032808D80A
:1045E000DFE800F002090E132068C26822F0020220
:1045F0000FE020680EE02068C26822F0040208E0A4
:104600002068C26822F0080203E02068C26822F035
:104610001002C2600022FDF741FC206841F2111235
:10462000016A114208D1016A40F24442114203D1A9
:10463000016821F001010160002010BD10B50446A1
:1046400000680169890744BFC1685FEA817139D494
:104650000169490744BFC1685FEA41713ED40169FD
:10466000090744BFC1685FEA017144D40169C90602
:1046700044BFC1685FEAC16149D40169C9071CBF71
:10468000C1685FEAC1714FD10169090644BFC168C1
:104690005FEA016150D40169490644BFC1685FEA1D
:1046A000416151D40169890644BFC1685FEA8161F3
:1046B00000D410BD6FF0200101612046BDE810401C
:1046C00006F058BD6FF0020101610121217580697A
:1046D000800741D02046FFF7DDFD43E06FF0040185
:1046E000016102212175806910F4407F3ED020468F
:1046F000FFF7D0FD40E06FF0080101610421217552
:10470000C06980073CD02046FFF7C4FD3EE06FF053
:104710001001016108212175C06910F4407F39D072
:104720002046FFF7B7FD3BE06FF001010161204635
:1047300000F088FC2068A7E76FF080010161204647
:1047400006F017FD2068A6E76FF0400101612046E2
:1047500000F0DAFC2068A5E7204600F06CF820465F
:1047600000F037FB00202075206871E7204600F03C
:1047700062F8204600F02DFB0020207520686EE7CF
:10478000204600F058F8204600F023FB002020755A
:1047900020686BE7204600F04EF8204600F019FB39
:1047A00000202075206868E7B0B590F834300446E2
:1047B0000220012B20D084F836004FEAB2000125F8
:1047C000032884F8345012D8DFE800F002060A0EFD
:1047D0002068FDF7B7FB0AE02068FDF7E5FB06E07F
:1047E0002068FDF719FC02E02068FDF74FFC00206F
:1047F00084F8340084F83650B0BD10B50446022069
:1048000041F2111284F836002068016A114208D181
:10481000016A40F24442114203D1016821F00101D2
:104820000160204600F025F8002084F8340084F868
:104830003600002010BD704790F836007047B0B1C8
:1048400010B5044690F8360028B9002084F83400EA
:10485000204600F00FF80220211D84F83600206861
:10486000FDF7ECFA012084F83600002010BD01208D
:1048700070477047704710B5044600680122FDF785
:104880000DFB2068016841F001010160002010BDAE
:1048900070B5044690F83600022804BF022070BDAF
:1048A00094F836000D46012806D112B90BB101204B
:1048B00070BD022084F836004FEAB500032816D8F0
:1048C000DFE800F002172A3DE0692C4E21680663FC
:1048D0002B4EE069866301F134061146E0693246E9
:1048E000FEF780F82068C16841F4007139E0206863
:1048F00038E0206A214E21680663214E206A8663D3
:1049000001F138061146206A3246FEF76BF820683E
:10491000C16841F4806124E0606A184E2168066332
:10492000174E606A866301F13C061146606A3246A2
:10493000FEF758F82068C16841F4006111E0A06AF0
:104940000E4E216806630E4EA06A866301F1400692
:104950001146A06A3246FEF745F82068C16841F466
:104960008051C16029460122FDF798FA206801684C
:1049700041F001010160002070BD00BFF11E000088
:104980002B1F000010B504464FEAB100032808D8D9
:10499000DFE800F002090E132068C26842F002024C
:1049A0000FE020680EE02068C26842F0040208E0D0
:1049B0002068C26842F0080203E02068C26842F042
:1049C0001002C2600122FDF769FA2068016841F017
:1049D00001010160002010BD10B5044600680022EE
:1049E000FDF75CFA206841F21112016A114208D108
:1049F000016A40F24442114203D1016821F00101F1
:104A00000160002010BD000010B504464FEAB1005F
:104A1000032808D8DFE800F002090E132068C268F6
:104A200022F400720FE020680EE02068C26822F4D1
:104A3000806208E02068C26822F4006203E0206817
:104A4000C26822F48052C2600022FDF727FA206873
:104A500041F21112016A114208D1016A40F2444246
:104A6000114203D1016821F001010160012084F8A5
:104A70003600002010BD000010B504464FEAB1001A
:104A8000032808D8DFE800F002090E132068C26886
:104A900022F002020FE020680EE02068C26822F0D7
:104AA000040208E02068C26822F0080203E02068DF
:104AB000C26822F01002C2600022FDF7EFF9206800
:104AC00041F21112016A114208D1016A40F24442D6
:104AD000114203D1016821F001010160002010BDE5
:104AE000F0B587B09A4201D101204DE00D4690F813
:104AF000341004460220012946D084F836000120F3
:104B00001E46042A84F8340095E88B508DE88B000B
:104B1000CDE905CE05D042B920686946FDF712FA05
:104B200003E020686946FDF73FFA042E0AD02EBB49
:104B300005F1180320680ECBFDF732FB50206FF013
:104B40000C0108E005F1180320680ECBFDF76DFBA2
:104B500060206FF440612268936919409161916807
:104B600021F070019160916808439060906820F492
:104B700070209060906840F0060090600020012155
:104B800084F8340084F8361007B0F0BD10B5044640
:104B9000022041F2111284F836002068016A1142A5
:104BA00008D1016A40F24442114203D1016821F068
:104BB00001010160204600F02DF8002084F8340047
:104BC00084F83600002010BD90F836007047F8B128
:104BD000B0B5044690F836000D4628B9002084F898
:104BE0003400204600F017F80220211D84F836001A
:104BF0002068FDF723F92068016821F008010160B1
:104C0000016829430160012084F836000020B0BD0E
:104C1000012070477047704710B5044600680021B6
:104C20000122FDF73BF9206804210122FDF736F946
:104C3000002010BD10B5044600680122C16841F093
:104C40000201C160C16841F00401C1600021FDF7AB
:104C500025F9206804210122FDF720F9002010BD6C
:104C600010B50446006800210022FDF717F92068FE
:104C700004210022FDF712F9206841F21112016AA5
:104C8000114208D1016A40F24442114203D1016845
:104C900021F001010160002010BD10B5044600683C
:104CA0000022C16821F00201C160C16821F0040145
:104CB000C1600021FDF7F2F8206804210022FDF711
:104CC000EDF8206841F21112016A114208D1016A1F
:104CD00040F24442114203D1016821F00101016018
:104CE000002010BDB0B590F8343004460220012BEE
:104CF00031D084F836004FEAB2000125032884F849
:104D0000345023D8DFE800F0020A10182068FDF7BD
:104D100019F920684FF40021183014E02068FDF7DD
:104D200043F9206818300CE02068FDF775F9206819
:104D30004FF400211C3006E02068FDF7A7F9206839
:104D40001C304FF00061026811430160002084F8BC
:104D5000340084F83650B0BD10B50446022041F24C
:104D6000111284F836002068016A114208D1016AE4
:104D700040F24442114203D1016821F00101016077
:104D8000204600F024F8002084F8340084F836002F
:104D9000002010BD90F836007047B0B110B5044641
:104DA00090F8360028B9002084F83400204600F03E
:104DB0000FF80220211D84F836002068FDF73EF828
:104DC000012084F83600002010BD01207047704794
:104DD0007047704710B5044600680122FDF75EF881
:104DE0002068016841F001010160002010BD000051
:104DF00070B5044690F83600022804BF022070BD4A
:104E000094F836000D46012806D112B90BB10120E5
:104E100070BD022084F836004FEAB500032816D88A
:104E2000DFE800F002172A3DE0692C4E2168066396
:104E30002B4EE069866301F134061146E069324683
:104E4000FDF7D0FD2068C16841F4007139E02068A9
:104E500038E0206A214E21680663214E206A86636D
:104E600001F138061146206A3246FDF7BBFD206885
:104E7000C16841F4806124E0606A184E21680663CD
:104E8000174E606A866301F13C061146606A32463D
:104E9000FDF7A8FD2068C16841F4006111E0A06A37
:104EA0000E4E216806630E4EA06A866301F140062D
:104EB0001146A06A3246FDF795FD2068C16841F4AD
:104EC0008051C16029460122FCF7E8FF2068016893
:104ED00041F001010160002070BD00BFF11E000023
:104EE0002B1F000010B504464FEAB100032808D874
:104EF000DFE800F002090E132068C26842F00202E7
:104F00000FE020680EE02068C26842F0040208E06A
:104F10002068C26842F0080203E02068C26842F0DC
:104F20001002C2600122FCF7B9FF2068016841F05D
:104F300001010160002010BD10B504460068002288
:104F4000FCF7ACFF206841F21112016A114208D14E
:104F5000016A40F24442114203D1016821F001018B
:104F60000160012084F83600002010BD10B5044611
:104F70004FEAB100032808D8DFE800F002090E1359
:104F80002068C26822F400720FE020680EE02068FA
:104F9000C26822F4806208E02068C26822F40062DD
:104FA00003E02068C26822F48052C2600022FCF74D
:104FB00075FF206841F21112016A114208D1016A9D
:104FC00040F24442114203D1016821F00101016025
:104FD000012084F83600002010BD000010B5044602
:104FE0004FEAB100032808D8DFE800F002090E13E9
:104FF0002068C26822F002020FE020680EE02068FC
:10500000C26822F0040208E02068C26822F00802A8
:1050100003E02068C26822F01002C2600022FCF7A0
:105020003DFF206841F21112016A114208D1016A64
:1050300040F24442114203D1016821F001010160B4
:10504000002010BD7047000090F83420012A01D1E3
:1050500002211BE001224FEAB10180F83420002236
:10506000032906D8DFE801F002070A0D0168343190
:1050700009E0002108E00168383104E001683C31B2
:1050800001E001684031096880F834200846704723
:10509000B0B590F8342004460220012A15D084F8D7
:1050A00036000125204684F83450FDF727F82068A3
:1050B000C16821F04001C160C16821F48041C16034
:1050C000002084F8340084F83650B0BDB0B590F8B4
:1050D000342004460220012A15D084F83600012528
:1050E000204684F83450FDF709F82068C16841F083
:1050F0004001C160C16821F48041C160002084F892
:10510000340084F83650B0BD704780B544F066FF77
:105110004FF47A714843B0FBF1F080BD5F480168FD
:1051200021F010010160416841F0010141607047C8
:105130002248016821F0010101607047012101FA54
:1051400000F003490A6822EA000008600020704766
:10515000180003401948016821F0020101607047FE
:105160001648016841F00101016001684900FCD561
:10517000704700BF10B5012202FA00F33E4A54699D
:1051800023435361831E032B0BD800EB40000723FE
:105190000638834001FA00F011681840994308432B
:1051A0001060002010BD00BF0448016841F00201FA
:1051B00001600168B1F1FF3FFBDC7047080003406C
:1051C0000848022101600020704700BF0548012106
:1051D00001600020704700BF0248032101600020E9
:1051E000704700BF0000034002460020032A07D892
:1051F00031B10E4800EBC20350F832009B880B809F
:10520000704700BF10B5094B0022042A0AD053F89A
:105210003240844204D103EBC204A4888C4202D001
:105220000132F2E7FF2250B210BD00BF3045050049
:105230001149086A80064FF001000AD50F4A136829
:1052400043F4802313600A6842F480520A60886243
:10525000002070470848016A89065CBF012070473A
:1052600006490A6822F480220A60016821F480510C
:1052700001600020704700BF0400034004000740A5
:1052800002281CBF012070470448016841F0010159
:10529000016001688906FCD50020704724000340A6
:1052A00090F87010012901D1022111E0242180F829
:1052B000711001680A6822F00C020A600A6842F064
:1052C00004020A600021202280F8701080F871200A
:1052D0000846704790F87010012901D1022111E0B1
:1052E000242180F8711001680A6822F00C020A601B
:1052F0000A6842F008020A600021202280F870103B
:1053000080F8712008467047A8B310B5044690F89D
:10531000710028B9002084F87000204606F025FBB3
:10532000242084F871002068016821F001010160E7
:10533000204608F007FA606A10B1204608F088F8A5
:105340002068416821F490414160816821F0220188
:105350008160816841F008018160016841F00101CC
:10536000016000202021606784F8711084F87000CB
:1053700084F8721010BD012070477047704770B5F7
:10538000D0E90B304FF40054802504620024C4613E
:10539000C0E905440561C0E902440E68C968C0E976
:1053A000006110261168D2681C6283E84600C3E9D8
:1053B0000345C3E90544DC61FDF7E4F9002070BD55
:1053C000B0B110B50446242084F837002068016885
:1053D00021F004010160204600F074FE0020E0632B
:1053E00084F83700606284F8340084F8380010BD17
:1053F000012070477047C06B704790F838007047C5
:1054000090F83710202905D10168C968490744BFC1
:105410002420704790F8370070470000D0B3B0B533
:1054200004460068016841F0004101600120FDF779
:1054300049FB2068016821F000410160016841F0EA
:10544000804101600168490004D50120FDF73AFB65
:105450002068F7E794F8371031B9002084F8340059
:10546000204600F030FE2068242184F837100168BF
:1054700021F004010160012194F8350004F0ECF9F9
:1054800094F8362094F838301103102B04D141F0F1
:105490000D0107E00120704794F83830202B08BF39
:1054A00041F0050163680BB90F4B63600E4DB0FB13
:1054B000F3F0B3FBF5F5801A0C4A401B02EB002019
:1054C00040F2FF1290432268906111600020122187
:1054D00090605161116841F0040111602021E06386
:1054E00084F837106062B0BD400D030000F9FFFF83
:1054F0007047704770472DE9FC47044690F8370025
:10550000202817D194F83400012813D001201D461B
:1055100016460F4684F83400FFF7F7FD81460090E9
:10552000204604210122192306F0AEFE28B10020F6
:1055300084F834000220BDE8FC8722204FF0000AE6
:10554000DDF8288039464B4684F83700102084F86F
:105550003800C4F83CA0E583A661C4F828A0424600
:10556000E08BA083204606F0D9FC88B32068C16890
:10557000C2681143C160202084F83700012084F8FC
:1055800034A084F838A0BDE8FC8720680022434698
:10559000C16841F08001C160E18B01294FF0010138
:1055A00008BF0D2141602046CDF80090802106F013
:1055B0006BFE0028DAD12068A16900690870A06933
:1055C0000130A061A08B0138A083E08B0138E0831B
:1055D000E08B0028D9D1202084F83700002084F8FF
:1055E000340084F83800BDE8FC870000F8B50446B4
:1055F00090F83700202808D10D462168C868400778
:1056000003D494F83400012801D10220F8BD2220EF
:1056100084F83700102084F838000020E063D34875
:10562000E38320620120A26184F83400D048A062A4
:10563000E08BB0F5807F02D3FF23A38302E0E38BEE
:10564000A383FBB1206B78B1DFF884C9224F002619
:105650003031C0E90C76C0E90EC6FDF7C3F998B148
:10566000E06B40F0100002E0E06B40F08000E0638F
:10567000202084F83700002084F8340084F83800B3
:105680000120F8BD0020F8BDFFF73FFD034620468E
:1056900029464FF47A7206F041FC40B12068E16B74
:1056A00041F00401E1634FF000410160E0E7A08BAD
:1056B000E18B091AE18321680A6842F070020A60EE
:1056C0008A6842F400528A6088620020402284F88E
:1056D00034004A60F8BD00BF05BE0000B0B5044606
:1056E00090F83700202803D194F83400012801D124
:1056F0000220B0BD10200D4684F838000020E06381
:10570000CD48E38320620120A26184F83400CB48B5
:10571000A062E08BFF2894BFE08BFF20A08320686D
:10572000816821F0C0018160FFF7EFFC034620464D
:1057300029464FF47A7206F0F1FB60B1206804212B
:105740004160202084F83700002084F8340084F879
:1057500038000120B0BD2220012284F837002168E2
:10576000C86840F04000C860E08B01284FF000009E
:1057700008BF0D224A6084F834008A6842F0800233
:105780008A60B0BD2DE9FC47044690F83700202818
:1057900017D194F83400012813D001201D46164675
:1057A0000F4684F83400FFF7B0FC81460090204695
:1057B00004210122192306F067FD28B1002084F896
:1057C00034000220BDE8FC8721204FF0000ADDF8FC
:1057D000288039464B4684F83700102084F838007A
:1057E000C4F83CA0E583A661C4F828A04246E08B3B
:1057F000A083204606F0E0FB80B32068C168C26841
:105800001143C160202084F83700012084F834A0BF
:1058100084F838A0BDE8FC872068A1694346C268C7
:1058200042F04002C260002209780161E18B012947
:105830004FF0010108BF052141602046CDF80090DE
:10584000402106F021FD0028D7D1A0690130A061D8
:10585000E08B0138E083A08B0138A083E08B002827
:10586000DAD1202084F83700002084F8340084F84E
:105870003800BDE8FC870000F8B5044690F8370012
:10588000202808D10D462168C868400703D494F841
:105890003400012801D10220F8BD212084F837000E
:1058A000102084F838000020E063F848E383206289
:1058B0000120A26184F83400F548A062E08BB0F5C5
:1058C000807F02D3FF23A38302E0E38BA38323B370
:1058D0000420C861E06A90B1DFF8F4C6254F0026C5
:1058E000C0E90C76C0E90EC601F130061146324619
:1058F000FDF778F898B1E06B40F0100002E0E06B43
:1059000040F08000E063202084F83700002084F815
:10591000340084F838000120F8BD0020F8BDFFF7FE
:10592000F4FB0346204629464FF47A7206F044FB06
:1059300040B12068E16B41F00401E1634FF00041A8
:105940000160E0E7A08BE18B091AE18321688A6896
:1059500042F400528A600A6842F050020A6088628B
:105960000020202284F834004A60F8BD0000FFFFC8
:1059700049C0000091BE0000B0B5044690F8370061
:10598000202808D120680D46C168490703D494F83F
:105990003410012901D10220B0BD102184F8381043
:1059A0000021E163FB49E38321620121A26184F8C4
:1059B0003410F949A162E18BFF2994BFE18BFF21EB
:1059C000A183816821F0C0018160FFF79EFB03463F
:1059D000204629464FF47A7206F0EEFA60B120684C
:1059E00004214160202084F83700002084F834002E
:1059F00084F838000120B0BD2120012384F837004D
:105A00002168A069CA6842F04002CA6010F8012B00
:105A10000A61A28B012A08BF05234B60013AE38B80
:105A2000013BE383A0610020A28384F834008A68EC
:105A300042F040028A60B0BD0000FFFFC9C0000014
:105A4000704770472DE9FE4F044690F83700202834
:105A500021D1DDF830A0BAF1000F1FD0DDF834B04D
:105A6000BBF1000F1AD094F83400012813D00120A4
:105A70001E4615460F4684F83400FFF746FB814664
:105A80000090204604210122192306F0FDFB58B1A5
:105A9000002084F834000220BDE8FE8F4FF400702F
:105AA000E0630120BDE8FE8F22200E994FF0000830
:105AB0002A46334684F83700402084F83800C4F87A
:105AC0003C80C4F818A0C4F82880A4F81EB08A4608
:105AD000CDE900192046394606F044FB10B184F8A0
:105AE0003480DEE7E08B394652464B46A0832046A1
:105AF00006F014FA78B320684FF0004101602020CE
:105B000084F83700002084F8340084F83800C8E7AF
:105B1000206800225346C16841F08001C160E18BDA
:105B200001294FF0010108BF0D2141602046CDF849
:105B30000090802106F0A8FB0028DCD12068A16934
:105B400000690870A0690130A061A08B0138A083B2
:105B5000E08B0138E083E08B0028D9D1202084F845
:105B60003700002084F8340084F83800BDE8FE8F48
:105B70002DE9FE43044690F83700202811D1DDF8C6
:105B80002880B8F1000F0ED0DDF82C90B9F1000F8D
:105B900009D02068C068400703D494F83400012875
:105BA00008D1022703E04FF40070E0630127384674
:105BB000BDE8FE8301201F4616460D4684F83400DA
:105BC000FFF7A3FA222132463B4684F837104021E2
:105BD00084F838100021E163FB49A4F81E9021628B
:105BE000FA49C4F81880A162E18BFF2994BFE18BC8
:105BF000FF21A1831921CDE900102046294606F096
:105C0000B1FA18B1002084F83400CFE7206BC0B19E
:105C1000EF49204A0027C0E90C27C0E90E17424689
:105C20002168A38B1031FCF7DDFEB0B1202084F891
:105C3000370084F8387084F83470E06B40F010005E
:105C4000B3E7202084F83700002084F8380084F877
:105C50003400E06B40F08000A7E769002068013164
:105C6000016103214160A18BE28B521AE283026839
:105C700042F070020260826842F4005282608162E7
:105C8000402184F83470416091E700BF0000FFFFBD
:105C900049C0000005BE00002DE9FC47044690F80D
:105CA0003700202811D1DDF82890B9F1000F0FD06E
:105CB000DDF82CA0BAF1000F0AD02068C0684007B8
:105CC00003D494F83400012808D10220BDE8FC87F1
:105CD0004FF40070E0630120BDE8FC8701201E4600
:105CE00017460D4684F83400FFF70FFA804640202F
:105CF0003A46334684F838000020E063EF48A4F8C1
:105D00001EA02062EE48C4F81890A062E08BFF2825
:105D100094BFE08BFF20A0832068816821F0C00140
:105D2000816019202946CDE90008204606F01AFABC
:105D300018B1002084F83400CDE720680022192330
:105D4000C16841F04201C160690000250131016173
:105D50000321416020464021CDF8008006F094FAEE
:105D60000146012099B92168CA6842F0C002CA60A0
:105D7000222284F83720E28B012A08BF0D204860D8
:105D800084F83450886840F0C00088600020BDE886
:105D9000FC8700BF0000FFFFC9C000002DE9FE4FD7
:105DA000044690F83700202821D1DDF830B0BBF14F
:105DB000000F1FD0DDF834A0BAF1000F1AD094F80C
:105DC0003400012813D001201F4616460D4684F8E2
:105DD0003400FFF79AF98146009020460421012201
:105DE000192306F051FA58B1002084F8340002203B
:105DF000BDE8FE8F4FF40070E0630120BDE8FE8F28
:105E00002120DDF83880294632463B4684F83700A9
:105E1000402084F838000020E063C4F818B04FF048
:105E2000000B2046C4F828B0A4F81EA0CDE90089D4
:105E300006F0E1F950B1206804214160202084F887
:105E4000370084F834B084F838B0D6E7E08BA0830C
:105E50002046402100224346E58BCDF8009006F015
:105E600013FAC5B10028E6D12068A169C26842F0E2
:105E70004002C26011F8012B0261E28B012A4FF04F
:105E8000010208BF05224260A161E08B0138E08376
:105E9000A08B0138DBE70028CDD1202084F8370023
:105EA000002084F8340084F83800BDE8FE8F00003C
:105EB0002DE9FC47044690F83700202811D1DDF881
:105EC0002880B8F1000F0FD0DDF82CA0BAF1000F38
:105ED0000AD02068C068400703D494F83400012831
:105EE00008D10220BDE8FC874FF40070E063012078
:105EF000BDE8FC8701201D4616460F4684F8340095
:105F0000FFF703F98146212084F83700402084F808
:105F100038000020E0636948A4F81EA020622B48E6
:105F2000C4F81880A062E08BFF2894BFE38BFF23A6
:105F3000E06AA383C8B12649264A4FF0000AC0E9A7
:105F40000C2AC0E90E1A216801F110024146FCF743
:105F500049FDB0B1202084F8370084F838A084F8D7
:105F600034A0E06B40F01000C0E7202084F8370038
:105F7000002084F8380084F83400E06B40F08000A2
:105F8000B4E71920394632462B46CDE900092046B0
:105F900006F031F918B1002084F83400A7E7A08B8F
:105FA000E18B091AE18321688A6842F400528A6011
:105FB0000A6842F050020A6088620020202284F8B9
:105FC00034004A60BDE8FC870000FFFF49C00000C4
:105FD00001BE000091BE00002DE9FE43044690F88A
:105FE0003700202811D1DDF82880B8F1000F0FD03C
:105FF000DDF82C90B9F1000F0AD02068C068400786
:1060000003D494F83400012808D10220BDE8FE83AF
:106010004FF40070E0630120BDE8FE8301201D46BF
:1060200016460F4684F83400FFF76FF840212B46E0
:1060300084F838100021E1632049A4F81E90216201
:106040001F49C4F81880A162E18BFF2994BFE18B3E
:10605000FF21A18321688A6822F040028A60192109
:106060003246CDE900102046394606F0C4F818B192
:10607000002084F83400CEE72120012384F8370083
:106080002168A069CA6842F04202CA6010F8012B78
:106090000A61A28B012A08BF05234B60013AE38BFA
:1060A000013BE383A0610020A28384F834008A6866
:1060B00042F040028A60BDE8FE8300BF0000FFFF9F
:1060C000C9C00000704770470246012062B359B34F
:1060D00070B5D2E900328868B2FBF0F0C3F8700105
:1060E000C868B2FBF0F0C3F850010A788D784C789C
:1060F000CE78504340EA0040C3F84001042000EA53
:1061000085004A7962F3C300C3F82001C3F8304127
:10611000C4F3001066F34100C3F890010879C3F896
:10612000A0010020BDE87040704702460120A2B3E4
:1061300099B370B5D2E900028B68B2FBF3F3036246
:10614000CB68B2FBF3F2C0F880200B788D784C78E6
:10615000CE785A4342EA02420267042202EA8502EA
:106160004B7963F3C302C0F8A02004F01F02C0F80B
:10617000904066F3451202610A7902640A7C02F0DB
:106180000F0202654A7C1AB1897C41EA021100E0E3
:10619000002101660020BDE87040704790F8501063
:1061A000012901D1022127E0012180F8501090F847
:1061B000511049070CD50168D1F8C02042F0010206
:1061C000C1F8C02090F8511041F0160180F851102C
:1061D00090F8511009070CD50168D1F8102142F050
:1061E0000102C1F8102190F8511041F0160180F819
:1061F0005110002180F850100846704790F8501058
:10620000012901D1022133E0012180F8501090F8DA
:106210005110042912D10168D1F8C02022F00102E6
:10622000C1F8C020D1F8B02042F00102C1F8B0207E
:1062300090F8511001F0E90180F8511090F85110D8
:10624000082912D10168D1F8102122F00102C1F809
:106250001021D1F8002142F00102C1F8002190F88C
:10626000511001F0E90180F85110002180F8501020
:106270000846704710B5044690F85000012804BF46
:10628000022010BD012084F850002168A06CD1F8D4
:10629000C02042F00102C1F8C020D1F8102142F024
:1062A0000102C1F81021D1F8802442F00202C1F8A5
:1062B0008024D1F8802442F00102C1F8802430B15A
:1062C00001680A6822F001020A60FCF778F9E06CC4
:1062D00030B101680A6822F001020A60FCF76FF928
:1062E0002068D0F8001121F00101C0F80011D0F8A9
:1062F000B01021F00101C0F8B010012084F8510065
:10630000002084F8500010BD30B310B5044690F85A
:10631000510040F0020084F85100A06C08B1FCF775
:1063200093F9E06C08B1FCF78FF92068D0F8B01051
:1063300021F00101C0F8B010D0F8001121F00101E6
:10634000C0F80011204600F0B0F80020606584F825
:10635000510084F8500010BD012070477047406D17
:10636000704790F8510070470168D1F81023D307A7
:106370001CBFD1F800335FEAC37307D1920744BF53
:10638000D1F800235FEA827219D47047D1F8402413
:10639000C36B04C3426C013A4264C363426C002A7B
:1063A000F3D1D1F8002322F00102C1F8002390F8C4
:1063B000511001F0F70180F8511000F0EEB9026BB6
:1063C00008CAC1F80034836B013B83630263826BAC
:1063D000002ADAD1D1F8002322F00202C1F800230A
:1063E00090F8511001F0FB0180F8511000F038BB1B
:1063F000002858D0F8B5044690F8510028B900207C
:1064000084F85000204600F051F894F8510004F14F
:10641000080140F0020084F851002046FFF785FE95
:1064200004F11C012046FFF74FFE2168A06CD1F853
:10643000B02022F00102C1F8B020D1F8002122F0F2
:106440000102C1F80021A0B100214FF4005C20231B
:106450004FF400654FF4007680271022C462C0E933
:106460000221C0E90476C0E90653C0E908C1FCF77F
:1064700089F9E06C88B1002120224FF400634FF4C9
:1064800000758026C462C0E90211C0E90465C0E954
:106490000632C0E90811FCF775F90020012160659A
:1064A00084F85110F8BD012070477047704790F88C
:1064B0005010012901D1022116E0012180F850106D
:1064C00090F8511009070CD50168D1F8102142F05D
:1064D0000102C1F8102190F8511041F0160180F826
:1064E0005110002180F850100846704790F8501065
:1064F000012901D102211CE0012180F8501090F8FF
:106500005110082912D10168D1F8102122F001029E
:10651000C1F81021D1F8002142F00102C1F8002198
:1065200090F8511001F0E90180F85110002180F835
:1065300050100846704710B5044690F850000128E6
:1065400004BF022010BD012084F850002168E06CD7
:10655000D1F8102142F00102C1F81021D1F88024B5
:1065600042F00102C1F8802438B101680A6822F0C3
:1065700001020A60FCF723F82168D1F8000120F03D
:106580000100C1F8000194F8510000F0F70084F810
:106590005100002084F8500010BDB0B50446012021
:1065A00000294BD0002A49D094F85000012844D04B
:1065B000012084F8500094F8510000073AD4900864
:1065C0001D46206460640020606594F8510040F02E
:1065D000080084F85100E1632068D0F80011C90771
:1065E00005D1D0F8001141F00101C0F80011D0F838
:1065F000101121F00101C0F81011D0F82011490745
:1066000005D4D0F8101321F00101C0F81013616C0B
:10661000A9B12046042101222B4605F0ABFEF0B9BA
:106620002068E16BD0F8402404C1E163616C01395A
:106630006164ECE7002084F850000220B0BD94F8BB
:10664000511001F0F70184F85110D0F8001121F039
:106650000101C0F80011002084F85000B0BD0320F3
:10666000B0BD000070B5002856D00D460121002AAB
:1066700058D0002D56D00446C06C002852D094F853
:10668000501001294DD0012184F8501094F8511078
:10669000090743D494F85110D54B244E41F008011A
:1066A00084F85110002161659108216461642168BA
:1066B000D1F8102122F00102C1F810211A4AE56335
:1066C000C0E90C628363D1F82021520705D4D1F8C8
:1066D000102322F00102C1F81023236C01F5886118
:1066E0002A46FCF77FF92068D0F88014C90705D046
:1066F000D0F8801421F00101C0F88014D0F8001106
:10670000C90705D1D0F8001141F00101C0F800110E
:10671000002184F8501005E0012103E0002084F8F6
:1067200050000221084670BD3DC3000011C30000A7
:1067300010B5012379B372B390F85030012B29D0F2
:10674000012380F8503090F851301B071FD490F887
:106750005130920843F0080380F85130002343651C
:10676000026442640268D2F8004344F00104C2F8B3
:106770000043C163D2F80011C90705D1D2F8001156
:1067800041F00101C2F8001180F8503003E000210F
:1067900080F850100223184610BD7047704790F8DB
:1067A0005010012901D1022116E0012180F850107A
:1067B00090F8511049070CD50168D1F8C02042F07B
:1067C0000102C1F8C02090F8511041F0160180F884
:1067D0005110002180F850100846704790F8501072
:1067E000012901D102211CE0012180F8501090F80C
:1067F0005110042912D10168D1F8C02022F0010201
:10680000C1F8C020D1F8B02042F00102C1F8B02098
:1068100090F8511001F0E90180F85110002180F842
:1068200050100846704710B5044690F850000128F3
:1068300004BF022010BD012084F850002168A06C24
:10684000D1F8C02042F00102C1F8C020D1F8802464
:1068500042F00202C1F8802438B101680A6822F0CF
:1068600001020A60FBF7ABFE2168D1F8B00020F00E
:106870000100C1F8B00094F8510000F0FB0084F86A
:106880005100002084F8500010BD70B5044601206E
:10689000002941D0002A3FD094F8500001283AD076
:1068A000012084F8500094F85100400730D490083B
:1068B0001D466063A0630020606594F8510040F0BD
:1068C000040084F8510021632068D0F8B010C90793
:1068D00005D1D0F8B01041F00101C0F8B010D0F8E7
:1068E000C01021F00101C0F8C010A66B2046402165
:1068F00000222B4605F03EFD7EB178B9216B206861
:1069000004C9C0F800242163A06B0138A063ECE740
:10691000002084F85000022070BD08B1032070BD33
:1069200094F8510000F0FB0084F851002068D0F882
:10693000B01021F00101C0F8B010002084F8500020
:1069400070BD000070B5012300284DD0002A4BD047
:10695000002949D00446806C002845D094F8503076
:10696000012B40D0012384F8503094F851305B075C
:1069700036D494F8513092081D4D1E4E43F0040356
:1069800084F85130002363656263A2632268D2F801
:10699000C03023F00103C2F8C030144B216302F56C
:1069A0008062C0E90C638563636BFCF71BF82068A9
:1069B000D0F88014890705D5D0F8801421F00201A1
:1069C000C0F88014D0F8B010C90705D1D0F8B010C5
:1069D00041F00101C0F8B010002384F8503003E00A
:1069E000002084F850000223184670BD6FC30000D9
:1069F000E9C2000043C3000010B5012371B36AB3BC
:106A000090F85030012B28D0012380F8503090F8B6
:106A100051305B071ED490F8513043F0040380F8E6
:106A2000513000234365426382630268D2F8004319
:106A300044F00204C2F800430163D2F8B010C90761
:106A400005D1D2F8B01041F00101C2F8B01080F8C1
:106A5000503003E0002180F850100223184610BD8A
:106A6000704770470248016801310160704700BFFC
:106A7000ECFC122080B502F0A7F802F0A4F8032085
:106A800001F0D0FC002000F004F8002818BF01201D
:106A900080BD0020704700680029D0F8802022F0D7
:106AA000010318BF42F00103C0F8803070470000B6
:106AB000E0B501688A680192019A8A60CA6822F08A
:106AC0000102CA60019AD20217D5D1F8CC30D1F8B0
:106AD000B0205340B3F5803F17D2CA6822F01002AD
:106AE000CA60D1F8CC2022F01002C1F8CC20D1F835
:106AF000D42042F08052C1F8D4200E490A681AB15D
:106B000000220A6005F08AFC8CBDD1F8CC0080B26E
:106B1000C1F8CC004FF6FF7022EA0000D1F8CC207B
:106B20001043C1F8CC00D1F8CC0020F00100C1F82E
:106B3000CC008CBD38E212202DE9F04101680446FA
:106B40007C4A0D20914208BF0C2002F081FF0020FA
:106B500002F064FE05462068C16841F48071C1609E
:106B60002179022918D2016E0166416E227C02F061
:106B7000010341EA8351C2F3C00341EA8341C2F3F6
:106B80008003C2F3400241EA035141EA425141F01D
:106B900009014166A1681FE008D1016E41F00301BF
:106BA0000166216981666169C16618E00A2942D8D7
:106BB000026E033942F004020266CAB2062A8FBF8F
:106BC000604A49B260A252F821202369A16803F00B
:106BD000070342EA8332C267204606F057FA217B58
:106BE000204606F092FA2068D0F8801021F00101CA
:106BF000C0F880102179CA1E072A08D8227DE169D1
:106C0000022A15D0012A40F08480A26908E00129F7
:106C10000CD8627CA169022A71D0012A79D16269FB
:106C2000012362F34103C0F8803072E0002170E07C
:106C3000A269236A65E00E29D1D1016E4FF00008E8
:106C400041F014010166002002F0E8FD0646002034
:106C5000012102F001FE218A628A278B8446364890
:106C60001144A28A8B18E28A4FF0FF3101EB5301E5
:106C70005B083A44678B17444FF4257200EB474793
:106C80000F432168C1F8B0702C4FB6FBF7F64FF4F4
:106C9000FA7716FB02724FF47A76B2FBF6F673437C
:106CA00046EA064700EAC330C1F8BC7043EA03472E
:106CB0003044C1F8C070C1F8C4004FF4FA60B2FBB0
:106CC000F0F000F58030C1F8C8001D48C1F8D800C8
:106CD000C1F8CC80D1F8CC0020F01000C1F8CC0075
:106CE000D1F8D40000F06F40C1F8D4003C20BCFBC8
:106CF000F0F0D1F8D4201043C1F8D4006FE76269F6
:106D0000E369022606EA420263F3D2020532C0F8C2
:106D100080200A4AB5FBF2F25143C0F88410416E5C
:106D200041F400014166012084F800010020BDE823
:106D3000F08100BF008000400000FFFF40420F00D4
:106D40005F0020000100004E0100004E0100024ED5
:106D50000100044E0100004E0100084E01000A4EE1
:106D600001000C4E0068D0F880108907D0F8801020
:106D700021F0020258BF41F00202C0F880207047A3
:106D8000B0F8CA10C90714BF90F8C80000207047B7
:106D900080F8C820002A18BF0122B0F8CA1021F0DC
:106DA00001011144A0F8CA10002070470299A0F810
:106DB000C030C0F8B820A0F8C6100199A0F8C410DF
:106DC0000099A0F8C2100020704780F8BC20002075
:106DD00070472DE9F041069E002E4DD00546007902
:106DE00088461C461746C11E07292BD82846012174
:106DF00000F06CF8284606F03AFD4FF440004FF4DE
:106E0000401100EB875001EB06513FFA80F001F48E
:106E1000401108442968CA6F22F0F8721044C8670C
:106E20000420C1F874800867284606F020FD286811
:106E30000021806F06B320FA01F20831013E04F808
:106E4000012BF7E7012884BF0120BDE8F081284627
:106E500041463A4606F0DEF8284606F008FD0527CA
:106E600056B128680767284606F001FD2868013EEC
:106E7000806F04F8010BF3E70020BDE8F081B0B5A6
:106E800004460068036E056E25F01C05056603F0D8
:106E90001C05436E51B143F4000141661046FBF7F7
:106EA00011FE2068416E21F4000109E023F4000185
:106EB00041661046FBF706FE2068416E41F4000172
:106EC0004166016E294301660020B0BDB0B50C4695
:106ED000054606F0CCFC2868002CC16F21F000624A
:106EE00018BF41F00062C267B0BD70B50D46002109
:106EF00014460646FFF7EAFF30462946224606F0CA
:106F000089F830460121FFF7E1FF3046BDE87040C7
:106F100005F042BF704705F03FBFB0B50C460546CF
:106F200006F0A5FC2846214606F0B0F80020B0BDCA
:106F3000B0B50C46054606F09AFC2846214606F0F8
:106F4000E4F80020B0BD0246012052B149B1086802
:106F5000C2F8F400C888A2F8FA008888A2F8F800FD
:106F60000020704758B110B5029CA0F8F830A0F886
:106F7000F410A0F8F620A0F8FA40002010BD01207F
:106F8000704700684FF4202202EB4141C26F490C68
:106F9000134661F35343C367C2F342400330704763
:106FA0002DE9F84F054600790A9C98469246894695
:106FB0000338A618072807D8284606F058FC286882
:106FC000C16F21F0F871C1676FF00700A6F1010BE6
:106FD000002600EBCA07B24514D0ABEB0600B0FAAE
:106FE00080F041092846FFF771FF284606F03FFC74
:106FF00029FA07F02968083F0136C0B24867022025
:107000000867E8E78CB103267CB1013CB4FA84F050
:1070100041092846FFF75AFF284606F028FC18F8D1
:10702000010B296848670E67EEE70020BDE8F88F7E
:10703000B0B5002842D00446C069B0F5804F3DD0BD
:10704000A068B0F1805F39D194F871000D4628B97D
:10705000002084F87000204604F087FC242084F887
:1070600071002068016821F001010160204606F0EE
:1070700069FB606A10B1204606F0EAF920684168B1
:1070800021F400614160816821F02A01816041683A
:1070900041F480414160416821F020012943416071
:1070A000016841F00101016000202021606784F83F
:1070B000711084F8700084F87210B0BD0120B0BD6A
:1070C00090F87010012901D102210DE0242180F8EF
:1070D000711001688A6942F002028A61002120224F
:1070E00080F8701080F87120084670470168024AE5
:1070F0001160406850607047000107404A480168CD
:1071000021F01001016070472348016821F002015D
:1071100001607047012101FA00F003490A6822EA80
:107120000000086000207047180007401A480168F6
:1071300021F00401016070471748016841F0020125
:10714000016001684900FCD5704700BF10B50122FD
:1071500002FA00F30A4A546923435361431F052B83
:107160000BD800EB400007230F38834001FA00F0F2
:1071700011681840994308431060002010BD00BFFB
:10718000040007400448016841F0040101600168FF
:10719000B1F1FF3FFBDC70470800074008480221BF
:1071A00001600020704700BF0548012101600020F8
:1071B000704700BF0248032101600020704700BFF4
:1071C0000000074002460020052A07D831B10E48CA
:1071D00000EBC20350F832009B880B80704700BF61
:1071E00010B5094B0022062A0AD053F832408442D7
:1071F00004D103EBC204A4888C4202D00132F2E72E
:10720000FF2250B210BD00BF5045050001281CBF31
:10721000012070470448016841F0010101600168E4
:107220008906FCD50020704724000740704770474E
:1072300070477047022280F833204268012A08D044
:10724000C26AB2F5000F04D10268D36823F4606308
:10725000D3600268136943F00103136191611169FE
:1072600041F004011161012180F8331000207047C2
:1072700010B5022280F833204268012A08D0026843
:10728000C46AD368B4F5000F04BF23F46063D3600D
:107290000268136943F00803136113691B07FCD4E8
:1072A000936843F002039360936843F40073936020
:1072B000136943F0010313619161022390F83210C6
:1072C000012908BF0423116919431161012180F8C4
:1072D0003310002010BD022180F8331001680A69C4
:1072E00022F001020A61012180F83310002070476A
:1072F000022180F8331001680A6922F001020A6154
:107300008A6822F002028A608A6822F400728A6027
:10731000012180F833100020704790B110B5044669
:10732000022084F833002068016921F00101016125
:10733000204600F0CCF8002084F8310084F83300B7
:1073400010BD012070477047704790F833007047B8
:1073500010B5044600680168C9071CBF81685FEA70
:10736000C17142D10168890705D5022141602046DB
:10737000FFF75DFF20680168490744BF81685FEA45
:10738000417139D40168090744BF81685FEA01711E
:1073900039D40168C9050AD5816821F480718160FA
:1073A0004FF480714160204600F008F920680168C0
:1073B00089050AD5816821F4007181604FF48071DC
:1073C0004160204600F0FAF820680168490558BF7E
:1073D00010BD816821F4806181604FF4807141604B
:1073E0002046BDE8104000F0E9B801214160204688
:1073F00000F05AFA2068B5E704214160204600F009
:10740000DCF82068BEE708214160204600F04BFA16
:107410002068BEE788B3F8B5044690F8330028B971
:10742000002084F83100204600F052F802201D4E62
:107430004FF6FF7784F83300D4E90003A268E169CE
:10744000C568012B08BF25F48F751A43B94218BFD0
:107450003540154E3540D4E90A6742EA060242EA51
:10746000070242EA050253B1012B0AD1D4E90556BD
:10747000E3682A4332431A4303E00120704723693B
:107480001A434FF6FF73994205D01143D4E90823FC
:10749000114341EA0302C260012084F83300002056
:1074A000F8BD00BF3E1159FFFEF159FF70B1002138
:1074B0004FF400324FF6FF73C0E90111C0E9041226
:1074C000C0E90613C0E90821C0E90A1170477047F6
:1074D000704710B5022380F833300368DC6824F469
:1074E0008014DC601C6944F001041C6199615A61DC
:1074F000196941F002011961012180F8331000205F
:1075000010BDB0B5022380F833300368C469DD686C
:1075100025F48015DD609D6845F001059D609D683E
:1075200045F002059D609D6845F004059D604FF69D
:10753000FF75AC4203D09C6844F008049C601C6951
:1075400044F001041C6199615A61196941F002011A
:107550001961012180F833100020B0BD022180F8AC
:10756000331001680A6922F001020A61012180F8E2
:10757000331000207047022180F833100168C2697F
:107580000B6923F001030B618B6823F001038B600F
:107590008B6823F002038B608B6823F004038B60FD
:1075A0004FF6FF739A4203D08A6822F008028A607D
:1075B000012180F833100020704770477047B0B544
:1075C000022480F833400468E56825F48015E560FE
:1075D000256945F001052561A1616261E16821F439
:1075E0006061E160E1681943E160216941F00401F3
:1075F0002161012180F833100020B0BDB0B5022315
:1076000080F833300368C469DD6825F48015DD60D7
:107610009D6845F001059D609D6845F002059D60EF
:107620009D6845F004059D604FF6FF75AC4203D0A0
:107630009C6844F008049C601C6944F001041C61CF
:1076400099615A61196941F004011961012180F8B9
:1076500033100020B0BD022180F8331001680A69A0
:1076600022F001020A61012180F8331000207047E6
:10767000022180F833100168C2690B6923F001030D
:107680000B618B6823F001038B608B6823F002038E
:107690008B608B6823F004038B604FF6FF739A4274
:1076A00003D08A6822F008028A60012180F8331032
:1076B0000020704700688069704700684069704723
:1076C0000068C069704710B5022380F83330036842
:1076D000DC6844F48014DC601C6944F001041C6123
:1076E00099615A61196941F002011961012180F81B
:1076F0003310002010BDB0B5022380F8333003688A
:10770000C469DD6845F48015DD609D6845F00105BC
:107710009D609D6845F002059D609D6845F00405EB
:107720009D604FF6FF75AC4203D09C6844F008049E
:107730009C601C6944F001041C6199615A611969DB
:1077400041F002011961012180F833100020B0BD21
:10775000022180F8331001680A6922F001020A61EF
:10776000012180F8331000207047022180F8331087
:107770000168C2690B6923F001030B618B6823F078
:1077800001038B608B6823F002038B608B6823F00E
:1077900004038B604FF6FF739A4203D08A6822F08D
:1077A00008028A60012180F833100020704710B56C
:1077B000022380F833300368DC6844F40024DC6082
:1077C0001C6944F001041C6199615A61196941F016
:1077D00004011961012180F83310002010BDB0B5FB
:1077E000022380F833300368C469DD6845F400255E
:1077F000DD609D6845F001059D609D6845F00205CE
:107800009D609D6845F004059D604FF6FF75AC4294
:1078100003D09C6844F008049C601C6944F0010497
:107820001C6199615A61196941F0040119610121D2
:1078300080F833100020B0BD022180F833100168B9
:107840000A6922F001020A61CA6822F40022CA60B1
:10785000012180F8331000207047022180F8331096
:107860000168C2690B6923F001030B61CB6823F443
:107870000023CB608B6823F001038B608B6823F0BF
:1078800002038B608B6823F004038B604FF6FF7359
:107890009A4203D08A6822F008028A60012180F8A7
:1078A0003310002070477047704700207047000079
:1078B000012984BF0020704702460748012A04D0EE
:1078C000022A14BF002000F5802000EB810100286F
:1078D00018BF01F128007047002000400079704770
:1078E00070B5044600680026056985604DB1E8075B
:1078F00004D0A26812B1F1B22046904701366D085B
:10790000F4E770BD0020704710B1006838B901E09D
:10791000012901D904207047144800EB8100016857
:1079200001F00F00002948BF0020704770B51446D1
:107930000D46064630462946FFF7E6FF2CB120B932
:107940000120FBF7B3F8013CF4E770BD70477047C6
:1079500010B1006828B970470129FCD8034800EB32
:107960008100016841F00041016070472820044017
:10797000407801490860704798ED00E0BFF35F8FE1
:107980000A48016821F480310160002101677047D5
:1079900040F0010005490867086840F4803008603D
:1079A000BFF34F8FBFF36F8F704700BF24ED00E030
:1079B0007047F9F74FBF002841D070B5044690F8E2
:1079C000710015460E4628B9002084F87000204644
:1079D00003F0CBFF242084F871002068016821F0B7
:1079E00001010160204605F0ADFE606A10B120463D
:1079F00005F02EFD2068B5F5006F416821F4904137
:107A00004160816821F02A01816005D1416821F03F
:107A10007F4141EA06614160016821F40061294328
:107A20000160016841F001010160002020216067D0
:107A300084F8711084F8700084F8721070BD012011
:107A40007047B0B568B30546006950B30C468179FC
:107A500051B3407A40B328460121FBF7C3FE2869A1
:107A6000022182792846FBF7EBFB2846FBF7F4FD61
:107A70002969002C4A7A40EA020108BF20EA020183
:107A80002846FBF7C3FE28460121FBF7ABFE286919
:107A9000032182792846FBF7D3FB002085F8234099
:107AA000B0BD4FF0FF30B0BD6FF00100B0BD0000C1
:107AB00070B5A0B30446006988B30D46817989B3D7
:107AC000807A78B320460121FBF78CFE2069174E9F
:107AD000022182792046B0472046FBF7BDFD21698F
:107AE000002D8A7A40EA020108BF20EA02012046FE
:107AF000FBF78CFE20460121FBF774FE2069032171
:107B000082792046B0472069022184F82250827988
:107B10002046B0472046FBF79FFD002070BD4FF088
:107B2000FF3070BD6FF0010070BD00BF413200003A
:107B3000B0B558B30446006940B30D46817919B316
:107B4000007A08B320460121FBF74CFE2069022190
:107B500082792046FBF774FB2046FBF77DFD216907
:107B6000002D0A7A40EA020108BF20EA02012046FD
:107B7000FBF74CFE20460121FBF734FE2069032170
:107B800082792046FBF75CFB0020B0BD4FF0FF3050
:107B9000B0BD70B520B30446006908B30D466669F0
:107BA000204600210022FBF74BFBA81B4FF01101E0
:107BB00038BF2846C0F3CF222046FBF741FB2046C2
:107BC0000121FBF70FFE2069022102792046FBF715
:107BD00037FB2046FBF740FDC007F0D1002070BD09
:107BE0004FF0FF3070BDF8B5A0B1C26992B1042268
:107BF00003AB4904CDE900320022002300F0E5F890
:107C0000002818BF01209DF80C10FF3918BF012172
:107C1000084000E0002004B080BDB0B5044600F08C
:107C200029F848B10021082908D02269D279CA4030
:107C3000D20704D10131F6E70020B0BD00210022B7
:107C40000B46082B07D02569ED79DD400133ED07A0
:107C500018BF0132F5E7032A07D0022A1CBF4FF0F4
:107C6000FF30B0BD0841022801E008410728B8BF35
:107C70000020B0BD10B5B8B104460069A0B10179CB
:107C800091B1C07980B120460121FBF7ABFD20699D
:107C9000022102792046FBF7D3FA2046FBF7DCFCF1
:107CA0002169C979084010BD002010BDF8B5D0B1D8
:107CB000C369C3B14FF0FF33039382B14FF43D4228
:107CC00003AB4904ADF80C200422CDE900320022B8
:107CD000002300F03EFAB0FA80F0400904E04FF6CD
:107CE000FF70ADF80C00012004B080BD2DE9FF410C
:107CF00070B306461C460020B3F5006F29D8154620
:107D00003AB332692AB37069081A38BF0846014687
:107D10006FF3DF212144B1F5006F19D8C0F3CF22F2
:107D200030460421FBF78CFA30460121FBF75AFD5F
:107D30003069022102793046FBF782FA3046FBF7C0
:107D40008BFCC007F0D13046FFF767FF20B1B06071
:107D5000002004B0BDE8F081D6E90408317991B182
:107D600090F864103046FBF78BFC306990F968306E
:107D700090F9672090F9661090F9697090F96AC0DF
:107D800090F96B0011E090F844103046FBF778FC56
:107D9000306990F9483090F9472090F9461090F9F1
:107DA000497090F94AC090F94B004FF0010ECDE9AF
:107DB000007CCDE9020E3046FAF773FF28464146B3
:107DC0002246F8F756FE2046C3E72DE9FF4778B371
:107DD0000646006960B3DDF834A00020BAF1800FD8
:107DE0009CBF1C46B3F5006F23D81746F26902B357
:107DF0007069DDF83080081A38BF0846C0F3CF221A
:107E000004213046FBF71CFA30460121FBF7EAFC5F
:107E10003069022102793046FBF712FA3046FBF74F
:107E20001BFCC007F0D13046FFF7F7FE20B1B06071
:107E3000002004B0BDE8F08731793069C1B190F815
:107E400064103046FBF71CFC30694FF0010E90F9CE
:107E5000683090F9672090F9661090F9695090F9B0
:107E60006AC090F96B00CDE9005CCDE9020E17E025
:107E700090F844103046FBF703FC30694FF00109DD
:107E800090F9483090F9472090F9461090F949C090
:107E900090F94AE090F94B00CDE900CECDE9020916
:107EA0003046FAF7FEFEF069B8B1D6E90421D27A7D
:107EB00002F50062F8F7DDFD37B1F169B94203D090
:107EC00038462246F8F7D5FDB8F1000F15D0F06915
:107ED00000F5006141450CD10FE027B171693846CA
:107EE0002246F8F7C6FDB8F1000F06D0706900F51C
:107EF000006140465246F8F7BCFD0AEB040098E7E3
:107F0000F0B585B000284BD004460069002847D062
:107F1000407A002844D0002A45D06069081A38BF4A
:107F20000846C0F3CF2204212046FBF789F92046FA
:107F30000121FBF757FC2069022102792046FBF75B
:107F40007FF92046FBF788FBC007F0D120460021CF
:107F5000FFF777FD2068016841F480110160207906
:107F6000256950B395F894110120D1B195F9973155
:107F700095F9962195F9951195F9986195F9997169
:107F800095F99AC195F99B518DE8C010CDE9035040
:107F90002046FBF7E9FA2169206891F894112AE05C
:107FA000012005B0F0BD2068016821F48011016056
:107FB00020460121FFF745FD1EE095F88C110120B8
:107FC0000029EED095F98F3195F98E2195F98D1113
:107FD00095F9906195F9917195F992C195F993513F
:107FE0008DE8C010CDE903502046FBF7BDFA2169AA
:107FF000206891F88C1181610020D2E72DE9FE4FB5
:10800000E0B10027B3F5006F00F2A0801646002A09
:1080100000F09C80054600690293002800F09680DD
:108020006A69E8688C1A38BF0C4648B1029B28463A
:1080300031460122FBF706F8002855D0002785E0DD
:1080400028460021002201940024FBF7F9F8DDF80E
:1080500008800420C346B8F1400FA8BF4FF0400B82
:108060009BFBF0F7BC4205DA02CE2846FBF7CEFBBD
:108070000134F7E71FFA8BF12846FBF7B3FB2879A9
:108080000D2100220028284608BF0C21FBF7D8F854
:10809000A8EB0B074FF0040A012F3BDB2846002119
:1080A00000224FF00008FBF7CBF83C46402FA8BF5A
:1080B000402494FBFAF9C84506DA02CE2846FBF7BD
:1080C000A5FB08F10108F6E7A1B22846FBF78AFBF9
:1080D00028790F215A460028284608BF0E21FBF7B1
:1080E000AFF8A3443F1BD7E72846002100220194A4
:1080F0000027FBF7A5F828790D2100220028284643
:1081000008BF0C21FBF79CF828464FF47A71FAF768
:10811000D9FFD8B9284600210022FBF791F8019831
:108120001021C0F3CF222846FBF78AF82846012108
:10813000FBF758FB2869022102792846FBF780F8F3
:108140002846FBF789FAC007F0D1029F3846BDE800
:10815000FE8F2DE9FE4F50B10446006938B1E06949
:1081600028B116460C9A1D4656EA020303D1002791
:108170003846BDE8FE8F0027B5F5006FF8D80D9B97
:10818000802BF5D89B4663694FF00008CF1A38BFA3
:108190000F46A2B1BBF1000F11D0114600F50060EF
:1081A0005A46F8F766FCE0695EB131462A46F8F7B0
:1081B00060FCE6690BF5006B4FF0000805E0AB468C
:1081C00003E000F500664FF40068E068E0B3204685
:1081D000314601225B46FAF735FF0028C7D1204619
:1081E00000210022CDE9017B0027FBF729F8207947
:1081F0000D2142460028204608BF0C21FBF720F83D
:1082000020464FF47A71FAF75DFF0028B0D120467E
:1082100000210022FBF714F801981021C0F3CF22AF
:108220002046FBF70DF820460121FBF7DBFA206919
:10823000022102792046FBF703F82046FBF70CFAEF
:10824000C007F0D1029F93E720460021002201974A
:108250000025FAF7F5FF0420BBF1400FCDF808B078
:10826000A8BF4FF0400B9BFBF0F7BD4205DA02CEF2
:108270002046FBF7CBFA0135F7E71FFA8BF12046D2
:10828000FBF7B0FA20790D2142460028204608BFAE
:108290000C21FAF7D5FF02984FF00408A0EB0B076A
:1082A000012FB4DB2046002100224FF0000AFAF72C
:1082B000C7FF3D46402FA8BF402595FBF8F9CA45AA
:1082C00006DA02CE2046FBF7A1FA0AF1010AF6E728
:1082D000A9B22046FBF786FA20790F215A460028DA
:1082E000204608BF0E21FAF7ABFFAB447F1BD7E750
:1082F000002808D400F01F010122400902FA01F110
:10830000014A42F82010704780E200E000280CD4B7
:1083100000F01F010122400902FA01F1034A42F86C
:108320002010BFF34F8FBFF36F8F704780E100E0E5
:10833000002808D400F01F010122400902FA01F1CF
:10834000014A42F82010704700E100E00020704729
:1083500000280AD44109244A00F01F0052F82110D5
:1083600021FA00F000F0010070470020704700BFC4
:10837000F0B501F0070100F00F06114F0F4D0C1F73
:108380003E4481F0070138BF0024B0F1FF3FC8BF71
:1083900046193078032928BF03214FF0FF364509DD
:1083A00006FA01F1E54025EA0101116006FA04F13F
:1083B000C94301EA50101860F0BD00BF00E400E0BE
:1083C00014ED00E01D480068C0F30220704700BFB4
:1083D000002808D400F01F010122400902FA01F12F
:1083E000014A42F82010704700E200E070B5134BDC
:1083F0004FF0FF351B68C3F302231C1F83F00703F4
:1084000038BF0024032B28BF032305FA04F605FA1E
:1084100003F3B2439943A1401143BDE8704005F016
:1084200089BA00BF05494FF6FF030A681A4060F396
:108430000A22034810430860704700BF0CED00E0BB
:108440000000FA0505F088FA0B480C4900688842DC
:1084500018BF704700480047010013000649074A4B
:10846000086890421CBF0020704701F1080049686D
:108470000022C90800F004B8003F132048435450BC
:108480002DE9F04303461C4C00209046002A4FF093
:10849000010CC4F88000A646184C18BF4FF0010824
:1084A00004334FEA8806A146D9B10CFA06F707EA69
:1084B0000204B4FA84F4640914EA080F0DD153F8E5
:1084C000044C4D463843754604EA09044EF82640EC
:1084D000CEF884701C68CEF8884008330136013924
:1084E000E2E70021002ACEF8841008BF0246CEF849
:1084F0008020BDE8F08300BF00400440FCFF07007F
:1085000070B50346043100200B4C0DE0266F26FAAF
:1085100005F5ED070DD054F8205003EBC00643F8E5
:10852000305001302D687560051D1F2D98BF8D429C
:10853000ECD3216F116070BD1040044040B370B5A2
:108540000824154D002B18BF04241CBF0825C4F2B5
:1085500000052E68002B44EA06042C600F4C1CBF5B
:1085600043F20004C4F20004002B04EB800454F82E
:10857000044C04F030051560404A3F4D18BF1546C5
:1085800005EB401204F00F0032F810200A8070BD95
:108590004FF0FF30704700BF080004400030044037
:1085A0000421EC4A002808BF082104BF0822C4F2B5
:1085B00004021368002841EA03011160E64904BF80
:1085C00043F20001C4F2040108467047B0B5054605
:1085D00010460C46FFF7E4FF00EB850050F8041C42
:1085E00021F00F01214340F8041CB0BDF8B5F8B1EB
:1085F000044618461E4615460F46FFF7D1FF5EB1EA
:108600001E4901EB44120021102911D032F811301B
:10861000BB4210D00131F7E7174901EB44120021AA
:10862000102905D032F81130BB4204D00131F7E7F0
:108630004FF0FF30F8BD40F2C512974208BF452CFD
:108640000BD156B10E4A0126136866F31F6302264A
:108650001360136866F31243136000EB840005F0A7
:108660003002114350F8042C22F03F02114340F82D
:10867000041C0020F8BD00BFE095050040890500FE
:1086800020B0004010B5A04C01203621002200236C
:10869000A0470220372100220023A04703203821D1
:1086A00000220023A0470420392110220023A047E4
:1086B00026203A2130220023A0472A203B213022C5
:1086C0000023A446BDE81040604700BFC8B10029A0
:1086D0000D4BA2F1010108BF03F58023CAB203EBE1
:1086E0008000042A8FBF002149B208A252F821104D
:1086F00050F8042C22F0F002114340F8041C002032
:1087000070474FF0FF30704700300040C00000005D
:10871000F0000000D0000000000000003000000069
:1087200090B18D4B002908BF03F5802303EB800037
:10873000002A50F8041C41F4007308BF21F40073B0
:1087400040F8043C002070474FF0FF30704700BFF6
:1087500090B1814B002908BF03F5802303EB800013
:10876000002A50F8041C41F4806308BF21F48063A0
:1087700040F8043C002070474FF0FF30704700BFC6
:1087800010B5614C0120192100220123A0470220CD
:108790001F2110220123A047032020213022012382
:1087A000A0470B201E2100220123A0470C201821E6
:1087B00000220123A0470D20212130220123A446BD
:1087C000BDE81040604700BF10B54F4C01200021AC
:1087D00000220123A0470220002110220123A047EC
:1087E0000320002130220123A0470B20002100227A
:1087F0000123A0470C20002100220123A0470D20C7
:10880000002130220123A446BDE81040604700BF8C
:1088100010B53D4C4320282100220123A0474520CC
:10882000292110220123A04747202A213022012399
:10883000A0474B202B2130220123A446BDE8104045
:10884000604700BF10B5304C43202E213022012359
:10885000A04745202F2130220123A0474720302167
:1088600030220123A0474B20312130220123A4468E
:10887000BDE81040604700BF10B5234C50202221B6
:1088800000220123A0475120232100220123A047D9
:108890005320242100220123A04755202521102206
:1088A0000123A0475620262130220123A04758202B
:1088B000272130220123A446BDE81040604700BFB5
:1088C00010B5114C50207C2130220123A0475120AB
:1088D0007D2130220123A04753207F213022012314
:1088E000A0475520812130220123A0475620822114
:1088F00030220123A0475820842130220123A4469E
:10890000BDE81040604700BFED850000F8B170B5CC
:108910000424104D002B08BF082404BF0825C4F20E
:1089200004052E68002B44EA06042C600A4C04BFA0
:1089300043F20004C4F2040404EB800050F8043C49
:1089400023EA0202114340F8041C002070BD4FF0DE
:10895000FF307047080000400030004010B5012291
:1089600078B371B3774B1A6892070AD40022027069
:108970000A601868400724D5186820F004001860C1
:108980001EE01A68D207594A0AD1022404701868F6
:1089900040F001001860106820F48060106001E071
:1089A00001240470186820F0020018609868C40759
:1089B000086004D0106820F0020010600868D860D9
:1089C0000022104610BD00BF052884BF012070475B
:1089D000102101FA00F02E490A6822EA000008601E
:1089E000002070472A48016821F001010160002041
:1089F000704700BF2E48016821F00101016000208E
:108A0000704700BF06480168C90706D1016841F0F8
:108A10000101016001684901FCD50020704700BFD9
:108A20002CA00740054900284FF000000A6842F0DA
:108A3000080308BF22F008030B60704750A00740EE
:108A400005284FF0010298BF032916D810B500EB96
:108A5000400270239340043291403A4A146819400E
:108A600024EA030319431160102101FA00F0516850
:108A7000084350600022BDE810401046704700BF18
:108A80000348016841F0010101600020704700BF08
:108A900004A0074006480168026822F00102026053
:108AA00044F2FD029143C93101600020704700BFCC
:108AB0001CA007402348016841F002010160704793
:108AC00080B5002000F014F86420F9F7FBFF1D4882
:108AD000C16921F00101C16104490A6842F4806260
:108AE0000A60016841F00201016080BD0CB00740DE
:108AF000144978B101281CBF01207047C869B0F142
:108B0000FF3FFBDC886940F030008861086840F076
:108B1000010002E0086820F00100086000207047B2
:108B200010B5084C2068400706D5206820F00400E6
:108B300020606420F9F7BAFF206840F0040020604C
:108B4000002010BD00A0074010B5427C012303FAAD
:108B500002F291B1D0E900134C68144342EA024298
:108B600044F480344C608C6822438A60017CC27C6F
:108B700042EA01411960022107E042EA024102682B
:108B8000936823EA0101916001210175002010BD65
:108B9000417C0068012202FA01F142681143416000
:108BA000704710B5447C0168D0E9022304EB44040B
:108BB00001EB84010A610122027501F10C0242609D
:108BC00000204B6110BD704780B5FEF7DBFA094805
:108BD0000322016841F001010160016841F01001C8
:108BE00001600120002100F0C5FEBDE88040FEF7D5
:108BF000E0BE00BF100004407CB568B305460069C4
:108C000050B3A8690C46B0F1807F05D9B0F1007F60
:108C100022D895F82100F8B1284600212246FAF71B
:108C20000FFB95F821600120B04081B22846FAF789
:108C3000E3FD40F20110002E4FF01C0122464FF0E0
:108C4000020308BF012000902846FAF72EFB0028F7
:108C500018BF4FF0FF307CBD4FF0FF307CBDF8B542
:108C600080B10546006968B1A8690C46B0F1807F03
:108C700002D995F8211041B11D26B0F1007F88BFBF
:108C80002A2603E04FF0FF30F8BD2A2628460021AF
:108C90002246FAF7D5FA95F821700120B84081B242
:108CA0002846FAF7A9FD40F20110002F314622466E
:108CB0004FF0020308BF012000902846FAF7F5FAAA
:108CC000002818BF4FF0FF30F8BD0000F0B52A4D66
:108CD0004FF0000C00234FF0000E002281F802C07C
:108CE000A1F800C0B2F5807F10D0865CAE5D16F0B2
:108CF000400706F03F0618BF8EEA020E82EA03071D
:108D000018BFFB438CEA060C0132EBE700258026F6
:108D100080220020042D10D206EA0E0701353F06FE
:108D200018BF1043D2B206EA0307F6B23F0618BFD7
:108D300040EA520076089208ECE7002580220826D7
:108D40000027032D10D806EA0E040135240618BFAB
:108D50001743D2B206EA0304240618BF47EA5207B3
:108D60009208F4B26608ECE76FEA8C02C0438A709E
:108D7000FA4308704A70F0BD1D880500BCB5F8B113
:108D800004460069E0B1204600210022FAF758FAB3
:108D900094F821500120A84081B22046FAF72CFD1A
:108DA00040F20110002D4FF01E014FF000024FF075
:108DB000020308BF012000902046FAF776FA10B1AE
:108DC0004FF0FF30BCBD2079022812D1A069B0F16C
:108DD000807F05D9B0F1007F07D894F8210020B139
:108DE00020460121FAF7CCFC03E020460121FAF7E6
:108DF000AAF90020BCBDF0B592F800C00D785478F7
:108E00004B7892F802E08F7885EA0C0683EA040535
:108E100087EA0E0445EA060323431B0645D086EA8B
:108E2000560303F05503552B1CD185EA550303F077
:108E30005503552B16D184EA540303F05403542BE5
:108E400010D1E1B2EBB2F4B20022802580260027D7
:108E5000042F2FD2264218BF2A43EDB20137B6089D
:108E60006D08F5E7002033060AD006F00103184428
:108E7000F3B25E08F7E705F001031844EBB25D08B2
:108E80002B06F8D104E004F001031844E3B25C08B7
:108E90002306F8D1C0B2012809D181F800C050786A
:108EA000487090788870022127E0002125E04FF07B
:108EB000FF3122E0002480250826042C07D21D4221
:108EC00018BF3243F6B20134AD087608F5E7002347
:108ED000802404250026022E07D80C4218BF2B43FD
:108EE000EDB20136A4086D08F5E7D2B2DBB201217C
:108EF000845C01FA03F3634083540846F0BD1CB55B
:108F0000446944EA010433B114F8013C1278013990
:108F10008DF8063003E012788DF8062062788DF81F
:108F200007200DF10602022300F095F801201CBD78
:108F300070B520B1054640690C46884201D9002031
:108F400070BD95F8200058B1560C0020002EF7D0C7
:108F500028462146FEF71DFE04F50034013EF5E7E4
:108F600028462146BDE8704036F0EAB950B370B5E6
:108F700086B0002601250021002200230446CDE909
:108F80000066CDE902660495FAF7EEFA20466621FE
:108F90000022FAF7ABFB4FF49670F9F793FD2046E9
:108FA000002100220023CDE90066CDE90266049588
:108FB000FAF7DAFA20469921002206B0BDE870409F
:108FC000FAF794BB704710B568B162B144698C423E
:108FD00009D890F82040002CBDE8104008BF36F0BA
:108FE00014BBFFF70BB8002010BDF8B580B10546E3
:108FF000006968B1A8690C46B0F1807F02D995F884
:10900000211041B11B26B0F1007F88BF292603E063
:109010004FF0FF30F8BD2926284600212246FAF7F6
:109020000FF995F821700120B84081B22846FAF76F
:10903000E3FB40F20110002F314622464FF00203BD
:1090400008BF012000902846FAF72FF9002818BF22
:109050004FF0FF30F8BD2DE9FC47A8B31E460024B1
:109060009BB30546006980B395F8210088464FF40C
:10907000807181408E4288BF0E46E96821B3A9699C
:109080001746B1F1807F03D950B1B1F1007F07D805
:1090900028794FF01609022808BF4FF0170906E09B
:1090A00028794FF02709022808BF4FF028092846E1
:1090B0004946FAF7AAFA28463946012233464FF0C4
:1090C000010AF9F7BFFF18B100242046BDE8FC876C
:1090D0002846002142460024FAF7B2F895F821709C
:1090E0000AFA07F081B22846FAF786FB40F201102F
:1090F000002F494642464FF0020308BF012000906E
:109100002846FAF7D2F80028DFD1286834460168EB
:1091100021F020010160D8E770B58AB001AC0C4E97
:10912000434D40F2FF3120460195B04705F5805090
:1091300040F2FF3101902046B04705F5005040F263
:10914000FF3101902046B04700200AB070BD00BF3B
:10915000C13700007CB5D0B105460C464FF0FF305A
:10916000B1F5805F3CD32969D1B388790130000320
:10917000A0420CD32846214600F066F80021B1EB4E
:10918000143F04D02A69210B9279914202D94FF001
:10919000FF307CBD0139C840C0071CBF6FF0010023
:1091A0007CBD284600210022FAF74AF895F8216094
:1091B0000120B04081B22846FAF71EFB40F20110B0
:1091C000002E4FF0340122464FF0020308BF012069
:1091D00000902846FAF769F8002818BF6FF00200DF
:1091E0007CBD0000B0B580B10546F9F7B7FF60B1AE
:1091F000044628680E49884209D00E49884208D0A2
:109200000D49884201D1062004E00020B0BD0420B1
:1092100000E0082000F066FB022802D100F073FB9A
:1092200002E0012000F036FBB0FBF4F0B0BD00BF5F
:1092300000100050003000500020005008B180693C
:109240007047002070470000B0B558B10446FF20B9
:10925000B1F5805F34D3226992B390790130000375
:10926000884201D2FF20B0BD94F8210001210022E4
:1092700001FA00F54FF0FF30216810FA85F06FF326
:109280001F50486220461421F9F7DAFF90B1E448F4
:109290006900002210FA81F10840216848622046E6
:1092A0000221F9F7CDFF2068406894F8211021B120
:1092B000000C03E02068406800E0000AC0F3C4002E
:1092C000B0BD00BF10B598B10446006848F2250251
:1092D000816A62F31101002281620221416220460B
:1092E0009F21FAF703FA2068406820F07F4405E0E8
:1092F00000209F2100220024FAF7F8F9204610BD33
:1093000070B540B1044690F8200030B12046BDE869
:10931000704035F0C5BF002070BD94F821000121D8
:1093200001FA00F081B22046FAF75CFA20460221E9
:1093300000220026F9F784FF2046FAF78DF905464A
:10934000204614210022F9F77BFF18B92046FAF7CE
:1093500083F9060446EA050070BD000070B50546B5
:109360004FF0FF30E5B10C46D1B128461021FAF795
:1093700039FA284631210022F9F762FF10B16FF067
:10938000010070BD074E2846B04720602846B04710
:1093900060602846B047A0602846B047E0600020E3
:1093A00070BD00BF5936000002460120C2B1B9B1FC
:1093B00070B5002001230F269060937191E838006A
:1093C000C968C3F884604FF0502609059E67FF26E0
:1093D0001E6213601471C2E905515E64BDE87040FD
:1093E00070472DE9F843002846D00D464FF0FF3670
:1093F000B1F5805F42D30446006900283ED08079F1
:1094000001300003A84237D3206840F20112416DB9
:1094100011434165012194F8210001FA00F720462B
:10942000B9B2FAF7DFF9204614210022F9F708FF54
:10943000064690B1780081B22046FAF7D3F920466B
:1094400002210022F9F7FCFE2068406894F8211000
:109450005FFA80F931B1000C05E020684FF0000997
:10946000406800E0000A0021B1EB153F04D02169FB
:109470002A0B8B799A4204D94FF0FF363046BDE86B
:10948000F883013A082300F0C70094F8217003FA2A
:1094900002F240EA020591F86C0140B32046002137
:1094A0000022F9F7CDFE002F18BF45EA05252068F8
:1094B0000121456094F8210001FA00F085B22046B0
:1094C0002946FAF78FF920462B210022F9F7B8FE3A
:1094D00020462946FAF786F9002620460221002276
:1094E000F9F7AEFE20684068C007F6D1C6E7012054
:1094F00000FA07F87EB91FFA88F12046FAF772F9E8
:10950000204602210022F9F79BFE206894F8217082
:1095100040685FFA80F92FB1280640EA054040EA2A
:10952000092500E02D02204600210022F9F788FEDF
:10953000216845EA090048604FEA480081B22046A8
:10954000FAF750F9204603210022F9F779FE94F842
:109550002100012101FA00F081B22046FAF742F918
:109560000026204602210022F9F76AFE20684068A2
:10957000C007F6D182E720B190F8201019B135F07C
:10958000BDBEFF207047F9F7F8BD00002DE9F84F88
:10959000A0B107468B460020B1F5805F0FD3396933
:1095A00069B1887901300003584507D35846C97A14
:1095B0006FF39F201844B0EB012F02D90020BDE8C3
:1095C000F88F1748914600244FF0040A1E46009376
:1095D0008046012E21DB3546402E04EB0B02A8BF4E
:1095E000402505EB0800396800EA08004862384663
:1095F0003221F9F725FE94FBFAF095FBFAF10022EF
:1096000009EB80008A4205DA3B685B6840F822304B
:109610000132F7E7761B2C44DBE70098BDE8F88FB2
:10962000FFFF0F0080B558B1C2684AB11F2984BF3F
:109630006FF0010080BD5162FAF7B7F8002080BDDD
:109640004FF0FF3080BD0000032818D810B50C4B38
:10965000DFE800F00A02050803F5805304E003F593
:10966000005301E003F5802302F0070061F3C50019
:10967000996D21F03F0108449865BDE8104070479E
:10968000001000502DE9F84360B10E460027B1F5F7
:10969000805F08D30546006928B18179013109034B
:1096A000B14203D200273846BDE8F8833146C07A7C
:1096B000984600276FF39F211944B1EB002FF2D891
:1096C000284631461446FFF7BFFDB7EB163FEAD0F8
:1096D0002A69310B92799142E4D80139C840C00718
:1096E000E0D1E86880B328463321F9F78EFF284699
:1096F0002146012243464FF00109F9F7A3FC002857
:10970000D0D12846002100220027F9F799FD95F8CD
:10971000214009FA04F081B22846FAF76DF840F2C8
:109720000110002C4FF0330132464FF0020308BF06
:10973000012000902846F9F7B8FD0028B3D1286829
:10974000016821F0200101604746ACE72DE9F041B6
:1097500024480068B0F1FF3FC4BF0120BDE8F0819C
:10976000214C43F6FF714FF480664FF400750027DB
:10977000206861F30F00002120601C4880460B2FF9
:109780002AD0D8F8000066F31630C8F8000003208D
:10979000F9F798F9206840F080402060B0B2216865
:1097A000B1F1FF3FFBDC616862682368013723F099
:1097B00080432360ABB295B2B5EB114F4FEA53052E
:1097C00038BF5B4203EB0006A2EB114038BFC2EB8F
:1097D000114000F0FE01D2E70020812988BF01205E
:1097E000BDE8F081080003402C0000405CA0074069
:1097F000E0B501A902F0E0FE20B10199026822EA79
:10980000010101608CBDE0B501A902F0D5FE18B1DF
:1098100001990268114301608CBD000010B5044637
:10982000002808BF0224204600F034F81849012C13
:1098300005D0022C09D101F580213F2200E0FF2252
:109840000968114008BF012100E00121B0FBF1F0DF
:1098500010BD00BF00207047B0B5054600280C467B
:1098600008BF02252846FFF7D9FF0949012D05D079
:10987000022D1CBF0020B0BD01F580210822002C64
:1098800008BF0C220968D14001F00701C840B0BDF3
:1098900014000040012807D11848006800F00300B8
:1098A000032808BF00F02CB800487047006CDC02A9
:1098B00010B50122114B092838BF03221C68114042
:1098C00002FA00F201FA00F124EA020241EA02017E
:1098D000196000B110BD0120FFF7A0FF41490860E9
:1098E00010BD00BF0121054A092838BF03211268B5
:1098F0008140114021FA00F0C0B2704710000040D2
:10990000012000F007B8022000F004B8032000F0A6
:1099100001B800000E49012806D0032803D0022810
:1099200014D1043100E008310868C1070ED0C0F33B
:109930008301084A5143084A531C994206D2012325
:10994000511A23EA503001FA00F0704700207047A6
:109950002000004000366E0100B0710B01214F4A1B
:10996000002808BF032112688140114021FA00F04D
:10997000C0B2704710B50023002820EAE074C8BFC9
:109980003F23B1F1FF3FC8BF03F5E063B2F1FF3FF2
:10999000C8BF03F5E043B1F1FF3FC8BF44EA01246B
:1099A000B2F1FF3FC8BF44EA023493B10C49012829
:1099B0000A6806D142F040000860086898432043D6
:1099C00006E022EA030020430860086820F0400017
:1099D00008600220FFF722FF0249086010BD00BFA7
:1099E0001400044014D412201748016821F080416B
:1099F000016070470648016841F004010160016898
:109A00004907FCD5016821F004010160704700BFDF
:109A1000040004400C48016849000FD40B48102191
:109A200041600121016001680029FCD0416821F0FA
:109A300010014160016821F0010102E0016821F09C
:109A400080410160704700BF0000074000000440F3
:109A50007047000010B510480168002907D401685C
:109A600041F0040101600168B1F1FF3FFBDC0B4CE8
:109A7000206840F0010020600220FFF7CFFE084977
:109A8000B0FBF1F0616821F47F0141EA004040F44D
:109A90008000606010BD00BF080007401000044057
:109AA00000127A0001207047704770B5044602200A
:109AB0006075204602F026FE206800210126016024
:109AC00042F201114160816801F001018160FBF700
:109AD0001CFB05462068C168490708D4FBF715FB45
:109AE000401BB0F57A7FF5D903266675F2E7032EA1
:109AF00015D081684FF6FF720021816042610162DA
:109B0000C1608068800605D4204600F03BFA08B1A9
:109B1000042003E0204600F01FF9002060750020BB
:109B20002075002070BD70B5017D0446022001291A
:109B300020D060752068816821F4807181600121E6
:109B40002175816821F400618160FBF7DEFA05462A
:109B500000262068C068C00708D1FBF7D6FA401B72
:109B6000B0F57A7FF5D90321032001E0012100201F
:109B70002675617570BD70B5017D0446022001290E
:109B800020D060752068816821F400718160012116
:109B90002175816821F480518160FBF7B6FA054692
:109BA00000262068C068400708D4FBF7AEFA401BC7
:109BB000B0F57A7FF5D90321032001E001210020CF
:109BC0002675617570BDB0B500680C46856928467C
:109BD00036F03EFC6FF39F2500206560B0BD0000AD
:109BE00070B5054600680C46466841680029FBD4FC
:109BF000A1482146304036F002FCF0010BD5E07858
:109C0000452805D82868416821F08071416002E04C
:109C100040F08000E070002070BD00BF407D7047C4
:109C200070B5054600680C46016806688E42FCD097
:109C30003046214636F00CFC6FF39F26286866609C
:109C40000169090EA1600069C0F38D20E060002069
:109C500070BD006840696FF39F407047B8B3B0B5FE
:109C6000026881690446D06800F0020031B1D3680F
:109C700090B918071ED44FF0FF3023E078B9D068B0
:109C8000000720D5204600F096F92068C16861F4ED
:109C9000816121F008010BE00020404D0EE02046DC
:109CA000FFF702FF20683D4AC16821F0020111431D
:109CB000C16008E0D36801206FF4816503F480631C
:109CC0002B43D360884701206075BDE8B0407047E2
:109CD000D8B370B50446A1BB607D20B900202075C3
:109CE000204600F03AF80020A0610220607520466E
:109CF00002F008FD94E80F00154E85683540856038
:109D0000856829438160C16821F48061C16001696F
:109D100041EA026101610F4901EA832102691143AD
:109D20000161216902696FF39F211143016180681C
:109D3000800606D4204600F025F910B10120042148
:109D400001E000200121617570BD0120704700BF56
:109D5000BFFFE3FF00FCFF0070477047F8B50D46FA
:109D60000446FBF7D2F906466F1C2068C1688907D4
:109D70000AD4002FF9D025B1FBF7C7F9801BA84200
:109D8000F3D90321032007E0C168044A114321F0FD
:109D90000201C160002001216175F8BDFDFBFFFFDC
:109DA00000B1816170470000F8B50D46017D0446A1
:109DB0000220012934D060750120164627682075DD
:109DC000F968B868C90703D120F48070B860F7E774
:109DD00040065CBF0020E8703146284648F06EFA25
:109DE000B86105F11800314610F042FA80B22168DE
:109DF000C861D5E907021043CA691043C8616048C9
:109E00004FF4004101602068816841F40061816085
:109E1000816841F4807181600020012120756175A5
:109E2000F8BD00BFB0B5037D04460220012B21D050
:109E30006075012020750846114610F019FA054694
:109E4000204602F05FFC0C48216828404860C86842
:109E500020F48060C8608868800606D4204600F040
:109E600091F810B10120042101E00020012100221D
:109E700022756175B0BD00BF3FFFFF0170B50D4693
:109E8000017D0446022001292BD060750120114676
:109E900020752068806840065CBF0020E870284676
:109EA00048F00CFA0646204602F02CFC20680660BA
:109EB000D5E904121143826811438160C16821F41D
:109EC0008061C1608068800606D4204600F05AF8A0
:109ED00010B10120042101E000200121002222759F
:109EE000617570BDF8B50D46017D0446022001295B
:109EF00045D0607501201646207520688168890567
:109F000011D4816821F400718160FBF7FEF80746E7
:109F10002068C168490716D4FBF7F7F8C01BB0F5F5
:109F20007A7FF5D90CE0FBF7F0F807462068C168A6
:109F30004907E6D5FBF7E9F8C01BB0F57A7FF5D9FC
:109F40000321032018E081686FF39F4521F0010190
:109F50008160816831438160456109484FF4004167
:109F600001602068816841F480518160816841F41A
:109F70000071816000200121002222756175F8BD09
:109F800004E100E0B0B504460068C16821F0A0011A
:109F9000C160FBF7BAF805462068C068000644BFF8
:109FA0000020B0BDFBF7B1F8401BB0F57A7F84BF4D
:109FB0000320B0BDF0E77047704700000246012063
:109FC0001AB311B30888126841F6F07303EA00105F
:109FD00053686FF31E1318444B886FF35F2340EAF6
:109FE00043308B886FF35F2340EA8350994B506076
:109FF000906818400B89C9886FF35F236FF35F2166
:10A00000184440EA414090600020704710B501229A
:10A0100030B329B30A78042A01D9012220E0037C55
:10A02000012B01D102221BE0447A012303743CB1CD
:10A03000097903FA02F2C37A69B143EA02010CE03A
:10A0400003688A78C978DC6824F03F04214341EA38
:10A05000C201D96002E023EA0201C1720022027447
:10A06000104610BD0246012082B179B1126808780D
:10A070004978936800F0070001F0070123F4FC43DE
:10A0800043EA003040EA412090600020704770476A
:10A090000146012091B10A684B6943F002034B610C
:10A0A000136823F001031360486100208861486150
:10A0B000087462490A6822F080620A60704700BF33
:10A0C00010B5012308B304291FD8437AE3B103680C
:10A0D00003F1180353F8214024F0010443F8214010
:10A0E0005AB153F8212042F0010243F82120012205
:10A0F00002FA01F1C27A114305E0012202FA01F1EC
:10A10000C27A22EA0101C1720023184610BD80699B
:10A110007047406970470122A8B1042913D8027A18
:10A12000012A03D10121002281610CE00268407AFA
:10A1300002F12C03002803EB810108BF02F140016A
:10A14000086820F07F42104670470168D1F88020EF
:10A1500042F00102C1F88020416941F4805141611F
:10A1600070470000B0B5002866D00446406910B9B9
:10A1700000202074A06161696069C90659D420F487
:10A18000817002220025023060612C48016841F094
:10A19000806101602068016821F030010160416840
:10A1A00062F342014160816862F39B61244A8160ED
:10A1B000C1681140234A11430122C160D0F88810C0
:10A1C00062F31721204AC0F8881001681140227AF2
:10A1D00041EA8221627A41EA02311C4A114301605C
:10A1E0008168A27A21F4803141EA02418160C1682C
:10A1F000A27921F0C00141EA82112422C160816864
:10A2000062F34E21124A8160416862F31E11114AC5
:10A21000416081681140104A11438160052D04BFDF
:10A220000020B0BD204629460022FFF749FF013536
:10A23000F4E740F0100060610120B0BD54A0074079
:10A24000FF0FA0FF00D01600C7EBFBFF08000400C3
:10A250009C92FD0700FE01FCE00038017047000001
:10A260002DE9FE431A4D1820AF21002200234FF0A4
:10A2700018080024A8471920B021002200234FF01D
:10A280001909A8471A20B121002200231A26A8473D
:10A290001B20B22100220023A847CDE9014417204A
:10A2A0006D460C4C0C4F009020462946B84720467E
:10A2B0002946CDF80080B84720462946CDF80090C1
:10A2C000B847204629460096B847BDE8FE8300BF40
:10A2D000ED85000000000450F1380000F8B510B31F
:10A2E000044600680D46C16F21F00201C167416953
:10A2F00041F020014161FAF708FF06466F1C206813
:10A300000068800411D4002FF9D025B1FAF7FDFEC2
:10A31000801BA842F3D900202074606940F004003B
:10A3200060610320F8BD0120F8BD606940F4007051
:10A3300060610020F8BD024601201AB102299CBFCD
:10A34000517100207047024601203AB1042905D816
:10A350001068426942EA41014161002070470000F3
:10A36000017C012904BF022070470168426940F264
:10A3700001739A4302F580724261002282610B6888
:10A3800043F001030B600274CA6F22F00302CA6734
:10A3900090F9050002289ABF04A252F8200020205C
:10A3A0004A69104348610020704700BF2000000048
:10A3B0001000000001000000F8B5F0B10646C068CA
:10A3C000D8B10D46317AC1B1164F0023802100F17A
:10A3D000100E14464FF4006C4FF400728763124F56
:10A3E00007634FF48057C0E902338EE80610C0E9D6
:10A3F0000737F8F7C7F910B1F8BD0120F8BD31688B
:10A40000F0682346CA6E42F00102CA660A6842F04A
:10A4100001020A6070312A4601B0BDE8F040F8F749
:10A42000BBBA00BF69C7000049C700000146012050
:10A4300081B10A68136843F001031360D36F23F0FE
:10A440000203D3674979002908BF202051690843D6
:10A45000506100207047017C012901D102210CE0EC
:10A46000016840F201134A6922F031024A61002179
:10A47000017442699A43013242610846704710B53F
:10A480000446007AB0B1207C012804BF022010BD30
:10A49000012021682074E068CA6E22F00102CA66B9
:10A4A000F8F78DF80021217421680A6822F0010272
:10A4B0000A6010BD012010BD017C012901D10221DB
:10A4C0000EE00268D16F41F00101D167516921F0BE
:10A4D0003101516100210174106820F00100106009
:10A4E000084670471CB5044690F848000121FFF764
:10A4F000B3F945F6C051B0FBF1F064214843009038
:10A500000098019020688168090710D54349E163EC
:10A5100001994A1E019221B194F84A100729F7D1F6
:10A5200003E0E16C41F04001E16400990191816830
:10A53000490710D53A49A16301994A1E019221B1F8
:10A5400094F84A100729F7D103E0E16C41F040018B
:10A55000E164009901918168002221F0430181604A
:10A56000628662850121E06C40284FF001001CBF2B
:10A57000E264002084F84A101CBD00BF7047000050
:10A58000BCB5044690F848000121FFF765F945F68F
:10A59000C051B0FBF1F06421484300900098019055
:10A5A00020688168090710D51C49E16301994A1E9A
:10A5B000019221B194F84A100729F7D103E0E16C28
:10A5C00041F04001E164009901918168490710D58B
:10A5D0001349A16301994A1E019221B194F84A10CE
:10A5E0000729F7D103E0E16C41F04001E1640099F3
:10A5F00001918168012521F0430181600021012042
:10A6000061866185E26C402A1CBFE164002584F804
:10A610004A002046FFF7B2FF2846BCBDC5C800006F
:10A6200045C80000014690F8490001280EBF0220ED
:10A63000002081F849007047014690F84900012840
:10A640000EBF0220002081F84900704710B5044673
:10A65000006C08B1F7F7B3FF606C08B1F7F7AFFF14
:10A66000012084F84A00002010BD98B110B50446BE
:10A67000022084F84A002068016821F0010101608D
:10A68000204600F086F80020E06484F8490084F851
:10A690004A0010BD01207047704781B0006800215A
:10A6A000426902F47C22B2F5782F07D002690131A9
:10A6B00010290092009AF3D1032000E0002001B09D
:10A6C0007047C06C704790F84A00704770B50446F8
:10A6D000006886684569700707D505F48110B0F5F4
:10A6E000005F02D1A16B20468847300707D515F0DF
:10A6F000200004D0E16B2046BDE87040084770BDE3
:10A7000080B3B0B5044690F84A0028B9002084F818
:10A710004900204600F03EF8022084F84A0094E800
:10A720000F00056825F001050560A569012D08BF2A
:10A730008025C563E569002943EA050318BF43F096
:10A7400018032169012A41EA0301636941EA03010F
:10A750000160416D08D141F001014165016841F49A
:10A76000003107E00120704721F0010141650168D7
:10A7700021F400310160016841F0010101600168CC
:10A7800021F00101016000200121E06484F84A10F9
:10A79000B0BD704770470000B0B50446012014B347
:10A7A00009B320461546FEF7FFFDE9B22046F8F74B
:10A7B00099FF0120FFF76EF82A21114A114B4143FE
:10A7C000C000B1FBF2F29942104B88BF013AD1B2FE
:10A7D00098420D4AB0FBF2F2204688BF013A92B28D
:10A7E000F8F793FF00B1B0BD20460621F8F7D3FF7C
:10A7F0000028F8D120460121F8F797FC0020B0BDD1
:10A8000000CA9A3BFFC99A3B40420F003F420F00EB
:10A810002DE9F843044640681D4617460E4670B9B8
:10A82000A06803280BD10420314632463B4684F809
:10A830004A002046009500F0F8F9BDE8F88394F846
:10A840004900012804BF0220BDE8F8834FF0010948
:10A8500084F84990FAF759FC804694F84A00012898
:10A8600052D10120002E5FD0002F5DD0042084F84B
:10A870004A000020E06467862786E66220856062E1
:10A88000C4E90E006085A1682068012903D1416DEB
:10A8900041F0020141650168C90703D1016841F037
:10A8A00001010160E0686F1CE12816D2608E68B378
:10A8B00020684169490409D4002FF7D09DB3FAF705
:10A8C00024FCA0EB0800A842F0D32CE0007C06F8A2
:10A8D000010B608E01386086E8E7608EB0B12068B9
:10A8E0004169490409D4002FF7D0E5B1FAF70DFC0E
:10A8F000A0EB0800A842F0D315E0006926F8020B8F
:10A90000608E01386086E8E702200DE02046294687
:10A91000424602F025F908B12020E064E06C0028EE
:10A9200018BF012000E00320002184F8491084F8BA
:10A930004A90BDE8F8830000F8B5856813460A46DA
:10A940000446032D02D16068002863D094F84900C2
:10A95000012804BF0220F8BD2168886820F04F005C
:10A960008860012084F8490094F84A0001284CD1FD
:10A970000120002A4AD0002B48D00420012D84F861
:10A980004A004FF00000E06463862386E262C4E977
:10A990000E002085608503D1486D40F002004865B7
:10A9A000E368606CE02B0AD88369B3F5806F06D149
:10A9B000658E638E5B08ED0718BF013363868B6875
:10A9C000194D1A4E1A4F43F004038B604B6843F441
:10A9D00000634B604B6823F480634B600023C0E945
:10A9E0000C671031C0E90E53638EF7F7FBFF206848
:10A9F0000168C90703D1016841F001010160816864
:10AA000041F043018160002000E00220002184F831
:10AA10004910F8BD0420114684F84A00204601B0D0
:10AA2000BDE8F04000F0D2B931CA000057CA0000BA
:10AA300045CA000070B513468268032A02D14468F3
:10AA4000002C41D00F2B06D81A464FF47A73BDE87C
:10AA50007040FFF7DDBE90F84940012C01D1022182
:10AA600040E00468A56825F04F05A560012580F841
:10AA7000495090F84A50012D2ED179B304251B4E30
:10AA800080F84A500025C5644386C1620386058567
:10AA90004562154BC168E02988BF1E46C0E90E65B6
:10AAA0004585012A03D1616D41F002016165A1680C
:10AAB00041F04701A1602168C90703D1216841F035
:10AAC0000101216000210AE0042280F84A200A46A0
:10AAD000BDE8704000F01ABA022100E00121002216
:10AAE00080F84920084670BD05CC000041CC00002C
:10AAF000704770472DE9F843044690F84900012853
:10AB000004BF0220BDE8F8834FF001091D46174637
:10AB10000E4684F84990FAF7F8FA804694F84A000D
:10AB2000012848D10120002E78D0002F76D00320B4
:10AB300084F84A000020E0646785278566622086E5
:10AB4000E062C4E90E006086A1682068012903D193
:10AB5000416D21F0020141650168C90703D1016817
:10AB600041F001010160E2686168E12A25D31829FA
:10AB700002D0618D012905D136F8021B0161608D7B
:10AB8000013860856F1C608DD0B32068416949062B
:10AB90000AD4002FF7D0002D3FD0FAF7B6FAA0EB79
:10ABA0000800A842EFD338E036F8021B0161608D3F
:10ABB00001386085E7E7022030E0182902D0618D76
:10ABC000012905D116F8011B0174608D01386085DB
:10ABD0006F1C608DA0B120684169490609D4002F1F
:10ABE000F7D0D5B1FAF791FAA0EB0800A842F0D35C
:10ABF00013E016F8011B0174608D01386085E8E7E9
:10AC000020462946424601F0D9FF08B12020E064E1
:10AC1000E06C002818BF012000E00320002184F828
:10AC2000491084F84A90BDE8F8832DE9F0470446BE
:10AC300090F84900012804BF0220BDE8F0870120F8
:10AC40001F4615468A4684F84900FAF75EFA94F8DA
:10AC50004A108146012961D1BAF1000F4FF001007D
:10AC600018BF002D00F0A980002F00F0A68094F8F6
:10AC70004A0004281CBF052084F84A000020E06434
:10AC800067866785E5622786C4F824A0C4E90E00BC
:10AC9000278520680168C90703D1016841F00101D7
:10ACA0000160E268DDF820806168E12A42D318295A
:10ACB00002D0618D012905D13AF8021B0161608D36
:10ACC00001386085012608F10107608D10B9608E9A
:10ACD000002866D05EB1608D50B120684169490698
:10ACE00006D53AF8021B0161608D013860850026A7
:10ACF000608E50B120684169490406D5006901267B
:10AD000025F8020B608E01386086002FDDD0FAF73F
:10AD1000FCF9A0EB09004045D7D340E0606808B1DA
:10AD200002204AE00220042947D1A16803293FF408
:10AD300093AF42E0182902D0618D012905D11AF89C
:10AD4000011B0174608D01386085012608F101073F
:10AD5000608D08B9608E20B35EB1608D50B12068FF
:10AD60004169490606D51AF8011B0174608D013846
:10AD700060850026608E50B120684169490406D57F
:10AD8000007C012605F8010B608E01386086002FDB
:10AD9000DED0FAF7BAF9A0EB09004045D8D303207A
:10ADA0000BE0204641464A4601F008FF08B120204A
:10ADB000E064E06C002818BF0120002184F84910ED
:10ADC000012184F84A10BDE8F087000070B5044600
:10ADD00090F84900012804BF022070BD2568A868CA
:10ADE00020F04F00A860012084F8490094F84A60E0
:10ADF000012E1CD1012000297BD0002A79D0002B04
:10AE000077D094F84A0004281CBF052084F84A0033
:10AE10000020E0646385238561622386E262C4E9E1
:10AE20000E006386E068E1280CD3606C21E0606866
:10AE300008B102205DE00220042E5AD1A668032E3C
:10AE4000D8D056E0206C8069B0F5806F05D1608D58
:10AE500003F0010101EB50006085606C8169B1F580
:10AE6000806F06D1628E618E4908D20718BF01310A
:10AE7000618694F84A10224B204A0026042908BF14
:10AE800013460363AA68204B042905F1100142F020
:10AE90000402AA606A6842F400626A607C4AC6637F
:10AEA0008263184A08BF13464363E26A638EF7F76A
:10AEB00099FD206CC0E90C66C0E90E662268616AE3
:10AEC000936843F008039360536843F480635360CE
:10AED0001032638DF7F786FD20680168C90703D13A
:10AEE000016841F001010160816841F04301816026
:10AEF0000020002184F8491070BD00BF57CA00002F
:10AF00000DCB000045CA000051CA0000F0B590F812
:10AF10004940012C01D102243FE00568AC6824F0CF
:10AF20004F04AC60012480F8494090F84A60012E3B
:10AF30002DD1012471B36AB363B390F84A401C4F1A
:10AF4000DFF868C0042C1CBF052480F84A400024A8
:10AF5000C46443854386C668E02E88BF6746C763DE
:10AF6000AF68E02E47F04F07AF60C262124A4162FD
:10AF7000038503860F4988BF0A4682632968C9078B
:10AF800008D12968002441F00101296002E04468E9
:10AF90002CB10224002180F849102046F0BD022483
:10AFA000042EF7D18668032EC3D0F3E7CFC7000085
:10AFB0001BC800007DC70000A5C70000F8B5044607
:10AFC00090F84900012804BF0220F8BD2568A86850
:10AFD00020F04F00A860012084F8490094F84A004E
:10AFE00001284ED1012000294CD0002A4AD003204C
:10AFF000002384F84A00E364628522856162E3628B
:10B00000C4E90E3323866386A068012803D1686DE6
:10B0100020F002006865E268206CDFF870C01D4E09
:10B020001B4FE02AC0E90C6CC0E90E730AD8826994
:10B03000B2F5806F06D1638D628D5208DB0718BFB1
:10B0400001326285AA6842F00802AA606A6842F486
:10B0500080626A606A6822F400626A6005F1100228
:10B06000638DF7F7BFFC20680168C90703D1016849
:10B0700041F001010160816841F0430181600020DD
:10B0800000E00220002184F84910F8BD4BCA0000FE
:10B0900031CA0000A5CA000070B590F84930012BF4
:10B0A00001D1022338E00123046880F84930A56803
:10B0B00025F04F05A56061B35AB390F84A30012BD3
:10B0C00026D10323164E154D80F84A300023C36461
:10B0D0004285028541620386C362D0E90212E02AFA
:10B0E00088BF2E46C0E90E364386012903D1616D23
:10B0F00021F002016165A16841F04B01A160216866
:10B10000C90703D1216841F001012160002300E05B
:10B110000223002180F84910184670BD81CC000040
:10B120009DCC000070477047704770470D49042858
:10B130000A6822F0040308BF42F004030B60704762
:10B1400070470000411E0020B0EB116F1CBF0120B2
:10B150007047044AE023516003490B700721906057
:10B160001160704710E000E023ED00E0FFF7E8BF5A
:10B1700070477047704748B101460068426922F045
:10B180000102426100200871487170470120704738
:10B19000016840F601030A6922F001020A610A68A7
:10B1A0009A430A6001214171704710B50446006856
:10B1B000016941F0010101610120F7F777FC206886
:10B1C00040F60102016821F00201016001681143AB
:10B1D0000160016841F0020101601420F7F772FC80
:10B1E0002068016841F0040101600320607110BD16
:10B1F0004079704780B5016840F2ED238A6842F0DB
:10B2000001028A60334A496801FB032142F27472E9
:10B2100091FBF2F115398171FFF7BAFF2C4801213A
:10B220000160BFF34F8FBFF36F8F80BDA0B110B52A
:10B230000446407908B900202071206808B9074801
:10B240002060416941F0010141613220F7F73AFC89
:10B2500001206071002010BD0120704700A0054052
:10B2600070B504464079194D01282DD118480121A7
:10B2700001602046BFF34F8FBFF36F8FFFF795FF3D
:10B2800015262068816849070AD40120F7F70EFCCB
:10B29000013EF6D12068816841F00101816010E033
:10B2A000816840F2ED2241F0010181600949406866
:10B2B00000FB021042F2747190FBF1F0A0F2151540
:10B2C000A5712046FFF764FF284670BD18FCFFFFFC
:10B2D00084E100E05849220010B504464079012875
:10B2E0001CBFFB2010BD2068816841F00101816016
:10B2F00005480121C0F8801101602046FFF755FF85
:10B3000004206071607910BD04E100E010B50168AF
:10B310000446086820F4F0700860886820F0010096
:10B320008860886800060AD5886820F080008860F8
:10B33000A06E20B10021C163F7F741F92168886848
:10B3400040060AD5886820F040008860E06E20B191
:10B350000021C163F7F733F9216800200F22A4F818
:10B360005200A4F85A000A628A6942F008028A610F
:10B37000202184F8711084F872106067002010BDDD
:10B38000704710B501680446086820F490700860A2
:10B39000886820F001008860886840060AD58868BF
:10B3A00020F040008860E06E20B10021C163F7F713
:10B3B00006F921680020A4F85A000F200862886965
:10B3C00040F008008861202084F87200002010BD41
:10B3D0007047000010B501680446086820F49070BA
:10B3E0000860886820F0010088608868400605D4FD
:10B3F00000200F22A4F85A000A6217E0886820F0A3
:10B4000040008860E06E40B10D49C163F7F7F4F881
:10B4100098B1E06EC16B88470FE000200F22A4F8BE
:10B420005A000A628A6942F008028A616065202037
:10B4300084F872002046FFF7CBFF002010BD00BF4C
:10B44000E9D5000010B504460068016821F0C0018C
:10B4500001608168090609D5816821F08001816059
:10B46000A06E18B10021C163F7F7A9F80020A4F875
:10B470005200202084F87100002010BD70470000A9
:10B4800010B504460068016821F0C00101608168C0
:10B4900009060ED5816821F080018160A06E40B15F
:10B4A0000A49C163F7F7A8F868B1A06EC16B884775
:10B4B00009E00020A4F852006066202084F87100A2
:10B4C0002046FFF7DBFF002010BD00BF67D600005D
:10B4D000B0B501680446806E0A6822F4F0720A6012
:10B4E0008A6822F001028A6028B18A68234B12061A
:10B4F00003EAE272C263E26E2AB18B68204D5B06FA
:10B5000005EAE373D3638A6812060AD58A6822F0D3
:10B5100080028A6028B1F7F76FF8002110B1A06EA1
:10B52000C16301212268906840060DD5906820F023
:10B5300040009060E06E38B1F7F75EF8D8B1E06E89
:10B5400022680021C16300E0A9B100200F21A4F806
:10B550005200A4F85A0060671162916941F0080135
:10B560009161202184F87110C4E91800204684F804
:10B570007210FFF705FF0020B0BD00BF31D60000FC
:10B58000ABD5000090F87010012901D1022125E00F
:10B59000012180F8701090F87110212907D10168FD
:10B5A0008A68120603D58A6822F080028A6090F8C1
:10B5B000721022290FD101688A6852060BD50A68D9
:10B5C00022F480720A608A6822F001028A608A6826
:10B5D00022F040028A60002180F87010084670470F
:10B5E00090F87010012901D1022121E0012180F899
:10B5F000701090F87110212904D101688A6842F016
:10B6000080028A6090F8721022290ED10168082207
:10B610000A620A6842F480720A608A6842F0010293
:10B620008A608A6842F040028A60002180F87010C7
:10B630000846704710B5044690F87100212813D1D0
:10B640002168886800060FD5886820F0800088602F
:10B65000A06E10B1F6F7B3FF2168086820F0C000B3
:10B660000860202084F8710094F8720022280ED11E
:10B670002068816849060AD5816821F0400181600F
:10B68000E06E08B1F6F79BFF204601F0F5FF0020C1
:10B6900010BDB0B5B8B104462420002584F871006F
:10B6A0002068016821F00101016005604560856046
:10B6B000204600F059F9656784F8715084F870509D
:10B6C00084F8725000E001252846B0BD2DE9F04114
:10B6D00005466820002B1646B3FA83F288461F46BB
:10B6E0004FF0800108BF6C202C5852090020130332
:10B6F0005201C4E90270C4E9041004F118010DC13B
:10B700002046F6F7A1FF2046F7F73CF8B2B22846EC
:10B71000414617B100F0BCFA01E000F097F90020B3
:10B72000BDE8F08100B17047024803A140F2C92290
:10B7300035F0EEB9D6A9050048414C5F5541525449
:10B740005F4572726F7243616C6C6261636B000083
:10B75000406F704790F8711090F872000843C0B2C3
:10B7600070470000F8B504460068C1690268856842
:10B7700001F02F0602F02003202E08D13BB1216EEC
:10B78000002900F08F802046BDE8F84008475FEAB6
:10B79000017C07D005F0010612F4907F86F00107C6
:10B7A00020D1FFB1CB020AD515F4800307D04FF4A6
:10B7B000801101622046BDE8F84000F0DDBA11407A
:10B7C0000A0658D449066DD5016821F04001016090
:10B7D00000206066202084F871002046BDE8F84013
:10B7E00000F0C8BACD0718BF12F4807505D0012546
:10B7F0000562656F45F00105656701F002054FF0D0
:10B80000010E8EEA55053D4305D102250562656F9F
:10B8100045F00405656701F004058EEA95053D4392
:10B8200005D104250562656F45F002056567334360
:10B8300018BF0123BCF1000F06D52BB1082303620A
:10B84000606F40F008006067606F58B302EA010063
:10B85000800603D5216E09B120468847606F000736
:10B860000BD420688068400607D42046FFF75AFFB3
:10B870000020606716E0616E82E7204601F0FCFE62
:10B880002068816849060ED5816821F040018160F9
:10B89000E06E40B10649C163F6F7AEFE10B1E06E4E
:10B8A000C16B71E7F8BD2046BDE8F840FFF73ABF2D
:10B8B00011D50000002851D0B0B5044690F87100B1
:10B8C00028B9002084F87000204600F04EF82420AB
:10B8D00084F871002068016821F0010101602046B0
:10B8E00001F030FF606A10B1204601F0B1FDD4E9EB
:10B8F000001040F22A331A4D4A6822F49042A842BE
:10B900004A608A6822EA03028A600A6842F00102F9
:10B910000A600A6822F4804388BF42F480434FF0F3
:10B9200006020B6088BF0222CB6AA84223F00D03F7
:10B9300042EA0302CA620B4A84BF4DF60002C0F21B
:10B94000B852B2FBF0F0C86000202021606784F894
:10B95000711084F8700084F87210B0BD0120704737
:10B96000C0C62D00006CDC02704770472DE9FC4119
:10B97000044690F8720020280AD10E4601200029C2
:10B980005ED01746002A5BD094F87000012802D1DF
:10B990000220BDE8FC8100201D466067012084F87C
:10B9A0007000222084F87200F9F7AFFBA4F85A70F7
:10B9B0008046A4F85870A068B0F1006F0AD0B0F1CA
:10B9C000805F0BD0B0F1C05F0CD1206968B940F244
:10B9D000FF170BE0206918B13F2707E0206920B16D
:10B9E0007F2703E0B4F85C7002E0FF27A4F85C70E6
:10B9F000B4F85A00F0B120462021002243460095B9
:10BA000001F000FFF0B9A068B0F1C05F01D120697A
:10BA100050B12068406A384006F8010BB4F85A006B
:10BA20000138A4F85A00E3E72068406A384026F855
:10BA3000020BF3E70020202184F8700084F87210D4
:10BA4000BDE8FC810320BDE8FC810000F8B5054697
:10BA500090F87200202807D113460A4631B12BB165
:10BA600095F87000012803D1022429E0012427E081
:10BA700000240120144EDFF888C2124F6C6785F84D
:10BA800070002220A5F858306A6585F87200296890
:10BA9000E86E00F1300E24318EE8C010C463F6F772
:10BAA000A1FF2868016841F480710160816841F05C
:10BAB0000101816085F87040816841F0400181603A
:10BAC0002046F8BDE3D5000077D5000090F872302D
:10BAD000202B06D1012329B122B190F87030012B1F
:10BAE00002D1022318467047A0F85A20416501216F
:10BAF000A0F8582080F87010002101668168B1F12B
:10BB0000006F0AD0B1F1805F0BD0B1F1C05F0FD1EF
:10BB1000026952B940F2FF1208E002691AB13F22ED
:10BB200004E002690AB17F2200E0FF22A0F85C2055
:10BB30000022B1F1C05F42674FF0220280F872200C
:10BB40000268936843F00103936001D1016949B130
:10BB500006490023016680F87030106840F4907048
:10BB60001060BFE70049F4E797D60000E9D600006F
:10BB7000AFF3008070B5044628B9104810A140F218
:10BB8000C51234F0C5FFF4F729FEE16FD4F868213F
:10BB9000D4F8C8504968C2F38F22561AC4F8C86056
:10BBA000F4F720FE711B08BF70BD090204F5907008
:10BBB0000331BDE8704037F047B800BFD6A9050093
:10BBC00048414C5F554152545F527848616C66431E
:10BBD000706C7443616C6C6261636B002DE9F843B7
:10BBE000044690F87100202808D10E46012731B193
:10BBF000154622B194F87000012803D10227384677
:10BC0000BDE8F883002099466067012084F8700041
:10BC1000212084F87100F9F778FA8046A4F8525090
:10BC2000A4F85050B4F85200F8B120468021002208
:10BC30004346CDF8009001F0E5FD00BBA068B0F1EF
:10BC4000C05F01D1206948B116F8010B21688862F4
:10BC5000B4F852000138A4F85200E3E736F8021BAA
:10BC600020686FF35F218162F2E7204640210022C5
:10BC70004346CDF80090002701F0C4FD08B103272A
:10BC8000BDE7202084F8707084F87100B7E70000E9
:10BC9000F8B5054690F87100202806D139B1134651
:10BCA0002AB195F87000012803D1022425E001246F
:10BCB00023E00024A5F852300120134EDFF840C0E5
:10BCC000104F6C6785F87000A5F85030E964A86ED5
:10BCD0002A6800F1300E28328EE8C0102126C46395
:10BCE00085F87160F6F77EFE28684021016285F8CC
:10BCF0007040816841F0800181602046F8BD00BF3E
:10BD000021D5000061D6000009D6000090F87130FE
:10BD1000202B06D1012329B122B190F87030012BDC
:10BD200002D10223184670470023A0F8522043672F
:10BD3000C1640121A0F85020436680F870102121D1
:10BD400080F871108168B1F1C05F01D1016909B15A
:10BD5000074900E005490023416680F8703000681B
:10BD6000016841F080010160DCE700BF8DD7000071
:10BD7000CBD700007047704770470000B0B5D0B116
:10BD80000446006808B9144820604169890714D442
:10BD9000D4E901123025016076214260C16040691A
:10BDA000800744BF0020B0BDA5B10120F6F77EFE9C
:10BDB0002068013DF3E70120B0BD34213025C1608A
:10BDC00041698907E4D52DB10120F6F76FFE20689F
:10BDD000013DF5E70320B0BD005005400068762125
:10BDE000C16000207047000080B537F02BFF03488A
:10BDF000FBF776FDBDE8804037F03CBF84D61220CB
:10BE000070470000F8B5C46A2168486820F0400017
:10BE10004860E08B78B1A08BA26910310244A26126
:10BE2000E08BFF2894BFE38BFF23206BA383F6F7FF
:10BE3000D9FD30B3F8BDF9F768F905460090204602
:10BE40004FF4005100224FF47A734FF4005700264C
:10BE500000F01AFA2068042101226423C7604160BF
:10BE600020460421009500F00FFA96486662206291
:10BE7000202084F83700A66284F8346084F83860A3
:10BE8000F8BD2068816841F012018160F8BD00BFF3
:10BE9000F8B5C46A2268506820F020005060E08B3A
:10BEA00078B1A08BA16910320144A161E08BFF2819
:10BEB00094BFE38BFF23E06AA383F6F793FD30B3CF
:10BEC000F8BDF9F722F90546009020464FF40051DD
:10BED00000224FF47A734FF40057002600F0D4F993
:10BEE0002068042101226423C760416020460421A8
:10BEF000009500F0C9F9734866622062202084F83A
:10BF00003700A66284F8346084F83860F8BD206891
:10BF1000816841F012018160F8BD00BF2DE9F8434E
:10BF2000054600680C4690461E462969C2680129EC
:10BF300042F04202C260826822F0400282600ED16A
:10BF4000610003270131016147602846402100223A
:10BF50004346009600F098F918BB002721E006211F
:10BF600003270022434601EAD41909F1F0010161D7
:10BF7000476028464021009600F086F988B9286875
:10BF800000224346C16841F04201C160E1B2016153
:10BF90000121416028464021009600F075F90327F1
:10BFA00010B13846BDE8F8832868C16841F0420105
:10BFB000C16049F0F101C6E72DE9FC410446006883
:10BFC0000D4690461E462169C268012942F0420290
:10BFD000C260826822F0400282600CD169000327AF
:10BFE000002243460161476020464021009600F050
:10BFF0004BF930BB21E0062103270022434601EA2A
:10C00000D511F0310161476020464021009600F0D3
:10C010003BF9B0B9206800224346C16841F04201B3
:10C02000C160E9B2016101214160204640210096D2
:10C0300000F02AF908B1032703E02068C068C0F3C4
:10C0400040073846BDE8FC8110B590F8341001294E
:10C0500001D1022134E0012180F834100168CB685D
:10C060009C071CD41A40540626D4D20425D500229D
:10C070005B05144C42628262046203D5C36B43F0D9
:10C080000403C3638B6823F0C0038B60C16B202162
:10C0900080F8371080F8342080F838200DE0CA6826
:10C0A00042F00202CA60C26B42F00402C2638A68B4
:10C0B00042F012028A6000E0C18B002180F8341047
:10C0C000084610BD0000FFFF10B590F8341001299C
:10C0D00001D102212AE0012180F834100168CA68E8
:10C0E0005305CA601CD412F0C00F1CD090F8372042
:10C0F000222A1DD1826909691170C18B0139C1835E
:10C10000816901318161818B01398183C18B39B3AF
:10C110000168C28B012A14BF01220D224A6002E08D
:10C12000E02180F83710002180F83410084610BD57
:10C1300090F83720212AF6D1C28B8AB18269012476
:10C1400012F8013B0B61C38B012B08BF05244C6027
:10C150008261818B01398183C18B0139C183E2E71F
:10C160002021DEE72DE9FC41044600681546490020
:10C17000DDF82080099E1F46C268434642F0420215
:10C18000C260826822F040028260016103210022C5
:10C19000416020464021009600F076F808B1012762
:10C1A00026E02068012FC16841F04001C16010D035
:10C1B000290A0127002243460161476020464021A9
:10C1C000009600F061F898B92068C16841F040011C
:10C1D000C160E9B20022434601610121416020466D
:10C1E0004021009600F050F80746002818BF0127AC
:10C1F0003846BDE8FC812DE9FC410446006815463F
:10C200004900DDF82080099E1F46C268434642F07F
:10C210004202C260826822F0400282600161032112
:10C220000022416020464021009600F02DF808B120
:10C23000012726E02068012FC16841F04001C1605C
:10C2400010D0290A01270022434601614760204699
:10C250004021009600F018F898B92068C16841F0B4
:10C260004001C160E9B20022434601610121416001
:10C2700020464021009600F007F80746002818BF26
:10C2800001273846BDE8FC812DE9F843DDF8208020
:10C290001D4616460F4681465C1CD9F80000C06852
:10C2A0003840C01BB0FA80F04009B0421CBF0020EB
:10C2B000BDE8F883002CF0D0F8F727FF1DB1A0EB04
:10C2C0000800A842E9D9D9F83C0040F02000C9F89C
:10C2D0003C00202089F83700002089F8340089F8D4
:10C2E00038000120BDE8F883C06A0168D1F88024D5
:10C2F00022F00302C1F880240021816341640121FE
:10C3000080F85110416D41F008014165FAF726B8F7
:10C310000168C06A096889060ED40168D1F88024D2
:10C3200022F00102C1F880240021416490F85110EC
:10C3300001F0F70180F85110FAF72FBAC06AFAF746
:10C340002DBA0168C06A096889060ED40168D1F85F
:10C35000802422F00202C1F880240021816390F839
:10C36000511001F0FB0180F85110FAF779BBC06A57
:10C37000FAF777BB2DE9F8431D4690460E46044672
:10C38000F8F7C3FE81466F1CB8F1000F20D020687B
:10C39000D0F800063040B04220D1002FF7D02DB1A8
:10C3A000F8F7B3FEA0EB0900A842F0D9012084F809
:10C3B0005100002084F850000320BDE8F8833FB10D
:10C3C000002DF3D0F8F7A1FEA0EB0900A842EDD8AC
:10C3D0002068D0F800063040B042F0D10020BDE81F
:10C3E000F8830000B0B50C4D0446294633F093F9AC
:10C3F00030B904F12C0005F12C0133F08CF908B1AF
:10C400000020B0BD04F1580005F1580133F083F964
:10C41000B0FA80F04009B0BD844C050010B5044668
:10C42000012084F80001D4F8EC1009B120468847B7
:10C430002046BDE81040FAF76DBD70B514460546BC
:10C4400008200022002809D455F820300026E3FBFC
:10C45000012644F8202001383246F3E7204640F018
:10C4600071F9A86AA0622046BDE8704045F0C4BBDF
:10C470002DE9F04F9FB00DF12C0A894683465021DB
:10C4800090465046F4F71CFB09F120000AF14401E4
:10C490000822B2F1FF3F13DD5BF8223000240027B1
:10C4A00014F1080509D451F8245050F82460E6FB33
:10C4B000635741F82450013CF2E70439013AE8E7B8
:10C4C0000022122A04D05AF8220008B90132F8E7F3
:10C4D000D9F82800DBF82810C2F1120300261D93BA
:10C4E0000C1A18BF01241E945AF82610701C082E2E
:10C4F00002D800290646F7D0082B0A9415D8471E03
:10C500000A2A15D1204C0AF128020023082B0CD04E
:10C5100004EB830652F823500133B66AAE42F5D0DD
:10C5200003D305E05AF8201001300029FAD0471E45
:10C530006E460AEB870124223046F4F79AFA304619
:10C5400040F000F907F10904371D304645F054FB6F
:10C55000112C0CD8304639462022F4F78AFA5AF8C2
:10C5600024000890304640F0EDF80134EDE76946CC
:10C5700040462422F4F77DFADDE90901C8E9090102
:10C580001FB0BDE8F08F00BF74D00500B0B5002229
:10C590004442451E4FF0FF338A620C62C1E90054E9
:10C5A000C1E902024FF00900C1E90425C1E90633DF
:10C5B00008BF08204862B0BD002900F03080421E4C
:10C5C00000204C2A00F28080DFE802F0277E2B2D2D
:10C5D0007E7E2F31337E7E7E357E7E387E7E7E7EF1
:10C5E0007E3B3E417E7E44477E4A7E7E4D507E7E2F
:10C5F0007E7E7E7E7E7E5356597E7E7E7E5C7E5F14
:10C600007E7E7E617E7E7E7E637E7E7E7E7E7E7E82
:10C610007E66696C6F7276787A00022049E00020AD
:10C620007047042045E0082043E0202041E04020FE
:10C630003FE080203DE04FF080503AE04FF4004072
:10C6400037E04FF4803034E04FF4003031E04FF405
:10C6500080202EE04FF400202BE04FF4801028E0E3
:10C660004FF4001025E04FF4007022E04FF480609A
:10C670001FE04FF480501CE04FF4005019E04FF4DD
:10C68000804016E04FF0006013E0012019E0022026
:10C6900017E04FF000500CE04FF0806009E04FF0E1
:10C6A000007006E04FF4000003E04FF4800000E06B
:10C6B0001020086005487047102002E0082000E0C4
:10C6C0000420086001480430704700BF080004409F
:10C6D00000F00F01000900EB800001EB4000C0B248
:10C6E000704701460A22092898BF0921B1FBF2F2DE
:10C6F00002EB8203A1EB4303591A084440EA0210FB
:10C70000C0B27047B0B504460068C16841F48061AA
:10C71000C160F8F7FAFC05462068C068800505D4BA
:10C72000F8F7F3FC401BB0F57A7FF5D90020B0BDD7
:10C7300080B537F087FA0348FDF790FABDE88040EE
:10C7400037F098BAF4D912200146C06A426912F053
:10C75000500F03D0C068826B08461047416941F40E
:10C7600000714161FDF793BCC06A416941F040012D
:10C770004161816941F00401816170470168C26AC9
:10C780000B6922F8023B438E013B4386C262428E14
:10C790002AB98A6822F004028A60418D01B170478B
:10C7A00000F0D0B80168097CC26A531CC3621170E2
:10C7B000418E01394186418E31B901688A6822F083
:10C7C00047028A60418D01B1704700F0BBB8426AF0
:10C7D000016832F8023B0B61438D013B43854262A5
:10C7E000428D9AB98A6822F008028A60428E5AB154
:10C7F0004A695204FAD5C26A0B6922F8023BC26246
:10C80000428E013A4286F1E7428E02B170478A6851
:10C8100022F047028A6000F095B8426A0168531C12
:10C82000436212780A74418D01394185418D31B9D5
:10C8300001688A6822F008028A60418E01B170475F
:10C8400000F080B81CB504460068016821F00101C1
:10C850000160012194F84800FCF7FEFF45F6C05145
:10C86000B0FBF1F06421484301902068816821F019
:10C870004F01816001994A1E019219B181684907EF
:10C88000F8D403E0E06C40F04000E064F8F73DFCD1
:10C8900002462046642100F055FA08B14020E064C9
:10C8A000F8F733FC009020464FF47C214FF47822B7
:10C8B000642300F001FA08B14020E064072084F806
:10C8C0004A001CBD1CB5044690F848000121FCF745
:10C8D000C3FF45F6C051B0FBF1F06421484301901D
:10C8E0002068816821F04F01816001994A1E019200
:10C8F00019B181680907F8D403E0E06C40F040000A
:10C90000E064F8F702FC02462046642100F056F984
:10C9100008B14020E0642068016821F00101016055
:10C92000F8F7F3FB009020464FF47C214FF4782277
:10C93000642300F0C1F908B14020E064072084F8C6
:10C940004A001CBD10B50446F8F7DFFB024620681C
:10C95000816821F0430181602046642100F02EF9B6
:10C9600018B1E06C40F02000E064E06C38B10120C8
:10C9700084F84A002046BDE81040FDF78DBE94F8CB
:10C980004A00012184F84A1004282046BDE81040DE
:10C9900008BFFEF7ADB8FEF7C7BB10B50446006888
:10C9A000816821F047018160F8F7AFFB024620461D
:10C9B000642100F0D5F818B1E06C40F02000E0648C
:10C9C000012084F84A00E06C00282046BDE81040B1
:10C9D00018BFFDF761BEFEF78BB81CB50446F8F72B
:10C9E00094FB02462068816821F04B01816020465B
:10C9F000642100F0E3F818B1E06C40F02000E0643E
:10CA0000A068032807D100200190206801690191E6
:10CA1000406901900198012084F84A00E06C0028E8
:10CA20002046BDE81C4008BFFEF77CBBFDF734BEC6
:10CA3000C06AC16C41F01001C164012180F84A1044
:10CA4000FDF72ABEC06AFEF754B8C06AFEF76BBB9A
:10CA5000C06AFEF76ABBB0B5C46A0546F8F755FB75
:10CA6000024628680068800617D42068816821F093
:10CA7000430181602046642100F072F808B1202053
:10CA8000E06400206086012084F84A00E06C20B158
:10CA90002046BDE8B040FDF7FFBD2046BDE8B040F0
:10CAA000FEF726B8BCB5C46A0546F8F72EFB024669
:10CAB00028680068800624D42068816821F043013A
:10CAC00081602046642100F079F818B1E06C40F0F4
:10CAD0002000E064A068032807D1002001902068AE
:10CAE0000169019140690190019800206085012051
:10CAF00084F84A00E06C20B12046BDE8BC40FDF758
:10CB0000CBBD2046BDE8BC40FEF70CBBB0B5C46A47
:10CB10000546F8F7FAFA02462868006880061AD433
:10CB20002068816821F0430181602046642100F083
:10CB300045F818B1E06C40F02000E064002060850A
:10CB40006086012084F84A00E06C20B12046BDE8F0
:10CB5000B040FDF7A1BD2046BDE8B040FEF7E4BA05
:10CB60007CB50446406816460D4640B9A0680138B9
:10CB7000012804D82068016821F0010101602046E5
:10CB80002946324600F0DEF828B1E06C40F0200083
:10CB9000E06403207CBD606870B9A068013801289A
:10CBA0000AD820464FF47C214FF478222B46009679
:10CBB00000F082F80028E8D100207CBD7CB50D464D
:10CBC000164600924FF47C61402204462B4600F04A
:10CBD00073F878B920462946324600F0B3F848B9D0
:10CBE00020464FF47C214FF478222B46009600F02B
:10CBF00063F828B1E06C40F02000E06403207CBDC5
:10CC000000207CBD0168C26A0B6922F8023B438E9A
:10CC1000013B4386C262438E082B0CD8438E53B12E
:10CC20004B695B04FAD50B6922F8023BC262438E62
:10CC3000013B4386F2E7418E01B17047FFF7ADBE7D
:10CC40000168097CC26A531CC3621170418E0139AC
:10CC50004186418E10290ED8418E61B101684A6922
:10CC60005204F9D5097CC26A531CC3621170418E0B
:10CC700001394186F0E7418E01B17047FFF78DBE63
:10CC8000426A016832F8023B0B61418D01394185EE
:10CC90004262418D01B17047FFF79FBE426A016851
:10CCA000531C436212780A74418D01394185418DCC
:10CCB00001B17047FFF791BE2DE9FC470F46804652
:10CCC00082F4782081F47C21DDF828909A4616467B
:10CCD0005D1C0843B0FA80F04409D8F800004169AF
:10CCE0003940B14204BF0020BDE8FC8724B1017C7B
:10CCF0008DF807109DF80710002DEED0BAF1000F47
:10CD000007D0F8F702FAA0EB09005045E5D3D8F8B0
:10CD10000000816821F04F018160D8F8041041B90A
:10CD2000D8F808100139012903D8016821F0010160
:10CD30000160002088F84900012088F84A0003209B
:10CD4000BDE8FC87F8B515460E4604464F1C206822
:10CD50004169C90704BF0020F8BD002FF7D02EB1EC
:10CD6000F8F7D3F9401BB042F1D32068816821F075
:10CD70004F018160616839B9A1680139012903D87F
:10CD8000016821F001010160002084F849000120C0
:10CD900084F84A000320F8BD2DE9F84F0446B0F8A6
:10CDA000C000B4F8C410081A00F101080020B0EB6C
:10CDB000982F1CBF0120BDE8F88FB4F8C200B4F86A
:10CDC000F6A0B4F8FAB0B4F8C6900090204600F08F
:10CDD0004EFD94F8FD1094F8FC00090241EA004071
:10CDE00094F8FE1001442068816194F8BC10023967
:10CDF000CAB2042A09D81D2323FA02F2D20704D0AA
:10CE000049B276A252F82110C161B4F8CA10C369C0
:10CE100094F8C97094F8BE5094F8BF6001F0040211
:10CE200001F0020143EA420294F8BD3042EA0712DF
:10CE300042EAC12141F0A051C161290241EA034106
:10CE400031448162204600F012FD94F80011022066
:10CE5000012940F0C08084F80001B4F8F630B4F83D
:10CE6000F4C021684CEA034008612079B4F8F82046
:10CE70000E2808D1ABEB0A054FF4803603EB4505CD
:10CE800006EB054502E0B4F8FA502D0415434D6158
:10CE900094F8BC50013DEEB2052E8FBF00256DB257
:10CEA00053A656F82550CE6908FB05F50E286FF3FA
:10CEB000593646EA4535CD61B4F8C250B4F8C06081
:10CEC00046EA05460E62B4F8C46071D10098A9EB39
:10CED000000005EB400046EA004000F58030486263
:10CEE000D4F8B800C86200200863E08AB4F8FA50A9
:10CEF000278AB4F81AE0B4F81880034405443A4489
:10CF000040445E040132704446EA45060136C1F8E9
:10CF1000B460022606EB45054FF0FF3606EB5202E1
:10CF200045EA43433A4D05EB004043F48033C1F8F2
:10CF3000DC3007EB0C0305EAC3331A43C1F8B82011
:10CF4000CA6942F00062CA61D1F8CC2092B2C1F83D
:10CF5000CC20D1F8CC201043C1F8CC00D1F8D400BB
:10CF6000C00007D5D1F8D4008000FBD5D1F8D4009B
:10CF70008000FBD4D1F8CC0040F01000C1F8CC0008
:10CF80002320F5F79FFD2068D0F8CC1041F0010177
:10CF9000C0F8CC100120F5F795FD1B481B49016036
:10CFA0002068C16841F01001C1600020BDE8F88F21
:10CFB000B4F8C600154B46EA00404862D4F8B80001
:10CFC000C86200200863CA6842F00102CA600E4AC3
:10CFD000136001220A60BDE8F88F00BF0000000066
:10CFE000000000000100000002000000030000003B
:10CFF000010000000200000000000000030000002B
:10D00000040000000300000038E212201DC40000EC
:10D010000000FFFF2DE9F041B2B3054600790C4650
:10D020001646C11E072913D8284600F020FC29689F
:10D030004FF4400000EB8650CA6F3FFA80F022F0B8
:10D04000F8721044C86702204C670867BDE8F08199
:10D050000B2819D8012101FA00F040F6030108421B
:10D0600012D06FF007004FF0020800EBC607284609
:10D0700000F0FDFB24FA07F02968083F013EC0B22A
:10D080004867C1F87080F2D1BDE8F081B0B50446C0
:10D0900000200D46FCF7C2FB2179A560CA1E072AB5
:10D0A0000DD8B0FBF5F2FF2A28BFFF22022A98BF55
:10D0B0000222206850F87C1F62F38D1123E00129C1
:10D0C00022D8B0FBF5F00023A0EB50013F290A461F
:10D0D00028BF3F2200294FEA50014FEA02324FEAAF
:10D0E000811108BF4FF480527F2888BF4FF47C61C4
:10D0F000B3EB500F08BF4021206850F8643F6FF336
:10D100009113194311430160B0BD026801730129F5
:10D11000136E6FF350130BD004290CD0022911D1D8
:10D12000007901288CBF43F48C6343F4846309E0E5
:10D1300043F4407306E0007901288CBF43F41A637E
:10D1400043F41E6313667047F0B594460023082429
:10D150000025002C14D451F8247050F824607A195A
:10D16000B21A4CF824207A19A4F1010443F1000505
:10D17000B21A73EB05024FF0000538BF0125E8E74E
:10D180006046BDE8F0403FF0DDBA000070B50646ED
:10D190000D46886A1446B16A41B170B128463146DD
:10D1A0001FF08CFD78B12846314616E070B130464C
:10D1B00029462246F4F77EFA12E0304629462246F6
:10D1C000F4F778FA1FE03046294619E03046294640
:10D1D0001FF074FD90B1304629462246FFF7B4FF98
:10D1E00000200C49A06220461FF068FD28B10949C3
:10D1F0002046BDE8704000F037B870BD2846314683
:10D200002246FFF7A1FF0120A0622046BDE8704042
:10D21000F4F786BA544A0500F0B58BB00E460546C1
:10D2200010462C211446F3F74BFC286AB0420DD26D
:10D230006F462C213846F3F743FC0120394622463D
:10D24000089609902846FFF7A1FF0BE020462946E3
:10D250002422F3F70EFCD5E90901C4E90901286A83
:10D26000801B20620BB0F0BDF0B500220823002423
:10D27000002B15D451F8236050F823503719A41906
:10D2800042F100062C1BA5EB070772EB060440F8E1
:10D290002370A3F101034FF0000438BF0124E7E736
:10D2A000BDE8F0403FF04EBA70B58CB004460D4674
:10D2B000886AA16AB1B1B0B1284621461FF0FEFCD0
:10D2C000E8B101AE284621463246FFF73DFF204631
:10D2D00031462422F3F7CDFB00200A996162A06257
:10D2E0000CB070BD30B1204629460CB0BDE870408E
:10D2F000F4F7C6B9204629461FF0E0FC30B12046BD
:10D3000029460CB0BDE87040FFF7AEBF01AE28461D
:10D3100021463246FFF718FF204631462422F3F714
:10D32000A8FB0120D9E780B536F08CFCF9F79AFB11
:10D330003CF058FEBDE8804036F09CBC70470000D1
:10D340000F4810490160704780B531F0B1FD0B49BD
:10D35000094840F8801C016841F003010160016840
:10D3600041F4700101601EF0D1FF00F011F8044893
:10D370000449016080BD00BF88ED00E000000000AE
:10D3800014D4122040787D012B480078704700BFEC
:10D39000B0B5284C284954F8400C00F0030003387D
:10D3A000B0FA80F04FEA5010087042D1F9F762FBF2
:10D3B000206820F001002060206820F0020020603A
:10D3C000F3F70CFAFFF7BAFF35F0E0FEF3F754FA83
:10D3D0001A4A0121506C80F31088D06C80F31188B8
:10D3E000906C80F31388106D80F31488906D80F337
:10D3F0000988D06D80F30B88506D80F30888106E1B
:10D4000080F30A880E480160D2E90F34956D84F3E9
:10D41000008884F3008485F30988194602B4114614
:10D4200001C901B40846B0E8FE1FD0F804E001BC11
:10D4300000BDB0BD40000740C4FD1220F0FC12202A
:10D4400000E100E0C06A012180F83610FDF792BECD
:10D4500010B5416ACA0706D00268836A546824F48A
:10D460000034234353608A0706D50268C36A5468B0
:10D4700024F48034234353604A0706D50268036BC3
:10D48000546824F48024234353600A0706D50268B5
:10D49000436B546824F4004423435360CA0606D502
:10D4A0000268836B946824F48054234393608A0653
:10D4B00006D50268C36B946824F400542343936038
:10D4C0004A0610D50268036C5468B3F5801F24F433
:10D4D000801444EA0304546005D1436C546824F476
:10D4E000C00423435360090606D50168806C4A686E
:10D4F00022F400221043486010BD00212022416721
:10D5000080F8712080F8701080F872200020704739
:10D51000C06A0021A0F85A10A0F85210FEF702B914
:10D5200010B5C46A94F8710021280DD12068816873
:10D53000090609D50021A4F85210016821F0C001A4
:10D540000160202084F8710094F87200222809D12B
:10D5500020688068400605D50020A4F85A002046BF
:10D5600000F08AF8606F40F0100060672046BDE868
:10D570001040FEF7D7B80168C06A0968890612D45E
:10D580000021A0F85A1001680A6822F480720A602B
:10D590008A6822F001028A608A6822F040028A606A
:10D5A000202180F87210FEF7E3BAC06A0021D0E9AA
:10D5B0001A23D96312B1D26B02B17047A0F852108E
:10D5C000A0F85A1041670F2201680A628A6942F086
:10D5D00008028A61202180F8711080F87210FDF72E
:10D5E000CFBEC06AFEF7C6BAC06A00210F22A0F8FB
:10D5F0005A1001680A628A6942F008028A61202191
:10D6000080F87210FDF7E4BE0168C06A09688906F7
:10D6100048BFFEF7AFBB0021A0F852100068816838
:10D6200021F080018160016841F040010160704794
:10D63000C06A0021D0E91A32D96312B1D26B02B1AB
:10D640007047A0F85210A0F85A1041670F220168E5
:10D650000A62202180F8711080F87210FDF790BEE8
:10D66000C06AFEF788BBC06A0021A0F852102021D2
:10D6700080F87110FDF702BF01680A6822F4907209
:10D680000A608A6822F001028A6000210166202176
:10D6900080F8721070470168B0F85C2090F8723022
:10D6A000222B0DD14B6A1A40436D23F8022B4365A0
:10D6B000B0F85A20013AA0F85A20120405D0704759
:10D6C000886940F00800886170470A6822F4907207
:10D6D0000A608A6822F001028A6000210166202126
:10D6E00080F87210FEF744BA10B50168B0F85C20FB
:10D6F00090F87230222B0DD1436D5C1C4465496A51
:10D7000011401970B0F85A100139A0F85A100904E4
:10D7100005D010BD886940F00800886110BD01681F
:10D720000A6822F490720A608A6822F001028A6014
:10D7300000210166202180F87210BDE81040FEF73C
:10D7400017BA000070B5016800F108040E4E1CCC39
:10D750000D682243C46935404669324322432A4357
:10D760000A604A6822F440521A434A600022C0E923
:10D7700018228269006A10438A6822F430621043DA
:10D780008860002070BD00BFF3B9FFE790F871100A
:10D7900021290FD1B0F8521069B1C26C016832F87A
:10D7A000023B6FF35F238B62C264B0F85210013901
:10D7B000A0F8521070470068016821F080010160F4
:10D7C000016841F040010160704790F87110212913
:10D7D0000DD1B0F8521059B1C26C0168531CC3642A
:10D7E00012788A62B0F852100139A0F852107047CE
:10D7F0000068016821F080010160016841F040018A
:10D80000016070472DE9F843DDF8209098461646F0
:10D810000F46044609F101052068C1693940C91B5A
:10D82000B1FA81F14909B1421CBF0020BDE8F8837B
:10D83000002DF1D0B9F1000F06D0F7F766FCA0EB90
:10D8400008004845E8D92068016821F4D0710160DA
:10D85000816821F0010181602020002184F871009D
:10D8600084F8701084F872000320BDE8F88370B566
:10D870000446F7F74AFC054642F21076F7F745FCF6
:10D88000401BB04208D220684168C907F6D1006F3A
:10D89000000758BF70BDF1E7FEE7FEE700280CD493
:10D8A00000F01F010122400902FA01F1134A42F877
:10D8B0002010BFF34F8FBFF36F8F704700280CD439
:10D8C00000F01F010122400902FA01F10B4A42F85F
:10D8D0002010BFF34F8FBFF36F8F704700280CD419
:10D8E00000F01F010122400902FA01F1034A42F847
:10D8F0002010BFF34F8FBFF36F8F704780E100E0C0
:10D90000002808D400F01F010122400902FA01F1A9
:10D91000074A42F820107047002808D400F01F0181
:10D920000122400902FA01F1014A42F82010704731
:10D9300000E100E010B500F00F03064C044AB0F11E
:10D94000FF3F2344C8BF83184801187010BD00BFB3
:10D9500000E400E014ED00E0BFF34F8F0548064AF5
:10D96000016801F4E06111430160BFF34F8F00BF14
:10D97000FDE700BF0CED00E00400FA05FEE78107BB
:10D980001CBF00207047642190FBF1F202FB1101E3
:10D9900009B1012070474FF4C87190FBF1F202FB0E
:10D9A0001100B0FA80F040097047000018B1C1B210
:10D9B00019B101200EE00020704710F47F4102D021
:10D9C000090A092006E010F47F0107BF010E1920A3
:10D9D000090C1120014A515C084470473D4605007E
:10D9E0000020704710B5044628B9054902201FF0F1
:10D9F000B1FE0CF03BFD2046BDE810400CF0DABD56
:10DA0000C845050070B50446F2F7E8FE04F11406B7
:10DA1000054630463CF034FD30463CF0FDFB208AA4
:10DA200020F0020020822846F2F7DCFE606C2146DE
:10DA3000BDE8704006F064BD10B51FF0E1FB0AF0D0
:10DA400085FF04461D486FF0FC1101601C4848F238
:10DA5000AC310160216819B1A28A00201FF0CAFC14
:10DA6000A16819B1228B01201FF0C4FC616819B1B3
:10DA7000E28A02201FF0BEFCE16819B1628B03202C
:10DA80001FF0B8FC0F4C2068016801208847014650
:10DA9000012017F009F82068016800208847014636
:10DAA000002017F001F807F05BFA07F069FA07F0B9
:10DAB000AFFFBDE81040FBF7CDBF00BF14F004403E
:10DAC00050000550FCD8122070B50C4601460020CD
:10DAD000B0EB913F22D140F6FE72114005291DD8CE
:10DAE000FB2C84BF002070BD0AF078FF10B10C49F8
:10DAF000084370BDC04800211A2201230126056891
:10DB000041F20310A8470749067009688847204674
:10DB100002211FF0A9FBB64981F82E6070BD00BF3D
:10DB2000000013203CD41220F8B5B14F044616462D
:10DB300097F82E0030B130461FF01EFA002087F80B
:10DB40002E00F8BD40F6FE700D4604EA00071FF0F7
:10DB5000E1F830B101201FF0E5F81FF0DBF80028F4
:10DB6000FBD1052F13D8A448002208230768200200
:10DB7000013081B241F20610B8470A49458004805D
:10DB800031444160DA490968BDE8F8400847964ADF
:10DB90002846214640F2657301B0BDE8F0403DF0F3
:10DBA0008FB900BF0000EDDF10B50246924800219A
:10DBB0000023046841F20510A04702490968BDE846
:10DBC0001040084738D412202DE9FE4F924689466E
:10DBD00004461DF087FC09F104058346022128460E
:10DBE0001FF042FB074628B97F497AA040F2C7528E
:10DBF0003DF048F9200A012651464A4687F803902D
:10DC00007C70B870381D3E70F2F733FF61203946E2
:10DC10002A460CF081FC38461FF0AEF91FF07AF866
:10DC200030B101201FF07EF81FF074F80028FBD1FE
:10DC30006E486F49067091F82D0080281ABF013890
:10DC400081F82D008020BBF1000F23D040B20028C6
:10DC500024D49BF8021001F00F0008282CD84FF0B4
:10DC60000008DFE800F034053405292929293200AD
:10DC7000B9F1020F1BD3BAF80000052817D85D4A86
:10DC80000244127E9AB10002002200F10108ADF8B0
:10DC90000A2022E000202146012202E058462146C7
:10DCA0000722002303B0BDE8F04F17F095BE584699
:10DCB000214602225346F5E74B4A214640F2636370
:10DCC00003B0BDE8F04F3DF0FBB84FF00208002074
:10DCD000B9F1000FADF80A000ED0DBF80450B5B171
:10DCE000480620D40DF10A02002051464B4600950B
:10DCF0000CF096F805461DE03F48414622460023B9
:10DD00000025066841F20510B04780462BE03A48EE
:10DD10001FFA88F122460023056841F20510A84742
:10DD20008046042518E00DF10A02002051464B46BA
:10DD3000A847C5B2012D03D15846214612222CE036
:10DD40002D48BDF80A301FFA88F12246066841F2D4
:10DD50000510B0478046D5B3234A2846214640F2F5
:10DD60008F633DF0ADF8B8F1000F13D0BDF80A0095
:10DD7000F8B1DBF80460E6B19BF80200400611D46C
:10DD80000DF10A02404651464B4600960CF048F809
:10DD900005460EE0584621460722002317F01CFED8
:10DDA000BDE8FE8F0DF10A02404651464B46B04792
:10DDB000C5B235B10C4A2846214640F2A7633DF072
:10DDC0007FF8BF48016840468847BDE8FE8F0025C0
:10DDD000C9E700BF4E554C4C20213D206834746C7F
:10DDE0005F6461746100000018B0050090DA1220D1
:10DDF00088EB122098DA12200CD41220B0B5044619
:10DE000010B9AC4800210170AA4D1E2105F108008F
:10DE1000F2F756FE0848032118F0BAFA00201F2135
:10DE2000C5F81900E861204629761DF021FFBDE8FC
:10DE3000B04018F025BB00BF38760500B0B50546E8
:10DE4000A0F10C049B48007830B1E0489B4940F2B7
:10DE5000A1423DF017F845E01EF05CFF30B1012013
:10DE60001EF060FF1EF056FF0028FBD135F8080CAD
:10DE700041F20611884219D041F20511884228D199
:10DE800035F8021C35F8040C2A460CF0E3FC35F892
:10DE9000040C1DF027FBE0B1807800F00F0103298E
:10DEA00017D80020DFE801F00802080235F8061C48
:10DEB000052907D80802013025F8060C80480168BA
:10DEC000284612E035F8080C7C4A40F279433CF0D1
:10DED000F7FF35F8041C35F8080C784A40F29743F0
:10DEE0003CF0EEFF744801682046BDE8B0400847AA
:10DEF00010D4122070B5044630F8080C41F2041119
:10DF0000A4F10C05884210D041F2031188422ED1B1
:10DF100014F8041C3F2909D9582928D8C031654B69
:10DF2000C1F3C4021A44127C17E03E2101F1FF0242
:10DF300001263E2902F0070306FA03F3C2F3C406E2
:10DF40005C4A1644367A03EA06030DD163B12178A0
:10DF50000139CBB202EBD302127E01F0070122FAA3
:10DF600001F1C90703D19EE0002B00F09C805149CC
:10DF7000097821B12846BDE870401DF091BE41F2FC
:10DF80000111411A042006293ED8DFE801F00404FB
:10DF90000D123D30160034F8040CD8B31DF0A2FA6F
:10DFA00088B3807800090DE014F8040C1DF0C0FA65
:10DFB00006E020781DF0CEFA02E020781DF0B0FADD
:10DFC00008B3407810F0030024D002280FD00128B5
:10DFD0001AD134F8061C05294DD8084610F0BCFBB0
:10DFE0000102FF2801F1080108BF082113E034F8FD
:10DFF000061C052922D8084610F0AEFBFF2840D0A9
:10E000000002011D07E0042034F8081C2B4A4FF4DD
:10E0100078733DE0072134F8080C24F8061C41F21F
:10E020000111401A032822D8DFE800F0020E141A6A
:10E0300034F8022C34F8041C262015E034F8080CBF
:10E040001E4A40F2BD3323E034F8022C34F8041C9D
:10E05000252009E034F8022C34F8041C272003E0C2
:10E0600034F8022C2178282023460CF00DFC1448AB
:10E07000016820461AE034F8080C104A40F2A53333
:10E0800006E034F8061C34F8080C0C4A4FF46E73A2
:10E090003CF016FF34F8041C34F8080C074A40F230
:10E0A00013433CF00DFF044801682846BDE870406A
:10E0B000084700BF90DA122058D4122079AC05002E
:10E0C00010D41220B0B50D4604460B2800D82DB947
:10E0D0001A4A20462946DD233CF0F2FE0B2C1AD8C2
:10E0E00018A2174802EB440200EB840152780D613C
:10E0F000011900EB820581F858200121A1402C462E
:10E1000054F8400F54F83C3C41EA030144F83C1CED
:10E1100018B100240FE003240DE0C2F10D001149F5
:10E12000C3B20EA03CF018FF20600FA00021002415
:10E130003CF008FFE8642046B0BD00BF2EB00500EB
:10E1400058ED12200001010202020302040205023E
:10E1500006020702080209020A020B024B455F454C
:10E1600056540000FDCE02004B45000080B5154816
:10E170006421F2F7A5FC80BD2DE9F041114DDFF8D7
:10E18000A48D114E0446286810EA040108BFBDE8BA
:10E19000F081B1FA81F080F01F070C2F05D33846CB
:10E1A000324640F265133CF08BFE05EB87000069B8
:10E1B00008B18047E7E74046314640F271123CF033
:10E1C00061FEE0E758ED12202EB0050033BF0500D8
:10E1D0002DE9F0410E46804603F10C0002211C4659
:10E1E00017461FF041F8054620B90AA00CA14A22A3
:10E1F0003CF048FE4FF0FF306C812F81EE80A5F897
:10E200000480214628600C352846F2F759FC284640
:10E21000BDE8F0816D736720213D204E554C4C00C8
:10E220006B655F6D73672E630000000020F8061CAD
:10E230001B4920F8042C4968084700BF20F8081C37
:10E24000174920F8043C20F8062C4968084700BF0D
:10E2500010B504462BF0DCFB08B12CF001FD204684
:10E26000BDE810401EF088BEB0B50446F2F7B6FA1D
:10E2700005464F48A4F10C010BF0CAFB2846F2F703
:10E28000B1FA0420BDE8B0401EF00EBEB0B5044C9B
:10E2900000232568A8476168BDE8B040084700BF73
:10E2A0000CD4122080B507480021C0E907110E21C7
:10E2B0000175054938F038FA0448BDE880403BF064
:10E2C00001BC00BF3CE21220D4680500E5D1020089
:10E2D00000207047364A2832126842B19388834240
:10E2E000FAD1D3888B4204BF01207047F4E70020A5
:10E2F000704700BF10B541EA00422D482D49283033
:10E300001FF0C7F840B10446C0683CF059FE2046F3
:10E31000BDE810401EF030BE10BD00BF70470000C9
:10E320002DE9FC4188460746B2F5800F019201D3E2
:10E330001E4C02E014460AB9012401941C4848EA24
:10E3400007421C4900F1280528461FF0A2F860B1D9
:10E3500006468068A0421FD004EB840001A940005B
:10E360000190F0683CF02EFE16E0102002211EF015
:10E370007BFF064628B910A011A14FF4B8723CF0FB
:10E3800081FD134911A032462346B460A6F80680E9
:10E39000B7803CF001FEF0600E4A284631461FF07F
:10E3A000A2F8F0683CF012FEBDE8FC81FFFF3F00E0
:10E3B0005CFD12206B96010074696D6572000000AF
:10E3C0006B655F74696D65722E6300004B450000DC
:10E3D00011DA020053960100F8B515460E460746BD
:10E3E000F2F7FCF90446644850F8270028B190F889
:10E3F000911049B1058586850CE06048604940F67A
:10E400003D123CF03FFD05E0384631462A460123E7
:10E4100026F0E0F82046BDE8F840F2F7E3B900BF87
:10E4200070B50D460646F2F7D9F90446524850F841
:10E43000260040B1B0F87C1009070BD485B14168C3
:10E4400001EB451109E04D484D4940F675123CF08D
:10E4500019FD08E0416801F5805121F0704101E0AB
:10E460004FF0FF3101662046BDE87040F2F7BAB9BF
:10E47000F8B515460E460746F2F7B0F904463E4891
:10E4800050F82700B8B190F89300C00719D00F4A90
:10E49000310C5A23300EC9B2128841EA002002F230
:10E4A0002F1222F0010217FB0322094BD6521A4405
:10E4B0005080958005E03148314940F68D123CF09E
:10E4C000E1FC2046BDE8F840F2F78CB9084D0500A4
:10E4D00026001320F8B516460D460746F2F77EF9DA
:10E4E0000446254850F8270068B10021A0F8806054
:10E4F00080F88E10B0F87C1009070BD485B1416804
:10E5000001EB451109E01D481D4940F6B3123CF0EE
:10E51000B9FC08E0416801F5805121F0704101E04B
:10E520004FF0FF3101662046BDE8F840F2F75AB9D6
:10E53000F8B515460E460746F2F750F904460E4860
:10E5400050F8270028B190F8911049B14585C6854B
:10E550000CE00A480A4940F656123CF093FC05E0EC
:10E56000384631462A46012328F060FA2046BDE8A5
:10E57000F840F2F737B900BF00EE122033BF0500B4
:10E58000BDB705002DE9F04F85B0DFF8508707468D
:10E590008B46CE4A98F82000FF2806D0C000012103
:10E5A00001FA00F0116808431060DFF8386756F888
:10E5B000270008B10C274DE3A020002100251EF004
:10E5C00053FE002846F8270000F0C4800446DFF818
:10E5D00018070068804780462046A021F2F770FAAD
:10E5E000DFF80807DFF80817C4E90705616232F0B1
:10E5F0002DF8DFF80067207684F88F70A560D94683
:10E60000B07AF17AA0754FF4C06060F31F119BF8E7
:10E610002600A18284F89200BBF81800A4F87C00C0
:10E62000DBF80C00E06659F8060F2063B9F8040027
:10E63000A086B9F81800A4F8930099F81D2099F85D
:10E640001B0099F81C1084F89720DFF8AC2684F89A
:10E6500095000020032938BF012092F8D130B3FA89
:10E6600083F35B091843081A84F8960099F81E0092
:10E67000032838BF012592F8D110DFF88026B1FABF
:10E6800081F149092943401A84F8980099F8170044
:10E6900000F00F010009515C105C084484F89B00F5
:10E6A0000BF0ADFAB4F87E2099F81F1060F30B025E
:10E6B00011F0F00FA4F87E200BD0DFF844264FF4C1
:10E6C000704040F2A7733CF0FBFB9BF82510B4F8B8
:10E6D0007E20FF206FF31F3284F890009BF81C000F
:10E6E000A4F88000DBE90403C4F8860042EA0130A4
:10E6F000A4F87E00B4F87C00C4F88A30C10633D494
:10E7000094F88F0094F89710002918BF012184F81D
:10E710009E1026F0A1FC94F89E00002800F02E81A7
:10E72000DFF8EC05DFF8EC150025C4E91505E16517
:10E7300031F08CFF84F85000B07BF17B256484F8C5
:10E740004E004FF4C06060F31F112069A4F84C1014
:10E75000A06413E1DFF8B005DFF8A41540F6F1027C
:10E760003CF090FB0C2774E294F88F108D00A0F120
:10E77000100105290FD8DFE801F0031E27321E1013
:10E7800094F89B00642140F2E24210FB0210002248
:10E79000206102202DE01D280DD194F89B006421FA
:10E7A00040F25E6210FB021020619BF81F0000F037
:10E7B000010201201DE0DFF85005DFF8441540F2AA
:10E7C000EB723CF05FFB12E094F89B00642140F296
:10E7D0005E6210FB021000222061062009E094F81E
:10E7E0009B00642140F25E6210FB02102061002059
:10E7F00000229BF81E10012305F0FC05CDE9003036
:10E80000284601F0010306210EF0B6FAB4F87C00A8
:10E81000400708D4BBF81400002852D0BBF81020E1
:10E82000C1B238462CE0DFF8E4044FF6FE712D2229
:10E83000008800F22F1020F0010000F2F12020F0FB
:10E840000100413020F001009D30084094F88F1005
:10E85000793020F0010000F2511020F0010000F2A8
:10E86000211020F0010011FB0200B9F8041082B25F
:10E87000174810438180D9F80010016038460621FE
:10E88000002325F0A7FE9BF81E000421002245F07E
:10E89000010ACDE900210021002200F001035046C9
:10E8A0000EF06AFAB4F87C00400739D4BBF81600C1
:10E8B00080B1BBF81220C1B23846002328F0B6F868
:10E8C0002EE0284600210EF011FADCE76400055026
:10E8D000000013200630C1B250460EF0EBFA50464D
:10E8E00000210EF003FADFF824044FF6FE710088D1
:10E8F00000F22F1020F0010000F2F1200840C5EBDB
:10E90000C501413020F001009D3020F00100793038
:10E9100020F0010000EB410081B250460EF048F8B3
:10E92000B4F87C0000F00600022820D1DFF8DC03F8
:10E930004FF6FE71008800F22F1020F0010000F267
:10E94000F1200840CAEBCA01413020F001009D309F
:10E9500020F00100793020F0010000EB410081B28D
:10E9600028460EF025F850460EF0EAF803E0284657
:10E9700000210EF01DF828460EF0E2F8B4F87C10E5
:10E98000D54E08070FD45A20DE4AC90617FB0020CF
:10E99000DE4A54BF062104211588203005F22F12CB
:10E9A0003240115216E0DC48026808F5805020F031
:10E9B000704102209047D948D249808820615A206E
:10E9C00017FB0010D1490D8805F22F113140084482
:10E9D00005210184FF20CDF80C8084F89C009BF871
:10E9E0002700A8B3B4F87C00400703D59BF81E00AD
:10E9F000800718D5CA489BF81F1002684846904700
:10EA0000022810D805F22F11342284F89C0021F03E
:10EA1000010101F2F12121F00101413121F0010157
:10EA200010FB021A01E04FF0000A9BF81E001FFACB
:10EA30008AF300F002011846002B18BF0120B4F839
:10EA40007C2000EA5101520709D49BF827200AE0F4
:10EA500000220023002100204FF0000A0AE01A469D
:10EA6000002B18BF0122002918BF0421002B18BF5A
:10EA700001235B00194305F22F1841EA02019BF8BC
:10EA8000202008EA06033E4641EA02224FF05A01DE
:10EA900017FB01379B4B03EB0705AA86049610B1C1
:10EAA00003F14C061BE006FB01F04FF6FE7103F18B
:10EAB000520601EA08010844B9F804104C30184322
:10EAC0008180D9F8001001609BF81FA0BAF1020FF5
:10EAD00005D3A44993A040F2F4623CF0D3F948F284
:10EAE000270027F806A0E88694F895007F2803D130
:10EAF0009D4890F82D0004E09B4940B28A690021AE
:10EB00009047288728F001004FF6FE7100F2F120AF
:10EB100094F8987094F89660084094F88F104130FB
:10EB200017F0FC0F20F001004FEA810100F19D0079
:10EB3000C9B220F00100C1EBC10100F1790020F061
:10EB4000010000EB41004FF00801A8874BF6D660AA
:10EB5000A88548F68960E88545F2555028864FF02B
:10EB6000550068864FF00000A5F84800A5F84A0057
:10EB7000B4F87C0001EA5000A5F8400005D07B48BD
:10EB800078494FF4A1723CF07DF93F014FEA8609C4
:10EB900016F0FC0F0DD0DFF8CC81754840F243121F
:10EBA00041463CF06FF973A041464FF4A2723CF02D
:10EBB00069F947EA060040EA0900A8849BF81E00AC
:10EBC000049FC60117F0E00F04D079486549B522CB
:10EBD0003CF058F946EA07000821DFF8008161F3AC
:10EBE0001F206884BBF80000E884BBF80200288579
:10EBF000BBF8040068859BF81D60082E05D36D489E
:10EC0000584940F2E3523CF03DF9B5F8460020F097
:10EC1000E00040EA4610A5F8460094F89E0040B196
:10EC2000B4F8820040F27121C0EB001001EB40000B
:10EC3000206103980027604DC4E901072046296838
:10EC40008847B8B130482E4940F6EA023CF01AF93C
:10EC50000027234A98F82000FF2807D0C000012190
:10EC600001FA00F0116821EA00001060384605B092
:10EC7000BDE8F08F5148BBF81A100268049890471D
:10EC800094F89E00616884F8917000286166E0D075
:10EC9000226E04F13800531C08D06264154A4FF408
:10ECA0002063D27B63F31F12A4F84C20E26E94F829
:10ECB00097305A4301EB420121F07041E16329682A
:10ECC000884728B1A06C002784F89E702061C0E7B7
:10ECD000E06BA066BCE700BFFEFF0100C8DB1220AE
:10ECE0006400055000EE122020D51220994E03003A
:10ECF0007D4D0300289C050030EE12201D89050083
:10ED0000BDB705000000132033BF0500084D050006
:10ED1000314703005D46030038D61220E4DC1220A0
:10ED20001CD5122028282875696E7431365F742925
:10ED300061647662646164647274797065203C3CDD
:10ED40002030292026207E282875696E7431365F90
:10ED50007429307830303030303030312929203D3E
:10ED60003D203000DCB7050090DB1220B6B5050071
:10ED70006DB6050028282875696E7431365F7429D0
:10ED8000747872617465203C3C2030292026207EF6
:10ED9000282875696E7431365F74293078303030C8
:10EDA00030303030332929203D3D20300000000034
:10EDB00020B7050032B60500F4D5122078D4122011
:10EDC0002DE9F041DFF8A0870546244F98F8200090
:10EDD000FF2806D0C000022101FA00F0796E084336
:10EDE0007866F1F7FBFC04462D4850F8250058B131
:10EDF00090F89110012909D0E9B928460121002293
:10EE0000002625F031FD17E00C2615E0C04A90F8E9
:10EE10008F105A23128802F22F1222F0010211FBE6
:10EE200003210F4A01238B52022180F89110386888
:10EE300040F00070386000262046F1F7D3FC98F8C7
:10EE40002000FF2807D0C000022101FA00F0796EEF
:10EE500021EA000078663046BDE8F08100000550E8
:10EE600040001320F8B516460D460746F1F7B6FCEC
:10EE700004460B4850F8270030B10121066780F89E
:10EE8000905080F89D1005E02648064940F6C812CB
:10EE90003BF0F8FF2046BDE8F840F1F7A3BC00BF07
:10EEA00000EE1220BDB705002048704770B504463B
:10EEB0000025F1F793FC1D490022252D0DD2EB080A
:10EEC00005F00706E35CF340DB0704D051FA82F358
:10EED000013283F8D2500135EFE781F8F720BDE821
:10EEE0007040F1F77FBC00BFB0B5242809D80F4BA4
:10EEF00003EB000414F9945F59B1032D0EDC691C77
:10EF00000BE00848084940F23B22BDE8B0403BF026
:10EF1000B9BF15F1030F01DB691E217043F82020F2
:10EF2000B0BD00BF33BF050073B4050030EE122042
:10EF30002DE9F84F1C4690468A460746F1F74EFCED
:10EF4000BD4951F8271059B1B1F88820B1F88A307D
:10EF5000B1F87E50D1F858B04E6F1A4497B204E021
:10EF6000002500274FF0000B0026DDF82890F1F770
:10EF700039FCA7EB0A0040F27122B0F5004FCFBF79
:10EF800000B20021A1EB00400014216800FB06B094
:10EF900005EB4101B1FBF2F1014421F00103181A24
:10EFA00020F0704050430122401B0128B8BF4FF0B1
:10EFB000FF321044022290FBF2F5C1F35A004FEAEF
:10EFC00048010AF0A9FD216880B2491B2160D9F8E7
:10EFD0000010491BC9F80010BDE8F88F2DE9F04773
:10EFE000994690460E460746F1F7F8FBE14951F87D
:10EFF00027205AB1B2F88810B2F88A40089B556FA2
:10F000002144946D43B1B2F87EA007E000274FF091
:10F01000000A0024002502E04FF0000A8FB2F1F749
:10F02000E1FBB81BB0F5004FCFBF00B20021A1EB50
:10F0300000400014A4EB490100FB05104FEA8801D1
:10F040008CB220F0704021460AF066FD211A40F291
:10F050007122002818BF01FB02F0A0EB0A00012179
:10F060000128B8BF4FF0FF3108444010BDE8F087D9
:10F07000F8B516460D460746F1F7B0FB0446E948D9
:10F0800050F8271041B191F8560038B1BC4A002120
:10F0900040F6B1333BF014FF0C250AE00220A1F842
:10F0A000546081F85600286848642879002581F862
:10F0B00048002046F1F796FB2846F8BD70B50D468E
:10F0C0000646F1F78BFB0446D64850F8260088B177
:10F0D000CA485A21008800F22F1020F0010016FBC8
:10F0E00001000C49405A0C494A69C0B22946904770
:10F0F000054607E0A24A3046002140F62853002585
:10F100003BF0DEFE2046F1F76DFB284670BD00BFE8
:10F11000084D05003800132090DB12202DE9F04740
:10F120000E460546F1F75AFBBE4C824654F8257050
:10F13000002F4DD0B7F89000002E20F0100066F39D
:10F140000410A7F8900041D0284629F061F997F8FB
:10F150009E00D8B397F89B00C0BBB7F89000C007DB
:10F1600034D097F8A20088B3834854F8258000680B
:10F1700080470646B86D796F801B20F0704088424A
:10F1800024D97E480021026840469047B86D796FC7
:10F19000DFF80484DFF8F09A821B22F070428A4282
:10F1A0001DD9B7F88A204AB94046494640F6473249
:10F1B0003BF068FEB7F88A20B86D796F401A013AC3
:10F1C00020F07040A7F88A20B865E5E7002700E046
:10F1D0000C275046F1F706FB3846BDE8F087284675
:10F1E00031460022002728F039FFF2E72DE9F843E5
:10F1F0001F4691460C460546F1F7F0FA8046FA485C
:10F2000050F8256086B12846A6F89670A6F8944076
:10F21000A6F8929028F04CF9726F96F8A010284644
:10F2200029F0C2F8002400E00C244046F1F7DAFA95
:10F230002046BDE8F88300BF18EE12202DE9F84FF4
:10F24000DFF824A305460E46C84A9AF82200FF2894
:10F2500006D0C000022101FA00F0116808431060D6
:10F260009AF82300FF2806D0C000022101FA00F01E
:10F270001168084310609346F1F7B0FADA4C814602
:10F2800054F82570002F4CD007F12C0031460AF0BD
:10F29000BFFBB7F8900040F00800A7F890002846A0
:10F2A00029F0B6F897F89B00C8BBB7F89000C007E4
:10F2B00035D097F8A20090B3B54854F8258000687F
:10F2C00080470646B86D796F5C46801B20F0704021
:10F2D000884246D9AF480021026840469047B86D41
:10F2E000796FDFF8B482DFF8A0B9821B22F0704298
:10F2F0008A4238D9B7F88A204AB94046594640F67A
:10F300000B323BF0BFFDB7F88A20B86D796F401A19
:10F31000013A20F07040A7F88A20B865E5E7002799
:10F3200000E00C275C464846F1F75CFA9AF82200A8
:10F33000FF2807D0C000022101FA00F0216821EA6D
:10F34000000020609AF82300FF2807D0C0000221A7
:10F3500001FA00F0216821EA000020603846BDE88B
:10F36000F88F0027DFE7284631460022002728F0E3
:10F3700075FED8E718EE122020D51220FCD51220F9
:10F38000B7B80500F0B5E94B53F82030A3B31B4BD9
:10F390005A241B4E0227B64600FB04FC1B8803F2CE
:10F3A0002F1323F0010310FB043500242E44002505
:10F3B00035837583B583F583358475841036082DC0
:10F3C00006D0E0B257FA84F4105A70530235F6E7CB
:10F3D0000CEB03000F2200236FF001047044102B8C
:10F3E0000AD051FA82F554FA82F235F8015C2DBA4E
:10F3F0002D0CC5520233F2E7F0BD00BF084D0500E9
:10F400004C00132010B50446F1F7E8F9F44951F81F
:10F41000241011B1B1F8884000E00024F1F7E2F9BE
:10F42000204610BD18EE12202DE9F84FDFF838A164
:10F4300005460E464D4A9AF82200FF2806D0C00025
:10F44000012101FA00F01168084310609AF82300C6
:10F45000FF2806D0C000012101FA00F0116808431E
:10F4600010609346F1F7BAF9414C814654F8257083
:10F47000002F50D0B86A28B1C9493EA040F6B12249
:10F480003BF000FDB7F89000BE6240F00800A7F81E
:10F490009000284628F0BCFF97F89B00C8BBB7F83F
:10F4A0009000C00735D097F8A20090B3384854F8C0
:10F4B0002580006880470646B86D796F5C46801BE2
:10F4C00020F07040884246D9324800210268404608
:10F4D0009047B86D796FDFF8C080DFF8ACB7821B5A
:10F4E00022F070428A4238D9B7F88A204AB9404699
:10F4F000594640F6CD223BF0C5FCB7F88A20B86DDE
:10F50000796F401A013A20F07040A7F88A20B86558
:10F51000E5E7002700E00C275C464846F1F762F972
:10F520009AF82200FF2807D0C000012101FA00F05C
:10F53000216821EA000020609AF82300FF2807D004
:10F54000C000012101FA00F0216821EA00002060DA
:10F550003846BDE8F88F0027DFE72846314600220D
:10F56000002728F07BFDD8E7C8DB12206400055097
:10F5700018EE12204E554C4C203D3D20636F6E5FBF
:10F580007061722D3E6C6C63705F747800000000D7
:10F5900020D51220FCD51220A2B8050070B5064671
:10F5A000F1F71CF904468E4850F8261071B1B1F8F5
:10F5B0009000C0074FF0640008BF58200858496FFA
:10F5C000400849080AF0A8FA054607E0744A3046A0
:10F5D000002140F65A5300253BF072FC2046F1F71B
:10F5E00001F9A8B270BD00BF18EE12202DE9F84352
:10F5F0001E4691460C460546F1F7F0F880467848DD
:10F6000050F825704FB197F8560040B1644A002178
:10F6100040F67D333BF054FC21E00C2422E00A98B4
:10F62000DDE90821A7F854000120A7F84E20B20018
:10F6300087F85600A000A7F850004FEA8900A7F805
:10F640004C004801C7E91120786FB0EB860F06D94E
:10F6500097F8A010022902D3284628F0A5FE00241E
:10F66000A7F852404046F1F7BDF82046BDE8F883C0
:10F670002DE9F0411C4617460D460646F1F7AEF857
:10F680008046574850F8261041B191F8560038B1DD
:10F69000434A002140F6F7333BF012FC0C2417E0FC
:10F6A000032091F8A030A1F8544081F8457081F80A
:10F6B000445081F85600094830F8152030F81300FE
:10F6C000824204D94A6F3046294628F06DFE002454
:10F6D0004046F1F787F82046BDE8F081804A0500F2
:10F6E0002DE9F04190460F460646F1F777F80446BB
:10F6F0003B4850F826506DB13046A5F8847027F08D
:10F70000D7FEB5F8900020F4005068F34D30A5F80E
:10F71000900006E0224A3046002140F689533BF033
:10F72000CFFB2046BDE8F041F1F75CB818EE12209F
:10F7300070B50E460546F1F751F80446284850F8D2
:10F74000250038B1B0F88210B14238BF0E46A0F89B
:10F75000826006E0124A2846002140F671533BF0D1
:10F76000AFFB2046BDE87040F1F73CB870B50546E8
:10F77000F1F734F80446FD4850F8250010B190F830
:10F78000A16007E0064A284600214FF45463002692
:10F790003BF096FB2046F1F725F870B270BD00BF34
:10F7A000B7B8050010B5F14A52F82020BAB1F64BAF
:10F7B0005A241B8803F22F1323F0010310FB04309B
:10F7C000084BC45A24F4807461F30824C452B2F87C
:10F7D000900020F0200061F34510A2F8900010BDC9
:10F7E00018EE1220220013202DE9F04F85B0DF4ED5
:10F7F000834656F8200008B10C24B3E10F46A4203C
:10F80000002100241DF030FD002846F82B0000F0F8
:10F8100053810546D6480068804701902846A421B8
:10F82000F1F74EF9D348D449C5E90704696230F0CD
:10F830000DFF2876D14897F82410AC6085F89AB06F
:10F84000007A11F0FE0FA8754FF40050A88207D07F
:10F85000CB4A012040F6BC133BF032FB97F8241052
:10F860000020C5F88800A5F88C0085F89E00BA89AC
:10F87000FE793C897B7DB7F80EE0B7F80A8097F8EF
:10F8800016C0A5F89C00A5F88220B20005F170060C
:10F8900085F899304FEA8803A5F88020A2004FEA46
:10F8A0004E141CC6B74A4FF6EE33A5F88E002864F6
:10F8B000A86285F8A10097F8258032F81C2048F04E
:10F8C000010085F8A08085F89F80A5F88620B5F80E
:10F8D0009020032802EA030242EA010242F01002E9
:10F8E000A5F890204FF01B02A5F8922085F89820EB
:10F8F0004FF4A47208BF4FF42962C807A5F89620F8
:10F90000A5F8942005D095F89A0028F0A5FA97F864
:10F9100025809D489D4C04974FEA880A008800F294
:10F920002F1020F001015A201BFB0010039103212E
:10F93000061997F82400002808BF0221318418F026
:10F94000FC0F0DD0DFF85092924840F24312494626
:10F950003BF098FA914849464FF4A2723BF092FA74
:10F960004AEA0800BBF1200F40F48850B08404D369
:10F9700089498BA0B5223BF085FA0BF500607084B5
:10F98000049F3888B0857888F085B8883086B87943
:10F99000708695F8990097F8261000F01F008A03EA
:10F9A00042EA002040F40040F08681F00100B5F802
:10F9B000901021F4007141EA4020A5F8900087489A
:10F9C00090F82D0030875846CDF808B027F070FD2C
:10F9D000FB204FF000096E4BA6F848001E20A6F849
:10F9E0004A9003F5C0227087388AA6F84200788AC8
:10F9F000A6F84400B88AA6F8460003F5003003993B
:10FA000001F2F12108404130104003F560229D30A1
:10FA1000104003F5F012793000EA020A21F00100EB
:10FA2000413020F001009D3020F00100793020F0BD
:10FA3000010B95F89A00B9F1020F2AD009EB800169
:10FA400009F10109CFB209F0010141EA8000C0B219
:10FA5000C0EBC0000BEB40000FFA80F8B8F1FF3F9D
:10FA600004DC6E495EA035223BF00CFAC7EBC70000
:10FA700048F400410022002344EA400020F80A1024
:10FA8000384600210DF066FA384600210DF04EF997
:10FA9000CFE7C0EBC0000BEBC000B087B5F890001B
:10FAA00010F001070FD104980021A5F87E10026A1A
:10FAB00002982A66134632E07248314940F66522C0
:10FAC0003BF0E0F998E6049B5549029893F825C06D
:10FAD0001A8B31F81C1002EB4101DA6914468EB220
:10FAE000B6F51C7F05D90134A1F2712124F07044D0
:10FAF000F5E70C26A5F87E102A66BCF1020F38BF88
:10FB0000082693F82730002B08BF04262B6F2344C8
:10FB1000B5F88040334403EB540323F07043002FC7
:10FB2000C5E91922AB6508BF3946A5F87C1003D199
:10FB30003C210022E96506E0B5F8803040F27122F0
:10FB40005A43EA658AB20199AA600022002428F08B
:10FB500085FA34482B8A6A6F95F89A1000940568E4
:10FB60000420A847204605B0BDE8F08F18EE12200B
:10FB700020D51220F17103002D710300289C05008F
:10FB8000B7B80500B04A0500084D05000000132075
:10FB9000FEFF01006DB60500DCB7050069B8050081
:10FBA00028282875696E7431365F74296C696E6B0C
:10FBB0006C626C203C3C2030292026207E28287551
:10FBC000696E7431365F74293078303030303030BF
:10FBD00031462929203D3D203000000090DB1220D5
:10FBE00028282875696E7431365F74296E657874BB
:10FBF000707472203C3C2030292026207E282875F5
:10FC0000696E7431365F7429307830303030374661
:10FC100046462929203D3D2030000000C7B7050099
:10FC20000C4B050044D6122070B50E460546F0F781
:10FC3000D5FD0446494850F8250080B190F89B1046
:10FC4000012914D0B1B996B10D4900260A680021E6
:10FC5000904728460121162227F06CF90BE009484D
:10FC6000094940F69A223BF00DF90C2603E00221E7
:10FC700080F89B1000262046F0F7B4FD304670BD9A
:10FC8000FCD5122033BF0500B7B8050010B5334AC4
:10FC900052F82020BAB10C4B5A241B8803F22F13C0
:10FCA00023F0010310FB0430084BC45A24F4007401
:10FCB00061F34924C452B2F8900020F0400061F38F
:10FCC0008610A2F8900010BD084D050022001320F8
:10FCD00070B50E460546F0F781FD04461F4850F802
:10FCE000250068B1416FB1EB860F07D990F8A010DD
:10FCF000022903D3B200284628F056FB002500E075
:10FD00000C252046F0F76EFD284670BD70B50E46F6
:10FD10000546F0F763FD0446104850F8250030B161
:10FD2000042E06D1426F90F8A01028460DE00C2555
:10FD30000EE00B4990F8A03031F8162031F813107E
:10FD40008A4204D9426F2846314628F02DFB00250F
:10FD50002046F0F747FD284670BD00BF18EE122080
:10FD6000804A05002DE9F04F85B0DD4C0546FC21A9
:10FD70002046F0F7A5FE0020252804D0211881F8A0
:10FD8000D2000130F8E7252084F8F700D54C6068F0
:10FD900010B10DB11DF0F0F80020D54E60604FF0AD
:10FDA0000400D14C8DF80F00A5B37068D14988428A
:10FDB00005D07068D04A40F24B133BF081F83068B0
:10FDC00020F480703060306840F00040306030686F
:10FDD0000028FCD400204FF0FF3104F50032F06021
:10FDE000B161C649098801F22F11214001F2F121C8
:10FDF00011400022402A04D0BC4B13430832585211
:10FE0000F8E7BF4800688047D6F8D00020F480505B
:10FE1000C6F8D000BB480DF10F0104AA0295036893
:10FE200031209847A8BB9DF813009DF810809DF8DD
:10FE300011709DF812500606B6F1FF3F05DCC1496E
:10FE4000B1A040F6AD123BF01DF8280605D5BD491E
:10FE5000BDA040F6AF123BF015F8380605D5C948ED
:10FE6000B84940F6B1123BF00DF82D043F025FEAAD
:10FE7000086005D5C448B34940F6B3123BF002F818
:10FE800046EA05009A4E384340EA080040F08030C8
:10FE90003065BE484FF6FE7204F500354FF0060A95
:10FEA0003060BB48C6F8E0004FF4B370F060B9486A
:10FEB000C6F82001914801880846009101F22F10F0
:10FEC00020F00101204001F2F12101EA020321F0BA
:10FED000010103F5002341310A40C6F83031019099
:10FEE00000F2F120284002F540320025C6F8340126
:10FEF000C6F83831C6F83C01C6F87021413004F527
:10FF0000C02210401022C6F87401C6F8482104F53A
:10FF100060229D30A04CA14E1040744A00EB0209B3
:10FF200021F001009D3020F00108062D2AD005F1B6
:10FF3000010B5FFA8BF0B0FBFAF101EB4101A0EB92
:10FF4000410000EB800008EB800007B2B7F1FF3FF3
:10FF500004DC2046314635223AF094FFA9F80070BF
:10FF600008F018FF074628B98D48634940F2AF12E0
:10FF70003AF088FF284639460BF0AEFF09F1140924
:10FF80005D46D2E700981FFA88F405045FEA08404E
:10FF900005D584486B4940F292723AF073FF45EA06
:10FFA000040053494F4EDFF85C8148624F48019985
:10FFB000029D084400212230082908D00388CAB2D3
:10FFC000013123F01F031A4320F85A2BF4E7484F5E
:10FFD0004FF4A871D7F89000C0F306202830308184
:10FFE000D7F89400C0F3062018307081D7F8980035
:10FFF00080B201EB1020B081D7F8980080B201EBFD
:020000040001F9
:100000001020F081F0F7C8FC4FF4007464F39F50A7
:10001000C7F87801F0F7C0FC64F39F50304C0DF145
:100020000E01C7F87C01386804F1CC0240F48070FE
:1000300038600220D8F800308DF80E00072098476D
:1000400028B14FF4FA70A4F8CC0000201CE0B4F8FA
:10005000CC00152801D2072016E01F2801D2062067
:1000600012E0332801D205200EE04C2801D20420F2
:100070000AE0652801D2032006E0972801D2022079
:1000800002E0FB28E1D20120A4F8CE000120D8F83C
:10009000003004F1D1020DF10E018DF80E00852023
:1000A000984709F0A7FD002130702846A6F80110F6
:1000B00026F006FA28462AF0D3FA28462BF090F9C3
:1000C00028462CF09FFC284629F0ACF828462DF055
:1000D000D7FA284627F0AAFE05B0BDE8F08F00BF8A
:1000E00030EE1220B0DC1220FEFF010000001320D1
:1000F00000000550001A000973B40500084D050002
:1001000030D5122084DB122028282875696E7433BC
:10011000325F74296469616733203C3C20323429A2
:100120002026207E282875696E7433325F7429304A
:100130007837463030303030302929203D3D20306E
:10014000000000008EB4050028282875696E7433FD
:10015000325F74296469616732203C3C2031362962
:100160002026207E282875696E7433325F7429300A
:100170007830303746303030302929203D3D20302E
:100180000000000084B30500BCB305000F0610009A
:100190002C0190017102FFFF37B4050079B405000E
:1001A00073B30500F4B305002DE9F04FA9B00C902E
:1001B00090F81390DFF86C06006880478246F0F7ED
:1001C000EBFBDFF864468346DB4BE07FFF2806D07D
:1001D000C000012101FA00F0196808431860DFF837
:1001E0005476386808B10C200DE35C2000214FF0F4
:1001F00000081DF039F80028386000F0F980054645
:10020000DFF828065C21CDF828A02BF07F4A008873
:1002100000F22F1020F00100099000F2F12003906D
:1002200020F00100413020F0010007909D3020F0C7
:100230000100793020F00100089000F2511020F008
:10024000010000F2211020F0010000F20F1020F058
:10025000010000F6E93020F0010004902846F0F794
:100260002FFC0C9A85F8588085F85080D07C917DC1
:100270009046144685F84F1085F82C00908A6886C1
:100280009088A5F842001068C5F83E0058F8060F9F
:1002900068645089A5F8480054F80C0FC5F82D0083
:1002A000207985F8310005F13400D17C24F00EF975
:1002B0002F464FEA1B40022127F838BFB8700C20A8
:1002C000F970BAFBF0F000EB4000AAEB800000F1FF
:1002D000050A0C2809D3DFF878150FF25C5040F2BC
:1002E0006D523AF0CFFD95F83B108DF83B10696BDD
:1002F000DFF8600585F83CA00C9E4FEA890BDDF81D
:1003000010904FF0000CADF83CC00D91398890F87A
:10031000CE20ADF83810B97885F83D200027F38B52
:100320008DF83A104AEA4211328C8DF84910216852
:1003300011912179B48B8DF84810718C1E2F08D043
:10034000E8190A3780F814C041820282C38184818F
:10035000F4E7B07CC0075DD05820002100241CF0D9
:1003600083FF002828604DD058210746F0F7A8FBEE
:10037000DFF8E404DFF8E414C7E90704796230F039
:1003800065F93876DFF8D8047F214FF0010ABC60A8
:1003900087F8344087F85540A7F8401087F842A006
:1003A00001794079B9754FF4C06161F31F10B882CB
:1003B000708B7886318BB8623986F17C87F856105D
:1003C000B18BA98140F2E2414843DFF89814898853
:1003D000884238BF014639612C75F08BE881306A5C
:1003E000286195F82B0040F0010085F82B0013E000
:1003F000DFF87404DFF8581440F2F2623AF042FD7C
:100400000C20FFE1DFF86004DFF8441440F2D15221
:100410003AF038FD4FF0000AA88913AC0DA9ADF8E9
:100420003E0028691090204628F06CF94846214685
:100430001622C2F21300F0F71CFB0C9E3F4C0B95EA
:10044000B07C800703D4AA8B698BE88A0FE04AEA64
:100450004A0085F81EA00AF1010A06EB8002908B83
:10046000E882D18B2983118C6983528CAA8313AFC4
:10047000ADF84010ADF83E000DA9ADF84220384669
:1004800028F040F909F122003946162280B22043B3
:10049000F0F7EFFAB07C40075AD55820002100242D
:1004A0001CF0E2FE0B9D0028686049D058210746E9
:1004B000F0F706FBE848E949C7E90704796230F03C
:1004C000C5F87F213876E6480C9EE84CA7F8401026
:1004D00040F20161A7F855100321B98601794079EE
:1004E000B9754FF4C06161F31F10B882012087F81D
:1004F00042000AEB4A0006EB8000418B7986028BB2
:10050000B9623A86828B2A84C28B6A8440F2E242C4
:100510005143D44A9288914238BF0A463A61018CCD
:1005200085F828A0A984408CE88495F82B0040F039
:10053000020085F82B000BE064000550000013203A
:10054000C948C34940F233623AF09CFC0C9EC74C48
:100550000B9D13AF0DA9288CADF83E00686A109072
:10056000384628F0CFF809F1440039461622A14652
:1005700080B22043F0F77DFA717C307D85F82A1037
:1005800081075CBF717D5FEA817117D5B17D0A9FDC
:1005900019B1C0F34000002113E0B548717D026835
:1005A00040469047089A022887BF01200021342145
:1005B000079B9CBF10FB0131012003E00A9F002133
:1005C0000020089A069189B20024002918BF012151
:1005D00085F84A10317D01F0020140EA41004946A8
:1005E00008905FFA8BF00290C0EBC000019002EB24
:1005F00040000790099848444FF000094C3005909E
:10060000B9F1020F00F0A08055F829B0BBF1000F3E
:1006100000F097809BF8568009985A2218FB020C2C
:10062000084601EB0C07944991F82D103987A989E8
:10063000A7F84210E98AA7F85810298CA7F85C108F
:100640000799B987A7F85410717C00294FF00F0162
:1006500008BF0E2139844BF6D661B98548F6896109
:10066000F98545F25551398655217986A7F86640B6
:10067000B27D089941EA022395F84A1043EA410302
:10068000BB8619B1069A00F14C0114E0AAB9A1B9D0
:1006900005465A20059A08FB00F111440022062A5B
:1006A00004D0B318DB888B520232F8E7727D05F173
:1006B000520102F001022CF8012048F2270018F044
:1006C000E00FF886A7F84840A7F84A40307D4FEA87
:1006D000C01404D0784969A0B5223AF0D3FB44EAAB
:1006E0000800082161F31F2078843088F88470881E
:1006F0003885B08878859BF834A00B9D4FEA8A0432
:100700001AF0FC0F0CD06C4E6C4840F2431231468C
:100710003AF0B8FB6A4831464FF4A2723AF0B2FBA5
:1007200044EA0A00012100F50050B8844046BBF8B5
:100730002820A7F840200BF001FE0A9F0C9E4B4991
:10074000002409F101095BE74A4B039A881C0C4617
:10075000DDF804C003F50031114003F5C02240EA82
:100760004C004131114003F560229D31114003F5E9
:10077000F012793111400A5A42F0050222F00A02C1
:100780000A52221D42EA4C02049B8B5222230A5A2F
:1007900063F31F220A5244EA4C028B5A03F40043CB
:1007A0008B5242F22523727D62F3C7130B520298DB
:1007B0000CF0E8F9DFF8F4ADDFF8AC80DFF89090EA
:1007C00000260C20AE60022E1BD055F82640B4B196
:1007D000DAF800102046E7626760884738B1404683
:1007E000494640F2EA623AF04DFB002007E0618E94
:1007F000002084F8540007EB410121F070470136D6
:10080000E1E7094C0A4BE17FFF2907D0C90001222B
:1008100002FA01F11A6822EA01011960C0B229B096
:10082000BDE8F08F20D51220C8DB1220084D05004E
:10083000640005502CEF122028686F70203E203491
:10084000292026262028686F70203C203137290077
:1008500013B9050030EE1220518C0300818B030088
:10086000289C0500E4DC122033BF050000001320A3
:100870001CD51220FEFF010090DB122028282875CD
:10088000696E7431365F74296C696E6B6C626C20B2
:100890003C3C2030292026207E282875696E743142
:1008A000365F742930783030303030303146292985
:1008B000203D3D2030000000DCB705006DB605008E
:1008C00069B80500F8B5EFF789FF124F0446124EDC
:1008D000F87FFF2806D0C000022101FA00F031683D
:1008E000084330600D48006818B127F031FF00253B
:1008F00000E00C25F87FFF2807D0C000022101FA94
:1009000000F0316821EA000030602046EFF76AFF0E
:100910002846F8BDC8DB1220640005502CEF1220D9
:10092000B0B50C460546EFF759FF1C4951F82510A4
:1009300011B191F841200AB10C2408E0227981F824
:100940003C20226800248A63012281F84020EFF7CE
:1009500049FF2046B0BD00BFF8B515460E46074614
:10096000EFF73CFF0446F34850F8270028B190F811
:10097000571049B1058546850BE00948094940F201
:10098000DD423AF07FFA04E0384631462A4629F043
:100990001BFA2046BDE8F840EFF724BF30EF1220E5
:1009A00033BF0500A9B905002DE9F0410D4601212D
:1009B0001E46144607464FF001080CF04BFC384623
:1009C00021460CF0C7FB384601210CF081FBDE48C4
:1009D0004FF6FE71008800F22F1020F0010000F2A7
:1009E000F1200840F900023108442B490843A98846
:1009F000818029680160D34908FA06F001EB4701BC
:100A0000B1F8BC201043A1F8BC002548214602687B
:100A100028469047022888BFBDE8F0810121BDE843
:100A2000F0410AF0FDBF00BF70B50D46C54906464E
:100A30004FF6FF701446584001EB4601B1F8BC2058
:100A40001040A1F8BC0025D1304600210CF040FB3D
:100A5000BD4A1148114940EAC60001F5003112882B
:100A600002F22F1222F0010202F2F1221140085A82
:100A7000800703D4304600210CF0ECFB08482146E7
:100A8000026828469047022804D80021BDE870403B
:100A90000AF0C6BF70BD00BF00001320FEFF0100BA
:100AA0001CD512202DE9F84FA24D804655F82000A4
:100AB00010B10C20BDE8F88F8A4660200021002785
:100AC0001CF0D2FB002845F8280072D060210446B3
:100AD000EFF7F6FF98489949C4E9070761622FF0DC
:100AE000B5FD207696489AF80B1084F85680A760DA
:100AF000A4F85070BAF806309AF80C20007C84F8FC
:100B00005A10032AA0754FF00A00E087BAF80200D5
:100B1000A4F84C009AF80A0084F85800BAF80000CB
:100B20004FEA80006064874890F8D110A4F85430F0
:100B30004FF0000338BF0123B1FA81F1490919438D
:100B4000511ABAF8042084F85910214641F8337F2D
:100B5000A1F81F2001220F7190F8F7309F420CD2AC
:100B6000C319013793F8D23003F00705DB08CE5CD8
:100B700002FA05F53543CD54EEE794F8560029F016
:100B800037F871485A210622008800F22F1020F011
:100B9000010018FB01006D49425247184CF2270032
:100BA000F88294F85A007F280AD1694890F82D00FD
:100BB0000BE08F488F4940F28D423AF063F978E7B5
:100BC000634940B28A690021904738834146B4F8AE
:100BD00033007884B4F83500B88494F83700F8848A
:100BE00004F12C0023F072FCEFF7D6FE2086000CF7
:100BF00040F2712184F83200A08DB881E08DF88137
:100C0000208E388294F832007882002038857885EA
:100C1000A06CB0FBF1F00130388494F859504FEAE1
:100C2000051B15F0FC0F11D0DFF82C9149484B4EF5
:100C30004FF4A1724946B04749A0494640F24312D9
:100C4000B04756A049464FF4A272B0474BEA0500A0
:100C500018F0E00F40EA8500B8809AF80A004FEAE1
:100C6000C01504D05C483C49B5223AF00BF945EA7E
:100C70000800082161F31F207880584800688047E9
:100C800006462FF0E3FC3044666C451C25F0704BA3
:100C900026B953A053A180223AF0F4F82848DFF88F
:100CA000CC8D4FF00009C4F80890477C4FF40070D9
:100CB000394660F31F11A819A182BBFBF6F17143FD
:100CC0000026A1EB0B010844BAF8081000EB410024
:100CD00020F07040606089F0010500200E2E88BF72
:100CE000012060EA0500C00712D1D8F800102046A4
:100CF000884750B1A07D616C01363844A0756068AA
:100D0000084420F070406060E7E74FF00109E2E737
:100D10005FEAC97004D0002084F85700BDE8F88F5E
:100D20003348344940F285423AF0ACF80020BDE83F
:100D3000F88F00BF30EF1220099F03006D9E030063
:100D4000289C050030EE1220084D050020001320DD
:100D500090DB1220B6B50500DCB7050085AE0400B7
:100D600028282875696E7431365F7429727872612B
:100D70007465203C3C2032292026207E2828756975
:100D80006E7431365F742930783030303030303026
:100D9000432929203D3D20300000000028282875E7
:100DA000696E7431365F7429747872617465203CA1
:100DB0003C2030292026207E282875696E74313623
:100DC0005F7429307830303030303030332929208A
:100DD0003D3D20300000000020B7050020D5122046
:100DE00064697600636F5F6D6174682E680000004F
:100DF00033BF0500A9B90500F8B50546EFF7EEFCCD
:100E000004461E4850F82500D0B190F8571001292B
:100E100018D069BB1B4900260A68002190471A4870
:100E20000021FF22022307684FF40270B8471749D8
:100E30004670057009688847284628F0B9FF18E011
:100E40000C2616E0E64A90F856105A23128802F251
:100E50002F1222F0010211FB0321094A01238B52B8
:100E6000022180F857103248016841F0007101609A
:100E700000262046EFF7B6FC3046F8BD30EF1220D2
:100E800040001320FCD512200CD4122010D41220C4
:100E90002DE9FE4FE84A8146E6488A460024E44EA2
:100EA0004FF03408002700F5003100F5C02012880B
:100EB00002F22F1222F0010202F2F122114041311E
:100EC00001EA000B22F00100413020F00105032F60
:100ED0001DD038460AF070FDB0B107FB085018303D
:100EE00080B230438188ADF808100068019044EA70
:100EF00006003BF8000080EA0A00C00704D101A800
:100F0000494608F0BFFB10B934340137DFE7F8B2C7
:100F1000BDE8FE8FE0B568463AF050FB00988CBD06
:100F20000349405880B27047014A8150704700BF62
:100F3000000005502DE9F04F87B00646002003ADB4
:100F4000894614469846CDE90500CDE903001046D0
:100F500029461022EFF7ECFD82464846294610222A
:100F6000EFF7E6FD074642484146026830469047A3
:100F7000032801D2122078E04FF0000B0025BBF1CE
:100F80009C0F07D028460AF017FD28B10BF1340B4F
:100F90000135F4E7072068E036483268364BBAF18D
:100FA000000F008800F22F1020F0010000F2F12065
:100FB000029020F0010000F1410020F0010000EB60
:100FC0000B0505F1180081B2C2F21300CA50B188B6
:100FD0001E46818007D005F11E002146102280B2F6
:100FE0003043EFF746FD37B1A81C4946102280B2C6
:100FF0003043EFF73EFD119C1098002C18BF4FF4C2
:101000000054002818BF4FF480400190002F18BFF3
:1010100001277E00BD00BAF1000F18BF4FF0010A92
:101020004FEA4A194FEA8A1718F0FE0F04D02349F5
:1010300012A0662239F026FFD849029B0E4801F51E
:10104000003201F5C02140EA0B001A404132114044
:10105000019A42EA080222433A4342EA09022A4339
:10106000324342F400420A52002007B0BDE8F08F3C
:101070001CD51220084D05000000132028282875D3
:10108000696E7431365F742970656572696474794C
:101090007065203C3C2030292026207E2828756958
:1010A0006E7431365F742930783030303030303003
:1010B000312929203D3D2030000000009CB405006E
:1010C00010B50024032C08BF10BD20460AF08CFC8C
:1010D0000134F7E710B50024032C04BF012010BD34
:1010E00020460AF069FC08B90134F5E76FF0020008
:1010F00050FA84F0B0FA80F0400910BDF8B51446FB
:10110000694A12689047022818D83422A249C54E6D
:1011100000FB02F306F5003706F5C02643EA010599
:10112000C14B1B8803F22F1323F0010303F2F123B9
:101130001F4041373E40755B2D0601D40220F8BDAB
:1011400023F00103413323F0010310FB02302E3062
:1011500080B208438188A180006820600020F8BD2B
:1011600080B5514A12689047022884BF002080BD94
:101170000AF030FD002818BF012080BDF8B51446E4
:10118000494A12689047022818D834228249A54E4D
:1011900000FB02F306F5003706F5C02643EA010519
:1011A000A14B1B8803F22F1323F0010303F2F12359
:1011B0001F4041373E40755B2D0701D40220F8BD2A
:1011C00023F00103413323F0010310FB02301230FE
:1011D00080B208438188A180006820600020F8BDAB
:1011E000084D050010B514462F4A12689047022892
:1011F00084BF022010BD8C4B3421484366491B88B4
:101200000843884903F22F1301F5003201F5C0218C
:1012100023F0010303F2F1231A40413211400A5A2C
:1012200022F4804264F38E320A52002010BD00BFC7
:1012300000001320FEFF0100084D050010B5144604
:10124000194A12689047022884BF012010BD764BCE
:101250003421484350491B880843724903F22F1335
:1012600001F5003201F5C02123F0010303F2F1235F
:101270001A40631E4132B3FA83F311405B090A5AE4
:1012800022F4006242EAC3220A52002010BD00BFCD
:1012900080B5054A12689047022884BF022080BDAD
:1012A0000AF0A2FB002080BD1CD5122070B51D4E97
:1012B000706840B11C4A0020002140F2CE23BDE8F6
:1012C000704039F021BE3420002100251BF0CCFFF6
:1012D000706028B3044615481549C4E907056162E2
:1012E0002FF0B4F920761348E575A560807CA075D1
:1012F00041F28830206146F2A100A082A84800682F
:101300008047C4E90105A94801682046884738B1EB
:101310005D4805494FF43272BDE8704039F0B2BD06
:1013200070BD00BFB0DC122073B40500B5AC030083
:1013300085AC0300289C050070B53C4991F8F82065
:10134000F2B9394E374B91F8D010134A03F50035F6
:10135000368801EB810106F22F1642EA810426F05D
:10136000010606F2F126354003F5C02603F5602399
:10137000413535409D352B401C5FB4F1FF3F01DD09
:10138000002070BD8900114419448989A0EBD12047
:10139000B0FA80F0400970BD00001320FEFF01008C
:1013A000B0B5214A1F48214D00F50031128895F84B
:1013B000D04002F22F1222F0010202F2F12211407B
:1013C00000F5C02200F56020413111409D310840F8
:1013D00004EB840100EB81001549405A28B907F05D
:1013E000D9FC014620460AF077FD204600210AF08C
:1013F00007FD95F8D00006210130B0FBF1F101EBBB
:101400004101A0EB410085F8D00028F007FB38B17E
:1014100095F8D000012101240AF0F2FC85F8F8408B
:10142000B0BD00BFFEFF0100084D050030EE1220E8
:10143000120013202DE9F84FDFF88496DDE90A8ABF
:1014400004461F4616460D46D9F8040028B10E483A
:101450000E494FF4176239F015FD0E2000214FF0B0
:10146000000B1BF001FF0121C9F80400A0F80BA03C
:1014700087718570047080F801B0C0F80780B140B2
:1014800081800020BDE8F88F33BF0500C1BA050098
:1014900010B5424C606820B11BF06EFD002060600A
:1014A00010BD0C2010BD00BF80B53C4B1B6863B164
:1014B000D982988222B19088D8811068C3F80A0036
:1014C000034800688047002080BD0C2080BD00BF1D
:1014D00068D512202DE9F84FDFF89C882E4B98F83C
:1014E0001D00FF2806D0C000012101FA00F0196894
:1014F00008431860294F386800283ED02948DFF893
:10150000C89BDFF874BC00268246022E32D03868B1
:1015100050F8264014B194F83C0008B10136F4E7C5
:10152000D9F80000804705463868C18A31B1C069E2
:101530005146281A20F070405045EFD894F83E00EC
:101540000128EBD16068411B281A21F0704120F07E
:101550007040B1F1006F88BF41423D29DEDB124887
:101560000021026820469047DBF8001020466560A5
:101570008847D3E70020084B00E00C2098F81D10A6
:10158000FF2907D0C900012202FA01F11A6822EAF4
:1015900001011960BDE8F88F64000550C0DC12201D
:1015A00020D51220FEFFFF07FCD51220F4D5122013
:1015B0002DE9F04F87B0DFF83C7480460E46D24DDF
:1015C000787FFF2806D0C000012101FA00F02968C9
:1015D00008432860DFF824A4DAF8000008B10C20E2
:1015E000FAE1202000211BF03FFE0028CAF800008D
:1015F00055D08146DFF80804006880470446DAF8D1
:1016000000002021EFF75CFAF079C00754D0842065
:10161000002100251BF028FE0028C9F8000045D055
:1016200084210746EFF74CFADFF8D803DFF8D81328
:10163000C7E9070579622FF009F83876DFF8CC039F
:10164000327C87F83B5087F85A5087F83D5087F82E
:1016500028800178407887F83820B9754FF4C06148
:1016600061F31F103189B882B089B986B179F886E3
:10167000F86287F83A1040F2E2414843E449898829
:10168000884238BF014699F80800396140F00100EE
:1016900089F80800501EB0FA80F040090DE0DD48DE
:1016A000DD4940F6311239F0EDFB98E7D948DA49C7
:1016B00040F64C0239F0E6FB00200490F0794FEA46
:1016C0008805400753D5842000214FF0000A1BF005
:1016D000CBFD0028C9F8040041D084210746EFF76C
:1016E000EFF9C848C849C7E9070A79622EF0AEFF8A
:1016F0003876C648A7F83CA0727C0178407887F815
:101700003820B9754FF4C06161F31F107189B88238
:10171000032087F83B000120B986B17987F85A0089
:10172000072087F82800F08987F83A1040F2E24154
:10173000F886F8624843B6498988884238BF01462E
:1017400099F808003961049940F0020089F808000E
:10175000501EB0FA80F040090143049105E0AD4805
:10176000AD4940F67C0239F08DFBDFF890A2B088DD
:10177000A9F80E00306889F80980C9F80A00B07C21
:1017800089F81000B6F81300A9F81100D6F8160071
:10179000C9F81400E8B20025C0EBC00103909F48CF
:1017A0000088029100F22F1020F00100069000F254
:1017B000F120019020F00100413020F001009D3027
:1017C00020F00100793020F0010000EB410005908D
:1017D000022D00F09B8059F82580B8F1000F00F031
:1017E000918098F8287006985A21002217FB010072
:1017F0008C4901EB000B4BF6D660ABF82C0048F699
:101800008960ABF82E0045F25550ABF830005520FA
:10181000ABF83200ABF86620DAF8040099F8111042
:1018200018B18278002A18BF012299F81000337D80
:10183000009301284FF00003384688BF01230AF0C7
:101840003DF848F2270017F0E00FABF836004FF0F4
:101850000000ABF84800ABF84A00B07C4FEAC01A71
:1018600004D0804970A0B52239F00CFB4AEA070089
:10187000082161F31F20ABF822003088ABF8260066
:101880007088ABF82800B088ABF82A00764890F84A
:101890002D00ABF838000BF13C0098F83810012906
:1018A0000BD105990180ABF8541098F83A00002844
:1018B0004FF00B0008BF09200AE000210180ABF8BF
:1018C000541098F83A0000284FF00A0008BF08208A
:1018D00088F83900ABF82000DFF820A1384698F8E6
:1018E0003B100A460AF078FED8F82C0043F6FF7148
:1018F000ABF84000884228BF084682B20121384632
:101900000AF080FD013563E764000550049870B368
:10191000434B019A434E029D03F50031B01C114028
:1019200003F5C02240EA45004131114003F5602231
:101930009D31114003F5F0120023793111400A5A0C
:1019400042F0030222F00C020A52321D42EA450222
:101950008B520C230A5A63F31F220A5246EA4500AF
:101960000A5A02F400420A5203980BF053F94FF05E
:1019700001102149C1F8C000DAF80000818A29B1BC
:1019800004EB411121F07041C0E90614374DDFF836
:101990008480DFF884A04FF0000B0027022F18D0BE
:1019A00059F827609EB129683046346374608847CF
:1019B00030B14046514640F6291239F063FA06E04C
:1019C000F08E86F859B004EB400020F070440137E7
:1019D000E4E7084F0020084D797FFF2907D0C900B0
:1019E000012202FA01F12A6822EA0101296007B006
:1019F000BDE8F08FC8DB122064000550C0DC122067
:101A000020D5122035B0030045AF0300289C050007
:101A1000E4DC122033BF0500C1BA0500084D050003
:101A2000FEFF01000000132028282875696E74311C
:101A3000365F74296C696E6B6C626C203C3C2030A4
:101A4000292026207E282875696E7431365F742916
:101A5000307830303030303031462929203D3D203B
:101A600030000000DCB7050090DB1220F4D5122016
:101A7000F8B5EEF7B3FEC04F0446C04E787FFF289E
:101A800006D0C000022101FA00F03168084330603E
:101A90000B48006818B129F09BF9002500E00C25DF
:101AA000787FFF2807D0C000022101FA00F03168DA
:101AB00021EA000030602046EEF794FE2846F8BD8B
:101AC000C0DC122070B515460C460646EEF786FEC1
:101AD000AB4951F8261061B1A1F860502268C1F8F5
:101AE0005B202279002481F85F20012281F86220A6
:101AF00000E00C24EEF776FE204670BD2DE9FE4F87
:101B0000DFF8748204460D469C4E98F82500FF28A5
:101B100006D0C000012101FA00F0316808433060AE
:101B2000052C03D8964F57F82400A0B16A486B499A
:101B300040F2664239F0A6F998F82500FF2807D050
:101B4000C000012101FA00F0316821EA0000306094
:101B50002046BDE8FE8F682000214FF000091BF0F1
:101B600083FB002847F8240000F0AE80064695F875
:101B70000AA05B482F68682130F81A0097F802B075
:101B8000029028890190388800903046EEF798FF3F
:101B900054485549C6E9070971622EF057FD307661
:101BA00052484FF40071BA8886F85440BBF1000FD8
:101BB000C0784FEA820CC6F84CC061F31F10E98967
:101BC000B082C1EB01114FEA410EC6F838E0BB7A92
:101BD00086F85F30D7F8063086F857A086F856901A
:101BE00040F2712AC6F85B30E87A6B6886F85800D4
:101BF000F87AF36386F85900B87886F855004FF400
:101C0000967008BF1E20009986F8659086F862904D
:101C10004843019901EB40000299A0EB4100B0FB61
:101C2000FAF101FB1A00A1EB8202A6F84800B88A7B
:101C30001A4422F07042013872643264A6F85200ED
:101C4000A6F84A00BEFBFCF0063801B20029D8BF56
:101C5000484681B2AA898A4238BF1046A6F8500089
:101C60005A212348BA89008800F22F1020F0010081
:101C700014FB01001F494518AA81FA89EA813A8AB2
:101C80002A82BA7C6A820A22A5F814904252B6F8D7
:101C90005B006884B6F85D00A884204696F85F1063
:101CA00009F096FDA5F81890688820F01F002043E1
:101CB0006880EEF793FD0546204600212BF0B4F82E
:101CC0002846EEF78FFD05E00348044940F26142E3
:101CD00039F0D8F8294E2FE733BF0500C7BB050000
:101CE000B8DC122045C70300B9C60300289C0500D4
:101CF000084D0500200013202DE9F041DFF8788021
:101D000005461E4F98F82500FF2806D0C000022186
:101D100001FA00F0396808433860EEF75FFD0446C9
:101D2000174850F8250070B190F85A1001290CD0CE
:101D300071B9144900260A680021904728460021FD
:101D40002AF096FC05E00C2603E0022180F85A10E8
:101D500000262046EEF746FD98F82500FF2807D01C
:101D6000C000022101FA00F0396821EA0000386061
:101D70003046BDE8F08100BFC8DB1220640005508A
:101D800048EF1220FCD512202DE9F04FC3B0CD4F03
:101D90000646386820B10C26304643B0BDE8F08FC7
:101DA0003020002100251BF05FFA0028386052D057
:101DB0000446C54800688047834620463021EEF738
:101DC0007FFEC248C249C4E9070561622EF03EFCAD
:101DD0002076C048A560C04D817AC07AA17540F6D2
:101DE000C41121614FF4C06161F31F10A0823078EB
:101DF0007178012884F82A0084F82B1032D000284A
:101E000040F08080B7481D2250F8D01C41F480413A
:101E100040F8D01C016841F000610160B048002129
:101E2000008800F22F1020F0010A05EB0A00A0F84C
:101E30006A10A0F86C10A0F86E10028448F2260216
:101E40004287FF22A0F84820A0F84A10F4484168D1
:101E500000208847C9E0C348AC4940F28A2239F0E3
:101E600011F898E77088A08506F0B8FD002856D0D4
:101E70009B4B9A49208501F500321B8803F22F13F2
:101E800023F0010A01F5C0230AF2F12705EB0A0845
:101E90003A4041321A4001F5602301F5F0119D32BC
:101EA0001A40904B793211400A462944888053F8F1
:101EB000D00C40F4804043F8D00C186840F4006027
:101EC00018600020A8F86400A8F86600A8F8680068
:101ED000F078CDE90117072831D80121814011F0B0
:101EE000F60F1ED0013896F802905D461746062878
:101EF00006D8F022DFE800F0342D042F043133003F
:101F000000222DE0974881494FF4177238F0BAFF4C
:101F10007348008800F22F1020F0010A65E00726C0
:101F20003AE7196800F00100174621F4005141EA30
:101F300040301860186840F48050186023E008288A
:101F4000174620D3714968A040F23D2238F09AFF2D
:101F500019E0AA2204E0FF2202E00F2200E055224D
:101F60000DF10C0B49465846EEF7A3FD208D5A495A
:101F70004A4608435946EEF77CFD5A49AB46086885
:101F800020F480500860B078F5784FEA002915F009
:101F9000F00F05D05EA06DA14FF4927238F072FF81
:101FA000019949EA05004C4D4880785B6FF3DF30BA
:101FB00078534FF6FE70029908409949413020F05D
:101FC00001009D3020F00100793020F00100A8F8D8
:101FD0003C001C20A8F82000B8F8380091F82D101B
:101FE00020F0FF000844A8F83800554444F22910B6
:101FF000A88547F27610E88545F255502886552089
:1020000068867778272F16D00C2F02D01FB9252786
:1020100011E026270FE06FF001000C2F38BF4FF0C2
:10202000FF300744F8B2402805D34F484F4940F2EB
:10203000713238F027FFE88EF9B220F03F000843F4
:10204000E8863078012810D0E0B930790138C1B283
:1020500010F0FC0F4FEA810705D04548434940F294
:10206000431238F00FFF00260EE030790138C6B277
:1020700010F0FC0F07D03F483C494FF4A27238F0F3
:1020800001FF00E00026002747EA0600002600F5D1
:102090008050A8843848A5F86A60A5F86C60C4F838
:1020A00004B0A5F86E6001682046884738B12D4815
:1020B000164940F2832238F0E5FE00266CE684F8EB
:1020C0002E6069E660EF122020D51220D9D40300DB
:1020D00039D40300289C050000001320FEFF0100F6
:1020E000084D0500D0000550706172616D732D3E82
:1020F0007061796C6F6164203C3D205041594C5FA8
:10210000303130313031303100000000D2BB0500B9
:1021100028282875696E7431365F7429747874794B
:102120007065203C3C2030292026207E28287569B7
:102130006E7431365F742930783030303030303062
:10214000462929203D3D2030000000007265675F70
:10215000656D5F626C655F74785F646573632E683C
:102160000000000033BF05003BBB0500DCB70500E5
:102170006DB6050069B80500F4D51220F8B5EEF784
:102180002DFB044625480568C5B325484168012054
:10219000884760480026C0F8D060016821F480417B
:1021A000016095F82E1001292AD089BB1D48002115
:1021B000002602682846904795F82A00012802D197
:1021C000288D06F051FC18480021FF2204230768DF
:1021D00040F20A20B84795F82A10067039B9EA4942
:1021E000124A098801F22F1121F001018E5A10497B
:1021F0004680096888472BF0FFF808E00C2607E0C6
:10220000022185F82E10016841F0806101600026EE
:102210002046EEF7E7FA3046F8BD00BF60EF122027
:1022200090DB1220FCD512200CD412206A0013205F
:1022300010D4122070B5FF2A2DD00D46012114466E
:1022400006460BF007F8304621460AF083FF304679
:1022500001210AF0BDFFCC484FF6FE71008800F264
:102260002F1020F0010000F2F1200840F1000231AF
:1022700008442549084329680160A98881802448C9
:102280002146026828469047022809D80121BDE866
:10229000704009F00DBC1F48016821F480610160A5
:1022A00070BD00BF70B5FF2A27D00D46002114462F
:1022B00006460AF08DFFB44A1348144940EAC600A6
:1022C00001F50031128802F22F1222F0010202F20F
:1022D000F1221140085AC00703D1304600210AF00C
:1022E000B9FF0B482146026828469047022809D8C2
:1022F0000021BDE8704009F0DBBB0648016841F4ED
:102300008061016070BD00BF00001320FEFF01006E
:102310001CD5122000000550F8B515460E4604469F
:1023200020B91A481AA183222EF0F2FB022E27D0E0
:10233000012E1DD100254FF6FF76202D20D004EB75
:102340008507B7F84010B1421AD0D4F8C00097F80A
:10235000422003682046984797F8432032B1D4F8CA
:10236000C000B7F840104369204698470135E4E7BC
