:020000040000FA
:1000000054FD4020D5070000000000000000000063
:1000100000000000000000000000000000000000E0
:1000200000000000000000000000000000000000D0
:1000300000000000000000000000000000000000C0
:1000400000000000000000000000000000000000B0
:1007C000DFF80CD000F0C2FD00480047C71300005E
:1007D00054FD402000488047FDF90100EFF31080F0
:1007E00072B6704780F31088704740BF5D4A136847
:1007F000012B04D04FF0010313605B4A10605B4A89
:1008000011605B484FF0805101607047EFF3108238
:1008100072B654480168C9B14FF0000101605248F6
:10082000016849B1EFF3098121E9F00FEFF30B847F
:1008300041F8044D006801604C490968096810C915
:1008400084F30B88B1E8F00F81F3098882F31088F4
:100850004EF0040E704747484FF47F01D0F8002057
:1008600041EA020101607047404908603E494FF08B
:10087000000008603B494FF0010008603D484FF41C
:100880007F01D0F8002041EA0201016038484FF0B2
:100890008051016038480068006880F3088861B6BC
:1008A00062B6704720BF70471EF0040F0CBFEFF315
:1008B0000880EFF3098020E9F00FEFF30B8440F894
:1008C000044D40F804ED1EF0040F0CBF80F30888BF
:1008D00080F3098800B551F0A2FE5DF804EB4EF0FC
:1008E000040E70471EF0040F0CBFEFF30880EFF307
:1008F000098020E9F00FEFF30B8440F8044D40F835
:1009000004ED1EF0040F0CBF80F3088880F3098803
:1009100000B551F087FE5DF804EB4EF0040E704711
:1009200010B4EFF3038410B47C4610B400B54DF856
:1009300004CD0FB4089C2DE9F00FEFF30B8410B435
:10094000684651F02BFE10BC84F30B88BDE8F00F15
:100950000FBC5DF804CB5DF804EB10BC10BC10BC00
:10096000FEE70000A4F8402074F8402078F840200A
:1009700004ED00E020ED00E008ED00E02DE9F05F7F
:100980000546002092469B468846064681464024FE
:100990001BE0284641464746224600F0F2FB5346FC
:1009A0005A46C01A914110D311461846224600F00B
:1009B000D9FB2D1A67EB01084F4622460120002182
:1009C00000F0D0FB17EB00094E41201EA4F10104FA
:1009D000DFDC484631462A464346BDE8F09F00002A
:1009E0000649074A0868504343F239021044086038
:1009F00040087047014908607047000000E440204B
:100A00006D4EC64110B5431A934209D28318881817
:100A100003E010F8011D03F8011D521EF9D210BDAC
:100A200040EA01039B0703D009E008C9121F08C070
:100A3000042AFAD203E011F8013B00F8013B521EF0
:100A4000F9D210BDD2B201E000F8012B491EFBD251
:100A500070470022F6E710B513460A4604461946C9
:100A6000FFF7F0FF204610BD10B5044604E00B78F8
:100A700000F8013B03B1491C521EF8D2204610BDBC
:100A8000421C10F8011B0029FBD1801A704730B5B9
:100A900004460020034600E05B1C934203D2E05C66
:100AA000CD5C401BF8D030BD30B505460020034674
:100AB00000E05B1C934205D2EC5CC85C201A01D1BB
:100AC000002CF6D130BDF0B480EA0102D40F420010
:100AD000B2EB410F02D20246084611464A0042D00C
:100AE000C30DDDB2C1F3C752AD1A202D35DAC1F303
:100AF000160141F4000204B15242C5F1200602FA87
:100B000006F12A411044B3EBD05F23D0C4B1012DCC
:100B1000A0EBC35009DCF0BC4FF0004202EAC35224
:100B2000DBB200F5000000F057BB400000F1807020
:100B300000EBC350A0F1807040EAD170490009E099
:100B4000490841EAC071A0EBC35000F5000040081D
:100B500000EBC350F0BC00F036BB6142012202EB57
:100B60004101001BF6E7F0BC704781F00041AAE7A5
:100B700080F00040A7E780EA010210B502F00043D0
:100B8000400022D04A001FD0010E01EB1261C0F3D9
:100B90005600C2F3560240F4000042F40002A0FBEB
:100BA000022000047F39140400D0401C50EA124097
:100BB00001D44000491EC2B20C0604EBD010401C08
:100BC0004008802A02D003E0002010BD20F0010080
:100BD000002900DA0020184310BD30B480EA010279
:100BE00002F0004530F0004221F0004013D090B1F7
:100BF000C30DD40DC2F31601C0F31600E41A41F47C
:100C0000000140F400027D34914201D3641C00E0F5
:100C10004900002C02DA30BC002070474FF400007D
:100C20000023914201D3891A034340084FEA41014E
:100C3000F7D151B1914202D14FF0004105E002D20B
:100C40004FF0010101E06FF0010103EBC4502844B3
:100C500030BC00F0B8BA2DE9FE4F804681EA0300AF
:100C6000C00F0C46009021F0004123F00045B8EB86
:100C70000200A94105D24046214690461C460B463B
:100C8000024623F00040104347D0270DC7F30A0067
:100C9000C3F30A510290401A019040286BDAC3F363
:100CA000130040F4801B0098924620B10023D2EB41
:100CB000030A63EB0B0B01985946C0F14002504602
:100CC00000F050FA06460D4650465946019A00F08B
:100CD00068FA10EB08006141002487EA115284EAA7
:100CE000E7731A4340D0009A62B3019A012A4FEA8F
:100CF000075215DC001B61EB02014FF0004202EAD3
:100D00000752CDE90042001C41F5801132462B46C6
:100D100000F0CEFA03B0BDE8F08F40462146F9E777
:100D2000001B61EB0201001C41F5801300185B41C0
:100D30002018A2F5001747EB030140EAD570B61959
:100D40006D4111E06D084FEA360645EAC0754FEA7D
:100D50000752001B61EB0201001C41F5801149089C
:100D60004FEA30000019514132462B4603B0BDE82E
:100D7000F04F00F08EBA0098012240000023D0EB23
:100D8000020263EBE073009821464FEAE074B8EB8F
:100D9000000061EB0401E9E783F000435BE781F0C9
:100DA000004158E72DE9FE4F81EA030404F00044B6
:100DB00021F0004100944FF0000B23F0004350EA73
:100DC00001045ED052EA03045BD0C3F30A54C1F3BA
:100DD0000A552C44A4F2F3340194A0FB0254C1F34D
:100DE000130141F48011C3F3130343F4801301FB97
:100DF000024400FB034E840A970A44EA815447EAFE
:100E00008357A4FB076802958D0A05FB07854FEA07
:100E1000932C04FB0C542705029D4FEA065847EA21
:100E20001637B5EB08056EEB070C870E920E47EAF6
:100E3000811742EA8312A7FB0201B6EB0B0164EBB8
:100E400000042B0D43EA0C335E1844EB1C50DA46C9
:100E50005146E7FB0201C5F313044FEA0B3343EAA3
:100E600014534FEA0432019C43EA0603A4F10C0434
:100E70000294009CCDE900B400F01AFA03B0BDE87A
:100E8000F08F00200146F9E72DE9F04D81EA0304D7
:100E900004F0004B21F0004514464FF0000A23F007
:100EA000004150EA050220D054EA01021DD0C5F3EA
:100EB0000A570246C5F31303C1F31300C1F30A56E0
:100EC00040F4801543F48013A7EB0608101BD646A8
:100ED00008F2FD3873EB050002D308F1010801E0C8
:100EE00092185B41B8F1000F03DA00200146BDE81B
:100EF000F08D00204FF48011064684460EE0171B4B
:100F000073EB050705D3121B63EB050306434CEA9D
:100F1000010C49084FEA300092185B4150EA010782
:100F2000EDD152EA030012D082EA040083EA0501FF
:100F3000084305D0101BAB4106D20122002306E076
:100F400000224FF0004302E06FF0010253101AEB51
:100F500006004CEB085110EB0A0041EB0B01BDE819
:100F6000F04D00F096B9002801DBC0F100400029E7
:100F700001DBC1F10041814201D201207047002014
:100F80007047002801DBC0F10040002901DBC1F1FE
:100F90000041814201D301207047002070470028A2
:100FA00001DBC0F10040002901DBC1F100418142B9
:100FB00001D9012070470020704730B5041E71F13F
:100FC000000404DB4FF00044404264EB0101141EB6
:100FD00073F1000405DB1C464FF00043524263EB03
:100FE0000403801A994101D3012030BD002030BD97
:100FF00030B5041E71F1000404DB4FF000444042A0
:1010000064EB0101141E73F1000405DB1C464FF074
:101010000043524263EB0403101A8B4101D20120BA
:1010200030BD002030BD30B5041E71F1000404DB7A
:101030004FF00044404264EB0101141E73F10004C0
:1010400005DB1C464FF00043524263EB0403101AC9
:101050008B4101D3012030BD002030BD30B5041ECE
:1010600071F1000404DB4FF00044404264EB0101E5
:10107000141E73F1000405DB1C464FF0004352427E
:1010800063EB040342404B401A4301D0002030BDC3
:10109000012030BDC10F80EAE0700844CA079623E2
:1010A000002100F099B896230022114600F094B870
:1010B00030B4044696230800214604D0B62330BC41
:1010C000002200F089B820460021F8E700F0004235
:1010D00020F00040C10DC0F3160040F400007F294D
:1010E00001DA00207047962903DCC1F19601C8405F
:1010F00001E096398840002AF4D04042704720F041
:101100000040C10DC0F3160040F400007F2901DA51
:1011100000207047962903DCC1F19601C840704752
:1011200096398840704770B5C1F30A5201F0004506
:101130000024C1F3130140F2FF3341F480119A42BD
:1011400001DA002070BD40F233439A42A2F23342EA
:1011500003DC524200F015F800E090402C43F1D03F
:10116000404270BD202A04DB203A00FA02F1002040
:1011700070479140C2F1200320FA03F319439040D5
:101180007047202A04DB203A21FA02F00021704740
:1011900021FA02F3D040C2F12002914008431946DF
:1011A0007047202A06DBCB17203A41FA02F043EAC7
:1011B000E07306E041FA02F3D040C2F12002914010
:1011C0000843194670470029A8BF7047401C4900D2
:1011D00008BF20F00100704710B4B0FA80FC00FA9C
:1011E0000CF050EA010404BF10BC704749B1CCF1C7
:1011F000200421FA04F411FA0CF118BF0121214353
:101200000843A3EB0C01CB1D4FEA00614FEA10200D
:1012100042BF002010BC704700EBC35010440029AF
:10122000A4BF10BC7047401C490008BF20F001005B
:1012300010BC7047F0B4002802DCF0BC00207047FE
:10124000C0F3C751C0F3160040F40000CA0701D133
:101250004000491E3F2202EB6105002211464FF477
:10126000000626FA01F31344D418844201D8001B67
:101270001A464000491C1729F3DD5100814202D271
:101280004FF0FF3100E0002102EBC550F0BCFFF74A
:101290009ABF10B5141E73F1000408DA401C41F126
:1012A000000192185B411A4301D120F0010010BDEA
:1012B0002DE9F04D92469B4611B1B1FA81F202E060
:1012C000B0FA80F220329046FFF74CFF04460F46FA
:1012D00040EA0A0041EA0B0153465A46084313D03C
:1012E000114653EA010019D0C8F140025046FFF7F9
:1012F00048FF05460E46504659464246FFF732FF24
:10130000084305D0012004E020463946BDE8F08DB1
:101310000020054346EAE0762C4337430A986305EC
:10132000E40AA0EB08000022FD0A44EA47540A3010
:1013300002D500200146E9E7010510196941DDE900
:10134000084500196941BDE8F04DA2E7064C074D7C
:1013500006E0E06840F0010394E807009847103485
:10136000AC42F6D3FFF730FA74FE050094FE050098
:1013700070B58C1810F8015B15F0070301D110F857
:10138000013B2A1106D110F8012B03E010F8016B84
:1013900001F8016B5B1EF9D12B0705D40023521E07
:1013A0000DD401F8013BFAE710F8013BCB1A921C6F
:1013B00003E013F8015B01F8015B521EF9D5A1426D
:1013C000D8D3002070BD80B555F0EBFE002080BD65
:1013D00080B551F041FB00F005F8BDE8804051F0C8
:1013E00053BB00002DE9FC471F4801210027016085
:1013F0001E48BFF34F8FBFF36F8F0760D0F824A054
:101400004AF00041BAF1000F8162194808BF4FF05D
:10141000040AC0F800A003F06BFDCAF314240DF118
:1014200006050FF250080FF25409BCB1152F15D262
:10143000E00710D0F8B2294600F0DAFD064628B9D8
:101440004046494640F2EE724FF088FFBDF8061064
:10145000304600F079FC01376408E6E7504603F0B7
:1014600058FCBDE8FC8700BF80E100E000000440BC
:1014700058FD40206770696F00000000414F4E5FCB
:101480004C4350555F49525148616E646C6572001F
:1014900070B5002208230024002B0FD450F82350ED
:1014A00051F82360641942F10005A41940F8234063
:1014B00045F10004013B04F00104EDE7BDE8704094
:1014C00058F048BDF8B51446002208230025002B2B
:1014D0000FD450F8236051F82370AD1942F1000683
:1014E000ED1944F8235046F10005013B05F00105D4
:1014F000EDE7204658F02EFD0020A062F8BD000068
:1015000010B51446FFF7DEFFA06A20B12046BDE803
:10151000104000F00DB84149204615F029FB28B1D4
:101520003E492046BDE8104002F0EAB810BD00BFB9
:10153000B0B58CB0044601AD384821462A4602F0C9
:1015400077F8204629462422FFF75CFA0A99002002
:10155000C4E909100CB0B0BDF0B58BB00446806A88
:1015600000B32E4D2046294615F0EAFA80B3082034
:101570000021002200283AD455F8206054F8203089
:10158000B718921941F100069A1AA3EB070771EBFD
:10159000060244F82070A0F101004FF0000238BFAD
:1015A0000122E7E71D4A00200821002300291ED45C
:1015B00054F8215052F821605B1940F100059B1945
:1015C00044F8213045F10003013903F00103EDE750
:1015D0006D46124821462A4602F02AF8204629463E
:1015E0002422FFF70FFA09990020C4E9091000200E
:1015F000002109290BD054F821205FEA50004FEA5E
:10160000320044F8210002F001000131F1E72046E8
:101610000BB0BDE8F04058F09DBC00BF64C30500AE
:10162000704770477047F0B597B007AC01AD07AE93
:101630000FC41D98314613ACADF818001C98224613
:10164000059021980490209803901F9802901E986E
:101650000190284601F0C9FB28462146224601F0A8
:1016600012FF0FAD05A8294601F0C8FC2046294607
:101670002A4601F0AFFB0BAF3046394601F03EFE83
:1016800028463946224601F0DDFBDDE92220002113
:10169000042903D0635C53540131F9E7211D002272
:1016A0000C2A04BF17B0F0BD8B5C83540132F7E7FE
:1016B000B0B58EB002AC0FC4139900220AAB149CD3
:1016C000ADF804101299009102A901310F2A03D03C
:1016D0009854885C0132F9E780F0060006AD8DF879
:1016E00037006846294601F089FC0AA928462246A7
:1016F00001F0A8FB0EB0B0BDF0B593B007AC0FC4BD
:10170000199901ABDDE91E42ADF81810189925466C
:1017100005911D9904911C9903911B9902911A99A5
:1017200001910FA90E462DB113F8017B013D06F87A
:10173000017BF8E70D19002605AFA319052E98BF08
:10174000102B03D2BB5DAB550136F6E700241D46D6
:10175000102D08D20E5D4E551E1B0135013E18BFDF
:10176000661C3446F4E707A900240BAD01310F2CA9
:1017700003D02855085D0134F9E758400FA98DF8CA
:101780003B000BA801F05EFB13B0F0BD70B598B044
:1017900008AC14AD0FC41E9808A92A4601AC0790E6
:1017A0001D9806901C98059022980490219803900B
:1017B000209802901F980190204601F016FB2046C9
:1017C00029462A4601F05FFE239C002005A910AAA5
:1017D0000023102B08D00D5CD554451C0133B5F106
:1017E0000C0018BF2846F4E710AD14A829462A4675
:1017F00001F0F0FA0CAE08A8314601F07FFD284652
:101800003146224601F01EFB18B070BD2DE9F04FA5
:10181000AFB00E4607464FF404700221154616F08D
:10182000B3F9834628468421FFF713F958464FF44D
:101830000471FFF70EF9384600F0EEFE044630461C
:1018400000F0EAFE14B120B1ED4803E068B138467B
:1018500000E03046294600F0F1F80025584615F022
:1018600095FF28462FB0BDE8F08F3046394606F187
:101870002C0807F12C044EF011FF002800F0C18065
:101880000BF184000BF12C0107F1580ADA4B5A4690
:101890000D940BF1580906F158040C904046884607
:1018A000514698470D98CDF834804246DFF848837A
:1018B0002146C047304651464A46CDF81CA0464610
:1018C000C047089421460C9C38462246C0474846EB
:1018D0002146CA46A0464EF0E1FE002800F0A18055
:1018E0000BF5F270C34E0D990BF59A740BF1B00223
:1018F0000BF1DC070A900BF5DC700B940992039056
:101900000BF5C67002900BF5B07001900BF584706A
:10191000049005F15800069005F12C0005905846FA
:10192000B047504641463A46B047DDE90701DFF887
:10193000C8922246C84724A82C21CA46FFF789F836
:1019400019A82C21FFF785F80EA82C21FFF781F8A4
:10195000019E38463946B9463246D0473946029F3D
:1019600030463A46D0470998039C01462246D04764
:1019700030460A9E41463246D0470DF1380830467F
:101980000221424601F0A5FD204624AC0B995646A3
:101990002246D047204619ACDFF858A239462246E5
:1019A000D0472046049C41462246D047484621461F
:1019B0002A46B0470DF190082C21B1464046FFF76A
:1019C00048F819AD2C212846FFF743F80EAE2C211C
:1019D0003046FFF73EF80A9821464246D04709981C
:1019E00041462A46C8470D9938463246C847059AA7
:1019F00028463146D0470B99069A3846C8470125F4
:101A00002CE7404621464EF049FE00287FF41CAFEB
:101A1000306D01283FF634AFF06C00287FF430AF12
:101A200012E70D9958464EF039FE00287FF40CAFAE
:101A30003846294600F026F80FE700BFB0B5054646
:101A40000C46084624222946FEF7DCFFD5E90901A9
:101A50002422C4E9090104F12C0005F12C01FEF750
:101A6000D1FFD5E914012422C4E9140104F158007E
:101A700005F15801FEF7C6FFD5E91F01C4E91F01B2
:101A8000B0BD00002DE9F04FA7B00E4605464FF45B
:101A9000F270022116F078F80446286D012801D86A
:101AA000E86C18B1284600F0B7FD20B15448314623
:101AB000FFF7C4FF97E004F1B00005F15808059660
:101AC0001CAE05F12C0B039004F184004146324614
:101AD000029004F15800049004F12C000190284673
:101AE000FFF70EFD0DF1440A424B2846414652468F
:101AF00098470DF11809404F304651464A46B847BD
:101B00003E463E4F484603212246B8474146DDF84F
:101B100004805846B9464246B0471CAF5846414635
:101B20003A46B0472846049D39462A46B0470DF14B
:101B3000700A204621465246B04711AF2846082178
:101B40003A46C8475046DDF808A02A4B3946524667
:101B500098471CAD5046414637462A46B047059A3D
:101B600028460221C84704F1DC05584659462A4652
:101B7000B04740464146C346DDF80C804246B04778
:101B800004F58476284641463246B847B94604F5FE
:101B90009A751A4F304608212A46B84704F5B076A0
:101BA000049804213246B84704F5C6775146DFF859
:101BB00044A030463A46D04704F5DC762046394604
:101BC0003246C847059F3046294607F12C02D047C8
:101BD0001CAD404659462A46C847084B07F15802F3
:101BE000284608219847204615F0D0FD002027B050
:101BF000BDE8F08F7536000009350000D3340000D1
:101C000050C50500F0B58BB06F460D4606465830FE
:101C10001446394603F092F8304639462A4601F018
:101C200073FC06F12C003946224601F06DFC0BB026
:101C3000F0BDE0B50190019830B14FF47A7000F03A
:101C400005F801980138F5E78CBD0000F8B50446A9
:101C50000E4D28B92868C00704BF002000F036F8F0
:101C600042F2107684B1A71B34BF0027344628689F
:101C7000C00704D1204600F029F83C46F2E7204690
:101C800000F006F83C46EDE7F8BD00BF10E000E0CC
:101C900018B500900C484FF47A730168009A4A43D3
:101CA000B2FBF3F20092002243684468A342FCD0E6
:101CB0001A44A342A2EB040298BF0A44009B9A4232
:101CC000234628BF18BDF0E714E000E01CB5114C16
:101CD00001902068019901B140B9002000F0EAFAB2
:101CE0000D49B0FBF1F02060019991B1312802D388
:101CF000019901390191019959B10199013948437B
:101D00000C21B0FBF1F000900098411E00280091DA
:101D1000FAD11CBDE8E9402040420F003349884217
:101D200004D0084A90421CBF012070474FF0FF3298
:101D30008842C264C0F8CC204FF0000008BFC1F850
:101D40004C2170470000084070471CB501240DF17C
:101D5000070101AA0020ADF8044000F05DF810B1C1
:101D60008DF8074001E09DF8074020461CBD0000AB
:101D700010B5124C2178FF2905D1FFF7E6FFB0FA24
:101D800080F0410921700E48006849B10D49096889
:101D900081B1A1FB00010C4A0023FEF7EFFD10BD4D
:101DA000C10B4FF47A726FF3DF305043514301EBB4
:101DB000D03010BD0A21B0FBF1F010BDA8E54020E5
:101DC0004800044054FC4020007C9200014951F836
:101DD0002000704730B00C5002460020142A04D86E
:101DE00019B102F1180008800048704700000A503D
:101DF00080B500F049FA00F046FA00F0A3FA03209B
:101E000000F076F9002000F004F8002818BF012047
:101E100080BD002070470000B0B503460120062BAE
:101E20003AD8002938D0002A36D03F4C3F482568A0
:101E300005B9206004681A4DAC422ED1062B2CD86F
:101E4000DFE803F0040A0F14191E24001288012A87
:101E500023D1807E08701EE01288042A1DD14068BC
:101E600018E01288042A18D1806813E01288042A26
:101E700013D1C0680EE01288042A0ED1006909E06F
:101E80001288022A09D1008B088004E01288042AF3
:101E900003D1406908600020B0BD0120B0BD00BF83
:101EA0007878454510B503460120062B38D800291F
:101EB00036D01D4804680CB91C4C0460062B30D881
:101EC000DFE803F0040A10161C222800012A28D19A
:101ED00008781649887622E0042A22D10868134936
:101EE00048601CE0042A1CD108681049886016E08C
:101EF000042A16D108680D49C86010E0042A10D1E0
:101F000008680A4908610AE0022A0AD108880749D4
:101F1000088304E0042A04D10868044948610020C9
:101F200010BD012010BD00BFF8EA4020C0FD4020D8
:101F300001214FF4807281401038152838BF02FA11
:101F400000F10348026822EA0101016000207047A5
:101F500020000440B0B5A0F11003144ADCB2142CE8
:101F60001CD84FF4807417284FF0070504FA03F3C8
:101F700043F000445462044688BF083C17281046CA
:101F8000E4B288BF043004EB4404303CA540A140D7
:101F900004682940AC432143016002E0012101FAB9
:101FA00000F3D0691843D0610020B0BD04000440A4
:101FB0000448016841F0020101600168B1F1FF3F8E
:101FC000FBDC70471000044008480221016000203B
:101FD000704700BF0548012101600020704700BF25
:101FE0000248032101600020704700BF0000044048
:101FF000FFF7F2BE01281CBF0120704704480168AA
:1020000041F00101016001688906FCD5002070479C
:102010002C00044080B5FFF798FE10B14FF08E40C1
:1020200080BD0420FFF7D2FE48B1FFF73CF801461F
:102030000548FEF7D2FD0549FEF79DFD80BD01482C
:1020400080BD00BF00901746001B374C000048437E
:1020500070470000B0F1FF3F10DD00F01F010122CA
:10206000C0B202FA01F1064A42EAD00020F00300B1
:102070000160BFF34F8FBFF36F8F7047FEE700BF64
:1020800080E100E0B0F1FF3F0CDD00F01F01012214
:10209000C0B202FA01F1044A42EAD00020F0030083
:1020A00001607047FEE700BF00E100E0102A00D3A6
:1020B000FEE7102900D3FEE770B5154B4FF0FF3552
:1020C0001B68C3F302231C1F83F0070338BF0024DF
:1020D000032B28BF032305FA04F605FA03F3B243E2
:1020E0009943A1401143BDE8704001F0A9BB00BF76
:1020F000C11E05290AD206494FF6FF030A681A4095
:1021000060F30A220348104308607047FEE700BFEF
:102110000CED00E00000FA050B480C49006888420D
:1021200018BF70470048004700E540000649074ACD
:10213000086890421CBF0020704701F10800496800
:102140000022C90800F004B800E44020484354507D
:102150002DE9F0472B4B002591464FF0010E4FF033
:10216000402C002A1D609846174B18BF4FF00109FC
:102170009A460023A9421BD00EFA05F404EA02078E
:10218000B7FA87F77F0917EA090F0FD150F83570B2
:1021900056462343464607EA0A074CF8257000EBEB
:1021A000C507C8F804407F68C8F808700135E1E742
:1021B0000020002AC8F80400184608BF1A46C8F8CC
:1021C0000020BDE8F08700BFFCFF0700F0B5034624
:1021D00000200C4C4FF040250CE02668C640F60766
:1021E0000CD055F8206003EBC00743F83060013095
:1021F00036687E601F2898BF8842EED32168116040
:10220000F0BD00BF80400040052884BF012070471A
:10221000082101FA00F01A490A6822EA0000086061
:10222000002070471648016821F00101016000207C
:10223000704700BF02460120052A98BF042900D933
:10224000704710B50820A94B7024904002EB420261
:10225000D8609440043291401A682140A24311434F
:1022600019605968084358600020BDE81040704765
:102270000348016841F0010101600020704700BF80
:1022800004A00C507047704780B5FFF791FE564888
:102290000122016862F3010103220160016841F03B
:1022A000100101600220012100F04EF8BDE88040DD
:1022B000FFF7CEBE10B50446002808BF0224204612
:1022C00000F014F8012C05D0022C02D13F21884ADD
:1022D00002E0FEE7FF21044A1268114008BF012115
:1022E000B0FBF1F010BD00BF24000050012807D161
:1022F0000548006800F00300032808BF00F006B896
:1023000000487047006CDC0220000050012000F003
:1023100001B800000949012802D002280CD104317B
:10232000086848B1C0F38301054A00F0010040424B
:1023300001FB022108407047002070472C0000502C
:1023400000366E017047000010B50023002820EA17
:10235000E074C8BF3F2300290AD480F0010003F5D0
:10236000E06308434FEA012008BF4FF48070044344
:10237000B2F1FF3FC8BF03F5E0434BB15C48B2F197
:10238000FF3FC8BF44EA023401689943214301601A
:102390000220FFF78FFF0149086010BD28E44020AC
:1023A00010B510480168002907D4016841F0020106
:1023B00001600168B1F1FF3FFBDC0B4C012120689B
:1023C00061F3010020600220FFF774FF0749B0FBB2
:1023D000F1F061686FF3184141EA004040F40000F9
:1023E000606010BD100004401000004000127A0030
:1023F0000320FFF7EBBC00002DE9F04707463B4800
:102400000068C00746D13A480068C0F3023AC0F3FA
:10241000022800F03F09BAF1070F06D04FF0FF3055
:102420004FF0FF310722FFF78FFF32480021324A79
:102430004FF6FF73314D324E002484460A2C1ED0D5
:10244000116821F48031116011681160116899439D
:102450001160116839431160116841F40031116055
:102460005168B1F1FF3FFBDC51686046013421F057
:102470000041BCEB010038BF4819B042DED8032050
:1024800000F066F8BAF1070F04D0484641465246BC
:10249000FFF75AFF1B4E3068632803D800F1010094
:1024A00030600DD10420FFF791FC05460024032085
:1024B000C6E90254FFF78AFC6321E5FB010407E04B
:1024C0000320FFF783FCD6E90212401842F1000412
:1024D000C6E90204214600233268FEF74FFA01469E
:1024E0000420BDE8F04700F033B800BF00A00C5056
:1024F0001400004040420F0014010940C0BDF0FF2D
:10250000DF930400D8E640206FF00401084200D0B9
:10251000FEE70D4904280A6822F0040308BF42F0D0
:1025200004030B60704700BF411E0020B0EB116F29
:102530001CBF01207047044AE023516003490B701F
:10254000072190601160704710E000E023ED00E08B
:10255000014A42F82010704730B00C50B0B578B145
:102560000446006808B91F4820601E4988421CBF05
:102570001D4988420BD16168B1F1807F02D3FEE72B
:102580000120B0BDA268B2F1807F04D3FEE71749F5
:102590008842F0D0FEE743699B0710D5342100251F
:1025A000C16041692F2D08D811F0020105D001202A
:1025B000FFF73FFB20680135F3E7D4E90112016022
:1025C000002576214260C160416900202F2DD8D8B6
:1025D00011F00201D5D10120FFF72BFB2068013556
:1025E000F2E700BF00B000400040095000C00C50AE
:1025F000B0B50446006876210025C16040692F2DE2
:1026000008D810F0020005D10120FFF712FB206866
:102610000135F3E70020B0BDB0B50C4D04462946A6
:102620004EF03CF830B904F12C0005F12C014EF0CD
:1026300035F808B10020B0BD04F1580005F158018B
:102640004EF02CF8B0FA80F04009B0BD50C505003E
:102650002DE9F04FBFB033AC0FC4DDE94868102E50
:102660000BD233AD284600F082FE0020102810D097
:10267000295C08F800100130F8E7002033A9102881
:1026800004BF3FB0BDE8F08F0A5C08F800200130BD
:10269000F5E7DFF82807711E37AB229100EB011038
:1026A0000021102903D0425C5A540131F9E79DF80A
:1026B000EB009DF8EA509DF8E9309DF8E5209DF883
:1026C000E3C09DF8E0409DF8DCE09DF8DD109DF84A
:1026D000DEB09DF8DFA04FF0FF3732909DF8E800A4
:1026E00028909DF8E7002F909DF8E60027909DF830
:1026F000E4002E909DF8E20026909DF8E1003090D5
:1027000031914FFA8EF1B1F1FF3F68DD1846329BEF
:102710006E00D9B25B0046EAD11146002D91E9B2B4
:10272000650046EAD1112C91C1B22898460046EACC
:10273000D1112B91C1B22F98460046EAD1112A91AE
:10274000C1B22798460046EAD11156002991C1B27C
:1027500046EAD110D1B225902E98460046EAD11112
:102760002491C1B238464FEA4C0747EAD111239170
:102770005FFA8CF1269A570047EAD116D1B2309A07
:10278000570047EAD119D1B22246074645EAD1148B
:10279000D0B24FEA4A0152465D46013F41EAD01AA3
:1027A000D0B2319A4FEA4B01329341EAD01BE8B2E2
:1027B0002BAD510041EAD011D0B2C00940EA4E0E13
:1027C00029CD28902A982F9029982790DDE9240276
:1027D0002E90DDF88CC02696CDE9309191E73298A5
:1027E0002B952A9329468DF8EA5055468DF8E93005
:1027F000A1468DF8E0408DF8DCE08DF8E5208DF8FD
:10280000E3C05946289E279BDDF898A0AB468DF87B
:10281000DF508DF8EB002F980C468DF8DE108DF808
:10282000E8608DF8E6308DF8E2A08DF8E7002E988C
:102830008DF8E4003098CDF8A4E031992F9D8DF803
:10284000E1008DF8DD1000212D9180212C91DDF823
:10285000B8E02B98002F00F0E78028972D992C9F47
:102860002B9018F801100F4267D02F95CDF8B8E0E3
:1028700098F8001010461A46334698F8016098F808
:1028800003E098F80250299F794088F800103199A8
:1028900071401E46134602468EEA0B00DDF8B8E092
:1028A00088F8030098F8040088F8011085EA04010C
:1028B0002F9D88F80210309980EA090088F80400FA
:1028C00098F8050048402A9988F8050098F806000D
:1028D00080EA0A0088F8060098F8070080EA0C00F1
:1028E00088F8070098F8080080EA0E0088F80800C9
:1028F00098F80900504088F8090098F80A005840F4
:1029000088F80A0098F80B00684088F80B0098F8DF
:102910000C00704088F80C0098F80D0048402B9986
:1029200088F80D0098F80E004840329988F80E009B
:1029300098F80F00484088F80F002C992D9801292D
:102940004FEA510108BF01302D9008BF80212C9122
:10295000E0B2319FF90141EA5000E1012F905FFAA6
:102960008BF041EA50004FEACB112E905FFA89F0CC
:1029700041EA50004FEAC9112790309CE0B241EA89
:1029800050095FFA8AF0E10141EA50004FEACA11AA
:1029900030905FFA8CF041EA500A5FFA8EF04FEA0D
:1029A000CC1141EA50004FEACE112690D0B2D201AC
:1029B00041EA500ED8B22A9CDB012B9942EA500C16
:1029C000EAB2ED01304643EA5203F2B24FEAC41BC9
:1029D00045EA5206E2B2329CC501384645EA520544
:1029E000CAB2C901E7B24BEA520241EA5701329139
:1029F000C1B2299C490841EAC410E1B231904808AB
:102A0000289F29902A9510461D4663467246D44653
:102A1000DDF898E0DDF8C0A0CDF8C090DDF89C901E
:102A2000DDE92EB4013715E7E548229AE5A13BAB75
:102A3000002537AF00EB0210895C0022102D08D072
:102A400018F8056008F805207E55465D5E5501358D
:102A5000F4E7481C9DF8EB109DF8E6B09DF8EF7088
:102A60009DF8F3909DF8F4A09DF8F5E09DF8F6C070
:102A70009DF8F7609DF8F8509DF8F9309DF8FA2020
:102A800031919DF8EA1024919DF8E9101D919DF86F
:102A9000E81023919DF8E71022919DF8E510309100
:102AA0009DF8E4102F919DF8E3102E919DF8E2100F
:102AB0002D919DF8E1102C919DF8E0102B919DF83F
:102AC000DC1028919DF8DD1026919DF8DE102A91EA
:102AD0009DF8DF1029919DF8EC1027919DF8ED10DD
:102AE00021919DF8EE1025919DF8F01020919DF810
:102AF000F1101F919DF8F2101E919DF8FB1032917C
:102B0000002800F0558116A9013881E86850CDF8F9
:102B10006CA0CDE914721C905B46DDE92265329809
:102B2000DDF8A0E0DDF898C0249F1D9CC0075BD0B5
:102B300098F8000098F8011098F8022098F803A07F
:102B400080EA0E0088F8000081EA0C002B9988F8D2
:102B500001002A98504088F80200299880EA0A006B
:102B600088F8030098F8040048402C9988F804007D
:102B700098F8050048402D9988F8050098F8060057
:102B800048402E9988F8060098F8070048402F9989
:102B900088F8070098F808004840309988F808003D
:102BA00098F809004840319988F8090098F80A0017
:102BB000584088F80A0098F80B00704088F80B001D
:102BC00098F80C00684088F80C0098F80D006040F8
:102BD00088F80D0098F80E00784088F80E0098F8F4
:102BE0000F00484088F80F00DDF8C4B079005FFAA4
:102BF0008BF041EAD01061001390F8B241EAD01096
:102C000069001290E0B241EAD01071001190E8B270
:102C100041EAD01059001090F0B241EAD0100F9064
:102C2000D8B2309A510041EAD0100E90D0B22F9A0B
:102C3000510041EAD0100D90D0B22E9A510041EAD5
:102C4000D0100C90D0B22D9A510041EAD0100B90C8
:102C5000D0B22C9A510041EAD0100A90D0B22B9AEF
:102C6000510041EAD0100990D0B2299A510041EAAE
:102C7000D0100890D0B22A9A510041EAD0104FEA01
:102C80004C010790D0B241EAD0104FEA4E010690B5
:102C90005FFA8CF041EAD0102890219B2799D8B296
:102CA000400840EAC1100590259AD0B2400840EA99
:102CB000C3100490DDF850C05FFA8CF0400840EA81
:102CC000C2100390209AD0B2400840EACC10149071
:102CD0001F9BD8B2400840EAC21002901E9AD0B2A0
:102CE000400840EAC31001905FFA89F0400840EACA
:102CF000C21000901B9A1A9B169CD0B2400840EA62
:102D0000C91AD8B2DDF85490400840EAC21E199A98
:102D1000D0B2400840EAC31C189BD8B2400840EA31
:102D2000C216179AD0B2400840EAC315E0B2400874
:102D300040EAC2135FFA89F0400840EAC412329CAC
:102D400058465FFA84FB04464FEA5B07640047EA93
:102D5000C910CFB2329078083194279013982490FC
:102D600012981D901198239010982290DDE90E0B77
:102D700030900D982F900C982E900B982D900A98CB
:102D80002C9009982B900898299007982A900698DB
:102D9000269005982190049825901498039F2090E0
:102DA00002981F9001981E90DDF800901C98A7E6ED
:102DB00040463FB0BDE8F04F00F0D9BAFDBE050077
:102DC000FDBF050077706860584D473F312A231CCE
:102DD000150E0700B0B50023102B08BFB0BDC45CB2
:102DE000CD5C2C44D4540133F6E7F0B589B01446D9
:102DF00000228DF80220102A03D0835CA3540132F4
:102E0000F9E70DF113050846294600F005FA0827F1
:102E10000DF1020637B120462946324600F050F83F
:102E2000013FF7E70DF103050DF113000DF102026B
:102E3000294600F02BFA20462946224600F02EFBB8
:102E400009B0F0BD2DE9F0418EB0144600220DF11D
:102E500016038DF80520102A05D0855CA554855CE5
:102E60009D540132F7E70DF127050846294600F089
:102E7000D3F900260DF116080DF10507022E02D038
:102E8000082E05D10BE020464146224600F006FB05
:102E9000204629463A4600F013F80136EEE70DF1D8
:102EA00006050DF127000DF10502294600F0EEF9A7
:102EB00020462946224600F0F1FA0EB0BDE8F08126
:102EC0002DE9F04788B0EA46044689460846904610
:102ED000514600F0DBF920465146224600F0DEFA6A
:102EE00039493A4A00200F280ED8235CCB5C235482
:102EF000231804305E78DD789F78965D4D5D5E70B6
:102F0000D65DDD709E70EEE748465146424600F0C1
:102F1000BDF90020102818D2215C1AF800200AEB15
:102F200000067778B578F6781144215421180430DA
:102F30004A788B7891F803C07A404A7085EA030298
:102F40008A7006EB0C02CA70E4E74FF0000C1AA17D
:102F500004AABCF1030F1ED000230F2B09D8E618DA
:102F6000E55C777807EB4500E05478190233707020
:102F7000F3E70023102B03D0E05CD0540133F9E7D2
:102F80000023102B04D0C85C105CE0540133F8E738
:102F90000CF1010CDDE700200F2884BF08B0BDE86C
:102FA000F0872218215C537803EB410519445170D6
:102FB00025540230F0E700BF080B0C0F0201060594
:102FC0000A090E0D00070403FDBD0500FDC0050044
:102FD00043F206310840401A18BF0120704700B97B
:102FE00052B900EA01024CF6F843084343F20E31AD
:102FF0001A40084040EA02010846704710B5002216
:103000000023102B08BF10BD845CCC54541C01332A
:10301000A21F18BF2246F4E720F07F0110200AB259
:10302000002A03D410B101384900F8E7C0B2704754
:10303000C1F3C20201F00701805CC84000F001004A
:10304000704700002DE9FF410646324814460D4600
:1030500090F8CA00C0070DD016480DF10F024FF4CA
:1030600080313346CDE9005407683220B8479DF8D7
:103070000F00E8B1DFF8A4800027D8F8500010B1A5
:10308000FDF7FEFC00E000202070B781B76077609C
:1030900037600E2F0CD0E819F72809D8217888421C
:1030A00006D2D8F850002844C05DF0550137F0E74B
:1030B000BDE8FF81FCE440200A4890F856007047C4
:1030C000084910224631FDF79DBC00BF054910227A
:1030D0002631FDF797BC00BF024910223631FDF7BB
:1030E00091BC00BFA8F34020E0B50A4890F8CA00A0
:1030F00080070AD508480DF107024FF40031036834
:10310000322098479DF8071009B10448807FC0B26B
:103110008CBD00BF28EC402008E5402050F740203F
:103120002DE9F8431D460C9B032B84BF0020BDE80E
:10313000F88314460246DDE90A60DDE90889DFE824
:1031400003F0020A122B0978B9B3022937D00129FA
:103150003BD012203CE0318832B906293CBF1E200A
:10316000BDE8F88300E0318821F0010131801CF0D6
:10317000D1FB284940F27122484331885143B0FBCA
:10318000F1F0206000202860C8F800104FF0FF31F7
:10319000C9F80010BDE8F883087801281CBF20207A
:1031A000BDE8F883308800210230308080B2C82822
:1031B00088BF01214801BDE8F883C82006E01CF063
:1031C000A9FB21684A1C022A15D228203080002041
:1031D000D8F800104A1CEED040F27122B1FBF2F197
:1031E000328821F001019142E5D2052998BF0621DC
:1031F0003180BDE8F88340F271225143054A5043C3
:10320000B0FBF1F04FF6FE710840062898BF06208B
:10321000DCE700BF40420F0010B500220023102A57
:1032200005D0845C8C54845C01326340F7E70B74F6
:1032300010BD1CB5ADF804100090002069460628AA
:1032400008BF1CBD0B5C14181354A3710130F6E7C2
:10325000B0B504460025102D08BFB0BDFDF7C0FB7A
:1032600060550135F7E700F01E0100F4706200F4CC
:103270007040063918BF0121B2F5407F18BF032105
:10328000B0F5405F18BF052108467047F0B585B01E
:10329000144605460A4600212078102907D0102838
:1032A00088BF00202B5C013053540131F5E72078B2
:1032B00090B100EB0010104B002101AE123010292C
:1032C00006D04718FFB2DF5DDF5D77540131F6E7C6
:1032D00001A91046FFF77EFD0020112806D0295CC9
:1032E000CA0042EA511129540130F6E72078013032
:1032F000207005B0F0BD00BFFDBD05000278173A93
:103300000A70427882F0E5024A708278213A8A7027
:10331000C27882F0C102CA7002794D3A0A714279CC
:1033200082F0A7024A7182796B3A8A71C27982F07F
:103330008302CA71027A82F0E9020A72427A1B3A67
:103340004A72827A82F0DF028A72C27A3F3ACA7285
:10335000027B82F0B3020A73427B593A4A73827B42
:1033600082F095028A73C07B7D38C873704784B041
:1033700000226946102A03D0835C8B540132F9E79E
:103380000F22531C04BF04B070478B5C013A00F855
:10339000013BF6E70288052922F0E103038006D00D
:1033A00003290BD14FF440714FF21E0303E04FF499
:1033B000405140F61E731A40114301807047F0B52A
:1033C00001F002050124860752B284EA55044FEA4F
:1033D000440448BF022411F0040104F1040608BFAC
:1033E0003446470748BF3446002D04F5807608BFB1
:1033F0003446C70548BF3446002A58BF3446002922
:1034000044F4007608BF3446870548BF3446002A96
:1034100058BF344613F0010344F4805208BF1446E9
:10342000002D08BF1446C50448BF1446002B44F4C1
:10343000005208BF1446002908BF1446800448BF44
:103440001446A0B2F0BD10B500F0180244051346B2
:1034500061F38A2358BF13461A46040561F3CB2251
:1034600058BF1A464B08144663F38E34430458BFC2
:1034700014468907214648BF41F40041000458BF63
:10348000214688B210BDB0B50023102B08BFB0BDD7
:10349000C45CCD5C6C40D4540133F6E7F0B5002336
:1034A0000F2B88BFF0BDC45CCD5CCE186C40D454EB
:1034B000C418657877783D44D71804337D7094F844
:1034C00002C0B5786544BD70E478F5786C40FC7056
:1034D000E6E770B51446054608200022002809D406
:1034E00055F820300026E3FB012644F8202001385F
:1034F0003246F3E7204656F02DFDA86AA06220462A
:10350000BDE8704057F090BB2DE9F04F9FB00DF132
:103510002C0A89468346502190465046FDF799FA79
:1035200009F120000AF144014FF0080C0023BCF11E
:10353000FF3F17DD5BF82C400027002517F1080638
:103540000CD451F8272050F82760521943F1000598
:10355000E6FB042541F82720013FEFE70439ACF1F1
:10356000010CE4E70022122A04D05AF8220008B91C
:103570000132F8E7D9F82800DBF82810C2F112036D
:1035800000251D930C1A18BF01241E945AF825100B
:10359000681C082D02D800290546F7D0082B0A948C
:1035A00015D8471E0A2A15D1204C0AF128020023FB
:1035B000082B0CD004EB830652F823500133B66A73
:1035C000AE42F5D003D305E05AF8201001300029AF
:1035D000FAD0471E6E460AEB870124223046FDF7DB
:1035E00011FA304656F0B6FC07F10904371D304693
:1035F00057F01AFB112C0CD8304639462022FDF723
:1036000001FA5AF824000890304656F0A3FC013421
:10361000EDE7694640462422FDF7F4F9DDE90901AA
:10362000C8E909011FB0BDE8F08F00BFFCFD05002F
:10363000F0B59446002308240025002C14D451F83A
:10364000247050F824607A19B21A4CF824207A19A0
:10365000A4F1010443F10005B21A73EB05024FF027
:10366000000538BF0125E8E76046BDE8F04056F0A8
:1036700071BC000070B506460D46886A1446B16AF2
:1036800041B170B12846314613F072FA78B128463C
:10369000314616E070B1304629462246FDF712FF4A
:1036A00012E0304629462246FDF70CFF1FE0304667
:1036B000294619E03046294613F05AFA90B13046AF
:1036C00029462246FFF7B4FF00200C49A06220469D
:1036D00013F04EFA28B109492046BDE8704000F0C9
:1036E0000FB870BD284631462246FFF7A1FF0120E2
:1036F000A0622046BDE87040FDF71ABF64C3050014
:10370000F0B5002208230024002B15D451F82360C3
:1037100050F823503719A41942F100062C1BA5EBD1
:10372000070772EB060440F82370A3F101034FF082
:10373000000438BF0124E7E7BDE8F04056F00ABCBA
:1037400070B58CB004460D46886AA16AB1B1B0B1BB
:103750002846214613F00CFAE8B101AE284621466E
:103760003246FFF765FF204631462422FDF74AF92D
:1037700000200A996162A0620CB070BD30B1204691
:1037800029460CB0BDE87040FDF782BE20462946B0
:1037900013F0EEF930B1204629460CB0BDE8704078
:1037A000FFF7AEBF01AE284621463246FFF740FF85
:1037B000204631462422FDF725F90120D9E770473C
:1037C00010B5104C1249206800F003000338B0FA1D
:1037D00080F04FEA5010087018BF10BD53F092FAF5
:1037E000606C20F002006064FEF702FBFCF7F6FF5D
:1037F000FFF7E5FF4EF050FFFDF72DF8BDE8104054
:103800004DF03CBA0000044001480078704700BF0A
:1038100054FD4020FFF7D4BF80B588B004AF0FC778
:103820000D980E9A694603900C9802900B9801909F
:103830000A98009004A8FFF726FE08B080BD00009B
:1038400010B500F00F03064C044AB0F1FF3F2344CB
:10385000C8BF83184801187010BD00BF00E400E025
:1038600014ED00E018B1C1B219B101200EE0002042
:10387000704710F47F4102D0090A092006E010F4D5
:103880007F0107BF010E1920090C1120014A515C6C
:103890000844704754C205000020704780B5FF28D7
:1038A00006D0F22806D048B9084613F0DFFD07E03D
:1038B000002005E0084613F0C5F901E04CF03AFF9E
:1038C0000249002818BF0146084680BD30C50500E2
:1038D00070B50446FCF782FF04F114060546304635
:1038E00052F00EFF304652F0DFFD208A20F0020039
:1038F00020822846FCF776FF606C2146BDE87040C8
:1039000000F076BEE0B5C84890F89400400709D5AD
:103910000A480DF1070204210368252098479DF805
:10392000070048B101F06EFB30B1426922B1418C11
:1039300003480368104698478CBD00BF0CE5402043
:1039400078E440202DE9F0410D4604460A2800D8CD
:1039500025B91CA028A1EF224DF000FD0A2C1DD88E
:103960002B4EDFF8B08006EB8400D8F8001005611C
:10397000204688470546301906EB850680F85450E6
:103980000120A040374657F83C1F57F8382C40EA32
:10399000020047F8380C19B100240FE003240DE0B1
:1039A0001DA00021002453F016FCD8F80410B064C8
:1039B0001AA02A462B4653F017FC38602046BDE873
:1039C000F08100BF286576656E745F74797065203C
:1039D0003C204B455F4556454E545F4D415829208C
:1039E00026262028705F63616C6C6261636B202106
:1039F0003D203029000000005F6B655F6576656ED5
:103A0000745F63616C6C6261636B5F73657400000B
:103A100020F3402008E440204B4500004B455F4523
:103A20005654000010B50B2809D2012101FA00F408
:103A3000FCF7D4FE70490A68A2430A6007E0064812
:103A400006A140F221124DF089FCFCF7C7FEBDE84B
:103A50001040FCF7C7BE00BF20F905005F6B655F33
:103A60006576656E745F636C6561720062480068BC
:103A7000704700BF80B560486021FCF7EAFF80BD59
:103A8000F8B50D4E0D4C0EA53068A0B1B0FA80F01F
:103A900080F01F070B2F05D32046294640F257120E
:103AA0004DF05CFC06EB8700006908B18047EBE74E
:103AB0004CF02EFEE8E7F8BD20F340203CF905006D
:103AC0005F6B655F6576656E745F7363686564756B
:103AD0006C6500002DE9F0410F4FDFF8408004468F
:103AE0000FA63868204008BFBDE8F081B0FA80F02A
:103AF00080F01F050B2D05D3404631464FF4BE72B2
:103B00004DF02CFC07EB8500006908B18047E8E721
:103B10004CF0FEFDE5E700BF20F340203CF9050036
:103B20005F6B655F6576656E745F7363686564750A
:103B30006C655F7669615F6576745F6D61736B005C
:103B400070B504460B280CD22B4E301990F8545007
:103B5000012000FA04F4FCF741FE31682143316092
:103B60000BE00B480BA140F20D124DF0F7FB224881
:103B7000204490F85450FCF731FEFCF733FE1E4809
:103B800000EB8500806CBDE8704053F02BBB00BF9C
:103B900020F905005F6B655F6576656E745F736520
:103BA000740000000A280ED810B50A4B002200212C
:103BB0000B2A0AD013F81240844204BF03EB4201DF
:103BC00049780132F4E7002101E0BDE81040C8B2B5
:103BD000704700BF64D805000749C0B2074E01EB2B
:103BE0008000041D00F14805286853F0F7FA2068AA
:103BF00031688847F8E700BF20F3402044E44020C4
:103C0000E0B5094890F8A10040060AD507480DF133
:103C100007024FF480410368282098479DF8071059
:103C200001B100208CBD00BF28EC402008E54020F9
:103C30000020704710B5354A1268904768B10446B5
:103C4000043002F006FE38482146103002F0CCFB6A
:103C50002046BDE8104013F099BD10BD10B50446D4
:103C6000C1898089FF2214F043F82F48043C214683
:103C7000103002F0B9FB2046BDE8104013F086BDBD
:103C800010B5294800F11004204602F022FC10B1C2
:103C900013F07CFDF8E710BD0246234810300068A1
:103CA00038B1038A9342FAD1438A8B4208BF7047E6
:103CB000F5E70020704700BF2DE9F041DFF84C80A8
:103CC00014460F460646D8F8002090470546B0B97E
:103CD0001420012113F058FF054620B90CA00EA1B5
:103CE000A2224DF03BFBD8F80410281D6F822E82D3
:103CF00002F048FD0C482946103002F0F4FB281D64
:103D00002146BDE8F04102F09ABD00BF10E440201A
:103D1000705F74696D6572005F6B655F74696D6576
:103D2000725F736574000000F4F240200020704759
:103D300070B5154E0446002596F85400854228BFFC
:103D400070BDB06D00EBC50149688A681AB150F8C2
:103D50003500214690470135EEE700BF70B50A4EA9
:103D60000446002596F85400854228BF70BDB06D0A
:103D700000EBC50149684A681AB150F83500214680
:103D800090470135EEE700BF28E9402070B50D46A9
:103D9000044620B9104811A1AB224DF0DFFA616D45
:103DA00011B12846884714E094F8580001280FDB29
:103DB000E16D461E01EBC00050F8080C52F0FCF912
:103DC000A8423046F2D8E06D00EBC600007900E072
:103DD000012084F8460070BD1DFC05005F706D5F1A
:103DE00073656C6563745F736C6565705F6D6F643C
:103DF0006500000080B5202905D0212906D1D0B268
:103E000050F002FA02E0D0B250F0EAF9002080BD92
:103E1000F8B51C4615460E46074628B90AA00EA15D
:103E200040F2BA224DF09AFA052EC4BF0020F8BD28
:103E3000B8190EA2214690F84030284601B0BDE8DE
:103E4000F04051F0F7BA00BF706D20213D20525470
:103E50005F4E554C4C0000005F72745F706D5F6484
:103E600065766963655F72656164000025640000C2
:103E700080B553B1107828B1012806D1C8B250F0EE
:103E8000C3F902E0C8B250F0ABF9012080BD0000D8
:103E900010B5044620B90A480AA14B224DF05EFA3B
:103EA000A06A0178232906D1E169814203D9E26A37
:103EB0001044814203D9FCF791FC00B1FEE710BD2C
:103EC00008F405005F72745F7363686564756C6500
:103ED000725F737461636B5F636865636B0000009E
:103EE0007CB5069D00F12006044614302EC6C4E9B8
:103EF0000500184623212A464FF052F904F1200309
:103F00000FCB1A44174B043A4EF0A8FBA16AE061AC
:103F10004EF08BFBDDE90756082D04D312A01BA140
:103F200099224DF01BFA00201C4A21462346C4E981
:103F30000E06266484F8355084F83650C4E91D0016
:103F400084F834002063CDE9000004F1440052F00D
:103F500001FB1348016819B12046BDE87C400847C1
:103F60007CBD00BFD15A05007072696F72697479A7
:103F7000203C2052545F5448524541445F505249BE
:103F80004F524954595F4D41580000005F72745FB1
:103F90007468726561645F696E697400B160050080
:103FA00098F84020012898BF4DF03AB980B54CF000
:103FB000AFFB002080BD00007CB50446784890F837
:103FC0009400C0060CD548480DF107021021234685
:103FD00005682520A8479DF80700002800F082808A
:103FE000714E42484249434AC6E90021B06013F08D
:103FF000CDFC01F007F80168054619B12A8B0020B5
:1040000013F000FE696819B16A8B012013F0FAFD04
:10401000E96819B1EA8B022013F0F4FD002002F0E8
:104020001DFF002053F03CFE002002F04BF9002061
:1040300002F02EFB06F10C004CF066FE54F040F846
:10404000002005F06FF9002004F02AF92A480068E2
:104050000168002088470146002006F067FC002028
:1040600008F0F8F853F028F9DF484FF4C6714030F3
:10407000FCF7EFFC002053F0F1F8002000F020FDE9
:10408000002054F08DFC002055F03EFB002054F041
:104090005FFF002054F08AFA002055F083FE0020D4
:1040A00002F0F6FAB4F1A53F03D0C4B1B4F1C33FB6
:1040B00003D1204603F034F811E041F20210002150
:1040C00010220123012613F0BFFD0546B4F1F23F93
:1040D0000CBF2E704CF01CFB284610F0DDF9074891
:1040E000006880477CBD00BFECE44020C9A6050005
:1040F000E1A60500D5A6050088E5402068E440203B
:104100001CB5B74890F89500C0060AD5BA480DF11D
:1041100007024FF480510368252098479DF8070057
:10412000E0B3FCF75BFB04461E48006880470120B3
:1041300002F0C8F8012002F0ABFA012005F0F2F815
:10414000012004F0ADF8012008F084F8012053F0BC
:10415000A7FD53F0D1F8A4484FF4C6714030FCF7E6
:1041600078FC012053F07AF8012000F0A9FC01202E
:1041700054F016FC012055F0C7FA012054F0E8FE77
:10418000012054F013FA012055F00CFE13F0ECFA64
:104190000548C06880472046FCF724FB1CBD00BFD3
:1041A00028EC402058E440209CE940202DE9F043D1
:1041B00085B0DFF8E48E98F89B00C0070CD08948E2
:1041C0006A464FF0807103682620984704469DF8A0
:1041D0000000002800F00081834E3068C10705D13F
:1041E00013F0D6FD002800F0F6803068002840F07B
:1041F000BE80B56A3069B6F82C90B5F1FF3118BFB2
:104200004946421C10D06A1C0AD0421B774B22F050
:1042100070429A4204D8A84207D1B28A914204D986
:10422000B6F81490054600E089467068411C26D017
:104230006F49097801443089A0F5876000B2B0F178
:10424000FF3F0ADC6FF41C7240F2712390FBF2F224
:10425000013202FB030092B2891A21F070426B1CFA
:104260000AD0491B614B21F07041994204D8AA42FF
:1042700007D181B2894504D91546814601E0681C01
:1042800029D0684653F0C6FF009858492F1A27F0E6
:1042900070448C426BD8854205D11FFA89F0BDF875
:1042A0000410884263D998F89B0000070BD5514849
:1042B00003AA4FF00061234605682620A84705465B
:1042C0009DF80C00E0B34CF099FF38B1B8026421BE
:1042D000B0FBF1F534E0D6F8CC414FE04CF086FF6E
:1042E000054698F89A00400609D5434803AA4FF4BA
:1042F00080010368262098479DF80C0060B10420D7
:1043000003A90DF11202ADF812000220FDF784FDA1
:10431000039808B1C6F8D801A4FB050143F698221A
:10432000A0FB024001FB020553F010FE02462046AE
:10433000294600230027FCF721FB851F38BF3D4697
:104340001FFA89F0BDF80410884205D2081A4010FF
:1043500054F0AEF8281A04E0401A401054F0A8F8BF
:104360002844D6F8D41111380131884201DA0124E9
:1043700032E0D6F8CC41A04238BF044606F078FCC3
:1043800048B31E481E4D046098F89B00800709D56D
:1043900019486A464FF000710368262098479DF837
:1043A000000060B1174800683062D5F8F40370620D
:1043B0002868F061002028604FF0FF30A8600224D8
:1043C0004FF0FF302C60A860022053F05BFE0E48D7
:1043D000406B804700E00024E0B205B0BDE8F08308
:1043E00028EC402008E54020B0F84020FEFFFF0701
:1043F00094FA4020E8E440200CE5402030000440DE
:10440000180009400C080940A8E940202DE9F041B6
:104410005E4D297801291CBF0120BDE8F081411EB5
:10442000C9B28E2925D856F061F910B36C68012104
:1044300090F801802D89E18004F10807A688417871
:1044400001440231CA1B93B2B34205D8B21A130415
:1044500002D092B2FCF7D6FAA6EB0800861EB1B2E3
:104460007818691AFCF7F5FA0020A680E080BDE80C
:10447000F0810220BDE8F081B0B50D4643490978CE
:1044800001291CBF0120B0BD411EC9B28E290CD824
:10449000144656F02BF940B141782970811C4278BE
:1044A0002046FCF7AFFA0020B0BD0220B0BD00BF2F
:1044B00010B5364C2181606056F0DAF800B110BDBD
:1044C0000121217010BD00BFF8B5304F0646387885
:1044D00001281CBF0120F8BD701EC0B28E2884BF09
:1044E0000220F8BD304614460D4656F0FFF868B17C
:1044F00041787E68A9420FD1012102302A46F1801D
:104500002146FCF77FFA0020F080F8BD30462946AE
:10451000224656F091F8F8BD07D2B3883A892B4469
:10452000591A9142C4BF0320F8BD064906780968AC
:104530003046884730462946224656F07DF800200E
:10454000F8BD00BF70E4402070B5104E05463078CD
:10455000012805D10C463189A1F10800A04201D201
:10456000012070BD7068FCF774FA56F081F800B154
:1045700070BD7668012029462246F08006F10800C9
:10458000FCF740FA0020B480F08070BD54EE40206B
:1045900070B50446406CB8B1218ACA0717D18807A4
:1045A0001AD5FCF71BF904F114060546304652F003
:1045B000A7F8304651F078FF208A20F002002082D0
:1045C0002846FCF70FF907E06FF015050EE02146CD
:1045D00052F0D8FB054648B9FCF700F9218A0025BE
:1045E000656421F001012182FCF7FCF8284670BDCA
:1045F000F8B50E460446FCF7F1F80546308AC007C8
:104600001BD1A068B04218D030464EF092FAD4E9DF
:104610000107016831604E60318A0660706028468B
:1046200041F001013182FCF7DDF827B9E06A51F071
:10463000CBFB50F05BFC0020F8BD2846FCF7D2F81D
:104640006FF00600F8BD0000044620B91C481DA10B
:1046500039224CF083FE04F10C054FF0000820686D
:10466000A04205D151F0F2FB51F0E2FC50F03EFCCB
:10467000FCF7B4F82768064638464EF05AFA388AEE
:10468000A76020F0010038823046FCF7ABF8D7E98C
:10469000022138469047FCF7A1F8C4F80880FCF7DF
:1046A000A1F84DF013FD284650F0A8FE023003D1CA
:1046B000284650F0DDFDF6E74DF014FDCFE700BFD2
:1046C00049FC05005F776F726B71756575655F7486
:1046D00068726561645F656E7472790070B50446D6
:1046E00090F82C0001281ED020BB002594F82D2026
:1046F0000123012684F82B50C4F82750C4F8235016
:10470000C4F81F508878A07700F03F000988104354
:104710002246A077204622F81C1FA16900F0D2FA99
:1047200084F82C6009E0A07F01254871A08BA1F8D6
:10473000030002E04BF0ECFF0025284670BD70B589
:104740000E4602211C46154613F01EFA4461C0E9CC
:10475000016570BDF0B589B0044690F8322090F83C
:104760003300904216D2228E04F120051023A2EBD2
:104770000010A2690244284600F0C0FAE169204610
:104780002A46012300F09EFA94F83300013084F8A1
:10479000330072E0FD280BD8FE20102284F833008D
:1047A00004F12000FCF72EF9E169354A204661E06A
:1047B000FF2801D1012061E0FF2005AA258E84F8A1
:1047C0003300084691F90F60114600F067FA05F0D2
:1047D0000F05B6F1FF3F05DC9DF8140080F087005F
:1047E0008DF814005DB305A89DF92360014600F023
:1047F00055FAB6F1FF3F05DC9DF8140080F0870004
:104800008DF8140001A885F00F034FF0000C4FF055
:10481000800E0026411B00F10F021031102E17D020
:10482000AE4203D2A769BF5D8F5505E0B54214BF04
:1048300082F800C000F803E0013A0136EEE794F890
:1048400032000028CFD0A16901A81022FCF7DAF8C5
:1048500001AD05AA10232846294600F04FFA04F1BD
:104860002006294610233046324600F047FAE16917
:1048700020463246012300F025FA002009B0F0BDA1
:1048800054C3050010B50124038680F83340C0E905
:10489000062103F10F0100220909C0E90922C262C1
:1048A00080F83210014641F8202FBDE81040FFF794
:1048B00051BFF8B51E46069B0C460546BAB13820D6
:1048C00000213246FFF73BFF00F118070646294654
:1048D00010223846FCF796F806F1280521461022EA
:1048E0002846FCF78FF8304639462A4606E018205D
:1048F00000213246FFF723FF29462246002301B05C
:10490000BDE8F04000F0DEB9F8B51E46069B0C4647
:104910000546BAB1382000213246FFF710FF00F1FA
:1049200018070646294610223846FCF76BF806F1B0
:104930002805214610222846FCF764F830463946FF
:104940002A4606E0182000213246FFF7F8FE2946E5
:104950002246012301B0BDE8F04000F0B3B90000E9
:1049600070B50D460E4906463020FFF7E8FE80F888
:104970002D508661044600F11C051C262C2E04D007
:10498000FCF72EF8A0550136F8E7A16920462A4623
:10499000012300F097F9002084F82C0070BD00BFBF
:1049A000DD460000F8B50C460C4905464820FFF7E7
:1049B000C6FE0646206829461022344606F138070E
:1049C00044F8340F3846FCF71DF830463946224685
:1049D000042301B0BDE8F040FFF754BFE1490000F7
:1049E000FFF7B8BEF8B50C460E4905465420FFF750
:1049F000A6FE00F144070646294610223846FCF779
:104A000001F806F13405214610222846FBF7FAFF8B
:104A1000304639462A46102301B0BDE8F040FFF782
:104A200031BF00BF294A0000FFF794BE2DE9F041D5
:104A30001F460D461249069B904606465C203A46A4
:104A4000FFF77DFE00F13404074631461022204670
:104A5000FBF7D8FF07F14406294610223046FBF742
:104A6000D1FFD8F800003146224610237865002097
:104A700087F858003846BDE8F041FFF703BF00BF94
:104A8000854A000070B50D460446FFF763FEA0B1ED
:104A900094F85810012001B170BD04F1440684F867
:104AA0005800294610223046FBF7ACFF04F15402AF
:104AB000204631460423FFF7E5FE002070BD0000CC
:104AC00010B540B18C4C206828B1204601F001FDA2
:104AD00012F05CFEF7E7884C204601F0C0FC002095
:104AE000207210BDF0B589B00D460446002701AE16
:104AF000082F05D0FBF774FF46F827000137F7E7CA
:104B000006F110013046012223460095FFF7FCFE16
:104B100009B0F0BDF8B5784F06460C46384601F0AE
:104B2000D8FC396805460020387231B101200122D5
:104B30003872D1E9030152F035FC9DB156B1AB6832
:104B40001BB16A693046214698472846BDE8F840BF
:104B500012F01CBE6A68002AF1D028462146904710
:104B60000028ECD1F8BD00BF13460A464021FFF7EC
:104B7000F7BE00002DE9F8430646402099468846D6
:104B80002249089B15460022002700EB0610FFF77C
:104B9000D6FD0446C0F818903E3032014146FBF77E
:104BA00031FFA888296884F83D60C4F82F70C4F8E4
:104BB0003370C4F8377084F83B70A046DFF8D890A3
:104BC000E1612084687984F82E00B5F80300751E31
:104BD00028F82C0FFEB2B54209DD04EB0610494659
:104BE00010223E30FBF753FF08B90137F2E704EB20
:104BF000061084F83C704246012300F13E01204635
:104C000001B0BDE8F04300F05DB800BF114C0000FA
:104C10002DE9F84300F11C08054603224046FBF746
:104C200036FF10B395F83C4095F83D60DFF868908A
:104C30000134E0B2B04216D205EB00104946102212
:104C400000F13E073846FBF722FF0028F0D005F1BF
:104C50002C0228463946012385F83C4000F032F802
:104C60000020BDE8F88385F83C40AC6984B195F834
:104C70003C1095F83D306A6905EB011099424346B6
:104C800000F13E0000904FF01F0038BF0020A04709
:104C90000120BDE8F88300BFF6C3050010B500226F
:104CA00012F10F0309D083189C7BDB7BE40944EAF3
:104CB00043038C18013AE373F2E700784000087070
:104CC00010BD00002DE9F0410B4F04460E469846FA
:104CD00015462146384601F006FCC4E90365387ADA
:104CE00008B1BDE8F08101202946424638723046BD
:104CF000BDE8F04152F056BBF0E94020B0B5013BB1
:104D00005BB2002B04D4CC5CD55C6C40C454F6E799
:104D1000B0BD704710B5064C2068400006D4012095
:104D2000FDF768F9206840F08050206010BD00BF9A
:104D300010F000404CF0D8BB4DF0F0B92DE9F04731
:104D4000ACB04FF000090BAD884604462C21C0F8EA
:104D500028902846FBF77DFE6E462C213046FBF757
:104D600078FE21AF214624223846FBF74BFED4F8CB
:104D700024A016AC3A492422CDF8AC902046CDF8B8
:104D8000A8A0FBF73FFE0820CDF880901F900120DF
:104D9000CDE91300CDE90890BAF1000F0ED13BE048
:104DA000384602F0CBFA9DF84C00C00703D12846E4
:104DB00002F0C4FA02E02846FCF7CEFB9DF8A400FE
:104DC000C007EDD00DE0204602F0B8FA9DF82000B3
:104DD000C00703D1304602F0B1FA02E03046FCF7DA
:104DE000BBFB9DF87800C007EDD03846214611F096
:104DF000BFFE30B138462146FEF782FC28463146D8
:104E000005E020463946FEF77BFC30462946FEF792
:104E100097FCDDF8A8A0BFE70A9868B16C46204669
:104E200055F002FF404621462422FBF7EBFDDDE969
:104E30000910C8F824100EE00948694611F080FEF8
:104E40000028EBD0694640462422FBF7DBFD099899
:104E5000C8F824000020C8F828002CB0BDE8F0876E
:104E600064C305007CB516460D4601AA012104461F
:104E700042F09CF900B17CBD0198817E01F00301F4
:104E80000229F8D1EA8847F6FE73B11A89B299422D
:104E900002D84078282108E0691C204630F088F8C4
:104EA0000028E8D001982421407831F0E3F87CBD57
:104EB000BCB514460D4601AA012142F077F900B1B4
:104EC000BCBD0198817E01F00302022AF8D16B88F3
:104ED00041F003016A788176E11A47F6FF7389B2DF
:104EE000994238BF28224078D1B231F0C3F8BCBD16
:104EF000E0B5694890F8A000C00709D053480DF10B
:104F0000070201210368282098479DF8070010B187
:104F10000148006880478CBD4CE440201CB5034626
:104F20005D4890F89400C00709D009480DF10702C8
:104F3000012104682520A0479DF8070030B1054CE9
:104F40002068804761684FF0C33088471CBD00BFB0
:104F5000ECE4402018E44020E0B54F4890F8A00071
:104F6000800706D539480DF1070202210368282081
:104F700098478CBDE0B5484890F8A000400709D597
:104F800046480DF1070204210368282098479DF840
:104F9000071019B14248006840F380108CBD00BF73
:104FA000BCB53D4890F8B400400709D527480DF13D
:104FB0000702042103682D2098479DF8070090B14F
:104FC000094C2568E80308D54FF480306060202044
:104FD000216D52F0D1FF4BF09BFB280603D58020BA
:104FE000606039F079FABCBD10080940064890F9B4
:104FF0002400704770470000014603482822FBF751
:1050000001BD00BF0048704700EB40207047000022
:10501000E0B5214890F8A000000709D50B480DF134
:10502000070208210368282098479DF8070060B10F
:10503000074802681AB107482021FDF789F8064899
:105040004BF062FE0548006880478CBD0CE54020AF
:1050500004E7402028EB4020A8E9402084E44020D9
:10506000E0B50D4890F8A000C00609D50B480DF139
:10507000070210210368282098479DF8071051B1B6
:1050800007480068400644BF4FF0FF308CBD05481C
:105090000068804700208CBD28EC402008E54020B7
:1050A0004000044088E44020F8B5424F04460846DA
:1050B00016460D46B847C10EA171C0F3CB31A18091
:1050C000C0F380316FF39F302080A17028794009B0
:1050D0002072287900F01F00E0716879A979EA79D7
:1050E00040EA012002F00F011309237440EA014055
:1050F000E060287A697AAA7A40EA012002F00F017A
:105100001309237640EA01406061E87A607605F190
:105110000D00B847A06205F11100B847010D6FF30B
:105120001F506184E061687DA97D40EA0120E08430
:10513000D5F81700E062E87E00F01F0084F8300028
:10514000E87E5F2807D81C49002701EB5010407803
:1051500084F8240000E01127E869212EC4F831000A
:1051600095F8200000F07F0084F8350095F82000C5
:105170004FEAD01084F8200014D0392E16D1012027
:10518000102284F83600D5F82100D5F82510C4F88F
:105190003B10C4F8370004F13F0005F12901FBF78B
:1051A00031FC04E0002084F8360000E01E27384679
:1051B000F8BD00BF1366000014C40500B0B5FBF7CE
:1051C0000DFB0546F248103001F083F904462846ED
:1051D000FBF708FB002C14BFA0880020B0BD00BF67
:1051E000DC49C98A401AF24900EB1060C0F307207D
:1051F000096C01EBC0007047B0B5D649C98A401AA6
:1052000000EB1060C0F30725FBF7E8FA0446F54809
:10521000016C103001EBC50101F065F92046BDE8D5
:10522000B040FBF7DFBA00BFB0B5FBF7D7FA0546D1
:10523000F248183001F04DF904462846FBF7D2FA3F
:10524000002C14BFA0880020B0BD00BFB0B5E44959
:10525000098A401A4FF4FE7190FBF1F0C5B2FBF7DA
:10526000BDFA0446F748416C183001EBC50101F066
:105270003AF92046BDE8B040FBF7B4BA2DE9F04159
:10528000002853D0F648816BED4DF54CB34FA889FB
:10529000EA89101A242290FBF2F320460822B8472C
:1052A000A88AE98A4FF482760822081AE16B90FBFB
:1052B000F6F304F10800B847E88A298B0822081A97
:1052C000216C00EB1060031204F11000B847288A2B
:1052D000698A0822081A4FF4FE7190FBF1F3616CA1
:1052E00004F11800B847A88BE98B0822081AA16CB2
:1052F00090FBF6F304F12000B847288B698B082255
:10530000081A202190FBF1F3216D04F13000B84719
:10531000688BA98B0822BC46081A0C2190FBF1F37C
:10532000E16C04F12800BDE8F04160474BF05AFF02
:1053300020B981A082A187224CF010F8E24CA06B2A
:1053400008B112F023FAE06B08B112F01FFA206CDA
:1053500008B112F01BFA606C08B112F017FAA06CD9
:1053600008B112F013FAE06C08B112F00FFA206DD8
:1053700008B112F00BFA20465421FBF76AFBD14D1D
:105380004FF02408744FA889E989081A002190FB7E
:10539000F8F0C000B847A063A88AE98A4FF4827683
:1053A000081A002190FBF6F0C000B847E063E88AD5
:1053B000298B081A002100EB10600012C000B847CA
:1053C0002064288A698A081A4FF4FE7190FBF1F074
:1053D0000021C000B8476064A88BE98B081A00213F
:1053E00090FBF6F0C000B847A064688BA98B081A40
:1053F0000C2190FBF1F00021C000B847E064288B3D
:10540000698B081A202190FBF1F00021C000B847F9
:105410002065A889E989081AA16B90FBF8F002B20F
:10542000012A0ADB0138AE8982B200EBC00301EB2E
:10543000C20206EB83039380F1E7A88AEA8A101A76
:105440004FF4827290FBF2F0E26B03B2012B0BDBA4
:105450000138AF8A00EB801683B207EB860602EBB9
:10546000C30305369E80F0E7E88A2A8B101A226C67
:1054700000EB1060001203B2012B08DB0138EE8A4A
:1054800083B206EB002602EBC3039E80F3E7288A73
:105490006A8A101A4FF4FE7290FBF2F0626C03B24B
:1054A000012B0ADB01382F8A83B2C0EBC01602EB56
:1054B000C30307EB86069E80F1E7A88BEA8BA36CFB
:1054C000101A4FF4827290FBF2F2501E03EBC202EC
:1054D000023A431C012B0ADB00EB8013AE8B1070E9
:1054E000013806EB830322F8023C083AF1E7288BE7
:1054F0006A8B101A202290FBF2F0226D03B2012B6E
:1055000008DB01382E8B83B206EB401602EBC30397
:105510009E80F3E7688BAA8B101A0C2290FBF2F0A6
:10552000E26C03B2012BFFF6AFAE013883B202EB9F
:10553000C3031871F5E700BF726F6D5F63666700A4
:10554000626C655F7574696C5F6275665F696E69D0
:10555000740000000CEE4020897B0100B364000061
:1055600080B55948203000F0B4FF002814BF80797E
:10557000FF2080BD5449896C01EBC00080887047D2
:10558000514A916C01EBC00102F1200000F0ABBF69
:10559000FCE94020B0B5FBF721F904464A4800F089
:1055A00098FF05462046FBF71DF92846B0BD00BF11
:1055B000FCE94020B0B543498989401A242190FB79
:1055C000F1F0C5B2FBF70AF904463F48816B01EBE5
:1055D000C50100F088FF2046BDE8B040FBF702B9E6
:1055E0000CEE4020FCE9402080B53748083000F040
:1055F00070FF002814BF8088002080BDFCE9402097
:1056000070B53049304E898A401A4FF4827105389E
:1056100090FBF1F0F16BC0B201EBC005FBF7DEF8D7
:105620000446A8883BF0E6FE20B906F108002946AA
:1056300000F059FF2046BDE87040FBF7D3B800BF2B
:105640000CEE4020FCE9402080B51F48303000F0CF
:1056500040FF08B1808880BD4BF05AF8002080BD23
:10566000FCE940201749184A098B401A202190FB79
:10567000F1F0116DC0B201EBC00102F1300000F099
:1056800032BF00BF80B51048283000F022FF08B1BB
:10569000007980BD4BF03CF8FF2080BD09494A8B62
:1056A000898B891A0C2291FBF2F18142D8BF4BF011
:1056B0002FB8054AD16C01EBC00102F1280000F0BF
:1056C00012BF00BF0CEE4020FCE94020B0B5094BF2
:1056D00000210422B2F1FF3FDCBFC8B2B0BD845C40
:1056E000013A250904F00F041C5D5D5D2144294445
:1056F000F0E700BF78ED0500032907D8DFE801F0E7
:10570000020B0F14502101EBC000704780B54AF026
:10571000FFFF002080BD2C2101EB800070474FF47B
:10572000347101EB801070474FF4E77101EB00100A
:105730007047000010B50E4C022020710D4820600B
:1057400004204BF049FD80780238E07114204BF0C2
:1057500043FD0021A4F8051080780238207220460D
:105760004BF06AFD4AF082FEBDE810404BF016B9DE
:10577000D4EA40200201060380B54CF0BDFEFCF7E0
:10578000E4FA40B900204BF069FDC8204BF05AFD07
:1057900002204BF067FDFFF7CDFFFCF701FE002074
:1057A000FFF7BCFB002080BD26490862704700BFA0
:1057B000F8B5064601F128000C464DF0C3F9054640
:1057C00028B91F491CA040F28A224BF0C7FD05F101
:1057D0000800314622466C60FBF714F9194F07F1B7
:1057E0001406FAF7FBFF044630463668002EFBD15C
:1057F0000560B86800262E60C8B1B96931B110499A
:1058000011A040F292224BF0A9FDB868F96855F05A
:10581000FBFAF968884208D13A680026BE6032B1C6
:10582000786800210026904701E04FF0FF362046BF
:10583000FAF7D8FF3046F8BD735F6C6973740000E7
:105840003FF6050058FC4020656E762D3E6375726C
:105850005F6C697374203D3D204E554C4C00000038
:1058600070B51148944C00F1200600F57B7100F5ED
:10587000077200F1500300F14005C4E900060B482F
:10588000C4E90253C4E9042100F0E0F82068E168AB
:105890004FF4E6724FF0AEF9606821694FF4E6729A
:1058A0004FF0A8F9002070BD00E040207D590000B5
:1058B0004901400141EA0211009A41EAC301114342
:1058C000024A01F580311150704700BF200609409F
:1058D0001204400142EA0151009A41EA03111143C6
:1058E000064A1150704700BF090441EA00500349BD
:1058F00040EA021018430860704700BF24060940C0
:10590000BCB51B4890F8B800400709D519480DF1FF
:105910000702042103682E2098479DF8070028B34A
:10592000154C54F8045CE80308D54FF4803020602F
:105930004020E16C52F020FB4AF0EAFEA80405D5B5
:105940004FF400502060002022F096FD680405D539
:105950004FF480402060012022F08EFD280405D500
:105960004FF400402060022022F086FDBCBD00BF45
:1059700028EC40200CE540201404094070B586B0A6
:105980000546044615F8040B032811D0022815D04B
:10599000002855D1484EB0684189B1F5FA7F27D12A
:1059A00000210022062A23D020F812100132F9E744
:1059B0004148806801890131018141E03E4E01ADDD
:1059C0002846746913F07EFF204629461422FBF70F
:1059D00019F830684FF044FA70684FF041FAB06837
:1059E00000210022062A2BD020F812100132F9E7FC
:1059F00030684EF0E1FF0146287801440431B1F5EA
:105A0000E67F0ED83068294604224FF00FF930683F
:105A1000A16822794FF00AF9207900F01DF8B068EA
:105A200005E000F019F8B068C1880131C1804189F2
:105A300000220023013141810021B06911F010F8EA
:105A4000002006B070BD00BF00207047014908600B
:105A5000704700BF50EA40207CB504468DF8000036
:105A600001202146FFF766F9134E05460190706844
:105A70004EF0A2FFA04208D228462146FAF7E9FFDD
:105A8000B06881880131818004E07068294622462F
:105A90004EF0C8FF684613F099F8022804D0012898
:105AA00006D1B068023000E0B068018801310180A1
:105AB0000198FFF741F97CBDE8E64020E548083051
:105AC00000F007BD70B5DB49E24E898F401A40F205
:105AD0000441053890FBF1F0F169C0B200EB4000E1
:105AE00001EB8005FAF77AFE0446288922F012FCC1
:105AF00020B906F10800294600F0F5FC2046BDE873
:105B00007040FAF76FBE00BFB0B5FAF767FE054602
:105B1000ED48103000F0DDFC04462846FAF762FE3E
:105B2000002C14BF20890020B0BD00BFDD49C98F03
:105B3000401A40F2044190FBF1F0F149C0B2096A09
:105B400000EB400001EB8000704700BFB0B5EB49AF
:105B5000C98F401A40F2044190FBF1F0C0B200EB53
:105B60004005FAF73BFE0446F448016A103001EBA9
:105B7000850100F0B8FC2046BDE8B040FAF732BE1F
:105B80002DE9F843B0B34BF02DFB20B95CA05EA12A
:105B90007F224BF0E3FB574C606A18B111F0F6FD21
:105BA00000206062A169544D524C5C4FE88D2A8EF2
:105BB000101A182290FBF2F320460822B847A88F4B
:105BC000E98F40F204460C22081AE16990FBF6F3D3
:105BD00004F10800B847E88FB5F840100C22BC4625
:105BE000081A216A90FBF6F304F1100001B0BDE839
:105BF000F0436047DFF8FC80D8F8180008B111F0D6
:105C0000C5FDD8F81C0008B111F0C0FDD8F820007F
:105C100008B111F0BBFD40462821FAF71AFF364DB6
:105C20001826DFF8D8900027E88D298E081A002161
:105C300090FBF6F0C000C847C8F81800A88FE98F9D
:105C400040F20444081A002190FBF4F000EB4000FD
:105C50008000C847C8F81C00E88FB5F84010081A43
:105C6000002190FBF4F000EB40008000C847D8F81A
:105C70001810C8F82000081DEA8D2B8E9B1A93FB84
:105C8000F6F39F4207DA07EB470302EBC30220F863
:105C900037200137F0E7D8F81C00002340F2044613
:105CA00000F10802AF8FE88FC41B94FBF6F4A34207
:105CB00008DA03EB0320013307EB8000053022F8FC
:105CC0000C0BEFE7D8F82020002340F20444083200
:105CD00086B2B5F84070BE1B96FBF4F6B342BFF631
:105CE00062AF03EB0326013300EB860022F80C0BB6
:105CF000E88FEDE754EA40200CEE4020897B01005C
:105D0000726F6D5F6366670062745F7574696C5F64
:105D10006275665F696E697400000000B36400001C
:105D2000864800F0D6BB00BF8649C98D401A1821AD
:105D300090FBF1F0C1B28148826902EBC10100F031
:105D4000D2BB00BF10B57D4901EB800454F8240F8D
:105D500018B111F01BFD0020206010BD2DE9F84F97
:105D6000064601EB410003EB430B884600219A46AF
:105D70001446850005EB8B001C3011F005FF07462B
:105D80006E48002F00EB860047624ED007F11C01E1
:105D9000DDF828900C2243464819C7E9041038461C
:105DA00000F087FB796907F108000C22534600F0E8
:105DB00080FB4FF4076004F1030E009406FB00FC27
:105DC00020462EF0030300265E486146B54208D007
:105DD0003C69B0F8402034440A4419440C36A2808F
:105DE000F4E74FEA9E0109F103034FEA8B02002515
:105DF00001FB08F123F0030304330CEB8101AA42F9
:105E000009D0B0F840607C690E442C4419440C352C
:105E10000436A680F3E7009887F81B9087F81AA04D
:105E200087F818807876BDE8F88FBDE8F84F4AF01B
:105E30006FBC00BF0CEE4020404A02EB8000406A7D
:105E400028B1C27E8A4224BF083000F042BB002045
:105E5000704700BF54EA4020384A02EB8002526A81
:105E6000F2B1374B00FB03103649537EB1F84010B6
:105E7000033323F00303401A117E03FB1100D17E8C
:105E80000731043821F0030190FBF1F05169C0B2F1
:105E900000EB400001EB800102F1080000F023BBA1
:105EA000704700BF0CEE402080B5244A02EB800012
:105EB000406A38B1427E8A4204D300F00AFB08B13E
:105EC000808880BD002080BD54EA40201C4A00FB31
:105ED00002111C4AB2F84020891A184A02EB8000CD
:105EE000406A427E0069033222F0030291FBF2F124
:105EF000C9B201EB410100EB810070470CEE40207C
:105F000054EA402002460D4800EB8200406AA0B1EE
:105F10000B4B02FB03110B4AB2F84020891A427E58
:105F2000033222F0030291FBF2F10269C9B201EBE4
:105F3000410102EB810100F0D6BA704754EA4020DB
:105F400090F7FFFF0CEE4020F0B52148016889036F
:105F500012D4BFF34F8F0021BFF36F8FC0F83C12F4
:105F6000BFF34F8FBFF36F8F016841F400310160C1
:105F7000BFF34F8FBFF36F8F0168C90326D4002191
:105F800043F6E07C0167BFF34F8FC26EC2F34E3120
:105F9000C2F3C9039A0701330CEA411516461F469E
:105FA00046EA050406F14046013FC0F84C42F7D1ED
:105FB0004C1E00292146EFD1BFF34F8F016841F4F9
:105FC00080310160BFF34F8FBFF36F8FF0BD00BF13
:105FD00014ED00E010B5D0E9021282EA0104A3B288
:105FE000002B18BF0123B4F5803F28BF022323B143
:105FF000012B04D1B0F9100010BD002010BD120C0F
:106000000B0CB2EB114F8FBFD01AD11AB0F91000A0
:10601000084410BD2DE9F843994615460F4604463D
:1060200028B92B482BA140F23D124BF097F920469E
:10603000FFF7D0FF20B3A368B4F910202168A8426D
:1060400038BF0546ADB2A2EB134201EB13411FFA74
:1060500083F81E0CAA4215D938462A46FAF7D2FC14
:10606000FAF7BCFB0746B9F1000F05D02046FFF751
:10607000B1FF401BC9F80000701948EA004020E059
:10608000002522E03846FAF7BDFCB4F91000811B68
:1060900078186A1A2168FAF7B5FCFAF79FFB0746E9
:1060A000B9F1000F05D02046FFF794FF401BC9F857
:1060B0000000218A7019401A4FF6FF7148EA00402B
:1060C0004840A0603846FAF78DFB2846BDE8F883C3
:1060D0009AF5050063697263756C61725F6275663B
:1060E0005F6765745F616E645F7570646174655F3E
:1060F0006C656E002DE9F04115468846044620B9CE
:106100001F4820A18C224BF029F9B4F910602046D9
:10611000FFF760FF301A010416D081B2A94238BFE0
:106120000546E7686068ADB2A6EB174200EB174082
:106130003E0CAA420AD941462A46FAF763FCB9B294
:10614000701941EA004016E0002515E04146FAF7D3
:1061500059FCB4F91000801B08EB00012A1A606892
:10616000FAF750FC218A7019401AB9B241EA00408E
:106170004FF6FF714840E0602846BDE8F08100BF5F
:106180009AF5050063697263756C61725F6275668A
:106190005F707574000000000160704770B51446B0
:1061A0000E46054620B90A480A496B224BF0D6F83C
:1061B000002C04DC084807496C224BF0CFF8002083
:1061C000C5E90160E86024F00300288270BD00BFCB
:1061D0009AF50500A5F5050091F5050010B50A4AE8
:1061E000002008494FF0FF33102808BF10BD51F8B8
:1061F000204042F8204001EB80040130C4F8803098
:10620000F2E700BF00E100E0C0F1402010B50C460D
:1062100002464FF488500021012311F015FD04704F
:10622000BDE810400EF038B9C088401AB0FA80F0CE
:106230004009704710B50022062A04BF012010BD96
:106240008B5C845C01329C421CBF002010BDF3E7D4
:106250000078BC4A010900F00F00515C105C084452
:10626000C0B27047114483180139984228BF704763
:1062700011F8012900F8012BF7E7114483180139BF
:10628000984228BF704711F8012900F8012BF7E761
:10629000B0B5534D05F1080000F01BF90446A8689D
:1062A00018B9434801680520884734B10020616867
:1062B00020602046BDE8B0400847B0BD0022C0E9DC
:1062C0000021704710B580B90D4C0E49032022689B
:1062D000904722680C490520904722680B490A2004
:1062E00090473F48103000F0BAF83D4C204600F08F
:1062F000B6F804F10800BDE8104000F0B0B800BFE7
:1063000030E44020856300009162000011630000CA
:1063100070B5FAF763FA324E054606F1100000F048
:10632000D8F80446306918B9214801680A2088471E
:106330002846FAF757FA34B10020616820602046F9
:10634000BDE87040084770BDF8B5254D04462146AC
:1063500005F1100000F079F860B955F8107FFAF7F0
:106360003DFA06462846214600F0BDF83046FAF7C9
:1063700039FA07B1F8BDE54801680A20BDE8F840E0
:10638000084700BFB0B5164D284600F0A2F80446F5
:10639000286818B9064801680320884734B10020EE
:1063A000616820602046BDE8B0400847B0BD00BF2E
:1063B00034E44020B0B50C46096801B1B0BD0849CD
:1063C00001EBC005296821B90649085CCF49096875
:1063D000884728462146BDE8B04000F084B800BF99
:1063E0007CEA4020EEC3050010B5002304461A469F
:1063F000236873B18B421C46F9D11346002A08BFAB
:1064000003460C681C6043688B4208BF4260012051
:1064100010BD002010BD11B113680B6002E00368CD
:106420001B6803604368934208BF4160704710B522
:106430000B46002908BF034614681C60436893425A
:1064400008BF41600020106010BD0068884218BF7E
:106450000028FAD1401AB0FA80F0400970470021B4
:10646000C0E90011704729B10B6803B9426013609D
:106470000A607047016809B1416800E001460A609E
:106480000021426011607047B0B561B1002305463C
:106490001C462B688B4202D0002B1D46F8D114B14C
:1064A00022601360B0BD016801B9426002601160F2
:1064B000B0BD6BB110B5013B016023B18C18013B3D
:1064C0000C602146F9E7416000200860BDE81040FB
:1064D00070470146006810B102680A6002B1704757
:1064E00000224A60704702680AB1426800E0024632
:1064F0001160002241600A60704703680BB1436875
:1065000000E0034619600021426011607047026894
:1065100002B9416001600A6070470000B0B5094BE4
:1065200000210922B2F1FF3FDCBFC8B2B0BD845CDC
:10653000013A250904F00F041C5D5D5D21442944E6
:10654000F0E700BF78ED050080B5FAF749FAC0B270
:1065500080BD80B5FAF744FAC0B280BD80B5FAF7C5
:106560003FFAC0B280BD80B5FAF73AFAC0B280BD3A
:1065700080B5FAF735FAC0B280BD80B5FAF730FAC7
:10658000C0B280BD80B5FAF72BFAC0B280BD80B52D
:10659000FAF726FAC0B280BD80B5FAF721FAC0B288
:1065A00080BD80B5FAF71CFAC0B280BD80B5FAF79D
:1065B00017FAC0B280BD80B5FAF712FAC0B280BD3A
:1065C00080B5FAF70DFAC0B280BD80B5FAF708FAC7
:1065D000C0B280BD80B5FAF703FAC0B280BD80B505
:1065E000FAF7FEF9C0B280BD80B5FAF7F9F9C0B28A
:1065F00080BD80B5FAF7F4F980B280BD01784278A9
:1066000041EA02218278C07841EA024141EA006011
:1066100070470178427841EA02218278C07841EAE5
:10662000024141EA0060704702090121012A88BF46
:106630000109084670470000BFB5044601A851F0A3
:10664000E9FD62480399114D42688B1A4FF47A7242
:10665000B3FBF2F202FB053305892B449DB20381A3
:10666000B5F57A7F22BFA3F57A7303810132C3683F
:10667000DD43AA4202D9057C0135057441609918B1
:10668000C1600069C4E90010BFBD00BF18FCFFFF76
:1066900010B586B070B94D4C00202074E0602081A8
:1066A00003A851F0B7FD05980849606006480268E4
:1066B0000720904745480021016001A8FFF7BCFF73
:1066C00000F006F806B010BD30E44020416700003D
:1066D0003E480C4902688AB1C3689268D21A012AFE
:1066E00008DB094B9A4209DC4FF47A715143B1F54A
:1066F0007A7F03D8054801680720084740680844A6
:1067000051F09CBE00E9A4359FBB0D0048E4402039
:106710002E4B002211461A6862B182421346F9D10B
:106720002A4A002918BF0A460368B1FA81F14909CB
:10673000136000E000214FF0FF320260084670470E
:106740007CB50F480168072088476C462046FFF754
:1067500073FF1E4D0026286868B18168009A891A67
:10676000002908DCD0E90012066029609047204625
:10677000FFF762FFEFE7BDE87C40FFF7A9BF00BF6E
:1067800034E440204FF0FF32C0E9002170470000A0
:10679000B0B50446006801300EBF00202046FFF768
:1067A000B7FF0A490022096829B18B68A568EB1A6E
:1067B00001D40A46F7E7054B002A18BF13461C60B0
:1067C0002160B2FA82F149090843B0BD94EA402041
:1067D00010B50446806821690844A0602046FFF790
:1067E000D7FF08B1FFF774FFE1682046BDE810400D
:1067F00008470000C16003494FF0FF32C0E90021A3
:10680000704700BFD1670000002908BF01216FF069
:106810000042914228BF11460161AFF30080BCB530
:10682000054668460C46FFF707FF00982044A8601D
:106830002846FFF7ADFF08B1FFF74AFFBCBD0029AE
:1068400008BF01216FF00042914228BF1146FFF7B7
:10685000E6BFE0B50168013109D0FFF759FF30B15B
:106860006846FFF7E9FEBDE88C40FFF731BF8CBDFD
:106870002DE9F04F87B0109D0292002902460E4686
:106880000746069518BF0121002818BF01222C7861
:106890003E2C06D03C2C01D1013506954FF0010A63
:1068A00003E001354FF0000A069533441140002003
:1068B0004FF0010C4FF0000B002401970591049359
:1068C00039460390297871B9BBF1000F00F00781B8
:1068D0000398013C5D46CDF818B0C0B28119404222
:1068E000013901EA0006BBF1000F02D0210600F0D9
:1068F000F68029783039092904D806A800F0FBF879
:10690000069D844605F1010901210320CDF8189068
:1069100095F80080A8F142020C2A2BD8DFE802F09B
:1069200055E840E8E85407E8E8E869E807001FFA96
:106930008CF0059A711C21F001014500002A6DD0F0
:10694000049A4E19964200F2D080BAF1000F04D09A
:1069500038462A46FAF756F861E0002800F0988099
:1069600031F8022B013812BA130C120E3B707A70F8
:106970000237F2E7B8F1530F06D0B8F16E0F24D00A
:10698000B8F1730F40F0B4800498554606F1010A3F
:10699000824500F2AA80B8F1530F42D1347846E024
:1069A0000599F01C20F00300002900F08080049A73
:1069B000011D8A42C0F099800168BAF1000F71D0C0
:1069C0000A0A3970090C70E0002105981FFA8CF54D
:1069D000002841D0049A7019904200F286804AEA59
:1069E0000100012833D1384631462A46FAF70AF821
:1069F00032E01FFA8CF08500F01C20F003010598AE
:106A0000002842D004984E1986426ED8BAF1000F81
:106A100051D038462A46F9F7F5FF37E04E192F4492
:106A200037E030466446FFF713FCA4460446059859
:106A300018B130783870DDF8189099F800003128D6
:106A400012D0342812D0322851D102210FE038461A
:106A500031462A46FFF706FC2E442F44B8F16E0F4C
:106A60001DD116F801CC24E0012100E004210AEB3D
:106A7000010009F1010B039149420137AA4601388F
:106A8000CDF818B000EA010613E04E192F4406E0D5
:106A90000E46B8F14E0F02D136F802CC09E04FF0A5
:106AA000010C06E00A0C3A700A0A7A70B9700337D2
:106AB000061D069D06E700203A1885420AD00B58AD
:106AC00004301BBA1E0A137056701E0C1B0E9670F3
:106AD000D370F1E70E184FF0010C1746E9E7019863
:106AE0000299381A0880002002E0012000E003200B
:106AF00007B0BDE8F08F01684A1C026009783039A0
:106B00001378303B092B84BF88B27047531C01EBCC
:106B100081010360127802EB41011A463039EFE738
:106B20002DE9F04F87B0DDF840A0019215880029CB
:106B300002460E46CDF818A018BF0121002818BF44
:106B400001229AF800403E2C07D03C2C03D10AF1D8
:106B5000010ACDF818A0012404E00AF1010A00247A
:106B6000CDF818A0029402EA010441193344012728
:106B70004FF0000B009005464FF0000803910146CE
:106B80000020059304909AF8000008B150460FE0E9
:106B9000BBF1000F00F02B810498A8F10108CDF89B
:106BA00018B0C0B229184042013901EA0005584620
:106BB000BBF1000F03D05FEA086100F01881017893
:106BC0003039092904D806A8FFF795FF074606982B
:106BD00000F1010A0121CDF818A090F800900320DF
:106BE000A9F142020C2A2CD8DFE812F05800020169
:106BF0003A000201020157000D00020102010201E8
:106C00006F0002010D00B8B2691C002C21F00101D7
:106C10004FEA400278D0059B2746B4189C4200F208
:106C2000F880039B8D189D4200F2F580029B002B9B
:106C300000F0A98008463146F9F7E4FE26463C46B6
:106C4000AFE0B9F1530F62D0B9F16E0F26D0B9F1B0
:106C5000730F40F0CD803046FFF7FAFA804658E0D7
:106C6000E81C002C20F0030000F0A780059AF11C1E
:106C7000914200F2C880039A011D8A42C0F0C5808B
:106C8000317873782546B278029C1B02002C00F004
:106C90008F80194341EA02418DE00021BFB2002CF0
:106CA00055D0059AF019904200F2AD80039AE81988
:106CB000904200F2AA8002980843012842D1284657
:106CC00031463A46F9F79EFE41E0B8B2002C4FEA51
:106CD000800205F1030020F0030150D00598A14681
:106CE000B418844200F2958003988D18854200F212
:106CF00092800298002863D008463146F9F782FE58
:106D0000264601274C463EE716448D1849E096F882
:106D100000805CB10599701C884274D80399681C86
:106D2000884272D830782870DDF818A09AF80000F0
:106D300001350136312813D0342813D0322866D1DA
:106D4000022110E0284631463A46FFF78BFA3E44CE
:106D50003D440127B9F16E0F08BF16F8017C12E718
:106D6000012100E0042168180AF1010A0491494256
:106D70000138CDF818A0D34600EA010503E7164410
:106D80008D180127FFE63C4650B132787378013800
:106D9000023642EA032212BA120C21F8022BF3E760
:106DA0000D460127B9F14E0F08BF35F8027CEAE61F
:106DB00043EA014111432C4601600336051DE2E61A
:106DC0000020331882420DD01C785D7844EA0524F7
:106DD0009D78DB7844EA054444EA03631BBA0B5010
:106DE0000430EEE70D1801271E464C46CBE6002086
:106DF0000099019A691A118005998E4288BF012075
:106E000007B0BDE8F08F0120F2E70220F0E7032091
:106E1000EEE7012000E002200D46E9E70A0A0170D2
:106E200042700A0C090E8270C17070470A0A017024
:106E300042700A0C090E8270C17070470A0A017014
:106E400042700A0C090E8270C17070470A0A017004
:106E500042700A0C090E8270C170704700B1704711
:106E60000149082011F046B800C205002DE9F04F95
:106E700089B0129F0546002099461646002200233D
:106E80000C4638602846FAF7CEF826EAE6714E2915
:106E9000A8BF4E21029118B9012084F00044386047
:106EA00006AA2846214654F0F7FADDE9068A834609
:106EB0000C460022002340465146FAF7CFF800283E
:106EC000CDF80C9040D14FF00009624E644D019412
:106ED0004046514600220023FAF7C0F8F0B9404678
:106EE000514600223346F9F7CFFF06AA54F0D4FAF0
:106EF0005A4A2B4607460C46F9F7ADFE00223346A8
:106F0000F9F750FFFAF70FF9139930304944A9F116
:106F1000010981F84F00DDE9068AD9E7CDE904745B
:106F2000DDF84CA0019FC9F100050020854208D082
:106F30000AEB0001494491F850100AF800100130A2
:106F4000F4E75E462C4622E0584621460022002304
:106F50000025FAF732F8E8B93E48DDF84CA00125E3
:106F600080463D48814658462146002243462746F2
:106F70005E46F9F717FF00224B4683460C46FAF7A8
:106F800037F8013D0028EED1CDE904B40024DDF846
:106F90000C9004E0DDF84CA027465E460024DDF8A6
:106FA00050B0C9F80050D046BBF1000FDDF808B072
:106FB00008BFAB44BBF1000F21D426490AEB0B08F4
:106FC00004AD89465C4515DC4F2C13D83046394654
:106FD00000224B46F9F7E6FE2A4654F05DFA0646D3
:106FE0000F46DDE90401FAF79EF830300AF8040094
:106FF0000134E7E7BBF1500F08DB0AF14F0800202E
:1070000088F80000504609B0BDE8F08F98F80000FD
:10701000149C039D31214246431D302088F80030E6
:10702000DBB23A2BEBD35245107004D912F8013D74
:10703000013313700BE011702B6803F101032B6017
:107040002CB9D04588BF88F8000008F101081378F2
:10705000E6E700BF000024400000F03FB81E85EBCB
:1070600051B89E3FBFB504462A4890F8D400C007E7
:107070000CD00A48CDE900120DF10F020121234680
:1070800005683520A8479DF80F1019B1B4F1F2003A
:1070900018BF1220C0B204B0B0BD00BFF8E4402059
:1070A000BCB504461B4890F8D40080070AD50A48AE
:1070B0000DF107020221234605683520A8479DF8F7
:1070C000070040B1204610F07FF920460FF098FDF0
:1070D000204649F02EFBBCBDECE44020BCB5044684
:1070E0000C4890F8D40040070DD50B480DF107026D
:1070F0000421234605683520A847002818BF012031
:107100009DF8071021B10548201AB0FA80F0400917
:10711000BCBD00BF28EC4020E8E4402030C505009D
:1071200010B504464FF4885000214FF61142012358
:1071300010F08AFDB4F1A53F04D0B4F1C33F03D1F0
:10714000002100E003210170BDE810400DF0A4B95A
:10715000B0B5424804258178C27803794479057135
:107160000025457141EA0221724A41EA0341536810
:1071700041EA046119400B0A8171C3710B0C03725F
:1071800003231160090E4570C37041726A4801689B
:107190000220BDE8B0400847FEB50546F9F71EFBE2
:1071A0002B4E0446F1680878552818D1708A776804
:1071B0004A1904323844824201D20F4603E0B268D1
:1071C0008A4208BFB7603978552908D17919043146
:1071D000814204D2B06887420CD281420AD330780F
:1071E00000250F281CBF013030702046F9F7FAFA4D
:1071F0002846FEBD280AF7607D70AA21B870281FB6
:10720000787139700121000A3971B871308A013002
:107210003082F871000A3872684650F0FBFF00981F
:10722000010A7872B972010CF972010E3973317862
:10723000090141EA1060387300203070F06828447A
:1072400007F10D05C11CF1605521C170CDE700BFEC
:1072500068E7402001480230704700BFB4EA402090
:10726000F8B5064633488078C00722D002F11000F6
:107270001C4615460F4680B2FFF78EFFC8B1390A8B
:107280008770012E2A46C1704FF0020105714170CE
:107290004FF0620108BF61210170290A4171063077
:1072A0002146F9F7AFFBE94801680220BDE8F84044
:1072B0000847F8BD70B506461E488078C00718D04C
:1072C00001F10F0014460D46FFF766FF88B140F24A
:1072D0006111867005712A460180310AC17005303E
:1072E0002146F9F78FFBD94801680220BDE87040BC
:1072F000084770BDF8B506460E488078C00717D01D
:1073000002F10E001C4615460F46FFF745FF78B107
:107310000421C570877006702A46417004302146EA
:10732000F9F770FBC94801680220BDE8F84008473A
:10733000F8BD00BFACEA402048E440200021002214
:10734000092908BF52F006BE50F821305FEA520208
:107350004FEA330240F8212003F001020131EFE748
:107360002DE9F04385B0DFF8C08298F89800C00797
:107370000AD0AE4801AA01210368262098479DF84B
:107380000400002800F04D81A94E7768B80603D5A7
:107390002020B06050F0DAFF780603D54020B060BE
:1073A00050F082FFF80769D00120A24CB06020782D
:1073B000C00702D152F0A0F860E098F89D004007A5
:1073C0000AD59A4801AA4FF480610368272098479C
:1073D0009DF80400002851D001A850F01BFF306830
:1073E00020F00100306098F89B0040070AD58F48D4
:1073F0000DF113024FF080610368262098479DF835
:10740000130040B1206A8C498C4A5050606AC6F81B
:10741000F403E06930606068411C0CD00199081ADF
:10742000874920F07040884283BF306840F02000D8
:10743000306050F08BFF2069411C0CD00199081A74
:107440007F4920F07040884283BF306840F04000A0
:10745000306050F029FFA06A411C0CD00199081A35
:10746000774920F07040884283BF306840F0800048
:10747000306050F0BDFF012050F0E4FD380603D528
:107480008020B06050F0B4FF380715D50820B060F8
:1074900098F89B00C00609D5644801AA4FF08051B6
:1074A0000368262098479DF8040028B1306820F032
:1074B0000800306051F00AFD380404D552F0ECF8B1
:1074C0004FF40040B060B80740F18A800220B060FD
:1074D00098F89D00C0070AD0544801AA4FF4807163
:1074E0000368272098479DF80400002878D0554865
:1074F0000468022050F0A6FD012050F0C3FD98F86A
:107500009A00C0070ED0504801AA4FF4803123469C
:107510000568484800F5E87000902620A8479DF8C7
:107520000410B1B349F06AFE68B1424904EBC400EB
:10753000D1F8D0211044C2B2C1F8D0213D2161431D
:1075400001EB102025E049F051FE054650F0FEFC0D
:10755000A4FB00014FF064090023A0FB090201FB1A
:10756000092105EB4502D200F9F708FA642200234D
:107570000446F9F703FA2F4900FB1942D1F8D0313C
:107580001A44642AC1F8D02103D3643A0130C1F807
:10759000D02140F27121B0FBF1F2514302F10043DE
:1075A000F362091A01F51C7189B2B16223490A68B4
:1075B00042F001020A60420800F001008A60C860DF
:1075C000B06940F00800B061306820F0E040306001
:1075D000306840F0010030600120B06003F044FBEF
:1075E00078071AD50420B06098F89900C00609D52C
:1075F0000E4801AA4FF480510368262098479DF851
:10760000040050B1042050F01DFD306820F004004B
:1076100030607C48016806208847F80644BF102087
:10762000B06005B0BDE8F08328EC40200CE54020B8
:1076300018000940B0F840204CFEFFFFC009094087
:10764000FEFFFF0734000440F0E4402048E44020FF
:107650002DE9F04F9DB0279C002C41D00F460646E7
:107660004FF434700121984615464FF0010A10F08E
:10767000ADFAB8B3DDF898904FF434718346F9F75A
:10768000E8F9CBE9014900200DF104095A4C3146D3
:10769000019009F10400A0470BF5B0703946A047EE
:1076A0000BF5BE702946A0470BF5CA701C21F9F7EF
:1076B000D0F948460121CBF898A101F0DEFB60B972
:1076C0000BF5AE750121284601F0D7FB28B90BF563
:1076D000BC70012101F0D1FB40B1584610F056F8C2
:1076E000122000E007201DB0BDE8F08FB8F1000FB8
:1076F00004D1284600F016FE0028EED00DF1040952
:107700000121484601F0CAFB044602980BF5017AB4
:10771000002600F00F073C488046301D0FB9A042FC
:1077200028D2F90701D1002117E007F00701A04294
:1077300038BFA7F110013A0758BF3946CA1D0E2AB3
:10774000CBD811F00102C8D07F1A102FC5D8012262
:107750004346BA4012EA080FBFD00AF8061081B2B9
:10776000484601F07CFBC000013600EB6707112F93
:10777000D3DBB2E7601C8642AFD8CBF8C8620BF10E
:107780000C06294654223046F9F73CF908AD54213D
:107790002846F9F75EF92846314600F00FFC00282C
:1077A0009BD0164808AD10F154040CD00BEB00012F
:1077B0002A4601F5D87001F5AE7100F08DFA002867
:1077C0002046F0D189E7304601F0AAFB00283FF4BB
:1077D00084AF01205946ABF8CD029BF8C8020138AE
:1077E0008BF8CC020648FEF77EFE8D48016801202A
:1077F0008847002077E700BFAB7F0000B0FEFFFFA7
:10780000C8EA402048E44020010101002DE9F04F82
:10781000ADF5057DDDF84092B9F1000F7ED0009006
:1078200038A80DF1880CDDF838820026002500F11B
:10783000040E0CF12C0B389642962D96229615F1DB
:1078400020040ED04C195719E469FF694EF8064020
:107850000CEB0604043667605F19043DFF6927637B
:10786000EDE76B4CA04722A8A0475846A0474FF031
:10787000000AB8F1000FCDF8DCA0CDF8B0A04FD1D0
:107880000DF104092C214846F9F7E3F87AAE2C21D2
:107890003046F9F7DEF86FA82C21F9F7DAF80DF584
:1078A000C8782C214046F9F7D4F859AF2C21384636
:1078B000F9F7CFF84EAC2C212046F9F7CAF843A8C7
:1078C0002C21F9F7C6F8534D584659464A46A84761
:1078D0000DF18809324648464946A84731466FAE01
:1078E00048463246A8474C4D484649464246A84776
:1078F00049464046DDF840923A46A8473046394668
:107900002246FBF7B7FE204643AC44492246A8472F
:1079100001A821462422F9F7BAF808B1122472E02E
:107920004FF4AA70022110F02FF90646C0F850A1BA
:10793000009801AF22A9242286F84C013846F9F7B5
:1079400061F82B9859462422CDF82CA00A9007F113
:107950002C00F9F757F836982421159007F15400B8
:10796000F9F777F806F18C0401253846CDF884A0A4
:107970002146CDE91F55FAF761F806F5887038A958
:107980002422F9F73FF8DDE94101C6E94D0106F18E
:1079900008002421F9F75DF806F130002421F56292
:1079A000F9F757F806F15C002821C6E91555F9F7F3
:1079B00050F83F20C6E9215AC6E951A0092070605D
:1079C00096F84C01022810D140F2BC70022110F050
:1079D000DBF80146C6F850012046FAF72FF80020E0
:1079E000C6F84801032086F84C018F983146C6F846
:1079F0003C91C6F84001A648FEF775FD08480024F2
:107A000001680020884720460DF5057DBDE8F08F10
:107A1000559F050009350000011500004CC4050004
:107A200048E440202DE9F041C2B0DFF864824046CE
:107A3000FEF74FFD002800F0E28005464068002870
:107A400063D095F84C01421E032A00F2D480D5F889
:107A500048019049DFE802F004028AA5D5F85011E8
:107A6000C0F1FF07C0F1BF0305F5887200F01F04E5
:107A700005F108067F095B0902EB870702EB830328
:107A80007F685B68E740E34007F0010763F3410765
:107A9000C0F17F035B0902EB83035B68E34003F003
:107AA000010347EA8303C0F13F077F0902EB870226
:107AB0005268E24002F0010243EAC202A2B102EBC4
:107AC000421021AF01EB800039468438F9F7B6FF48
:107AD0006C46384631462246F9F798FE2046314634
:107AE000F9F7ACFFD5F8480100286CD06C46304659
:107AF0002146F9F7C7FF20463146F9F79FFFD5F831
:107B000048010138C5F8480175E021AE58213046DA
:107B1000F8F79FFF05F1080006F12C023146FAF74D
:107B200071F8D5F8500108B10FF030FE311D002278
:107B3000684612F1080305D000EB820310C9013A30
:107B4000DC61F6E706F13001002212F1080305D0EE
:107B500000EB820310C9013ADC63F6E7D5E94F2058
:107B60006946904728460FF011FE48E005F18C0663
:107B700021AC30462146F9F785FF20463146F9F71A
:107B80005DFFD5F84801411CBF28C5F848111DD03C
:107B90007F2829D03F282ED1D5F8500100F184014B
:107BA00026E0C11E042954D8DFE801F00353333D19
:107BB0004900D5F8500100F1840100F58472F9F70D
:107BC00025FE05209EE70020686014E0D5F85001EE
:107BD00000F567713046F9F731FF0320C5F8480119
:107BE000042085F84C0106E0D5F8500100F5C67177
:107BF0003046F9F723FF26482946FEF774FCD8F8EB
:107C0000000018B9334801680020884742B0BDE839
:107C1000F081D5F8500100F5C67100F50472F9F74E
:107C2000F5FD06206EE7D5F8502102F1840002F53B
:107C3000C67102F52572F9F7E9FD072062E7D5F86C
:107C4000500100F5257100F54672F9F7DFFD0920B6
:107C500058E7A0F109010629CDD8D5F8503100EB3D
:107C6000401001EB411103EB800003EB8101A0F117
:107C7000840203F56770F9F7C9FDD5F848010F28AC
:107C800004D13F20C5F848010220AAE7013039E7B6
:107C9000C0EA40203CB6050010B50D4C0021246818
:107CA0005CB1A268824201D02146F8E7084822462A
:107CB000FEF7B1FB20460FF069FD0548006800B1F2
:107CC00010BD044801680120BDE81040084700BF0E
:107CD000C8EA402034E440202DE9F04F93B00E462E
:107CE0000546C420022191460FF04EFFC4210446F0
:107CF000F8F7AFFE4E4506D0304600F00FFB60B1FE
:107D0000284631460FE020460FF040FD2846314618
:107D100013B0BDE8F04F00F051B9484600F0FEFA4C
:107D200060B1284649465422F8F76CFE20460FF011
:107D30002DFD0125284613B0BDE8F08F04F18C001D
:107D400004F1540A04F11C0B039004F17000059037
:107D500004F13800049009F13800029001F06FF846
:107D600080B1B34504D0584631461C22F8F74AFE8C
:107D7000049806F11C0188421BD004981C22F8F7D5
:107D800041FE16E0DDF808802046414600F044FE42
:107D90005746DFF8DCA7584631462246D0472046F2
:107DA00021464246D047049806F11C012246D0479E
:107DB000BA4606F13807384601F041F8019788B114
:107DC000CA4504D0504649461C22F8F71BFE0598C8
:107DD00009F11C01D946884218D005981C22F8F7F1
:107DE00011FE13E02046394600F016FEDFF88087CA
:107DF000504649462246C047204621463A46C0479B
:107E0000059809F11C012246C047D946039F4946FF
:107E10005246384600F013FE002800F0B380DDE93A
:107E2000041204F1A80B584600F009FE002800F0E7
:107E3000A9803846012101F020F868B15846012197
:107E400001F01BF860B32846314600F0B7F805464C
:107E500020460FF09BFC6DE748464946524600F02D
:107E6000EFFB002800F08E800498059A014600F090
:107E7000E7FB002800F08680DDF80480404600F033
:107E8000DEFF0646029800F0DAFF7EB1A0B105F1F0
:107E90003800874224D039461C22F8F7B3FD1FE092
:107EA00005F138001C21F8F7D4FD3FE768B14445DF
:107EB00010D02046414604E0029884420AD002993C
:107EC00020461C22F8F79EFD04E0029A2046414617
:107ED00000F04BFD05F1380021463A4600F045FD23
:107EE0002046594600F098FD059E3946304600F080
:107EF00093FD50464946324600F037FD284621465C
:107F0000524600F09CFDE8B32046294600F094FC60
:107F1000C0B320465146224600F091FD90B31C4E5E
:107F2000204621465A46B047059938463A46B0475A
:107F3000049948463A46B047204621464A4600F052
:107F40007EFDF8B12079C00707D105F11C0021465C
:107F50000122012500F089FE7AE706AE214630466F
:107F600000F022FB70B130463146022200F07DFE67
:107F700005F11C00B0423FF4D9AE06A91C22F8F767
:107F800041FDD3E620460FF001FC0025D2E600BFFC
:107F90006B8900000022D2B2172A88BF704702F016
:107FA000FC03CB5883500432F5E70022182A08BF9F
:107FB00070478B5883500432F8E700002DE9F043F6
:107FC0009DB00DF158090D4604461C214846F8F7AE
:107FD00040FD0FA81C21F8F73CFD08A81C21F8F76C
:107FE00038FD01A81C21F8F734FD284600F096F969
:107FF00030B104F138001C21F8F72BFD0120A4E07A
:1080000005F13807384600F01AFFC8B116AE294608
:10801000304600F001FD0FA8314600F00DFC0028AD
:1080200000F0928016A80FAA014600F009FB002874
:1080300000F08A80464816A900F154020FA823E0F8
:108040000FAE3946304600F0E7FC16A82946324606
:1080500000F0F6FA002877D008A80FAA294600F009
:10806000EEFC002870D00DF13C0816AE08AA404680
:10807000314600F07AFC3046414600F0DDFB002836
:1080800062D00FA816A9024600F0DAFA00285BD0E9
:10809000384600F0D4FE05F11C0838B1C1450AD0BD
:1080A00016A841461C22F8F7ADFC04E016A841468C
:1080B0003A4600F05AFC04F1380016A900F0BCFB67
:1080C000002841D001AE4146304600F0A5FC08AF83
:1080D00029463246384600F048FC384639460222E6
:1080E00000F0CBFB80B316A808A900F0A5FB58B39D
:1080F0000FA9204600F090FC16AA2046214600F069
:108100009EFC08B316AD01AE2846314600F084FC53
:1081100030462946032200F0B0FBA8B116A808A9F2
:10812000224600F08CFC78B116AD0FA928462A46ED
:1081300000F01BFC04F11C0001AA294600F07FFCA2
:10814000002818BF012000E000201DB0BDE8F0832A
:1081500020C605001CB5049CCDE900340023FFF7C0
:1081600077FA1CBDF0B58DB01C4615460E46C8B159
:1081700012A130461822F8F745FC46480DF1040CD0
:1081800090E8CE004069ACE8CE000690434890E805
:10819000CE0040690C9007A8CEC001AA0021284655
:1081A000A04707E0304600F023F830462946224633
:1081B00000F010F800200DB0F0BD00BFFF18A5F4CE
:1081C000EFD25E622B140CCFD6F15D0027DC8D91CF
:1081D000865F9107E0B5CDE900120349034A012308
:1081E000FFF736FA8CBD00BFD4C50500ECC505000D
:1081F0002DE9F84F04461E4F1E4D14300FF278083B
:1082000004F1100904F10C0A04F1080B261D00907A
:10821000B84701462046A847B84701463046A84718
:10822000B84701465846A847B84701465046A847B0
:10823000B84701464846A847B84701460098A847AE
:108240001720002804D4215C01380029F9D002E06D
:1082500020780028DCD01720002807D418F8001058
:10826000225C8A42D4D8A0F10100F5D2BDE8F88F93
:10827000E10900001D6E0000181469DAD8E4350A1F
:108280001B7CEFCCFFFFFFFFFFFFFFFFFFFFFF7F28
:108290000048704790C6050000487047A8C6050012
:1082A00010B560B1B348016801208847AF4C206821
:1082B00050B12046FEF70DF90FF068FAF7E70548D0
:1082C0000549026801209047A848BDE81040FEF724
:1082D000C6B800BF30E44020D9830000B0B588B0F4
:1082E000044600F01BF808B1012514E01C340121FC
:1082F0000125204600F0C1FD68B901A8A04204D0C4
:1083000001A821461C22F8F77DFBBC4901AA2046A2
:1083100000F05FFD0546284608B0B0BD38300121A9
:1083200000F0ABBD2DE9F04FB1B005462AA81C21E5
:10833000F8F78FFB23AC1C212046F8F78AFB0DF1E0
:1083400070091C214846F8F784FB15AF1C213846FC
:10835000F8F77FFB0DF1380B1C215846F8F779FB35
:1083600007AE1C213046F8F774FBEA461C21504644
:10837000F8F76FFB05F11C01DFF8DC8C2AA80A4630
:10838000C047204629462A46C04748462946224635
:10839000C0470F4C384629462A46A047584629462A
:1083A0003A46A047304649465A4600F048FB094A3B
:1083B00050463146A0472AA80AF104011822043089
:1083C000F8F765FBB0FA80F0400931B0BDE8F08FF6
:1083D0004186000004C605002DE9F04F95B06348C2
:1083E0000568002D00F0B78005F5017095F8CC62A6
:1083F00095F8CD7205F5D8780824019095F8CE024D
:10840000009020063CD0019810F906A037B94046EC
:108410004146FFF7D3FD002800F08280BAF1000F3B
:108420002AD0D346A9465FFA8AF048BFCAF1000BAA
:108430000099CDB2B5EBD01F0AD02FB94046FFF757
:108440004DFF002800F08E80B5FA85F040090090BD
:108450004FEA5B0054214D4600FB019000F10C02F5
:10846000404627B94146FFF737FC20B958E011468E
:108470005422F8F7C7FA0027013C013EC1DA0AE0AE
:10848000701C08D0009885F8CD72384F85F8CC6202
:1084900085F8CE025DE0DFB305F5F4701C21F8F736
:1084A000D8FA02A81C21F8F7D4FA0EA81C21F8F774
:1084B000D0FA05F5F476304600F0C1FC2B4F28BB0E
:1084C0004046FFF72BFF08BB02A8314600F0DCF85E
:1084D00038B30DF138090DF1080A4846514600F04D
:1084E0009BFA234C404649464246A04748464946E7
:1084F0005246A04705F5E67049460246A047304679
:108500001C21F8F7A6FA0120C5F8EC01002409E0C7
:1085100000980006C5D04046FFF7E0FE0028C0D115
:10852000124F1F241148FDF7D4FF02AE05F5DA7192
:108530003046FFF72FFD06F1180005F5E871FFF74B
:1085400029FDD5E9013021463246984728460FF0EB
:108550001DF9386818B9074801680120884715B027
:10856000BDE8F08F014F1F244D46DBE7C8EA4020ED
:108570006B89000034E44020016811B14FF0FF30F6
:10858000704700F001B8000010B50221044600F069
:1085900085FCC028C4BF012010BDA6492046BDE807
:1085A000104000F004BC00BFB0B5044608680D469A
:1085B00078B1A048294600F0FAFBB0F1FF3F11DD89
:1085C0009C4920462A4600F004FC0146002031B9AF
:1085D000B0BD984A2046294600F0DAFB0020206012
:1085E0000120B0BD934A2046294600F0F2FB002846
:1085F0000EBF002001202060B0BD00BFC0C6050036
:10860000B0B50D460446814208D020463421F8F723
:1086100020FA204629461C22F8F7F4F9002101200F
:10862000072808D055F8202041EA420144F82010DC
:10863000D10F0130F4E711B1012144F82010B0BD91
:10864000F0B58DB06D460F460446342116462846D7
:10865000F8F7FFF928463946324600F099FB2846DC
:10866000FFF792FF002804D46946204600F0C2FBC1
:1086700007E0A54204D0694620461C22F8F7C2F95B
:1086800001200DB0F0BD00002DE9F04FA9B00C465F
:10869000804614A81C21F8F7DCF90DAD1C212846F2
:1086A000F8F7D7F922A81C21F8F7D3F901201C21EB
:1086B00023901BA8F8F7CDF9A5420ED00DA82146AE
:1086C0001C22F8F79FF95B490D9C14A81C22F8F7AF
:1086D00099F9002014906CB906E0564914A81C22A0
:1086E000F8F790F9002014900DA814A900F05FFB92
:1086F00000280FD46C46182104F11C00F8F7A9F9E2
:108700000DAD20461C222946F8F77CF92846214663
:1087100000F0E2F90DF1340A22AF6C460DF1500978
:108720000DF16C0B5046012100F0A7FB00286FD122
:108730000025AEB25046314600F091FBD0B99DF80D
:108740008C000135C00705D138463946012200F0BA
:108750008CFAEEE720463946FFF726FF002864D062
:1087600020462146022200F080FA3846214600F0D9
:10877000B3F9DEE7280404D050465146324600F0F3
:1087800043FA0025AEB24846314600F068FBC8B94E
:108790009DF870000135C00705D1584659460122A1
:1087A00000F063FAEEE720465946FFF7FDFEE0B31E
:1087B00020462146022200F058FA5846214600F091
:1087C0008BF9DFE7280404D048464946324600F0DA
:1087D0001BFA5046494600F0EAFA002809D4384608
:1087E00039465A4600F02BF9F8B1504651464A46F0
:1087F00008E0584659463A4600F021F9A8B14846E3
:108800004946524600F01BF900287FF48BAF0CE07C
:1088100014A800F014FB40B1C34504D01BA9404686
:108820001C22F8F7EFF8012000E0002029B0BDE895
:10883000F08F00BFC0C6050070B58EB001AD0E460A
:10884000044634212846F8F704F928463146FFF754
:10885000D7FE2846FFF790FE002804D401A9204641
:1088600000F0C8FA07E0A54204D001A920461C2266
:10887000F8F7C8F801200EB070BD2DE9F04F8FB0A9
:108880000DF1080A0F460190342193465046F8F73F
:10889000E0F8BA4504D002A839461C22F8F7B2F82D
:1088A0000AF118080AF10409BBF1010F52DB504626
:1088B000012100F0F3FAC0284ADCC0F1C0075F458F
:1088C000C8BF5F4637B1B8B2B0F5906F09D950460E
:1088D00034212EE050465146FFF792FEABF1010BDA
:1088E0002BE0C7F34A1C17F01F0114D00AEB8C03CE
:1088F000C1F120020020461D18D458F8205003EB87
:108900008006013805FA01F4B46125FA02F4F5692C
:108910002C43F461EFE70AEB8C0006214A1E05D4D4
:108920005AF8213040F821301146F7E74FEA8C0120
:108930004846F8F78EF8ABEB070B5046FFF71CFEE6
:108940000028B1D45046514600F054FA0028ABD16B
:10895000002007E00198824503D002A91C22F8F705
:1089600051F801200FB0BDE8F08F2DE9F04F8FB026
:108970000E46019002A834211746F8F76AF8BE4265
:108980003FD0304600F04AFA0546384600F046FA35
:108990000DF10808044634214046F8F75AF8A5B30B
:1089A0009CB3BA46A542AB4638BFB246DAF80430AB
:1089B00038BF3E4606F1040938BFA3465A462E4644
:1089C00008F104054946284600F060FB45F82B00F5
:1089D000A64238BF344605EB8B050026013CB0B2F9
:1089E000844212DD471C49465A460AEB8700436819
:1089F00008EB8700043000F074FB45F827000136CF
:108A0000EDE702A8314600F055F9019802A900F0FF
:108A100063F80FB0BDE8F08F70B58EB001AE0C46B4
:108A2000054634213046F8F714F83046214600F068
:108A300041F92846314600F04FF80EB070BD2DE9DF
:108A4000F0418EB00DF104080F460446342116465D
:108A50004046F7F7FEFF3968306811B120B13D4656
:108A60000FE060B1002502E0B0FA80F0450901A8EE
:108A70003946324600F08CF901951DBB11E03546B0
:108A80003E463046294600F092F9B0F1FF3F11DD35
:108A900001A831462A4600F09CF901460020A9B100
:108AA0000190A04504D001A920461C22F7F7AAFF97
:108AB00001200BE001A82946324600F08AF940B1B6
:108AC0000120019001A92046FFF76EFD0EB0BDE820
:108AD000F0810020FAE700002DE9F04794B00DF195
:108AE0001C080D46044634214046F7F7B2FF6F4696
:108AF0001C213846F7F7ADFF0020022120602846F0
:108B000000F0BBF938B1A54272D020462946342284
:108B1000F7F778FF6CE02846FFF72EFD002863D0BA
:108B2000B0F1FF3F67DDA84504D007A829461C2205
:108B3000F7F768FF38461C21F7F78BFFD5E90701E7
:108B4000261DDFF8C0900623CDE90301CDE9010120
:108B500008F1040107F1040830464246C8474FF0C7
:108B6000000A074642460623CDE900AACDF808A030
:108B7000D5E90901CDE90501CDE9030130463146CA
:108B8000C847CDF800A0002F4FF00603D5E90B121F
:108B9000CDE90512CDE90312CDE901124FF0010133
:108BA00042461CBF022101270028304618BF0F464D
:108BB0003146C8470028984818BF0137051D37B10E
:108BC000304631462A4600F0B9FA013FF7E7924DA8
:108BD0002046294600F0EBF8002809D42A1D30462B
:108BE000314600F0ABFA03E020461C21F7F731FFD5
:108BF00014B0BDE8F087A542FAD0204629461C22D1
:108C000086E700BF5D900000F8B5C12A03DB1C2198
:108C1000F7F71FFFF8BD884202D00B68036000E041
:108C2000D2B12023043092FBF3F4A2EB4412A2B1A0
:108C300001EB8405C2F12003023404352D6825FAC6
:108C400002F6072C07D051F82450013405FA03F737
:108C50003E4340C0F3E70660F8BD621C072AFBD024
:108C600051F82230013208C0F8E770B504460D46CD
:108C700008461146164600F000F938B12046022E8B
:108C80000CBF34211C21F7F7E4FE70BDA5421CBFC8
:108C90002868206006EB4600410000204A1E48BFBD
:108CA00070BD55F8213040EA530044F82100D80740
:108CB0001146F3E72DE9F04F8FB000240E468246AF
:108CC0003421046002A8F7F7C4FE304600F0A6F88D
:108CD000D346814606F104084BF8044FB9F1020F60
:108CE0000BEBC0000BF1040740F8044C4FEA4900BD
:108CF00001900ED3A9F101007368083682B238469C
:108D0000314600F0C3F90AEB89010AF11007486007
:108D100000E04646A9F10204043607EB8405012C65
:108D20000BDB56F8043CA2B23846314600F0D9F9C4
:108D300001C50436013C0837F1E7019D5846594604
:108D40005A462B4600F08AF902A8B9F1000F00F14B
:108D5000040215D01046B9F1000F11D058F8041BC9
:108D6000A9F101090B0C89B201FB03F449435B43F0
:108D700011EB44414FEAD4346341E0E80213EAE7DF
:108D8000584659462B4600F069F90FB0BDE8F08F00
:108D900070B50D46342114460646F7F75AFE301DCD
:108DA000291D221D062300F059F9F06170BD10B590
:108DB0000622531E44BF002010BD51F8224050F837
:108DC0002220A2421A46F4D04FF0FF3088BF012083
:108DD00010BD70B50D461C2114460646F7F739FE46
:108DE000301D291D221D00F0A9F9B0FA80F04009BC
:108DF00070BD000010B5084A0C460430043104323E
:108E000000F09CF930B1E16921B1081AE0611CBFA2
:108E1000002010BD012010BDC0C60500021D0521A7
:108E20004FF0FF300BB2834206DD8BB252F8233095
:108E30000BB90139F6E70846013080B270470221CC
:108E4000072906D050F821200131002AF8D000204F
:108E5000704740680138B0FA80F040097047BF2978
:108E600084BF002070474A0901F01F0100EB820017
:108E70004068C84000F00100704701EB4101043038
:108E80000022490093B299429CBF0120704750F8DC
:108E900023300132002BF5D000207047F8B501EBEC
:108EA0004106044675002946FFF7E7FF08B1002098
:108EB000F8BD6FF01F0000EB861210466B1E2CD41D
:108EC00054F82510A0F120021D460029F5D00022FB
:108ED0000B460F0CB2EB114F18BF0B0C13F47F4471
:108EE00018BF1B0A13F0F00518BF1B0903F00C068E
:108EF000B2EB114F18BF012739010831002C08BF10
:108F00003901002D18BF0431002E1CBF02319B080F
:108F1000C3F340021144013100E000210844F8BDD0
:108F20002DE9F84F04464FF48C7002210EF02CFE10
:108F30004FF48C718246F7F78CFD0AF11C090094FE
:108F400004F13805A824B4F58C7F0AD00AEB04009C
:108F5000A84203D029461C22F7F754FD54351C348F
:108F6000F1E70AF1FC058C24382C09D00AEB040047
:108F7000A5F11C012A46FFF7F8FC1C3C383DF3E73D
:108F80000AF154000146FFF77FFB00285CD04FF048
:108F9000020B00243827BBF1080F26D20AEB07008A
:108FA0000AEB040800F11C0608F18C055046314616
:108FB0002A46FFF7DAFC08F1700248463146FFF70F
:108FC000D4FC14F1700605D00AEB470051461C2270
:108FD000F7F718FD26B1284649461C22F7F712FD7F
:108FE0001C3738340BF1020BD5E7DFF86CB00AF10F
:108FF000A80700244FF00108B4F5A87F22D00098FC
:109000000121051905F138063046FFF736FFB0B9E2
:1090100048463946FFF700FD284629464A46D847C4
:10902000484649463A46D84705F11C004A4601469B
:10903000D84730461C21F7F70CFDC5F83C801C379B
:109040005434D9E7012500E0002550460EF09EFB80
:109050002846BDE8F88F00BF6B89000084460020D9
:10906000012B12DBF0B5002563B180C940CA013B7A
:109070007C19A41940F10006ED194CF8044B46F197
:109080000005F1E72846BDE8F0407047844600201F
:1090900032B32DE9F0411FFA83F84FEA134E002650
:1090A000DAB180C9013A3C0CBFB204FB08F504FBFD
:1090B0000EF407FB0EF35B1907FB08F528BF04F558
:1090C000803404EB134415EB034340F100059B1976
:1090D00044EB05064CF8043BE2E73046BDE8F041BE
:1090E00070472DE9F041044600202AB31FFA83FEA1
:1090F0004FEA134C4FF00008EAB180C9013A3D0C29
:10910000BFB205FB0EF305FB0CF507FB0CF69B1934
:1091100007FB0EF628BF05F58035276816EB0346DA
:1091200045EB134316EB080540F10006ED1943EB40
:10913000060820C4E0E74046BDE8F081F0B50346EC
:1091400000200024062C08BFF0BD51F8246052F81E
:109150002450371AAE42A7EB05074FF0000543F83D
:10916000247038BF012518BF28460134EAE7000003
:10917000B0B57F4C00212468A4B1D4F840218242CC
:1091800001D02146F7E77A4D22462846FDF743F9FC
:10919000D4F8500108B10EF0F9FA20460EF0F6FAB4
:1091A000286800B1B0BD714801680020BDE8B0403A
:1091B000084700BFBFB514460A4601460898002577
:1091C000CDE90053234602900220FEF71FFB04B0B6
:1091D000B0BD000070B590B01C4615460E46A0B15B
:1091E0004B4930462022F7F70DFC6E464A492022B3
:1091F0003046F7F707FC4A4906F120002022F7F72E
:1092000001FC28463146A04707E0304600F01AF836
:1092100030462946224600F003F8002010B070BD09
:109220001FB504460120064B8DE80700034A0120C4
:109230002146FEF7EBFA04B010BD00BF9AB5050059
:10924000BAB505002DE9FE4F04461C30DFF89480C6
:10925000DFF894900FF2940A029004F1180004F1E0
:10926000100B04F10C0604F10807251D019004F110
:1092700014000090C04701462046C847C047014639
:109280002846C847C04701463846C847C047014638
:109290003046C847C04701465846C847C047014600
:1092A0000098C847C04701460198C847C0470146D3
:1092B0000298C8471F20002804D4215C01380029E7
:1092C000F9D002E020780028D4D01F20002807D44D
:1092D0001AF80010225C8A42CCD8A0F10100F5D225
:1092E000BDE8FE8FE10900002D6E0000A892317EDE
:1092F00061E5DC7942CF8BD3567D73DEFFFFFFFF44
:10930000FFFFFF7F00000080FFFFFF7F00487047E6
:109310001CB6050000487047DCB5050000487047E2
:10932000FCB50500B0B598B1104801680020884729
:109330000F4C206888B12046FDF7CBF80546D0F8E1
:10934000500108B10EF022FA28460EF01FFAF0E79D
:10935000044805490268002090470548BDE8B04030
:10936000FDF77DB830E44020257A000034E4402049
:10937000C0EA4020A74A9423528800FB03200B4AEE
:10938000835A6FF39F2343EA81218152704700BFC4
:10939000A04A9423528800FB0320044A835A6FF3A7
:1093A0009F2343EA81218152704700BF36804020CD
:1093B000B0B51201974C942542EA0121049A6488C1
:1093C00041EAC30100FB054041EA8201059A1143CD
:1093D000084A8152B0BD00BF8E4A9423528800FBD8
:1093E0000320044A835A23F0080343EAC10181524F
:1093F000704700BF16804020864A9423528800FBA5
:109400000320034A835A23F0FF0319448152704713
:10941000688040207F4A00EB4000928802EB800089
:10942000604A835A23F4804343EA81318152704772
:109430007849C0EBC000C98801EBC000D549405A4B
:10944000C0F3C010704700BF7249C0EBC000C988AC
:1094500001EBC000DA49405AC0F34000704700BF3A
:109460006C49C0EBC000C98801EBC000D449405A28
:10947000C0F3C000704700BF10B5664C00EB801011
:10948000A48B04EB8000CE4C005B840B0C70C0F30B
:1094900001211170187010BD5E49C0EBC000098930
:1094A00001EB8000B049405AC0F34010704700BF44
:1094B0005849C0EBC000098901EB8000AA49405A15
:1094C000C0F3C010704700BF5249C0EBC00009890B
:1094D00001EB8000A449405AC0F38010704700BFE0
:1094E000E249C0EBC000098901EB80009E49405A67
:1094F000C0F38010704700BFDC49C0EBC000098991
:1095000001EB80009849405AC0F38010704700BFBB
:10951000D649C0EBC000098901EB80008449405A5C
:10952000C0F34020704700BFD049498901EB0010CB
:10953000E349405AC0F30030704700BF10B5CB4C30
:10954000D20142EA0121029A648941EA831104EBC3
:1095500000101143404A815210BD00BFEA4A5289AF
:1095600002EB00103C4A835A23F03F031943815217
:10957000704700BFEC4A528902EB0010364A835A0A
:1095800023F03F0319438152704700BFE64A5289D6
:1095900002EB00108A4A835A03F440431943815274
:1095A000704700BF0080402010B5D201DE4C42EA77
:1095B0000121029A648941EA831104EB001041EA17
:1095C0004211039A11435A4A815210BDD64A528918
:1095D00002EB0010564A835ADBB243EA0121815262
:1095E000704700BF10B5D04C120142EA0121504A29
:1095F0006489194304EB0010815210BDCA4900EB85
:109600004000C98C01EB40100349405AC0F3403080
:10961000704700BF0CEE40205E80402010B504462D
:10962000132047F0EFFD04EB440100EB4110024929
:10963000405AC0F3802010BD5C804020B0B500EBE4
:1096400040001446400100EB4105132047F0DAFDCD
:10965000284401494452B0BD08804020B0B50546B9
:1096600013200C4647F0CEFD05EB450100EB411001
:1096700001494452B0BD00BF1C804020B0B5054632
:1096800013200C4647F0BEFD05EB450100EB4110F1
:1096900001494452B0BD00BF1E804020B0B5054610
:1096A00013200C4647F0AEFD05EB450100EB4110E1
:1096B00001494452B0BD00BF20804020B0B50546EE
:1096C00013200C4647F09EFD05EB450100EB4110D1
:1096D00001494452B0BD00BF22804020B0B50546CC
:1096E00013200C4647F08EFD05EB450100EB4110C1
:1096F00001494452B0BD00BF2480402010B504464B
:10970000132047F07FFD04EB440100EB4110DD49DD
:10971000405A10BDB0B5054613200C4647F072FD07
:1097200005EB450100EB4110D6494452B0BD00BFE6
:109730000280402010B50446132047F063FD04EB7F
:10974000440100EB41100849405A10BDB0B5054630
:1097500013200C4647F056FD05EB450100EB411088
:1097600001494452B0BD00BF04804020B0B500EBB9
:1097700040000C46124901EB4015132047F042FD12
:10978000285A6FF3DF3040EAC434132047F03AFD23
:109790002C52B0BD00804020B0B500EB40000C461C
:1097A000074901EB4015132047F02CFD285A20F003
:1097B000800040EAC414132047F024FD2C52B0BDB1
:1097C00000804020B0B500EB40001446400100EBA3
:1097D0004105132047F016FD284401494452B0BD0D
:1097E0003E804020B0B500EB40000C46B34901EB91
:1097F0004015132047F006FD285A20F4006040EA87
:10980000C424132047F0FEFC2C52B0BD10B5044612
:10981000132047F0F7FC04EB440100EB4110A7498B
:10982000405AC0F3022010BDB0B500EB40000C461A
:10983000A24901EB4015132047F0E4FC285A20F41C
:10984000804040EA8434132047F0DCFC2C52B0BD49
:10985000DE4A00EB4000D28C02EB4010974A835A5C
:1098600023F0E00343EA4111815270470CEE40209F
:10987000B0B500EB40000C46904901EB40151320B9
:1098800047F0C0FC285A20F4005040EA443413202A
:1098900047F0B8FC2C52B0BDB0B500EB40000C4610
:1098A000864901EB4015132047F0ACFC285A20F400
:1098B000805040EA0434132047F0A4FC2C52B0BD81
:1098C00006804020B0B500EB40000C46174901EB84
:1098D0004015132047F096FC285A20F0FF0004445E
:1098E000132047F08FFC2C52B0BD00BFB74A00EBED
:1098F0004000D28C02EB40100C4A835A23F0FF0345
:1099000019448152704700BF0CEE4020AF4A00EB73
:109910004000D28C02EB4010044A835A23F0FF032C
:1099200019448152704700BF0CEE40202680402031
:10993000B0B500EB40000C460E4901EB401513207A
:1099400047F060FC285A6FF3DF3040EAC43413203C
:1099500047F058FC2C52B0BDB0B50446132042EA83
:10996000012547F04FFC04EB440100EB4110014995
:109970004552B0BD14804020B0B5054614200C46B9
:1099800047F040FC00EB051001494452B0BD00BF58
:109990000A80402070B50646132014460D4647F055
:1099A00031FC06EB460100EB41100449405AC10B63
:1099B0006FF39F202970208070BD00BF568040202B
:1099C00010B50446132047F01DFC04EB44010022AF
:1099D00000EB41100149425210BD00BF4C804020B5
:1099E00010B50446132047F00DFC04EB440100229F
:1099F00000EB41100149425210BD00BF4E80402093
:109A000010B50446132047F0FDFB04EB440100228F
:109A100000EB41100149425210BD00BF5080402070
:109A200010B50446132047F0EDFB04EB440100EBB6
:109A300041100149405A10BD5280402010B50446E3
:109A4000132047F0DFFB04EB440100EB4110014918
:109A5000405A10BD5480402010B50446142047F0F1
:109A6000D1FB00EB04100149405A10BD0C8040208E
:109A700010B50446142047F0C5FB00EB0410544910
:109A8000405A10BD0280402010B50446152047F012
:109A9000B9FB04EB440100EB81000849405A10BDBA
:109AA000B0B5054615200C4647F0ACFB05EB45016B
:109AB00000EB810001494452B0BD00BF0680402048
:109AC00010B50446132047F09DFB04EB440100222F
:109AD00000EB41100149425210BD00BF46804020BA
:109AE00010B50446132047F08DFB04EB440100221F
:109AF00000EB41100149425210BD00BF4880402098
:109B000010B50446132047F07DFB04EB440100220E
:109B100000EB41100149425210BD00BF4A80402075
:109B2000B0B5054613200C4647F06CFB05EB45012C
:109B300000EB411001494452B0BD00BF1A804020E3
:109B4000B0B500EB40000C46214901EB8005152023
:109B500047F058FB285A6FF3DF3040EAC434152031
:109B600047F050FB2C52B0BDB0B500EB40000C46A6
:109B7000174901EB8005152047F044FB285A20F0D7
:109B800007000443152047F03DFB2C52B0BD00BF39
:109B9000B0B500EB40000C460D4901EB80051520E7
:109BA00047F030FB285A20F0780040EAC404152022
:109BB00047F028FB2C52B0BD0449054A498D8B5A09
:109BC00023F0780343EAC000885270470CEE40202F
:109BD0000280402010B50446152047F013FB04EB2B
:109BE000440100EB81000849405A10BDB0B505465C
:109BF00015200C4647F006FB05EB450100EB810004
:109C000001494452B0BD00BF0880402070B50646EF
:109C1000152014460D4647F0F5FA06EB4601204A9A
:109C200000EB810044EAC50141F00401815270BD9E
:109C3000B0B500EB40000C46194901EB800515203A
:109C400047F0E0FA285A4EF20701084040EAC404FF
:109C5000152047F0D7FA2C52B0BD00BF10B504460E
:109C6000152047F0CFFA04EB440100EB81000C49CA
:109C7000405A00F0030010BDB0B500EB40000849A9
:109C800001EB8004152047F0BDFA205A40F0010096
:109C900020F00205152047F0B5FA2552B0BD00BFEF
:109CA00004804020B0B50446152042EAC13547F093
:109CB000A9FA04EB440100EB81000B494552B0BD09
:109CC000B0B500EB40000C46074901EB80051520BC
:109CD00047F098FA285A6FF3DF3040EAC434152071
:109CE00047F090FA2C52B0BD00804020B0B500EB98
:109CF00040000C46254901EB4015132047F082FA3D
:109D0000285A20F4806040EA8424132047F07AFA2D
:109D10002C52B0BDB0B500EB40000C461B4901EB26
:109D20004015132047F06EFA285A20F4407040EA9C
:109D30000424132047F066FA2C52B0BDB0B500EBF6
:109D400040000C46114901EB4015132047F05AFA28
:109D5000285A6FF35F3040EA4434132047F052FA38
:109D60002C52B0BDB0B500EB40000C46074901EBEA
:109D70004015132047F046FA285A20F00300044308
:109D8000132047F03FFA2C52B0BD00BF1680402090
:109D9000B0B50446132042EAC13547F033FA04EB6C
:109DA000440100EB411001494552B0BD18804020EC
:109DB00070B5442048F0C6FE0446002047F00CFA77
:109DC0000188408801264843033020F003052580A0
:109DD000222E0DD0F0B224F8165047F0FDF901887C
:109DE000408801364843033020F003000544EFE784
:109DF0002046222147F0D6F92046BDE8704048F0C1
:109E00008DB900002DE9F84F442048F09BFEDFF8A3
:109E10002CB3044600204FF0000AD84700880330D6
:109E200020F0030020800020D8470088C44E033073
:109E3000B57820F0030701206780D8470088291DE6
:109E4000B5784843B1794843033020F00300074414
:109E50000220A780D8470088A91CF5784FF0030995
:109E60004843B1794843033020F0030007440320FE
:109E7000E780D8470088B1794FF004086843F57946
:109E80004843033020F00300074404202781D847CB
:109E90000088B17968434843033020F00300C519B6
:109EA00005206581D84747880520D8470088B179C3
:109EB0007843B7784843033020F003000544062078
:109EC000A581D8470088B1797843B778484309EB32
:109ED000400020F0030005440720E581D8470088B2
:109EE000B1797843B7784843033020F00300054444
:109EF00008202582D847791C008849084843B17951
:109F00004843033020F00300054409206582D84708
:109F10000088B179F7794843033020F00300054405
:109F20000A20A582D8470088B91CB7784843B17980
:109F30004843033020F0030005440B20E582D84756
:109F40000088B91C37794843B1794843033020F081
:109F5000030005440C202583D8470088B179784355
:109F60003779484309EB400020F0030005440D20F9
:109F70006583D8470088B17978433779484300EB47
:109F80008000033020F0030005440E20A583D8474D
:109F90000088B17978433778484300EB800003307C
:109FA00020F0030005441320E58325846584A584FF
:109FB000E584D8470088791D377A4843717948434A
:109FC000033020F00300054414202585D84700887D
:109FD00072793178784308EB41075043033020F021
:109FE0000300054415206585D847008871797843BA
:109FF0004843033020F0030005441620A585D847C8
:10A0000047881620D8470088727931787843042928
:10A0100002FB00F000F1030020F0030005444FF0C4
:10A020001700E58538BF4FF0070A032988BF0AEB00
:10A03000410AD847008871790AFB00F04843033091
:10A0400020F00300054418202586D8470088717940
:10A050004843033020F00300054419206586D847A3
:10A06000008871794843033020F0030005441A202A
:10A07000A586D847008871794843033020F0030053
:10A0800005441B20E586D847008871793778484316
:10A09000033020F0030005441C202587D8470088A2
:10A0A000717978434843033020F0030005441D20B4
:10A0B0006587D84700887179377A4843033020F0A4
:10A0C000030005441E20A587D8470088B91C3778AF
:10A0D000484371794843033020F0030005441F20B2
:10A0E000E587D8470088B91C777848437179484399
:10A0F000033020F0030005442020A4F84050D84746
:10A100000088717978434843033020F003002844E5
:10A11000A4F8420080B2B0F5C04F05D909A014A13F
:10A1200040F27F4247F01AF92046222147F03AF8E0
:10A130002046BDE8F84F47F0F1BF00BFD911050038
:10A14000D4EA4020302026262022454D2062756624
:10A1500066657220657863656564206D6178696DF8
:10A16000756D206C656E67746820212121220000C6
:10A17000656D5F636F6E6669675F637573746F6D3E
:10A18000697A6564000000000B49425C084441782C
:10A1900042EA01218278C07841EA024141EA006046
:10A1A000704700BF044A815410440A0A42700A0CE6
:10A1B000090E8270C17070470080402010B5064CB7
:10A1C0002068400006D40120F7F714FF206840F013
:10A1D00080502060012010BD10F000401FB5002409
:10A1E0000294079C0194069C0094FCF73FFE04B087
:10A1F00010BD00002DE9F04FA1B0054600680C46E7
:10A20000002879D000EB4000696801EBC00003A989
:10A21000A0F1180728463C2FA8BF3C273A4600F07B
:10A22000BFFA286801950138F6F734FF3649F6F78A
:10A23000A2FC4FF07E51F6F746FC002105464FF098
:10A24000000AF6F790FE064638460297F6F722FF18
:10A2500001464FF07E50F6F7C0FC002E18BF0025D7
:10A2600029468046F6F787FC83464FF07E504146EC
:10A27000F6F77BFC2946F6F77EFC06464546029833
:10A28000824536DA03A830F91A00F6F703FF0146D3
:10A290003046F6F770FC074634F91A00F6F7FAFE76
:10A2A00001462846F6F767FC01463846F6F70BFCF0
:10A2B000164F81463946F6F772FE40B948464FF0D0
:10A2C0004741F6F75EFE4F4608B94FF0474738461C
:10A2D000F6F7FCFE24F81A0030465946F6F745FC1E
:10A2E000064640462946F6F7EEFB05460AF1010A06
:10A2F000C5E7019D002028602846214621B0BDE821
:10A30000F04F00F0C5BA00BFCDCC4CBE00FEFF46FA
:10A310000021016000F23461416100F2AC604FF451
:10A32000C37100F0F9BAF8B514460D460646002789
:10A33000A742A8BFF8BD01CEF6F7C8FE25F8170062
:10A340000137F5E710B500239342A8BF10BD30F8E0
:10A35000134021F813400133F6E700002DE9F04FD8
:10A3600099B0046806468846601E02286DD2D6E978
:10A3700001240AA9304600F013FAF0680119091AFD
:10A380008142FCDCB1607368D6E904120844306194
:10A39000A2EB8000A2EB8302A0EB8301B06106F286
:10A3A000346000F01BFA304641463C2200F0F8F9D8
:10A3B000D6F804B00496BBF1000F58D05846F6F713
:10A3C00069FE01464FF07E504FF07E57F6F705FCD0
:10A3D00082460025064638465146F6F7C6FB5D45DF
:10A3E00045DA07460AA830F91500F6F753FE01468C
:10A3F0003846F6F7C0FB044638F91500C146F6F7B3
:10A4000049FE01463046F6F7B6FB01462046F6F710
:10A410005AFBE04C80462146F6F7C1FD40B9404664
:10A420004FF04741F6F7ADFD444608B94FF04744B9
:10A430002046F6F74BFE29F8150050463146C8462F
:10A44000F6F741FB06460135C5E794B906EB8400F3
:10A45000049606F2AC6600F11C05B4F5C37F10D07B
:10A4600036F91400F6F716FE01C50134F5E7049E2F
:10A4700081E1062CC0F27A8140463C2100F04CFA82
:10A480007DE1CDF808804FF000094FF000084FF053
:10A49000000A04984169C04801EB8004A1F52076C8
:10A4A00001910394BAF19F0F18D82568D4F8E07190
:10A4B00028462946F6F75FFB01464046F6F703FBC0
:10A4C000804628463946F6F756FB01464846F6F7D9
:10A4D000FAFA814608340AF1020AE3E7AF49404636
:10A4E000F6F741FD002840461CBF0020C4F27A3038
:10A4F00051F01CF801464846F6F76FFB05460398F5
:10A500004FF0000A4FF0000B00F108010591022105
:10A51000502959D8CDE9075100F10801CDF824B0F0
:10A5200000244FF000090691D0F880720568DDF82C
:10A5300014B0B9F19F0F0FD85BF80A00DBF8D811FF
:10A54000F6F719FB01462046F6F7BDFA04460BF173
:10A55000080B09F10209ECE728462946F6F70BFB40
:10A56000054638463946F6F706FB07464046294673
:10A57000F6F7FBFA3946F6F7A6FA88498046F6F769
:10A58000F2FC002840461CBF0020C4F27A3050F094
:10A59000CDFF01462046F6F720FB079F04463946CB
:10A5A000F6F7E1FC002825462046394618BF3D460F
:10A5B000F6F7D9FCDDE9081B00280AF1080A08BFF4
:10A5C0008B4606980231A3E74FF0000ABBF1000F5B
:10A5D0004FF000044FF000094FF00008C8BFABF186
:10A5E000010A039800EB8A07B4F5207F14D03D5987
:10A5F00031592846F6F7BFFA01464846F6F763FA9E
:10A60000814628462946F6F7B6FA01464046F6F74F
:10A610005AFA80460434E7E75020BBF1500F5F49F7
:10A62000B8BF0BF1010006904046F6F79CFC0028ED
:10A6300040461CBF0020C4F27A3050F077FF01463C
:10A640004846F6F7CAFA81460198514600EB8A005F
:10A65000A0F25C450698814250DACDF824A0D7F8E4
:10A6600080A2D7F800B00131381D002700240891DE
:10A670000790B7F5207F0AD0E859F159F6F77BFA31
:10A6800001462046F6F71FFA04460437F1E758461C
:10A690005946F6F770FA834650465146F6F76BFA7C
:10A6A000074640465946F6F760FA3946F6F70BFA80
:10A6B0003A498046F6F757FC002840461CBF002068
:10A6C000C4F27A3050F032FF01462046F6F785FAA0
:10A6D00049460446F6F763FC00284F4620464946A3
:10A6E00018BF2746F6F75BFCDDE9081A0028B946D3
:10A6F00005F1040518BF8A46079FABE7049FCAF11E
:10A7000078040026DDF80880A6EBA40124F00300FD
:10A71000A3107D69FC607B602A1A07F234609E42B8
:10A7200005DA52F8267040F826700136F7E7049EE5
:10A7300034610024B46005EB8A04A4F5F07404EBE2
:10A740008101B46100F04AF872687069C2F5C371A2
:10A75000A0EB820006EB410101F2AC61FFF7E3FDE3
:10A76000304641463C2200F01BF808E030464146A6
:10A770003C2200F015F83046414600F0A3F830685E
:10A78000414601303060304619B0BDE8F04F00F06E
:10A790007FB800BF00FEFF46E8FEFFFF00007A43DF
:10A7A000F8B514460D460646BCB1B0683169B269C9
:10A7B0000F1A02EB80002946A742C8BF27463A4637
:10A7C000FFF7B1FDB0683169E41B05EB470538447C
:10A7D000411A18BF0146B160E6E7F8BD2DE9F04F18
:10A7E00085B00446002B184602934BD00298914640
:10A7F0000F46F6F74FFC01464FF07E504FF07E5A61
:10A80000F6F7EBF9054600268346019050462946A7
:10A81000F6F7ABF982460298864233DA2168504651
:10A8200003964D460494F6F7A6F93968064658464D
:10A83000B846F6F7A0F901463046F6F744F9134951
:10A8400006468946F6F7ABFB0028484609D1304654
:10A850004FF04741F6F795FB0028304608BF4FF010
:10A860004740A946019D594649F8040B2846F6F78A
:10A870002AF9049C039E4746834608F104070434E2
:10A880000136C3E705B0BDE8F08F00BF00FEFF460C
:10A8900070B505460A4E0C4600F224704FF4A572BE
:10A8A00005F2AC61B04705F5146120463C22B04783
:10A8B00005F6041021463C223346BDE87040184797
:10A8C00045A30000F8B500680C460138F6F7E2FB36
:10A8D0000F49F6F750F94FF07E51F6F7F4F80646B7
:10A8E00000270C4D3C2F08BFF8BD34F91700F6F7D0
:10A8F000D1FB01463046F6F73EF9F6F7E7FB24F8C0
:10A90000170030462946F6F7DEF806460137E9E734
:10A91000CDCC4CBE0E745ABB002200238B42A8BF84
:10A92000704720F813200133F8E7000070B500EB02
:10A93000C002DC4B03EBC204FF22002384F8442056
:10A9400084F84300002000222161242A07D0A518A2
:10A95000DE430C32013385F82260A861F5E7886890
:10A960008047074904F10800FBF7A8FC0549204689
:10A97000FBF7A4FC2046BDE8704000F03BB800BFE8
:10A98000A9AC000025AA0000B0B5044641F20210AF
:10A9900000211022012300250DF056F9057009F061
:10A9A0007BFD94F83F00A58784F83E00204600F028
:10A9B0000BF894F843004FF4805101FA00F0BDE821
:10A9C000B0404DF03FBB0000034603209E4A0121EA
:10A9D00083F840001869D0F800C003F13F006047D9
:10A9E0000346022083F84000D3E90420D2F800C0D7
:10A9F000954A6047B0B504460020934A012184F887
:10AA0000400020692346056804F13F00A84794F8F8
:10AA100043004FF4805101FA00F0BDE8B0404DF022
:10AA200011BB00BFB0B5044690F8420058B10128F0
:10AA300004D094F84000002800F0FA802046BDE8D9
:10AA4000B040FFF7A1BF94F84000032800F26080F7
:10AA5000DFE800F00223446294F83F10062984F8EE
:10AA60004110EBD8012202FA01F010F06E0FE5D090
:10AA700084F84020734A04F13C002346515C22696B
:10AA80001568714AA84794F843004FF4805101FAC1
:10AA900000F0BDE8B0404DF0F5BA94F8410001383F
:10AAA000052835D8DFE800F0035F7A348E9A94F8F1
:10AAB0003C0094F83E5094F83D1040EA0120A087F5
:10AAC00080B20AF083FA8542B8D894F83E00002894
:10AAD00000F0B38001210DF057F86CE094F84100CC
:10AAE0000138052814D8DFE800F003888D13959B02
:10AAF000636994F83E20A18F01200AF073FA60691F
:10AB0000002800F095800CF041FE002060618FE08D
:10AB1000BDE8B04045F0FCBDE06B4949884216D025
:10AB200094F843004FF4805101FA00F04DF0AAFA76
:10AB30000020032806D02118013091F83D2081F82B
:10AB40003C20F6E72046BDE8B040FFF73DBF40F6A9
:10AB500003400AF03BFA012040F6034100220023A3
:10AB60000AF040FA64E094F83E0094F83F1040EA9E
:10AB70000120E08794F83C1094F83D2041EA02213E
:10AB80000204A18789B24ED082B201200AF074F982
:10AB9000002860613FF452AFE18F29E094F83C0057
:10ABA00094F83E2094F83D1040EA012081B2A0873D
:10ABB00001200AF067FC002860613FF43FAF94F881
:10ABC0003E1015E004F13C000CF05CFA00286061D6
:10ABD0003FF434AFE18F6FF39F3109E0FCF73AFBAC
:10ABE000606194F83D0094F83E1040EA012081B283
:10ABF0002046BDE8B040FFF7F3BE6369E28FA18F46
:10AC0000012013E0636994F83E20A18F01200AF02F
:10AC100065FC0DE0616904F13C000CF091FA07E07D
:10AC2000FCF796FA04E00120002200230AF082F9E2
:10AC30002046BDE8B040FFF7DDBEA18F01208DE7C3
:10AC400001030C006CC705004DAC0000024680F803
:10AC5000421090F8430018B100201146FBF7AABB40
:10AC60001046FBF771BB000052480069806800473E
:10AC700070B5504E00250124E00706D02DB930698B
:10AC8000C068804704460125F6E710B104F00100D2
:10AC900070BD1036002DF9D056F8480B80688047FB
:10ACA000013DF7E764EE4020F8B5044600F11006D8
:10ACB00090F83C000021A4F1080500EB400046F8A4
:10ACC000201006EB8000406800B18047FF20002183
:10ACD0003246002384F83C00032909D0176827B1C5
:10ACE000977A9F4284BF08463B460C320131F3E716
:10ACF00084F83C00C0B2FF2810D000EB4001A268ED
:10AD00002B4656F8210006EB8101D2F804C02A4AEE
:10AD10000989013101B0BDE8F040604795F8430072
:10AD20004FF4806101FA00F0BDE8F8404DF08AB9B7
:10AD300000F1080190F8430010B10020FBF73ABB86
:10AD40000846FBF701BB0000B0B5441E01F8010D39
:10AD5000042C01D2002006E0052803D0062823D1C8
:10AD6000022000E0012000EB4005124C04EB8505B9
:10AD70002A84C5E9061394F84430FF2B18BFB0BDF0
:10AD800084F844002069531C0B4A4568084619465C
:10AD90002346A84794F843004FF4806101FA00F07D
:10ADA000BDE8B0404DF06EB945F0B2FCBDE8B04032
:10ADB00045F0AEBC64EE402031AD0000F8B51E4D4C
:10ADC00004464422211D05F10C00F5F71BFE6968BD
:10ADD0000520287004F14800A86019B104F128008A
:10ADE000884740B34AF024FB1448002143F6E07C36
:10ADF0004160BFF34F8F0268C2F34E31C2F3C90303
:10AE00009A0701330CEA411516461F4646EA050427
:10AE100006F14046013FC0F8EC41F7D14C1E002935
:10AE20002146EFD1BFF34F8F0120BFF36F8FBDE8F5
:10AE3000F840F7F7DFB8F8BDD8E8402080ED00E033
:10AE40002DE9F04190B08046DE480D0A16460C46CA
:10AE500050F8257008460CF0B9FF09280DD00428D9
:10AE600037D101AD2C493C222846F5F7CBFD2046D1
:10AE700031462A4611F03AFB48E02648214602684E
:10AE800040F204609047204601210CF0C9FF304693
:10AE900000210EF034F997F8780100F00300032840
:10AEA00005D040F20F60214622460CF021FF98F8B1
:10AEB000060098B907F13801284640F09FF968B1BB
:10AEC000012087F8440087F8C00220460FF01AFAE4
:10AED0000DE030460C210EF012F917E0012097F832
:10AEE0003920332187F84500284612F0B9FD3EF09D
:10AEF00051FC28B140F21660214622460CF0F8FEC3
:10AF000040F21960214622460CF0F2FE002010B0FB
:10AF1000BDE8F08154E4402058B5050070B590B00C
:10AF20000646084614460D460CF050FF042862D130
:10AF30000020344A039009908DF81000CDF81200DB
:10AF4000CDF816008DF82800CDF82A00CDF836008F
:10AF5000D6E90201CDE90101CDE907011821708A86
:10AF600001EAC00122FA01F101228DF80C108DF8DE
:10AF7000111081064FF0100158BF0821ADF82E10B6
:10AF8000ADF83010C1B200F4407002EB9112B0F590
:10AF9000007F8DF832208DF83320C1F382018DF8C7
:10AFA00034108DF835104FF0040108BF0121B0F5C1
:10AFB000807018BF08468DF824008DF829002146BE
:10AFC000308AADF83A00307D8DF83E00F08A01AE4F
:10AFD000324680F47070ADF83C00284611F086FAD5
:10AFE000E849280A3C2251F82000314600F5337028
:10AFF000F5F708FD03E020460C210EF080F8002054
:10B0000010B070BD0200010370B51C48140A0D4653
:10B0100050F82460204622F0C9FA20BB688890B11D
:10B02000A888FAF7DDF82A8801466888134660F395
:10B030000D03CB8023F4405096F899305BB1002289
:10B0400086F899200AE0288810F4405F04BF0120A8
:10B0500086F8990007E002F440521043C880204669
:10B060002EF0F0FE38B1688810B1A888FAF7C4F85D
:10B07000204622F085F9002070BD00BFB8F44020C2
:10B0800070B5488810B388881E460D46FAF74EFD05
:10B09000044668880E4A61896FF31F30968101F477
:10B0A00040610843298801F4405301F440411844A9
:10B0B000137D084421466081002019F073FD18B10A
:10B0C0002089FAF743FD01E03DF02AFE002070BD23
:10B0D000A8F3402070B50D46AA49140A104651F84D
:10B0E00024600CF073FE192811D8012101FA00F038
:10B0F000A54908420BD0688810B1A888FAF726FD48
:10B1000004F1800001210EF07BF8002070BD6888FA
:10B11000A0B1A888FAF70AFD014668882A886FF36B
:10B120009F3002F44043184496F85130488120F48F
:10B1300040505BB1002286F851200AE0288810F4C4
:10B14000405F04BF012086F85100D4E702F440526A
:10B150001043488196F84B203AB100F44050B0F5C6
:10B16000805FC8D0002086F84B00204615F022FAF8
:10B170000028C0D1C9E700BF70B50D46080A814953
:10B18000144651F8206028460CF020FE19280BD8F0
:10B19000012101FA00F07C49084205D00221204635
:10B1A0000DF0ADFF002070BD3EF0ECFD10B10020B1
:10B1B00086F8810140F2166029462A460CF098FD77
:10B1C0000021ECE708F44020C14908440121017640
:10B1D000704700BFBE49084400210176704700BF98
:10B1E000C0EBC000BA4A10448A88A0F8272009683A
:10B1F000C0F82310012180F822107047C0EBC00076
:10B20000B3490844002180F822107047C0EBC00009
:10B21000AF490844022180F8221070472DE9F0411F
:10B220000D46080AE849144651F8207028460CF0EB
:10B23000CDFDA0F11701032908D338B101280DD1A4
:10B2400097F8B40260B12046232101E020460C218A
:10B250000DF055FF00263046BDE8F0810226FAE7E2
:10B2600097F8810101281DD13EF08CFD10B1062018
:10B2700087F8800197F885014FF0010887F8BE82B2
:10B2800018B187F8B48287F8B782204600210026DB
:10B290000DF035FF284687F87A6187F8448014F06E
:10B2A00073F8D8E720460621D2E700BF2DE9F04128
:10B2B00090B00646C4480F0A90460D4650F8274005
:10B2C00008460CF083FD19280ED8012101FA00F080
:10B2D0002D49084208D0404602210DF010FF0027FA
:10B2E000384610B0BDE8F081308807F18001814216
:10B2F00025D194F854107088F8F7A5F8074694F80B
:10B30000571094F8582094F859307088F8F757F887
:10B310003843E083718888422FD140F00800002133
:10B320000027E08340460DF0EAFE012029462A4628
:10B3300084F8BB0240F213600CF0DAFCD0E7284638
:10B340000CF044FD01281BD1002701210122ADF89A
:10B350003A708DF83E70CDE901777088C0F34210E5
:10B360003388ADF83C0001A80090284611F0B4F9EC
:10B37000014640460DF0C3FEB2E740461A21ACE755
:10B380000227ADE708F440200100C003B0B5084C27
:10B390000020802804BF0020B0BD255A08309D42FF
:10B3A000F7D1204450F804CC1846BDE8B0406047BF
:10B3B00078C4050010B5094A0020182804BF0020F1
:10B3C00010BD145A08309C42F7D1104450F8042C98
:10B3D00008461946BDE81040104700BF7CD805005C
:10B3E000B0B50A4C0020B0F5F87F04BF0020B0BD16
:10B3F000255A08309D42F6D1204450F804CC084626
:10B4000011461A46BDE8B040604700BFCCD80500E1
:10B4100010B5094A0020F02804BF002010BD145ABE
:10B4200008309C42F7D110441A4650F804CC0878F2
:10B43000BDE81040604700BFBCDC050010B5094AFC
:10B440000020A82804BF002010BD145A08309C42D8
:10B45000F7D1104450F8042C08461946BDE81040B6
:10B46000104700BFE4E0050010B5094A0020B0F520
:10B470003C7F04BF002010BD145A08309C42F6D116
:10B48000104450F8042C08461946BDE810401047F7
:10B49000D4E1050010B5094A0020B0F53A7F04BF99
:10B4A000002010BD145A08309C42F6D1104450F8C8
:10B4B000042C08461946BDE8104010473CE505003D
:10B4C0000348B0F8740070470149A1F87400704750
:10B4D000B0EE402010B543780C468178C21C184667
:10B4E000FBF7C0FD014620463CF0B0FC002010BD3B
:10B4F00010B543780C468178C21C1846FBF7B2FDA4
:10B50000014620463DF097FE002010BD2DE9F8438E
:10B51000DFF85C8E89460546002708F13A06B81C1C
:10B5200024D034782CB1B01F29460622F5F7AFFAA3
:10B5300010B10936013FF2E7601F02280AD27842B3
:10B540000002013081B228464A460CF0ADFB0120D2
:10B55000BDE8F883012C0ED1D8F8000030B11BF003
:10B56000FBFF0C280AD128460021EDE748460221BE
:10B570002A463DF04BFE0020BDE8F88302203070E3
:10B58000F9E700BF70B50446084615460E460CF0B4
:10B590001DFC40B10C49300A51F8201091F84910B7
:10B5A00019B10B2609E00C2607E018F079FC18B158
:10B5B000064645F0ADF800E0002628463146224612
:10B5C0000DF078FD002070BD08F440202DE9F04119
:10B5D00086B07C4F884605460024122C0ED03819C0
:10B5E00090F83A10012911D0052905D334302946A5
:10B5F0000622F5F74CFA58B10934EEE7287A02280A
:10B6000002D8287B012805D9122148E00C2146E008
:10B610000B2144E00026022E40D006EBC6003C1869
:10B6200094F83A0008B10136F5E73FF0F1F984F8F3
:10B630003C0098B38DF81200A888398C8DF8116001
:10B640002E7AADF8040028680090B87E8DF81000BE
:10B65000B88A08440290B5F90A00C10B01EA40001B
:10B66000ADF80C003EF03CFB00210130ADF81310AA
:10B670000F4931F816104843ADF80E0068461BF02C
:10B68000A5FE0126014684F83A60A8882A683D6034
:10B690002087404662633DF0DCFD04E0092140461E
:10B6A0003DF0D7FD0026304606B0BDE8F08100BF72
:10B6B00074E8050010B502464FF4885000210123BC
:10B6C00000240CF0C1FA047008F0E6FE002010BD62
:10B6D00010B502464FF488500021012300240CF0DD
:10B6E000B3FA047008F0D8FE002010BD10B5024671
:10B6F0004FF488500021012300240CF0A5FA0470B7
:10B7000008F0CAFE002010BD2DE9F04F87B00A46B0
:10B7100080464FF488500021042300250CF094FA51
:10B7200045800570044698F80600012821D0A8BB82
:10B73000C648DFF894A04FF0160B0DF105090DF186
:10B74000060790F85560012E31DB06F16000DAF84B
:10B75000003049463A468DF805B0C5B228469847AC
:10B7600028B9404639460622F5F791F9C0B1013EA5
:10B77000E9E7B648144D90F85510012917DB01F19F
:10B780006000AA684E1EC0B2904702283146F4D02D
:10B7900058B96088314601306080EEE7122005E03C
:10B7A000DAF808102846884740B103202070204668
:10B7B00008F072FE002007B0BDE8F08F0120608025
:10B7C000F5E700BF50F740209CE940202DE9FF41FC
:10B7D00004464C480D4690F8AC00C0070BD04A48D0
:10B7E0000DF10F0201212346009506682B20B0477A
:10B7F0009DF80F10E1B3218841F201102A46012380
:10B800000CF022FA80462078404F07EB8000C56894
:10B810000020029055B195F8290002AA00213BF0C2
:10B82000C5FC28B144F074FF1F201BE0022019E082
:10B830000299032000E001300D281CD057F8202089
:10B84000002AF8D04B7892F829609E42F3D16B79A8
:10B8500056799E42EFD092F82D20022A18BF052A71
:10B86000E9D10C2088F80000404608F015FE0020C1
:10B8700004B0BDE8F08195F82B1095F82D00012952
:10B8800029D10428EDD1002088F80000404608F0B6
:10B8900003FE95F82D00022826D195F828004421B2
:10B8A00020F092FB0028E2D1A97BEB7A0298442297
:10B8B000009129463BF07EFA284616213BF050FACB
:10B8C0003868002485F82D400028D0D00C380BF0C3
:10B8D0005DFF3C60CBE70528D5D8012101FA00F0D7
:10B8E00010F0230FBDD1CEE7052085F82D0095F887
:10B8F0002C002DF0A1FF012085F82E00A07885F8FE
:10B900002A00B4E728EC4020F0E4402044E840203E
:10B910002DE9F84391468846054621F0FFFD08B120
:10B920000C272BE0194850F82540B4F89600C007C2
:10B9300023D128020C23011D40F209100A460CF005
:10B9400083F9134A0121064623F010FF30462946A9
:10B950000022002723F02AFF98F8020030721328F3
:10B9600008BF1620707230460CF0ACF9B4F896009F
:10B9700040F00100A4F8960000E03A272846494626
:10B980003A4621F00FF90020BDE8F883B8F44020D2
:10B99000ADCD02002DE9F041064622480F0A1446BB
:10B9A0000D4650F8278008460CF010FA19280CD8DC
:10B9B000012101FA00F01C49084206D00C21204662
:10B9C0000DF09DFB0020BDE8F081B078002117A2AA
:10B9D000062915D0535C01318342F9D1318807F132
:10B9E00080028A420ED1012188F8370040F21D60A2
:10B9F0002A4688F8BA1229460CF07AF90021DEE7C7
:10BA00001221DCE728460CF0E1F901281CBF0220D6
:10BA1000BDE8F081B2783188284610F015FF014664
:10BA2000CDE700BF08F440200100C0030513141542
:10BA30001A29000080B508460449012281F8312006
:10BA400000213DF0F8FB002080BD00BF50F74020F2
:10BA500070B590B00646084614460D460CF0B6F98F
:10BA6000042856D1D6E90201D6F81A20336ACDE966
:10BA70000101CDF8162021460793706A0890D6F888
:10BA80003200CDF82E00D6F83600CDF83200708F97
:10BA9000ADF8360096F83C008DF8380096F83D0079
:10BAA0008DF83900F08FADF83A0096F842008DF825
:10BAB0003E0030690390307D8DF81000D6F81500F7
:10BAC000CDF81100707E8DF81500B06A099096F8D7
:10BAD0002C008DF8280096F831008DF82D00D6F84E
:10BAE0002D00CDF82900B6F8400001AE324680F4B2
:10BAF0007070ADF83C00284610F0F8FCF349280AB5
:10BB00003C2251F82000314600F53370F4F77AFFFB
:10BB100003E020460C210DF0F2FA002010B070BDB9
:10BB20007CB50446084615460E460CF04FF958B150
:10BB30000021E648360A8DF80710A17850F8260053
:10BB400039B12846122101E0284602210DF0D7FA2A
:10BB50001DE0012180F84B10284600210DF0CFFA9E
:10BB60000DF107013046002214F0FAFB9DF8071092
:10BB700011B120880DF044FB218841F202103922D6
:10BB800002230CF061F82188018008F085FC002078
:10BB90007CBD00BF2DE9F0410446CC480F0A904619
:10BBA0000D4650F8276008460CF010F9A0F1170177
:10BBB000032902D240460C2102E030B9404602215E
:10BBC0000DF09DFA0020BDE8F081D4F82E00C6F8F3
:10BBD000F602D4E90101D4F81620E369C6F8DE22A2
:10BBE000C6E9B301C6F8E43206F53371206AC6F837
:10BBF000E80294F8320086F8FA0294F8330086F8E6
:10BC0000FB0294F8340086F8FC0294F8350086F8BC
:10BC1000FD0294F8360086F8FE0294F8370086F8A4
:10BC2000FF0294F8380086F8000394F8390086F88B
:10BC30000103608FA6F8020394F83E0086F806031D
:10BC4000207C86F8D802E068C6F8D402607D86F8C9
:10BC5000DD02D4F81100C6F8D90294F8280086F85D
:10BC6000F002606AC6F8EC02D4F82900C6F8F102C6
:10BC700094F82D0086F8F502A08F80F47070A6F875
:10BC80000403384612F066F90746404639460DF07F
:10BC900036FA002F96D140F20B6029462A4604233B
:10BCA0000BF0D2FF4FF480714180218801800CF0AD
:10BCB00009F887E7F8B50446007802280ED0012875
:10BCC00029D000285DD1964900200022322A00F0B8
:10BCD00085808B180A3283F83000F7E76078411EC0
:10BCE00002292BD2267A701E02284AD88C49A51C1C
:10BCF00000200022322A46D08B1893F8307047B1CA
:10BD000093F83170022F04D193F832700FB983F891
:10BD100030000A32EEE76078411E022922D200F09C
:10BD20005FF8002854D001214170617801298170A9
:10BD300033D0E1880181D4F802104EE000284DD1C3
:10BD4000A4780020611E02291CD875490022322ADD
:10BD500036D08B180A3293F83150022D08BF83F881
:10BD60003000F4E768B96E4900200022322A35D04D
:10BD70008B180A3293F83140012C08BF83F8300049
:10BD8000F4E71220F8BD00F02BF808B30221C670CA
:10BD900041706178012981701CD1E1794172B4F858
:10BDA0000510A0F80710A178627911400171E178BF
:10BDB000A279114041712179E279114081710DE040
:10BDC00000F00EF820B10221C470A0F8011005E0C7
:10BDD0000720F8BDA9880181296841600020F8BDCD
:10BDE0004F4A0021322904BF00207047501890F8B4
:10BDF00030300BB10A31F5E7012100F8301F7047F0
:10BE000010B504290AD8DFE801F02020030C1B003C
:10BE1000016840680E4AC2E9021016E044F078FC5E
:10BE200013E0016842680A48C0E90012002109A233
:10BE300008290AD0535C445C234343540131F7E79B
:10BE400001684068024AC2E90410002010BD00BF2A
:10BE5000B0EE402000600400F8074002B0B5094D84
:10BE60000C4695F85400022806D11AF07DF90146D7
:10BE7000002085F8540000E00C2120463DF0DBF95D
:10BE80000020B0BD50F7402070B50D46080AB749F4
:10BE9000144651F8206028460BF098FF32280ED047
:10BEA00008B902210CE096F83C00022807D140F2C4
:10BEB0000A6029462A460BF01BFF002100E00C21F6
:10BEC00020460DF01CF9002070BD00BF08F4402092
:10BED000B0F57F7F91BF11203A4841800020704724
:10BEE00010B5E94A00210A2906D0531801311B7EFA
:10BEF000002BF8D00C2100E000210023DC1D152CC4
:10BF000007D0134493F82230002B2346F6D00C219F
:10BF100003E011B92B4908700021084610BD00BF8D
:10BF2000B0EE40202748017811B1418901314181AB
:10BF3000704700BF2348017801291CBF4FF6FF70EE
:10BF4000704741884089814298BF0146081A80B2F3
:10BF5000704700BF1B48817901291CBF4FF6FF7055
:10BF6000704701898089814298BF0146081A80B2D2
:10BF7000704700BF13494A89824298BF0246101A8F
:10BF8000488170470F498A89824298BF0246101A39
:10BF9000888170470B4800218181C0E900118160D0
:10BFA000704700BF0748018100207047054988712C
:10BFB000704700BF0348817911B1818901318181C6
:10BFC000704700BF28EF40202DE9F04186B00746BA
:10BFD00066480E0A14460D4650F8268008460BF0B7
:10BFE000F5FE50B101280ED1F878012802D83A792F
:10BFF000032A0DD32046122101E0204602210DF034
:10C000007EF8002700E00227384606B0BDE8F08140
:10C01000B9687B6988F83D0001383C69B0FA80F066
:10C02000C8F80010F968C8F81410B97888F84210F8
:10C03000414601F83E2F424642F8103F434643F83E
:10C04000044F440998F83600471EB7FA87F77F096E
:10C05000BC4228D0B8F820C0002708F1240E08F10F
:10C060000C048DE814404246CDE903C7F7F758F8B1
:10C0700004464FF4016021460DF041F8002CC3D175
:10C080000CF052FA013098F83630B8F82420C1B2DA
:10C09000304611F05EFE284613F0AEF928466821BE
:10C0A0000BF0BEFEADE706F1800441F20210212242
:10C0B000182321460BF0C8FD05464FF4016000210E
:10C0C00000270DF01CF82F716C802F70D8E900014B
:10C0D000D8E904232961B8F83D10A5F80510C5E991
:10C0E000020328466A6108F0D7F98DE72DE9F84385
:10C0F0000446E2480D0A0F460423218850F82580A3
:10C100004FF488500BF0A0FD4FF00009064680F870
:10C1100000902088708038460BF058FEE8B1304619
:10C120008DF8039008F0B8F901200DF10301012208
:10C1300088F84B00284614F013F99DF8031011B14C
:10C1400020880DF05DF8218841F2021011220223AF
:10C150000BF07AFD2188018002E002203070304629
:10C1600008F09AF90020BDE8F88300BF08F44020E9
:10C1700010B50C4681880088FFF7AAFE01462046CC
:10C180003BF064FE002010BDB0B50C46054681882A
:10C190000088FFF79DFE014620B9E988A878FFF7DF
:10C1A00001FF014620463DF046F80020B0BD2DE9D4
:10C1B000F843884681460026002799F80000864209
:10C1C0000AD209EB8604658844F0FCFF854207D259
:10C1D000A08801360744F0E7B8B2FFF7CBFE05E0D0
:10C1E00044F096FA404612213BF030FE0020BDE8B4
:10C1F000F8832DE9F04105468846002400200027F9
:10C20000002629788C4215D205EB84014A8822F059
:10C210000103802B02D189880F4409E0D30505D49E
:10C22000092AF8D944F074FA122001E089880E44F2
:10C230000134E6E7010604D0C1B240463CF0FBFF02
:10C2400005E0B8B2FFF796FEB0B2FFF79BFE002004
:10C25000BDE8F081B0B50C4D044678212846F4F7CE
:10C26000F8FB0A480321FFF7CBFD00201F21C5E999
:10C2700004104FF4FD50A5F87400FFF78BFE204624
:10C28000BDE8B04008F048BFB0EE402064D50500DE
:10C29000B0B5374D0C4695F85400012806D119F079
:10C2A00063FF0146002085F8540000E00C21204681
:10C2B0003CF0C1FF0020B0BD70B586B02C4E0546E5
:10C2C0000C4696F8540008B10C250DE0E8780138CA
:10C2D0002F2808D8A8789E2805D168788B2802D105
:10C2E00028783F2807D91225204629463CF0B1FF7F
:10C2F000002006B070BD3DF0F3FC00212B79EA78F8
:10C30000029129888DF80E3096F82430ADF804108B
:10C31000A9788DF80F30738C8DF80610F17C02EB44
:10C32000D322A1F10201B1FA81F1ADF80C204FEA5C
:10C3300051118DF8101030B1012814BF4FF4407026
:10C340004FF4007001E04FF48070ADF8120000204F
:10C350008DF8140001A819F0FDFD054601203D21CE
:10C3600086F8540006F1B200F4F773FBBCE700BF97
:10C3700050F74020F8B5044640480E0A0D4650F8E4
:10C38000267008460BF022FD38280ED0392816D129
:10C390000F482946026840F20360904797F8B1328F
:10C3A000A2793046192111F089FC40F23440002175
:10C3B00022460CF07FFE284612F054FD05E040F2C4
:10C3C00034400C2122460CF075FE0020F8BD00BF61
:10C3D00054E44020FEB5044628480E0A0D4650F8A5
:10C3E000267008460BF0F2FC00F0FE0038281ED143
:10C3F00097F8B3020121002808BF0221E279A07951
:10C40000114387F8A8020339B1FA81F1490987F885
:10C41000A912207A87F8AA0228460BF0D7FC3928FF
:10C4200007D1304611F0FCFB28463D2118E00C21D5
:10C430001CE0192097F8B1128DF8050097F8AA02B0
:10C440008DF80800B7F8A802ADF8060041F0FE002C
:10C4500001A98DF80400304611F0C2FA28463A21AD
:10C460000BF0DEFC284612F0C7FF002140F22B4003
:10C4700022460CF01FFE0020FEBD00BF08F4402045
:10C480007FB505461F480C4690F8AC0080070BD5D9
:10C490001D480DF10F0202212B46009406682B2047
:10C4A000B0479DF80F1059B3298841F20110224678
:10C4B00001230BF0C9FB04462878144901EB8000E6
:10C4C000C668AEB196F8290002AA00213AF06EFEC5
:10C4D000054680B996F82D0001280BD196F8280062
:10C4E000002100251FF034FE022086F82D0002E016
:10C4F000022500E00C252046257007F0CDFF002026
:10C5000004B070BD28EC4020F0E4402044E8402016
:10C510002DE9F0470546C0790C460F2802D8287847
:10C52000012807D91227204639463BF08FFC00200E
:10C53000BDE8F087DFF8909799F80E01012801D146
:10C540000C27F0E7022089F80E013BF02FF8064691
:10C5500044F038FE0C278642E5D32E4616F8011B20
:10C5600030463BF0A9FCDFF85CA78046BAF804002F
:10C57000BAF80610081A90FBF7F040450EDD08EBFC
:10C580008801D9F8300000EB41014A7A520716D5EC
:10C59000C988EA79D140C907C4D110E03BF072FCE8
:10C5A0008046BAF80400BAF80610081A0C2190FB6D
:10C5B000F1F0404501D10727B5E7D9F8300008EB85
:10C5C00088013268012340F8112000EB4100B28855
:10C5D0008280D9F83000EA7900EB41009340297855
:10C5E000C78801723B43C380437A43F0050343721B
:10C5F00030463BF013FE28B92A78EB7940463146A5
:10C6000033F05CFC00278EE72DE9FE4F8B46017866
:10C61000012906D9122158463BF018FC0020BDE83C
:10C62000FE8F054602D1A879C028F3D3734E96F841
:10C630007A0028B13BF02AFE08B10C21EBE72978FB
:10C6400005F1010840463BF037FC6B4CA188E288BD
:10C65000511A0C2291FBF2F1814208DD00EB8000BF
:10C66000316B01EB4000407AC0F3400700E0002747
:10C67000297840463BF0C8FFE1882289511A3822C8
:10C6800091FBF2F48442C5DC05F1070A2C49102223
:10C6900002975046F4F7FBF93768A0B100264FF037
:10C6A0002709F0B284420EDD00FB09708179FF2971
:10C6B00007D000F1170150461022F4F7E8F90028DE
:10C6C000A8D00136EDE700202721C6B2B44206DD2E
:10C6D00006FB01729279FF2A01D00130F5E7B442DE
:10C6E00001D1072197E7A9464146524619F8170B91
:10C6F00000900298019030464B4634F099FB3F4F32
:10C7000027242A78386806FB04018A7106FB04F2A4
:10C71000D8F8003083501022B8F8040088804946C9
:10C72000386806FB04000730F4F76CF938685146A6
:10C73000102206FB04001730F4F764F900216AE7C1
:10C74000F6C305002DE9F843884605463BF0BAFDDF
:10C75000F0B12978022901D3FF2917D16E1C304688
:10C760003BF0AAFB244C07464FF00C09A088E18857
:10C77000081A90FBF9F0B8420CDD204807EB87015E
:10C78000006B00EB4101497A890711D512212CE099
:10C790000C212AE03BF076FB0746A088E188081AC6
:10C7A00090FBF9F0B84201D107211EE0F748006B79
:10C7B00007EB8701326840F8112000EB4100B28896
:10C7C0008280F248006B00EB41002978427A0172C6
:10C7D00042F00302427230463BF0F2FC20B92A7864
:10C7E0003846314638F052FF002140463BF02EFBE0
:10C7F0000020BDE8F88300BF0CEE40203CF640204E
:10C800002DE9F04F91B01646059131B1054601EB87
:10C81000030828B130882F1805E00021002078E0B7
:10C8200006AD05F12B07012405A804A942463B46A5
:10C83000CDE90455009406F051F9002867D1681C31
:10C8400004A942463B4600940390059005A806F0D3
:10C8500045F900285BD105F12A0A4FF0FF34029612
:10C86000039801340078844257D2AAF128000DF1D0
:10C87000100B0DF11409012642463B46059048462F
:10C880005946009606F02AF900283FD1AAF1270060
:10C89000594642463B4600960590484606F01EF92A
:10C8A000A0BBAAF12600594642463B460590062009
:10C8B0000090484606F012F940BBAAF12000594604
:10C8C00042463B4600960590484606F007F9E8B90F
:10C8D000AAF11F00594642463B4605901AF8200C23
:10C8E0000090484606F0FAF880B9012059464246C1
:10C8F0003B460AF12906CDF814A00090484606F000
:10C90000EDF8B246029E0028AAD000E0029E0499EB
:10C91000491B318011B0BDE8F08F0020F7E700001F
:10C920002DE9F04F87B0054677480C4690F8A800EF
:10C93000C0070BD075480DF11B0201212B46009456
:10C9400006682A20B0479DF81B10A9B341F20110D8
:10C9500000212246012300270BF076F98346287830
:10C9600039F0AEF8059010B105970C261EE003AE25
:10C970000397022F0CD8F8B2012132463AF016FC88
:10C9800020B90399A878097E8142EED00137F0E7FB
:10C99000297E51B105F119090A4648467AB110F8C5
:10C9A000013B013A013B1E2BF8D9122658468BF861
:10C9B000006007F071FD002007B0BDE8F08F05A80A
:10C9C00038F0DEFF059F0646002845D107F1320A00
:10C9D00000240DF11008287E844215D219F8043085
:10C9E0007A780DF10B0001210090404639F08CFA65
:10C9F00070BB9DF80B000AF8040097F83100013471
:10CA0000013087F83100E6E728780521B875012064
:10CA10006C88B8763C762879002808BF0121B97661
:10CA2000687DB874297EE88A87F831103882002141
:10CA30002879796028B107F11B00691D1022F3F7EE
:10CA4000E1FFE0B22C2105223BF092FE064603E016
:10CA50000646072808BF0D26002EA7D0002FA5D018
:10CA6000787838F04FFFA1E77CB50446264890F867
:10CA7000A80080070CD5254800910DF1070202217E
:10CA8000234605682A20A84706469DF8070098B364
:10CA9000207839F015F898B10646807E01070DD44C
:10CAA00000F00300411E012908D802280AD170783D
:10CAB000162129F0DFFA08B305460CE00C250DE03D
:10CAC00042250BE0307E3BF06FFE304644210022D1
:10CAD000002538F0BBFF707838F014FF4FF4885011
:10CAE000002142F26C02022300260BF0ADF82178FF
:10CAF0000570417007F0D0FC30467CBDB07E40F040
:10CB00000300B0760026F7E728EC4020F0E4402050
:10CB10002DE9F8436C4D884695F80E0101281CD08C
:10CB2000022000263C274FF0010943F20C0485F84F
:10CB30000E0144F047FB86420AD2A869C05D0D2869
:10CB400003D809FA00F0204202D140370136F0E75D
:10CB5000F4B244F037FBA04201D90C2110E00026CA
:10CB60003C2744F02FFB864209D2A869C05D01280A
:10CB700004BFF0B23BF010F840370136F1E7002176
:10CB800040463BF063F90020BDE8F8833CF64020C6
:10CB90002DE9F843DFF8949D884699F80E010128A5
:10CBA00001D10C252EE0022089F80E013AF0FEFC9E
:10CBB000064644F007FB0C25864223D3414C002651
:10CBC000A088E188081A90FBF5F1F0B2814218DDE7
:10CBD00000EB8001D9F8302002EB41010A4612F83F
:10CBE000093FDF070BD09F074FF0FB0758BFFA271D
:10CBF0003B4013700A7A4FF6FF7333F0CFF90136DA
:10CC0000DEE70025404629463BF020F90020BDE83C
:10CC1000F88300BF70B52C4D0C4695F87A0020B112
:10CC20003BF034FB08B10C2115E0264800222723F5
:10CC3000C1880089401A382190FBF1F02968FF254E
:10CC4000D6B2B04204DD06FB03160132B571F7E738
:10CC500034F066F9002120463BF0F8F8002070BD62
:10CC60002DE9F84388460C253BF02CFB18B3154FF3
:10CC7000DFF8B89C0026B888F988081A90FBF5F10F
:10CC8000F0B2814216DD00EB8001D9F8302002EBD2
:10CC900041010A4612F8093FDC0709D05C074FF052
:10CCA000FD0458BFFC24234013700A7A38F04EFD6F
:10CCB0000136E0E70025404629463BF0C7F8002052
:10CCC000BDE8F8830CEE40203CF640202DE9F84307
:10CCD0000546334890460E4650F82590284620F0E9
:10CCE00009FC08B10C2752E0284620F0F3FC28B9D3
:10CCF000B9F89200C00701D11A2748E0B9F89600A8
:10CD0000C00641D43389F2887188B0881FF0B2FF21
:10CD1000E0B328023023011D4FF486700A460AF062
:10CD200093FF204A0521044622F020FD2046294693
:10CD30000022002722F03AFDB088718860812181AD
:10CD4000D6F80620E260B289B2EB400F28BF42005D
:10CD500070896282B0EB410F28BF480020822846CC
:10CD600020F0B8FC80F0010040F2011184F82C00A2
:10CD70002046A4F82D100AF0A5FFB9F8960040F05F
:10CD80001000A9F8960002E03A2700E01227284692
:10CD900041463A461FF006FF0020BDE8F88300BF79
:10CDA000B8F4402065E102002DE9F04F8BB0054654
:10CDB0007D480C4690F8A80040070BD57B4801AA97
:10CDC00004212B46009406682A20B0479DF80410E1
:10CDD00000293FD02878EF2830D86978EF292DD85E
:10CDE000AA78531E1E2B29D86F68714EA7F1FF0336
:10CDF000B34223D8B5F8088040F6FE76A8F10103C7
:10CE00009BB2B3421AD8B5F80AB040F69B76ABF1A4
:10CE10000503B34212D82B7B1E2B0FD895F80D902B
:10CE2000B9F1070F0AD8AB7B012B07D895F80FA0F3
:10CE3000BAF1010F02D82E7C022E0ED341F201105E
:10CE40000021224601230AF0FFFE1121017007F0A4
:10CE500023FB00200BB0BDE8F08F8DF8040001200B
:10CE60008DF806208DF8051005F1110110228DF8BE
:10CE70001A608DF81530ADF8108002978DF8190002
:10CE800001A81730F3F7BEFD5FEAC9704FF001014A
:10CE900008BF09F004015FEA897040F2E24048BF30
:10CEA00002218DF81410B7FBF0F909FB107000286F
:10CEB0004FF0010018BF8246BAF1000F04D0B8F15C
:10CEC000F60F0ED8012717E04FF47A7240F6C4101F
:10CED000B8F1FB0F09FB00FC0BFB02F20FD801239A
:10CEE00018E008F1F500F62280B2B0FBF2F708EB8B
:10CEF0000700013890FBF7F808F1050812E008F187
:10CF0000FA03FB279BB2B3FBF7F308EB0307013FE0
:10CF100097FBF3F80220624538BF012003FB00F7BE
:10CF200000FB09F9234A4046002E18BF0430515C2B
:10CF3000214AC0B2515CF8F7DFFB5FFA88F12A7B27
:10CF40008DF816A0ADF80C908DF81770ADF8121092
:10CF50001A490132C9687A430844A978D2B2963096
:10CF6000484341F64C5109FB01F100EB80004000C1
:10CF7000B1FBF0F0F9B2C0B20844013890FBF1F017
:10CF80007843C0B2904288BF1046884298BF084696
:10CF90008DF80E00B0FBF1F021468DF8180001A8C5
:10CFA00000F00EF855E700BF28EC4020F0E44020E8
:10CFB00000FF0F000BC4050010C405001CF6402044
:10CFC0002DE9F04F93B00546DFF874060C4690F853
:10CFD000A80000070DD5DFF86C060AAA08212B4629
:10CFE000009406682A20B0479DF82810002900F018
:10CFF000928068782F890DF147010DF146023AF0D1
:10D0000027FD48B1064641F20110002122460123C6
:10D010000AF01AFE06707BE040F2E2400AAE07FB1F
:10D0200000F900270A97022F17D8F8B201213246DB
:10D030003AF0BCF878B90A982A78817D8A4205D1FD
:10D04000807E00F00300022805D156E0007E9DF8A6
:10D050004610814253D00137E5E72878EF2842D8BF
:10D06000A84618F8020F01381E283CD8288940F637
:10D070007C410438884236D869689C4AA1F1FF0097
:10D08000904230D8AB461BF80A3F581EC0B21E284B
:10D0900029D8E889421E92B2FA2A24D8AA89002700
:10D0A000B7EB123F1FD16F7C012F1CD895F812E00F
:10D0B000BEF1010F17D895F813C0ACF10107FFB20C
:10D0C000062F10D895F814A05746CDF824A0AAF141
:10D0D00001070E2F07D895F815A0BAF10F0F574684
:10D0E000CDF820A01AD941F20110002122460123D7
:10D0F0000AF0AAFD122101700AE00C2500E0422589
:10D1000041F201100021224601230AF09DFD057025
:10D1100007F0C2F9002013B0BDE8F08FB3FBFCFAB2
:10D120000AFB1C373F0604D1099F07FB0CF79F42FF
:10D1300008D941F201100021224601230AF084FDA2
:10D140001121D8E70ED2089B002BCCD0089F099B59
:10D1500007FB0CF7AAEB030307FB03C34FF6F077BB
:10D160003B42E6D1BEF1000F46D04944831E4FF644
:10D17000FD77013903FB0CF3B1FBF9F103FB0171FE
:10D1800089B29142AFD3297C4A07D2D0DB4B01F060
:10D190000F020F099A5CDB5D1A44012AC9D1AA7DEE
:10D1A000002AD74A18BF0430C0B2515CD54A575C38
:10D1B0003946F8F7A1FAA97D81460C2000293946A5
:10D1C00008BF08200597F8F797FA96304946CDF83A
:10D1D00010900790CC48697CC068012903914844AD
:10D1E00000F196000990084617D198F800000999B7
:10D1F00001FB00F7029718E0B9FBF1F303FB119371
:10D20000002B7FF470AF01FB0CF1B1FBF9F141434E
:10D2100089B28A423FF667AFB5E79BF800000999EB
:10D22000C34601FB00F70291099707989BF800A0FD
:10D2300040F2E24180B207FB0A0928894843814550
:10D2400003D94FF03B0B002507E0287838F038FC75
:10D250001290A0B100254FF0000B41F20110002107
:10D26000224601230AF0F0FC80F800B007F014F920
:10D27000002D3FF44FAF129838F078FC4AE798F849
:10D28000001012A838F07CFB28B183460728DAD1B9
:10D290004FF00D0BD7E707FB0AF012994FF0000A89
:10D2A0000190A87C0891487501F13200069098F829
:10D2B000000082451CD208980AF101070021FBB248
:10D2C000427810A8009638F01FFE002840F0EC804D
:10D2D0009DF82800069901F80A000899BA4691F8C5
:10D2E0003100013081F83100E1E700BF00FF0F009D
:10D2F00008989DF84610C27D9DF847003AF090F9D5
:10D300008346002840F0D180089FF87D3BF02AF941
:10D3100080464FF41C7040F2712100264FF0010B43
:10D3200000EB49008DF83C60ADF83AB0ADF83260E2
:10D33000B0FBF1F04FF0FF31ADF83000ADF82E004A
:10D34000288901EB80018000ADF82A00ADF82800A3
:10D35000F87DADF8341000F50070ADF83800ADF888
:10D3600036000AA84BF0A4FF002891D1BDF82A008E
:10D37000BDF83490A8F814B088F81660A8F8080032
:10D38000A8F80A90DDF82E00C8F80C00BDF83600A9
:10D39000C8F80460A8F81200A8F8100040464CF045
:10D3A0000BF82878089F0821B9769DF84610B875C3
:10D3B0009DF84700397678760C21A87D002808BFB3
:10D3C0000821B976A878022187F83100A889F88168
:10D3D000A87BF874E87C38752889B8816868B860DB
:10D3E000C5200AF0D1FB8346786097F831008BF8AE
:10D3F0000600A87AEA7C2B7DA97B8BF818308BF885
:10D4000008208BF80700029A059BA8898BF8191051
:10D41000ABF822002889CBF80C20099ACBF814200D
:10D420003A4AABF80400D25C8BF8242040F2E24286
:10D430005043019ACBE914208BF86E308BF86D10B5
:10D440008BF86C60ABF8649003988BF86F000798CA
:10D45000ABF862000498ABF860006868CBF81C0079
:10D46000687D8BF81000A87C8BF8200078788BF80A
:10D470006B00A87D0146002818BF01218BF83610EB
:10D48000F97D8BF882608BF88110089991F8311042
:10D490008E4216D206990BEB4602895D013682F860
:10D4A000846082F88310F0E78346089D9DF846105B
:10D4B0009DF847006A783AF0EDF8687838F022FA7B
:10D4C000C1E6C8B1089E05F11701102206F11B083C
:10D4D0004046F3F797FA00250E4A4146CBF8315003
:10D4E0008BF83550B07E737800F0FC000130B076D8
:10D4F0000748F7F777FAAEE60125ACE678ED0500C8
:10D500000BC4050010C405001CF6402030C4050003
:10D51000D0E00500195E04002DE9F04F87B0054604
:10D5200047480C4690F8AC0040070CD545480DF133
:10D530001B0204212B46009406682B20B0479DF85F
:10D540001B10002960D041F2011000212246012366
:10D5500000260AF079FB0446202005963AF0E2FE08
:10D5600001460C2000294AD0DFF8DCB0DBF80010BF
:10D57000002944D10294A81C002405AA0026039087
:10D580001BE002295AD899F804000DF113018AF81A
:10D59000280022F0EFFE88BB9DF81300C8BB03985B
:10D5A000214639B130F8042BB8F8003001399A42DD
:10D5B000F7D12CE0013401363A462978F0B288429E
:10D5C00029D205EB8009C84618F8020F0BEB800042
:10D5D000D0F80CA0BAF1000F2AD09AF82B00C0B9ED
:10D5E0009AF829000021174639F0E0FD10BB9AF89F
:10D5F0002D100C20022918BF0529C2D1029C2070D1
:10D60000204606F049FF002007B0BDE8F08F122049
:10D61000F4E70C20F2E702980026067006F03CFFC3
:10D620008BF80860CBF8005038F034FF0120EBE7AE
:10D630000220E3E743F06CF81F20DFE70B20DDE773
:10D6400028EC4020F0E4402044E840202DE9F0415F
:10D65000B64F0C4680460026002543F0B3FD8542B8
:10D6600008D2B869304490F83C00052802D0403612
:10D670000135F2E7EDB243F0A5FDA8420BD930F039
:10D68000C5FE0C280ED14046032122460AF00CFBB1
:10D690000120BDE8F08120460C213AF0D7FB0020A4
:10D6A000BDE8F081B86980590C380AF003FBB9690C
:10D6B00000208851BDE8F0812DE9F04198B09B4EE3
:10D6C000054600200C468DF8070096F80E0102284A
:10D6D00016D0012086F80E01002007468DF80700BD
:10D6E00043F070FD874207D2B06900EB871090F8D5
:10D6F0003C10781C0529F0D143F064FD874207D225
:10D700000C2120463AF0B0FB002018B0BDE8F081B3
:10D71000287930B96979A81D3AF052FD08B10B217A
:10D72000EFE729886888884201D91221E9E70B1FB1
:10D7300043F6FC72122193429CBF04389042E0D819
:10D74000288AEB898342DCD8298BEA8A8A42ECD882
:10D75000AA8A12210A2AD4D3B0F5486FD1D8062B51
:10D76000CFD3B2F5486FCCD8698A8B087C2BDCD834
:10D770006B79032BD9D82B7B032BD6D801314843A7
:10D78000B0EB820FD1D2D80706D0694906F122004A
:10D79000F8F750FD0028C8D10DF1070039F0DAFE86
:10D7A00001460028ADD100200121B5F818808DF880
:10D7B0001C00ADF812009DF80700ADF81A10ADF886
:10D7C0001800ADF81600288A8100B8EB400FADF8BC
:10D7D0000A104FF0FF3101EB8001ADF81410E98918
:10D7E0004FEA8102ADF8082028BF4FEA4008022026
:10D7F000B8F1020F98BF8046EF8A4FEA4802ADF8B1
:10D800001020B7EB410F28BF4F00022F98BF0746EB
:10D810007800ADF80E0002A84BF04AFD08B10D21CA
:10D820006FE70020002100223A230AF00DFA9DF84C
:10D830000730B2694FEA8311505000B301214172A1
:10D8400069798170297B41702968C0F80A102979AB
:10D85000017069899DF80730A0F80710D5F8061007
:10D86000C0F80310D5F80E10A0F81880C782C0F8D1
:10D870000E10698A4182AF8A8782B26901E0AF8A5D
:10D88000698A02EB8310052280F83C200120ADF864
:10D890004010ADF842708DF83200BDF812002979C1
:10D8A0006A79ADF83E0028688DF8361096F87A103F
:10D8B0008DF835200E90BDF80C008DF85C108008B6
:10D8C000ADF83C001F208DF830004FF0FF300B907A
:10D8D0006889ADF82A00D5F80600CDF826009DF835
:10D8E00007008DF8330000208DF83100287B0328D5
:10D8F0008DF834000FD8DFE800F002070207308C03
:10D90000ADF82400F06904E0F08CADF82400D6F8FE
:10D910002200089001E042F0FBFE08A830F002FA75
:10D920000146002818BF0321EBE600BF3CF640206B
:10D93000F0C305002DE9F84305462E4814468946F4
:10D9400050F8256028461FF00DFE18B9B6F8920071
:10D95000C00708D10C27284621463A461FF022F975
:10D960000020BDE8F883092D03D896F83C00C007D5
:10D9700001D11A27EFE7B6F89600000738D42846F9
:10D9800039F0A2FA0028E5D128023C23011D4FF40A
:10D9900085700A460AF058F9174A0321804621F09B
:10D9A000E5FE404629460022002721F0FFFED9F877
:10D9B0000200D9F806101022C8E9020109F10C0191
:10D9C000B9F80A00A8F8380008F11000F3F71AF8BF
:10D9D00096F89200C0F3401088F83A0040460AF0EA
:10D9E00071F9B6F8960040F00800A6F89600B2E784
:10D9F0003A27B0E7B8F44020A9E50200E0B50021DD
:10DA0000044B0122009100F11001F6F77DFF002088
:10DA10008CBD00BFE77C040070B50C460988064643
:10DA20004FF4885008230AF00FF9054630461FF0DE
:10DA300007FE08B1022014E0A17819B1042903D926
:10DA400011200EE012200CE030462EF001FE0C49B1
:10DA5000687191F8390091F83B1037F0EFFDA8712B
:10DA60000020A178287029712188698010B10020D8
:10DA7000A5F80500284606F00FFD002070BD00BF88
:10DA8000A8E940202DE9F04FC5B09346049131B18B
:10DA90000546CE1830B1BBF800002F1805E0002174
:10DAA00000201AE005AD05F58077012404A803A93C
:10DAB00032463B46CDE90355009405F00FF850B9C6
:10DAC000681C03A932463B4600940290049004A8C7
:10DAD00005F004F830B10399491BABF8001045B0CC
:10DAE000BDE8F08F05F11A0A4FF0FF3102220298CB
:10DAF00001310078814280F0C080AAF118000DF158
:10DB000010080DF10C090191009232463B460124A8
:10DB100004904046494604F0E1FF0028DBD1AAF119
:10DB20001600494632463B4600940490404604F0B5
:10DB3000D5FF0028CFD1AAF11500494632463B4611
:10DB4000049006200090404604F0C8FF0028C2D18F
:10DB5000AAF10F005C464FF0010B494632463B46A6
:10DB600004904046CDF800B004F0B8FF002840F023
:10DB70008280AAF10E00494632463B46CDF800B0FD
:10DB80000490404604F0AAFF002874D1AAF10D00C9
:10DB9000494632463B46CDF800B00490404604F07A
:10DBA0009DFF002867D1AAF10C00494632463B464A
:10DBB000CDF800B00490404604F090FF00285AD100
:10DBC000AAF10B00494632463B46CDF800B004901E
:10DBD000404604F083FF00284DD1AAF10A004946CF
:10DBE00032463B46049002200090404604F076FF07
:10DBF0000028A3467FF46FAFAAF1080049463246D9
:10DC00003B46049001200090404604F067FF002846
:10DC10007FF461AFAAF10700494632463B460490C3
:10DC200006200090404604F059FF00287FF453AFCF
:10DC3000AAF10100494632463B460490012000907B
:10DC4000404604F04BFF00287FF445AFCDF810A00C
:10DC5000404632463B460AF1FE081AF8011C009184
:10DC6000494604F03BFF01990028C2464FF00202EA
:10DC70003FF43DAF2FE7A3462DE700202BE7000040
:10DC80002DE9F04FA5B00DF110088A468146002716
:10DC9000422140468DF80F70F2F7DBFED34E96F826
:10DCA0000E01012817D0022086F80E01002004463C
:10DCB0008DF80F0043F086FA844207D2B06900EB7A
:10DCC000841090F83C10601C0529F0D143F07AFADA
:10DCD000844208D200270C2150463AF0C5F8384655
:10DCE00025B0BDE8F08F99F8000048B999F8021006
:10DCF00009F103003AF064FA10B100270B21EBE7B9
:10DD000099F80910072902D900271121E4E711F039
:10DD1000F80F02D000271221DEE7A14A01F00F0020
:10DD20000B0909F10A0E01F0020C0027105CD25C0D
:10DD3000734610445FFA80FB01F0010012215C463B
:10DD40007CB1BCF1000F00D038B11D88042DC3D3C5
:10DD50005A88042AC0D3AA42BED810330138013CE5
:10DD6000EEE7102000EB0B1C002000F110029445A0
:10DD700029D009EB0004238AE5899D42CAD8208B6B
:10DD8000E18A8142C6D8A08A002712210A28A3D39B
:10DD9000B3F5486FA0D8062D9ED3B0F5486F9BD839
:10DDA000618A8C087C2CB5D8013100EB80000027FB
:10DDB0005943400001EB81014B1C1221B0EB530F82
:10DDC0001046D2D288E799F802000128A2D899F823
:10DDD000010003289ED8C007CDF808E007D071499C
:10DDE00006F12200F8F726FA00287FF493AF0DF130
:10DDF0000F0039F0AFFB10B1014600276CE7162089
:10DE000009F10E0200270BFB00F0163000900020F5
:10DE100000995D4600F1160B594535D002F110010D
:10DE20004FF0FF34019111888B0028F800304044F6
:10DE3000012343829DF80F30077547810382C38118
:10DE4000538804EB830484819C0044801489B4EBE0
:10DE5000410F28BF4C00022C98BF02246100C180F2
:10DE60005189B1EB430F28BF5900A14298BF214609
:10DE7000490001814BF01CFA019A002858464FF0E6
:10DE80003B01AB46C4D027E79DF80F00B269AE4610
:10DE90000024810102EB801042F80190052108F175
:10DEA0000A020DF1540880F83C104FF0FF30189032
:10DEB0001F2099F809C08DF86400D9F803008DF887
:10DEC00066C0CDF85A00B9F80700ADF85E0005EB62
:10DED00045008300A34211D0029808EB04050C34DE
:10DEE0008168076810300290296232F8061CAF6121
:10DEF000178816328908EF83A983EBE70CF0050138
:10DF0000052918D1AEF1010208F11801BDF86E30F3
:10DF100002EB420201EB820108EB820049881944BE
:10DF2000BDF86C30994288BFADF86C1030F8182FEE
:10DF3000914288BF01809DF80F0099F8001099F870
:10DF400002208DF8670001208DF86A1096F87A108B
:10DF50008DF869208DF8650099F801008DF8901012
:10DF600003288DF868000FD8DFE800F002070207E9
:10DF7000308CADF85800F06904E0F08CADF8580032
:10DF8000D6F82200159001E042F0C2FB15A82FF050
:10DF9000C9FE01460127002818BF03219CE600BFE7
:10DFA00078ED0500F0C30500BCB50D46044622B16E
:10DFB000FBF7ACF958B90C2112E0D1481F215730BA
:10DFC0000A06F8D0CAB20139825C002AF8D00849A2
:10DFD00005F12002032300912946FBF7EBF80146E7
:10DFE0002046BDE8BC4039F03FBF00BF3CF64020B2
:10DFF000097F040080B50246084611460022FFF75B
:10E00000D3FF002080BD80B5034690F8402008462D
:10E010001946FFF7C9FF002080BDB0B50A46044687
:10E020004FF488500021102309F00EFE0546208889
:10E03000291D05F1080205F10C036880C0B208F043
:10E04000C3FD2870284606F027FA0020B0BDF8B5B9
:10E050000A4604464FF488500021042309F0F4FDD9
:10E060000546A078022801D9122623E02088B0F5C1
:10E07000007F0AD300F0FE0109291AD8C7B2012196
:10E08000F222384637F0C8FF0CE0B0F5807F10D39D
:10E0900000F0FE0109290CD8C7B20121F22238464E
:10E0A00038F0A0FDA27806463846012108F0D8FDD8
:10E0B00000E0022620882E706880284606F0ECF9E1
:10E0C0000020F8BD70B50A4604464FF48850002180
:10E0D000102309F0B9FD05462088B0F5007F1AD35A
:10E0E00000F0FE01092934D8C6B2291D05F1080245
:10E0F00005F10C03304608F067FD112818BF002811
:10E1000028D13046012137F035FF58B33046002181
:10E1100037F030FF1EE0B0F5807F1AD300F0FE012B
:10E12000092916D8C6B2291D05F1080205F10C030C
:10E13000304608F049FD112818BF00280AD13046A2
:10E14000012138F0FFFC68B13046002138F0FAFCBC
:10E1500000E00220287020886880284606F09CF99C
:10E16000002070BD0020F5E7F8B50A4604464FF4DC
:10E1700088500021042309F067FD0546A078022895
:10E1800001D9122623E02088B0F5007F0AD300F0E1
:10E19000FE0109291AD8C7B20021F222384637F009
:10E1A0003BFF0CE0B0F5807F10D300F0FE010929A1
:10E1B0000CD8C7B20021F222384638F013FDA278FD
:10E1C00006463846002108F04BFD00E00226208874
:10E1D0002E706880284606F05FF90020F8BD000028
:10E1E00070B5144605461FF0BDF918BB284601213D
:10E1F00021F0B2FA03281DD12846012121F0A2FA0C
:10E20000064621F0D1FA0F2814D196F83A00C0B191
:10E210002846012121F01CFB0D4850F82500B0F8DC
:10E22000921021F40071A0F89210284606211FF0E8
:10E23000EDF80BE00C22284621461EF0A3FC00203E
:10E2400070BD28460F21062221F0C6FD0022F2E70C
:10E25000B8F44020F8B514460E4605461FF082F982
:10E26000D8B92846012121F077FA032815D128468C
:10E27000012121F067FA074621F096FA0F280CD108
:10E2800007F11000B11C1022F2F7BCFB28460F2149
:10E290000022002621F0A0FD00E00C2628462146A1
:10E2A00032461EF06FFC0020F8BD00002DE9F04161
:10E2B000E54E054688467068002818BF0120297879
:10E2C000B1FA81F14909884210D000273C2442F07C
:10E2D00079FF87420CD2B069005D092803D1297803
:10E2E000F8B21EF001FC40340137F0E7432100E0B2
:10E2F0000021404639F0AAFD0020BDE8F08100BFB2
:10E300003CF640202DE9F041CF4F04460D4697F8EA
:10E310000E01012818D0022087F80E0139F046F9C5
:10E32000064642F04FFF86420ED2304633F088FA5E
:10E3300090B1304636F022FC50B1204603212A46E7
:10E3400009F0B2FC012404E028460C2139F07EFDDE
:10E3500000242046BDE8F081B8694FEA8618002401
:10E3600000EB861150F808000C3881F83C4009F0A9
:10E37000A1FCB869002140F80840284639F066FD44
:10E3800041F2031000213E22122309F05DFC44F209
:10E390000E41468001230180B96901EB861191F895
:10E3A0002C20027191F833204271CA69098C0373E1
:10E3B000C48104744181C0F8062006F06DF8C8E7F6
:10E3C000FEB5054680890C4643F6F6710A38884248
:10E3D0000CD82878032809D8A878012806D86878A6
:10E3E0000F2803D8688980087C2806D900251221C7
:10E3F000204639F039FD2846FEBD934F97F80E01AF
:10E4000001280BD0022087F80E0139F0CFF806461C
:10E410008DF80B0042F0D6FE864202D200250C2178
:10E42000E6E72878C00708D16A78A978E81C39F0AF
:10E43000F5FE10B100250B21DAE70DF10B0039F0E4
:10E4400089F810B101460025D2E7B9699DF80B00A3
:10E450000E22AB7801EB801080F83C209DF80B0079
:10E4600082018D5029786A780335009501F0010109
:10E4700033F0A0F901460125BAE700BF7CB5144688
:10E480000E46054639F092FE28B939F049FA284679
:10E490001FF0B0F830B10C22284621461EF072FB66
:10E4A00000207CBD28461FF035F948B330790DF1C6
:10E4B00007010DF1060239F08BF802460028EBD176
:10E4C0009DF8070000210022002339F029FB0246B5
:10E4D0000028E1D128020623011D40F211100A464E
:10E4E00009F0B2FB01218170718801809DF806104E
:10E4F000C1709DF80710017109F0E4FB0022CBE721
:10E500001A22C9E7F8B514460E46054639F04EFE04
:10E5100028B939F005FA28461FF06CF830B10C2202
:10E52000284621461EF02EFB0020F8BD28461FF08D
:10E53000F1F8D0B1307900210022002300273AF011
:10E5400049F902460028EBD128020623011D40F2BA
:10E5500011100A4609F078FB7188877001803179C3
:10E56000C17009F0AFFB0022DAE71A22D8E70000F9
:10E5700070B5E74E0C4696F80E1101291AD002210B
:10E58000057886F80E1142F01DFE854212D2B06960
:10E5900000EB851090F83C000F280BD1284636F090
:10E5A000EDFA014638B9B069102100EB851080F80A
:10E5B0003C1003E00C21204639F048FC002070BDDF
:10E5C00070B54FF48850002142F21802092300264A
:10E5D00009F03AFB0446451CF2F702FA01462846C8
:10E5E000F8F734FC651DF2F7FBF901462846F8F709
:10E5F0002DFC2046267005F04FFF002070BD000066
:10E6000010B50A464FF488500021022309F01CFB84
:10E610000C49044691F8390091F83B1037F00EF898
:10E620006070F64890F80E1102290FBF0C200121EE
:10E6300080F80E1100202070204605F02DFF0020EC
:10E6400010BD00BFA8E940203CF6402010B54FF4B3
:10E650008850002142F202020623002409F0F4FA55
:10E660008B49FB2304700A8BC98A4380511A01EB42
:10E670001161090A017105F00FFF002010BD00BFF4
:10E6800010B50A464FF4885000210A23002409F0EF
:10E69000DBFAFB2140F6FF73047041800521017213
:10E6A000EF49CA8A098BC380891A01EB1161090AF3
:10E6B000017105F0F1FE002010BD00BF70B50C46E1
:10E6C000098806464FF4885042F215020A2309F0E1
:10E6D000BBFA054630461EF0D5FE08B10C2007E017
:10E6E000074850F82600017B297280686860002086
:10E6F000287020886880284605F0CEFE002070BD76
:10E70000B8F4402070B586B004462A480D4690F80B
:10E71000C00080070CD528480DF1170202212346BE
:10E72000009506683020B0479DF8171000293FD0AB
:10E730004FF4885000212A46202309F085FA202131
:10E740000546F2F786F92188B1F5007F0DD301F077
:10E75000FE0009288FBF0220C8B205F1140105F19F
:10E76000180298BF37F0F0FC1BE00220B1F5807F63
:10E7700017D301F0FE02092A13D805F11C0005F198
:10E78000180205F1140305F11006CDE90063CDE987
:10E790000220C8B2291D05F1080205F10C0338F06A
:10E7A000FBFB287020886880284605F075FE002055
:10E7B00006B070BD28EC4020F0E440202DE9F04187
:10E7C0000A4604464FF48850002110234FF00008F9
:10E7D00009F03AFA054620882E462F462C4646F880
:10E7E0000C8F47F8088F24F8048F5FFA80F8688050
:10E7F000B8F1090F01D9022013E0404621463A46FC
:10E80000334608F0CBFD08B10C200AE0208810B98F
:10E8100038680028F8D006484044017C002001B93F
:10E8200030602870284605F037FE0020BDE8F081F2
:10E830001CF6402070B50A4605464FF4885000216A
:10E840000723002609F000FA2978044612202070D8
:10E85000012913D8681C39F0D7FE9349CA88098961
:10E86000891A382291FBF2F1814205DD611C32F0F8
:10E8700081FB207010B905E002202070A4F805602B
:10E88000C4F80160204605F007FE002070BD00BFFF
:10E890000CEE4020BCB508460021002439F0E4FA13
:10E8A0001A4D01200DF106010DF107028DF8060049
:10E8B00082202B68984780B120208DF807408DF882
:10E8C000060078485730FAF7BDFC7648114A032114
:10E8D0005730FAF7A5FC0020BCBD20208DF80600BB
:10E8E0009DF807000028ECD06E482B680DF106015A
:10E8F00000F157028020984718B100208DF80700DA
:10E90000DFE79DF807000028DFD1DAE79CE9402027
:10E910003CF6402075850400B0B54FF488500021C6
:10E9200042F203020923002509F08EF90446013062
:10E9300039F004FD2046257005F0AEFD0020B0BD85
:10E9400080B50A464FF488500021042309F07CF971
:10E95000F54991F80E21012A0FBF0C21022281F8FE
:10E960000E21002101704FF4FE72428005F094FDEB
:10E97000002080BD10B50A464FF4885000210A23BC
:10E98000002409F061F905490470C0F80610C0F8C8
:10E99000021005F081FD002010BD00BFFB00904279
:10E9A000F8B50A464FF488500021022300250227BB
:10E9B00009F04AF9DC4E0446457096F80E0101282C
:10E9C00002D10C20207014E086F80E713C272570CF
:10E9D00042F0F8FB854209D2B069C05D032802D835
:10E9E00060780130607040370135F1E760784008A9
:10E9F0006070204605F050FD0020F8BD3CF6402038
:10EA0000F8B50A4606464FF4885000210723002730
:10EA100009F01AF90446A0F8057012202546207066
:10EA200045F8017F3178012913D8701C39F0ECFDCD
:10EA3000E649CA880989891A382291FBF2F1814294
:10EA400005DD294632F0C4FA207010B903E0022037
:10EA50002070AF802F60204605F01EFD0020F8BD1D
:10EA60000CEE402010B50A464FF4885000210223D6
:10EA7000022409F0E9F8AC4A0C2192F80E31012B7E
:10EA80004FF00C031CBF82F80E410023CF4A0370E5
:10EA90009388D288D21A92FBF1F1417005F0FCFC08
:10EAA000002010BD3CF640200CEE402070B50C4616
:10EAB000098806464FF48850062309F0C5F8054634
:10EAC00030461EF0ABFD08B10C2005E0724850F84E
:10EAD0002600808DA8800020287020886880284625
:10EAE00005F0DAFC002070BD2DE9F04105466A48CA
:10EAF000904650F8254028461EF046FD08B10C26E9
:10EB000030E0B4F89600400729D4092D03D894F8D2
:10EB10003C00000704D4B4F8920010F0810F20D01C
:10EB200028020C23011D4FF484700A4609F08CF86A
:10EB3000104A0421074620F019FE384629460022D3
:10EB4000002620F033FE01203872384609F0BAF86A
:10EB5000B4F8960040F00400A4F8960002E03A26CB
:10EB600000E01A262846414632461EF01BF80020D7
:10EB7000BDE8F081DDD002002DE9F04385B0044608
:10EB8000002015460E468DF8130020461EF058FD55
:10EB900008B102275DE0204621211EF0DBFD28B1EF
:10EBA000B07828B1042805D9112752E01A2750E07F
:10EBB00012274EE038490DF1130251F824903749DD
:10EBC000095C20462CF05CFB7F2819D0804699F820
:10EBD0008B00A8B19DF81300802811D0204629464B
:10EBE000002200271DF0DEFF9DF81300B3780021FE
:10EBF0000222CDE90080204602971EF0A5FB2EE000
:10EC0000B9F89600C0052ED420021023011D4FF440
:10EC10008A700A4609F018F8214A0D21804620F032
:10EC2000A5FD4FF48170002721460022A8F80900B5
:10EC300088F80D70B07888F80800404620F0B6FDDE
:10EC4000404609F03FF8B9F8960040F48070A9F802
:10EC50009600204629463A461DF0A4FF0027384674
:10EC600005B0BDE8F0832046002120F075FD0D2899
:10EC700009D12046002120F065FD017AB278914249
:10EC800001D1817A09B10227E9E74FF481710027A8
:10EC9000A0F80910DDE700BFB8F4402021C405004A
:10ECA00069FA0200B0B54FF48850002142F24C02DC
:10ECB0000623002508F0C8FF044636F0A9FC608052
:10ECC00032F024FBA0802046257005F0E5FB0020F3
:10ECD000B0BD000010B50A464FF488500021022351
:10ECE000002408F0B1FF39490470CA880989891ADB
:10ECF000382291FBF2F1417005F0CEFB002010BDEF
:10ED000010B54FF48850002142F22302062300245C
:10ED100008F09AFF04490470896CC0F8021005F0ED
:10ED2000BBFB002010BD00BF3CF6402010B54FF4E7
:10ED30008850002142F21C020923002408F084FFBD
:10ED400040F2FF310470C0F805104FF0FF31C0F8F9
:10ED5000011005F0A1FB002010BD0000B0B54FF47C
:10ED60008850002142F24B020323002508F06CFF7B
:10ED700005700A4D044695F8380095F83A1036F0BB
:10ED80005DFC607095F8390095F83B1036F056FC44
:10ED9000A070204605F080FB0020B0BDA8E940200F
:10EDA00010B50A464FF4885000210223002408F0D1
:10EDB0004BFF064904708A88C988891A0C2291FB86
:10EDC000F2F1417005F068FB002010BD0CEE402010
:10EDD0007FB504467D480D4690F8AC0000070CD581
:10EDE0007B480DF10F0208212346009506682B2071
:10EDF000B0479DF80F1000293FD021884FF488506C
:10EE00002A46042308F020FF05462078714901EBCB
:10EE10008000C6683EB396F8290002AA002138F0A7
:10EE2000C5F918BB96F82D0001281ED1A17809B9A3
:10EE30004421A17096F828001DF08AF9304637F079
:10EE4000D1FA029831460430F7F7CEFA029890F8DA
:10EE50002F10013980F82F10090602D1407838F0C0
:10EE600045F9002002E0022000E00C2028702088F4
:10EE70006880284605F010FB002004B070BD00BF7C
:10EE800070B514460E4605461EF034FB08B10C2240
:10EE900010E0B0783B280CD12846012120F052FC2C
:10EEA0000028F4D0B2782846082120F055FE002230
:10EEB00000E01222284621461DF064FE002070BDAD
:10EEC00070B514460E4605461EF014FB08B10C261C
:10EED00026E03389F2887188B0881DF0CBFEF0B14E
:10EEE0002846012120F02EFC0028F0D04189B2886C
:10EEF000914288BF0A46428101897288914288BF47
:10EF00000A460281C18932890026914288BF0A4699
:10EF1000C28128460821002220F01EFE00E02026A3
:10EF20002846214632461DF02DFE002070BD00000F
:10EF3000FEB5044625480D4690F8AC00C0060BD53A
:10EF400023480DF10B0210212346009506682B2063
:10EF5000B0479DF80B10C1B34FF4885000212A46EA
:10EF6000022308F071FE054620780021FF2237F0C9
:10EF7000E1F91849064603200D280DD051F820204C
:10EF800042B1737892F829709F4203D192F82D20F4
:10EF9000012A12D80130EFE76EB1371D386828B169
:10EFA0003846F7F796FA37F01DFAF7E7707838F039
:10EFB0009DF8002002E0022000E00C20287020785C
:10EFC0006870284605F068FA0020FEBD28EC402055
:10EFD000F0E4402044E8402070B50A4604464FF46F
:10EFE00088500021042308F02FFE26880546B6F538
:10EFF000007F13D306F0FE00092823D8A0788107EC
:10F0000005D5F0B2012136F0B5FFE0B9A078C00710
:10F0100016D0F0B2002136F0ADFF14E0B6F5807FD7
:10F0200010D306F0FE0009280CD8A078810705D57A
:10F03000F0B2012137F086FD28B9A078C0070AD1C7
:10F04000002000E00220287020886880284605F013
:10F0500023FA002070BDF0B2002137F073FDF2E713
:10F06000B0B5154604461EF031FA08B10C222CE06A
:10F0700020461EF021FB38B32046294600221DF011
:10F0800091FD20020C23011D4FF488700A4608F000
:10F09000DBFD114A0A21054620F068FB284621467F
:10F0A000002220F083FB4FF480700121A5F80900B5
:10F0B0000A4850F82400B0F8920021EA9020287203
:10F0C000284608F0FFFD04E01A22204629461DF0DC
:10F0D00069FD0020B0BD00BF39CB0200B8F440206C
:10F0E000F8B5D54E0C4696F80E11012926D002210E
:10F0F000007886F80E11694638F0E6FBFF281FD02D
:10F100000546B06900EB851090F83C10012915D137
:10F1100090F8397042F056F887420AD2B06900EB95
:10F12000851191F8391000EB811090F83C000A2805
:10F1300004D1284638F030FD002102E00C2100E027
:10F140004221204638F082FE0020F8BD2DE9F04132
:10F150000546C0790C460F2802D82878012807D91F
:10F1600012262046314638F071FE0020BDE8F081BD
:10F17000DFF8F08798F80E01012801D10C26F0E79E
:10F18000022088F80E0138F011FA074642F01AF80A
:10F190000C268742E5D32F4617F8011B384638F076
:10F1A0008BFE4C498A88C988891A91FBF6F1814205
:10F1B00008DD00EB8006D8F8301001EB46014A7AF2
:10F1C000520701D44226CCE7EB792A78012505FACB
:10F1D00003F3CD889D439BB2CD80394630F0DEFEEF
:10F1E000D8F8300000EB4600C18849B910F8091F73
:10F1F00001F0FB0202708A075CBF01F0FA010170A6
:10F200000026AEE770B50C460178012901D912211C
:10F2100023E0BC4E054696F87A0028B139F036F85E
:10F2200008B10C2119E02978681C39F0EDF9054680
:10F230002848C1880089401A382190FBF1F0A84283
:10F240000ADD284631F020FF3068272105FB010048
:10F25000FF218171002100E00221204638F0F6FDF7
:10F26000002070BD70B50C46054639F02BF8E8B1AA
:10F270002978022901D3FF2916D16E1C304638F0B7
:10F280001BFE14498A88C988891A0C2291FBF2F165
:10F29000814209DD9B4A00EB8001126B02EB4101C8
:10F2A00011F8092F930707D4122100E00C21204602
:10F2B00038F0CCFD002070BD53074FF0FD0358BF60
:10F2C000FC231A400A702A78314636F03FFA0021B2
:10F2D000EDE700BF0CEE4020B0B586B00C46054609
:10F2E00039F074F820B12878272803D912210DE0CD
:10F2F0000C210BE08DF80100002001218DF80000A9
:10F300006846ADF8041035F099FE0146204638F005
:10F310009DFD002006B0B0BDB0B586B00C460546D8
:10F3200039F054F858B12878272806D869784A1E49
:10F33000022A02D8AA78012A08D9122100E00C2159
:10F34000204638F083FD002006B0B0BD00228DF8C5
:10F35000010068468DF804108DF805208DF8002016
:10F3600035F06CFE0146EBE7F0B587B00C4605467C
:10F3700039F02CF808B32878272806D86B78591E5E
:10F38000022902D8A978012901D9122116E0EE78C4
:10F390001221012E12D0142E10D829790229F4D866
:10F3A00095F805C0ACF10102012AEED8AA79971EA2
:10F3B000492FEAD8032B07D136B10C21204638F06B
:10F3C00045FD002007B0F0BD0C2A01D91121F5E759
:10F3D0008DF809608DF80500002001AE8DF80A1047
:10F3E000E91D8DF80C208DF80BC08DF808308DF8D4
:10F3F000040006F10900F1F705FB304635F01EFE6A
:10F400000146DBE7B0B50C46054638F03FFF08B1D2
:10F410000C210BE02878012807D8DB49002818BF09
:10F42000012081F87A00002100E01221204638F006
:10F430000DFD0020B0BD00BF3CF640202DE9FC4191
:10F44000D14E05460C4696F80E01022801D10C213A
:10F4500051E0012086F80E0128781F2801D91221D9
:10F4600049E0FF20002138F02FFAFF288DF807002F
:10F470002BD0B16901EB8010297811B9C28B8A4277
:10F4800038D0B0F81C80F5F7CFFE58B329460746B0
:10F490001D4811F8012B3844F1F7B4FAB1699DF811
:10F4A000070001EB80118F83B1692A7801EB80118D
:10F4B000CA83B16901EB801191F83C10022913D184
:10F4C00029783A4621F0C4F914E00DF1070038F02C
:10F4D00041F8014678B99DF8070038F0F1FA9DF837
:10F4E0000700C6E7072106E0B8F1000F1CBF404641
:10F4F000F5F7ACFE0021204638F0A8FC0020BDE85E
:10F50000FC8100BF3CF64020008040202DE9F04106
:10F510008CB0F14F05460C4697F80E01022801D138
:10F520000C2127E10120002187F80E01FF2038F08F
:10F53000CBF906468DF82F002878012819D020BB7A
:10F5400041F040FE864222D2B86900EB861090F866
:10F550003C0002281BD1304623F0BCFF01460028A6
:10F5600040F00881B869032100EB861080F83C1058
:10F57000FBE041F027FE86420BD2B86900EB861112
:10F5800091F83C100129CBD112E01221F2E00120C8
:10F59000ECE00DF12F0037F0DDFF0146002840F0D0
:10F5A000E9809DF82F0038F08BFAB8699DF82F603C
:10F5B000FF218DF82E10B1014658F07AC00707D010
:10F5C000C64907F12200F6F735FE08B11221CBE05B
:10F5D0007088C10735D1ADF81800327A737A718915
:10F5E000F0791202ADF81D1042EA0342317B10445B
:10F5F0008DF81F100390304650F80D2FCDF80620DF
:10F600008288ADF80A2082798DF82020C2798DF8A1
:10F610002120027A8DF822208DF82420427A8DF85C
:10F620002320C27A8DF82520027B8DF8262010F841
:10F6300002CC5FEACC731AD13B8CADF80430FB6985
:10F640001AE00DF12E0037F085FF0146002840F04A
:10F650008B80708810F00C0FBDD0317B06F10D004F
:10F6600038F0AEFD002800F08C800B217CE0FB8C94
:10F67000ADF80430D7F822300093BB699DF82F20F5
:10F68000DFF8088103EB8212938BADF81030D38B37
:10F69000ADF81430938CADF81230B8F80830D28C35
:10F6A000ADF81620B8F806209A1A382392FBF3F228
:10F6B0000023ADF81A308DF81C309DF82E308DF8EF
:10F6C000282097F87A208DF829308DF8272012B15C
:10F6D0007288520702D45FEA8C7222D538F094FF08
:10F6E000B8F80610B8F808208DF82800511A38220A
:10F6F00091FBF2F1814214DDF17A890711D5396865
:10F70000272200FB02102249102200F10708404680
:10F71000F1F7BDF928B19DF82F201E494046F5F7B5
:10F7200023FA9DF82F00694623F010FB0146D8B953
:10F73000B8699DF82F10022200EB811181F83C205E
:10F74000B178C9070FD09DF82F1000EB81109DF8FC
:10F750002E1080F83A10B8699DF82E1000EB811039
:10F76000042180F83C10002121B90020002108B9B3
:10F77000287810B1204638F069FB00200CB0BDE8B5
:10F78000F081708827E700BF3CF640200CEE402057
:10F79000F6C305009D7A0400F8B54F4E05460C46A9
:10F7A00096F80E01022811D00120002186F80E01E2
:10F7B000FF2038F089F8FF288DF8030008D0B169E0
:10F7C00001EB801090F83C0001280BD00C212FE0B9
:10F7D0000DF1030037F0BEFE014648BB9DF8030063
:10F7E00038F06EF92879042821D8012809D06A88D0
:10F7F0001221B2F5804F1BD82B88202B18D39342AF
:10F8000016D8697B0139062911D8A97B03290ED89E
:10F81000697903290BD8A979012908D8042818BFC8
:10F8200001280ED12D49E81DF6F704FD28B112215B
:10F83000204638F00BFB0020F8BD28794FF0010C72
:10F8400001E04FF0000C9DF803E0B769BCF1000F38
:10F850004FEA8E13FB584FF000075F72EA781A7276
:10F86000AA789F71DA716A785A712A781A711CA283
:10F87000105CAA79697B5880687999721A73D8727A
:10F88000D5F80700C3F80D00B5F80B00A3F8110078
:10F8900008BFAF7B6879DF74032810D8DFE800F079
:10F8A00002060206D6E90601328C03E0B069D6F8FA
:10F8B0002210F28C00EB8E100286C16203E040F051
:10F8C00027FF9DF803E0B069012100EB8E1080F85E
:10F8D0003C100021ACE700BF3CF64020F0C305001F
:10F8E000131D121015000000F8B51E4F05460C46FA
:10F8F00097F80E01012801D10C212DE00220694664
:10F9000087F80E01287837F0DFFF064641F05AFCF1
:10F91000864220D2B86900EB861090F83C1002298C
:10F9200003D100994988C907E6D1B5F805100186C9
:10F93000D5F80110C162B86900EB861090F83C0060
:10F94000022806D1B5F80520D5F80110304622F07E
:10F9500065FE002100E04221204638F077FA0020C1
:10F96000F8BD00BF3CF640202DE9F04F91B00446B1
:10F97000DFF888090D4690F8AC0080060DD5DFF859
:10F9800080090DF1430220212346009506682B20B3
:10F99000B0479DF84310002947D04FF4885000210C
:10F9A0002A462423002608F04FF9054620780F96B2
:10F9B000EF2827D8617B012924D8A04658F8041FD6
:10F9C000A1F1FF02E0498A421CD8A2465AF8082F4A
:10F9D000FF3A8A4216D8217B072913D8A17B012937
:10F9E00010D8274637F8101F4A1F40F69B718A42ED
:10F9F00008D8234633F8122F053A8A4202D8217DCF
:10FA00001F2915D912260020A87020782E70687042
:10FA1000284604F041FD3EB10F9828B190F82F1010
:10FA200011B9407837F062FB002011B0BDE8F08FCB
:10FA30000021FF220A9336F07DFC0F9028B1064684
:10FA400090F83300C8B10C26DDE70FAA002034215E
:10FA50004FF0000937F070FB06460028D3D10F980D
:10FA60000430F6F7FCFC0F9E207886F83000FF206B
:10FA700086F83190C6F82890F085DFF888B8032022
:10FA80000D280DD05BF8201041B1727891F8293023
:10FA9000934203D191F82D100129D4D80130EFE71A
:10FAA000281D4FF000090021029706960590207D41
:10FAB0000C91814280F0B48009EB89000021261866
:10FAC000B07DEF2800F2A880308BB1EB103F40F002
:10FAD000A380708BB1EB103F40F09E80B07F0F2869
:10FAE00000F29A80F07F0F2800F29680307F410765
:10FAF0001CBF717F5FEA417100F09D8136F058FBB9
:10FB00000746707F36F054FB0346B27E307E0121FB
:10FB10000B97009139461F46089336F0C7FB0990B2
:10FB20000F98B27D90F83010FF2036F027FC0A289D
:10FB3000CDF8349011D30EA836F07AFC002840F0AE
:10FB40009981DDE90E7039460430F6F7CCFC97F860
:10FB50002C000BEB8000C76003E00BEB8000C76854
:10FB60000E97386AF7F7BAFA10B9308B002855D0DB
:10FB7000786AF7F7B3FA718B09B900284ED0089864
:10FB8000069A4FF00009DDF83CC03981DDF834E019
:10FB9000002987F82B90B8730B98F87240F2011087
:10FBA000508439749CF80100A37B87F82900B07D4C
:10FBB00082F82430099A97F82C3078712078BA832B
:10FBC000059A03F580733871308BF88022F80E3077
:10FBD0000B46787318BF0123FB730028034618BF38
:10FBE00001233B73B27F002887F82D90F1469CF8E3
:10FBF0002F300EF1020903F101038CF82F3018BFEA
:10FC0000501CF27F002918BF511C884288BF014652
:10FC1000B9720C9901314AE712260DE10C260BE16D
:10FC2000A67BDDF828E0DDF808904FF6FF7B002288
:10FC300040F2E24CC1B28A4280F01E8105EB4200E4
:10FC4000954903920B96007901EB8000C268002071
:10FC500011460D929072012800F29A8051460028B8
:10FC6000734608BF41460A6808BF4B4600284FF05C
:10FC7000080108BF06217AB30D9F7F5A67B3B2FB14
:10FC8000FCF1CDE908B6DDF82CE01B8801FB1C2651
:10FC900040F2E24C002E4FF0010618BFB646CDF8F8
:10FCA0002CE05FEA0E66079619D08EB206FB0CFCBC
:10FCB0004FF47A767343F6269A1AB2FBFCF2531E7F
:10FCC00007F1F502B2FBF6F2D6B23744013F97FBDB
:10FCD000F6F606F1050B20E05946324654E04FF4A3
:10FCE0007A7289B2022603FB02FE40F6C412FB239D
:10FCF0004A43964507F1FA0238BF01267143B2FB29
:10FD0000F3F2D3B21F4406FB03F2013F97FBF3FB70
:10FD10008BB203FB0CF3BEFBF3F31E06DDF828E009
:10FD2000DDE9087600F08580DDF80CC0049368B149
:10FD30000D9BBCF1000FDA7383F810B011D1069A55
:10FD4000049B82F823300CE000FF0F000D9BBCF1F8
:10FD5000000F1A7383F80DB003D1069A049B82F842
:10FD600022308AB2BBB240F2E24C934298BF39468D
:10FD7000002A08BF3946079A002A4FF0010208BF3F
:10FD80003246330618BF324601308B46164662E7CC
:10FD90000D9F09960126F97A787BBB7B3A7C009609
:10FDA00036F084FA0399B88301EB810104EB410139
:10FDB0008B7FCA7F934288BF1A463B7BF97B8B427D
:10FDC00088BF1946069B93F8226093F823309E4221
:10FDD00088BF33460B9E360603D00A44B2FBF3F2CB
:10FDE00006E0013B01324B434A43013392FBF3F2FD
:10FDF00080B21FFA8BF341F64C56D2B240F2E24C7D
:10FE000000EB8000734340F2DC5606EB4000B3FB8E
:10FE1000F0F0C0B2824238BF1046884298BF084610
:10FE20000D99039ADDF828E0099E8872207D013241
:10FE300000E7DFF8D0B41126DDF81490DDF830A02B
:10FE40004FF00008C2453FF4DEAD0F9890F82F1038
:10FE5000013980F82F1019F8181004300BEB8101CC
:10FE6000CF683946F6F7C0FA384636F0BBFA08F1E3
:10FE70000108E7E70926DFE7069B83F82460A3F87B
:10FE800020B00026D4E90112C3E90312617B0F9A66
:10FE900082F83210B8E500BF44E840202DE9F04F69
:10FEA00089B00446DFF854040D4690F8AC004006D3
:10FEB0000CD5DFF84C040DF12302402123460095B8
:10FEC00006682B20B0479DF82310E1B34FF488500B
:10FED00000212A462423002607F0B6FEE1890546C4
:10FEE00012270796B1F5486F1BD82078EF2818D84D
:10FEF00062689E4EA2F1FF03B34211D8A368A3F13A
:10FF0000FF07B7420CD8667B56B1267B46B1267CEC
:10FF1000072E05D8667C012E02D8A67C012E15D9A5
:10FF20001227207868700020A87028462F7004F0EF
:10FF3000B3FA3FB1079828B190F82F1011B9407863
:10FF400037F0D4F8002009B0BDE8F08F40F2E24766
:10FF500001FB07F856B10021FF2236F0EBF90790BC
:10FF600088B190F8331021B30C27DAE7B8FBF2F12F
:10FF700001FB128129B9B8FBF3F101FB13810029C0
:10FF8000E9D01127CDE707AA00203421002637F059
:10FF9000D3F807460028C4D107980430F6F75FFA73
:10FFA0000798217880F83010FF2180F83160866250
:10FFB000C185DFF850B303210D290DD05BF8212056
:10FFC00042B1437892F829609E4203D192F82D20E5
:10FFD000012AC9D80131EFE7DFF82CC3CDF808803A
:10FFE00005F1040804F1210A00274FF6FD7E4FF0C9
:10FFF000000901210120CDF80C800FE131B9002367
:020000040001F9
:1000000000202AF80B3C2AF8073C059036B900225C
:1000100000202AF8092C2AF8052C0490A07CD0B1E5
:100020000598676848437843029FA0EB4100B0FB06
:10003000F7F0704480B29842C0F040810498A16803
:1000400070434843A0EB4600B0FBF7F0704480B229
:10005000904230D232E16068DDF808E0BEFBF0F794
:10006000B1FBF7FB0BFB1717002F40F02381D4F8EF
:1000700008C0BEFBFCFBB6FBFBF808FB1B67002FB0
:1000800040F0188148430599DFF878B2B0FBFEF0E4
:10009000484380B2834200F20F810CFB06F00499C2
:1000A000DDF80C80DFF860C2B0FBFEF0484380B2A0
:1000B000824200F203811AF8031C48071CBF1AF899
:1000C000022C5FEA427000F0EF8001F00F000B0994
:1000D0001CF800001CF803301844012840F0EE80A2
:1000E00002F00F0013091CF800001CF8033018443C
:1000F000012840F0E180854B01200090585C844944
:100100000F5C985C0E5C05980499CAB2C0B239467F
:10011000334636F0CBF81AF80C2C804680B200F14A
:100120009601013A02FB0100E18940F2E2425143AB
:10013000884200F2C1801AF80D2C2178FF2036F099
:100140001DF90A28019613D306A836F071F9002884
:1001500040F0CF80DDE9066031460430F6F7C3F9A0
:1001600096F82C000BEB8000C66005E000FF0F0046
:100170000BEB8000C6680696306AF6F7AFFF20B931
:100180003AF80B0C002800F09180706A0597F6F79A
:10019000A5FF3AF8091C11B9002800F087800798DC
:1001A00031811AF80C2C1AF805CC1AF8073CA6F87D
:1001B0001C80DDF80C8000274FF6FD7E86F82B7042
:1001C00086F82D704178B27296F82C2086F810C00F
:1001D000DFF834C1737386F829101AF80D1C02F584
:1001E00080727171217831713AF80B1CF1801AF824
:1001F000011C28F8192009F1010931730199B17323
:100200000599F1729AF800100AF10E0AF17390F84C
:100210002F10013180F82F10207B617BE27C91450B
:100220002CD21AF80D0CEF2848D83AF8071CFB29F5
:100230000846059142D83AF8051CFB290846049166
:100240003CD83AF80B3CB7EB133F37D13AF8092CBE
:10025000B7EB123F32D11AF80C0C411E1E292DD8D3
:100260009AF800600F2E29D81AF8011C1227814233
:1002700025D8864298BF0F2921D8BFE6079A0027C4
:1002800082F82200E08982F823101084D4E9010169
:10029000C2E90301A07C217882F82400607C6970A7
:1002A00082F83200E07C3FE6112708E0DDF80C80A0
:1002B0000C2704E0DFF84CB0DDF80C8012274FF07B
:1002C000000AD1453FF42DAE079890F82F10013960
:1002D00080F82F1018F81A1004300BEB8101CE684B
:1002E0003146F6F781F8304636F07CF80AF1010A1B
:1002F000E7E7DDF80C800927E1E700BF28EC4020A4
:10030000F0E4402044E8402078ED05000BC40500EF
:1003100010C405002DE9F8430546304814468946C7
:1003200050F8256028461DF00BF908B10C271BE09A
:10033000B6F89600800614D4284605211DF0D8F999
:1003400088B1B9F80200A0F11B01E02907D8B9F87B
:10035000041044F24813A1F5A4729A420CD9122752
:1003600002E03A2700E01A27284621463A461CF0C8
:1003700009FC0020BDE8F883B28A904204D1308B9A
:10038000814201D10027EFE728020C23011D40F232
:100390000B100A4607F058FC114A072180461FF04F
:1003A000E5F940462946002200271FF0FFF9B9F879
:1003B0000200B082B9F80400308328461CF08AFDA0
:1003C000012088F80800404607F07CFCB6F896004B
:1003D00040F02000A6F89600C6E700BFB8F4402021
:1003E000A9CF0200F8B50A46C34991F80E31012B96
:1003F00001D10C2115E0022381F80E310378022B84
:100400000ED84488A5087C2D0AD8858843F6F6774F
:10041000A5F10A06BE4203D8807910F0E80F05D096
:100420001221104637F012FD0020F8BD81F8560069
:1004300081F85030A1F85450A1F852400021F0E763
:1004400010B50A46017811F0020301D184788CB10D
:1004500011F0010101D1447864B113B98478072CFB
:1004600003D821B94478072C01D911210FE01BB919
:10047000847802E012210AE007249F4B83F84F4062
:1004800009B9407800E00720002183F84E001046AB
:1004900037F0DCFC002010BD10B50C460168426846
:1004A000954840F8101F04214260FBF7A9FC204644
:1004B000002137F0CBFC002010BD00BF2DE9F84F24
:1004C000DFF850AF06460C469AF80E01012801D11C
:1004D0000C2764E0022069468AF80E01307837F074
:1004E000F3F9FF281CD07578042D57D88146B078D1
:1004F000012853D896F80380B8F1FB0F4ED8042D8D
:1005000010D1DAF8180000EB891090F83C1001299E
:1005100044D01227B8F1000F41D1808B28B93EE0BA
:1005200042273CE0E81E022801D2012003E0B8F196
:10053000000F33D00020DAF8181001EB891797F874
:100540003C10012916D1788C00EB0801B1F5FE7F33
:100550002CD9388C00285ED0F4F778FEDAF8180031
:10056000002100EB89100184DAF8180000EB8910F3
:10057000418450E00028ABD00098B0F802B00BF0F6
:100580001101012903D1414637F0C4F830B9B8F15F
:10059000200FD8D30BF01C001028D4D112272046EE
:1005A000394637F053FC0020BDE8F88F00984288A8
:1005B000D20611D4037A457AC27989B21B0243EA82
:1005C00005431A4440F2712302FB03F5FA8C37F01D
:1005D000B1F8A84221D2757845F00200032831D144
:1005E000DAF8180000EB8910008C38B1F4F72EFE11
:1005F000DAF81800002100EB89104184F4F714FEAA
:10060000DAF8181001EB89110884DAF8180000EB09
:100610008911098CD9B90727C1E7DAF8180000EB6E
:100620008910008C60B1F4F711FEDAF8180000218F
:1006300000EB89100184DAF8180000EB891041847E
:100640004527ACE7DAF8180000EB8911098C00EBBC
:100650008910F278408C0844284980B20844311D42
:10066000F0F7D0F9DAF81800F27800EB8910418C35
:10067000114441847078811E02290CD2DAF81800E6
:1006800000EB8910418C81B9C28B91420DD1008C55
:10069000F4F7DCFD23E0002704287FF480AF484610
:1006A0000021002220F0D4F879E790F83C20022ABB
:1006B00005D1028CC9B2484620F0CAF803E0808B0D
:1006C00008B1F4F7C3FDDAF8180000EB8910018CCB
:1006D0008183DAF8180000EB8910418CC183DAF8C5
:1006E0001800002700EB89100784DAF8180000EBE7
:1006F0008910478453E700BF3CF64020008040202B
:100700002DE9F04F8FB0DFF80C5D814695F80E01B2
:10071000012801D10C2618E2022685F80E6199F80D
:10072000000020B995F80D21002A40F0138201281D
:1007300001D9122609E299F8010001D118B9F8E7A8
:10074000002800F0A0800191002109F102044FF07F
:1007500000080291804580F0B1802078EF2800F2F7
:100760009080002137F0B0F8FF2800F0C88099F899
:1007700000100746A86929B900EB871292F83C20BF
:10078000012A78D000EB871ABAF82020002A78D105
:10079000BAF82820002A74D101296BD1B901465832
:1007A000B6F802B05FEA8B7007D55FEACB6104D47C
:1007B000BAF82610002900F0BE810BF011010129C2
:1007C00006D1BAF81E10304636F0A4FF90B158E0BA
:1007D0005FEACB610ED51BF00C0F04D1BAF81E10E6
:1007E0001F2900F2A881002804D5BAF826001F2886
:1007F00000F2A181F07AC00707D0DD490AF12C0090
:10080000F5F718FDE8BBB6F802B05FEACB7016D07A
:100810001BF00C0F09D0317B06F10D0037F0D0FC36
:10082000002840F09081B6F802B0A86900EB87106C
:1008300090F83C000228029818BF013002905FEA4D
:10084000CB6017D4A86996F807A0357A96F809B056
:1008500000EB8710C28CC18B304636F06BFF29024B
:1008600040F27122BE4D41EA0B415144514388424E
:1008700080F06781277099F80100063408F10108BB
:1008800068E7122660E100243C260327019140F02E
:1008900099FC844280F04681A869805D02280AD1D3
:1008A000E0B222F017FE30B9A869875595F80D011E
:1008B000013085F80D0140360134E8E70299080659
:1008C0001FD099F80000E0B100244FF0FF373C261C
:1008D0005FFA81F8013740F075FC87420AD2A969B6
:1008E00006F14000895D0646002908BF0134E1B2E7
:1008F0004145EFD3E0B2404503D2072624E142262A
:1009000022E104A809F104084FF0000A4FF0000B9F
:100910000630029099F80100834580F0038118F8B1
:10092000027CA86900EB871191F83C2099F800102F
:10093000022A08D1D1B198F80220B8F80010384640
:1009400022F01CF9E9E0002900F0E780B9014458E1
:10095000FF208DF80F006088C00728D00DF10F0030
:1009600036F0F8FDA0B13FF0D3FE20E0384622F08B
:10097000B1FD002840F0D180A869032100EB871069
:1009800080F83C1095F80D01013085F80D01C4E0A8
:10099000A8699DF80F1000EB871080F83A10A8693D
:1009A0009DF80F1000EB8110042180F83C10608846
:1009B000ADF82800227A637A6189E0791202ADF8F5
:1009C0002D1042EA0342217B029B10448DF82F1028
:1009D0000790204650F80D2F1A6082889A8063880D
:1009E0005A0754BFE27C00228DF83020DB06AA694A
:1009F00002EB871292F838508DF83150657D8DF8F2
:100A0000325004D4E37DA57D8DF8335002E08DF89B
:100A100033A001238DF83430524D238BADF835309F
:100A2000D36A0493138EADF81430938BADF8203055
:100A3000D38BADF82430938CADF82230EB882D8920
:100A4000D28CEB1A3825ADF8262093FBF5F3B8F8D5
:100A50000020ADF82A2098F802208DF838309DF853
:100A60000F308DF82C20F84A8DF8393092F87A2022
:100A70008DF8372012B16288520702D4E27A9207C9
:100A800020D537F0C1FD374A8DF83800D18812895A
:100A9000511A382291FBF2F1814213DDE17A890784
:100AA00010D5E9492722096800FB02102E491022BF
:100AB000C61D3046EFF7EBFF20B12C4930463A46D1
:100AC000F4F752F8384604A922F040F9A8BBDE4DED
:100AD00000214FF0000AA86900EB8710C0F832101F
:100AE000C186022180F83C10608810F0130F14D1E9
:100AF000A86900EB871090F8396040F063FB8642EC
:100B00000BD2A86900EB861090F83C000B2804D1AA
:100B10003846314636F010FF00BB08F106080BF1ED
:100B2000010BF7E699F80000002668B995F80D0169
:100B3000019978B909E00C2606E006463FF0E8FD89
:100B400002E0452600E00B2601990846314637F0C1
:100B50007DF9002630460FB0BDE8F08F0646F3E77A
:100B60003CF640200CEE4020F6C305009D7A0400C0
:100B7000F0C305002DE9F8430A4605464FF48850B6
:100B8000002102230026022707F05EF8DFF8DC8F41
:100B90000446467098F80E01012812D028780021EA
:100BA00088F80E7136F090FEFF288DF803000AD009
:100BB000D8F8181001EB801090F83C00012813D0F1
:100BC00000260C2765E00DF1030036F0C3FC10B1E0
:100BD000002607275DE0D8F818009DF8031000EB09
:100BE0008110FF2180F839102878EF284FD8D8F8E5
:100BF00018009DF8031000EB811191F83910FF29BE
:100C000005D000EB811090F83C000A283FD168889D
:100C100010F0100C08D0002612271D2839D8012208
:100C20008A4B82401A4234D0C2060CD400F0030230
:100C300000261227032A2CD010F0080329D112B164
:100C400010F0200223D1BCF1000F02D06A7D012AEE
:100C50001DD1020711D42B7A6A7A6E79E979AF79BE
:100C60001B0243EA02422B7902EB0109310241EAFD
:100C70000741CA184A4503D909E020224FF020094C
:100C8000A97A0139062902D8E97C032908D9002666
:100C900012272046277003F0FFFB3046BDE8F8839B
:100CA000202A4FF000064FF0120728BFB9F1200F9D
:100CB000EFD3697D41F002010329E8D1BCF1000FB7
:100CC00003D1E97D01390229E1D8400706D5E14980
:100CD00005F10D00F5F7AEFA0028D8D1287E0F28CF
:100CE000D5D8687E0128D2D8D8F818009DF803100E
:100CF00000EB811090F8396040F064FA86420DD222
:100D0000D8F818009DF8031000EB811292F83920F2
:100D100000EB821292F83C200A2A42D16888C00671
:100D200014D4D8F818009DF8031000EB8110C28C81
:100D3000C18B51EA020009D0284636F0FBFC40F294
:100D4000712109FB01F1884280F07B809DF803004E
:100D5000D8F8181082018A5852B1A2F10C0006F09E
:100D6000A9FF9DF80300D8F81810002382018B50CA
:100D7000820101EB80108D50FF2180F83A10E87A53
:100D800003281BD8DFE800F0021C021CD8E906018A
:100D90009DF8032000EB8210C162B8F82010018694
:100DA0000EE06A8812F0330F7FF471AF890140586A
:100DB000E97DC07D81427FF403AFAFE73FF0A8FC3F
:100DC000D8F818009DF803102D7D00EB811001214B
:100DD0007F2D80F83C100BD11D4E012196F83B2051
:100DE00096F839007369984796F83B6005460BE022
:100DF00034F00EFC0A2190FBF1F015492D1ACA6956
:100E0000002168B29047064611480021324600276B
:100E1000836968B29847314634F010FCD8F818104E
:100E20009DF80320012601EB821181F83800D8F8E3
:100E300018009DF8031000EB811090F838006070E6
:100E400027E70026452724E73CF6402000002D2018
:100E5000A8E940202DE9FC41C14F0546884697F896
:100E60000E01012801D10C2679E0022087F80E013D
:100E7000002004468DF8070040F0A4F9844208D20F
:100E8000B86900EB841090F83C00811F601C0229B7
:100E9000EFD8287801281ED000285FD140F092F9C1
:100EA0008442E0D2B86900EB841090F83C00072837
:100EB0000FD132F083FCB969002801EB841101F1F4
:100EC0003C015FD0062008706348032102680220BD
:100ED0009047002643E0697802293FD8A888022974
:100EE00003D1D8B3698809B938E018B16988B1EB82
:100EF000C01F33D240F066F9844237D2B96901EBA2
:100F0000841090F83C000828ADD007283DD1A001FE
:100F1000085807F122010078800701EAE07168882B
:100F200031F0EAF96878811E002818BF0120B7F86F
:100F30000A21B1FA81F122F003024909104440EA82
:100F400041006988A7F80A01B86900EB8410818321
:100F5000B869A98800EB8410C183BAE7122640461D
:100F6000314636F073FF0020BDE8FC810DF107002B
:100F700036F0F0FA06460028F1D1B9699DF807402D
:100F8000002603E008200870EDE71226A0010858AB
:100F9000F0B90020002100221023002406F054FEA6
:100FA0009DF80720B96904700623047192018850E6
:100FB0004FF01012C0F806209DF8072001EB8212B6
:100FC00082F83C304FF480729DF80740A0F8012071
:100FD000A0010C582078012807D11E4907F12200F2
:100FE000F5F728F90028BAD12078032809D137F07D
:100FF000EFFA30B1174907F12200F5F71BF9002885
:10100000ADD16878811E002818BF0120B7F80A21E9
:10101000B1FA81F122F00302490910446A8840EADA
:101020004100B969A7F80A019DF8070001EB80119A
:101030008A83B969AA8801EB8011CA8337F02EFB35
:101040000646B8699DF8071000EB8110072180F86B
:101050003C1084E7F0C3050054E440202DE9FC4136
:10106000EC4F80460C4697F80E0101281ED0022056
:1010700087F80E01002006468DF8070040F0A2F820
:10108000864208D2B86900EB861090F83C00811FB8
:10109000701C0229EFD840F095F886420ED2B8694C
:1010A00000EB861090F83C0006280ED00C2100269C
:1010B000204636F0CBFE3046BDE8FC810DF107003E
:1010C00036F048FA08B10146F1E798F8021007290E
:1010D00001D91121EBE701294FF0010018BF0429C4
:1010E00014D108F10402013012210026013811D078
:1010F00055889388AB4215D8042D28BF042BD7D32D
:10110000931D1278012A1A46F0D9D1E7052909D191
:101110000220E6E798F80000032803D898F80100B9
:10112000032801D91221C2E79DF80700B96982019D
:101130008A584AB1A2F10C0006F0BCFD9DF80700E8
:10114000B969002382018B50820101EB80100126D6
:1011500041F80280062180F83C100021A8E700BF7A
:101160003CF640202DE9FC41AA4F06460C4697F874
:101170000E01012801D10C2618E0022001A987F8F0
:101180000E01307836F0A0FBFF280ED071780329CD
:1011900009D80546B078012805D8F078FB2802D890
:1011A00003290AD048B9122600E0422620463146DB
:1011B00036F04CFE0020BDE8FC81BA6902EB8512D6
:1011C00092F83C30012B07D00329D4D1019BB3F80E
:1011D00002C05FEA8C7349D4538D03EB000CBCF55D
:1011E000FE7F0ED9108D00283ED0F4F72FF8B86995
:1011F000002100EB85100185B86900EB8510418561
:1012000032E001984388DB0613D4037A417A90F8E0
:1012100007E01B0243EA014140F27123714401FBE4
:1012200003F8D18B1FFA8CF236F084FA404529D2AC
:10123000717841F00200032836D1B86900EB8510BF
:10124000008D30B1F4F702F8B869002100EB851089
:101250004185F3F7E9FFB96901EB85110885B869A4
:1012600000EB8511098D19BB07269FE70CF01003D1
:1012700003433FF480AF2028AED30CF01203122BAF
:1012800091D0A9E7B86900EB8510008D50B1F3F754
:10129000DDFFB869002100EB85100185B86900EB1E
:1012A00085104185452681E7B86900EB8511098DD8
:1012B00000EB8510F278408D0844244980B2084440
:1012C000311DEFF79FFBB869F27800EB8510418D77
:1012D000114441857078811E02290BD2B86900EB58
:1012E0008510418D81B9C28C91420DD1008DF3F7EB
:1012F000ADFF21E0002604287FF458AF28460021E6
:10130000002221F0EDFC51E790F83C20022A05D1A3
:10131000028DC9B2284621F0E3FC03E0808C08B1BD
:10132000F3F794FFB86900EB8510018D8184B869EB
:1013300000EB8510418DC184B869002600EB851053
:101340000685B86900EB851046852FE700804020B0
:1013500070B5E94E05460C4696F82E0008B10C21F2
:1013600021E028791F281DD82846F4F7AFF9013865
:10137000242817D8287903214FF47A7286F82C0094
:101380002868B0620A4803680420984701200321B6
:1013900086F82E00074802680320904736F0EEFCDE
:1013A000002100E01221204636F050FD002070BDE3
:1013B0005CE4402054E440202DE9F04105464078AB
:1013C0008846012801D912211DE0CB4E3C244FF064
:1013D000FF3701373FF0F6FE874208D2B16904F1CA
:1013E0004000095D04460929F3D10C210BE028785F
:1013F000202807D1317B687801F0FE0108430021E5
:10140000307300E01121404636F020FD0020BDE899
:10141000F08100BF3CF640202DE9F8430C460988D6
:1014200006464FF48850042306F00EFC054630466D
:101430001CF006F908B102273EE0434850F8269018
:1014400099F88C00A8B3A1783046002918BF012173
:1014500029F046FCA07870B3B9F896000027C005C3
:101460002AD430021023011D4FF48A700A4606F078
:10147000EBFB164A0D2180461EF078F930462AF023
:101480000BFA0121002288F80D70A8F80910104904
:10149000085C314688F8080040461EF087F940464F
:1014A00006F010FCB9F8960040F48070A9F8960098
:1014B00002E00C2700E0002720882F706880284673
:1014C00002F0EAFF0020BDE8F88300BF69FA0200DD
:1014D00034C405002DE9FC410C46098806464FF44A
:1014E0008850042306F0B0FB054630461CF0A8F8EF
:1014F00008B1022011E0A178E2785018FF280BD83B
:10150000237912208B4208D86779BB4205D3A1EB1F
:10151000020CF818604509DD1220287020886880C8
:10152000284602F0B9FF0020BDE8FC81064850F8CB
:101530002680E088CDE90070304629F08DFB01203F
:1015400088F88C000020E8E7B8F440202DE9F0414D
:10155000F74F06460C4697F80E01012801D10C21E1
:101560003EE0022087F80E013078EF2801D91221E1
:1015700036E0002136F0A8F9FF2830D0B96901EB38
:10158000801292F83950FF2DE9D07378032BEED8F2
:10159000B278FC2AEBD8032B01D0002AE7D0032B2A
:1015A00005D001EB851393F83C300C2BD7D001EB21
:1015B000851CBCF822301A44B2F5FE7F16D9BCF85F
:1015C000200050B1F3F742FEB869002100EB85100E
:1015D0000184B86900EB85104184072100E04221B5
:1015E000204636F033FC0020BDE8F0818001085829
:1015F0009CF83C100C290FBFBCF80C80DCF80010E4
:1016000089884FEA8108C17D90B236F0F9FE8045A5
:101610001CD9707840F00200032829D1B86900EB8A
:101620008510008C30B1F3F711FEB869002100EB92
:1016300085104184F3F7F8FDB96901EB8511088441
:10164000B86900EB8511098CB1B9C6E7B86900EB40
:101650008510008C50B1F3F7F9FDB869002100EB5B
:1016600085100184B86900EB851041844521B7E7F6
:10167000B86900EB8511098C00EB8510B278408CBD
:1016800008441E4980B20844F11CEFF7BBF9B86961
:10169000B27800EB8510418C11444184707800F0E1
:1016A000FE0002280DD1B86900EB851090F83C10BF
:1016B0000C2908D1028C90F8221028462DF002FF48
:1016C00005E000218CE7808B08B1F3F7BFFDB86916
:1016D00000EB8510018C8183B86900EB8510418C8B
:1016E000C1830021B86900EB85100184B86900EB63
:1016F0008510418474E700BF3CF640200080402004
:101700002DE9F0479C4E05460C4696F80E0101283F
:1017100001D10C2709E0022086F80E012878012863
:1017200002D86878EF2807D912272046394636F0C4
:101730008DFB0020BDE8F087002136F0C5F8FF28BA
:1017400041D0B269074602EB801191F83980B8F1B7
:10175000FF0FDED002EB8810038C002BD9D12B7841
:101760009BB3D1F80090B9F8021011F0330FD0D12B
:101770004FEA8811C08B5158B1F804A099F817109E
:1017800036F03EFEB0EB8A0F4ED2B16901EB881203
:1017900012F83C0F0D28BCD00A2804BF0B20107093
:1017A000B9F8022012F0130F38D101EB871191F82C
:1017B0003C10022908BF0B2830D13846414636F08C
:1017C000BBF8074627E04227AFE710F83C2F0C2A6A
:1017D00004D00B2A26D10A21017023E00868408832
:1017E000800708D191F83C00022804D138464146D0
:1017F000002221F0A9FF40462FF0BCF90746B0694E
:1018000027B900EB88110D2281F83C2000EB8810ED
:10181000043047F02FFD002F7FF487AF2878002891
:101820003FF487AF002780E745277EE72DE9FC419D
:10183000F84C0546884694F80E01012802D100268E
:101840000C2128E0022084F80E012878EF2802D924
:10185000002612211FE00021002636F035F8FF286F
:1018600010D00746A06900EB871191F83910FF29C5
:101870008DF8071008D000EB811090F83C000A2882
:10188000DDD11DE0422106E00DF1070035F062FEDA
:1018900038B100260721404636F0D8FA3046BDE878
:1018A000FC81A0699DF8071000EB871080F83910C3
:1018B000A0699DF8071000EB8110FF2180F824102B
:1018C0002878EF28C4D868880628C1D3AE88B042EB
:1018D000BED8A169B8010B58588810F0330FB7D1A2
:1018E0009DF8072001EB8210C08B40B1D97D36F006
:1018F00087FDB0EB860F18D2A1699DF807209001F3
:10190000085840B10C3806F0D5F99DF80720A169B8
:10191000002390010B50900101260D5001EB821025
:101920000A2180F83C100021B5E700264521B2E7E6
:101930003CF6402070B5054680780C46012801D958
:10194000122113E02E783FF03DFC86420DD2B148C3
:10195000806900EB861090F83C000F2805D1A9782B
:10196000304632F019FD014600E04221204636F0B3
:101970006DFA002070BD00BF3CF64020F8B505466A
:10198000624814460E4650F8257036F00FFC28B910
:1019900035F0C6FF28461BF02DFE08B10C2213E0DF
:1019A000B07802280FD8B1888A087C2A0BD8B6F8FC
:1019B00006C043F6F672ACF10A03934203D8337AB9
:1019C00013F0E80F06D01222284621461BF0DAF861
:1019D0000020F8BD002287F8823087F87C00A7F845
:1019E00080C0A7F87E10EFE72DE9F047894608216F
:1019F000904605461BF09CFE00284FF00106284645
:101A00004FF00B0118BF03261BF092FE0446284638
:101A10001BF004FE08B10C276DE03C4850F825A0EF
:101A2000BAF8960040061BD499F8022012F0020082
:101A300003D199F8041000295CD012F0010103D100
:101A400099F80330002B55D018B999F80430072BBA
:101A500004D839B999F80330072B03D911274AE084
:101A60003A2748E01127032A45D8B9F80620022A68
:101A700041D864F3820618B999F80400304242D084
:101A800019B999F8030030423DD028021423011DF2
:101A900040F20F100A4606F0D7F81D4A0921044605
:101AA0001DF064FE2046294600221DF07FFE99F8B5
:101AB00002000027810754BF99F804100721C007CE
:101AC00001EA0601E1724FF001010CBF99F8030031
:101AD0000720A781A1733040A072B9F806002082C8
:101AE000204606F0EFF8BAF8960040F04000AAF859
:101AF000960000E01227284641463A461BF052F86D
:101B00000020BDE8F0871A27F5E700BFB8F44020B1
:101B1000F9EA0200B0B50546EE480C4690F87A00A6
:101B200020B136F0B3FB08B10C2117E0E8790128A9
:101B300013D82978012910D8681C36F065FD0C49A6
:101B4000CA880989891A382291FBF2F181420ADD9B
:101B5000E9792FF06BFA002100E01221204636F0DF
:101B600075F90020B0BD0221F8E700BF3CF6402027
:101B70000CEE40202DE9F041D64E88460546002760
:101B80003C243FF01FFB874210D2B069005D00F09B
:101B9000FE01022903D196F80E11012906D040F06A
:101BA0000200072802D040340137EAE7FCB23FF0D8
:101BB00009FBA04201D90C210CE07D492846F4F72D
:101BC00039FB08B1122105E0A8880021F0842868BB
:101BD000C6F82200404636F039F90020BDE8F08111
:101BE00010B500880C464AF2B712411E91420BD83C
:101BF0004FF47A71EA4A4143A2F8780002F13400C6
:101C0000F4F702FE002100E01221204636F01EF912
:101C1000002010BD3CF640202DE9F843E04F05467A
:101C2000894697F80E01022801D10C2633E00120E5
:101C300087F80E01002087F80C0104468DF8030098
:101C40003FF0C0FA844208D2B86900EB841090F8E3
:101C50003C00811F601C0229EFD82878012816D08B
:101C6000C0B93FF0AFFA8442DFD2B86900EB84100C
:101C700090F83C0007282DD131F0A0FD064650B960
:101C8000B869082100EB841080F83C1007E0687800
:101C9000012807D912264846314636F0D7F80020E9
:101CA000BDE8F8833FF08EFA844215D2B96901EBA2
:101CB000841090F83C000828B7D0072818D168781D
:101CC000002818BF0120B7F80A1121F001010844CB
:101CD000A7F80A010026DEE70DF1030035F03AFC13
:101CE00006460028D7D1B9699DF80340002600E0D8
:101CF0001226A0010858F0B900200021002210236C
:101D0000002405F0A1FF9DF80320B96904700623A3
:101D10000471920188504FF01012C0F806209DF80F
:101D2000032001EB821282F83C304FF480729DF860
:101D30000340A0F80120A0010C58207840F00200D8
:101D4000032813D107F1220819494046F4F772FA23
:101D50000028A0D12078032808D136F039FC28B11A
:101D600013494046F4F766FA002894D168780022B7
:101D7000002818BF0120B7F80A1121F0010108441A
:101D8000B969A7F80A019DF8030001EB80118A8365
:101D9000B96901EB8011CA8336F080FC0646B86948
:101DA0009DF8031000EB8110072180F83C1072E7CA
:101DB000F0C305002DE9FC41794E05460C4696F826
:101DC0000E01022806D10C21204636F03FF80020F3
:101DD000BDE8FC81012086F80E01002007468DF841
:101DE00007003FF0EFF9874208D2B06900EB871097
:101DF00090F83C00811F781C0229EFD83FF0E2F9EF
:101E0000874207D2B26902EB871090F83C0006289F
:101E1000D9D10EE00DF1070035F09CFB01460028FA
:101E2000D2D1B2699DF80700062102EB801080F83C
:101E30003C106888B5F80480804501D91221C3E7B9
:101E4000031F43F6FC771221BB429CBFA8F1040399
:101E5000BB42B9D82F78012FB6D8A9790329EDD87C
:101E600095F807C0BCF1030FE8D8BCF1020F03D30B
:101E700096F87A30002BE1D09DF807E04FEA8E13F8
:101E8000D35893B9002000210022102305F0DCFE76
:101E90009DF807E0B2692F7895F807C0B5F804807F
:101EA0004FEA8E115050A97968884FEA8E13D358A3
:101EB0001970D88001200621A3F808801F7183F8CB
:101EC00001C098709DF8070002EB801080F83C106C
:101ED000002179E73CF640202DE9FC41304E0546D3
:101EE0000C4696F80E01022801D10C2151E0012088
:101EF00086F80E0128781F2801D9122149E0FF2019
:101F0000002135F0E1FCFF288DF807002BD0B169E6
:101F100001EB8010297811B9C28C8A4238D0B0F810
:101F20002480F3F781F958B3294607461D4811F874
:101F3000012B3844EEF766FDB1699DF8070001EB0F
:101F400080118F84B1692A7801EB8011CA84B1694C
:101F500001EB801191F83C10022913D129783A46FF
:101F600020F0BEFE14E00DF1070035F0F3FA014653
:101F700078B99DF8070035F0A3FD9DF80700C6E786
:101F8000072106E0B8F1000F1CBF4046F3F75EF9E9
:101F90000021204635F05AFF0020BDE8FC8100BF3B
:101FA0003CF64020008040202DE9F8430C4609888B
:101FB00006464FF48850042305F046FE0546304699
:101FC0001BF03EFB08B102270DE0304621211BF03B
:101FD000C1FB38B1A078012802D8E17801290BD9DA
:101FE000122700E01A2720882F706880284602F008
:101FF00053FA0020BDE8F883224A002952F82690BF
:102000000A4618BF0122002889F88920024618BF15
:102010000122084389F8882031D0B9F896000027BA
:10202000C005E0D430021023011D4FF48A700A4627
:1020300005F00AFE144A0D2180461DF097FB30463C
:1020400029F02AFC1149002288F80D7088F80A70DE
:10205000085C314688F80800A078B0FA80F04009A2
:1020600088F8090040461DF0A1FB404605F02AFE15
:10207000B9F8960040F48070A9F89600B3E70027FD
:10208000B1E700BFB8F4402069FA020034C405008B
:10209000B0B50A4604464FF488500021042305F0E9
:1020A000D3FDA178054611B101291BD10121238857
:1020B000B3F5007F09D303F0FE0009288FBF02208B
:1020C000E278D8B233F0A8FF0DE00220B3F5807FAC
:1020D00009D303F0FE02092A05D8E278D8B234F019
:1020E00081FD00E01220287020886880284602F0D8
:1020F000D3F90020B0BD0000FEB5064635480C46B9
:1021000090F8A800C0060CD533480DF10B02102141
:102110003346009405682A20A84707469DF80B001F
:10212000D8B341F2011000212246012305F08CFDB5
:102130000446307833F0C4FC48B30546807E01077E
:1021400023D500F00300013801281ED8EA7D297E3E
:10215000687E35F09FFA707885F83000A87E00F030
:10216000030102291BD1810629D4687822F0CCFF13
:1021700006306B78717882B2184633F041FEA97E42
:1021800021F0030100B3002220E00C2000E04220F7
:102190002070204602F080F900273846FEBD002757
:1021A0002046277002F078F92846002144220023B7
:1021B000009733F003FC687833F0A4FBEDE740F0C0
:1021C000100000F0FC01A876032200201143A9763C
:1021D000DEE700BF28EC4020F0E44020B0B533F04B
:1021E000C5F968B104464FF48850002142F21F023D
:1021F0000423002505F028FD4580047002F04CF909
:102200000020B0BDB0B586B00C46054636F0DEF80D
:1022100038B12978272902D8A878072803D91221AC
:1022200014E00C2112E08DF8030068788DF801109D
:1022300001217F228DF800108DF81520ADF80410D3
:102240008DF80200684632F0F9FE0146204635F06E
:10225000FDFD002006B0B0BDB0B586B00C46054609
:1022600036F0B4F858B12978272906D8A878072875
:1022700003D8EA78531E032B08D9122100E00C2161
:10228000204635F0E3FD002006B0B0BD8DF801100A
:1022900001218DF8030068788DF804208DF8001076
:1022A0007F218DF8151000218DF8020068468DF809
:1022B000051032F0C3FE0146E2E7F0B587B00C46E8
:1022C000054636F083F8E8B12B78272B06D8A87896
:1022D000072803D8EE78711E032901D9122112E0D4
:1022E0002F791221012F0ED0142F0CD895F805C08C
:1022F000BCF1020FF2D8AA79911E4929EED8032E1B
:1023000007D337B10C21204635F0A0FD002007B0DF
:10231000F0BD0C2A01D91121F5E78DF80700687886
:1023200001218DF8086001AE8DF805308DF80C2084
:102330008DF80AC08DF809708DF80410E91D8DF82C
:10234000060006F10900EEF75DFB7F208DF819000D
:10235000304632F073FE0146D5E72DE9F04186B0F4
:102360000C46054636F032F840B32B78272B06D8BA
