:020000040000FA
:10000000C03D4E201D05000061540000B5060000F3
:10001000F50600003105000033050000350500003D
:100020000000000000000000000000003705000094
:100030003905000000000000DD050000355A000011
:10004000610F0000B17C000043050000991400001E
:1000500047050000490500004B0500004D05000064
:100060004F050000510500005305000039BD000098
:10007000495E0000590500005B050000C18D0000CD
:100080005F050000610500006305000065050000D4
:1000900067050000690500006B0500006D050000A4
:1000A0006F05000071050000730500007505000074
:1000B00077050000790500007B0500007D05000044
:1000C0007F0500007554000083050000551C0000EA
:1000D00087050000890500008B0500008D050000E4
:1000E0008F05000091050000F15200009505000009
:1000F0009705000099050000F14300009D050000F0
:1001000000000000000000000000000000000000EF
:1001100000000000000000000000000000000000DF
:1001200000000000000000000000000000000000CF
:1001300000000000000000000000000000000000BF
:1001400000000000000000000000000000000000AF
:10015000000000000000000000000000000000009F
:10016000000000000000000000000000000000008F
:10017000000000000000000000000000000000007F
:10018000000000000000000000000000000000006F
:10019000000000000000000000000000000000005F
:1001A000000000000000000000000000000000004F
:1001B000000000000000000000000000000000003F
:1001C000000000000000000000000000000000002F
:1001D000000000000000000000000000000000001F
:1001E000000000000000000000000000000000000F
:1001F00000000000000000000000000000000000FF
:10020000DFF80CD000F066FE004800474F0F0000FA
:10021000C03D4E2001F0C2B8052884BF01207047C0
:10022000B0B5154A0224002952F820301D4664F367
:10023000420518BF43F0060542F820500020B0BD2B
:1002400005288FBFFF200C4951F82000C0F3402043
:1002500040B27047052804D8074A52F820309B075F
:1002600001D40120704752F8203061F3000342F8B6
:1002700020300020704700BFB4B0045058B10021B6
:100280000C4A422904BF0020704752F8213040F840
:1002900021300131F5E7FEE758B10021054A422936
:1002A00004BF0020704750F8213042F8213001315E
:1002B000F5E7FEE70030005010B51D4C1D4954F81D
:1002C000400C00F003000338B0FA80F04FEA501001
:1002D000087018BF10BD65F039FA1748016841F081
:1002E00000510160206820F00200206000F048F812
:1002F000206820F00100206010480068C00704D189
:100300000F48016821F48031016061F055FF02F06F
:1003100071FE00F04BF90B480121016005F0BAFBBA
:1003200062F028F900F097F9BDE810405FF004BBD7
:1003300040000450C03D4E2014F0005000A0045076
:100340001401095034184E2080B51A48FFF796FF63
:1003500028B11948094940F2B11260F0E9FE194983
:100360001748022202F0A6FC38B11348034940F2B4
:10037000B512BDE8804060F0DBBE80BDB824070048
:1003800080B50C48FFF788FF28B10B480B4940F2B5
:10039000A51260F0CDFE0B490948022202F064FC70
:1003A00038B10548054940F2A912BDE8804060F027
:1003B000BFBE80BD842E4E20C6240700A92407009E
:1003C000000008508C2F4E2070477047B0B509F0E0
:1003D0002DFB424C206AE169014240F07B80A06A1B
:1003E00020F01000A062206AE169014204D0A06AF6
:1003F00040F01000A0626DE002200121012501F013
:1004000015F8FFF7A1FF00F071F835480560206C82
:1004100040F001002064206C40F00200206431486C
:10042000006802F07FFE304AEFF303801064EFF3C0
:1004300010805064134602F13C05EFF31380906482
:10044000EFF31180D064EFF314801065EFF30980AF
:1004500043F8580FEFF308805065EFF30B80D06539
:10046000EFF30A8010661868506302B4114601C1A8
:10047000084602BC02C00146A1E8FC1F383278469B
:100480002D302860C2F800E0C3F800D0BFF34F8FD2
:10049000BFF36F8F00BF00BF00BF00BF00BF00BF32
:1004A00000BF00BF30BF00BF00BF00BF00BF00BF24
:1004B00000BF00BF00BF00BF00BFA06A40F0100037
:1004C000A062206820F00300206000F01BF80120EB
:1004D00000F0ADFFBDE8B0405FF064BA000004502A
:1004E00000E100E004254E20C42F4E2080B54FF0DF
:1004F000E05061F03BFC01F08BFF0320BDE8804041
:1005000001F0E4BD80B54FF0E05061F02FFC02F047
:100510004BF90820BDE8804001F0D8BD204880F3A9
:100520000A882048804720480047FEE7FEE7FEE7AC
:10053000FEE7FEE7FEE7FEE7FEE7FEE7FEE7FEE793
:10054000FEE7FEE7FEE7FEE7FEE7FEE7FEE7FEE783
:10055000FEE7FEE7FEE7FEE7FEE7FEE7FEE7FEE773
:10056000FEE7FEE7FEE7FEE7FEE7FEE7FEE7FEE763
:10057000FEE7FEE7FEE7FEE7FEE7FEE7FEE7FEE753
:10058000FEE7FEE7FEE7FEE7FEE7FEE7FEE7FEE743
:10059000FEE7FEE7FEE7FEE7FEE7FEE7FEE7000018
:1005A000C0394E20995A000001020000EFF310807C
:1005B00072B6704780F31088704740BF6F4A136867
:1005C000012B04D04FF0010313606D4A10606D4A97
:1005D00011606D484FF0805101607047EFF3108259
:1005E00072B66648016889B34FF000010160644843
:1005F0000168B1B1EFF309811EF0100F08BF21EDC2
:10060000108B21E9F00FEFF30B8441F8044D4FF00C
:1006100000041EF0100F08BF012441F8044D0068CB
:10062000016058490968096808C910C984F30B8832
:10063000B1E8F00F002B18BFB1EC108B81F30988E3
:100640004EF0100E002B18BF2EF0100E82F3108803
:100650004EF0040E70474D484FF47F01D0F8002053
:1006600041EA02010160704746490860EFF31482D5
:1006700022F0040282F3148841494FF00000086020
:100680003E494FF00100086040484FF47F01D0F828
:10069000002041EA020101603B484FF080510160B7
:1006A0003B480068006880F3088861B662B670470E
:1006B00020BF70471EF0040F0CBFEFF30880EFF36C
:1006C000098020E9F00FEFF30B8440F8044D40F867
:1006D00004ED40F804ED1EF0040F0CBF80F3088811
:1006E00080F3098800B561F0AFFD5DF804EB4EF0D2
:1006F000040E70471EF0040F0CBFEFF30880EFF3F9
:10070000098020E9F00FEFF30B8440F8044D40F826
:1007100004ED40F804ED1EF0040F0CBF80F30888D0
:1007200080F3098800B561F092FD5DF804EB4EF0AE
:10073000040E704710B4EFF3038410B47C4610B479
:1007400000B54DF804CD0FB4089C2DE9F00FEFF380
:100750000B8410B400B5684661F086FC01BC10BC87
:1007600084F30B88BDE8F00F0FBC5DF804CB5DF897
:1007700004EB10BC10BC10BCFEE70000DC314E20C6
:1007800034304E2038304E2004ED00E020ED00E003
:1007900008ED00E02DE9F05F0546002092469B46FB
:1007A00088460646814640241BE028464146474687
:1007B000224600F0D9FA53465A46C01A914110D346
:1007C00011461846224600F0C0FA2D1A67EB0108C0
:1007D0004F4622460120002100F0B7FA17EB00092E
:1007E0004E41201EA4F10104DFDC484631462A4672
:1007F0004346BDE8F09F00000649074A0868504399
:1008000043F239021044086040087047014908600B
:100810007047000000004E206D4EC64110B5431ACF
:10082000934209D28318881803E010F8011D03F8D9
:10083000011D521EF9D210BD40EA01039B0703D0EF
:1008400009E008C9121F08C0042AFAD203E011F80F
:10085000013B00F8013B521EF9D210BDD2B201E0BB
:1008600000F8012B491EFBD270470022F6E710B5B5
:1008700013460A4604461946FFF7F0FF204610BD0E
:1008800010B5044604E00B7800F8013B03B1491CA5
:10089000521EF8D2204610BD421C10F8011B002940
:1008A000FBD1801A704730B504460020034600E0B3
:1008B0005B1C934203D2E05CCD5C401BF8D030BDA2
:1008C000034611F8012B00F8012B002AF9D1184634
:1008D000704730B505460020034600E05B1C93429C
:1008E00005D2EC5CC85C201A01D1002CF6D130BDD9
:1008F0000022CBB20178994200D10246401C002967
:10090000F8D1104670472DE9FE4F804681EA03007A
:10091000C00F0C46009021F0004123F00045B8EBD9
:100920000200A94105D24046214690461C460B468E
:10093000024623F00040104347D0270DC7F30A00BA
:10094000C3F30A510290401A019040286BDAC3F3B6
:10095000130040F4801B0098924620B10023D2EB94
:10096000030A63EB0B0B01985946C0F14002504655
:1009700000F0EBF906460D4650465946019A00F044
:1009800003FA10EB08006141002487EA115284EA5F
:10099000E7731A4340D0009A62B3019A012A4FEAE2
:1009A000075215DC001B61EB02014FF0004202EA26
:1009B0000752CDE90042001C41F5801132462B461A
:1009C00000F03AFA03B0BDE8F08F40462146F9E75F
:1009D000001B61EB0201001C41F5801300185B4114
:1009E0002018A2F5001747EB030140EAD570B619AD
:1009F0006D4111E06D084FEA360645EAC0754FEAD1
:100A00000752001B61EB0201001C41F580114908EF
:100A10004FEA30000019514132462B4603B0BDE881
:100A2000F04F00F0FAB90098012240000023D0EB0B
:100A3000020263EBE073009821464FEAE074B8EBE2
:100A4000000061EB0401E9E783F000435BE781F01C
:100A5000004158E72DE9FE4F81EA030404F0004409
:100A600021F0004100944FF0000B23F0004350EAC6
:100A700001045ED052EA03045BD0C3F30A54C1F30D
:100A80000A552C44A4F2F3340194A0FB0254C1F3A0
:100A9000130141F48011C3F3130343F4801301FBEA
:100AA000024400FB034E840A970A44EA815447EA51
:100AB0008357A4FB076802958D0A05FB07854FEA5B
:100AC000932C04FB0C542705029D4FEA065847EA75
:100AD0001637B5EB08056EEB070C870E920E47EA4A
:100AE000811742EA8312A7FB0201B6EB0B0164EB0C
:100AF00000042B0D43EA0C335E1844EB1C50DA461D
:100B00005146E7FB0201C5F313044FEA0B3343EAF6
:100B100014534FEA0432019C43EA0603A4F10C0487
:100B20000294009CCDE900B400F086F903B0BDE862
:100B3000F08F00200146F9E72DE9F04D81EA03042A
:100B400004F0004B21F0004514464FF0000A23F05A
:100B5000004150EA050220D054EA01021DD0C5F33D
:100B60000A570246C5F31303C1F31300C1F30A5633
:100B700040F4801543F48013A7EB0608101BD646FB
:100B800008F2FD3873EB050002D308F1010801E01B
:100B900092185B41B8F1000F03DA00200146BDE86E
:100BA000F08D00204FF48011064684460EE0171B9E
:100BB00073EB050705D3121B63EB050306434CEAF1
:100BC000010C49084FEA300092185B4150EA0107D6
:100BD000EDD152EA030012D082EA040083EA050153
:100BE000084305D0101BAB4106D20122002306E0CA
:100BF00000224FF0004302E06FF0010253101AEBA5
:100C000006004CEB085110EB0A0041EB0B01BDE86C
:100C1000F04D00F002B930B5041E71F1000404DBA0
:100C20004FF00044404264EB0101141E73F10004D4
:100C300005DB1C464FF00043524263EB0403801A6D
:100C4000994101D3012030BD002030BD30B5041ED4
:100C500071F1000404DB4FF00044404264EB0101F9
:100C6000141E73F1000405DB1C464FF00043524292
:100C700063EB0403101A8B4101D2012030BD002028
:100C800030BD30B5041E71F1000404DB4FF00044A8
:100C9000404264EB0101141E73F1000405DB1C46A5
:100CA0004FF00043524263EB0403101A8B4101D30F
:100CB000012030BD002030BD30B5041E71F10004AC
:100CC00004DB4FF00044404264EB0101141E73F159
:100CD000000405DB1C464FF00043524263EB040363
:100CE00042404B401A4301D0002030BD012030BDAE
:100CF00030B4044696230800214604D0B62330BC05
:100D0000002200F05CB820460021F8E770B5C1F37E
:100D10000A5201F000450024C1F3130140F2FF33F1
:100D200041F480119A4201DA002070BD40F2334351
:100D30009A42A2F2334203DC524200F015F800E07E
:100D400090402C43F1D0404270BD202A04DB203A71
:100D500000FA02F1002070479140C2F1200320FA0E
:100D600003F3194390407047202A04DB203A21FA0C
:100D700002F00021704721FA02F3D040C2F12002B4
:100D80009140084319467047202A06DBCB17203ACA
:100D900041FA02F043EAE07306E041FA02F3D04080
:100DA000C2F1200291400843194670470029A8BFAC
:100DB0007047401C490008BF20F00100704710B484
:100DC000B0FA80FC00FA0CF050EA010404BF10BC39
:100DD000704749B1CCF1200421FA04F411FA0CF166
:100DE00018BF012121430843A3EB0C01CB1D4FEA9F
:100DF00000614FEA102042BF002010BC704700EB9A
:100E0000C35010440029A4BF10BC7047401C4900C7
:100E100008BF20F0010010BC704710B5141E73F11C
:100E2000000408DA401C41F1000192185B411A43AA
:100E300001D120F0010010BD2DE9F04D92469B46F6
:100E400011B1B1FA81F202E0B0FA80F2203290469C
:100E5000FFF77BFF04460F4640EA0A0041EA0B0118
:100E600053465A46084313D0114653EA010019D09D
:100E7000C8F140025046FFF777FF05460E46504640
:100E800059464246FFF761FF084305D0012004E0C0
:100E900020463946BDE8F08D0020054346EAE0765D
:100EA0002C4337430A986305E40AA0EB08000022AC
:100EB000FD0A44EA47540A3002D500200146E9E71A
:100EC000010510196941DDE9084500196941BDE8CE
:100ED000F04DA2E7064C074D06E0E06840F0010344
:100EE00094E8070098471034AC42F6D3FFF78CF92A
:100EF000802F0700A02F070070B58C1810F8015B39
:100F000015F0070301D110F8013B2A1106D110F8A2
:100F1000012B03E010F8016B01F8016B5B1EF9D1A6
:100F20002B0705D40023521E0DD401F8013BFAE72C
:100F300010F8013BCB1A921C03E013F8015B01F897
:100F4000015B521EF9D5A142D8D3002070BD80B5F7
:100F50005EF076F85EF090FB64F014FC002080BD3B
:100F600080B561F047FD00F005F8BDE8804061F014
:100F700057BD000010B50D48012101600C48BFF3BA
:100F80004F8FBFF36F8F016821F003010160046A86
:100F90006FF3192444F00041416200200BF086FAFF
:100FA0002046BDE8104006F09BBC00BF80E100E099
:100FB0000000045070B5002208230024002B0FD439
:100FC00050F8235051F82360641942F10005A41928
:100FD00040F8234045F10004013B04F00104EDE733
:100FE000BDE8704068F09EB9F8B5144600220823A9
:100FF0000025002B0FD450F8236051F82370AD1951
:1010000042F10006ED1944F8235046F10005013B7A
:1010100005F00105EDE7204668F084F90020A062A4
:10102000F8BD000010B51446FFF7DEFFA06A20B13E
:101030002046BDE8104000F00DB8414920461CF0A4
:10104000ADFB28B13E492046BDE8104004F092BCFB
:1010500010BD00BFB0B58CB0044601AD3848214684
:101060002A4604F01FFC204629462422FFF7D6FB1F
:101070000A990020C4E909100CB0B0BDF0B58BB0DE
:101080000446806A00B32E4D204629461CF06EFBB4
:1010900080B308200021002200283AD455F82060AF
:1010A00054F82030B718921941F100069A1AA3EBB0
:1010B000070771EB060244F82070A0F101004FF021
:1010C000000238BF0122E7E71D4A00200821002363
:1010D00000291ED454F8215052F821605B1940F1C8
:1010E00000059B1944F8213045F10003013903F054
:1010F0000103EDE76D46124821462A4604F0D2FB73
:10110000204629462422FFF789FB09990020C4E9DB
:1011100009100020002109290BD054F821205FEA92
:1011200050004FEA320044F8210002F00100013182
:10113000F1E720460BB0BDE8F04068F0F3B800BF1F
:10114000A0C5060010B5714901F140020021052932
:101150000AD052F8043C834203D8146823448342E3
:101160000ED848320131F2E7674A116C814206D845
:10117000526C1144814202D95648016800E0FF21B7
:1011800048B210BD704770477047000010B5514815
:101190004FF0FF3101605C480021017000F0B8F8A9
:1011A0000446002818BF012400F0B4F8002818BF36
:1011B000023400F0B1F8002818BF043400F0AEF893
:1011C000002818BF083400F0ABF8002818BF44F01E
:1011D0001004204610BD00BF2DE9F84F8A46044692
:1011E00000EBC0004949DFF820B19946904601EB79
:1011F000C0060020C6E90B009BF800003746012816
:1012000005D1314831490BF10407CBE90C10DAF86C
:101210000C00202847D8042C09D8DFE804F0030983
:101220000E131A0000F09AF8054604200EE019E0AB
:1012300000F09AF80546062008E000F09BF8054605
:10124000082003E000F09CF805460A202946012208
:1012500005E000F09BF805460020002229460EF02C
:10126000DBFCB86187F82690B9F1010F04BF8F202D
:1012700087F825009BF80000012808D100F08CF8C1
:1012800005460620012229460EF0C6FCB861A8B228
:101290004C21434600900E4814FB0102384651464B
:1012A00001F038F910B10020BDE8F88F9BF800007C
:1012B000012806D10748F96B0460306C0844F863D4
:1012C00038610120BDE8F88F4DFC00008511000059
:1012D0002C354E20EC004E2010B5044603F094F857
:1012E00010B10948043010BD2046FFF72BFF00283D
:1012F00007D4C1B2C90051FA80F0044901EBC00023
:1013000010BD002010BD00BF44114E20A8364E2055
:101310000020704700207047002070470020704771
:1013200010B58AB00B480DF1140C90E81E0000694E
:10133000ACE81E000990084801AC90E80E00C068B7
:101340000EC4049005A901AA04200023FFF744FF5E
:101350000AB010BD60B5060044C706000148008809
:10136000704700BFEC014E2001480088704700BF65
:10137000EE014E2001480088704700BFF0014E206A
:1013800001480088704700BFF2014E2001480088E4
:10139000704700BFF4014E200120704710B5224C69
:1013A00015204FF4A27130220023A047142040F2F0
:1013B000431130220023A0473220EC2100220023D9
:1013C000A0472C204FF49E7130220023A0472B20F1
:1013D00040F23B1130220023A04719204FF4A071A6
:1013E00030220023A047182040F23F113022002372
:1013F000A047372040F24F1130220023A04736206B
:101400004FF4A87130220023A047232040F251114D
:1014100030220023A04724204FF4A971302200235A
:10142000A446BDE810406047D138000070477047BF
:1014300010B561F0DFFA0B4C07A0A0470AA0A04747
:101440000DA0A0470DA00EA14FF4B6725FF070FE84
:10145000BDE8104061F0E4BA5B452F4442475D208F
:1014600000000000012B0600437261736820747253
:1014700069676765726564000A000000300000005B
:101480004442475F547269676765725F49525148C9
:10149000616E646C6572000080B561F0ABFA04485F
:1014A0007C3000F0D1FCBDE8804061F0B9BA00BFEB
:1014B00040384E20B0B5436C144CA3421CD1846814
:1014C000134BB4F5804F18BF102C08D10C6804F1F1
:1014D00060459D4238BF04F120640C60846844F488
:1014E0008040B0F5804F07D1106800F160449C4205
:1014F00038BF00F120601060086800F17042920E61
:10150000022A9CBF00F1A0400860B0BD001000504E
:10151000FFFF0700FEB505461C4600680127D5E918
:10152000113606F01C0607FA06F65E604460CDE947
:10153000012102A901AA2846FFF7BCFFAA68102AC8
:101540000FD12A680198A96990600298D060C9B14A
:10155000B1F5806F15D0B1F5006F01D1022111E016
:10156000FEE72E68029BA969B3600198F060E9B1BB
:10157000B1F5806F19D0B1F5006F01D1022115E0EE
:10158000FEE701216A692AB1B2F5807F18BFB2F582
:10159000007F09D104FA01F10144013948400021DA
:1015A000B1EB105F2CD122E0FEE701216D694DB156
:1015B000B5F5807F05D0B5F5007F01D1022501E0AA
:1015C000FEE70125A2B1B2F5804F10D104FA05F271
:1015D0001A44013A5A400023B3EB125F10D104FAC7
:1015E00001F1084A014401394840904208D8FEBD43
:1015F00004FA01F1014401394840B0F5801FF6D3E7
:10160000FEE700BFFFFF0F00F0B597B007AC01ADDC
:1016100007AE0FC41D98314613ACADF818001C98E6
:101620002246059021980490209803901F980290DC
:101630001E980190284603F0E5FA284621462246E6
:1016400003F02FFE0FAD05A8294603F0E5FB204669
:1016500029462A4603F0CBFA0BAF3046394603F051
:101660005BFD28463946224603F0F9FADDE92220DF
:101670000021042903D0635C53540131F9E7211D93
:1016800000220C2A04BF17B0F0BD8B5C83540132DA
:10169000F7E7B0B58EB002AC0FC4139900220AABC5
:1016A000149CADF804101299009102A901310F2A7F
:1016B00003D09854885C0132F9E780F0060006AD4B
:1016C0008DF837006846294603F0A6FB0AA928468C
:1016D000224603F0C4FA0EB0B0BDF0B593B007AC2B
:1016E0000FC4199901ABDDE91E42ADF81810189925
:1016F000254605911D9904911C9903911B9902910E
:101700001A9901910FA90E462DB113F8017B013DE5
:1017100006F8017BF8E70D19002605AFA319052E81
:1017200098BF102B03D2BB5DAB550136F6E7002402
:101730001D46102D08D20E5D4E551E1B0135013E73
:1017400018BF661C3446F4E707A900240BAD01312D
:101750000F2C03D02855085D0134F9E758400FA934
:101760008DF83B000BA803F07AFA13B0F0BD70B50A
:1017700098B008AC14AD0FC41E9808A92A4601AC55
:1017800007901D9806901C98059022980490219827
:101790000390209802901F980190204603F032FA9F
:1017A000204629462A4603F07CFD239C002005A9FB
:1017B00010AA0023102B08D00D5CD554451C013312
:1017C000B5F10C0018BF2846F4E710AD14A829465F
:1017D0002A4603F00CFA0CAE08A8314603F09CFC34
:1017E00028463146224603F03AFA18B070BD000090
:1017F0002DE9F04FAFB00E4607464FF404700221BA
:1018000015461DF0F7F9834628468421FFF72DF889
:1018100058464FF40471FFF728F8384602F0F6FDF9
:101820000446304602F0F2FD14B120B1ED4803E069
:1018300068B1384600E03046294600F0F1F800254E
:1018400058461CF0B9FF28462FB0BDE8F08F30464F
:10185000394606F12C0807F12C045DF0A9FC00289C
:1018600000F0C1800BF184000BF12C0107F1580A44
:10187000DA4B5A460D940BF1580906F158040C90B6
:1018800040468846514698470D98CDF834804246E8
:10189000DFF848832146C047304651464A46CDF8D6
:1018A0001CA04646C047089421460C9C3846224658
:1018B000C04748462146CA46A0465DF079FC00284C
:1018C00000F0A1800BF5F270C34E0D990BF59A74E0
:1018D0000BF1B0020BF1DC070A900BF5DC700B94F6
:1018E000099203900BF5C67002900BF5B070019051
:1018F0000BF58470049005F15800069005F12C005A
:1019000005905846B047504641463A46B047DDE953
:101910000701DFF8C8922246C84724A82C21CA46EE
:10192000FEF7A3FF19A82C21FEF79FFF0EA82C217C
:10193000FEF79BFF019E38463946B9463246D047EE
:101940003946029F30463A46D0470998039C0146E3
:101950002246D04730460A9E41463246D0470DF1D6
:10196000380830460221424603F0D0FC204624AC21
:101970000B9956462246D047204619ACDFF858A2AC
:1019800039462246D0472046049C41462246D0474D
:10199000484621462A46B0470DF190082C21B14611
:1019A0004046FEF762FF19AD2C212846FEF75DFF89
:1019B0000EAE2C213046FEF758FF0A9821464246CB
:1019C000D047099841462A46C8470D9938463246BD
:1019D000C847059A28463146D0470B99069A38469B
:1019E000C84701252CE7404621465DF0E1FB002871
:1019F0007FF41CAF306D01283FF634AFF06C002847
:101A00007FF430AF12E70D9958465DF0D1FB002806
:101A10007FF40CAF3846294600F026F80FE700BFE8
:101A2000B0B505460C46084624222946FEF7F6FEC8
:101A3000D5E909012422C4E9090104F12C0005F1CA
:101A40002C01FEF7EBFED5E914012422C4E91401B0
:101A500004F1580005F15801FEF7E0FED5E91F0139
:101A6000C4E91F01B0BD00002DE9F04FA7B00E463C
:101A700005464FF4F27002211DF0BCF80446286DB3
:101A8000012801D8E86C18B1284602F0BFFC20B14B
:101A900054483146FFF7C4FF97E004F1B00005F168
:101AA000580805961CAE05F12C0B039004F1840038
:101AB00041463246029004F15800049004F12C0093
:101AC00001902846FFF7AEFA0DF1440A424B284632
:101AD0004146524698470DF11809404F304651464D
:101AE0004A46B8473E463E4F484603212246B8473D
:101AF0004146DDF804805846B9464246B0471CAF1F
:101B0000584641463A46B0472846049D39462A463B
:101B1000B0470DF1700A204621465246B04711AF3A
:101B2000284608213A46C8475046DDF808A02A4B07
:101B30003946524698471CAD5046414637462A46DC
:101B4000B047059A28460221C84704F1DC055846EB
:101B500059462A46B04740464146C346DDF80C8008
:101B60004246B04704F58476284641463246B84797
:101B7000B94604F59A751A4F304608212A46B847E7
:101B800004F5B076049804213246B84704F5C677C8
:101B90005146DFF844A030463A46D04704F5DC769B
:101BA000204639463246C847059F3046294607F148
:101BB0002C02D0471CAD404659462A46C847084B20
:101BC00007F1580228460821984720461CF0F4FDEA
:101BD000002027B0BDE8F08FE95800004553000011
:101BE0000D53000054C80600F0B58BB0184F0546E1
:101BF00014460E46F87DFF2809D007F06BFDF97DED
:101C00001022C90002FA01F1084307F071FD05F145
:101C10005800694605F018FFF87DFF2809D007F045
:101C200059FDF97D1022C90002FA01F1884307F03D
:101C30005FFD6F4628463246394603F083FB05F1C7
:101C40002C003946224603F07DFB0BB0F0BD00BFEF
:101C5000B40F4E20F8B560F0CDFE114DA8680130EC
:101C6000A86007F055FD0F480F4C0068800606D4A9
:101C7000204600F003FFBDE8F84060F0D1BE0B4FF6
:101C8000002668888642F6D23888603881B23F29BB
:101C90009CBF204600F098FE0C370136F1E700BFEC
:101CA000D8114E20280004500000085038024E2061
:101CB00010B5084B4024984208BF60248C4208D9D4
:101CC00001F01F0313806FF07C0202EA81010844D7
:101CD00010BDFEE700000840154B026898421CBF8B
:101CE000144B98420BD0144B984208D0134B984297
:101CF00005D0134B98421CBF124B984213D14B682E
:101D000022F070021A4302600A688B68C362826222
:101D10000A4A904202D0084A904201D1C968016340
:101D2000012141617047084B9842E8D0EBE700BFC2
:101D3000000001400010014000300240004002401D
:101D40000000015000200150001001507047B0B554
:101D500090F8291002291CD10168C26BD0E9113416
:101D60000D6825F00E050D600D6825F001050D606C
:101D700004F01C014FF0010404FA01F159604FF026
:101D8000000180F8281080F829402AB190470021EE
:101D900002E00421016401210846B0BD68B1B0B57C
:101DA0000268116821F001011160A249114401F596
:101DB000B8338C2B03D8A04B0EE001213EE08C29D8
:101DC00003D89D4901F5B83306E09C4911448D299B
:101DD00036D2994901F18053A2F1080114244364D9
:101DE000C9B2B1FBF4F18C00846400210125102CF0
:101DF000116004F01C0205FA02F24FF018055A6057
:101E00004FF0380205EA440538BF02EA44054FF0B6
:101E10003F024FF0AC0402FA05F238BFA8241D5966
:101E200025EA02021A51016480F82810C0E90C1159
:101E3000C0E90E1180F82910BDE8B040084670478F
:101E4000D0E91134D1E700BFF0B5D0E91123016822
:101E500014680D6803F01C036E0711D504269E401C
:101E600016EA04070CD00B689B0603D40B6823F01A
:101E700004030B605660416BC9B3BDE8F0400847EE
:101E8000AE071ED502269E4016EA040719D05660FA
:101E90000A68920606D40A6822F00A020A60012241
:101EA00080F82920002280F82820026BFAB1096806
:101EB000890603D490F82910012918D1BDE8F04013
:101EC00010472D0713D508259D402C400FD00C68D6
:101ED00024F00E040C60012101FA03F35360002288
:101EE000016480F8282080F82910816BC4E7F0BDD8
:101EF0002DE9F04F68B1816821B1102918BFB1F503
:101F0000804F05D1C2686FF040031A4205D0FEE74A
:101F1000FEE701210846BDE8F08F03696FF08004F9
:101F2000234200D0FEE745692DB1B5F5807F18BF8B
:101F3000B5F5007F0DD186692EB1B6F5806F18BF5B
:101F4000B6F5006F06D1C7696FF02004274202D0B2
:101F5000FEE7FEE7FEE7D0F820904FEA3934042C84
:101F600005D2D0F804C0BCF1200F01D3FEE7FEE794
:101F7000D0F800E02F4C0EEB04082F4C08F5B83BCE
:101F8000A246BBF18D0F0BD3B8F18D0F02D20AF52B
:101F9000B83A05E0294C74448C2C0BD80AF1805ACD
:101FA000AEF108045FFA84F81424B8FBF4F4A4003A
:101FB000C0E911A402240A43B1F5804F80F82940FA
:101FC00042EA0302446A42EA050242EA0602CEF805
:101FD000104042EA070247F6F074DEF8008042EA59
:101FE000090228EA040442EA0402CEF8002019D0CB
:101FF000816CC1F38202032A03D8D100426CA8325B
:1020000005E08908182202EAC101426CAC323F2384
:1020100014688B400CFA01F124EA0303136013687F
:102020001943116000210122016480F8281080F812
:1020300029206FE7F87FFEBF00100040F8EFFFAFE8
:10204000B0B50446581E4FF6FF75A84200D3FEE710
:1020500094F8280001281DD0012084F8280094F865
:102060002900012813D1022084F8290000202064CF
:102070002068056825F0010505602046FFF74AFA4B
:102080002068626B01683AB141F00E010AE000205D
:1020900084F828000220B0BD21F00401016001682D
:1020A00041F00A010160016841F001010160002076
:1020B000B0BDE0B50190019830B14FF47A7000F0F6
:1020C00005F801980138F5E78CBD0000F8B5044625
:1020D00010B9002000F036F842F21075094E84B1B4
:1020E000671B34BF00272C463068C00704D1204648
:1020F00000F028F83C46F2E7204600F005F83C46A0
:10210000EDE7F8BD10E000E018B500900C484FF482
:102110007A730168009A4A43B2FBF3F200920022FC
:1021200043684468A342FCD01A44A342A2EB0402D1
:1021300098BF0A44009B9A42234628BF18BDF0E787
:1021400014E000E01CB5174C01902068019901B122
:1021500040B9002001F010FD1349B0FBF1F0206000
:102160000199E9B10199B1F1807F00D9FEE70199A8
:10217000B1B10E490A68D2070BD10D48026842F08E
:102180008072026000200B4A4860086810430860B3
:102190002068019A50434A684B689B1A8342FBD3DC
:1021A0001CBD00BFF4134E2040420F00001000E0A1
:1021B000FCED00E001000200C0B1F0B55203DDE922
:1021C0000576DDE90754006842EA8141826C41EA04
:1021D000C3216FF3140241EA072141EA861141EA63
:1021E000C501214311438164BDE8F04070472DE9EA
:1021F000F041002876D0044600680022E16842627F
:102200002046002291F89351022100F04FF915B1B8
:1022100020B1002705E070B300262FE02068406859
:10222000C7B2E068152100220025C679204600F0DB
:102230003DF9002E18BF27EA0606C0B1204600214E
:10224000002200F033F92068032100224660456235
:10225000204600F02BF9206845622046022100222A
:1022600000F024F920684068C007F6D13AE0206801
:10227000466045623CE020684068C6B220461421B2
:102280000022002500F012F918B920684068000209
:1022900085B2E068152100224FF00008C77920467A
:1022A00000F004F9002F26EA070118BF0D43D8B14A
:1022B00020460021002200F0F9F8206801210022C8
:1022C000456041622046032100F0F0F82068C0F824
:1022D000248020460221002200F0E8F820684068AF
:1022E000C007F6D1BDE8F081206801214560416258
:1022F000204603210022BDE8F04100F0D7B8F0B538
:1023000085B0002840D00446C068D9B190F86A1062
:10231000D1B390F96E3090F96D2090F96C1090F96E
:102320006F5090F9706090F9717090F972008DE8BB
:10233000E00003902046FFF73FFFE168206891F836
:102340006A101AE090F84610F1B190F94A3090F90D
:10235000492090F9481090F94B5090F94C6090F951
:102360004D7090F94E008DE8E00003902046FFF795
:1023700023FFE168206891F84610026C22F0FF020A
:1023800011440164002000E0012005B0F0BDE0B17F
:10239000F0B585B00446C068C9B190F96A3190F9CA
:1023A000692190F9681190F96B5190F96C6190F97D
:1023B0006D7190F96E018DE8E00003902046FFF703
:1023C000FBFEE06800F5B37018E00120704790F95B
:1023D000583190F9572190F9561190F9595190F9C7
:1023E0005A6190F95B7190F95C018DE8E00003900F
:1023F0002046FFF7E1FEE06800F5AA70216800784A
:102400000A6C22F0FF0210440864002005B0F0BD01
:1024100080B578B102681168C9074FF001010AD090
:10242000936A61F31503B9219362002200F0EAF97F
:10243000014600E00121084680BD50B10068002936
:10244000026842F0010308BF22F00103036000208C
:10245000704701207047B0B50C4605465CF004FE9D
:1024600028462146BDE8B040FFF791BF10B590B1B6
:10247000044600680C4A816A62F3150100228162F9
:102480000221416220469F2100F0BCF9206840688B
:1024900020F07F4405E000209F210022002400F06E
:1024A000B1F9204610BD00BF010004002DE9F04144
:1024B00086B00546C06848B3382927D801EBC10665
:1024C0003044017C11B3144690F9133090F9122076
:1024D00090F9111090F9147090F915C090F916E068
:1024E00090F9178090F918008DE88050CDE90380AD
:1024F000284600F039F9E86822463044017C284635
:1025000000F080F9002818BF012000E0012006B08B
:10251000BDE8F0812DE9F0410125002800F0AF80F1
:102520000F46002900F0AB8039469846164604460F
:1025300001F0C0FA206800F0B4F905460220A66058
:1025400007F1080284F83A004FF0000084F82400F4
:1025500007CA84F838204FEA0151C4E90F01A2F1FB
:102560000100B0FA80F04FEA501084F82300FEB169
:10257000B8F1000F1CD000204FF480517062C6E902
:1025800007018021C6E90500C6E903011020B060FB
:10259000D8F80000D8F80C10C6E900016FF07F40B1
:1025A000854218BF002D29D12046012100F06EF987
:1025B0006FF07F40854218BF002D1FD1A069694987
:1025C000069F0022002688424FF00001204688BF67
:1025D000012101F092FAF9B2204600F00FF994F8C7
:1025E0003900012802D0022804D1012620463146B4
:1025F00000F029F920460121FFF71FFF94F823007E
:1026000070B96FF07F40854218BF002D63D120461E
:1026100000F0CAF80020FFF759FD3220FFF756FD01
:102620006FF07F40854201D02F461DB9204601F052
:102630005FFA07466763FEB2C7F30741C7F3072295
:10264000304668F019FAE06088B1390A380CC7B230
:102650005FFA81F830463946424668F043FA08B1DD
:102660006061206494F8230060B1002507E02046F3
:1026700000210025FFF7E1FEC4E90F55012528469A
:10268000BDE8F0816FF07F40854218BF002D24D156
:102690002046FFF7ACFD6069B0F1807F21D920466C
:1026A000212100220025FFF701FF94F8200070B3DC
:1026B00020460121FFF7CFFE94F82600012844D1DF
:1026C00030463946424668F017FAB0B32046012139
:1026D00000F082FF39E02F46ACE7002584F8265051
:1026E000CDE794F82000C8B12046012100F0B9F8E8
:1026F00094F82600012819D130463946424668F040
:10270000FBF938B32046012100F066FFADE7204613
:10271000002184F82650FFF79EFE16E00025204693
:10272000002184F8265000F09CF8A8E720460021FC
:102730000022002500F02EFFA1E720460021002204
:10274000002500F027FF84F826502046072100F0DE
:1027500093F88AE7204600210022002500F01AFFA6
:10276000BCE700BF00879303E8B1F0B59204DDE950
:102770000547DDE907650068DDF824C042EA4151FC
:10278000826A41EA43316FF3150241EAC42141EA0A
:10279000072141EA861141EAC50141EA0C011143D2
:1027A0008162BDE8F0407047B0B5D0B10446006822
:1027B000016811F0010503D1016841F001010160D8
:1027C000816A012262F31501002281622046AB2159
:1027D00000F018F825B921680A6822F001020A60A1
:1027E000B0BD0120B0BD38B10068026C22F0FF021C
:1027F00011440164002070470120704708B100684F
:10280000C1607047E8B1BCB505460C460068E96A8E
:10281000C26161B100208847302001900198411EBB
:1028200000280191FAD1E96A01208847286884616B
:102830000169C907FCD0416941F0010141610020F3
:10284000BCBD0120704750B100680029026842F009
:10285000807308BF22F0807303600020704701205E
:102860007047B0B50C4605465CF0FEFB2846214695
:10287000BDE8B040FFF743BD30B10068826861F346
:1028800002028260002070470120704740B100685A
:1028900001F01F01426D22F4F84242EA81214165B4
:1028A000704700207047000040F08051D64A9142A6
:1028B0001CBF012070474FF0FF317B4AC164C0F854
:1028C000CC1090424FF0000008BFC2F84C11704786
:1028D0001CB50DF106020446FFF7EAF980B1CA49BA
:1028E0008C420FD0BDF80610012202FA01F1C26D30
:1028F000114213D0026D0A4201D0C1650EE0FEE71D
:1029000001201CBDBDF80610012202FA01F1C26CC3
:10291000114203D0C2690A4202D0C16400201CBD2A
:10292000FEE700BFE8B1BCB589B20DF10602FFF7C2
:10293000BFF9A8B10446BDF80600012101FA00F56F
:10294000A0692843A061606A28436062A06D2843A3
:10295000A0650120FFF7BAFBE564E565E563A564C2
:10296000BCBDFEE72DE9F041154F0C46054607F1C9
:102970001C06FDF71BFE13498046F8682944B1FA8E
:1029800081F106EBC00049098180F86806EBC000C0
:10299000C48000F0E5FAF96846F831002146F8688D
:1029A000013001289ABFF86801300020F8602846FD
:1029B0005CF07AFC4046BDE8F041FDF7FBBD00BF8E
:1029C000D8114E200000F8BF7CB50DF106020C4670
:1029D0000546FFF76DF9A8B18B4EB54214D0BDF88E
:1029E0000610012202FA01F1C26D11420AD0026DF5
:1029F0000A4208D0C16528462146FFF7B3FFC04808
:102A0000854226D07CBDFEE7BDF80610012202FA01
:102A100001F1C26C1142F5D0C2690A4218D0C164FA
:102A200030462146FFF79EFF3046214600F0B4FBBA
:102A30000028E7D400F10801012203300D4B02FA0F
:102A400001F102FA00F041F0004119600A490DE07D
:102A5000FEE7214600F0B0FA0028D3D4C0B24FF40C
:102A6000807101FA00F0024940F0004008607CBD2E
:102A700024000440240004500CA0045070B5044607
:102A80009F48844205D06048844201D13C2501E042
:102A9000FEE75E250026B54208BF70BDB1B22046F4
:102AA000FFF792FF0136F6E7000008407CB5A0B1C1
:102AB000054648680E46112810D94D49884212D063
:102AC0004C4988420FD04C4988421CBF4B49884230
:102AD00009D04B49884206D0FEE7FEE70121434A70
:102AE00081401142E9D0B068032821D231880DF12C
:102AF00006022846FFF7DCF8002871D0044670680B
:102B0000112816D0012829D1BDF80600012101FAAB
:102B100000F5606A28436062A06D2843A06501202B
:102B2000FFF7D4FAE564E565E563A56465617CBDFE
:102B3000FEE7BDF80600012101FA00F5606A2843AE
:102B40006062A06D2843A0650120FFF7BFFAE5642D
:102B5000E565E5602563A56365647CBDBDF8061089
:102B6000012202FA01F678B12649A66108444FEA2B
:102B7000305004282ED8DFE800F003161A1F260074
:102B8000E06A3043E0621AE0606A30436062A06D40
:102B90003043A0650120FFF799FAE664E665E66335
:102BA000A664A6617CBDE06A3043E0620EE0E06AA4
:102BB0003043E062A6630AE0206B30432063A663E3
:102BC00004F1480005E0206B30432063E66304F124
:102BD000440006600C48854203D0606D3043606558
:102BE0007CBD206A304320627CBD00BF0300020030
:102BF00000001110000021100000311000004110F1
:102C0000000051100000EFEF00000850F0B1E0B5F7
:102C10000DF10602FFF74CF818B3BDF806100122BB
:102C200002FA01F14268114211D1826A0A420ED1C0
:102C3000426B0A4091420AD1026C0A40914206D18D
:102C400000690840B0FA80F0400906E0FEE702693A
:102C50000A420CBF006840680840002818BF0120E5
:102C60008CBD00208CBD0000254B98421DD0022A4F
:102C70001DD15030BAB10B68013A40F84C3C4B685A
:102C800040F8403CCB6840F8283C0B6940F8183CC1
:102C90004B6940F80C3C8B6903608B681C3140F831
:102CA000343C8030E6E700207047032AE1D0012061
:102CB000704700BF124B98421DD0022A1DD15030E0
:102CC000BAB150F84C3C013A0B6050F8403C4B60B4
:102CD00050F8343C8B6050F8283CCB6050F81C3CDA
:102CE0000B6150F8103C4B61036880308B611C31E4
:102CF000E6E700207047032AE1D00120704700BFBB
:102D0000000008401CB518B11446022A01D3FEE7A2
:102D1000FEE70DF10602FEF7CBFFD8B1BDF80610B5
:102D2000012202FA01F1426811420FD1826A0A427D
:102D30000CD1426B0A40914208D1026C0A40914288
:102D400004D144B18269114381611CBD0CB1816021
:102D50001CBDC1601CBD4269114341611CBD000026
:102D600070B5002875D004460068724DA84203D1A2
:102D70001B2000F0CFFE206805F58051884203D16A
:102D80001C2000F0C7FE206805F18051884203D165
:102D90001D2000F0BFFE206805F11021884203D1FC
:102DA0001E2000F0B7FE20686A4EB04203D11F20FB
:102DB00000F0B0FE206805F59831884203D1462026
:102DC00000F0A8FE206805F5A031884203D1472015
:102DD00000F0A0FE2068A84216D05749884213D0C0
:102DE0005649884210D0564988420DD055498842EC
:102DF0000AD05549884207D05449884204D05449E2
:102E0000884218BFB04226D1A16819B1102918BF55
:102E100060291DD194F83610251D31B9002084F8A1
:102E20003400204600F01EF82068022184F8361095
:102E30002946FEF751FF20686FF00101016101682A
:102E400041F004010160012084F83600002070BDCB
:102E5000FEE7012070BD40498842D5D03F498842F5
:102E6000D2D0FEE7704700000068324988421DD08A
:102E7000314988421AD03149884217D030498842B6
:102E800014D03049884211D02F4988420ED02F49A2
:102E900088420BD02E49884208D02E49884205D05E
:102EA0002D49884202D02D49884209D1C16841F09C
:102EB0000101C160016841F001010160002070471B
:102EC000FEE700BF00681B4988421DD01A498842AE
:102ED0001AD01A49884217D01949884214D0194982
:102EE000884211D0184988420ED0184988420BD028
:102EF0001749884208D01749884205D016498842A8
:102F000002D01649884213D1C16841F2111221F052
:102F10000101C160016A114208D1016A40F24442D4
:102F2000114203D1016821F00101016000207047C6
:102F3000FEE700BF000001400010014000200140FA
:102F400000300140003002400040024000000150CB
:102F5000001001500020015000300150004001508D
:102F60000F480178FF2905D1E8490122096822EAC2
:102F7000010101700B48006841B10B494A68002A01
:102F80000CBF0A210988B0FBF1F07047C10B4FF468
:102F90007A726FF3DF305043514301EBD03070470A
:102FA000480E4E204400045064124E20014951F84E
:102FB0002000704730B0045010B5094B0022122A8F
:102FC0000AD053F83240844204D103EBC204A488EF
:102FD0008C4202D00132F2E7FF2250B210BD00BF96
:102FE00058BE06000248016801310160704700BF09
:102FF000B4394E2080B500F041FD00F03DFD00F0F9
:1030000039FE032000F09EFB002000F004F80028A9
:1030100018BF012080BD002070470000FD280FD898
:1030200071B16AB1B0B50F4C064B256805B9236084
:103030001B68054CA342BDE8B04008BF00F006B8CD
:1030400001207047003E4E207878454580B51346F4
:103050000A4601460348006801F0B6FD002818BF83
:10306000012080BD38184E202DE9F041044610386B
:103070008846414EC1B23546112925D84FF480719A
:103080001C2C01FA00F747F00040286205D3A4F198
:103090001C000021C0B2FDF7BFF82046172C88BFE6
:1030A0000838C1B2172C88BF04363268490051FA7B
:1030B00080F007213038814008FA00F0084022EA09
:1030C00001010843306002E0012000FA04F7A8691A
:1030D0003843A8610020BDE8F08100BF04480168C2
:1030E00041F0040101600168B1F1FF3FFBDC704772
:1030F0000C0004501148016821F0030101600168CF
:1031000041F0020101600020704700BF0B480168D8
:1031100021F003010160016841F00101016000201C
:10312000704700BF0548016821F003010160016894
:1031300041F0030101600020704700BF000004500F
:103140000122112816D8A9B110B5024607280A4C49
:1031500088BF083AD3B2072888BF043420685B00D0
:1031600053FA82F2072393401840D040002208709F
:10317000BDE810401046704704000450024600208D
:10318000112A07D831B10E4800EBC20350F83200C3
:103190009B880B80704700BF10B5094B0022122A94
:1031A0000AD053F83240844204D103EBC204A4880D
:1031B0008C4202D00132F2E7FF2250B210BD00BFB4
:1031C000E8BE060001281CBF0120704704480168C2
:1031D00041F00101016001688906FCD500207047BB
:1031E0002800045004490068896E884218BF70475F
:1031F00001485EF083BB00BF4C0E4E200268D84BE6
:103200009A421CBFD74B9A4210D1B1F1807F00D3B4
:10321000FEE7022380F833304368012B10D0C36AE5
:10322000B3F5000F06D1836833B1FEE7CE4B9A4267
:10323000EBD0FEE7D36803E0D36823F46063D36088
:10324000136943F00803136113691B07FCD49368E7
:1032500043F002039360936843F40073936013692F
:1032600043F0010313619161022390F832100129A8
:1032700008BF0423116919431161012180F833103B
:10328000002070470168B64A91421CBFB54A91427E
:1032900013D1022280F833200A6922F001020A6168
:1032A0008A6822F002028A608A6822F400728A60C8
:1032B000012180F8331000207047AB4A9142E8D0DA
:1032C000FEE700BF80B52DED028B10480068C007F7
:1032D00013D100F03FFD98B100EE100A9FED0E1AD9
:1032E000B8EE400A81EE008A00F024FD00EE100ADC
:1032F000B8EE400A28EE000A04E09FED050A01E05E
:103300009FED040ABDEC028B80BD00BF00A00450FD
:103310000000004700901746001B374C10B50446CC
:1033200000680168C9071CBF81685FEAC17142D1AA
:103330000168890705D5022141602046FFF752FF49
:1033400020680168490744BF81685FEA417139D448
:103350000168090744BF81685FEA017139D40168D7
:10336000C9050AD5816821F4807181604FF48071AC
:103370004160204600F0E4F82068016889050AD51C
:10338000816821F4007181604FF4807141602046B2
:1033900000F0D6F820680168490558BF10BD816863
:1033A00021F4806181604FF4807141602046BDE866
:1033B000104000F0C5B801214160204600F0D7F868
:1033C0002068B5E704214160204600F0B8F8206885
:1033D000BEE708214160204600F0C8F82068BEE73B
:1033E000F8B5D0B3044600685D4988421CBF5D490A
:1033F000884234D1616802292BD2A3684FEA732234
:10340000082A27D201290DD16269042A24D801256E
:1034100005FA02F212F0150F1ED0A2694FEAF2026D
:10342000042A18D2E26972B1B2F5005F0BD0B2F58E
:10343000804F18BFB2F5C04F05D0B2F5004F18BF8E
:10344000B2F5204F48D1A56A6FF4001635420AD074
:10345000FEE7FEE7FEE7FEE7FEE70120F8BD424992
:103460008842C7D0FEE7D4F82CC06FF400071CEAEE
:10347000070F00D0FEE794F8337057B9002084F8A6
:103480003100204600F05AF8D4E90A5C94E80B00B9
:10349000E26902271C4E0B43012984F83370B646BB
:1034A0004FF6FF7643EA0503C76843EA0C0308BFFB
:1034B00027F48F77B242154E18BF07EA0E073E4039
:1034C00043EA060369B101290DD1D4E90556E16843
:1034D0002B4333430B4306E04FF6FF75AA42B2D0AD
:1034E000FEE721690B434FF6FF718A4205D043EA9C
:1034F0000201D4E9082311430B43C360012084F87F
:1035000033000020F8BD00BF3E1159FFFEF159FF06
:1035100098B110B500214FF6FF744FF400324FF40C
:103520000013C0E90111C0E90412C0E90614C0E9A2
:103530000821C0E90A31BDE8104070477047704764
:10354000704700000068064988421CBF0549884250
:1035500001D1C069704704498842FAD0FEE700BF34
:1035600000100440001004500020045070477047C1
:1035700070B5044600680026056985604DB1E8070E
:1035800004D0A26812B1F1B22046904701366D080E
:10359000F4E770BDA8B110B500680E4C836D91B111
:1035A000911E98BF11460A064FF03A0201F06F01D2
:1035B00058BF2A2242EA013104F110021A40114395
:1035C00005E00120704703EA040141F48031816580
:1035D000002010BDC00FFEFFF0B585B0044649B312
:1035E000E06890F8FF1119B394F8201001B390F936
:1035F000033290F9022290F9011290F9045290F9E5
:10360000056290F9067290F907028DE8E0000390D8
:103610002046FEF7D1FDE06890F8FF112046FFF745
:10362000E2F894F8252020460121FFF7B3FF17E0C8
:10363000012516E0204600210022FFF7ABFF61695B
:1036400094F82000B1F1807F05D968B120460121AE
:10365000FEF79DFE04E068B120460121FEF74FFE13
:103660000025284605B0F0BD204600210025FEF7C4
:103670008EFEF6E7204600210025FEF740FEF0E72B
:10368000B0F1FF3F10DD00F01F010122C0B202FACD
:1036900001F1064A42EAD00020F003000160BFF3C6
:1036A0004F8FBFF36F8F7047FEE700BF80E100E0F0
:1036B000B0F1FF3F0CDD00F01F010122C0B202FAA1
:1036C00001F1044A42EAD00020F003000160704793
:1036D000FEE700BF00E100E0B0F1FF3F0CDD00F0CD
:1036E0001F010122C0B202FA01F1044A42EAD000ED
:1036F00020F0030001607047FEE700BF00E200E039
:10370000102A00D3FEE7102900D3FEE770B5154B51
:103710004FF0FF351B68C3F302231C1F83F0070320
:1037200038BF0024032B28BF032305FA04F605FA4B
:1037300003F3B2439943A1401143BDE8704002F046
:10374000E9BB00BFC11E05290AD206494FF6FF0397
:103750000A681A4060F30A22034810430860704761
:10376000FEE700BF0CED00E00000FA0580B500F0B8
:103770000BF800681049884218BF80BD0148BDE8B9
:103780008040004701A04F000048704700DF4F20F5
:1037900080B5FFF7F9FF0168074A91421CBF00207E
:1037A00080BD00F108024068C10810460022BDE853
:1037B000804000F003B800BF484354502DE9F04367
:1037C0002A4B002516464FF0010C4FF00008002A46
:1037D000C3F880509E46164B18BF01269946A94251
:1037E0001BD00CFA05F707EA0204B4FA84F4640962
:1037F000344210D150F835404B4648EA070873462A
:1038000004EA09044EF8254000EBC504CEF88470A4
:103810006468CEF888400135E1E70020002ACEF840
:103820008400404608BF4246CEF88020BDE8F083C1
:10383000FCFF0F0070B5034600200C4C0DE0D4F8DF
:103840008050C540ED070CD054F8205003EBC00663
:1038500043F8305001302D6875601F2898BF8842AA
:10386000EDD3D4F88010116070BD00BF004000504F
:1038700010B50A4B084C002A03EB401308BF04EBB9
:1038800040130020102805D033F810208A4201D0C0
:103890000130F7E710BD00BF641107008400070086
:1038A0000421B34A002808BF082104BF0822C5F23A
:1038B00000021368002841EA03011160034904BFB4
:1038C00043F20001C5F20001084670470030004095
:1038D0002DE9F04168B3044618461E4615460F46CA
:1038E000FFF7DEFF8046204639463246FFF7C0FF2D
:1038F0000F281EDC074620462946324600F032F8E3
:10390000432C1ADBCEB90821102047F2180301EA34
:10391000550100EA55002943084307F0070140EA32
:1039200001300F4951F824209A43104341F82400F4
:1039300013E04FF0FF30BDE8F08107F00F0005F015
:103940003001084408EB840151F8042C22F03F02B6
:10395000104440F0400041F8040C0020BDE8F08124
:10396000A8AF045010B5002A0F4B6FF0680208BFD3
:10397000043308BF6FF03C021044052813D800F14F
:103980000802012404FA02F204FA00F0CC068906C7
:1039900000EAE47440EA020048BF1443196821EACF
:1039A00000002043186010BDCCB004500649884286
:1039B00004D00649884206D1042000E002200449D0
:1039C0000A681043086070470040014000B0005092
:1039D00004A00450B0B5027D012303FA02F311B331
:1039E000D0E90041032A656845EA030543EA034339
:1039F00045F480356560A56843EA0503A360C37C90
:103A0000847D44EA0343847C43EAC4430B6008D8C2
:103A1000028A32B1CB689BB2CB60CB6843EA0242E8
:103A2000CA60022107E0026843EA0341936823EA7F
:103A300001019160012101760020B0BD017D006887
:103A4000012202FA01F1426811434160704710B54A
:103A500018B1017D082901D3FEE7FEE70268D0E92D
:103A6000023402EB011101224B61027601F11002D6
:103A7000426000208C6110BD7047000080B5FFF7E8
:103A80002DFB83480122016862F3010102220160DB
:103A900007490A800322016841F0100101600120FA
:103AA000012100F0F7F8BDE88040FCF7B3BB00BF90
:103AB000F4014E200122C8B1C1B170B591E83800BF
:103AC000C968FF264FF05022C3F884609A6701222C
:103AD0001E62090580F822200022C0E9003280F829
:103AE0002040C0E904515E64BDE870401046704754
:103AF00008B1FEF7BBBCFF20704750B1006840B171
:103B000002F00F0261F30412816D21F01F011144D4
:103B100081657047E0B5694601AA01F0D7FC009ABB
:103B2000B0F1804F124908BF002A15D0B0F1804F84
:103B300008BF012A0AD0B0F1A04F08BF002A07D061
:103B4000B0F1A04F08BF012A05D0FEE7043103E021
:103B500001F1805100E00749EFF31080012282F368
:103B60001088019A0B681A430A6080F310888CBD94
:103B7000080000400C00005010B50446002808BFA3
:103B80000224204600F030F81649012C06D0022C01
:103B900003D101F180513F2201E0FEE7FF220968D5
:103BA000114008BF0121B0FBF1F010BDB0B50546D2
:103BB00000280C4608BF02252846FFF7DDFF09490B
:103BC000012D03D0022D0BD101F180510822002CD0
:103BD00008BF0C220968D14001F00701C840B0BD00
:103BE000FEE700BF14000040012807D10C48006820
:103BF00000F00300032808BF00F016B80048704723
:103C0000006CDC020649102809689ABF054A52F880
:103C1000202001228240114021FA00F0C0B27047FA
:103C200010000040B8B50600012000F007B80220DF
:103C300000F004B8032000F001B800000B4901288F
:103C400006D0032803D002280ED1043100E0083149
:103C5000086848B1C0F38301054A00F00100404202
:103C600001FB022108407047002070471C00004003
:103C700000366E0100F048B80121054A002808BF4F
:103C8000032112688140114021FA00F0C0B2704750
:103C900010000050B0B50023002820EAE074C8BF2F
:103CA0003F2300290AD480F0010503F5E0630D43AA
:103CB0004FEA012108BF4FF480710C43B2F1FF3F7E
:103CC000C4BF03F5E04344EA0234A3B179490128B3
:103CD00003D10A6842F040020A600A68012822EA19
:103CE000030242EA04020A6005D0002803D40868EF
:103CF00020F0400008600220FFF73EFF0149086005
:103D0000B0BD00BF30004E207047000080B50220DB
:103D1000FFF732FF0649B0FBF1F066490A686FF31E
:103D2000184242EA004040F40000086080BD00BF35
:103D300000127A00C820704705480078704700BF1D
:103D400018B103490870002070474FF0FF307047EA
:103D5000F0004E2004480068704700BF014602484A
:103D60000160042000F0E8B8E8174E202DE9F84F74
:103D700005464D480068C0071CBF4FF0FF30BDE846
:103D8000F88F00200C46FFF777FF01281CBF6FF06B
:103D90000100BDE8F88F45480068C00644BF6FF0D9
:103DA0000300BDE8F88FDFF808A19AF8020018B107
:103DB0006FF00200BDE8F88F4FF0010B3D488AF824
:103DC00002B00068C0F30236C0F3022800F03F09D9
:103DD000072E06D04FF0FF304FF0FF310722FFF7DC
:103DE00059FF354F4FF6FF7138686BF3DC40386090
:103DF000386840F000503860386820F4803038600F
:103E000038683860386888433860386828433860D4
:103E1000386840F4003038600120FEF74AF97868CD
:103E2000B0F1FF3FFBDC7868072E20F0004504D09E
:103E3000484641463246FFF72DFFDAF808302A4659
:103E400003B3DAF80400191AFB2904D3834288BFAC
:103E5000B5EB00010AD8411B04D9C92928BFB0EB32
:103E6000030106D8C0EB0010284409E0FA2902D863
:103E7000F1E7C829F6D900EB40000D2105FB010050
:103E800008300209501B2946CAF8042000900BA0F4
:103E9000FDF75CFFDAF80400CAF808502060002043
:103EA0008AF80200BDE8F88F00A004503C000450DE
:103EB000DC134E2014000050140109504C5043797B
:103EC000636C6573206375723D2564202C206176D8
:103ED000652025642C206375725F6261636B757069
:103EE0003D25642064656C74612025640A0000002F
:103EF0006FF00401084200D0FEE70D4904280A686B
:103F000022F0040308BF42F004030B60704700BFB7
:103F1000411E0020B0EB116F1CBF01207047044A06
:103F2000E023516003490B700721906011607047D6
:103F300010E000E023ED00E0014A42F82010704755
:103F400030B004507047000010B50168044608689E
:103F500020F490700860886820F00100886088680C
:103F6000400605D400200F22A4F85A000A6217E088
:103F7000886820F040008860E06E40B10D49C16360
:103F8000FDF7E5FE98B1E06EC16B88470FE00020B9
:103F90000F22A4F85A000A628A6942F008028A6174
:103FA0006065202084F872002046FFF7CBFF0020D8
:103FB00010BD00BF015D00007047000010B5044651
:103FC0000068016821F0C0010160816809060ED512
:103FD000816821F080018160A06E40B10A49C1630F
:103FE000FDF7B5FE68B1A06EC16B884709E00020FF
:103FF000A4F852006066202084F871002046FFF784
:10400000DBFF002010BD00BF4F5D00002DE9F04137
:1040100005466820002B1646B3FA83F288461F46F1
:104020004FF0800108BF6C202C5852090020130368
:104030005201C4E90270C4E9041004F118010DC171
:104040002046FDF7ABFE00B1FEE72046FDF750FF2E
:1040500000B1FEE7B2B2284641461FB100F024F994
:1040600020B1FEE700F0A6F800B1FEE70020BDE8B1
:10407000F081000000B17047024803A140F206320F
:104080005DF056B84D25070048414C5F55415254EC
:104090005F4572726F7243616C6C6261636B0000AA
:1040A00000287BD0B0B504460068B0F1402F03D1A2
:1040B0000720FFF72FFD2068394DA84203D10820C3
:1040C000FFF728FD206805F51031884203D109204B
:1040D000FFF720FD2068B0F1502F03D10A20FFF731
:1040E00019FD206805F11021884203D10B20FFF74C
:1040F00011FD20682B49884204BF0C20FFF70AFD00
:1041000094F8710028B9002084F87000204600F06F
:104110004FF8242084F871002068016821F0010123
:104120000160204601F02CFE606A10B1204601F0CB
:104130001DFDD4E900011C4D426822F49042A942C1
:104140004260826822F02A028260026842F0010224
:104150000260026822F4804388BF42F480434FF03B
:104160000602036088BF0222C36AA94223F00D033E
:1041700042EA0302C2620D4A84BF4DF60002C0F259
:10418000B852B2FBF1F1C16000202021606784F8D1
:10419000711084F8700084F87210B0BD012070476F
:1041A0000050004000700050C0C62D00006CDC02C2
:1041B00070470000F8B5054690F87200202807D136
:1041C00013460A4631B12BB195F87000012803D18E
:1041D000022429E0012427E000240120144EDFF806
:1041E00038C1124F6C6785F870002220A5F858304E
:1041F0006A6585F872002968E86E00F1300E243196
:104200008EE8C010C463FDF71BFF2868016841F405
:1042100080710160816841F00101816085F8704022
:10422000816841F0400181602046F8BDFB5C0000E0
:10423000C75C0000AFF30080F8B5044628B9124807
:1042400012A14FF4F0725CF073FFFCF7AFF9E16F6D
:10425000D4F86861D4F8C8504968C6F38F22571A59
:10426000C4F8C870FCF7A6F9791B4FEA962038BF4E
:1042700011FA80F139B1090204F590700331BDE8FB
:10428000F8405DF0F5BFF8BD4D25070048414C5F93
:10429000554152545F527848616C6643706C744368
:1042A000616C6C6261636B00F8B5054690F8710053
:1042B000202806D139B113462AB195F8700001289B
:1042C00003D1022425E0012423E00024A5F8523084
:1042D0000120134EDFF840C0104F6C6785F8700066
:1042E000A5F85030E964A86E2A6800F1300E283233
:1042F0008EE8C0102126C46385F87160FDF7A0FE2A
:1043000028684021016285F87040816841F0800191
:1043100081602046F8BD00BF715C0000495D00006F
:10432000215D00007047704770B578B104460068A1
:1043300008B921482060214988421CBF1E49884293
:104340000BD16168B1F1807F02D3FEE7012070BD1F
:10435000A268B2F1807F04D3FEE719498842F0D009
:10436000FEE743699B0712D5342100254BF67F36C3
:10437000C1604169B54208D811F0020105D00120A1
:10438000FDF7E0FE20680135F3E7D4E90112016092
:10439000762100254BF67F364260C16041690020DE
:1043A000B542D4D811F00201D1D10120FDF7CAFEE7
:1043B00020680135F2E700BF00B000500040014026
:1043C00000C0045070B504460068762100254BF605
:1043D0007F36C1604069B54208D810F0020005D1AF
:1043E0000120FDF7AFFE20680135F3E7002070BD26
:1043F00080B55EF0FFFA0348FFF7BAF8BDE88040E9
:104400005EF00EBB88014E2000207047B0B50C4D09
:10441000044629465AF0CCFE30B904F12C0005F1CF
:104420002C015AF0C5FE08B10020B0BD04F15800BF
:1044300005F158015AF0BCFEB0FA80F04009B0BD59
:1044400054C806002DE9F04FBFB033AC0FC4DDE90E
:104450004868102E0BD233AD284600F096FE00209F
:10446000102810D0295C08F800100130F8E700206F
:1044700033A9102804BF3FB0BDE8F08F0A5C08F8EC
:1044800000200130F5E7DFF82807711E37AB2291D5
:1044900000EB01100021102903D0425C5A54013175
:1044A000F9E79DF8EB009DF8EA509DF8E9309DF89A
:1044B000E5209DF8E3C09DF8E0409DF8DCE09DF824
:1044C000DD109DF8DEB09DF8DFA04FF0FF37329091
:1044D0009DF8E80028909DF8E7002F909DF8E600F1
:1044E00027909DF8E4002E909DF8E20026909DF81C
:1044F000E100309031914FFA8EF1B1F1FF3F68DD6C
:104500001846329B6E00D9B25B0046EAD1114600D4
:104510002D91E9B2650046EAD1112C91C1B22898DB
:10452000460046EAD1112B91C1B22F98460046EAC7
:10453000D1112A91C1B22798460046EAD1115600FE
:104540002991C1B246EAD110D1B225902E984600E9
:1045500046EAD1112491C1B238464FEA4C0747EAE6
:10456000D11123915FFA8CF1269A570047EAD116B0
:10457000D1B2309A570047EAD119D1B22246074644
:1045800045EAD114D0B24FEA4A0152465D46013F96
:1045900041EAD01AD0B2319A4FEA4B01329341EA44
:1045A000D01BE8B22BAD510041EAD011D0B2C00906
:1045B00040EA4E0E29CD28902A982F9029982790CE
:1045C000DDE924022E90DDF88CC02696CDE93091ED
:1045D00091E732982B952A9329468DF8EA50554653
:1045E0008DF8E930A1468DF8E0408DF8DCE08DF8DB
:1045F000E5208DF8E3C05946289E279BDDF898A05A
:10460000AB468DF8DF508DF8EB002F980C468DF8F7
:10461000DE108DF8E8608DF8E6308DF8E2A08DF8B8
:10462000E7002E988DF8E4003098CDF8A4E0319999
:104630002F9D8DF8E1008DF8DD1000212D91802156
:104640002C91DDF8B8E02B98002F00F0E780289738
:104650002D992C9F2B9018F801100F4267D02F95A1
:10466000CDF8B8E098F8001010461A46334698F88E
:10467000016098F803E098F80250299F794088F883
:104680000010319971401E46134602468EEA0B0017
:10469000DDF8B8E088F8030098F8040088F8011005
:1046A00085EA04012F9D88F80210309980EA0900FC
:1046B00088F8040098F8050048402A9988F8050011
:1046C00098F8060080EA0A0088F8060098F80700C3
:1046D00080EA0C0088F8070098F8080080EA0E00CD
:1046E00088F8080098F80900504088F8090098F800
:1046F0000A00584088F80A0098F80B00684088F8CB
:104700000B0098F80C00704088F80C0098F80D0029
:1047100048402B9988F80D0098F80E0048403299CF
:1047200088F80E0098F80F00484088F80F002C9980
:104730002D9801294FEA510108BF01302D9008BF83
:1047400080212C91E0B2319FF90141EA5000E10152
:104750002F905FFA8BF041EA50004FEACB112E9078
:104760005FFA89F041EA50004FEAC9112790309C66
:10477000E0B241EA50095FFA8AF0E10141EA5000F3
:104780004FEACA1130905FFA8CF041EA500A5FFAA2
:104790008EF04FEACC1141EA50004FEACE1126903C
:1047A000D0B2D20141EA500ED8B22A9CDB012B993B
:1047B00042EA500CEAB2ED01304643EA5203F2B24B
:1047C0004FEAC41B45EA5206E2B2329CC5013846A4
:1047D00045EA5205CAB2C901E7B24BEA520241EAC0
:1047E00057013291C1B2299C490841EAC410E1B293
:1047F00031904808289F29902A9510461D46634607
:104800007246D446DDF898E0DDF8C0A0CDF8C0903F
:10481000DDF89C90DDE92EB4013715E7E548229AD2
:10482000E5A13BAB002537AF00EB0210895C00220D
:10483000102D08D018F8056008F805207E55465D53
:104840005E550135F4E7481C9DF8EB109DF8E6B085
:104850009DF8EF709DF8F3909DF8F4A09DF8F5E0B9
:104860009DF8F6C09DF8F7609DF8F8509DF8F93076
:104870009DF8FA2031919DF8EA1024919DF8E910F5
:104880001D919DF8E81023919DF8E71022919DF865
:10489000E51030919DF8E4102F919DF8E3102E91D2
:1048A0009DF8E2102D919DF8E1102C919DF8E010FB
:1048B0002B919DF8DC1028919DF8DD1026919DF834
:1048C000DE102A919DF8DF1029919DF8EC102791B8
:1048D0009DF8ED1021919DF8EE1025919DF8F010B6
:1048E00020919DF8F1101F919DF8F2101E919DF8F6
:1048F000FB103291002800F0558116A9013881E89B
:104900006850CDF86CA0CDE914721C905B46DDE9CF
:1049100022653298DDF8A0E0DDF898C0249F1D9C48
:10492000C0075BD098F8000098F8011098F80220B2
:1049300098F803A080EA0E0088F8000081EA0C00D5
:104940002B9988F801002A98504088F8020029988D
:1049500080EA0A0088F8030098F8040048402C997F
:1049600088F8040098F8050048402D9988F805005B
:1049700098F8060048402E9988F8060098F8070035
:1049800048402F9988F8070098F808004840309967
:1049900088F8080098F809004840319988F809001B
:1049A00098F80A00584088F80A0098F80B00704000
:1049B00088F80B0098F80C00684088F80C0098F80C
:1049C0000D00604088F80D0098F80E00784088F8D7
:1049D0000E0098F80F00484088F80F00DDF8C4B0CA
:1049E00079005FFA8BF041EAD01061001390F8B2C1
:1049F00041EAD01069001290E0B241EAD010710093
:104A00001190E8B241EAD01059001090F0B241EA9A
:104A1000D0100F90D8B2309A510041EAD0100E90C9
:104A2000D0B22F9A510041EAD0100D90D0B22E9AF8
:104A3000510041EAD0100C90D0B22D9A510041EAB9
:104A4000D0100B90D0B22C9A510041EAD0100A90AD
:104A5000D0B22B9A510041EAD0100990D0B2299AD5
:104A6000510041EAD0100890D0B22A9A510041EA90
:104A7000D0104FEA4C010790D0B241EAD0104FEA73
:104A80004E0106905FFA8CF041EAD0102890219BED
:104A90002799D8B2400840EAC1100590259AD0B2B3
:104AA000400840EAC3100490DDF850C05FFA8CF073
:104AB000400840EAC2100390209AD0B2400840EA71
:104AC000CC1014901F9BD8B2400840EAC21002904C
:104AD0001E9AD0B2400840EAC31001905FFA89F0F4
:104AE000400840EAC21000901B9A1A9B169CD0B254
:104AF000400840EAC91AD8B2DDF85490400840EAAC
:104B0000C21E199AD0B2400840EAC31C189BD8B202
:104B1000400840EAC216179AD0B2400840EAC315CE
:104B2000E0B2400840EAC2135FFA89F0400840EA68
:104B3000C412329C58465FFA84FB04464FEA5B0776
:104B4000640047EAC910CFB23290780831942790B8
:104B50001398249012981D901198239010982290E9
:104B6000DDE90E0B30900D982F900C982E900B983D
:104B70002D900A982C9009982B90089829900798C6
:104B80002A900698269005982190049825901498CC
:104B9000039F209002981F9001981E90DDF80090CE
:104BA0001C98A7E640463FB0BDE8F04F00F0EDBAD4
:104BB0007DC006007DC1060077706860584D473F94
:104BC000312A231C150E0700B0B514460A46198871
:104BD0000546104622F0DCFB38B141888288204629
:104BE0002944FBF71BFE0020B0BD0120B0BDB0B5CD
:104BF0000023102B08BFB0BDC45CCD5C2C44D45442
:104C00000133F6E7F0B589B0144600228DF8022092
:104C1000102A03D0835CA3540132F9E70DF1130588
:104C20000846294600F006FA08270DF1020637B1BA
:104C300020462946324600F051F8013FF7E70DF1D2
:104C400003050DF113000DF10202294600F02CFAC4
:104C500020462946224600F02FFB09B0F0BD2DE981
:104C6000F0418EB0144600220DF116038DF8052098
:104C7000102A05D0855CA554855C9D540132F7E768
:104C80000DF127050846294600F0D4F900260DF15C
:104C900016080DF10507022E02D0082E05D10BE0F3
:104CA00020464146224600F007FB204629463A4668
:104CB00000F014F80136EEE70DF106050DF12700BE
:104CC0000DF10502294600F0EFF92046294622465B
:104CD00000F0F2FA0EB0BDE8F08100002DE9F047D7
:104CE00088B0EA460446894608469046514600F098
:104CF000DBF920465146224600F0DEFA39493A4AAD
:104D000000200F280ED8235CCB5C235423180430DA
:104D10005E78DD789F78965D4D5D5E70D65DDD7066
:104D20009E70EEE748465146424600F0BDF900202D
:104D3000102818D2215C1AF800200AEB00067778B8
:104D4000B578F67811442154211804304A788B78CC
:104D500091F803C07A404A7085EA03028A7006EB34
:104D60000C02CA70E4E74FF0000C1AA104AABCF1CF
:104D7000030F1ED000230F2B09D8E618E55C7778C7
:104D800007EB4500E054781902337070F3E7002315
:104D9000102B03D0E05CD0540133F9E70023102B33
:104DA00004D0C85C105CE0540133F8E70CF1010C4E
:104DB000DDE700200F2884BF08B0BDE8F087221887
:104DC000215C537803EB410519445170255402309E
:104DD000F0E700BF080B0C0F020106050A090E0DD3
:104DE000000704037DBF06007DC2060043F20631C2
:104DF0000840401A18BF0120704700B952B900EAB4
:104E000001024CF6F843084343F20E311A400840C1
:104E100040EA02010846704710B500220023102B1B
:104E200008BF10BD845CCC54541C0133A21F18BFB2
:104E30002246F4E720F07F0110200AB2002A03D4B2
:104E400010B101384900F8E7C0B27047C1F3C2029F
:104E500001F00701805CC84000F0010070470000CD
:104E60002DE9FF410646324814460D4690F8CA0027
:104E7000C0070DD016480DF10F024FF480313346B4
:104E8000CDE9005407683220B8479DF80F00E8B11B
:104E9000DFF8A4800027D8F8400010B1FBF7FCFC35
:104EA00000E000202070B781B760776037600E2F78
:104EB0000CD0E819F72809D82178884206D2D8F80A
:104EC00040002844C05DF0550137F0E7BDE8FF81A0
:104ED0001C024E200A4890F85000704708491022E2
:104EE0004031FBF79BBC00BF054910222031FBF786
:104EF00095BC00BF024910223031FBF78FBC00BFC8
:104F0000542B4E20E0B50A4890F8CA0080070AD515
:104F100008480DF107024FF400310368322098472A
:104F20009DF8071009B10448807FC0B28CBD00BF56
:104F300040214E2028024E20B82D4E202DE9F84366
:104F40001D460C9B032B84BF0020BDE8F88314464C
:104F50000246DDE90A60DDE90889DFE803F0020ABC
:104F6000122B0978B9B3022937D001293BD012207E
:104F70003CE0318832B906293CBF1E20BDE8F883E9
:104F800000E0318821F00101318022F069F92849DF
:104F900040F27122484331885143B0FBF1F0206068
:104FA00000202860C8F800104FF0FF31C9F8001049
:104FB000BDE8F883087801281CBF2020BDE8F883ED
:104FC000308800210230308080B2C82888BF01219B
:104FD0004801BDE8F883C82006E022F041F92168C5
:104FE0004A1C022A15D2282030800020D8F8001050
:104FF0004A1CEED040F27122B1FBF2F1328821F06E
:1050000001019142E5D2052998BF06213180BDE812
:10501000F88340F271225143054A5043B0FBF1F04E
:105020004FF6FE710840062898BF0620DCE700BF57
:1050300040420F0010B500220023102A05D0845CE6
:105040008C54845C01326340F7E70B7410BD1CB5CF
:10505000ADF80410009000206946062808BF1CBD6A
:105060000B5C14181354A3710130F6E7B0B5044675
:105070000025102D08BFB0BDFBF7BEFB6055013504
:10508000F7E700F01E0100F4706200F4704006398A
:1050900018BF0121B2F5407F18BF0321B0F5405F72
:1050A00018BF052108467047F0B585B0144605467F
:1050B0000A4600212078102907D0102888BF002038
:1050C0002B5C013053540131F5E7207890B100EBAF
:1050D0000010104B002101AE1230102906D04718E5
:1050E000FFB2DF5DDF5D77540131F6E701A91046BD
:1050F000FFF77DFD0020112806D0295CCA0042EA96
:10510000511129540130F6E720780130207005B0A4
:10511000F0BD00BF7DBF06000278173A0A704278E2
:1051200082F0E5024A708278213A8A70C27882F071
:10513000C102CA7002794D3A0A71427982F0A7021F
:105140004A7182796B3A8A71C27982F08302CA719C
:10515000027A82F0E9020A72427A1B3A4A72827A31
:1051600082F0DF028A72C27A3F3ACA72027B82F010
:10517000B3020A73427B593A4A73827B82F09502EA
:105180008A73C07B7D38C873704784B0002269463B
:10519000102A03D0835C8B540132F9E70F22531C91
:1051A00004BF04B070478B5C013A00F8013BF6E79E
:1051B0000288052922F0E103038006D003290BD1E0
:1051C0004FF440714FF21E0303E04FF4405140F69C
:1051D0001E731A40114301807047F0B501F00205BB
:1051E0000124860752B284EA55044FEA440448BFBA
:1051F000022411F0040104F1040608BF34464707F5
:1052000048BF3446002D04F5807608BF3446C705F4
:1052100048BF3446002A58BF3446002944F400767B
:1052200008BF3446870548BF3446002A58BF344675
:1052300013F0010344F4805208BF1446002D08BF48
:105240001446C50448BF1446002B44F4005208BF5E
:105250001446002908BF1446800448BF1446A0B273
:10526000F0BD10B500F018024405134661F38A231F
:1052700058BF13461A46040561F3CB2258BF1A469D
:105280004B08144663F38E34430458BF1446890711
:10529000214648BF41F40041000458BF214688B26E
:1052A00010BDB0B50023102B08BFB0BDC45CCD5CF1
:1052B0006C40D4540133F6E7F0B500230F2B88BFC0
:1052C000F0BDC45CCD5CCE186C40D454C418657875
:1052D00077783D44D71804337D7094F802C0B578D0
:1052E0006544BD70E478F5786C40FC70E6E700003A
:1052F00080B55DF07FFB04486830FEF70FF8BDE82D
:1053000080405DF08DBB00BF4C0E4E2070B5144642
:10531000054608200022002809D455F82030002630
:10532000E3FB012644F8202001383246F3E720460B
:1053300063F0F8FFA86AA0622046BDE8704065F0FF
:105340004DBB00002DE9F04F9FB00DF12C0A8946AE
:105350008346502190465046FBF787FA09F120001A
:105360000AF144010822B2F1FF3F13DD5BF822305D
:105370000024002714F1080509D451F8245050F8EE
:105380002460E6FB635741F82450013CF2E70439FE
:10539000013AE8E70022122A04D05AF8220008B99C
:1053A0000132F8E7D9F82800DBF82810C2F112031F
:1053B00000261D930C1A18BF01241E945AF82610BB
:1053C000701C082E02D800290646F7D0082B0A9434
:1053D00015D8471E0A2A15D1204C0AF128020023AD
:1053E000082B0CD004EB830652F823500133B66A25
:1053F000AE42F5D003D305E05AF820100130002961
:10540000FAD0471E6E460AEB870124223046FBF78E
:1054100005FA304663F086FF07F10904371D304670
:1054200065F0DCFA112C0CD8304639462022FBF707
:10543000F5F95AF824000890304663F073FF013400
:10544000EDE7694640462422FBF7E8F9DDE909016A
:10545000C8E909011FB0BDE8F08F00BFFC2E0700AE
:1054600003480068400058BF00F0FCBCFBF7E0BFF9
:1054700014F0005010B5134804685DF0BBFAA007A3
:1054800004D51148FEF7DAFA02F0E2F9600705D513
:105490000D481C30FEF7D2FA02F0DAF9E00605D525
:1054A00009483830FEF7CAFA02F006FAA00605D518
:1054B00005485430FEF7C2FA02F0FEF9BDE810408C
:1054C0005DF0AEBA00B00150F8134E2070B503463F
:1054D0000020002900F0E581002A00F0E2815E2B27
:1054E00000F268804FF0804001240025DFE813F0CF
:1054F000D7016300660069006D00700074007700DA
:105500007B007E008300860089008C006200900092
:10551000940098009B009E00A100A600A900AC008A
:10552000B100B400B700BA00BF00C200C700CA0093
:10553000CD00D200D700DC00DF00E400E700EC0083
:10554000F1005F00F400F900FC00FF000201070118
:105550000C01110116011B01200123016200290128
:105560002C013101340139013C013F014201470165
:105570004B014E01510155015F0059015E0163016C
:1055800068016D01720177017C01810186018B0147
:10559000900195019A019F01A401A901AE01B301F7
:1055A000B801BD01C201C601CA01D301CE014FF04D
:1055B00080402AE1FEE74FF080404EE14FF0A040EE
:1055C00001E04FF08040022452E14FF0A04001E0A2
:1055D0004FF0804004244BE14FF0A04001E04FF039
:1055E0008040082444E14FF0804040E14FF080408B
:1055F0004FF4805452E14FF0A04007E04FF0A0403C
:1056000008E04FF0A04009E04FF0804020242FE157
:105610004FF0804040242BE14FF08040802427E170
:105620004FF0A04068E04FF0804004E04FF0804031
:1056300047E04FF0A0404FF4807419E14FF08040F4
:1056400044E04FF0A0400FE04FF080404FF4006482
:105650000EE14FF080405EE04FF0804060E04FF0A0
:10566000804062E04FF080404FF4004400E14FF092
:10567000804001E04FF0A0404FF48034F8E04FF05C
:10568000A04004E04FF0A04006E04FF080404FF40F
:105690000034EDE04FF080404FF48024E8E04FF01C
:1056A000A0404FF40024E3E04FF0A04001E04FF0B1
:1056B00080404FF48014DBE04FF080400EE04FF06C
:1056C000A0404FF40074D3E04FF0A0404FF480644A
:1056D000CEE04FF08040C5E04FF0A0404FF4001402
:1056E000C6E04FF08040B3E04FF08040ABE04FF0B9
:1056F00080402BE04FF080404FF08054B8E04FF0F6
:1057000080404FF48074C9E04FF080404FF0007447
:10571000C4E04FF0A0404FF48054A9E04FF0A04007
:105720004FF40054A4E04FF0A0404FF480449FE0B9
:105730004FF0804037E04FF0804400254FF080402C
:10574000ADE04FF080404CE04FF0A0404FF00064DF
:105750008EE04FF0804001E04FF0A0400125012491
:105760009DE04FF080400CE04FF080408CE04FF027
:10577000804085E04FF080404FF400648EE04FF0B1
:10578000A04002248AE04FF0804075E04FF0804056
:1057900083E04FF08040402480E04FF08040802440
:1057A0007CE04FF0A0404FF0005461E04FF08040AB
:1057B0004FF4007472E04FF080404FF480646DE06D
:1057C0004FF080404FF4804468E04FF0A0404FF02D
:1057D00080444DE04FF080404FF400445EE04FF0D5
:1057E000A0404FF0004443E04FF080404FF40034BD
:1057F00054E04FF080404FF480244FE04FF0804061
:105800004FF400244AE04FF0A0404FF080742FE0A6
:105810004FF080404FF4801440E04FF080404FF450
:1058200000143BE04FF080404FF4800436E04FF02E
:1058300080404FF4000431E04FF080404FF00044CE
:105840002CE04FF0A0404FF0806411E04FF0A040FA
:105850004FF000740CE04FF0A0404FF4000407E05C
:105860004FF0A0404FF4800402E04FF0A04010241D
:10587000002514E04FF0A04010240FE04FF0A040AE
:1058800008240BE04FF0A040042407E04FF08040D4
:105890004FF4803402E04FF0A040202401250D6039
:1058A000146070BDF0B59446002308240025002C38
:1058B00014D451F8247050F824607A19B21A4CF8B4
:1058C00024207A19A4F1010443F10005B21A73EB04
:1058D00005024FF0000538BF0125E8E76046BDE846
:1058E000F04063F01FBD000070B506460D46886AA3
:1058F0001446B16A41B170B12846314617F04EFFE7
:1059000078B12846314616E070B130462946224625
:10591000FBF76AFB12E0304629462246FBF764FBA0
:105920001FE03046294619E03046294617F036FF79
:1059300090B1304629462246FFF7B4FF00200C49BB
:10594000A062204617F02AFF28B109492046BDE889
:10595000704000F00FB870BD284631462246FFF770
:10596000A1FF0120A0622046BDE87040FBF772BB9A
:10597000A0C50600F0B5002208230024002B15D492
:1059800051F8236050F823503719A41942F100064A
:105990002C1BA5EB070772EB060440F82370A3F15C
:1059A00001034FF0000438BF0124E7E7BDE8F040F1
:1059B00063F0B8BC70B58CB004460D46886AA16A25
:1059C000B1B1B0B12846214617F0E8FEE8B101AE0A
:1059D000284621463246FFF765FF204631462422FD
:1059E000FAF71CFF00200A996162A0620CB070BD3A
:1059F00030B1204629460CB0BDE87040FBF7DABA5A
:105A00002046294617F0CAFE30B1204629460CB080
:105A1000BDE87040FFF7AEBF01AE284621463246D2
:105A2000FFF740FF204631462422FAF7F7FE012017
:105A3000D9E7000070B55CF0DDFF144D144928680B
:105A400008401CBF000A06F031FD06F03BFCFDF7E4
:105A5000C9FA5FF03BF96E6A0446FDF733FC651C3A
:105A600031460122284659F0E7FCA04209D00646FB
:105A70005FF030F9AE4204D05FF02CF9A01C59F071
:105A800045FDBDE870405CF0CBBF00BF2000045076
:105A900000FFFF0370470000F8B52D482B4C206035
:105AA000D4F8800040F03F00C4F88000D4F88000B3
:105AB00040F47000C4F8800017F0EEF959F056FA7F
:105AC000E068800312D4BFF34F8F0020BFF36F8FC5
:105AD000C4F84802BFF34F8FBFF36F8FE06840F404
:105AE0000030E060BFF34F8FBFF36F8FE068C003FB
:105AF00026D4002043F6E07CE067BFF34F8FA16F10
:105B0000C1F34E30C1F3C902910701320CEA4015CE
:105B10000E46174646EA050306F14046013FC4F823
:105B20005832F7D1431E00281846EFD1BFF34F8FEC
:105B3000E06840F48030E060BFF34F8FBFF36F8FB9
:105B400000F012F8034804490160F8BD08ED00E0D8
:105B50000000000030004E2040787D0101480078B0
:105B6000704700BFC03D4E20FAF7A6BB10B5416A92
:105B7000B1F5807F00D3FEE7CA070BD0826A6FF4CD
:105B800000331A4200D0FEE703685C6824F4003456
:105B900022435A608A070BD5C26A6FF480331A42D7
:105BA00000D0FEE703685C6824F4803422435A6026
:105BB0004A070BD5026B6FF480231A4200D0FEE730
:105BC00003685C6824F4802422435A600A070BD5DA
:105BD000426B6FF400431A4200D0FEE703685C6832
:105BE00024F4004422435A60CA060BD5826B6FF43A
:105BF00080531A4200D0FEE703689C6824F4805466
:105C000022439A608A060BD5C26B6FF400531A4286
:105C100000D0FEE703689C6824F4005422439A6095
:105C20004A0607D4090622D5816C6FF4002211427E
:105C300017D0FEE7036C6FF48012134200D0FEE72A
:105C40000268B3F5801F546824F4801444EA030406
:105C50005460E7D1436C546824F4C0042343536078
:105C6000E0E70068426822F400221143416010BD61
:105C700010B5C46A94F8710021280DD1206881689C
:105C8000090609D50021A4F85210016821F0C001CD
:105C90000160202084F8710094F87200222809D154
:105CA00020688068400605D50020A4F85A002046E8
:105CB00000F056F8606F40F0100060672046BDE8C5
:105CC0001040FEF7D7B90168C06A0968890612D486
:105CD0000021A0F85A1001680A6822F480720A6054
:105CE0008A6822F001028A608A6822F040028A6093
:105CF000202180F87210FEF79DBAC06AFEF79CBAA8
:105D0000C06A00210F22A0F85A1001680A628A694D
:105D100042F008028A61202180F87210FEF712B961
:105D20000168C06A0968890648BFFEF7FBBA00210E
:105D3000A0F852100068816821F08001816001683C
:105D400041F0400101607047C06AFEF7ECBAC06ADA
:105D50000021A0F85210202180F87110FEF72CB914
:105D600001680A6822F490720A608A6822F00102CF
:105D70008A6000210166202180F8721070470000BF
:105D80002DE9F04141682E4A914200D3FEE7826836
:105D90004FEAF26104290AD2C1684FEA3133042B79
:105DA00006D2036A6FF40064234202D0FEE7FEE7E6
:105DB000FEE704692CB1B4F5806F18BFB4F5C06F6D
:105DC00013D145697DB125F00C0666B986694FEAA5
:105DD0003627042F08D2D0F81CC06FF480471CEA85
:105DE000070F03D0FEE7FEE7FEE7FEE7D0F80080EE
:105DF0002243144F2A43D8F800E042EA0C0207EA93
:105E00000E073A43C8F80020D8F8042022F4405284
:105E10001143C8F8041046EA0301D8F8082022F418
:105E200030621143C8F808100021C0E91811D8F8F1
:105E30002C0020F0F000C8F82C000020BDE8F08114
:105E400081969800F3B9FFE780B55CF0D3FD044874
:105E500000F5907065F05AF8BDE880405CF0E0BD58
:105E600040384E20F8B5154C207828BB0120144D41
:105E70002070286840001FD465F0F8FA0120FDF773
:105E8000A1F92868342100264BF67F3740F0805076
:105E900028600C48E060C1604069BE4208D810F03C
:105EA000020005D00120FCF74DF9E0680136F3E768
:105EB000286C40F001002864F8BD00BF08124E2095
:105EC00014F0005000B0005080B588B004AF0FC788
:105ED0000D980E9A694603900C9802900B980190C9
:105EE0000A98009004A8FFF7DCF908B080BD000014
:105EF00000280CD400F01F010122400902FA01F130
:105F0000034A42F82010BFF34F8FBFF36F8F7047E3
:105F100080E100E010B500F00F03064C044AB0F138
:105F2000FF3F2344C8BF83184801187010BD00BF4D
:105F300000E400E014ED00E018B1C1B219B1012095
:105F40000EE00020704710F47F4102D0090A0920BA
:105F500006E010F47F0107BF010E1920090C112083
:105F6000014A515C0844704728C4060080B5FF28E8
:105F700006D0F22806D048B9084618F019FA07E00A
:105F8000002005E0084617F0B5FC01E059F0E2F901
:105F90000249002818BF0146084680BD84C7060094
:105FA000E0B5C04890F89400400709D50A480DF1C3
:105FB000070204210368252098479DF8070048B18F
:105FC00001F0D4FE30B1426922B1C18C03480368AC
:105FD000104698478CBD00BF2C024E20BC004E20BE
:105FE000F8B50D4604460A2800D82DB91A4A2046AD
:105FF0002946F1235FF0EAFB0A2C1BD8174E06EB6B
:106000008400056116480168204688470546301916
:1060100006EB850780F854500120A0403E4656F814
:106020003C1F56F8382C40EA020046F8380C19B1EB
:1060300000240FE003240DE00AA0002100245FF0FB
:10604000E3FBB86408482A462B46016807A05FF0C6
:10605000E9FB30602046F8BD901E0700CC2A4E2098
:1060600078004E204B4500007C004E204B455F459C
:106070005654000010B50B2809D2012101FA00F492
:10608000FAF794FA7B490A68A2430A6007E0664A75
:1060900000214FF492735FF099FBFAF787FABDE89D
:1060A0001040FAF787BA00BF7248002101607047BC
:1060B000B0B504460B2806D35B4A2046002140F2C7
:1060C00035135FF083FBFAF771FA6A490D68FAF746
:1060D00071FA002025FA04F10B2C38BF01F0010001
:1060E000B0BD00BF63480068704700BF80B561481D
:1060F0006021FAF7BAFB80BDF8B55E4F4A4C3D68A7
:10610000F5B1B5FA85F080F01F060B2E06D33046A8
:10611000294622464FF4AD735FF058FB0620314606
:1061200005F074FB07EB8600006908B18047E6E7DD
:106130003046294622464FF4B4735FF047FBDEE752
:10614000F8BD00BF2DE9F84FDFF8289182461F48BF
:10615000DFF8D4801C4C8346D9F80060256816EA25
:106160000A0608BFBDE8F88FB6FA86F080F01F0770
:106170000B2F06D338463146424640F295135FF066
:1061800025FB0620394605F041FB09EB8700006935
:1061900008B1804706E038463146424640F2A11336
:1061A0005FF014FB59462068DBF80010401BC9075C
:1061B0004FF4803108BF44F62061D9F8006088426E
:1061C000CDD95CF06BFAC9E74400045000A004503C
:1061D000F8B504460B280CD2264E301990F85450CE
:1061E000012000FA04F7FAF7E1F931683943316028
:1061F0000CE00D4A204600214FF488735FF0E6FA68
:106200001C48204490F85450FAF7D0F9FAF7D2F924
:10621000184800EB8500806C5FF002FB05202146EA
:10622000BDE8F84005F0F2BA901E07000A280DD824
:10623000074A00210B2909D012F81130013183429D
:10624000F8D102EB410010F8010C704702207047B2
:1062500044EB06000749C0B2074E01EB8000041D65
:1062600000F1480528685FF0D5FA20683168884752
:10627000F8E700BFCC2A4E2070004E20E0B5094858
:1062800090F8A10040060AD507480DF107024FF427
:1062900080410368282098479DF8071001B100202D
:1062A0008CBD00BF40214E2028024E2000207047A8
:1062B00080B5384A12689047002818BF012080BD79
:1062C00010B5344A1268904768B10446043004F0AF
:1062D000E6F936482146283003F0BEFC2046BDE8EA
:1062E000104018F069BA10BD10B50446C189808904
:1062F000FF2218F013FD2D48043C2146283003F0FE
:10630000ABFC2046BDE8104018F056BA10B527483F
:1063100000F12804204603F0E3FD10B118F04CFA18
:10632000F8E710BD024621482830006838B1038ADA
:106330009342FAD1438A8B4208BF7047F5E70020A9
:10634000704700BFF8B50646124814460F4602686B
:10635000304690470546B0B91420012118F04AFC98
:10636000054620B90CA00DA1A2225FF025FA0E4827
:106370006F822E820168281D04F012F90B4829460D
:10638000283003F0C5FD281D2146BDE8F84004F083
:106390007CB900BF98004E20415353006B655F7479
:1063A000696D65722E63000090004E20702A4E20A9
:1063B00070B5054690F8AE4090F8BF00F8B195F87A
:1063C000BD0000EB4400C6B2304609F023F958BBCB
:1063D000304608F0EBFF38B395F8BB0020B306EB6E
:1063E0004600154941EA800515205AF06DFC285AEF
:1063F00000F078001838B0FA80F0450915E0D5F8BB
:10640000FC0088B10D480125006880030DD504EB20
:106410004400094941EA401613205AF055FC304423
:10642000808825EAD02500E0012520462946BDE8E0
:10643000704059F027BB00BF02004F20D404095020
:1064400070B190F84E2090F856000121022A05D133
:10645000044A02EB4012127C21EA121159F012BBDD
:10646000704700BFE02B4E20002070475CF0C2BA9E
:1064700000225DF0D3B84FF0FF315DF09DB9000010
:10648000F0B585B000201C4602AF15460E46022B23
:1064900013A24FF00A01ADF81000CDE9020028BFA9
:1064A0000224384623465DF0B1FE142031462A46C8
:1064B00040F2645301900DA010F82400009038467B
:1064C0005EF0E0F8044618B120465EF0BDFA04E044
:1064D00009A00AA1CC225FF06FF9204605B0F0BDFB
:1064E0004B455F455654256400000000190000002C
:1064F000130000000C0000004153530072775F6FDF
:10650000732E630070B515460E46044620B9144834
:1065100014A1A0225AF00CFE012E05D0022E0CD19F
:10652000D4F8C000826902E0D4F8C000C2698AB120
:10653000204600210025904710E06DB1AA782988F7
:10654000204600F027FED4F8C000AA782988036806
:1065500020469847002501E04FF0FF35284670BDE2
:10656000262D07005F70696E5F636F6E74726F6CCB
:106570000000000070B51E461446054620B90948C3
:1065800009A122225AF0D4FD00204CB1042E07D1DB
:10659000D5F8C00021888268284690476080042092
:1065A00070BD00BF262D07005F70696E5F72656168
:1065B0006400000070B51E461546044620B90B481D
:1065C0000BA131225AF0B4FD002075B1042E0CD17C
:1065D0006A882988204664F0CFFDD4F8C0006A8814
:1065E0002988436820469847042070BD262D07005F
:1065F0005F70696E5F7772697465000070B5154EE3
:106600000446002596F85400854228BF70BDB06D41
:1066100000EBC50149688A681AB150F83500214677
:1066200090470135EEE700BF70B50A4E04460025DD
:1066300096F85400854228BF70BDB06D00EBC501CF
:1066400049684A681AB150F835002146904701352B
:10665000EEE700BF68134E2070B50D46044620B922
:10666000104811A1AA225AF063FD616D11B12846AC
:10667000884714E094F8580001280FDBE16D461EAE
:1066800001EBC00050F8080C5EF00CFBA84230464D
:10669000F2D8E06D00EBC600007900E0012084F83C
:1066A000460070BD422D07005F706D5F73656C65BD
:1066B00063745F736C6565705F6D6F646500000087
:1066C00080B5202905D0212906D1D0B25CF04CFD3F
:1066D00002E0D0B25CF034FD002080BDF8B51C466D
:1066E00015460E46074628B90AA00EA140F2BB2265
:1066F0005AF01EFD052EC4BF0020F8BDB8190EA229
:10670000214690F84030284601B0BDE8F0405DF0E9
:106710007DBD00BF706D20213D2052545F4E554C11
:106720004C0000005F72745F706D5F646576696332
:10673000655F7265616400002564000080B553B137
:10674000107828B1012806D1C8B25CF00DFD02E036
:10675000C8B25CF0F5FC012080BD000010B5044615
:1067600020B9114811A14B225AF0E2FCA06A01782D
:10677000232906D1E169814203D9E26A02449142A8
:1067800007D920A021465CF0BBF9F9F70FFF18B13B
:10679000FEE72030814200D910BD0BA02146BDE8A4
:1067A00010405CF0ADB900BFE82A07005F72745F6B
:1067B0007363686564756C65725F737461636B5F46
:1067C000636865636B0000007761726E696E673A9B
:1067D00020257320737461636B20697320636C6F71
:1067E000736520746F2074686520626F74746F6DB8
:1067F000206F6620737461636B20616464726573DB
:10680000732E0A007468726561643A25732073748C
:1068100061636B206F766572666C6F770A000000AB
:106820007CB5069D00F12006044614302EC6C4E94E
:106830000500184623212A465CF0C1FA04F1200322
:106840000FCB1A44174B043A5BF076FEA16AE06165
:106850005BF070FEDDE90756202D04D312A01BA1CA
:106860009C225AF065FC00201C4A21462346C4E9BC
:106870000E06266484F8355084F83650C4E91D00AD
:1068800084F834002063CDE9000004F144005EF098
:106890005BFB1348016819B12046BDE87C400847FE
:1068A0007CBD00BF814706007072696F72697479A0
:1068B000203C2052545F5448524541445F50524955
:1068C0004F524954595F4D41580000005F72745F48
:1068D0007468726561645F696E6974009D4B06003F
:1068E000D0304E2010B501280AD85AF007FA0446D5
:1068F00060B9074907A0B0225EF05EFF002405E002
:10690000034A0021B52300245EF060FF204610BD3D
:10691000001F070041535300F8B50446904890F813
:106920009400C0060CD55C480DF1030210212346EB
:1069300005682520A8479DF80300002800F0AB80DB
:106940008B4E56485649574AC6E90221306118F025
:1069500047F801F00BFA0168054619B1AA8B00202F
:1069600018F066F9696819B1EA8B012018F060F92E
:10697000E96819B16A8C022018F05AF9002004F075
:1069800055FB002004F0AEF900205FF04FFD002021
:1069900003F0C2F8002003F089FD306808B117F059
:1069A0000BFF706808B117F007FF3820002118F0BE
:1069B00021F938213060F9F758FF5AF00FF9142700
:1069C000002107EB800018F015F9054670605AF0B9
:1069D00005F907EB80012846F9F747FF06F1140097
:1069E00059F0B4F85FF0A0FF002007F0DBFC0020B6
:1069F00006F010FC2C4D28680168012088470146EC
:106A0000012009F029F9286801680020884701461B
:106A1000002009F021F900200BF0E0FC5EF03CFFC3
:106A200052484FF4C6714030F9F71FFF00205EF066
:106A300003FF002000F0E2FD002060F0C1FC002018
:106A400061F00CFE002061F0B5F8002060F03AFA29
:106A5000002062F037FB002003F028FDB4F1A53FD1
:106A600003D0ACB1B4F1C33F03D1204604F0F0FA37
:106A70000EE041F2021000211022012318F0FEF86E
:106A80000221B4F1F23F08BF0121017013F0CAFFE7
:106A9000064800688047F8BD0C024E20819D060024
:106AA000999D06008D9D060028044E20AC004E20C6
:106AB0001CB52B4890F89500C0060BD529480DF160
:106AC00007024FF480510368252098479DF807007E
:106AD000002844D05AF0BEF808B958F087FFF9F7FB
:106AE00065FD0446204800688047012003F014F843
:106AF000012003F0DBFC012004F098FA012007F0EC
:106B000051FC012006F086FB01200BF067FC012000
:106B10005FF08CFC5EF0E0FEEE484FF4C671403052
:106B2000F9F7A3FE01205EF087FE012000F066FD6C
:106B3000012060F045FC012061F090FD012061F032
:106B400039F8012060F0BEF9012062F0BBFA17F0BD
:106B500021FE0748406980472046F9F72BFD1CBD00
:106B600040214E202C024E2094004E20E4314E2035
:106B70005C0F4E202DE9F04F85B0DFF84C8398F87C
:106B80009B00C0070CD0D14801AA4FF08071036868
:106B90002620984704469DF80400002800F08F81C5
:106BA000CB4E7078FF2816D002F094FD7178022247
:106BB000C90002FA01F1084302F09AFD7078FF283B
:106BC00009D002F087FD7178F022C90002FA01F1C4
:106BD000884302F08DFDBF4F3878C00704D118F00C
:106BE000FDF8002800F05D817078FF280CD002F0DD
:106BF00071FD71781022F023C9008A4003FA01F177
:106C00008843104302F074FD386808B1012449E15B
:106C10007078FF280CD002F05DFD71782022F023FF
:106C2000C9008A4003FA01F18843104302F060FD75
:106C3000BD6A3869B7F82CA0B5F1FF3118BF5146CD
:106C4000421C10D06A1C0AD0421BA34B22F0704297
:106C50009A4204D8A84207D1BA8A914204D9B7F817
:106C600014A0054600E08A467868411C25D09B495F
:106C7000097801443889A0F5876000B2B0F1FF3F80
:106C80000ADC6FF41C7240F2712390FBF2F20132C5
:106C900002FB030092B2891A21F070426B1C0AD0E9
:106CA000491B8D4B21F07041994204D8AA4204D16E
:106CB00081B28A4501D9824615467078FF280CD0EA
:106CC00002F008FD71783022F023C9008A4003FAEF
:106CD00001F18843104302F00BFD681C36D001A877
:106CE0005FF0CEFE01987C492C1A24F0704B8B4546
:106CF0003FF68CAF854206D11FFA8AF0BDF8081026
:106D000088427FF683AF98F89B0000070DD5744842
:106D10000DF113024FF000615B4605682620A8477D
:106D200081469DF81300002841D059F0C9FF80B179
:106D30006C48834505D36C486C4940F249125EF0BB
:106D40003BFDA0026421B0FBF1F930E0D7F8CC4163
:106D50004BE059F087FF814698F89A0040060AD523
:106D600063480DF113024FF4800103682620984711
:106D70009DF8130030B15F480078FCF717F908B1AF
:106D8000C7F8D801ABFB090143F69822A0FB0240EB
:106D900001FB02095FF0E8FC024620464946002359
:106DA0000025F9F7F7FCB0F1060938BFA9461FFA2C
:106DB0008AF0BDF80810884206D2081A401060F028
:106DC00003F8A9EB000004E0401A40105FF0FCFF5C
:106DD0004844D7F8D411113801318842FFF616AF74
:106DE000D7F8CC41A04238BF04467078FF280CD0B9
:106DF00002F070FC71784022F023C9008A4003FA47
:106E000001F18843104302F073FC09F011F90028E6
:106E100047D07078FF2809D002F05CFC717802221C
:106E2000C90002FA01F1884302F062FC092004F073
:106E3000A1FB31480460314C98F89B00800709D5CC
:106E40002B4801AA4FF000710368262098479DF84F
:106E5000040060B12A4800683862D4F8F40378620C
:106E60002068F861002020604FF0FF30A060022011
:106E700020604FF0FF30A0607078FF2809D002F04A
:106E800029FC71780122C90002FA01F1084302F0DD
:106E90002FFC022002245FF02BFD1A48406B804734
:106EA0000DE000247078FF2809D002F013FC7178FF
:106EB0000222C90002FA01F1884302F019FCE0B293
:106EC00005B0BDE8F08F00BF40214E2028024E20C3
:106ED000B40F4E20E4314E20FEFFFF07CC334E208E
:106EE00008024E20FFFF3F00F41B0700BB1E0700F7
:106EF0002C024E20EC174E202C0004501800095094
:106F00000C080950700F4E202DE9F041604D297892
:106F100001291CBF0120BDE8F081411EC9B28E29A4
:106F200026D862F03FFF18B36C68012190F8018009
:106F30002D89E18004F10807A688417801440231D7
:106F4000CA1B93B2B34205D8B21A130402D092B24C
:106F5000F9F764FCA6EB0800861EB1B217FA86F0BA
:106F6000691AF9F782FC0020A680E080BDE8F08174
:106F70000220BDE8F08100BFB0B50D464449097854
:106F800001291CBF0120B0BD411EC9B28E290CD8F9
:106F9000144662F007FF40B141782970811C4278A5
:106FA0002046F9F73BFC0020B0BD0220B0BD00BF79
:106FB00010B5374C2181606062F0B6FE00B110BDA3
:106FC0000121217010BD00BF01207047F8B5304F7E
:106FD0000646387801281CBF0120F8BD701EC0B2DB
:106FE0008E2884BF0220F8BD304614460D4662F05C
:106FF000D9FE68B141787E68A9420FD101210230E3
:107000002A46F1802146F9F709FC0020F080F8BDFE
:1070100030462946224662F06BFEF8BD07D2B3889F
:107020003A892B44591A9142C4BF0320F8BD06493E
:10703000067809683046884730462946224662F07D
:1070400057FE0020F8BD00BFB4004E2070B5104EB2
:1070500005463078012805D10C463189A1F1080098
:10706000A04201D2012070BD7068F9F7FEFB62F00A
:107070005BFE00B170BD7668012029462246F08093
:1070800006F10800F9F7CAFB0020B480F08070BD5B
:1070900008254E2070B53749384A44F290034324FE
:1070A0003A4D3B4E086840F480600860486840F004
:1070B0000800486030480C3100F120601060304812
:1070C000026200F10C02C2610022826143614369E5
:1070D00043F400634361436943F4007343614369CC
:1070E00043F001034361C26081600146254B41F8D2
:1070F000042F4266426E22F018024266426E42F04F
:107100008052426690220260026842F4006202608D
:10711000026842F400720260026842F001020260FA
:10712000194ADC6015605360946005F10114033561
:1071300014616FF043045361946115620125536239
:10714000956216635363622394631C24136400F1F5
:1071500018034038536495641465516504219165A2
:107160006521116653669566146750674FF4803049
:10717000906770BD0490005048044E208000095074
:10718000441000500400085010B001506300050086
:107190006700060070B506464FF6FF7015460C46B0
:1071A000814204DB12481349402259F0C1FFFF2DF0
:1071B00004DB104910A0412259F0BAFF00204FF61D
:1071C000FF7100E00130202811D006EB8002B2F8F8
:1071D00040308B4218BFA342F4D192F8430082F8AA
:1071E0004250A2F8404000F0FE0082F8430070BD1B
:1071F000142D0700352D07006D6F6465203C20308D
:107200007866660070B5044690F82C0001281ED000
:1072100020BB002594F82D200123012684F82B5053
:10722000C4F82750C4F82350C4F81F508878A077BA
:1072300000F03F00098810432246A077204622F83C
:107240001C1FA16900F0DCFA84F82C600CE0A07F20
:1072500001254871A08BA1F8030005E0616903A234
:107260009A235EF0B3FA0025284670BD6165735F0E
:107270007270612E6300000070B50E4602211C463C
:10728000154617F0B7FC4461C0E9016570BD000008
:10729000F0B589B0044690F8322090F8330090425F
:1072A00016D2228E04F120051023A2EB0010A26951
:1072B0000244284600F0C0FAE16920462A4601232C
:1072C00000F09EFA94F83300013084F8330072E045
:1072D000FD280BD8FE20102284F8330004F1200092
:1072E000F9F79CFAE169354A204661E0FF2801D1AF
:1072F000012061E0FF2005AA258E84F833000846AE
:1073000091F90F60114600F067FA05F00F05B6F12C
:10731000FF3F05DC9DF8140080F087008DF8140015
:107320005DB305A89DF92360014600F055FAB6F15A
:10733000FF3F05DC9DF8140080F087008DF81400F5
:1073400001A885F00F034FF0000C4FF0800E0026CF
:10735000411B00F10F021031102E17D0AE4203D2A4
:10736000A769BF5D8F5505E0B54214BF82F800C024
:1073700000F803E0013A0136EEE794F83200002805
:10738000CFD0A16901A81022F9F748FA01AD05AAEA
:1073900010232846294600F04FFA04F1200629461A
:1073A00010233046324600F047FAE1692046324663
:1073B000012300F025FA002009B0F0BD90C50600B9
:1073C00010B50124038680F83340C0E9062103F19B
:1073D0000F0100220909C0E90922C26280F83210B7
:1073E000014641F8202FBDE81040FFF751BFF8B526
:1073F0001E46069B0C460546BAB13820002132468F
:10740000FFF73AFF00F118070646294610223846D2
:10741000F9F704FA06F12805214610222846F9F763
:10742000FDF9304639462A4606E01820002132464A
:10743000FFF722FF29462246002301B0BDE8F040B5
:1074400000F0DEB9F8B51E46069B0C460546BAB1FB
:10745000382000213246FFF70FFF00F118070646DB
:10746000294610223846F9F7D9F906F128052146B0
:1074700010222846F9F7D2F9304639462A4606E066
:10748000182000213246FFF7F7FE29462246012345
:1074900001B0BDE8F04000F0B3B9000070B50D4692
:1074A0000E4906463020FFF7E7FE80F82D50866132
:1074B000044600F11C051C262C2E04D0F9F79CF97B
:1074C000A0550136F8E7A16920462A46012300F0BD
:1074D00097F9002084F82C0070BD00BF05720000F1
:1074E000F8B50C460C4905464820FFF7C5FE064690
:1074F000206829461022344606F1380744F8340F34
:107500003846F9F78BF9304639462246042301B054
:10751000BDE8F040FFF754BF1D750000FFF7B8BE8F
:10752000F8B50C460E4905465420FFF7A5FE00F1BC
:1075300044070646294610223846F9F76FF906F146
:107540003405214610222846F9F768F930463946B5
:107550002A46102301B0BDE8F040FFF731BF00BF5D
:1075600065750000FFF794BE2DE9F0411F460D46FA
:107570001249069B904606465C203A46FFF77CFE81
:1075800000F134040746314610222046F9F746F947
:1075900007F14406294610223046F9F73FF9D8F89A
:1075A00000003146224610237865002087F85800F5
:1075B0003846BDE8F041FFF703BF00BFC1750000CA
:1075C00070B50D460446FFF763FEA0B194F858105D
:1075D000012001B170BD04F1440684F85800294629
:1075E00010223046F9F71AF904F1540220463146C8
:1075F0000423FFF7E5FE002070BD000010B540B188
:107600008C4C206828B1204602F06AFC17F0D4F8B0
:10761000F7E7884C204602F0F0FB0020207510BDF3
:10762000F0B589B00D460446002701AE082F05D0FD
:10763000F9F7E2F846F827000137F7E706F11001FD
:107640003046012223460095FFF7FCFE09B0F0BD4D
:10765000F8B5784F06460C46384602F041FC3968CA
:1076600005460020387531B1012001223875D1E975
:1076700003015EF091F99DB156B1AB681BB16A6927
:107680003046214698472846BDE8F84017F094B8A0
:107690006A68002AF1D02846214690470028ECD19C
:1076A000F8BD00BF13460A464021FFF7F7BE0000B1
:1076B0002DE9F84306464020994688462249089B12
:1076C00015460022002700EB0610FFF7D5FD044603
:1076D000C0F818903E3032014146F9F79FF8A8886B
:1076E000296884F83D60C4F82F70C4F83370C4F87A
:1076F000377084F83B70A046DFF8D890E1612084B1
:10770000687984F82E00B5F80300751E28F82C0F50
:10771000FEB2B54209DD04EB0610494610223E30A8
:10772000F9F7C1F808B90137F2E704EB061084F85D
:107730003C704246012300F13E01204601B0BDE805
:10774000F04300F05DB800BF4D7700002DE9F8432D
:1077500000F11C08054603224046F9F7A4F810B3CF
:1077600095F83C4095F83D60DFF868900134E0B250
:10777000B04216D205EB00104946102200F13E0738
:107780003846F9F790F80028F0D005F12C02284689
:107790003946012385F83C4000F032F80020BDE86E
:1077A000F88385F83C40AC6984B195F83C1095F8B5
:1077B0003D306A6905EB01109942434600F13E00F5
:1077C00000904FF01F0038BF0020A0470120BDE807
:1077D000F88300BF32C6060010B5002212F10F0375
:1077E00009D083189C7BDB7BE40944EA43038C18B3
:1077F000013AE373F2E700784000087010BD000022
:107800002DE9F0410B4F04460E4698461546214699
:10781000384602F07DFBC4E90365387D08B1BDE858
:10782000F08101202946424638753046BDE8F041D6
:107830005EF0B2B868154E20B0B5013B5BB2002BCC
:1078400004D4CC5CD55C6C40C454F6E7B0BD0000F9
:107850001848816A11F00F022AD00368013223F41C
:1078600070530360036843EA82220260026822F4D4
:107870004042026001F0300201F47071036843EA93
:1078800082220260026822F470220260026842EAE8
:1078900081210160416821F47C614160416841F4CB
:1078A0008061416050F8101C21F0010140F8101C6B
:1078B000704700BFB04008500848016841F001011E
:1078C000016001696FF393210161416921F47C61D9
:1078D0004161416941F4806141617047A0400850B5
:1078E0007047000010B5064C2068400006D4012007
:1078F000FBF768FC206840F08050206010BD00BF9E
:1079000014F0005059F06CBC2DE9F84FDFF84CB082
:10791000134EDFF8948EDFF8E890DFF8E8A00C460D
:1079200005460027B4B1C5E910B605F1680228463E
:10793000D5F8A4105AF018F848B13048C047D5F827
:10794000A4104846C0475046C0474FF0FF37A835FF
:10795000013CE7E73846BDE8F88F00BF5CC506008C
:1079600028C50600B0B50C480021FFF7CDFF0B4D30
:107970000121284600F014F80446FEF7EFF848B15C
:1079800095F99C0003210022FBF7BAFE95F99C00B3
:10799000FBF78EFE2046B0BD80154E204C0E4E20CB
:1079A0002DE9F84FDFF84CB0134EDFF8FC8DDFF80F
:1079B0005090DFF850A00C4605460027B4B1C5E949
:1079C00010B605F168022846D5F8A01059F0CCFF92
:1079D00048B10A48C047D5F8A0104846C0475046AD
:1079E000C0474FF0FF37A435013CE7E73846BDE814
:1079F000F88F00BF48C5060038C50600C22507003D
:107A0000FA250700F72C0700B0B501224FF47A756C
:107A1000C0E915220022C264C26BD0E911349B6810
:107A20006143B1FBF5F1994288BF1946B1FBF4F30C
:107A300000EE103AB8EE400A80ED140A1046BDE898
:107A4000B040FBF7DBBB00002DE9F047ACB04FF0D6
:107A500000090BAD884604462C21C0F82890284622
:107A6000F8F703FF6E462C213046F8F7FEFE21AFF3
:107A7000214624223846F8F7D1FED4F824A016ACCB
:107A80003A492422CDF8AC902046CDF8A8A0F8F7CA
:107A9000C5FE0820CDF880901F900120CDE913008D
:107AA000CDE90890BAF1000F0ED13BE0384604F062
:107AB00031F99DF84C00C00703D1284604F02AF99B
:107AC00002E02846F9F7DAFA9DF8A400C007EDD0E5
:107AD0000DE0204604F01EF99DF82000C00703D1F8
:107AE000304604F017F902E03046F9F7C7FA9DF87E
:107AF0007800C007EDD03846214615F04FFE30B172
:107B000038462146FDF736FF2846314605E0204637
:107B10003946FDF72FFF30462946FDF74BFFDDF8CC
:107B2000A8A0BFE70A9868B16C46204662F056FFED
:107B3000404621462422F8F771FEDDE90910C8F815
:107B400024100EE00948694615F010FE0028EBD01D
:107B5000694640462422F8F761FE0998C8F82400D7
:107B60000020C8F828002CB0BDE8F087A0C50600AA
:107B70007CB516460D4601AA012104464EF0C0F818
:107B800000B17CBD0198817E01F003010229F8D18A
:107B9000EA8847F6FE73B11A89B2994202D8407852
:107BA000282108E0691C204638F082FD0028E8D032
:107BB00001982421407839F0DFFE7CBDBCB5144625
:107BC0000D4601AA01214EF09BF800B1BCBD019801
:107BD000817E01F00302022AF8D16B8841F0030193
:107BE0006A788176E11A47F6FF7389B2994238BF05
:107BF00028224078D1B239F0BFFEBCBDE0B596482E
:107C000090F8A000C00709D07F480DF107020121BC
:107C10000368282098479DF8070010B101480068C4
:107C200080478CBD80004E201CB503468A4890F8E2
:107C30009400C00709D009480DF10702012104682A
:107C40002520A0479DF8070038B105480068804707
:107C5000044801684FF0C33088471CBD0C024E2019
:107C600050004E20A8004E20E0B57B4890F8A000C0
:107C7000800706D564480DF1070202210368282019
:107C800098478CBDE0B5744890F8A000400709D52E
:107C900072480DF1070204210368282098479DF8D7
:107CA000071019B16E48006840F380108CBD00BF0A
:107CB0007CB5234890F8B400400709D521480DF160
:107CC0000702042103682D2098479DF80700B0B3F0
:107CD0005DF092FD1C4CA078FF2809D001F0FAFC61
:107CE000A1780422C90002FA01F1084301F000FD65
:107CF000164D2E68F0030DD54FF4803068602020BB
:107D0000296D5EF04DFD286D296D11A28E23090CA1
:107D10005DF05CFD300603D58020686043F06CFDAB
:107D2000A078FF2809D001F0D5FCA1780422C90071
:107D300002FA01F1884301F0DBFC5DF063FD7CBDDC
:107D400040214E202C024E20B40F4E201008095026
:107D50007277626C652E6300054890F92A007047BF
:107D6000014603482C22F8F759BD00BF0048704770
:107D7000F4004E2080B558F06DFF012818D111484D
:107D800053210160C164416001610F48016821F421
:107D900078710160016841F438710160016841F453
:107DA00000610160016841F001010160FFF772F9B3
:107DB000FBF7ACFF00F00AF80020BDE8804058F067
:107DC000E3BC00BF6C30005000900050E0B522488A
:107DD00090F8A000000709D50B480DF10702082113
:107DE0000368282098479DF8070060B1074802689B
:107DF0001AB107482021FBF7E1FC064857F0A6FE20
:107E00000548006880478CBD2C024E20F80E4E209D
:107E100040204E20700F4E20CC004E20AFF300804B
:107E2000E0B50D4890F8A000C00609D50B480DF14B
:107E3000070210210368282098479DF8071051B1C8
:107E400007480068400644BF4FF0FF308CBD05482E
:107E50000068804700208CBD40214E2028024E2023
:107E60003C000450D0004E20F8B5424F044608466E
:107E700016460D46B847C10EA171C0F3CB31A180A3
:107E8000C0F380316FF39F302080A17028794009C2
:107E90002072287900F01F00E0716879A979EA79E9
:107EA00040EA012002F00F011309237440EA014067
:107EB000E060287A697AAA7A40EA012002F00F018C
:107EC0001309237640EA01406061E87A607605F1A3
:107ED0000D00B847A06205F11100B847010D6FF31E
:107EE0001F506184E061687DA97D40EA0120E08443
:107EF000D5F81700E062E87E00F01F0084F830003B
:107F0000E87E5F2807D81C49002701EB5010407815
:107F100084F8240000E01127E869212EC4F831001C
:107F200095F8200000F07F0084F8350095F82000D7
:107F30004FEAD01084F8200014D0392E16D1012039
:107F4000102284F83600D5F82100D5F82510C4F8A1
:107F50003B10C4F8370004F13F0005F12901F8F7A0
:107F60005DFC04E0002084F8360000E01E2738465F
:107F7000F8BD00BF1FA4000050C60600B0B5F8F75A
:107F800015FB05464448283001F0AAFF0446284660
:107F9000F8F710FB002C14BFA0880020B0BD00BF74
:107FA00010B501463B48C28A8B1A03EB1363C3F337
:107FB0000724008B801A00EB1060B4EB202F05DB48
:107FC000F44A204640F279135DF000FCF248D0F804
:107FD000940000EBC40010BDB0B50146EC48C28A65
:107FE0008B1A03EB1363C3F30724008B801A00EB97
:107FF0001060B4EB202F05DBE64A204640F28513E3
:108000005DF0E4FBF8F7D2FA0546EF48D0F894109B
:10801000283001EBC40101F07BFF2846BDE8B040E9
:10802000F8F7C8BAB0B5F8F7C1FA0546F5483C30DC
:1080300001F056FF04462846F8F7BCFA002C14BF9E
:10804000A0880020B0BD00BFB0B50146EC4840F2AA
:10805000F643028A408A801A8A1A92FBF3F290FB56
:10806000F3F0D4B2844205DBFA4A204640F2A5136D
:108070005DF0ACFBF8F79AFA0546F748D0F898108F
:108080003C3001EBC40101F043FF2846BDE8B0409D
:10809000F8F790BA40014E2080154E202DE9F041AE
:1080A000EB4D0446A88CB0F5304F05D9E94A800A5B
:1080B0002C2180235DF08AFB002C59D0EE48D0F8AB
:1080C0008C10A889EA89EC4CB54F101A242290FB39
:1080D000F2F320460822B847A88AE98A4FF482764C
:1080E0000822081AD4F8901090FBF6F304F114005B
:1080F000B847E88A298B0822081AD4F8941000EBB4
:108100001060031204F12800B847288A698A0822FF
:10811000081A40F2F64190FBF1F3D4F8981004F1FC
:108120003C00B847A88BE98B0822081AD4F89C10A9
:1081300090FBF6F304F15000B847288B698B0822B6
:10814000081A202190FBF1F3D4F8A41004F1780070
:10815000B847688BA98B0822BC46081A0C2190FBF3
:10816000F1F3D4F8A01004F16400BDE8F0416047D9
:10817000F04CD4F88C0008B116F01EFBD4F8900037
:1081800008B116F019FBD4F8940008B116F014FBEE
:10819000D4F8980008B116F00FFBD4F89C0008B191
:1081A00016F00AFBD4F8A00008B116F005FBD4F8CD
:1081B000A40008B116F000FB2046A821F8F755FBF3
:1081C000A889E9894FF02408744F081A002190FB10
:1081D000F8F0C000B847C4F88C00A88AE98A4FF4C8
:1081E0008276081A002190FBF6F0C000B847C4F868
:1081F0009000E88A298B081A002100EB1060001219
:10820000C000B847C4F89400288A698A081A40F266
:10821000F64190FBF1F00021C000B847C4F8980087
:10822000A88BE98B081A002190FBF6F0C000B84734
:10823000C4F89C00688BA98B081A0C2190FBF1F004
:108240000021C000B847C4F8A000288B698B081A29
:10825000202190FBF1F00021C000B847C4F8A40031
:10826000A889E989081AD4F88C1090FBF8F002B2BA
:10827000012A0ADB0138AE8982B200EBC00301EBB0
:10828000C20206EB83039380F1E7A88AEA8A101AF8
:108290004FF4827290FBF2F0D4F8902003B2012BDD
:1082A0000BDB0138AF8A00EB801683B207EB860642
:1082B00002EBC30305369E80F0E7E88A2A8B101A8A
:1082C000D4F8942000EB1060001203B2012B08DBFD
:1082D0000138EE8A83B206EB002602EBC3039E80D0
:1082E000F3E7288A6A8AD4F89830121A40F2F640E6
:1082F00092FBF0F216B2012E08DB013A2E8A97B2F9
:1083000002FB006603EBC707BE80F3E7A88BEA8B8E
:10831000D4F89C30101A4FF4827290FBF2F2501E87
:1083200003EBC202023A431C012B0ADB00EB801371
:10833000AE8B1070013806EB830322F8023C083A3A
:10834000F1E7288B6A8B101A202290FBF2F0D4F808
:10835000A42003B2012B08DB01382E8B83B206EB7D
:10836000401602EBC3039E80F3E7688BAA8B101ABA
:108370000C2290FBF2F0D4F8A02003B2012BFFF600
:10838000A0AE013883B202EBC3031871F5E700BF5A
:1083900040014E200B1F070080154E20F5EB010019
:1083A000B59E0000B0B5F8F701F90546A348503076
:1083B00001F096FD04462846F8F7FCF8002C14BF9F
:1083C000A079FF20B0BD00BF80154E2010B5044637
:1083D0009848818BC08B401A4FF4827190FBF1F06A
:1083E000A04206DC944A2046002140F2C3135DF00F
:1083F000EDF99248D0F89C0000EBC400808810BDD5
:1084000040014E2080154E20B0B504468948818B2E
:10841000C08B401A4FF4827190FBF1F0A04206DC51
:10842000854A2046002140F2C9135DF0CFF9F8F7E4
:10843000BDF805468148D0F89C10503001EBC401CE
:1084400001F066FD2846BDE8B040F8F7B3B800BFBC
:1084500040014E200B1F070080154E20B0B5F8F7E5
:10846000A5F80446754801F03BFD05462046F8F79F
:10847000A1F82846B0BD00BF80154E20B0B501461A
:108480006C4824238289C089801A8A1A92FBF3F2ED
:1084900090FBF3F0D4B2844205DB674A204640F2F9
:1084A00025135DF093F9F8F781F805466348D0F895
:1084B0008C1001EBC40101F02BFD2846BDE8B04053
:1084C000F8F778B880B55D48143001F009FD002850
:1084D00014BF8088002080BD70B5014655484FF418
:1084E0008273564E828AC08AD6F89050801A8A1AB1
:1084F000053A90FBF3F092FBF3F2D4B2844205DB31
:108500004D4A204640F243135DF060F905EBC40587
:10851000F8F74CF80446A88846F064FD20B906F147
:108520001400294601F0F4FC2046BDE87040F8F73D
:1085300041B800BF80154E20B0B5F8F737F80546B2
:108540003E48783001F0CCFC04462846F8F732F873
:108550000CB1A088B0BDEC48374940F20A225DF06A
:108560002BF90020B0BD00BF70B5324D04462E8BF4
:10857000864205D858F020FB06EB8010A04206D8B2
:108580002D4A2046002140F213235DF01FF9288B6D
:108590002021201A90FBF1F0C5B2F8F707F8044645
:1085A0002648D0F8A410783001EBC50101F0B0FCEA
:1085B0002046BDE87040F7F7FDBF00BFB0B5F7F744
:1085C000F5FF05461D48643001F08AFC0446284644
:1085D000F7F7F0FF0CB12079B0BDF14816494FF420
:1085E000F1725DF0E9F8FF20B0BD00BFB0B5044600
:1085F0001048418B808B401A0C2190FBF1F0A04277
:108600000FDDF7F7D3FF05460C48D0F8A010643013
:1086100001EBC40101F07CFC2846BDE8B040F7F74F
:10862000C9BF054A204600214FF4FA73BDE8B040A7
:108630005DF0CCB840014E200B1F070080154E2086
:10864000B0B5094B00210422B2F1FF3FDCBFC8B234
:10865000B0BD845C013A250904F00F041C5D5D5D2A
:1086600021442944F0E700BF74000700032907D81C
:10867000DFE801F0020D1116502101EBC000704738
:1086800080B50AA266235DF0A1F8002080BD2C21F0
:1086900001EB800070474FF4347101EB801070479C
:1086A0004FF4E77101EB0010704700BF626C655F2B
:1086B0007574696C2E63000056F02EBF16F074B905
:1086C0001CB5012058F060F859F088FC32480021B0
:1086D000C0E907110E21017514495AF0E9FC14484C
:1086E0005CF014F958F0B6FA012804BF114800688C
:1086F000FFF7E2FFFBF70AFB0F4C0B208DF807009A
:10870000A04790F835008DF80600A0470DF107024C
:1087100002215BF06FFF0020FFF786FAA0470DF102
:10872000060202215BF066FF00201CBD78D806001F
:10873000BD86000080000950414A06000448054AF1
:108740000168914202D1806800B10047704700BFC4
:1087500000C04E2050414348B0B50C4601460D487C
:108760000D4B02680020994212D112F020010FD067
:10877000022C03D3BDE8B04000F02AB80A4D07A090
:10878000A8470AA02146A84710A0A8474FF0FF30ED
:10879000B0BD00BF1C000450F0174E205B452F44B5
:1087A00042475D2000000000012B06004D414320A0
:1087B000736C656570206E6F7420737570706F7266
:1087C0007420796574202825642900000A000000BF
:1087D00016F0D6BA10B50404B0F5006F05D30648FC
:1087E00006A141F6BA125CF0E7FF084801686FF392
:1087F0001A412143016010BDF41B07007265675FD9
:108800006274636F72652E680000000030050950C5
:1088100070B558F0E7F904462E48006800B180476B
:1088200058F0BEF928B158F0BBF9054658F0B4F934
:1088300002E0294D4FF48060284E04EB840305F1DB
:10884000400205F15001326105F120025B42B56042
:108850007161F2602A1800EB830002EB8302F2617F
:108860001F4A10446FF0030202EA50044FF6FC72F4
:1088700002EA500034800844B0611A48006800F0F1
:10888000F1FBF06957F052F824B2B06871692246E2
:108890005AF086FDF068B16922465AF081FD012048
:1088A000FA21FFF72FF87060B0685AF0E7FDF06822
:1088B0005AF0E4FD306900210022062A03D020F896
:1088C00012100132F9E70848016801B18847002019
:1088D00070BD00BF2C164E2000F04F2090114E208E
:1088E000B0FF0100D4004E2028164E2010B50446DB
:1088F00010F4404F05D0BD48044940F2DC725CF0F2
:108900005BFF0348046010BDF41B0700B0210700A3
:1089100028040950B0B50D46044611F0FE0F04D0EE
:10892000E148E24985225CF047FF58F08FF900B139
:10893000B0BDE04A6101A803515821F480410143D0
:108940002046BDE8B04000F001B800BFB0B50C460D
:10895000054658F07BF910B9680103490C50D54918
:1089600068010C50B0BD00BF10060950B0B50D46EF
:10897000044611F4404F05D0CB48CC494FF4E8727F
:108980005CF01AFFCB4843F6FF7100EB4410C0685F
:10899000884340EA05012046BDE8B04000F03AB8FF
:1089A000F41B0700B0B504460D04B1F5804F05D3A4
:1089B000E048E1494FF4E2725CF0FEFEDF4800EB74
:1089C0004410C0686FF31D4040EA05012046BDE831
:1089D000B04000F01FB800BF70B514460E46054603
:1089E000B1F5804F05D3D348D34940F2AF125CF0C4
:1089F000E3FE360414F4404F05D0CE48CE494FF480
:108A0000D8725CF0D9FE46EA04012846BDE8704001
:108A1000AFF30080B0B50C46054658F017F910B911
:108A2000680103490C50E54800EB4510C460B0BD37
:108A30001C060950B0B50D46044611F4404F05D050
:108A4000DB48DC4940F281125CF0B6FEDB4843F6BD
:108A5000FF7100EB44108068884340EA050120461E
:108A6000BDE8B04000F038B8B0B504460D04B1F52B
:108A7000804F05D3CE48CF4940F275125CF09CFE82
:108A8000CE4800EB441080686FF31D4040EA0501BA
:108A90002046BDE8B04000F01FB800BF70B51446D6
:108AA0000E460546B1F5804F05D3C148C1494FF484
:108AB000B0725CF081FE360414F4404F05D0BC481F
:108AC000BC4940F261125CF077FE46EA0401284698
:108AD000BDE87040AFF30080B0B50C46054658F0D5
:108AE000B5F810B9680103490C50B44800EB4510C3
:108AF0008460B0BD18060950B0B50C46054658F064
:108B0000A5F810B9680103490C50AC4800EB4510BA
:108B10008461B0BD280609502DE9F041069C1D4630
:108B200016460F46804611F0FE0F05D0EA48A149CF
:108B300040F20B225CF040FE16F0FE0F05D0E64836
:108B40009C494FF403725CF037FE15F0FE0F05D020
:108B5000E148984940F20D225CF02EFE7F0136017B
:108B6000ED0014F0F80F05D0DB48924940F20E22D8
:108B70005CF022FE47EA06002843204300F58031DE
:108B80004046BDE8F04100F03DB800BFF8B51446DE
:108B90000D46064610F0FE0F05D0CF48854940F23D
:108BA0000B225CF009FE15F0FE0F05D0CA48814982
:108BB0004FF403725CF000FE76012D01E70014F023
:108BC000FE0F05D0C4487B4940F20D225CF0F4FD55
:108BD00046EA0500384300F5803458F037F808B904
:108BE0000F48046075480461F8BD00BFF41B07001E
:108BF000724A02EB4012126922F47F0242EA0141FA
:108C0000AFF30080B0B50C46054658F01FF810B918
:108C1000680103490C50694800EB45100461B0BD80
:108C2000200609502DE9F0471D4616460F4680469E
:108C300011F0FE0F04D0A8485E49E7225CF0BCFDAD
:108C400016F0FE0F04D0A4485A49E8225CF0B4FDA7
:108C5000DDF820A015F0FC0F04D09F485549E9220B
:108C60005CF0AAFDDDF82490FF05B605AD044FEADF
:108C70000A441AF0FC0F04D097484E49EA225CF0EF
:108C80009BFD46EA07002843204340EA090457F0C9
:108C9000DDFF18B94FEA481005490C50474800EB72
:108CA00048104460BDE8F087F41B0700D921070095
:108CB00014060950E02B4E202DE9F0410F051D460A
:108CC00016468046B7F1804F05D38348394940F2B4
:108CD00092225CF071FD16F0F00F05D07E48354908
:108CE00040F293225CF068FD069C15F47C4F05D0A1
:108CF000794830494FF425725CF05EFD36042D0151
:108D000014F0F00F05D074482A4940F295225CF027
:108D100053FD46EA07002843044357F097FF18B96C
:108D20004FEA481024490C50244800EB4810446195
:108D3000BDE8F081F41B0700D9210700E02B4E208D
:108D4000F8B507051C4615460E46B7F1804F05D30A
:108D50006148184940F292225CF02EFD16F0F00FA7
:108D600005D05D48134940F293225CF025FD15F4CF
:108D70007C4F05D058480F494FF425725CF01CFD1C
:108D800036042D0114F0F00F05D05348094940F284
:108D900095225CF011FD46EA07002843044357F092
:108DA00055FF08B90448046004484461F8BD00BF99
:108DB000F41B0700D921070024060950E02B4E20A0
:108DC0007CB52D4890F8B80040070AD52B480DF126
:108DD0000702042103682E2098479DF80700002809
:108DE00049D05CF009FD264CA078FF2809D000F09E
:108DF00071FCA1780222C90002FA01F1084300F0D7
:108E000077FC204D55F8046CF0030DD54FF48030FD
:108E100028604020E96C5DF0C3FCE86CE96C1AA2A4
:108E20009B23090C5CF0D2FCB00405D54FF4005034
:108E30002860002029F0BCF8700405D54FF480406C
:108E40002860012029F0B4F8300405D54FF4004023
:108E50002860022029F0ACF8A078FF2809D000F0A3
:108E600039FCA1780222C90002FA01F1884300F01E
:108E70003FFC5CF0C7FC7CBD40214E202C024E2004
:108E8000B40F4E2014040950727762742E630000F0
:108E900010B50402000605D50F48104941F2ED5205
:108EA0005CF08AFC0E48016821F4FE412143016018
:108EB00010BD00BF10B50446000605D50648074999
:108EC00041F2F9525CF078FC0548016821F07F011D
:108ED0002143016010BD00BFF41B0700B021070053
:108EE000D4040950BCB50446007805286AD8DFE8E8
:108EF00000F00369162233384B4DA8685AF0F4F994
:108F0000014620792A8801440431914239D95249D5
:108F1000096888472869C1880131C18041E020790A
:108F200017F030FE827CC389008AE18800903FA060
:108F300059F0E6FD46E0207917F024FE827CC389D3
:108F4000008AE18800902BA059F0DAFD36480069CC
:108F500001890131018135E0E1881EA059F0D0FD81
:108F600030E0314DA8685AF089FAE8685AF086FA7C
:108F7000286900210022062A24D020F8121001328C
:108F8000F9E7D4E9010141F8040C2279A168A86845
:108F9000043904325AF022FA2F48016820798847B0
:108FA000286941898A0505D10EC82C4859F0A8FDC9
:108FB000286941890131002200234181286A00216A
:108FC00014F064FB2648016809B120468847002058
:108FD000BCBD00BF73636F206C696E6B69643A300F
:108FE00078257820646973636F6E6E656374656459
:108FF0000A00000073636F206368616E6765206C10
:10900000696E6B69643A307825782C636F646564A7
:109010003A25642C72786C656E3A25642C74786CF1
:10902000656E3A25640A000090114E2073636F202C
:109030006C696E6B69643A307825782C636F64656F
:10904000643A25642C72786C656E3A25642C7478C9
:109050006C656E3A25640A00D8004E20A1220700F4
:1090600030164E2001490860704700BF34164E206C
:10907000FEB5044657F0FAFD0028204618BF04301C
:10908000C5B28DF80400FA2D05D315A01DA14FF42B
:10909000E47258F04DF8204F7E68F86802965AF056
:1090A00023F9A84202D2386904300FE0F86831464B
:1090B0002A465AF02FF901A816F074FE022804D0AF
:1090C000012806D13869023000E038690188013191
:1090D00001801248016809B120468847FEBD00BFE3
:1090E00073636F5F646174612E6C656E6774682072
:1090F0003C204D41585F53434F5F444154415F4CC6
:10910000454E000062745F736F635F73656E645FEA
:10911000646174610000000090114E2038164E20EA
:10912000B0B5F7F743FA0446CB48143000F0D8FE48
:1091300005462046F7F73EFA2846B0BD70B5014611
:10914000BD4840F20443828FC08F801A8A1A053AC4
:1091500090FBF3F092FBF3F2D4B2844204DBA14A19
:109160002046FF235CF032FBBB4E04EB4400316C25
:1091700001EB8005F7F71AFA0446288928F05CFE0F
:1091800020B906F11400294600F0C2FE2046BDE8D1
:109190007040F7F70FBA00BFB0B5F7F707FA05460A
:1091A000E748283000F09CFE04462846F7F702FA0C
:1091B000002C14BF20890020B0BD00BFB0B504460C
:1091C000E04840F20441C08F201A90FBF1F0C5B294
:1091D00057F004FD0630854206D3DC4A2846214676
:1091E00040F235135CF0F2FAE64905EB4500496CB4
:1091F00001EB8000B0BD00BFB0B5D249C98F401AA5
:1092000040F2044190FBF1F0C1B2490051FA80F5FF
:10921000F7F7CCF90446F548416C283001EB85019D
:1092200000F076FE2046BDE8B040F7F7C3B900BFB6
:109230002DE9F843EE4E0446B6F84200B0F5304F43
:1092400005D9C24A800A2C217A235CF0BFFA8CB17E
:10925000F54D0024002757F0C5FC87426DD2A86C5D
:1092600050F8270020B115F0A7FAA86C40F8274065
:109270000137F0E7DFF85094D9F83C0008B115F059
:109280009BFAD9F8400008B115F096FAD9F84400D5
:1092900008B115F091FAD9F8480008B115F08CFA28
:1092A00048464C21F7F7E1FA57F09CFCDFF838818B
:1092B000800000210027C0470546C9F8480057F044
:1092C00091FC81002846F7F7D0FAF08D318E1825F1
:1092D000081A002190FBF5F0C000C047C9F83C0017
:1092E000B08FF18F40F20444081A002190FBF4F093
:1092F00000EB40008000C047C9F84000F08FB6F88E
:109300004010081A002190FBF4F000EB40008000B0
:10931000C047D9F83C10C9F84400081DF28D338EBF
:109320009B1A93FBF5F39F422EDA07EB470302EB00
:10933000C30220F837200137F0E7E96BF08D328E59
:10934000E14C2A4F101A182290FBF2F32046082213
:10935000B847B08FF18F40F204450C22081A216CF7
:1093600090FBF5F304F11400B847F08FB6F8401005
:109370000C22BC46081A616C90FBF5F304F128003E
:1093800001B0BDE8F0436047D9F84000002340F247
:10939000044500F10802B78FF08FC41B94FBF5F46D
:1093A000A34208DA03EB0320013307EB800005300A
:1093B00022F80C0BEFE7D9F84420002340F20444D4
:1093C000083285B2B6F840707D1B95FBF4F5AB42D0
:1093D000B4DA03EB0325013300EB850022F80C0B14
:1093E000F08FEEE712210700F5EB0100B59E0000BB
:1093F000B0B5F7F7DBF80446B34800F071FD054659
:109400002046F7F7D7F82846B0BD00BFB0B5B04941
:10941000C98D401A182190FBF1F0C5B2F7F7C6F8D4
:109420000446A948C16B01EBC50100F071FD20465F
:10943000BDE8B040F7F7BEB840014E20B0B5A24D30
:109440000446A86C50F8240028B115F0B5F9A86CB2
:10945000002140F82410B0BD3C164E202DE9F84FF5
:10946000064601EB410003EB430B884600219A4678
:109470001446850005EB8B00343015F0BBFB3049FA
:109480008A6C42F82600886C50F82670002F4FD066
:1094900007F13401DDF828900C2243464819C7E94A
:1094A0000A10384600F006FDF96A07F114000C2294
:1094B000534600F0FFFC4FF4076004F1030E0094E4
:1094C00006FB00FC20462EF0030300261D486146E3
:1094D000B54208D0BC6AB0F8402034440A4419446C
:1094E0000C36A280F4E74FEA9E0109F103034FEA2C
:1094F0008B02002501FB08F123F0030304330CEB7E
:109500008101AA4209D0B0F84060FC6A0E442C44A4
:1095100019440C350436A680F3E7009887F8339099
:1095200087F832A087F8308087F83100BDE8F88FDF
:10953000504905A04FF4B972BDE8F84F5CF03CB952
:109540003C164E2040014E2041535300122107008B
:10955000B0B55D4A926C52F820501DB195F83300B9
:10956000884201D20020B0BDF7F720F8044605F18B
:10957000140000F0B5FC05462046F7F71BF8284616
:10958000B0BD00BF3C164E2070B54F4A926C52F8E9
:10959000205055B34D4A95F8333010FB02104C491A
:1095A00095F83120B1F84010033222F00302401A3E
:1095B00095F8301002FB1100D91D21F00301043889
:1095C00090FBF1F0C1B2490051FA80F6F6F7EEFFD8
:1095D0000446E86A00EB860105F1140000F098FCEF
:1095E0002046BDE87040F6F7E5BF70BD3C164E2042
:1095F00040014E20B0B5344A926C52F8204084B1FC
:1096000094F8310088420CD3F6F7D0FF0546204687
:1096100000F066FC04462846F6F7CCFF0CB1A088A3
:10962000B0BD0020B0BD00BF3C164E20B0B5284BE9
:10963000264A10FB0212B3F84030D21A224B9B6C20
:1096400053F8205095F8313095F83000033323F06B
:10965000030392FBF3F2D4B2844205D3054A2046B9
:109660004FF4D1735CF0B2F804EB4400A96A01EB4B
:109670008000B0BD1221070070B5134A926C52F8F9
:109680002040FCB1114A10FB02101149B1F8401002
:10969000401A94F83110033121F0030190FBF1F0EE
:1096A000C1B2490051FA80F6F6F780FF0546A06A7C
:1096B00000EB8601204600F02BFC2846BDE87040F8
:1096C000F6F778BF70BD00BF3C164E2090F7FFFF45
:1096D00040014E2010B50D4C57F0EEFA28B101288C
:1096E00014BF04F5806404F50064206810BD00BF59
:1096F000B0B50446054D57F0DFFA28B1012814BF74
:1097000005F5806505F500652C60B0BD6400095065
:109710002DE9F84FF6F74AFF80463948394A3A4F63
:1097200000244FF0010A016801EA020909F1004230
:109730004260C1F30556052C12D88EB1F0070CD04B
:109740003D19A87D48B1E0B2F6F77AFD7968287432
:109750000AFA04F021EA0000786001347608EAE7AA
:109760004046F6F727FF29484FEA192500240DF156
:10977000010B0DF1020A0FF2A0098046112C28D826
:109780003DB3E80722D0E6B259463046F9F7D8FC97
:10979000E0B99DF80100022818D330465146F9F788
:1097A000EDFC0646404646450BD02EB918A049466A
:1097B00040F2323257F0BCFCBDF802103046F9F7E7
:1097C00087F8BDF802103046F9F7CCF801346D087F
:1097D000D4E7F6F7EBFE7D6800267E60F6F7EAFE3A
:1097E0000A4C052E09D845B1E80703D0B1B220468E
:1097F000F9F7B8F801366D08F3E7BDE8F88F00BF58
:109800002000045000FFFF03D8114E20B4B00450D4
:109810006770696F00000000636865636B5F777352
:10982000725F70696E00000010B5D0E9021282EA22
:109830000104A3B2002B18BF0123B4F5803F28BF59
:10984000022323B1012B04D1B0F9100010BD002078
:1098500010BD120C0B0CB2EB114F8FBFD01AD11AE6
:10986000B0F91000084410BD2DE9F843994615469B
:109870000F46044628B92B482BA140F23D1257F061
:1098800057FC2046FFF7D0FF20B3A368B4F910209F
:109890002168A84238BF0546ADB2A2EB134201EBE6
:1098A00013411FFA83F81E0CAA4215D938462A46DE
:1098B000F6F7B4FFF6F77AFE0746B9F1000F05D0C8
:1098C0002046FFF7B1FF401BC9F80000701948EAB5
:1098D000004020E0002522E03846F6F79FFFB4F96B
:1098E0001000811B78186A1A2168F6F797FFF6F7BF
:1098F0005DFE0746B9F1000F05D02046FFF794FF43
:10990000401BC9F80000218A7019401A4FF6FF71F8
:1099100048EA00404840A0603846F6F74BFE28462B
:10992000BDE8F8836323070063697263756C617235
:109930005F6275665F6765745F616E645F757064B2
:109940006174655F6C656E002DE9F04115468846CF
:10995000044620B91E481FA18C2257F0E9FBB4F938
:1099600010602046FFF760FF301A010415D081B265
:10997000A94238BF0546E7686068ADB2A6EB17425A
:1099800000EB17403E0CAA4209D941462A46F6F799
:1099900045FF7019C7EA004015E0002514E0414674
:1099A000F6F73CFFB4F91000801B08EB00012A1AFF
:1099B0006068F6F733FF218A7019401A4FF6FF717D
:1099C000C7EA00404840E0602846BDE8F08100BF9B
:1099D0006323070063697263756C61725F62756609
:1099E0005F707574000000000160704770B5144628
:1099F0000E46054620B90A480A496B2257F098FBE3
:109A0000002C04DC084807496C2257F091FB002029
:109A1000C5E90160E86024F00300288270BD00BF42
:109A2000632307006E2307005A23070010B50A4A74
:109A3000002008494FF0FF33102808BF10BD51F82F
:109A4000204042F8204001EB80040130C4F880300F
:109A5000F2E700BF00E100E0D8294E2010B50C4627
:109A600002464FF488500021012315F007F90470D5
:109A7000BDE8104010F0D6BFC088401AB0FA80F0A0
:109A80004009704710B50022062A04BF012010BD0E
:109A90008B5C845C01329C421CBF002010BDF3E74C
:109AA0000078044A010900F00F00515C105C084482
:109AB000C0B27047740007001144831801399842FE
:109AC00028BF704711F8012900F8012BF7E711446E
:109AD00083180139984228BF704711F8012900F80E
:109AE000012BF7E7B0B5584D05F1140000F0F8F977
:109AF0000446686918B9434801680520884734B1AD
:109B00000020616820602046BDE8B0400847B0BD35
:109B10000022C0E90021704710B580B90D4C0E49F4
:109B200003202268904722680C490520904722684C
:109B30000B490A2090474448283000F05EF9424C17
:109B4000204600F05AF904F11400BDE8104000F07E
:109B500054B900BF54004E20D99B0000E59A000084
:109B6000659B000070B5F6F721FD374E054606F1FE
:109B7000280000F0B5F90446B06A18B92148016818
:109B80000A2088472846F6F715FD34B100206168A1
:109B900020602046BDE87040084770BDF8B52A4DEA
:109BA0000446214605F1280000F016F960B955F881
:109BB000287FF6F7FBFC06462846214600F0A8F968
:109BC0003046F6F7F7FC07B1F8BD224801680A20D5
:109BD000BDE8F840084700BFB0B51B4D284600F06F
:109BE0007FF90446286818B90648016803208847A9
:109BF00034B10020616820602046BDE8B0400847CD
:109C0000B0BD00BF58004E2070B50C460546022876
:109C100004D3E7480D49B7225BF0CEFD206800B1C0
:109C200070BD05EB8500084901EB8006306820B95E
:109C300007480849405D0968884730462146BDE825
:109C4000704000F065B900BF88164E20C91E07009D
:109C50002AC6060074004E202DE9F0410E46044647
:109C6000F6F7A4FC804624B9F048E149D0225BF025
:109C7000A3FDDF4F002025462D68BDB1B54217D0AA
:109C800028682168814206D1A9B228143A46E12306
:109C90005BF09CFD286885422846EDD1A9B22814C6
:109CA0003A46E2235BF092FD2846E5E7002513E003
:109CB000014600284FF0010508BF214632680A60BE
:109CC0006168B14208BF6060A06821690138A06086
:109CD000814238BF084620614046F6F76BFC2846B3
:109CE000BDE8F081F8B517460E460446F6F75EFC6F
:109CF00005462CB9EE48BE494FF484725BF05CFD1A
:109D00002FB9EB48BA4940F209125BF055FD5EB13C
:109D10003068B84205D0F148B54940F215125BF001
:109D20004BFD386830600BE02068B84206D0EB4845
:109D3000AF494FF487725BF03FFD206800682060F8
:109D40006068B84208BF6660A06821690138A060F9
:109D5000814238BF084620612846BDE8F840F6F742
:109D600029BC00BF2DE9F0410D46002916460F46DB
:109D7000044608BF0546F6F719FC2D6880462CB945
:109D8000EC489B494FF498725BF016FD2EB9F448ED
:109D9000974940F231125BF00FFD3846002F08BFA3
:109DA0002046316801606068B0424FF0000008BF93
:109DB0006760306025B1A0682D680138A060F9E7C0
:109DC000A0682169814238BF084620614046BDE84D
:109DD000F041F6F7EFBB00BFB0B50C460546F6F70D
:109DE000E5FB2D68A54218BF002DFAD1F6F7E2FB7E
:109DF000281BB0FA80F04009B0BD00214FF0FF32BF
:109E0000C0E90011C0E9021102617047F8B51646B9
:109E10000F460546F6F7CAFB04462EB9F1487449C9
:109E20004FF4DA725BF0C8FC6FB1386800B96E604D
:109E300030603E60D5E902010130814298BF0146A1
:109E4000C5E9020103E02846314600F061F82046EA
:109E5000BDE8F840F6F7AEBBF8B516460F46054626
:109E6000F6F7A4FB04462EB9F44861494FF4C572D5
:109E70005BF0A2FCA7B100202A4601461068B84258
:109E800002D000280246F8D151B10E603060D5E909
:109E900002010130814298BF0146C5E9020103E099
:109EA0002846314600F086F82046BDE8F840F6F72F
:109EB00081BB00BF9BB1B0B501240160A34204D0B7
:109EC0008D1801340D602946F8E74FF0FF32C0E9E4
:109ED0000113C0E9033200200860BDE8B0407047BC
:109EE000B0B50546F6F762FB2C6864B121682960BD
:109EF00009B900216960A9682A690139A9608A4203
:109F000038BF11462961F6F755FB2046B0BD000069
:109F100070B50E460446F6F749FB054626B9F348E8
:109F200033495A225BF048FC206808B1606800E0C1
:109F300020460660002066603060D4E902010130EE
:109F4000A060814288BF0846E0602846BDE87040B6
:109F5000F6F730BBF8B517460E460446F6F726FB73
:109F6000054626B9EC48224976225BF025FC27B944
:109F7000E9481F4977225BF01FFC206808B1606840
:109F800000E02046066000206760386026B1A068C7
:109F900036680130A060F9E7D4E90201814288BF48
:109FA0000846E0602846BDE8F840F6F703BB00BF6E
:109FB000F41B070070B50E460446F6F7F7FA05469F
:109FC00026B9D5480A499D225BF0F6FB206800B906
:109FD000666026603060D4E902010130814298BF9A
:109FE0000146C4E902012846BDE87040F6F7E2BA2E
:109FF000D31E0700B0B50446F6F7D8FA002524684A
:10A000000CB10135FBE7F6F7D5FAA8B2B0BD0000F8
:10A01000B0B50C46054621B9044805A1A3225BF062
:10A02000CBFBB5FBF4F000FB1450B0BDF41B0700F4
:10A03000636F5F6D6174682E68000000B0B50C46F8
:10A04000054621B9044805A1A3225BF0B5FBB5FB89
:10A05000F4F000FB1450B0BDF41B0700636F5F6D9C
:10A060006174682E68000000B0B50C46054621B941
:10A07000044805A1A3225BF09FFBB5FBF4F000FBB5
:10A080001450B0BDF41B0700636F5F6D6174682EE0
:10A0900068000000B0B50C46054621B9044805A18A
:10A0A000A3225BF089FBB5FBF4F000FB1450B0BDBC
:10A0B000F41B0700636F5F6D6174682E6800000019
:10A0C000B0B50C46054621B9044805A1A3225BF0B2
:10A0D00073FBB5FBF4F000FB1450B0BDF41B07009C
:10A0E000636F5F6D6174682E68000000B0B50C4648
:10A0F000054621B9044805A1A3225BF05DFBB5FB31
:10A10000F4F000FB1450B0BDF41B0700636F5F6DEB
:10A110006174682E68000000B0B50C46054621B990
:10A12000044805A1A3225BF047FBB5FBF4F000FB5C
:10A130001450B0BDF41B0700636F5F6D6174682E2F
:10A1400068000000B0B50C46054621B9044805A1D9
:10A15000A3225BF031FBB5FBF4F000FB1450B0BD63
:10A16000F41B0700636F5F6D6174682E6800000068
:10A17000B0B50C46054621B9044805A1A3225BF001
:10A180001BFBB5FBF4F000FB1450B0BDF41B070043
:10A19000636F5F6D6174682E68000000B0B50C4697
:10A1A000054621B9044805A1A3225BF005FBB5FBD8
:10A1B000F4F000FB1450B0BDF41B0700636F5F6D3B
:10A1C0006174682E68000000B0B50C46054621B9E0
:10A1D000044805A1A3225BF0EFFAB5FBF4F000FB05
:10A1E0001450B0BDF41B0700636F5F6D6174682E7F
:10A1F00068000000B0B50C46054621B9044805A129
:10A20000A3225BF0D9FAB5FBF4F000FB1450B0BD0B
:10A21000F41B0700636F5F6D6174682E68000000B7
:10A22000B0B50C46054621B9044805A1A3225BF050
:10A23000C3FAB5FBF4F000FB1450B0BDF41B0700EB
:10A24000636F5F6D6174682E68000000B0B50C46E6
:10A25000054621B9044805A1A3225BF0ADFAB5FB80
:10A26000F4F000FB1450B0BDF41B0700636F5F6D8A
:10A270006174682E68000000B0B50C46054621B92F
:10A28000044805A1A3225BF097FAB5FBF4F000FBAC
:10A290001450B0BDF41B0700636F5F6D6174682ECE
:10A2A00068000000B0B50C46054621B9044805A178
:10A2B000A3225BF081FAB5FBF4F000FB1450B0BDB3
:10A2C000F41B0700636F5F6D6174682E6800000007
:10A2D000B0B50C46054621B9044805A1A3225BF0A0
:10A2E0006BFAB5FBF4F000FB1450B0BDF41B070093
:10A2F000636F5F6D6174682E68000000B0B50C4636
:10A30000054621B9044805A1A3225BF055FAB5FB27
:10A31000F4F000FB1450B0BDF41B0700636F5F6DD9
:10A320006174682E68000000B0B5094B0021092255
:10A33000B2F1FF3FDCBFC8B2B0BD845C013A250971
:10A3400004F00F041C5D5D5D21442944F0E700BF6B
:10A350007400070080B5F6F74FFAC0B280BD80B533
:10A36000F6F74AFAC0B280BD80B5F6F745FAC0B23A
:10A3700080BD80B5F6F740FAC0B280BD80B5F6F773
:10A380003BFAC0B280BD80B5F6F736FAC0B280BDE8
:10A3900080B5F6F731FAC0B280BD80B5F6F72CFA79
:10A3A000C0B280BD80B5F6F727FAC0B280BD80B5D7
:10A3B000F6F722FAC0B280BD80B5F6F71DFAC0B23A
:10A3C00080BD80B5F6F718FAC0B280BD80B5F6F74B
:10A3D00013FAC0B280BD80B5F6F70EFAC0B280BDE8
:10A3E00080B5F6F709FAC0B280BD80B5F6F704FA79
:10A3F000C0B280BD80B5F6F7FFF9C0B280BD80B5B0
:10A40000F6F7FAF980B280BD0178427841EA02217C
:10A410008278C07841EA024141EA006070470178E1
:10A42000427841EA02218278C07841EA024141EA59
:10A430000060704702090121012A88BF010908460E
:10A4400070470000FEB5044668465CF019FB6B4D92
:10A45000029E6868371AB7F1FF3F05DC7A487B49EE
:10A460004FF4C4725BF0A8F94FF47A700E492A8950
:10A47000B7FBF0F000FB017111448AB22981B2F5FB
:10A480007A7F22BFA1F57A7129810130E968CA4338
:10A49000904202D92A7C01322A7408446E60E86036
:10A4A0002969C4E90001FEBD18FCFFFF10B586B0A4
:10A4B00070B9524C00202074E060208103A85CF049
:10A4C000DFFA05980849606006480268072090474F
:10A4D0004A480021016001A8FFF7B4FF00F006F828
:10A4E00006B010BD54004E205DA5000043480C4945
:10A4F00002688AB1C3689268D21A012A08DB094B44
:10A500009A4209DC4FF47A715143B1F57A7F03D84E
:10A510000548016807200847406808445CF002BC11
:10A5200000E9A4359FBB0D0074004E20334B002280
:10A5300011461A6862B182421346F9D12F4A0029A6
:10A5400018BF0A460368B1FA81F14909136000E0B7
:10A5500000214FF0FF320260084670477CB50F487B
:10A560000168072088476C462046FFF76BFF234DA4
:10A570000026286868B18168009A891A002908DCD9
:10A58000D0E900120660296090472046FFF75AFF85
:10A59000EFE7BDE87C40FFF7A9BF00BF58004E20A1
:10A5A000B0B50C46054629B9F54828494FF4DF7285
:10A5B0005BF002F94FF0FF30C5E90004B0BD00BF09
:10A5C000B0B50446006801300EBF00202046FFF7FA
:10A5D000ADFF0A490022096829B18B68A568EB1A0A
:10A5E00001D40A46F7E7054B002A18BF13461C6042
:10A5F0002160B2FA82F149090843B0BDC4164E2069
:10A6000010B50446806821690844A0602046FFF721
:10A61000D7FF08B1FFF76AFFE1682046BDE81040A8
:10A6200008470000B0B50D46044629B9D44807498B
:10A6300040F2E3125BF0C0F805484FF0FF31E560EF
:10A64000C4E90010B0BD00BFF41B0700DD1E070009
:10A6500001A60000002908BF01216FF000429142CD
:10A6600028BF11460161AFF30080BCB505466846BE
:10A670000C46FFF7E7FE00982044A8602846FFF745
:10A680009FFF08B1FFF732FFBCBD002908BF0121C1
:10A690006FF00042914228BF1146FFF7E6BFE0B5D8
:10A6A0000168013109D0FFF741FF30B16846FFF77B
:10A6B000C9FEBDE88C40FFF719BF8CBD2DE9F04FF6
:10A6C00087B0109C002989460192054698460E469F
:10A6D0000746069418BF4FF00109002818BF01254E
:10A6E0002CB9A748A7494FF49F725BF065F8207812
:10A6F0003E2805D03C2801D101340694012002E017
:10A70000013400200694029006EB08004FF0000B85
:10A710000097049005EA090001254FF00009059013
:10A72000384600200390207880B9BBF1000F00F07C
:10A73000FC800399A9F101095C46CDF818B056FADE
:10A7400081F0C9B24942013800EA0106BBF1000FAD
:10A7500003D05FEA096000F0E880207830380928EB
:10A7600004D806A800F0EEF8069C054604F1010A9C
:10A7700001210320CDF818A094F80080A8F142022E
:10A780000C2A29D8DFE802F051DA3DDADA5007DA8C
:10A79000DADA62DA0700A8B2059A711C21F0010129
:10A7A0004500002A66D0049A4E19964200F2C380F2
:10A7B000029A22B138462A46F6F730F85BE00028C4
:10A7C00000F08E8031F8022B013812BA130C120EF1
:10A7D0003B707A700237F2E7B8F1530F06D0B8F148
:10A7E0006E0F22D0B8F1730F40F0A8800498741C4B
:10A7F000844200F2A080B8F1530F3ED196F8009049
:10A800003FE00599F01C20F00300002976D0049A5F
:10A81000011D8A42C0F08F80029A0168002A68D028
:10A820000A0A3970090C67E000210598ADB2E8B357
:10A83000049A701990427ED802980843012830D1BA
:10A84000384631462A46F5F7E9FF2FE0A8B28500E1
:10A85000F01C20F00301059800283ED004984E1902
:10A86000864268D8029800284CD038462A46F5F728
:10A87000D5FF33E04E192F4433E03046FFF710F98F
:10A880008146059818B130783870DDF818A09AF82C
:10A890000000312812D0342812D032284DD10221A4
:10A8A0000FE0384631462A46FFF706F92E442F447A
:10A8B000B8F16E0F1BD116F8015C21E0012100E018
:10A8C000042160180AF1010B039149420137013854
:10A8D000CDF818B000EA010612E04E192F4406E048
:10A8E0000E46B8F14E0F02D136F8025C08E00125A1
:10A8F00006E00A0C3A700A0A7A70B9700337061D2E
:10A90000069C10E700203A1885420AD00B58043004
:10A910001BBA1C0A137054701C0C1B0E9470D3705D
:10A92000F1E70E1801251746EAE700980199381A51
:10A930000880002002E0012000E0032007B0BDE80D
:10A94000F08F00BF10B5044620B90D480D49E5222F
:10A950005AF032FF2068411C2160007830380A78B4
:10A96000303A092A09D84A1C00EB80002260097895
:10A9700001EB400011463038F1E780B210BD00BF56
:10A98000F41B0700E71E07002DE9F04F87B00E46C5
:10A99000109F019211880446002E3246069718BF78
:10A9A0000122002818BF01243D783E2D05D03C2D02
:10A9B00001D101370697012502E0013700250697EE
:10A9C00022400295334401444FF0010A4FF0000841
:10A9D00005464FF0000C002400900391049305926B
:10A9E0000146397879B9B8F1000F00F03B8155FA8A
:10A9F00084F0E1B2ACF1010C4746CDF81880494231
:10AA0000013800EA0105B8F1000F03D05FEA0C61DC
:10AA100000F0288139783039092906D806A8674618
:10AA2000FFF790FFBC46069F824607F1010901210E
:10AA30000320CDF8189097F800B0ABF142020C2A31
:10AA40003AD8DFE812F06700100148001001100149
:10AA500066000D00100110011001820010010D00B0
:10AA60001FFA8AF0059B691C274621F0010142006C
:10AA7000002B00F08880049BB4189C4200F20481F3
:10AA8000039B8D189D4200F20181029B33B1084661
:10AA900031466646F5F7C2FEB446B8E0002800F03D
:10AAA000B480327873780138023642EA032212BA4F
:10AAB000120C21F8022BF1E7BBF1530F66D0BBF16A
:10AAC0006E0F27D0BBF1730F40F0CD803046FEF7FC
:10AAD000E7FF84465CE00599E81C20F003000029AC
:10AAE00000F0A580049AF11C914200F2C780039AFD
:10AAF000011D8A42C0F0C480317873782546B2784F
:10AB0000029C1B02002C00F08D80194341EA024197
:10AB10008BE0002105981FFA8AF700285BD0049A81
:10AB2000F019904200F2AA80039AE819904200F2CC
:10AB3000A78002980843012844D1284631463A4666
:10AB4000A1466446F5F76AFE43E01FFA8AF08200E8
:10AB5000E81C20F003010598002851D004982746EE
:10AB6000B418844200F2908003988D18854200F258
:10AB70008D80029800285ED0084631466646F5F77B
:10AB80004DFEB44649E0B4188D1840E096F800C078
:10AB9000059858B10499701C88426FD80399681CB5
:10ABA00088426DD830782870DDF8189099F8000048
:10ABB00001350136312816D0342816D0322861D11B
:10ABC000022413E0284631463A46A1466446FEF781
:10ABD00073FFA4464C463E443D44BBF16E0F11D179
:10ABE00016F801AC25E0012400E00424281909F13D
:10ABF000010861420138CDF8188000EA010518E02B
:10AC000016448D184FF0010A13E00D463446BBF18F
:10AC10004E0F02D135F802AC01E04FF0010A264692
:10AC20003C4606E043EA014111432C4601600336ED
:10AC3000051D069FD5E60020331882420DD01C78F2
:10AC40005D7844EA05249D78DB7844EA054444EACB
:10AC500003631BBA0B500430EEE70D184FF0010AE6
:10AC60001E46DDE700200099019A691A11800499B7
:10AC70008E4288BF012007B0BDE8F08F0120F2E7C7
:10AC80000220F0E70320EEE7012000E002200D465D
:10AC9000E9E70A0A017042700A0C090E8270C1705D
:10ACA00070470A0A017042700A0C090E8270C17066
:10ACB00070470A0A017042700A0C090E8270C17056
:10ACC00070470A0A017042700A0C090E8270C17046
:10ACD00070470A0A017042700A0C090E8270C17036
:10ACE0007047000000B1704702490820012214F0AB
:10ACF0003BB900BFE0C306002DE9F84F2DED0E4B28
:10AD0000B0EE408A56EC107B20EAE0708A460021C3
:10AD10001C469146F0EE608A9FED8B0B1160314628
:10AD20004E28A8BF4E20019058EC105B3846434691
:10AD30002A46F5F7A6FF60B99FED850B01203A463C
:10AD40003346C9F8000051EC100BF5F77DFE41ECDD
:10AD5000180BB0EE480ADDF860B006A8F0EE680AFD
:10AD600060F086FB9DED06ABB0EE408A2A46434676
:10AD7000F0EE608A51EC1A0BF5F79EFF002852D1D5
:10AD80009FED750BCDE902584FF0000BCDF800A0F8
:10AD900056EC105B9FED740B58EC107B1BF15000D0
:10ADA0002DD0DDE902235AEC1A9B51464846F5F7AF
:10ADB00083FF20BB484651462A463346F5F7BCFE82
:10ADC00041EC100B06A860F053FB51EC100BB0EEF9
:10ADD000409A3A464346F0EE609AF5F794FD2A46CB
:10ADE0003346F5F737FEF5F791FF04EB0B013030F2
:10ADF0009DED06ABABF1010B81F84F00CEE7DDF81E
:10AE000000A0CBF1000500208DED049B854206D00B
:10AE10002118594491F8501021540130F6E7DDF81B
:10AE200060B02E462CE051EC180B2A464346F5F74D
:10AE3000F2FE18BB9FED480B012559EC108B9FEDDE
:10AE4000480B56EC107B51EC180BB0EE489A42467A
:10AE50004B46F0EE689AF5F7FDFD3A46334641EC75
:10AE6000180BF5F7F3FE013D0028ECD18DED048BB6
:10AE7000B0EE498A0026F0EE698A01E0002500263E
:10AE8000BBF1000FDDF804B0CAF80050A04608BFBF
:10AE9000AB44BBF1000F29D49FED2F0B04EB0B0843
:10AEA0000DF1100957EC105B5E451ADC4F2E18D8D7
:10AEB00051EC180B2A463B46F5F7CCFD41EC100B44
:10AEC000484660F0D5FAB0EE408AF0EE608A9DED1B
:10AED000040B51EC100BF5F719FF3030A05501367B
:10AEE000E2E7BBF1500F0ADB04F14F08002088F8BD
:10AEF00000002046BDEC0E4B01B0BDE8F08F98F885
:10AF00000000189D31214246431D302088F8003052
:10AF1000DBB23A2BEAD3A242107004D912F8013DF9
:10AF2000013313700DE01170DAF8003003F1010302
:10AF3000CAF800302DB9A04588BF88F8000008F194
:10AF400001081378E4E700BF0000000000000000E3
:10AF5000000000000000008000000000000024400D
:10AF6000000000000000F03FB81E85EB51B89E3F86
:10AF7000BFB504462A4890F8D400C0070CD00A4850
:10AF8000CDE900120DF10F0201212346056835209D
:10AF9000A8479DF80F1019B1B4F1F20018BF1220A4
:10AFA000C0B204B0B0BD00BF18024E20BCB504460C
:10AFB0001B4890F8D40080070AD50A480DF1070213
:10AFC0000221234605683520A8479DF8070040B1B7
:10AFD000204613F075F9204612F028FC204654F064
:10AFE000B8F9BCBD0C024E20BCB504460C4890F824
:10AFF000D40040070DD50B480DF10702042123466C
:10B0000005683520A847002818BF01209DF80710C3
:10B0100021B10548201AB0FA80F04009BCBD00BF3C
:10B0200040214E2008024E2084C7060010B5044679
:10B0300030B906490620012213F096FF00F026F8E9
:10B040002046BDE8104000F091B800BFECC30600F8
:10B0500010B504464FF4885000214FF611420123E9
:10B0600013F00CFEB4F1A53F04D0B4F1C33F03D1FB
:10B07000002100E003210170BDE810400FF0D2BCB8
:10B0800001490880704700BFF00F4E201CB5042016
:10B090001C4C0DF107018DF807004E48224603684D
:10B0A0003220984708B10248206000F003F81CBD28
:10B0B0001A031E01F8B50425F5F778FA114E044677
:10B0C000FF203F2D02D070550135FAE700270EA56D
:10B0D000042F0ED0F05DFF2809D03B2805D33B217B
:10B0E0002A4651235AF072FBF05D30440771013754
:10B0F000EEE70020FEF7FCFA2046BDE8F840F5F741
:10B1000059BA00BFB00F4E206462675F73776469FD
:10B1100061672E6300000000B0B595480425817872
:10B12000C2780379447905710025457141EA02210D
:10B13000CE4A41EA0341536841EA046119400B0ACF
:10B140008171C3710B0C037203231160090E4570EA
:10B15000C3704172EA4801680220BDE8B040084768
:10B16000E5494A6810400860704700BFE0B5042117
:10B170008DF8071048B91448144902680220904716
:10B18000ED481349416000F0B9F812480DF107018C
:10B190000DF1030203682F20984708B100200DE04D
:10B1A0009DF803009DF8041040EA01209DF8051069
:10B1B00040EA01409DF8061040EA0160EC49086051
:10B1C00000F062FD8CBD00BF54004E20D9B10000DC
:10B1D000FFEF1900640F4E2080B50448016802207B
:10B1E0008847BDE8804000F08BBD00BF58004E206E
:10B1F000FEB50546F5F7DAF9594E0446F1680878C8
:10B20000552818D1708A77684A1904323844824226
:10B2100001D20F4603E0B2688A4208BFB7603978AE
:10B22000552908D179190431814204D2B068874286
:10B230000CD281420AD3307800250F281CBF013080
:10B2400030702046F5F7B6F92846FEBD280AF760AB
:10B250007D70AA21B870281F787139700121000A09
:10B260003971B871308A01303082F871000A387251
:10B2700068465BF005FC0098010A7872B972010C0F
:10B28000F972010E39733178090141EA106038739F
:10B2900000203070F068284407F10D05C11CF160F2
:10B2A0005521C170CDE700BF70B5F5F77FF9114D9D
:10B2B0000446A8680178552905D12A490EA0F02234
:10B2C0005AF07AFAA86855212A1D017007CA4B78EE
:10B2D0008E7843EA0623194411F8033F914208BFD0
:10B2E0000846552B18BF0846A8602046BDE87040A8
:10B2F000F5F760B93C104E2041535300B0B5184CDF
:10B300000025C4E90155C4E90355FCF72FFD016987
:10B31000808C258260825520C4E90111E1600870AB
:10B32000B0BD00BF70B5F5F741F90D4E0446D6E942
:10B3300001158D4203D3708A0844854205D3094A1A
:10B340002846DF235AF042FAB56815F8016B20460B
:10B35000F5F730F9AA2E18BF0025284670BD00BFAA
:10B360003C104E20F21E070001480230704700BF1B
:10B37000E4164E2010B50446DA488078400716D50A
:10B3800060880D3080B2FFF733FF80B13521924BDA
:10B3900001706288A0F80120033021881943F5F775
:10B3A0003DFAE24801680220BDE81040084710BDA0
:10B3B0002DE9F0410446DC488078800728D586488E
:10B3C0004E4F0D46804640EA01100F21861C7889B9
:10B3D000305A01EB1020FFF70BFFC8B104702901B0
:10B3E00008F104047A892143B35A8C5A1A0AA0F846
:10B3F0000140A0F8032005307B89C95A41EA0801C1
:10B40000F5F70CFAE74801680220BDE8F04108476B
:10B41000BDE8F081F8B50646DF488078800724D57E
:10B4200001F10E0014460D46FFF7E2FEE8B10746B3
:10B430003320DB493870C6EBC600098901EB800078
:10B440000B49405A00F00F007870304603F0E4F8E2
:10B45000B870381D21462A46FD70F5F7DFF9EA4835
:10B4600001680220BDE8F8400847F8BDDC164E2010
:10B4700004004F202DE9FC410646E0488078800713
:10B4800038D513200D46FFF7B3FE98B30446342099
:10B49000DB49207041EA0610DA4E88467189475A26
:10B4A000284602F0BDFF7188942207F00F0747EA93
:10B4B000002015FB02114144CA88130A8DF80620AA
:10B4C0008DF805300D892E0A8DF804508DF8036033
:10B4D0004989A4F80100E27023716571A671080A18
:10B4E000E17120728DF802108DF80100E7480168C3
:10B4F00002208847BDE8FC81DC164E2040014E202A
:10B5000074004E2010B50446DF480078000611D5BF
:10B510009F20FFF76DFE68B11121942200F8011BF6
:10B520009E492143F5F77AF9E94801680220BDE810
:10B530001040084710BD00BFDC164E2010B5044671
:10B54000E2484078C00711D06B20FFF751FE68B188
:10B550001221602200F8011B90492143F5F75EF9A2
:10B56000E94801680220BDE81040084710BD00BF4F
:10B57000DC164E2010B50446E2480078C0060AD515
:10B580000B20FFF735FE30B10470F048016802204F
:10B59000BDE81040084710BD10B50446EA480078E1
:10B5A000400618D51020FFF723FEA0B10D214470EE
:10B5B0007A4A01702101515A8170090AC17042EA28
:10B5C000041109890171090A4171F24801680220D8
:10B5D000BDE81040084710BD00004F20B0B505463B
:10B5E000EB480078400612D50F200C46FFF700FE0E
:10B5F00068B1290A457081700E21C4700170210A5A
:10B600000171E44801680220BDE8B0400847B0BDC0
:10B61000F8B50646F4480078400617D514201446BD
:10B620000D46FFF7E5FD88B107461020314638701A
:10B63000781CFFF72EFBB81D21467D71FFF729FB13
:10B64000EA4801680220BDE8F8400847F8BD00BF9D
:10B65000F8B50646F5488078C00722D002F1100000
:10B660001C4615460F4680B2FFF7C2FDC8B1390A25
:10B670008770012E2A46C1704FF00201057141709A
:10B680004FF0620108BF61210170290A4171063043
:10B690002146F5F7C3F8F84801680220BDE8F840F4
:10B6A0000847F8BD70B50646F2488078C00718D044
:10B6B00001F10F0014460D46FFF79AFD88B140F2E4
:10B6C0006111867005712A460180310AC17005300A
:10B6D0002146F5F7A3F8F94801680220BDE870405B
:10B6E000084770BDDC164E20F8B50646F248807853
:10B6F000C00717D002F10E001C4615460F46FFF793
:10B7000077FD78B10421C570877006702A464170B4
:10B7100004302146F5F782F8E84801680220BDE8C8
:10B72000F8400847F8BD00BFDC164E2074004E20DC
:10B730002DE9FE430546E0488078800729D514208E
:10B740000C46FFF755FD20B3064629202D49FA4A3D
:10B750003070C5EBC50044EA02079146098942EA08
:10B7600080000844B0F80480284602F055FFB988EC
:10B7700054F80920B07008F00F007070F048C6F857
:10B780000320A6F80710ADF8081001920168022006
:10B790008847BDE8FE8300BFDC164E2000004F2026
:10B7A00040014E2074004E202DE9F0410646F1483C
:10B7B0008078800720D5132014460D46FFF718FD2A
:10B7C000D0B107463020DD4938700D4840EA0610F8
:10B7D000498930F80180304602F022FEB87008F046
:10B7E0000F00C7F80350A7F807407870F6480168C3
:10B7F0000220BDE8F0410847BDE8F081DC164E208C
:10B8000002004F2040014E2074004E20B0B50D467E
:10B8100004460A2906D8012040F20C41A8400842FB
:10B8200000D0B0BDE74800784007FAD50C20FFF7FC
:10B83000DFFC0028F5D045700470F748016802204D
:10B84000BDE8B040084700BFF8B50746F0480078AB
:10B85000C00718D012201D4614460E46FFF7C8FC3C
:10B8600088B1390A47708170310AC67001710121AF
:10B870004471C5710170210A8171E7480168022095
:10B88000BDE8F8400847F8BDDC164E2074004E2095
:10B89000B0B50446DE480078C00715D0658905F1CB
:10B8A000130080B2FFF7A4FC70B105F1080200217B
:10B8B00000F8011B92B2211DF4F7B0FFD6480168D1
:10B8C0000220BDE8B0400847B0BD00BFDC164E20E6
:10B8D00074004E2070B50646EA488078C00610D540
:10B8E0000E2015460C46FFF783FC50B1210A447028
:10B8F0000670C5708170C84801680220BDE87040BC
:10B90000084770BDDC164E2074004E20F8B59A42F0
:10B9100019D00646DB484078400614D510201D4655
:10B9200014460F46FFF764FC68B123214670C770C8
:10B930000170310A817045710471B74801680220B5
:10B94000BDE8F8400847F8BDDC164E2074004E20D4
:10B95000F8B50746CB484078400717D502F10E00EE
:10B960001C4615460E46FFF743FC78B1310A467077
:10B970000770C5702A46817004302146F4F74EFFE7
:10B98000A54801680220BDE8F8400847F8BD00BF9F
:10B99000DC164E2074004E20F8B50746B9484078B2
:10B9A00000071FD502F110001C4615460E46FFF792
:10B9B0001FFCB8B1310A46700770C5706A1E8170ED
:10B9C000217801F00101017114F8011B490841714E
:10B9D00006302146F4F722FF8F4801680220BDE8B7
:10B9E000F8400847F8BD00BFDC164E2074004E201A
:10B9F000F8B50746A3484078000715D50F201C4628
:10BA000015460E46FFF7F4FB70B1310A4670077019
:10BA1000C5707F2D817018BF002404717E480168B5
:10BA20000220BDE8F8400847F8BD00BFDC164E20F4
:10BA30002DE9F041064693480078000717D51420F9
:10BA4000984615460F46FFF7D3FB80B10446477072
:10BA5000067002302946FFF71CF9A01D4146FFF78A
:10BA600018F96D4801680220BDE8F0410847BDE8BB
:10BA7000F08100BFDC164E2074004E2070B50546E4
:10BA800080484078800715D5292014460E46FFF7D8
:10BA9000AFFB78B11321867045701C2201702649D6
:10BAA00003302143F4F7BAFE5B4801680220BDE889
:10BAB0007040084770BD00BFDC164E2074004E2059
:10BAC000FEB506466F488078800733D5887F0C46E0
:10BAD0001530FFF78DFB68B30546312016492870F5
:10BAE000C6EBC60041EA80001449098908448788EA
:10BAF000304602F091FD23896668A27FA17DA8707F
:10BB000007F00F006870C5F80360A5F80730697288
:10BB1000AA720196ADF8083094F82200218C0144F5
:10BB200005F10B00C2F24F01F4F778FE3A480168C4
:10BB300002208847FEBD00BF00004F2040014E207C
:10BB400074004E20B0B505464E48407880060FD5AB
:10BB50000F200C46FFF74CFB50B100F8015B21466B
:10BB6000FFF797F82C4801680220BDE8B04008476D
:10BB7000B0BD00BFDC164E20F8B5064641484078FF
:10BB800080061DD53C2014460D46FFF731FBB8B1A9
:10BB900007461D2031463870781CFFF77AF8781D6B
:10BBA0002146FFF776F807F10A00214628227D7228
:10BBB000F4F734FE184801680220BDE8F840084751
:10BBC000F8BD00BFDC164E2074004E2070B5044650
:10BBD0002C484078800619D51820FFF709FBA8B13A
:10BBE000054621200B4E21462870681CB047A07ED8
:10BBF0006871A81D6169B047616805F10A00B04726
:10BC0000054801680220BDE87040084770BD00BFCC
:10BC1000DC164E2093AC000074004E202DE9F84352
:10BC2000044618480078800629D5DDF820802520B4
:10BC3000994616460D46FFF7DBFA00B30746047037
:10BC400028465C21F4F754FE411C781CF4F738FEBA
:10BC5000300A7E744946B87407F11300FFF719F8EB
:10BC600007F117004146FFF714F8F4F79FFC04466C
:10BC700000F046F82046BDE8F843F4F79BBCBDE869
:10BC8000F88300BFDC164E2021480021C0F80610C2
:10BC9000C0F802104FF481710180704710B51C4C40
:10BCA0002078012806BF01206070FFF7FDFA02200E
:10BCB0002070BDE8104000F001B800BF10B5144C72
:10BCC000607850B1FFF72EFBB0B10178427841EABD
:10BCD00002214A1EC11C002006E02079617940EA59
:10BCE0000120E11CC21C0120044B207092B20620EE
:10BCF000BDE8104004F022BA10BD00BF9DBC00009A
:10BD000003480078022808BFFFF7D8BF704700BF7C
:10BD1000E4164E2000210022092908BF5DF002BB75
:10BD200050F821305FEA52024FEA330240F82120F6
:10BD300003F001020131EFE72DE9F04786B0DFF8AB
:10BD4000588598F89800C0070BD0DFF8500502AA74
:10BD500001210368262098479DF80800002800F07C
:10BD6000978259F049FDDFF8886EB078FF2809D036
:10BD7000FDF7B0FCB1780822C90002FA01F10843CE
:10BD8000FDF7B6FCDF4D6F68B8061DD5B07EFF2805
:10BD900009D0FDF79FFCB17E4022C90002FA01F1F3
:10BDA0000843FDF7A5FC2020A8605AF025FFB07ECF
:10BDB000FF2809D0FDF78EFCB17E4022C90002FAAF
:10BDC00001F18843FDF794FC78061DD5B07EFF286D
:10BDD00009D0FDF77FFCB17E0422C90002FA01F10F
:10BDE0000843FDF785FC4020A8605AF095FEB07E20
:10BDF000FF2809D0FDF76EFCB17E0422C90002FACB
:10BE000001F18843FDF774FCF80700F0A180B07ED3
:10BE1000FF2809D0FDF75EFCB17E0122C90002FABD
:10BE200001F10843FDF764FC0120DFF87444A860C9
:10BE30002078C00702D15CF0C5F97CE098F89D003D
:10BE400040070BD5DFF8540402AA4FF48061036861
:10BE5000272098479DF8080000286CD07078FF28AC
:10BE600009D0FDF737FC71780422C90002FA01F10C
:10BE70000843FDF73DFC02A85AF002FE286820F0B6
:10BE80000100286098F89B0040070BD5DFF80C04F0
:10BE90000DF117024FF080610368262098479DF846
:10BEA000170040B1206A9849984A5050606AC5F816
:10BEB000F403E06928606068411C0CD00299081AFC
:10BEC000934920F07040884283BF286840F02000EA
:10BED00028605AF091FE2069411C0CD00299081A82
:10BEE0008B4920F07040884283BF286840F04000B2
:10BEF00028605AF011FEA06A411C0CD00299081A61
:10BF0000834920F07040884283BF286840F0800059
:10BF100028605AF0E1FE01205AF0CEFC7078FF282C
:10BF200009D0FDF7D7FB71780422C90002FA01F1AC
:10BF30008843FDF7DDFBB07EFF2809D0FDF7CAFB83
:10BF4000B17E0122C90002FA01F18843FDF7D0FB5E
:10BF500038061DD5B07EFF2809D0FDF7BBFBB17EAA
:10BF60000222C90002FA01F10843FDF7C1FB80205B
:10BF7000A8605AF0B1FEB07EFF2809D0FDF7AAFBF9
:10BF8000B17E0222C90002FA01F18843FDF7B0FB3D
:10BF900038072FD5B07EFF2809D0FDF79BFBB17E77
:10BFA0002022C90002FA01F10843FDF7A1FB082095
:10BFB000A86098F89B00C00609D5B84802AA4FF0BF
:10BFC00080510368262098479DF8080028B128680A
:10BFD00020F0080028605BF06DFDB07EFF2809D0DE
:10BFE000FDF778FBB17E2022C90002FA01F18843F7
:10BFF000FDF77EFB38041ED5B07EFF2809D0FDF783
:10C0000069FBB17E8022C90002FA01F10843FDF705
:10C010006FFB5CF047FA4FF40040A860B07EFF2849
:10C0200009D0FDF757FBB17E8022C90002FA01F169
:10C030008843FDF75DFBB80740F1DE80B07EFF2846
:10C0400009D0FDF747FBB17E0822C90002FA01F1D1
:10C050000843FDF74DFB0220A86098F89D00C0073B
:10C060000BD08E4802AA4FF48071036827209847AE
:10C070009DF80800002800F0B2808B48AA460468AA
:10C080007078FF2809D0FDF725FB71780122C900DF
:10C0900002FA01F18843FDF72BFB02205AF00CFC59
:10C0A00001205AF025FC98F89A00C00710D07F486C
:10C0B00002AA4FF4803123460568794800F5E870FC
:10C0C00000902620A84705469DF80800002848D083
:10C0D0007748844204D377487749E02259F06CFBD3
:10C0E00054F0EEFDB0B16E4904EBC400D1F8D0219C
:10C0F0001044C2B2C1F8D0213D21614301EB1025AB
:10C100002FE000BF180009504CFEFFFFC009095086
:10C11000FEFFFF0754F0A6FD05465AF025FBA4FBE1
:10C1200000014FF064090023A0FB090201FB092173
:10C1300005EB4502D200F4F72DFB642200230446F0
:10C14000F4F728FB054600FB19415548D0F8D021EB
:10C1500011446429C0F8D01103D364390135C0F803
:10C16000D01140F271205346B5FBF0F1484301F184
:10C170000042CAF82C20401B00F51C7084B210F459
:10C180007C4F05D04B484D4940F2855259F014FB85
:10C19000CAF828404348016841F00101016069087C
:10C1A000816005F001015546C160DAF8180040F0E1
:10C1B0000800CAF81800DAF8000020F0E040CAF8D9
:10C1C0000000DAF8000040F00100CAF80000012089
:10C1D000CAF8080003F01EFF0A20FFF7CBF9B07E73
:10C1E000FF2809D0FDF776FAB17E0822C90002FACD
:10C1F00001F18843FDF77CFA780734D5B07EFF283B
:10C2000009D0FDF767FAB17E1022C90002FA01F1E8
:10C210000843FDF76DFA0420A86098F89900C0065D
:10C2200009D51E4802AA4FF480510368262098477A
:10C230009DF8080050B104205AF03EFB286820F019
:10C24000040028601E48016806208847B07EFF2849
:10C2500009D0FDF73FFAB17E1022C90002FA01F1C0
:10C260008843FDF745FAF80644BF1020A86059F04E
:10C27000A5FC59F0C7FAB078FF2809D0FDF72AFAD3
:10C28000B1780822C90002FA01F18843FDF730FABB
:10C2900006B0BDE8F08700BF40214E202C024E20A2
:10C2A000E4314E20C00909503000045010024E20E5
:10C2B00080841E00F41B0700BB1E07009B1E0700A6
:10C2C00074004E202DE9F84FDFF89081B8F8000097
:10C2D000002800F0C18062484FF0000900F1020A16
:10C2E000F4F764F9604F04464FF0000BB8F8020011
:10C2F000834580F0A680DAF8020030B13AF8020CEB
:10C3000001B26029A8BFA02904DA0AF10C0A0BF1D6
:10C31000010BEBE7BAF800205204F6D5A0296FF024
:10C320009F01B8BF6FF05F010844C5B2062D04D36A
:10C330004C483946D22254F0FBFE2846F3F780FFE2
:10C340000646B0F1FF3F04DC48483946D42254F099
:10C35000EFFEBAF8000001466FF39F31042912D8AE
:10C36000DFE801F0031B2A3135006FF3DF3008EB03
:10C370000502012E117C40EAC6301674AAF80000AE
:10C38000C3D199B3C1E76FF3DF3040EAC630AAF8F2
:10C39000000008EB05000674B7E76FF3DF3008EB29
:10C3A0000502002E117C40EAC6301674AAF800007F
:10C3B000ABD101291AD0A8E708EB0501097C891B3C
:10C3C00018BF012106E0711EB1FA81F101E0B6FA51
:10C3D00086F149096FF3DF30002940EAC630AAF838
:10C3E000000008EB050006743FF48FAF2048294693
:10C3F000F6F7D2FE002808D4C0B24FF4807101FADB
:10C4000000F01C4940F000400860202D05D31AA020
:10C41000394640F2091254F08BFE0120D8F804107E
:10C42000A8400843C8F804005FFA89F0202805D323
:10C4300015A0394640F20B1254F07AFE09F10109B9
:10C4400063E72046F4F7B6F85FEA096004D02320DA
:10C45000BDE8F84FF7F740B9BDE8F88FD8114E2086
:10C4600038024E20DD24070018250700D4240700D9
:10C47000B4B00450240004507062725F70696E2082
:10C480003C20333200000000747269676765725F98
:10C4900070696E5F6E756D203C204D41585F50494C
:10C4A0004E5F494E5055545F434E5400B0B505465B
:10C4B000F4F77CF8044615B12320F7F70DF9204670
:10C4C000BDE8B040F4F776B8704700002DE9F04FB2
:10C4D0009DB0279C002C41D00F4606464FF4347087
:10C4E0000121984615464FF0010A12F099FBB8B3A6
:10C4F000DDF898904FF434718346F4F7B6F9CBE940
:10C50000014900200DF104095A4C3146019009F10E
:10C510000400A0470BF5B0703946A0470BF5BE707C
:10C520002946A0470BF5CA701C21F4F79EF948462E
:10C530000121CBF898A101F0E0FC60B90BF5AE75D4
:10C540000121284601F0D9FC28B90BF5BC70012166
:10C5500001F0D3FC40B1584612F02EF9122000E051
:10C5600007201DB0BDE8F08FB8F1000F04D12846B8
:10C5700000F092FE0028EED00DF10409012148469A
:10C5800001F0CCFC044602980BF5017A002600F07D
:10C590000F073B488046301D0FB9A04228D2F9074B
:10C5A00001D1002117E007F00701A04238BFA7F131
:10C5B00010013A0758BF3946CA1D0E2ACBD811F0D0
:10C5C0000102C8D07F1A102FC5D801224346BA40B5
:10C5D00012EA080FBFD00AF8061081B2484601F0EF
:10C5E0007EFCC000013600EB6707112FD3DBB2E7FA
:10C5F000601C8642AFD8CBF8C8620BF10C06294606
:10C6000054223046F4F70AF908AD54212846F4F7CD
:10C610002CF92846314600F08BFC00289BD01648A8
:10C6200008AD10F154040CD00BEB00012A4601F5C3
:10C63000D87001F5AE7100F009FB00282046F0D15A
:10C6400089E7304601F0ACFC00283FF484AF0120BC
:10C650005946ABF8CD029BF8C80201388BF8CC02E2
:10C660000648FDF755FC96480168012088470020E0
:10C6700077E700BF1FCF0000B0FEFFFF04174E207A
:10C68000010101002DE9F04FADF5057D0D469099B2
:10C69000002900F09180DFF840AF009000200DF1FC
:10C6A000880B1E4617460DF1E008389042902D90F9
:10C6B00022900BF12C099AF81700FF280AD0FDF7F9
:10C6C00009F89AF817100122C90002FA01F108438B
:10C6D000FDF70EF8DDF838A208F104000021002271
:10C6E00012F120030DD0AB18BC18DB69E46943508C
:10C6F0000BEB010304315C60B418043AE4691C6379
:10C70000EEE76B4C4046A04722A8A0474846A0470A
:10C710004FF0000BBAF1000FCDF8DCB0CDF8B0B09F
:10C720004CD101AE2C213046F4F79FF87AAC2C2185
:10C730002046F4F79AF86FA82C21F4F796F80DF537
:10C74000C87A2C215046F4F790F859AF2C2138467E
:10C75000F4F78BF84EA82C21F4F787F843A82C2186
:10C76000F4F783F8534D484649463246A8470DF141
:10C770008808224640464146A8476FAE40462146BB
:10C780003246A8474C4C404641465246A047504688
:10C7900041463A46A0474EAD304639462A46F9F75B
:10C7A000A3F8284643AD45492A46A04701A8294693
:10C7B0002422F4F778F808B1122473E04FF4AA7039
:10C7C000022112F017FA0646C0F850B1009801ADE8
:10C7D00022A9242286F84C012846F4F71FF82B984A
:10C7E00049462422CDF82CB00A9005F12C00F4F72C
:10C7F00015F836982421159005F15400F4F735F812
:10C8000006F18C0401272846CDF884B02146CDE9F5
:10C810001F77F5F705F906F5887038A92422F3F794
:10C82000FDFFDDE94101C6E94D0106F108002421C3
:10C83000F4F71BF806F130002421F762F4F715F83D
:10C8400006F15C002821C6E91577F4F70EF83F20C1
:10C85000C6E9217BC6E951B00920706096F84C0109
:10C86000022810D140F2BC70022112F0C3F9014637
:10C87000C6F850012046F5F7D3F80020C6F8480165
:10C88000032086F84C0190983146C6F83C018F98F9
:10C89000C6F84001D748FDF73BFB09480024016872
:10C8A0000020884720460DF5057DBDE8F08F00BFCC
:10C8B00025930600455300002510000088C6060099
:10C8C00074004E202DE9F047C2B0C94FF87DFF2813
:10C8D00009D0FCF7FFFEF97D0222C90002FA01F13E
:10C8E0000843FCF705FFDFF80C834046FDF7F8FA34
:10C8F000002800F078800546F87D6968002900F07E
:10C900007980FF2809D0FCF7E5FEF97D0422C900F3
:10C9100002FA01F10843FCF7EBFE95F84C01421EC8
:10C92000032A00F2F180D5F84801B349DFE802F0AC
:10C930000402A6C1D5F85011C0F1FF06C0F1BF0333
:10C9400005F5887200F01F0405F1080A76095B09F5
:10C9500002EB860602EB830376685B68E640E34001
:10C9600006F0010663F34106C0F17F035B0902EBA9
:10C9700083035B68E34003F0010346EA8303C0F1ED
:10C980003F06760902EB86025268E24002F001029D
:10C9900043EAC202AAB102EB42100DF1840901EB95
:10C9A000800049468438F5F73BF86C4648465146C6
:10C9B0002246F4F71DFF20465146F5F731F8D5F829
:10C9C0004801002800F088806C4650462146F5F763
:10C9D0004BF820465146F5F723F8D5F848010138C1
:10C9E000C5F8480190E085A085A140F62F1258F0C7
:10C9F000E3FE9AE0FF2809D0FCF76CFEF97D0822DF
:10CA0000C90002FA01F10843FCF772FE21AE582179
:10CA10003046F3F72AFF05F1080006F12C023146F3
:10CA2000F5F7E2F8D5F8500108B111F0C5FE311D57
:10CA30000022684612F1080305D000EB820310C9FA
:10CA4000013ADC61F6E706F13001002212F1080339
:10CA500005D000EB820310C9013ADC63F6E7D5E9A3
:10CA60004F2069469047284611F0A6FEF87DFF2822
:10CA70005BD0FCF72FFEF97D082250E005F18C0613
:10CA800021AC30462146F4F7EFFF20463146F4F75B
:10CA9000C7FFD5F84801411CBF28C5F848111ED072
:10CAA0007F282AD03F282FD1D5F8500100F18401EA
:10CAB00027E0C11E042900F27C80DFE801F0037A40
:10CAC0005A647000D5F8500100F1840100F58472B9
:10CAD000F4F78EFE052083E70020686014E0D5F8A7
:10CAE000500100F567713046F4F79AFF0320C5F84E
:10CAF0004801042085F84C0106E0D5F8500100F506
:10CB0000C6713046F4F78CFF3A482946FDF700FA23
:10CB1000F87DFF2809D0FCF7DDFDF97D0422C9006E
:10CB200002FA01F18843FCF7E3FDD8F8000080B970
:10CB30004548016800208847F87DFF2816D0FCF79B
:10CB4000C9FDF97D0122C90002FA01F18843FCF711
:10CB5000CFFDF87DFF2809D0FCF7BCFDF97D02224E
:10CB6000C90002FA01F18843FCF7C2FD42B0BDE8FA
:10CB7000F087D5F8500100F5C67100F50472F4F79E
:10CB800037FE06202CE7D5F8502102F1840002F58B
:10CB9000C67102F52572F4F72BFE072020E7D5F8C1
:10CBA000500100F5257100F54672F4F721FE0920C9
:10CBB00016E7A0F109010629A6D8D5F8503100EBF7
:10CBC000401001EB411103EB800003EB8101A0F168
:10CBD000840203F56770F4F70BFED5F848010F28BF
:10CBE00004D13F20C5F84801022083E70130F7E671
:10CBF000B40F4E20F0164E209CB606004153530051
:10CC00006563635F703235362E63000010B50D4CDE
:10CC1000002124685CB1A268824201D02146F8E775
:10CC200008482246FDF75EF8204611F0C5FD05488C
:10CC3000006800B110BD044801680120BDE8104043
:10CC4000084700BF04174E2058004E202DE9F04F32
:10CC500093B00E460546C4200221914611F0CAFF4A
:10CC6000C4210446F3F701FE4E4506D0304600F0DD
:10CC70000FFB60B1284631460FE0204611F09CFDC5
:10CC80002846314613B0BDE8F04F00F051B9484690
:10CC900000F0FEFA60B1284649465422F3F7BEFD83
:10CCA000204611F089FD0125284613B0BDE8F08F1C
:10CCB00004F18C0004F1540A04F11C0B039004F1FC
:10CCC0007000059004F13800049009F138000290DA
:10CCD00001F0F5F880B1B34504D0584631461C2226
:10CCE000F3F79CFD049806F11C0188421BD00498C0
:10CCF0001C22F3F793FD16E0DDF80880204641463C
:10CD000000F0CAFE5746DFF8D8A8584631462246FA
:10CD1000D047204621464246D047049806F11C01E0
:10CD20002246D047BA4606F13807384601F0C7F820
:10CD3000019788B1CA4504D0504649461C22F3F7F2
:10CD40006DFD059809F11C01D946884218D0059857
:10CD50001C22F3F763FD13E02046394600F09CFEE9
:10CD6000DFF87C88504649462246C0472046214687
:10CD70003A46C047059809F11C012246C047D946EA
:10CD8000039F49465246384600F099FE002800F0BD
:10CD9000B380DDE9041204F1A80B584600F08FFEC1
:10CDA000002800F0A9803846012101F0A6F868B1FA
:10CDB0005846012101F0A1F860B32846314600F041
:10CDC000B7F80546204611F0F7FC6DE7484649469E
:10CDD000524600F075FC002800F08E800498059AF9
:10CDE000014600F06DFC002800F08680DDF804802C
:10CDF000404601F064F80646029801F060F87EB102
:10CE0000A0B105F13800874224D039461C22F3F73F
:10CE100005FD1FE005F138001C21F3F726FD3FE773
:10CE200068B1444510D02046414604E0029884424F
:10CE30000AD0029920461C22F3F7F0FC04E0029A83
:10CE40002046414600F0D1FD05F1380021463A4622
:10CE500000F0CBFD2046594600F01EFE059E3946E7
:10CE6000304600F019FE50464946324600F0BDFDFE
:10CE700028462146524600F022FEE8B320462946C5
:10CE800000F01AFDC0B320465146224600F017FEBE
:10CE900090B31C4E204621465A46B0470599384665
:10CEA0003A46B047049948463A46B047204621469C
:10CEB0004A4600F004FEF8B12079C00707D105F119
:10CEC0001C0021460122012500F00FFF7AE706AE83
:10CED0002146304600F0AAFB70B1304631460222AE
:10CEE00000F003FF05F11C00B0423FF4D9AE06A9E3
:10CEF0001C22F3F793FCD3E6204611F05DFC0025DD
:10CF0000D2E600BFEBD900000022D2B2172A88BFB8
:10CF1000704702F0FC03CB5883500432F5E700223F
:10CF2000182A08BF70478B5883500432F8E7000076
:10CF30002DE9F0439DB00DF158090D4604461C2122
:10CF40004846F3F792FC0FA81C21F3F78EFC08A8C3
:10CF50001C21F3F78AFC01A81C21F3F786FC284664
:10CF600000F096F930B104F138001C21F3F77DFC94
:10CF70000120A4E005F13807384600F0A0FFC8B151
:10CF800016AE2946304600F087FD0FA8314600F066
:10CF900093FC002800F0928016A80FAA014600F02A
:10CFA0008FFB002800F08A80464816A900F1540241
:10CFB0000FA823E00FAE3946304600F06DFD16A8ED
:10CFC0002946324600F07CFB002877D008A80FAA3B
:10CFD000294600F074FD002870D00DF13C0816AE13
:10CFE00008AA4046314600F000FD3046414600F0B8
:10CFF00063FC002862D00FA816A9024600F060FB6F
:10D0000000285BD0384600F05AFF05F11C0838B103
:10D01000C1450AD016A841461C22F3F7FFFB04E0E5
:10D0200016A841463A4600F0E0FC04F1380016A983
:10D0300000F042FC002841D001AE4146304600F0ED
:10D040002BFD08AF29463246384600F0CEFC384664
:10D050003946022200F051FC80B316A808A900F05E
:10D060002BFC58B30FA9204600F016FD16AA204647
:10D07000214600F024FD08B316AD01AE2846314626
:10D0800000F00AFD30462946032200F036FCA8B124
:10D0900016A808A9224600F012FD78B116AD0FA916
:10D0A00028462A4600F0A1FC04F11C0001AA2946EA
:10D0B00000F005FD002818BF012000E000201DB091
:10D0C000BDE8F08324C906001CB5049CCDE90034FA
:10D0D0000023FFF7FBF91CBDF0B58DB01C461546CB
:10D0E0000E46C8B112A130461822F3F797FB464806
:10D0F0000DF1040C90E8CE004069ACE8CE0006903B
:10D10000434890E8CE0040690C9007A8CEC001AA21
:10D1100000212846A04707E0304600F023F83046BB
:10D120002946224600F010F800200DB0F0BD00BFE7
:10D13000FF18A5F4EFD25E622B140CCFD6F15D0080
:10D1400027DC8D91865F9107E0B5CDE90012034998
:10D15000034A0123FFF7BAF98CBD00BFD8C8060007
:10D16000F0C806002DE9F84F04461E4F1E4D14303E
:10D170000FF2780804F1100904F10C0A04F1080B0D
:10D18000261D0090B84701462046A847B8470146EB
:10D190003046A847B84701465846A847B847014611
:10D1A0005046A847B84701464846A847B8470146F1
:10D1B0000098A8471720002804D4215C01380029D2
:10D1C000F9D002E020780028DCD01720002807D40E
:10D1D00018F80010225C8A42D4D8A0F10100F5D2E0
:10D1E000BDE8F88FF9070000A3AC0000181469DA55
:10D1F000D8E4350A1B7CEFCCFFFFFFFFFFFFFFFFEA
:10D20000FFFFFF7F0048704794C906000048704741
:10D21000ACC9060010B560B1F64801680120884726
:10D22000EE4C206850B12046FCF75AFE11F0C4FACB
:10D23000F7E705480549026801209047E748BDE83F
:10D240001040FCF7DABD00BF54004E204DD3000063
:10D25000B0B588B0044600F01BF808B1012514E011
:10D260001C3401210125204600F047FE68B901A8C1
:10D27000A04204D001A821461C22F3F7CFFAEA49C4
:10D2800001AA204600F0E5FD0546284608B0B0BDDD
:10D290003830012100F031BE2DE9F04FB1B0054624
:10D2A0002AA81C21F3F7E1FA23AC1C212046F3F74E
:10D2B000DCFA0DF170091C214846F3F7D6FA15AFD8
:10D2C0001C213846F3F7D1FA0DF1380B1C215846D2
:10D2D000F3F7CBFA07AE1C213046F3F7C6FAEA465D
:10D2E0001C215046F3F7C1FA05F11C01DFF8E88D67
:10D2F0002AA80A46C047204629462A46C04748462B
:10D3000029462246C0470F4C384629462A46A047A0
:10D31000584629463A46A047304649465A4600F004
:10D32000CEFB094A50463146A0472AA80AF104011B
:10D3300018220430F3F7B7FAB0FA80F0400931B0A0
:10D34000BDE8F08FC1D6000008C906002DE9F04FF6
:10D3500095B0A14FF87DFF2809D0FCF7BBF9F97D06
:10D360000222C90002FA01F10843FCF7C1F99B4C03
:10D3700021680029084600915DD0F87DFF2809D07A
:10D38000FCF7A8F9F97D0422C90002FA01F108436B
:10D39000FCF7AEF90098082490F8CE1290F8CC6211
:10D3A00090F8CDA200F5017900F5D875019120061D
:10D3B00048D019F906B0BAF1000F06D1284629461F
:10D3C000FFF7B6FD002800F09780BBF1000F2ED0CC
:10D3D000D8465FFA8BF048BFCBF100080199CFB275
:10D3E000B7EBD01F0CD0BAF1000F05D12846FFF7DC
:10D3F0002FFF002800F08080B7FA87F040090190E5
:10D4000000994FEA58005422BAF1000F00FB0210B5
:10D4100000F10C02284604D12946FFF717FC20B979
:10D420006AE011465422F3F7F9F94FF0000A013C83
:10D43000013EBCDA12E06BA06BA140F6193258F045
:10D44000BBF9A3E0701C09D0DDE90001012580F8DB
:10D45000CDA280F8CC6280F8CE124EE0BAF1000F77
:10D4600042D000981C2100F5F470F3F7FEF902A8F1
:10D470001C21F3F7FAF90EA81C21F3F7F6F900982E
:10D4800000F5F476304600F01AFD534F534C48BB7C
:10D490002846FFF7FDFE28BB02A8314600F034F90C
:10D4A000002800F096800DF138090DF10808484673
:10D4B000414600F0F1FADFF828A1284649462A46FD
:10D4C000D047484649464246D047009D494605F563
:10D4D000E6700246D04730461C21F3F7C6F901201A
:10D4E000C5F8EC0100250AE001980006BFD02846E7
:10D4F000FFF7AEFE0028BAD10225374F374CF87D32
:10D50000FF2809D0FCF7E6F8F97D0422C90002FAE9
:10D5100001F18843FCF7ECF845F00200022835D110
:10D52000F87DFF2809D0FCF7D5F8F97D0822C9005D
:10D5300002FA01F10843FCF7DBF82848FCF7D0FCBD
:10D54000009E0DF10808404606F5DA71FFF7DCFC95
:10D5500008F1180006F5E871FFF7D6FCD6E90130AE
:10D56000002D18BF1F25294642469847304611F026
:10D5700023F9F87DFF2809D0FCF7ACF8F97D0822E3
:10D58000C90002FA01F18843FCF7B2F8206880B9BB
:10D5900018480124016801208847F87DFF2815D02C
:10D5A000FCF798F8F97DC90004FA01F18843FCF70B
:10D5B0009FF8F87DFF2809D0FCF78CF8F97D02224E
:10D5C000C90002FA01F18843FCF792F815B0BDE8F2
:10D5D000F08F022593E700BFB40F4E2004174E20B2
:10D5E000EBD90000415353006563635F70313932FA
:10D5F0002E63000058004E20016811B14FF0FF303B
:10D60000704700F001B8000010B50221044600F098
:10D6100085FCC028C4BF012010BDA6492046BDE836
:10D62000104000F004BC00BFC4C90600B0B50446F9
:10D6300008680D4678B19F48294600F0F8FBB0F124
:10D64000FF3F11DD9B4920462A4600F002FC0146BF
:10D65000002031B9B0BD974A2046294600F0D8FBDA
:10D66000002020600120B0BD924A2046294600F0EB
:10D67000F0FB00280EBF002001202060B0BD00BFDD
:10D68000B0B50D460446814208D020463421F3F758
:10D69000ECF8204629461C22F3F7C0F800210120AF
:10D6A000072808D055F8202041EA420144F820100C
:10D6B000D10F0130F4E711B1012144F82010B0BDC1
:10D6C000F0B58DB06D460F46044634211646284607
:10D6D000F3F7CBF828463946324600F099FB284646
:10D6E000FFF792FF002804D46946204600F0C2FBF1
:10D6F00007E0A54204D0694620461C22F3F78EF8C5
:10D7000001200DB0F0BD00002DE9F04FA9B00C468E
:10D71000804614A81C21F3F7A8F80DAD1C2128465B
:10D72000F3F7A3F822A81C21F3F79FF801201C218E
:10D7300023901BA8F3F799F8A5420ED00DA8214617
:10D740001C22F3F76BF85B490D9C14A81C22F3F71D
:10D7500065F8002014906CB906E0564914A81C2204
:10D76000F3F75CF8002014900DA814A900F05FFBFB
:10D7700000280FD46C46182104F11C00F3F775F84B
:10D780000DAD20461C222946F3F748F828462146CD
:10D7900000F0E2F90DF1340A22AF6C460DF15009A8
:10D7A0000DF16C0B5046012100F0A7FB00286FD152
:10D7B0000025AEB25046314600F091FBD0B99DF83D
:10D7C0008C000135C00705D138463946012200F0EA
:10D7D0008CFAEEE720463946FFF728FF002864D090
:10D7E00020462146022200F080FA3846214600F009
:10D7F000B3F9DEE7280404D050465146324600F023
:10D8000043FA0025AEB24846314600F068FBC8B97D
:10D810009DF870000135C00705D1584659460122D0
:10D8200000F063FAEEE720465946FFF7FFFEE0B34B
:10D8300020462146022200F058FA5846214600F0C0
:10D840008BF9DFE7280404D048464946324600F009
:10D850001BFA5046494600F0EAFA002809D4384637
:10D8600039465A4600F02BF9F8B1504651464A461F
:10D8700008E0584659463A4600F021F9A8B1484612
:10D880004946524600F01BF900287FF48BAF0CE0AC
:10D8900014A800F014FB40B1C34504D01BA94046B6
:10D8A0001C22F2F7BBFF012000E0002029B0BDE8F8
:10D8B000F08F00BFC4C9060070B58EB001AD0E4632
:10D8C000044634212846F2F7D0FF28463146FFF7B8
:10D8D000D7FE2846FFF790FE002804D401A9204671
:10D8E00000F0C8FA07E0A54204D001A920461C2296
:10D8F000F2F794FF01200EB070BD2DE9F04F8FB00C
:10D900000DF1080A0F460190342193465046F2F774
:10D91000ACFFBA4504D002A839461C22F2F77EFFBC
:10D920000AF118080AF10409BBF1010F52DB504655
:10D93000012100F0F3FAC0284ADCC0F1C0075F45BE
:10D94000C8BF5F4637B1B8B2B0F5906F09D950463D
:10D9500034212EE050465146FFF792FEABF1010B09
:10D960002BE0C7F34A1C17F01F0114D00AEB8C03FD
:10D97000C1F120020020461D18D458F8205003EBB6
:10D980008006013805FA01F4B46125FA02F4F5695C
:10D990002C43F461EFE70AEB8C0006214A1E05D404
:10D9A0005AF8213040F821301146F7E74FEA8C0150
:10D9B0004846F2F75AFFABEB070B5046FFF71CFE49
:10D9C0000028B1D45046514600F054FA0028ABD19B
:10D9D000002007E00198824503D002A91C22F2F73B
:10D9E0001DFF01200FB0BDE8F08F2DE9F04F8FB083
:10D9F0000E46019002A834211746F2F736FFBE42C8
:10DA00003FD0304600F04AFA0546384600F046FA64
:10DA10000DF10808044634214046F2F726FFA5B36D
:10DA20009CB3BA46A542AB4638BFB246DAF80430DA
:10DA300038BF3E4606F1040938BFA3465A462E4673
:10DA400008F104054946284600F060FB45F82B0024
:10DA5000A64238BF344605EB8B050026013CB0B228
:10DA6000844212DD471C49465A460AEB8700436848
:10DA700008EB8700043000F074FB45F827000136FE
:10DA8000EDE702A8314600F055F9019802A900F02F
:10DA900063F80FB0BDE8F08F70B58EB001AE0C46E4
:10DAA000054634213046F2F7E0FE3046214600F0CC
:10DAB00041F92846314600F04FF80EB070BD2DE90F
:10DAC000F0418EB00DF104080F460446342116468D
:10DAD0004046F2F7CAFE3968306811B120B13D46C0
:10DAE0000FE060B1002502E0B0FA80F0450901A81E
:10DAF0003946324600F08CF901951DBB11E03546E0
:10DB00003E463046294600F092F9B0F1FF3F11DD64
:10DB100001A831462A4600F09CF901460020A9B12F
:10DB20000190A04504D001A920461C22F2F776FE00
:10DB300001200BE001A82946324600F08AF940B1E5
:10DB40000120019001A92046FFF770FD0EB0BDE84D
:10DB5000F0810020FAE700002DE9F04794B00DF1C4
:10DB60001C080D46044634214046F2F77EFE6F46FF
:10DB70001C213846F2F779FE002002212060284659
:10DB800000F0BBF938B1A54272D0204629463422B4
:10DB9000F2F744FE6CE02846FFF72EFD002863D024
:10DBA000B0F1FF3F67DDA84504D007A829461C2235
:10DBB000F2F734FE38461C21F2F757FED5E907018B
:10DBC000261DDFF8C0900623CDE90301CDE9010150
:10DBD00008F1040107F1040830464246C8474FF0F7
:10DBE000000A074642460623CDE900AACDF808A060
:10DBF000D5E90901CDE90501CDE9030130463146FA
:10DC0000C847CDF800A0002F4FF00603D5E90B124E
:10DC1000CDE90512CDE90312CDE901124FF0010162
:10DC200042461CBF022101270028304618BF0F467C
:10DC30003146C8470028984818BF0137051D37B13D
:10DC4000304631462A4600F0B9FA013FF7E7924DD7
:10DC50002046294600F0EBF8002809D42A1D30465A
:10DC6000314600F0ABFA03E020461C21F2F7FDFD3F
:10DC700014B0BDE8F087A542FAD0204629461C2200
:10DC800086E700BFDDE00000F8B5C12A03DB1C21F8
:10DC9000F2F7EBFDF8BD884202D00B68036000E0AC
:10DCA000D2B12023043092FBF3F4A2EB4412A2B1D0
:10DCB00001EB8405C2F12003023404352D6825FAF6
:10DCC00002F6072C07D051F82450013405FA03F767
:10DCD0003E4340C0F3E70660F8BD621C072AFBD054
:10DCE00051F82230013208C0F8E770B504460D46FD
:10DCF00008461146164600F000F938B12046022EBB
:10DD00000CBF34211C21F2F7B0FD70BDA5421CBF31
:10DD10002868206006EB4600410000204A1E48BFEC
:10DD200070BD55F8213040EA530044F82100D8076F
:10DD30001146F3E72DE9F04F8FB000240E468246DE
:10DD40003421046002A8F2F790FD304600F0A6F8F6
:10DD5000D346814606F104084BF8044FB9F1020F8F
:10DD60000BEBC0000BF1040740F8044C4FEA4900EC
:10DD700001900ED3A9F101007368083682B23846CB
:10DD8000314600F0C3F90AEB89010AF11007486037
:10DD900000E04646A9F10204043607EB8405012C95
:10DDA0000BDB56F8043CA2B23846314600F0D9F9F4
:10DDB00001C50436013C0837F1E7019D5846594634
:10DDC0005A462B4600F08AF902A8B9F1000F00F17B
:10DDD000040215D01046B9F1000F11D058F8041BF9
:10DDE000A9F101090B0C89B201FB03F449435B4320
:10DDF00011EB44414FEAD4346341E0E80213EAE70F
:10DE0000584659462B4600F069F90FB0BDE8F08F2F
:10DE100070B50D46342114460646F2F726FD301D36
:10DE2000291D221D062300F059F9F06170BD10B5BF
:10DE30000622531E44BF002010BD51F8224050F866
:10DE40002220A2421A46F4D04FF0FF3088BF0120B2
:10DE500010BD70B50D461C2114460646F2F705FDAF
:10DE6000301D291D221D00F0A9F9B0FA80F04009EB
:10DE700070BD000010B5084A0C460430043104326D
:10DE800000F09CF930B1E16921B1081AE0611CBFD2
:10DE9000002010BD012010BDC4C90600021D0521CF
:10DEA0004FF0FF300BB2834206DD8BB252F82330C5
:10DEB0000BB90139F6E70846013080B270470221FC
:10DEC000072906D050F821200131002AF8D000207F
:10DED000704740680138B0FA80F040097047BF29A8
:10DEE00084BF002070474A0901F01F0100EB820047
:10DEF0004068C84000F00100704701EB4101043068
:10DF00000022490093B299429CBF0120704750F80B
:10DF100023300132002BF5D000207047F8B501EB1B
:10DF20004106044675002946FFF7E7FF08B10020C7
:10DF3000F8BD6FF01F0000EB861210466B1E2CD44C
:10DF400054F82510A0F120021D460029F5D000222A
:10DF50000B460F0CB2EB114F18BF0B0C13F47F44A0
:10DF600018BF1B0A13F0F00518BF1B0903F00C06BD
:10DF7000B2EB114F18BF012739010831002C08BF3F
:10DF80003901002D18BF0431002E1CBF02319B083F
:10DF9000C3F340021144013100E000210844F8BD00
:10DFA0002DE9F84F04464FF48C70022110F022FE48
:10DFB0004FF48C718246F2F758FC0AF11C09009468
:10DFC00004F13805A824B4F58C7F0AD00AEB0400CC
:10DFD000A84203D029461C22F2F720FC54351C34F9
:10DFE000F1E70AF1FC058C24382C09D00AEB040077
:10DFF000A5F11C012A46FFF7F8FC1C3C383DF3E76D
:10E000000AF154000146FFF77FFB00285CD04FF077
:10E01000020B00243827BBF1080F26D20AEB0700B9
:10E020000AEB040800F11C0608F18C055046314645
:10E030002A46FFF7DAFC08F1700248463146FFF73E
:10E04000D4FC14F1700605D00AEB470051461C229F
:10E05000F2F7E4FB26B1284649461C22F2F7DEFB24
:10E060001C3738340BF1020BD5E7DFF86CB00AF13E
:10E07000A80700244FF00108B4F5A87F22D000982B
:10E080000121051905F138063046FFF736FFB0B912
:10E0900048463946FFF700FD284629464A46D847F4
:10E0A000484649463A46D84705F11C004A460146CB
:10E0B000D84730461C21F2F7D8FBC5F83C801C3706
:10E0C0005434D9E7012500E00025504610F074FBD8
:10E0D0002846BDE8F88F00BFEBD900008446002039
:10E0E000012B12DBF0B5002563B180C940CA013BAA
:10E0F0007C19A41940F10006ED194CF8044B46F1C7
:10E100000005F1E72846BDE8F0407047844600204E
:10E1100032B32DE9F0411FFA83F84FEA134E00267F
:10E12000DAB180C9013A3C0CBFB204FB08F504FB2C
:10E130000EF407FB0EF35B1907FB08F528BF04F587
:10E14000803404EB134415EB034340F100059B19A5
:10E1500044EB05064CF8043BE2E73046BDE8F041ED
:10E1600070472DE9F041044600202AB31FFA83FED0
:10E170004FEA134C4FF00008EAB180C9013A3D0C58
:10E18000BFB205FB0EF305FB0CF507FB0CF69B1964
:10E1900007FB0EF628BF05F58035276816EB03460A
:10E1A00045EB134316EB080540F10006ED1943EB70
:10E1B000060820C4E0E74046BDE8F081F0B503461C
:10E1C00000200024062C08BFF0BD51F8246052F84E
:10E1D0002450371AAE42A7EB05074FF0000543F86D
:10E1E000247038BF012518BF28460134EAE7000033
:10E1F000B0B57F4C00212468A4B1D4F840218242FC
:10E2000001D02146F7E77A4D22462846FBF76AFD02
:10E21000D4F8500108B110F0CFFA204610F0CCFA33
:10E22000286800B1B0BD714801680020BDE8B04069
:10E23000084700BFBFB514460A46014608980025A6
:10E24000CDE90053234602900220FEF71BFA04B0EA
:10E25000B0BD000070B590B01C4615460E46A0B18A
:10E260004B4930462022F2F7D9FA6E464A4920221D
:10E270003046F2F7D3FA4A4906F120002022F2F79D
:10E28000CDFA28463146A04707E0304600F01AF89C
:10E2900030462946224600F003F8002010B070BD39
:10E2A0001FB504460120064B8DE80700034A0120F4
:10E2B0002146FEF7E7F904B010BD00BFFCB506002B
:10E2C0001CB606002DE9FE4F04461C30DFF8948092
:10E2D000DFF894900FF2940A029004F1180004F110
:10E2E000100B04F10C0604F10807251D019004F140
:10E2F00014000090C04701462046C847C047014669
:10E300002846C847C04701463846C847C047014667
:10E310003046C847C04701465846C847C04701462F
:10E320000098C847C04701460198C847C047014602
:10E330000298C8471F20002804D4215C0138002916
:10E34000F9D002E020780028D4D01F20002807D47C
:10E350001AF80010225C8A42CCD8A0F10100F5D254
:10E36000BDE8FE8FF9070000B3AC0000A892317E33
:10E3700061E5DC7942CF8BD3567D73DEFFFFFFFF73
:10E38000FFFFFF7F00000080FFFFFF7F0048704716
:10E390007CB60600004870473CB60600004870474F
:10E3A0005CB60600B0B598B11048016800208847F7
:10E3B0000F4C206888B12046FBF792FD0546D0F847
:10E3C000500108B110F0F8F9284610F0F5F9F0E71F
:10E3D000044805490268002090470548BDE8B04060
:10E3E000FBF70BBD54004E20C5C8000058004E205E
:10E3F000F0164E20B0B50C460546B1F5804F05D35A
:10E400009748514940F6352257F0D6F9C94894212A
:10E41000408805FB010001494452B0BD44004F2033
:10E42000D8499422498800FB02101A49405AC0F387
:10E4300042107047B0B50C460546402905D3CF4879
:10E44000CF4940F6860257F0B7F9CE48942140886C
:10E4500005FB01000F49425A6FF39F2242EA8422D2
:10E460004252B0BDB0B50C460546402905D3D6484A
:10E47000D64940F6860257F09FF9D5489421408846
:10E4800005FB01000349425A6FF39F2242EA8422AE
:10E490004252B0BD36004F202DE9F8431D461746C5
:10E4A0000E46804612F0FE0F05D0DA48DA4940F2F7
:10E4B0007D3257F081F9089C15F0FE0F05D0D54844
:10E4C000D54940F27E3257F077F9DDF8249014F008
:10E4D000FE0F05D0CF48D04940F27F3257F06CF99B
:10E4E0003F013602ED00A40019F0FE0F05D0DB4815
:10E4F000DB4940F2813257F05FF9DA489421134A40
:10E50000408808FB010047EA06012943214341EA0C
:10E5100009018152BDE8F883B0B50C4605460229D1
:10E5200005D3E148CE4940F2BD3257F045F9DF4806
:10E530009421408805FB01000449425A22F0080258
:10E5400042EAC4024252B0BD5520070016004F20D7
:10E55000D64A9423528800FB0320034A835A23F0AF
:10E56000FF0319448152704768004F20B0B50C4634
:10E570000546022904D30A480AA1602257F01CF973
:10E58000DC4846498088084305EB450130F82120E6
:10E5900022F4804242EA843220F82120B0BD00BF3C
:10E5A000F41B07007265675F656D5F626C655F777E
:10E5B00070616C2E68000000D549384AC0EBC0007D
:10E5C000C988114331F83000C0F34010704700BFD4
:10E5D000CF49324AC0EBC000C988114331F830003E
:10E5E000C0F3C010704700BFC9492C4AC0EBC0003F
:10E5F000C988114331F83000C0F34000704700BFB4
:10E60000DF49264AC0EBC000C988114331F8300009
:10E61000C0F3C000704700BFE549C0EBC0000989E6
:10E6200001EB8000BB49405AC0F30520704700BF92
:10E6300010B50949C0EBC000098901EB800007490A
:10E64000445AB4F5805F05D3054806A140F625027B
:10E6500057F0B2F8204610BD40014E200A004F206E
:10E66000F41B07007265675F656D5F626C655F72C2
:10E67000785F646573632E6800000000B0B5D84C05
:10E68000064D00EB8010A48B2C4334F82000840B43
:10E690000C70C0F3012111701870B0BD00004F2044
:10E6A000E049C0EBC000098901EB80001A49405ADB
:10E6B000C0F34010704700BFDA49C0EBC0000989C1
:10E6C00001EB80001449405AC0F3C010704700BFEE
:10E6D000E049C0EBC000098901EB80000E49405AB7
:10E6E000C0F38010704700BFDA49C0EBC000098951
:10E6F00001EB80000849405AC0F38010704700BF0A
:10E70000E149C0EBC000098901EB80000249405A91
:10E71000C0F38010704700BF04004F20DA49C0EBFF
:10E72000C000098901EB80000349405AC0F3402032
:10E73000704700BF40014E2002004F2070B51446C4
:10E740000D460646022905D3DD48694940F2CE52FE
:10E7500057F032F820B2B0F1FF3F05DCD8486449E9
:10E7600040F2CF5257F028F8DC489421624A4088A2
:10E7700006FB010044EAC531815270BDF41B07005D
:10E780005520070040014E2070B514460D46064640
:10E79000022905D3CA48564940F2CE5257F00CF828
:10E7A00020B2B0F1FF3F05DCC548514940F2CF52DD
:10E7B00057F002F8C94894214F4A408806FB0100EF
:10E7C00044EAC531815270BDF41B07005520070093
:10E7D00040014E2070B514460D460646022905D369
:10E7E000E048434940F2CE5256F0E6FF20B2B0F185
:10E7F000FF3F05DCDB483E4940F2CF5256F0DCFFDC
:10E80000DF4894213C4A408806FB010044EAC531B8
:10E81000815270BDF41B07005520070070B51446E7
:10E820000D460646022905D3CE48314940F2CE5264
:10E8300056F0C2FF20B2B0F1FF3F05DCE2482C49A0
:10E8400040F2CF5256F0B8FFE14894212A4A40885E
:10E8500006FB010044EAC531815270BDF41B07007C
:10E860005520070040014E2070B514460D4606465F
:10E87000022905D3D4481E4940F2CE5256F09CFFDF
:10E8800020B2B0F1FF3F05DCCF48194940F2CF522A
:10E8900056F092FFD5489421174A408806FB0100A4
:10E8A00044EAC531815270BDF41B070040014E207F
:10E8B00070B514460D460646022905D3C2480C49D8
:10E8C00040F2CE5256F078FF20B2B0F1FF3F05DCA7
:10E8D000BD48074940F2CF5256F06EFFC34894211D
:10E8E000E34A408806FB010044EAC531815270BD0D
:10E8F0005520070040014E201E004F20BB4949898A
:10E9000001EB00100349405AC0F30030704700BFCC
:10E9100040014E2006004F202DE9F0411D461746CC
:10E920000E46044612F0FE0F05D0A748A74940F254
:10E93000BE2256F041FFDDF8188015F0FE0F05D01D
:10E94000E848A24940F2BF2256F036FFFF013602E6
:10E95000AD0118F0C00F05D0E2489C494FF4307269
:10E9600056F02AFFA14847EA0601B14A29434089E7
:10E9700041EA080100EB04108152BDE8F08100BFBC
:10E9800040014E20B0B50C460546402905D3E1486C
:10E990008E4940F2FA2256F00FFFDF48A449408921
:10E9A00000EB0510425A22F03F0222434252B0BD12
:10E9B00040014E20B0B50C460546402905D3D54848
:10E9C000824940F2FA2256F0F7FED348984940892E
:10E9D00000EB0510425A22F03F0222434252B0BDE2
:10E9E00040014E2070B515460E46044611F0F80F52
:10E9F00005D0E448754940F2223256F0DDFE76013A
:10EA000015F0E00F05D0EB48704940F2233256F084
:10EA1000D3FEC14946EA05001C4A498901EB0411AD
:10EA2000885270BD40014E20B0B50C460546B1F588
:10EA3000804F04D3EB486549552256F0BDFEEA48A5
:10EA40002749408908432901425A02F4404222439F
:10EA50004252B0BD40014E20B0B50C460546B1F55E
:10EA6000804F05D3EC4807494FF4217256F0A4FEBD
:10EA7000EA4905EB4500498B01EB8000034944520C
:10EA8000B0BD00BF6E20070040014E200A004F209D
:10EA900070B5154604460E0211F0FC0F04D008486C
:10EAA00008A13A2256F088FEDC49ED4A46EA050004
:10EAB000898B114304EB841221F8220070BD00BF42
:10EAC000F41B07007265675F656D5F626C655F745C
:10EAD000785F69736F5F6275662E680040014E2033
:10EAE00000004F202DE9F8431D4617460E4680468C
:10EAF00012F0FE0F05D0E74834494FF4997256F0F2
:10EB00005BFE089C15F0FE0F05D0E2482F4940F24D
:10EB1000331256F051FEDDF8249014F0FE0F05D0AC
:10EB2000DC482A494FF49A7256F046FEFF0136023D
:10EB3000AD01640119F0F00F05D0E74823494FF407
:10EB40009B7256F039FEB54847EA0601814A2943CF
:10EB50004089214341EA090100EB08108152BDE8D8
:10EB6000F88300BFF41B0700AC4A528902EB001087
:10EB7000784A835ADBB243EA01218152704700BFD1
:10EB800040014E20F8B51C4617460E46054612F0C9
:10EB9000FE0F04D0E7480D49952256F00DFE3F01C7
:10EBA000360214F0FC0F04D0E2480849982256F0CF
:10EBB00003FE9A4847EA0601664A2143408900EB72
:10EBC00005108152F8BD00BFF41B0700402007006C
:10EBD00040014E20914900EB4000C98C01EB4010F0
:10EBE0000349405AC0F34030704700BF40014E20F7
:10EBF0005E004F2010B50446132052F065F804EB78
:10EC0000440100EB41100249405AC0F3802010BD7E
:10EC10005C004F20B0B500EB40001446400100EB13
:10EC20004105132052F050F8284401494452B0BD28
:10EC300008004F20B0B5054613200C4652F044F8AA
:10EC400005EB450100EB411001494452B0BD00BF46
:10EC50001C004F20B0B5054613200C4652F034F886
:10EC600005EB450100EB411001494452B0BD00BF26
:10EC70001E004F20B0B5054613200C4652F024F874
:10EC800005EB450100EB411001494452B0BD00BF06
:10EC900020004F20B0B5054613200C4652F014F862
:10ECA00005EB450100EB411001494452B0BD00BFE6
:10ECB00022004F20B0B5054608B20C46B0F1FF3F28
:10ECC00005DCE048E04940F2275256F075FD13207C
:10ECD00051F0FAFF05EB450100EB41100F4944529A
:10ECE000B0BD00BFF41B0700B0B5054608B20C4626
:10ECF000B0F1FF3F05DCE048E04940F2275256F012
:10ED00005BFDDF4905EB4500C98C01EB4010034971
:10ED10004452B0BDF41B070040014E2024004F2098
:10ED200010B50446132051F0CFFF04EB440100EB73
:10ED300041100849405A10BDB0B5054613200C4695
:10ED400051F0C2FF05EB450100EB4110014944526F
:10ED5000B0BD00BF02004F2010B50446132051F093
:10ED6000B3FF04EB440100EB41102D49445AB4F5C4
:10ED7000805F05D3DF48E04940F21B1256F01CFDCE
:10ED8000204610BDF41B0700B0B50C460546B1F592
:10ED9000805F05D3E248E34940F2211256F00CFDB2
:10EDA000132051F091FF05EB450100EB41101C4988
:10EDB0004452B0BDF41B0700B0B50C460546B1F592
:10EDC000805F05D3D648D74940F2211256F0F4FCB3
:10EDD000DC4905EB4500C98C01EB40101049445259
:10EDE000B0BD00BFF41B070040014E20B0B50C467B
:10EDF0000546B1F5805F05D3C948CA4940F22112E2
:10EE000056F0DAFCCF4905EB4500C98C01EB401008
:10EE100003494452B0BD00BFF41B070040014E201F
:10EE200004004F2070B50C460546022904D3BC48A7
:10EE3000BC496E2256F0C0FC132051F045FF05EB93
:10EE40004501074E30434D01405B6FF3DF3040EA30
:10EE5000C434132051F038FF3043445370BD00BF19
:10EE600000004F2070B514460D460646042905DB08
:10EE7000AB48AC4940F26A6256F09EFC06EB460095
:10EE8000400100EB4505132051F01EFF28440249C4
:10EE9000445270BDF41B07003E004F20B0B50C4635
:10EEA0000546022905D3E548E5494FF4D67256F0E8
:10EEB00083FC05EB45003E4901EB4015132051F062
:10EEC00003FF285A20F4006040EAC424132051F0C4
:10EED000FBFE2C52B0BD00BFF41B070010B504466A
:10EEE000132051F0F1FE04EB440100EB41103049D6
:10EEF000405AC0F3022010BDB0B50C4605460229A9
:10EF000005D3DB48DB494FF4C47256F055FC05EBE2
:10EF10004500274901EB4015132051F0D5FE285A32
:10EF200020F4804040EA8434132051F0CDFE2C526E
:10EF3000B0BD00BFF41B0700B0B50C460546022962
:10EF400005D3CB48CB494FF4CA7256F035FC05EBDC
:10EF50004500174901EB4015132051F0B5FE285A22
:10EF600020F4005040EA4434132051F0ADFE2C52FE
:10EF7000B0BD00BFB0B50C460546022905D3DF4839
:10EF8000DF494FF4D07256F017FC05EB45000849F5
:10EF900001EB4015132051F097FE285A20F48050C1
:10EFA00040EA0434132051F08FFE2C52B0BD00BF54
:10EFB00006004F20B0B500EB40000C46154901EBB0
:10EFC0004015132051F080FE285A20F0FF00044421
:10EFD000132051F079FE2C52B0BD00BFDB4A00EB8C
:10EFE0004000D28C02EB40100A4A835A23F0FF0300
:10EFF00019448152704700BFE54A00EB4000D28CB3
:10F0000002EB4010034A835A23F0FF031944815254
:10F01000704700BF26004F20B0B50C460546B1F53D
:10F02000005F05D3D448C84940F29A5256F0C4FB59
:10F03000D74905EB4500C98C01EB401011494452FA
:10F04000B0BD00BFF41B0700EB210700B0B50C46B4
:10F050000546B1F5005F05D3C748BB4940F29A5257
:10F0600056F0AAFBCA4905EB4500C98C01EB4010DC
:10F0700004494452B0BD00BFF41B0700EB21070058
:10F0800040014E2028004F20B0B50C46054602290D
:10F0900005D3B948AC4940F2F12256F08DFB05EB9F
:10F0A0004500294901EB4015132051F00DFE285A67
:10F0B0006FF3DF3040EAC434132051F005FE2C52C8
:10F0C000B0BD00BF70B5044615460E02080605D552
:10F0D000E748E84940F2DB2256F06EFB1320354347
:10F0E00051F0F2FD04EB440100EB4110164945528A
:10F0F00070BD00BFF41B0700EB210700B0B505028F
:10F100000C46000605D5E748E74940F2DB2256F0F9
:10F1100053FBE64945EA04000B4AC98C8852B0BD4E
:10F12000F41B0700EB210700E04A00EB4000D28C03
:10F1300002EB4010044A835A23F0FF031944815222
:10F14000704700BF40014E2014004F20B0B5054667
:10F1500014200C4651F0B8FD00EB05100149445253
:10F16000B0BD00BF0A004F2070B5064613201446FC
:10F170000D4651F0A9FD06EB460100EB4110044994
:10F18000405AC10B6FF39F202970208070BD00BFD3
:10F1900056004F2010B50446132051F095FD04EBA6
:10F1A0004401002200EB41100149425210BD00BF52
:10F1B0004C004F2010B50446132051F085FD04EBA0
:10F1C0004401002200EB41100149425210BD00BF32
:10F1D0004E004F2010B50446132051F075FD04EB8E
:10F1E0004401002200EB41100149425210BD00BF12
:10F1F00050004F2010B50446132051F065FD04EB7C
:10F20000440100EB41100149405A10BD52004F200B
:10F2100010B50446132051F057FD04EB440100EBF8
:10F2200041101249445AB4F5805F05D3DC489E4929
:10F2300040F2A57256F0C0FA204610BDF41B07003C
:10F24000EB21070010B5B94900EB4000C98C01EB78
:10F2500040100649445AB4F5805F05D3DF4892490F
:10F2600040F2A57256F0A8FA204610BD54004F2077
:10F27000F41B0700EB21070010B50446142051F0E1
:10F2800023FD00EB04100C49405AC0F3C30010BD2D
:10F29000DE49098D01EB00100749405AC0F3C30055
:10F2A000704700BFD949098D01EB00100249405A4F
:10F2B000C0F3C300704700BF04004F2010B50446E0
:10F2C000142051F001FD00EB04100149405A10BD1B
:10F2D0000C004F20B0B50C460546042905D3CA489A
:10F2E000714940F2812256F067FAC84905EB4500A2
:10F2F000C98C01EB401016494452B0BDF41B070005
:10F30000EB21070070B514460E46054611F47C4FFC
:10F3100005D0E148644940F27F2256F04DFAB6012B
:10F3200014F0FC0F05D0DC485F4940F2812256F012
:10F3300043FAB64A05EB450146EA0400D28C02EBDB
:10F340004111034A885270BDEB21070040014E2055
:10F3500012004F20B0B50C460546B1F5804F04D3DE
:10F36000054806A1352256F027FAE3480949008DE1
:10F37000084329014452B0BDF41B07007265675F62
:10F38000656D5F62745F7278646573632E680000F8
:10F3900040014E2000004F2010B50446142051F0CB
:10F3A00093FC00EB04109A49405A10BD10B5044676
:10F3B000152051F089FC04EB440100EB8100084961
:10F3C000405A10BDB0B5054615200C4651F07CFCE6
:10F3D00005EB450100EB810001494452B0BD00BF7F
:10F3E00006004F2010B50446132051F06DFC04EBCD
:10F3F0004401002200EB41100149425210BD00BF00
:10F4000046004F2010B50446132051F05DFC04EB7C
:10F410004401002200EB41100149425210BD00BFDF
:10F4200048004F2010B50446132051F04DFC04EB6A
:10F430004401002200EB41100149425210BD00BFBF
:10F440004A004F20B0B50C460546B1F5804F05D3B4
:10F45000E448154940F2554256F0AEF9132051F0F8
:10F4600033FC05EB450100EB411011494452B0BD9E
:10F47000F41B0700EB210700B0B50C460546B1F5BB
:10F48000804F05D3D748084940F2554256F094F9C9
:10F49000D54905EB4500C98C01EB401004494452A5
:10F4A000B0BD00BFF41B0700EB21070040014E2058
:10F4B0001A004F202DE9F8431D4616460F46804698
:10F4C00011F0FE0F04D0D948D949912256F074F9B1
:10F4D00016F0FE0F04D0E148E149922256F06CF993
:10F4E000DDF8209015F0FE0F04D0DC48DC499322B3
:10F4F00056F062F97F023602ED014FEAC90419F0B5
:10F50000F00F04D0D548D649942256F055F9D54984
:10F5100008EB48003E4A498D01EB800046EA0701AE
:10F52000294321438152BDE8F88300BF40014E20AA
:10F53000B0B50C460546022904D3DA48DA49AE22B2
:10F5400056F03AF905EB4500314901EB80051520ED
:10F5500051F0BAFB285A6FF3DF3040EAC43415206B
:10F5600051F0B2FB2C52B0BDB0B50C46054608298F
:10F5700004D3DD48CC49F62256F01EF905EB4500D0
:10F58000234901EB8005152051F09EFB285A20F0FD
:10F5900007000443152051F097FB2C52B0BD00BF6B
:10F5A000F41B0700B0B50C460546102904D3DE480D
:10F5B000BD49EA2256F000F905EB4500144901EB7C
:10F5C0008005152051F080FB285A20F0780040EA91
:10F5D000C404152051F078FB2C52B0BDF41B070079
:10F5E00010B50446102804D3DF48AF49EA2256F08C
:10F5F000E3F89C480649408D425A22F0780242EADC
:10F60000C402425210BD00BFF41B070040014E204F
:10F6100002004F2010B50446152051F055FB04EBB5
:10F62000440100EB81000849405A10BDB0B50546C1
:10F6300015200C4651F048FB05EB450100EB81001D
:10F6400001494452B0BD00BF08004F2070B51446B8
:10F650000E46054611F47C4F05D0E44892494FF41C
:10F66000947256F0A9F8F60014F0FC0F05D0DF48AC
:10F670008D494FF4957256F09FF8152051F024FBF8
:10F6800005EB4501494A00EB810046EA040141F0DF
:10F690000401815270BD00BFF41B0700F8B51C4681
:10F6A00016460F46054611F47C4F05D0E0487E49CA
:10F6B0004FF4947256F080F816F0FE0F05D0DC4837
:10F6C000794940F2291256F077F8FF00B60014F09D
:10F6D000FC0F05D0D64874494FF4957256F06CF87B
:10F6E000D44905EB4500314A498D01EB800046EADB
:10F6F000070121438152F8BD40014E20B0B50446B8
:10F70000CD00B1F5806F05D3DB4867494FF49472A3
:10F7100056F052F8DA4904EB4400244A498D01EBD3
:10F72000800045F002018152B0BD00BFB0B5044673
:10F73000CD00B1F5806F05D3DB485B494FF4A6726D
:10F7400056F03AF804EB4400184901EB8004152008
:10F7500051F0BAFA205A4EF207010840054315202D
:10F7600051F0B2FA2552B0BD10B50446152051F043
:10F77000ABFA04EB440100EB81000C49405A00F065
:10F78000030010BDB0B500EB4000084901EB800458
:10F79000152051F099FA205A40F0010020F002059E
:10F7A000152051F091FA2552B0BD00BF04004F2042
:10F7B000B0B50C460546B1F5804F04D3EA483A4946
:10F7C000552255F0F9FFAE48E849408D084305EB56
:10F7D000450130F8212002F44042224320F8212044
:10F7E000B0BD00BFF41B070040014E2070B51546A8
:10F7F0000E460446022904D3EB482B49342255F027
:10F80000DBFFB5F5804F04D3E7482749352255F093
:10F81000D3FF152045EAC63551F056FAEC490843A6
:10F8200004EB440120F8215070BD00BFF41B070019
:10F83000C6210700B0B50C460546B1F5804F04D38C
:10F84000D9481949352255F0B7FF8D48E649408D12
:10F85000084305EB450120F82140B0BDF41B07002B
:10F86000C621070040014E2070B50C46054602290E
:10F8700004D3CD480C49492255F09EFF152051F084
:10F8800023FAD94E05EB4505304330F825006FF3D8
:10F89000DF3040EAC434152051F016FA304320F826
:10F8A000254070BDF41B0700C6210700B0B50C460B
:10F8B0000546022905D3BC48704940F28F3255F005
:10F8C0007BFF05EB4500374901EB4015132051F054
:10F8D000FBF9285A20F4806040EA8424132051F078
:10F8E000F3F92C52B0BD00BFF41B0700B0B50C46B5
:10F8F0000546042905D3AC48604940F29B3255F0D7
:10F900005BFF05EB4500274901EB4015132051F043
:10F91000DBF9285A20F4407040EA0424132051F007
:10F92000D3F92C52B0BD00BFF41B0700B0B50C4694
:10F930000546082905D39C48504940F2773255F0D6
:10F940003BFF05EB4500174901EB4015132051F033
:10F95000BBF9285A6FF35F3040EA4434132051F06A
:10F96000B3F92C52B0BD00BFF41B0700B0B50C4674
:10F970000546042905D38C48404940F2E33255F04E
:10F980001BFF05EB4500074901EB4015132051F023
:10F990009BF9285A20F003000443132051F094F9F6
:10F9A0002C52B0BD16004F2070B515460E460446C9
:10F9B000022905D37C48314940F20A4255F0FCFE49
:10F9C000B5F5005F05D378482C4940F20B4255F05D
:10F9D000F3FE132045EAC63551F076F904EB4401F5
:10F9E00000EB41102749455270BD00BFF41B0700D2
:10F9F00070B514460E460546022905D36A481F49CC
:10FA000040F20A4255F0D8FEB4F5005F05D36648CF
:10FA10001A4940F20B4255F0CFFE194A05EB450159
:10FA200044EAC630D28C02EB4111164A885270BDAE
:10FA3000F41B070040014E2070B514460E460546E3
:10FA4000022905D358480D4940F20A4255F0B4FE48
:10FA5000B4F5005F05D35448084940F20B4255F015
:10FA6000ABFE074A05EB450144EAC630D28C02EBF7
:10FA70004111044A885270BDF41B0700EB210700B6
:10FA800040014E2018004F20B0B50C460546B1F598
:10FA9000804F05D34448454940F2212255F08CFE61
:10FAA000280102490C52B0BDF41B070008004F208A
:10FAB0002DE9F84F1D4616460F4611F0E00F009055
:10FAC00005D0394839494FF4827255F075FE16F069
:10FAD000FE0F05D03448354940F2051255F06CFE52
:10FAE000DDF8289015F0FE0F05D02F482F494FF470
:10FAF000837255F061FEDDF82CA019F0FE0F05D0E1
:10FB000029482A4940F2071255F056FEDDF830B078
:10FB10001AF0FE0F05D0244824494FF4847255F0A2
:10FB20004BFE4FEAC7284FEA0924B6026D024FEA9E
:10FB3000CA174FEA8B191BF0FE0F05D01A481B4954
:10FB400040F2091255F038FE46EA08000099264AAC
:10FB5000284320430901384340EA090040F00200ED
:10FB60005052BDE8F88F00BFF41B070000004F2083
:10FB700070B514460E460546022905D30A480B49BE
:10FB80004FF4127255F018FE20B2B0F1FF3F05DCC1
:10FB90000548064940F2492255F00EFE44EAC630B7
:10FBA0002901034A505270BDF41B07007722070059
:10FBB0000A004F200C49425C0843417842EA012187
:10FBC0008278C07841EA024141EA0060704700BF94
:10FBD00000004F20044A815410430A0A42700A0C64
:10FBE000090E8270C170704700004F2010B5064C9E
:10FBF0002068400006D40120F3F7E4FA206840F0C2
:10FC000080502060012010BD14F000501CB500246D
:10FC10000094FBF771F81CBD59B110B50C4652B1F8
:10FC2000F3F7F0FF032808D0022809D1F3F7FFFF0C
:10FC300009E000207047022003E0F3F7FBFF02E039
:10FC40000120F3F7D1FFB0FBF4F010BD09B14FF084
:10FC5000F9B94FF09BBA000070B500EBC002F34B4E
:10FC600003EBC204FF22002384F8442084F84300FD
:10FC7000002000222161242A07D0A518DE430C327F
:10FC8000013385F82260A861F5E788688047074955
:10FC900004F10800F9F73CFF05492046F9F738FF61
:10FCA0002046BDE8704000F03DB800BF6D00010087
:10FCB00055FD0000B0B5044641F2021000211022AB
:10FCC000012300250EF0DAFF05700AF0ABFE94F870
:10FCD0003F00A58784F83E00204600F00BF894F81A
:10FCE00043004FF4805101FA00F0BDE8B04056F0F7
:10FCF000E3BD000003460320BE4A012183F8400013
:10FD00001869D0F800C003F13F0060470346A0F82F
:10FD10004610022083F84000D3E90420D2F800C046
:10FD2000B44A6047B0B504460020B24A012184F8C5
:10FD3000400020692346056804F13F00A84794F875
:10FD400043004FF4805101FA00F0BDE8B04056F096
:10FD5000B3BD00BFBCB5044690F8420058B10128BD
:10FD600004D094F84000002800F02A812046BDE825
:10FD7000BC40FFF79FBF94F84000032800F2878043
:10FD8000DFE800F00223466F94F83F10062984F85C
:10FD90004110EBD8012202FA01F010F06E0FE5D00D
:10FDA00084F84020924A04F13C002346515C2269C9
:10FDB0001568904AA84794F843004FF4805101FA1F
:10FDC00000F0BDE8BC4056F093BD94F84100411EE0
:10FDD000052900F2A180DFE801F003748D9FA7B52B
:10FDE00094F83C0094F83E5094F83D1040EA01200D
:10FDF000A08780B20BF016FC854200F29F8094F839
:10FE00003E00002800F0E78001210EF0F3FE7EE0C6
:10FE100094F841007649B4F84630626904F13C0533
:10FE2000095CCDE900510121FCF74EFB94F841003B
:10FE3000411E052900F2B380DFE801F003A2A9B159
:10FE4000BBC0636994F83E20A18F01200BF0F6FB44
:10FE50006069002800F0B4800EF0AEFC0020606104
:10FE6000AEE0E06B614988421FD094F843004FF444
:10FE7000805101FA00F056F03BFD002003280FD01E
:10FE80002118013091F83D2081F83C20F6E7AA487E
:10FE9000D84940F2C73202B0BDE8B04055F08CBC42
:10FEA0002046BDE8BC40FFF725BF40F603400BF0FD
:10FEB000B9FB012040F60341002200230BF0BEFBFA
:10FEC0007EE094F83E0094F83F1040EA0120E0877D
:10FED00094F83C1094F83D2041EA02210204A187E5
:10FEE00089B272D082B201200BF0DEFA606128B3D1
:10FEF000E18F31E094F83C0094F83E2094F83D10F6
:10FF000040EA012081B2A08701200BF05DFF606113
:10FF1000A0B194F83E101FE094F84310B54A40F2A7
:10FF2000363355F053FC1AE004F13C000DF0B2FFFB
:10FF3000606118B1E18F6FF39F310DE02046FFF74C
:10FF4000B9FE0CE0FBF710FA606194F83D0094F8FC
:10FF50003E1040EA012081B22046FFF7D7FE94F818
:10FF6000400000B1BCBD002194F8410004F13C0206
:10FF7000CDE900111E490B5C0121FCF7A5FABCBDBF
:10FF80006369E28FA18F01200BF0F4FA18E0636936
:10FF900094F83E20A18F01200BF056FF10E094F85A
:10FFA0004310944A40F2AA3302B0BDE8B04055F085
:10FFB0000DBC616928460DF0CFFF01E0FBF7ACF8FE
:10FFC0002046BDE8BC40FFF7ADBE01200022002363
:10FFD0000BF0D0FA05E0A18F0120002200230BF0E6
:10FFE0002DFB2046FFF79EFEB9E700BF01030C0082
:10FFF0000CD90600F9FF0000024680F8421090F884
:020000040001F9
:10000000430018B100201146F9F7FEBD1046F9F77C
:10001000C5BD0000B0B5754D1024A02C08BFB0BD03
:100020002859806880474834F7E700BF1C254E20D8
:10003000F8B56E480124002600F110052F46E007B0
:1000400008D0012E06D857F8480BC06880470446F0
:100050000136F4E710B104F00100F8BD002EFAD02B
:1000600055F8480B80688047013EF7E7F8B590F8EF
:100070003C70054600F11006A0F10804FF2F06D1E0
:100080005C4A2846214640F2262355F09FFB07EBA9
:100090004700002146F8201006EB8000406800B1C0
:1000A0008047FF2000213246002385F83C000329C9
:1000B00009D0176827B1977A9F4284BF08463B460C
:1000C0000C320131F3E7C1B285F83C00FF2911D0B1
:1000D0004900AA68234651FA80F1D2F804C0444A84
:1000E00056F8210006EB81010989013101B0BDE814
:1000F000F040604794F843004FF4806101FA00F04B
:10010000BDE8F84056F0D8BB10B5044629B10A48FE
:10011000384940F2F31255F04FFB94F8430004F1D4
:10012000080120B10020BDE81040F9F76DBD084678
:10013000BDE81040F9F732BDF41B07002DE9FC4182
:100140000C461546984600260021074622462B46B7
:10015000CDE90066FCF7B8F9781E04F8017D0428A3
:1001600002D20020002607E0052F04D0062F2BD155
:100170000126022000E0012046EAC6021B4900EBEE
:10018000400301EBC20202EB83031D84C3E906486E
:1001900012F8443FFF2B18BFBDE8FC81107006EB3E
:1001A000C600134A01EBC006691C30693346476834
:1001B0002046B84796F843004FF4806101FA00F0FA
:1001C000BDE8FC4156F094BB0A4C3846022140F28F
:1001D000B543224655F0FAFA38460221224640F24B
:1001E000D14302B0BDE8F04155F0F0BA1C254E20D5
:1001F00009010100891E0700F8B5524F0446482244
:10020000211D07F12000F0F709FB206804F1940597
:100210004D4EC006284648BF04F14C0094F84910E2
:10022000B860890744BF0430B86005203870706832
:10023000F860B0683861306978617069B8613068B9
:100240007968F86121B104F12C008847002878D042
:100250003E483F4F2946B847A16C3E48B847E16A3F
:100260003D48B847216B3D48B847616B3C48B847AB
:10027000A16B3C48B847E1683BA0B84721693EA064
:10028000B847616940A0B847A16943A0B847E16990
:1002900045A0B847216A48A0B847616A4AA0B84754
:1002A000A16A4DA0B847E16B4F48B847216C4F4851
:1002B000B847616C4E48B8472078400703D455488A
:1002C00052F01EFC05E054F0BBFB014649A052F081
:1002D00017FC514852F014FC5048EFF30981EFF33A
:1002E000088252F00DFC53F031FF2078C00602D492
:1002F0004B4852F005FC002043F6E07C3066BFF32B
:100300004F8FF16DC1F34E30C1F3C9029107013235
:100310000CEA40140D46174645EA040305F1404532
:10032000013FC6F84832F7D1431E00281846EFD1E6
:10033000BFF34F8F0120BFF36F8FBDE8F840F2F796
:1003400041BFF8BD00134E2024ED00E0D22C070081
:10035000012B0600EC2C0700842C0700912C0700D1
:100360009E2C0700B82C07007230343A20307825D4
:100370003038780A000000007230353A2030782595
:100380003038780A000000007230363A2030782584
:100390003038780A000000007230373A2030782573
:1003A0003038780A000000007230383A2030782562
:1003B0003038780A000000007230393A2030782551
:1003C0003038780A000000007231303A2030782549
:1003D0003038780A000000007231313A2030782538
:1003E0003038780A00000000AB2C0700DF2C070033
:1003F000C52C070068617264206661756C74206F9B
:100400006E207468726561643A2025730D0A0D0AC6
:10041000000000002F2C0700572C07006E2C07004F
:10042000492C07002DE9F04190B08046EB480D0AB9
:1004300016460C46006850F8257008460EF0ECFC95
:1004400009280DD0042837D101AD2D493C2228467A
:10045000F0F7E4F9204631462A4613F0EBF948E07C
:1004600026482146026840F2046090472046012158
:100470000EF0FCFC304600210FF083FF97F8890056
:1004800000F00300032805D040F20F602146224609
:100490000EF044FC98F8060098B907F13801284698
:1004A00049F07EFE68B1012087F8440087F8D40146
:1004B000204611F017F90DE030460C210FF061FFD6
:1004C00017E0012097F83920332187F845002846A6
:1004D00014F01CFF48F036F828B140F216602146AF
:1004E00022460EF01BFC40F21960214622460EF017
:1004F00015FC002010B0BDE8F08100BF8C004E203C
:1005000074B5060070B590B00646084614460D4610
:100510000EF082FC042863D10020354A0390099034
:100520008DF81000CDF81200CDF816008DF82800D7
:10053000CDF82A00CDF83600D6E90201CDE9010157
:10054000CDE907011821708A01EAC00122FA01F100
:1005500001228DF80C108DF8111081064FF010015A
:1005600058BF0821ADF82E10ADF83010C1B200F41C
:10057000407002EB9112B0F5007F8DF832208DF8BB
:100580003320C1F382018DF834108DF835104FF00F
:10059000040108BF0121B0F5807018BF08468DF82E
:1005A00024008DF829002146308AADF83A00307DCC
:1005B0008DF83E00F08A01AE324680F47070ADF8DE
:1005C0003C00284613F036F99A49280A3C2209686B
:1005D00051F82000314600F5F070F0F71FF903E004
:1005E00020460C210FF0CDFE002010B070BD00BFE2
:1005F000020001032DE9F0412648140A0D46006867
:1006000050F82470204627F09FFAC0BB688828B3B2
:10061000A888F7F7C5FC698806460020F08011F429
:100620007C4F0CD01CA240F2FF3040F2911340F2FC
:10063000FF3855F0CBF8F088698820EA08000843B5
:1006400029880A4660F30D02F28022F4405097F8A0
:10065000A5205AB1002187F8A5100AE0288810F4D7
:10066000405F04BF012087F8A50008E001F4405175
:100670000843F0802046314635F064FD38B1688883
:1006800010B1A888F7F7A8FC204627F011F9002040
:10069000BDE8F081502C4E206C6C635F6863692E5E
:1006A0006300000070B5488868B388881E460D4610
:1006B000F8F784FD6988044611F47C4F07D0134A8B
:1006C00040F2FF3040F2523355F080F8698860897B
:1006D0006FF31F310E4A00F4406096810843298869
:1006E00001F4405301F440411844137D084421466D
:1006F000608100201CF08AFF18B12089F8F77CFD8A
:1007000001E047F0ADF9002070BD00BF20210700D7
:10071000542B4E20F8B50D46E349140A10460968DB
:1007200051F824700EF078FB192811D8012101FA34
:1007300000F0414908420BD0688810B1A888F8F74A
:100740005BFD04F1800001210FF092FE0020F8BD56
:10075000688828B3A888F8F731FD69880646002024
:10076000708111F47C4F0AD01D4A40F2FF3041F2F3
:10077000062355F02BF87089698800F47C40084303
:1007800029886FF39F3001F44042104497F85120BC
:10079000708120F440505AB1002187F851100AE0CE
:1007A000288810F4405F04BF012087F85100C3E798
:1007B00001F440510843708197F84B1039B100F4AF
:1007C0004050B0F5805FB7D0002087F84B0020463E
:1007D000314617F067FD0028AED1B7E7AC2B4E20AD
:1007E0009C21070070B50D46080AE74914460968C0
:1007F00051F8206028460EF00FFB19280BD8012174
:1008000001FA00F0E149084205D0022120460FF02C
:10081000B8FD002070BD48F0C9F910B1002086F87D
:10082000930040F2166029462A460EF077FA00211E
:10083000ECE700BFAC2B4E200100C003B0B504466E
:1008400050F0BEF9A04208D850F0BAF9454A014626
:10085000204640F25F5354F0B9FF434DA869015D53
:1008600031B168483F494FF4AC6254F0A5FFA86924
:1008700001210155B0BD00BFB0B5044650F0A0F94C
:10088000A04208D850F09CF9364A014620464FF461
:10089000AD6354F09BFF344DA869015D31B95948EF
:1008A000304940F2695254F087FFA8690021015590
:1008B000B0BD00BF70B50C46054650F08FF9A84298
:1008C00006D8284A2846002140F2735354F07EFF90
:1008D000254EC5EBC505F169485D30B1214A0021BF
:1008E00040F2745354F072FFF1694819A188A0F8DE
:1008F00005102168C0F801100121F069415570BD53
:1009000010B5044650F06AF9A04206D8154A2046B0
:1009100000214FF4B16354F059FFF849C4EBC4000F
:100920000022C9690A5410BDB0B5044650F056F90A
:10093000A04206D80B4A2046002140F27F5354F0D3
:1009400045FFEE4DC4EBC404E969085D012806D0FB
:10095000044A00214FF4B06354F038FFE9690220E3
:100960000855B0BD071C0700B0254E20F8B5244F30
:10097000244C254D0026082E1ED007EBC60137F863
:100980003600496802380C3102B2002A12D40B88B2
:1009900001F10C0231F80C1C01386FF39F236FF347
:1009A0009F2199421146EFD32046294640F6211255
:1009B00054F002FF0136DEE71448312101F0BEF9A0
:1009C00028B91048104940F6261254F0F5FE104898
:1009D000022101F0B3F928B90A480B4940F62A125E
:1009E00054F0EAFE0B481F2101F0A8F900B1F8BD50
:1009F0000448054940F62F12BDE8F84054F0DCBE2B
:100A000014D90600F41B0700761E070048E806000C
:100A100038E80600D0E906002DE9F0410D46080A45
:100A200059491446096851F8207028460EF0F4F927
:100A3000A0F11701032908D338B101280DD197F887
:100A4000C80160B12046232101E020460C210FF0AF
:100A500098FC00263046BDE8F0810226FAE797F8B8
:100A6000930001281DD148F0A1F810B1062087F8A5
:100A7000920097F897004FF0010887F8D28118B1DB
:100A800087F8C88187F8CB812046002100260FF027
:100A900078FC284687F88C6087F8448016F038F98F
:100AA000D8E720460621D2E7AC2B4E202DE9F041B5
:100AB00090B00646E5480F0A90460D46006850F88B
:100AC000274008460EF0A8F919280ED8012101FA8E
:100AD00000F02E49084208D0404602210FF051FC98
:100AE0000027384610B0BDE8F081308807F180015A
:100AF000814225D194F854107088F4F7B2FB074670
:100B000094F8571094F8582094F859307088F4F7F6
:100B100064FB3843E083718888422FD140F008009D
:100B200000210027E08340460FF02BFC01202946DE
:100B30002A4684F8CF0140F213600EF0EFF8D0E7B8
:100B400028460EF069F901281BD100270121012256
:100B5000ADF83A708DF83E70CDE901777088C0F33A
:100B600042103388ADF83C0001A80090284612F0EE
:100B70009BFF014640460FF004FCB2E740461A21B5
:100B8000ACE70227ADE700BFAC2B4E200100C0034D
:100B9000B0B5084C0020802804BF0020B0BD255A05
:100BA00008309D42F7D1204450F804CC1846BDE8E7
:100BB000B0406047B4C60600B0B5084C0020A82875
:100BC00004BF0020B0BD255A08309D42F7D1204413
:100BD00050F804CC1846BDE8B04060479CC70600FA
:100BE00010B5094A0020182804BF002010BD145A6F
:100BF00008309C42F7D1104450F8042C084619469E
:100C0000BDE81040104700BF5CEB0600B0B50A4CD1
:100C10000020B0F5007F04BF0020B0BD255A083089
:100C20009D42F6D1204450F804CC084611461A469D
:100C3000BDE8B040604700BFACEB060010B5094A04
:100C40000020B0F5807F04BF002010BD145A08308A
:100C50009C42F6D110441A4650F804CC0878BDE8FE
:100C600010406047ACEF060010B5094A0020B028DC
:100C700004BF002010BD145A08309C42F7D1104424
:100C800050F8042C08461946BDE81040104700BF34
:100C9000ECF3060010B5094A0020B0F5407F04BF10
:100CA000002010BD145A08309C42F6D1104450F870
:100CB000042C08461946BDE810401047E4F406002D
:100CC00010B5094A0020B0F53A7F04BF002010BDDE
:100CD000145A08309C42F6D1104450F8042C0846AF
:100CE0001946BDE8104010475CF806000348B0F80C
:100CF000640070470149A1F864007047B0254E2098
:100D000010B543780C468178C21C1846FAF730F9C2
:100D10000146204645F012FF002010BD10B5437873
:100D20000C468178C21C1846FAF722F90146204683
:100D300047F059F9002010BD2DE9F843DFF8889DF0
:100D4000884605460027012600244FF047FF8442CD
:100D500015D204EBC401D9F834000144897906297D
:100D60000AD806FA01F111F0620F05D0384429467D
:100D70000622EFF798FD10B109370134E5E7E6B236
:100D80004FF02CFFB04235D904EBC407D9F834003A
:100D900038448079411F022909D22002013081B2F2
:100DA000284642460DF094FF0120BDE8F883012853
:100DB00025D1D9F8001051B9D9F8040038B96F48D5
:100DC0006F494FF4A66254F0F7FCD9F8001089B1CE
:100DD00028460622EFF767FD28B16848684940F2C7
:100DE000355254F0E9FC1FF0F9FF0C280AD12846CF
:100DF0000021D6E7404602212A4647F0DFF80020CE
:100E0000BDE8F883D9F83400022138448171F6E74F
:100E100070B50446084615460E460DF0FDFF48B174
:100E2000AA49300A096851F8201091F8491019B1FF
:100E30000B2104E00C2102E01BF08AFB014628464E
:100E400022460FF079FA002070BD00BFAC2B4E2077
:100E50002DE9F04186B0474F88460546002600241C
:100E60004FF0BCFE844211D204EBC401786B014404
:100E7000897901290AD0052905D33044294606225B
:100E8000EFF711FDB8B109360134E9E70C26E4B2F9
:100E90004FF0A4FEA04206D8287A022802D8287B68
:100EA00001280AD912264046314647F0AAF8002008
:100EB00006B0BDE8F0810B26E9E700264FF08EFE74
:100EC000864207D206EBC600796B0844807908B1E8
:100ED0000136F3E7F4B24FF081FEA04248D906EBA9
:100EE000C60448F001FD796B0028214408723FD008
:100EF000A888ADF8040028680090B5F90A00C20B74
:100F000002EA40003A8CADF80C00B87E8DF8100073
:100F1000B88A10440290087A8DF811602E7A8DF804
:100F2000120047F0EFFD00210130ADF81310124917
:100F300031F816104843ADF80E0068461FF072FEF7
:100F40000646786B012200EB04018A712A6802517F
:100F5000A88888803D602EB10848094940F20352B4
:100F600054F02AFC4046314647F04BF801209FE7F9
:100F7000092698E7B82D4E2094FB0600F41B0700C5
:100F8000322207002DE9FE4314460029CDE9010174
:100F90004CD00546208801EB030801270E4602913C
:100FA00001A94246009705EB000902A84B4607F04D
:100FB000BDFFC0BB701C01A942464B460097029082
:100FC00002A807F0B3FF70BB301D042701A94246F9
:100FD0004B46029002A8009707F0A8FF18BB06F145
:100FE000080001A942464B460097029002A807F06C
:100FF0009DFFC0B906F10C0001A942464B46029084
:101000000420009002A807F091FF60B906F11000DB
:101010000290EFF741FCC0B201A942464B46009056
:1010200002A807F083FF0199491B01E0002100207D
:101030002180BDE8FE8370B50A4604464FF488500F
:101040000021082300260DF019FE054620883DF0FA
:1010500081FC686020882E706880284609F0E2FCD8
:10106000002070BD70B50A4604464FF48850002138
:10107000042300260DF002FE0546A18820883DF0DD
:1010800081FC20882E706880284609F0CBFC002067
:1010900070BD000070B514460C4A0546080A126877
:1010A00052F8206008460DF0B7FE38B1A87800214C
:1010B000002818BF012086F8530000E00C212A8880
:1010C00020460FF04EF9002070BD00BFAC2B4E2023
:1010D00070B50546084616460C460DF09DFEC0B19B
:1010E000692804BF022070BDF8F782F9064680889F
:1010F0000B49AA780843E91CEFF790FBA878314622
:10110000B071200A17F0FAFF204669210DF0AEFEFB
:1011100004E02A8830460C210FF023F9002070BD2E
:1011200000004F2070B50C464FF4885000214FF658
:101130000342012300260DF0A1FD0546AF4881685A
:101140002078884728462E7009F06CFC002070BD7E
:1011500080B51A464FF48850002101230DF08EFD12
:101160001121017009F05EFC002080BD80B51A4697
:101170004FF48850002102230DF080FD11210170F1
:1011800009F050FC002080BD7CB5044611480D4696
:1011900090F8C000C0070CD00F480DF107020121E4
:1011A0002346009506683020B04706469DF80700A4
:1011B00068B14FF4885000212A46012300260DF023
:1011C0005DFD2168054A0670516009F02BFC304630
:1011D0007CBD00BF40214E2010024E20942C4E209A
:1011E000B0B50C4641F2011000214FF61742012321
:1011F00000250DF043FD30B1057009F013FCA17816
:10120000208835F043FB0020B0BD000080B50246C9
:10121000C04889780068002950F82200B0F89E3054
:1012200018BF012123F0400343EA81110123A0F8F4
:101230009E1011464FF488504FF636420DF01EFDB9
:101240000021017009F0EEFB002080BD70B50D4655
:101250004FF4885000214FF68542012300260DF0FF
:101260000DFD0446287805280AD0032802D002285C
:1012700013D101266978AA78304655F0DFFA0AE0E2
:101280000948016841F400410160D0F8001441F4BC
:101290000041C0F80014002000E01120207020461A
:1012A00009F0C0FB002070BDD0040950B0B50D4658
:1012B00019464FF488504FF6114201230DF0DEFC21
:1012C000297804460020012908BF4FF0A5300029E5
:1012D00008BF4FF0C33008B14EF03AF8122020702A
:1012E000204609F09FFB0020B0BD80B51A464FF4A0
:1012F0008850002182230DF0C1FC1121017009F0FA
:1013000091FB002080BD70B54FF4885000214FF64E
:101310001042182300260DF0B1FC051D044600F113
:10132000080100F10C0200F1100328460DF010FE38
:1013300030B111202070C5E90066C5E9026600E001
:10134000267000206061204609F06CFB002070BD13
:1013500080B51A464FF48850002182230DF08EFC90
:101360001121017009F05EFB002080BD7CB5A1F168
:101370000C000DF0B3FC00240DF10205032C06D087
:10138000E0B20DF001FB25F814000134F6E70DF092
:10139000F5FA04464FF4885000214FF612420C2310
:1013A00000260DF06BFC032E06D000EB460135F84D
:1013B000162001364A80F6E700218460017009F0AA
:1013C00031FB01207CBD000070B51A460C464FF47D
:1013D00088500021822300260DF050FC0546802015
:1013E0002946AA1C01F8010FDE48036820789847B7
:1013F00028462E7009F016FB002070BD640F4E20A9
:1014000010B502464FF488500021012300240DF04E
:1014100035FC047009F006FB002010BD10B5024633
:101420004FF488500021012300240DF027FC0470A4
:1014300009F0F8FA002010BD10B502464FF48850AC
:101440000021012300240DF019FC047009F0EAFAD0
:10145000002010BD70B50C464FF4885000214FF6A7
:101460003942082300260DF009FC05461348C16ADD
:1014700020888847686020882E706880284609F098
:10148000D1FA002070BD00BF70B50C464FF48850F3
:1014900000214FF63A42042300260DF0EFFB0546EB
:1014A00006486168026B2088904720882E7068800B
:1014B000284609F0B7FA002070BD00BF700F4E201B
:1014C0002DE9F041054613480E469046006850F855
:1014D0002540887801210C300DF08CFB0746B07850
:1014E000F11C38720020B278786007F10900EFF73C
:1014F00095F904F134003946F8F70AFD284626F03C
:1015000021FF28464146002225F054FD0020BDE879
:10151000F08100BF502C4E2010B508681C4655F0D5
:10152000D1FA4FF4885021464FF60F4201230DF0B7
:10153000A5FB0021017009F075FA002010BD10B55F
:101540000868F9F70DFE4FF4885000214FF68442E9
:10155000012300240DF092FB047009F063FA0020CF
:1015600010BD80B5084622F0BBFA002080BDBFB593
:101570000C4619464FF488504FF6634201230DF094
:101580007DFB054694E80700D4F80E30ADF808104E
:10159000ADF80620ADF80400A0890393ADF80A0069
:1015A00001A856F0EDFA2870284609F03BFA002011
:1015B00004B0B0BDB0B50D4619464FF488504FF693
:1015C000624201230DF05AFB04462888411E02297D
:1015D00009D800EB4000464901EBC000143856F032
:1015E00097FC002000E002202070204609F01AFA43
:1015F0000020B0BDB0B586B00D4619464FF48850F6
:101600004FF6644210230DF039FB04460020D5F854
:101610001230ADF80A002868D5E902120493ADF83B
:101620000000A888ADF80610298AADF8020001383C
:10163000ADF80E10A97DADF80C006846ADF8082095
:101640008DF8141056F082FC2070BDF80400606024
:10165000BDF80A00A060BDF80C00E060204609F06B
:10166000E1F9002006B0B0BD2DE9F8430D4619465A
:101670004FF488504FF6614204230DF0FFFA044600
:10168000288A411E02292BD8DFF8649000EB400124
:10169000AA8A4FF00008EE68A9F8008029F83120E6
:1016A00009EBC101134A41F8102C95E88C0021F890
:1016B000040C688A21F80A3C21F8087C21F8066CA1
:1016C00021F8020CA87D21F80C2C8870A1F11400DF
:1016D00056F0C2FCB9F8000084F80080608001E098
:1016E00002202070204609F09DF90020BDE8F88313
:1016F000F00F4E2081B0000080B51A464FF488509C
:10170000002101230DF0BAFA1121017009F08AF9C4
:10171000002080BD80B54FF4885000214FF6024272
:1017200001230DF0ABFA1121017009F07BF90020C3
:1017300080BD000070B51A460C464FF48850002159
:10174000012300260DF09AFA05463648A178E21CDE
:1017500043682078984728462E7009F063F90020E6
:1017600070BD00BF640F4E202DE9F04F87B00A46D0
:1017700080464FF488500021042300250DF07EFAA6
:1017800045800570044698F80600012821D0A8BBC2
:10179000CD48DFF890A04FF0160B0DF105090DF1C3
:1017A000060790F84560012E31DB06F16000DAF89B
:1017B000003049463A468DF805B0C5B228469847EC
:1017C00028B9404639460622EFF76DF8C0B1013E10
:1017D000E9E7BD48134D90F84510012917DB01F1E9
:1017E0006000AA684E1EC0B2904702283146F4D06D
:1017F00058B96088314601306080EEE7122005E07C
:10180000DAF808102846884740B1032020702046A7
:1018100009F008F9002007B0BDE8F08F01206080D2
:10182000F5E700BF640F4E202DE9FF410446514803
:101830000D4690F8AC00C0070CD04F480DF10F02D8
:1018400001212346009506682B20B0479DF80F1014
:1018500000297ED0218841F201102A4601230DF093
:101860000DFA464F80462078396851F82050002004
:10187000029075B195F8290002AA002144F040FABF
:1018800048B13F483F4940F67B0253F095FF1F2087
:1018900059E0022057E0002600E001364FF090F9B1
:1018A000864214D2386850F826000028F5D00299F4
:1018B00090F8292049788A42EFD1697942798A42A1
:1018C000EBD090F82D00022818BF0528E5D1F6B21C
:1018D0004FF076F9B04235D895F82B1095F82D00D9
:1018E000012927D104282DD1002088F80000404686
:1018F00009F098F895F82D0002282DD195F82800C8
:10190000442124F069FD18BBA97BEB7A029844229C
:101910000091294643F0B8FF2846162143F08AFF7C
:101920007868002485F82D4090B10C380CF044FF05
:101930007C600DE00528D7D8012101FA00F010F0F5
:10194000230FD1D00C2088F80000404609F06AF837
:10195000002004B0BDE8F081052085F82D0095F841
:101960002C0034F0B1F8012085F82E00A07885F81D
:101970002A00EDE740214E2010024E20AC104E20F0
:10198000F41B0700E92007002DE9F84305461E482F
:1019900091468846006850F82540284626F07AF897
:1019A00008B10C2728E0B4F8A200C00723D1280210
:1019B0000C23011D40F209100A460DF05FF9134A8D
:1019C0000121064628F0B0FB3046294600220027B8
:1019D00028F0ECFB98F802003072132808BF16209C
:1019E000707230460DF082F9B4F8A20040F00100A8
:1019F000A4F8A20000E03A27284649463A4625F0D6
:101A0000E9FA0020BDE8F883502C4E201172030043
:101A10002DE9F041064622480F0A14460D4600689B
:101A200050F8278008460DF0F7F919280CD8012145
:101A300001FA00F01B49084206D00C2120460EF0A6
:101A4000A0FC0020BDE8F081B078002116A2062994
:101A500015D0535C01318342F9D1318807F18002FE
:101A60008A420ED1012188F8370040F21D602A46D3
:101A700088F8CE1129460DF051F90021DEE7122138
:101A8000DCE728460DF0C8F901281CBF0220BDE89C
:101A9000F081B2783188284612F0DEF80146CDE7B1
:101AA000AC2B4E200100C003051314151A290000A9
:101AB00080B508460449012281F83120002146F012
:101AC00092FA002080BD00BFB82D4E2070B590B0B6
:101AD0000646084614460D460DF09EF9042857D1D7
:101AE000D6E90201D6F81A20336ACDE90101CDF812
:101AF000162021460793706A0890D6F83200CDF878
:101B00002E00D6F83600CDF83200708FADF83600D2
:101B100096F83C008DF8380096F83D008DF83900B5
:101B2000F08FADF83A0096F842008DF83E0030692B
:101B30000390307D8DF81000D6F81500CDF8110017
:101B4000707E8DF81500B06A099096F82C008DF81B
:101B5000280096F831008DF82D00D6F82D00CDF82C
:101B60002900B6F8400001AE324680F47070ADF83E
:101B70003C00284611F05EFE6F49280A3C220968A5
:101B800051F82000314600F5F070EEF747FE03E013
:101B900020460C210EF0F5FB002010B070BD00BFF8
:101BA0007CB50446084615460E460DF035F960B181
:101BB00061480021360A8DF80710A178006850F8B6
:101BC000260039B12846122101E0284602210EF0F4
:101BD000D8FB1DE0012180F84B10284600210EF0B3
:101BE000D0FB0DF107013046002216F0C5F99DF833
:101BF000071011B120880EF03BFC218841F2021041
