:020000040000FA
:1000000088AD12206508000000000000000000001C
:1000100000000000000000000000000000000000E0
:1000200000000000000000000000000000000000D0
:1000300000000000000000000000000000000000C0
:1000400000000000000000000000000000000000B0
:1007C000DFF80CD000F0E0FE00480047C51600003E
:1007D00088AC1220204880F30A88204880472048AF
:1007E0000047FEE7FEE7FEE7FEE7FEE7FEE7FEE77F
:1007F000FEE7FEE7FEE7FEE7FEE7FEE7FEE7FEE7D1
:10080000FEE7FEE7FEE7FEE7FEE7FEE7FEE7FEE7C0
:10081000FEE7FEE7FEE7FEE7FEE7FEE7FEE7FEE7B0
:10082000FEE7FEE7FEE7FEE7FEE7FEE7FEE7FEE7A0
:10083000FEE7FEE7FEE7FEE7FEE7FEE7FEE7FEE790
:10084000FEE7FEE7FEE7FEE7FEE7FEE7FEE7FEE780
:10085000FEE7FEE7FEE7000088A812206DAE00006C
:10086000C10700000048804769DA0200EFF31080FA
:1008700072B6704780F31088704740BF614A1368B2
:10088000012B04D04FF0010313605F4A10605F4AF0
:1008900011605F484FF0805101607047EFF31082A4
:1008A00072B65848016851B34FF0000101605648D4
:1008B000016891B1EFF309811EF0100F08BF21ED1F
:1008C000108B21E9F00F4FF000041EF0100F08BF4D
:1008D000012441F8044D006801604C490968096829
:1008E00008C9B1E8F00F002B18BFB1EC108B81F3F1
:1008F00009884EF0100E002B18BF2EF0100E82F358
:1009000010884EF0040E704742484FF47F01D0F833
:10091000002041EA0201016070473C490860EFF3A2
:10092000148222F0040282F3148837494FF0000049
:10093000086034494FF00100086036484FF47F01E9
:10094000D0F8002041EA0201016031484FF08051A7
:10095000016031480068006880F3088861B662B6BB
:10096000704720BF70471EF0040F0CBFEFF30880E4
:10097000EFF3098020E9F00F40F804ED40F804EDB2
:100980001EF0040F0CBF80F3088880F3098800B5BF
:1009900040F08AF95DF804EB4EF0040E70471EF04B
:1009A000040F0CBFEFF30880EFF3098020E9F00F8C
:1009B00040F804ED40F804ED1EF0040F0CBF80F386
:1009C000088880F3098800B540F0D0FA5DF804EBA0
:1009D0004EF0040E704710B5EFF3038410B47C465C
:1009E00010B400B54DF804CD0FB4684640F08EF851
:1009F0000FBC5DF804CB5DF804EB10BC10BCBDE887
:100A00001040FEE748831220988012209C8012201C
:100A100004ED00E020ED00E008ED00E00649074AA3
:100A20000868504343F23902104408604008704798
:100A30000149086070470000044012206D4EC64115
:100A400010B500683C22B0FBF2F302FB1303B0FBCD
:100A5000F2F00B60B0FBF2F302FB1303B0FBF2F019
:100A600018224B60B0FBF2F302FB1303B0FBF2F071
:100A7000021D8B600723B2FBF3F403FB14228000FA
:100A800040F2B55300F66C308A61B0FBF3F2B0FB74
:100A9000F3F403FB1400443280084A61C8613B2828
:100AA00002D3920700D0401C0022074C13460A6173
:100AB000E25C824203D8801A5B1C0B61F8E7401CA1
:100AC000C860084610BD0000601E050038B5D0E9BA
:100AD0000221491E01EB410102EBC1014268C1EB59
:100AE000011102EB81010268C1EB011102EB8102ED
:100AF000D0E9043101EB410103EB81013023A1F581
:100B0000527191FBF3F4174D6C4302EBC41291FB4D
:100B1000F3F403FB141100921A2902DB124B1A445E
:100B200000920C2291FBF2F3104C6343009C04EB07
:100B3000C313009391FBF2F302FB13110C4A08E07C
:100B4000491E40F2A324535C6343009C04EBC3138F
:100B500000930029F4DC0146684600F075FB00981C
:100B600038BD00003F0C0F008051010067C2030038
:100B70006C1E050010B500F061FBBDE8104000F0F0
:100B8000A9BB10B5431A934209D28318881803E011
:100B900010F8011D03F8011D521EF9D210BD40EAE4
:100BA00001039B0703D009E008C9121F08C0042AEB
:100BB000FAD203E011F8013B00F8013B521EF9D2D2
:100BC00010BDD2B201E000F8012B491EFBD27047E4
:100BD0000022F6E710B513460A4604461946FFF709
:100BE000F0FF204610BD421E12F8013F002BFBD142
:100BF00011F8013B02F8013B002BF9D1704710B509
:100C0000044604E00B7800F8013B03B1491C521E76
:100C1000F8D2204610BD421C10F8011B0029FBD160
:100C2000801A704710B5002200E0521C835C8C5C77
:100C3000A34201D1002BF8D1D8B2E1B2401A10BDC5
:100C400030B504460020034600E05B1C934203D20B
:100C5000E05CCD5C401BF8D030BD034611F8012BA1
:100C600000F8012B002AF9D11846704730B5054627
:100C70000020034600E05B1C934205D2EC5CC85C9C
:100C8000201A01D1002CF6D130BD70B5064650F0C7
:100C900007FC046805460A220021304600F078FB74
:100CA0002C6070BD2DE9FE4F804681EA0300C00F25
:100CB0000C46009021F0004123F00045B8EB020003
:100CC000A94105D24046214690461C460B460246A5
:100CD00023F00040104347D0270DC7F30A00C3F3A9
:100CE0000A510290401A019040286BDAC3F31300B6
:100CF00040F4801B0098924620B10023D2EB030AF7
:100D000063EB0B0B01985946C0F14002504600F0CE
:100D100064FA06460D4650465946019A00F07CFAA0
:100D200010EB08006141002487EA115284EAE7735E
:100D30001A4340D0009A62B3019A012A4FEA07523F
:100D400015DC001B61EB02014FF0004202EA075282
:100D5000CDE90042001C41F5801132462B4600F0DF
:100D600095FB03B0BDE8F08F40462146F9E7001B34
:100D700061EB0201001C41F5801300185B41201853
:100D8000A2F5001747EB030140EAD570B6196D4193
:100D900011E06D084FEA360645EAC0754FEA075282
:100DA000001B61EB0201001C41F5801149084FEA6C
:100DB00030000019514132462B4603B0BDE8F04FD8
:100DC00000F055BB0098012240000023D0EB020246
:100DD00063EBE073009821464FEAE074B8EB000043
:100DE00061EB0401E9E783F000435BE781F0004138
:100DF00058E72DE9FE4F81EA030404F0004421F096
:100E0000004100944FF0000B23F0004350EA01042E
:100E10005ED052EA03045BD0C3F30A54C1F30A550F
:100E20002C44A4F2F3340194A0FB0254C1F3130147
:100E300041F48011C3F3130343F4801301FB024414
:100E400000FB034E840A970A44EA815447EA835719
:100E5000A4FB076802958D0A05FB07854FEA932CD2
:100E600004FB0C542705029D4FEA065847EA163743
:100E7000B5EB08056EEB070C870E920E47EA81175B
:100E800042EA8312A7FB0201B6EB0B0164EB0004FC
:100E90002B0D43EA0C335E1844EB1C50DA465146E6
:100EA000E7FB0201C5F313044FEA0B3343EA145383
:100EB0004FEA0432019C43EA0603A4F10C040294B5
:100EC000009CCDE900B400F0E1FA03B0BDE8F08F7A
:100ED00000200146F9E72DE9F04D81EA030404F012
:100EE000004B21F0004514464FF0000A23F000416A
:100EF00050EA050220D054EA01021DD0C5F30A577A
:100F00000246C5F31303C1F31300C1F30A5640F4BC
:100F1000801543F48013A7EB0608101BD64608F291
:100F2000FD3873EB050002D308F1010801E09218C7
:100F30005B41B8F1000F03DA00200146BDE8F08DF7
:100F400000204FF48011064684460EE0171B73EB19
:100F5000050705D3121B63EB050306434CEA010C9E
:100F600049084FEA300092185B4150EA0107EDD181
:100F700052EA030012D082EA040083EA0501084322
:100F800005D0101BAB4106D20122002306E000224F
:100F90004FF0004302E06FF0010253101AEB06001D
:100FA0004CEB085110EB0A0041EB0B01BDE8F04D92
:100FB00000F05DBA30B5041E71F1000404DB4FF09F
:100FC0000044404264EB0101141E73F1000405DB90
:100FD0001C464FF00043524263EB0403801A9941D0
:100FE00001D3012030BD002030BD30B5041E71F1A9
:100FF000000404DB4FF00044404264EB0101141E86
:1010000073F1000405DB1C464FF00043524263EBD2
:101010000403101A8B4101D2012030BD002030BDE5
:1010200030B5041E71F1000404DB4FF0004440426F
:1010300064EB0101141E73F1000405DB1C464FF044
:101040000043524263EB0403101A8B4101D3012089
:1010500030BD002030BD30B5041E71F1000404DB4A
:101060004FF00044404264EB0101141E73F1000490
:1010700005DB1C464FF00043524263EB0403424041
:101080004B401A4301D0002030BD012030BD0EB5C9
:10109000C10F80EAE0700844CA07002140F23343E0
:1010A0008DE80E000A460B4600F0F0F903B000BDD3
:1010B00070B5C1F30A5201F000450024C1F31301D9
:1010C00040F2FF3341F480119A4201DA002070BDF2
:1010D00040F233439A42A2F2334203DC524200F020
:1010E0008BF800E090402C43F1D0404270BD00F0FE
:1010F000004230F000400AD0C10D01F56071C0F32C
:10110000160042EA0151C20840071143704700200F
:101110000146704701F0004330B421F0004150EA2D
:10112000010206D00A0DA2F56072C1F31301002A74
:1011300002DC30BC00207047440F44EAC104C10007
:10114000E01830BC00EBC25000F05AB930B50B4685
:10115000014600202022012409E021FA02F59D42E7
:1011600005D303FA02F5491B04FA02F52844151EBB
:10117000A2F10102F1DC30BD2DE9F05F054600204F
:1011800092469B4688460646814640241BE02846F8
:1011900041464746224600F02FF853465A46C01AA9
:1011A000914110D311461846224600F016F82D1A28
:1011B00067EB01084F4622460120002100F00DF8A0
:1011C00017EB00094E41201EA4F10104DFDC484664
:1011D00031462A464346BDE8F09F202A04DB203AE8
:1011E00000FA02F1002070479140C2F1200320FA7A
:1011F00003F3194390407047202A04DB203A21FA78
:1012000002F00021704721FA02F3D040C2F120021F
:101210009140084319467047202A06DBCB17203A35
:1012200041FA02F043EAE07306E041FA02F3D040EB
:10123000C2F120029140084319467047014900F06D
:1012400003B80000004B122010B500683C22B0FB30
:10125000F2F302FB1303B0FBF2F00B60B0FBF2F30E
:1012600002FB1303B0FBF2F018224B60B0FBF2F369
:1012700002FB1303B0FBF2F0021D8B600723B2FBED
:10128000F3F403FB1422800040F2B55300F66C30F7
:101290008A61B0FBF3F2B0FBF3F403FB14004432B9
:1012A00080084A61C8613B2802D3920700D0401CE5
:1012B0000022074C13460A61E25C824203D8801A7E
:1012C0005B1C0B61F8E7401CC860084610BD0000BD
:1012D000781E0500F0B52A4B2A4C85B000218269A2
:1012E00002EB42020A44491CA25C03F8012B0329C9
:1012F000F5DB244C4FF0200C002103F801CB153412
:10130000026902EB42020A44491CA25C03F8012B69
:101310000329F5DBC1680091816801914168029160
:1013200001680391406918A200F26C706C460A27AC
:10133000049017E003F8010B12F8010F08B1022521
:1013400000E0042502CC284607E091FBF7F607FBF6
:10135000161691FBF7F130361E54061EA0F101005F
:10136000F3DC2B4410780028E4D11F705870044837
:10137000017A302901D180F808C005B00048F0BDDD
:101380002C4B1220841E050020203A3A2000000039
:101390002DE9F04791460F4680460446002614F892
:1013A000015B2DB100F002F90068405DC007F6D185
:1013B0002B2D02D02D2D18D0641E4A4639462046CA
:1013C00000F0F8F827B13968A14201D1C7F80080D0
:1013D00071054FF002040BD54042002803DD50F0A8
:1013E0005FF80460A007BDE8F08746F48066E4E794
:1013F0000028F8DA50F054F804606FF00040F2E78B
:101400000029A8BF7047401C490008BF20F0010018
:10141000704710B4B0FA80FC00FA0CF050EA0104F6
:1014200004BF10BC704749B1CCF1200421FA04F488
:1014300011FA0CF118BF012121430843A3EB0C0161
:10144000CB1D4FEA00614FEA102042BF002010BCC4
:10145000704700EBC35010440029A4BF10BC704774
:10146000401C490008BF20F0010010BC704710B5B7
:10147000141E73F1000408DA401C41F100019218B7
:101480005B411A4301D120F0010010BD2DE9F04D60
:1014900092469B4611B1B1FA81F202E0B0FA80F2B5
:1014A00020329046FFF799FE04460F4640EA0A00B4
:1014B00041EA0B0153465A46084313D0114653EAFA
:1014C000010019D0C8F140025046FFF795FE0546CD
:1014D0000E46504659464246FFF77FFE084305D068
:1014E000012004E020463946BDE8F08D0020054388
:1014F00046EAE0762C4337430A986305E40AA0EBFA
:1015000008000022FD0A44EA47540A3002D50020B0
:101510000146E9E7010510196941DDE908450019AF
:101520006941BDE8F04DA2E7C1F30A52C1F31301CE
:1015300040F2FF3341F480119A4202DA0020014662
:10154000704740F233439A42A2F2334202DC5242E5
:10155000FFF752BEFFF741BE30B5041E71F1000423
:1015600004DB4FF00044404264EB0101141E73F1B0
:10157000000405DB1C464FF00043524263EB0403BA
:10158000994208BF904230BD064C074D06E0E06826
:1015900040F0010394E8070098471034AC42F6D3BA
:1015A000FFF712F924A8050044A805000048704779
:1015B000401F05002DE9F05F8246007800271546A0
:1015C0008B460AF10104B946302801D09DB113E0E1
:1015D00014F8010B0127782803D0582801D045B111
:1015E0000AE00DB1102D07D10027102514F8010BCA
:1015F00002E0082500E00A250026B0460EE005FBC3
:10160000080005FB06F1012701EB10461FFA80F8E0
:10161000B6F5803F00D3B94614F8010B294600F017
:1016200018F80028EBDABBF1000F05D00FB1641EEB
:1016300000E05446CBF80040B9F1000F06D04FF05F
:101640002FFF02210160C81EBDE8F09F48EA064056
:10165000FAE73A2800D2303820F02002412A01D39C
:10166000A2F13700884201D34FF0FF30704770B5C8
:101670008C1810F8015B15F0070301D110F8013B3D
:101680002A1106D110F8012B03E010F8016B01F8C4
:10169000016B5B1EF9D12B0705D40023521E0DD41C
:1016A00001F8013BFAE710F8013BCB1A921C03E06A
:1016B00013F8015B01F8015B521EF9D5A142D8D3A2
:1016C000002070BD80B547F066FC002080BD0000A2
:1016D00010B540F095FD124801210160114800212C
:1016E000BFF34F8FBFF36F8F0160C46944F00041B7
:1016F000002C01620C4808BF0224046014F01AFE9A
:1017000014F4FC6F05D009484FF0FF31016081638C
:101710000167204611F04CFCBDE8104040F088BD48
:1017200080E100E00000074088F7122034000450F8
:1017300070B5002208230024002B0FD450F823504A
:1017400051F82360641942F10005A41940F82340C0
:1017500045F10004013B04F00104EDE7BDE87040F1
:1017600049F090B8F8B51446002208230025002B54
:101770000FD450F8236051F82370AD1942F10006E0
:10178000ED1944F8235046F10005013B05F0010531
:10179000EDE7204649F076F80020A062F8BD000091
:1017A00010B51446FFF7DEFFA06A20B12046BDE861
:1017B000104000F00DB84149204629F04DF928B1FC
:1017C0003E492046BDE8104009F0E0BA10BD00BF18
:1017D000B0B58CB0044601AD384821462A4609F020
:1017E00045FA204629462422FFF7CBF90A99002022
:1017F000C4E909100CB0B0BDF0B58BB00446806AE6
:1018000000B32E4D2046294629F00EF980B308205A
:101810000021002200283AD455F8206054F82030E6
:10182000B718921941F100069A1AA3EB070771EB5A
:10183000060244F82070A0F101004FF0000238BF0A
:101840000122E7E71D4A00200821002300291ED4B9
:1018500054F8215052F821605B1940F100059B19A2
:1018600044F8213045F10003013903F00103EDE7AD
:101870006D46124821462A4609F0F8F920462946C5
:101880002422FFF77EF909990020C4E909100020FD
:10189000002109290BD054F821205FEA50004FEABB
:1018A000320044F8210002F001000131F1E7204646
:1018B0000BB0BDE8F04048F0E5BF00BFD02C0500FC
:1018C00080B500F009F81A493422002810FB0211F3
:1018D00048BF0021084680BD15498A6A824205D862
:1018E000CB6A1A44824201D900201FE0CA6D8242AD
:1018F00005D80B6E1A44824201D9012016E0D1F8B6
:101900009020824206D8D1F894301A44824201D9FC
:1019100002200BE0D1F8C420824206D8D1F8C810CA
:101920001144814201D9032000E0FF2040B27047FA
:10193000088C12203B480088704700BF3C48008854
:10194000704700BF10B5334C0520F2213022002330
:10195000A0470620F32130220023A0471A204FF48D
:10196000C97130220023A0471B2040F2931130227E
:101970000023A0472E20E12130220023A0472F2062
:10198000E02130220023A0471D20E2213022002345
:10199000A0471E20E32130220023A0470D20E5218F
:1019A00030220023A0470F20E42130220023A0474B
:1019B0000520F22130220023A0470620F321302207
:1019C0000023A04721204FF48D7130220023A0472F
:1019D000222040F2191130220023A047242040F297
:1019E0001B1130220023A04725204FF48E71302296
:1019F0000023A04713204FF4907130220023A0470A
:101A0000122040F21F1130220023A0470248342147
:101A1000016010BD157800000C5005400149088098
:101A2000704700BF8846122001490880704700BFF8
:101A30008A46122080B540F0E3FB0A4800F510709A
:101A400002F0F0FBBDE8804040F0F2BB80B540F012
:101A5000D7FB044800F5387002F0E4FBBDE8804095
:101A600040F0E6BB6443122080B540F0C9FB0A4851
:101A70007C3000F04AFFBDE8804040F0D9BB00BF99
:101A800080B540F0BDFB044800F5F87000F03DFF64
:101A9000BDE8804040F0CCBB5C9512207047F0B5AB
:101AA00085680468D0E911600127102D00F01C0042
:101AB00007FA00F070600846636008BF1046A06037
:101AC00008BF0A46E260F0BD2DE9F04FADF5277D75
:101AD0000E460546104684211446FFF779F89CA867
:101AE0002C21FFF775F891A82C21FFF771F886A833
:101AF0002C21FFF76DF87BA82C21FFF769F870A85F
:101B00002C21FFF765F865A82C21FFF761F85AA88A
:101B10002C21FFF75DF84FA82C21FFF759F844A8B6
:101B20002C21FFF755F839A82C21FFF751F82EA8E2
:101B30002C21FFF74DF823A82C21FFF749F8284660
:101B400008F000FB0746304608F0FCFA17B120B158
:101B5000C74803E050B1284600E03046214600F077
:101B6000C3F800200DF5277DBDE8F08F30462946EB
:101B700006F12C0705F12C0A3BF0E7FF002800F0E6
:101B8000978005F15809DFF8E0B29CAA384606F1C3
:101B900058084946D84791AA50464146D84786AF8B
:101BA000304649463A46D8477BAE284641463246FB
:101BB000D847384631463BF0C8FF002800F08880FF
:101BC00004F15800A74D91A970AA019004F12C00CE
:101BD00000909CA8A84765AF86A87BA93A46A8476D
:101BE0004FAA48464146D84718A82C21FEF7F0FFD7
:101BF0000DA82C21FEF7ECFF0DF1080A2C21504610
:101C0000FEF7E6FF44AE384639463246D84739AD8E
:101C1000304639462A46D8470DF1B80870A8014623
:101C20004246D8470DF18C0930467BA94A46D84731
:101C300048460221524608F0CBFA18AE40464FA95A
:101C40003246D84729460DADDFF8188230462A467D
:101C5000C0475AAE284651463246C04738463146FC
:101C60002246D84718AF2C213846FEF7B1FF0DACFD
:101C70002C212046FEF7ACFF02AD2C212846FEF7B2
:101C8000A7FF484631463A46C04770A83946224623
:101C9000D84739AE91A92A463046D847009A2046FF
:101CA0002946C047019A30464FA9D847012059E735
:101CB000384651463BF049FF00287FF449AF306D6C
:101CC00001283FF65EAFF06C00287FF45AAF3FE783
:101CD0009CA891A93BF039FF00287FF439AF284632
:101CE000214600F025F83CE7B0B505460C4608460D
:101CF00024222946FEF745FFD5E909012422C4E93B
:101D0000090104F12C0005F12C01FEF73AFFD5E999
:101D100014012422C4E9140104F1580005F158010A
:101D2000FEF72FFFD5E91F01C4E91F01B0BD000078
:101D30002DE9F04FF9B00646006D8B46012801D819
:101D4000F06C18B1304608F0FDF920B1484859460A
:101D5000FFF7CAFF81E006F1580563AC304606F193
:101D60002C0729462246FFF71BFD0DF5B0783D4BA9
:101D700030462946424698470DF59A79DFF8E8A0A3
:101D8000204641464A46D0470DF5DC78374B484659
:101D90000321424698470DF5C679384629464A46FA
:101DA000D0474DAC384649462246D04758AA30461F
:101DB00021461646D04742AC404641462246D047CF
:101DC00037ADDFF8A880304608212A46C0474DAE1F
:101DD000244B204629463246984742AC3046494675
:101DE0002246D047204602215A46C04737AC3846E3
:101DF000394646462246D04742AD484649462A46DD
:101E0000D0470DF1B00820462946A9464246D047A2
:101E100021AD404608212A46B04716AC58A80421F7
:101E20002246B047B0460BAE0E4F20464DA9324673
:101E3000B8476C466EA831462246D0470BF12C02BB
:101E400020462946B84737AC484663A92246D047C2
:101E50000BF1580220460821C047002079B0BDE8A8
:101E6000F08F00BFB1AC000009A20000D1A10000BA
:101E7000182F05002DE9F0418CB0174C054690460F
:101E80000E46164FE07DFF2806D0C000102101FA53
:101E900000F039680843386005F1580001A914F0D2
:101EA000B5F9E07DFF2807D0C000102101FA00F04D
:101EB000396821EA0000386001AF284632463946C9
:101EC00008F0A2F905F12C003946424608F09CF9C9
:101ED0000CB0BDE8F08100BFA04D12206400055099
:101EE00010B540F08DF90024532C06D0A1B24FF06C
:101EF000A04001F0E0FA0134F6E7BDE8104040F000
:101F000097B90000B0B540F07BF90025064C312DA3
:101F100005D0A9B2204601F0CEFA0135F7E7BDE8B9
:101F2000B04040F085B900BF000004504023B0F13C
:101F3000A04F08BF60238B429CBF0020704701F078
:101F40001F0313804A09D200A2EB511100EBC1001C
:101F50007047000080B540F053F91048603002F03F
:101F600061F9BDE8804040F063B900BF80B540F042
:101F700047F90A4800F5807002F054F9BDE8804046
:101F800040F056B980B540F03BF9044800F5D070F8
:101F900002F048F9BDE8804040F04AB9644312209D
:101FA00010B5AB4A0368904208D0AA4CA04205D0B5
:101FB000A94CA0421CBFA94CA04218D14C6823F0E8
:101FC00070032343036090420B688C68C462836291
:101FD00008D0E24A904205D0E24A90421CBFE24A51
:101FE000904208D1C96801630121416110BDDC4CF8
:101FF000A042E3D0E6E7DA4A9042F3D0F4E700BF2C
:1020000010B50123046A8B4002FA01F124EA0303AC
:102010000362026A1143016210BD10B5C46A012156
:1020200084F83610E26982420DD0216A814207D0DD
:10203000616A814206D0A16A814205D1082102E08D
:10204000022100E004212175204601F017FF002045
:10205000207510BD10B5C46A012184F83610E269FC
:1020600082420DD0216A814207D0616A814206D046
:10207000A16A814205D1082102E0022100E0042189
:102080002175204602F099FC0020207510BDC06A21
:10209000012180F8361001F0DFBEC06A012180F80E
:1020A000361002F0C3BD0000F0B5026A4F4E22F0B8
:1020B000010202620B688A68046A24F00204224367
:1020C0004468856935402B43A34DA84208D0A34DF1
:1020D000A84205D0A34DA8421CBFA34DA84211D1D0
:1020E000D1E90567CD6824F4407422F00C02344332
:1020F00025F004052A433C434460836149684163F9
:102100000262F0BD964DA842EAD0F5E7F0B5026A4A
:102110004E4E22F0100202620C688A68036A23F0B5
:10212000200343EA021243688569354045EA0424E6
:10213000894DA84208D0894DA84205D0894DA842B2
:102140001CBF894DA84215D1D1E9056723F440632E
:10215000CD6822F0C00243EA86036FF0400606EA2B
:10216000051543EA87032A43436084614968816314
:102170000262F0BD7A4DA842E6D0F5E7F0B5026AFA
:102180001A4E22F4807202620C688A68036A23F491
:10219000007343EA02224368C56935402C436E4D03
:1021A000A84208D06D4DA84205D06E4DA8421CBF74
:1021B0006D4DA84215D1D1E90567CD6823F4405390
:1021C00022F4406243EA06132D0240F2FF46B54373
:1021D00043EA07132A434360C4614968C16302624A
:1021E000F0BD5F4DA842E6D0F5E700BFFCFF0FFF52
:1021F00070B5026A154E22F4805202620C688A6839
:10220000036A23F4005343EA02324368C569354048
:1022100045EA0424504DA84208D0504DA84205D0AC
:10222000504DA8421CBF504DA8420AD14D6923F41D
:10223000804343EA85134360C461496801640262D4
:1022400070BD474DA842F1D0F5E700BFFFFCFF0F7E
:102250000000014000100140000005400020054042
:10226000B0B500681D4B82681A40D1E9003424F4EF
:1022700070252A431A4382606FF0030202EB341286
:10228000032A2AD8DFE802F00210171E026A036A46
:1022900023F0010303620969836923F0F00343EA31
:1022A000011181610262B0BD8B680A691946BDE8FF
:1022B000B04000F015B88B680A691946BDE8B04017
:1022C00000F054B8D1E9022309691A4342EA012116
:1022D000826822F47F4211438160B0BD8FFFF0FF1E
:1022E00010B5036A046A24F001040462846924F0CE
:1022F000F00444EA0212826123F00A0211430162EF
:1023000010BD000070B5046A134EB04224F0010401
:1023100004628569046A08D0104EB04205D0104EA0
:10232000B04202D00F4EB0420FD125F0F30522F09B
:10233000F0021B0101F00A01DBB22B431A43826158
:1023400024F00A021144016270BD074E25F0F30526
:10235000B042ECD00122ECE7000001400010014047
:10236000001005400000054000200540036A23F0EE
:1023700010030362836923F4704343EA0232036A61
:10238000826123F0A00242EA01110162704710B598
:10239000046A120201F00A0124F0100404624FF2F0
:1023A000FF04A24363F30F32836923F473431A4398
:1023B000036A826123F0A00242EA0111016210BDAA
:1023C000827C012303FA02F261B10168D1F8843002
:1023D0001343C1F88430D1F880301A43C1F880200B
:1023E000022107E00168D1F8803023EA0202C1F837
:1023F00080200121017500207047027D3AB14068BC
:10240000426822F000420A604068C00F7047012015
:1024100070470000F8B5056804461448854206D0A8
:10242000134885421CBF0120F8BD124800E00E4849
:10243000227C04F1120118F02EFF01460120002930
:1024400011D4A27CD4E90267C9B205EB02131201D0
:10245000DF609E6000265E60667C41EA0611A9503E
:10246000207500206360F8BD2C2805000010024094
:1024700000D00540712805002DE9F04104680223D1
:10248000A5680679012E57D04371012325F0060C6B
:10249000037111F003031DD063F00306C3F10403BD
:1024A000002788464FF0000E3EB118F8015B013658
:1024B000BD4008374EEA050EF6E76FF0010505EB63
:1024C000430545EA0C05A560C4F800E06568ED0722
:1024D000FCD000E00023A56845F00605A560D51EE8
:1024E000AB4206D2CE5826606668F607FCD00433AD
:1024F000F6E7934214D26FF0010E002700259342B5
:1025000007D2CE5C0EF1020E0133BE4008373543D0
:10251000F5E74EEA0C01A16025606168C907FCD0AF
:1025200001214171002101718079354901EB0010D1
:102530002168C06880EA01031846BDE8F08100BF49
:1025400010B503689C6844F001049C60BDE810402D
:10255000FFF792BF50B110B50446022060712046CB
:1025600000F02AF800202071607110BD0120704732
:1025700040797047D0B110B50446006808B90C48DE
:102580002060617929B900202071204600F015F8FB
:10259000206802216171A62181604FF0FF31016145
:1025A0000449416101206071002010BD0120704785
:1025B00000E00040B71DC10470477047B0B5104A35
:1025C000056802EB0113D3E901432C610C01125998
:1025D0006A61AB608171A86840F00100A860B0BD7D
:1025E00010B5046821610649626101EB0311896835
:1025F000A1608371A06840F00100A06010BD00BF21
:102600008C370500F0B51F4A6FF0970597281446E0
:1026100005F1580502F5802388BF1C4688BF6FF07E
:1026200097052E18B0B24FF66875402802D3403E89
:10263000703403E0202824BF203E3834B6B201278E
:102640003748972907FA06F6C0E90064A76846EA02
:102650000706A6608CBF1A46583529448BB2402B1A
:1026600002D34039703203E0202B24BF20393832A6
:1026700089B2012303FA01F1C0E90212906808430C
:102680009060F0BD0400005070B50C460546002671
:10269000A642A8BF70BDA85D00F002F80136F7E7BA
:1026A0002DE9F0411E4CE168B9B30B68D4F808C0BD
:1026B000072743EA0C036FEA0C080B6063681D6888
:1026C000D4F800E045EA0E056FEA0E061D600D68BD
:1026D00025EA0C050D601A68002F02EA06021A604E
:1026E0000FD40A6820FA07F5013FED0742EA0C040F
:1026F00008BF02EA08040C601A6842EA0E021A6077
:10270000E9E7086800EA08000860186840EA0E0077
:102710001860086840EA0C000860BDE8F08100BF5E
:10272000584C12202DE9FE4F294D14460E46804686
:102730004F2120224FF0200B2846FEF742FA0027B7
:10274000A81C0296B04405F106092E4685F84F7084
:102750000190A7422FDA17F00F0A17D102982946E5
:10276000C6191C4800F038F828464F212022FEF7F1
:1027700028FAC6F3072128463BF072FD0198F1B212
:102780003BF06EFD42F23A004E46A88018F8070072
:10279000A0F121015D290AEB050128BF2E2081F857
:1027A0003C00304618F807103BF05AFD86F802B09E
:1027B00001370336CDE7064C0648214600F00CF8F9
:1027C00020464F212022FEF7FCF9BDE8FE8F00BF16
:1027D000D04F122038980500704701460120C1B142
:1027E000B0B50A68D1E91134156825F00E051560F9
:1027F000156825F00105156004F01C0200FA02F2CC
:102800005A60002281F8282081F829000020BDE8C4
:10281000B0407047B0B590F8291002291CD101686A
:10282000C26BD0E911340D6825F00E050D600D68FE
:1028300025F001050D6004F01C014FF0010404FABD
:1028400001F159604FF0000180F8281080F829400C
:102850002AB19047002102E00421016401210846C9
:10286000B0BD000068B1B0B50268116821F0010187
:1028700011607B49114401F580238C2B03D8794BDF
:1028800006E0012139E08D290CD2764901F580233B
:10289000A2F1080114244364C9B2B1FBF4F18C0025
:1028A000846401E0D0E9113400210125102C11606D
:1028B00004F01C0205FA02F24FF018055A604FF0BE
:1028C000380205EA440538BF02EA44054FF03F02EA
:1028D0004FF0AC0402FA05F238BFA8241D5925EACE
:1028E00002021A51016480F82810C0E90C11C0E9F5
:1028F0000E1180F82910BDE8B0400846704700BFAF
:10290000006C704790F829007047F0B5D0E91113BA
:1029100002680C68156803F01C036E070ED50426C8
:102920009E4016EA040709D013689B0603D4136877
:1029300023F0040313604E60416B2BE0AE0714D507
:1029400002269E4016EA04070FD013689B0606D4A1
:10295000136823F00A031360012280F82920002263
:1029600080F828204E60016B14E02D0716D508254D
:102970009D402C4012D0146824F00E0414600122F3
:1029800002FA03F34B600021026480F8281080F8FB
:102990002920816B11B1BDE8F0400847F0BD00006F
:1029A00000283ED070B501682D4A8B182D4A03F5DA
:1029B00080248D2C03D38C2B0AD802F58022A1F120
:1029C00008031424DBB2B3FBF4F39B00C0E911232A
:1029D000022247F6F07300F1080680F82920426AC7
:1029E0000A610A689A4378CE1A43B3F5804F42EAE7
:1029F0000402846942EA050242EA060242EA04024B
:102A0000C46942EA0402046A42EA04020A601CD071
:102A1000816CC1F38202032A05D8D100426CA8322E
:102A200007E001211AE08908182202EAC101426C7C
:102A3000AC323F2314688B4024EA030313604368DD
:102A400003FA01F1136819431160002101220164A6
:102A500080F8281080F82920BDE8704008467047AB
:102A6000F8EFFBBF001000402DE9F843044690F852
:102A7000290002282DD12068006880062ED4042069
:102A800000298846164608BF0220A16C01F01C01EF
:102A900000FA01F502F063F98146771C616C086861
:102AA000284221D10868A26C02F01C02D040000725
:102AB00025D4002FF2D002F052F91EB1A0EB09008C
:102AC000B042EBD920202064002084F828000120A7
:102AD0001DE0002084F82800042001E04FF48070FD
:102AE00020640120BDE8F883A06CB8F1000F00F06D
:102AF0001C0010D0042202FA00F0486012E001200D
:102B000000FA02F24A600021206484F8281084F858
:102B10002900BDE8F883022202FA00F04860012093
:102B200084F82900002084F82800BDE8F88300001C
:102B300010B590F82830012B01D1022319E00123B0
:102B400080F8283090F82940012C0FD1032905D8AE
:102B5000DFE801F00206080A026306E0012305E04F
:102B6000426302E0826300E0C2630023002180F838
:102B70002810184610BD3F291BD840F6FF7220EAE6
:102B800002026FF31F30A0F108031420B3FBF0F032
:102B90004F2B01D8C00005E09F2B0AD86FF01F0310
:102BA00003EBC00001FA00F0D2F8A8100843C2F805
:102BB000A800704770B5044690F8280001281CD082
:102BC000012084F8280094F82900012812D102205D
:102BD000002584F8290025642068066826F001068F
:102BE00006602046FEF75BFF2068016841F00101A6
:102BF000016003E0002084F828000225284670BD0B
:102C0000B0B5044690F8280001281DD0012084F8B2
:102C1000280094F82900012813D1022084F8290003
:102C2000002020642068056825F001050560204625
:102C3000FEF735FF2068626B01683AB141F00E0182
:102C40000AE0002084F828000220B0BD21F0040131
:102C50000160016841F00A010160016841F0010171
:102C600001600020B0BD000090F82820012A01D1A9
:102C7000022222E0012280F8282090F82930012B3E
:102C800018D1042907D8DFE801F003080B0E100063
:102C9000002202630EE001220CE00022426309E000
:102CA0000022826306E0002203E00022C0E90C2239
:102CB0008263C263002180F828101046704780B5F7
:102CC00004F00AFC002080BDE0B50190019830B10D
:102CD0004FF47A7000F004F801980138F5E78CBDE4
:102CE0001CB5114C01902068019901B140B9002038
:102CF00004F02AFF0D49B0FBF1F02060019991B179
:102D0000312802D3019901390191019959B10199F1
:102D1000013948430621B0FBF1F000900098411EB4
:102D200000280091FAD11CBD2050122040420F0013
:102D300060B110B5002918BF0121044600F0EBFA7C
:102D400020460121BDE8104000F0A6B9704750B1FF
:102D5000B0B51C46054600F00DFB28462146BDE8EF
:102D6000B04000F0FDBA70472DE9F041012700287E
:102D70005FD00E4600295CD0069F31469846154626
:102D8000044604F0C7FE0220E56006F1080284F85C
:102D900026004FF000002077207107CA84F8242015
:102DA0004FEA0151C4E90A01B5B1B8F1000F13D0DF
:102DB00008204FF48051C5E9081000208021E86107
:102DC000C5E90500C5E903011020A860D8F8000096
:102DD000D8F80C10C5E90001F9B2204600F0DBFA82
:102DE00094F82500012803D0022805D1012100E034
:102DF0000021204600F002FB204600F07EF96077BB
:102E000020460121012700F063F920463BF08CFCAD
:102E10002062227FC3B2C0F3074118464DF0D8F8B4
:102E2000206130B120463BF088FC1E20FFF758FFA0
:102E300000273846BDE8F081C0B1F0B59202DDE967
:102E40000576DDE90754006842EAC131826C41EA47
:102E500003216FF3100241EA871141EA061141EAAA
:102E60008501214311438164BDE8F0407047C0B142
:102E7000F0B59202DDE90576DDE90754006842EA23
:102E8000C131026D41EA03216FF3100241EA87115B
:102E900041EA061141EA8501214311430165BDE87C
:102EA000F0407047A8B1032908D002290CD00129AD
:102EB0000FD10068416D41F0010109E0006840F266
:102EC0000112416D114303E00068416D41F48071CE
:102ED0004165704720B10068416941F001014161DD
:102EE000704718B100684269114341617047D8B119
:102EF000F0B585B004460069C1B190F9643090F92D
:102F0000632090F9621090F9655090F9666090F92D
:102F1000677090F968008DE8E00003902046FFF7A5
:102F20008BFF2069603017E00120704790F9403036
:102F300090F93F2090F93E1090F9415090F942608D
:102F400090F9437090F944008DE8E000039020462A
:102F5000FFF772FF20693C30216800780A6C22F08C
:102F6000FF0210440864002005B0F0BDD0B1C9B123
:102F7000B0B5044604F0CEFD2046012100F03EFA33
:102F80002046012100F0A4F820463BF025FB054631
:102F90002046002100F09CF82046002100F02EFA87
:102FA0002846B0BD0020704770B50024D8B1D1B11B
:102FB000054604F0AFFD28460021002400F01EFA6B
:102FC000284601216C7700F083F828463AF049FC46
:102FD00006462846002100F07BF826B16FF07F40BE
:102FE000864218BF0124204670BD2DE9F84390B1F8
:102FF0000D461C46012133B30646C06818B331683C
:10300000D1F800904AB1102201F1040800212746AE
:10301000826000220CE0012115E000220B1DE11C62
:10302000A84682608F084FF400624FF400711D467D
:10303000C0E90512FFF716FC014620B9F068FFF75A
:10304000AFFC014610B10846BDE8F883316849F08D
:103050002002F0683B460A60621E4A6229464246E8
:1030600001B0BDE8F043FFF7A5BD10B560B104465F
:10307000C06848B10A460021FFF7F6FC21680A68DB
:1030800022F020020A6010BD012010BD80B5002191
:1030900000F01EF8002080BD50B1006800290268D1
:1030A00042F0400308BF22F0400303600020704755
:1030B0000120704750B100680029026842F4A02343
:1030C00008BF22F4A023036000207047012070474E
:1030D00050B100680029026842F0010308BF22F0E5
:1030E00001030360002070470120704710B10068A1
:1030F000C06800E00020C0B2704720B1006880685E
:10310000C0F3400070470020704718B100680069A4
:10311000C00F70470020704720B10068006900F0C0
:1031200001007047002070470146012011B1096875
:1031300049688843704720B10068406DC0F3400083
:1031400070470020704720B100680069C0F340005C
:1031500070470020704720B10068406DC0F34020E8
:103160007047002070472DE9F0410127002872D0F8
:103170000E4600296FD0069F3146984615460446F4
:1031800004F0C8FC0220E56006F1080284F826007D
:1031900007CA84F824204FEA0151C4E90A01A2F1C8
:1031A0000100B0FA80F04FEA50102077B5B1B8F1C5
:1031B000000F13D008204FF48051C5E908100020FB
:1031C0008021E861C5E90500C5E903011020A86078
:1031D000D8F80000D8F80C10C5E90001F9B2204673
:1031E00000F0D9F894F82500012803D0022805D171
:1031F000012100E00021204600F000F92046FFF701
:103200007CFF607720460121FFF762FF206AFF28DC
:1032100018BF002803D120463BF086FA2062227FA7
:10322000C3B2C0F3074118464CF0D2FE206128B16A
:10323000207F48B1204639F0D9FE0BE0204600211E
:10324000FFF746FF012706E0207938B1204601212B
:103250003AF043FB00273846BDE8F08120460021C4
:1032600000273AF03AFBF6E7E8B1F0B5D203DDE922
:103270000547DDE907650068DDF824C042EA414101
:10328000826A41EA83216FF3110241EA042141EA93
:10329000871141EA061141EA850141EA0C01114317
:1032A0008162BDE8F0407047E8B1F0B5D203DDE9D6
:1032B0000547DDE907650068DDF824C042EA4141C1
:1032C000C26B41EA83216FF3110241EA042141EA12
:1032D000871141EA061141EA850141EA0C011143D7
:1032E000C163BDE8F040704770B16BB170B50D4679
:1032F00019461446064600F08FF830462946224605
:10330000BDE8704000F06BB8704710B100684068CD
:1033100070470020704750B100680129026822F010
:10332000800308BF42F08003036000207047012043
:10333000704738B10068026C22F0FF02114401644A
:10334000002070470120704740B10068026C22F4F1
:103350007F4242EA0121016400207047012070474A
:1033600030B140F2FF32006891434167002070475E
:103370000120704768B140F2FF33006821EA03037F
:10338000114401F2FF31C3666FF3090101670020A8
:1033900070470120704708B10068C160704758B19C
:1033A0000068C26181610169C907FCD0416941F0CF
:1033B00001014161002070470120704768B14FF45E
:1033C000E003006803EA015162F3132182686FF39E
:1033D000162211448160002070470120704758B1C7
:1033E00040F2FF3300689943C16502F2FF316FF389
:1033F00009010166002070470120704750B1006844
:103400000029826842F0020308BF22F002038360B1
:1034100000207047012070470246012042B139B1B7
:1034200010680A6812BA4266496809BA81660020C3
:10343000704730B10068826861F3840282600020C6
:1034400070470120704720B100680069C0F3C000D8
:1034500070470020704730B1013900686FF3DF21F9
:103460004162002070470120704730B10139006887
:103470006FF3DF218163002070470120704718B18E
:10348000006841600020704701207047E0B589B2B4
:103490000DF10602FEF74AFD50B1BDF806100122FB
:1034A00002FA01F102690A430261C2691143C16172
:1034B0008CBD3AF07FBCBCB50DF106020C4605464A
:1034C000FEF734FD70B1BDF80610012202FA01F1D9
:1034D000426B114206D0426B11434163284621469C
:1034E000FFF7E7FFBCBD00001CB50C4609880DF1D5
:1034F0000602FEF71BFD002861D06168C9B10129F1
:1035000021D0324A914226D0314A91422CD0314AC0
:10351000914234D0304A91423FD0304A91424FD10B
:10352000BDF80610012202FA01F1826A0A438262A2
:1035300022E0BDF8061001228A40016911430161B1
:1035400050F81C1F39E0BDF80610012202FA01F103
:1035500050F80C2F31E0BDF80610012202FA01F1FB
:10356000426A0A43426220E0BDF80610012202FAD4
:1035700001F1426A0A434262C26A8A4309E0BDF825
:103580000610012202FA01F1426A0A434262C26A4B
:103590000A43C262026B0A430CE0BDF80610012226
:1035A00002FA01F1826A0A438262C26A0A43C26273
:1035B000026B8A43026350F8182F114301601CBD4F
:1035C000BDF80610012202FA01F1F4E70000111023
:1035D00000002110000031100000411000005110C7
:1035E000E0B50DF10602FEF7A1FC68B1BDF80610CA
:1035F000012202FA01F18268114218BF043000680A
:10360000084018BF01208CBD00208CBDE0B50DF135
:103610000602FEF78BFC38B1BDF80610012202FA53
:1036200001F14268514041608CBD1CB514460DF15A
:103630000602FEF77BFC58B1BDF806100122002CF3
:1036400002FA01F142680CBF22EA01011143416014
:103650001CBD10B50446022041F2111284F8360058
:103660002068016A114208D1016A40F244421142C5
:1036700003D1016821F001010160204600F024F827
:10368000002084F8340084F83600002010BD90F843
:1036900036007047B0B110B5044690F8360028B92E
:1036A000002084F83400204600F00FF80220211D8D
:1036B00084F836002068FEF773FC012084F8360099
:1036C000002010BD0120704770477047022180F82C
:1036D000361001680A6842F001020A60012180F890
:1036E0003610002070470000B0B5044690F8360050
:1036F000022804BF0220B0BD94F83600134601280A
:1037000006D111B90BB10120B0BD022084F83600FA
:10371000A0690A4D22680563094D2C32A0698563B2
:10372000A069FFF76DFA2068C16841F48071C1603B
:10373000016841F0010101600020B0BD9B20000044
:103740008F2000000068C16841F00101C16001687C
:1037500041F00101016000207047022141F2111384
:1037600080F8361001680A6A1A4208D10A6A40F2E3
:1037700044431A4203D10A6822F001020A6001217F
:1037800080F8361000207047016841F21113CA68B2
:1037900022F48072CA600A6A1A4208D10A6A40F2A8
:1037A00044431A4203D10A6822F001020A6001214F
:1037B00080F8361000207047006841F21112C1688D
:1037C00021F00101C160016A114208D1016A40F291
:1037D0004442114203D1016821F00101016000203F
:1037E0007047000010B590F8342004460220012AEA
:1037F00000F0858084F836000120414B84F83400C5
:10380000206882681A4082600A68BAB1102A1BD008
:10381000202A1FD0302A23D0402A27D0502A31D046
:10382000602A3BD0702A45D0B2F5005F52D0B2F585
:10383000805F5ED1816821F4702159E0816841F098
:10384000070121F0700153E0816841F0170121F078
:1038500060014DE0816841F0270121F0500147E00F
:10386000816841F0370121F0400141E04B68CA68AE
:103870001946FEF735FD2068816841F0470121F0C7
:10388000300135E04B68CA681946FEF729FD20680B
:10389000816841F0570121F0200129E04B68CA6896
:1038A0001946FEF763FD2068816841F0670121F049
:1038B00010011DE0D1E90123C9681A4342EA012140
:1038C000826822F47F4211430E4A81608168114070
:1038D00077310DE0D1E90123C9681A4342EA012199
:1038E000826822F47F4211438160816841F4804103
:1038F00081600020012184F8340084F8361010BD66
:103900008F00F0FF88FFF0FFB0B590F8344002233D
:10391000012C4AD080F83630012380F834304B68CF
:10392000012B0BD101F1080538CD2343046843EA8C
:103930000523A56825F47F452B43A3604FEAB20217
:10394000032A2CD8DFE802F0020C172102689369E1
:10395000096800290CBF23F4803143F4803108E06A
:1039600002689369096800290CBF23F0807143F055
:103970008071916113E00268D369096800290CBF66
:1039800023F4803143F4803108E00268D369096888
:1039900011B143F0807101E023F08071D161002307
:1039A000012180F8343080F836101846B0BD006828
:1039B000426822F0800211434160002070470120DC
:1039C0007047B0B50C460546B1F5804F14D0B4F53C
:1039D000007F14D0B4F5806F14D0B4F5006F14D00C
:1039E000B4F5805F14D0B4F5005F14D0B4F5807FD7
:1039F00016D105F1180010E005F130000DE005F1D9
:103A00001C000AE005F1200007E005F1240004E0B5
:103A100005F1280001E005F12C000068FEF7DDFE4D
:103A20002868C168A143C1600020B0BD0120704773
:103A3000B0B50C460546B1F5804F14D0B4F5007F03
:103A400014D0B4F5806F14D0B4F5006F14D0B4F571
:103A5000805F14D0B4F5005F14D0B4F5807F16D128
:103A600005F1180010E005F130000DE005F11C0033
:103A70000AE005F1200007E005F1240004E005F16B
:103A8000280001E005F12C000068FEF7A6FE28687A
:103A9000C168A143C1600020B0BD10B5044602203A
:103AA00041F2111284F836002068016A114208D1EF
:103AB000016A40F24442114203D1016821F0010140
:103AC0000160204600F052F8002084F8340084F8A9
:103AD0003600002010BD90F836007047002843D013
:103AE000F8B5044690F836000D4628B9002084F851
:103AF0003400204600F03BF8022084F836002068AD
:103B0000816821F470218160211DFEF749FA266841
:103B1000D5E9000CD5E90223B7683843B769316AA3
:103B2000B060A86942EA00204FF6FC4290434FF68D
:103B3000FF7227EA02021A431043EA6940EA0220B0
:103B40002A6940EA02102A6A40EA0230B06121F094
:103B5000AA00696940EA0C0040EA011030620120C5
:103B600084F836000020F8BD012070477047704788
:103B700010B50446042907D009B9002105E02068E2
:103B800000210122FEF73CFA042120680122FEF701
:103B900037FA2068016841F001010160002010BD82
:103BA0002DE9F041044690F83600022801D10225A3
:103BB00084E094F83600069D1E4601280FD1002EA1
:103BC0003046134618BF0120002A18BF01230342C4
:103BD00002D10DB1012571E0022084F836001829C8
:103BE0001ED004294FD0002967D1E069354B2168E8
:103BF0000363354B3431E06983632B46E069FEF79C
:103C0000FFFF206801220025C16841F40071C160F6
:103C1000016841F0010101600021FEF7F1F94DE07A
:103C2000E069DFF89C84284F21682B46C0F830807B
:103C30003431E0698763E069FEF7E2FF206A2168BA
:103C400032462B46C0F830803831206A8763206ABC
:103C5000FEF7D6FF206801220025016841F001012E
:103C600001600021FEF7CCF9206804210122FEF753
:103C7000C7F92068C16841F40071C160C16841F4AE
:103C80008061C1601AE0206A0E4A21682B460263F7
:103C90000D4A3831206A82633246206AFEF7B0FF4F
:103CA00020680122C16841F48061C160016841F06F
:103CB000010101600421FEF7A3F900252846BDE8B3
:103CC000F08100BF1B2000008F200000B0B504462B
:103CD000042908D079B9206800210122FEF790F963
:103CE0002068022517E02068042101220425FEF740
:103CF00087F920680FE0206800210122FEF780F993
:103D00002068042101220425FEF77AF92068C168A1
:103D100041F00201C160C1682943C160016841F0FE
:103D2000010101600020B0BD10B50446042907D090
:103D300009B9002105E0206800210022FEF760F9A2
:103D4000042120680022FEF75BF9206841F211127D
:103D5000016A114208D1016A40F24442114203D182
:103D6000016821F001010160002010BD10B504467A
:103D700041B1206804290ED104210022FEF740F948
:103D8000206816E0206800210022FEF739F920683B
:103D90006FF400710FE000210022FEF731F9206876
:103DA00004210022FEF72CF92068C16821F400717B
:103DB000C1606FF48061C268114041F21112C160AC
:103DC000016A114208D1016A40F24442114203D112
:103DD000016821F001010160012084F83600002013
:103DE00010BD10B5044641B1206804290ED104214C
:103DF0000022FEF705F9206816E020680021002265
:103E0000FEF7FEF820686FF002010FE000210022AB
:103E1000FEF7F6F8206804210022FEF7F1F820688A
:103E2000C16821F00201C1606FF00401C268114055
:103E300041F21112C160016A114208D1016A40F2D7
:103E40004442114203D1016821F0010101600120C7
:103E500084F83600002010BD704790F834300222FC
:103E6000012B09D080F8362002685161002201211F
:103E700080F8342080F83610104670477047F8B547
:103E80000D4690F8341004460220012963D084F8CE
:103E900036000120042A84F834000AD09AB9D5E902
:103EA0000012EB682068FEF72DFA206850F8181F02
:103EB00025E0D5E90012EB682068FEF768FA206873
:103EC00050F8181F39E0D5E900362168E868082A5B
:103ED0000F6A19D127F4807260F3071608460A6248
:103EE00050F81C2F22F0F30232430E6A026003F0F6
:103EF0000A0226F4206343EA02220A62016821F0E2
:103F00000C010160A9681DE027F480520A623202A8
:103F10004FF2FF06B24360F30F32084650F81C6FB1
:103F200026F4734632430E6A026003F00A0226F456
:103F3000204343EA02320A62016821F440610160D1
:103F4000A96809020268114301600020012184F878
:103F5000340084F83610F8BD10B50446022041F252
:103F6000111284F836002068016A114208D1016AF2
:103F700040F24442114203D1016821F00101016085
:103F8000204600F024F8002084F8340084F836003D
:103F9000002010BD90F836007047B0B110B504464F
:103FA00090F8360028B9002084F83400204600F04C
:103FB0000FF80220211D84F836002068FDF7F0FF7D
:103FC000012084F83600002010BD012070477047A2
:103FD000704710B5044600680122FEF711F820680A
:103FE000016841F001010160002010BD70B5044678
:103FF00090F83600022804BF022070BD94F8360005
:104000000D46012806D112B90BB1012070BD022066
:1040100084F836004FEAB500032813D8DFE800F033
:1040200002142434E069264E21680663254E34319B
:10403000E0698663E069FEF7E3FD2068C16841F44A
:10404000007130E020682FE0206A1D4E2168066371
:104050001C4E3831206A8663206AFEF7D1FD206845
:10406000C16841F480611EE0606A154E21680663F4
:10407000144E3C31606A8663606AFEF7C1FD2068B9
:10408000C16841F400610EE0A06A0D4E216806632C
:104090000C4E4031A06A8663A06AFEF7B1FD20682D
:1040A000C16841F48051C16029460122FDF7A8FF93
:1040B0002068016841F001010160002070BD00BF6F
:1040C0001B2000008F20000010B504464FEAB1000D
:1040D000032808D8DFE800F002090E132068C26840
:1040E00042F002020FE020680EE02068C26842F051
:1040F000040208E02068C26842F0080203E0206879
:10410000C26842F01002C2600122FDF779FF206808
:10411000016841F001010160002010BD10B50446A6
:1041200000680022FDF76CFF206841F21112016A5D
:10413000114208D1016A40F24442114203D10168A0
:1041400021F001010160002010BD000010B50446FF
:104150004FEAB100032808D8DFE800F002090E1387
:104160002068C26822F400720FE020680EE0206828
:10417000C26822F4806208E02068C26822F400620B
:1041800003E02068C26822F48052C2600022FDF77A
:1041900037FF206841F21112016A114208D1016A09
:1041A00040F24442114203D1016821F00101016053
:1041B000012084F83600002010BD000010B5044630
:1041C0004FEAB100032808D8DFE800F002090E1317
:1041D0002068C26822F002020FE020680EE020682A
:1041E000C26822F0040208E02068C26822F00802D7
:1041F00003E02068C26822F01002C2600022FDF7CE
:10420000FFFE206841F21112016A114208D1016AD1
:1042100040F24442114203D1016821F001010160E2
:10422000002010BD10B5044600680169890744BF2D
:10423000C1685FEA817139D40169490744BFC16827
:104240005FEA41713ED40169090744BFC1685FEA72
:10425000017144D40169C90644BFC1685FEAC16104
:1042600049D40169C9071CBFC1685FEAC1714FD158
:104270000169090644BFC1685FEA016150D4016960
:10428000490644BFC1685FEA416151D401698906AA
:1042900044BFC1685FEA816100D410BD6FF02001A6
:1042A00001612046BDE8104004F02ABE6FF0020113
:1042B0000161012121758069800741D02046FFF707
:1042C000DDFD43E06FF00401016102212175806989
:1042D00010F4407F3ED02046FFF7D0FD40E06FF065
:1042E0000801016104212175C06980073CD0204686
:1042F000FFF7C4FD3EE06FF0100101610821217558
:10430000C06910F4407F39D02046FFF7B7FD3BE08D
:104310006FF001010161204600F088FC2068A7E7EA
:104320006FF080010161204604F0E9FD2068A6E7F6
:104330006FF040010161204600F010FD2068A5E704
:10434000204600F06CF8204600F037FB0020207576
:10435000206871E7204600F062F8204600F02DFB4F
:104360000020207520686EE7204600F058F82046AF
:1043700000F023FB0020207520686BE7204600F04A
:104380004EF8204600F019FB00202075206868E7F1
:10439000B0B590F8343004460220012B20D084F8C8
:1043A00036004FEAB2000125032884F8345012D8B1
:1043B000DFE800F002060A0E2068FDF775FE0AE04D
:1043C0002068FDF7A3FE06E02068FDF7D7FE02E0B7
:1043D0002068FDF70DFF002084F8340084F8365083
:1043E000B0BD10B50446022041F2111284F8360027
:1043F0002068016A114208D1016A40F24442114228
:1044000003D1016821F001010160204600F025F888
:10441000002084F8340084F83600002010BD704776
:1044200090F836007047B0B110B5044690F83600E9
:1044300028B9002084F83400204600F00FF802204C
:10444000211D84F836002068FDF7AAFD012084F8BC
:104450003600002010BD012070477047704710B52E
:10446000044600680122FDF7CBFD2068016841F099
:1044700001010160002010BD70B5044690F83600BF
:10448000022804BF022070BD94F836000D460128B2
:1044900006D112B90BB1012070BD022084F836009C
:1044A0004FEAB500032816D8DFE800F002172A3DCE
:1044B000E0692C4E216806632B4EE069866301F1AA
:1044C00034061146E0693246FEF79AFB2068C1685F
:1044D00041F4007139E0206838E0206A214E2168FB
:1044E0000663214E206A866301F138061146206A70
:1044F0003246FEF785FB2068C16841F4806124E004
:10450000606A184E21680663174E606A866301F17F
:104510003C061146606A3246FEF772FB2068C168AD
:1045200041F4006111E0A06A0E4E216806630E4E50
:10453000A06A866301F140061146A06A3246FEF782
:104540005FFB2068C16841F48051C16029460122A7
:10455000FDF756FD2068016841F00101016000206F
:1045600070BD00BF552000008F20000010B504462C
:104570004FEAB100032808D8DFE800F002090E1363
:104580002068C26842F002020FE020680EE0206856
:10459000C26842F0040208E02068C26842F00802E3
:1045A00003E02068C26842F01002C2600122FDF7F9
:1045B00027FD2068016841F001010160002010BD65
:1045C00010B5044600680022FDF71AFD206841F28C
:1045D0001112016A114208D1016A40F244421142AB
:1045E00003D1016821F001010160002010BD00002D
:1045F00010B504464FEAB100032808D8DFE800F000
:1046000002090E132068C26822F400720FE02068CD
:104610000EE02068C26822F4806208E02068C26868
:1046200022F4006203E02068C26822F48052C26073
:104630000022FDF7E5FC206841F21112016A1142E7
:1046400008D1016A40F24442114203D1016821F0CD
:1046500001010160012084F83600002010BD000037
:1046600010B504464FEAB100032808D8DFE800F08F
:1046700002090E132068C26822F002020FE02068CF
:104680000EE02068C26822F0040208E02068C268D8
:1046900022F0080203E02068C26822F01002C26023
:1046A0000022FDF7ADFC206841F21112016A1142AF
:1046B00008D1016A40F24442114203D1016821F05D
:1046C00001010160002010BDF0B587B09A4201D110
:1046D00001204DE00D4690F83410044602200129D7
:1046E00046D084F8360001201E46042A84F834009F
:1046F00095E88B508DE88B00CDE905CE05D042B909
:1047000020686946FDF7D0FC03E020686946FDF7A4
:10471000FDFC042E0AD02EBB05F1180320680ECB39
:10472000FDF7F0FD50206FF00C0108E005F11803D3
:1047300020680ECBFDF72BFE60206FF440612268ED
:10474000936919409161916821F0700191609168BD
:1047500008439060906820F470209060906840F06A
:10476000060090600020012184F8340084F836109F
:1047700007B0F0BD10B50446022041F2111284F8D2
:1047800036002068016A114208D1016A40F24442B1
:10479000114203D1016821F001010160204600F0BF
:1047A0002DF8002084F8340084F83600002010BD75
:1047B00090F836007047F8B1B0B5044690F836006E
:1047C0000D4628B9002084F83400204600F017F880
:1047D0000220211D84F836002068FDF7E1FB2068E7
:1047E000016821F00801016001682943016001208E
:1047F00084F836000020B0BD012070477047704734
:1048000010B50446006800210122FDF7F9FB20687D
:1048100004210122FDF7F4FB002010BD10B5044671
:1048200000680122C16841F00201C160C16841F025
:104830000401C1600021FDF7E3FB2068042101228F
:10484000FDF7DEFB002010BD10B504460068002116
:104850000022FDF7D5FB206804210022FDF7D0FBE4
:10486000206841F21112016A114208D1016A40F236
:104870004442114203D1016821F00101016000208E
:1048800010BD10B5044600680022C16821F0020185
:10489000C160C16821F00401C1600021FDF7B0FBD7
:1048A000206804210022FDF7ABFB206841F21112C1
:1048B000016A114208D1016A40F24442114203D117
:1048C000016821F001010160002010BDB0B590F831
:1048D000343004460220012B31D084F836004FEAF0
:1048E000B2000125032884F8345023D8DFE800F013
:1048F000020A10182068FDF7D7FB20684FF400214A
:10490000183014E02068FDF701FC206818300CE036
:104910002068FDF733FC20684FF400211C3006E0CE
:104920002068FDF765FC20681C304FF000610268CC
:1049300011430160002084F8340084F83650B0BD83
:1049400010B50446022041F2111284F836002068A6
:10495000016A114208D1016A40F24442114203D176
:10496000016821F001010160204600F024F80020D8
:1049700084F8340084F83600002010BD90F836002A
:104980007047B0B110B5044690F8360028B9002041
:1049900084F83400204600F00FF80220211D84F82E
:1049A00036002068FDF7FCFA012084F8360000206C
:1049B00010BD0120704770477047704710B504461E
:1049C00000680122FDF71CFB2068016841F001012D
:1049D0000160002010BD000070B5044690F836005C
:1049E000022804BF022070BD94F836000D4601284D
:1049F00006D112B90BB1012070BD022084F8360037
:104A00004FEAB500032816D8DFE800F002172A3D68
:104A1000E0692C4E216806632B4EE069866301F144
:104A200034061146E0693246FEF7EAF82068C168AC
:104A300041F4007139E0206838E0206A214E216895
:104A40000663214E206A866301F138061146206A0A
:104A50003246FEF7D5F82068C16841F4806124E051
:104A6000606A184E21680663174E606A866301F11A
:104A70003C061146606A3246FEF7C2F82068C168FB
:104A800041F4006111E0A06A0E4E216806630E4EEB
:104A9000A06A866301F140061146A06A3246FEF71D
:104AA000AFF82068C16841F48051C16029460122F5
:104AB000FDF7A6FA2068016841F0010101600020BD
:104AC00070BD00BF552000008F20000010B50446C7
:104AD0004FEAB100032808D8DFE800F002090E13FE
:104AE0002068C26842F002020FE020680EE02068F1
:104AF000C26842F0040208E02068C26842F008027E
:104B000003E02068C26842F01002C2600122FDF793
:104B100077FA2068016841F001010160002010BDB2
:104B200010B5044600680022FDF76AFA206841F2D9
:104B30001112016A114208D1016A40F24442114245
:104B400003D1016821F001010160012084F83600E1
:104B5000002010BD10B504464FEAB100032808D864
:104B6000DFE800F002090E132068C26822F4007228
:104B70000FE020680EE02068C26822F4806208E03E
:104B80002068C26822F4006203E02068C26822F450
:104B90008052C2600022FDF733FA206841F2111200
:104BA000016A114208D1016A40F24442114203D124
:104BB000016821F001010160012084F83600002025
:104BC00010BD000010B504464FEAB100032808D814
:104BD000DFE800F002090E132068C26822F002022A
:104BE0000FE020680EE02068C26822F0040208E0AE
:104BF0002068C26822F0080203E02068C26822F040
:104C00001002C2600022FDF7FBF9206841F2111288
:104C1000016A114208D1016A40F24442114203D1B3
:104C2000016821F001010160002010BDB0B504460B
:104C30000068184DA84203D117483AF09FFE20683B
:104C400005F58051884204D11348A0303AF096FE11
:104C5000206805F50051884205D10F4800F5A07085
:104C60003AF08CFE206805F54051884205D10A488B
:104C700000F5F0703AF082FE206805F58041884228
:104C800018BFB0BD044800F52070BDE8B0403AF050
:104C900075BE00BF000005406443122090F8342028
:104CA000012A01D102211BE001224FEAB10180F863
:104CB00034200022032906D8DFE801F002070A0D9C
:104CC0000168343109E0002108E00168383104E06E
:104CD00001683C3101E001684031096880F8342006
:104CE00008467047B0B590F8342004460220012AE7
:104CF00015D084F836000125204684F83450FDF79D
:104D0000AFFA2068C16821F04001C160C16821F498
:104D10008041C160002084F8340084F83650B0BD72
:104D2000B0B590F8342004460220012A15D084F84A
:104D300036000125204684F83450FDF791FA2068AA
:104D4000C16841F04001C160C16821F48041C16087
:104D5000002084F8340084F83650B0BD704780B528
:104D600043F0E2F94FF47A714843B0FBF1F080BDB3
:104D70004E48016821F01001016070477047000043
:104D8000012101FA00F003490A6822EA00000860E4
:104D900000207047180003407047000010B5012242
:104DA00002FA00F3384A546923435361831E032BEC
:104DB0000BD800EB400007230638834001FA00F0CF
:104DC00011681840994308431060002010BD00BFCF
:104DD0000848022101600020704700BF05480121FA
:104DE00001600020704700BF0248032101600020DD
:104DF000704700BF0000034002460020032A07D886
:104E000031B10E4800EBC20350F832009B880B8092
:104E1000704700BF10B5094B0022042A0AD053F88E
:104E20003240844204D103EBC204A4888C4202D0F5
:104E30000132F2E7FF2250B210BD00BF0C2805007E
:104E40001149086A80064FF001000AD50F4A13681D
:104E500043F4802313600A6842F480520A60886237
:104E6000002070470848016A89065CBF012070472E
:104E700006490A6822F480220A60016821F4805100
:104E800001600020704700BF040003400400074099
:104E900002281CBF012070470448016841F001014D
:104EA000016001688906FCD500207047240003409A
:104EB00090F87010012901D1022111E0242180F81D
:104EC000711001680A6822F00C020A600A6842F058
:104ED00004020A600021202280F8701080F87120FE
:104EE0000846704790F87010012901D1022111E0A5
:104EF000242180F8711001680A6822F00C020A600F
:104F00000A6842F008020A600021202280F870102E
:104F100080F8712008467047A8B310B5044690F891
:104F2000710028B9002084F87000204604F0D3FBFB
:104F3000242084F871002068016821F001010160DB
:104F4000204606F0D7F9606A10B1204606F058F8FE
:104F50002068416821F490414160816821F022017C
:104F60008160816841F008018160016841F00101C0
:104F7000016000202021606784F8711084F87000BF
:104F800084F8721010BD012070477047704770B5EB
:104F9000D0E90B304FF40054802504620024C46132
:104FA000C0E905440561C0E902440E68C968C0E96A
:104FB000006110261168D2681C6283E84600C3E9CC
:104FC0000345C3E90544DC61FDF7EAFC002070BD40
:104FD000B0B110B50446242084F837002068016879
:104FE00021F004010160204600F010FE0020E06383
:104FF00084F83700606284F8340084F8380010BD0B
:10500000012070477047C06B704790F838007047B8
:1050100090F8370070470000D0B310B50446006820
:10502000016841F0004101600120FDF759FE206850
:10503000016821F000410160016841F08041016098
:105040000168490004D50120FDF74AFE2068F7E712
:1050500094F8371031B9002084F83400204600F06D
:10506000D6FD2068242184F83710016821F004015E
:105070000160012194F8350002F084FD94F8362097
:1050800094F838301103102B04D141F00D0107E0E2
:105090000120704794F83830202B08BF41F00501FB
:1050A00063680BB90D4B6360B0FBF3F0801A0C4AD8
:1050B00002EB002040F2FF12904322689061122020
:1050C000116020215061106840F004001060002041
:1050D000E06384F83710606210BD00BF400D03002C
:1050E00000FAFFFF7047704770472DE9FC47044600
:1050F00090F83700202817D194F83400012813D0F5
:1051000001201D4616460F4684F83400FFF727FE9F
:1051100081460090204604210122192304F077FFE4
:1051200028B1002084F834000220BDE8FC8722204A
:105130004FF0000ADDF8288039464B4684F83700E6
:10514000102084F83800C4F83CA0E583A661C4F8B8
:1051500028A04246E08BA083204604F0BDFD80B32A
:1051600020684FF000410160202084F837000120C2
:1051700084F834A084F838A0BDE8FC8720680022B9
:105180004346C16841F08001C160E18B01294FF0C5
:10519000010108BF0D2141602046CDF8009080211B
:1051A00004F035FF0028DBD12068A1690069087090
:1051B000A0690130A061A08B0138A083E08B013889
:1051C000E083E08B0028D9D1202084F8370000202C
:1051D00084F8340084F83800BDE8FC87F8B504464C
:1051E00090F83700202808D10D462168C86840078C
:1051F00003D494F83400012801D10220F8BD222004
:1052000084F83700102084F838000020E063D0488C
:10521000E38320620120A26184F83400CD48A062BB
:10522000E08BB0F5807F02D3FF23A38302E0E38B02
:10523000A383FBB1206B78B1DFF80CC9224F0026A5
:105240003031C0E90C76C0E90EC6FDF7D9FC98B143
:10525000E06B40F0100002E0E06B40F08000E063A3
:10526000202084F83700002084F8340084F83800C7
:105270000120F8BD0020F8BDFFF771FD0346204670
:1052800029464FF47A7204F027FD40B12068E16BA3
:1052900041F00401E1634FF000410160E0E7A08BC1
:1052A000E18B091AE18321680A6842F070020A6002
:1052B0008A6842F400528A6088620020402284F8A2
:1052C00034004A60F8BD00BFC19B0000B0B5044681
:1052D00090F83700202803D194F83400012801D138
:1052E0000220B0BD10200D4684F838000020E06395
:1052F000C848E38320620120A26184F83400C648D4
:10530000A062E08BFF2894BFE08BFF20A083FFF713
:1053100026FD0346204629464FF47A7204F0DCFC51
:1053200060B1206804214160202084F8370000200B
:1053300084F8340084F838000120B0BD2220012216
:1053400084F837002168C86840F04000C860E08BEE
:1053500001284FF0000008BF0D224A6084F8340095
:105360008A6842F080028A60B0BD00BF2DE9FC4728
:10537000044690F83700202817D194F8340001280B
:1053800013D001201D4616460F4684F83400FFF75F
:10539000E6FC81460090204604210122192304F0F6
:1053A00036FE28B1002084F834000220BDE8FC87D6
:1053B00021204FF0000ADDF8288039464B4684F85A
:1053C0003700102084F83800C4F83CA0E583A661BB
:1053D000C4F828A04246E08BA083204604F0CAFC13
:1053E00070B3206804214160202084F83700012038
:1053F00084F834A084F838A0BDE8FC872068A1694F
:105400004346C26842F04002C2600022097801614E
:10541000E18B01294FF0010108BF052141602046C1
:10542000CDF80090402104F0F2FD0028D9D1A06908
:105430000130A061E08B0138E083A08B0138A083AC
:10544000E08B0028DAD1202084F83700002084F88F
:10545000340084F83800BDE8FC870000F8B5044645
:1054600090F83700202808D10D462168C868400709
:1054700003D494F83400012801D10220F8BD212082
:1054800084F83700102084F838000020E063F248E8
:10549000E38320620120A26184F83400EF48A06217
:1054A000E08BB0F5807F02D3FF23A38302E0E38B80
:1054B000A38323B30420C861E06A90B1DFF888C6F3
:1054C000254F0026C0E90C76C0E90EC601F1300672
:1054D00011463246FDF794FB98B1E06B40F01000A6
:1054E00002E0E06B40F08000E063202084F83700A9
:1054F000002084F8340084F838000120F8BD002032
:10550000F8BDFFF72CFC0346204629464FF47A727B
:1055100004F030FC40B12068E16B41F00401E1632C
:105520004FF000410160E0E7A08BE18B091AE183B5
:1055300021688A6842F400528A600A6842F0500288
:105540000A6088620020202284F834004A60F8BD96
:105550000000FFFF059E00004D9C0000B0B5044612
:1055600090F83700202807D12068C068400703D48E
:1055700094F83400012801D10220B0BD10200D465E
:1055800084F838000020E063E448E38320620120CF
:10559000A26184F83400E248A062E08BFF2894BF47
:1055A000E08BFF20A083FFF7DAFB03462046294665
:1055B0004FF47A7204F0DEFB60B120680421416090
:1055C000202084F83700002084F8340084F8380064
:1055D0000120B0BD2120012384F837002168A06993
:1055E000CA6842F04002CA6010F8012B0A61A28B1F
:1055F000012A08BF05234B60013AE38B013BE3839B
:10560000A0610020A28384F834008A6842F040023E
:105610008A60B0BD0000FFFF859E000070477047A4
:105620002DE9FE4F044690F83700202821D1DDF8FF
:1056300030A0BAF1000F1FD0DDF834B0BBF1000F7D
:105640001AD094F83400012813D001201E461546C4
:105650000F4684F83400FFF782FB81460090204615
:1056600004210122192304F0D2FC58B1002084F84F
:1056700034000220BDE8FE8F4FF40070E06301208B
:10568000BDE8FE8F22200E994FF000082A463346CF
:1056900084F83700402084F83800C4F83C80C4F80F
:1056A00018A0C4F82880A4F81EB08A46CDE90019D5
:1056B0002046394604F034FC10B184F83480DEE72B
:1056C000E08B394652464B46A083204604F004FB4B
:1056D00058B320684FF000410160202084F8370063
:1056E000002084F8340084F83800C8E7E08B0022FA
:1056F000534601284FF0010008BF0D202168486083
:1057000020464021CDF8009004F081FC0028E0D133
:105710002068A16900690870A0690130A061A08BB0
:105720000138A083E08B0138E083E08B0028DDD1D5
:10573000202084F83700002084F8340084F83800F2
:10574000BDE8FE8F2DE9FE43044690F8370020287F
:1057500011D1DDF82880B8F1000F0ED0DDF82C90C3
:10576000B9F1000F09D02068C068400703D494F84D
:105770003400012808D1022703E04FF40070E063F1
:1057800001273846BDE8FE8301201F4616460D4618
:1057900084F83400FFF7E3FA222132463B4684F8CE
:1057A0003710402184F838100021E163E449A4F85F
:1057B0001E902162E349C4F81880A162E18BFF29A1
:1057C00094BFE18BFF21A1831921CDE90010204670
:1057D000294604F0A5FB18B1002084F83400CFE777
:1057E000206BC0B1D8491E4A0027C0E90C27C0E988
:1057F0000E1742462168A38B1031FDF701FAB0B1B4
:10580000202084F8370084F8387084F83470E06B16
:1058100040F01000B3E7202084F83700002084F81F
:10582000380084F83400E06B40F08000A7E720687F
:105830006900016103214160A18BE28B511AE18370
:10584000816841F40051816084F83470416841F00E
:105850004001416095E700BF0000FFFF059E00008A
:10586000C19B00002DE9FE43044690F83700202834
:1058700011D1DDF82880B8F1000F0FD0DDF82C90A1
:10588000B9F1000F0AD02068C068400703D494F82B
:105890003400012808D10220BDE8FE834FF40070D7
:1058A000E0630120BDE8FE8301201E4617460D4639
:1058B00084F83400FFF753FA22213A46334684F83D
:1058C0003710402184F838100021E163CD49A4F855
:1058D0001E902162CC49C4F81880A162E18BFF2997
:1058E00094BFE18BFF21A1831921CDE9001020464F
:1058F000294604F015FB18B1002084F83400D0E7E5
:1059000021686800086103204860002084F83400A2
:105910008A6842F040028A60BDE8FE830000FFFF13
:10592000859E00002DE9FE4F044690F837002028A0
:1059300021D1DDF830B0BBF1000F1FD0DDF834A06D
:10594000BAF1000F1AD094F83400012813D00120C6
:105950001F4616460D4684F83400FFF700FA8146CC
:105960000090204604210122192304F050FB58B175
:10597000002084F834000220BDE8FE8F4FF4007050
:10598000E0630120BDE8FE8F2120DDF83880294644
:1059900032463B4684F83700402084F83800002027
:1059A000E063C4F818B04FF0000B2046C4F828B0EC
:1059B000A4F81EA0CDE9008904F0EBFA50B12068EC
:1059C00004214160202084F8370084F834B084F842
:1059D00038B0D6E7E08BA083204640210022434622
:1059E000E58BCDF8009004F012FBA5B10028E6D1BC
:1059F000A169206811F8012B0261E28B012A4FF0A6
:105A0000010208BF05224260A161E08B0138E083FA
:105A1000A08B0138DFE70028D1D1202084F837009F
:105A2000002084F8340084F83800BDE8FE8F0000C0
:105A30002DE9FE43044690F83700202811D1DDF807
:105A40002880B8F1000F0ED0DDF82C90B9F1000FCE
:105A500009D02068C068400703D494F834000128B6
:105A600008D1022603E04FF40070E06301263046BF
:105A7000BDE8FE8301201E4617460D4684F834001B
:105A8000FFF76DF921213A46334684F8371040215B
:105A900084F838100021E1635A49A4F81E9021626D
:105AA0002849C4F81880A162E18BFF2994BFE18BDB
:105AB000FF21A1831921CDE900102046294604F0D9
:105AC00068FA18B1002084F83400CFE7E06AC8B162
:105AD0001D491E4A0026C0E90C26C0E90E162168A1
:105AE000A38B01F110024146FDF78AF8B0B12020E6
:105AF00084F8370084F8386084F83460E06B40F054
:105B00001000B2E7202084F83700002084F8380025
:105B100084F83400E06B40F08000A6E720680321A1
:105B20004160A18BE28B511AE183816841F40051FD
:105B3000816084F83460416841F02001416096E75B
:105B40000000FFFF059E0000BD9B00004D9C000073
:105B50002DE9FE43044690F83700202811D1DDF8E6
:105B60002880B8F1000F0FD0DDF82C90B9F1000FAC
:105B70000AD02068C068400703D494F83400012894
:105B800008D10220BDE8FE834FF40070E0630120DD
:105B9000BDE8FE8301201D4616460F4684F83400FA
:105BA000FFF7DDF8212132462B4684F837104021DB
:105BB00084F838100021E1631249A4F81E90216294
:105BC0001149C4F81880A162E18BFF2994BFE18BD1
:105BD000FF21A1831921CDE900102046394604F0A8
:105BE000D8F918B1002084F83400D0E721680320E8
:105BF0004860002084F834008A6842F040028A60DD
:105C0000BDE8FE830000FFFF859E000070477047DF
:105C10000246012062B359B370B5D2E900328868F8
:105C2000B2FBF0F0C3F87001C868B2FBF0F0C3F843
:105C300050010A788D784C78CE78504340EA004085
:105C4000C3F84001042000EA85004A7962F3C300EA
:105C5000C3F82001C3F83041C4F3001066F34100DB
:105C6000C3F890010879C3F8A0010020BDE8704096
:105C7000704702460120A2B399B370B5D2E9000281
:105C80008B68B2FBF3F30362CB68B2FBF3F2C0F8AC
:105C900080200B788D784C78CE785A4342EA0242C5
:105CA0000267042202EA85024B7963F3C302C0F85B
:105CB000A02004F01F02C0F8904066F34512026174
:105CC0000A7902640A7C02F00F0202654A7C1AB16A
:105CD000897C41EA021100E0002101660020BDE854
:105CE0007040704790F85010012901D1022127E03F
:105CF000012180F8501090F8511049070CD5016827
:105D0000D1F8C02042F00102C1F8C02090F8511033
:105D100041F0160180F8511090F8511009070CD588
:105D20000168D1F8102142F00102C1F8102190F869
:105D3000511041F0160180F85110002180F85010E8
:105D40000846704790F85010012901D1022133E034
:105D5000012180F8501090F85110042912D10168E7
:105D6000D1F8C02022F00102C1F8C020D1F8B02043
:105D700042F00102C1F8B02090F8511001F0E901A1
:105D800080F8511090F85110082912D10168D1F80B
:105D9000102122F00102C1F81021D1F8002142F0B7
:105DA0000102C1F8002190F8511001F0E90180F8DA
:105DB0005110002180F850100846704710B5044675
:105DC00090F85000012804BF022010BD012084F883
:105DD00050002168A06CD1F8C02042F00102C1F847
:105DE000C020D1F8102142F00102C1F81021D1F8F1
:105DF000802442F00202C1F88024D1F8802442F0CD
:105E00000102C1F8802430B101680A6822F0010261
:105E10000A60FCF7E2FCE06C30B101680A6822F02D
:105E200001020A60FCF7D9FC2068D0F8001121F0CB
:105E30000101C0F80011D0F8B01021F00101C0F844
:105E4000B010012084F85100002084F8500010BDEB
:105E500030B310B5044690F8510040F0020084F8C9
:105E60005100A06C08B1FCF7FDFCE06C08B1FCF738
:105E7000F9FC2068D0F8B01021F00101C0F8B01092
:105E8000D0F8001121F00101C0F80011204600F007
:105E9000ACF80020606584F8510084F8500010BD13
:105EA000012070477047406D704790F8510070476F
:105EB0000168D1F81023D3071CBFD1F800335FEA83
:105EC000C37307D1920744BFD1F800235FEA8272FF
:105ED00019D47047D1F84024C36B04C3426C013A13
:105EE0004264C363426C002AF3D1D1F8002322F04C
:105EF0000102C1F8002390F8511001F0F70180F879
:105F0000511000F0E2B9026B08CAC1F80034836B8B
:105F1000013B83630263826B002ADAD1D1F800234C
:105F200022F00202C1F8002390F8511001F0FB01A9
:105F300080F8511000F02ABB002854D0F8B5044670
:105F400090F8510028B9002084F85000204600F055
:105F50004DF894F8510004F1080140F0020084F873
:105F600051002046FFF785FE04F11C012046FFF793
:105F70004FFE2168A06CD1F8B02022F00102C1F8D8
:105F8000B020D1F8002122F00102C1F8002188B12F
:105F9000002120224FF400634FF400758026102763
:105FA000C462C0E90271C0E90465C0E90632016259
:105FB000FCF7F6FCE06C80B1002120224FF4006376
:105FC0004FF400758026C462C0E90211C0E904657F
:105FD000C0E906320162FCF7E3FC002001216065A4
:105FE00084F85110F8BD012070477047704790F851
:105FF0005010012901D1022116E0012180F8501032
:1060000090F8511009070CD50168D1F8102142F021
:106010000102C1F8102190F8511041F0160180F8EA
:106020005110002180F850100846704790F8501029
:10603000012901D102211CE0012180F8501090F8C3
:106040005110082912D10168D1F8102122F0010263
:10605000C1F81021D1F8002142F00102C1F800215D
:1060600090F8511001F0E90180F85110002180F8FA
:1060700050100846704710B5044690F850000128AB
:1060800004BF022010BD012084F850002168E06C9C
:10609000D1F8102142F00102C1F81021D1F880247A
:1060A00042F00102C1F8802438B101680A6822F088
:1060B00001020A60FCF791FB2168D1F8000120F091
:1060C0000100C1F8000194F8510000F0F70084F8D5
:1060D0005100002084F8500010BDB0B504460120E6
:1060E000002944D0002A42D094F8500001283DD025
:1060F000012084F8500094F85100000733D4900830
:106100001D46206460640020606594F8510040F0F2
:10611000080084F85100E1632068D0F80011C90735
:1061200005D1D0F8001141F00101C0F80011D0F8FC
:106130002011490705D4D0F8101321F00101C0F84F
:106140001013616CA1B1204604212A4603F0D5FF4B
:10615000F0B92068E16BD0F8402404C1E163616CC0
:1061600001396164EDE7002084F850000220B0BDE1
:1061700094F8511001F0F70184F85110D0F8001193
:1061800021F00101C0F80011002084F85000B0BDDA
:106190000320B0BD70B5002856D00D460121002A5D
:1061A00058D0002D56D00446C06C002852D094F828
:1061B000501001294DD0012184F8501094F851104D
:1061C000090743D494F85110D44B244E41F00801F0
:1061D00084F851100021616591082164616421688F
:1061E000D1F8102122F00102C1F810211A4AE5630A
:1061F000C0E90C628363D1F82021520705D4D1F89D
:10620000102322F00102C1F81023236C01F58861EC
:106210002A46FCF7F5FC2068D0F88014C90705D0A1
:10622000D0F8801421F00101C0F88014D0F80011DA
:10623000C90705D1D0F8001141F00101C0F80011E3
:10624000002184F8501005E0012103E0002084F8CB
:1062500050000221084670BDC3A0000097A00000B6
:1062600010B5012379B372B390F85030012B29D0C7
:10627000012380F8503090F851301B071FD490F85C
:106280005130920843F0080380F8513000234365F1
:10629000026442640268D2F8004344F00104C2F888
:1062A0000043C163D2F80011C90705D1D2F800112B
:1062B00041F00101C2F8001180F8503003E00021E4
:1062C00080F850100223184610BD7047704790F8B0
:1062D0005010012901D1022116E0012180F850104F
:1062E00090F8511049070CD50168D1F8C02042F050
:1062F0000102C1F8C02090F8511041F0160180F859
:106300005110002180F850100846704790F8501046
:10631000012901D102211CE0012180F8501090F8E0
:106320005110042912D10168D1F8C02022F00102D5
:10633000C1F8C020D1F8B02042F00102C1F8B0206D
:1063400090F8511001F0E90180F85110002180F817
:1063500050100846704710B5044690F850000128C8
:1063600004BF022010BD012084F850002168A06CF9
:10637000D1F8C02042F00102C1F8C020D1F8802439
:1063800042F00202C1F8802438B101680A6822F0A4
:1063900001020A60FCF721FA2168D1F8B00020F070
:1063A0000100C1F8B00094F8510000F0FB0084F83F
:1063B0005100002084F8500010BD70B50446012043
:1063C000002940D0002A3ED094F85000012839D04E
:1063D000012084F8500094F8510040072FD4900811
:1063E0001D466063A0630020606594F8510040F092
:1063F000040084F8510021632068D0F8B010C90768
:1064000005D1D0F8B01041F00101C0F8B010D0F8BB
:10641000C01021F00101C0F8C010A66B2046402139
:106420002A4603F06AFE7EB178B9216B206804C960
:10643000C0F800242163A06B0138A063EDE70020C1
:1064400084F85000022070BD08B1032070BD94F89C
:10645000510000F0FB0084F851002068D0F8B01023
:1064600021F00101C0F8B010002084F8500070BD88
:1064700070B5012300284DD0002A4BD0002949D007
:106480000446806C002845D094F85030012B40D051
:10649000012384F8503094F851305B0736D494F8D7
:1064A000513092081D4D1E4E43F0040384F85130C4
:1064B000002363656263A2632268D2F8C03023F0D0
:1064C0000103C2F8C030144B216302F58062C0E9B9
:1064D0000C638563636BFCF793FB2068D0F8801432
:1064E000890705D5D0F8801421F00201C0F8801486
:1064F000D0F8B010C90705D1D0F8B01041F00101B3
:10650000C0F8B010002384F8503003E0002084F875
:1065100050000223184670BDF5A000006FA00000D7
:10652000C9A0000010B5012371B36AB390F85030D0
:10653000012B28D0012380F8503090F851305B07B0
:106540001ED490F8513043F0040380F851300023FA
:106550004365426382630268D2F8004344F0020458
:10656000C2F800430163D2F8B010C90705D1D2F8D0
:10657000B01041F00101C2F8B01080F8503003E0D3
:10658000002180F850100223184610BD7047704754
:106590000248016801310160704700BF189B12205A
:1065A00080B501F09BFA032001F07AF8002000F09A
:1065B00004F8002818BF012080BD00207047006843
:1065C0000029D0F8802022F0010318BF42F0010317
:1065D000C0F8803070470000E0B501688A68019219
:1065E000019A8A60CA6822F00102CA60019AD20246
:1065F00017D5D1F8CC30D1F8B0205340B3F5803F57
:1066000017D2CA6822F01002CA60D1F8CC2022F05A
:106610001002C1F8CC20D1F8D42042F08052C1F849
:10662000D4200E490A681AB100220A6003F0A6FDC0
:106630008CBDD1F8CC0080B2C1F8CC004FF6FF7011
:1066400022EA0000D1F8CC201043C1F8CC00D1F8E8
:10665000CC0020F00100C1F8CC008CBDAC6312204E
:106660002DE9F04104460020002601F06DFA216872
:106670000546C86840F48070C860207B01280BD0B4
:1066800004280CD0022811D120794FF48C660228FE
:1066900038BF4FF4846609E04FF4407606E0207975
:1066A0004FF41A66022838BF4FF41E660E66207932
:1066B000022837D20A6E00270A66A268B5FBF2F2FA
:1066C000A2EB52033F2B1E4628BF3F26002B4FEA6A
:1066D00052034FEA83134FEA063603F1090308BF5A
:1066E0004FF480567F2A88BF40F6C973B7EB520F2C
:1066F00008BF49234A6E02F400021A43237C324346
:1067000003F0010642EA8652C3F3C00642EA86421B
:10671000C3F38006C3F3400342EA065242EA4352FF
:106720004A6695E00ED1086E40F0030008662069C5
:1067300088666069C866D1F8800020F00100C1F861
:1067400080009CE008281FD80A6E42F004020A6606
:10675000C21ED3B2052B8FBF574A52B257A353F86C
:1067600022202669A36806F00706B5FBF3F342EA88
:106770008632FF2B28BFFF23022B98BF0223DBB2F8
:1067800042EA8312CA6763E00C2861D1086E4FF0B9
:10679000000840F014000866002001F0D5F9064614
:1067A0000020012101F0EEF9218A628A278B8446BC
:1067B0003E481144A28A8B18E28A4FF0FF3101EB68
:1067C00053015B083A44678B17444FF4257200EB82
:1067D00047470F432168C1F8B070354FB6FBF7F655
:1067E0004FF4FA7716FB02724FF47A76B2FBF6F6A4
:1067F000734346EA064700EAC330C1F8BC7043EA77
:1068000003473044C1F8C070C1F8C4004FF4FA60C7
:10681000B2FBF0F000F58030C1F8C8002548C1F89F
:10682000D800C1F8CC80D1F8CC0020F01000C1F81D
:10683000CC00D1F8D40000F06F40C1F8D4003C2067
:10684000BCFBF0F0D1F8D4201043C1F8D40020797B
:10685000D1F880200338C0B222F001020528C1F827
:1068600080200CD8227DE069022A14D0012A06D1AA
:10687000A269012362F34103C1F88030FFE70C4AAB
:10688000B5FBF2F25043C1F88400012084F8000106
:106890000020BDE8F081A2690226236A06EA4202CE
:1068A00063F3D2020532C1F88020E8E70000FFFF61
:1068B00040420F005F0020000100004E0100084E22
:1068C00001000A4E01000C4E0100004E0100024E74
:1068D0000100044E0068D0F880108907D0F88010BD
:1068E00021F0020258BF41F00202C0F88020704738
:1068F000B0F8CA10C90714BF90F8C800002070474C
:1069000080F8C820002A18BF0122B0F8CA1021F070
:1069100001011144A0F8CA10002070470299A0F8A4
:10692000C030C0F8B820A0F8C6100199A0F8C41073
:106930000099A0F8C21000207047000070B580F8E0
:10694000BC20D8B3044604F091FD94F8FD1094F8EF
:10695000FC00090241EA004094F8FE10014420685E
:10696000816194F8BC100239CAB2042A09D81D23E7
:1069700023FA02F2D20704D049B211A252F8211030
:10698000C161B4F8CA10C36994F8BE5094F8BF60EE
:1069900001F0040201F0020143EA420294F8BD3022
:1069A00094F8C94042EA041242EAC12141F0A051E0
:1069B000C161290241EA034131448162002070BD76
:1069C00000000000000000000100000002000000C4
:1069D000030000002DE9F041069E002E4DD0054633
:1069E000007988461C461746C11E05292BD8284623
:1069F000012100F062F8284604F038FD4FF4400011
:106A00004FF4401100EB875001EB06513FFA80F044
:106A100001F4401108442968CA6F22F0F87210444A
:106A2000C8670420C1F874800867284604F01EFD7A
:106A300028680021806F06B320FA01F20831013E78
:106A400004F8012BF7E7012884BF0120BDE8F0819D
:106A5000284641463A4604F0CDF8284604F006FDA3
:106A6000052756B128680767284604F0FFFC286808
:106A7000013E806F04F8010BF3E70020BDE8F081D0
:106A800010B504460068436E51B143F400014166FD
:106A90001046FCF725F92068416E21F4000109E059
:106AA00023F4000141661046FCF71AF92068416E94
:106AB00041F400014166002010BDB0B50C4605460A
:106AC00004F0D4FC2868002CC16F21F0006218BFCC
:106AD00041F00062C267B0BD70B50D46002114469A
:106AE0000646FFF7EAFF30462946224604F082F8C0
:106AF00030460121FFF7E1FF3046BDE8704003F06A
:106B000087BF704703F084BF0246012052B149B1EC
:106B10000868C2F8F400C888A2F8FA008888A2F8C9
:106B2000F800002070472DE9F84F054600790A9CCF
:106B30009846924689460338A618052807D828465D
:106B400004F094FC2868C16F21F0F871C1676FF000
:106B50000700A6F1010B002600EBCA07B24514D0CE
:106B6000ABEB0600B0FA80F041092846FFF7A5FF1D
:106B7000284604F07BFC29FA07F02968083F013613
:106B8000C0B2486702200867E8E78CB103267CB1F1
:106B9000013CB4FA84F041092846FFF78EFF2846ED
:106BA00004F064FC18F8010B296848670E67EEE7EB
:106BB0000020BDE8F88FB0B5002842D00446C06977
:106BC000B0F5804F3DD0A068B0F1805F39D194F826
:106BD00071000D4628B9002084F87000204602F0AC
:106BE0007AFD242084F871002068016821F00101F9
:106BF0000160204604F07EFB606A10B1204604F07C
:106C0000FFF92068416821F400614160816821F04A
:106C10002A018160416841F480414160416821F06E
:106C2000200129434160016841F001010160002019
:106C30002021606784F8711084F8700084F8721065
:106C4000B0BD0120B0BD90F87010012901D1022122
:106C50000DE0242180F8711001688A6942F0020277
:106C60008A610021202280F8701080F87120084687
:106C7000704700000168024A116040685060704728
:106C8000000107402948016821F0100101607047A8
:106C900070470000012101FA00F003490A6822EA66
:106CA000000008600020704718000740704700008F
:106CB00010B5012202FA00F30A4A546923435361D2
:106CC000431F052B0BD800EB400007230F388340F0
:106CD00001FA00F011681840994308431060002041
:106CE00010BD00BF040007400848022101600020D9
:106CF000704700BF0548012101600020704700BFB8
:106D00000248032101600020704700BF00000740D7
:106D100001281CBF012070470448016841F00101AF
:106D2000016001688906FCD50020704724000740F7
:106D300070470000B0B50A4D04460068296E8842CD
:106D400003D1074838F01AFE2068D5F8FC108842B5
:106D500018BFB0BD05F19C00BDE8B04038F00EBED4
:106D6000C449122070477047022280F833204268DD
:106D7000012A08D0C26AB2F5000F04D10268D368B4
:106D800023F46063D3600268136943F00103136165
:106D90009161116941F004011161012180F8331002
:106DA0000020704710B5022280F833204268012A83
:106DB00008D00268C46AD368B4F5000F04BF23F496
:106DC0006063D3600268136943F0080313611369B9
:106DD0001B07FCD4936843F002039360936843F469
:106DE00000739360136943F00103136191610223FF
:106DF00090F83210012908BF042311691943116169
:106E0000012180F83310002010BD022180F83310DA
:106E100001680A6922F001020A61012180F8331039
:106E200000207047022180F8331001680A6922F0BF
:106E300001020A618A6822F002028A608A6822F4EA
:106E400000728A60012180F833100020704790B1F1
:106E500010B50446022084F833002068016921F04F
:106E600001010161204600F0CCF8002084F83100D7
:106E700084F8330010BD012070477047704790F8C8
:106E80003300704710B5044600680168C9071CBF8D
:106E900081685FEAC17142D10168890705D5022185
:106EA00041602046FFF746FF20680168490744BF5C
:106EB00081685FEA417139D40168090744BF81687C
:106EC0005FEA017139D40168C9050AD5816821F4E6
:106ED000807181604FF480714160204600F008F9B4
:106EE0002068016889050AD5816821F400718160F4
:106EF0004FF480714160204600F0FAF82068016884
:106F0000490558BF10BD816821F4806181604FF44C
:106F1000807141602046BDE8104000F0E9B80121D1
:106F20004160204600F05AFA2068B5E7042141602C
:106F3000204600F0DCF82068BEE7082141602046CA
:106F400000F04BFA2068BEE788B3F8B5044690F825
:106F5000330028B9002084F83100204600F052F8B0
:106F600002201D4E4FF6FF7784F83300D4E900036A
:106F7000A268E169C568012B08BF25F48F751A4323
:106F8000B94218BF3540154E3540D4E90A6742EA88
:106F9000060242EA070242EA050253B1012B0AD176
:106FA000D4E90556E3682A4332431A4303E001203B
:106FB000704723691A434FF6FF73994205D0114376
:106FC000D4E90823114341EA0302C260012084F896
:106FD00033000020F8BD00BF3E1159FFFEF159FFFC
:106FE00070B100214FF400324FF6FF73C0E9011178
:106FF000C0E90412C0E90613C0E90821C0E90A117A
:1070000070477047704710B5022380F8333003682B
:10701000DC6824F48014DC601C6944F001041C6109
:1070200099615A61196941F002011961012180F8E1
:107030003310002010BDB0B5022380F83330036850
:10704000C469DD6825F48015DD609D6845F00105A3
:107050009D609D6845F002059D609D6845F00405B2
:107060009D604FF6FF75AC4203D09C6844F0080465
:107070009C601C6944F001041C6199615A611969A2
:1070800041F002011961012180F833100020B0BDE8
:10709000022180F8331001680A6922F001020A61B6
:1070A000012180F8331000207047022180F833104E
:1070B0000168C2690B6923F001030B618B6823F03F
:1070C00001038B608B6823F002038B608B6823F0D5
:1070D00004038B604FF6FF739A4203D08A6822F054
:1070E00008028A60012180F8331000207047704741
:1070F0007047B0B5022480F833400468E56825F491
:107100008015E560256945F001052561A161626191
:10711000E16821F46061E160E1681943E16021699F
:1071200041F004012161012180F833100020B0BD3D
:10713000B0B5022380F833300368C469DD6825F4F4
:107140008015DD609D6845F001059D609D6845F0F6
:1071500002059D609D6845F004059D604FF6FF7532
:10716000AC4203D09C6844F008049C601C6944F065
:1071700001041C6199615A61196941F004011961A6
:10718000012180F833100020B0BD022180F83310B7
:1071900001680A6922F001020A61012180F83310B6
:1071A00000207047022180F833100168C2690B6922
:1071B00023F001030B618B6823F001038B608B6864
:1071C00023F002038B608B6823F004038B604FF67F
:1071D000FF739A4203D08A6822F008028A60012174
:1071E00080F833100020704700688069704700689D
:1071F000406970470068C069704710B5022380F885
:1072000033300368DC6844F48014DC601C6944F0AB
:1072100001041C6199615A61196941F00201196107
:10722000012180F83310002010BDB0B5022380F892
:1072300033300368C469DD6845F48015DD609D68FE
:1072400045F001059D609D6845F002059D609D68C3
:1072500045F004059D604FF6FF75AC4203D09C6875
:1072600044F008049C601C6944F001041C619961AD
:107270005A61196941F002011961012180F8331046
:107280000020B0BD022180F8331001680A6922F0A5
:1072900001020A61012180F83310002070470221A9
:1072A00080F833100168C2690B6923F001030B6198
:1072B0008B6823F001038B608B6823F002038B60E3
:1072C0008B6823F004038B604FF6FF739A4203D060
:1072D0008A6822F008028A60012180F833100020B9
:1072E000704710B5022380F833300368DC6844F43B
:1072F0000024DC601C6944F001041C6199615A613E
:10730000196941F004011961012180F8331000204E
:1073100010BDB0B5022380F833300368C469DD685E
:1073200045F40025DD609D6845F001059D609D6880
:1073300045F002059D609D6845F004059D604FF68F
:10734000FF75AC4203D09C6844F008049C601C6943
:1073500044F001041C6199615A61196941F004010A
:107360001961012180F833100020B0BD022180F89E
:10737000331001680A6922F001020A61CA6822F426
:107380000022CA60012180F83310002070470221DA
:1073900080F833100168C2690B6923F001030B61A7
:1073A000CB6823F40023CB608B6823F001038B6050
:1073B0008B6823F002038B608B6823F004038B60DF
:1073C0004FF6FF739A4203D08A6822F008028A605F
:1073D000012180F83310002070477047704700206B
:1073E00070470000064A022808BF02F5802242EAE0
:1073F0008100012900F1280088BF0020704700BFEC
:10740000002000400079704770B5044600680026EF
:10741000056985604DB1E80704D0A26812B1F1B2E8
:107420002046904701366D08F4E770BD0020704794
:1074300010B1006838B901E0012901D90420704772
:10744000144800EB8100016801F00F00002948BFDB
:107450000020704770B514460D4606463046294652
:10746000FFF7E6FF2CB120B90120FBF72DFC013C12
:10747000F4E770BD7047704710B1006828B97047D5
:107480000129FCD8034800EB8100016841F000416C
:107490000160704728200440407801490860704727
:1074A00098ED00E0BFF35F8F0A48016821F4803156
:1074B000016000210167704740F00100054908673D
:1074C000086840F480300860BFF34F8FBFF36F8FC0
:1074D000704700BF24ED00E07047FAF733BA002888
:1074E00041D070B5044690F8710015460E4628B993
:1074F000002084F87000204602F0EDF8242084F883
:1075000071002068016821F001010160204603F04C
:10751000F1FE606A10B1204603F072FD2068B5F5F7
:10752000006F416821F490414160816821F02A0197
:10753000816005D1416821F07F4141EA06614160E7
:10754000016821F4006129430160016841F00101F3
:10755000016000202021606784F8711084F87000B9
:1075600084F8721070BD012070470000002808D414
:1075700000F01F010122400902FA01F1014A42F81C
:107580002010704780E200E000280CD400F01F01BA
:107590000122400902FA01F1034A42F82010BFF328
:1075A0004F8FBFF36F8F704780E100E0002808D451
:1075B00000F01F010122400902FA01F1014A42F8DC
:1075C0002010704700E100E00020704700280AD436
:1075D0004109244A00F01F0052F8211021FA00F05E
:1075E00000F0010070470020704700BFF0B501F0C7
:1075F000070100F00F06114F0F4D0C1F3E4481F0A4
:10760000070138BF0024B0F1FF3FC8BF46193078EA
:10761000032928BF03214FF0FF36450906FA01F17F
:10762000E54025EA0101116006FA04F1C94301EAC7
:1076300050101860F0BD00BF00E400E014ED00E061
:107640001D480068C0F30220704700BF002808D41E
:1076500000F01F010122400902FA01F1014A42F83B
:107660002010704700E200E070B5134B4FF0FF357B
:107670001B68C3F302231C1F83F0070338BF0024D9
:10768000032B28BF032305FA04F605FA03F3B243DC
:107690009943A1401143BDE8704003F03DBF00BFD6
:1076A00005494FF6FF030A681A4060F30A220348AF
:1076B00010430860704700BF0CED00E00000FA05C1
:1076C00003F03CFF0B480C490068884218BF704724
:1076D00000480047011C12000649074A086890420A
:1076E0001CBF0020704701F1080049680022C9084A
:1076F00000F004B8003B1220484354502DE9F043F9
:1077000003461C4C00209046002A4FF0010CC4F8A0
:107710008000A646184C18BF4FF0010804334FEA0A
:107720008806A146D9B10CFA06F707EA0204B4FAB2
:1077300084F4640914EA080F0DD153F8044C4D4643
:107740003843754604EA09044EF82640CEF88470A2
:107750001C68CEF88840083301360139E2E7002181
:10776000002ACEF8841008BF0246CEF88020BDE87B
:10777000F08300BF00400440FCFF070070B50346E3
:10778000043100200B4C0DE0266F26FA05F5ED07BD
:107790000DD054F8205003EBC00643F830500130B0
:1077A0002D687560051D1F2D98BF8D42ECD3216F8C
:1077B000116070BD1040044048B370B50824344DCA
:1077C000002B18BF04241CBF0825C4F200052E6836
:1077D000002B44EA06042C602F4C1CBF43F200042B
:1077E000C4F20004002B04EB800454F8044C04F0B1
:1077F00030051560274D244A18BF154605EB40108B
:1078000004F00F0230F812000880002070BD4FF025
:10781000FF30704770B520B38BB11A4B1C6844F031
:1078200004041C60184B194C03EB40150023102B6B
:1078300017D035F813608E4216D00133F7E7144B9A
:107840001C6844F008041C60124B134C03EB4015F9
:107850000023102B05D035F813608E4204D001337D
:10786000F7E74FF0FF3070BD04EB800002F030010D
:10787000194350F8042C22F03F02114340F8041C35
:10788000002070BD08000040E856050000300040B0
:1078900008000440886305000030044010B5734CB4
:1078A0000120362130220023A04702203721302238
:1078B0000023A0470320382130220023A0470420C2
:1078C000392130220023A04726203A2130220023EC
:1078D000A0472A203B2130220023A446BDE81040C7
:1078E000604700BF10B5614C0120192130220123EF
:1078F000A04702201F2130220123A047032020217E
:1079000030220123A0470B201E2130220123A04753
:107910000C20182130220123A0470D2021213022E4
:107920000123A446BDE81040604700BF10B54F4C8E
:107930000120002100220123A04702200021102263
:107940000123A0470320002130220123A0470B2060
:10795000002100220123A0470C2000210022012346
:10796000A0470D20002130220123A446BDE810408D
:10797000604700BF10B53D4C432028213022012331
:10798000A0474520292130220123A04747202A2152
:1079900030220123A0474B202B2130220123A44673
:1079A000BDE81040604700BF10B5304C43202E2189
:1079B00030220123A04745202F2130220123A04758
:1079C0004720302130220123A0474B203121302293
:1079D0000123A446BDE81040604700BF10B5234C0A
:1079E0005020222130220123A04751202321302280
:1079F0000123A0475320242130220123A0475520F2
:107A0000252130220123A0475620262130220123A0
:107A1000A0475820272130220123A446BDE810406A
:107A2000604700BF10B5114C50207C21302201234B
:107A3000A04751207D2130220123A04753207F21E0
:107A400030220123A0475520812130220123A04765
:107A50005620822130220123A04758208421302241
:107A60000123A446BDE81040604700BF1578000020
:107A700010B5427C012303FA02F291B1D0E9001360
:107A80004C68144342EA024244F480344C608C68EF
:107A900022438A60017CC27C42EA014119600221D2
:107AA00007E042EA02410268936823EA010191601B
:107AB00001210175002010BD10B5447C0168D0E99A
:107AC000022304EB440401EB84010A6101220275E4
:107AD00001F10C02426000204B6110BD80B5AE4840
:107AE000016841F0040101600168B1F1FF3FFBDC76
:107AF000AA480322016841F001010160016841F0D8
:107B0000100101600120002100F0CAF8BDE88040AA
:107B1000FFF7E3BC02460120AAB1A1B170B5002075
:107B200001230F269060937191E83800C968090518
:107B3000C3F8846013601471C2E905514FF05021FD
:107B40009967BDE87040704710B50446002808BF2B
:107B50000224204600F034F81849012C05D0022CEC
:107B600009D101F580213F2200E0FF220968114080
:107B700008BF012100E00121B0FBF1F010BD00BF02
:107B800000207047B0B5054600280C4608BF022506
:107B90002846FFF7D9FF0949012D05D0022D1CBF4A
:107BA0000020B0BD01F580210822002C08BF0C2266
:107BB0000968D14001F00701C840B0BD1400004081
:107BC000012807D11848006800F00300032808BF07
:107BD00000F02CB800487047006CDC0210B50122A0
:107BE000114B002808BF03221C68114002FA00F262
:107BF00001FA00F124EA020241EA0201196000B12F
:107C000010BD0120FFF7A0FF4149086010BD00BF73
:107C10000121054A002808BF032112688140114054
:107C200021FA00F0C0B2704710000040012000F0BF
:107C300007B8022000F004B8032000F001B80000EB
:107C4000B0B50E49012806D0032803D0022805D17B
:107C5000043100E008310868C10701D10020B0BD3F
:107C6000C0F38301074B064A0020551C01FB03F4B7
:107C7000AC4238BF01FB1320B0BD00BF2000004064
:107C800000B0710B00366E010121444A002808BF84
:107C9000032112688140114021FA00F0C0B2704700
:107CA00010B50023002820EAE074C8BF3F23B1F1DB
:107CB000FF3FC8BF03F5E063B2F1FF3FC8BF03F564
:107CC000E043B1F1FF3FC8BF44EA0124B2F1FF3FF6
:107CD000C8BF44EA023493B10C4901280A6806D1AE
:107CE00042F04000086008689843204306E022EA1A
:107CF000030020430860086820F04000086002206C
:107D0000FFF722FF0249086010BD00BF14000440C5
:107D1000084112200C48016821F080410160704741
:107D200009480168490009D4084801210160016837
:107D30000029FCD0016821F0010102E0016821F076
:107D400080410160704700BF000007400000044010
:107D50007047000010B510480168002907D4016879
:107D600041F0040101600168B1F1FF3FFBDC0B4C05
:107D7000206840F0010020600220FFF7E5FE08497E
:107D8000B0FBF1F0616821F47F0141EA004040F46A
:107D90008000606010BD00BF080007401000044074
:107DA00000127A00012070477047000070B5044649
:107DB00002206075204602F0E5FA206800210126C5
:107DC000016042F201114160816801F001018160AE
:107DD000FCF7C5FF05462068C168490708D4FCF7D1
:107DE000BEFF401BB0F57A7FF5D903266675F2E732
:107DF000032E15D081684FF6FF7200218160426129
:107E00000162C1608068800605D4204600F01CFA3B
:107E100008B1042003E0204600F004F9002060755A
:107E20007D48002121750160002070BD70B5017D85
:107E300004460220012920D060752068816821F461
:107E40008071816001212175816821F40061816068
:107E5000FCF785FF054600262068C068C00708D1EA
:107E6000FCF77DFF401BB0F57A7FF5D90321032095
:107E700001E0012100202675617570BD70B5017D9E
:107E800004460220012920D060752068816821F411
:107E90000071816001212175816821F48051816028
:107EA000FCF75DFF054600262068C068400708D43F
:107EB000FCF755FF401BB0F57A7FF5D9032103206D
:107EC00001E0012100202675617570BDB0B5006824
:107ED0000C468569284636F097FC6FF39F250020F5
:107EE0006560B0BD70B5054600680C4646684168DF
:107EF0000029FBD491482146304036F05CFCF0016B
:107F00000BD5E078452805D82868416821F08071B4
:107F1000416002E040F08000E070002070BD00BFD2
:107F2000407D704770B5054600680C4601680668DC
:107F30008E42FCD03046214636F066FC6FF39F2619
:107F4000286866600169090EA1600069C0F38D2090
:107F5000E060002070BD006840696FF39F4070478B
:107F600010B52D480468C4B12068C168890708D4D9
:107F7000C06800070FD5204600F07FF96FF48160DC
:107F800003E02046FFF710FF37482168CA6802F473
:107F900080621043C8600120607510BD70B598B351
:107FA000044699BB607D20B900202075204600F072
:107FB0003AF802206075204602F0E4F994E80F00D8
:107FC000164E856835408560856829438160C168A3
:107FD00021F48061C160016941EA026101611049D7
:107FE00001EA8321026911430161216902696FF38A
:107FF0009F21114301618068800607D4204600F06C
:1080000023F918B104206075012070BD0248046096
:1080100001206075002070BDF0631220BFFFE3FFF8
:1080200000FCFF0070477047F8B50D460446FCF7AA
:1080300096FE06466F1C2068C16889070AD4002F87
:10804000F9D025B1FCF78BFE801BA842F3D90321A0
:10805000032007E0C168044A114321F00201C16016
:10806000002001216175F8BDFDFBFFFFF8B50D464D
:10807000017D04460220012934D060750120164696
:1080800027682075F968B868C90703D120F48070A3
:10809000B860F7E740065CBF0020E870314628462C
:1080A00048F036F9B86105F1180031460FF0D4FFF9
:1080B00080B22168C861D5E907021043CA6910433C
:1080C000C86160484FF4004101602068816841F454
:1080D00000618160816841F480718160002001212C
:1080E00020756175F8BD00BFB0B5037D0446022060
:1080F000012B21D0607501202075084611460FF034
:10810000ABFF0546204602F03DF90C4821682840A7
:108110004860C86820F48060C8608868800606D41B
:10812000204600F091F810B10120042101E0002068
:108130000121002222756175B0BD00BF3FFFFF0124
:1081400070B50D46017D0446022001292BD06075D3
:108150000120114620752068806840065CBF002021
:10816000E870284648F0D4F80646204602F00AF99E
:1081700020680660D5E904121143826811438160CA
:10818000C16821F48061C1608068800606D4204601
:1081900000F05AF810B10120042101E00020012173
:1081A00000222275617570BDF8B50D46017D04464B
:1081B0000220012945D060750120164620752068EF
:1081C0008168890511D4816821F400718160FCF710
:1081D000C6FD07462068C168490716D4FCF7BFFDF5
:1081E000C01BB0F57A7FF5D90CE0FCF7B8FD074667
:1081F0002068C1684907E6D5FCF7B1FDC01BB0F5A2
:108200007A7FF5D90321032018E081686FF39F4539
:1082100021F0010181608168314381604561094835
:108220004FF4004101602068816841F48051816011
:10823000816841F4007181600020012100222275D3
:108240006175F8BD04E100E0B0B504460068C1689E
:1082500021F0A001C160FCF782FD05462068C068DE
:10826000000644BF0020B0BDFCF779FD401BB0F50F
:108270007A7F84BF0320B0BDF0E7704770470000ED
:108280001CB5044690F848000121FFF77BFC45F639
:10829000C051B0FBF1F06421484300900098019078
:1082A00020688168090710D54349E16301994A1E96
:1082B000019221B194F84A100729F7D103E0E16C4B
:1082C00041F04001E164009901918168490710D5AE
:1082D0003A49A16301994A1E019221B194F84A10CA
:1082E0000729F7D103E0E16C41F04001E164009916
:1082F00001918168002221F04301816062866285DC
:108300000121E06C40284FF001001CBFE264002016
:1083100084F84A101CBD00BF70470000BCB504467D
:1083200090F848000121FFF72DFC45F6C051B0FB45
:10833000F1F0642148430090009801902068816822
:10834000090710D51C49E16301994A1E019221B128
:1083500094F84A100729F7D103E0E16C41F040019D
:10836000E164009901918168490710D51349A1631F
:1083700001994A1E019221B194F84A100729F7D1B8
:1083800003E0E16C41F04001E164009901918168F2
:10839000012521F043018160002101206186618572
:1083A000E26C402A1CBFE164002584F84A002046A4
:1083B000FFF7B2FF2846BCBD3DA50000BDA40000EC
:1083C000014690F8490001280EBF0220002081F8E4
:1083D00049007047014690F8490001280EBF02206D
:1083E000002081F84900704710B50446006C08B1C0
:1083F000FAF7F3F9606C08B1FAF7EFF9012084F8A5
:108400004A00002010BD98B110B50446022084F83F
:108410004A002068016821F001010160204600F057
:108420007EF80020E06484F8490084F84A0010BD1A
:1084300001207047704781B000680021426902F452
:108440007C22B2F5782F07D0026901311029009201
:10845000009AF3D1032000E0002001B07047C06C07
:10846000704790F84A00704770B504460068866807
:108470004569700707D505F48110B0F5005F02D19A
:10848000A16B20468847300707D515F0200004D09F
:10849000E16B2046BDE87040084770BD80B3B0B5C1
:1084A000044690F84A0028B9002084F84900204684
:1084B00000F036F8022084F84A0094E80F000568BE
:1084C00025F001050560A569012D08BF8025C5635C
:1084D000E569002943EA050318BF43F01803216941
:1084E000012A41EA0301636941EA03010160416D28
:1084F00008D141F001014165016841F4003107E014
:108500000120704721F001014165016821F400312B
:10851000016000200121E06484F84A10B0BD70477A
:1085200070470000B0B50446012014B309B32046DB
:108530001546FFF7EFFAE9B22046FAF72CFF0120C3
:10854000FFF73EFB2A21114A114B4143C000B1FB0A
:10855000F2F29942104B88BF013AD1B298420D4ACB
:10856000B0FBF2F2204688BF013A92B2FAF726FF3A
:1085700000B1B0BD20460621FAF75BFF0028F8D114
:1085800020460121FAF7A4FD0020B0BD00CA9A3BA5
:10859000FFC99A3B40420F003F420F002DE9F843CC
:1085A000044640681D4617460E4670B9A068032869
:1085B0000BD10420314632463B4684F84A0020461F
:1085C000009500F0F8F9BDE8F88394F84900012817
:1085D00004BF0220BDE8F8834FF0010984F84990F8
:1085E000FCF7BDFB804694F84A00012852D10120D7
:1085F000002E5FD0002F5DD0042084F84A000020B8
:10860000E06467862786E66220856062C4E90E0022
:108610006085A1682068012903D1416D41F0020104
:1086200041650168C90703D1016841F0010101609A
:10863000E0686F1CE12816D2608E68B3206841693B
:10864000490409D4002FF7D09DB3FCF788FBA0EBB9
:108650000800A842F0D32CE0007C06F8010B608EE5
:1086600001386086E8E7608EB0B12068416949044E
:1086700009D4002FF7D0E5B1FCF771FBA0EB08009F
:10868000A842F0D315E0006926F8020B608E01388D
:108690006086E8E702200DE020462946424602F0C7
:1086A0009BF808B12020E064E06C002818BF01208E
:1086B00000E00320002184F8491084F84A90BDE8C6
:1086C000F8830000F8B5856813460A460446032D72
:1086D00002D16068002863D094F84900012804BFE3
:1086E0000220F8BD2168886820F04F0088600120D2
:1086F00084F8490094F84A0001284CD10120002A4E
:108700004AD0002B48D00420012D84F84A004FF0B5
:108710000000E06463862386E262C4E90E002085DF
:10872000608503D1486D40F002004865E368606CE5
:10873000E02B0AD88369B3F5806F06D1658E638E0E
:108740005B08ED0718BF013363868B68194D1A4E1D
:108750001A4F43F004038B604B6843F400634B6093
:108760004B6823F480634B600023C0E90C67103131
:10877000C0E90E53638EFAF743FA20680168C9070F
:1087800003D1016841F001010160816841F04301BA
:108790008160002000E00220002184F84910F8BD2B
:1087A0000420114684F84A00204601B0BDE8F0409C
:1087B00000F0D2B9A9A60000CFA60000BDA6000017
:1087C00070B513468268032A02D14468002C41D058
:1087D0000F2B06D81A464FF47A73BDE87040FFF7A6
:1087E000DDBE90F84940012C01D1022140E004682F
:1087F000A56825F04F05A560012580F8495090F83F
:108800004A50012D2ED179B304251B4E80F84A50D1
:108810000025C5644386C162038605854562154B04
:10882000C168E02988BF1E46C0E90E654585012A5A
:1088300003D1616D41F002016165A16841F047011A
:10884000A1602168C90703D1216841F001012160BD
:1088500000210AE0042280F84A200A46BDE8704060
:1088600000F01ABA022100E00121002280F849201C
:10887000084670BD7DA80000B9A800007047704789
:108880002DE9F843044690F84900012804BF02206E
:10889000BDE8F8834FF001091D4617460E4684F8DF
:1088A0004990FCF75CFA804694F84A00012848D1C8
:1088B0000120002E78D0002F76D0032084F84A00C3
:1088C0000020E0646785278566622086E062C4E94F
:1088D0000E006086A1682068012903D1416D21F056
:1088E000020141650168C90703D1016841F0010136
:1088F0000160E2686168E12A25D3182902D0618D00
:10890000012905D136F8021B0161608D01386085AF
:108910006F1C608DD0B32068416949060AD4002FCE
:10892000F7D0002D3FD0FCF71AFAA0EB0800A842C0
:10893000EFD338E036F8021B0161608D01386085A5
:10894000E7E7022030E0182902D0618D012905D126
:1089500016F8011B0174608D013860856F1C608DF5
:10896000A0B120684169490609D4002FF7D0D5B1DC
:10897000FCF7F5F9A0EB0800A842F0D313E016F8D5
:10898000011B0174608D01386085E8E720462946A7
:10899000424601F04FFF08B12020E064E06C00285F
:1089A00018BF012000E00320002184F8491084F85A
:1089B0004A90BDE8F8832DE9F047044690F8490055
:1089C000012804BF0220BDE8F08701201F4615469C
:1089D0008A4684F84900FCF7C2F994F84A108146A7
:1089E000012961D1BAF1000F4FF0010018BF002D2D
:1089F00000F0A980002F00F0A68094F84A00042817
:108A00001CBF052084F84A000020E0646786678563
:108A1000E5622786C4F824A0C4E90E0027852068F3
:108A20000168C90703D1016841F001010160E268F2
:108A3000DDF820806168E12A42D3182902D0618DD7
:108A4000012905D13AF8021B0161608D013860856A
:108A5000012608F10107608D10B9608E002866D0EC
:108A60005EB1608D50B120684169490606D53AF87B
:108A7000021B0161608D013860850026608E50B157
:108A800020684169490406D50069012625F8020BD2
:108A9000608E01386086002FDDD0FCF760F9A0EB16
:108AA00009004045D7D340E0606808B102204AE0A1
:108AB0000220042947D1A16803293FF493AF42E083
:108AC000182902D0618D012905D11AF8011B017402
:108AD000608D01386085012608F10107608D08B9B5
:108AE000608E20B35EB1608D50B120684169490647
:108AF00006D51AF8011B0174608D013860850026C7
:108B0000608E50B120684169490406D5007C012679
:108B100005F8010B608E01386086002FDED0FCF76F
:108B20001EF9A0EB09004045D8D303200BE02046F6
:108B300041464A4601F07EFE08B12020E064E06C28
:108B4000002818BF0120002184F84910012184F871
:108B50004A10BDE8F087000070B5044690F849005F
:108B6000012804BF022070BD2568A86820F04F00CE
:108B7000A860012084F8490094F84A60012E1CD1B5
:108B8000012000297BD0002A79D0002B77D094F8DF
:108B90004A0004281CBF052084F84A000020E06435
:108BA0006385238561622386E262C4E90E006386E1
:108BB000E068E1280CD3606C21E0606808B1022015
:108BC0005DE00220042E5AD1A668032ED8D056E0CC
:108BD000206C8069B0F5806F05D1608D03F00101D4
:108BE00001EB50006085606C8169B1F5806F06D142
:108BF000628E618E4908D20718BF0131618694F8F0
:108C00004A10224B204A0026042908BF134603635A
:108C1000AA68204B042905F1100142F00402AA6061
:108C20006A6842F400626A607C4AC6638263184ADA
:108C300008BF13464363E26A638EF9F7E1FF206CD5
:108C4000C0E90C66C0E90E662268616A936843F069
:108C500008039360536843F4806353601032638D5C
:108C6000F9F7CEFF20680168C90703D1016841F018
:108C700001010160816841F0430181600020002111
:108C800084F8491070BD00BFCFA6000085A7000082
:108C9000BDA60000C9A60000F0B590F84940012C1F
:108CA00001D102243FE00568AC6824F04F04AC60B9
:108CB000012480F8494090F84A60012E2DD101240A
:108CC00071B36AB363B390F84A401C4FDFF868C0D1
:108CD000042C1CBF052480F84A400024C46443854A
:108CE0004386C668E02E88BF6746C763AF68E02E3C
:108CF00047F04F07AF60C262124A416203850386A4
:108D00000F4988BF0A4682632968C90708D12968C4
:108D1000002441F00101296002E044682CB10224E2
:108D2000002180F849102046F0BD0224042EF7D11E
:108D30008668032EC3D0F3E747A4000093A4000085
:108D4000F5A300001DA40000F8B5044690F8490002
:108D5000012804BF0220F8BD2568A86820F04F0054
:108D6000A860012084F8490094F84A0001284ED1F7
:108D7000012000294CD0002A4AD00320002384F887
:108D80004A00E364628522856162E362C4E90E33CE
:108D900023866386A068012803D1686D20F0020055
:108DA0006865E268206CDFF870C01D4E1B4FE02A3A
:108DB000C0E90C6CC0E90E730AD88269B2F5806F05
:108DC00006D1638D628D5208DB0718BF01326285C0
:108DD000AA6842F00802AA606A6842F480626A6087
:108DE0006A6822F400626A6005F11002638DF9F787
:108DF00007FF20680168C90703D1016841F001013C
:108E00000160816841F043018160002000E00220A0
:108E1000002184F84910F8BDC3A60000A9A60000EF
:108E20001DA7000070B590F84930012B01D1022335
:108E300038E00123046880F84930A56825F04F0523
:108E4000A56061B35AB390F84A30012B26D10323B1
:108E5000164E154D80F84A300023C36442850285C2
:108E600041620386C362D0E90212E02A88BF2E461F
:108E7000C0E90E364386012903D1616D21F002015C
:108E80006165A16841F04B01A1602168C90703D168
:108E9000216841F001012160002300E0022300214C
:108EA00080F84910184670BDF9A8000015A9000007
:108EB00070477047704770470D4904280A6822F0D0
:108EC000040308BF42F004030B60704770470000C2
:108ED000411E0020B0EB116F1CBF01207047044AF7
:108EE000E023516003490B700721906011607047C7
:108EF00010E000E023ED00E0FFF7E8BF70477047A7
:108F0000704720B101460020087148717047012068
:108F10007047016840F601030A6922F001020A6104
:108F20000A689A430A6001214171704710B50446EE
:108F30000068016941F0010101610120F9F7C4FEF7
:108F4000206840F60102016811430160016821F0C8
:108F500002010160016841F002010160016841F015
:108F6000040101600320607110BD4079704700006A
:108F700080B5016840F2ED238A6842F001028A6000
:108F80002F4A496801FB032142F2747291FBF2F10E
:108F900015398171FFF7BDFF284801210160BFF33A
:108FA0004F8FBFF36F8F80BD58B1417909B9002150
:108FB0000171016809B90449016001214171002072
:108FC00070470120704700BF00A0054070B50446FF
:108FD0004079194D01282DD1184801210160204602
:108FE000BFF34F8FBFF36F8FFFF7A0FF15262068E9
:108FF000816849070AD40120F9F766FE013EF6D1DF
:109000002068816841F00101816010E0816840F2D0
:10901000ED2241F0010181600949406800FB021026
:1090200042F2747190FBF1F0A0F21515A571204683
:10903000FFF76FFF284670BD18FCFFFF84E100E0DA
:109040005849220010B50446407901281CBFFB2076
:1090500010BD2068816841F001018160054801214F
:10906000C0F8801101602046FFF760FF04206071A6
:10907000607910BD04E100E010B50168044608689D
:1090800020F4F0700860886820F00100886088682B
:1090900000060AD5886820F080008860A06E20B1A4
:1090A0000021C163F9F799FB2168886840060AD559
:1090B000886820F040008860E06E20B10021C16324
:1090C000F9F78BFB216800200F22A4F85200A4F8C6
:1090D0005A000A628A6942F008028A61202184F8F3
:1090E000711084F872106067002010BD704710B5D1
:1090F00001680446086820F490700860886820F0D1
:1091000001008860886840060AD5886820F0400021
:109110008860E06E20B10021C163F9F75EFB216831
:109120000020A4F85A000F200862886940F0080067
:109130008861202084F87200002010BD7047000074
:1091400010B501680446086820F4907008608868CB
:1091500020F0010088608868400605D400200F22B6
:10916000A4F85A000A6217E0886820F0400088607E
:10917000E06E40B10D49C163F9F74CFB98B1E06E68
:10918000C16B88470FE000200F22A4F85A000A6242
:109190008A6942F008028A616065202084F87200C2
:1091A0002046FFF7CBFF002010BD00BF99B10000A3
:1091B00010B504460068016821F0C00101608168B3
:1091C000090609D5816821F080018160A06E18B17F
:1091D0000021C163F9F701FB0020A4F85200202010
:1091E00084F87100002010BD7047000010B50446DF
:1091F0000068016821F0C0010160816809060ED590
:10920000816821F080018160A06E40B10A49C1638C
:10921000F9F700FB68B1A06EC16B884709E0002038
:10922000A4F852006066202084F871002046FFF701
:10923000DBFF002010BD00BF17B20000B0B5016811
:109240000446806E0A6822F4F0720A608A6822F08E
:1092500001028A6028B18A68234B120603EAE2728F
:10926000C263E26E2AB18B68204D5B0605EAE373A8
:10927000D3638A6812060AD58A6822F080028A605F
:1092800028B1F9F7C7FA002110B1A06EC16301211E
:109290002268906840060DD5906820F040009060EC
:1092A000E06E38B1F9F7B6FAD8B1E06E2268002165
:1092B000C16300E0A9B100200F21A4F85200A4F876
:1092C0005A0060671162916941F0080191612021A3
:1092D00084F87110C4E91800204684F87210FFF772
:1092E00005FF0020B0BD00BFE1B100005BB1000090
:1092F00090F87010012901D1022125E0012180F8A8
:10930000701090F87110212907D101688A6812063F
:1093100003D58A6822F080028A6090F872102229B0
:109320000FD101688A6852060BD50A6822F4807250
:109330000A608A6822F001028A608A6822F040028C
:109340008A60002180F870100846704790F870100D
:10935000012901D1022121E0012180F8701090F84B
:109360007110212904D101688A6842F080028A6064
:1093700090F8721022290ED1016808220A620A6848
:1093800042F480720A608A6842F001028A608A6848
:1093900042F040028A60002180F870100846704751
:1093A00010B5044690F87100212813D1216888680F
:1093B00000060FD5886820F080008860A06E10B18C
:1093C000F9F70BFA2168086820F0C0000860202037
:1093D00084F8710094F8720022280ED12068816808
:1093E00049060AD5816821F040018160E06E08B12C
:1093F000F9F7F3F9204601F017FF002010BDB0B5D2
:10940000B8B104462420002584F871002068016862
:1094100021F001010160056045608560204600F093
:1094200059F9656784F8715084F8705084F8725067
:1094300000E001252846B0BD2DE9F0410546682031
:10944000002B1646B3FA83F288461F464FF0800180
:1094500008BF6C202C585209002013035201C4E9A4
:109460000270C4E9041004F118010DC12046F9F797
:10947000F9F92046F9F794FAB2B22846414617B1F5
:1094800000F0BCFA01E000F097F90020BDE8F0819F
:1094900000B17047024803A140F2C52235F0AABCD2
:1094A0007975050048414C5F554152545F457272D1
:1094B0006F7243616C6C6261636B0000406F704758
:1094C00090F8711090F872000843C0B27047000025
:1094D000F8B504460068C1690268856801F02F0686
:1094E00002F02003202E08D13BB1216E002900F0AC
:1094F0008F802046BDE8F84008475FEA017C07D02E
:1095000005F0010612F4907F86F0010720D1FFB12B
:10951000CB020AD515F4800307D04FF48011016205
:109520002046BDE8F84000F0DDBA11400A0658D4E4
:1095300049066DD5016821F0400101600020606698
:10954000202084F871002046BDE8F84000F0C8BA39
:10955000CD0718BF12F4807505D001250562656F2F
:1095600045F00105656701F002054FF0010E8EEA36
:1095700055053D4305D102250562656F45F004059B
:10958000656701F004058EEA95053D4305D1042584
:109590000562656F45F002056567334318BF012317
:1095A000BCF1000F06D52BB108230362606F40F0B9
:1095B00008006067606F58B302EA0100800603D5B7
:1095C000216E09B120468847606F00070BD42068E0
:1095D0008068400607D42046FFF75AFF00206067E6
:1095E00016E0616E82E7204601F01EFE2068816869
:1095F00049060ED5816821F040018160E06E40B1DE
:109600000649C163F9F706F910B1E06EC16B71E765
:10961000F8BD2046BDE8F840FFF73ABFC1B00000F2
:10962000002851D0B0B5044690F8710028B9002048
:1096300084F87000204600F04EF8242084F8710071
:109640002068016821F001010160204601F052FE0E
:10965000606A10B1204601F0D3FCD4E9001040F25A
:109660002A331A4D4A6822F49042A8424A608A6816
:1096700022EA03028A600A6842F001020A600A686C
:1096800022F4804388BF42F480434FF006020B600F
:1096900088BF0222CB6AA84223F00D0342EA0302EC
:1096A000CA620B4A84BF4DF60002C0F2B852B2FB48
:1096B000F0F0C86000202021606784F8711084F801
:1096C000700084F87210B0BD01207047C0C62D0034
:1096D000006CDC02704770472DE9FC41044690F8AD
:1096E000720020280AD10E46012000295ED01746BC
:1096F000002A5BD094F87000012802D10220BDE856
:10970000FC8100201D466067012084F87000222043
:1097100084F87200FBF723FBA4F85A708046A4F883
:109720005870A068B0F1006F0AD0B0F1805F0BD024
:10973000B0F1C05F0CD1206968B940F2FF170BE0AF
:10974000206918B13F2707E0206920B17F2703E097
:10975000B4F85C7002E0FF27A4F85C70B4F85A001B
:10976000F0B12046202100224346009501F022FE60
:10977000F0B9A068B0F1C05F01D1206950B1206894
:10978000406A384006F8010BB4F85A000138A4F8D2
:109790005A00E3E72068406A384026F8020BF3E7F6
:1097A0000020202184F8700084F87210BDE8FC814C
:1097B0000320BDE8FC810000F8B5054690F8720072
:1097C000202807D113460A4631B12BB195F8700015
:1097D000012803D1022429E0012427E000240120EC
:1097E000144EDFF888C2124F6C6785F87000222093
:1097F000A5F858306A6585F872002968E86E00F1AE
:10980000300E24318EE8C010C463F9F7F9F92868E6
:10981000016841F480710160816841F0010181605B
:1098200085F87040816841F0400181602046F8BDB4
:1098300093B1000027B1000090F87230202B06D1C0
:10984000012329B122B190F87030012B02D10223FB
:1098500018467047A0F85A2041650121A0F8582009
:1098600080F87010002101668168B1F1006F0AD0A4
:10987000B1F1805F0BD0B1F1C05F0FD1026952B975
:1098800040F2FF1208E002691AB13F2204E00269C7
:109890000AB17F2200E0FF22A0F85C200022B1F193
:1098A000C05F42674FF0220280F87220026893681E
:1098B00043F00103936001D1016949B106490023D6
:1098C000016680F87030106840F490701060BFE757
:1098D0000049F4E747B2000099B20000AFF30080FE
:1098E00070B5044628B9104810A140F2C11235F0F5
:1098F00081FAF6F7BBFFE16FD4F86821D4F8C850BD
:109900004968C2F38F22561AC4F8C860F6F7B2FF4E
:10991000711B08BF70BD090204F590700331BDE8EA
:10992000704037F091BC00BF7975050048414C5F2D
:10993000554152545F527848616C6643706C744371
:10994000616C6C6261636B002DE9F843044690F82A
:109950007100202808D10E46012731B1154622B1E9
:1099600094F87000012803D102273846BDE8F88337
:10997000002099466067012084F87000212084F857
:109980007100FBF7ECF98046A4F85250A4F850504F
:10999000B4F85200F8B12046802100224346CDF8A9
:1099A000009001F007FD00BBA068B0F1C05F01D1DD
:1099B000206948B116F8010B21688862B4F852009A
:1099C0000138A4F85200E3E736F8021B20686FF371
:1099D0005F218162F2E72046402100224346CDF814
:1099E0000090002701F0E6FC08B10327BDE7202026
:1099F00084F8707084F87100B7E70000F8B5054688
:109A000090F87100202806D139B113462AB195F893
:109A10007000012803D1022425E0012423E0002462
:109A2000A5F852300120134EDFF840C0104F6C678C
:109A300085F87000A5F85030E964A86E2A6800F136
:109A4000300E28328EE8C0102126C46385F871607C
:109A5000F9F7D6F828684021016285F870408168DE
:109A600041F0800181602046F8BD00BFD1B0000008
:109A700011B20000B9B1000090F87130202B06D16E
:109A8000012329B122B190F87030012B02D10223B9
:109A9000184670470023A0F852204367C164012193
:109AA000A0F85020436680F87010212180F87110D2
:109AB0008168B1F1C05F01D1016909B1074900E0D6
:109AC00005490023416680F870300068016841F064
:109AD00080010160DCE700BF3DB300007BB3000004
:109AE0007047704770470000B0B5E8B104460068A1
:109AF00008B90E4820603421C160D4E90112016028
:109B000076214260C160FBF72AF90546206840696A
:109B1000800744BF0020B0BDFBF721F9401B31286E
:109B200024BF0320B0BDF1E70120B0BD00500540C7
:109B300000687621C16000207047000080B538F0D1
:109B40005FFB04480430FDF75FFCBDE8804038F05F
:109B50006FBB00BF9846122080B538F051FB164805
:109B6000D0F8A0301BB17830002100229847BDE822
:109B7000804038F05DBB00BF80B538F041FB0E4837
:109B8000D0F8FC3123B100F5EA700021002298479B
:109B9000BDE8804038F04CBB80B538F031FB06485A
:109BA000D0F8583323B100F54C70002100229847BB
:109BB000BDE8804038F03CBBF86C122070470000D4
:109BC000F8B5C46A2168486820F040004860E08B1E
:109BD00078B1A08BA26910310244A261E08BFF280A
:109BE00094BFE38BFF23206BA383F9F709F830B30D
:109BF000F8BDFBF7B4F80546009020464FF400513D
:109C000000224FF47A734FF40057002600F0FFF95A
:109C10002068042101226423C7604160204604219A
:109C2000009500F0F4F9964866622062202084F8DE
:109C30003700A66284F8346084F83860F8BD206884
:109C4000816841F012018160F8BD00BFF8B5C46AB7
:109C50002268506820F020005060E08B78B1A08B23
:109C6000A16910320144A161E08BFF2894BFE38B0E
:109C7000FF23E06AA383F8F7C3FF30B3F8BDFBF717
:109C80006EF80546009020464FF4005100224FF434
:109C90007A734FF40057002600F0B9F920680421C8
:109CA00001226423C760416020460421009500F032
:109CB000AEF9734866622062202084F83700A662FD
:109CC00084F8346084F83860F8BD2068816841F019
:109CD00012018160F8BD00BF2DE9F8430546006818
:109CE0000C4690461E462969C268012942F042028C
:109CF000C260826822F0400282600ED161000327B8
:109D00000131016147602846402100224346009608
:109D100000F07DF918BB002721E00621032700226F
:109D2000434601EAD41909F1F00101614760284670
:109D30004021009600F06BF988B92868002243465C
:109D4000C16841F04201C160E1B20161012141609D
:109D500028464021009600F05AF9032710B13846F2
:109D6000BDE8F8832868C16841F04201C16049F04C
:109D7000F101C6E72DE9FC41044600680D46904616
:109D80001E462169C268012942F04202C26082680F
:109D900022F0400282600CD1690003270022434672
:109DA0000161476020464021009600F030F930BB49
:109DB00021E0062103270022434601EAD511F031B4
:109DC0000161476020464021009600F020F9B0B9BB
:109DD000206800224346C16841F04201C160E9B2F7
:109DE00001610121416020464021009600F00FF9F9
:109DF00008B1032703E02068C068C0F34007384675
:109E0000BDE8FC8110B590F83410012901D1022180
:109E100034E0012180F834100168CB689C071CD421
:109E20001A40540626D4D20425D500225B05144CD2
:109E300042628262046203D5C36B43F00403C363CE
:109E40008B6823F0C0038B60C16B202180F8371032
:109E500080F8342080F838200DE0CA6842F0020211
:109E6000CA60C26B42F00402C2638A6842F0120206
:109E70008A6000E0C18B002180F83410084610BDD4
:109E80000000FFFF10B590F83410012901D1022124
:109E90002AE0012180F834100168CA685305CA60BD
:109EA0001CD412F0C00F1CD090F83720222A1DD1EC
:109EB000826909691170C18B0139C18381690131DE
:109EC0008161818B01398183C18B39B30168C28B78
:109ED000012A14BF01220D224A6002E0E02180F82D
:109EE0003710002180F83410084610BD90F8372054
:109EF000212AF6D1C28B8AB18269012412F8013B72
:109F00000B61C38B012B08BF05244C608261818BE0
:109F100001398183C18B0139C183E2E72021DEE76A
:109F20002DE9FC41044600684900DDF82080099EC7
:109F30001F46154600220161032143464160204629
:109F40004021009600F063F808B101271EE0012FC0
:109F50000CD02068290A012700224346016147608E
:109F600020464021009600F052F878B92068E9B206
:109F700000224346016101214160204640210096B4
:109F800000F045F80746002818BF01273846BDE80D
:109F9000FC812DE9FC41044600684900DDF8208081
:109FA000099D1F4616460022016103214346416078
:109FB00020464021009500F02AF808B1012723E04F
:109FC000012F04D12068F1B2016104300FE0206854
:109FD000310A0127002243460161476020464021A3
:109FE000009500F014F878B92068F1B201610521FC
:109FF00000224346016020464021009500F007F80A
:10A000000746002818BF01273846BDE8FC812DE926
:10A01000F843DDF820801D4616460F4681465C1C3D
:10A02000D9F80000C0683840C01BB0FA80F0400981
:10A03000B0421CBF0020BDE8F883002CF0D0FAF736
:10A040008EFE1DB1A0EB0800A842E9D9D9F83C006A
:10A0500040F02000C9F83C00202089F8370000209B
:10A0600089F8340089F838000120BDE8F883C06A17
:10A070000168D1F8802422F00302C1F88024002175
:10A0800081634164012180F85110416D41F0080164
:10A090004165FBF707BF0168C06A096889060ED4ED
:10A0A0000168D1F8802422F00102C1F88024002147
:10A0B000416490F8511001F0F70180F85110FCF75D
:10A0C00004B9C06AFCF702B90168C06A0968890668
:10A0D0000ED40168D1F8802422F00202C1F8802455
:10A0E0000021816390F8511001F0FB0180F85110BC
:10A0F000FCF74CBAC06AFCF74ABA2DE9F0411546A4
:10A100000E460446FAF72BFE80466F1C2068D0F8F6
:10A1100000063040B04204BF0020BDE8F081002FAF
:10A12000F4D02DB1FAF71BFEA0EB0800A842EDD940
:10A13000012084F85100002084F850000320BDE87D
:10A14000F0810000B0B50C4D0446294633F0FDFC0B
:10A1500030B904F12C0005F12C0133F0F6FC08B104
:10A160000020B0BD04F1580005F1580133F0EDFCBA
:10A17000B0FA80F04009B0BD182F050010B50446B4
:10A18000012084F80001D4F8EC1009B1204688477A
:10A190002046BDE81040FCF7B4BC000080B538F0A4
:10A1A0002FF80A486030FCF76DFEBDE8804038F0BB
:10A1B0003FB800BF80B538F023F80448FC30FCF706
:10A1C00061FEBDE8804038F033B800BFC4491220BA
:10A1D00070B51446054608200022002809D455F819
:10A1E00020300026E3FB012644F8202001383246C7
:10A1F000F3E7204640F046FBA86AA0622046BDE88F
:10A20000704045F059BD00002DE9F04F9FB00DF1B1
:10A210002C0A89468346502190465046F6F7D8FCD2
:10A2200009F120000AF144010822B2F1FF3F13DDD9
:10A230005BF822300024002714F1080509D451F8F6
:10A24000245050F82460E6FB635741F82450013C49
:10A25000F2E70439013AE8E70022122A04D05AF85A
:10A26000220008B90132F8E7D9F82800DBF82810F5
:10A27000C2F1120300261D930C1A18BF01241E946C
:10A280005AF82610701C082E02D800290646F7D06E
:10A29000082B0A9415D8471E0A2A15D1204C0AF11A
:10A2A00028020023082B0CD004EB830652F823501D
:10A2B0000133B66AAE42F5D003D305E05AF8201058
:10A2C00001300029FAD0471E6E460AEB870124228E
:10A2D0003046F6F756FC304640F0D4FA07F1090450
:10A2E000371D304645F0E8FC112C0CD83046394675
:10A2F0002022F6F746FC5AF824000890304640F039
:10A30000C1FA0134EDE7694640462422F6F739FCEC
:10A31000DDE90901C8E909011FB0BDE8F08F00BF00
:10A32000709D0500B0B500224442451E4FF0FF333A
:10A330008A620C62C1E90054C1E902024FF00900CF
:10A34000C1E90425C1E9063308BF08204862B0BD51
:10A3500000F00F01000900EB800001EB4000C0B2EB
:10A36000704701460A22092898BF0921B1FBF2F281
:10A3700002EB8203A1EB4303591A084440EA02109E
:10A38000C0B27047B0B504460068C16841F480614E
:10A39000C160FAF7E4FC05462068C068800505D472
:10A3A000FAF7DDFC401BB0F57A7FF5D90020B0BD8F
:10A3B00080B537F025FFFDF7D3FDBDE8804037F0CD
:10A3C00037BF000080B537F01BFF0948FEF74CF897
:10A3D000BDE8804037F02CBF80B537F011FF04484E
:10A3E00000F5B270FEF740F8BDE8804037F020BFBE
:10A3F000108812200168C26A0B6922F8023B438E62
:10A40000013B4386C262428E2AB98A6822F0040266
:10A410008A60418D01B1704700F0D0B80168097CB5
:10A42000C26A531CC3621170418E01394186418E4C
:10A4300031B901688A6822F047028A60418D01B112
:10A44000704700F0BBB8426A016832F8023B0B610A
:10A45000438D013B43854262428D9AB98A6822F05E
:10A4600008028A60428E5AB14A695204FAD5C26A19
:10A470000B6922F8023BC262428E013A4286F1E742
:10A48000428E02B170478A6822F047028A6000F06B
:10A4900095B8426A0168531C436212780A74418D70
:10A4A00001394185418D31B901688A6822F008027D
:10A4B0008A60418E01B1704700F080B81CB5044637
:10A4C0000068016821F001010160012194F8480051
:10A4D000FDF758FB45F6C051B0FBF1F0642148434D
:10A4E00001902068816821F04F01816001994A1E26
:10A4F000019219B181684907F8D403E0E06C40F09B
:10A500004000E064FAF72BFC02462046642100F08C
:10A5100055FA08B14020E064FAF721FC009020468B
:10A520004FF47C214FF47822642300F001FA08B143
:10A530004020E064072084F84A001CBD1CB5044696
:10A5400090F848000121FDF71DFB45F6C051B0FB16
:10A55000F1F06421484301902068816821F04F01A7
:10A56000816001994A1E019219B181680907F8D4E6
:10A5700003E0E06C40F04000E064FAF7F0FB0246D4
:10A580002046642100F056F908B14020E0642068BC
:10A59000016821F001010160FAF7E1FB009020461B
:10A5A0004FF47C214FF47822642300F0C1F908B104
:10A5B0004020E064072084F84A001CBD10B5044622
:10A5C000FAF7CDFB02462068816821F043018160E3
:10A5D0002046642100F02EF918B1E06C40F0200014
:10A5E000E064E06C38B1012084F84A002046BDE800
:10A5F0001040FDF71FBF94F84A00012184F84A106B
:10A6000004282046BDE8104008BFFEF737B9FEF722
:10A6100051BC10B504460068816821F04701816093
:10A62000FAF79DFB02462046642100F0D5F818B1E8
:10A63000E06C40F02000E064012084F84A00E06C07
:10A6400000282046BDE8104018BFFDF7F3BEFEF716
:10A6500015B91CB50446FAF782FB024620688168EA
:10A6600021F04B0181602046642100F0E3F818B12D
:10A67000E06C40F02000E064A068032807D10020CF
:10A6800001902068016901914069019001980120C1
:10A6900084F84A00E06C00282046BDE81C4008BF52
:10A6A000FEF706BCFDF7C6BEC06AC16C41F01001E2
:10A6B000C164012180F84A10FDF7BCBEC06AFEF7F4
:10A6C000DEB8C06AFEF7F5BBC06AFEF7F4BBB0B5F2
:10A6D000C46A0546FAF743FB02462868006880060C
:10A6E00017D42068816821F04301816020466421ED
:10A6F00000F072F808B12020E0640020608601209C
:10A7000084F84A00E06C20B12046BDE8B040FDF777
:10A7100091BE2046BDE8B040FEF7B0B8BCB5C46AF3
:10A720000546FAF71CFB024628680068800624D418
:10A730002068816821F0430181602046642100F097
:10A7400079F818B1E06C40F02000E064A0680328BC
:10A7500007D10020019020680169019140690190B2
:10A76000019800206085012084F84A00E06C20B147
:10A770002046BDE8BC40FDF75DBE2046BDE8BC40BC
:10A78000FEF796BBB0B5C46A0546FAF7E8FA02468A
:10A790002868006880061AD42068816821F0430187
:10A7A00081602046642100F045F818B1E06C40F06B
:10A7B0002000E064002060856086012084F84A0063
:10A7C000E06C20B12046BDE8B040FDF733BE204626
:10A7D000BDE8B040FEF76EBB7CB504464068164647
:10A7E0000D4640B9A0680138012804D820680168E6
:10A7F00021F00101016020462946324600F0DEF8D2
:10A8000028B1E06C40F02000E06403207CBD60686B
:10A8100070B9A068013801280AD820464FF47C217D
:10A820004FF478222B46009600F082F80028E8D1F9
:10A8300000207CBD7CB50D46164600924FF47C612D
:10A84000402204462B4600F073F878B9204629468A
:10A85000324600F0B3F848B920464FF47C214FF45B
:10A8600078222B46009600F063F828B1E06C40F0A7
:10A870002000E06403207CBD00207CBD0168C26A2A
:10A880000B6922F8023B438E013B4386C262438E32
:10A89000082B0CD8438E53B14B695B04FAD50B6976
:10A8A00022F8023BC262438E013B4386F2E7418EAF
:10A8B00001B17047FFF7ADBE0168097CC26A531C45
:10A8C000C3621170418E01394186418E10290ED824
:10A8D000418E61B101684A695204F9D5097CC26AA6
:10A8E000531CC3621170418E01394186F0E7418EDD
:10A8F00001B17047FFF78DBE426A016832F8023B32
:10A900000B61418D013941854262418D01B1704732
:10A91000FFF79FBE426A0168531C436212780A74B3
:10A92000418D01394185418D01B17047FFF791BEDD
:10A930002DE9FC470F46804682F4782081F47C2183
:10A94000DDF828909A4616465D1C0843B0FA80F060
:10A950004409D8F8000041693940B14204BF0020E1
:10A96000BDE8FC8724B1017C8DF807109DF8071025
:10A97000002DEED0BAF1000F07D0FAF7F0F9A0EBF6
:10A9800009005045E5D3D8F80000816821F04F0157
:10A990008160D8F8041041B9D8F8081001390129AC
:10A9A00003D8016821F001010160002088F8490006
:10A9B000012088F84A000320BDE8FC87F8B5154659
:10A9C0000E4604464F1C20684169C90704BF002099
:10A9D000F8BD002FF7D02EB1FAF7C1F9401BB042F5
:10A9E000F1D32068816821F04F018160616839B935
:10A9F000A1680139012903D8016821F00101016032
:10AA0000002084F84900012084F84A000320F8BDA2
:10AA10002DE9F8430446B0F8C000B4F8C410081A91
:10AA2000471C0020B0EB972F1CBF0120BDE8F88326
:10AA3000B4F8F650B4F8FA60B4F8C280B4F8C6902E
:10AA4000204600F013FD94F800110220012940F087
:10AA5000BD8084F80001B4F8F630B4F8F4C0216881
:10AA60004CEA034008612079B4F8F8200C2807D19B
:10AA7000751B4FF4803603EB450506EB054502E0F8
:10AA8000B4F8FA502D0415434D6194F8BC50013DC3
:10AA9000EEB2052E8FBF00256DB24DA656F825509B
:10AAA000CE697D430C286FF3593646EA4535CD61B2
:10AAB000B4F8C250B4F8C06046EA05460E62B4F875
:10AAC000C46070D1A9EB080005EB400046EA0040E5
:10AAD00000F580304862D4F8B800C86200200863EE
:10AAE000E08AB4F8FA50278AB4F81AE0B4F818806B
:10AAF000034405443A4440445E040132704446EA4B
:10AB000045060136C1F8B460022606EB45054FF054
:10AB1000FF3606EB520245EA4343354D05EB004054
:10AB200043F48033C1F8DC3007EB0C0305EAC33390
:10AB30001A43C1F8B820CA6942F00062CA61D1F86C
:10AB4000CC2092B2C1F8CC20D1F8CC201043C1F86F
:10AB5000CC00D1F8D400C00007D5D1F8D4008000D3
:10AB6000FBD5D1F8D4008000FBD4D1F8CC0040F064
:10AB70001000C1F8CC002320F8F7B2F82068D0F814
:10AB8000CC1041F00101C0F8CC100120F8F7A8F872
:10AB90001548164901602068C16841F01001C16084
:10ABA0000020BDE8F883B4F8C600104B46EA004028
:10ABB0004862D4F8B800C86200200863CA6842F04E
:10ABC0000102CA60084A136001220A60BDE8F883E6
:10ABD000010000000200000000000000030000006F
:10ABE0000400000003000000AC6312207DA10000FF
:10ABF0000000FFFF2DE9F041B2B3054600790C4695
:10AC00001646C11E052913D8284600F02FFC2968D6
:10AC10004FF4400000EB8650CA6F3FFA80F022F0FC
:10AC2000F8721044C86702204C670867BDE8F081DD
:10AC3000092819D8012101FA00F040F20321084245
:10AC400012D06FF007004FF0020800EBC60728464D
:10AC500000F00CFC24FA07F02968083F013EC0B25E
:10AC60004867C1F87080F2D1BDE8F081F0B5944634
:10AC7000002308240025002C14D451F8247050F827
:10AC800024607A19B21A4CF824207A19A4F101042C
:10AC900043F10005B21A73EB05024FF0000538BF0F
:10ACA0000125E8E76046BDE8F0403FF0EBBD00005D
:10ACB00070B506460D46886A1446B16A41B170B156
:10ACC000284631461FF0C8FE78B12846314616E0C6
:10ACD00070B1304629462246F6F744FD12E0304670
:10ACE00029462246F6F73EFD1FE03046294619E088
:10ACF000304629461FF0B0FE90B130462946224624
:10AD0000FFF7B4FF00200C49A06220461FF0A4FE0C
:10AD100028B109492046BDE8704000F037B870BD41
:10AD2000284631462246FFF7A1FF0120A0622046B7
:10AD3000BDE87040F6F74CBDD02C0500F0B58BB0E7
:10AD40000E46054610462C211446F5F741FF286AA9
:10AD5000B0420DD26F462C213846F5F739FF01205D
:10AD600039462246089609902846FFF7A1FF0BE0D6
:10AD7000204629462422F5F704FFD5E90901C4E954
:10AD80000901286A801B20620BB0F0BDF0B50022DB
:10AD900008230024002B15D451F8236050F82350C9
:10ADA0003719A41942F100062C1BA5EB070772EB1B
:10ADB000060440F82370A3F101034FF0000438BFEC
:10ADC0000124E7E7BDE8F0403FF05CBD70B58CB012
:10ADD00004460D46886AA16AB1B1B0B12846214641
:10ADE0001FF03AFEE8B101AE284621463246FFF791
:10ADF0003DFF204631462422F5F7C3FE00200A9984
:10AE00006162A0620CB070BD30B1204629460CB022
:10AE1000BDE87040F6F78CBC204629461FF01CFEAA
:10AE200030B1204629460CB0BDE87040FFF7AEBFF8
:10AE300001AE284621463246FFF718FF204631462C
:10AE40002422F5F79EFE0120D9E780B537F0D8F926
:10AE5000FBF79EFB3DF06CF9BDE8804037F0E8B9A8
:10AE6000704700003448354901607047F8B531F04B
:10AE7000CBFE2E48C168890312D4BFF34F8F002147
:10AE8000BFF36F8FC0F84812BFF34F8FBFF36F8FC0
:10AE9000C16841F40031C160BFF34F8FBFF36F8FC2
:10AEA000C168C90326D4002143F6E07CC167BFF323
:10AEB0004F8F826FC2F34E31C2F3C9039A07013339
:10AEC0000CEA411516461F4646EA050406F14046BF
:10AED000013FC0F85842F7D14C1E00292146EFD15E
:10AEE000BFF34F8FC16841F48031C160BFF34F8F12
:10AEF000BFF36F8F0E490160D0F8801041F003015D
:10AF0000C0F88010D0F8801041F47001C0F88010B3
:10AF10001FF036F907480068C00708BF0BF090FC27
:10AF200000F012F8044805490160F8BD08ED00E0A2
:10AF300064A0050000B000400841122040787D0167
:10AF400029480078704700BFB0B526480168026CF8
:10AF500022F00102026401F0030023490338B0FA31
:10AF600080F04FEA501008703AD1FBF719FBF5F763
:10AF70007DFCFFF775FF36F015FCF5F7C5FC1B4AA5
:10AF80000121506C80F31088D06C80F31188906C94
:10AF900080F31388106D80F31488906D80F3098816
:10AFA000D06D80F30B88506D80F30888106E80F3AD
:10AFB0000A880F480160D2E90F34956D84F3008848
:10AFC00084F3008485F30988194602B4114601C947
:10AFD00001B40846B0E8FE1FD0F804E001BC00BD93
:10AFE000B0BD00BF0000074084F71220F47F12209C
:10AFF00000E100E0C06A012180F83610FDF780BF53
:10B0000010B5416ACA0706D00268836A546824F4FE
:10B010000034234353608A0706D50268C36A546824
:10B0200024F48034234353604A0706D50268036B37
:10B03000546824F48024234353600A0706D5026829
:10B04000436B546824F4004423435360CA0606D576
:10B050000268836B946824F48054234393608A06C7
:10B0600006D50268C36B946824F4005423439360AC
:10B070004A0610D50268036C5468B3F5801F24F4A7
:10B08000801444EA0304546005D1436C546824F4EA
:10B09000C00423435360090606D50168806C4A68E2
:10B0A00022F400221043486010BD00212022416795
:10B0B00080F8712080F8701080F8722000207047AE
:10B0C000C06A0021A0F85A10A0F85210FEF7E0B9AB
:10B0D00010B5C46A94F8710021280DD120688168E8
:10B0E000090609D50021A4F85210016821F0C00119
:10B0F0000160202084F8710094F87200222809D1A0
:10B1000020688068400605D50020A4F85A00204633
:10B1100000F08AF8606F40F0100060672046BDE8DC
:10B120001040FEF7B5B90168C06A0968890612D4F3
:10B130000021A0F85A1001680A6822F480720A609F
:10B140008A6822F001028A608A6822F040028A60DE
:10B15000202180F87210FEF7C1BBC06A0021D0E93F
:10B160001A23D96312B1D26B02B17047A0F8521002
:10B17000A0F85A1041670F2201680A628A6942F0FA
:10B1800008028A61202180F8711080F87210FDF7A2
:10B19000ADBFC06AFEF7A4BBC06A00210F22A0F8B1
:10B1A0005A1001680A628A6942F008028A61202105
:10B1B00080F87210FDF7C2BF0168C06A096889068D
:10B1C00048BFFEF78DBC0021A0F8521000688168CE
:10B1D00021F080018160016841F040010160704709
:10B1E000C06A0021D0E91A32D96312B1D26B02B120
:10B1F0007047A0F85210A0F85A1041670F2201685A
:10B200000A62202180F8711080F87210FDF76EBF7D
:10B21000C06AFEF766BCC06A0021A0F85210202167
:10B2200080F87110FDF7E0BF01680A6822F490729F
:10B230000A608A6822F001028A60002101662021EA
:10B2400080F8721070470168B0F85C2090F8723096
:10B25000222B0DD14B6A1A40436D23F8022B436514
:10B26000B0F85A20013AA0F85A20120405D07047CD
:10B27000886940F00800886170470A6822F490727B
:10B280000A608A6822F001028A600021016620219A
:10B2900080F87210FEF722BB10B50168B0F85C2090
:10B2A00090F87230222B0DD1436D5C1C4465496AC5
:10B2B00011401970B0F85A100139A0F85A10090459
:10B2C00005D010BD886940F00800886110BD016894
:10B2D0000A6822F490720A608A6822F001028A6089
:10B2E00000210166202180F87210BDE81040FEF7B1
:10B2F000F5BA000070B5016800F108040E4E1CCCD0
:10B300000D682243C46935404669324322432A43CB
:10B310000A604A6822F440521A434A600022C0E997
:10B3200018228269006A10438A6822F4306210434E
:10B330008860002070BD00BFF3B9FFE790F871107E
:10B3400021290FD1B0F8521069B1C26C016832F8EE
:10B35000023B6FF35F238B62C264B0F85210013975
:10B36000A0F8521070470068016821F08001016068
:10B37000016841F040010160704790F87110212987
:10B380000DD1B0F8521059B1C26C0168531CC3649E
:10B3900012788A62B0F852100139A0F85210704742
:10B3A0000068016821F080010160016841F04001FE
:10B3B000016070472DE9F843DDF820909846164665
:10B3C0000F46044609F101052068C1693940C91BCF
:10B3D000B1FA81F14909B1421CBF0020BDE8F883F0
:10B3E000002DF1D0B9F1000F06D0F9F7B8FCA0EBB1
:10B3F00008004845E8D92068016821F4D07101604F
:10B40000816821F0010181602020002184F8710011
:10B4100084F8701084F872000320BDE8F8830000FF
:10B4200080B536F0EDFE104800F5907045F07EF9DD
:10B43000BDE8804036F0FCBE80B536F0E1FE0A483B
:10B4400000F5257045F072F9BDE8804036F0F0BE99
:10B4500080B536F0D5FE044800F5816045F066F908
:10B46000BDE8804036F0E4BE5C951220006841687B
:10B47000C907FCD1016F090758BF7047F7E7FEE71E
:10B4800000280CD400F01F010122400902FA01F14A
:10B49000134A42F82010BFF34F8FBFF36F8F7047EE
:10B4A00000280CD400F01F010122400902FA01F12A
:10B4B0000B4A42F82010BFF34F8FBFF36F8F7047D6
:10B4C00000280CD400F01F010122400902FA01F10A
:10B4D000034A42F82010BFF34F8FBFF36F8F7047BE
:10B4E00080E100E0002808D400F01F01012240099B
:10B4F00002FA01F1074A42F820107047002808D4E8
:10B5000000F01F010122400902FA01F1014A42F84C
:10B510002010704700E100E010B500F00F03064C6A
:10B52000044AB0F1FF3F2344C8BF83184801187094
:10B5300010BD00BF00E400E014ED00E0BFF34F8F4A
:10B540000548064A016801F4E06111430160BFF358
:10B550004F8F00BFFDE700BF0CED00E00400FA05CF
:10B56000FEE7000018B1C1B219B101200EE00020C1
:10B57000704710F47F4102D0090A092006E010F458
:10B580007F0107BF010E1920090C1120014A515CEF
:10B5900008447047442905000020704710B5044650
:10B5A00028B9054902201FF09BFF0CF053FE2046EE
:10B5B000BDE810400CF0F0BEE428050070B504466C
:10B5C000F5F754F904F11406054630463CF0FEFF49
:10B5D00030463CF0C7FE208A20F002002082284638
:10B5E000F5F748F9606C2146BDE8704006F01EBDD5
:10B5F00010B51FF0CBFC1C486FF0FC111D4C4FF434
:10B600008B520160194848F2AC31016018490020A2
:10B61000A0471949012040F60C42A04717490220D3
:10B6200042F69042A047164903204FF42772A047E4
:10B63000144C20680168012088470146012017F05A
:10B6400095F920680168002088470146002017F01E
:10B650008DF907F01BFA07F029FA07F0F9FEBDE8AB
:10B660001040FCF777BB00BF14F0044050000550B9
:10B6700088AD122081B10200E8BE1220F4CA122067
:10B68000B48312200449122070B50C4601460020F4
:10B69000B0EB913F22D140F6FE72114005291DD832
:10B6A000FB2C84BF002070BD0AF092FE10B10C4943
:10B6B000084370BDC04800211A22012301260568F5
:10B6C00041F20310A84707490670096888472046D9
:10B6D00002211FF08FFCB64981F82E6070BD00BFBB
:10B6E0000000132030411220F8B5B14F0446164631
:10B6F00097F82E0030B130461FF00AFB002087F883
:10B700002E00F8BD40F6FE700D4604EA00071FF05B
:10B71000CDF930B101201FF0D1F91FF0C7F9002891
:10B72000FBD1052F13D8A448002208230768200264
:10B73000013081B241F20610B8470A4945800480C1
:10B7400031444160DA490968BDE8F8400847964A43
:10B750002846214640F2647301B0BDE8F0403DF058
:10B7600053BC00BF0000EDDF10B502469248002137
:10B770000023046841F20510A04702490968BDE8AA
:10B78000104008472C4112202DE9FE4F9246894671
:10B7900004461DF00BFE09F10405834602212846EC
:10B7A0001FF028FC074628B97F497AA040F2C6520C
:10B7B0003DF00CFC200A012651464A4687F80390CA
:10B7C0007C70B870381D3E70F5F7DBF961203946A2
:10B7D0002A460CF095FD38461FF09AFA1FF066F9DC
:10B7E00030B101201FF06AF91FF060F90028FBD189
:10B7F0006E486F49067091F82D0080281ABF0138F5
:10B8000081F82D008020BBF1000F23D040B200282A
:10B8100024D49BF8021001F00F0008282CD84FF018
:10B820000008DFE800F03405340529292929320011
:10B83000B9F1020F1BD3BAF80000052817D85D4AEA
:10B840000244127E9AB10002002200F10108ADF814
:10B850000A2022E000202146012202E0584621462B
:10B860000722002303B0BDE8F04F18F013B8584684
:10B87000214602225346F5E74B4A214640F26263D5
:10B8800003B0BDE8F04F3DF0BFBB4FF00208002011
:10B89000B9F1000FADF80A000ED0DBF80450B5B1D5
:10B8A000480620D40DF10A02002051464B4600956F
:10B8B0000CF0ACF905461DE03F4841462246002306
:10B8C0000025066841F20510B04780462BE03A4853
:10B8D0001FFA88F122460023056841F20510A847A7
:10B8E0008046042518E00DF10A02002051464B461F
:10B8F000A847C5B2012D03D15846214612222CE09B
:10B900002D48BDF80A301FFA88F12246066841F238
:10B910000510B0478046D5B3234A2846214640F259
:10B920008E633DF071FBB8F1000F13D0BDF80A0033
:10B93000F8B1DBF80460E6B19BF80200400611D4D0
:10B940000DF10A02404651464B4600960CF05EF956
:10B9500005460EE0584621460722002317F09AFFBD
:10B96000BDE8FE8F0DF10A02404651464B46B047F6
:10B97000C5B235B10C4A2846214640F2A6633DF0D7
:10B9800043FBBF48016840468847BDE8FE8F00255D
:10B99000C9E700BF4E554C4C20213D206834746CE3
:10B9A0005F646174610000006B7D0500684C1220CB
:10B9B000C06C1220704C122000411220B0B5044619
:10B9C00010B9AC4800210170AA4D1E2105F10800F4
:10B9D000F5F7FEF80848032118F038FC00201F2175
:10B9E000C5F81900E861204629761EF0A1F8BDE8E7
:10B9F000B04018F0A3BC00BFDC440500B0B505465C
:10BA0000A0F10C049B48007830B1E0489B4940F21B
:10BA1000A1423DF0DBFA45E01FF048F830B10120CB
:10BA20001FF04CF81FF042F80028FBD135F8080C45
:10BA300041F20611884219D041F20511884228D1FD
:10BA400035F8021C35F8040C2A460CF005FE35F8D2
:10BA5000040C1DF0ABFCE0B1807800F00F0103296D
:10BA600017D80020DFE801F00802080235F8061CAC
:10BA7000052907D80802013025F8060C804801681E
:10BA8000284612E035F8080C7C4A40F279433DF034
:10BA9000BBFA35F8041C35F8080C784A40F2974395
:10BAA0003DF0B2FA744801682046BDE8B04008474E
:10BAB0000441122070B5044630F8080C41F204111C
:10BAC000A4F10C05884210D041F2031188422ED116
:10BAD00014F8041C3F2909D9582928D8C031654BCE
:10BAE000C1F3C4021A44127C17E03E2101F1FF02A7
:10BAF00001263E2902F0070306FA03F3C2F3C40647
:10BB00005C4A1644367A03EA06030DD163B1217804
:10BB10000139CBB202EBD302127E01F0070122FA07
:10BB200001F1C90703D19EE0002B00F09C80514930
:10BB3000097821B12846BDE870401EF00FB841F2E7
:10BB40000111411A042006293ED8DFE801F004045F
:10BB50000D123D30160034F8040CD8B31DF026FC4D
:10BB600088B3807800090DE014F8040C1DF044FC43
:10BB700006E020781DF052FC02E020781DF034FC35
:10BB800008B3407810F0030024D002280FD0012819
:10BB90001AD134F8061C05294DD8084610F0E0FDEE
:10BBA0000102FF2801F1080108BF082113E034F861
:10BBB000061C052922D8084610F0D2FDFF2840D0E7
:10BBC0000002011D07E0042034F8081C2B4A4FF442
:10BBD00078733DE0072134F8080C24F8061C41F284
:10BBE0000111401A032822D8DFE800F0020E141ACF
:10BBF00034F8022C34F8041C262015E034F8080C24
:10BC00001E4A40F2BD3323E034F8022C34F8041C01
:10BC1000252009E034F8022C34F8041C272003E026
:10BC200034F8022C2178282023460CF02FFD1448EC
:10BC3000016820461AE034F8080C104A40F2A53397
:10BC400006E034F8061C34F8080C0C4A4FF46E7306
:10BC50003DF0DAF934F8041C34F8080C074A40F2D5
:10BC600013433DF0D1F9044801682846BDE870400F
:10BC7000084700BF684C12204C411220CC790500C7
:10BC800004411220B0B50D4604460B2800D82DB94A
:10BC90001A4A20462946DD233DF0B6F90B2C1AD866
:10BCA00018A2174802EB440200EB840152780D61A0
:10BCB000011900EB820581F858200121A1402C4692
:10BCC00054F8400F54F83C3C41EA030144F83C1C52
:10BCD00018B100240FE003240DE0C2F10D0011495A
:10BCE000C3B20EA03DF0DCF920600FA000210024BB
:10BCF0003DF0CCF9E8642046B0BD00BF817D050071
:10BD0000A8721220000101020202030204020502CD
:10BD100006020702080209020A020B024B455F45B0
:10BD20005654000095AC02004B45000080B5154804
:10BD30006421F4F74DFF80BD2DE9F041114DDFF88E
:10BD4000808D114E0446286810EA040108BFBDE842
:10BD5000F081B1FA81F080F01F070C2F05D338462F
:10BD6000324640F265133DF04FF905EB870000695C
:10BD700008B18047E7E74046314640F271123DF096
:10BD800025F9E0E7A8721220817D0500868C050068
:10BD90002DE9F0410E46804603F10C0002211C46BD
:10BDA00017461FF027F9054620B90AA00CA1452225
:10BDB0003DF00CF94FF0FF306C812F81EE80A5F83B
:10BDC0000480214628600C352846F4F701FF2846F8
:10BDD000BDE8F0816D736720213D204E554C4C002D
:10BDE0006B655F6D73672E630000000020F8061C12
:10BDF000164920F8042C4968084700BF20F8081CA1
:10BE0000124920F8043C20F8062C4968084700BF76
:10BE10001EF07EBFB0B50446F4F728FD05464B483A
:10BE2000A4F10C010BF0EAFC2846F4F723FD0420F2
:10BE3000BDE8B0401EF004BFB0B5044C0023256837
:10BE4000A8476168BDE8B040084700BF0041122024
:10BE500080B532F0D3FD38F049FD07480021C0E934
:10BE600007110E210175054938F046FD0448BDE86B
:10BE700080403BF031BF00BFB06312208037050027
:10BE800071AF020000207047304A2832126842B178
:10BE900093888342FAD1D3888B4204BF0120704734
:10BEA000F4E70020704700BF10B541EA0042274880
:10BEB000274928301FF0B3F940B10446C0683DF06F
:10BEC00023F92046BDE810401EF022BF10BD00BF80
:10BED000704700002DE9F0418046002A15464FF0DA
:10BEE00000000F4608BF0125B0EB925F174841EAFA
:10BEF000084217491CBF4FF6FF75C0F23F0500F11D
:10BF0000280420461FF08BF90646A8B9102002210C
:10BF10001FF070F8064628B90EA010A14FF4B872B1
:10BF20003DF054F8114910A032462B46F780A6F890
:10BF300004803DF0D5F8F0600D4A204631461FF0F0
:10BF400098F9F068BDE8F0413DF0E0B820A8122073
:10BF50005574010074696D65720000006B655F7453
:10BF6000696D65722E6300004B45000099B70200B1
:10BF70003D740100F8B515460E460746F4F776FC09
:10BF80000446644850F8270028B190F8911049B150
:10BF9000058586850CE06048604940F63C123DF01E
:10BFA00015F805E0384631462A46012326F0D0F937
:10BFB0002046BDE8F840F4F75DBC00BF70B50D4603
:10BFC0000646F4F753FC0446524850F8260040B1A8
:10BFD000B0F87C1009070BD485B1416801EB45111D
:10BFE00009E04D484D4940F674123CF0EFFF08E07F
:10BFF000416801F5805121F0704101E04FF0FF31BF
:10C0000001662046BDE87040F4F734BCF8B515462B
:10C010000E460746F4F72AFC04463E4850F827002F
:10C02000B8B190F89300C00719D00F4A310C5A23C9
:10C03000300EC9B2128841EA002002F22F1222F01B
:10C04000010217FB0322094BD6521A4450809580F7
:10C0500005E03148314940F68C123CF0B7FF2046EC
:10C06000BDE8F840F4F706BC9C2F0500260013201D
:10C07000F8B516460D460746F4F7F8FB0446254882
:10C0800050F8270068B10021A0F8806080F88E1079
:10C09000B0F87C1009070BD485B1416801EB45115C
:10C0A00009E01D481D4940F6B2123CF08FFF08E040
:10C0B000416801F5805121F0704101E04FF0FF31FE
:10C0C00001662046BDE8F840F4F7D4BBF8B5154644
:10C0D0000E460746F4F7CAFB04460E4850F8270000
:10C0E00028B190F8911049B14585C6850CE00A4801
:10C0F0000A4940F655123CF069FF05E038463146E2
:10C100002A46012328F054FB2046BDE8F840F4F706
:10C11000B1BB00BF50731220868C0500108505004E
:10C120002DE9F04F85B0DFF8508707468B46CE4AA1
:10C1300098F82000FF2806D0C000012101FA00F085
:10C14000116808431060DFF8386756F8270008B117
:10C150000C274DE3A020002100251EF04BFF0028F6
:10C1600046F8270000F0C4800446DFF8180700688E
:10C17000804780462046A021F4F72AFDDFF8080713
:10C18000DFF80817C4E90705616232F03FFCDFF809
:10C190000067207684F88F70A560D946B07AF17A6E
:10C1A000A0754FF4C06060F31F119BF82600A182B8
:10C1B00084F89200BBF81800A4F87C00DBF80C00AF
:10C1C000E06659F8060F2063B9F80400A086B9F8B4
:10C1D0001800A4F8930099F81D2099F81B0099F80D
:10C1E0001C1084F89720DFF8AC2684F89500002016
:10C1F000032938BF012092F8D130B3FA83F35B09E9
:10C200001843081A84F8960099F81E00032838BFCE
:10C21000012592F8D110DFF88026B1FA81F14909A1
:10C220002943401A84F8980099F8170000F00F018C
:10C230000009515C105C084484F89B000BF0D5FBAE
:10C24000B4F87E2099F81F1060F30B0211F0F00F84
:10C25000A4F87E200BD0DFF844264FF4704040F263
:10C26000A6733CF0D1FE9BF82510B4F87E20FF2089
:10C270006FF31F3284F890009BF81C00A4F8800034
:10C28000DBE90403C4F8860042EA0130A4F87E002A
:10C29000B4F87C00C4F88A30C10633D494F88F0017
:10C2A00094F89710002918BF012184F89E1026F0F9
:10C2B00091FD94F89E00002800F02E81DFF8EC0537
:10C2C000DFF8EC150025C4E91505E16532F09EFBA9
:10C2D00084F85000B07BF17B256484F84E004FF465
:10C2E000C06060F31F112069A4F84C10A06413E132
:10C2F000DFF8B005DFF8A4154FF40F623CF066FEDE
:10C300000C2774E294F88F108D00A0F1100105291C
:10C310000FD8DFE801F0031E27321E1094F89B00AF
:10C32000642140F2E24210FB021000222061022050
:10C330002DE01D280DD194F89B00642140F25E622F
:10C3400010FB021020619BF81F0000F00102012089
:10C350001DE0DFF85005DFF8441540F2EA723CF0CA
:10C3600035FE12E094F89B00642140F25E6210FBFF
:10C37000021000222061062009E094F89B0064214D
:10C3800040F25E6210FB02102061002000229BF848
:10C390001E10012305F0FC05CDE90030284601F010
:10C3A000010306210EF0A6FBB4F87C00400708D478
:10C3B000BBF81400002852D0BBF81020C1B2384698
:10C3C0002CE0DFF8E4044FF6FE712D22008800F225
:10C3D0002F1020F0010000F2F12020F00100413088
:10C3E00020F001009D30084094F88F10793020F043
:10C3F000010000F2511020F0010000F2211020F0A5
:10C40000010011FB0200B9F8041082B21748104372
:10C410008180D9F80010016038460621002325F0FC
:10C4200097FF9BF81E000421002245F0010ACDE988
:10C4300000210021002200F0010350460EF05AFBBB
:10C44000B4F87C00400739D4BBF8160080B1BBF8C3
:10C450001220C1B23846002328F0AAF92EE028465F
:10C4600000210EF001FBDCE7640005500000132002
:10C470000630C1B250460EF0DBFB504600210EF0F4
:10C48000F3FADFF824044FF6FE71008800F22F1053
:10C4900020F0010000F2F1200840C5EBC501413059
:10C4A00020F001009D3020F00100793020F00100E3
:10C4B00000EB410081B250460EF038F9B4F87C0030
:10C4C00000F00600022820D1DFF8DC034FF6FE71F1
:10C4D000008800F22F1020F0010000F2F120084047
:10C4E000CAEBCA01413020F001009D3020F001006C
:10C4F000793020F0010000EB410081B228460EF0B7
:10C5000015F950460EF0DAF903E0284600210EF046
:10C510000DF928460EF0D2F9B4F87C10D54E080774
:10C520000FD45A20DE4AC90617FB0020DE4A54BF4A
:10C53000062104211588203005F22F1232401152B5
:10C5400016E0DC48026808F5805020F070410220B7
:10C550009047D948D249808820615A2017FB0010A3
:10C56000D1490D8805F22F1131400844052101847D
:10C57000FF20CDF80C8084F89C009BF82700A8B31E
:10C58000B4F87C00400703D59BF81E00800718D53F
:10C59000CA489BF81F10026848469047022810D8E6
:10C5A00005F22F11342284F89C0021F0010101F2E0
:10C5B000F12121F00101413121F0010110FB021AAA
:10C5C00001E04FF0000A9BF81E001FFA8AF300F00A
:10C5D00002011846002B18BF0120B4F87C2000EAA5
:10C5E0005101520709D49BF827200AE000220023BA
:10C5F000002100204FF0000A0AE01A46002B18BF65
:10C600000122002918BF0421002B18BF01235B0061
:10C61000194305F22F1841EA02019BF8202008EA8D
:10C6200006033E4641EA02224FF05A0117FB01374A
:10C630009B4B03EB0705AA86049610B103F14C0649
:10C640001BE006FB01F04FF6FE7103F1520601EA12
:10C6500008010844B9F804104C3018438180D9F817
:10C66000001001609BF81FA0BAF1020F05D3A44986
:10C6700093A040F2F4623CF0A9FC48F2270027F8AE
:10C6800006A0E88694F895007F2803D19D4890F88D
:10C690002D0004E09B4940B28A6900219047288719
:10C6A00028F001004FF6FE7100F2F12094F8987026
:10C6B00094F89660084094F88F10413017F0FC0F02
:10C6C00020F001004FEA810100F19D00C9B220F085
:10C6D0000100C1EBC10100F1790020F0010000EB85
:10C6E00041004FF00801A8874BF6D660A88548F6B0
:10C6F0008960E88545F2555028864FF055006886D8
:10C700004FF00000A5F84800A5F84A00B4F87C00F6
:10C7100001EA5000A5F8400005D07B4878494FF465
:10C72000A1723CF053FC3F014FEA860916F0FC0F62
:10C730000DD0DFF8CC81754840F2431241463CF001
:10C7400045FC73A041464FF4A2723CF03FFC47EA1F
:10C75000060040EA0900A8849BF81E00049FC60159
:10C7600017F0E00F04D079486549B5223CF02EFC63
:10C7700046EA07000821DFF8008161F31F20688482
:10C78000BBF80000E884BBF802002885BBF8040071
:10C7900068859BF81D60082E05D36D48584940F206
:10C7A000E3523CF013FCB5F8460020F0E00040EA0C
:10C7B0004610A5F8460094F89E0040B1B4F88200F7
:10C7C00040F27121C0EB001001EB400020610398A2
:10C7D0000027604DC4E90107204629688847B8B1A1
:10C7E00030482E4940F6E9023CF0F0FB0027234A8E
:10C7F00098F82000FF2807D0C000012101FA00F0BE
:10C80000116821EA00001060384605B0BDE8F08FDD
:10C810005148BBF81A1002680498904794F89E009B
:10C82000616884F8917000286166E0D0226E04F19E
:10C830003800531C08D06264154A4FF42063D27B41
:10C8400063F31F12A4F84C20E26E94F897305A4319
:10C8500001EB420121F07041E1632968884728B16A
:10C86000A06C002784F89E702061C0E7E06BA06692
:10C87000BCE700BFFEFF0100A04D12206400055080
:10C880005073122014421220152C0300F92A0300C1
:10C89000C869050080731220C65605001085050082
:10C8A00000001320868C05009C2F0500AD2403009A
:10C8B000D92303002C431220BC4E12201042122018
:10C8C00028282875696E7431365F74296164766230
:10C8D000646164647274797065203C3C2030292066
:10C8E00026207E282875696E7431365F7429307869
:10C8F00030303030303030312929203D3D2030007B
:10C900002F850500684D122009830500C0830500AE
:10C9100028282875696E7431365F742974787261BD
:10C920007465203C3C2030292026207E282875690B
:10C930006E7431365F7429307830303030303030BA
:10C94000332929203D3D203000000000738405007C
:10C9500085830500E84212206C4112202DE9F04148
:10C96000DFF8A0870546244F98F82000FF2806D05E
:10C97000C000022101FA00F0796E08437866F3F7EF
:10C9800075FF04462D4850F8250058B190F89110D5
:10C99000012909D0E9B9284601210022002625F005
:10C9A00021FE17E00C2615E0C04A90F88F105A239C
:10C9B000128802F22F1222F0010211FB03210F4A0A
:10C9C00001238B52022180F89110386840F00070EA
:10C9D000386000262046F3F74DFF98F82000FF2826
:10C9E00007D0C000022101FA00F0796E21EA0000B0
:10C9F00078663046BDE8F081000005504000132005
:10CA0000F8B516460D460746F3F730FF04460B48C7
:10CA100050F8270030B10121066780F8905080F867
:10CA20009D1005E02648064940F6C7123CF0CEFAB4
:10CA30002046BDE8F840F3F71DBF00BF5073122039
:10CA4000108505002048704770B504460025F3F7AF
:10CA50000DFF1D490022252D0DD2EB0805F007061C
:10CA6000E35CF340DB0704D051FA82F3013283F830
:10CA7000D2500135EFE781F8F720BDE87040F3F7B9
:10CA8000F9BE00BFB0B5242809D80F4B03EB000452
:10CA900014F9945F59B1032D0EDC691C0BE00848B2
:10CAA000084940F20A22BDE8B0403CF08FBA15F1C7
:10CAB000030F01DB691E217043F82020B0BD00BFC9
:10CAC000868C0500C6810500807312202DE9F84F81
:10CAD0001C4690468A460746F3F7C8FEBD4951F802
:10CAE000271059B1B1F88820B1F88A30B1F87E50DA
:10CAF000D1F858B04E6F1A4497B204E000250027D1
:10CB00004FF0000B0026DDF82890F3F7B3FEA7EBFB
:10CB10000A0040F27122B0F5004FCFBF00B20021F1
:10CB2000A1EB00400014216800FB06B005EB4101B9
:10CB3000B1FBF2F1014421F00103181A20F070401A
:10CB400050430122401B0128B8BF4FF0FF32104470
:10CB5000022290FBF2F5C1F35A004FEA48010AF0B5
:10CB6000D1FE216880B2491B2160D9F80010491B11
:10CB7000C9F80010BDE8F88F2DE9F04799469046B6
:10CB80000E460746F3F772FEE14951F827205AB1E5
:10CB9000B2F88810B2F88A40089B556F2144946D12
:10CBA00043B1B2F87EA007E000274FF0000A00244E
:10CBB000002502E04FF0000A8FB2F3F75BFEB81BCE
:10CBC000B0F5004FCFBF00B20021A1EB0040001430
:10CBD000A4EB490100FB05104FEA88018CB220F05C
:10CBE000704021460AF08EFE211A40F27122002880
:10CBF00018BF01FB02F0A0EB0A0001210128B8BF19
:10CC00004FF0FF3108444010BDE8F087F8B51646F4
:10CC10000D460746F3F72AFE0446E94850F8271068
:10CC200041B191F8560038B1BC4A002140F6B13309
:10CC30003CF0EAF90C250AE00220A1F8546081F8E2
:10CC40005600286848642879002581F84800204665
:10CC5000F3F710FE2846F8BD70B50D460646F3F70B
:10CC600005FE0446D64850F8260088B1CA485A2125
:10CC7000008800F22F1020F0010016FB01000C4983
:10CC8000405A0C494A69C0B229469047054607E018
:10CC9000A24A3046002140F6285300253CF0B4F962
:10CCA0002046F3F7E7FD284670BD00BF9C2F050026
:10CCB00038001320684D12202DE9F0470E46054636
:10CCC000F3F7D4FDBE4C824654F82570002F4DD0AA
:10CCD000B7F89000002E20F0100066F30410A7F8BB
:10CCE000900041D0284629F055FA97F89E00D8B315
:10CCF00097F89B00C0BBB7F89000C00734D097F8F6
:10CD0000A20088B3834854F825800068804706460F
:10CD1000B86D796F801B20F07040884224D97E481E
:10CD20000021026840469047B86D796FDFF80484AF
:10CD3000DFF8F09A821B22F070428A421DD9B7F8C0
:10CD40008A204AB94046494640F647323CF03EF90F
:10CD5000B7F88A20B86D796F401A013A20F0704018
:10CD6000A7F88A20B865E5E7002700E00C275046C1
:10CD7000F3F780FD3846BDE8F087284631460022AB
:10CD8000002729F02DF8F2E72DE9F8431F469146D8
:10CD90000C460546F3F76AFD8046FA4850F82560D0
:10CDA00086B12846A6F89670A6F89440A6F8929008
:10CDB00028F040FA726F96F8A010284629F0B6F9CC
:10CDC000002400E00C244046F3F754FD2046BDE863
:10CDD000F88300BF687312202DE9F84FDFF824A311
:10CDE00005460E46C84A9AF82200FF2806D0C00021
:10CDF000022101FA00F01168084310609AF823003C
:10CE0000FF2806D0C000022101FA00F01168084393
:10CE100010609346F3F72AFDDA4C814654F82570EA
:10CE2000002F4CD007F12C0031460AF0E7FCB7F890
:10CE3000900040F00800A7F89000284629F0AAF9D1
:10CE400097F89B00C8BBB7F89000C00735D097F89B
:10CE5000A20090B3B54854F8258000688047064684
:10CE6000B86D796F5C46801B20F07040884246D9CF
:10CE7000AF480021026840469047B86D796FDFF8EF
:10CE8000B482DFF8A0B9821B22F070428A4238D9FE
:10CE9000B7F88A204AB94046594640F60B323CF072
:10CEA00095F8B7F88A20B86D796F401A013A20F0EA
:10CEB0007040A7F88A20B865E5E7002700E00C2756
:10CEC0005C464846F3F7D6FC9AF82200FF2807D0C4
:10CED000C000022101FA00F0216821EA0000206070
:10CEE0009AF82300FF2807D0C000022101FA00F0C1
:10CEF000216821EA000020603846BDE8F88F00274D
:10CF0000DFE7284631460022002728F069FFD8E7EE
:10CF10006873122014421220F04212200A86050083
:10CF2000F0B5E94B53F82030A3B31B4B5A241B4EEA
:10CF30000227B64600FB04FC1B8803F22F1323F0E4
:10CF4000010310FB043500242E440025358375832E
:10CF5000B583F583358475841036082D06D0E0B28C
:10CF600057FA84F4105A70530235F6E70CEB0300BD
:10CF70000F2200236FF001047044102B0AD051FAE5
:10CF800082F554FA82F235F8015C2DBA2D0CC552A7
:10CF90000233F2E7F0BD00BF9C2F05004C001320C8
:10CFA00010B50446F3F762FCF44951F8241011B1AE
:10CFB000B1F8884000E00024F3F75CFC204610BD87
:10CFC000687312202DE9F84FDFF838A105460E46A8
:10CFD0004D4A9AF82200FF2806D0C000012101FA2C
:10CFE00000F01168084310609AF82300FF2806D06B
:10CFF000C000012101FA00F0116808431060934657
:10D00000F3F734FC414C814654F82570002F50D082
:10D01000B86A28B1C9493EA040F6B1223BF0D6FF1C
:10D02000B7F89000BE6240F00800A7F890002846CC
:10D0300029F0B0F897F89B00C8BBB7F89000C0077C
:10D0400035D097F8A20090B3384854F8258000688E
:10D0500080470646B86D796F5C46801B20F07040B3
:10D06000884246D932480021026840469047B86D50
:10D07000796FDFF8C080DFF8ACB7821B22F0704216
:10D080008A4238D9B7F88A204AB94046594640F60C
:10D09000CD223BF09BFFB7F88A20B86D796F401A1C
:10D0A000013A20F07040A7F88A20B865E5E700272C
:10D0B00000E00C275C464846F3F7DCFB9AF82200B8
:10D0C000FF2807D0C000012101FA00F0216821EA01
:10D0D000000020609AF82300FF2807D0C00001213B
:10D0E00001FA00F0216821EA000020603846BDE81E
:10D0F000F88F0027DFE7284631460022002728F076
:10D100006FFED8E7A04D122064000550687312200E
:10D110004E554C4C203D3D20636F6E5F7061722D0B
:10D120003E6C6C63705F7478000000001442122043
:10D13000F0421220F585050070B50646F3F796FB20
:10D1400004468E4850F8261071B1B1F89000C0071F
:10D150004FF0640008BF58200858496F400849083C
:10D160000AF0D0FB054607E0744A3046002140F63D
:10D170005A5300253BF048FF2046F3F77BFBA8B24B
:10D1800070BD00BF687312202DE9F8431E4691461A
:10D190000C460546F3F76AFB8046784850F8257040
:10D1A0004FB197F8560040B1644A002140F67D33F4
:10D1B0003BF02AFF21E00C2422E00A98DDE9082157
:10D1C000A7F854000120A7F84E20B20087F85600B7
:10D1D000A000A7F850004FEA8900A7F84C004801CA
:10D1E000C7E91120786FB0EB860F06D997F8A01029
:10D1F000022902D3284628F099FF0024A7F85240BC
:10D200004046F3F737FB2046BDE8F8832DE9F041AF
:10D210001C4617460D460646F3F728FB804657483E
:10D2200050F8261041B191F8560038B1434A002118
:10D2300040F6F7333BF0E8FE0C2417E0032091F8AA
:10D24000A030A1F8544081F8457081F8445081F82D
:10D250005600094830F8152030F81300824204D9EE
:10D260004A6F3046294628F061FF00244046F3F714
:10D2700001FB2046BDE8F081FC2C05002DE9F041C2
:10D2800090460F460646F3F7F1FA04463B4850F83D
:10D2900026506DB13046A5F8847027F0CBFFB5F865
:10D2A000900020F4005068F34D30A5F8900006E09F
:10D2B000224A3046002140F689533BF0A5FE204625
:10D2C000BDE8F041F3F7D6BA6873122070B50E4688
:10D2D0000546F3F7CBFA0446284850F8250038B144
:10D2E000B0F88210B14238BF0E46A0F8826006E066
:10D2F000124A2846002140F671533BF085FE204635
:10D30000BDE87040F3F7B6BA70B50546F3F7AEFA6C
:10D310000446FD4850F8250010B190F8A16007E0E0
:10D32000064A284600214FF4546300263BF06CFE69
:10D330002046F3F79FFA70B270BD00BF0A86050061
:10D3400010B5F14A52F82020BAB1F64B5A241B8886
:10D3500003F22F1323F0010310FB0430084BC45ACF
:10D3600024F4807461F30824C452B2F8900020F0D1
:10D37000200061F34510A2F8900010BD68731220E0
:10D38000220013202DE9F04F85B0DF4E834656F87A
:10D39000200008B10C24B3E10F46A4200021002492
:10D3A0001DF028FE002846F82B0000F053810546AA
:10D3B000D6480068804701902846A421F3F708FC6E
:10D3C000D348D449C5E90704696231F01FFB2876C8
:10D3D000D14897F82410AC6085F89AB0007A11F023
:10D3E000FE0FA8754FF40050A88207D0CB4A012049
:10D3F00040F6BC133BF008FE97F824100020C5F857
:10D400008800A5F88C0085F89E00BA89FE793C89D1
:10D410007B7DB7F80EE0B7F80A8097F816C0A5F83C
:10D420009C00A5F88220B20005F1700685F89930BD
:10D430004FEA8803A5F88020A2004FEA4E141CC6CC
:10D44000B74A4FF6EE33A5F88E002864A86285F837
:10D45000A10097F8258032F81C2048F0010085F8DB
:10D46000A08085F89F80A5F88620B5F89020032835
:10D4700002EA030242EA010242F01002A5F89020FB
:10D480004FF01B02A5F8922085F898204FF4A47263
:10D4900008BF4FF42962C807A5F89620A5F8942084
:10D4A00005D095F89A0028F099FB97F825809D48BB
:10D4B0009D4C04974FEA880A008800F22F1020F054
:10D4C00001015A201BFB001003910321061997F854
:10D4D0002400002808BF0221318418F0FC0F0DD071
:10D4E000DFF85092924840F2431249463BF06EFDFD
:10D4F000914849464FF4A2723BF068FD4AEA0800A1
:10D50000BBF1200F40F48850B08404D389498BA02C
:10D51000B5223BF05BFD0BF500607084049F3888FA
:10D52000B0857888F085B8883086B879708695F8A7
:10D53000990097F8261000F01F008A0342EA0020A5
:10D5400040F40040F08681F00100B5F8901021F41D
:10D55000007141EA4020A5F89000874890F82D001E
:10D5600030875846CDF808B027F064FEFB204FF016
:10D5700000096E4BA6F848001E20A6F84A9003F555
:10D58000C0227087388AA6F84200788AA6F844003C
:10D59000B88AA6F8460003F50030039901F2F1219C
:10D5A00008404130104003F560229D30104003F5E3
:10D5B000F012793000EA020A21F00100413020F037
:10D5C00001009D3020F00100793020F0010B95F82A
:10D5D0009A00B9F1020F2AD009EB800109F1010983
:10D5E000CFB209F0010141EA8000C0B2C0EBC00037
:10D5F0000BEB40000FFA80F8B8F1FF3F04DC6E49F6
:10D600005EA035223BF0E2FCC7EBC70048F40041C6
:10D610000022002344EA400020F80A103846002186
:10D620000DF056FB384600210DF03EFACFE7C0EB77
:10D63000C0000BEBC000B087B5F8900010F00107F8
:10D640000FD104980021A5F87E10026A02982A667C
:10D65000134632E07248314940F665223BF0B6FC91
:10D6600098E6049B5549029893F825C01A8B31F827
:10D670001C1002EB4101DA6914468EB2B6F51C7F2C
:10D6800005D90134A1F2712124F07044F5E70C268C
:10D69000A5F87E102A66BCF1020F38BF082693F861
:10D6A0002730002B08BF04262B6F2344B5F8804099
:10D6B000334403EB540323F07043002FC5E91922D0
:10D6C000AB6508BF3946A5F87C1003D13C21002288
:10D6D000E96506E0B5F8803040F271225A43EA6508
:10D6E0008AB20199AA600022002428F079FB34480C
:10D6F0002B8A6A6F95F89A10009405680420A84751
:10D70000204605B0BDE8F08F687312201442122045
:10D71000754F0300B14E0300C86905000A86050075
:10D720002C2D05009C2F050000001320FEFF01009A
:10D73000C08305002F850500BC85050028282875B5
:10D74000696E7431365F74296C696E6B6C626C2023
:10D750003C3C2030292026207E282875696E7431B3
:10D76000365F7429307830303030303031462929F6
:10D77000203D3D2030000000684D122028282875EB
:10D78000696E7431365F74296E65787470747220B6
:10D790003C3C2030292026207E282875696E743173
:10D7A000365F742930783030303037464646292984
:10D7B000203D3D20300000001A850500882D050021
:10D7C0003843122070B50E460546F3F74FF804466D
:10D7D000494850F8250080B190F89B10012914D0D9
:10D7E000B1B996B10D4900260A6800219047284634
:10D7F0000121162227F060FA0BE00948094940F69A
:10D800009A223BF0E3FB0C2603E0022180F89B10F8
:10D8100000262046F3F72EF8304670BDF042122065
:10D82000868C05000A86050010B5334A52F8202080
:10D83000BAB10C4B5A241B8803F22F1323F00103B7
:10D8400010FB0430084BC45A24F4007461F34924DB
:10D85000C452B2F8900020F0400061F38610A2F8A4
:10D86000900010BD9C2F05002200132070B50E46BD
:10D870000546F2F7FBFF04461F4850F8250068B143
:10D88000416FB1EB860F07D990F8A010022903D39E
:10D89000B200284628F04AFC002500E00C2520466E
:10D8A000F2F7E8FF284670BD70B50E460546F2F760
:10D8B000DDFF0446104850F8250030B1042E06D193
:10D8C000426F90F8A01028460DE00C250EE00B49A1
:10D8D00090F8A03031F8162031F813108A4204D99C
:10D8E000426F2846314628F021FC00252046F2F7F9
:10D8F000C1FF284670BD00BF68731220FC2C0500D4
:10D900002DE9F04F85B0DD4C0546F8212046F3F7B0
:10D910005FF90020252804D0211881F8D2000130B9
:10D92000F8E7252084F8F700D54C606810B10DB1F8
:10D930001DF0EEF90020D54E60604FF00400D14C90
:10D940008DF80F00A5B37068D149884205D0706882
:10D95000D04A40F24B133BF057FB306820F4807004
:10D960003060306840F00040306030680028FCD4FF
:10D9700000204FF0FF3104F50032F060B161C6497C
:10D98000098801F22F11214001F2F12111400022FA
:10D99000402A04D0BC4B134308325852F8E7BF4822
:10D9A00000688047D6F8D00020F48050C6F8D00038
:10D9B000BB480DF10F0104AA029503683120984776
:10D9C000A8BB9DF813009DF810809DF811709DF87C
:10D9D00012500606B6F1FF3F05DCC149B1A040F682
:10D9E000AD123BF0F3FA280605D5BD49BDA040F6BF
:10D9F000AF123BF0EBFA380605D5C948B84940F6F6
:10DA0000B1123BF0E3FA2D043F025FEA086005D54E
:10DA1000C448B34940F6B3123BF0D8FA46EA0500D1
:10DA20009A4E384340EA080040F080303065BE48E6
:10DA30004FF6FE7204F500354FF0060A3060BB4821
:10DA4000C6F8E0004FF4B370F060B948C6F82001A2
:10DA5000914801880846009101F22F1020F0010141
:10DA6000204001F2F12101EA020321F0010103F556
:10DA7000002341310A40C6F83031019000F2F12014
:10DA8000284002F540320025C6F83401C6F8383186
:10DA9000C6F83C01C6F87021413004F5C0221040A0
:10DAA0001022C6F87401C6F8482104F560229D30A2
:10DAB000A04CA14E1040744A00EB020921F0010075
:10DAC0009D3020F00108062D2AD005F1010B5FFAE8
:10DAD0008BF0B0FBFAF101EB4101A0EB410000EB50
:10DAE000800008EB800007B2B7F1FF3F04DC20465E
:10DAF000314635223BF06AFAA9F8007008F042FE80
:10DB0000074628B98D48634940F2AF123BF05EFAF0
:10DB1000284639460CF09EF809F114095D46D2E713
:10DB200000981FFA88F405045FEA084005D5844888
:10DB30006B4940F292723BF049FA45EA04005349BE
:10DB40004F4EDFF85C8148624F480199029D0844BE
:10DB500000212230082908D00388CAB2013123F0FD
:10DB60001F031A4320F85A2BF4E7484F4FF4A871CB
:10DB7000D7F89000C0F3062028303081D7F8940001
:10DB8000C0F3062018307081D7F8980080B201EBFE
:10DB90001020B081D7F8980080B201EB1020F081FE
:10DBA000F2F73CFF4FF4007464F39F50C7F878011C
:10DBB000F2F734FF64F39F50304C0DF10E01C7F8BB
:10DBC0007C01386804F1CC0240F480703860022097
:10DBD000D8F800308DF80E000720984728B14FF490
:10DBE000FA70A4F8CC0000201CE0B4F8CC00152892
:10DBF00001D2072016E01F2801D2062012E03328A8
:10DC000001D205200EE04C2801D204200AE065284C
:10DC100001D2032006E0972801D2022002E0FB286F
:10DC2000E1D20120A4F8CE000120D8F8003004F1A0
:10DC3000D1020DF10E018DF80E008520984709F0F4
:10DC4000CFFE002130702846A6F8011026F0FAFA1F
:10DC500028462AF0B7FB28462BF062FA28462CF01B
:10DC600071FD284629F0A0F928462DF0A9FB284689
:10DC700027F09EFF05B0BDE8F08F00BF8073122033
:10DC8000884E1220FEFF0100000013200000055006
:10DC9000001A0009C68105009C2F050024421220AD
:10DCA0005C4D122028282875696E7433325F742900
:10DCB0006469616733203C3C203234292026207E71
:10DCC000282875696E7433325F742930783746308E
:10DCD00030303030302929203D3D20300000000018
:10DCE000E181050028282875696E7433325F742934
:10DCF0006469616732203C3C203136292026207E31
:10DD0000282875696E7433325F7429307830303763
:10DD100046303030302929203D3D203000000000C1
:10DD2000D78005000F8105000F0610002C0190011F
:10DD30007102FFFF8A810500CC810500C6800500C5
:10DD4000478105002DE9F04FA9B00C9090F8139091
:10DD5000DFF86C06006880478246F2F75FFEDFF866
:10DD600064468346DB4BE07FFF2806D0C0000121DC
:10DD700001FA00F0196808431860DFF85476386833
:10DD800008B10C200DE35C2000214FF000081DF0CD
:10DD900031F90028386000F0F9800546DFF82806E0
:10DDA0005C21CDF828A02BF07F4A008800F22F10CC
:10DDB00020F00100099000F2F120039020F0010012
:10DDC000413020F0010007909D3020F001007930B3
:10DDD00020F00100089000F2511020F0010000F244
:10DDE000211020F0010000F20F1020F0010000F6D9
:10DDF000E93020F0010004902846F2F7E9FE0C9A81
:10DE000085F8588085F85080D07C917D90461446E6
:10DE100085F84F1085F82C00908A68869088A5F8C0
:10DE200042001068C5F83E0058F8060F6864508933
:10DE3000A5F8480054F80C0FC5F82D00207985F896
:10DE4000310005F13400D17C24F0FEF92F464FEA71
:10DE50001B40022127F838BFB8700C20F970BAFBBC
:10DE6000F0F000EB4000AAEB800000F1050A0C285E
:10DE700009D3DFF878150FF25C5040F26D523BF099
:10DE8000A5F895F83B108DF83B10696BDFF860053D
:10DE900085F83CA00C9E4FEA890BDDF810904FF0FE
:10DEA000000CADF83CC00D91398890F8CE20ADF84B
:10DEB0003810B97885F83D200027F38B8DF83A109B
:10DEC0004AEA4211328C8DF849102168119121796A
:10DED000B48B8DF84810718C1E2F08D0E8190A37C2
:10DEE00080F814C041820282C3818481F4E7B07C4F
:10DEF000C0075DD05820002100241DF07BF80028C9
:10DF000028604DD058210746F2F762FEDFF8E4049E
:10DF1000DFF8E414C7E90704796230F077FD38765A
:10DF2000DFF8D8047F214FF0010ABC6087F8344045
:10DF300087F85540A7F8401087F842A0017940794A
:10DF4000B9754FF4C06161F31F10B882708B788689
:10DF5000318BB8623986F17C87F85610B18BA98174
:10DF600040F2E2414843DFF898148988884238BF7C
:10DF7000014639612C75F08BE881306A286195F88B
:10DF80002B0040F0010085F82B0013E0DFF874044B
:10DF9000DFF8581440F2F2623BF018F80C20FFE171
:10DFA000DFF86004DFF8441440F2D1523BF00EF881
:10DFB0004FF0000AA88913AC0DA9ADF83E002869FE
:10DFC0001090204628F060FA484621461622C2F2F8
:10DFD0001300F2F7D6FD0C9E3F4C0B95B07C8007EA
:10DFE00003D4AA8B698BE88A0FE04AEA4A0085F8D5
:10DFF0001EA00AF1010A06EB8002908BE882D18B09
:10E000002983118C6983528CAA8313AFADF8401019
:10E01000ADF83E000DA9ADF84220384628F034FA9C
:10E0200009F122003946162280B22043F2F7A9FDF9
:10E03000B07C40075AD55820002100241CF0DAFF9C
:10E040000B9D0028686049D058210746F2F7C0FDB3
:10E05000E848E949C7E90704796230F0D7FC7F2135
:10E060003876E6480C9EE84CA7F8401040F2016173
:10E07000A7F855100321B98601794079B9754FF495
:10E08000C06161F31F10B882012087F842000AEBDB
:10E090004A0006EB8000418B7986028BB9623A8692
:10E0A000828B2A84C28B6A8440F2E2425143D44A72
:10E0B0009288914238BF0A463A61018C85F828A0BF
:10E0C000A984408CE88495F82B0040F0020085F884
:10E0D0002B000BE06400055000001320C948C34921
:10E0E00040F233623AF072FF0C9EC74C0B9D13AFA7
:10E0F0000DA9288CADF83E00686A1090384628F0CB
:10E10000C3F909F1440039461622A14680B22043E2
:10E11000F2F737FD717C307D85F82A1081075CBFEE
:10E12000717D5FEA817117D5B17D0A9F19B1C0F386
:10E130004000002113E0B548717D026840469047D9
:10E14000089A022887BF012000213421079B9CBF29
:10E1500010FB0131012003E00A9F00210020089AF2
:10E16000069189B20024002918BF012185F84A10C0
:10E17000317D01F0020140EA4100494608905FFA12
:10E180008BF00290C0EBC000019002EB40000790C2
:10E19000099848444FF000094C300590B9F1020F3E
:10E1A00000F0A08055F829B0BBF1000F00F0978077
:10E1B0009BF8568009985A2218FB020C084601EB7E
:10E1C0000C07944991F82D103987A989A7F84210B6
:10E1D000E98AA7F85810298CA7F85C100799B98725
:10E1E000A7F85410717C00294FF00F0108BF0E21D1
:10E1F00039844BF6D661B98548F68961F98545F2CF
:10E200005551398655217986A7F86640B27D08991F
:10E2100041EA022395F84A1043EA4103BB8619B14B
:10E22000069A00F14C0114E0AAB9A1B905465A209A
:10E23000059A08FB00F111440022062A04D0B31805
:10E24000DB888B520232F8E7727D05F1520102F051
:10E2500001022CF8012048F2270018F0E00FF886A0
:10E26000A7F84840A7F84A40307D4FEAC01404D0D0
:10E27000784969A0B5223AF0A9FE44EA08000821CD
:10E2800061F31F2078843088F88470883885B088DE
:10E2900078859BF834A00B9D4FEA8A041AF0FC0F96
:10E2A0000CD06C4E6C4840F2431231463AF08EFE70
:10E2B0006A4831464FF4A2723AF088FE44EA0A00F6
:10E2C000012100F50050B8844046BBF82820A7F88B
:10E2D00040200BF0F1FE0A9F0C9E4B49002409F1EF
:10E2E00001095BE74A4B039A881C0C46DDF804C021
:10E2F00003F50031114003F5C02240EA4C004131E2
:10E30000114003F560229D31114003F5F01279317F
:10E3100011400A5A42F0050222F00A020A52221D56
:10E3200042EA4C02049B8B5222230A5A63F31F22B7
:10E330000A5244EA4C028B5A03F400438B5242F2D5
:10E340002523727D62F3C7130B5202980CF0D8FAA2
:10E35000DFF8E4ADDFF8AC80DFF8909000260C2009
:10E36000AE60022E1BD055F82640B4B1DAF800108A
:10E370002046E7626760884738B14046494640F228
:10E38000EA623AF023FE002007E0618E002084F864
:10E39000540007EB410121F070470136E1E7094CD9
:10E3A0000A4BE17FFF2907D0C900012202FA01F1DF
:10E3B0001A6822EA01011960C0B229B0BDE8F08FE5
:10E3C00014421220A04D12209C2F0500640005501D
:10E3D0007874122028686F70203E20342920262669
:10E3E0002028686F70203C203137290066860500A0
:10E3F00080731220D569030005690300C869050010
:10E40000BC4E1220868C0500000013201042122002
:10E41000FEFF0100684D122028282875696E7431AE
:10E42000365F74296C696E6B6C626C203C3C2030EA
:10E43000292026207E282875696E7431365F74295C
:10E44000307830303030303031462929203D3D2081
:10E45000300000002F850500C0830500BC85050045
:10E46000F8B5F2F703FA124F0446124EF87FFF2870
:10E4700006D0C000022101FA00F031680843306084
:10E480000D48006818B128F025F8002500E00C259B
:10E49000F87FFF2807D0C000022101FA00F03168A0
:10E4A00021EA000030602046F2F7E4F92846F8BD82
:10E4B000A04D12206400055078741220B0B50C46AF
:10E4C0000546F2F7D3F91C4951F8251011B191F81E
:10E4D00041200AB10C2408E0227981F83C2022680E
:10E4E00000248A63012281F84020F2F7C3F9204614
:10E4F000B0BD00BFF8B515460E460746F2F7B6F9AF
:10E500000446F34850F8270028B190F8571049B155
:10E51000058546850BE00948094940F2DC423AF09E
:10E5200055FD04E0384631462A4629F0FFFA2046D8
:10E53000BDE8F840F2F79EB97C741220868C050085
:10E54000FC8605002DE9F0410D4601211E461446CA
:10E5500007464FF001080CF03BFD384621460CF011
:10E56000B7FC384601210CF071FCDE484FF6FE7115
:10E57000008800F22F1020F0010000F2F120084086
:10E58000F900023108442B490843A9888180296891
:10E590000160D34908FA06F001EB4701B1F8BC204D
:10E5A0001043A1F8BC002548214602682846904740
:10E5B000022888BFBDE8F0810121BDE8F0410BF0E1
:10E5C00039B900BF70B50D46C54906464FF6FF7014
:10E5D0001446584001EB4601B1F8BC201040A1F8A8
:10E5E000BC0025D1304600210CF030FCBD4A11485A
:10E5F000114940EAC60001F50031128802F22F12DB
:10E6000022F0010202F2F1221140085A800703D4DD
:10E61000304600210CF0DCFC084821460268284600
:10E620009047022804D80021BDE870400BF002B9E1
:10E6300070BD00BF00001320FEFF01001042122039
:10E640002DE9F84FA24D804655F8200010B10C205E
:10E65000BDE8F88F8A466020002100271CF0CAFC24
:10E66000002845F8280072D060210446F2F7B0FA7D
:10E6700098489949C4E90707616230F0C7F92076E4
:10E6800096489AF80B1084F85680A760A4F850704A
:10E69000BAF806309AF80C20007C84F85A10032A45
:10E6A000A0754FF00A00E087BAF80200A4F84C0009
:10E6B0009AF80A0084F85800BAF800004FEA80007F
:10E6C0006064874890F8D110A4F854304FF00003EC
:10E6D00038BF0123B1FA81F149091943511ABAF837
:10E6E000042084F85910214641F8337FA1F81F20F7
:10E6F00001220F7190F8F7309F420CD2C3190137F5
:10E7000093F8D23003F00705DB08CE5C02FA05F57A
:10E710003543CD54EEE794F8560029F019F97148C5
:10E720005A210622008800F22F1020F0010018FB69
:10E7300001006D49425247184CF22700F88294F8C4
:10E740005A007F280AD1694890F82D000BE08F48C5
:10E750008F4940F28C423AF039FC78E7634940B285
:10E760008A690021904738834146B4F833007884A1
:10E77000B4F83500B88494F83700F88404F12C001C
:10E7800023F062FDF2F74AF92086000C40F2712175
:10E7900084F83200A08DB881E08DF881208E388217
:10E7A00094F832007882002038857885A06CB0FB20
:10E7B000F1F00130388494F859504FEA051B15F0F8
:10E7C000FC0F11D0DFF82C9149484B4E4FF4A17249
:10E7D0004946B04749A0494640F24312B04756A0C7
:10E7E00049464FF4A272B0474BEA050018F0E00F1B
:10E7F00040EA8500B8809AF80A004FEAC01504D0B4
:10E800005C483C49B5223AF0E1FB45EA08000821A2
:10E8100061F31F207880584800688047064630F032
:10E82000F5F83044666C451C25F0704B26B953A0B2
:10E8300053A180223AF0CAFB2848DFF8BC8D4FF084
:10E840000009C4F80890477C4FF40070394660F323
:10E850001F11A819A182BBFBF6F171430026A1EBA1
:10E860000B010844BAF8081000EB410020F070409A
:10E87000606089F0010500200E2E88BF012060EA4B
:10E880000500C00712D1D8F800102046884750B1C3
:10E89000A07D616C01363844A0756068084420F0A2
:10E8A00070406060E7E74FF00109E2E75FEAC97096
:10E8B00004D0002084F85700BDE8F88F334834496D
:10E8C00040F284423AF082FB0020BDE8F88F00BF9E
:10E8D0007C7412206D7C0300D17B0300C8690500A5
:10E8E000807312209C2F050020001320684D1220F9
:10E8F000098305002F850500CD8F04002828287581
:10E90000696E7431365F7429727872617465203C67
:10E910003C2032292026207E282875696E743136E5
:10E920005F7429307830303030303030432929203E
:10E930003D3D20300000000028282875696E7431A4
:10E94000365F7429747872617465203C3C203029EC
:10E950002026207E282875696E7431365F74293030
:10E960007830303030303030332929203D3D203070
:10E9700000000000738405001442122064697600D0
:10E98000636F5F6D6174682E68000000868C0500FF
:10E99000FC860500F8B50546F1F768FF04461E48F9
:10E9A00050F82500D0B190F85710012918D069BB54
:10E9B0001B4900260A68002190471A480021FF22BF
:10E9C000022307684FF40270B84717494670057074
:10E9D00009688847284629F09DF818E00C2616E0BB
:10E9E000E64A90F856105A23128802F22F1222F0AB
:10E9F000010211FB0321094A01238B52022180F8F5
:10EA000057103248016841F000710160002620462D
:10EA1000F1F730FF3046F8BD7C741220400013201F
:10EA2000F042122000411220044112202DE9FE4F35
:10EA3000E84A8146E6488A460024E44E4FF034080E
:10EA4000002700F5003100F5C020128802F22F12D5
:10EA500022F0010202F2F1221140413101EA000BE1
:10EA600022F00100413020F00105032F1DD038466F
:10EA70000AF0ACFEB0B107FB0850183080B230434A
:10EA80008188ADF808100068019044EA06003BF860
:10EA9000000080EA0A00C00704D101A8494608F036
:10EAA000E6FC10B934340137DFE7F8B2BDE8FE8F79
:10EAB000E0B568463AF022FE00988CBD0349405804
:10EAC00080B27047014A8150704700BF0000055076
:10EAD0002DE9F04F87B00646002003AD8946144665
:10EAE0009846CDE90500CDE90300104629461022DD
:10EAF000F2F7A6F88246484629461022F2F7A0F817
:10EB0000074642484146026830469047032801D2F2
:10EB1000122078E04FF0000B0025BBF19C0F07D0CE
:10EB200028460AF053FE28B10BF1340B0135F4E707
:10EB3000072068E036483268364BBAF1000F00888B
:10EB400000F22F1020F0010000F2F120029020F0DE
:10EB5000010000F1410020F0010000EB0B0505F180
:10EB6000180081B2C2F21300CA50B1881E468180DB
:10EB700007D005F11E002146102280B23043F2F783
:10EB800000F837B1A81C4946102280B23043F1F793
:10EB9000F8FF119C1098002C18BF4FF40054002867
:10EBA00018BF4FF480400190002F18BF01277E004E
:10EBB000BD00BAF1000F18BF4FF0010A4FEA4A1921
:10EBC0004FEA8A1718F0FE0F04D0234912A06622DC
:10EBD0003AF0FCF9D649029B0E4801F5003201F5E6
:10EBE000C02140EA0B001A4041321140019A42EA2A
:10EBF000080222433A4342EA09022A43324342F4DA
:10EC000000420A52002007B0BDE8F08F10421220E7
:10EC10009C2F05000000132028282875696E743188
:10EC2000365F742970656572696474797065203C1B
:10EC30003C2030292026207E282875696E743136C4
:10EC40005F7429307830303030303030312929202D
:10EC50003D3D203000000000EF81050010B500248C
:10EC6000032C08BF10BD20460AF0C8FD0134F7E7A9
:10EC700010B50024032C04BF012010BD20460AF06B
:10EC8000A5FD08B90134F5E76FF0020050FA84F0F1
:10EC9000B0FA80F0400910BDF8B51446694A126810
:10ECA0009047022818D83422C249C34E00FB02F311
:10ECB00006F5003706F5C02643EA0105BF4B1B8861
:10ECC00003F22F1323F0010303F2F1231F40413716
:10ECD0003E40755B2D0601D40220F8BD23F00103F0
:10ECE000413323F0010310FB02302E3080B2084381
:10ECF0008188A180006820600020F8BD80B5514A5D
:10ED000012689047022884BF002080BD0AF06CFE84
:10ED1000002818BF012080BDF8B51446494A126882
:10ED20009047022818D83422A249A34E00FB02F3D0
:10ED300006F5003706F5C02643EA01059F4B1B8800
:10ED400003F22F1323F0010303F2F1231F40413795
:10ED50003E40755B2D0701D40220F8BD23F001036E
:10ED6000413323F0010310FB0230123080B208431C
:10ED70008188A180006820600020F8BD9C2F0500DC
:10ED800010B514462F4A12689047022884BF02200B
:10ED900010BD8A4B3421484386491B880843864965
:10EDA00003F22F1301F5003201F5C02123F0010316
:10EDB00003F2F1231A40413211400A5A22F48042F0
:10EDC00064F38E320A52002010BD00BF00001320F1
:10EDD000FEFF01009C2F050010B51446194A126869
:10EDE0009047022884BF012010BD744B3421484352
:10EDF00070491B880843704903F22F1301F5003254
:10EE000001F5C02123F0010303F2F1231A40631E30
:10EE10004132B3FA83F311405B090A5A22F40062CB
:10EE200042EAC3220A52002010BD00BF80B5054A45
:10EE300012689047022884BF022080BD0AF0DEFCE1
:10EE4000002080BD1042122070B51D4E706840B188
:10EE50001C4A0020002140F29D23BDE870403AF09A
:10EE6000F7B83420002100251CF0C4F8706028B3E6
:10EE7000044615481549C4E9070561622FF0C6FD2F
:10EE800020761348E575A560807CA07541F2883036
:10EE9000206146F2A100A082A44800688047C4E92E
:10EEA0000105A54801682046884738B159480549F9
:10EEB00040F29722BDE870403AF088B870BD00BFBC
:10EEC000884E1220C6810500F5890300C58903001C
:10EED000C869050070B5394E3549374B354A03F5D9
:10EEE0000035368891F8D01006F22F1601EB81011B
:10EEF00026F0010606F2F12642EA8104354003F5C8
:10EF0000C02603F56023413535409D352B401C5FFD
:10EF1000B4F1FF3FCFBF0020890011441944DFBF87
:10EF20008989A0EBD120B0FA80F0400970BD00BF04
:10EF3000FEFF01002DE9F041204DDFF874801E4AEC
:10EF40001C4E02F500332D8898F8D04005F22F159D
:10EF500004EB840025F0010505F2F12546EA800165
:10EF60002B4002F5C02502F5602241332B4085007D
:10EF70009D3303EA02073944498A39B907F002FC94
:10EF8000014620460AF066FE98F8D04045EA0600A1
:10EF9000395A6FF3DF313952601C0621B0FBF1F1B1
:10EFA00001EB4101A0EB410088F8D000BDE8F08101
:10EFB0008073122000001320FEFF01009C2F05002B
:10EFC0002DE9F84FDFF88496DDE90A8A04461F46EA
:10EFD00016460D46D9F8040028B10E480E494FF4E4
:10EFE000176239F0F3FF0E2000214FF0000B1CF0E8
:10EFF00001F80121C9F80400A0F80BA08771857001
:10F00000047080F801B0C0F80780B1408180002012
:10F01000BDE8F88F868C05001488050010B5424CB9
:10F02000606820B11BF074FE0020606010BD0C20F1
:10F0300010BD00BF80B53C4B1B6863B1D98298827C
:10F0400022B19088D8811068C3F80A00034800688C
:10F050008047002080BD0C2080BD00BF5C42122094
:10F060002DE9F84FDFF89C882E4B98F81D00FF28FB
:10F0700006D0C000012101FA00F0196808431860A9
:10F08000294F386800283ED02948DFF8C49BDFF8B4
:10F0900070BC00268246022E32D0386850F82640D6
:10F0A00014B194F83C0008B10136F4E7D9F8000037
:10F0B000804705463868C18A31B1C0695146281A6F
:10F0C00020F070405045EFD894F83E000128EBD175
:10F0D0006068411B281A21F0704120F07040B1F1A6
:10F0E000006F88BF41423D29DEDB124800210268E3
:10F0F00020469047DBF80010204665608847D3E73C
:10F100000020084B00E00C2098F81D10FF2907D0C4
:10F11000C900012202FA01F11A6822EA010119600C
:10F12000BDE8F88F64000550984E1220144212205A
:10F13000FEFFFF07F0421220E84212202DE9F04FB7
:10F1400087B0DFF83C7480460E46D24D787FFF28AA
:10F1500006D0C000012101FA00F0296808432860A8
:10F16000DFF824A4DAF8000008B10C20FAE120202E
:10F1700000211BF03FFF0028CAF8000055D081464F
:10F18000DFF80804006880470446DAF80000202110
:10F19000F1F71EFDF079C00754D08420002100252E
:10F1A0001BF028FF0028C9F8000045D0842107463D
:10F1B000F1F70EFDDFF8D803DFF8D813C7E907052C
:10F1C00079622FF023FC3876DFF8CC03327C87F8A5
:10F1D0003B5087F85A5087F83D5087F828800178CF
:10F1E000407887F83820B9754FF4C06161F31F107B
:10F1F0003189B882B089B986B179F886F86287F822
:10F200003A1040F2E2414843E4498988884238BFD5
:10F21000014699F80800396140F0010089F80800BA
:10F22000501EB0FA80F040090DE0DD48DD4940F69F
:10F23000311239F0CBFE98E7D948DA4940F64C0252
:10F2400039F0C4FE00200490F0794FEA88054007A9
:10F2500053D5842000214FF0000A1BF0CBFE00287C
:10F26000C9F8040041D084210746F1F7B1FCC84831
:10F27000C849C7E9070A79622FF0C8FB3876C64843
:10F28000A7F83CA0727C0178407887F83820B975DF
:10F290004FF4C06161F31F107189B882032087F8B1
:10F2A0003B000120B986B17987F85A00072087F81A
:10F2B0002800F08987F83A1040F2E241F886F862B7
:10F2C0004843B6498988884238BF014699F8080002
:10F2D0003961049940F0020089F80800501EB0FA24
:10F2E00080F040090143049105E0AD48AD4940F686
:10F2F0007C0239F06BFEDFF890A2B088A9F80E000E
:10F30000306889F80980C9F80A00B07C89F81000D3
:10F31000B6F81300A9F81100D6F81600C9F81400C1
:10F32000E8B20025C0EBC00103909F48008802911D
:10F3300000F22F1020F00100069000F2F120019061
:10F3400020F00100413020F001009D3020F001004C
:10F35000793020F0010000EB41000590022D00F013
:10F360009B8059F82580B8F1000F00F0918098F843
:10F37000287006985A21002217FB01008C4901EBE6
:10F38000000B4BF6D660ABF82C0048F68960ABF862
:10F390002E0045F25550ABF830005520ABF8320046
:10F3A000ABF86620DAF8040099F8111018B18278E9
:10F3B000002A18BF012299F81000337D009301281C
:10F3C0004FF00003384688BF01230AF081F948F264
:10F3D000270017F0E00FABF836004FF00000ABF855
:10F3E0004800ABF84A00B07C4FEAC01A04D080490C
:10F3F00070A0B52239F0EAFD4AEA0700082161F35E
:10F400001F20ABF822003088ABF826007088ABF8DC
:10F410002800B088ABF82A00764890F82D00ABF8A9
:10F4200038000BF13C0098F8381001290BD10599F0
:10F430000180ABF8541098F83A0000284FF00B0008
:10F4400008BF09200AE000210180ABF8541098F8A9
:10F450003A0000284FF00A0008BF082088F8390059
:10F46000ABF82000DFF820A1384698F83B100A4698
:10F470000AF070FFD8F82C0043F6FF71ABF840009B
:10F48000884228BF084682B2012138460AF078FE39
:10F49000013563E764000550049870B3434B019A4B
:10F4A000434E029D03F50031B01C114003F5C0220C
:10F4B00040EA45004131114003F560229D31114081
:10F4C00003F5F0120023793111400A5A42F0030289
:10F4D00022F00C020A52321D42EA45028B520C23E2
:10F4E0000A5A63F31F220A5246EA45000A5A02F4F6
:10F4F00000420A5203980BF04BFA4FF001102149D9
:10F50000C1F8C000DAF80000818A29B104EB41118A
:10F5100021F07041C0E90614374DDFF88480DFF830
:10F5200084A04FF0000B0027022F18D059F8276055
:10F530009EB12968304634637460884730B14046D4
:10F54000514640F6291239F041FD06E0F08E86F86A
:10F5500059B004EB400020F070440137E4E7084F55
:10F560000020084D797FFF2907D0C900012202FA47
:10F5700001F12A6822EA0101296007B0BDE8F08F95
:10F58000A04D122064000550984E12201442122003
:10F59000758D0300858C0300C8690500BC4E1220E0
:10F5A000868C0500148805009C2F0500FEFF0100D5
:10F5B0000000132028282875696E7431365F74297D
:10F5C0006C696E6B6C626C203C3C203029202620DC
:10F5D0007E282875696E7431365F74293078303032
:10F5E0003030303031462929203D3D2030000000A8
:10F5F0002F850500684D1220E8421220F8B5F1F77A
:10F6000035F9C04F0446C04E787FFF2806D0C000B1
:10F61000022101FA00F03168084330600B480068AD
:10F6200018B129F075FA002500E00C25787FFF2835
:10F6300007D0C000022101FA00F0316821EA000081
:10F6400030602046F1F716F92846F8BD984E122092
:10F6500070B515460C460646F1F708F9AB4951F866
:10F66000261061B1A1F860502268C1F85B202279B0
:10F67000002481F85F20012281F8622000E00C2440
:10F68000F1F7F8F8204670BD2DE9FE4FDFF87482DF
:10F6900004460D469C4E98F82500FF2806D0C00071
:10F6A000012101FA00F0316808433060052C03D8CD
:10F6B000964F57F82400A0B16A486B4940F2664261
:10F6C00039F084FC98F82500FF2807D0C0000121FC
:10F6D00001FA00F0316821EA000030602046BDE800
:10F6E000FE8F682000214FF000091BF083FC0028EA
:10F6F00047F8240000F0AE80064695F80AA05B4863
:10F700002F68682130F81A0097F802B00290288913
:10F710000190388800903046F1F75AFA544855491C
:10F72000C6E9070971622FF071F9307652484FF43B
:10F730000071BA8886F85440BBF1000FC0784FEAD8
:10F74000820CC6F84CC061F31F10E989B082C1EB8E
:10F7500001114FEA410EC6F838E0BB7A86F85F30F7
:10F76000D7F8063086F857A086F8569040F2712AEE
:10F77000C6F85B30E87A6B6886F85800F87AF3636D
:10F7800086F85900B87886F855004FF4967008BF8F
:10F790001E20009986F8659086F86290484301998A
:10F7A00001EB40000299A0EB4100B0FBFAF101FB34
:10F7B0001A00A1EB8202A6F84800B88A1A4422F087
:10F7C0007042013872643264A6F85200A6F84A000A
:10F7D000BEFBFCF0063801B20029D8BF484681B212
:10F7E000AA898A4238BF1046A6F850005A212348F9
:10F7F000BA89008800F22F1020F0010014FB0100EC
:10F800001F494518AA81FA89EA813A8A2A82BA7C74
:10F810006A820A22A5F814904252B6F85B00688406
:10F82000B6F85D00A884204696F85F1009F0DAFE6D
:10F83000A5F81890688820F01F0020436880F1F731
:10F8400015F80546204600212BF08EF92846F1F7E1
:10F8500011F805E00348044940F2614239F0B6FB73
:10F86000294E2FE7868C05001A890500904E12203C
:10F8700085A40300F9A30300C86905009C2F0500B7
:10F88000200013202DE9F041DFF8788005461E4F57
:10F8900098F82500FF2806D0C000022101FA00F0E8
:10F8A000396808433860F0F7E1FF0446174850F81C
:10F8B000250070B190F85A1001290CD071B9144983
:10F8C00000260A6800219047284600212AF070FD92
:10F8D00005E00C2603E0022180F85A10002620469D
:10F8E000F0F7C8FF98F82500FF2807D0C0000221D4
:10F8F00001FA00F0396821EA000038603046BDE8BE
:10F90000F08100BFA04D12206400055094741220B5
:10F91000F04212202DE9F04FC3B0CC4F06463868B4
:10F9200020B10C26304643B0BDE8F08F30200021D6
:10F9300000251BF05FFB0028386052D00446C44805
:10F9400000688047834620463021F1F741F9C148DD
:10F95000C149C4E9070561622FF058F82076BF4815
:10F96000A560BF4D817AC07AA17540F6C4112161AE
:10F970004FF4C06161F31F10A082307871780128C4
:10F9800084F82A0084F82B1032D0002840F08080C0
:10F99000B6481D2250F8D01C41F4804140F8D01CDC
:10F9A000016841F000610160AF480021008800F269
:10F9B0002F1020F0010A05EB0A00A0F86A10A0F849
:10F9C0006C10A0F86E10028448F226024287FF22D3
:10F9D000A0F84820A0F84A10F34841680020884762
:10F9E000C7E0C248AB4940F28E2239F0EFFA98E7FF
:10F9F0007088A08506F0ECFC002856D09A4B9949F7
:10FA0000208501F500321B8803F22F1323F0010A31
:10FA100001F5C0230AF2F12705EB0A083A4041320A
:10FA20001A4001F5602301F5F0119D321A408F4B09
:10FA3000793211400A462944888053F8D00C40F4AA
:10FA4000804043F8D00C186840F400601860002033
:10FA5000A8F86400A8F86600A8F86800F078CDE976
:10FA60000117072831D80121814011F0F60F1ED06F
:10FA7000013896F802905D461746062806D8F0220F
:10FA8000DFE800F0342D042F0431330000222DE094
:10FA9000964880494FF4187239F098FA72480088F5
:10FAA00000F22F1020F0010A63E007263AE71968F8
:10FAB00000F00100174621F4005141EA403018607F
:10FAC000186840F48050186023E00828174620D3B7
:10FAD000704967A040F23D2239F078FA19E0AA2275
:10FAE00004E0FF2202E00F2200E055220DF10C0B92
:10FAF00049465846F1F765F8208D59494A4608436A
:10FB00005946F1F73EF85949AB46086820F4805051
:10FB10000860B078F5784FEA002915F0F00F05D0AD
:10FB20005DA06CA14FF4927239F050FA019949EA44
:10FB300005004B4D4880785B6FF3DF3078534FF60C
:10FB4000FE7002990840413020F001009D3020F005
:10FB50000100793020F00100A8F83C001C20A8F832
:10FB60002000B8F8380040F00C0020F0F300A8F8AE
:10FB70003800554444F22910A88547F27610E885EC
:10FB800045F255502886552068867778272F16D05D
:10FB90000C2F02D01FB9252711E026270FE06FF0A8
:10FBA00001000C2F38BF4FF0FF300744F8B2402857
:10FBB00005D34F484F4940F2713239F007FAE88EC9
:10FBC000F9B220F03F000843E8863078012810D0D1
:10FBD000E0B930790138C1B210F0FC0F4FEA81076B
:10FBE00005D04548434940F2431239F0EFF9002669
:10FBF0000EE030790138C6B210F0FC0F07D03F4854
:10FC00003C494FF4A27239F0E1F900E000260027E8
:10FC100047EA0600002600F58050A8843848A5F879
:10FC20006A60A5F86C60C4F804B0A5F86E6001685D
:10FC30002046884738B12D48164940F2872239F0CE
:10FC4000C5F900266EE684F82E606BE6AC741220CF
:10FC50001442122019B2030079B10300C8690500EB
:10FC600000001320FEFF01009C2F0500D00005506E
:10FC7000706172616D732D3E7061796C6F6164208B
:10FC80003C3D205041594C5F3031303130313031C2
:10FC9000000000002589050028282875696E743148
:10FCA000365F7429747874797065203C3C20302963
:10FCB0002026207E282875696E7431365F742930BD
:10FCC0007830303030303030462929203D3D2030EA
:10FCD000000000007265675F656D5F626C655F7450
:10FCE000785F646573632E6800000000868C0500F1
:10FCF0008E8805002F850500C0830500BC850500A2
:10FD0000E8421220F8B5F0F7B1FD04462548056831
:10FD1000C5B3254841680120884760480026C0F8DF
:10FD2000D060016821F48041016095F82E1001290E
:10FD30002AD089BB1D48002100260268284690472A
:10FD400095F82A00012802D1288D06F087FB184873
:10FD50000021FF220423076840F20A20B84795F8E3
:10FD60002A10067039B9D849124A098801F22F11B0
:10FD700021F001018E5A10494680096888472BF00E
:10FD8000DBF908E00C2607E0022185F82E10016857
:10FD900041F08061016000262046F0F76BFD30469F
:10FDA000F8BD00BFAC741220684D1220F042122042
:10FDB000004112206A0013200441122070B5FF2A6E
:10FDC0002DD00D460121144606460BF001F93046B0
:10FDD00021460BF07DF8304601210BF0B7F8BA4808
:10FDE0004FF6FE71008800F22F1020F0010000F2A3
:10FDF000F1200840F10002310844254908432968F0
:10FE00000160A988818024482146026828469047DD
:10FE1000022809D80121BDE8704009F053BD1F48F0
:10FE2000016821F48061016070BD00BF70B5FF2AD8
:10FE300027D00D460021144606460BF087F8A24A4B
:10FE40001348144940EAC60001F50031128802F255
:10FE50002F1222F0010202F2F1221140085AC007CB
:10FE600003D1304600210BF0B3F80B48214602685D
:10FE700028469047022809D80021BDE8704009F0C3
:10FE800021BD0648016841F48061016070BD00BF7A
:10FE900000001320FEFF0100104212200000055058
:10FEA00070B515460E46044620B90A480AA1372205
:10FEB0002EF0A0FF701E022806D33DB1206C6A8888
:10FEC0002988036820469847002070BD4FF0FF3016
:10FED00070BD00BF809005005F70696E5F636F6EDC
:10FEE00074726F6C0000000070B51E461446054623
:10FEF00020B9084808A118222EF07CFF002044B148
:10FF0000042E06D1286C218882682846904760809C
:10FF1000042070BD809005005F70696E5F7265613E
:10FF20006400000070B51E461546044620B9084816
:10FF300008A127222EF05EFF002045B1042E06D135
:10FF4000206C6A882988436820469847042070BD41
:10FF5000809005005F70696E5F777269746500005C
:10FF600070B5154E0446002596F85400854228BF0A
:10FF700070BDB06D00EBC50149688A681AB150F8D0
:10FF80003500214690470135EEE700BF70B50A4EB7
:10FF90000446002596F85400854228BF70BDB06D18
:10FFA00000EBC50149684A681AB150F8350021468E
:10FFB00090470135EEE700BF044F122070B50D46A3
:10FFC000044620B9104811A197222EF013FF616D4D
:10FFD00011B12846884714E094F8580001280FDB37
:10FFE000E16D461E01EBC00050F8080C38F088F8AF
:10FFF000A8423046F2D8E06D00EBC600007900E080
:020000040001F9
:10000000012084F8460070BD4F9105005F706D5F60
:1000100073656C6563745F736C6565705F6D6F6449
:1000200065000000F0B58BB0244E254F40F201630F
:100030001D491E4A1F4C204D83851D4BC0E900768B
:10004000204EC0E90536C0E90752C0E90914002076
:1000500001A9282802D008540130FAE71A4801A95A
:100060002822008800F58070C2F21300F0F789FDA5
:10007000164800688047164C206840F08040206099
:10008000206820F4005020602068800405D511A06D
:100090001AA140F2F35238F099FF206840F08040F6
:1000A00020600BB0F0BD00BF21E9030001E90300AF
:1000B000D9E9030081E9030059E90300A1E803003D
:1000C000FDE8030099E903009C2F05008C421220F3
:1000D0007400055069705F726164696F636E746C5F
:1000E000315F6470636F72725F656E5F67657466BF
:1000F0002829203D3D2030783000000072665F6284
:10010000665F667067612E630000000080B532F0A4
:100110008BF808B1054880BD37F084FE03490028FC
:1001200018BF00F13001084680BD00BF24501220E6
:1001300080B5202905D0212906D1D0B234F012FD96
:1001400002E0D0B234F0ECFC002080BDF8B51C46D3
:1001500015460E46074628B90AA00EA14FF41472A0
:100160002EF048FE052EC4BF0020F8BDB8190EA21F
:10017000214690F84030284601B0BDE8F04036F006
:1001800063BD00BF706D20213D2052545F4E554C21
:100190004C0000005F72745F706D5F646576696328
:1001A000655F7265616400002564000080B553B12D
:1001B000107828B1012806D1C8B234F0D3FC02E08F
:1001C000C8B234F0ADFC012080BD000010B504467B
:1001D00020B9124812A14B222EF00CFEA06A017821
:1001E000232906D1E169814203D9E26A024491429E
:1001F00009D921A0214632F071F81EF07FF8F0F7FE
:1002000035FB18B1FEE72030814200D910BD0BA0AC
:100210002146BDE8104032F061B800BFC67305004A
:100220005F72745F7363686564756C65725F737425
:1002300061636B5F636865636B0000007761726E7A
:10024000696E673A20257320737461636B2069734C
:1002500020636C6F736520746F2074686520626F13
:1002600074746F6D206F6620737461636B206164BA
:1002700064726573732E0A007468726561643A254E
:100280007320737461636B206F766572666C6F7731
:100290000A0000007CB5069D00F1200604461430DB
:1002A0002EC6C4E90500184623212A4632F0D8FF9D
:1002B00004F120030FCB1A44154B043A31F054FAE1
:1002C000E061DDE90756202D04D312A01AA1962281
:1002D0002EF090FD00201C4AC4E9116684F83550C8
:1002E00084F8365021462346A063C4E91F0084F8F1
:1002F00034002063CDE9000004F14C0038F082F8AE
:100300001248016819B12046BDE87C4008477CBD11
:10031000897A04007072696F72697479203C205286
:10032000545F5448524541445F5052494F524954DA
:10033000595F4D41580000005F72745F74687265C8
:1003400061645F696E697400C17F04003C811220A2
:1003500050F8141F42684A6042681160C0E900000A
:10036000704780B5002003F0A9FF00200EF03AFE90
:10037000002012F079F90020BDE880401DF01ABB82
:1003800080B5012003F09AFF01200EF02BFE012022
:1003900012F06AF90120BDE880401DF00BBB00009F
:1003A000E0B590B1012006F0E3F8134801680120A0
:1003B000884701201FF034FB01202BF013FB664817
:1003C000016841F4807101608CBD684639F096F98E
:1003D000DDE900010844F0F72BFB002006F0C8F827
:1003E000054801680020884700201FF019FB002005
:1003F0002BF0F8FA8CBD00BFEC41122000207047B2
:100400000848074A01681160002101604FF0FF3180
:10041000C16070470248034900680860704700BF28
:10042000908312200C0005507CB500254A4C8DF8B5
:10043000065000B3B3484FF0FF31C0E900118160AE
:100440004583206840F00040206020680028FCD4EC
:10045000E0680DF107010DF1060240F48C50E060F8
:1004600001208DF807003F48036811209847A8B97C
:100470009DF8060016E03948394902680320904784
:10048000A0484FF0FF31C0E9001181604583E0686A
:1004900040F48C50E06001208DF807002EF0AAFA9D
:1004A0008DF8060060B12F4D0DF107010DF1050229
:1004B00012202B68984740B100208DF8050009E014
:1004C0004FF4807039F0D8F87CBD9DF80500002805
:1004D00018BF01208B4C2B6802260DF107018DF807
:1004E0000760207704F118022E20984710B14FF4CE
:1004F000C870208300202B680DF107010DF1020266
:100500008DF80760E0600D20984718B140F6C410E0
:10051000ADF802002B680DF107016A460E209847DE
:1005200010B10020ADF800000F4DBDF802002968A1
:100530008847ADF802002968BDF800008847BDF87B
:1005400002100A4BC0EA014280B21A60884238BFEA
:10055000084620617CBD00BF0000055034411220D8
:100560004D9304005C4D1220C84212203400074015
:10057000B0B588B001282CD0002857D1314D4D4C52
:100580002868002859D14CA02FF04AF9002828608B
:1005900056D0C18A0A054FF4006258BF4FF48062FA
:1005A000890540F2032158BF40F2031111442FF096
:1005B0009FFA28B1474942A040F2612238F006FD77
:1005C000286845492FF062FB286844492FF078FBE2
:1005D00033E01C4D002495F85C0070BB4FF40070B4
:1005E0008DF8044005901848CDE90300174807949A
:1005F00006901748029001A81AF08AF8411C286357
:1006000006D1204913A04FF42B722EF0F3FB286B78
:100610001AF0D8F828B11B491BA040F2AD222EF0E9
:10062000E9FB0120224C85F85C0006E0294A002104
:1006300040F2B623002438F0E7FC204608B0B0BDF5
:100640000024FAE7284E1220003C122009C30300C0
:1006500000FE072A4950435F51554555455F494EB5
:1006600056414C49445F48414E444C4520213D2071
:100670006D626F785F656E762E6970635F706F7202
:10068000740000003C7F050030203D3D2069706310
:100690005F71756575655F6F70656E286D626F78E7
:1006A0005F656E762E6970635F706F7274290000EB
:1006B000304E0500509D05007561727435000000D4
:1006C00052545F454F4B203D3D20726573756C74ED
:1006D000000000000C7F0500F1050500790605000B
:1006E00006480168C90205D0006805490840E44988
:1006F00048617047E2484069704700BF8401055077
:10070000FFFF1F009483122080B562481F49204AD2
:10071000204BC0E9003281601F490C3009688847CE
:100720002EF070F908B938F0B3FF002008F0C6FCCD
:1007300050480168002088471848006880474E48A4
:100740000168002088474A4801680020884738F03F
:100750009CFC4A48016800208847494801680020FD
:1007600088474848016800208847474801680020BA
:1007700088474648016800208847454801680020AE
:100780008847BDE8804002F0CDBD00BF1D1B0100C1
:10079000191C0100B91B010088421220904212204E
:1007A000B0B5044611480D46844204D3D14910A087
:1007B000B72238F00BFC2EF025F950B104EBC40041
:1007C00029680844C1B229603D21614301EB102032
:1007D000B0BD2EF00BF90546D5480068804705EB03
:1007E00045016043C900B0FBF1F0B0BD80841E003C
:1007F0006C706379636C6573203C2032303030302C
:100800003030000010B5F0F731F8044618480168A0
:10081000012088471AF052FA012008F04FFC1548D1
:10082000016801208847144801680120884713485F
:100830000168012088471248016801208847114853
:1008400001680120884710480168012088470F4847
:100850000168012088470E480168012088470D483B
:10086000C06880472046BDE81040F0F703B800BFDD
:100870000C4112202841122098421220E4421220FA
:1008800010431220FC421220D44212203443122082
:10089000A84212205C4D12202DE9FC41764E774D86
:1008A0007078FF2811D0C000022101FA00F0A96D74
:1008B0000843A8657078FF2807D0C000F02101FA2E
:1008C00000F0A96D21EA0000A8656D4C608BC0079F
:1008D00004D11AF00BFD002800F0C080694F386980
:1008E000C00600F1BB807078FF280AD0C00010213C
:1008F000F022814002FA00F0AA6D22EA00000843CB
:10090000A865608B00286DD17078FF280AD0C000E0
:100910002021F022814002FA00F0AA6D22EA0000B4
:100920000843A865684638F0E9FEDDE90012208B2F
:100930000123C2F51C72824238BF0223227F4FF48A
:10094000FA401944002A08BF4FF4C860A268531C3B
:100950000CD0531A8A1A23F0704322F07042B3F17C
:10096000006F88BF53429842A8BF184623685A1C9C
:100970000DD05A1ACB1A22F0704223F07043B2F114
:10098000006F88BF5A429042B8BF024600E002465C
:100990006368581C0DD0581AC91A20F0704021F015
:1009A0007041B0F1006F88BF48428242B8BF104624
:1009B00000E01046022815DB7178FF290AD0C90033
:1009C0003022F0238A4003FA01F1AB6D23EA0101E2
:1009D0001143A9652C490968884780462069013080
:1009E000804501D201203AE07078FF280AD0C0008B
:1009F0004021F022814002FA00F0AA6D22EA0000B4
:100A00000843A86512F06CF940B37078FF2807D04E
:100A1000C000022101FA00F0A96D21EA0000A865DA
:100A20004FF4805038F028FE184800688047A8F13D
:100A300001003860082028604FF0FF30E8607078CF
:100A4000FF2806D0C000012101FA00F0A96D08437B
:100A5000A8650F48806A804702200BE0002071786B
:100A6000FF2907D0C900022202FA01F1AA6D22EA89
:100A70000101A965BDE8FC81A04D12200C000550C4
:100A8000948312202C000740C4421220A04212205E
:100A9000684D122010B504462DF0B4FF68B10D4822
:100AA000844204D313490CA0FE2238F08FFAA0022E
:100AB000642190FBF1F0013810BD2DF097FF6043E9
:100AC00043F6982100FB01F4194800688047B4FB05
:100AD000F0F010BDFFFF3F0068735F636E74203C51
:100AE000202830784646464646464646203E3E202A
:100AF00031302900697E050010B504462DF082FFD3
:100B000030B10948094900EBC430B0FBF1F010BD29
:100B10002DF06CFF604300EB4000040104480068C6
:100B20008047B4FBF0F010BD3F420F0040420F0081
:100B3000B042122070B50546EFF798FE414E0446CC
:100B40003068854208D03F48294606F0E3FC02257C
:100B5000002818BF002507E0304606F03EFE30684A
:100B600008B138F033FF00252046EFF783FE284612
:100B700070BD00BF334806F09DBD00BF7CB5054683
:100B8000EFF774FE0446684638F0B8FDDDE9000171
:100B900001226FF078430026C1F51C71B1F5FA7F90
:100BA00098BF02220244686822F07041821A0091C4
:100BB00022F070429A42234A6E4B24BF6960084675
:100BC0001268314632B15668361A26F070469E4297
:100BD0001646F5D81B4819B12A4606F075FD04E003
:100BE000294606F057FE38F0F1FE2046EFF742FEA8
:100BF0007CBD00BF2DE9FE43124D01AC6FF078477C
:100C00000FF244080FF24409204638F077FD2E68B1
:100C1000B6B170680199081A20F07040B8420DD240
:100C2000284606F0DAFDB16811B130468847EBE797
:100C300040464946A82238F0C9F9E5E738F0C6FE33
:100C4000BDE8FE8398861220300000007363685F61
:100C5000616C61726D2E63002DE9FE43414C01A869
:100C6000276838F04BFDDFF80081404A98F82F00E4
:100C7000FF2806D0C000082101FA00F011680843DF
:100C800010609146B7B3387E7968394D394E081AED
:100C9000411901980A1A22F07042B24207D821F095
:100CA0007041814227D1B8680299814223D92046F8
:100CB00006F093FD014604F1180006F09FFD276839
:100CC000C7B1387E7968081A411901980A1A22F0CA
:100CD0007042B24207D821F0704181420BD1B8680E
:100CE0000299814207D9CE4923A040F2793238F0E7
:100CF0006DF900E000276FF070461E4DD7B1387EC9
:100D000079687040014401980A1A22F07042AA42A0
:100D100007D821F0704188420CD1B8680299884206
:100D200008D8204606F059FDC169606101B18847C5
:100D30002768E3E7A06908B138F0D0FCED48006807
:100D4000804798F82F00FF2809D0C000082101FA39
:100D500000F0D9F8001021EA0000C9F80000BDE851
:100D6000FE8300BFAC861220A04D12206400055007
:100D7000010000F0FEFFFF073000000010B5F24C4C
:100D8000204606F097FC04F1180006F093FC0020C2
:100D9000606110BD2DE9FE4F044600699F4AA0F234
:100DA0007121914205D39E4A002140F2032338F07D
:100DB0002BF9A068B0F51C7F05D9994999A04FF48B
:100DC000017238F003F99F489F4A90F82F00FF28DE
:100DD00006D0C000012101FA00F01168084310603C
:100DE000EFF744FD009001A838F088FCDDE901121E
:100DF000207E084402F57A7120F07042B1F51C7F24
:100E000003D9501CA1F27121F6E763688F4E1D1AB9
:100E100025F07045B54204D8934211D1A368994298
:100E20000DD9A38AB3F5804F21D3A36862608B42AA
:100E300013463EBF013020F07043636000E013466C
:100E4000B4F91400B0F1FF3F14DCD4E90301C21A75
:100E5000181A22F0704220F07040B2F1006F88BF83
:100E6000424240F27120B1FBF0F0824202DA4FF0D0
:100E7000010AAFE0DFF8D8914FF0000B0FF2D41A5F
:100E800000274FF000080025D9F81400D9F80060B9
:100E9000002818BF0646002E79D0A64205D1604929
:100EA00050464FF4167238F091F82046314638F02B
:100EB000B7FD05283FD0002869D0B27DA37DD9F8C1
:100EC000141093420DD98E420BD0B8F1000F40F0B0
:100ED000020008BFB046032853D00BF1010B374680
:100EE00029E0BC46A78AB7F5804F19D3D6E901019E
:100EF00032696FF41C734FF0000B00274FF00008AD
:100F0000114440F27122B1FBF2F202FB03111044D2
:100F1000A2688A4238BF013020F0704060600AE069
:100F200057464FF0010A934254D98E4252D10428B9
:100F300029D1BA466746B4F91400B0F1FF3F13DC7B
:100F4000D4E90312606840F27123B2FBF3F20B1A8A
:100F5000401A23F0704320F07040B3F1006F88BF57
:100F600043429342FFF683AF5FEA0B60284608BF17
:100F70003046D9F814108E4214BF05464E463668E6
:100F800089E7374603E0032867467FF470AFB8F17E
:100F9000000F0AD0484629463A4606F061FB09F19F
:100FA000180041463A4606F043FC294825B1294637
:100FB000224606F089FB05E0214606F06BFC4D4811
:100FC00000688047B8F1000F1CBF204638F0A2FD32
:100FD0004FF0000A0098EFF74DFC1A4C1A4B94F8AA
:100FE0002F00FF2817D0C0004FEA4A01022281409B
:100FF00002FA00F01A6822EA00000843186094F828
:101000002F00FF2807D0C000012101FA00F0196865
:1010100021EA000018605046BDE8FE8F1018060057
:10102000468A0500656C742D3E74696D652E687581
:1010300073203C2048414C465F534C4F545F53490A
:101040005A450000A04D122064000550FEFFFF0726
:10105000AC8612207363616E20213D20656C7400A4
:101060002DE9F041DFF8208905460E46ED4F98F84E
:101070002F00FF2806D0C000042101FA00F03968D3
:1010800008433860EFF7F2FB044605B32E48416988
:10109000A94213D0DEB90068854212D02A4E2946F3
:1010A000304606F037FA90B906F11800294606F0E6
:1010B00031FA0225002818BF002509E00025456106
:1010C00006E0214806F089FB0A48006880470025B1
:1010D0002046EFF7CFFB98F82F00FF2807D0C0007D
:1010E000042101FA00F0396821EA0000386028463E
:1010F000BDE8F081EC421220F8B5C94EC94D96F812
:101100002F00FF2806D0C000102101FA00F0296846
:10111000084328600C4F07F11804B86938B120461D
:1011200006F05BFB416A0029F7D08847F5E796F89F
:101130002F00FF2807D0C000102101FA00F0296815
:1011400021EA00002860F8BDAC8612200346012089
:101150000021002238F0B8BD5648002100F8081BD5
:1011600006F0A8BA01465348083006F0D3B900BFCC
:10117000F8B50446D0E900108142606137D24D4A8B
:10118000002302F108054FF0FF322D684DB1268A89
:10119000AF8AB742F9D06E680133964238BF324603
:1011A000F3E71B0616D0904216D200254FF0FF330E
:1011B00006468E4213D3EF0711D1B2FBF6F707FBB9
:1011C0001627002FB7FA87F708BF3346023E7F097C
:1011D0003D43EEE7A27C2AB1B0FBF2F353439942C0
:1011E00002D904E04FF0FF33834298BF63610020CF
:1011F00001212246002338F067FD60B1D4E90212D4
:10120000914209D2002000212246002301B0BDE80E
:10121000F04038F059BD0020F8BD00BFBFB504460E
:10122000C06830B922491AA040F2651237F0CEFEEC
:10123000E06801906B460022D4E901010090A08A89
:10124000ADF80C0002910120002138F03DFD194D50
:10125000032814D1686890B1A26981694AB1002954
:10126000214609D0817DA27D8A4228BF20460146C1
:1012700002E00029014602D0888A8969884705F181
:101280000800214604B0BDE8B04006F0B7BA00BF80
:10129000656C745F746F5F6164642D3E6475726128
:1012A00074696F6E5F6D696E20213D203000000013
:1012B000508A0500A04E12202DE9F84F5848594A8F
:1012C000807FFF2806D0C000022101FA00F01168DB
:1012D00008431060514EDFF8C0B64FF0000896F892
:1012E000005196F80101EFB2C0B2874258D038469B
:1012F00009F056FF044696F8020128B933485946CA
:1013000040F2771237F062FE06EB0719CA461AF868
:101310000C0F30B9204639465A464FF4BD7337F0AA
:1013200073FEE01E02283BD8D9F804304BB13801D7
:10133000221FD9F80810B2FA82F2305852099847A1
:1013400005E0234859464FF4CA7237F03FFEDF49A3
:1013500096F802018AF80080897F013886F8020138
:10136000FF290CD00001C900F022D94BC0B288403F
:1013700002FA01F11A6822EA01010843186096F89E
:101380000101002149B9E9B2814206D0691C01F08E
:101390000F0506EB0511097BF4E786F80051A2E77B
:1013A00096F8020118B94FF4007038F059F9C7489F
:1013B000C74A807FFF2807D0C000022101FA00F051
:1013C000116821EA00001060BDE8F88F6F8C0500FD
:1013D000868C050080B5BF484FF48271EFF7F8FBAB
:1013E000BA48807FFF2808D0C000F02101FA00F041
:1013F000B7490A6822EA00000860BA480A4900882A
:1014000008430021B1F5807F08BF80BD425A42F0F9
:10141000180222F0200242521031F3E7D88612203F
:10142000A04D122064000550000013202DE9F04F5C
:1014300085B00546A548A64A807FFF2806D0C00093
:10144000042101FA00F0116808431060A14C904695
:1014500094F801B194F80001ABF10101ABEB000786
:10146000686801F00F0631016158884205D19A4839
:101470009A494FF4E07237F0A9FD584607F00E077D
:1014800009F08EFE012804D0584609F089FE022892
:1014900007D194F80001914A594640F2C51337F03C
:1014A000B3FDB7F10E00049010D10BF10E0000F067
:1014B0000F0009F075FE0746304609F071FE874AB5
:1014C000014638464FF4E47337F0C2FD8448D5E94D
:1014D00000232F694FEA0B1A04EB0B1640EA0B119D
:1014E0008048B0F80090A86821F8093044F80A3024
:1014F0000124B0F51C7F49443473C6E90127C3F3C6
:101500000B424A8006D9754977A040F2D31237F0D2
:101510005DFDA868C0F51C77B8B2B0F5806F05D343
:1015200089497AA040F2F71237F050FD6C48694CB7
:10153000043040EA0A0020F80970E868B0F5004F6E
:1015400007D300F2712040F27121B0FBF1F00121CC
:1015500002E001300021400882B2584609F02EFE18
:10156000A97D687D1F236A7E1F2928BF19461F2871
:1015700038BF034643EA0120594B002A03F10A0110
:1015800041EA0A0121F809006DD1287F95F81780FA
:1015900008B16C7F00E0002418F0E00F06D06B4823
:1015A000694940F2233237F011FD4D4B04984FEA60
:1015B000082814F0FC0FB0FA80F706D0644862499E
:1015C0004FF4497237F002FD454B03F10C0144EA38
:1015D00008005A227E0941EA0A0121F8090009F2AD
:1015E0002F11287E21F0010110FB02102030470846
:1015F00040F34F00B0F1FF3F06DC5648524940F23D
:10160000212237F0E3FC364B981D40EA0A0020F80F
:101610000970297D1F2928BF1F21287F00282C48F9
:101620008046A87E01BF0022CDE900020292584602
:1016300007BF32460023EA7EAB7F1FBF01248DE83F
:1016400015005846324609F009FD224C1BF0F00FF8
:1016500005D0414841A141F6161237F0B7FC0BF115
:101660000040C8F89C0094F8011194F8020101317F
:10167000013001F00F0184F8020184F80111134CCC
:10168000A17FFF290DD00001C900F022C0B288401F
:1016900002FA01F1D8F8002022EA01010843C8F853
:1016A00000004FF4007037F0E7FFA07FFF2809D05B
:1016B000C000042101FA00F0D8F8001021EA00006F
:1016C000C8F8000005B0BDE8F08F00BFA04D1220A3
:1016D00064000550D88612205B8A0500BD8C050089
:1016E000020013209C2F0500706172616D732D3E06
:1016F00074696D652E687573203C2048414C465FC7
:10170000534C4F545F53495A450000002828287510
:10171000696E7431365F742966696E657374702002
:101720003C3C2030292026207E282875696E7431A3
:10173000365F7429307830303030303346462929CE
:10174000203D3D2030000000E78C05001B8B05008C
:10175000C28B0500378C0500FC8B05007265675F46
:10176000626C65636F72652E680000002DE9F041C0
:10177000DFF81482854D98F81E00FF2806D0C000BF
:10178000012101FA00F0296808432860804F97F88A
:101790000041204609F004FD012804D87D487E4917
:1017A000B62237F013FC97F8020120B97B487A493A
:1017B000BA2237F00BFC07EB0416307B20B97848CF
:1017C0007549BD2237F002FC736823B12001B1686E
:1017D00002223858984798F81E00FF2807D0C0000A
:1017E000012101FA00F0296821EA00002860BDE823
:1017F000F08100BF2DE9F84FDFF88CA1634A9AF819
:101800001E00FF2806D0C000082101FA00F0116870
:10181000084310605E4D95F8020128B95F485E49A3
:101820004FF4977237F0D2FB95F8004100274FF044
:10183000F00B95F80201002843D095F80111E6B2AB
:101840008E423ED005EB0618C14619F80C0FA0B326
:10185000304609F0A5FC06282FD1D8F8043033B162
:101860003001D8F8081004222858984705E0A0480D
:10187000494940F2431237F0A9FB95F8000186422E
:1018800002BF601C00F00F0085F8000189F80070AD
:1018900095F802019AF81E100138FF2985F8020117
:1018A0000BD00001394BC900C0B21A6888400BFA4E
:1018B00001F122EA010108431860601C00F00F04E6
:1018C000B7E748B101280BD195F80001013000F0CD
:1018D0000F0085F8010103E04FF4007037F0C0FEFF
:1018E0009AF81E00FF2808D0C0000821274A01FAF4
:1018F00000F0116821EA00001060BDE8F88F00BF19
:101900002DE9F041DFF88080204D98F81E00FF2877
:1019100006D0C000012101FA00F0296808432860C0
:101920001B4F97F80041204609F03AFC012804D8E3
:1019300018481949D52237F049FB97F8020120B918
:1019400016481549D92237F041FB07EB0416307BC6
:1019500020B913481049DC2237F038FB736823B1F3
:101960002001B16803223858984798F81E00FF28D4
:1019700007D0C000012101FA00F0296821EA000027
:101980002860BDE8F08100BFA04D12206400055022
:10199000D8861220888C0500BD8C05006F8C050050
:1019A000C88C0500012101FA00F053490A7A10435E
:1019B000087238F093BB00BF012101FA00F04E49D4
:1019C0000A7A22EA0000087238F088BB10B50122BA
:1019D000022802FA00F3484A147A43EA0403137215
:1019E00001D1D16005E0424842494FF4D27237F04C
:1019F000EDFABDE8104038F071BB00BF10B53E4CA9
:101A00000121022801FA00F1227A22EA0101217261
:101A100003D14FF0FF30E06005E03548354940F232
:101A2000CB1237F0D3FA38F059FB2068013018BFD9
:101A300010BD02480068BDE8104000475C4212201B
:101A40001CB52D4C402104F10800EFF7C1F84FF010
:101A5000FF3004F144020DF107012060E060022034
:101A60008DF80700064803681720984720B145F213
:101A7000E470A4F8440001E0B4F84400A0801CBD68
:101A80005C4D122010B5033801280BD81A4800EB22
:101A9000C10462610122238302FA01F10269114348
:101AA000016105E01248134940F20B2237F08EFA2B
:101AB000BDE8104038F012BB80B5033801280CD8BF
:101AC0000D48002300EBC1025361012202FA01F12B
:101AD000026922EA0101016105E00548054940F279
:101AE000362237F073FABDE8804038F0F7BA00BF0D
:101AF000868C0500F38C0500BC4E122010B5044600
:101B000047202CF071FA03492C30034AC4E9001035
:101B1000A26010BDEC690500010017002DE9F0413D
:101B2000724D0146287802280AD1481EC0B28F287B
:101B300008D301F170000224C0B21F2803D937E096
:101B4000012435E00124204639F07CFE48B1467876
:101B5000012C08D0022C04D105F5837805F2062764
:101B600005E0022424E005F1040805F582778119D7
:101B70003F880231A1EB08039AB2BA4205D8FA1A9B
:101B8000130402D092B2EEF7FCFFB81B861EB1B26E
:101B900018FA86F0C1F58071EFF71AF8022C04D01C
:101BA000012C08BFA5F8046101E0A5F80662002435
:101BB0002046BDE8F08100BFB0B50D4601464B4858
:101BC000144602780120022A17D101F17002002385
:101BD000D2B2202AA1F1010238BF0123D2B28E2A4B
:101BE00088BF580039F02EFE40B141782970811C21
:101BF00042782046EEF7C5FF0020B0BD0220B0BD00
:101C000010B50120012439F083FD3848047000200C
:101C100010BD00BF012070472DE9F041334C07464D
:101C20002078022819D1781E90460D46C0B28F2820
:101C300006D307F170000226C0B21F2801D90DE0BB
:101C400001263046394639F0FDFD50B1012E10D045
:101C5000022E02D104F206210DE001263046BDE835
:101C6000F081304639462A46434639F023FC064681
:101C7000F4E704F582714278AA4205D10230414668
:101C80002A46EEF77EFF13E007D209882944891A15
:101C9000B1F5807F01DD0326E0E706490778096892
:101CA00038468847304639462A46434639F002FCD2
:101CB0000026D3E74443122010B50C4C20780228AC
:101CC0001CBF012010BDB4F8041111B1221D012068
:101CD00005E0B4F8061221B104F58372022039F050
:101CE0008DFD03202070002010BD00BF2868122049
:101CF0000020704770B51C461546064620B91848A6
:101D0000094916222DF076F8F06E28B916480649D2
:101D100017222DF06FF8F06E00212A462346BDE809
:101D2000704035F019BA00BFBA93050070B51C4673
:101D30001546064620B90A480A4924222DF05AF8C9
:101D4000F06E28B90848074925222DF053F8F06EA7
:101D5000294600222346BDE8704035F0FDB900BF9A
:101D60001B930500E3930500A493050010B50446FA
:101D700020B9144814A1BB222DF03CF8A07E012804
:101D80001ED8218B4FF6FF6201F4806050408A0517
:101D900000EA010048BF20F4407011F4E06218BF6F
:101DA0002083010501D42AB90AE020F4106002F56D
:101DB00000622083206C1121406C436820469847C4
:101DC000002010BDB26B05005F7370696465765FBB
:101DD0006465766963655F636C6F7365000000001E
:101DE00000207047B0B50D46044620B9204821A117
:101DF0006D222CF0FFFF15F4007102D0E08A8005FF
:101E00000FD515F4006002D0E28A120509D5EA0563
:101E100002D5E28AD20504D56A0505D5E28A5205C3
:101E200002D46FF00700B0BD00294FF48073E9B20F
:101E300018BF4FF4007315F4407218BF1944218382
:101E400018BF1A4615F4406F09D04FF4806300287C
:101E500018BF4FF40063C8181A44208300E02AB169
:101E6000206C1021406C4368204698470020B0BD8C
:101E7000B26B05005F7370696465765F646576694F
:101E800063655F6F70656E0070B51C46154606464B
:101E900020B919480949F5222CF0ACFF306C20B963
:101EA00017480649F6222CF0A5FF304600212A46A5
:101EB0002346BDE8704035F04FB900BFCF93050011
:101EC00070B51C461546064628B90B480B4940F22A
:101ED00003122CF08FFF306C28B9094807494FF4E2
:101EE00082722CF087FF3046294600222346BDE847
:101EF000704035F031B900BF8D760500F9930500CB
:101F0000139305000020704700207047FEE74FF054
:101F1000FF3070470021032838BF01210846704771
:101F200010B50C490446EEF77DFE78B10A4920460B
:101F3000EEF778FE60B109492046EEF773FE0146E0
:101F40004FF0FF30002908BF022010BD002010BD57
:101F5000012010BD4B2A0500512A0500442A050026
:101F6000411EB0FA80F000224009022938BF012248
:101F70001043404270474FF0FF3070474FF0FF3042
:101F80007047B0B50D460146013801280DD81446FA
:101F90002DF030F978B12DF02DF94FF0FF312A46B0
:101FA00023462DF0E1FE0020B0BD0020002908BF2F
:101FB0004FF0FF30B0BD4FF0FF30B0BDE0B58DF851
:101FC00007000DF1070030F089F98CBD70B50446AB
:101FD000406CB8B1218ACA0717D188071AD5EEF725
:101FE00045FC04F114060546304636F0EFFA30465B
:101FF00036F0B8F9208A20F0020020822846EEF759
:1020000039FC07E06FF015050EE0214636F0A2FD21
:10201000054648B9EEF72AFC218A0025656421F0BF
:1020200001012182EEF726FC284670BDF8B50E4668
:102030000446EEF71BFC0546308AC0071BD1A0689A
:10204000B04218D0304630F0A8F9D4E90107016851
:1020500031604E60318A06607060284641F00101AF
:102060003182EEF707FC27B9E06A35F099FE33F0CC
:1020700095FC0020F8BD2846EEF7FCFB6FF006004B
:10208000F8BD0000044620B91C481DA139222CF0DF
:10209000B1FE04F10C054FF000082068A04205D104
:1020A00035F0C0FE35F04CFF33F078FCEEF7DEFB88
:1020B00027680646384630F070F9388AA76020F065
:1020C000010038823046EEF7D5FBD7E902213846C9
:1020D0009047EEF7CBFBC4F80880EEF7CBFB2DF072
:1020E000A9FE284633F0F6FE023003D1284633F02D
:1020F0002BFEF6E72EF0F8F8CFE700BF3794050087
:102100005F776F726B71756575655F746872656115
:10211000645F656E7472790070B50E4603211C46CB
:10212000154618F067FF4461C0E9016570BD000005
:10213000F8B51D460C4617490C9B16460746542019
:102140000022FFF7E9FF0A9900F131020C2380F821
:102150004F10C0E909650999C0E907710B998161C0
:10216000079980F850100699818508995D1C04D064
:10217000E55C013B02F8015BF8E790F8512002F0C2
:10218000E0021144123180F85110BDE8F84000F02F
:1021900003B800BFB12201002DE9FC41044690F8CC
:1021A000510000F0100182070ED400294FF0000109
:1021B00025464FF0000004BF94F82E10013105F8B9
:1021C0002F1F6870012061E0A9BB04F13F054007A3
:1021D0005DD594F82E006FF00101102601EB00117F
:1021E000002808BF0E2608BF0101B0FA80F08FB2A8
:1021F0004FEA50104FEA400869B994F84F000DF1CA
:1022000006022946022340BAADF8060000200090DD
:10221000284600F012F994F84F00216ACDF80080AA
:10222000C01BCA192946B042B8BF0646F3B22846B9
:1022300000F003F92BE094F83E0094F84F1094F866
:1022400050200225002918BF012100F03F0040EA7C
:102250008110911E124A91FBF5F184F83E00114263
:102260000BD010A23820CE2336F0CEFE94F85010BA
:1022700094F83E00023991FBF5F100F0C000A28D08
:10228000254640EAC10025F82F2F0130E873E169A7
:1022900020462A4602B0BDE8F04100F0AFBB00BFC7
:1022A000F8FFFF1F6165735F63636D2E63000000BD
:1022B0002DE9FC4190F8516004460D46B00724D446
:1022C000F0063AD494F82E00A28D411C0B01102187
:1022D000934288BFA2EB0011D4E9092302EB001757
:1022E00003EB0018F00750D1CEB2404639462A46DB
:1022F000334600F0B5F8002042463346009004F122
:102300003F00014600F099F84FE004F13F002946F4
:102310001022EEF736FCF00628D494F82E00710750
:102320004FD406F0FD0184F85110A18DB1EB001FD0
:102330007DD806F0E500103077E0F00753D1A08D8E
:10234000616A94F8503004F14E02084405F10F011F
:10235000002B5CD010F8015B11F80169013B75405E
:1023600012F80169AE42F3D0012051E006F0EF000F
