:020000040000FA
:1000000004FC4E20D50700000000000000000000A6
:1000100000000000000000000000000000000000E0
:1000200000000000000000000000000000000000D0
:1000300000000000000000000000000000000000C0
:1000400000000000000000000000000000000000B0
:1007C000DFF80CD000F060FE00480047C5150000BF
:1007D00004FC4E2000488047F5EE0300EFF3108044
:1007E00072B6704780F31088704740BF644A136840
:1007F000012B04D04FF001031360624A1060624A7B
:10080000116062484FF0805101607047EFF3108231
:1008100072B65B48016851B34FF00001016059485E
:10082000016891B1EFF309811EF0100F08BF21EDAF
:10083000108B21E9F00F4FF000041EF0100F08BFDD
:10084000012441F8044D006801604F4909680968B6
:1008500008C9B1E8F00F002B18BFB1EC108B81F381
:1008600009884EF0100E002B18BF2EF0100E82F3E8
:1008700010884EF0040E704745484FF47F01D0F8C1
:10088000002041EA0201016070473F490860EFF330
:10089000148222F0040282F314883A494FF00000D7
:1008A000086037494FF00100086039484FF47F0174
:1008B000D0F8002041EA0201016034484FF0805135
:1008C000016034480068006880F3088861B662B649
:1008D000704720BF70471EF0040F0CBFEFF3088075
:1008E000EFF3098020E9F00F40F804ED40F804ED43
:1008F0001EF0040F0CBF80F3088880F3098800B550
:100900007CF0C8FA5DF804EB4EF0040E70471EF060
:10091000040F0CBFEFF30880EFF3098020E9F00F1C
:1009200040F804ED40F804ED1EF0040F0CBF80F316
:10093000088880F3098800B57CF006FC5DF804EBBC
:100940004EF0040E704710B4EFF3038410B47C46ED
:1009500010B400B54DF804CD0FB4089C2DE9F00F8C
:1009600000B568467CF0EAF901BCBDE8F00F0FBCA9
:100970005DF804CB5DF804EB10BC10BC10BCFEE7C6
:1009800040F04E2090ED4E2094ED4E2004ED00E01E
:1009900020ED00E008ED00E02DE9F05F05460020C5
:1009A00092469B4688460646814640241BE02846E0
:1009B00041464746224600F07CFB53465A46C01A41
:1009C000914110D311461846224600F063FB2D1AC0
:1009D00067EB01084F4622460120002100F05AFB38
:1009E00017EB00094E41201EA4F10104DFDC48464C
:1009F00031462A464346BDE8F09F00000649074AB3
:100A00000868504343F239021044086040087047B8
:100A1000014908607047000000C04E206D4EC6417D
:100A200038B5D0E90221491E01EB410102EBC101B9
:100A30004268C1EB011102EB81010268C1EB0111B7
:100A400002EB8102D0E9043101EB410103EB8101AA
:100A50003023A1F5527191FBF3F4174D6C4302EB77
:100A6000C41291FBF3F403FB141100921A2902DB68
:100A7000124B1A4400920C2291FBF2F3104C634388
:100A8000009C04EBC313009391FBF2F302FB1311E0
:100A90000C4A08E0491E40F2A324535C6343009CC7
:100AA00004EBC31300930029F4DC0146684600F010
:100AB00029FB009838BD00003F0C0F008051010059
:100AC00067C20300D800090010B500F015FBBDE8AF
:100AD000104000F05DBB10B5431A934209D2831851
:100AE000881803E010F8011D03F8011D521EF9D209
:100AF00010BD40EA01039B0703D009E008C9121F9B
:100B000008C0042AFAD203E011F8013B00F8013BC7
:100B1000521EF9D210BDD2B201E000F8012B491EDD
:100B2000FBD270470022F6E710B513460A4604468A
:100B30001946FFF7F0FF204610BD421E12F8013F94
:100B4000002BFBD111F8013B02F8013B002BF9D13E
:100B5000704710B5044604E00B7800F8013B03B180
:100B6000491C521EF8D2204610BD421C10F8011B31
:100B70000029FBD1801A704710B5002200E0521CFA
:100B8000835C8C5CA34201D1002BF8D1D8B2E1B2D6
:100B9000401A10BD30B504460020034600E05B1C3F
:100BA000934203D2E05CCD5C401BF8D030BD0346DD
:100BB00011F8012B00F8012B002AF9D118467047D3
:100BC00030B505460020034600E05B1C934205D289
:100BD000EC5CC85C201A01D1002CF6D130BD00229B
:100BE000CBB20178994200D10246401C0029F8D1CD
:100BF0001046704770B506468FF0B0F90468054698
:100C00000A220021304600F021FB2C6070BD2DE946
:100C1000FE4F804681EA0300C00F0C46009021F091
:100C2000004123F00045B8EB0200A94105D240463F
:100C3000214690461C460B46024623F000401043D6
:100C400047D0270DC7F30A00C3F30A510290401A98
:100C5000019040286BDAC3F3130040F4801B009826
:100C6000924620B10023D2EB030A63EB0B0B0198F1
:100C70005946C0F14002504600F00CFA06460D46B7
:100C800050465946019A00F024FA10EB08006141E1
:100C9000002487EA115284EAE7731A4340D0009A8D
:100CA00062B3019A012A4FEA075215DC001B61EB7F
:100CB00002014FF0004202EA0752CDE90042001C57
:100CC00041F5801132462B4600F03EFB03B0BDE8F3
:100CD000F08F40462146F9E7001B61EB0201001C42
:100CE00041F5801300185B412018A2F5001747EB6F
:100CF000030140EAD570B6196D4111E06D084FEA65
:100D0000360645EAC0754FEA0752001B61EB020147
:100D1000001C41F5801149084FEA3000001951418B
:100D200032462B4603B0BDE8F04F00F0FEBA009803
:100D3000012240000023D0EB020263EBE073009835
:100D400021464FEAE074B8EB000061EB0401E9E7EB
:100D500083F000435BE781F0004158E72DE9FE4F47
:100D600081EA030404F0004421F0004100944FF0B4
:100D7000000B23F0004350EA01045ED052EA030462
:100D80005BD0C3F30A54C1F30A552C44A4F2F334E4
:100D90000194A0FB0254C1F3130141F48011C3F389
:100DA000130343F4801301FB024400FB034E840A47
:100DB000970A44EA815447EA8357A4FB07680295DF
:100DC0008D0A05FB07854FEA932C04FB0C5427057D
:100DD000029D4FEA065847EA1637B5EB08056EEB59
:100DE000070C870E920E47EA811742EA8312A7FB8F
:100DF0000201B6EB0B0164EB00042B0D43EA0C334C
:100E00005E1844EB1C50DA465146E7FB0201C5F37D
:100E100013044FEA0B3343EA14534FEA0432019CA4
:100E200043EA0603A4F10C040294009CCDE900B44B
:100E300000F08AFA03B0BDE8F08F00200146F9E720
:100E40002DE9F04D81EA030404F0004B21F0004548
:100E500014464FF0000A23F0004150EA050220D06A
:100E600054EA01021DD0C5F30A570246C5F3130325
:100E7000C1F31300C1F30A5640F4801543F4801304
:100E8000A7EB0608101BD64608F2FD3873EB0500E9
:100E900002D308F1010801E092185B41B8F1000F9C
:100EA00003DA00200146BDE8F08D00204FF48011E8
:100EB000064684460EE0171B73EB050705D3121B8D
:100EC00063EB050306434CEA010C49084FEA300086
:100ED00092185B4150EA0107EDD152EA030012D0AB
:100EE00082EA040083EA0501084305D0101BAB41E8
:100EF00006D20122002306E000224FF0004302E068
:100F00006FF0010253101AEB06004CEB085110EB86
:100F10000A0041EB0B01BDE8F04D00F006BA30B518
:100F2000041E71F1000404DB4FF00044404264EB06
:100F30000101141E73F1000405DB1C464FF0004351
:100F4000524263EB0403801A994101D3012030BD62
:100F5000002030BD30B5041E71F1000404DB4FF0F9
:100F60000044404264EB0101141E73F1000405DBF0
:100F70001C464FF00043524263EB0403101A8B41AE
:100F800001D2012030BD002030BD30B5041E71F10A
:100F9000000404DB4FF00044404264EB0101141EE6
:100FA00073F1000405DB1C464FF00043524263EB33
:100FB0000403101A8B4101D3012030BD002030BD45
:100FC00030B5041E71F1000404DB4FF000444042D0
:100FD00064EB0101141E73F1000405DB1C464FF0A5
:100FE0000043524263EB040342404B401A4301D09A
:100FF000002030BD012030BD70B5C1F30A5201F0B0
:1010000000450024C1F3130140F2FF3341F4801185
:101010009A4201DA002070BD40F233439A42A2F2B4
:10102000334203DC524200F044F800E090402C438D
:10103000F1D0404270BD00F0004230F000400AD0D4
:10104000C10D01F56071C0F3160042EA0151C208FA
:1010500040071143704700200146704701F00043EC
:1010600030B421F0004150EA010206D00A0DA2F589
:101070006072C1F31301002A02DC30BC002070470B
:10108000440F44EAC104C100E01830BC00EBC25078
:1010900000F014B9202A04DB203A00FA02F1002003
:1010A00070479140C2F1200320FA03F319439040A6
:1010B0007047202A04DB203A21FA02F00021704711
:1010C00021FA02F3D040C2F12002914008431946B0
:1010D0007047202A06DBCB17203A41FA02F043EA98
:1010E000E07306E041FA02F3D040C2F120029140E1
:1010F0000843194670470000014900F003B800009A
:1011000068C34E2010B500683C22B0FBF2F302FB2E
:101110001303B0FBF2F00B60B0FBF2F302FB13031E
:10112000B0FBF2F018224B60B0FBF2F302FB1303AA
:10113000B0FBF2F0021D8B600723B2FBF3F403FB5C
:101140001422800040F2B55300F66C308A61B0FB87
:10115000F3F2B0FBF3F403FB1400443280084A615D
:10116000C8613B2802D3920700D0401C0022074CE4
:1011700013460A61E25C824203D8801A5B1C0B6151
:10118000F8E7401CC860084610BD0000E4000900F4
:10119000F0B52A4B2A4C85B00021826902EB42024D
:1011A0000A44491CA25C03F8012B0329F5DB244CFB
:1011B0004FF0200C002103F801CB1534026902EB3B
:1011C00042020A44491CA25C03F8012B0329F5DB07
:1011D000C1680091816801914168029101680391A1
:1011E000406918A200F26C706C460A27049017E060
:1011F00003F8010B12F8010F08B1022500E00425E5
:1012000002CC284607E091FBF7F607FB161691FB88
:10121000F7F130361E54061EA0F10100F3DC2B441A
:1012200010780028E4D11F7058700448017A3029E2
:1012300001D180F808C005B00048F0BD94C34E202D
:10124000F000090020203A3A200000002DE9F04784
:1012500091460F4680460446002614F8015B2DB1E6
:1012600000F024F90068405DC007F6D12B2D02D0B4
:101270002D2D18D0641E4A463946204600F01AF932
:1012800027B13968A14201D1C7F8008071054FF03C
:1012900002040BD54042002803DD8EF05FFE04609F
:1012A000A007BDE8F08746F48066E4E70028F8DA96
:1012B0008EF054FE04606FF00040F2E70029A8BFF2
:1012C0007047401C490008BF20F00100704710B46F
:1012D000B0FA80FC00FA0CF050EA010404BF10BC24
:1012E000704749B1CCF1200421FA04F411FA0CF151
:1012F00018BF012121430843A3EB0C01CB1D4FEA8A
:1013000000614FEA102042BF002010BC704700EB84
:10131000C35010440029A4BF10BC7047401C4900B2
:1013200008BF20F0010010BC704710B5141E73F107
:10133000000408DA401C41F1000192185B411A4395
:1013400001D120F0010010BD2DE9F04D92469B46E1
:1013500011B1B1FA81F202E0B0FA80F22032904687
:10136000FFF798FE04460F4640EA0A0041EA0B01E7
:1013700053465A46084313D0114653EA010019D088
:10138000C8F140025046FFF794FE05460E4650460F
:1013900059464246FFF77EFE084305D0012004E08F
:1013A00020463946BDE8F08D0020054346EAE07648
:1013B0002C4337430A986305E40AA0EB0800002297
:1013C000FD0A44EA47540A3002D500200146E9E705
:1013D000010510196941DDE9084500196941BDE8B9
:1013E000F04DA2E72DE9F04D00231A461B1A8A4161
:1013F00003DB00200146BDE8F08DC1F30A52C1F3C2
:10140000130141F480154FF0000BD10702D10018F1
:101410006D41521E0027044640F2FF11384601EB91
:10142000620A3E468046024600204FF48011FFF7D4
:1014300040FEC2197141BB1846EB0100B4EB030C2E
:1014400075EB000C04D3E41A65EB000517460E4655
:10145000241908F101006D4180463428E3DDF919B3
:1014600046EB0600091BA84103D24FF0FF3213469A
:1014700001E0002213461BEB070046EB0A51BDE8D2
:10148000F04DFFF752BF0000064C074D06E0E06844
:1014900040F0010394E8070098471034AC42F6D3BB
:1014A000FFF792F960CB090080CB09000048704734
:1014B000AC0109002DE9F05F82460078002715464F
:1014C0008B460AF10104B946302801D09DB113E0E2
:1014D00014F8010B0127782803D0582801D045B112
:1014E0000AE00DB1102D07D10027102514F8010BCB
:1014F00002E0082500E00A250026B0460EE005FBC4
:10150000080005FB06F1012701EB10461FFA80F8E1
:10151000B6F5803F00D3B94614F8010B294600F018
:1015200018F80028EBDABBF1000F05D00FB1641EEC
:1015300000E05446CBF80040B9F1000F06D08EF021
:101540000DFD02210160C81EBDE8F09F48EA06407B
:10155000FAE73A2800D2303820F02002412A01D39D
:10156000A2F13700884201D34FF0FF30704770B5C9
:101570008C1810F8015B15F0070301D110F8013B3E
:101580002A1106D110F8012B03E010F8016B01F8C5
:10159000016B5B1EF9D12B0705D40023521E0DD41D
:1015A00001F8013BFAE710F8013BCB1A921C03E06B
:1015B00013F8015B01F8015B521EF9D5A142D8D3A3
:1015C000002070BD80B584F0C6F9002080BD70B5E4
:1015D000002208230024002B0FD450F8235051F888
:1015E0002360641942F10005A41940F8234045F135
:1015F0000004013B04F00104EDE7BDE8704088F011
:10160000EBB9F8B51446002208230025002B0FD4AF
:1016100050F8236051F82370AD1942F10006ED191E
:1016200044F8235046F10005013B05F00105EDE7C4
:10163000204688F0D1F90020A062F8BD10B514460C
:10164000FFF7DFFFA06A20B12046BDE8104000F0A0
:101650000DB84149204631F0D7FA28B13E4920461D
:10166000BDE810400FF0FEB910BD00BFB0B58CB0A2
:10167000044601AD384821462A460FF08CF9204631
:1016800029462422FFF727FA0A990020C4E9091005
:101690000CB0B0BDF0B58BB00446806A00B32E4DDF
:1016A0002046294631F098FA80B308200021002214
:1016B00000283AD455F8206054F82030B718921911
:1016C00041F100069A1AA3EB070771EB060244F8F2
:1016D0002070A0F101004FF0000238BF0122E7E7BF
:1016E0001D4A00200821002300291ED454F821504F
:1016F00052F821605B1940F100059B1944F8213034
:1017000045F10003013903F00103EDE76D4612488E
:1017100021462A460FF03FF9204629462422FFF7AA
:10172000DAF909990020C4E90910002000210929EB
:101730000BD054F821205FEA50004FEA320044F801
:10174000210002F001000131F1E720460BB0BDE8B5
:10175000F04088F041B900BF5414090010B5234C83
:1017600015204FF4A27130220023A047142040F22C
:10177000431130220023A0473220EC210022002315
:10178000A0472C204FF49E7130220023A0472B202D
:1017900040F23B1130220023A04719204FF4A071E2
:1017A00030220023A047182040F23F1130220023AE
:1017B000A047372040F24F1130220023A0473620A7
:1017C0004FF4A87130220023A047232040F251118A
:1017D00030220023A04724204FF4A9713022002397
:1017E000A04703483421016010BD00BFD5A400000C
:1017F0000CB00050704770477047F0B585680468BA
:10180000D0E911600127102D00F01C0007FA00F04C
:1018100070600846636008BF1046A06008BF0A46B3
:10182000E260F0BDF0B597B007AC01AD07AE0FC4F4
:101830001D98314613ACADF818001C98224605904F
:1018400021980490209803901F9802901E98019070
:1018500028460DF0F6F92846214622460DF00FFDE8
:101860000FAD05A829460DF0F3FA204629462A4671
:101870000DF0DCF90BAF304639460DF03BFC284645
:10188000394622460DF00AFADDE92220002104291A
:1018900003D0635C53540131F9E7211D00220C2A67
:1018A00004BF17B0F0BD8B5C83540132F7E7B0B5CD
:1018B0008EB002AC0FC4139900220AAB149CADF891
:1018C00004101299009102A901310F2A03D09854F3
:1018D000885C0132F9E780F0060006AD8DF837002C
:1018E000684629460DF0B4FA0AA9284622460DF0AA
:1018F000D5F90EB0B0BDF0B593B007AC0FC41999CF
:1019000001ABDDE91E42ADF8181018992546059186
:101910001D9904911C9903911B9902911A990191A7
:101920000FA90E462DB113F8017B013D06F8017B8E
:10193000F8E70D19002605AFA319052E98BF102B47
:1019400003D2BB5DAB550136F6E700241D46102DD2
:1019500008D20E5D4E551E1B0135013E18BF661C98
:101960003446F4E707A900240BAD01310F2C03D056
:101970002855085D0134F9E758400FA98DF83B0060
:101980000BA80DF08BF913B0F0BD70B598B008AC92
:1019900014AD0FC41E9808A92A4601AC07901D98E3
:1019A00006901C9805902298049021980390209806
:1019B00002901F98019020460DF043F920462946D9
:1019C0002A460DF05CFC239C002005A910AA0023E8
:1019D000102B08D00D5CD554451C0133B5F10C001B
:1019E00018BF2846F4E710AD14A829462A460DF082
:1019F0001DF90CAE08A831460DF07CFB2846314697
:101A000022460DF04BF918B070BD00002DE9F041F1
:101A1000A6B02C9E98461F230DAD05AF5C1C07D0C9
:101A2000C45C05F8014BCC5C013B07F8014BF5E7C2
:101A30000F2001A9431C04D0135C013801F8013BBD
:101A4000F8E715AD0DA920222846FFF744F805F167
:101A5000200005A92022FFF73EF898F80000802119
:101A60002A464FF402738DF8940001A80CF096F901
:101A700072490F20421C04BF26B0BDE8F0810A5C09
:101A8000013806F8012BF5E72DE9F041A0B0DDE9BA
:101A900026ECDDF8A0800F2710AD0CAE7C1C07D023
:101AA000CC5D05F8014BD45D013F06F8014BF5E72D
:101AB00005210DF12A0209AD4C1C09D01EF8014088
:101AC00002F8014B1CF80140013905F8014BF3E71E
:101AD000D91C002208AB042A04D011F801499C54F7
:101AE0000132F8E71F216A464B1C04D0435C0139E0
:101AF00002F8013BF8E710AB14AC0FCB0FC40CABF2
:101B00000FCB18AC0FC4089814AA4FF480714FF48F
:101B1000C0731C90BDF82E00ADF87800DDF82A00E7
:101B20001D90BDF82800ADF87E000998CDF87A0028
:101B300068460CF033F941490F20421C04BF20B025
:101B4000BDE8F0810A5C013808F8012BF5E700BF19
:101B50002DE9F047A8B0DDE932E9DDE930C80F250D
:101B60000DF1500A10AF0CAC6E1C0AD04E5D0AF895
:101B7000016B565D07F8016B5E5D013D04F8016B7A
:101B8000F2E705210DF12A0209AB4C1C09D018F827
:101B9000014002F8014B1EF80140013903F8014BE6
:101BA000F3E702210DF121024B1C05D01CF8013096
:101BB000013902F8013BF7E71F210DF101024B1C2F
:101BC00004D0435C013902F8013BF8E714AB18ACD0
:101BD0000FCB0FC410AB0FCB1CAC0FC40CAB0FCB97
:101BE00020AC0FC49DF8230018AA4FF480714FF465
:101BF000FC738DF89200BDF82100ADF89000BDF89F
:101C00002E00ADF89700DDF82A00CDF89300BDF85E
:101C10002800ADF89D000998CDF899000DF101005C
:101C20000CF0BCF805490F20421C04BF28B0BDE8E9
:101C3000F0870A5C013809F8012BF5E7A0C84E20AF
:101C400070B5174A904204D0164A90420CD1062231
:101C500000E008224C78A24206D34A68930704BFEA
:101C60008B685FEA837501D0012070BD78258E787E
:101C700005EAC4040D78C97865F34A2405F0030524
:101C800001F0010144EAC51444EA410106F00104EF
:101C900041EA8401016042608360002070BD00BFA2
:101CA0000070024000E001502DE9F04FADF5277DB6
:101CB0000E460546104684211446FEF733FF9CA8C5
:101CC0002C21FEF72FFF91A82C21FEF72BFF86A8D1
:101CD0002C21FEF727FF7BA82C21FEF723FF70A8FD
:101CE0002C21FEF71FFF65A82C21FEF71BFF5AA829
:101CF0002C21FEF717FF4FA82C21FEF713FF44A855
:101D00002C21FEF70FFF39A82C21FEF70BFF2EA880
:101D10002C21FEF707FF23A82C21FEF703FF2846FE
:101D20000CF092FB074630460CF08EFB17B120B149
:101D3000C74803E050B1284600E03046214600F095
:101D4000C3F800200DF5277DBDE8F08F3046294609
:101D500006F12C0705F12C0A78F05FF8002800F056
:101D6000978005F15809DFF8E0B29CAA384606F1E1
:101D700058084946D84791AA50464146D84786AFA9
:101D8000304649463A46D8477BAE28464146324619
:101D9000D8473846314678F040F8002800F088806F
:101DA00004F15800A74D91A970AA019004F12C00EC
:101DB00000909CA8A84765AF86A87BA93A46A8478B
:101DC0004FAA48464146D84718A82C21FEF7AAFE3C
:101DD0000DA82C21FEF7A6FE0DF1080A2C21504675
:101DE000FEF7A0FE44AE384639463246D84739ADF4
:101DF000304639462A46D8470DF1B80870A8014642
:101E00004246D8470DF18C0930467BA94A46D8474F
:101E10004846022152460DF097FB18AE40464FA9A6
:101E20003246D84729460DADDFF8188230462A469B
:101E3000C0475AAE284651463246C047384631461A
:101E40002246D84718AF2C213846FEF76BFE0DAC62
:101E50002C212046FEF766FE02AD2C212846FEF717
:101E600061FE484631463A46C04770A83946224688
:101E7000D84739AE91A92A463046D847009A20461D
:101E80002946C047019A30464FA9D847012059E753
:101E90003846514677F0C1FF00287FF449AF306DD6
:101EA00001283FF65EAFF06C00287FF45AAF3FE7A1
:101EB0009CA891A977F0B1FF00287FF439AF28469C
:101EC000214600F025F83CE7B0B505460C4608462B
:101ED00024222946FEF7FFFDD5E909012422C4E9A1
:101EE000090104F12C0005F12C01FEF7F4FDD5E900
:101EF00014012422C4E9140104F1580005F1580129
:101F0000FEF7E9FDD5E91F01C4E91F01B0BD0000DE
:101F10002DE9F04FF9B00646006D8B46012801D837
:101F2000F06C18B130460CF08FFA20B14848594691
:101F3000FFF7CAFF81E006F1580563AC304606F1B1
:101F40002C0729462246FFF779FB0DF5B0783D4B6B
:101F500030462946424698470DF59A79DFF8E8A0C1
:101F6000204641464A46D0470DF5DC78374B484677
:101F70000321424698470DF5C679384629464A4618
:101F8000D0474DAC384649462246D04758AA30463D
:101F900021461646D04742AC404641462246D047ED
:101FA00037ADDFF8A880304608212A46C0474DAE3D
:101FB000244B204629463246984742AC3046494693
:101FC0002246D047204602215A46C04737AC384601
:101FD000394646462246D04742AD484649462A46FB
:101FE000D0470DF1B00820462946A9464246D047C1
:101FF00021AD404608212A46B04716AC58A8042116
:102000002246B047B0460BAE0E4F20464DA9324691
:10201000B8476C466EA831462246D0470BF12C02D9
:1020200020462946B84737AC484663A92246D047E0
:102030000BF1580220460821C047002079B0BDE8C6
:10204000F08F00BFD909010081F5000049F50000BB
:102050003C170900F0B58BB0184F054614460E46E4
:10206000F87DFF2809D015F071FBF97D1022C90019
:1020700002FA01F1084315F077FB05F158006946B3
:1020800014F026F9F87DFF2809D015F05FFBF97DE3
:102090001022C90002FA01F1884315F065FB6F4672
:1020A0002846324639460DF06BFA05F12C003946C8
:1020B00022460DF065FA0BB0F0BD00BF64C54E209E
:1020C00010B5094B4024984208BF60248C4291BF50
:1020D000002001F01F0313806FF07C0284BF02EA2E
:1020E0008101084410BD00BF00000840E04B0268B9
:1020F000984208D0DF4B984205D0E04B98421CBF75
:10210000DF4B984213D14B6822F070021A430260F1
:102110000A688B68C3628262954A904202D0954AEF
:10212000904201D1C9680163012141617047D24BDE
:102130009842E8D0EBE700BF10B50123046A8B405A
:1021400002FA01F124EA03030362026A1143016205
:1021500010BD10B5C46A012184F83610E2698242CC
:102160000DD0216A814207D0616A814206D0A16AFE
:10217000814205D1082102E0022100E004212175FD
:10218000204603F0C5F90020207510BD10B5C46AC3
:10219000E16981420AD0216A814209D0616A8142A3
:1021A00008D0A16A814207D1082004E0012002E0A2
:1021B000022000E004202075204603F0AAF9002048
:1021C000207510BD10B5C46A012184F83610E2698B
:1021D00082420DD0216A814207D0616A814206D0D5
:1021E000A16A814205D1082102E0022100E0042118
:1021F0002175204603F02DFF0020207510BDC06A18
:10220000012180F8361003F071B9C06A012180F80D
:10221000361004F057B80000F0B5026A404E22F0C4
:10222000010202620B688A68046A24F002042243F5
:102230004468856935402B434D4DA84202D04D4D31
:10224000A8420BD1D1E90567CD6824F4407422F08F
:102250000C02344325F004052A433C434460836167
:10226000496841630262F0BDF0B5026A3F4E22F058
:10227000100202620C688A68036A23F0200343EAB2
:10228000021243688569354045EA0424384DA84266
:1022900002D0384DA8420FD1D1E9056723F440633D
:1022A000CD6822F0C00243EA86036FF0400606EADA
:1022B000051543EA87032A434360846149688163C3
:1022C0000262F0BDF0B5026A154E22F4807202621D
:1022D0000C688A68036A23F4007343EA02224368A5
:1022E000C56935402C43224DA84202D0214DA84259
:1022F0000FD1D1E90567CD6823F4405322F4406241
:1023000043EA06132D0240F2FF46B54343EA0713A2
:102310002A434360C4614968C1630262F0BD00BFE3
:10232000FCFF0FFF70B5026A104E22F48052026269
:102330000C688A68036A23F4005343EA0232436854
:10234000C569354045EA0424094DA84202D0094D2B
:10235000A84204D14D6923F4804343EA85134360C6
:10236000C46149680164026270BD00BFFFFCFF0FD9
:102370000040024000300240B0B500681D4B82684A
:102380001A40D1E9003424F470252A431A438260AC
:102390006FF0030202EB3412032A2AD8DFE802F0BE
:1023A0000210171E026A036A23F00103036209691F
:1023B000836923F0F00343EA011181610262B0BD39
:1023C0008B680A691946BDE8B04000F015B88B6803
:1023D0000A691946BDE8B04000F054B8D1E90223BB
:1023E00009691A4342EA0121826822F47F421143BB
:1023F0008160B0BD8FFFF0FF10B5036A046A24F05E
:1024000001040462846924F0F00444EA0212826147
:1024100023F00A021143016210BD000070B5046A86
:10242000134EB04224F0010404628569046A08D0A6
:10243000104EB04205D0104EB04202D00F4EB04206
:102440000FD125F0F30522F0F0021B0101F00A0183
:10245000DBB22B431A43826124F00A021144016269
:1024600070BD074E25F0F305B042ECD00122ECE739
:102470000000014000100140001001500000015018
:1024800000200150036A23F010030362836923F4E0
:10249000704343EA0232036A826123F0A00242EAF7
:1024A00001110162704710B5046A120201F00A01BD
:1024B00024F0100404624FF2FF04A24363F30F32CE
:1024C000836923F473431A43036A826123F0A002F1
:1024D00042EA0111016210BD2DE9F041B8B0DDF80A
:1024E000F880002418AE0027202F02D0F4550137C1
:1024F000FAE71F2410AE08AF651C07D0055D06F88B
:10250000015B0D5D013C07F8015BF5E70F2004A9B5
:102510006C46451C07D0155C01F8015B1D5C013859
:1025200004F8015BF5E720AC10A920222046FEF755
:10253000D2FA04F1200008A92022FEF7CCFA04AB5D
:1025400030AD0FCB0FC59DE80F0034AD0FC518AAF5
:1025500020464FF440710DF047FC1F98054900BA22
:10256000B0FBF1F202FB1100C8F8000038B0BDE882
:10257000F08100BF40420F002DE9F04190B0DDF83E
:102580005880052507AE0DF122076C1C07D04C5D65
:1025900007F8014B545D013D06F8014BF5E7D91DE5
:1025A000002204AB082A04D011F801499C540132DE
:1025B000F8E70F216A464B1C04D0435C013902F84E
:1025C000013BF8E7DDE904010AAAC023CDE90E01C9
:1025D000114880210A90DDF822000B90BDF82600FA
:1025E000ADF830000798CDF83200BDF82000ADF806
:1025F000360068460BF0D2FB424800210F3010290C
:1026000005D010F8012908F801200131F7E740460C
:1026100010B0BDE8F08100BF6274616B70B58CB022
:102620001C460F2301AD5E1C04D0C65C013B05F8BF
:10263000016BF8E7052005AB0DF11A05461C07D024
:102640000E5C05F8016B165C013803F8016BF5E7C9
:10265000114808AA802180230890DDF81A0009900B
:10266000BDF81E00ADF828000598CDF82A00BDF889
:102670001800ADF82E0001A80BF090FB21480021B6
:102680000F30102904D010F8012962540131F8E705
:1026900020460CB070BD00BF6274646B2DE9F04140
:1026A00094B098460F236D4604AE08AF5C1C0AD068
:1026B000CC5C07F8014BD45C06F8014BC45C013BD1
:1026C00005F8014BF2E708AB0CAC0FCB0FC404AB21
:1026D0000FCB10AC0FC468460CAA80214FF4807356
:1026E0000BF05CFB074800210F30102905D010F8D3
:1026F000012908F801200131F7E7404614B0BDE890
:10270000F08100BFA0C84E20F0B5012298B391B36C
:102710000A78072A01D901222DE0037C012B01D17F
:10272000022228E003680124144E047404FA02FC17
:1027300003F1040E5EF82250CF780C794B793540C6
:102740004E7804F0070167F3CD2545EA012106F034
:102750000304857A41EA444123B145EA0C0341F080
:10276000010103E025EA0C0321F0010183724EF818
:102770002210002202741046F0BD00BFFFC0F9FF16
:1027800070470000B0B5012488B10546406940F0AB
:10279000020068617648016821F0010101606C6106
:1027A00000242846AC616C6100F0E4F82C742046EB
:1027B000B0BD00BF10B5012358B3072929D803685D
:1027C00003F1040353F8214024F0010443F82140AD
:1027D00053F8214024F4C02443F821408AB153F82F
:1027E000212042F0010243F8212053F8212042F435
:1027F000C02243F82120012202FA01F1827A11431A
:1028000005E0012202FA01F1827A22EA01010023A5
:102810008172184610BD8069704740697047024652
:1028200001206AB107290BD86FF00200126800EA94
:102830004100C9071044406A18BF000C6FF31F30F5
:1028400070470000B0B5B74D0446286840F001005D
:1028500028602068016841F400210160016841F4AA
:1028600080710160416821F4C0214160416841F4F8
:10287000C0214160142000F011FE2068816B41F0FE
:1028800002018163416C4907FCD5416A426C42F008
:1028900001026FF31F314264026822F400220260D9
:1028A000026822F480720260286820F0010028602B
:1028B000A1F50070B0BD00BF01684A6C42F0010292
:1028C0004A64416941F4805141617047002842D017
:1028D000B0B50546044655F8140F10B90020207411
:1028E000A061204600F047F861696069C90634D4E8
:1028F00020F481700025023060612068016821F0B9
:102900008001016021790268002918BF42F080022D
:102910000260816B21F45E7178318163C16B01F0DB
:102920007F41C163E179C36B4A1C01F0FE0143EAB8
:102930005202C263C26B22F07F42C263C26B42EAA0
:10294000C151C163082D0CD0204629460022FFF753
:1029500031FF0135F6E70120704740F010010120FA
:1029600004E0034D286840F0010100202960B0BD5B
:1029700014A0015070477047F8B5C8B10D46044621
:1029800003F004FD06466F1C2068416C490711D412
:10299000002FF9D025B103F0F9FC801BA842F3D930
:1029A00000202074606940F0040060610320F8BDDD
:1029B0000120F8BD416C41F001014164606940F4BF
:1029C000007060610020F8BD024601203AB1022982
:1029D00005D81068826B42EA0121816300207047AC
:1029E000024601203AB1042905D81068826B42EAF8
:1029F0000131816300207047B0B504464948016841
:102A000041F0010101602068816B41F40061816344
:102A1000207C012801D1022513E0606940F2017198
:102A20000025884300F58070606101202074142027
:102A3000A56100F033FD20682574816B41F002012F
:102A400081632846B0BD00BF0020704778B135498A
:102A50000A6842F001020A600068416C41F002011C
:102A60004164816B41F002018163002070470120C5
:102A7000704700BF017C012901D1022119E0012129
:102A8000427A017401681AB18A6B42F004028A63C7
:102A9000426940F201139A43013242618A6B22F487
:102AA00000628A63002101741E48026822F001025C
:102AB00002600846704700BF10B50446007C01283C
:102AC00004BF022010BD012021682074E0688A6BD9
:102AD00022F080028A6300F040FA0021217411493B
:102AE0000A6822F001020A6010BD00BF017C0129C2
:102AF00001D1022113E00121427A017401681AB167
:102B00008A6B42F004028A634A6C22F002024A6431
:102B1000002101740348026822F0010202600846A5
:102B2000704700BF10A00150827D012303FA02F21A
:102B300061B10168D1F884301343C1F88430D1F811
:102B400080301A43C1F88020022107E00168D1F8E3
:102B5000803023EA0202C1F88020012101760020A2
:102B60007047027E3AB14068426822F000420A6033
:102B70004068C00F7047012070470000F8B5056835
:102B800004461748854206D0164885421CBF0120DE
:102B9000F8BD154800E01148227D04F116011AF035
:102BA00017F801460120002917D4A27DD4E902C7F5
:102BB0002669C9B205EB02131201002EDF60C3F8CB
:102BC00008C0677D41EA071141EA062718BF47F0B0
:102BD0008001A950207600206360F8BD6C0B0900CD
:102BE0000010024000E00240B10F09002DE9F04161
:102BF00004680223A5680679012E57D0437101238A
:102C000025F0060C037111F003031DD063F00306D9
:102C1000C3F10403002788464FF0000E3EB118F8B8
:102C2000015B0136BD4008374EEA050EF6E76FF04E
:102C3000010505EB430545EA0C05A560C4F800E075
:102C40006568ED07FCD000E00023A56845F00605A7
:102C5000A560D51EAB4206D2CE5826606668F60740
:102C6000FCD00433F6E7934214D26FF0010E002734
:102C70000025934207D2CE5C0EF1020E0133BE4016
:102C800008373543F5E74EEA0C01A160256061681D
:102C9000C907FCD0012141710021017180793549BA
:102CA00001EB00102168C06880EA01031846BDE806
:102CB000F08100BF10B503689C6844F001049C607B
:102CC000BDE81040FFF792BF50B110B50446022096
:102CD0006071204600F02AF800202071607110BD5C
:102CE0000120704740797047D0B110B504460068A4
:102CF00008B90C482060617929B90020207120466C
:102D000000F015F8206802216171A62181604FF062
:102D1000FF3101610449416101206071002010BD53
:102D20000120704700500850B71DC104704770471C
:102D3000B0B5104A056802EB0113D3E901432C61D9
:102D40000C0112596A61AB608171A86840F0010002
:102D5000A860B0BD10B5046821610649626101EB4D
:102D600003118968A1608371A06840F00100A06030
:102D700010BD00BF4C270900F0B5224A6FF0C00516
:102D8000C028144605F1600502F1805388BF1C4637
:102D900088BF6FF0C0052E18B0B24FF63F754028BF
:102DA00003D3403E04F5807403E0202824BF203E76
:102DB0008034B6B20120DFF8E8C0271DC02900FA30
:102DC00006F0CCE90007266940EA060020618CBFC6
:102DD0001A46603529448BB2402B03D3403902F5A3
:102DE000807203E0202B24BF2039803289B2012376
:102DF000101D03FA01F1CCE90210106908431061BB
:102E0000F0BD00BF0000084070B50C460546002626
:102E1000A642A8BF70BDA85D00F002F80136F7E732
:102E20002DE9F0411E4CE168B9B30B68D4F808C035
:102E3000072743EA0C036FEA0C080B6063681D6800
:102E4000D4F800E045EA0E056FEA0E061D600D6835
:102E500025EA0C050D601A68002F02EA06021A60C6
:102E60000FD40A6820FA07F5013FED0742EA0C0487
:102E700008BF02EA08040C601A6842EA0E021A60EF
:102E8000E9E7086800EA08000860186840EA0E00F0
:102E90001860086840EA0C000860BDE8F08100BFD7
:102EA000E4C44E202DE9FE4F294D14460E468046BF
:102EB0004F2120224FF0200B2846FDF72CFE002743
:102EC000A81C0296B04405F106092E4685F84F70FD
:102ED0000190A7422FDA17F00F0A17D1029829465E
:102EE000C6191C4800F038F828464F212022FDF76B
:102EF00012FEC6F30721284677F02AFA0198F1B2AC
:102F000077F026FA42F23A004E46A88018F80700F9
:102F1000A0F121015D290AEB050128BF2E2081F8CF
:102F20003C00304618F8071077F012FA86F802B025
:102F300001370336CDE7064C0648214600F00CF871
:102F400020464F212022FDF7E6FDBDE8FE8F00BFA1
:102F5000C0C84E2059C30900704701460120C1B1C5
:102F6000B0B50A68D1E91134156825F00E05156071
:102F7000156825F00105156004F01C0200FA02F244
:102F80005A60002281F8282081F829000020BDE83D
:102F9000B0407047B0B590F8291002291CD10168E3
:102FA000C26BD0E911340D6825F00E050D600D6877
:102FB00025F001050D6004F01C014FF0010404FA36
:102FC00001F159604FF0000180F8281080F8294085
:102FD0002AB19047002102E0042101640121084642
:102FE000B0BD000068B1B0B50268116821F0010100
:102FF00011608249114401F5B8338C2B03D8804B02
:103000000EE001213EE08C2903D87D4901F5B8335B
:1030100006E07C4911448D2936D2794901F180536B
:10302000A2F1080114244364C9B2B1FBF4F18C008D
:10303000846400210125102C116004F01C0205FAA3
:1030400002F24FF018055A604FF0380205EA4405C5
:1030500038BF02EA44054FF03F024FF0AC0402FAD9
:1030600005F238BFA8241D5925EA02021A5101644D
:1030700080F82810C0E90C11C0E90E1180F8291061
:10308000BDE8B04008467047D0E91134D1E700BF31
:10309000006C704790F829007047F0B5D0E9111323
:1030A00002680C68156803F01C036E070ED5042631
:1030B0009E4016EA040709D013689B0603D41368E0
:1030C00023F0040313604E60416B2BE0AE0714D570
:1030D00002269E4016EA04070FD013689B0606D40A
:1030E000136823F00A031360012280F829200022CC
:1030F00080F828204E60016B14E02D0716D50825B6
:103100009D402C4012D0146824F00E04146001225B
:1031100002FA03F34B600021026480F8281080F863
:103120002920816B11B1BDE8F0400847F0BD0000D7
:1031300068B170B50168314A8B18314A03F5B8346B
:103140008D2C0CD38D2B04D202F5B83207E001216F
:1031500052E02C4B0B448C2B0AD802F18052A1F187
:1031600008031424DBB2B3FBF4F39B00C0E9112382
:10317000022247F6F07300F1080680F82920426A1F
:103180000A610A689A4378CE1A43B3F5804F42EA3F
:103190000402846942EA050242EA060242EA0402A3
:1031A000C46942EA0402046A42EA04020A601AD0CC
:1031B000816CC1F38202032A03D8D100426CA83289
:1031C00005E08908182202EAC101426CAC323F23B3
:1031D00014688B4024EA03031360436803FA01F187
:1031E00013681943116000210122016480F828103E
:1031F00080F82920BDE8704008467047F87FFEBF80
:1032000000100040F8EFFFAF2DE9F843044690F8B6
:10321000290002282DD12068006880062ED40420C1
:1032200000298846164608BF0220A16C01F01C0147
:1032300000FA01F503F0AAF88146771C616C086872
:10324000284221D10868A26C02F01C02D04000077D
:1032500025D4002FF2D003F099F81EB1A0EB09009D
:10326000B042EBD920202064002084F828000120FF
:103270001DE0002084F82800042001E04FF4807055
:1032800020640120BDE8F883A06CB8F1000F00F0C5
:103290001C0010D0042202FA00F0486012E0012065
:1032A00000FA02F24A600021206484F8281084F8B1
:1032B0002900BDE8F883022202FA00F048600120EC
:1032C00084F82900002084F82800BDE8F883000075
:1032D00010B590F82830012B01D1022319E0012309
:1032E00080F8283090F82940012C0FD1032905D807
:1032F000DFE801F00206080A026306E0012305E0A8
:10330000426302E0826300E0C2630023002180F890
:103310002810184610BD3F291BD840F6FF7220EA3E
:1033200002026FF31F30A0F108031420B3FBF0F08A
:103330004F2B01D8C00005E09F2B0AD86FF01F0368
:1033400003EBC00001FA00F0D2F8A8100843C2F85D
:10335000A800704770B5044690F8280001281CD0DA
:10336000012084F8280094F82900012812D10220B5
:10337000002584F8290025642068066826F00106E7
:1033800006602046FEF739FA2068016841F0010125
:10339000016003E0002084F828000225284670BD63
:1033A000B0B5044690F8280001281DD0012084F80B
:1033B000280094F82900012813D1022084F829005C
:1033C000002020642068056825F00105056020467E
:1033D000FEF713FA2068626B01683AB141F00E0102
:1033E0000AE0002084F828000220B0BD21F004018A
:1033F0000160016841F00A010160016841F00101CA
:1034000001600020B0BD000090F82820012A01D101
:10341000022222E0012280F8282090F82930012B96
:1034200018D1042907D8DFE801F003080B0E1000BB
:10343000002202630EE001220CE00022426309E058
:103440000022826306E0002203E00022C0E90C2291
:103450008263C263002180F828101046704780B54F
:1034600006F08CF9002080BDE0B50190019830B1E4
:103470004FF47A7000F012F801980138F5E78CBD2E
:10348000B0B5451C28BF4FF0FF3502F07FFF044662
:1034900002F07CFF001BA842FAD3B0BDF8B5044689
:1034A0000E4D28B92868C00704BF002000F036F888
:1034B00042F2107684B1A71B34BF00273446286837
:1034C000C00704D1204600F029F83C46F2E7204628
:1034D00000F006F83C46EDE7F8BD00BF10E000E064
:1034E00018B500900C484FF47A730168009A4A436B
:1034F000B2FBF3F20092002243684468A342FCD07E
:103500001A44A342A2EB040298BF0A44009B9A42C9
:10351000234628BF18BDF0E714E000E01CB5114CAD
:1035200001902068019901B140B9002008F0F6F837
:103530000D49B0FBF1F02060019991B1312802D31F
:10354000019901390191019959B101990139484312
:103550000521B0FBF1F000900098411E0028009179
:10356000FAD11CBD10C94E2040420F0080B5026840
:10357000084B9A4204D0084B9A421CBF012080BDE0
:10358000836843F40063836004A05161FFF7E4FCA7
:10359000002080BD00F00150008002404255465F8F
:1035A000414444523D253038580A0000027B012A2C
:1035B00011BF012009688160002070470146007B2F
:1035C000012812BF012000200873704780B50268EF
:1035D000134B014601209A4202D0124B9A4205D168
:1035E00010634A680AB108469047002080BD00BFBA
:1035F000B0B50546007B08B101240FE028680849F2
:103600000124884202D00749884207D14A2008F0A5
:10361000A3F92868046384622C7300242046B0BD9B
:1036200000F0015000800240F8B50446007B0128FC
:103630001CBF0220F8BD1D4616460F46980707D04E
:103640000FA0FFF789FCA06840F01000A06000E028
:10365000A0682168486015A04968FFF77DFC2068D4
:103660008760C6600126A16826EA112125FA01F1CA
:10367000016113A0FFF770FC206806630020F8BD0D
:103680004E6F6E652033322D627420616C69676EF7
:1036900065642C2073686F756C64206265206C61B2
:1036A000737420626C6F636B0A00000046414343F1
:1036B00020706172616D3D253038580A00000000AD
:1036C0004641434320424C4B5F4C454E3D25640AE6
:1036D0000000000000680121016381620020704742
:1036E0002DE9F8430446007B012805D1089E1546C4
:1036F000B018B0F5807F02D90120BDE8F883207AA8
:103700001F46400607D5802D4FF0010098BF802E40
:1037100001D9BDE8F88320684FF00109DDF8248065
:10372000C0F83090C0F828904346A268C2F3002247
:10373000009200F120020846294600F02BF85EB105
:10374000A16820684346C1F3002100F124023846F5
:103750000091314600F01EF8607A29EA0000C54069
:1037600018BF013D36FA00F018BF05EB002504A094
:103770002946FFF7F1FB2068C5610020BDE8F8830A
:10378000566563746F7220706172616D3D253038CB
:10379000580A0000F0B5E3B1059CD4B949080238D5
:1037A0004FF0000C00250B4693B315F0010630F8DE
:1037B0001340A3F1010305F101054FEA061604FACF
:1037C00006F44CEA040C1CBFC2F800C04FF0000C19
:1037D000EAE7A1F1010E4FF0000C00261EF10107EF
:1037E00016D07746002B06F00304AEF1010E08BF99
:1037F0003746E500032C06F10106C75D07FA05F51B
:103800004CEA050C04BFC2F800C04FF0000CE5E71D
:10381000880718BFC2F800C0F0BD10B50446FFF716
:1038200003FF68B9216801220A63CA6A22F0010213
:10383000CA620A6842F001020A600A6BD207FCD031
:1038400010BD10B50446FFF7EFFE00B110BD2168B2
:103850000122CA620A6842F001020A6010BD0146F4
:10386000007A012812BF0120002008727047000072
:1038700080B501680F4A914204D00F4A91421CBFA3
:10388000012080BD0C22CA60416801B18847002038
:1038900080BD00BF0146007A08B1012070470A6868
:1038A000044B01209A4202D0034B9A4201D1087284
:1038B0000020704700E001500070024010B504463F
:1038C000007A01281CBF022010BD2068FEF7B8F95D
:1038D00000B110BD2068C16841F00801C1600168F5
:1038E00041F001010160C168890704D400BF00BF35
:1038F00000BF2068F7E70421C160002010BD10B5AB
:103900000446007A01281CBF022010BD2068FEF783
:1039100097F900B110BD2068C16821F00801C160AD
:10392000016841F001010160002010BD60B110B5D7
:10393000002918BF0121044600F0BEFE20460121E7
:10394000BDE8104000F0BABA704780B1B0B5054686
:1039500040691C460B1A284638BF0B46194600F032
:10396000DAFE28462146BDE8B04000F0CABE7047E6
:103970002DE9F04104460120002C64D00F460029B7
:1039800061D0DDF81880204639461E46154607F0FE
:1039900037FC0220E56007F1080284F82A004FF0A6
:1039A000000084F82000207107CA84F828204FEA1C
:1039B0000151C4E90B0195B18EB108204FF480513B
:1039C000C5E9081000208021E861C5E90500C5E9C6
:1039D00003011020A8603068F168C5E900015FFAB2
:1039E00088F1204600F0A8FE94F82900012803D0B1
:1039F000022805D1012100E00021204600F0D2FE7E
:103A0000204600F0A5FA84F821002046012100F0AC
:103A10007FFA204607F0D3FC94F82030010C020A0C
:103A20006062C0B2C9B2D2B213B18BF0BDFA01E08C
:103A30008BF060FA206140B1204607F0A3F91E2008
:103A4000FFF72CFD0020BDE8F0810120BDE8F081EA
:103A5000C0B1F0B55203DDE90576DDE90754006831
:103A600042EA8141826C41EAC3216FF3140241EAC8
:103A7000072141EA861141EAC501214311438164CE
:103A8000BDE8F0407047C0B1F0B55203DDE90576FE
:103A9000DDE90754006842EA8141026D41EAC32131
:103AA0006FF3140241EA072141EA861141EAC50198
:103AB000214311430165BDE8F0407047A8B10329D7
:103AC00008D002290CD001290FD10068416D41F0C6
:103AD000010109E0006840F20112416D114303E069
:103AE0000068416D41F480714165704720B1006804
:103AF000416941F00101416170472DE9F041002821
:103B000000F09280044690F82100012101FA00F5AE
:103B10002069294690F89361204600F09EFE2046D9
:103B20000221002200F07EFA16B128B1002706E03B
:103B3000A8B34FF0000836E020684068C7B220699B
:103B400015210022C679204600F06CFA002E18BF1D
:103B500027EA060600B320460021002200F062FAA0
:103B6000206829464660204600F077FE2046032163
:103B7000002200F057FA94F82100012181402046EC
:103B800000F06BFE20460221002200F04BFA206874
:103B90004068C007F6D147E02068294648E0206821
:103BA00040685FFA80F8204614210022002600F0C9
:103BB00039FA10B920684068C6B22069C779002F69
:103BC00018BF28EA070794F8210028B1300640EA18
:103BD000064040EA072600E0360220461521002272
:103BE00000F020FA3E4308B320460021002200F0F6
:103BF00019FA206869004660204600F02EFE204633
:103C00000321002200F00EFA94F8210001218140E6
:103C1000204600F022FE20460221002200F002FA97
:103C200020684068C007F6D1BDE8F08120686900CF
:103C30004660204600F011FE204603210022BDE828
:103C4000F04100F0EFB918B10068426911434161D9
:103C50007047F0B585B0002840D004460069D9B15E
:103C600090F86A10D1B390F96E3090F96D2090F908
:103C70006C1090F96F5090F9706090F9717090F934
:103C800072008DE8E00003902046FFF7E1FE216915
:103C9000206891F86A101AE090F84610F1B190F996
:103CA0004A3090F9492090F9481090F94B5090F91A
:103CB0004C6090F94D7090F94E008DE8E000039053
:103CC0002046FFF7C5FE2169206891F84610026C76
:103CD00022F0FF0211440164002000E0012005B041
:103CE000F0BDE0B1F0B585B004460069C9B190F906
:103CF0006A3190F9692190F9681190F96B5190F946
:103D00006C6190F96D7190F96E018DE8E00003909F
:103D10002046FFF79DFE206900F5B37018E00120F2
:103D2000704790F9583190F9572190F9561190F950
:103D3000595190F95A6190F95B7190F95C018DE8E5
:103D4000E00003902046FFF783FE206900F5AA708B
:103D5000216800780A6C22F0FF02104408640020F9
:103D600005B0F0BD80B578B102681168C9074FF0A1
:103D700001010AD0936A61F31503B921936200220D
:103D800000F0DEFC014600E00121084680BDD0B114
:103D9000C9B1B0B5044607F033FA2046012100F05E
:103DA00001FD2046012100F0B3F8204600F00AF999
:103DB00005462046002100F0ABF82046002100F027
:103DC000F1FC2846B0BD0020704770B50024E0B17A
:103DD000D9B1054607F014FA28460021002400F066
:103DE000E1FC2846012185F8214000F091F82846A1
:103DF00000F0B6F806462846002100F089F826B102
:103E00006FF07F40864218BF0124204670BD2DE927
:103E1000F84390B10D461C46012133B30646C068F5
:103E200018B33168D1F800904AB1102201F10408AA
:103E300000212746826000220CE0012115E00022CB
:103E40000B1DE11CA84682608F084FF400624FF4FE
:103E500000711D46C0E90512FFF7C4F8014620B9FC
:103E6000F068FFF765F9014610B10846BDE8F88330
:103E7000316849F02002F0683B460A60621E4A62DF
:103E80002946424601B0BDE8F043FFF763BA10B5DA
:103E900060B10446C06848B10A460021FFF7B4F992
:103EA00021680A6822F020020A6010BD012010BDBE
:103EB00080B5002100F02CF8002080BD50B10068D2
:103EC0000029026842F0400308BF22F0400303606B
:103ED000002070470120704750B100680029026837
:103EE00042F4A02308BF22F4A023036000207047FF
:103EF0000120704750B100680029026842F40013A5
:103F000008BF22F4001303600020704701207047AF
:103F100050B100680029026842F0010308BF22F096
:103F2000010303600020704701207047B0B50C46C4
:103F3000054675F034FE28462146BDE8B040FFF73F
:103F4000D0BE10B10068C06800E00020C0B2704769
:103F500020B100680068C0F300607047002070471F
:103F6000B0B5044628B120682D4A816A62F3150174
:103F7000816294F8210003218140204600F06DFC0D
:103F800020469F210022002500F0DAFB0CB12068BA
:103F9000456894F8210050B14FF47F40E9B200EA3F
:103FA0001520084421684968C9B240EA014525F056
:103FB0007F40B0BD20B10068D0F88800C00F7047C6
:103FC00000207047B0B528B3054600680168C901F4
:103FD00020D5816A124A002462F315010022816211
:103FE0000521416228469F2100F0AAFB2968486804
:103FF000421C022A0FD380EA10224968120609D116
:10400000C0F30742B2EB106F04BF81EA11205FEAF0
:10401000006002D000242046B0BD0124FBE700BFB1
:10402000010004002DE9F04186B00546006948B35F
:10403000382927D801EBC1063044017C11B314465E
:1040400090F9133090F9122090F9111090F9147032
:1040500090F915C090F916E090F9178090F91800C2
:104060008DE88050CDE90380284600F0EBF92869FF
:1040700022463044017C284600F062FB002818BF2D
:10408000012000E0012006B0BDE8F0812DE9F047F5
:1040900086B014460269002A61D038295FD801EB46
:1040A000C10605469019017C002958D0382B56D8F6
:1040B00003EBC307D119097C002950D090F91330C4
:1040C00090F9122090F9111090F914C090F915E0B0
:1040D00090F9169090F917A090F91800DDF8388043
:1040E000CDE900CECDE9029A0490284600F0AAF965
:1040F0002869384490F9133090F9122090F9111082
:1041000090F914C090F915E090F9169090F917A065
:1041100090F91800CDE900CECDE9029A0490284626
:1041200000F0B0F9296928680022C2671031CA5D21
:10413000C262C0F88080026842F4A0220260C461BA
:10414000895D816101690907FCD5416941F0090177
:104150004161016821F4A0210160002000E00120FC
:1041600006B0BDE8F08718B100680069C00F70475D
:104170000020704720B10068006900F0010070471E
:10418000002070470146012011B109684968884341
:10419000704720B10068406DC0F3400070470020B8
:1041A000704720B100680069C0F3400070470020EC
:1041B000704720B10068406DC0F340207047002078
:1041C00070472DE9FF414FF00108002800F03681CB
:1041D0000D46002900F03281DDF8288029461F466F
:1041E0001646044607F00CF80220E66005F10802C6
:1041F00084F82A0007CA84F828204FEA0151C4E94C
:104200000B01A2F10100B0FA80F04FEA501084F8DF
:104210002000B6B1AFB101204FF48051C6E90810BB
:1042200000208021F061C6E90500C6E903011020E5
:10423000B0603868F968C6E900012046012100F045
:10424000E1FA5FFA88F1204600F076FA94F8290046
:10425000012803D0022805D1012100E000212046D9
:1042600000F0A0FA2046FFF773FE84F821002046F4
:104270000121FFF74DFE94F8200040B9204600F0E0
:10428000FCF90020FFF70AF90820FFF707F9656A33
:10429000FF2D18BF002D04D1204607F090F80546E9
:1042A000606294F820002E0C2F0A28B1E8B2F1B217
:1042B000FAB28AF079FE04E0E8B2F1B2FAB28AF01A
:1042C00019FE206140B194F82000E0B1E8B2F1B2EB
:1042D000FAB28AF095FE1BE094F8200000286DD019
:1042E0002046082175F0A6FB05466062C0B2C5F302
:1042F0000741C5F307228AF057FE002820615DD0F0
:104300002E0C2F0ADFE7E8B2F1B2FAB28AF026FEED
:1043100018B194F821108840A06194F8200060B191
:10432000204675F048FB2079002851D02046012115
:1043300005F0E4FA4FF0000880E02046FFF7DDFBCF
:10434000A069B0F1807F06D9B0F1007F50D894F811
:10435000210000284CD02079002840D0204601219F
:1043600000F03BFA94F82300012856D1206990F818
:10437000FF11002959D090F9033290F9022290F9E7
:10438000011290F9045290F9056290F9067290F9C1
:1043900007028DE8E00003902046FFF759FB2069F3
:1043A00090F8FF11204600F095F904200121042225
:1043B00084F82200204605F0D1F8BBE72046002112
:1043C0000025FFF7A5FDC4E90B554FF0010835E0C6
:1043D000204600214FF0000805F090FA2EE04FF043
:1043E00000082046002184F8238000F0F6F925E03B
:1043F0004FF0000820462121002284F82380FFF797
:1044000011FE21792046002918BF0121FFF78EFDFA
:104410002046072100F0ECF910E0204600210022A0
:104420004FF0000805F09AF808E02046002100222D
:104430004FF0000805F092F884F82380404604B05D
:10444000BDE8F081E8B1F0B59204DDE90547DDE9AA
:1044500007650068DDF824C042EA4151826A41EAFA
:1044600043316FF3150241EAC42141EA072141EAD1
:10447000861141EAC50141EA0C0111438162BDE8A0
:10448000F0407047E8B1F0B59204DDE90547DDE999
:1044900007650068DDF824C042EA4151C26B41EA79
:1044A00043316FF3150241EAC42141EA072141EA91
:1044B000861141EAC50141EA0C011143C163BDE81F
:1044C000F040704798B193B170B50E461946144646
:1044D000054600F075F96869311A38BF3146221A6D
:1044E000284638BF2246BDE8704000F04CB97047FE
:1044F000F0B585B00122382921D80369FBB101EB61
:10450000C1021A44127CCAB101EBC1015C1894F9D2
:10451000133094F9122094F9111094F9145094F96D
:10452000156094F9167094F917C094F918408DE845
:10453000E0100494FFF786FF002200E001221046FD
:1045400005B0F0BD70B50125002868D004460020F4
:10455000FF224FF05023A060A5712168C1F884208C
:104560008B670A62207184F82000E0604A6420466C
:10457000012100F0E1F820680168C1F3006184F8CE
:104580002110016841F0010101602046FFF7E8FCBD
:10459000C0F30741C5B2C0F30722064628468AF099
:1045A000A9FC206110B3320A300CC1B2D2B2284645
:1045B0008AF0D4FC18B194F821108840A06194F8D6
:1045C000200058BB2046FFF798FAA069B0F1807F21
:1045D00005D9B0F1007F16D894F8210098B1207960
:1045E00058B12046012100F0F8F817E020680125B5
:1045F000016821F00101016011E020460021002541
:1046000000F0EBF80BE0204621210022FFF70AFD25
:10461000207930B120460121FFF788FC002528468B
:1046200070BD204600210025FFF780FCF7E710B1A0
:1046300000684068704700207047F8B506460020C3
:10464000D6B10D461C4613F0030115D13046214664
:10465000174600F002F9304638213A46FFF7E2FCEF
:1046600008B10020F8BDA7082FB13046FFF7DFFFE3
:1046700001C5013FF8E72046F8BDB0B5D0B104460A
:104680000068016811F0010503D1016841F00101E2
:104690000160816A012262F31501002281622046D5
:1046A000AB2100F04DF825B921680A6822F001021B
:1046B0000A60B0BD0120B0BD50B100680129026898
:1046C00022F0800308BF42F080030360002070479F
:1046D0000120704738B10068026C22F0FF021144DB
:1046E0000164002070470120704740B10068026CEF
:1046F00022F47F4242EA0121016400207047012038
:10470000704730B140F2FF320068914341670020AA
:1047100070470120704768B140F2FF33006821EA1A
:104720000303114401F2FF31C3666FF3090101670E
:10473000002070470120704708B10068C1607047D1
:1047400058B10068C26181610169C907FCD0416943
:1047500041F001014161002070470120704780B1A4
:1047600010B592010068029C42EA8141826841EAE8
:1047700083516FF39E1241EA8461114381600020EE
:1047800010BD0120704758B140F2FF3300689943D3
:10479000C16502F2FF316FF3090101660020704725
:1047A0000120704750B100680029026842F0807310
:1047B00008BF22F08073036000207047012070471B
:1047C0000246012042B139B110680A6812BA426645
:1047D000496809BA816600207047B0B50C460546A5
:1047E00075F0DDF928462146BDE8B040FFF731BA43
:1047F00030B10068826861F3020282600020704775
:104800000120704740B1006801F01F01426D22F4A1
:10481000F84242EA81214165704730B100686FF388
:104820001F31C0F88810002070470120704750B138
:1048300000680029026842F4000308BF22F4000364
:104840000360002070470120704720B100680069B4
:10485000C0F3C00070470020704730B101390068D4
:104860006FF31F514162002070470120704730B143
:10487000013900686FF31F518163002070470120E8
:10488000704718B1006841600020704701207047F0
:10489000E0B589B20DF10602FDF712FC78B1BDF862
:1048A0000610012202FA01F182690A438261426A1A
:1048B0000A434262826D0A438265C16381648CBD92
:1048C000F8B5134E0C460546104828443746B0FA52
:1048D00080F002CF400907EBC1018880306807EB08
:1048E000C000C48001F052FD316847F83100214614
:1048F0003068013001289ABF3068013000203060F4
:104900002846BDE8F84075F05FBB00BF0000F8BF67
:1049100044C44E20704700007CB50DF106020C46E1
:104920000546FDF7CDFB90B1864EB54210D0BDF8DF
:104930000610012202FA01F1C26D114207D0C165D1
:1049400028462146FFF7BCFFBB48854221D07CBDED
:10495000BDF80610012202FA01F1C26C1142F6D034
:10496000C16430462146FFF7ABFF3046214604F0D4
:1049700005FA0028EBD400F10801012203300D4BA9
:1049800002FA01F102FA00F041F0004119600A490F
:104990000CE0214601F0DCFD0028D8D4C0B24FF471
:1049A000807101FA00F0024940F0004008607CBDCF
:1049B00024000440240004500CA00450E0B50DF184
:1049C0000602FDF77DFB70B3BDF8061001228A4098
:1049D00041680A420CD1816A114209D1416B1140F0
:1049E0008A4205D1016C11408A4201D111211CE09B
:1049F0000169114201D0012117E0C16911420CD0B7
:104A0000816A436B1340114209D014497BB1036C96
:104A100013420CD001F5001107E0002105E06BB155
:104A2000016C11420AD04FF0FF3108468CBD436B38
:104A30001342FAD1006C01F5801109E0436B07497C
:104A4000134202D001F54011EFE7006C01F580013F
:104A5000104208BF4FF0FF31E7E700BF0000111020
:104A6000BCB50D4609880DF106020446FDF728FB8A
:104A7000002860D06A68112A10D0012A1ED1BDF822
:104A80000610012202FA01F1426A0A434262826D73
:104A90000A438265C16381644161BCBDBDF80610F3
:104AA000012202FA01F1426A0A434262826D0A431C
:104AB0008265C160016381634164BCBDBDF80610BD
:104AC000012303FA01F17AB11D4B81611A444FEAC7
:104AD0003252042A29D8DFE802F00311151A210006
:104AE000C26A0A43C26215E0426A0A434262826DA8
:104AF0000A438265C16381648161BCBDC26A0A43A5
:104B0000C2620EE0C26A0A43C26281630AE0026BBB
:104B10000A430263816300F1480205E0026B0A4325
:104B20000263C16300F144021160064A944203D05B
:104B3000426D11434165BCBD026A11430162BCBDB7
:104B40000000EFEF00000850E0B50DF10602FDF7A0
:104B5000B7FA10B3BDF80610012202FA01F142685B
:104B6000114210D1826A0A420DD1426B0A40914231
:104B700009D1026C0A40914205D100690840B0FA9F
:104B800080F0400905E002690A420CBF00684068F5
:104B90000840002818BF01208CBD00208CBD0000FB
:104BA000254B98421DD0022A1DD15030BAB10B6856
:104BB000013A40F84C3C4B6840F8403CCB6840F828
:104BC000283C0B6940F8183C4B6940F80C3C8B6959
:104BD00003608B681C3140F8343C8030E6E70020ED
:104BE0007047032AE1D00120704700BF124B984262
:104BF0001DD0022A1DD15030BAB150F84C3C013AB8
:104C00000B6050F8403C4B6050F8343C8B6050F8DF
:104C1000283CCB6050F81C3C0B6150F8103C4B61B9
:104C2000036880308B611C31E6E700207047032A5F
:104C3000E1D00120704700BF00000840E0B50DF151
:104C40000602FDF73DFAF0B1BDF80610012202FAA6
:104C500001F14268114210D1826A0A420DD1426BC1
:104C60000A40914209D1026C0A40914205D1026981
:104C70000A420CBF1430183004E042680A420CBFEC
:104C800008300C3001608CBD1CB514460DF10602D5
:104C9000FDF716FAD8B1BDF80610012202FA01F1AB
:104CA000426811420FD1826A0A420CD1426B0A401B
:104CB000914208D1026C0A40914204D144B1826908
:104CC000114381611CBD0CB181601CBDC1601CBD64
:104CD0004269114341611CBD10B50446022041F2F6
:104CE000111284F836002068016A114208D1016A65
:104CF00040F24442114203D1016821F001010160F8
:104D0000204600F02CF8002084F8340084F83600A7
:104D1000002010BD90F836007047F0B110B5044681
:104D200090F8360028B9002084F83400204600F0BE
:104D300017F80220211D84F836002068FDF7D6F907
:104D400020686FF001010161016841F00401016018
:104D5000012084F83600002010BD01207047704704
:104D60007047022180F8361001680A6842F001029B
:104D70000A60012180F8361000207047B0B5044663
:104D800090F83600022804BF0220B0BD94F8360027
:104D90001346012806D111B90BB10120B0BD022084
:104DA00084F83600A0690A4D22680563094D2C324B
:104DB000A0698563A069FEF7F3FA2068C16841F431
:104DC0008071C160016841F0010101600020B0BD47
:104DD0000B220000FF2100000068C16841F00101C2
:104DE000C160016841F001010160002070470221AB
:104DF00041F2111380F8361001680A6A1A4208D18C
:104E00000A6A40F244431A4203D10A6822F00102BE
:104E10000A60012180F8361000207047016841F2D5
:104E20001113CA6822F48072CA600A6A1A4208D151
:104E30000A6A40F244431A4203D10A6822F001028E
:104E40000A60012180F8361000207047006841F2A6
:104E50001112C16821F00101C160016A114208D13B
:104E6000016A40F24442114203D1016821F001017C
:104E7000016000207047000010B590F8342004460F
:104E80000220012A00F0858084F836000120414B81
:104E900084F83400206882681A4082600A68BAB1D7
:104EA000102A1BD0202A1FD0302A23D0402A27D0F6
:104EB000502A31D0602A3BD0702A45D0B2F5005F2D
:104EC00052D0B2F5805F5ED1816821F4702159E043
:104ED000816841F0070121F0700153E0816841F0E1
:104EE000170121F060014DE0816841F0270121F0B8
:104EF000500147E0816841F0370121F0400141E075
:104F00004B68CA681946FDF777FA2068816841F056
:104F1000470121F0300135E04B68CA681946FDF7BA
:104F20006BFA2068816841F0570121F0200129E0E7
:104F30004B68CA681946FDF7A5FA2068816841F0F8
:104F4000670121F010011DE0D1E90123C9681A436E
:104F500042EA0121826822F47F4211430E4A8160B5
:104F60008168114077310DE0D1E90123C9681A4306
:104F700042EA0121826822F47F4211438160816804
:104F800041F4804181600020012184F8340084F8DC
:104F9000361010BD8F00F0FF88FFF0FFB0B590F81D
:104FA00034400223012C4AD080F83630012380F8A7
:104FB00034304B68012B0BD101F1080538CD234368
:104FC000046843EA0523A56825F47F452B43A360C5
:104FD0004FEAB202032A2CD8DFE802F0020C1721B4
:104FE00002689369096800290CBF23F4803143F4F7
:104FF000803108E002689369096800290CBF23F03A
:10500000807143F08071916113E00268D36909688F
:1050100000290CBF23F4803143F4803108E002689A
:10502000D369096811B143F0807101E023F0807108
:10503000D1610023012180F8343080F83610184601
:10504000B0BD0068426822F0800211434160002038
:10505000704701207047B0B50C460546B1F5804F4A
:1050600014D0B4F5007F14D0B4F5806F14D0B4F52B
:10507000006F14D0B4F5805F14D0B4F5005F14D085
:10508000B4F5807F16D105F1180010E005F130006D
:105090000DE005F11C000AE005F1200007E005F134
:1050A000240004E005F1280001E005F12C0000686F
:1050B000FDF753FF2868C168A143C1600020B0BD5F
:1050C00001207047B0B50C460546B1F5804F14D0AD
:1050D000B4F5007F14D0B4F5806F14D0B4F5006F30
:1050E00014D0B4F5805F14D0B4F5005F14D0B4F5DB
:1050F000807F16D105F1180010E005F130000DE0B9
:1051000005F11C000AE005F1200007E005F124008C
:1051100004E005F1280001E005F12C000068FDF72E
:105120001CFF2868C168A143C1600020B0BD10B554
:105130000446022041F2111284F836002068016A08
:10514000114208D1016A40F24442114203D1016880
:1051500021F001010160204600F052F8002084F89F
:10516000340084F83600002010BD90F836007047F7
:10517000002843D0F8B5044690F836000D4628B90B
:10518000002084F83400204600F03BF8022084F828
:1051900036002068816821F470218160211DFCF7B0
:1051A000A5FF2668D5E9000CD5E90223B768384386
:1051B000B769316AB060A86942EA00204FF6FC4244
:1051C00090434FF6FF7227EA02021A431043EA693E
:1051D00040EA02202A6940EA02102A6A40EA0230C4
:1051E000B06121F0AA00696940EA0C0040EA0110B0
:1051F0003062012084F836000020F8BD012070479D
:105200007047704710B50446042907D009B900213A
:1052100005E0206800210122FCF78EFF04212068B0
:105220000122FCF789FF2068016841F0010101605B
:10523000002010BD2DE9F041044690F83600022808
:1052400001D1022584E094F83600069D1E4601280F
:105250000FD1002E3046134618BF0120002A18BF78
:105260000123034202D10DB1012571E0022084F82F
:10527000360018291ED004294FD0002967D1E069D3
:10528000354B21680363354B3431E06983632B462A
:10529000E069FEF785F8206801220025C16841F425
:1052A0000071C160016841F0010101600021FCF75B
:1052B00043FF4DE0E069DFF8A084284F21682B46CA
:1052C000C0F830803431E0698763E069FEF768F840
:1052D000206A216832462B46C0F830803831206A77
:1052E0008763206AFEF75CF82068012200250168C8
:1052F00041F0010101600021FCF71EFF206804213C
:105300000122FCF719FF2068C16841F40071C160F7
:10531000C16841F48061C1601AE0206A0E4A2168C8
:105320002B4602630D4A3831206A82633246206A76
:10533000FEF736F820680122C16841F48061C1603F
:10534000016841F0010101600421FCF7F5FE002530
:105350002846BDE8F08100BF53210000FF21000076
:10536000B0B50446042908D079B92068002101228B
:10537000FCF7E2FE2068022517E0206804210122E4
:105380000425FCF7D9FE20680FE0206800210122E7
:10539000FCF7D2FE2068042101220425FCF7CCFE94
:1053A0002068C16841F00201C160C1682943C16041
:1053B000016841F0010101600020B0BD10B5044654
:1053C000042907D009B9002105E020680021002246
:1053D000FCF7B2FE042120680022FCF7ADFE206835
:1053E00041F21112016A114208D1016A40F24442AD
:1053F000114203D1016821F001010160002010BDBC
:1054000010B5044641B1206804290ED104210022C0
:10541000FCF792FE206816E0206800210022FCF7CD
:105420008BFE20686FF400710FE000210022FCF772
:1054300083FE206804210022FCF77EFE2068C168FC
:1054400021F40071C1606FF48061C268114041F2C3
:105450001112C160016A114208D1016A40F244424E
:10546000114203D1016821F001010160012084F89B
:105470003600002010BD10B5044641B12068042953
:105480000ED104210022FCF757FE206816E02068A8
:1054900000210022FCF750FE20686FF002010FE0AF
:1054A00000210022FCF748FE206804210022FCF7BE
:1054B00043FE2068C16821F00201C1606FF0040161
:1054C000C268114041F21112C160016A114208D153
:1054D000016A40F24442114203D1016821F0010106
:1054E0000160012084F83600002010BD704790F85C
:1054F00034300222012B09D080F836200268516135
:105500000022012180F8342080F8361010467047C0
:1055100070477047F8B50D4690F8341004460220E5
:10552000012963D084F836000120042A84F834006D
:105530000AD09AB9D5E90012EB682068FCF76EFF33
:10554000206850F8181F25E0D5E90012EB682068A4
:10555000FCF7A9FF206850F8181F39E0D5E900369C
:105560002168E868082A0F6A19D127F4807260F36D
:10557000071608460A6250F81C2F22F0F302324345
:105580000E6A026003F00A0226F4206343EA022254
:105590000A62016821F00C010160A9681DE027F48E
:1055A00080520A6232024FF2FF06B24360F30F32BA
:1055B000084650F81C6F26F4734632430E6A0260A8
:1055C00003F00A0226F4204343EA02320A62016829
:1055D00021F440610160A968090202681143016079
:1055E0000020012184F8340084F83610F8BD10B58D
:1055F0000446022041F2111284F836002068016A44
:10560000114208D1016A40F24442114203D10168BB
:1056100021F001010160204600F024F8002084F808
:10562000340084F83600002010BD90F83600704732
:10563000B0B110B5044690F8360028B9002084F8BF
:105640003400204600F00FF80220211D84F83600B7
:105650002068FCF74BFD012084F83600002010BDC7
:10566000012070477047704710B50446006801225A
:10567000FCF762FD2068016841F001010160002033
:1056800010BD000070B5044690F83600022804BF33
:10569000022070BD94F836000D46012806D112B9DB
:1056A0000BB1012070BD022084F836004FEAB5002E
:1056B000032813D8DFE800F002142434E069264EF2
:1056C00021680663254E3431E0698663E069FDF7A1
:1056D00067FE2068C16841F4007130E020682FE067
:1056E000206A1D4E216806631C4E3831206A86638D
:1056F000206AFDF755FE2068C16841F480611EE014
:10570000606A154E21680663144E3C31606A8663F8
:10571000606AFDF745FE2068C16841F400610EE053
:10572000A06A0D4E216806630C4E4031A06A866364
:10573000A06AFDF735FE2068C16841F48051C16060
:1057400029460122FCF7F8FC2068016841F00101BC
:105750000160002070BD00BF53210000FF21000048
:1057600010B504464FEAB100032808D8DFE800F07E
:1057700002090E132068C26842F002020FE020689E
:105780000EE02068C26842F0040208E02068C268A7
:1057900042F0080203E02068C26842F01002C260D2
:1057A0000122FCF7C9FC2068016841F00101016099
:1057B000002010BD10B5044600680022FCF7BCFCB8
:1057C000206841F21112016A114208D1016A40F2C7
:1057D0004442114203D1016821F00101016000201F
:1057E00010BD000010B504464FEAB100032808D8E8
:1057F000DFE800F002090E132068C26822F400728C
:105800000FE020680EE02068C26822F4806208E0A1
:105810002068C26822F4006203E02068C26822F4B3
:105820008052C2600022FCF787FC206841F211120E
:10583000016A114208D1016A40F24442114203D187
:10584000016821F001010160012084F83600002088
:1058500010BD000010B504464FEAB100032808D877
:10586000DFE800F002090E132068C26822F002028D
:105870000FE020680EE02068C26822F0040208E011
:105880002068C26822F0080203E02068C26822F0A3
:105890001002C2600022FCF74FFC206841F2111296
:1058A000016A114208D1016A40F24442114203D117
:1058B000016821F001010160002010BD10B504460F
:1058C00000680169890744BFC1685FEA817139D402
:1058D0000169490744BFC1685FEA41713ED401696B
:1058E000090744BFC1685FEA017144D40169C90670
:1058F00044BFC1685FEAC16149D40169C9071CBFDF
:10590000C1685FEAC1714FD10169090644BFC1682E
:105910005FEA016150D40169490644BFC1685FEA8A
:10592000416151D40169890644BFC1685FEA816160
:1059300000D410BD6FF0200101612046BDE8104089
:1059400007F0F1BB6FF0020101610121217580694F
:10595000800741D02046FFF7DBFD43E06FF00401F4
:10596000016102212175806910F4407F3ED02046FC
:10597000FFF7CEFD40E06FF00801016104212175C1
:10598000C06980073CD02046FFF7C2FD3EE06FF0C3
:105990001001016108212175C06910F4407F39D0E0
:1059A0002046FFF7B5FD3BE06FF0010101612046A5
:1059B00000F088FC2068A7E76FF0800101612046B5
:1059C00007F0B0FB2068A6E76FF0400101612046B8
:1059D00000F0DAFC2068A5E7204600F06CF82046CD
:1059E00000F037FB00202075206871E7204600F0AA
:1059F00062F8204600F02DFB0020207520686EE73D
:105A0000204600F058F8204600F023FB00202075C7
:105A100020686BE7204600F04EF8204600F019FBA6
:105A200000202075206868E7B0B590F8343004464F
:105A30000220012B20D084F836004FEAB200012565
:105A4000032884F8345012D8DFE800F002060A0E6A
:105A50002068FCF7E1FB0AE02068FCF705FC06E0A3
:105A60002068FCF72FFC02E02068FCF75BFC0020BC
:105A700084F8340084F83650B0BD10B504460220D6
:105A800041F2111284F836002068016A114208D1EF
:105A9000016A40F24442114203D1016821F0010140
:105AA0000160204600F025F8002084F8340084F8D6
:105AB0003600002010BD704790F836007047B0B136
:105AC00010B5044690F8360028B9002084F8340058
:105AD000204600F00FF80220211D84F836002068CF
:105AE000FCF704FB012084F83600002010BD0120E3
:105AF00070477047704710B5044600680122FCF7F4
:105B00001BFB2068016841F001010160002010BD0D
:105B100070B5044690F83600022804BF022070BD1C
:105B200094F836000D46012806D112B90BB10120B8
:105B300070BD022084F836004FEAB500032816D85D
:105B4000DFE800F002172A3DE0692C4E2168066369
:105B50002B4EE069866301F134061146E069324656
:105B6000FDF71EFC2068C16841F4007139E020682F
:105B700038E0206A214E21680663214E206A866340
:105B800001F138061146206A3246FDF709FC20680B
:105B9000C16841F4806124E0606A184E21680663A0
:105BA000174E606A866301F13C061146606A324610
:105BB000FDF7F6FB2068C16841F4006111E0A06ABE
:105BC0000E4E216806630E4EA06A866301F1400600
:105BD0001146A06A3246FDF7E3FB2068C16841F434
:105BE0008051C16029460122FCF7A6FA20680168AD
:105BF00041F001010160002070BD00BFC52100001F
:105C0000FF21000010B504464FEAB100032808D870
:105C1000DFE800F002090E132068C26842F00202B9
:105C20000FE020680EE02068C26842F0040208E03D
:105C30002068C26842F0080203E02068C26842F0AF
:105C40001002C2600122FCF777FA2068016841F077
:105C500001010160002010BD10B50446006800225B
:105C6000FCF76AFA206841F21112016A114208D168
:105C7000016A40F24442114203D1016821F001015E
:105C80000160002010BD000010B504464FEAB100CD
:105C9000032808D8DFE800F002090E132068C26864
:105CA00022F400720FE020680EE02068C26822F43F
:105CB000806208E02068C26822F4006203E0206885
:105CC000C26822F48052C2600022FCF735FA2068D4
:105CD00041F21112016A114208D1016A40F24442B4
:105CE000114203D1016821F001010160012084F813
:105CF0003600002010BD000010B504464FEAB10088
:105D0000032808D8DFE800F002090E132068C268F3
:105D100022F002020FE020680EE02068C26822F044
:105D2000040208E02068C26822F0080203E020684C
:105D3000C26822F01002C2600022FCF7FDF9206860
:105D400041F21112016A114208D1016A40F2444243
:105D5000114203D1016821F001010160002010BD52
:105D6000F0B587B09A4201D101204DE00D4690F880
:105D7000341004460220012946D084F83600012060
:105D80001E46042A84F8340095E88B508DE88B0079
:105D9000CDE905CE05D042B920686946FCF73CFA4A
:105DA00003E020686946FCF75FFA042E0AD02EBB98
:105DB00005F1180320680ECBFCF730FB50206FF084
:105DC0000C0108E005F1180320680ECBFCF76BFB13
:105DD00060206FF440612268936919409161916875
:105DE00021F070019160916808439060906820F400
:105DF00070209060906840F00600906000200121C3
:105E000084F8340084F8361007B0F0BD10B50446AD
:105E1000022041F2111284F836002068016A114212
:105E200008D1016A40F24442114203D1016821F0D5
:105E300001010160204600F02DF8002084F83400B4
:105E400084F83600002010BD90F836007047F8B195
:105E5000B0B5044690F836000D4628B9002084F805
:105E60003400204600F017F80220211D84F8360087
:105E70002068FCF73BF92068016821F00801016007
:105E8000016829430160012084F836000020B0BD7C
:105E9000012070477047704710B504460068002124
:105EA0000122FCF749F9206804210122FCF744F99A
:105EB000002010BD10B5044600680122C16841F001
:105EC0000201C160C16841F00401C1600021FCF71A
:105ED00033F9206804210122FCF72EF9002010BDBF
:105EE00010B50446006800210022FCF725F920685F
:105EF00004210022FCF720F9206841F21112016A06
:105F0000114208D1016A40F24442114203D10168B2
:105F100021F001010160002010BD10B504460068A9
:105F20000022C16821F00201C160C16821F00401B2
:105F3000C1600021FCF700F9206804210022FCF771
:105F4000FBF8206841F21112016A114208D1016A7E
:105F500040F24442114203D1016821F00101016085
:105F6000002010BDB0B590F8343004460220012B5B
:105F700031D084F836004FEAB2000125032884F8B6
:105F8000345023D8DFE800F0020A10182068FCF72C
:105F900043F920684FF40021183014E02068FCF722
:105FA00063F9206818300CE02068FCF78BF9206852
:105FB0004FF400211C3006E02068FCF7B3F920689C
:105FC0001C304FF00061026811430160002084F82A
:105FD000340084F83650B0BD10B50446022041F2BA
:105FE000111284F836002068016A114208D1016A52
:105FF00040F24442114203D1016821F001010160E5
:10600000204600F024F8002084F8340084F836009C
:10601000002010BD90F836007047B0B110B50446AE
:1060200090F8360028B9002084F83400204600F0AB
:106030000FF80220211D84F836002068FCF756F87E
:10604000012084F83600002010BD01207047704701
:1060500070477047704710B5044600680122FCF78E
:106060006BF82068016841F001010160002010BD5B
:1060700070B5044690F83600022804BF022070BDB7
:1060800094F836000D46012806D112B90BB1012053
:1060900070BD022084F836004FEAB500032816D8F8
:1060A000DFE800F002172A3DE0692C4E2168066304
:1060B0002B4EE069866301F134061146E0693246F1
:1060C000FDF76EF92068C16841F4007139E020687D
:1060D00038E0206A214E21680663214E206A8663DB
:1060E00001F138061146206A3246FDF759F9206859
:1060F000C16841F4806124E0606A184E216806633B
:10610000174E606A866301F13C061146606A3246AA
:10611000FDF746F92068C16841F4006111E0A06A0A
:106120000E4E216806630E4EA06A866301F140069A
:106130001146A06A3246FDF733F92068C16841F480
:106140008051C16029460122FBF7F6FF20680168F3
:1061500041F001010160002070BD00BFC5210000B9
:10616000FF21000010B504464FEAB100032808D80B
:10617000DFE800F002090E132068C26842F0020254
:106180000FE020680EE02068C26842F0040208E0D8
:106190002068C26842F0080203E02068C26842F04A
:1061A0001002C2600122FBF7C7FF2068016841F0BE
:1061B00001010160002010BD10B5044600680022F6
:1061C000FBF7BAFF206841F21112016A114208D1AF
:1061D000016A40F24442114203D1016821F00101F9
:1061E0000160012084F83600002010BD10B504467F
:1061F0004FEAB100032808D8DFE800F002090E13C7
:106200002068C26822F400720FE020680EE0206867
:10621000C26822F4806208E02068C26822F400624A
:1062200003E02068C26822F48052C2600022FBF7BB
:1062300083FF206841F21112016A114208D1016AFC
:1062400040F24442114203D1016821F00101016092
:10625000012084F83600002010BD000010B504466F
:106260004FEAB100032808D8DFE800F002090E1356
:106270002068C26822F002020FE020680EE0206869
:10628000C26822F0040208E02068C26822F0080216
:1062900003E02068C26822F01002C2600022FBF70F
:1062A0004BFF206841F21112016A114208D1016AC4
:1062B00040F24442114203D1016821F00101016022
:1062C000002010BD7047704790F83420012A01D19A
:1062D00002211BE001224FEAB10180F834200022A4
:1062E000032906D8DFE801F002070A0D01683431FE
:1062F00009E0002108E00168383104E001683C3120
:1063000001E001684031096880F834200846704790
:10631000B0B590F8342004460220012A15D084F844
:1063200036000125204684F83450FCF725F8206813
:10633000C16821F04001C160C16821F48041C160A1
:10634000002084F8340084F83650B0BDB0B590F821
:10635000342004460220012A15D084F83600012595
:10636000204684F83450FCF707F82068C16841F0F3
:106370004001C160C16821F48041C160002084F8FF
:10638000340084F83650B0BD70470000B0B588B016
:106390001548056815480168C90717D100F58050F0
:1063A0000121019001A805F0E3FDD0B10446104899
:1063B000844204D30FA016A1BD2274F07BFFA4FB7E
:1063C00005010B4A0023FAF7E7FA0BE0E80B4FF45C
:1063D0007A716FF3DF3505FB01F2484300EBD230F1
:1063E00000E0E80808B0B0BD4400045000A004502C
:1063F000007C920076203C20283438303030202A2F
:10640000204C58545F4C505F4359434C4529000081
:1064100048414C5F4765745469636B0001480068EC
:10642000704700BF94F74E20014951F82000704793
:1064300030B004506C48016821F0100101604168DF
:1064400041F00101416070472F48016821F00101CE
:106450000160704701214FF480728140103812288A
:1064600038BF02FA00F10348026822EA0101016024
:10647000002070471C0004402348016821F00201FD
:10648000016070472048016841F001010160016826
:106490004900FCD5704700BFB0B5A0F11003494AD0
:1064A000DCB2112C1DD84FF48074172804FA03F3C2
:1064B00043F000441462044688BF083CE5B2172844
:1064C00010464FEA450588BF043055FA84F4072585
:1064D000303CA540A14004682940AC432143016001
:1064E00002E0012101FA00F3906918439061002055
:1064F000B0BD00BF0448016841F0020101600168BD
:10650000B1F1FF3FFBDC70470C000440084802215A
:1065100001600020704700BF054801210160002094
:10652000704700BF0248032101600020704700BF90
:1065300000000440024600200B2A07D831B10E4863
:1065400000EBC20350F832009B880B80704700BFFD
:1065500010B5094B00220C2A0AD053F8324084426D
:1065600004D103EBC204A4888C4202D00132F2E7CA
:10657000FF2250B210BD00BFAC0A09001149486AA1
:1065800080064FF001000AD50F4A136843F000431C
:1065900013600A6842F000420A60C8620020704737
:1065A0000848416A89065CBF0120704706490A68AD
:1065B00022F000420A60016821F0004101600020E1
:1065C000704700BF040004400400045002281CBFB0
:1065D000012070470448016841F001010160016831
:1065E0008906FCD5002070472800044090F8701000
:1065F000012901D1022111E0242180F871100168E4
:106600000A6822F00C020A600A6842F004020A607A
:106610000021202280F8701080F871200846704711
:1066200090F87010012901D1022111E0242180F895
:10663000711001680A6822F00C020A600A6842F0D0
:1066400008020A600021202280F8701080F8712072
:1066500008467047A8B310B5044690F8710028B9F1
:10666000002084F87000204607F057F9242084F8B1
:1066700071002068016821F00101016020460AF0E4
:10668000D1FB606A10B120460AF052FA20684168D6
:1066900021F490414160816821F02201816081688C
:1066A00041F008018160016841F0010101600020B2
:1066B0002021606784F8711084F8700084F87210EB
:1066C00010BD012070477047704770B5D0E90B309E
:1066D0004FF40054802504620024C461C0E90544DD
:1066E0000561C0E902440E68C968C0E9006110266E
:1066F0001168D2681C6283E84600C3E90345C3E918
:106700000544DC61FCF714FD002070BDB0B110B58C
:106710000446242084F837002068016821F0040131
:106720000160204600F084FE0020E06384F837001A
:10673000606284F8340084F8380010BD012070478E
:106740007047C06B704790F83800704790F837106A
:10675000202905D10168C968490744BF2420704732
:1067600090F8370070470000B0B1B0B5044600683B
:10677000324988421AD0324988420FD03149884282
:106780000ED0314988420DD0304988420CD0304972
:1067900088420ED12E200AE001207047322006E008
:1067A0002F2004E0302002E0312000E02D2005F011
:1067B000D3F894F8370028B9002084F83400204634
:1067C00000F037FE242084F837002068016821F0AB
:1067D00004010160012194F8350004F0BDFF94F834
:1067E000362094F838301103102B02D141F0090102
:1067F00005E094F83830202B08BF41F005016368AC
:106800000BB9144B6360134DB0FBF3F0B3FBF5F51C
:10681000801A114A401B02EB002040F2FF12904305
:106820002268906111600020122190605161202146
:10683000E06384F837106062B0BD00BF00C0014063
:1068400000D000500020024000F0024000C0005084
:1068500000D00140400D030000F9FFFF7047704772
:1068600070472DE9FC47044690F83700202817D1DF
:1068700094F83400012813D001201D4616460F4617
:1068800084F83400FFF782FD814600902046042101
:106890000122192307F02AFD28B1002084F83400D2
:1068A0000220BDE8FC8722204FF0000ADDF8288096
:1068B00039464B4684F83700102084F83800C4F875
:1068C0003CA0E583A661C4F828A04246E08BA083E3
:1068D000204607F03BFB88B32068C168C2681143BB
:1068E000C160202084F83700012084F834A084F8A7
:1068F00038A0BDE8FC87206800224346C16841F00B
:106900008001C160E18B01294FF0010108BF0D2119
:1069100041602046CDF80090802107F0E7FC002878
:10692000DAD12068A16900690870A0690130A0610E
:10693000A08B0138A083E08B0138E083E08B002836
:10694000D9D1202084F83700002084F8340084F85E
:106950003800BDE8FC870000F8B5044690F8370021
:10696000202808D10D462168C868400703D494F850
:106970003400012801D10220F8BD222084F837001C
:10698000102084F838000020E063D348E3832062BD
:106990000120A26184F83400D048A062E08BB0F5F9
:1069A000807F02D3FF23A38302E0E38BA383FBB1A9
:1069B000206B78B1DFF884C9224F00263031C0E95E
:1069C0000C76C0E90EC6FCF7EBFC98B1E06B40F02A
:1069D000100002E0E06B40F08000E063202084F8CB
:1069E0003700002084F8340084F838000120F8BD16
:1069F0000020F8BDFFF7CAFC0346204629464FF4A5
:106A00007A7207F0A3FA40B12068E16B41F004010B
:106A1000E1634FF000410160E0E7A08BE18B091AD0
:106A2000E18321680A6842F070020A608A6842F4D1
:106A300000528A6088620020402284F834004A6054
:106A4000F8BD00BF35DE0000B0B5044690F8370051
:106A5000202803D194F83400012801D10220B0BDD0
:106A600010200D4684F838000020E063CD48E38311
:106A700020620120A26184F83400CB48A062E08B40
:106A8000FF2894BFE08BFF20A0832068816821F05D
:106A9000C0018160FFF77AFC0346204629464FF487
:106AA0007A7207F053FA60B1206804214160202017
:106AB00084F83700002084F8340084F8380001207E
:106AC000B0BD2220012284F837002168C86840F058
:106AD0004000C860E08B01284FF0000008BF0D2285
:106AE0004A6084F834008A6842F080028A60B0BD4F
:106AF0002DE9FC47044690F83700202817D194F878
:106B00003400012813D001201D4616460F4684F894
:106B10003400FFF73BFC814600902046042101220F
:106B2000192307F0E3FB28B1002084F83400022089
:106B3000BDE8FC8721204FF0000ADDF828803946A7
:106B40004B4684F83700102084F83800C4F83CA085
:106B5000E583A661C4F828A04246E08BA0832046C6
:106B600007F042FA80B32068C168C2681143C1606F
:106B7000202084F83700012084F834A084F838A05D
:106B8000BDE8FC872068A1694346C26842F0400224
:106B9000C260002209780161E18B01294FF00101F7
:106BA00008BF052141602046CDF80090402107F044
:106BB0009DFB0028D7D1A0690130A061E08B01388E
:106BC000E083A08B0138A083E08B0028DAD120205D
:106BD00084F83700002084F8340084F83800BDE8D9
:106BE000FC870000F8B5044690F83700202808D14B
:106BF0000D462168C868400703D494F83400012882
:106C000001D10220F8BD212084F83700102084F83B
:106C100038000020E063F848E38320620120A2618D
:106C200084F83400F548A062E08BB0F5807F02D391
:106C3000FF23A38302E0E38BA38323B30420C86173
:106C4000E06A90B1DFF8F4C6254F0026C0E90C7663
:106C5000C0E90EC601F1300611463246FCF7A0FB32
:106C600098B1E06B40F0100002E0E06B40F0800073
:106C7000E063202084F83700002084F8340084F892
:106C800038000120F8BD0020F8BDFFF77FFB034668
:106C9000204629464FF47A7207F0A6F940B12068E1
:106CA000E16B41F00401E1634FF000410160E0E776
:106CB000A08BE18B091AE18321688A6842F40052B3
:106CC0008A600A6842F050020A608862002020222E
:106CD00084F834004A60F8BD0000FFFF79E000004E
:106CE000C1DE0000B0B5044690F83700202808D176
:106CF00020680D46C168490703D494F8341001296F
:106D000001D10220B0BD102184F838100021E163C8
:106D1000FB49E38321620121A26184F83410F9491F
:106D2000A162E18BFF2994BFE18BFF21A1838168E0
:106D300021F0C0018160FFF729FB03462046294668
:106D40004FF47A7207F050F960B120680421416075
:106D5000202084F83700002084F8340084F83800BC
:106D60000120B0BD2120012384F837002168A069EB
:106D7000CA6842F04002CA6010F8012B0A61A28B77
:106D8000012A08BF05234B60013AE38B013BE383F3
:106D9000A0610020A28384F834008A6842F0400297
:106DA0008A60B0BD0000FFFFF9E000007047704747
:106DB0002DE9FE4F044690F83700202821D1DDF858
:106DC00030A0BAF1000F1FD0DDF834B0BBF1000FD6
:106DD0001AD094F83400012813D001201E4615461D
:106DE0000F4684F83400FFF7D1FA81460090204620
:106DF00004210122192307F079FA58B1002084F800
:106E000034000220BDE8FE8F4FF40070E0630120E3
:106E1000BDE8FE8F22200E994FF000082A46334627
:106E200084F83700402084F83800C4F83C80C4F867
:106E300018A0C4F82880A4F81EB08A46CDE900192D
:106E40002046394607F0A6F910B184F83480DEE711
:106E5000E08B394652464B46A083204607F076F831
:106E600078B320684FF000410160202084F837009B
:106E7000002084F8340084F83800C8E72068002235
:106E80005346C16841F08001C160E18B01294FF098
:106E9000010108BF0D2141602046CDF800908021FE
:106EA00007F024FA0028DCD12068A1690069087085
:106EB000A0690130A061A08B0138A083E08B01386C
:106EC000E083E08B0028D9D1202084F8370000200F
:106ED00084F8340084F83800BDE8FE8F2DE9FE43C5
:106EE000044690F83700202811D1DDF82880B8F149
:106EF000000F0ED0DDF82C90B9F1000F09D02068FA
:106F0000C068400703D494F83400012808D1022750
:106F100003E04FF40070E06301273846BDE8FE83CC
:106F200001201F4616460D4684F83400FFF72EFA5E
:106F3000222132463B4684F83710402184F838102D
:106F40000021E163FB49A4F81E902162FA49C4F8CC
:106F50001880A162E18BFF2994BFE18BFF21A183FF
:106F60001921CDE900102046294607F013F918B180
:106F7000002084F83400CFE7206BC0B1EF49204AED
:106F80000027C0E90C27C0E90E1742462168A38BF1
:106F90001031FCF705FAB0B1202084F8370084F8EE
:106FA000387084F83470E06B40F01000B3E72020B4
:106FB00084F83700002084F8380084F83400E06B4F
:106FC00040F08000A7E769002068013101610321DA
:106FD0004160A18BE28B521AE283026842F0700298
:106FE0000260826842F4005282608162402184F82B
:106FF0003470416091E700BF0000FFFF79E00000BE
:1070000035DE00002DE9FC47044690F837002028C3
:1070100011D1DDF82890B9F1000F0FD0DDF82CA0C8
:10702000BAF1000F0AD02068C068400703D494F872
:107030003400012808D10220BDE8FC874FF400701D
:10704000E0630120BDE8FC8701201E4617460D467F
:1070500084F83400FFF79AF9804640203A463346D8
:1070600084F838000020E063EF48A4F81EA02062F6
:10707000EE48C4F81890A062E08BFF2894BFE08B24
:10708000FF20A0832068816821F0C0018160192061
:107090002946CDE90008204607F07CF818B1002009
:1070A00084F83400CDE7206800221923C16841F03C
:1070B0004201C16069000025013101610321416085
:1070C00020464021CDF8008007F010F9014601204C
:1070D00099B92168CA6842F0C002CA60222284F8C5
:1070E0003720E28B012A08BF0D20486084F8345015
:1070F000886840F0C00088600020BDE8FC8700BFC1
:107100000000FFFFF9E000002DE9FE4F044690F873
:107110003700202821D1DDF830B0BBF1000F1FD09F
:10712000DDF834A0BAF1000F1AD094F83400012829
:1071300013D001201F4616460D4684F83400FFF791
:1071400025F981460090204604210122192307F0E9
:10715000CDF858B1002084F834000220BDE8FE8F3D
:107160004FF40070E0630120BDE8FE8F2120DDF8C0
:107170003880294632463B4684F83700402084F860
:1071800038000020E063C4F818B04FF0000B204630
:10719000C4F828B0A4F81EA0CDE9008907F050F883
:1071A00050B1206804214160202084F8370084F821
:1071B00034B084F838B0D6E7E08BA0832046402175
:1071C00000224346E58BCDF8009007F08FF8C5B15B
:1071D0000028E6D12068A169C26842F04002C2607E
:1071E00011F8012B0261E28B012A4FF0010208BF66
:1071F00005224260A161E08B0138E083A08B013859
:10720000DBE70028CDD1202084F83700002084F867
:10721000340084F83800BDE8FE8F00002DE9FC47FB
:10722000044690F83700202811D1DDF82880B8F105
:10723000000F0FD0DDF82CA0BAF1000F0AD02068A3
:10724000C068400703D494F83400012808D1022014
:10725000BDE8FC874FF40070E0630120BDE8FC87C7
:1072600001201D4616460F4684F83400FFF78EF8BD
:107270008146212084F83700402084F8380000201F
:10728000E0636948A4F81EA020622B48C4F8188067
:10729000A062E08BFF2894BFE38BFF23E06AA38307
:1072A000C8B12649264A4FF0000AC0E90C2AC0E9B5
:1072B0000E1A216801F110024146FCF771F8B0B1D5
:1072C000202084F8370084F838A084F834A0E06BDC
:1072D00040F01000C0E7202084F83700002084F838
:1072E000380084F83400E06B40F08000B4E71920E7
:1072F000394632462B46CDE90009204606F0A0FF6C
:1073000018B1002084F83400A7E7A08BE18B091A9C
:10731000E18321688A6842F400528A600A6842F078
:1073200050020A6088620020202284F834004A60FB
:10733000BDE8FC870000FFFF79E0000031DE0000BF
:10734000C1DE00002DE9FE43044690F837002028F6
:1073500011D1DDF82880B8F1000F0FD0DDF82C90A6
:10736000B9F1000F0AD02068C068400703D494F830
:107370003400012808D10220BDE8FE834FF40070DC
:10738000E0630120BDE8FE8301201D4616460F463E
:1073900084F83400FEF7FAFF40212B4684F83810B9
:1073A0000021E1632049A4F81E9021621F49C4F81E
:1073B0001880A162E18BFF2994BFE18BFF21A1839B
:1073C00021688A6822F040028A6019213246CDE99C
:1073D00000102046394606F033FF18B1002084F82B
:1073E0003400CEE72120012384F837002168A0690A
:1073F000CA6842F04202CA6010F8012B0A61A28BEF
:10740000012A08BF05234B60013AE38B013BE3836C
:10741000A0610020A28384F834008A6842F0400210
:107420008A60BDE8FE8300BF0000FFFFF9E00000B6
:107430007047704702460120A2B399B370B5D2E9F4
:1074400000020124D0F8003564F31743C0F800357A
:107450008B68B2FBF3F3C0F87031CB68B2FBF3F288
:10746000C0F850210B788D784C78CE785A4342EA98
:107470000242C0F84021042202EA85024B7963F3FC
:10748000C302C0F820210A7DC0F83021C4F30012E5
:1074900066F34102C0F890210979C0F8A0110020DC
:1074A000BDE87040704702460120E2B3D9B370B521
:1074B000D2E900020124D0F8003564F31743C0F884
:1074C00000358B68B2FBF3F30362CB68B2FBF3F2D7
:1074D000C0F880200B788D784C78CE785A4342EAF9
:1074E00002420267042202EA85024B7963F3C30277
:1074F000C0F8A0200A7DC0F8902004F01F0266F3B7
:10750000451202610A7902640A7C02F00F020265E8
:107510004A7C1AB1897C41EA021100E0002101662F
:107520000020BDE87040704790F85C10012901D13F
:10753000022127E0012180F85C1090F85D104907D6
:107540000CD50168D1F8C02042F00102C1F8C0207A
:1075500090F85D1041F0160180F85D1090F85D1014
:1075600009070CD50168D1F8102142F00102C1F8D9
:10757000102190F85D1041F0160180F85D10002197
:1075800080F85C100846704790F85C10012901D122
:10759000022133E0012180F85C1090F85D1004298D
:1075A00012D10168D1F8C02022F00102C1F8C02038
:1075B000D1F8B02042F00102C1F8B02090F85D107F
:1075C00001F0E90180F85D1090F85D10082912D1F2
:1075D0000168D1F8102122F00102C1F81021D1F880
:1075E000002142F00102C1F8002190F85D1001F085
:1075F000E90180F85D10002180F85C1008467047B2
:1076000010B5044690F85C00012804BF022010BDAC
:10761000012084F85C002168606DD1F8C02042F040
:107620000102C1F8C020D1F8102142F00102C1F8D6
:107630001021D1F8802442F00202C1F88024D1F850
:10764000802442F00102C1F8802430B101680A6848
:1076500022F001020A60FBF780FCA06D30B10168E6
:107660000A6822F001020A60FBF777FC2068D0F874
:10767000001121F00101C0F80011D0F8B01021F084
:107680000101C0F8B010012084F85D00002084F8EA
:107690005C0010BD30B310B5044690F85D0040F0BA
:1076A000020084F85D00606D08B1FBF79BFCA06DE3
:1076B00008B1FBF797FC2068D0F8B01021F0010169
:1076C000C0F8B010D0F8001121F00101C0F800118D
:1076D000204600F0BCF80020206684F85D0084F8A5
:1076E0005C0010BD012070477047006E704790F835
:1076F0005D0070470168D1F81023D3071CBFD1F893
:1077000000335FEAC37307D1920744BFD1F8002367
:107710005FEA827219D47047D1F84024836C04C3A5
:10772000026D013A02658364026D002AF3D1D1F83B
:10773000002322F00102C1F8002390F85D1001F04F
:10774000F70180F85D1000F0FAB9C26B08CAC1F801
:107750000034436C013B4364C263426C002ADAD1BB
:10776000D1F8002322F00202C1F8002390F85D1046
:1077700001F0FB0180F85D1000F044BB002864D0EC
:10778000F8B5044690F85D0028B9002084F85C0044
:10779000204600F05DF894F85D0004F10C0140F023
:1077A000020084F85D002046FFF77DFE04F124010D
:1077B0002046FFF73FFE2168606DD1F8B02022F02F
:1077C0000102C1F8B020D1F8002122F00102C1F875
:1077D0000021D1F8802442F00202C1F88024D1F8BF
:1077E000802442F00102C1F88024A0B100214FF4AE
:1077F000005C20234FF400654FF4007680271022B0
:10780000C462C0E90221C0E90476C0E90653C0E9B8
:1078100008C1FBF78DFCA06D88B1002120224FF438
:1078200000634FF400758026C462C0E90211C0E90C
:107830000465C0E90632C0E90811FBF779FC0020B5
:107840000121206684F85D10F8BD01207047704763
:10785000704790F85C10012901D1022116E0012146
:1078600080F85C1090F85D1009070CD50168D1F81C
:10787000102142F00102C1F8102190F85D1041F092
:10788000160180F85D10002180F85C1008467047F2
:1078900090F85C10012901D102211CE0012180F83F
:1078A0005C1090F85D10082912D10168D1F8102100
:1078B00022F00102C1F81021D1F8002142F00102AA
:1078C000C1F8002190F85D1001F0E90180F85D1029
:1078D000002180F85C100846704710B5044690F807
:1078E0005C00012804BF022010BD012084F85C0068
:1078F0002168A06DD1F8102142F00102C1F81021D9
:10790000D1F8802442F00102C1F8802438B1016826
:107910000A6822F001020A60FBF71FFB2168D1F818
:10792000000120F00100C1F8000194F85D0000F0B2
:10793000F70084F85D00002084F85C0010BDB0B54D
:107940000446012000294BD0002A49D094F85C005D
:10795000012844D0012084F85C0094F85D00000701
:107960003AD490081D46E06420650020206694F813
:107970005D0040F0080084F85D00A1642068D0F844
:107980000011C90705D1D0F8001141F00101C0F87C
:107990000011D0F8101121F00101C0F81011D0F839
:1079A0002011490705D4D0F8101321F00101C0F8C7
:1079B0001013216DA9B12046042101222B4606F0A7
:1079C0000BFDF0B92068A16CD0F8402404C1A1647B
:1079D000216D01392165ECE7002084F85C0002206C
:1079E000B0BD94F85D1001F0F70184F85D10D0F897
:1079F000001121F00101C0F80011002084F85C00A2
:107A0000B0BD0320B0BD000070B5002856D00D46B3
:107A10000121002A58D0002D56D00446806D002840
:107A200052D094F85C1001294DD0012184F85C10EB
:107A300094F85D10090743D494F85D10D54B244E9B
:107A400041F0080184F85D10002121669108E1648D
:107A500021652168D1F8102122F00102C1F810211E
:107A60001A4AA564C0E90C628363D1F82021520749
:107A700005D4D1F8102322F00102C1F81023E36CE1
:107A800001F588612A46FBF78BFC2068D0F880144A
:107A9000C90705D0D0F8801421F00101C0F8801486
:107AA000D0F80011C90705D1D0F8001141F001014B
:107AB000C0F80011002184F85C1005E0012103E00A
:107AC000002084F85C000221084670BDA1E300009C
:107AD00075E3000010B5012379B372B390F85C3000
:107AE000012B29D0012380F85C3090F85D301B0712
:107AF0001FD490F85D30920843F0080380F85D30A1
:107B000000230366C26402650268D2F8004344F0B1
:107B10000104C2F800438164D2F80011C90705D1FD
:107B2000D2F8001141F00101C2F8001180F85C3078
:107B300003E0002180F85C100223184610BD704756
:107B4000704790F85C10012901D1022116E0012153
:107B500080F85C1090F85D1049070CD50168D1F8E9
:107B6000C02042F00102C1F8C02090F85D1041F041
:107B7000160180F85D10002180F85C1008467047FF
:107B800090F85C10012901D102211CE0012180F84C
:107B90005C1090F85D10042912D10168D1F8C02062
:107BA00022F00102C1F8C020D1F8B02042F0010259
:107BB000C1F8B02090F85D1001F0E90180F85D1087
:107BC000002180F85C100846704710B5044690F814
:107BD0005C00012804BF022010BD012084F85C0075
:107BE0002168606DD1F8C02042F00102C1F8C020C8
:107BF000D1F8802442F00202C1F8802438B1016833
:107C00000A6822F001020A60FBF7A7F92168D1F89F
:107C1000B00020F00100C1F8B00094F85D0000F061
:107C2000FB0084F85D00002084F85C0010BD70B596
:107C300004460120002941D0002A3FD094F85C007E
:107C400001283AD0012084F85C0094F85D004007D8
:107C500030D490081D46206460640020206694F8AB
:107C60005D0040F0040084F85D00E1632068D0F816
:107C7000B010C90705D1D0F8B01041F00101C0F82B
:107C8000B010D0F8C01021F00101C0F8C010666C2F
:107C90002046402100222B4606F09EFB7EB178B99B
:107CA000E16B206804C9C0F80024E163606C01380E
:107CB0006064ECE7002084F85C00022070BD08B12D
:107CC000032070BD94F85D0000F0FB0084F85D00B7
:107CD0002068D0F8B01021F00101C0F8B0100020E9
:107CE00084F85C0070BD000070B5012300284DD001
:107CF000002A4BD0002949D00446406D002845D0C9
:107D000094F85C30012B40D0012384F85C3094F867
:107D10005D305B0736D494F85D3092081D4D1E4EE1
:107D200043F0040384F85D30002323662264626418
:107D30002268D2F8C03023F00103C2F8C030144BDF
:107D4000E16302F58062C0E90C638563236CFBF795
:107D500027FB2068D0F88014890705D5D0F8801457
:107D600021F00201C0F88014D0F8B010C90705D185
:107D7000D0F8B01041F00101C0F8B010002384F831
:107D80005C3003E0002084F85C000223184670BDDC
:107D9000D3E300004DE30000A7E3000010B501238A
:107DA00071B36AB390F85C30012B28D0012380F8BE
:107DB0005C3090F85D305B071ED490F85D3043F086
:107DC000040380F85D3000230366026442640268A5
:107DD000D2F8004344F00204C2F80043C163D2F871
:107DE000B010C90705D1D2F8B01041F00101C2F8B6
:107DF000B01080F85C3003E0002180F85C100223B2
:107E0000184610BD70477047024801680131016093
:107E1000704700BF94F74E2080B502F089FD02F054
:107E200086FD032002F046FA002000F004F8002846
:107E300018BF012080BD002070470000B0B5044687
:107E400009484FF47A710068B0FBF1F005F048F989
:107E500008B1012506E04FF0FF3021460022002541
:107E600002F00CFA2846B0BD20C04E2001790C2942
:107E700006D10068D0F8BC1021F00101C0F8BC1098
:107E80000020704700680029D0F8A02022F00103EC
:107E900018BF42F00103C0F8A0307047E0B5016898
:107EA0008A680192019A8A60CA6822F00102CA6057
:107EB000019A920305D5D0F84C2142F00202C0F895
:107EC0004C2102790E2A0FD00C2A2BD1CA6822F03D
:107ED0000402CA600199090324D5D0F84C1141F07D
:107EE0000401C0F84C11FEE7019A920222D4019AD3
:107EF000D20217D5D1F8EC30D1F8D0205340B3F5E9
:107F0000803F1ED2CA6822F01002CA60D1F8EC206D
:107F100022F01002C1F8EC20D1F8F42042F0805297
:107F2000C1F8F42011490A681AB100220A6006F06B
:107F300069FE8CBDD0F84C1141F00401C0F84C1121
:107F4000FEE7D1F8EC0080B2C1F8EC004FF6FF700C
:107F500022EA0000D1F8EC201043C1F8EC00D1F87F
:107F6000EC0020F00100C1F8EC008CBDE8CF4E2001
:107F700070B590B301680446684A1120914208BF69
:107F8000102003F0E9FC2068C16841F48071C160F1
:107F9000D0F8801021F01C01C0F88010217902294E
:107FA0001CD2D0F88010C0F88010D0F88410227C49
:107FB00002F0010341EA8351C2F3C00341EA834165
:107FC000C2F38003C2F3400241EA035141EA425145
:107FD00041F00901C0F884103FE0FEE70CD1D0F871
:107FE000801041F00301C0F880102169C0F88810AA
:107FF0006169C0F88C1030E00A2917D8D0F88020C9
:10800000033942F00402C0F88020CAB2062A8FBFAA
:108010004FF09C4149B242A252F82110226902F06D
:10802000070241EA8231C0F89C1016E00C2909D001
:108030000D290CD00E2904D1D0F8801041F0140184
:1080400009E0FEE7D0F8801041F00C0103E0D0F821
:10805000801041F01001C0F88010A168204608F09F
:1080600087FB217B204608F071FC002003F056FBC3
:108070002168D1F8A02022F00102C1F8A0202F4AE7
:10808000B0FBF2F02279D31E072B07D8237DE269DB
:10809000022B14D0012B1FD1A36908E0012A0CD8B0
:1080A000637CA269022B0DD0012B15D163690125D8
:1080B00063F34105C1F8A0500EE000220CE0A36973
:1080C000256A01E06369E569022606EA430365F370
:1080D000D2030533C1F8A0305043C1F8A400B4F86E
:1080E000D40020F00800A4F8D400B4F8F40040F064
:1080F0000800A4F8F400D1F8840040F40000C1F8AE
:1081000084000020C4F84C01C4E95400C4F85801AC
:10811000012084F84801002070BD00BF00800040AD
:108120000000004E0000024E0000044E0000004E11
:108130000000084E00000A4E00000C4E40420F00A6
:108140000068D0F8A0108907D0F8A01021F0020232
:1081500058BF41F00202C0F8A020704700EB411068
:10816000B0F8D41041F00801A0F8D41000207047F6
:1081700090F84721012A06D1D0F84C1141F0004176
:10818000C0F84C11FEE700EB4111012280F84721B5
:10819000B1F8D42022F00402A1F8D420D0F84C1178
:1081A000B1F1FF3F04DD002180F847110020704746
:1081B000FEE790F84721012A06D1D0F84C1141F092
:1081C0000041C0F84C11FEE700EB4111012280F89C
:1081D0004721B1F8D42022F00202A1F8D420D0F82F
:1081E0004C11B1F1FF3F04DD002180F84711002060
:1081F0007047FEE700EB4110B0F8D41021F0080101
:10820000A0F8D4100020704790F84731012B06D118
:10821000D0F84C1141F00041C0F84C11FEE700EBE2
:108220004111012380F8473181F8D320B1F8D420DF
:1082300042F00402A1F8D420D0F84C11B1F1FF3F74
:1082400004DD002180F8471100207047FEE7B0B53B
:1082500090F84741012C06D1D0F84C1141F0004173
:10826000C0F84C11FEE700EB4111049C012580F899
:10827000475181F8BD20B1F8D42081F8BF4081F882
:10828000BE3042F00202A1F8D420D0F84C11B1F176
:10829000FF3F04DD002180F847110020B0BDFEE75C
:1082A00000EB4110B0F8D410C90714BF90F8D20009
:1082B00000207047B0B5044690F84701012806D168
:1082C000D4F84C0140F00040C4F84C01FEE704EB48
:1082D00041150120202184F8470105F1B800F8F785
:1082E00021FC4FF6FF70A5F8D000FF2085F8D300E1
:1082F000D4F84C01B0F1FF3F04DD002084F84701C1
:108300000020B0BDFEE790F84731012B06D1D0F830
:108310004C1141F00041C0F84C11FEE70123B42A92
:1083200080F8473107D0B2B900EB4111B1F8D42041
:1083300022F0300205E000EB4111B1F8D42042F008
:108340003002A1F8D420D0F84C11B1F1FF3F01DD8B
:10835000002106E0FEE7D0F84C11B1F1FF3F05DD4A
:108360000121002280F8472108467047FEE7B0B59A
:1083700090F84741012C06D1D0F84C1141F0004152
:10838000C0F84C11FEE700EB4111049C012580F878
:10839000475181F8C24081F8C13081F8C020D0F83F
:1083A0004C11B1F1FF3F04DD002180F8471100209E
:1083B000B0BDFEE790F84731012B06D1D0F84C1143
:1083C00041F00041C0F84C11FEE7012380F847312D
:1083D00059B100EB4111002281F8D220B1F8D4202C
:1083E00022F00102A1F8D4200BE080F8D220002A6C
:1083F00018BF0122B0F8D41021F001011144A0F8F7
:10840000D410D0F84C11B1F1FF3F04DD002180F809
:10841000471100207047FEE7F0B5069D0446012095
:10842000AB4210D8079F059EBE420CD804EB41100A
:10843000A0F8CE70A0F8CC50A0F8CA60A0F8C83060
:10844000C0F8B8200020F0BDF0B5069D044601201C
:10845000AB4213D8079F059EBE420FD804EB4111D3
:108460000898A1F8D0000020A1F8CE70A1F8CC5057
:10847000A1F8CA60A1F8C830C1F8B820F0BD00EB7F
:10848000411080F8BC200020704770B5044690F879
:108490004701012806D1D4F84C0140F00040C4F84F
:1084A0004C01FEE7012015460E4684F847012046A0
:1084B00008F052FD032807D1D4F84C01B0F1FF3F7A
:1084C00001DD032012E0FEE7206829464FF48062B8
:1084D00000F58060F8F7FFFA04EB4610C0F8C450CE
:1084E000D4F84C01B0F1FF3F04DD0020002184F8F6
:1084F000471170BDFEE70000B0B5044600790528BD
:108500001CBF0120B0BD1F4D286808B10220B0BDBE
:1085100004F590701C22F8F7DEFA204606F0D6FE2D
:1085200000B1B0BD01206C6007F0B8F80020B0BD0C
:1085300010B5007905281CBF012010BD054C1D2079
:10854000A0471E20A0473820A0470E490020C1E9BF
:10855000000010BD59B9000000EB41100299A0F8CD
:10856000CE100199A0F8C830C0F8B820A0F8CC10FF
:108570000099A0F8CA100348816801318160002089
:10858000704700BFF4C44E202DE9F04138B11D46BC
:108590002BB10446501E1746042801D3FEE7FEE720
:1085A000DDF81880B8F1000F04BF0020BDE8F081AD
:1085B00094F84701012806D1D4F84C0140F000405E
:1085C000C4F84C01FEE7012084F8470194F8480103
:1085D000012808D120790E46C11E07290BD8B8F111
:1085E000050F29D3FEE7D4F84C01B0F1FF3F01DDC0
:1085F000022066E0FEE702281DD2204631463A46B8
:1086000008F070F8204608F0A7FC03283CD00526A7
:10861000B8F1000F4FD02068C0F89060204608F0F5
:108620009BFC032830D02068A8F10108D0F89800FE
:1086300005F8010BECE7FEE72046012100F079F890
:10864000204608F089FC03281ED04FF440004FF468
:10865000401100EB875001EB08513FFA80F001F424
:10866000401108442168D1F89C2022F0F87210448F
:10867000C1F89C000420C1F89460C1F89000204625
:1086800008F06AFC032807D1D4F84C01B0F1FF3F91
:1086900001DD032015E0FEE720680021D0F89800F6
:1086A000B8F1000F07D020FA01F20831A8F1010853
:1086B00005F8012BF4E7D4F84C01B0F1FF3F05DDDC
:1086C0000020002184F84711BDE8F081FEE7B0B535
:1086D00004460068D0F88030D0F8805025F01C05A2
:1086E000C0F8805003F01C05D0F8843061B143F429
:1086F0000001C0F884101046FAF7D0FE2068D0F8C8
:10870000841021F400010BE023F40001C0F8841070
:108710001046FAF7C3FE2068D0F8841041F4000137
:10872000C0F88410D0F880102943C0F880100020D1
:10873000B0BDB0B50C46054608F00EFC2868002C0C
:10874000D0F89C1021F0006218BF41F00062C0F820
:108750009C20B0BD70B5044690F84701012806D1B1
:10876000D4F84C0140F00040C4F84C01FEE7012071
:1087700084F8470194F84801012808D1204615469D
:108780000E4608F0E9FB032803D103202AE002206B
:1087900028E00220002184F848012046FFF7C9FFA5
:1087A000204631462A4607F09DFF2046012101253B
:1087B000FFF7BFFF2046002108F010FC80B92179A7
:1087C00020680C2905D181684903FCD54FF480212C
:1087D00004E08168C903FCD54FF48031816000203A
:1087E00084F84851D4F84C11B1F1FF3F03DD00216A
:1087F00084F8471170BDFEE7F8B5044690F84701CC
:10880000012806D1D4F84C0140F00040C4F84C01D6
:10881000FEE7012084F8470194F84801012808D1B7
:10882000204616460F4608F097FB032803D103267F
:108830001BE0022619E002200021002584F84801EF
:108840002046FFF776FF20463946324607F04AFFBA
:10885000204601210127FFF76CFF2046012108F087
:10886000BDFB40B1064684F84871D4F81C1109B12B
:10887000204688473546D4F84C01B0F1FF3F04DD6F
:10888000002084F847012846F8BDFEE7704770B520
:10889000044690F84701012806D1D4F84C0140F075
:1088A0000040C4F84C01FEE7012084F8470194F829
:1088B0004801012806D1204608F04EFB032803D1C9
:1088C00003250DE002250BE002200121012684F89A
:1088D0004801204608F082FB90B1054684F84861C3
:1088E000D4F81C1109B120468847D4F84C01B0F1E6
:1088F000FF3F04DD002084F84701284670BDFEE7F5
:108900000025F2E780F8463180F8452180F84411CF
:1089100000207047B0B50C46054608F01DFB284600
:10892000214607F025FF0020B0BDB0B50C46054636
:1089300008F012FB2846214608F008F80020B0BDD8
:1089400010B5012298B191B18A880B88934203D85F
:10895000CC884988A14201D9012208E0A0F8402131
:108960000022A0F83C31A0F84241A0F83E11104688
:1089700010BD1CB5049CADF800106946ADF804307C
:10898000ADF80220ADF80640FFF7DAFF1CBD006825
:10899000CB1E082BD0F89C2000D3FEE74FF42023F9
:1089A00003EB41411346490C61F35343C0F89C303B
:1089B000C2F342400330704710B50446FFF7C0FBD6
:1089C0002046BDE81040FFF7BBBB2DE9F84F28B1AA
:1089D0000446501E1646042801D3FEE7FEE7204653
:1089E00098468B4608F0B8FA032804BF0320BDE878
:1089F000F88F94F84701012806D1D4F84C0140F0D3
:108A00000040C4F84C01FEE7012084F8470194F8C7
:108A1000480101282ED12179DDF82890033909EB8E
:108A20000600072906D82168D1F89C2022F0F872A8
:108A3000C1F89C206FF00701A0F1010A002701EBAB
:108A4000C605BE421ED0AAEB0700B0FA80F041096D
:108A50002046FFF76EFE204608F07EFA2BFA05F05E
:108A600021680137083DC0B2C1F894000220C1F866
:108A70009000E6E7D4F84C01B0F1FF3F01DD0220A1
:108A800026E0FEE7B9F1000F1CD0B8F1000F16D0B8
:108A90000325B9F1000F13D0A9F10109B9FA89F042
:108AA00041092046FFF745FE204608F055FA18F820
:108AB000010B2168C1F89400C1F89050E9E7FEE786
:108AC00000D0FEE7D4F84C01B0F1FF3F05DD0020F7
:108AD000002184F84711BDE8F88FFEE7084800211F
:108AE0000160704706480068B0F1A53018BF01204A
:108AF0004000704702484FF0A5310160704700BF49
:108B000000E84F2070B5144602460120032A36D8EB
:108B1000002934D09CB31B4B1B4D186810B9A5F528
:108B200088701860194B1A4EEB58B34228D1032AAB
:108B300026D8DFE802F0021C08162288042A1FD17A
:108B4000406808601AE022882B889A4218D300F106
:108B500010032A8808461946F7F7BDFF28882080A9
:108B60000CE0208801280BD1A878087006E0228844
:108B7000082A05D18268C06848600A60002070BD7C
:108B8000012070BD2CD04E2010E14F20F0FEFFFFE1
:108B90007878454501207047B0B5002842D004469A
:108BA000C069B0F5804F3DD0A068B0F1805F39D189
:108BB00094F871000D4628B9002084F87000204612
:108BC00004F0ABFE242084F871002068016821F0D5
:108BD00001010160204608F025F9606A10B12046C5
:108BE00007F0A6FF2068416821F4006141608168B8
:108BF00021F02A018160416841F48041416041686F
:108C000021F0200129434160016841F00101016028
:108C100000202021606784F8711084F8700084F8C7
:108C20007210B0BD0120B0BD90F87010012901D1C3
:108C300002210DE0242180F8711001688A6942F058
:108C400002028A610021202280F8701080F87120D1
:108C5000084670470168024A1160406850607047DA
:108C6000000104505748016821F01001016070476D
:108C70003048016821F002010160704701214FF482
:108C8000807281401038122838BF02FA00F1034880
:108C9000026822EA01010160002070471C000450B4
:108CA0002448016821F004010160704721480168EF
:108CB00041F00201016001684900FCD5704700BF26
:108CC000B0B5A0F11003154ADCB2112C1DD84FF439
:108CD0008074172804FA03F343F000441462044636
:108CE00088BF083CE5B2172810464FEA450588BF03
:108CF000043055FA84F40725303CA540A1400468AF
:108D00002940AC432143016002E0012101FA00F354
:108D10009069184390610020B0BD00BF040004506A
:108D20000448016841F0040101600168B1F1FF3FAE
:108D3000FBDC70470C000450084802210160002051
:108D4000704700BF0548012101600020704700BF47
:108D50000248032101600020704700BF000004505A
:108D6000024600200B2A07D831B10E4800EBC2039F
:108D700050F832009B880B80704700BF10B5094B3C
:108D800000220C2A0AD053F83240844204D103EB6B
:108D9000C204A4888C4202D00132F2E7FF2250B212
:108DA00010BD00BF0C0B090001281CBF012070473B
:108DB0000448016841F00101016001688906FCD5A1
:108DC0000020704728000450704770477047704774
:108DD0007047022280F833204268012A08D0C26A14
:108DE000B2F5000F04D10268D36823F46063D36046
:108DF0000268136943F0010313619161116941F045
:108E000004011161012180F833100020704710B572
:108E1000022280F833204268012A08D00268C46A1E
:108E2000D368B4F5000F04BF23F46063D360026815
:108E3000136943F00803136113691B07FCD493689B
:108E400043F002039360936843F4007393601369E3
:108E500043F0010313619161022390F8321001295C
:108E600008BF0423116919431161012180F83310EF
:108E7000002010BD022180F8331001680A6922F039
:108E800001020A61012180F833100020704702219D
:108E900080F8331001680A6922F001020A618A68C9
:108EA00022F002028A608A6822F400728A6001213C
:108EB00080F833100020704790B110B504460220AE
:108EC00084F833002068016921F001010161204626
:108ED00000F0E7F8002084F8310084F8330010BD7A
:108EE000012070477047704780B50A480068C00786
:108EF0001CBF4FF4004080BD0320FDF795FA30B150
:108F00000246054802210023F7F746FD80BD42F2E4
:108F1000E45080BD00A004500060343C90F8330061
:108F2000704710B5044600680168C9071CBF816816
:108F30005FEAC17142D10168890705D5022141600C
:108F40002046FFF742FF20680168490744BF816857
:108F50005FEA417139D40168090744BF81685FEA5B
:108F6000017139D40168C9050AD5816821F480717D
:108F700081604FF480714160204600F009F920685B
:108F8000016889050AD5816821F4007181604FF478
:108F900080714160204600F0FBF8206801684905B7
:108FA00058BF10BD816821F4806181604FF48071E9
:108FB00041602046BDE8104000F0EAB80121416060
:108FC000204600F05BFA2068B5E7042141602046A6
:108FD00000F0DDF82068BEE708214160204600F07F
:108FE0004CFA2068BEE7000088B3F8B5044690F854
:108FF000330028B9002084F83100204600F052F8F0
:1090000002201D4E4FF6FF7784F83300D4E90003A9
:10901000A268E169C568012B08BF25F48F751A4362
:10902000B94218BF3540154E3540D4E90A6742EAC7
:10903000060242EA070242EA050253B1012B0AD1B5
:10904000D4E90556E3682A4332431A4303E001207A
:10905000704723691A434FF6FF73994205D01143B5
:10906000D4E90823114341EA0302C260012084F8D5
:1090700033000020F8BD00BF3E1159FFFEF159FF3B
:1090800070B100214FF400324FF6FF73C0E90111B7
:10909000C0E90412C0E90613C0E90821C0E90A11B9
:1090A00070477047704710B5022380F8333003686B
:1090B000DC6824F48014DC601C6944F001041C6149
:1090C00099615A61196941F002011961012180F821
:1090D0003310002010BDB0B5022380F83330036890
:1090E000C469DD6825F48015DD609D6845F00105E3
:1090F0009D609D6845F002059D609D6845F00405F2
:109100009D604FF6FF75AC4203D09C6844F00804A4
:109110009C601C6944F001041C6199615A611969E1
:1091200041F002011961012180F833100020B0BD27
:10913000022180F8331001680A6922F001020A61F5
:10914000012180F8331000207047022180F833108D
:109150000168C2690B6923F001030B618B6823F07E
:1091600001038B608B6823F002038B608B6823F014
:1091700004038B604FF6FF739A4203D08A6822F093
:1091800008028A60012180F8331000207047704780
:109190007047B0B5022480F833400468E56825F4D0
:1091A0008015E560256945F001052561A1616261D1
:1091B000E16821F46061E160E1681943E1602169DF
:1091C00041F004012161012180F833100020B0BD7D
:1091D000B0B5022380F833300368C469DD6825F434
:1091E0008015DD609D6845F001059D609D6845F036
:1091F00002059D609D6845F004059D604FF6FF7572
:10920000AC4203D09C6844F008049C601C6944F0A4
:1092100001041C6199615A61196941F004011961E5
:10922000012180F833100020B0BD022180F83310F6
:1092300001680A6922F001020A61012180F83310F5
:1092400000207047022180F833100168C2690B6961
:1092500023F001030B618B6823F001038B608B68A3
:1092600023F002038B608B6823F004038B604FF6BE
:10927000FF739A4203D08A6822F008028A600121B3
:1092800080F83310002070470068806970470068DC
:10929000406970470068C069704710B5022380F8C4
:1092A00033300368DC6844F48014DC601C6944F0EB
:1092B00001041C6199615A61196941F00201196147
:1092C000012180F83310002010BDB0B5022380F8D2
:1092D00033300368C469DD6845F48015DD609D683E
:1092E00045F001059D609D6845F002059D609D6803
:1092F00045F004059D604FF6FF75AC4203D09C68B5
:1093000044F008049C601C6944F001041C619961EC
:109310005A61196941F002011961012180F8331085
:109320000020B0BD022180F8331001680A6922F0E4
:1093300001020A61012180F83310002070470221E8
:1093400080F833100168C2690B6923F001030B61D7
:109350008B6823F001038B608B6823F002038B6022
:109360008B6823F004038B604FF6FF739A4203D09F
:109370008A6822F008028A60012180F833100020F8
:10938000704710B5022380F833300368DC6844F47A
:109390000024DC601C6944F001041C6199615A617D
:1093A000196941F004011961012180F8331000208E
:1093B00010BDB0B5022380F833300368C469DD689E
:1093C00045F40025DD609D6845F001059D609D68C0
:1093D00045F002059D609D6845F004059D604FF6CF
:1093E000FF75AC4203D09C6844F008049C601C6983
:1093F00044F001041C6199615A61196941F004014A
:109400001961012180F833100020B0BD022180F8DD
:10941000331001680A6922F001020A61CA6822F465
:109420000022CA60012180F8331000207047022119
:1094300080F833100168C2690B6923F001030B61E6
:10944000CB6823F40023CB608B6823F001038B608F
:109450008B6823F002038B608B6823F004038B601E
:109460004FF6FF739A4203D08A6822F008028A609E
:10947000012180F8331000207047704770470020AA
:10948000704700000223012802464FF0000008BF89
:1094900004238B4210D9094B022A08BF03F18050E4
:1094A00001EB4101012A04BF42F20000C4F20000B6
:1094B000002818BF40EAC100704700BF00200040EC
:1094C0000079704770B5044600680026056985601C
:1094D0004DB1E80704D0A26812B1F1B2204690471E
:1094E00001366D08F4E770BD0020704710B10068C8
:1094F00038B90DE001290BD801EB4100164941EACA
:10950000C000416901F00F00002948BF00207047EA
:109510000420704770B514460D460646304629466D
:10952000FFF7E4FF2CB120B90120F9F79DFF013CC2
:10953000F4E770BD7047704710B1006838B97047E4
:109540000129FCD801EB4100034941EAC00041690F
:1095500041F00041416170470020005098B110B5C2
:1095600000680D4C836D81B104F1100112F0F00F11
:1095700002F00F0201EA03014FF0300308BF20237D
:109580001A44114305E00120704703EA040141F445
:1095900080318165002010BDC0FFFEFF50B1006822
:1095A0000029826842F0080308BF22F008038360A4
:1095B000002070470120704750B100680029826880
:1095C00042F0004308BF22F0004383600020704750
:1095D0000120704730B10068826C22F4783242EA90
:1095E00041318164704730B10068026D22F47832F5
:1095F00042EA413101657047B0B586B004460020AB
:10960000D4B10D4607210322CDE9000020460423F2
:10961000CDE90221049100210722FAF713FF204629
:109620000221FBF71AF9204640212A46FBF788F869
:109630002046FAF7FCFFC0B206B0B0BDF0B585B069
:10964000F0B10D46064600240720032117460722E5
:109650000023CDE90044CDE90210049030460121F9
:10966000FAF7F0FE30460221FBF7F7F830463946AC
:10967000FBF707F93046C0212A46FBF761F800E006
:109680000124204605B0F0BD40B10068826D22F48F
:10969000706242EA01218165002070470120704715
:1096A000F8B560B30E46C9B21C4617460546FFF72B
:1096B00083FF2120002E6FF00B020CBF012001263A
:1096C00027FA06F102EB8101002608430021C2B20D
:1096D0002846FFF7B3FF781E41B22846FFF77AFF0E
:1096E0006FF05F00042100EB4410C2B22846FFF780
:1096F000A5FF601E41B22846FFF775FF00E0012676
:109700003046F8BD50B100680029826842F010036D
:1097100008BF22F0100383600020704701207047CB
:1097200050B10068120442EA0131826D22F4F8322D
:10973000114381650020704701207047407801493E
:109740000860704798ED00E0BFF35F8F0A4801683A
:1097500021F48031016000210167704740F0010071
:1097600005490867086840F480300860BFF34F8FF0
:10977000BFF36F8F704700BF24ED00E07047F7F72D
:10978000EDBF7047002841D070B5044690F87100D5
:1097900015460E4628B9002084F87000204604F0D3
:1097A000BCF8242084F871002068016821F00101D0
:1097B0000160204607F036FB606A10B1204607F0D2
:1097C000B7F92068B5F5006F416821F49041416018
:1097D000816821F02A01816005D1416821F07F4133
:1097E00041EA06614160016821F40061294301609A
:1097F000016841F00101016000202021606784F8C8
:10980000711084F8700084F8721070BD01207047E8
:10981000B0B568B30546006950B30C46817951B3C1
:10982000407A40B328460121FBF717F82869022146
:1098300082792846FAF7F6FB2846FAF7F8FE2969F6
:10984000002C4A7A40EA020108BF20EA02012846B9
:10985000FBF717F828460121FAF7FFFF28690321D3
:1098600082792846FAF7DEFB002085F82340B0BD58
:109870004FF0FF30B0BD6FF00100B0BD70B5A0B3C8
:109880000446006988B30D46817989B3807A78B33C
:1098900020460121FAF7E1FF2069174E0221827963
:1098A0002046B0472046FAF7C2FE2169002D8A7A89
:1098B00040EA020108BF20EA02012046FAF7E1FF70
:1098C00020460121FAF7C9FF206903218279204649
:1098D000B0472069022184F8225082792046B0479F
:1098E0002046FAF7A4FE002070BD4FF0FF3070BD97
:1098F0006FF0010070BD00BF25400000B0B558B347
:109900000446006940B30D46817919B3007A08B363
:1099100020460121FAF7A1FF206902218279204621
:10992000FAF780FB2046FAF782FE2169002D0A7AB9
:1099300040EA020108BF20EA02012046FAF7A1FF2F
:1099400020460121FAF789FF206903218279204608
:10995000FAF768FB0020B0BD4FF0FF30B0BD70B526
:10996000044618B3206908B30D46666920460021F5
:109970000022FAF757FBA81B4FF0110138BF284609
:10998000C0F3CF222046FAF74DFB20460121FAF71B
:1099900064FF2069022102792046FAF743FB204642
:1099A000FAF745FEC007F0D1002070BD0120A0608D
:1099B0004FF0FF3070BDF8B5A0B1C26992B104227A
:1099C00003AB4904CDE900320022002300F0EAF89D
:1099D000002818BF01209DF80C10FF3918BF012185
:1099E000084000E0002004B080BDB0B5044600F09F
:1099F00028F848B10021082908D02269D279CA4044
:109A0000D20704D10131F6E70020B0BD00210022C9
:109A10000B46082B07D02569ED79DD400133ED07B2
:109A200018BF0132F5E7032A06D0022A1CBFFC202A
:109A3000B0BD0841022801E008410728B8BF002056
:109A4000B0BD10B5B8B104460069A0B1017991B1BB
:109A5000C07980B120460121FAF7FFFE206902217A
:109A600002792046FAF7DEFA2046FAF7E0FD21698E
:109A7000C979084010BD002010BDF8B5D0B1C36948
:109A8000C3B14FF0FF33039382B14FF43D4203ABB8
:109A90004904ADF80C200422CDE900320022002355
:109AA00000F046FAB0FA80F0400904E04FF6FF708B
:109AB000ADF80C00012004B080BD2DE9FF41064641
:109AC000A0B11C46B3F5006F10D8154672B13069CD
:109AD00060B17069081A38BF084601466FF3DF218C
:109AE0002144B1F5006F08D9022000E00120B060E8
:109AF0000024204604B0BDE8F081C0F3CF223046F8
:109B00000421FAF78FFA30460121FAF7A6FE3069F0
:109B1000022102793046FAF785FA3046FAF787FDD6
:109B2000C007F0D13046FFF760FF0028DFD10020EA
:109B3000B060D6E904083179A1B190F86A103046D6
:109B4000FAF7C8FD306990F96E3090F96D2090F900
:109B50006C1090F96F7090F970C090F971E090F905
:109B6000720013E090F846103046FAF7B3FD306902
:109B700090F94A3090F9492090F9481090F94B70CB
:109B800090F94CC090F94DE090F94E008DE880506E
:109B900003903046F9F75CFF284641462246F6F727
:109BA0009AFFA6E72DE9FF47064650B1306940B15C
:109BB000DDF834A0BAF1800F9CBF1C46B3F5006FEE
:109BC00005D90120B060002004B0BDE8F087F0693D
:109BD0000028F6D070691746DDF83080081A38BFC3
:109BE0000846C0F3CF2204213046FAF71BFA30466C
:109BF0000121FAF732FE3069022102793046FAF784
:109C000011FA3046FAF713FDC007F0D13046FFF7DE
:109C1000ECFE10B140F40040D4E731793069B1B1C5
:109C200090F86A103046FAF755FD306990F96E30B9
:109C300090F96D2090F96C1090F96F5090F970C008
:109C400090F971E090F972008DE8205017E090F8DB
:109C500046103046FAF73EFD306990F94BC090F956
:109C60004CE090F94D9090F94A3090F9492090F9E4
:109C7000481090F94E00CDE900CECDF80890039041
:109C80003046F9F7E5FEF069B8B1D6E90421D27A99
:109C900002F50062F6F71FFF37B1F169B94203D050
:109CA00038462246F6F717FFB8F1000F15D0F069D5
:109CB00000F5006141450CD10FE027B171693846CC
:109CC0002246F6F708FFB8F1000F06D0706900F5DC
:109CD000006140465246F6F7FEFE0AEB040073E7C9
:109CE000F0B585B0002876D004460069002872D00F
:109CF000407A00286FD0002A43D06069081A38BF24
:109D00000846C0F3CF2204212046FAF78BF92046FB
:109D10000121FAF7A2FD2069022102792046FAF713
:109D200081F92046FAF783FCC007F0D120460021D4
:109D3000FFF76EFD2068016841F480110160217910
:109D4000206941B390F8C011002944D090F9C33183
:109D500090F9C22190F9C11190F9C45190F9C561EF
:109D600090F9C67190F9C7C190F9C8018DE8E0106B
:109D700004902046FAF766FB2169206891F8C0112B
:109D800026E02068016821F480110160204601214D
:109D9000FFF73EFD1DE090F8B711E1B190F9BA313F
:109DA00090F9B92190F9B81190F9BB5190F9BC61C3
:109DB00090F9BD7190F9BEC190F9BF018DE8E01036
:109DC00004902046FAF73EFB2169206891F8B7110C
:109DD0008161002000E0012005B0F0BD2DE9FE4FBB
:109DE000E0B10027B3F5006F00F29F801646002A0D
:109DF00000F09B80054600690293002800F09580E2
:109E00006A69E8688C1A38BF0C4648B1029B28463C
:109E100031460122F9F7FBFF002854D0002784E0E7
:109E200028460021002201940024FAF7FBF8DDF80F
:109E300008800420C246B8F1400FA8BF4FF0400A86
:109E40009AFBF0F7BC4205DA02CE2846FAF719FD74
:109E50000134F7E728465146FAF7FFFC28790D212F
:109E600000220028284608BF0C21FAF7DBF8A8EBEF
:109E70000A074FF0040B012F3BDB2846002100228C
:109E80004FF00009FAF7CEF83C46402FA8BF402417
:109E900094FBFBF8C14506DA02CE2846FAF7F1FC3E
:109EA00009F10109F6E728462146FAF7D6FC287998
:109EB0000F2152460028284608BF0E21FAF7B2F8B3
:109EC000A2443F1BD7E72846002100220194002727
:109ED000FAF7A8F828790D2100220028284608BFA3
:109EE0000C21FAF79FF828464FF47A71F9F7CFFF63
:109EF000D8B9284600210022FAF794F801981021D9
:109F0000C0F3CF222846FAF78DF828460121FAF748
:109F1000A4FC2869022102792846FAF783F828462A
:109F2000FAF785FBC007F0D1029F3846BDE8FE8FE7
:109F30002DE9F84F044658B1206948B11F46E3693E
:109F400033B116460A9A56EA020008D1022000E010
:109F50000120A0604FF000094846BDE8F88F0320BB
:109F6000B7F5006FF5D8DDF82C90B9F1800FF0D877
:109F700060694FF000080D1A38BF0D46A2B1B9F163
:109F8000000F11D0114603F500604A46F6F7A3FD15
:109F9000E0695EB131463A46F6F79DFDE66909F59E
:109FA00000694FF0000805E0B94603E000F50066DF
:109FB0004FF40068E06848B12046314601224B4624
:109FC000F9F725FF002851D00420C2E720460021E0
:109FD000002200950025FAF725F8CB460420B9F1B8
:109FE000400FA8BF4FF0400B9BFBF0F7BD4205DAD6
:109FF00002CE2046FAF745FC0135F7E720465946E0
:10A00000FAF72BFC20790D2142460028204608BF94
:10A010000C21FAF707F8A9EB0B07012F3DDB2046CF
:10A02000002100224FF0000AF9F7FCFF3D46042012
:10A03000402FA8BF402595FBF0F8C24506DA02CEB6
:10A040002046FAF71EFC0AF1010AF6E720462946E7
:10A05000FAF703FC20790F215A460028204608BF52
:10A060000E21F9F7DFFFAB447F1BD6E72046002126
:10A0700000220095F9F7D6FF20790D2142460028ED
:10A08000204608BF0C21F9F7CDFF20464FF47A7126
:10A09000F9F7FDFE08B105205BE72046002100220C
:10A0A000F9F7C0FF00981021C0F3CF222046F9F73E
:10A0B000B9FF20460121FAF7D0FB2069022102797D
:10A0C0002046F9F7AFFF2046FAF7B1FAC007F0D102
:10A0D00042E702688168536A23F001035362536ABE
:10A0E00043F002035362536A23F0020353624FF0BA
:10A0F0000102027101B1084770470146012009B110
:10A1000008710020704710B500B30446007901289B
:10A110001CD10220207120687FF0C4FC2068416AB5
:10A1200021F001014162016A41F002010162416ACC
:10A130004907FCD5416A41F002014162416A21F0C0
:10A140000201416201202071002010BD012010BDDC
:10A1500010B598B10446007901280FD10220207172
:10A1600020687FF09FFC2068416A41F00101416254
:10A17000016A41F002010162002010BD012010BD02
:10A18000002808D400F01F010122400902FA01F161
:10A19000014A42F82010704780E200E000280CD409
:10A1A00000F01F010122400902FA01F1034A42F8BE
:10A1B0002010BFF34F8FBFF36F8F704780E100E037
:10A1C000002808D400F01F010122400902FA01F121
:10A1D000014A42F82010704700E100E0002070477B
:10A1E00000280AD44109244A00F01F0052F8211027
:10A1F00021FA00F000F0010070470020704700BF16
:10A20000F0B501F0070100F00F06114F0F4D0C1FC4
:10A210003E4481F0070138BF0024B0F1FF3FC8BFC2
:10A2200046193078032928BF03214FF0FF3645092E
:10A2300006FA01F1E54025EA0101116006FA04F190
:10A24000C94301EA50101860F0BD00BF00E400E00F
:10A2500014ED00E01D480068C0F30220704700BF05
:10A26000002808D400F01F010122400902FA01F180
:10A27000014A42F82010704700E200E070B5134B2D
:10A280004FF0FF351B68C3F302231C1F83F0070345
:10A2900038BF0024032B28BF032305FA04F605FA70
:10A2A00003F3B2439943A1401143BDE8704006F067
:10A2B0007BBF00BF05494FF6FF030A681A4060F3F1
:10A2C0000A22034810430860704700BF0CED00E00D
:10A2D0000000FA0506F07AFF7CB5012550B349B3BA
:10A2E0001646044600F08CFFF1B22046FAF724FA35
:10A2F00003200621BE220023002500902046FAF705
:10A300002EFA20460721FAF773FA20460121FFF7BB
:10A3100045F920460421FFF7B7F920460421002221
:10A32000FFF7FEF920460121F9F7F2FD2046012151
:10A33000F9F7E0FD28467CBD0B480C4900688842CF
:10A3400018BF70470048004701A04F000649074A60
:10A35000086890421CBF0020704701F1080049685E
:10A360000022C90800F004B800DF4F2048435450D1
:10A370002DE9F0432A4B002516464FF0010C4FF013
:10A380000008002AC3F880509E46164B18BF0126CD
:10A390009946A9421BD00CFA05F707EA0204B4FA61
:10A3A00084F46409344210D150F835404B4648EAF1
:10A3B0000708734604EA09044EF8254000EBC5047B
:10A3C000CEF884706468CEF888400135E1E700205B
:10A3D000002ACEF88400404608BF4246CEF88020CE
:10A3E000BDE8F083FCFF0F0070B5034600200C4C65
:10A3F0000DE0D4F88050C540ED070CD054F8205043
:10A4000003EBC00643F8305001302D6875601F28FB
:10A4100098BF8842EDD3D4F88010116070BD00BFA2
:10A420000040005040B370B50824154D002B18BFF4
:10A4300004241CBF0825C4F200052E68002B44EA42
:10A4400006042C600F4C1CBF43F20004C4F200044D
:10A45000002B04EB800454F8044C04F03005156024
:10A46000364A374D18BF154605EB401204F00F0071
:10A4700032F810200A8070BD4FF0FF30704700BFE7
:10A4800008000050003000500421804A002808BF16
:10A49000082104BF0822C5F200021368002841EA1F
:10A4A000030111607A4904BF43F20001C5F20001C3
:10A4B00008467047B0B5054610460C46FFF7E4FF66
:10A4C00000EB850050F8041C21F00F01214340F8F7
:10A4D000041CB0BDF8B5F8B1044618461F46154631
:10A4E0000E46FFF7D1FF5FB1144901EB4412002182
:10A4F000102911D032F81130B34210D00131F7E7F2
:10A500000F4901EB44120021102905D032F8113017
:10A51000B34204D00131F7E74FF0FF30F8BD00EB54
:10A52000840005F03002114350F8042C22F03F0261
:10A53000114340F8041C0020F8BD00BF746C0900F2
:10A54000547D090010B5114C50204B2100220123ED
:10A55000A04747204C2100220123A04751204E2133
:10A5600010220123A0474E204F2110220123A04793
:10A570004D20502130220123A0474F20512130226D
:10A580000123A446BDE81040604700BFD5A40000E9
:10A59000C8B100290D4BA2F1010108BF03F180539E
:10A5A000CAB203EB8000042A8FBF002149B208A27F
:10A5B00052F8211050F8042C22F0F002114340F818
:10A5C000041C002070474FF0FF30704700300040FF
:10A5D000C0000000F0000000D000000000000000FB
:10A5E0003000000090B12A4B002908BF03F18053CE
:10A5F00003EB8000002A50F8041C41F4007308BFEC
:10A6000021F4007340F8043C002070474FF0FF3005
:10A61000704700BF90B11E4B002908BF03F1805363
:10A6200003EB8000002A50F8041C41F4806308BF4B
:10A6300021F4806340F8043C002070474FF0FF3065
:10A64000704700BFF8B170B50424104D002B08BF4F
:10A65000082404BF0825C5F200052E68002B44EA33
:10A6600006042C600A4C04BF43F20004C5F2000447
:10A6700004EB800050F8043C23EA0202114340F846
:10A68000041C002070BD4FF0FF30704708000040F0
:10A690000030004010B5012278B371B3734B1A68D3
:10A6A00092070AD4002202700A601868400724D575
:10A6B000186820F0040018601EE01A68D207574A94
:10A6C0000AD102240470186840F001001860106874
:10A6D00020F48060106001E001240470186820F00C
:10A6E000020018609868C407086004D0106820F061
:10A6F000020010600868D8600022104610BD00BF3C
:10A70000052884BF01207047082101FA00F067493D
:10A710000A6822EA00000860002070476348016868
:10A7200021F0010101600020704700BF2B48016843
:10A7300021F0030101600020704700BF0648016856
:10A74000C90706D1016841F00101016001684901B2
:10A75000FCD50020704700BF2CA0045049490028B8
:10A760004FF000000A6842F0200308BF22F02003E7
:10A770000B60704702460120052A98BF042900D9C2
:10A78000704710B50820394B7024904002EB42020C
:10A79000D8609440043291401A682140A24311438A
:10A7A00019605968084358600020BDE810407047A0
:10A7B0003E48016841F0010101600020704700BF80
:10A7C00006480168026822F00302026044F2FF02B8
:10A7D0009143CB3101600020704700BF1CA00450A2
:10A7E0002248016841F002010160704710B51F4C1A
:10A7F000206820F0010020606420F8F74FFEE06937
:10A8000020F00300E0610548016841F480610160C7
:10A81000206840F00200206010BD00BF0CB0045062
:10A82000124958B101281CBF01207047886940F0C7
:10A8300030008861086840F0010002E0086820F0FC
:10A84000010008600020704710B5084C20684007E0
:10A8500006D5206820F0040020606420F8F704FE8C
:10A86000206840F004002060002010BD00A00450CB
:10A8700004490A686FF31D520A600A6842EA0050F0
:10A88000086070474CA004500649884204D006492D
:10A89000884206D1042000E0022004490A681043DF
:10A8A000086070470040014000B0005004A0045010
:10A8B00010B5427C012303FA02F291B1D0E90013F2
:10A8C0004C68144342EA024244F480344C608C6881
:10A8D00022438A60017CC27C42EA01411960022164
:10A8E00007E042EA02410268936823EA01019160AD
:10A8F00001210175002010BD417C0068012202FA8F
:10A9000001F1426811434160704710B5447C016811
:10A91000D0E9022304EB440401EB84014A610122E3
:10A92000027501F11002426000208B6110BD70477A
:10A9300080B5FEF7F5F90A480222016841F00101ED
:10A94000016008490A800322016841F0100101609A
:10A950000120012100F092FFBDE88040FEF70FBF0B
:10A9600010000050F0C04E2070477CB5002844D045
:10A9700004460069002840D0A0690D46B0F1807FF0
:10A9800007D94FF0FF36B0F1007F38D894F8210096
:10A99000A8B394F82300012804D120460021002206
:10A9A000FEF7DCFD204600212A46F9F73BFB94F830
:10A9B00021600120B04081B22046F9F758FF40F2F3
:10A9C0000110002E4FF01C012A464FF0020308BF71
:10A9D000012000902046F9F759FB0646002818BFD1
:10A9E0004FF0FF3694F82300012808D194F8222074
:10A9F00020460121FEF7B2FD01E04FF0FF36304660
:10AA00007CBDF8B580B10446006968B1A0690D4607
:10AA1000B0F1807F02D994F8211041B11D26B0F128
:10AA2000007F88BF2A2603E04FF0FF3532E02A2658
:10AA300094F82300012804D1204600210022FEF7CB
:10AA40008DFD204600212A46F9F7ECFA94F8217092
:10AA50000120B84081B22046F9F709FF40F2011009
:10AA6000002F31462A464FF0020308BF0120009014
:10AA70002046F9F70BFB0546002818BF4FF0FF35BD
:10AA800094F82300012805D194F8222020460121C2
:10AA9000FEF764FD2846F8BDF0B52A4D4FF0000CD6
:10AAA00000234FF0000E002281F802C0A1F800C080
:10AAB000B2F5807F10D0865CAE5D16F0400706F0E0
:10AAC0003F0618BF8EEA020E82EA030718BFFB4357
:10AAD0008CEA060C0132EBE700258026802200205C
:10AAE000042D10D206EA0E0701353F0618BF1043A9
:10AAF000D2B206EA0307F6B23F0618BF40EA520098
:10AB000076089208ECE70025802208260027032D0E
:10AB100010D806EA0E040135240618BF1743D2B236
:10AB200006EA0304240618BF47EA52079208F4B263
:10AB30006608ECE76FEA8C02C0438A70FA4308703B
:10AB40004A70F0BD546B0900BCB5002849D00446DA
:10AB50000069002845D094F82300012804D120463C
:10AB600000210022FEF7FAFC204600210022F9F71E
:10AB700059FA94F821500120A84081B22046F9F7F3
:10AB800076FE40F20110002D4FF01E014FF0000242
:10AB90004FF0020308BF012000902046F9F776FA33
:10ABA0000546002818BF4FF0FF35207902281AD13A
:10ABB000A069B0F1807F05D9B0F1007F15D894F875
:10ABC000210090B120460121F9F707FE94F82300F7
:10ABD000012808D194F8222020460121FEF7BEFC6E
:10ABE00001E04FF0FF352846BCBD20460121F9F7B2
:10ABF0009DF9F8E7F0B592F800C00D7854784B78DD
:10AC000092F802E08F7885EA0C0683EA040587EA69
:10AC10000E0445EA060323431B0645D086EA560385
:10AC200003F05503552B1CD185EA550303F055035A
:10AC3000552B16D184EA540303F05403542B10D13E
:10AC4000E1B2EBB2F4B20022802580260027042F67
:10AC50002FD2264218BF2A43EDB20137B6086D083D
:10AC6000F5E7002033060AD006F001031844F3B2DA
:10AC70005E08F7E705F001031844EBB25D082B0608
:10AC8000F8D104E004F001031844E3B25C082306A1
:10AC9000F8D1C0B2012809D181F800C050784870BD
:10ACA00090788870022127E0002125E04FF0FF31E5
:10ACB00022E0002480250826042C07D21D4218BF5C
:10ACC0003243F6B20134AD087608F5E7002380245C
:10ACD00004250026022E07D80C4218BF2B43EDB2E4
:10ACE0000136A4086D08F5E7D2B2DBB20121845C1D
:10ACF00001FA03F3634083540846F0BD1CB5446970
:10AD000044EA010433B114F8013C127801398DF89A
:10AD1000063003E012788DF8062062788DF807205F
:10AD20000DF10602022300F0B7F801201CBDF8B5B2
:10AD300020B1054640690C46884201D90020F8BD83
:10AD400095F82000A8B1570C660C002FF6D02846C5
:10AD50003146FEF730FE90B928462146FEF7FFFD4A
:10AD6000013604F50034013F0028EED04FF0FF30EB
:10AD7000F8BD28462146BDE8F8406EF07DBE6FF074
:10AD80000100F8BD50B370B586B000260125002142
:10AD9000002200230446CDE90066CDE90266049551
:10ADA000F9F750FB204666210022F9F7C9FC4FF461
:10ADB0009670F8F773FB2046002100220023CDE9AE
:10ADC0000066CDE902660495F9F73CFB204699211F
:10ADD000002206B0BDE87040F9F7B2BC704710B56C
:10ADE00068B162B144698C4209D890F82040002CC7
:10ADF000BDE8104008BF6EF08ABFFEF7EFBF00202D
:10AE000010BDF8B5C8B104460069B0B194F823008C
:10AE10000D46012804D1204600210022FEF79EFBAA
:10AE2000A069B0F1807F02D994F8211041B11B26AE
:10AE3000B0F1007F88BF292603E04FF0FF3529E0FD
:10AE40002926204600212A46F9F7ECF894F82170CB
:10AE50000120B84081B22046F9F709FD40F2011007
:10AE6000002F31462A464FF0020308BF0120009010
:10AE70002046F9F70BF90546002818BF4FF0FF35BB
:10AE800094F82300012805D194F8222020460121BE
:10AE9000FEF764FB2846F8BD2DE9FC4760B31E466B
:10AEA0000025002B49D004460069002845D094F8BD
:10AEB000230017468846012804D12046002100229D
:10AEC000FEF74CFB94F821004FF4807181408E42D4
:10AED00088BF0E46E16829B3A169B1F1807F03D92B
:10AEE00060B1B1F1007F09D820794FF0160902282E
:10AEF00008BF4FF0170908E000251EE020794FF049
:10AF00002709022808BF4FF0280920464946F9F7CB
:10AF1000EFFA20463946012233464FF0010AF8F78E
:10AF200076FF68B1002594F82300012805D194F834
:10AF3000222020460121FEF711FB2846BDE8FC87B0
:10AF40002046002142460025F9F76CF894F821705C
:10AF50000AFA07F081B22046F9F789FC40F20110A5
:10AF6000002F494642464FF0020308BF01200090DF
:10AF70002046F9F78BF80028D5D1206835460168BE
:10AF800021F020010160CEE770B58AB001AC0D4E12
:10AF90000B4D40F2FF3120460195B04705F580503A
:10AFA00040F2FF3101902046B04705F5005040F2D5
:10AFB000FF3101902046B04700200AB070BD00BFAD
:10AFC000001008401B480000F8B5D0B104460D46FB
:10AFD0004FF0FF30B1F5805F3FD32169E9B3887945
:10AFE00001300003A8420CD32046294600F064F843
:10AFF0000021B1EB153F04D02269290B92799142CF
:10B0000002D94FF0FF30F8BD0139C840C0071CBF5E
:10B010006FF00100F8BD94F8216020460021002265
:10B02000F9F700F894F821700120B84081B2204669
:10B03000F9F71DFC40F20110002F05FA06F24FF05F
:10B0400034014FF0020308BF012000902046F9F7B9
:10B050001DF8002818BF6FF00200F8BDB0B5B8B1F8
:10B060000546F8F76EFF98B1044628680E49084473
:10B070004FEA303003280BD8042101EB400000F0E8
:10B08000B1FB032806D0022807D100F0C0FB07E07F
:10B090000020B0BD00F0BEFB02E0012000F07AFB12
:10B0A000B0FBF4F0B0BD00BF00F0F7BF08B180699D
:10B0B0007047002070470000B0B558B10446FF202B
:10B0C000B1F5805F30D3226972B39079013000030B
:10B0D000884201D2FF20B0BD94F821000121002256
:10B0E00001FA00F52168681E6FF31F504862204680
:10B0F0001421F8F797FF88B1DD48002200EB4501E5
:10B1000008402168486220460221F8F78BFF20683A
:10B11000406894F8211021B1000C03E020684068D9
:10B1200000E0000AC0F3C400B0BD00BF10B590B18C
:10B13000044600680C4A816A62F3150100228162AC
:10B140000221416220469F21F9F7FAFA20684068FF
:10B1500020F07F4405E000209F2100220024F9F721
:10B16000EFFA204610BD00BF8900040070B540B161
:10B17000044690F8200030B12046BDE870406EF0E3
:10B180002BBC002070BD94F8210001218140204695
:10B19000F9F763FB2046022100220026F8F742FF60
:10B1A0002046F9F744FA0546204614210022F8F714
:10B1B00039FF18B92046F9F73AFA060446EA0500BD
:10B1C00070BD70B505464FF0FF30C5B10C46B1B14A
:10B1D000511E2868164600226FF31F51416228460F
:10B1E0003121F8F71FFF10B16FF0010070BDB008FA
:10B1F00020B129680138496802C4F9E7002070BD10
:10B2000002460120BAB1B1B1F0B500200123FF26FA
:10B210004FF050279060937191E83800C968090594
:10B22000C3F884609F671E6213601471C2E9055100
:10B230005E64BDE8F04070472DE9F843002844D033
:10B240000D464FF0FF36B1F5805F40D304460069EC
:10B25000E8B3807901300003A84236D3206840F279
:10B260000112416D11434165012194F8210001FA59
:10B2700000F720463946F9F7F0FA2046142100225B
:10B28000F8F7D0FE064688B179002046F9F7E5FACE
:10B29000204602210022F8F7C5FE2068406894F895
:10B2A00021105FFA80F931B1000C05E020684FF001
:10B2B0000009406800E0000A0021B1EB153F04D00E
:10B2C00021692A0B8B799A4204D94FF0FF36304618
:10B2D000BDE8F883013A082300F0C70094F8217014
:10B2E00003FA02F240EA020591F8930138B32046CE
:10B2F00000210022F8F796FE002F18BF45EA052529
:10B3000020680121456094F8210001FA00F52046EB
:10B310002946F9F7A2FA20462B210022F8F782FEEF
:10B3200020462946F9F799FA0026204602210022F4
:10B33000F8F778FE20684068C007F6D1C7E701201B
:10B3400000FA07F876B920464146F9F786FA204612
:10B3500002210022F8F766FE206894F82170406808
:10B360005FFA80F92FB1280640EA054040EA092536
:10B3700000E02D02204600210022F8F753FE21684C
:10B3800045EA090048604FEA48012046F9F765FAA6
:10B39000204603210022F8F745FE94F82100012100
:10B3A00081402046F9F759FA002620460221002262
:10B3B000F8F738FE20684068C007F6D187E728B163
:10B3C00090F8201021B100216EF034BBFF207047AF
:10B3D000F8F7C6BD2DE9F84FA0B106460020B1F53B
:10B3E000805F10D3914632696AB1907901300003D1
:10B3F000884207D30846D27A6FF39F201844B0EBF7
:10B40000022F02D90020BDE8F88F96F82100002411
:10B410004FF0040A1F46009301FA00FB14488046CF
:10B42000012F21DB3D46402F5A46A8BF402505EBA2
:10B430000800316800EA0800486230463221F8F717
:10B44000F1FD94FBFAF095FBFAF1002209EB800084
:10B450008A4205DA33685B6840F822300132F7E748
:10B460007F1BAB442C44DBE70098BDE8F88F00BF9E
:10B47000FFFF0F0080B558B1C2684AB11F2984BFD1
:10B480006FF0010080BD5162F9F7BCF9002080BD6A
:10B490004FF0FF3080BD000004281CD810B50E4BC3
:10B4A000DFE800F00E0306090C0003F5805307E007
:10B4B00003F5005304E003F5405301E003F180532A
:10B4C00002F00F0061F30410996D21F01F01084490
:10B4D0009865BDE810407047001008402DE9F8431A
:10B4E00060B10F460026B1F5805F08D305460069BC
:10B4F00028B1817901310903B94203D200263046CF
:10B50000BDE8F8833946C07A984600266FF39F213C
:10B510001944B1EB002FF2D8284639461446FFF7FC
:10B52000CBFDB6EB173FEAD02A69390B92799142ED
:10B53000E4D80139C840C007E0D1E868A0B395F865
:10B54000216028463321F8F7D3FF284621460122FF
:10B5500043464FF00109F8F75AFC0028CED128469F
:10B560000021002207FA06F40026F8F75BFD95F8A3
:10B57000217009FA07F081B22846F9F778F940F20C
:10B580000110002F4FF0330122464FF0020308BF95
:10B59000012000902846F8F779FD0028AFD12868EF
:10B5A000016821F0200101604646A8E702484FF4F7
:10B5B0007F41016004F0E2B91000015003480168C6
:10B5C0004FF47F41016004F0D9B900BF1010015061
:10B5D0002DE9F04124480068B0F1FF3FC4BF0120CD
:10B5E000BDE8F081214C43F6FF714FF480664FF4C3
:10B5F00000750027206861F30F00002120601C48BF
:10B6000080460B2F2AD0D8F8000066F31630C8F811
:10B6100000000320F7F742FF206840F080402060E0
:10B62000B0B22168B1F1FF3FFBDC6168626823685A
:10B63000013723F080432360ABB295B2B5EB114FD5
:10B640004FEA530538BF5B4203EB0006A2EB114003
:10B6500038BFC2EB114000F0FE01D2E70020812983
:10B6600088BF0120BDE8F0810C00044028000040A4
:10B6700058A00450E0B5694601AA04F08BF9009A7D
:10B68000B0F1804F234908BF002A15D0B0F1804F98
:10B6900008BF012A0AD0B0F1A04F08BF002A07D086
:10B6A000B0F1A04F08BF012A05D08CBD043103E0E2
:10B6B00001F1805100E0184901980A6822EA00006F
:10B6C00008608CBDE0B5694601AA04F063F9009AF0
:10B6D000B0F1804F0F4908BF002A15D0B0F1804F5C
:10B6E00008BF012A0AD0B0F1A04F08BF002A07D036
:10B6F000B0F1A04F08BF012A05D08CBD043103E092
:10B7000001F1805100E0044901980A681043086083
:10B710008CBD00BF080000400C00005010B504466E
:10B72000002808BF0224204600F034F81849012CF4
:10B7300005D0022C09D101F180513F2200E0FF2207
:10B740000968114008BF012100E00121B0FBF1F0C0
:10B7500010BD00BF00207047B0B5054600280C465C
:10B7600008BF02252846FFF7D9FF0949012D05D05A
:10B77000022D1CBF0020B0BD01F180510822002C19
:10B7800008BF0C220968D14001F00701C840B0BDD4
:10B7900014000040012807D11948006800F0030098
:10B7A000032808BF00F030B800487047006CDC0286
:10B7B00010B50122124B092838BF03221C68114022
:10B7C00002FA00F201FA00F124EA020241EA02015F
:10B7D000196000B110BD0120FFF7A0FF44490860C7
:10B7E00010BD00BF0649102809689ABF054A52F8E3
:10B7F000202001228240114021FA00F0C0B270479F
:10B80000100000404C020900012000F007B802209F
:10B8100000F004B8032000F001B800000E49012830
:10B8200006D0032803D0022814D1043100E00831E7
:10B830000868C1070ED0C0F38301084A5143084A83
:10B84000531C994206D20123511A23EA503001FABF
:10B8500000F07047002070471C00004000366E0169
:10B8600000B0710B01217D4A002808BF0321126836
:10B870008140114021FA00F0C0B2704710B500239A
:10B88000002820EAE074C8BF3F23B1F1FF3FC8BFE2
:10B8900003F5E063B2F1FF3FC8BF03F5E043B1F148
:10B8A000FF3FC8BF44EA0124B2F1FF3FC8BF44EAEA
:10B8B0000234A3B10D49012803D10A6842F04002C5
:10B8C0000A600A68012822EA030242EA04020A60C6
:10B8D00005D0002803D4086820F04000086002204A
:10B8E000FFF71CFF0249086010BD00BF14000050A4
:10B8F00020C04E204548016821F0040101607047D6
:10B900004348016841F00401016001684907FCD522
:10B91000016821F004010160704700BF3B480168E5
:10B92000490713D43A481021012201604FF0A04189
:10B930000A600A68002AFCD0016821F01001016049
:10B940004FF0A040016821F0010102E0016821F000
:10B9500004010160704700BFE0B5694601AA04F028
:10B9600019F8009AB0F1804F08BF002A10D0B0F14A
:10B97000804F104908BF012A12D0B0F1A04F08BF74
:10B98000002A08D0B0F1A04F08BF012A06D08CBD14
:10B990004FF0804104E04FF0A04101E001F18051FF
:10B9A00001980A6802430A600A6822EA00000860F7
:10B9B0008CBD00BF0400004014480168490724D42E
:10B9C0000168012241F0040101604FF0A0410A60CA
:10B9D0000A68002AFCD00E4910220A600A68002A70
:10B9E000FCD0C26BD20606D5C26B42F00202C26323
:10B9F000C26BD206FCD4086820F0100008604FF03B
:10BA0000A040016821F0010101607047000004506E
:10BA10000400005010B510480168002907D40168DF
:10BA200041F0040101600168B1F1FF3FFBDC0B4C08
:10BA3000206840F0010020600220FFF76FFE0849F7
:10BA4000B0FBF1F061686FF3184141EA004040F447
:10BA50000000606010BD00BF0C00045010000050DA
:10BA600000127A00012070470320FAF7DDBC70470E
:10BA7000704770B5044602206075204604F078F9DE
:10BA8000206800210126016042F2011141608168B5
:10BA900001F001018160FAF779FC05462068C16870
:10BAA000490708D4FAF772FC401BB0F57A7FF5D944
:10BAB00003266675F2E7032E15D081684FF6FF72F4
:10BAC0000021816042610162C1608068800605D406
:10BAD000204600F033FA08B1042003E0204600F0CD
:10BAE00017F90020607500202075002070BD70B52A
:10BAF000017D04460220012920D0607520688168FC
:10BB000021F48071816001212175816821F4006137
:10BB10008160FAF73BFC054600262068C068C00734
:10BB200008D1FAF733FC401BB0F57A7FF5D9032131
:10BB3000032001E0012100202675617570BD70B5FC
:10BB4000017D04460220012920D0607520688168AB
:10BB500021F40071816001212175816821F48051F7
:10BB60008160FAF713FC054600262068C06840078C
:10BB700008D4FAF70BFC401BB0F57A7FF5D9032106
:10BB8000032001E0012100202675617570BDB0B56C
:10BB900000680C46856928466EF0A4FE6FF39F2569
:10BBA00000206560B0BD000070B505460D48066810
:10BBB000006800280FD49E480C4630406EF069FEA5
:10BBC000F0010DD5E078452807D82868416821F0B4
:10BBD0008071416004E0012070BD40F08000E070A1
:10BBE000002070BD0CF00050407D704770B50546D8
:10BBF00009480C46066830466EF074FE6FF39F26C7
:10BC0000286866600169090EA1600069C0F38D2093
:10BC1000E060002070BD00BF08F00050006840697F
:10BC20006FF39F4070470000B8B3B0B502688169F8
:10BC30000446D06800F0020031B1D36890B918070B
:10BC40001ED44FF0FF3023E078B9D068000720D52C
:10BC5000204600F08CF92068C16861F4816121F010
:10BC600008010BE000203B4D0EE02046FFF700FFEF
:10BC70002068384AC16821F002011143C16008E020
:10BC8000D36801206FF4816503F480632B43D36094
:10BC9000884701206075BDE8B040704798B370B523
:10BCA000044661BB607D20B900202075204600F06D
:10BCB00030F80020A06102206075204604F058F89A
:10BCC00094E80F00114E85683540856085682943EA
:10BCD0008160C16821F48061C1601106226963F34B
:10BCE00097216FF39F22114401618068800606D47A
:10BCF000204600F023F910B10120042101E00020CA
:10BD00000121617570BD0120704700BFBFFFE3FFD7
:10BD100070477047F8B50D460446FAF737FB0646FC
:10BD20006F1C2068C16889070AD4002FF9D025B19B
:10BD3000FAF72CFB801BA842F3D90321032007E06C
:10BD4000C168044A114321F00201C16000200121B1
:10BD50006175F8BDFDFBFFFF00B181617047000018
:10BD6000F8B50D46017D04460220012934D06075E6
:10BD70000120164627682075F968B868C90703D1FD
:10BD800020F48070B860F7E740065CBF0020E870E0
:10BD90003146284683F0F4FAB86105F118003146BF
:10BDA0000DF0DAF980B22168C861D5E907021043C5
:10BDB000CA691043C86160484FF4004101602068BF
:10BDC000816841F400618160816841F48071816023
:10BDD0000020012120756175F8BD00BFB0B5037D5D
:10BDE00004460220012B21D06075012020750846F1
:10BDF00011460DF0B1F90546204603F0B9FF0C4895
:10BE0000216828404860C86820F48060C86088685D
:10BE1000800606D4204600F091F810B101200421DC
:10BE200001E000200121002222756175B0BD00BF34
:10BE30003FFFFF0170B50D46017D04460220012938
:10BE40002BD060750120114620752068806840065F
:10BE50005CBF0020E870284683F092FA0646204630
:10BE600003F086FF20680660D5E90412114382685A
:10BE700011438160C16821F48061C16080688006DF
:10BE800006D4204600F05AF810B10120042101E048
:10BE90000020012100222275617570BDF8B50D46A4
:10BEA000017D04460220012945D060750120164617
:10BEB000207520688168890511D4816821F400719A
:10BEC0008160FAF763FA07462068C168490716D40B
:10BED000FAF75CFAC01BB0F57A7FF5D90CE0FAF7F7
:10BEE00055FA07462068C1684907E6D5FAF74EFAC1
:10BEF000C01BB0F57A7FF5D90321032018E08168D3
:10BF00006FF39F4521F001018160816831438160B9
:10BF1000456109484FF4004101602068816841F49F
:10BF200080518160816841F40071816000200121AD
:10BF3000002222756175F8BD04E100E0B0B5044649
:10BF40000068C16821F0A001C160FAF71FFA054638
:10BF50002068C068000644BF0020B0BDFAF716FA9A
:10BF6000401BB0F57A7F84BF0320B0BDF0E7704777
:10BF7000006800EB8100006B7047006800EB8100F7
:10BF8000026370470248016841F002010160704796
:10BF900010E000E0024601201AB311B308881268CD
:10BFA00041F6F07303EA001053686FF31E13184450
:10BFB0004B886FF35F2340EA43308B886FF35F2336
:10BFC00040EA8350994B5060906818400B89C988AB
:10BFD0006FF35F236FF35F21184440EA41409060A4
:10BFE0000020704710B5012230B329B30A78042A23
:10BFF00001D9012220E0037C012B01D102221BE0A8
:10C00000447A012303743CB1097903FA02F2C37A3A
:10C0100069B143EA02010CE003688A78C978DC68F8
:10C0200024F03F04214341EAC201D96002E023EA3F
:10C030000201C17200220274104610BD02460120A6
:10C0400082B179B1126808784978936800F00700E6
:10C0500001F0070123F4FC4343EA003040EA4120A9
:10C0600090600020704770470146012091B10A6836
:10C070004B6943F002034B61136823F00103136023
:10C080004861002088614861087462490A6822F0AA
:10C0900080620A60704700BF10B5012308B304290D
:10C0A0001FD8437AE3B1036803F1180353F8214022
:10C0B00024F0010443F821405AB153F8212042F002
:10C0C000010243F82120012202FA01F1C27A114350
:10C0D00005E0012202FA01F1C27A22EA0101C172ED
:10C0E0000023184610BD80697047406970470122DF
:10C0F000A8B1042913D8027A012A03D10121002210
:10C1000081610CE00268407A02F12C03002803EB05
:10C11000810108BF02F14001086820F07F4210460B
:10C1200070470168D1F8802042F00102C1F88020F8
:10C13000416941F48051416170470000B0B5002869
:10C1400066D00446406910B900202074A06161697E
:10C150006069C90659D420F481700222002502309A
:10C1600060612C48016841F08061016020680168CD
:10C1700021F030010160416862F342014160816851
:10C1800062F39B61244A8160C1681140234A1143D4
:10C190000122C160D0F8881062F31721204AC0F84C
:10C1A000881001681140227A41EA8221627A41EACC
:10C1B00002311C4A114301608168A27A21F4803166
:10C1C00041EA02418160C168A27921F0C00141EADF
:10C1D00082112422C160816862F34E21124A81607B
:10C1E000416862F31E11114A416081681140104A92
:10C1F00011438160052D04BF0020B0BD20462946B3
:10C200000022FFF749FF0135F4E740F010006061BC
:10C210000120B0BD50A00450FF0FA0FF00D01600B9
:10C22000C7EBFBFF080004009C92FD0700FE01FC29
:10C23000E0003801704700007FB5184D1E20D8215E
:10C24000002200230024A8471F20D9210022002318
:10C25000A8472020DA2100220023A8472120DB2143
:10C2600000220023A847CDE90244172001AD0C4C61
:10C270000C4E019020462946B047182029460190CF
:10C280002046B0471920294601902046B0471A2081
:10C29000294601902046B0477FBD00BFD5A40000CD
:10C2A00000000850614A0000F8B510B30446006869
:10C2B0000D46C16F21F00201C167416941F02001C3
:10C2C0004161FAF763F806466F1C20680068800435
:10C2D00011D4002FF9D025B1FAF758F8801BA842E5
:10C2E000F3D900202074606940F0040060610320ED
:10C2F000F8BD0120F8BD606940F400706061002065
:10C30000F8BD024601201AB102299CBF51710020DC
:10C310007047024601203AB1042905D810684269E5
:10C3200042EA41014161002070470000017C01297F
:10C3300004BF022070470168426940F201739A43CA
:10C3400002F580724261002282610B6843F00103B2
:10C350000B600274CA6F22F00302CA6790F90500ED
:10C3600002289ABF04A252F8200020204A691043F4
:10C3700048610020704700BF20000000100000004E
:10C3800001000000F8B5F0B10646C068D8B10D460E
:10C39000317AC1B1164F0023802100F1100E1446EE
:10C3A0004FF4006C4FF400728763124F07634FF431
:10C3B0008057C0E902338EE80610C0E90737F6F768
:10C3C000B7FE10B1F8BD0120F8BD3168F068234612
:10C3D000CA6E42F00102CA660A6842F001020A60AF
:10C3E00070312A4601B0BDE8F040F6F7B3BF00BF98
:10C3F000D5FD0000B5FD00000146012081B10A68AD
:10C40000136843F001031360D36F23F00203D36773
:10C410004979002908BF2020516908435061002054
:10C420007047017C012901D102210CE0016840F232
:10C4300001134A6922F031024A6100210174426904
:10C440009A43013242610846704710B50446007AAB
:10C45000B0B1207C012804BF022010BD012021685A
:10C460002074E068CA6E22F00102CA66F6F775FD14
:10C470000021217421680A6822F001020A6010BDBF
:10C48000012010BD017C012901D102210EE00268CA
:10C49000D16F41F00101D167516921F03101516142
:10C4A00000210174106820F00100106008467047F8
:10C4B0001CB5044690F848000121FFF74DF945F6F8
:10C4C000C051B0FBF1F06421484300900098019006
:10C4D00020688168090710D54349E16301994A1E24
:10C4E000019221B194F84A100729F7D103E0E16CD9
:10C4F00041F04001E164009901918168490710D53C
:10C500003A49A16301994A1E019221B194F84A1057
:10C510000729F7D103E0E16C41F04001E1640099A3
:10C5200001918168002221F0430181606286628569
:10C530000121E06C40284FF001001CBFE2640020A4
:10C5400084F84A101CBD00BF70470000BCB504460B
:10C5500090F848000121FFF7FFF845F6C051B0FB05
:10C56000F1F06421484300900098019020688168B0
:10C57000090710D51C49E16301994A1E019221B1B6
:10C5800094F84A100729F7D103E0E16C41F040012B
:10C59000E164009901918168490710D51349A163AD
:10C5A00001994A1E019221B194F84A100729F7D146
:10C5B00003E0E16C41F04001E16400990191816880
:10C5C000012521F043018160002101206186618500
:10C5D000E26C402A1CBFE164002584F84A00204632
:10C5E000FFF7B2FF2846BCBD110201009101010016
:10C5F000014690F8490001280EBF0220002081F872
:10C6000049007047014690F8490001280EBF0220FA
:10C61000002081F84900704710B50446006C08B14D
:10C62000F6F79BFC606C08B1F6F797FC012084F8E4
:10C630004A00002010BD98B110B50446022084F8CD
:10C640004A002068016821F001010160204600F0E5
:10C6500086F80020E06484F8490084F84A0010BDA0
:10C6600001207047704781B000680021426902F4E0
:10C670007C22B2F5782F07D002690131102900928F
:10C68000009AF3D1032000E0002001B07047C06C95
:10C69000704790F84A00704770B504460068866895
:10C6A0004569700707D505F48110B0F5005F02D128
:10C6B000A16B20468847300707D515F0200004D02D
:10C6C000E16B2046BDE87040084770BD80B3B0B54F
:10C6D000044690F84A0028B9002084F84900204612
:10C6E00000F03EF8022084F84A0094E80F00056844
:10C6F00025F001050560A569012D08BF8025C563EA
:10C70000E569002943EA050318BF43F018032169CE
:10C71000012A41EA0301636941EA03010160416DB5
:10C7200008D141F001014165016841F4003107E0A1
:10C730000120704721F001014165016821F40031B9
:10C740000160016841F001010160016821F001010F
:10C75000016000200121E06484F84A10B0BD7047F8
:10C760007047BCB504460120A4B199B120461546D6
:10C77000FEF746FDE9B22046F7F7DEFF0120FFF79E
:10C7800009F800200021BE22002300902046F7F780
:10C79000E6FF00B1BCBD20460621F8F729F80028C5
:10C7A000F8D120460121F7F7B3FB0020BCBD2DE9ED
:10C7B000F843044640681D4617460E4670B9A06807
:10C7C00003280BD10420314632463B4684F84A0008
:10C7D0002046009500F0F7F9BDE8F88394F8490089
:10C7E000012804BF0220BDE8F8834FF0010984F856
:10C7F0004990F9F7CBFD804694F84A00012852D1C0
:10C800000120002E5FD0002F5DD0042084F84A0064
:10C810000020E06467862786E66220856062C4E9BE
:10C820000E006085A1682068012903D1416D41F0A7
:10C83000020141650168C90703D1016841F00101A6
:10C840000160E0686F1CE12816D2608E68B3206832
:10C850004169490409D4002FF7D09DB3F9F796FD3B
:10C86000A0EB0800A842F0D32CE0007C06F8010BF6
:10C87000608E01386086E8E7608EB0B1206841695B
:10C88000490409D4002FF7D0E5B1F9F77FFDA0EBFB
:10C890000800A842F0D315E0006926F8020B608E6C
:10C8A00001386086E8E702200DE02046294642462E
:10C8B00003F0FCFD08B12020E064E06C002818BF04
:10C8C000012000E00320002184F8491084F84A90F8
:10C8D000BDE8F883F8B5856813460A460446032D7B
:10C8E00002D16068002863D094F84900012804BF91
:10C8F0000220F8BD2168886820F04F008860012080
:10C9000084F8490094F84A0001284CD10120002AFB
:10C910004AD0002B48D00420012D84F84A004FF063
:10C920000000E06463862386E262C4E90E0020858D
:10C93000608503D1486D40F002004865E368606C93
:10C94000E02B0AD88369B3F5806F06D1658E638EBC
:10C950005B08ED0718BF013363868B68194D1A4ECB
:10C960001A4F43F004038B604B6843F400634B6041
:10C970004B6823F480634B600023C0E90C671031DF
:10C98000C0E90E53638EF6F70BFD20680168C907F6
:10C9900003D1016841F001010160816841F0430168
:10C9A0008160002000E00220002184F84910F8BDD9
:10C9B0000420114684F84A00204601B0BDE8F0404A
:10C9C00000F0D2B97D030100A3030100910301002F
:10C9D00070B513468268032A02D14468002C41D006
:10C9E0000F2B06D81A464FF47A73BDE87040FFF754
:10C9F000DEBE90F84940012C01D1022140E00468DC
:10CA0000A56825F04F05A560012580F8495090F8EC
:10CA10004A50012D2ED179B304251B4E80F84A507F
:10CA20000025C5644386C162038605854562154BB2
:10CA3000C168E02988BF1E46C0E90E654585012A08
:10CA400003D1616D41F002016165A16841F04701C8
:10CA5000A1602168C90703D1216841F0010121606B
:10CA600000210AE0042280F84A200A46BDE870400E
:10CA700000F01ABA022100E00121002280F84920CA
:10CA8000084670BD510501008D05010070477047D3
:10CA90002DE9F843044690F84900012804BF02201C
:10CAA000BDE8F8834FF001091D4617460E4684F88D
:10CAB0004990F9F76BFC804694F84A00012848D168
:10CAC0000120002E78D0002F76D0032084F84A0071
:10CAD0000020E0646785278566622086E062C4E9FD
:10CAE0000E006086A1682068012903D1416D21F004
:10CAF000020141650168C90703D1016841F00101E4
:10CB00000160E2686168E12A25D3182902D0618DAD
:10CB1000012905D136F8021B0161608D013860855D
:10CB20006F1C608DD0B32068416949060AD4002F7C
:10CB3000F7D0002D3FD0F9F729FCA0EB0800A84260
:10CB4000EFD338E036F8021B0161608D0138608553
:10CB5000E7E7022030E0182902D0618D012905D1D4
:10CB600016F8011B0174608D013860856F1C608DA3
:10CB7000A0B120684169490609D4002FF7D0D5B18A
:10CB8000F9F704FCA0EB0800A842F0D313E016F874
:10CB9000011B0174608D01386085E8E72046294655
:10CBA000424603F0B1FC08B12020E064E06C0028AC
:10CBB00018BF012000E00320002184F8491084F808
:10CBC0004A90BDE8F8832DE9F047044690F8490003
:10CBD000012804BF0220BDE8F08701201F4615464A
:10CBE0008A4684F84900F9F7D1FB94F84A10814647
:10CBF000012961D1BAF1000F4FF0010018BF002DDB
:10CC000000F0A980002F00F0A68094F84A000428C4
:10CC10001CBF052084F84A000020E0646786678511
:10CC2000E5622786C4F824A0C4E90E0027852068A1
:10CC30000168C90703D1016841F001010160E268A0
:10CC4000DDF820806168E12A42D3182902D0618D85
:10CC5000012905D13AF8021B0161608D0138608518
:10CC6000012608F10107608D10B9608E002866D09A
:10CC70005EB1608D50B120684169490606D53AF829
:10CC8000021B0161608D013860850026608E50B105
:10CC900020684169490406D50069012625F8020B80
:10CCA000608E01386086002FDDD0F9F76FFBA0EBB6
:10CCB00009004045D7D340E0606808B102204AE04F
:10CCC0000220042947D1A16803293FF493AF42E031
:10CCD000182902D0618D012905D11AF8011B0174B0
:10CCE000608D01386085012608F10107608D08B963
:10CCF000608E20B35EB1608D50B1206841694906F5
:10CD000006D51AF8011B0174608D01386085002674
:10CD1000608E50B120684169490406D5007C012627
:10CD200005F8010B608E01386086002FDED0F9F720
:10CD30002DFBA0EB09004045D8D303200BE0204693
:10CD400041464A4603F0E0FB08B12020E064E06C75
:10CD5000002818BF0120002184F84910012184F81F
:10CD60004A10BDE8F087000070B5044690F849000D
:10CD7000012804BF022070BD2568A86820F04F007C
:10CD8000A860012084F8490094F84A60012E1CD163
:10CD9000012000297BD0002A79D0002B77D094F88D
:10CDA0004A0004281CBF052084F84A000020E064E3
:10CDB0006385238561622386E262C4E90E0063868F
:10CDC000E068E1280CD3606C21E0606808B10220C3
:10CDD0005DE00220042E5AD1A668032ED8D056E07A
:10CDE000206C8069B0F5806F05D1608D03F0010182
:10CDF00001EB50006085606C8169B1F5806F06D1F0
:10CE0000628E618E4908D20718BF0131618694F89D
:10CE10004A10224B204A0026042908BF1346036308
:10CE2000AA68204B042905F1100142F00402AA600F
:10CE30006A6842F400626A607C4AC6638263184A88
:10CE400008BF13464363E26A638EF6F7A9FA206CC3
:10CE5000C0E90C66C0E90E662268616A936843F017
:10CE600008039360536843F4806353601032638D0A
:10CE7000F6F796FA20680168C90703D1016841F006
:10CE800001010160816841F04301816000200021BF
:10CE900084F8491070BD00BFA303010059040100CC
:10CEA000910301009D030100F0B590F84940012C69
:10CEB00001D102243FE00568AC6824F04F04AC6067
:10CEC000012480F8494090F84A60012E2DD10124B8
:10CED00071B36AB363B390F84A401C4FDFF868C07F
:10CEE000042C1CBF052480F84A400024C4644385F8
:10CEF0004386C668E02E88BF6746C763AF68E02EEA
:10CF000047F04F07AF60C262124A41620385038651
:10CF10000F4988BF0A4682632968C90708D1296872
:10CF2000002441F00101296002E044682CB1022490
:10CF3000002180F849102046F0BD0224042EF7D1CC
:10CF40008668032EC3D0F3E71B01010067010100CF
:10CF5000C9000100F1000100F8B5044690F849004D
:10CF6000012804BF0220F8BD2568A86820F04F0002
:10CF7000A860012084F8490094F84A0001284ED1A5
:10CF8000012000294CD0002A4AD00320002384F835
:10CF90004A00E364628522856162E362C4E90E337C
:10CFA00023866386A068012803D1686D20F0020003
:10CFB0006865E268206CDFF870C01D4E1B4FE02AE8
:10CFC000C0E90C6CC0E90E730AD88269B2F5806FB3
:10CFD00006D1638D628D5208DB0718BF013262856E
:10CFE000AA6842F00802AA606A6842F480626A6035
:10CFF0006A6822F400626A6005F11002638DF6F738
:10D00000CFF920680168C90703D1016841F0010127
:10D010000160816841F043018160002000E002204E
:10D02000002184F84910F8BD970301007D03010039
:10D03000F103010070B590F84930012B01D10223B2
:10D0400038E00123046880F84930A56825F04F05D1
:10D05000A56061B35AB390F84A30012B26D103235F
:10D06000164E154D80F84A300023C3644285028570
:10D0700041620386C362D0E90212E02A88BF2E46CD
:10D08000C0E90E364386012903D1616D21F002010A
:10D090006165A16841F04B01A1602168C90703D116
:10D0A000216841F001012160002300E002230021FA
:10D0B00080F84910184670BDCD050100E905010052
:10D0C0007047704770477047154904280A6822F076
:10D0D000040308BF42F004030B6070477047000070
:10D0E000411E0020B0EB116F1CBF012070470C4A9D
:10D0F000E023516002490B70072190601160704776
:10D1000023ED00E0FFF7EABF014A42F82010704724
:10D1100030B004500248016821F0020101607047FC
:10D1200010E000E07047704748B10146006842696E
:10D1300022F001024261002008714871704701200D
:10D140007047016840F601030A6922F001020A6192
:10D150000A689A430A6001214171704710B504467C
:10D160000068016941F0010101610120F6F77CF9D5
:10D17000206840F60102016821F0020101600168A7
:10D1800011430160016841F0020101601420F6F7CB
:10D1900085F92068016841F0040101600320607195
:10D1A00010BD40797047000080B5016840F2ED2362
:10D1B0008A6842F001028A60334A496801FB032110
:10D1C00042F2747291FBF2F115398171FFF7B9FFE8
:10D1D0002C4801210160BFF34F8FBFF36F8F80BDDB
:10D1E000A0B110B50446407908B90020207120682C
:10D1F00008B907482060416941F0010141613220CE
:10D20000F6F74CF901206071002010BD0120704735
:10D2100000A0015070B504464079194D01282DD168
:10D220001848012101602046BFF34F8FBFF36F8F75
:10D23000FFF794FF15262068816849070AD401206A
:10D24000F6F712F9013EF6D12068816841F001013C
:10D25000816010E0816840F2ED2241F001018160BF
:10D260000949406800FB021042F2747190FBF1F032
:10D27000A0F21515A5712046FFF763FF284670BD83
:10D2800018FCFFFF84E100E05849220010B5044675
:10D29000407901281CBFFB2010BD2068816841F047
:10D2A0000101816005480121C0F88011016020461C
:10D2B000FFF754FF04206071607910BD04E100E0C5
:10D2C00010B501680446086820F4F07008608868AA
:10D2D00020F001008860886800060AD5886820F080
:10D2E00080008860A06E20B10021C163F5F735FE93
:10D2F0002168886840060AD5886820F04000886068
:10D30000E06E20B10021C163F5F727FE21680020FF
:10D310000F22A4F85200A4F85A000A628A6942F067
:10D3200008028A61202184F8711084F87210606705
:10D33000002010BD704710B501680446086820F44D
:10D3400090700860886820F0010088608868400656
:10D350000AD5886820F040008860E06E20B1002186
:10D36000C163F5F7FAFD21680020A4F85A000F20E8
:10D370000862886940F008008861202084F8720003
:10D38000002010BD7047000010B501680446086811
:10D3900020F490700860886820F001008860886838
:10D3A000400605D400200F22A4F85A000A6217E0B4
:10D3B000886820F040008860E06E40B10D49C1638C
:10D3C000F5F7E8FD98B1E06EC16B88470FE00020EB
:10D3D0000F22A4F85A000A628A6942F008028A61A0
:10D3E0006065202084F872002046FFF7CBFF002004
:10D3F00010BD00BFC90C010010B5044600680168EB
:10D4000021F0C00101608168090609D5816821F019
:10D4100080018160A06E18B10021C163F5F79DFD08
:10D420000020A4F85200202084F87100002010BDD4
:10D430007047000010B504460068016821F0C00183
:10D440000160816809060ED5816821F08001816044
:10D45000A06E40B10A49C163F5F79CFD68B1A06EAA
:10D46000C16B884709E00020A4F8520060662020C4
:10D4700084F871002046FFF7DBFF002010BD00BFDD
:10D48000470D0100B0B501680446806E0A6822F4B9
:10D49000F0720A608A6822F001028A6028B18A6804
:10D4A000234B120603EAE272C263E26E2AB18B6872
:10D4B000204D5B0605EAE373D3638A6812060AD53A
:10D4C0008A6822F080028A6028B1F5F763FD0021A6
:10D4D00010B1A06EC16301212268906840060DD58D
:10D4E000906820F040009060E06E38B1F5F752FD92
:10D4F000D8B1E06E22680021C16300E0A9B100202C
:10D500000F21A4F85200A4F85A00606711629169D3
:10D5100041F008019161202184F87110C4E91800DC
:10D52000204684F87210FFF705FF0020B0BD00BF51
:10D53000110D01008B0C010090F87010012901D130
:10D54000022125E0012180F8701090F87110212946
:10D5500007D101688A68120603D58A6822F0800222
:10D560008A6090F8721022290FD101688A685206E9
:10D570000BD50A6822F480720A608A6822F00102E0
:10D580008A608A6822F040028A60002180F8701068
:10D590000846704790F87010012901D1022121E05E
:10D5A000012180F8701090F87110212904D10168D0
:10D5B0008A6842F080028A6090F8721022290ED1A7
:10D5C000016808220A620A6842F480720A608A6866
:10D5D00042F001028A608A6842F040028A600021BB
:10D5E00080F870100846704710B5044690F8710036
:10D5F000212813D12168886800060FD5886820F09B
:10D6000080008860A06E10B1F5F7A7FC216808685B
:10D6100020F0C0000860202084F8710094F87200A7
:10D6200022280ED12068816849060AD5816821F038
:10D6300040018160E06E08B1F5F78FFC204603F0F1
:10D640008BFB002010BDB0B5B8B1044624200025E6
:10D6500084F871002068016821F001010160056013
:10D6600045608560204600F057F9656784F8715081
:10D6700084F8705084F8725000E001252846B0BD4F
:10D680002DE9F04105466820002B1646B3FA83F2D7
:10D6900088461F464FF0800108BF6C202C58520965
:10D6A000002013035201C4E90270C4E9041004F11C
:10D6B00018010DC12046F5F795FC2046F5F738FD19
:10D6C000B2B22846414617B100F0BCFA01E000F0C2
:10D6D00095F90020BDE8F08100B17047024803A130
:10D6E00040F2E7226DF0E6BDD893090048414C5F57
:10D6F000554152545F4572726F7243616C6C626146
:10D70000636B00007047406F704790F8711090F89D
:10D7100072000843C0B27047F8B504460068C1699A
:10D720000268856801F02F0602F02003202E08D140
:10D730003BB1216E002900F08F802046BDE8F84003
:10D7400008475FEA017C07D005F0010612F4907FDC
:10D7500086F0010720D1FFB1CB020AD515F4800372
:10D7600007D04FF4801101622046BDE8F84000F078
:10D77000DDBA11400A0658D449066DD5016821F07A
:10D780004001016000206066202084F8710020467E
:10D79000BDE8F84000F0C8BACD0718BF12F4807594
:10D7A00005D001250562656F45F00105656701F04B
:10D7B00002054FF0010E8EEA55053D4305D10225C5
:10D7C0000562656F45F00405656701F004058EEAA2
:10D7D00095053D4305D104250562656F45F00205B9
:10D7E0006567334318BF0123BCF1000F06D52BB189
:10D7F00008230362606F40F008006067606F58B3F1
:10D8000002EA0100800603D5216E09B1204688474F
:10D81000606F00070BD420688068400607D420465C
:10D82000FFF75AFF0020606716E0616E82E720462E
:10D8300003F092FA2068816849060ED5816821F0CC
:10D8400040018160E06E40B10649C163F5F7A2FB7B
:10D8500010B1E06EC16B71E7F8BD2046BDE8F8403D
:10D86000FFF73ABFF10B010000284FD0B0B50446D6
:10D8700090F8710028B9002084F87000204600F06C
:10D880004CF8242084F871002068016821F001011F
:10D890000160204603F0C6FA606A10B1204603F02A
:10D8A00047F9D4E900011A4D426822F49042A94296
:10D8B0004260826822F02A028260026842F001021D
:10D8C0000260026822F4804388BF42F480434FF034
:10D8D0000602036088BF0222C36AA94223F00D0337
:10D8E00042EA0302C2620B4A84BF4DF60002C0F254
:10D8F000B852B2FBF1F1C16000202021606784F8CA
:10D90000711084F8700084F87210B0BD0120704767
:10D91000C0C62D00006CDC02704770472DE9FC4149
:10D92000044690F8720020280AD10E4601200029F2
:10D930005ED01746002A5BD094F87000012802D10F
:10D940000220BDE8FC8100201D466067012084F8AC
:10D950007000222084F87200F8F718FDA4F85A70BD
:10D960008046A4F85870A068B0F1006F0AD0B0F1FA
:10D97000805F0BD0B0F1C05F0CD1206968B940F274
:10D98000FF170BE0206918B13F2707E0206920B19D
:10D990007F2703E0B4F85C7002E0FF27A4F85C7016
:10D9A000B4F85A00F0B120462021002243460095E9
:10D9B00003F09CFAF0B9A068B0F1C05F01D1206912
:10D9C00050B12068406A384006F8010BB4F85A009C
:10D9D0000138A4F85A00E3E72068406A384026F886
:10D9E000020BF3E70020202184F8700084F8721005
:10D9F000BDE8FC810320BDE8FC810000F8B50546C8
:10DA000090F87200202807D113460A4631B12BB195
:10DA100095F87000012803D1022429E0012427E0B1
:10DA200000240120144EDFF88CC2124F6C6785F879
:10DA300070002220A5F858306A6585F872002968C0
:10DA4000E86E00F1300E24318EE8C010C463F5F7A3
:10DA5000A7FC2868016841F480710160816841F089
:10DA60000101816085F87040816841F0400181606A
:10DA70002046F8BDC30C0100570C010090F872302D
:10DA8000202B06D1012329B122B190F87030012B4F
:10DA900002D1022318467047A0F85A20416501219F
:10DAA000A0F8582080F87010002101668168B1F15B
:10DAB000006F0AD0B1F1805F0BD0B1F1C05F0FD120
:10DAC000026952B940F2FF1208E002691AB13F221E
:10DAD00004E002690AB17F2200E0FF22A0F85C2086
:10DAE0000022B1F1C05F42674FF0220280F872203D
:10DAF0000268936843F00103936001D1016949B161
:10DB000006490023016680F87030106840F4907078
:10DB10001060BFE70049F4E7770D0100C90D01006F
:10DB200000F002B87047000070B5044628B91048EC
:10DB300010A140F2C7126DF0BDFBF2F74FFEE16F8E
:10DB4000D4F86821D4F8C8504968C2F38F22561A15
:10DB5000C4F8C860F2F746FE711B08BF70BD090229
:10DB600004F590700331BDE870406FF0B3BC00BFA6
:10DB7000D893090048414C5F554152545F52784850
:10DB8000616C6643706C7443616C6C6261636B00C2
:10DB900070472DE9F843044690F87100202808D119
:10DBA0000E46012731B1154622B194F870000128C4
:10DBB00003D102273846BDE8F88300209946606704
:10DBC000012084F87000212084F87100F8F7DEFB52
:10DBD0008046A4F85250A4F85050B4F85200F8B15E
:10DBE0002046802100224346CDF8009003F07EF9C4
:10DBF00000BBA068B0F1C05F01D1206948B116F840
:10DC0000010B21688862B4F852000138A4F8520070
:10DC1000E3E736F8021B20686FF35F218162F2E7C9
:10DC20002046402100224346CDF80090002703F013
:10DC30005DF908B10327BDE7202084F8707084F8EF
:10DC40007100B7E7F8B5054690F87100202806D1B5
:10DC500039B113462AB195F87000012803D1022486
:10DC600025E0012423E00024A5F852300120134EC2
:10DC7000DFF840C0104F6C6785F87000A5F8503091
:10DC8000E964A86E2A6800F1300E28328EE8C010D0
:10DC90002126C46385F87160F5F782FB286840216E
:10DCA000016285F87040816841F080018160204602
:10DCB000F8BD00BF010C0100410D0100E90C01009D
:10DCC00090F87130202B06D1012329B122B190F8B0
:10DCD0007030012B02D10223184670470023A0F8B0
:10DCE00052204367C1640121A0F85020436680F8A8
:10DCF0007010212180F871108168B1F1C05F01D1ED
:10DD0000016909B1074900E005490023416680F82F
:10DD100070300068016841F080010160DCE700BFFD
:10DD2000750E0100B30E0100704770477047000088
:10DD3000B0B5D0B10446006808B914482060416904
:10DD4000890714D4D4E9011230250160762142609C
:10DD5000C1604069800744BF0020B0BDA5B101206B
:10DD6000F5F782FB2068013DF3E70120B0BD3421C7
:10DD70003025C16041698907E4D52DB10120F5F74F
:10DD800073FB2068013DF5E70320B0BD00B00050F3
:10DD900000687621C160002070470000F0B5ADF545
:10DDA000117D002671AC4FF0360C81AD5C27402E02
:10DDB00004D004F806C0AF550136F8E7082691FBF9
:10DDC000F6FC0026664508DAA75D815D4F40A75541
:10DDD000AF5D7940A9550136F4E741AC71A84FF425
:10DDE0000071009416F0A0FA09AD014620462A46BB
:10DDF00001F0FAFF11AE81A84FF400712A464FF4EA
:10DE00008073009616F090FA01AC01463046224627
:10DE100001F0EAFF05490020202803D0225C0A54C3
:10DE20000130F9E701480DF5117DF0BDA0C84E2085
:10DE300070470000F8B5C46A2168486820F04000C7
:10DE40004860E08B78B1A08BA26910310244A261D6
:10DE5000E08BFF2894BFE38BFF23206BA383F5F7B0
:10DE60009FFA30B3F8BDF8F791FA054600902046C6
:10DE70004FF4005100224FF47A734FF400570026FC
:10DE800000F034FA2068042101226423C760416055
:10DE900020460421009500F029FA96486662206227
:10DEA000202084F83700A66284F8346084F8386053
:10DEB000F8BD2068816841F012018160F8BD00BFA3
:10DEC000F8B5C46A2268506820F020005060E08BEA
:10DED00078B1A08BA16910320144A161E08BFF28C9
:10DEE00094BFE38BFF23E06AA383F5F759FA30B3BD
:10DEF000F8BDF8F74BFA0546009020464FF4005164
:10DF000000224FF47A734FF40057002600F0EEF928
:10DF10002068042101226423C76041602046042157
:10DF2000009500F0E3F9734866622062202084F8CF
:10DF30003700A66284F8346084F83860F8BD206841
:10DF4000816841F012018160F8BD00BF2DE9F843FE
:10DF5000054600680C4690461E462969C26801299C
:10DF600042F04202C260826822F0400282600ED11A
:10DF700061000327013101614760284640210022EA
:10DF80004346009600F0B2F918BB002721E00621B5
:10DF900003270022434601EAD41909F1F001016187
:10DFA000476028464021009600F0A0F988B928680B
:10DFB00000224346C16841F04201C160E1B2016103
:10DFC0000121416028464021009600F08FF9032787
:10DFD00010B13846BDE8F8832868C16841F04201B5
:10DFE000C16049F0F101C6E72DE9FC410446006833
:10DFF0000D4690461E462169C268012942F0420240
:10E00000C260826822F0400282600CD1690003275E
:10E01000002243460161476020464021009600F0FF
:10E0200065F930BB21E0062103270022434601EABF
:10E03000D511F0310161476020464021009600F083
:10E0400055F9B0B9206800224346C16841F0420149
:10E05000C160E9B201610121416020464021009682
:10E0600000F044F908B1032703E02068C068C0F35A
:10E0700040073846BDE8FC8110B590F834100129FE
:10E0800001D1022134E0012180F834100168CB680D
:10E090009C071CD41A40540626D4D20425D500224D
:10E0A0005B05144C42628262046203D5C36B43F089
:10E0B0000403C3638B6823F0C0038B60C16B202112
:10E0C00080F8371080F8342080F838200DE0CA68D6
:10E0D00042F00202CA60C26B42F00402C2638A6864
:10E0E00042F012028A6000E0C18B002180F83410F7
:10E0F000084610BD0000FFFF10B590F8341001294C
:10E1000001D102212AE0012180F834100168CA6897
:10E110005305CA601CD412F0C00F1CD090F83720F1
:10E12000222A1DD1826909691170C18B0139C1830D
:10E13000816901318161818B01398183C18B39B35F
:10E140000168C28B012A14BF01220D224A6002E03D
:10E15000E02180F83710002180F83410084610BD07
:10E1600090F83720212AF6D1C28B8AB18269012426
:10E1700012F8013B0B61C38B012B08BF05244C60D7
:10E180008261818B01398183C18B0139C183E2E7CF
:10E190002021DEE72DE9FC410446006815464900D0
:10E1A000DDF82080099E1F46C268434642F04202C5
:10E1B000C260826822F04002826001610321002275
:10E1C000416020464021009600F090F8A0BB2068F6
:10E1D000C16841F04001C160C168890722D4012FA4
:10E1E00010D0290A012700224346016147602046DA
:10E1F0004021009600F07AF8F8B92068C16841F033
:10E200004001C160E9B20022434601610121416041
:10E2100020464021009600F069F80746002818BF04
:10E2200001270AE0E06B40F00400E063202084F85E
:10E230003700002084F8380001273846BDE8FC810B
:10E240002DE9FC410446006815464900DDF82080B0
:10E25000099E1F46C268434642F04202C26082687D
:10E2600022F04002826001610321002241602046C9
:10E270004021009600F03AF8A0BB2068C16841F048
:10E280004001C160C168890722D4012F10D0290A3A
:10E290000127002243460161476020464021009645
:10E2A00000F024F8F8B92068C16841F04001C1606D
:10E2B000E9B200224346016101214160204640212C
:10E2C000009600F013F80746002818BF01270AE05F
:10E2D000E06B40F00400E063202084F83700002069
:10E2E00084F8380001273846BDE8FC812DE9F84361
:10E2F000DDF820801D4616460F4681465C1CD9F885
:10E300000000C0683840C01BB0FA80F04009B0423D
:10E310001CBF0020BDE8F883002CF0D0F8F736F8D9
:10E320001DB1A0EB0800A842E9D9D9F83C0040F0A3
:10E330002000C9F83C00202089F83700002089F827
:10E34000340089F838000120BDE8F883C06A01680C
:10E35000D1F8802422F00302C1F880240021416416
:10E360000165012180F85D10016E41F00801016630
:10E37000F9F7BAB90168C06A096889060ED401685C
:10E38000D1F8802422F00102C1F880240021016527
:10E3900090F85D1001F0F70180F85D10F9F7CFBB40
:10E3A000C06AF9F7CDBB0168C06A096889060ED456
:10E3B0000168D1F8802422F00202C1F880240021F3
:10E3C000416490F85D1001F0FB0180F85D10F9F7F1
:10E3D00019BDC06AF9F717BD2DE9F8431D469046EF
:10E3E0000E460446F7F7D2FF81466F1CB8F1000FC6
:10E3F00020D02068D0F800063040B04220D1002F55
:10E40000F7D02DB1F7F7C2FFA0EB0900A842F0D971
:10E41000012084F85D00002084F85C000320BDE842
:10E42000F8833FB1002DF3D0F7F7B0FFA0EB090060
:10E43000A842EDD82068D0F800063040B042F0D1B4
:10E440000020BDE8F8830000B0B50C4D0446294615
:10E450006BF0E3FC30B904F12C0005F12C016BF0FA
:10E46000DCFC08B10020B0BD04F1580005F15801F2
:10E470006BF0D3FCB0FA80F04009B0BD3C17090046
:10E480002DE9F04FBFB033AC0FC4DDE94868102E62
:10E490000BD233AD284600F066FE0020102810D0C5
:10E4A000295C08F800100130F8E7002033A9102893
:10E4B00004BF3FB0BDE8F08F0A5C08F800200130CF
:10E4C000F5E7DFF82807711E37AB229100EB01104A
:10E4D0000021102903D0425C5A540131F9E79DF81C
:10E4E000EB009DF8EA509DF8E9309DF8E5209DF895
:10E4F000E3C09DF8E0409DF8DCE09DF8DD109DF85C
:10E50000DEB09DF8DFA04FF0FF3732909DF8E800B5
:10E5100028909DF8E7002F909DF8E60027909DF841
:10E52000E4002E909DF8E20026909DF8E1003090E6
:10E5300031914FFA8EF1B1F1FF3F68DD1846329B01
:10E540006E00D9B25B0046EAD11146002D91E9B2C6
:10E55000650046EAD1112C91C1B22898460046EADE
:10E56000D1112B91C1B22F98460046EAD1112A91C0
:10E57000C1B22798460046EAD11156002991C1B28E
:10E5800046EAD110D1B225902E98460046EAD11124
:10E590002491C1B238464FEA4C0747EAD111239182
:10E5A0005FFA8CF1269A570047EAD116D1B2309A19
:10E5B000570047EAD119D1B22246074645EAD1149D
:10E5C000D0B24FEA4A0152465D46013F41EAD01AB5
:10E5D000D0B2319A4FEA4B01329341EAD01BE8B2F4
:10E5E0002BAD510041EAD011D0B2C00940EA4E0E25
:10E5F00029CD28902A982F9029982790DDE9240288
:10E600002E90DDF88CC02696CDE9309191E73298B6
:10E610002B952A9329468DF8EA5055468DF8E93016
:10E62000A1468DF8E0408DF8DCE08DF8E5208DF80E
:10E63000E3C05946289E279BDDF898A0AB468DF88D
:10E64000DF508DF8EB002F980C468DF8DE108DF81A
:10E65000E8608DF8E6308DF8E2A08DF8E7002E989E
:10E660008DF8E4003098CDF8A4E031992F9D8DF815
:10E67000E1008DF8DD1000212D9180212C91DDF835
:10E68000B8E02B98002F00F0E78028972D992C9F59
:10E690002B9018F801100F4267D02F95CDF8B8E0F5
:10E6A00098F8001010461A46334698F8016098F81A
:10E6B00003E098F80250299F794088F800103199BA
:10E6C00071401E46134602468EEA0B00DDF8B8E0A4
:10E6D00088F8030098F8040088F8011085EA04011E
:10E6E0002F9D88F80210309980EA090088F804000C
:10E6F00098F8050048402A9988F8050098F806001F
:10E7000080EA0A0088F8060098F8070080EA0C0002
:10E7100088F8070098F8080080EA0E0088F80800DA
:10E7200098F80900504088F8090098F80A00584005
:10E7300088F80A0098F80B00684088F80B0098F8F1
:10E740000C00704088F80C0098F80D0048402B9998
:10E7500088F80D0098F80E004840329988F80E00AD
:10E7600098F80F00484088F80F002C992D9801293F
:10E770004FEA510108BF01302D9008BF80212C9134
:10E78000E0B2319FF90141EA5000E1012F905FFAB8
:10E790008BF041EA50004FEACB112E905FFA89F0DE
:10E7A00041EA50004FEAC9112790309CE0B241EA9B
:10E7B00050095FFA8AF0E10141EA50004FEACA11BC
:10E7C00030905FFA8CF041EA500A5FFA8EF04FEA1F
:10E7D000CC1141EA50004FEACE112690D0B2D201BE
:10E7E00041EA500ED8B22A9CDB012B9942EA500C28
:10E7F000EAB2ED01304643EA5203F2B24FEAC41BDB
:10E8000045EA5206E2B2329CC501384645EA520555
:10E81000CAB2C901E7B24BEA520241EA570132914A
:10E82000C1B2299C490841EAC410E1B231904808BC
:10E83000289F29902A9510461D4663467246D44665
:10E84000DDF898E0DDF8C0A0CDF8C090DDF89C9030
:10E85000DDE92EB4013715E7E548229AE5A13BAB87
:10E86000002537AF00EB0210895C0022102D08D084
:10E8700018F8056008F805207E55465D5E5501359F
:10E88000F4E7481C9DF8EB109DF8E6B09DF8EF709A
:10E890009DF8F3909DF8F4A09DF8F5E09DF8F6C082
:10E8A0009DF8F7609DF8F8509DF8F9309DF8FA2032
:10E8B00031919DF8EA1024919DF8E9101D919DF881
:10E8C000E81023919DF8E71022919DF8E510309112
:10E8D0009DF8E4102F919DF8E3102E919DF8E21021
:10E8E0002D919DF8E1102C919DF8E0102B919DF851
:10E8F000DC1028919DF8DD1026919DF8DE102A91FC
:10E900009DF8DF1029919DF8EC1027919DF8ED10EE
:10E9100021919DF8EE1025919DF8F01020919DF821
:10E92000F1101F919DF8F2101E919DF8FB1032918D
:10E93000002800F0558116A9013881E86850CDF80B
:10E940006CA0CDE914721C905B46DDE9226532981B
:10E95000DDF8A0E0DDF898C0249F1D9CC0075BD0C7
:10E9600098F8000098F8011098F8022098F803A091
:10E9700080EA0E0088F8000081EA0C002B9988F8E4
:10E9800001002A98504088F80200299880EA0A007D
:10E9900088F8030098F8040048402C9988F804008F
:10E9A00098F8050048402D9988F8050098F8060069
:10E9B00048402E9988F8060098F8070048402F999B
:10E9C00088F8070098F808004840309988F808004F
:10E9D00098F809004840319988F8090098F80A0029
:10E9E000584088F80A0098F80B00704088F80B002F
:10E9F00098F80C00684088F80C0098F80D0060400A
:10EA000088F80D0098F80E00784088F80E0098F805
:10EA10000F00484088F80F00DDF8C4B079005FFAB5
:10EA20008BF041EAD01061001390F8B241EAD010A7
:10EA300069001290E0B241EAD01071001190E8B282
:10EA400041EAD01059001090F0B241EAD0100F9076
:10EA5000D8B2309A510041EAD0100E90D0B22F9A1D
:10EA6000510041EAD0100D90D0B22E9A510041EAE7
:10EA7000D0100C90D0B22D9A510041EAD0100B90DA
:10EA8000D0B22C9A510041EAD0100A90D0B22B9A01
:10EA9000510041EAD0100990D0B2299A510041EAC0
:10EAA000D0100890D0B22A9A510041EAD0104FEA13
:10EAB0004C010790D0B241EAD0104FEA4E010690C7
:10EAC0005FFA8CF041EAD0102890219B2799D8B2A8
:10EAD000400840EAC1100590259AD0B2400840EAAB
:10EAE000C3100490DDF850C05FFA8CF0400840EA93
:10EAF000C2100390209AD0B2400840EACC10149083
:10EB00001F9BD8B2400840EAC21002901E9AD0B2B1
:10EB1000400840EAC31001905FFA89F0400840EADB
:10EB2000C21000901B9A1A9B169CD0B2400840EA73
:10EB3000C91AD8B2DDF85490400840EAC21E199AAA
:10EB4000D0B2400840EAC31C189BD8B2400840EA43
:10EB5000C216179AD0B2400840EAC315E0B2400886
:10EB600040EAC2135FFA89F0400840EAC412329CBE
:10EB700058465FFA84FB04464FEA5B07640047EAA5
:10EB8000C910CFB23290780831942790139824900E
:10EB900012981D901198239010982290DDE90E0B89
:10EBA00030900D982F900C982E900B982D900A98DD
:10EBB0002C9009982B900898299007982A900698ED
:10EBC000269005982190049825901498039F2090F2
:10EBD00002981F9001981E90DDF800901C98A7E6FF
:10EBE00040463FB0BDE8F04F00F0BDBAB10C09009F
:10EBF000B10D090077706860584D473F312A231CDA
:10EC0000150E070010B50446012084F84801D4F819
:10EC10005801D4F818110130C4F8580109B1204640
:10EC200088472046BDE81040F9F730BEB0B5002354
:10EC3000102B08BFB0BDC45CCD5C2C44D454013350
:10EC4000F6E7F0B589B0144600228DF80220102AAC
:10EC500003D0835CA3540132F9E70DF11305084694
:10EC6000294600F0D5F908270DF1020637B12046F4
:10EC70002946324600F050F8013FF7E70DF1030551
:10EC80000DF113000DF10202294600F0FBF92046B8
:10EC90002946224600F0FEFA09B0F0BD2DE9F04108
:10ECA0008EB0144600220DF116038DF80520102AAF
:10ECB00005D0855CA554855C9D540132F7E70DF1C4
:10ECC00027050846294600F0A3F900260DF116088D
:10ECD0000DF10507022E02D0082E05D10BE02046CB
:10ECE0004146224600F0D6FA204629463A4600F030
:10ECF00013F80136EEE70DF106050DF127000DF1D1
:10ED00000502294600F0BEF920462946224600F0B9
:10ED1000C1FA0EB0BDE8F0812DE9F04788B0EA46AF
:10ED20000446894608469046514600F0ABF9204615
:10ED30005146224600F0AEFAED49394A00200F282C
:10ED40000ED8235CCB5C2354231804305E78DD7826
:10ED50009F78965D4D5D5E70D65DDD709E70EEE7CE
:10ED600048465146424600F08DF90020102818D23E
:10ED7000215C1AF800200AEB00067778B578F6785F
:10ED800011442154211804304A788B7891F803C03B
:10ED90007A404A7085EA03028A7006EB0C02CA7058
:10EDA000E4E74FF0000C1AA104AABCF1030F1ED037
:10EDB00000230F2B09D8E618E55C777807EB4500B0
:10EDC000E054781902337070F3E70023102B03D05E
:10EDD000E05CD0540133F9E70023102B04D0C85C69
:10EDE000105CE0540133F8E70CF1010CDDE7002082
:10EDF0000F2884BF08B0BDE8F0872218215C537843
:10EE000003EB41051944517025540230F0E700BF6F
:10EE1000080B0C0F020106050A090E0D000704037A
:10EE2000B10E090043F206310840401A18BF012014
:10EE3000704700B952B900EA01024CF6F8430843A2
:10EE400043F20E311A40084040EA0201084670477A
:10EE500010B500220023102B08BF10BD845CCC54D9
:10EE6000541C0133A21F18BF2246F4E720F07F0193
:10EE700010200AB2002A03D410B101384900F8E783
:10EE8000C0B270472348C08A704700BFC1F3C202B6
:10EE900001F00701805CC84000F0010070470000ED
:10EEA000F8B51C4F064614460D46F86CF1F75DFEAA
:10EEB0002070002030607060B060B0810E280BD0F0
:10EEC0002918F72908D82278914205D2F96C2944EB
:10EED000095C31540130F1E7F8BD00BF0A4890F8F1
:10EEE0007C007047084910226C31F1F7F4BD00BF77
:10EEF000054910224C31F1F7EEBD00BF0249102246
:10EF00005C31F1F7E8BD00BF4CE24E20014890F8BB
:10EF100020007047C4EA4E202DE9F8431D460C9BA3
:10EF2000032B84BF0020BDE8F88314460246DDE9C8
:10EF30000A60DDE90889DFE803F0020A122B09788C
:10EF4000B9B3022937D001293BD012203CE03188E7
:10EF500032B906293CBF1E20BDE8F88300E03188A5
:10EF600021F0010131802FF035FF284940F2712254
:10EF7000484331885143B0FBF1F020600020286005
:10EF8000C8F800104FF0FF31C9F80010BDE8F88351
:10EF9000087801281CBF2020BDE8F88330880021B4
:10EFA0000230308080B2C82888BF01214801BDE806
:10EFB000F883C82006E02FF00DFF21684A1C022AC2
:10EFC00015D2282030800020D8F800104A1CEED03E
:10EFD00040F27122B1FBF2F1328821F0010191423D
:10EFE000E5D2052998BF06213180BDE8F88340F2BB
:10EFF00071225143054A5043B0FBF1F04FF6FE71C8
:10F000000840062898BF0620DCE700BF40420F00FA
:10F0100010B500220023102A05D0845C8C54845C37
:10F0200001326340F7E70B7410BD1CB5ADF8041056
:10F03000009000206946062808BF1CBD0B5C141810
:10F040001354A3710130F6E7B0B504460025102D26
:10F0500008BFB0BDF1F7D2FC60550135F7E700F00D
:10F060001E0100F4706200F47040063918BF0121DF
:10F07000B2F5407F18BF0321B0F5405F18BF0521EE
:10F0800008467047F0B585B0144605460A4600218B
:10F090002078102907D0102888BF00202B5C013071
:10F0A00053540131F5E7207890B100EB0010104B7C
:10F0B000002101AE1230102906D04718FFB2DF5DE3
:10F0C000DF5D77540131F6E701A91046FFF7AEFD89
:10F0D0000020112806D0295CCA0042EA51112954A7
:10F0E0000130F6E720780130207005B0F0BD00BF98
:10F0F000B10B09000278173A0A70427882F0E502F3
:10F100004A708278213A8A70C27882F0C102CA704D
:10F1100002794D3A0A71427982F0A7024A718279E6
:10F120006B3A8A71C27982F08302CA71027A82F0E4
:10F13000E9020A72427A1B3A4A72827A82F0DF024C
:10F140008A72C27A3F3ACA72027B82F0B3020A73B1
:10F15000427B593A4A73827B82F095028A73C07B64
:10F160007D38C873704784B000226946102A03D0E6
:10F17000835C8B540132F9E70F22531C04BF04B0A7
:10F1800070478B5C013A00F8013BF6E702880529DD
:10F1900022F0E103038006D003290BD14FF4407124
:10F1A0004FF21E0303E04FF4405140F61E731A4025
:10F1B000114301807047F0B501F002050124860774
:10F1C00052B284EA55044FEA440448BF022411F0C5
:10F1D000040104F1040608BF3446470748BF34461B
:10F1E000002D04F5807608BF3446C70548BF344675
:10F1F000002A58BF3446002944F4007608BF34463C
:10F20000870548BF3446002A58BF344613F001032F
:10F2100044F4805208BF1446002D08BF1446C504AC
:10F2200048BF1446002B44F4005208BF144600297E
:10F2300008BF1446800448BF1446A0B2F0BD10B504
:10F2400000F018024405134661F38A2358BF1346A1
:10F250001A46040561F3CB2258BF1A464B081446E0
:10F2600063F38E34430458BF14468907214648BFD0
:10F2700041F40041000458BF214688B210BDB0B52A
:10F280000023102B08BFB0BDC45CCD5C6C40D454CF
:10F290000133F6E7F0B500230F2B88BFF0BDC45C47
:10F2A000CD5CCE186C40D454C418657877783D4452
:10F2B000D71804337D7094F802C0B5786544BD70EA
:10F2C000E478F5786C40FC70E6E700002DE9F04F3B
:10F2D00089B0A0B3054601F03FFE95F8451195F8B9
:10F2E00044012A680902089241EA004095F8461153
:10F2F000084411469061B5F83E21B5F84231934279
:10F300001CD3B5F83C11B5F84001814216D842EA49
:10F3100003040C430443B4F5006F0FD241EA0241E9
:10F32000089C216129790E2903910AD1991A02EBCF
:10F3300041014FF4803202EB014103E0FEE701207E
:10F34000FCE01904089A08434FF0A0514FF0000C5C
:10F35000506102F1600E03980E2808BF4FF0E05193
:10F360000291CDE900E5BCF1400F00F0E680F046E7
:10F370000898BCF1000F05EB0C0208BF00F11C0857
:10F380004FF0600008BF1C20B2F8D4905FEA09710A
:10F390001FD4B2F8C830B2F8CC10B2F8CA70B2F8C4
:10F3A000CEB04FF0000ACDE90431C91A069792F8A1
:10F3B000BC3001310791591E072912D804240227B5
:10F3C000DFE801F0042F0F0D1C0D04044FF0010ABB
:10F3D00007E0089A115821F080511150AAE04FF02F
:10F3E000030A191F04290DD85446DFE801F003076A
:10F3F0000F13170057464FF0010A12E04FF0020AB0
:10F4000027460EE057464FF0000A0AE057464FF0F5
:10F41000030A06E057464FF0050A02E057464FF050
:10F42000060A082109F00203BCF1000F01EA4901B4
:10F4300041EAC32192F8D330514441EA0311029BBF
:10F4400041EA030109F0200341EA43610C4608BF89
:10F4500044F000445FEAC96358BF0C46B2F8D010CC
:10F460004FF6FF73DDF81C906FF35934994208BFD3
:10F47000494601FB07F344EA4331089C215001202F
:10F48000069E5E455AD8DDE90457BD4256D845EA86
:10F490000701002441EA0B013143B4EBD12F4DD1D8
:10F4A00045EA0641ABEB0604601CC8F8041003995A
:10F4B0000E2911BF4FEA0B4106EB4001214E06EB2E
:10F4C0000141DDE900E53943C8F80810B2F8D4601D
:10F4D000D2F8B810B60608D503FB041101F1704349
:10F4E000B3F1406F38BF01F1A041C8F81010BCF172
:10F4F000000F92F8BE3092F8BD1092F8BF4092F81B
:10F50000C0604FEA032343EA01412144C8F80C10CC
:10F5100092F8C11092F8C2204FEA012141EA064157
:10F520001144C8F8141005D140EA0940089948640C
:10F53000002048630CF1200C15E7002009B0BDE85D
:10F54000F08F00BF0000FFFF70B51446054608208D
:10F550000022002809D455F820300026E3FB0126BC
:10F5600044F8202001383246F3E720467AF034FA96
:10F57000A86AA0622046BDE870407FF02FBB000063
:10F580002DE9F04F9FB00DF12C0A8946834650219A
:10F5900090465046F1F7C6FA09F120000AF14401FD
:10F5A0000822B2F1FF3F13DD5BF822300024002770
:10F5B00014F1080509D451F8245050F82460E6FBF2
:10F5C000635741F82450013CF2E70439013AE8E777
:10F5D0000022122A04D05AF8220008B90132F8E7B2
:10F5E000D9F82800DBF82810C2F1120300261D9379
:10F5F0000C1A18BF01241E945AF82610701C082EED
:10F6000002D800290646F7D0082B0A9415D8471EC1
:10F610000A2A15D1204C0AF128020023082B0CD00D
:10F6200004EB830652F823500133B66AAE42F5D09C
:10F6300003D305E05AF8201001300029FAD0471E04
:10F640006E460AEB870124223046F1F744FA304631
:10F650007AF0C2F907F10904371D30467FF0BEFA8F
:10F66000112C0CD8304639462022F1F734FA5AF8DA
:10F670002400089030467AF0AFF90134EDE769468E
:10F6800040462422F1F727FADDE90901C8E909011A
:10F690001FB0BDE8F08F00BF5CC809002DE9F04F36
:10F6A0008FB0DFF884820446D8F80000A04200F052
:10F6B0000781022001210226FCF74EF80546D8F802
:10F6C00004004FF48001D0F80890984801604FF48E
:10F6D0000001BFF34F8FBFF36F8F0160BFF34F8FF8
:10F6E000BFF36F8F4660924E1D20BFF34F8FBFF365
:10F6F0006F8FB0471E20B0473820B0478D4E8F4FD8
:10F70000012CB5FBF6F08C4DA0F1010A8C48834624
:10F7100007D1D8F804000422D0F8201100F0E2FF4D
:10F7200003E044F0020003282ED11620FAF748FD2A
:10F730000C20012C2860C5F828A0D8F80400D0E9D6
:10F740004A1202F10203EB624FF49A7308BF4FF4BE
:10F750009C73C05801382863686940F001006861F3
:10F7600001206863AA6311222A62E8600420CBF8B2
:10F7700080105A4638600BF17C0078600220B86037
:10F78000286840F001002860042C00F09C80022CC6
:10F7900040F09480B9FBF6F04FF4FA41B1FBF0F081
:10F7A0004FF47A7100EB400000F5FA70B0FBF1F90C
:10F7B0001720FAF705FDD8F804104FF00C0ED1F819
:10F7C000B8200868D1F828C1D1F83061CBF81820EA
:10F7D000B1F83E21B1F83C3143EA02430361B1F88C
:10F7E000403143EA02434361602006EB0903CBF852
:10F7F00080C04FF0000C6860D81CC5F80CC0C5F87C
:10F8000000E0C5F828A0E862686940F0010068617E
:10F810004FF4E000E8616E63012640F21110AB6323
:10F82000EE6328625148C0F800E0C0F828C0B1F883
:10F830004211891A6FF000620131C162416941F0E1
:10F84000010141614FF4E0218160C660016841F02F
:10F85000010101600420464938600BF17C007860AA
:10F860000220B8600BF1880039617861BA614FF00D
:10F8700005123A6278624FF0006007F58052B86274
:10F880000520386307F57F6078633A48BE633864C3
:10F890007A644FF48032BA6438653748C7F854B098
:10F8A000BA653866081D7D66BE6638676FF0010070
:10F8B0007D67B867286840F001002860C8F80040FC
:10F8C0000FB0BDE8F08F1620FAF77AFC28680821FF
:10F8D00040F00400286001208DF839000020CDE9B7
:10F8E000015A05900390D8F80400D0F82401049040
:10F8F00001A8F6F7ACFA18B112A0F3F72DFBFEE75A
:10F9000001A8F5F769FA18B113A0F3F725FBFEE794
:10F91000D8F808000028D1D00138C8F80800D8F875
:10F920000400F8F7B3FFC9E7F4C44E2080E100E01B
:10F9300059B9000040420F000000015010B00150C2
:10F9400014C0015054696D657220696E6974206538
:10F9500072726F720000000054696D6572207374DA
:10F96000617274206572726F7200000000100150A5
:10F9700004000600680007006800050004480068ED
:10F9800028B104280CBF01200130FFF787BE704763
:10F99000F4C44E2010B503460020002900F0CD81AC
:10F9A000002A00F0CA8100205C2B00F2C681DFE84B
:10F9B00013F067005D006B006D006F007100730055
:10F9C0007500770079007B007F0083008700890045
:10F9D0008B008D008F009400960098009D009F0082
:10F9E000A400A600AB00B000B200B400B900BE0095
:10F9F000C300C800CA00CC00D100D600D800DA008D
:10FA0000DF00E4006200E600EB00ED00F200F7002A
:10FA1000FC00010106010B01100115011A01C401CE
:10FA20002001220127012A012D013101350139016F
:10FA30003E01420146014A014E0162005201570156
:10FA40005C01610166016B01700175017A017F0142
:10FA5000840189018E0193015D009801A001A50137
:10FA6000AA01AF01B401B601BA01BE0101200860CC
:10FA70004FF4000039E1002008604FF0807034E15D
:10FA800000200860012030E10020D1E00020BEE02D
:10FA900000204DE10020BEE0002045E10020BEE056
:10FAA0000020C9E001202BE000200860202041E177
:10FAB0000020086040203DE100200860802039E1FE
:10FAC0000020BDE0012020E00020BDE00020BFE0DC
:10FAD000002008604FF080502CE1002066E00020FC
:10FAE000BFE0002008604FF4807023E10020BDE0FB
:10FAF000002008604FF400401CE1002093E000204B
:10FB000008604FF48050F0E0002008604FF400508F
:10FB1000EBE00020AFE00020B7E0002008604FF4E9
:10FB20008030E2E0002008604FF4803002E10020E5
:10FB300008604FF40030FDE0002008604FF48020A2
:10FB4000F8E00020ABE00020AEE0002008604FF4B9
:10FB50000020EFE0002008604FF48010EAE0002071
:10FB6000B1E00020B4E0002008604FF40070E1E054
:10FB7000002008604FF48060DCE00020ADE0002051
:10FB800008604FF40010D5E0002014E00020086069
:10FB90004FF08060A9E0002008604FF00060A4E012
:10FBA000002008604FF080509FE0012008604FF473
:10FBB00080709AE0012008604FF0007095E000200E
:10FBC00008604FF48050B5E0002008604FF400500A
:10FBD000B0E0002008604FF48040ABE000200860F7
:10FBE0004FF0005081E0002008604FF0804010602E
:10FBF00010BD002076E0002008604FF0006099E022
:10FC00000120086071E00120086093E00120086095
:10FC100002206AE001200860042066E001200860FC
:10FC2000082062E0012008604FF400605DE00120E0
:10FC3000086002207EE001200860102055E00120CD
:10FC40000860202051E00120086040204DE00120A4
:10FC50000860802049E0002008604FF0005069E013
:10FC6000012008604FF400703FE0012008604FF46D
:10FC700080603AE0012008604FF4804035E00020C9
:10FC800008604FF0804055E0012008604FF40040CC
:10FC90002BE0002008604FF000404BE0012008609E
:10FCA0004FF4003021E0012008604FF480201CE078
:10FCB000012008604FF4002017E0002008604FF09A
:10FCC000807037E0012008604FF480100DE00120C3
:10FCD00008604FF4001008E0012008604FF4800035
:10FCE00003E0012008604FF0004010604FF08040BA
:10FCF00010BD002008604FF080601BE0002008600D
:10FD00004FF0007016E0002008604FF4000011E092
:10FD1000002008604FF480000CE0002000E001208B
:10FD20000860102006E001200860082002E00120A1
:10FD30000860042010604FF0A04010BD00F00F01DB
:10FD4000000900EB800001EB4000C0B270470146A3
:10FD50000A22092898BF0921B1FBF2F202EB8203C3
:10FD6000A1EB4303591A084440EA0210C0B270479D
:10FD7000B0B504460068C16841F48061C160F6F71F
:10FD800005FB05462068C068800505D4F6F7FEFA35
:10FD9000401BB0F57A7FF5D90020B0BD80B56EF07C
:10FDA00099FB0348FBF740FFBDE880406EF0AABB1B
:10FDB00058C44E200146C06A426912F0500F03D069
:10FDC000C068826B08461047416941F40071416187
:10FDD000FCF749B9C06A416941F04001416181695C
:10FDE00041F00401816170472DE9F04FE2B00092CB
:10FDF00004910346002112AF52AD0022402A04D0E4
:10FE000047F82210A9540132F8E7049A02F4E0708E
:10FE1000B0F5E07118BF012106910590B0F5E07FC3
:10FE20004FEA12204FF0010108BF022101EB5226D8
:10FE30000390100C07929D490290100E10919C495E
:10FE4000019098480F919B49119097480D919A49BC
:10FE50000C919A490B919A490E91022E18D0002EBE
:10FE600000F0DA80711E18BF0121069A82F00102AB
:10FE7000114311D00599B1F5E07F08BF012E32D1B1
:10FE800000210022402900F0BA806A540131F9E7CC
:10FE90000599B1F5E07F26D107990022C908914262
:10FEA00003D09C5CAC540132F9E780224C1C6A54AC
:10FEB0003F294FF000022146F8D3711E18BF0121DF
:10FEC000069A82F0010211430BD104998DF8871133
:10FED00003998DF8861102998DF8851101998DF895
:10FEE0008411002109E00021402903D05A5C6A54A2
:10FEF0000131F9E70799A1F5007107910021402927
:10FF000004D06A5812BA7A500431F8E70021CDE9DA
:10FF10000863C02916D07C187A580431666AA36B2E
:10FF2000656832444FEAF34686EA932686EA7343CD
:10FF30001A444FEAB54383EAD50383EAF5131A441A
:10FF40002264E6E70DF12C0E0DF13809119E4FF0F9
:10FF5000000884460A909EE8064099E83002E2468E
:10FF6000CC46A946B8F1400F2CD044EA010504EA7A
:10FF700001034FEAB91B15408BEAF9202B434FEAE6
:10FF8000B40585EA743580EA796085EAB455304471
:10FF900056462B448AEA0C0505EA090585EA0A0556
:10FFA0002844484D55F82850284457F8285008F15F
:10FFB00001082844034400EB0E0596460A462146F4
:10FFC0001C46CCE7109B119852AD63443044089E08
:10FFD00010930F9B11900A98013E4B4450440F938D
:10FFE0000D9B73440D930C9B13440B9A0C93099B2C
:10FFF0000A440E990B92403321440E912DE7049947
:020000040001F9
:100000008DF8871103998DF8861102998DF8851165
:1000100001998DF8841171E70E9A009903460B9FA0
:100020000C9E0D9D0F9C100CCF71CE72CD73CC74B5
:10003000CB764870100E0870380A8871380C4871F9
:10004000380E0871300A8872300C4872300E08720F
:10005000280A8873280C4873280E0873200A8874AD
:10006000200C487410BA109A000C4880200ECA75F3
:100070000874100A8875100C4875100E119A0875CE
:10008000180A8876180CCA774876180E0876100A6F
:100090008877100C4877100E08774FF4807062B0A4
:1000A000BDE8F08F19CDE05BABD9831F8C68059B51
:1000B0007F520E513AF54FA572F36E3C85AE67BB89
:1000C00067E6096A645409000168C26A0B6922F88C
:1000D000023B438E013B4386C262428E2AB98A6844
:1000E00022F004028A60418D01B1704700F0D0B85F
:1000F0000168097CC26A531CC3621170418E0139C8
:100100004186418E31B901688A6822F047028A60CF
:10011000418D01B1704700F0BBB8426A016832F806
:10012000023B0B61438D013B43854262428D9AB98C
:100130008A6822F008028A60428E5AB14A695204E3
:10014000FAD5C26A0B6922F8023BC262428E013ABA
:100150004286F1E7428E02B170478A6822F0470278
:100160008A6000F095B8426A0168531C43621278B5
:100170000A74418D01394185418D31B901688A6820
:1001800022F008028A60418E01B1704700F080B809
:100190001CB504460068016821F0010101600121DD
:1001A00094F84800FBF7D8FA45F6C051B0FBF1F0DF
:1001B0006421484301902068816821F04F018160EB
:1001C00001994A1E019219B181684907F8D403E0E8
:1001D000E06C40F04000E064F6F7D8F802462046B4
:1001E000642100F055FA08B14020E064F6F7CEF83B
:1001F000009020464FF47C214FF47822642300F0D5
:1002000001FA08B14020E064072084F84A001CBDD0
:100210001CB5044690F848000121FBF79DFA45F60D
:10022000C051B0FBF1F0642148430190206881681F
:1002300021F04F01816001994A1E019219B1816834
:100240000907F8D403E0E06C40F04000E064F6F702
:100250009DF802462046642100F056F908B140207E
:10026000E0642068016821F001010160F6F78EF872
:10027000009020464FF47C214FF47822642300F054
:10028000C1F908B14020E064072084F84A001CBD91
:1002900010B50446F6F77AF802462068816821F026
:1002A000430181602046642100F02EF918B1E06C12
:1002B00040F02000E064E06C38B1012084F84A008E
:1002C0002046BDE81040FCF7CDB994F84A00012162
:1002D00084F84A1004282046BDE8104008BFFCF707
:1002E000D5BBFCF7EFBE10B504460068816821F06D
:1002F00047018160F6F74AF802462046642100F083
:10030000D5F818B1E06C40F02000E064012084F8DA
:100310004A00E06C00282046BDE8104018BFFCF7FA
:10032000A1B9FCF7B3BB1CB50446F6F72FF802469B
:100330002068816821F04B0181602046642100F033
:10034000E3F818B1E06C40F02000E064A0680328F6
:1003500007D1002001902068016901914069019056
:100360000198012084F84A00E06C00282046BDE88E
:100370001C4008BFFCF7A4BEFCF774B9C06AC16C8E
:1003800041F01001C164012180F84A10FCF76AB9FC
:10039000C06AFCF77CBBC06AFCF793BEC06AFCF77E
:1003A00092BEB0B5C46A0546F5F7F0FF024628686C
:1003B0000068800617D42068816821F043018160BD
:1003C0002046642100F072F808B12020E06400208B
:1003D0006086012084F84A00E06C20B12046BDE828
:1003E000B040FCF73FB92046BDE8B040FCF74EBB3B
:1003F000BCB5C46A0546F5F7C9FF0246286800681F
:10040000800624D42068816821F043018160204661
:10041000642100F079F818B1E06C40F02000E0644D
:10042000A068032807D1002001902068016901918C
:1004300040690190019800206085012084F84A00FD
:10044000E06C20B12046BDE8BC40FCF70BB920466B
:10045000BDE8BC40FCF734BEB0B5C46A0546F5F74C
:1004600095FF02462868006880061AD420688168D3
:1004700021F0430181602046642100F045F818B165
:10048000E06C40F02000E064002060856086012080
:1004900084F84A00E06C20B12046BDE8B040FCF78B
:1004A000E1B82046BDE8B040FCF70CBE7CB5044680
:1004B000406816460D4640B9A0680138012804D8A6
:1004C0002068016821F0010101602046294632467A
:1004D00000F0DEF828B1E06C40F02000E06403207A
:1004E0007CBD606870B9A068013801280AD8204630
:1004F0004FF47C214FF478222B46009600F082F8CE
:100500000028E8D100207CBD7CB50D46164600923F
:100510004FF47C61402204462B4600F073F878B912
:1005200020462946324600F0B3F848B920464FF439
:100530007C214FF478222B46009600F063F828B116
:10054000E06C40F02000E06403207CBD00207CBD16
:100550000168C26A0B6922F8023B438E013B438665
:10056000C262438E082B0CD8438E53B14B695B0497
:10057000FAD50B6922F8023BC262438E013B4386E7
:10058000F2E7418E01B17047FFF7ADBE0168097C0B
:10059000C26A531CC3621170418E01394186418E7B
:1005A00010290ED8418E61B101684A695204F9D50B
:1005B000097CC26A531CC3621170418E01394186A5
:1005C000F0E7418E01B17047FFF78DBE426A0168C6
:1005D00032F8023B0B61418D013941854262418D08
:1005E00001B17047FFF79FBE426A0168531C436226
:1005F00012780A74418D01394185418D01B17047EE
:10060000FFF791BE2DE9FC470F46804682F4782023
:1006100081F47C21DDF828909A4616465D1C08433B
:10062000B0FA80F04409D8F8000041693940B1427D
:1006300004BF0020BDE8FC8724B1017C8DF80710C1
:100640009DF80710002DEED0BAF1000F07D0F5F796
:100650009DFEA0EB09005045E5D3D8F80000816865
:1006600021F04F018160D8F8041041B9D8F8081082
:100670000139012903D8016821F00101016000203E
:1006800088F84900012088F84A000320BDE8FC876B
:10069000F8B515460E4604464F1C20684169C90747
:1006A00004BF0020F8BD002FF7D02EB1F5F76EFE85
:1006B000401BB042F1D32068816821F04F01816076
:1006C000616839B9A1680139012903D8016821F0AD
:1006D00001010160002084F84900012084F84A00EB
:1006E0000320F8BD2DE9F041002A3ED01646052A28
:1006F00000D3FEE7054600790C46C11E072917D82E
:10070000284600F029FC29684FF4400000EB865091
:10071000D1F89C203FFA80F022F0F8721044C1F822
:100720009C000220C1F89440C1F89000BDE8F0811F
:100730000B281AD8012101FA00F040F60301084203
:1007400013D06FF007004FF0020800EBC6072846F1
:1007500000F002FC24FA07F02968083F013EC0B20D
:10076000C1F89400C1F89080F1D1BDE8F08100009B
:100770002DE9F041F8B1044600200D46FAF7CEFF0E
:10078000064600200121FAF7E7FF2079A560C11E87
:10079000072911D8B6FBF5F0FF2828BFFF20022853
:1007A00098BF02202168D1F89C2060F38D12C1F817
:1007B0009C20BDE8F081FEE70E282FD8DFE800F08E
:1007C00008082C2E2E2E2E2E2E2E2E2E2F2C600094
:1007D000B6FBF5F00023A0EB50013F290A4628BFE5
:1007E0003F2200294FEA50014FEA02324FEA8111BD
:1007F00008BF4FF480527F2888BF4FF47C61B3EB71
:10080000500F08BF40212068D0F884306FF3911357
:1008100019431143C0F88410BDE8F081FEE7206859
:10082000D4F81210C0F8A810A18BE28A42EA014164
:10083000C0F8AC10218C628B42EA0141C0F8B010C4
:10084000E18B228B42EA0141C0F8B410B6FBF5F10E
:10085000628C41EA0231227C02F0010341EA032169
:10086000C2F3400341EA4321C2F38003C2F3C00252
:1008700041EA832141EAC221C0F8B810BDE8F08105
:1008800000204FF00008FAF749FF2D49B0FBF1F6C0
:1008900000200121FAF760FF4FF4FA714FF425723E
:1008A000238A16FB0211668A4FF47A723344A68AB1
:1008B000B1FBF2F233445E0806FB02F3B3F5803F6E
:1008C00000D3FEE7E78A258B013E3D44678B246811
:1008D0003D441C4F07EB45453543C4F8D05042EA30
:1008E0000245C4F8DC5043EA034507EAC3331A441F
:1008F000C4F8E050C4F8E4204FF4FA62B1FBF2F11E
:1009000001F58031C4F8E8100F49C4F8F810C4F8B4
:10091000EC80D4F8EC1021F01001C4F8EC10D4F8FD
:10092000F41001F06F41C4F8F4103C21B0FBF1F079
:10093000D4F8F4100843C4F8F400BDE8F08100BF17
:1009400040420F000000FFFF5F00200088B10268F6
:1009500001730129D2F880300DD002290ED004296C
:1009600008D1017945F6A010022938BF45F6E010FC
:100970000BE0FEE7FEE74FF4407006E0017942F23B
:100980006040022938BF42F220406FF350131843F1
:10099000C2F880007047F0B5944600230824002573
:1009A000002C14D451F8247050F824607A19B21A2B
:1009B0004CF824207A19A4F1010443F10005B21A7D
:1009C00073EB05024FF0000538BF0125E8E76046EC
:1009D000BDE8F04079F000B870B506460D46886A6B
:1009E0001446B16A41B170B12846314622F00CF983
:1009F00078B12846314616E070B130462946224685
:100A0000F0F7FFFD12E0304629462246F0F7F9FDE7
:100A10001FE03046294619E03046294622F0F4F816
:100A200090B1304629462246FFF7B5FF00200C4919
:100A3000A062204622F0E8F828B109492046BDE826
:100A4000704000F00FB870BD284631462246FFF7CF
:100A5000A2FF0120A0622046BDE87040F0F706BE6C
:100A600054140900F0B5002208230024002B15D4EB
:100A700051F8236050F823503719A41942F10006A9
:100A80002C1BA5EB070772EB060440F82370A3F1BB
:100A900001034FF0000438BF0124E7E7BDE8F04050
:100AA00078F09ABF70B58CB004460D46886AA16A8A
:100AB000B1B1B0B12846214622F0A6F8E8B101AEA6
:100AC000284621463246FFF766FF2046314624225B
:100AD000F0F701F800200A996162A0620CB070BDC5
:100AE00030B1204629460CB0BDE87040F0F76FBD2C
:100AF0002046294622F088F830B1204629460CB01D
:100B0000BDE87040FFF7AEBF01AE28462146324631
:100B1000FFF741FF204631462422EFF7DCFF01209A
:100B2000D9E7704701480078704700BF04FC4E20A9
:100B300010B5416ACA0706D00268836A546824F473
:100B40000034234353608A0706D50268C36A546899
:100B500024F48034234353604A0706D50268036BAC
:100B6000546824F48024234353600A0706D502689E
:100B7000436B546824F4004423435360CA0606D5EB
:100B80000268836B946824F48054234393608A063C
:100B900006D50268C36B946824F400542343936021
:100BA0004A0610D50268036C5468B3F5801F24F41C
:100BB000801444EA0304546005D1436C546824F45F
:100BC000C00423435360090606D50168806C4A6857
:100BD00022F400221043486010BD0021202241670A
:100BE00080F8712080F8701080F872200020704723
:100BF000C06A0021A0F85A10A0F85210FCF76CBD92
:100C000010B5C46A94F8710021280DD1206881685C
:100C1000090609D50021A4F85210016821F0C0018D
:100C20000160202084F8710094F87200222809D114
:100C300020688068400605D50020A4F85A002046A8
:100C400000F08AF8606F40F0100060672046BDE851
:100C50001040FCF741BD0168C06A0968890612D4DA
:100C60000021A0F85A1001680A6822F480720A6014
:100C70008A6822F001028A608A6822F040028A6053
:100C8000202180F87210FCF74BBFC06A0021D0E928
:100C90001A23D96312B1D26B02B17047A0F8521077
:100CA000A0F85A1041670F2201680A628A6942F06F
:100CB00008028A61202180F8711080F87210FCF718
:100CC00039BBC06AFCF730BFC06A00210F22A0F810
:100CD0005A1001680A628A6942F008028A6120217A
:100CE00080F87210FCF74EBB0168C06A096889067B
:100CF00048BFFDF719B80021A0F8521000688168BC
:100D000021F080018160016841F04001016070477D
:100D1000C06A0021D0E91A32D96312B1D26B02B194
:100D20007047A0F85210A0F85A1041670F220168CE
:100D30000A62202180F8711080F87210FCF7FABA6C
:100D4000C06AFCF7F2BFC06A0021A0F8521020214F
:100D500080F87110FCF76CBB01680A6822F490728D
:100D60000A608A6822F001028A600021016620215F
:100D700080F8721070470168B0F85C2090F872300B
:100D8000222B0DD14B6A1A40436D23F8022B436589
:100D9000B0F85A20013AA0F85A20120405D0704742
:100DA000886940F00800886170470A6822F49072F0
:100DB0000A608A6822F001028A600021016620210F
:100DC00080F87210FCF7ACBE10B50168B0F85C207A
:100DD00090F87230222B0DD1436D5C1C4465496A3A
:100DE00011401970B0F85A100139A0F85A100904CE
:100DF00005D010BD886940F00800886110BD016809
:100E00000A6822F490720A608A6822F001028A60FD
:100E100000210166202180F87210BDE81040FCF727
:100E20007FBE000070B5016800F10804104E1CCCB4
:100E30000D682243C46935404669324322432A4340
:100E40000A604A6822F440521A434A608269036A7F
:100E50001A438B6823F430631A438A600022C0E986
:100E60001822C86A20F0F000C862002070BD00BFE0
:100E7000F3B9FFE790F8711021290FD1B0F85210A3
:100E800069B1C26C016832F8023B6FF35F238B6279
:100E9000C264B0F852100139A0F8521070470068CF
:100EA000016821F080010160016841F040010160AA
:100EB000704790F8711021290DD1B0F8521059B136
:100EC000C26C0168531CC36412788A62B0F8521075
:100ED0000139A0F8521070470068016821F08001C4
:100EE0000160016841F04001016070472DE9F8435D
:100EF000DDF82090984616460F46044609F1010594
:100F00002068C1693940C91BB1FA81F14909B14270
:100F10001CBF0020BDE8F883002DF1D0B9F1000F0F
:100F200006D0F5F733FAA0EB08004845E8D9206869
:100F3000016821F4D0710160816821F001018160B4
:100F40002020002184F8710084F8701084F8720069
:100F50000320BDE8F8830000B0B50446F5F716FAA3
:100F6000054620790C280DD0F5F710FA401BC00873
:100F70007C2809D820684168C907F5D1D0F89000CD
:100F80000007F1D40020B0BDD4F84C0140F00100BE
:100F9000C4F84C0102A0F1F7DFFF0320B0BD00BF91
:100FA00057616974427573792054696D656F757402
:100FB0000000000080B588B004AF0FC70D980E9AEE
:100FC000694603900C9802900B9801900A98009043
:100FD00004A8FEF754F908B080BD0000F8B50D462E
:100FE0000446FFF7B9FF032804BF0320F8BD2046DD
:100FF000FEF76CF900B1F8BD424843490160207921
:101000000E285FD1E18AB4F83E31B4F84201B4F859
:101010001AC0278B268A0B44421839445B04501CA3
:10102000614403F5803343EA4005206803F58033CB
:10103000C0F8D450032505EB42021A43334BC0F8E5
:10104000FC2003EB0141B4F84051B4F83C21354495
:1010500032444FF0FF36013503EAC23206EB550544
:101060002A43C0F8D820D0F8EC2092B2C0F8EC2087
:10107000D0F8EC201143C0F8EC10D0F8F410C900FF
:1010800007D5D0F8F4108900FBD5D0F8F41089000A
:10109000FBD4D0F8EC1041F01001C0F8EC10232084
:1010A000F2F7FCF92068D0F8EC1041F00101C0F82B
:1010B000EC100120F2F7F2F92068C16841F010014C
:1010C000C1601CE00C280AD12068012D03D1C16841
:1010D00041F00C01C1600121C0F8BC100FE0012DEE
:1010E0000AD12068D4F85411C268013142F00102DB
:1010F000C260C4F8541100E02068012101600020A2
:10110000F8BD00BFE8CF4E2005EC00000000FFFF57
:1011100000280CD400F01F010122400902FA01F15D
:10112000134A42F82010BFF34F8FBFF36F8F704701
:1011300000280CD400F01F010122400902FA01F13D
:101140000B4A42F82010BFF34F8FBFF36F8F7047E9
:1011500000280CD400F01F010122400902FA01F11D
:10116000034A42F82010BFF34F8FBFF36F8F7047D1
:1011700080E100E0002808D400F01F0101224009AE
:1011800002FA01F1074A42F820107047002808D4FB
:1011900000F01F010122400902FA01F1014A42F860
:1011A0002010704700E100E010B500F00F03064C7E
:1011B000044AB0F1FF3F2344C8BF831848011870A8
:1011C00010BD00BF00E400E014ED00E0BFF34F8F5E
:1011D0000548064A016801F4E06111430160BFF36C
:1011E0004F8F00BFFDE700BF0CED00E00400FA05E3
:1011F00081071CBF00207047642190FBF1F202FBC5
:10120000110109B1012070474FF4C87190FBF1F250
:1012100002FB1100B0FA80F04009704718B1C1B26A
:1012200019B101200EE00020704710F47F4102D078
:10123000090A092006E010F47F0107BF010E1920FA
:10124000090C1120014A515C08447047B410090090
:101250000020704770B50446EFF7C0FA04F1140699
:101260000546304673F090FE304673F059FD208AF3
:1012700020F0020020822846EFF7B4FA606C214685
:10128000BDE8704001F054B9E0B5B54890F8900061
:10129000400709D5B4480DF1070204210368242052
:1012A00098479DF8070058B105F08EF930B14269B2
:1012B00022B1418C0348036810469847FAF7AAFB0D
:1012C0008CBD00BF7CC04E202DE9F0410D46044688
:1012D0000D2800D82DB91C4A20462946ED2374F06C
:1012E00073FB0D2C1DD8194EDFF8648006EB8400CB
:1012F000D8F800100561204688470546301906EBEE
:10130000850680F860500120A040374657F8481FF6
:1013100057F8442C40EA020047F8440C19B1002465
:101320000FE003240DE00BA00021002474F085FBE6
:10133000D8F80410706508A02A462B4674F086FB86
:1013400038602046BDE8F0817C9D090050E14E20C8
:1013500008C04E204B4500004B455F4556540000E9
:1013600010B50E2809D2012101FA00F4EFF736FA80
:1013700061490A68A2430A6007E0494A002140F235
:101380001D1374F021FBEFF729FABDE81040EFF7C9
:1013900029BA00BF58480068704700BF80B556485A
:1013A0007021EFF7BFFB80BDF8B5534F254C3C4D86
:1013B0003968E1B1B1FA81F080F01F060E2E05D335
:1013C00030462A4640F2531374F0FEFA06203146A6
:1013D00008F09CFA07EB8600006908B18047E7E750
:1013E0002046294640F2611274F0D0FAE0E7F8BDD9
:1013F0002DE9F041404DDFF84C80294E0446286825
:1014000010EA040108BFBDE8F081B1FA81F080F074
:101410001F070E2F05D3384632464FF4BC7374F0C5
:10142000D3FA0620394608F071FA05EB8700006907
:1014300008B18047E3E7404631464FF4C27274F08A
:10144000A5FADCE78FB10900F8B504460E280CD2E6
:10145000294E301990F86050012000FA04F7EFF798
:10146000BDF93168394331600CE00D4A2046002156
:1014700040F2091374F0A8FA1F48204490F8605015
:10148000EFF7ACF9EFF7AEF91B4800EB8500406DC4
:1014900074F0DAFA05202146BDE8F84008F036BAC3
:1014A0007C9D09000D280ED810B50A4B00220021A2
:1014B0000E2A0AD013F81240844204BF03EB420103
:1014C00049780132F4E7002101E0BDE81040C8B2DC
:1014D000704700BF004109000749C0B2074E01EB49
:1014E0008000041D00F15405286874F0A9FA2068F2
:1014F00031688847F8E700BF50E14E2038C04E20E1
:101500001CB5174C94F89D0040060AD515480DF1FE
:1015100006024FF480410368272098479DF8061083
:10152000E9B169F03DFC6FF0C5FD94F89C008006C0
:1015300009D50D480DF1070220210368272098479F
:101540009DF8070058B109480021C0E907110E2194
:10155000017507496FF0B4FD064873F033F81CBD00
:1015600058D94E2014C14E2018C14E20ECCF4E2029
:1015700040270900FD3E03000020704780B5394A2E
:1015800012689047002818BF012080BD10B5354A69
:101590001268904768B10446043007F040F93748B4
:1015A0002146283006F058FC2046BDE8104022F0C5
:1015B00051BB10BD10B50446418B008BFF2222F0B9
:1015C0009BFE2E482146283006F046FC2046BDE80A
:1015D000104022F03FBB00BF10B5284800F128049E
:1015E000204606F082FD10B122F034FBF8E710BD72
:1015F000024622482830006838B1038B9342FAD162
:10160000438B8B4208BF7047F5E70020704700BF4F
:101610002DE9F041DFF84C8014460F460646D8F815
:10162000002090470546B8B91C20022122F0E4FCB6
:10163000054620B90CA00EA1A02274F0A7F9D8F895
:101640000410281D2A466F832E8307F08FF80B485D
:101650002946283006F05AFD281D2146BDE8F041F4
:1016600007F0D2B810C04E20705F74696D657200CB
:101670006B655F74696D65722E630000F0E04E204B
:1016800070B515460E46044620B9144814A19C2294
:1016900069F010FE012E05D0022E0CD1D4F8C00046
:1016A000826902E0D4F8C000C2698AB120460021F4
:1016B0000025904710E06DB1AA782988204600F0F7
:1016C000ADFFD4F8C000AA7829880368204698475F
:1016D000002501E04FF0FF35284670BD5EBB0900D4
:1016E0005F70696E5F636F6E74726F6C00000000F4
:1016F00070B51E461446054620B9094809A11E22A8
:1017000069F0D8FD00204CB1042E07D1D5F8C000F7
:1017100021888268284690476080042070BD00BF01
:101720005EBB09005F70696E5F72656164000000F6
:1017300070B51E461546044620B90B480BA12D2254
:1017400069F0B8FD002075B1042E0CD16A88298893
:1017500020467EF08FFBD4F8C0006A882988436851
:1017600020469847042070BD5EBB09005F70696E1B
:101770005F7772697465000070B5154E04460025E8
:1017800096F85400854228BF70BDB06D00EBC501CE
:1017900049688A681AB150F83500214690470135EA
:1017A000EEE700BF70B50A4E0446002596F85400D7
:1017B000854228BF70BDB06D00EBC50149684A681D
:1017C0001AB150F83500214690470135EEE700BFC9
:1017D0008CC74E2070B50D46044620B9104811A1A3
:1017E000982269F067FD616D11B12846884714E0C1
:1017F00094F8580001280FDBE16D461E01EBC00094
:1018000050F8080C73F056F9A8423046F2D8E06D53
:1018100000EBC600007900E0012084F8460070BDAE
:101820003ABC09005F706D5F73656C6563745F73CC
:101830006C6565705F6D6F646500000080B5202980
:1018400005D0212906D1D0B26FF0BCFD02E0D0B2A4
:101850006FF096FD002080BDF8B51C4615460E467B
:10186000074628B90AA00EA14FF4167269F022FDAE
:10187000052EC4BF0020F8BDB8190EA2214690F86D
:101880004030284601B0BDE8F04071F04DBE00BFC9
:10189000706D20213D2052545F4E554C4C0000008D
:1018A0005F72745F706D5F6465766963655F7265B2
:1018B000616400002564000080B553B1107828B140
:1018C000012806D1C8B26FF07DFD02E0C8B26FF00A
:1018D00057FD012080BD000010B5044620B9124814
:1018E00012A14B2269F0E6FCA06A0178232906D1F7
:1018F000E169814203D9E26A0244914209D921A0F7
:1019000021466CF055FE3CF095FDEEF767FF18B1EF
:10191000FEE72030814200D910BD0BA02146BDE872
:1019200010406CF045BE00BF5D9009005F72745FAF
:101930007363686564756C65725F737461636B5F14
:10194000636865636B0000007761726E696E673A69
:1019500020257320737461636B20697320636C6F3F
:10196000736520746F2074686520626F74746F6D86
:10197000206F6620737461636B20616464726573A9
:10198000732E0A007468726561643A25732073745B
:1019900061636B206F766572666C6F770A0000007A
:1019A0007CB5069D00F12006044614302EC6C4E91D
:1019B0000500184623212A466DF084FF04F1200318
:1019C0000FCB1A44154B043A6CF008F8E061DDE9DE
:1019D0000756202D04D312A01AA1962269F06AFCA2
:1019E00000201C4AC4E9116684F8355084F836504A
:1019F00021462346A063C4E91F0084F83400206315
:101A0000CDE9000004F14C0073F0DAF912480168E6
:101A100019B12046BDE87C4008477CBD75430800ED
:101A20007072696F72697479203C2052545F544817
:101A3000524541445F5052494F524954595F4D41BC
:101A4000580000005F72745F7468726561645F695A
:101A50006E6974007549080034EE4E2050F8141F6A
:101A600042684A6042681160C0E90000704780B572
:101A7000002002F0BBFC00200EF0E8FD002011F079
:101A800041FF0020BDE8804024F0A6BF80B50120C2
:101A900002F0ACFC01200EF0D9FD012011F032FF64
:101AA0000120BDE8804024F097BF000010B5012858
:101AB0000AD869F089F9044660B9074907A0B0223D
:101AC00073F064FF002405E0034A0021B5230024DD
:101AD00073F07AFF204610BD019F09007265740003
:101AE000F8B50446524890F89000C0060CD551480D
:101AF0000DF103021021234605682420A8479DF814
:101B00000300002800F092804B4E4C484C494D4A4F
:101B1000C6E90121F06022F00DFA04F055FD0168DC
:101B2000054619B12A8B002022F05CFBA96819B187
:101B3000AA8B012022F056FB696819B16A8B02203A
:101B400022F050FBE96819B1EA8B032022F04AFB2E
:101B500001203070012007F02DFB354615F8100BE1
:101B600007F08CF9284668F007FF74F043FD3078E1
:101B700008F066FF344D2868016801208847014657
:101B8000012011F0D5FF2868016800208847014630
:101B9000002011F0CDFF307814F032FD01F084F810
:101BA00001F092F8307820F057FB73F09BFF274D3F
:101BB0004FF4C67105F1FC00EEF7B4FF307873F016
:101BC0007DFF05F14000BC21EEF7ACFF307874F0EA
:101BD00091FA307806F09AF8307806F04BFDB4F1BF
:101BE000A53F03D0F4B1B4F1C33F03D1204607F0C1
:101BF000F3FA17E041F2021000211022012301271D
:101C000022F016FB0546B4F1F23F01D12F7006E039
:101C10000FA22046002140F2BD3373F0D5FE2846C6
:101C20001DF0A2FE01F05CFC02203070F8BD00BF88
:101C300058D94E20F8C04E205CC84E20E9A60800B6
:101C400001A70800F5A6080044C34E2088F04E20E6
:101C5000727769702E630000BCB52F4890F8910030
:101C6000C0060BD52D480DF107024FF480510368D3
:101C7000242098479DF8070000284CD0EEF7AEFDD1
:101C80000446274800688047264D287806F03EF82D
:101C9000287806F0EFFC287807F08CFA287808F00E
:101CA000CFFE287814F0ACFC287820F0D5FA2878FC
:101CB00074F020FA2878032808D173F023FFF34842
:101CC0004FF4C671FC30EEF72DFF287873F0F6FE66
:101CD000EE48BC214030EEF725FF287800F04AFEA0
:101CE000287875F07DFA287876F030FC287875F041
:101CF0009BFE287875F000F8287877F00DFA21F02F
:101D000097FF2878032801D128698047032028708D
:101D10002046EEF767FDBCBD58D94E2018C14E20B5
:101D200050C04E205CC84E202DE9F04F85B0DFF842
:101D3000508398F89700C0070CD0D24801AA4FF002
:101D4000807103682520984704469DF80400002808
:101D500000F09181CC4E7078FF2816D005F0F6FC8B
:101D600071780222C90002FA01F1084305F0FCFC77
:101D70007078FF2809D005F0E9FC7178F022C900DD
:101D800002FA01F1884305F0EFFCC04F3878C00734
:101D900004D122F01BFB002800F05F817078FF283F
:101DA0000CD005F0D3FC71781022F023C9008A40D2
:101DB00003FA01F18843104305F0D6FC386808B1F6
:101DC00001244BE17078FF280CD005F0BFFC71783E
:101DD0002022F023C9008A4003FA01F1884310430E
:101DE00005F0C2FCBD6A3869B7F82CA0B5F1FF3127
:101DF00018BF5146421C10D06A1C0AD0421BA44B8B
:101E000022F070429A4204D8A84207D1BA8A91427D
:101E100004D9B7F814A0054600E08A467868411C4A
:101E200025D09C49097801443889A0F5876000B223
:101E3000B0F1FF3F0ADC6FF41C7240F2712390FB9B
:101E4000F2F2013202FB030092B2891A21F07042D1
:101E50006B1C0AD0491B8E4B21F07041994204D86B
:101E6000AA4204D181B28A4501D9824615467078CA
:101E7000FF280CD005F06AFC71783022F023C900ED
:101E80008A4003FA01F18843104305F06DFC681C99
:101E900036D001A874F058FC01987D492C1A24F022
:101EA000704B8B453FF68CAF854206D11FFA8AF006
:101EB000BDF8081088427FF683AF98F897000007B6
:101EC0000DD575480DF113024FF000615B460568B2
:101ED0002520A84781469DF81300002843D068F0CC
:101EE00067FF80B16D48834505D374496CA040F20B
:101EF0001F1273F04BFDA0026421B0FBF1F932E038
:101F0000D7F888424DE068F043FF814698F8960084
:101F100040060AD56A480DF113024FF480010368A8
:101F2000252098479DF8130040B10420F4F77CFA6F
:101F300020B10420F4F778FAC7F89402ABFB09014A
:101F400043F69822A0FB024001FB020974F0A0FABC
:101F500002462046494600230025EEF71DFDB0F15C
:101F6000060938BFA9461FFA8AF0BDF80810884252
:101F700006D2081A401074F039FEA9EB000004E004
:101F8000401A401074F032FE4844D7F890121138CD
:101F900001318842FFF614AFD7F88842A04238BF1B
:101FA00004467078FF280CD005F0D0FB71784022F1
:101FB000F023C9008A4003FA01F18843104305F079
:101FC000D3FB11F0A5FF002847D07078FF2809D077
:101FD00005F0BCFB71780222C90002FA01F18843C6
:101FE00005F0C2FB092007F055FB36480460364C6B
:101FF00098F89700800709D5314801AA4FF0007181
:102000000368252098479DF8040060B12F480068B8
:102010003862D4F8F40378622068F8610020206008
:102020004FF0FF30A060022020604FF0FF30A06032
:102030007078FF2809D005F089FB71780122C9006A
:1020400002FA01F1084305F08FFB0220022474F02C
:10205000B5FA1F48806A80470DE000247078FF2899
:1020600009D005F073FB71780222C90002FA01F170
:10207000884305F079FBE0B205B0BDE8F08F00BF02
:1020800058D94E2014C14E2064C54E2088F04E20F1
:10209000FEFFFF0728F34E20F4C04E20FFFF3F0055
:1020A00068735F636E74203C20283078464646464D
:1020B00046464646203E3E20313029005B9E0900C0
:1020C00018C14E202C000450180009500C0809506B
:1020D0006CC84E2010B50446472068F069F80349E3
:1020E0002C30034AC4E90010A26010BD1886090014
:1020F000010019002DE9F0415F4D297801291CBF2D
:102100000120BDE8F081411EC9B28E2926D878F0A1
:10211000FDFA18B36C68012190F801802D89E180E7
:1021200004F10807A688417801440231CA1B93B222
:10213000B34205D8B21A130402D092B2EEF7CBFC28
:10214000A6EB0800861EB1B217FA86F0691AEEF700
:10215000E9FC0020A680E080BDE8F0810220BDE817
:10216000F08100BFB0B50D464349097801291CBF75
:102170000120B0BD411EC9B28E290CD8144678F09A
:10218000C5FA40B141782970811C42782046EEF7AB
:10219000A2FC0020B0BD0220B0BD00BF10B5364C7F
:1021A0002181606078F074FA00B110BD01212170C6
:1021B00010BD00BFF8B5304F0646387801281CBF67
:1021C0000120F8BD701EC0B28E2884BF0220F8BD69
:1021D000304614460D4678F099FA68B141787E6829
:1021E000A9420FD1012102302A46F1802146EEF7A3
:1021F00072FC0020F080F8BD30462946224678F077
:102200002BFAF8BD07D2B3883A892B44591A914268
:10221000C4BF0320F8BD06490678096830468847E0
:1022200030462946224678F017FA0020F8BD00BF54
:1022300074C04E2070B5104E05463078012805D187
:102240000C463189A1F10800A04201D2012070BDE5
:102250007068EEF767FC78F01BFA00B170BD766825
:10226000012029462246F08006F10800EEF733FCF3
:102270000020B480F08070BDF4DA4E2080B50129D2
:1022800004BFD1B2042901D0002080BDC26E002A53
:10229000FAD0406C02F14401036810469847F3E716
:1022A00070B51C461546064620B91848094917223C
:1022B00069F000F8F06E28B916480649182268F04F
:1022C000F9FFF06E00212A462346BDE8704071F008
:1022D000BBBB00BFDBBE090070B51C4615460646F9
:1022E00020B90A480A49252268F0E4FFF06E28B9AF
:1022F00008480749262268F0DDFFF06E29460022D3
:102300002346BDE8704071F09FBB00BF3CBE090092
:1023100004BF0900C5BE090010B5044620B9144821
:1023200014A1CA2268F0C6FFA07E01281ED8218B06
:102330004FF6FF6201F4806050408A0500EA010018
:1023400048BF20F4407011F4E06218BF20830105FB
:1023500001D42AB90AE020F4106002F5006220835B
:10236000206C1121406C436820469847002010BD26
