:020000041C00DE
:10C000002DE9F05F0546002092469B46884606468D
:10C01000814640241BE0284641464746224600F020
:10C02000E8FA53465A46C01A914110D311461846B1
:10C03000224600F0CFFA2D1A67EB01084F46224640
:10C040000120002100F0C6FA17EB00094E41201E26
:10C05000A4F10104DFDC484631462A464346BDE8E8
:10C06000F09F00000649074A0868504343F239022E
:10C07000104408604008704701490860704700009C
:10C08000004041206D4EC641D2B201E000F8012BC4
:10C09000491EFBD270470022F6E710B513460A4648
:10C0A00004461946FFF7F0FF204610BD10B50446C0
:10C0B00004E00B7800F8013B03B1491C521EF8D292
:10C0C000204610BD421C10F8011B0029FBD1801A2C
:10C0D000704730B504460020034600E05B1C9342E5
:10C0E00003D2E05CCD5C401BF8D030BD034611F8B4
:10C0F000012B00F8012B002AF9D11846704730B502
:10C1000005460020034600E05B1C934205D2EC5C30
:10C11000C85C201A01D1002CF6D130BD0022CBB270
:10C120000178994200D10246401C0029F8D11046FE
:10C1300070472DE9FE4F804681EA0300C00F0C4690
:10C14000009021F0004123F00045B8EB0200A94126
:10C1500005D24046214690461C460B46024623F037
:10C160000040104347D0270DC7F30A00C3F30A511C
:10C170000290401A019040286BDAC3F3130040F498
:10C18000801B0098924620B10023D2EB030A63EB98
:10C190000B0B01985946C0F14002504600F01AFAC4
:10C1A00006460D4650465946019A00F032FA10EB09
:10C1B00008006141002487EA115284EAE7731A43B8
:10C1C00040D0009A62B3019A012A4FEA075215DC67
:10C1D000001B61EB02014FF0004202EA0752CDE979
:10C1E0000042001C41F5801132462B4600F069FAEE
:10C1F00003B0BDE8F08F40462146F9E7001B61EB34
:10C200000201001C41F5801300185B412018A2F5C3
:10C21000001747EB030140EAD570B6196D4111E0F4
:10C220006D084FEA360645EAC0754FEA0752001B13
:10C2300061EB0201001C41F5801149084FEA300012
:10C240000019514132462B4603B0BDE8F04F00F0D3
:10C2500029BA0098012240000023D0EB020263EBD0
:10C26000E073009821464FEAE074B8EB000061EB00
:10C270000401E9E783F000435BE781F0004158E700
:10C280002DE9FE4F81EA030404F0004421F000414F
:10C2900000944FF0000B23F0004350EA01045ED0FD
:10C2A00052EA03045BD0C3F30A54C1F30A552C4489
:10C2B000A4F2F3340194A0FB0254C1F3130141F43E
:10C2C0008011C3F3130343F4801301FB024400FB0A
:10C2D000034E840A970A44EA815447EA8357A4FB31
:10C2E000076802958D0A05FB07854FEA932C04FB2E
:10C2F0000C542705029D4FEA065847EA1637B5EB5E
:10C3000008056EEB070C870E920E47EA811742EA8A
:10C310008312A7FB0201B6EB0B0164EB00042B0DAB
:10C3200043EA0C335E1844EB1C50DA465146E7FBF7
:10C330000201C5F313044FEA0B3343EA14534FEAE7
:10C340000432019C43EA0603A4F10C040294009C0D
:10C35000CDE900B400F0B5F903B0BDE8F08F0020DE
:10C360000146F9E72DE9F04D81EA030404F0004BA2
:10C3700021F0004514464FF0000A23F0004150EA36
:10C38000050220D054EA01021DD0C5F30A57024627
:10C39000C5F31303C1F31300C1F30A5640F480152B
:10C3A00043F48013A7EB0608101BD64608F2FD38AD
:10C3B00073EB050002D308F1010801E092185B411C
:10C3C000B8F1000F03DA00200146BDE8F08D00202F
:10C3D0004FF48011064684460EE0171B73EB0507E9
:10C3E00005D3121B63EB050306434CEA010C490815
:10C3F0004FEA300092185B4150EA0107EDD152EA52
:10C40000030012D082EA040083EA0501084305D044
:10C41000101BAB4106D20122002306E000224FF0A0
:10C42000004302E06FF0010253101AEB06004CEBE0
:10C43000085110EB0A0041EB0B01BDE8F04D00F094
:10C4400031B930B5041E71F1000404DB4FF0004433
:10C45000404264EB0101141E73F1000405DB1C462D
:10C460004FF00043524263EB0403801A994101D319
:10C47000012030BD002030BD30B5041E71F1000434
:10C4800004DB4FF00044404264EB0101141E73F1E1
:10C49000000405DB1C464FF00043524263EB0403EB
:10C4A000101A8B4101D2012030BD002030BD30B5C3
:10C4B000041E71F1000404DB4FF00044404264EBC1
:10C4C0000101141E73F1000405DB1C464FF000430C
:10C4D000524263EB0403101A8B4101D3012030BD9B
:10C4E000002030BD30B5041E71F1000404DB4FF0B4
:10C4F0000044404264EB0101141E73F1000405DBAB
:10C500001C464FF00043524263EB040342404B4051
:10C510001A4301D0002030BD012030BD30B40446A4
:10C5200096230800214604D0B62330BC002200F038
:10C530008BB820460021F8E770B5C1F30A5201F02C
:10C5400000450024C1F3130140F2FF3341F4801190
:10C550009A4201DA002070BD40F233439A42A2F2BF
:10C56000334203DC524200F044F800E090402C4398
:10C57000F1D0404270BD00F0004230F000400AD0DF
:10C58000C10D01F56071C0F3160042EA0151C20805
:10C5900040071143704700200146704701F00043F7
:10C5A00030B421F0004150EA010206D00A0DA2F594
:10C5B0006072C1F31301002A02DC30BC0020704716
:10C5C000440F44EAC104C100E01830BC00EBC25083
:10C5D00000F031B8202A04DB203A00FA02F10020F2
:10C5E00070479140C2F1200320FA03F319439040B1
:10C5F0007047202A04DB203A21FA02F0002170471C
:10C6000021FA02F3D040C2F12002914008431946BA
:10C610007047202A06DBCB17203A41FA02F043EAA2
:10C62000E07306E041FA02F3D040C2F120029140EB
:10C630000843194670470029A8BF7047401C4900AD
:10C6400008BF20F00100704710B4B0FA80FC00FA77
:10C650000CF050EA010404BF10BC704749B1CCF1A2
:10C66000200421FA04F411FA0CF118BF012121432E
:10C670000843A3EB0C01CB1D4FEA00614FEA1020E9
:10C6800042BF002010BC704700EBC350104400298B
:10C69000A4BF10BC7047401C490008BF20F0010037
:10C6A00010BC704710B5141E73F1000408DA401C6A
:10C6B00041F1000192185B411A4301D120F00100C1
:10C6C00010BD2DE9F04D92469B4611B1B1FA81F2B1
:10C6D00002E0B0FA80F220329046FFF77BFF04467A
:10C6E0000F4640EA0A0041EA0B0153465A46084306
:10C6F00013D0114653EA010019D0C8F14002504648
:10C70000FFF777FF05460E46504659464246FFF76B
:10C7100061FF084305D0012004E020463946BDE80A
:10C72000F08D0020054346EAE0762C4337430A9813
:10C730006305E40AA0EB08000022FD0A44EA47541E
:10C740000A3002D500200146E9E7010510196941C8
:10C75000DDE9084500196941BDE8F04DA2E72DE982
:10C76000F04D00231A461B1A8A4103DB00200146C4
:10C77000BDE8F08DC1F30A52C1F3130141F48015F5
:10C780004FF0000BD10702D100186D41521E002757
:10C79000044640F2FF11384601EB620A3E468046ED
:10C7A000024600204FF48011FFF723FFC2197141A8
:10C7B000BB1846EB0100B4EB030C75EB000C04D383
:10C7C000E41A65EB000517460E46241908F101002E
:10C7D0006D4180463428E3DDF91946EB0600091B5C
:10C7E000A84103D24FF0FF32134601E00022134666
:10C7F0001BEB070046EB0A51BDE8F04DFFF752BFB7
:10C8000070B58C1810F8015B15F0070301D110F812
:10C81000013B2A1106D110F8012B03E010F8016B3F
:10C8200001F8016B5B1EF9D12B0705D40023521EC2
:10C830000DD401F8013BFAE710F8013BCB1A921C2A
:10C8400003E013F8015B01F8015B521EF9D5A14228
:10C85000D8D3002070BD80B55BF0E5FC5AF077F8C6
:10C86000002080BD70B5002208230024002B0FD4C7
:10C8700050F8235051F82360641942F10005A419BF
:10C8800040F8234045F10004013B04F00104EDE7CA
:10C89000BDE870405AF0EAB9F8B514460022082302
:10C8A0000025002B0FD450F8236051F82370AD19E8
:10C8B00042F10006ED1944F8235046F10005013B12
:10C8C00005F00105EDE720465AF0D0F90020A062FE
:10C8D000F8BD000010B51446FFF7DEFFA06A20B1D6
:10C8E0002046BDE8104000F00DB84149204619F03F
:10C8F00005F828B13E492046BDE8104002F002BDCF
:10C9000010BD00BFB0B58CB0044601AD384821461B
:10C910002A4602F08FFC2046294624225BF088FC40
:10C920000A990020C4E909100CB0B0BDF0B58BB075
:10C930000446806A00B32E4D2046294618F0C6FFF3
:10C9400080B308200021002200283AD455F8206046
:10C9500054F82030B718921941F100069A1AA3EB47
:10C96000070771EB060244F82070A0F101004FF0B8
:10C97000000238BF0122E7E71D4A002008210023FA
:10C9800000291ED454F8215052F821605B1940F15F
:10C9900000059B1944F8213045F10003013903F0EB
:10C9A0000103EDE76D46124821462A4602F042FC9B
:10C9B0002046294624225BF03BFC09990020C4E96B
:10C9C00009100020002109290BD054F821205FEA2A
:10C9D00050004FEA320044F8210002F0010001311A
:10C9E000F1E720460BB0BDE8F0405AF03FB900BF78
:10C9F000DC95061C10B554F091FB0B4C07A0A0472A
:10CA00000AA0A0470DA0A0470DA00EA140F25D1204
:10CA100052F07EFCBDE8104054F098BB5B452F44BB
:10CA200042475D2000000000F911061C437261734B
:10CA30006820747269676765726564000A000000A7
:10CA4000300000004442475F547269676765725F57
:10CA500049525148616E646C6572000080B554F0B3
:10CA60005DFB04487C3000F013FCBDE8804054F0CE
:10CA70006DBB00BF48684120B0B5436C144CA34265
:10CA80001CD18468134BB4F5804F18BF102C08D10B
:10CA90000C6804F160459D4238BF04F120640C60CD
:10CAA000846844F48040B0F5804F07D1106800F1ED
:10CAB00060449C4238BF00F120601060086800F1BB
:10CAC0007042920E022A9CBF00F1A0400860B0BDE7
:10CAD00000100050FF7F0C00FEB505461C460068A4
:10CAE0000127D5E9113606F01C0607FA06F65E6046
:10CAF0004460CDE9012102A901AA2846FFF7BCFF45
:10CB0000A96810290BD12868019981600299C16038
:10CB1000081948400021B1EB105F1AD113E02B68CF
:10CB2000029A9A600198D86071B1B1F5804F0AD12C
:10CB3000111951400022B2EB115F0AD102190549C7
:10CB40005040884205D8FEBD01194840B0F5801F0D
:10CB5000F9D3FEE7FFFF0F00F0B597B007AC01ADCA
:10CB600007AE0FC41D98314613ACADF818001C98E1
:10CB70002246059021980490209803901F980290D7
:10CB80001E980190284601F0FEFE284621462246C6
:10CB900002F01BFA0FAD05A8294601F0FBFF204665
:10CBA00029462A4601F0E4FE0BAF3046394602F032
:10CBB00047F928463946224601F012FFDDE92220D6
:10CBC0000021042903D0635C53540131F9E7211D8E
:10CBD00000220C2A04BF17B0F0BD8B5C83540132D5
:10CBE000F7E7B0B58EB002AC0FC4139900220AABC0
:10CBF000149CADF804101299009102A901310F2A7A
:10CC000003D09854885C0132F9E780F0060006AD45
:10CC10008DF837006846294601F0BCFF0AA928466E
:10CC2000224601F0DDFE0EB0B0BDF0B593B007AC0A
:10CC30000FC4199901ABDDE91E42ADF8181018991F
:10CC4000254605911D9904911C9903911B99029108
:10CC50001A9901910FA90E462DB113F8017B013DE0
:10CC600006F8017BF8E70D19002605AFA319052E7C
:10CC700098BF102B03D2BB5DAB550136F6E70024FD
:10CC80001D46102D08D20E5D4E551E1B0135013E6E
:10CC900018BF661C3446F4E707A900240BAD013128
:10CCA0000F2C03D02855085D0134F9E758400FA92F
:10CCB0008DF83B000BA801F093FE13B0F0BD70B5EA
:10CCC00098B008AC14AD0FC41E9808A92A4601AC50
:10CCD00007901D9806901C98059022980490219822
:10CCE0000390209802901F980190204601F04BFE7F
:10CCF000204629462A4602F068F9239C002005A90F
:10CD000010AA0023102B08D00D5CD554451C01330C
:10CD1000B5F10C0018BF2846F4E710AD14A8294659
:10CD20002A4601F025FE0CAE08A8314602F088F82C
:10CD300028463146224601F053FE18B070BD00006F
:10CD40002DE9F04FAFB00E4607464FF404700221B4
:10CD5000154619F0B1FF834628468421FFF79BF959
:10CD600058464FF40471FFF796F9384601F022FA5D
:10CD70000446304601F01EFA14B120B1ED4803E03C
:10CD800068B1384600E03046294600F0F1F8002549
:10CD9000584619F095FD28462FB0BDE8F08F304673
:10CDA000394606F12C0807F12C0451F053FD0028F8
:10CDB00000F0C1800BF184000BF12C0107F1580A3F
:10CDC000DA4B5A460D940BF1580906F158040C90B1
:10CDD00040468846514698470D98CDF834804246E3
:10CDE000DFF848832146C047304651464A46CDF8D1
:10CDF0001CA04646C047089421460C9C3846224653
:10CE0000C04748462146CA46A04651F023FD0028A7
:10CE100000F0A1800BF5F270C34E0D990BF59A74DA
:10CE20000BF1B0020BF1DC070A900BF5DC700B94F0
:10CE3000099203900BF5C67002900BF5B07001904B
:10CE40000BF58470049005F15800069005F12C0054
:10CE500005905846B047504641463A46B047DDE94E
:10CE60000701DFF8C8922246C84724A82C21CA46E9
:10CE7000FFF711F919A82C21FFF70DF90EA82C21A5
:10CE8000FFF709F9019E38463946B9463246D04780
:10CE90003946029F30463A46D0470998039C0146DE
:10CEA0002246D04730460A9E41463246D0470DF1D1
:10CEB000380830460221424602F0ADF8204624AC44
:10CEC0000B9956462246D047204619ACDFF858A2A7
:10CED00039462246D0472046049C41462246D04748
:10CEE000484621462A46B0470DF190082C21B1460C
:10CEF0004046FFF7D0F819AD2C212846FFF7CBF8B4
:10CF00000EAE2C213046FFF7C6F80A98214642465D
:10CF1000D047099841462A46C8470D9938463246B7
:10CF2000C847059A28463146D0470B99069A384695
:10CF3000C84701252CE74046214651F08BFC0028CC
:10CF40007FF41CAF306D01283FF634AFF06C002841
:10CF50007FF430AF12E70D99584651F07BFC002862
:10CF60007FF40CAF3846294600F026F80FE700BFE3
:10CF7000B0B505460C460846242229465BF058F910
:10CF8000D5E909012422C4E9090104F12C0005F1C5
:10CF90002C015BF04DF9D5E914012422C4E91401F8
:10CFA00004F1580005F158015BF042F9D5E91F0181
:10CFB000C4E91F01B0BD00002DE9F04FA7B00E4637
:10CFC00005464FF4F270022119F076FE0446286DF2
:10CFD000012801D8E86C18B1284601F0EBF820B11F
:10CFE00054483146FFF7C4FF97E004F1B00005F163
:10CFF000580805961CAE05F12C0B039004F1840033
:10D0000041463246029004F15800049004F12C008D
:10D0100001902846FFF75EFC0DF1440A424B28467A
:10D020004146524698470DF11809404F3046514647
:10D030004A46B8473E463E4F484603212246B84737
:10D040004146DDF804805846B9464246B0471CAF19
:10D05000584641463A46B0472846049D39462A4636
:10D06000B0470DF1700A204621465246B04711AF35
:10D07000284608213A46C8475046DDF808A02A4B02
:10D080003946524698471CAD5046414637462A46D7
:10D09000B047059A28460221C84704F1DC055846E6
:10D0A00059462A46B04740464146C346DDF80C8003
:10D0B0004246B04704F58476284641463246B84792
:10D0C000B94604F59A751A4F304608212A46B847E2
:10D0D00004F5B076049804213246B84704F5C677C3
:10D0E0005146DFF844A030463A46D04704F5DC7696
:10D0F000204639463246C847059F3046294607F143
:10D100002C02D0471CAD404659462A46C847084B1A
:10D1100007F15802284608219847204619F0D0FB0D
:10D12000002027B0BDE8F08F79F2001C4DF0001C04
:10D1300017F0001C8098061CF0B58BB0184F054600
:10D1400014460E46F87DFF2809D005F02FF9F97D29
:10D150001022C90002FA01F1084305F035F905F182
:10D160005800694603F0F6FCF87DFF2809D005F069
:10D170001DF9F97D1022C90002FA01F1884305F07A
:10D1800023F96F4628463246394601F05FFF05F124
:10D190002C003946224601F059FF0BB0F0BD00BF0C
:10D1A000A04341207047B0B590F8291002291CD146
:10D1B0000168C26BD0E911340D6825F00E050D60D1
:10D1C0000D6825F001050D6004F01C014FF001040D
:10D1D00004FA01F159604FF0000180F8281080F83E
:10D1E00029402AB19047002102E004210164012175
:10D1F0000846B0BD68B1B0B50268116821F0010100
:10D2000011609649114401F180538C2B03D8944B43
:10D2100006E0012139E08D290CD2914901F18053BA
:10D22000A2F1080114244364C9B2B1FBF4F18C00EB
:10D23000846401E0D0E9113400210125102C116033
:10D2400004F01C0205FA02F24FF018055A604FF084
:10D25000380205EA440538BF02EA44054FF03F02B0
:10D260004FF0AC0402FA05F238BFA8241D5925EA94
:10D2700002021A51016480F82810C0E90C11C0E9BB
:10D280000E1180F82910BDE8B0400846704700BF75
:10D29000F0B5D0E9111302680C68156803F01C039F
:10D2A0006E070ED504269E4016EA040709D01368BF
:10D2B0009B0603D4136823F0040313604E60416B94
:10D2C0002BE0AE0714D502269E4016EA04070FD0C5
:10D2D00013689B0606D4136823F00A031360012227
:10D2E00080F82920002280F828204E60016B14E08D
:10D2F0002D0716D508259D402C4012D0146824F027
:10D300000E041460012202FA03F34B600021026450
:10D3100080F8281080F82920816B11B1BDE8F04019
:10D320000847F0BD2DE9F04F68B1816821B110299F
:10D3300018BFB1F5804F05D1C2686FF040031A42A3
:10D3400005D0FEE7FEE701210846BDE8F08F03693E
:10D350006FF08004234200D0FEE745692DB1B5F59A
:10D36000807F18BFB5F5007F0DD186692EB1B6F567
:10D37000806F18BFB6F5006F06D1C7696FF0200443
:10D38000274202D0FEE7FEE7FEE7D0F820904FEA02
:10D390003934042C05D2D0F804C0BCF1400F01D3BD
:10D3A000FEE7FEE7D0F800E02C4C0EEB04082C4C16
:10D3B00008F1805BA246BBF18D0F05D3B8F18C0F4D
:10D3C0000CD854460AF1805AAEF108045FFA84F88A
:10D3D0001424B8FBF4F4A400C0E911A402240A4305
:10D3E000B1F5804F80F8294042EA0302446A42EADC
:10D3F000050242EA0602CEF8104042EA070247F66A
:10D40000F074DEF8008042EA090228EA040442EAE5
:10D410000402CEF8002019D0816CC1F38202032AE5
:10D4200003D8D100426CA83205E08908182202EA2C
:10D43000C101426CAC323F2314688B400CFA01F1FD
:10D4400024EA0303136013681943116000210122C9
:10D45000016480F8281080F8292075E7F8EFFFAF05
:10D46000001000402DE9F843044690F829000228F6
:10D470002DD12068006880062ED40420002988461B
:10D48000164608BF0220A16C01F01C0100FA01F54C
:10D490005AF0D3FE8146771C616C0868284221D17E
:10D4A0000868A26C02F01C02D040000725D4002FAF
:10D4B000F2D05AF0C2FE1EB1A0EB0900B042EBD987
:10D4C00020202064002084F8280001201DE0002096
:10D4D00084F82800042001E04FF4807020640120CB
:10D4E000BDE8F883A06CB8F1000F00F01C0010D06C
:10D4F000042202FA00F0486012E0012000FA02F271
:10D500004A600021206484F8281084F82900BDE8CE
:10D51000F883022202FA00F04860012084F8290012
:10D52000002084F82800BDE8F88370B50446581E32
:10D530004FF6FF75A84200D3FEE794F828000128B3
:10D540001CD0012084F8280094F82900012812D169
:10D550000220002584F8290025642068066826F04A
:10D56000010606602046FFF7B7FA2068016841F01F
:10D570000101016003E0002084F82800022528460C
:10D5800070BDB0B50446581E4FF6FF75A84200D3D3
:10D59000FEE794F8280001281DD0012084F8280017
:10D5A00094F82900012813D1022084F829000020D2
:10D5B00020642068056825F0010505602046FFF716
:10D5C0008BFA2068626B01683AB141F00E010AE003
:10D5D000002084F828000220B0BD21F00401016081
:10D5E000016841F00A010160016841F00101016038
:10D5F0000020B0BD18B500900C484FF47A73016854
:10D60000009A4A43B2FBF3F2009200224368446856
:10D61000A342FCD01A44A342A2EB040298BF0A44DE
:10D62000009B9A42234628BF18BDF0E714E000E0B3
:10D63000014951F82000704730B004500248016899
:10D6400001310160704700BFBC6941200020704774
:10D6500080B52DED028B10480068C00714D104205E
:10D66000FFF7E6FF98B100EE100A9FED0E1AB8EE34
:10D67000400A81EE008A00F0A0F900EE100AB8EE30
:10D68000400A28EE000A04E09FED040A01E09FED45
:10D69000040ABDEC028B80BD00A0045000000047CE
:10D6A00000901746001B374C70B5044600680026F2
:10D6B000056985604DB1E80704D0A26812B1F1B2E6
:10D6C0002046904701366D08F4E770BD5AF0BABDA8
:10D6D000B0F1FF3F10DD00F01F010122C0B202FADD
:10D6E00001F1064A42EAD00020F003000160BFF3D6
:10D6F0004F8FBFF36F8F7047FEE700BF80E100E000
:10D70000B0F1FF3F0CDD00F01F010122C0B202FAB0
:10D7100001F1044A42EAD00020F0030001607047A2
:10D72000FEE700BF00E100E0102A00D3FEE7102969
:10D7300000D3FEE770B5154B4FF0FF351B68C3F300
:10D7400002231C1F83F0070338BF0024032B28BFCC
:10D75000032305FA04F605FA03F3B2439943A14003
:10D760001143BDE8704002F02DB800BFC11E05296D
:10D770000AD206494FF6FF030A681A4060F30A22EC
:10D780000348104308607047FEE700BF0CED00E05F
:10D790000000FA050B480C490068884218BF704722
:10D7A0000048004701000E1C0649074A08689042DD
:10D7B0001CBF0020704701F1080049680022C90819
:10D7C00000F004B800744120484354502DE9F04360
:10D7D0002A4B002516464FF0010C4FF00008002A96
:10D7E000C3F880509E46164B18BF01269946A942A1
:10D7F0001BD00CFA05F707EA0204B4FA84F46409B2
:10D80000344210D150F835404B4648EA0708734679
:10D8100004EA09044EF8254000EBC504CEF88470F4
:10D820006468CEF888400135E1E70020002ACEF890
:10D830008400404608BF4246CEF88020BDE8F08311
:10D84000FCFF070070B5034600200C4C0DE0D4F837
:10D850008050C540ED070CD054F8205003EBC006B3
:10D8600043F8305001302D6875601F2898BF8842FA
:10D87000EDD3D4F88010116070BD00BF004000509F
:10D88000052884BF01207047082101FA00F01A49D9
:10D890000A6822EA00000860002070471648016804
:10D8A00021F0010101600020704700BF0246012005
:10D8B000052A98BF042900D9704710B50820CA4B23
:10D8C0007024904002EB4202D860944004329140B0
:10D8D0001A682140A24311431960596808435860EF
:10D8E0000020BDE8104070470348016841F0010185
:10D8F00001600020704700BF04A004500B4848227C
:10D90000016862F317410A4A0160416821F0007121
:10D910004160416841F0F0414160816862F3170164
:10D920008160016921F470710161704720A0045089
:10D93000030A0A0010B5027D012303FA02F291B135
:10D94000D0E900134C68144342EA024244F48034A4
:10D950004C608C6822438A60C17C827D42EA01412E
:10D960001960022107E042EA02410268936823EA53
:10D970000101916001210176002010BD017D006848
:10D98000012202FA01F1426811434160704710B56B
:10D9900018B1017D082901D3FEE7FEE70268D0E94E
:10D9A000023402EB011101224B61027601F11002F7
:10D9B000426000208C6110BD7047C8207047000095
:10D9C00005480078704700BF18B10349087000206F
:10D9D00070474FF0FF307047EA4041206FF0010080
:10D9E00070470320FFF724BE2DE9F04F87B07E4833
:10D9F0000068C00705D17D4FB87828B16FF00206E6
:10DA0000EEE04FF0FF36EBE00120CDE9051278495A
:10DA1000B870EFF3108280F310880B6843F00403B2
:10DA20000B60387082F310880A68002A03D40A68F1
:10DA3000B2F1FF3FFBDC6F490A6860F301020A6044
:10DA40004868C0F30239C0F3022100F03F000390A0
:10DA5000B9F1070F049106D04FF0FF304FF0FF31BE
:10DA600007225AF0F4FB4FF00008634E4FF6FF7A9E
:10DA700041F2883B00250024B8F10A0F36D0306807
:10DA800020F48030306030683060306820EA0A006E
:10DA90003060306840F0C8003060306840F40030DA
:10DAA000306001205AF0D8FB7068B0F1FF3FFBDC1A
:10DAB000706820F00044F86850B10420FFF7B8FD0A
:10DAC000051B38BF251A5D4502D308F10108D3E7CD
:10DAD0004A4821462A46FFF765FBB8F10A0F0AD0EB
:10DAE0000320214600F096F901250CE04348214629
:10DAF0002A46FFF757FB7878002501307870C0B2CE
:10DB0000042808BFFD60B9F1070F04D0DDE9030167
:10DB10004A465AF09CFB002038706DB10120C821A4
:10DB2000FA22C823009036A0FFF73CFB059838B1D5
:10DB300000200226F86005E0B8706FF001064FE0A3
:10DB4000F868002606990025224688423CBF01302D
:10DB5000F86002284FF0000028D3786904D12044EF
:10DB600001304208012021E0211A05D9FB2924BFF8
:10DB70003969B1EB00010FD8011B06D9C92904D3BB
:10DB80003969411A88BFC82908D8C0EBC0002044B1
:10DB90000430C208022009E0FA29EDD900EB400068
:10DBA0000D2104FB010008300209032000903B69AD
:10DBB0001E4821467A61FFF7F5FA796904203C6135
:10DBC00000F028F90320FFF733FD04460420FFF797
:10DBD0002FFDFB68024616A02146FFF7E3FABD7051
:10DBE000304607B0BDE8F08F00A00450A8424120A5
:10DBF0000C000450100000501401095023CF061CE3
:10DC00004C50206379636C65732025642C20746804
:10DC100064302025642C20746864312025642C2015
:10DC20007363616C6520256400000000DFCE061C74
:10DC30004C504379636C65733A2025642C206176DF
:10DC4000653D25642C20636F756E743D25642074DA
:10DC50006D703D25640D0A002DE9FC4705464948D5
:10DC60000068C0071CBF4FF0FF30BDE8FC870020F4
:10DC70000C465AF0F6FA01281CBF6FF00100BDE80F
:10DC8000FC8741480068C00644BF6FF00300BDE850
:10DC9000FC87DFF8F8A09AF8020018B16FF00200D4
:10DCA000BDE8FC8701208AF8020039480068C0F30B
:10DCB0000236C0F3022800F03F09072E06D04FF0CD
:10DCC000FF304FF0FF3107225AF0C1FA314F4FF6C3
:10DCD000FF71386820F48030386038683860386800
:10DCE00088433860386828433860386840F400302A
:10DCF000386001205AF0B0FA7868B0F1FF3FFBDCE1
:10DD00007868072E20F0004504D048464146324648
:10DD10005AF09DFADAF808302A4603B3DAF804001C
:10DD2000191AFB2904D3834288BFB5EB00010AD836
:10DD3000411B04D9C92928BFB0EB030106D8C0EBA9
:10DD40000010284409E0FA2902D8F1E7C829F6D9D9
:10DD500000EB40000D2105FB010008300209501BBB
:10DD60002946CAF8042000900BA0FFF71BFADAF846
:10DD70000400CAF80850206000208AF80200BDE8BC
:10DD8000FC8700BF00A004503C000450A842412082
:10DD900014000050140109504C504379636C6573B2
:10DDA000206375723D2564202C20617665202564F2
:10DDB0002C206375725F6261636B75703D25642012
:10DDC00064656C74612025640A0000006FF0040132
:10DDD000084200D0FEE70D4904280A6822F0040337
:10DDE00008BF42F004030B60704700BF411E0020D3
:10DDF000B0EB116F1CBF01207047044AE023516053
:10DE000003490B70072190601160704710E000E03B
:10DE100023ED00E0014A42F82010704730B0045072
:10DE20007047000010B501680446086820F490703F
:10DE30000860886820F0010088608868400605D482
:10DE400000200F22A4F85A000A6217E0886820F028
:10DE500040008860E06E40B10D49C163FFF7A3F94F
:10DE600098B1E06EC16B88470FE000200F22A4F844
:10DE70005A000A628A6942F008028A6160652020BD
:10DE800084F872002046FFF7CBFF002010BD00BFD2
:10DE9000A5F5001C7047000010B504460068016835
:10DEA00021F0C0010160816809060ED5816821F06A
:10DEB00080018160A06E40B10A49C163FFF773F928
:10DEC00068B1A06EC16B884709E00020A4F8520039
:10DED0006066202084F871002046FFF7DBFF0020F9
:10DEE00010BD00BFF3F5001C2DE9F0410546682088
:10DEF000002B1646B3FA83F288461F464FF0800186
:10DF000008BF6C202C585209002013035201C4E9A9
:10DF10000270C4E9041004F118010DC12046FFF796
:10DF200069F900B1FEE72046FFF7FCF900B1FEE712
:10DF3000B2B2284641461FB100F0F0F820B1FEE72A
:10DF400000F076F800B1FEE70020BDE8F0810000A7
:10DF500000B17047024803A140F2F62251F0D8B94F
:10DF60005DD7061C48414C5F554152545F45727263
:10DF70006F7243616C6C6261636B000000284FD06C
:10DF8000B0B5044690F8710028B9002084F87000FC
:10DF9000204600F04BF8242084F8710020680168C6
:10DFA00021F001010160204601F03CFB606A10B1E4
:10DFB000204601F02DFAD4E900011A4D426822F4FE
:10DFC0009042A9424260826822F02A02826002687E
:10DFD00042F001020260026822F4804388BF42F4EA
:10DFE00080434FF00602036088BF0222C36AA94241
:10DFF00023F00D0342EA0302C2620B4A84BF4DF6CE
:10E000000002C0F2B852B2FBF1F1C1600020202141
:10E01000606784F8711084F8700084F87210B0BDE5
:10E0200001207047C0C62D00006CDC027047000064
:10E03000F8B5054690F87200202807D113460A4625
:10E0400031B12BB195F87000012803D1022429E0E9
:10E05000012427E000240120144EDFF830C1124FC4
:10E060006C6785F870002220A5F858306A6585F83D
:10E0700072002968E86E00F1300E24318EE8C0107D
:10E08000C463FFF77EFA2868016841F4807101607B
:10E09000816841F00101816085F87040816841F03C
:10E0A000400181602046F8BD9FF5001C6BF5001C07
:10E0B000AFF3008070B5044628B9104810A14FF4A2
:10E0C000EB7251F025F95AF0D1F8E16FD4F86821DC
:10E0D000D4F8C8504968C2F38F22561AC4F8C860F1
:10E0E0005AF0C9F8711B08BF70BD090204F59070A1
:10E0F0000331BDE8704052F01DBC00BF5DD7061C67
:10E1000048414C5F554152545F527848616C6643B8
:10E11000706C7443616C6C6261636B00F8B50546AA
:10E1200090F87100202806D139B113462AB195F82C
:10E130007000012803D1022425E0012423E00024FB
:10E14000A5F852300120134EDFF840C0104F6C6725
:10E1500085F87000A5F85030E964A86E2A6800F1CF
:10E16000300E28328EE8C0102126C46385F8716015
:10E17000FFF707FA28684021016285F8704081683E
:10E1800041F0800181602046F8BD00BF15F5001CFC
:10E19000EDF5001CC5F5001C7047704780B552F0C6
:10E1A000BDFF0348FFF780FABDE8804052F0CEBFC4
:10E1B00078414120B0B50C4D0446294650F04AFB49
:10E1C00030B904F12C0005F12C0150F043FB08B1EB
:10E1D0000020B0BD04F1580005F1580150F03AFBA1
:10E1E000B0FA80F04009B0BD8098061C2DE9F04FD0
:10E1F000BFB033AC0FC4DDE94868102E0BD233AD8D
:10E20000284600F056FE0020102810D0295C08F89F
:10E2100000100130F8E7002033A9102804BF3FB0F8
:10E22000BDE8F08F0A5C08F800200130F5E7DFF860
:10E230002807711E37AB229100EB01100021102935
:10E2400003D0425C5A540131F9E79DF8EB009DF888
:10E25000EA509DF8E9309DF8E5209DF8E3C09DF86F
:10E26000E0409DF8DCE09DF8DD109DF8DEB09DF803
:10E27000DFA04FF0FF3732909DF8E80028909DF81E
:10E28000E7002F909DF8E60027909DF8E4002E907F
:10E290009DF8E20026909DF8E100309031914FFA10
:10E2A0008EF1B1F1FF3F68DD1846329B6E00D9B2A6
:10E2B0005B0046EAD11146002D91E9B2650046EABD
:10E2C000D1112C91C1B22898460046EAD1112B9168
:10E2D000C1B22F98460046EAD1112A91C1B22798BF
:10E2E000460046EAD11156002991C1B246EAD11042
:10E2F000D1B225902E98460046EAD1112491C1B2A0
:10E3000038464FEA4C0747EAD11123915FFA8CF166
:10E31000269A570047EAD116D1B2309A570047EAF9
:10E32000D119D1B22246074645EAD114D0B24FEAFC
:10E330004A0152465D46013F41EAD01AD0B2319AB5
:10E340004FEA4B01329341EAD01BE8B22BAD5100AA
:10E3500041EAD011D0B2C00940EA4E0E29CD289032
:10E360002A982F9029982790DDE924022E90DDF835
:10E370008CC02696CDE9309191E732982B952A935F
:10E3800029468DF8EA5055468DF8E930A1468DF8BA
:10E39000E0408DF8DCE08DF8E5208DF8E3C05946CB
:10E3A000289E279BDDF898A0AB468DF8DF508DF8AE
:10E3B000EB002F980C468DF8DE108DF8E8608DF894
:10E3C000E6308DF8E2A08DF8E7002E988DF8E40095
:10E3D0003098CDF8A4E031992F9D8DF8E1008DF8AB
:10E3E000DD1000212D9180212C91DDF8B8E02B98D3
:10E3F000002F00F0E78028972D992C9F2B9018F87C
:10E4000001100F4267D02F95CDF8B8E098F80010B2
:10E4100010461A46334698F8016098F803E098F8D9
:10E420000250299F794088F80010319971401E46AA
:10E43000134602468EEA0B00DDF8B8E088F80300C8
:10E4400098F8040088F8011085EA04012F9D88F8E7
:10E450000210309980EA090088F8040098F8050055
:10E4600048402A9988F8050098F8060080EA0A00D2
:10E4700088F8060098F8070080EA0C0088F8070082
:10E4800098F8080080EA0E0088F8080098F809005B
:10E49000504088F8090098F80A00584088F80A00A7
:10E4A00098F80B00684088F80B0098F80C00704052
:10E4B00088F80C0098F80D0048402B9988F80D005A
:10E4C00098F80E004840329988F80E0098F80F002E
:10E4D000484088F80F002C992D9801294FEA5101E6
:10E4E00008BF01302D9008BF80212C91E0B2319FF0
:10E4F000F90141EA5000E1012F905FFA8BF041EA07
:10E5000050004FEACB112E905FFA89F041EA50009B
:10E510004FEAC9112790309CE0B241EA50095FFAF6
:10E520008AF0E10141EA50004FEACA1130905FFAE7
:10E530008CF041EA500A5FFA8EF04FEACC1141EAC2
:10E5400050004FEACE112690D0B2D20141EA500ECF
:10E55000D8B22A9CDB012B9942EA500CEAB2ED01B9
:10E56000304643EA5203F2B24FEAC41B45EA520670
:10E57000E2B2329CC501384645EA5205CAB2C90129
:10E58000E7B24BEA520241EA57013291C1B2299CEB
:10E59000490841EAC410E1B231904808289F299007
:10E5A0002A9510461D4663467246D446DDF898E02B
:10E5B000DDF8C0A0CDF8C090DDF89C90DDE92EB468
:10E5C000013715E7E548229AE5A13BAB002537AFB7
:10E5D00000EB0210895C0022102D08D018F80560AD
:10E5E00008F805207E55465D5E550135F4E7481C68
:10E5F0009DF8EB109DF8E6B09DF8EF709DF8F39054
:10E600009DF8F4A09DF8F5E09DF8F6C09DF8F76040
:10E610009DF8F8509DF8F9309DF8FA2031919DF859
:10E62000EA1024919DF8E9101D919DF8E8102391BE
:10E630009DF8E71022919DF8E51030919DF8E410C7
:10E640002F919DF8E3102E919DF8E2102D919DF8E9
:10E65000E1102C919DF8E0102B919DF8DC10289191
:10E660009DF8DD1026919DF8DE102A919DF8DF10AF
:10E6700029919DF8EC1027919DF8ED1021919DF8BE
:10E68000EE1025919DF8F01020919DF8F1101F914A
:10E690009DF8F2101E919DF8FB103291002800F0B9
:10E6A000558116A9013881E86850CDF86CA0CDE9F4
:10E6B00014721C905B46DDE922653298DDF8A0E01B
:10E6C000DDF898C0249F1D9CC0075BD098F800001F
:10E6D00098F8011098F8022098F803A080EA0E003C
:10E6E00088F8000081EA0C002B9988F801002A982C
:10E6F000504088F80200299880EA0A0088F8030050
:10E7000098F8040048402C9988F8040098F805000F
:10E7100048402D9988F8050098F8060048402E9941
:10E7200088F8060098F8070048402F9988F80700F5
:10E7300098F808004840309988F8080098F80900CF
:10E740004840319988F8090098F80A00584088F83C
:10E750000A0098F80B00704088F80B0098F80C003D
:10E76000684088F80C0098F80D00604088F80D00AB
:10E7700098F80E00784088F80E0098F80F0048408E
:10E7800088F80F00DDF8C4B079005FFA8BF041EA39
:10E79000D01061001390F8B241EAD01069001290D5
:10E7A000E0B241EAD01071001190E8B241EAD01015
:10E7B00059001090F0B241EAD0100F90D8B2309AC0
:10E7C000510041EAD0100E90D0B22F9A510041EA88
:10E7D000D0100D90D0B22E9A510041EAD0100C907A
:10E7E000D0B22D9A510041EAD0100B90D0B22C9AA1
:10E7F000510041EAD0100A90D0B22B9A510041EA60
:10E80000D0100990D0B2299A510041EAD010089056
:10E81000D0B22A9A510041EAD0104FEA4C01079039
:10E82000D0B241EAD0104FEA4E0106905FFA8CF068
:10E8300041EAD0102890219B2799D8B2400840EA9D
:10E84000C1100590259AD0B2400840EAC310049048
:10E85000DDF850C05FFA8CF0400840EAC210039027
:10E86000209AD0B2400840EACC1014901F9BD8B236
:10E87000400840EAC21002901E9AD0B2400840EA16
:10E88000C31001905FFA89F0400840EAC21000907E
:10E890001B9A1A9B169CD0B2400840EAC91AD8B2FB
:10E8A000DDF85490400840EAC21E199AD0B24008E0
:10E8B00040EAC31C189BD8B2400840EAC216179A17
:10E8C000D0B2400840EAC315E0B2400840EAC213A3
:10E8D0005FFA89F0400840EAC412329C58465FFA59
:10E8E00084FB04464FEA5B07640047EAC910CFB2D5
:10E8F00032907808319427901398249012981D90A4
:10E900001198239010982290DDE90E0B30900D980D
:10E910002F900C982E900B982D900A982C90099877
:10E920002B900898299007982A9006982690059889
:10E930002190049825901498039F209002981F908E
:10E9400001981E90DDF800901C98A7E640463FB065
:10E95000BDE8F04F00F0ADBA2191061C2192061CD3
:10E9600077706860584D473F312A231C150E070009
:10E97000B0B50023102B08BFB0BDC45CCD5C2C44E7
:10E98000D4540133F6E7F0B589B0144600228DF86F
:10E990000220102A03D0835CA3540132F9E70DF161
:10E9A00013050846294600F0D9F908270DF102069B
:10E9B00037B120462946324600F050F8013FF7E7CC
:10E9C0000DF103050DF113000DF10202294600F0CF
:10E9D000FFF920462946224600F002FB09B0F0BDAF
:10E9E0002DE9F0418EB0144600220DF116038DF88A
:10E9F0000520102A05D0855CA554855C9D54013204
:10EA0000F7E70DF127050846294600F0A7F900268B
:10EA10000DF116080DF10507022E02D0082E05D1C2
:10EA20000BE020464146224600F0DAFA204629460D
:10EA30003A4600F013F80136EEE70DF106050DF148
:10EA400027000DF10502294600F0C2F920462946AB
:10EA5000224600F0C5FA0EB0BDE8F0812DE9F0477E
:10EA600088B0EA460446894608469046514600F07A
:10EA7000AFF920465146224600F0B2FAEF49394A32
:10EA800000200F280ED8235CCB5C235423180430BD
:10EA90005E78DD789F78965D4D5D5E70D65DDD7049
:10EAA0009E70EEE748465146424600F091F900203C
:10EAB000102818D2215C1AF800200AEB000677789B
:10EAC000B578F67811442154211804304A788B78AF
:10EAD00091F803C07A404A7085EA03028A7006EB17
:10EAE0000C02CA70E4E74FF0000C1AA104AABCF1B2
:10EAF000030F1ED000230F2B09D8E618E55C7778AA
:10EB000007EB4500E054781902337070F3E70023F7
:10EB1000102B03D0E05CD0540133F9E70023102B15
:10EB200004D0C85C105CE0540133F8E70CF1010C30
:10EB3000DDE700200F2884BF08B0BDE8F087221869
:10EB4000215C537803EB4105194451702554023080
:10EB5000F0E700BF080B0C0F020106050A090E0DB5
:10EB6000000704032193061C43F206310840401AB3
:10EB700018BF0120704700B952B900EA01024CF6F3
:10EB8000F843084343F20E311A40084040EA0201BC
:10EB90000846704710B500220023102B08BF10BD97
:10EBA000845CCC54541C0133A21F18BF2246F4E7E6
:10EBB00020F07F0110200AB2002A03D410B10138DE
:10EBC0004900F8E7C0B27047C1F3C20201F0070183
:10EBD000805CC84000F00100704700002DE9F04162
:10EBE000DFF87C80064614460D460027D8F8400022
:10EBF00010B1FDF767FA00E000202070B781B76020
:10EC0000776037600E2F0CD0E819F72809D82178E3
:10EC1000884206D2D8F840002844C05DF05501373C
:10EC2000F0E7BDE8F08100BF0A4890F85000704757
:10EC300008491022403159F0FBBA00BF05491022A3
:10EC4000203159F0F5BA00BF02491022303159F095
:10EC5000EFBA00BF245541200148807F704700BFB4
:10EC6000285741202DE9F8431D460C9B032B84BFF8
:10EC70000020BDE8F88314460246DDE90A60DDE9BC
:10EC80000889DFE803F0020A122B0978B9B30229D8
:10EC900037D001293BD012203CE0318832B9062917
:10ECA0003CBF1E20BDE8F88300E0318821F001015F
:10ECB000318020F02DFA284940F2712248433188F2
:10ECC0005143B0FBF1F0206000202860C8F800102C
:10ECD0004FF0FF31C9F80010BDE8F883087801282B
:10ECE0001CBF2020BDE8F88330880021023030802E
:10ECF00080B2C82888BF01214801BDE8F883C82038
:10ED000006E020F005FA21684A1C022A15D22820C4
:10ED100030800020D8F800104A1CEED040F271225A
:10ED2000B1FBF2F1328821F001019142E5D20529CF
:10ED300098BF06213180BDE8F88340F2712251432B
:10ED4000054A5043B0FBF1F04FF6FE71084006282B
:10ED500098BF0620DCE700BF40420F0010B500223C
:10ED60000023102A05D0845C8C54845C01326340FB
:10ED7000F7E70B7410BD1CB5ADF80410009000202F
:10ED80006946062808BF1CBD0B5C14181354A371F8
:10ED90000130F6E7B0B504460025102D08BFB0BD20
:10EDA000FDF760F960550135F7E700F01E0100F44A
:10EDB000706200F47040063918BF0121B2F5407F3F
:10EDC00018BF0321B0F5405F18BF05210846704702
:10EDD000F0B585B0144605460A4600212078102972
:10EDE00007D0102888BF00202B5C0130535401311C
:10EDF000F5E7207890B100EB0010104B002101AE38
:10EE00001230102906D04718FFB2DF5DDF5D77545E
:10EE10000131F6E701A91046FFF7AAFD00201128ED
:10EE200006D0295CCA0042EA511129540130F6E7A4
:10EE300020780130207005B0F0BD00BF2190061C85
:10EE40000278173A0A70427882F0E5024A708278B6
:10EE5000213A8A70C27882F0C102CA7002794D3AB2
:10EE60000A71427982F0A7024A7182796B3A8A71FB
:10EE7000C27982F08302CA71027A82F0E9020A72D0
:10EE8000427A1B3A4A72827A82F0DF028A72C27A2E
:10EE90003F3ACA72027B82F0B3020A73427B593A4C
:10EEA0004A73827B82F095028A73C07B7D38C87377
:10EEB000704784B000226946102A03D0835C8B54CB
:10EEC0000132F9E70F22531C04BF04B070478B5C7A
:10EED000013A00F8013BF6E70288052922F0E10338
:10EEE000038006D003290BD14FF440714FF21E036B
:10EEF00003E04FF4405140F61E731A401143018065
:10EF00007047F0B501F002050124860752B284EA89
:10EF100055044FEA440448BF022411F0040104F1EF
:10EF2000040608BF3446470748BF3446002D04F5A1
:10EF3000807608BF3446C70548BF3446002A58BF0C
:10EF40003446002944F4007608BF3446870548BF9C
:10EF50003446002A58BF344613F0010344F480526B
:10EF600008BF1446002D08BF1446C50448BF144608
:10EF7000002B44F4005208BF1446002908BF144671
:10EF8000800448BF1446A0B2F0BD10B500F01802CE
:10EF90004405134661F38A2358BF13461A460405F5
:10EFA00061F3CB2258BF1A464B08144663F38E34E4
:10EFB000430458BF14468907214648BF41F4004125
:10EFC000000458BF214688B210BDB0B50023102BF5
:10EFD00008BFB0BDC45CCD5C6C40D4540133F6E7CF
:10EFE000F0B500230F2B88BFF0BDC45CCD5CCE18FC
:10EFF0006C40D454C418657877783D44D7180433EE
:10F000007D7094F802C0B5786544BD70E478F578F9
:10F010006C40FC70E6E770B51446054608200022F7
:10F02000002809D455F820300026E3FB012644F8D7
:10F03000202001383246F3E7204657F017FEA86A31
:10F04000A0622046BDE8704058F092BC2DE9F04F18
:10F050009FB00DF12C0A89468346502190465046B8
:10F06000FDF719F809F120000AF144010822B2F174
:10F07000FF3F13DD5BF822300024002714F1080560
:10F0800009D451F8245050F82460E6FB635741F846
:10F090002450013CF2E70439013AE8E70022122A41
:10F0A00004D05AF8220008B90132F8E7D9F828004C
:10F0B000DBF82810C2F1120300261D930C1A18BFAA
:10F0C00001241E945AF82610701C082E02D800291C
:10F0D0000646F7D0082B0A9415D8471E0A2A15D1E0
:10F0E000204C0AF128020023082B0CD004EB8306E5
:10F0F00052F823500133B66AAE42F5D003D305E08F
:10F100005AF8201001300029FAD0471E6E460AEB4B
:10F1100087012422304659F08BF8304657F0A6FD7F
:10F1200007F10904371D304658F022FC112C0CD889
:10F1300030463946202259F0A3F85AF824000890A6
:10F14000304657F093FD0134EDE7694640462422EE
:10F1500059F06EF8DDE90901C8E909011FB0BDE801
:10F16000F08F00BFB8E3061C03480068400058BF9A
:10F1700000F0CABAFDF73EBC14F0005010B51348B9
:10F18000046851F0CBFFA00704D51148FEF7F6FB49
:10F1900001F086FC600705D50D481C30FEF7EEFB3C
:10F1A00001F07EFCE00605D509483830FEF7E6FBA5
:10F1B00001F0AAFCA00605D505485430FEF7DEFB99
:10F1C00001F0A2FCBDE8104051F0C0BF00B00150FA
:10F1D000F846412000F00F01000900EB800001EB30
:10F1E0004000C0B2704701460A22092898BF092191
:10F1F000B1FBF2F202EB8203A1EB4303591A08447C
:10F2000040EA0210C0B27047B0B504460068C16859
:10F2100041F48061C16059F010F805462068C0686B
:10F22000800505D459F009F8401BB0F57A7FF5D96F
:10F230000020B0BDF0B59446002308240025002C22
:10F2400014D451F8247050F824607A19B21A4CF88A
:10F2500024207A19A4F1010443F10005B21A73EBDA
:10F2600005024FF0000538BF0125E8E76046BDE81C
:10F27000F04057F0FBBC000070B506460D46886AAA
:10F280001446B16A41B170B12846314616F036FBDA
:10F2900078B12846314616E070B1304629462246FC
:10F2A000FDF7FAFA12E0304629462246FDF7F4FA55
:10F2B0001FE03046294619E03046294616F01EFB6D
:10F2C00090B1304629462246FFF7B4FF00200C4992
:10F2D000A062204616F012FB28B109492046BDE87D
:10F2E000704000F00FB870BD284631462246FFF747
:10F2F000A1FF0120A0622046BDE87040FDF702BBDF
:10F30000DC95061CF0B5002208230024002B15D440
:10F3100051F8236050F823503719A41942F1000620
:10F320002C1BA5EB070772EB060440F82370A3F132
:10F3300001034FF0000438BF0124E7E7BDE8F040C7
:10F3400057F094BC70B58CB004460D46886AA16A2B
:10F35000B1B1B0B12846214616F0D0FAE8B101AEFD
:10F36000284621463246FFF765FF204631462422D3
:10F3700058F05EFF00200A996162A0620CB070BD77
:10F3800030B1204629460CB0BDE87040FDF76ABA9E
:10F390002046294616F0B2FA30B1204629460CB074
:10F3A000BDE87040FFF7AEBF01AE284621463246A9
:10F3B000FFF740FF20463146242258F039FF012054
:10F3C000D9E7000070B551F0A9FE104D2868FEF78E
:10F3D00035F956F095FA6E6A0446FEF739F9651C60
:10F3E00031460122284658F050FFA04209D0064677
:10F3F00056F08EFAAE4204D056F08AFAA01C58F0AD
:10F4000049FFBDE8704051F0A1BE00BF200004508C
:10F4100010B5416AB1F5807F00D3FEE7CA070BD073
:10F42000826A6FF400331A4200D0FEE703685C681A
:10F4300024F4003422435A608A070BD5C26A6FF461
:10F4400080331A4200D0FEE703685C6824F48034FD
:10F4500022435A604A070BD5026B6FF480231A428D
:10F4600000D0FEE703685C6824F4802422435A60DD
:10F470000A070BD5426B6FF400431A4200D0FEE737
:10F4800003685C6824F4004422435A60CA060BD522
:10F49000826B6FF480531A4200D0FEE703689C68C9
:10F4A00024F4805422439A608A060BD5C26B6FF411
:10F4B00000531A4200D0FEE703689C6824F400540D
:10F4C00022439A604A0607D4090622D5816C6FF45C
:10F4D0000022114217D0FEE7036C6FF48012134232
:10F4E00000D0FEE70268B3F5801F546824F480144E
:10F4F00044EA03045460E7D1436C546824F4C00424
:10F5000023435360E0E70068426822F4002211437D
:10F51000416010BD10B5C46A94F8710021280DD166
:10F5200020688168090609D50021A4F852100168F5
:10F5300021F0C0010160202084F8710094F872006D
:10F54000222809D120688068400605D50020A4F84B
:10F550005A00204600F056F8606F40F010006067D7
:10F560002046BDE81040FEF7F3BC0168C06A096898
:10F57000890612D40021A0F85A1001680A6822F402
:10F5800080720A608A6822F001028A608A6822F02A
:10F5900040028A60202180F87210FEF789BDC06A9F
:10F5A000FEF788BDC06A00210F22A0F85A1001683A
:10F5B0000A628A6942F008028A61202180F872108A
:10F5C000FEF72EBC0168C06A0968890648BFFEF7CD
:10F5D000E3BD0021A0F852100068816821F080018D
:10F5E0008160016841F0400101607047C06AFEF728
:10F5F000D4BDC06A0021A0F85210202180F87110FB
:10F60000FEF748BC01680A6822F490720A608A68B2
:10F6100022F001028A6000210166202180F8721028
:10F62000704700002DE9F04141682E4A914200D315
:10F63000FEE782684FEAF26104290AD2C1684FEA04
:10F640003133042B06D2036A6FF40064234202D0E4
:10F65000FEE7FEE7FEE704692CB1B4F5806F18BF42
:10F66000B4F5C06F13D145697DB125F00C0666B9BC
:10F6700086694FEA3627042F08D2D0F81CC06FF4F1
:10F6800080471CEA070F03D0FEE7FEE7FEE7FEE730
:10F69000D0F800802243144F2A43D8F800E042EA11
:10F6A0000C0207EA0E073A43C8F80020D8F80420F5
:10F6B00022F440521143C8F8041046EA0301D8F876
:10F6C000082022F430621143C8F808100021C0E974
:10F6D0001811D8F82C0020F0F000C8F82C000020F9
:10F6E000BDE8F08181969800F3B9FFE780B551F04D
:10F6F00015FD044800F5907058F082FBBDE880408D
:10F7000051F024BD4868412070B5184D287860BB81
:10F710000120174E28703068400026D458F082FD32
:10F72000012058F0BCFD30682C4640F0805030601D
:10F73000104844F80C0F204658F0B6FD012058F050
:10F740008BFD206834210024C16040692F2C08D82B
:10F7500010F0020005D0012058F07EFDE868013469
:10F76000F3E7706A40F00100706270BD50454120BF
:10F7700014F0005000B0005080B588B004AF0FC73F
:10F780000D980E9A694603900C9802900B98019080
:10F790000A98009004A8FFF718FC08B080BD00008C
:10F7A00000280CD400F01F010122400902FA01F1E7
:10F7B000034A42F82010BFF34F8FBFF36F8F70479B
:10F7C00080E100E010B500F00F03064C044AB0F1F0
:10F7D000FF3F2344C8BF83184801187010BD00BF05
:10F7E00000E400E014ED00E018B1C1B219B101204D
:10F7F0000EE00020704710F47F4102D0090A092072
:10F8000006E010F47F0107BF010E1920090C11203A
:10F81000014A515C08447047CC94061C0020704794
:10F8200080B5FF2806D0F22806D048B9084616F061
:10F830006FFE07E0002005E0084616F00BF901E036
:10F840004FF067F80249002818BF0146084680BDFE
:10F85000B097061C70B5044658F008FD04F1140674
:10F860000546304656F0DCFA304656F0ADF9208AAF
:10F8700020F002002082284658F0FDFC606C2146F2
:10F88000BDE8704000F070BD80B501F0A5FA40B150
:10F89000026932B1018C034803681046BDE880401C
:10F8A000184780BDC0404120F8B50D4604460A28DF
:10F8B00000D82DB91A4A20462946F12358F0F9FC00
:10F8C0000A2C1BD8174E06EB840005611648016808
:10F8D000204688470546301906EB850780F85450C6
:10F8E0000120A0403E4656F83C1F56F8382C40EA0E
:10F8F000020046F8380C19B100240FE003240DE093
:10F900000AA00021002457F040F8B86408482A46AD
:10F910002B46016807A057F041F830602046F8BD3B
:10F92000F1D2061C9C5441207C4041204B450000F4
:10F93000804041204B455F455654000010B50B28D0
:10F9400009D2012101FA00F458F090FC7B490A68C1
:10F95000A2430A6007E0664A002140F2231358F0F0
:10F96000A8FC58F083FCBDE8104058F084BC00BFF0
:10F970007248002101607047B0B504460B2806D3D9
:10F980005B4A204600214FF49A7358F092FC58F0DD
:10F990006DFC6A490D6858F06EFC002025FA04F1F0
:10F9A0000B2C38BF01F00100B0BD00BF63480068F8
:10F9B000704700BF80B561486021FCF76CFB80BDDB
:10F9C000F8B55E4F4A4C3D68F5B1B5FA85F080F068
:10F9D0001F060B2E06D330462946224640F2591305
:10F9E00058F067FC0620314604F02AFA07EB86003F
:10F9F000006908B18047E6E730462946224640F2D2
:10FA0000671358F056FCDEE7F8BD00BF2DE9F84F4C
:10FA1000DFF8289182461F48DFF8D4801C4C8346CB
:10FA2000D9F80060256816EA0A0608BFBDE8F88F15
:10FA3000B6FA86F080F01F070B2F06D33846314602
:10FA400042464FF4C97358F034FC0620394604F09E
:10FA5000F7F909EB8700006908B1804706E03846EE
:10FA6000314642464FF4CF7358F023FC5946206884
:10FA7000DBF80010401BC9074FF4803108BF44F683
:10FA80002061D9F800608842CDD951F0CDF9C9E79D
:10FA90004400045000A00450F8B504460B280CD2D2
:10FAA000264E301990F85450012000FA04F758F00F
:10FAB000DDFB3168394331600CE00D4A20460021FE
:10FAC00040F20F1358F0F5FB1C48204490F85450B6
:10FAD00058F0CCFB58F0CFFB184800EB8500806C49
:10FAE00056F05AFF05202146BDE8F84004F0A8B9B9
:10FAF000F1D2061C0A280DD8074A00210B2909D08B
:10FB000012F8113001318342F8D102EB410010F8B4
:10FB1000010C704702207047E0AC061C0749C0B2D8
:10FB2000074E01EB8000041D00F14805286856F0DF
:10FB30002FFF206831688847F8E700BF9C544120B8
:10FB400074404120002070470020704780B5384A3B
:10FB500012689047002818BF012080BD10B5344AB4
:10FB60001268904768B10446043003F078F93648CB
:10FB70002146283058F0A2FB2046BDE8104016F080
:10FB80009FBE10BD10B50446C1898089FF2217F0C1
:10FB900027F92D48043C2146283058F08FFB204699
:10FBA000BDE8104016F08CBE10B5274800F12804BF
:10FBB000204658F088FB10B116F082FEF8E710BD21
:10FBC000024621482830006838B1038A9342FAD1AE
:10FBD000438A8B4208BF7047F5E70020704700BF9B
:10FBE000F8B50646124814460F460268304690475C
:10FBF0000546B0B91420012117F05EF8054620B97A
:10FC00000CA00DA1A22258F063FB0E486F822E8239
:10FC10000168281D03F09CF80B482946283058F04D
:10FC20005CFB281D2146BDE8F84003F00EB900BF7B
:10FC30009C404120415353006B655F74696D657250
:10FC40002E63000094404120405441200020704722
:10FC500070B5154E0446002596F85400854228BF1D
:10FC600070BDB06D00EBC50149688A681AB150F8E3
:10FC70003500214690470135EEE700BF70B50A4ECA
:10FC80000446002596F85400854228BF70BDB06D2B
:10FC900000EBC50149684A681AB150F835002146A1
:10FCA00090470135EEE700BF8046412070B50D4614
:10FCB000044620B9104811A1AB224FF029FB616D19
:10FCC00011B12846884714E094F8580001280FDB4A
:10FCD000E16D461E01EBC00050F8080C55F0FCFD2C
:10FCE000A8423046F2D8E06D00EBC600007900E093
:10FCF000012084F8460070BDBAE0061C5F706D5F9D
:10FD000073656C6563745F736C6565705F6D6F645C
:10FD10006500000080B5202905D0212906D1D0B288
:10FD200053F040F902E0D0B253F028F9002080BD32
:10FD3000F8B51C4615460E46074628B90AA00EA17E
:10FD400040F2BA224FF0E4FA052EC4BF0020F8BDFD
:10FD5000B8190EA2214690F84030284601B0BDE8FF
:10FD6000F04054F0B1BE00BF706D20213D205254D0
:10FD70005F4E554C4C0000005F72745F706D5F64A5
:10FD800065766963655F72656164000025640000E3
:10FD900080B553B1107828B1012806D1C8B253F00C
:10FDA00001F902E0C8B253F0E9F8012080BD00007B
:10FDB00010B5044620B9114811A14B224FF0A8FA02
:10FDC000A06A0178232906D1E169814203D9E26A58
:10FDD0000244914207D920A0214651F00DFA58F073
:10FDE00045FA18B1FEE72030814200D910BD0BA0C2
:10FDF0002146BDE8104051F0FFB900BF0DDE061CE2
:10FE00005F72745F7363686564756C65725F737449
:10FE100061636B5F636865636B0000007761726E9E
:10FE2000696E673A20257320737461636B20697370
:10FE300020636C6F736520746F2074686520626F37
:10FE400074746F6D206F6620737461636B206164DE
:10FE500064726573732E0A007468726561643A2572
:10FE60007320737461636B206F766572666C6F7755
:10FE70000A0000007CB5069D00F1200604461430FF
:10FE80002EC6C4E90500184623212A4651F03CFD40
:10FE900004F120030FCB1A44174B043A50F0F6FE3E
:10FEA000A16AE06150F0A8FEDDE90756082D04D3F1
:10FEB00012A01BA199224FF02BFA00201C4A2146C8
:10FEC0002346C4E90E06266484F8355084F836507B
:10FED000C4E91D0084F834002063CDE9000004F17A
:10FEE000440055F0C7FE1348016819B12046BDE82B
:10FEF0007C4008477CBD00BFD151061C7072696F01
:10FF000072697479203C2052545F544852454144F0
:10FF10005F5052494F524954595F4D4158000000BB
:10FF20005F72745F7468726561645F696E697400A2
:10FF3000D157061C3861412010B501280AD84EF06F
:10FF4000E7FF044660B9074907A0B02258F0C0F99E
:10FF5000002405E0034A0021B523002458F0A9F944
:10FF6000204610BD61D3061C41535300F8B504462A
:10FF7000814E56485649574AC6E90221306116F06B
:10FF8000A7FD00F029FF0168054619B12A8B002062
:10FF900016F0B0FE696819B16A8B012016F0AAFE4E
:10FFA000A96819B1AA8B022016F0A4FE002003F064
:10FFB000D7FB002003F078FA002058F093F90020D6
:10FFC00002F072FB002002F03BFE306808B116F030
:10FFD00077FC706808B116F073FC3820002116F029
:10FFE0006BFE38213060FCF756F84EF019FF1427ED
:10FFF000002107EB800016F05FFE054670604EF0B2
:020000041C01DD
:100000000FFF07EB80012846FCF745F806F11400C6
:1000100058F06DF956F0F8FD002006F011F90020B7
:1000200005F046F82C4D28680168012088470146F4
:10003000012008F017F92868016800208847014668
:10004000002008F00FF900200AF092FC56F010FD95
:1000500048484FF4C6714030FCF71DF8002056F0B8
:10006000E9FC002000F0F2FB002058F045F90020E8
:1000700058F047F9002058F049F9002058F04BF9A2
:10008000002058F04DF9002002F0DAFDB4F1A53F50
:1000900003D0ACB1B4F1C33F03D1204603F072FBEF
:1000A0000EE041F2021000211022012316F048FE5A
:1000B0000221B4F1F23F08BF0121017012F07CFE71
:1000C00006480068BDE8F840004700BFA975061C57
:1000D000C175061CB575061C78424120B040412010
:1000E00010B54EF0D1FE08B958F01FF958F0BEF81F
:1000F00004461F4800688047012002F0D5FA01201D
:1001000002F09EFD012003F02BFB012006F098F881
:10011000012004F0CDFF01200AF02AFC012058F054
:10012000E1F856F0B9FC13484FF4C6714030FBF7C4
:10013000B2FF012056F07EFC012000F087FB012079
:1001400058F0DAF8012058F0DCF8012058F0DEF819
:10015000012058F0E0F8012058F0E2F816F09EFB7C
:100160000548406980472046BDE8104058F083B8F4
:100170009840412050614120484341202DE9F04101
:10018000604D297801291CBF0120BDE8F081411E86
:10019000C9B28E2926D857F019FA18B36C68012114
:1001A00090F801802D89E18004F10807A688417844
:1001B00001440231CA1B93B2B34205D8B21A1304E8
:1001C00002D092B258F034F8A6EB0800861EB1B205
:1001D00017FA86F0691AFBF75EFF0020A680E08020
:1001E000BDE8F0810220BDE8F08100BFB0B50D464A
:1001F0004449097801291CBF0120B0BD411EC9B284
:100200008E290CD8144657F0E1F940B14178297095
:10021000811C4278204658F00BF80020B0BD022027
:10022000B0BD00BF10B5374C2181606057F090F928
:1002300000B110BD0121217010BD00BF0120704729
:10024000F8B5304F0646387801281CBF0120F8BDAC
:10025000701EC0B28E2884BF0220F8BD30461446FE
:100260000D4657F0B3F968B141787E68A9420FD1C5
:10027000012102302A46F180214657F0D9FF0020A3
:10028000F080F8BD30462946224657F045F9F8BDC2
:1002900007D2B3883A892B44591A9142C4BF03202C
:1002A000F8BD064906780968304688473046294631
:1002B000224657F031F90020F8BD00BFB840412078
:1002C00070B5104E05463078012805D10C463189AD
:1002D000A1F10800A04201D2012070BD7068FBF7B7
:1002E000DAFE57F035F900B170BD76680120294675
:1002F0002246F08006F1080057F09AFF0020B480F3
:10030000F08070BDDC4E412070B50446406CB8B141
:10031000218ACA0717D188071AD557F0A7FF04F119
:1003200014060546304655F07BFD304655F04CFC32
:10033000208A20F002002082284657F09CFF07E028
:100340006FF015050EE0214656F0E0F8054648B975
:1003500057F08CFF218A0025656421F0010121827C
:1003600057F089FF284670BDF8B50E46044657F091
:100370007DFF0546308AC0071BD1A068B04218D067
:10038000304650F083FFD4E90107016831604E60C8
:10039000318A06607060284641F00101318257F0D1
:1003A0006AFF27B9E06A55F09FF853F071FC00200E
:1003B000F8BD284657F05FFF6FF00600F8BD00005B
:1003C000044620B91C481DA139224EF0A1FF04F1BA
:1003D0000C054FF000082068A04205D155F0C6F882
:1003E00055F0B6F953F054FC57F040FF2768064625
:1003F000384650F04BFF388AA76020F00100388261
:10040000304657F038FFD7E902213846904757F079
:100410002DFFC4F8088057F02EFF4FF0F5FE284658
:1004200053F0E6FE023003D1284653F003FEF6E710
:100430004FF0F6FECFE700BFF8E1061C5F776F7262
:100440006B71756575655F7468726561645F656E13
:100450007472790070B5044690F82C0001281ED003
:1004600020BB002594F82D200123012684F82B5071
:10047000C4F82750C4F82350C4F81F508878A077D8
:1004800000F03F00098810432246A077204622F85A
:100490001C1FA16900F0DCFA84F82C600CE0A07F3E
:1004A00001254871A08BA1F8030005E0616903A252
:1004B0009A2357F0FEFE0025284670BD6165735FE4
:1004C0007270612E6300000070B50E4602211C465A
:1004D000154616F0F1FB4461C0E9016570BD0000EE
:1004E000F0B589B0044690F8322090F8330090427D
:1004F00016D2228E04F120051023A2EB0010A2696F
:100500000244284600F0C0FAE16920462A46012349
:1005100000F09EFA94F83300013084F8330072E062
:10052000FD280BD8FE20102284F8330004F12000AF
:1005300057F07EFEE169354A204661E0FF2801D18F
:10054000012061E0FF2005AA258E84F833000846CB
:1005500091F90F60114600F067FA05F00F05B6F14A
:10056000FF3F05DC9DF8140080F087008DF8140033
:100570005DB305A89DF92360014600F055FAB6F178
:10058000FF3F05DC9DF8140080F087008DF8140013
:1005900001A885F00F034FF0000C4FF0800E0026ED
:1005A000411B00F10F021031102E17D0AE4203D2C2
:1005B000A769BF5D8F5505E0B54214BF82F800C042
:1005C00000F803E0013A0136EEE794F83200002823
:1005D000CFD0A16901A8102257F02AFE01AD05AACB
:1005E00010232846294600F04FFA04F12006294638
:1005F00010233046324600F047FAE1692046324681
:10060000012300F025FA002009B0F0BDCC95061CAE
:1006100010B50124038680F83340C0E9062103F1B8
:100620000F0100220909C0E90922C26280F83210D4
:10063000014641F8202FBDE81040FFF751BFF8B543
:100640001E46069B0C460546BAB1382000213246AC
:10065000FFF73AFF00F118070646294610223846F0
:1006600057F0E6FD06F1280521461022284657F0EE
:10067000DFFD304639462A4606E018200021324682
:10068000FFF722FF29462246002301B0BDE8F040D3
:1006900000F0DEB9F8B51E46069B0C460546BAB119
:1006A000382000213246FFF70FFF00F118070646F9
:1006B00029461022384657F0BBFD06F12805214691
:1006C0001022284657F0B4FD304639462A4606E047
:1006D000182000213246FFF7F7FE29462246012363
:1006E00001B0BDE8F04000F0B3B9000070B50D46B0
:1006F0000E4906463020FFF7E7FE80F82D50866150
:10070000044600F11C051C262C2E04D0FBF7AAFC85
:10071000A0550136F8E7A16920462A46012300F0DA
:1007200097F9002084F82C0070BD00BF5504011C0F
:10073000F8B50C460C4905464820FFF7C5FE0646AD
:10074000206829461022344606F1380744F8340F51
:10075000384657F06DFD304639462246042301B035
:10076000BDE8F040FFF754BF6D07011CFFF7B8BEAE
:10077000F8B50C460E4905465420FFF7A5FE00F1DA
:100780004407064629461022384657F051FD06F127
:10079000340521461022284657F04AFD3046394696
:1007A0002A46102301B0BDE8F040FFF731BF00BF7B
:1007B000B507011CFFF794BE2DE9F0411F460D4619
:1007C0001249069B904606465C203A46FFF77CFE9F
:1007D00000F13404074631461022204657F028FD28
:1007E00007F1440629461022304657F021FDD8F87B
:1007F00000003146224610237865002087F8580013
:100800003846BDE8F041FFF703BF00BF1108011CE7
:1008100070B50D460446FFF763FEA0B194F858107A
:10082000012001B170BD04F1440684F85800294646
:100830001022304657F0FCFC04F1540220463146A9
:100840000423FFF7E5FE002070BD000010B540B1A5
:100850008C4C206828B1204657F035FD16F030F852
:10086000F7E7884C204657F065FD0020207510BD45
:10087000F0B589B00D460446002701AE082F05D01B
:10088000FBF7F0FB46F827000137F7E706F1100108
:100890003046012223460095FFF7FCFE09B0F0BD6B
:1008A000F8B5784F06460C46384657F00CFD3968C7
:1008B00005460020387531B1012001223875D1E993
:1008C000030157F03CFD9DB156B1AB681BB16A699D
:1008D0003046214698472846BDE8F84015F0F0BF5D
:1008E0006A68002AF1D02846214690470028ECD1BA
:1008F000F8BD00BF13460A464021FFF7F7BE0000CF
:100900002DE9F84306464020994688462249089B2F
:1009100015460022002700EB0610FFF7D5FD044620
:10092000C0F818903E303201414657F081FCA8884B
:10093000296884F83D60C4F82F70C4F83370C4F897
:10094000377084F83B70A046DFF8D890E1612084CE
:10095000687984F82E00B5F80300751E28F82C0F6E
:10096000FEB2B54209DD04EB0610494610223E30C6
:10097000FBF7AFFB08B90137F2E704EB061084F888
:100980003C704246012300F13E01204601B0BDE823
:10099000F04300F05DB800BF9D09011C2DE9F8434C
:1009A00000F11C08054603224046FBF792FB10B3FA
:1009B00095F83C4095F83D60DFF868900134E0B26E
:1009C000B04216D205EB00104946102200F13E0756
:1009D0003846FBF77EFB0028F0D005F12C022846B4
:1009E0003946012385F83C4000F032F80020BDE88C
:1009F000F88385F83C40AC6984B195F83C1095F8D3
:100A00003D306A6905EB01109942434600F13E0012
:100A100000904FF01F0038BF0020A0470120BDE824
:100A2000F88300BF6E96061C10B5002212F10F036A
:100A300009D083189C7BDB7BE40944EA43038C18D0
:100A4000013AE373F2E700784000087010BD00003F
:100A50002DE9F0410B4F04460E46984615462146B7
:100A6000384657F03AFCC4E90365387D08B1BDE863
:100A7000F08101202946424638753046BDE8F041F4
:100A800057F05DBC6C474120B0B5013B5BB2002B19
:100A900004D4CC5CD55C6C40C454F6E7B0BD000017
:100AA0001848816A11F00F022AD00368013223F43A
:100AB00070530360036843EA82220260026822F4F2
:100AC0004042026001F0300201F47071036843EAB1
:100AD00082220260026822F470220260026842EA06
:100AE00081210160416821F47C614160416841F4E9
:100AF0008061416050F8101C21F0010140F8101C89
:100B0000704700BFA04008500848016841F001014B
:100B1000016001696FF393210161416921F47C61F6
:100B20004161416941F480614161704790400850E2
:100B300010B5064C2068400006D4012057F0AFFBEA
:100B4000206840F08050206010BD00BF14F00050BD
:100B50004EF0D8BC2DE9F047ACB04FF000090BAD1A
:100B6000884604462C21C0F828902846FBF793FAC3
:100B70006E462C213046FBF78EFA21AF2146242207
:100B8000384657F055FBD4F824A016AC3A49242235
:100B9000CDF8AC902046CDF8A8A057F049FB08202E
:100BA000CDF880901F900120CDE91300CDE9089089
:100BB000BAF1000F0ED13BE0384603F0C1FB9DF8BF
:100BC0004C00C00703D1284603F0BAFB02E02846D8
:100BD000FBF7ACFE9DF8A400C007EDD00DE0204669
:100BE00003F0AEFB9DF82000C00703D1304603F0B0
:100BF000A7FB02E03046FBF799FE9DF87800C0079E
:100C0000EDD03846214614F079FE30B13846214601
:100C1000FEF778FB2846314605E020463946FEF7C8
:100C200071FB30462946FEF78DFBDDF8A8A0BFE733
:100C30000A9868B16C46204656F09AFE4046214616
:100C4000242257F0F5FADDE90910C8F824100EE067
:100C50000948694614F03AFE0028EBD06946404640
:100C6000242257F0E5FA0998C8F824000020C8F8B3
:100C700028002CB0BDE8F087DC95061C7CB5164634
:100C80000D4601AA0121044645F0D6F800B17CBD0D
:100C90000198817E01F003010229F8D1EA8847F624
:100CA000FE73B11A89B2994202D84078282108E02F
:100CB000691C204633F09AFB0028E8D001982421D3
:100CC000407834F051FB7CBDBCB514460D4601AAFA
:100CD000012145F0B1F800B1BCBD0198817E01F061
:100CE0000302022AF8D16B8841F003016A78817609
:100CF000E11A47F6FF7389B2994238BF282240783B
:100D0000D1B234F031FBBCBD01480068004700BFE0
:100D10008440412080B50548006880470448016848
:100D20004FF0C330BDE88040084700BF5440412029
:100D3000AC404120704700004348006840F38010F9
:100D4000704700BF70B555F01CFE194CA078FF2805
:100D500009D001F02BFBA1780422C90002FA01F1AD
:100D6000084301F031FB134D2E68F00309D54FF411
:100D7000803011A28E236860286D296D090C57F010
:100D800098FA300603D5802068603CF0C5FBA07857
:100D9000FF2809D001F00AFBA1780422C90002FA59
:100DA00001F1884301F010FBBDE8704055F0EBBD48
:100DB000A0434120100809507277626C652E6300D1
:100DC000064890F924007047704700000146034828
:100DD000282257F02DBA00BF00487047EC40412050
:100DE000704780B557F0B0FA00F006F80020BDE873
:100DF00080404DF0D1BF000080B5074802681AB1AD
:100E000006482021FCF7E2FC054857F070FA054837
:100E10000068BDE880400047E4424120444A412048
:100E20005C434120D0404120AFF3008080B50648AC
:100E30000068400644BF4FF0FF3080BD03480068A3
:100E40008047002080BD00BF3C000450D4404120BA
:100E5000F8B5434F0446084616460D46B847C10E3E
:100E6000A171C0F3CB31A180C0F380316FF39F300B
:100E70002080A170287940092072287900F01F0095
:100E8000E0716879A979EA7940EA012002F00F015E
:100E90001309237440EA0140E060287A697AAA7A4B
:100EA00040EA012002F00F011309237640EA0140D5
:100EB0006061E87A607605F10D00B847A06205F13F
:100EC0001100B847010D6FF31F5011276184E061D5
:100ED000687DA97D40EA0120E084D5F81700E06232
:100EE000E87E00F01F0084F83000E87E5F2809D813
:100EF000012101EB5010032804D01A490027085C97
:100F000084F82400E869212EC4F8310095F8200007
:100F100000F07F0084F8350095F820004FEAD010EB
:100F200084F8200014D0392E16D10120102284F824
:100F30003600D5F82100D5F82510C4F83B10C4F8C8
:100F4000370004F13F0005F1290157F071F904E081
:100F5000002084F8360000E01E273846F8BD00BFA8
:100F6000B52B011C8C96061CB0B557F07FF90546D1
:100F70004448283057F0A7F90446284657F07BF933
:100F8000002C14BFA0880020B0BD00BF10B50146E2
:100F90003B48C28A8B1A03EB1363C3F30724008B0D
:100FA000801A00EB1060B4EB202F05DBF54A2046D9
:100FB00040F2791357F07DF9F348D0F8940000EB34
:100FC000C40010BDB0B50146ED48C28A8B1A03EBD0
:100FD0001363C3F30724008B801A00EB1060B4EB9B
:100FE000202F05DBE74A204640F2851357F061F9D0
:100FF00057F03CF90546F048D0F89410283001EB42
:10100000C40157F06AF92846BDE8B04057F033B93B
:10101000B0B557F02BF90546F6483C3057F053F978
:101020000446284657F027F9002C14BFA08800205A
:10103000B0BD00BFB0B50146ED484FF4FE73028A63
:10104000408A801A8A1A92FBF3F290FBF3F0D4B232
:10105000844205DBFB4A204640F2A51357F029F9EC
:1010600057F004F90546F848D0F898103C3001EBE9
:10107000C40157F032F92846BDE8B04057F0FBB83C
:1010800030414120844741202DE9F041EC4D044698
:10109000A88CB0F5304F05D9EA4A800A2C2180236C
:1010A00057F007F9002C59D0EF48D0F88C10A889D8
:1010B000EA89ED4CB64F101A242290FBF2F3204639
:1010C0000822B847A88AE98A4FF482760822081ACB
:1010D000D4F8901090FBF6F304F11400B847E88AB6
:1010E000298B0822081AD4F8941000EB1060031220
:1010F00004F12800B847288A698A0822081A4FF4A0
:10110000FE7190FBF1F3D4F8981004F13C00B8475D
:10111000A88BE98B0822081AD4F89C1090FBF6F3F0
:1011200004F15000B847288B698B0822081A202147
:1011300090FBF1F3D4F8A41004F17800B847688B61
:10114000A98B0822BC46081A0C2190FBF1F3D4F8B5
:10115000A01004F16400BDE8F0416047F14CD4F800
:101160008C0008B115F0ACFBD4F8900008B115F074
:10117000A7FBD4F8940008B115F0A2FBD4F89800AE
:1011800008B115F09DFBD4F89C0008B115F098FB50
:10119000D4F8A00008B115F093FBD4F8A40008B16E
:1011A00015F08EFB2046A821FAF775FFA889E9897A
:1011B0004FF02408754F081A002190FBF8F0C0008A
:1011C000B847C4F88C00A88AE98A4FF48276081AD6
:1011D000002190FBF6F0C000B847C4F89000E88A00
:1011E000298B081A002100EB10600012C000B847DC
:1011F000C4F89400288A698A081A4FF4FE7190FB9B
:10120000F1F00021C000B847C4F89800A88BE98B22
:10121000081A002190FBF6F0C000B847C4F89C0003
:10122000688BA98B081A0C2190FBF1F00021C000FB
:10123000B847C4F8A000288B698B081A202190FBBE
:10124000F1F00021C000B847C4F8A400A889E989DA
:10125000081AD4F88C1090FBF8F002B2012A0ADBCD
:101260000138AE8982B200EBC00301EBC20206EB8B
:1012700083039380F1E7A88AEA8A101A4FF48272F6
:1012800090FBF2F0D4F8902003B2012B0BDB013875
:10129000AF8A00EB801683B207EB860602EBC3032E
:1012A00005369E80F0E7E88A2A8B101AD4F894203D
:1012B00000EB1060001203B2012B08DB0138EE8A4C
:1012C00083B206EB002602EBC3039E80F3E7288A75
:1012D0006A8A101A4FF4FE7290FBF2F0D4F898204C
:1012E00003B2012B0ADB01382F8A83B2C0EBC01690
:1012F00002EBC30307EB86069E80F1E7A88BEA8B1F
:10130000D4F89C30101A4FF4827290FBF2F2501E07
:1013100003EBC202023A431C012B0ADB00EB8013F1
:10132000AE8B1070013806EB830322F8023C083ABA
:10133000F1E7288B6A8B101A202290FBF2F0D4F888
:10134000A42003B2012B08DB01382E8B83B206EBFD
:10135000401602EBC3039E80F3E7688BAA8B101A3A
:101360000C2290FBF2F0D4F8A02003B2012BFFF680
:101370009EAE013883B202EBC3031871F5E700BFDC
:10138000304141206CD3061C84474120B96C021CBB
:10139000E9F53F00B0B556F069FF0546A348503067
:1013A00056F091FF0446284656F065FF002C14BF06
:1013B000A079FF20B0BD00BF8447412010B504468E
:1013C0009848818BC08B401A4FF4827190FBF1F0EA
:1013D000A04206DC944A2046002140F2C31356F096
:1013E00068FF9248D0F89C0000EBC400808810BDD4
:1013F0003041412084474120B0B504468948818B63
:10140000C08B401A4FF4827190FBF1F0A04206DCD1
:10141000854A2046002140F2C91356F04AFF56F093
:1014200025FF05468148D0F89C10503001EBC401DF
:1014300056F053FF2846BDE8B04056F01CBF00BF31
:10144000304141206CD3061C84474120B0B556F092
:101450000DFF0446754856F036FF0546204656F007
:101460000AFF2846B0BD00BF84474120B0B5014601
:101470006C4824238289C089801A8A1A92FBF3F26D
:1014800090FBF3F0D4B2844205DB674A204640F279
:10149000251356F00EFF56F0E9FE05466348D0F8D6
:1014A0008C1001EBC40156F018FF2846BDE8B0408F
:1014B00056F0E1BE80B55D48143056F004FF0028B8
:1014C00014BF8088002080BD70B5014655484FF498
:1014D0008273564E828AC08AD6F89050801A8A1A31
:1014E000053A90FBF3F092FBF3F2D4B2844205DBB1
:1014F0004D4A204640F2431356F0DBFE05EBC4058F
:1015000056F0B4FE0446A8883EF016FE20B906F157
:101510001400294656F0E1FE2046BDE8704056F022
:10152000AABE00BF84474120B0B556F09FFE0546D5
:101530003E48783056F0C7FE0446284656F09BFEDB
:101540000CB1A088B0BDF448374940F20A2256F0E9
:10155000BFFE0020B0BD00BF70B5324D04462E8BDB
:10156000864205D84DF04AFC06EB8010A04206D812
:101570002D4A2046002140F2132356F09AFE288B74
:101580002021201A90FBF1F0C5B256F06FFE044600
:101590002648D0F8A410783001EBC50156F09DFE26
:1015A0002046BDE8704056F066BE00BFB0B556F0AC
:1015B0005DFE05461D48643056F085FE044628460B
:1015C00056F059FE0CB12079B0BDF44816494FF4DD
:1015D000F17256F07DFEFF20B0BD00BFB0B50446ED
:1015E0001048418B808B401A0C2190FBF1F0A042F7
:1015F0000FDD56F03BFE05460C48D0F8A0106430D5
:1016000001EBC40156F069FE2846BDE8B04056F033
:1016100032BE054A204600214FF4FA73BDE8B040BF
:1016200056F047BE304141206CD3061C8447412010
:10163000B0B5094B00210422B2F1FF3FDCBFC8B2B4
:10164000B0BD845C013A250904F00F041C5D5D5DAA
:1016500021442944F0E700BF0CCD061C032907D81C
:10166000DFE801F0020D1116502101EBC0007047B8
:1016700080B50AA2662356F01CFE002080BD2C21F6
:1016800001EB800070474FF4347101EB801070471C
:101690004FF4E77101EB0010704700BF626C655FAB
:1016A0007574696C2E6300004DF0A6B915F002BA8E
:1016B00080B501204DF070FB4FF00EF81248006825
:1016C000C00708D100204DF0D7FCC8204DF0AAFC7F
:1016D00002204DF0D5FC16480021C0E907110E216B
:1016E00001750A4951F06CFB094853F099FE09480D
:1016F00051F03AFCFFF7D8FF56F026FE0020FFF726
:1017000009FB002080BD00BF00A00450149A061CF5
:10171000AD16011C3517011C054A90421CBF002064
:10172000704702293CBF4FF0FF30704700F06CB8A3
:10173000E049412001301CBF0120704780B500F016
:1017400063F80121002808BF0421084680BD00007D
:1017500026490862704700BFF8B5064601F1280027
:101760000C464FF09BFD054628B91F491CA040F2CE
:101770008A224DF0CDFD05F10800314622466C600D
:1017800056F056FD194F07F1140656F06FFD04464A
:1017900030463668002EFBD10560B86800262E6002
:1017A000C8B1B96931B1104911A040F292224DF08F
:1017B000AFFDB868F96856F01DFAF968884208D19B
:1017C0003A680026BE6032B1786800210026904752
:1017D00001E04FF0FF36204656F04DFD3046F8BD93
:1017E000735F6C6973740000C6CF061CC06741202C
:1017F000656E762D3E6375725F6C697374203D3D36
:10180000204E554C4C00000015F01CBB10B50404D4
:10181000B0F5006F05D3064806A141F6BA1256F09E
:1018200057FD084801686FF31A412143016010BD5C
:10183000D0CE061C7265675F6274636F72652E6836
:101840000000000030050950B0B5FFF7C5FA0446A6
:101850004DF0EAFA616909B1628C02E023494FF464
:10186000806200EB8000224D01F1400401F1500341
:101870002C6101F12004A960114440426B6101EB2D
:10188000800102EB8000EC60E9611A4908446FF0C6
:10189000030101EA50044FF6FC7101EA50002C806C
:1018A0001844A861144800F065FA24B2A868696970
:1018B000224652F071F8E868A969224652F06CF8A5
:1018C00001208221FFF744F96860A86852F09AF974
:1018D000E86852F097F9286900210022062A04BF1F
:1018E0000020B0BD20F812100132F7E700F84120C7
:1018F000C0424120B0FF0100F11B011C10B504469D
:1019000010F4404F05D0B748B74940F2DC7256F0AA
:10191000DFFC0248046010BDD0CE061C280409502C
:1019200070B514460E460546B1F5804F05D3AD4857
:101930006F4940F2971256F0CBFC360414F4404F36
:1019400005D0A8486A494FF4CC7256F0C1FC46EA6B
:1019500004006901014A505070BD00BF1C060950C7
:1019600070B514460E460546B1F5804F05D39D4827
:101970005F4940F24D1256F0ABFC360414F4404F70
:1019800005D098485A494FF4A77256F0A1FC46EA90
:1019900004006901024A505070BD00BFD0CE061C41
:1019A000180609502DE9F0411D4616460F4680469F
:1019B00011F0FE0F05D08B484D494FF4F77256F0E9
:1019C00087FC16F0FE0F05D08648494940F2EF1219
:1019D00056F07EFC069C15F0FE0F05D08148444968
:1019E0004FF4F87256F074FC7F013601ED0014F0EC
:1019F000F80F05D07B483E4940F2F11256F068FCE2
:101A000047EA06004FEA4811034A2843204300F5FD
:101A100080305050BDE8F081200609502DE9F0419A
:101A20000F051D4616468046B7F1804F05D36D4819
:101A30002F494FF41C7256F04BFC16F0F00F05D0F6
:101A400068482B4940F2712256F042FC069C15F47E
:101A50007C4F05D06348264940F2722256F038FC8C
:101A600036042D0114F0F00F05D05E48204940F2F5
:101A7000732256F02DFC46EA07004FEA48111D4A32
:101A8000284320435050BDE8F08100BFF8B507055A
:101A90001C4615460E46B7F1804F05D351481449F0
:101AA0004FF41C7256F014FC16F0F00F05D04D48A0
:101AB0000F4940F2712256F00BFC15F47C4F05D013
:101AC00048480B4940F2722256F002FC36042D01C0
:101AD00014F0F00F05D04348054940F2732256F048
:101AE000F7FB46EA07000349284320430860F8BD96
:101AF0003AD6061C2406095070B554F042FF234C18
:101B0000A078FF2809D000F051FCA1780222C9007A
:101B100002FA01F1084300F057FC1D4D55F8046C22
:101B2000F00309D54FF480301AA29B232860E86C9B
:101B3000E96C090C56F0BDFBB00405D54FF400501C
:101B40002860002025F0CCFC700405D54FF48040BF
:101B50002860012025F0C4FC300405D54FF4004076
:101B60002860022025F0BCFCA078FF2809D000F0F6
:101B70001DFCA1780222C90002FA01F1884300F09D
:101B800023FCBDE8704054F0FEBE00BFA0434120DE
:101B900014040950727762742E63000010B50402B9
:101BA000000605D50F48104941F2ED5256F090FB62
:101BB0000E48016821F4FE412143016010BD00BFC1
:101BC00010B50446000605D50648074941F2F9520A
:101BD00056F07EFB0548016821F07F01214301603A
:101BE00010BD00BFD0CE061C11D6061CD40409506F
:101BF000BCB504460078052800F27480DFE800F0E8
:101C0000037215273D42404DA86851F0A7FD0146DB
:101C100020792A8801440431914243D900F0B0F878
:101C20002869C1880131C1804BE06068364AC1B281
:101C3000D269890051FA80F102EB8101CB898A7C5B
:101C4000098A0091010C3EA04FF0D6FA4AE0606884
:101C50002D4CC1B2E269890051FA80F102EB810199
:101C6000CB898A7C098A0091010C28A04FF0C4FA24
:101C7000206901890131018134E0E1881AA04FF027
:101C8000BBFA2FE0204CA06851F0BCFFE06851F097
:101C9000B9FF206900210022062A23D020F8121063
:101CA0000132F9E7D4E9010141F8040C2279A16875
:101CB000A8680439043251F08BFE207900F060F8F6
:101CC000286941898A0505D10EC828484FF094FA41
:101CD000286941890131002200234181286A0021BD
:101CE00013F084FD0020BCBD73636F206C696E6BC4
:101CF00069643A3078257820646973636F6E6E6525
:101D0000637465640A000000C042412073636F2061
:101D10006368616E6765206C696E6B69643A3078E0
:101D200025782C636F6465643A25642C72786C6541
:101D30006E3A25642C74786C656E3A25640A00004E
:101D400073636F206C696E6B69643A307825782C08
:101D5000636F6465643A25642C72786C656E3A250D
:101D6000642C74786C656E3A25640A0045CF061CB5
:101D70000020704701490860704700BF2C4841208F
:101D80007CB504464DF08CF8002818BF04348DF85B
:101D90000040E4B2822C04D311A012A1FF2256F01D
:101DA00097FA144E7568F068019551F0D7FCA0427F
:101DB00002D2306904300FE0F0682946224651F023
:101DC00003FD684616F024F8022804D0012806D145
:101DD0003069023000E030690188013101807CBD4A
:101DE0004153530062745F617564696F7061746818
:101DF0002E630000C0424120B0B556F037FA0446C9
:101E0000CB48143056F05FFA0546204656F033FAB8
:101E10002846B0BD70B50146BD4840F20443828FEC
:101E2000C08F801A8A1A053A90FBF3F092FBF3F206
:101E3000D4B2844204DBA14A2046FF2356F039FA8B
:101E4000BB4E04EB4400316C01EB800556F00EFAFA
:101E50000446288925F0C8FA20B906F1140029465D
:101E600056F03BFA2046BDE8704056F004BA00BF79
:101E7000B0B556F0FBF90546E748283056F023FA8E
:101E80000446284656F0F7F9002C14BF208900209C
:101E9000B0BD00BFB0B50446E04840F20441C08F79
:101EA000201A90FBF1F0C5B24CF0BAFF0630854223
:101EB00006D3DC4A2846214640F2351356F0F9F99C
:101EC000E64905EB4500496C01EB8000B0BD00BF61
:101ED000B0B5D249C98F401A40F2044190FBF1F0ED
:101EE000C1B2490051FA80F556F0C0F90446F548F0
:101EF000416C283001EB850156F0EFF92046BDE832
:101F0000B04056F0B8B900BF2DE9F843EE4E044694
:101F1000B6F84200B0F5304F05D9C24A800A2C21EC
:101F20007A2356F0C6F98CB1F54D002400274CF009
:101F30007BFF87426DD2A86C50F8270020B114F0C7
:101F4000BFFCA86C40F827400137F0E7DFF8509459
:101F5000D9F83C0008B114F0B3FCD9F8400008B13E
:101F600014F0AEFCD9F8440008B114F0A9FCD9F87B
:101F7000480008B114F0A4FC48464C21FAF78BF84D
:101F80004CF052FFDFF83881800000210027C04765
:101F90000546C9F848004CF047FF81002846FAF78B
:101FA0007AF8F08D318E1825081A002190FBF5F093
:101FB000C000C047C9F83C00B08FF18F40F2044424
:101FC000081A002190FBF4F000EB40008000C047AD
:101FD000C9F84000F08FB6F84010081A002190FBB5
:101FE000F4F000EB40008000C047D9F83C10C9F87D
:101FF0004400081DF28D338E9B1A93FBF5F39F422C
:102000002EDA07EB470302EBC30220F83720013733
:10201000F0E7E96BF08D328EE14C2A4F101A18224E
:1020200090FBF2F320460822B847B08FF18F40F2C0
:1020300004450C22081A216C90FBF5F304F11400FE
:10204000B847F08FB6F840100C22BC46081A616CF5
:1020500090FBF5F304F1280001B0BDE8F0436047C0
:10206000D9F84000002340F2044500F10802B78F80
:10207000F08FC41B94FBF5F4A34208DA03EB0320B2
:10208000013307EB8000053022F80C0BEFE7D9F89D
:102090004420002340F20444083285B2B6F8407070
:1020A0007D1B95FBF4F5AB42B4DA03EB032501335A
:1020B00000EB850022F80C0BF08FEEE773D5061CC1
:1020C000B96C021CE9F53F00B0B556F0CFF80446F4
:1020D000B34856F0F8F80546204656F0CCF82846A6
:1020E000B0BD00BFB0B5B049C98D401A182190FBF2
:1020F000F1F0C5B256F0BAF80446A948C16B01EB3D
:10210000C50156F0EAF82046BDE8B04056F0B3B835
:1021100030414120B0B5A24D0446A86C50F82400CF
:1021200028B114F0CDFBA86C002140F82410B0BDFC
:10213000304841202DE9F84F064601EB410003EB02
:10214000430B884600219A461446850005EB8B0018
:10215000343014F0B1FD30498A6C42F82600886CA6
:1021600050F82670002F4FD007F13401DDF8289089
:102170000C2243464819C7E90A10384656F0E9F8D8
:10218000F96A07F114000C22534656F0E2F84FF4B6
:10219000076004F1030E009406FB00FC20462EF0BD
:1021A000030300261D486146B54208D0BC6AB0F85A
:1021B000402034440A4419440C36A280F4E74FEA24
:1021C0009E0109F103034FEA8B02002501FB08F190
:1021D00023F0030304330CEB8101AA4209D0B0F8C9
:1021E0004060FC6A0E442C4419440C350436A68029
:1021F000F3E7009887F8339087F832A087F83080AB
:1022000087F83100BDE8F88F504905A04FF4B97246
:10221000BDE8F84F56F05CB83048412030414120CD
:102220004153530073D5061CB0B55D4A926C52F809
:1022300020501DB195F83300884201D20020B0BD76
:1022400056F014F8044605F1140056F03CF8054623
:10225000204656F010F82846B0BD00BF3048412057
:1022600070B54F4A926C52F8205055B34D4A95F8CC
:10227000333010FB02104C4995F83120B1F8401072
:10228000033222F00302401A95F8301002FB1100CD
:10229000D91D21F00301043890FBF1F0C1B24900CF
:1022A00051FA80F655F0E2FF0446E86A00EB860139
:1022B00005F1140056F011F82046BDE8704055F0C5
:1022C000DABF70BD3048412030414120B0B5344ABA
:1022D000926C52F8204084B194F8310088420CD3BB
:1022E00055F0C4FF0546204655F0EDFF044628464C
:1022F00055F0C1FF0CB1A088B0BD0020B0BD00BF3B
:1023000030484120B0B5284B264A10FB0212B3F8E2
:102310004030D21A224B9B6C53F8205095F8313044
:1023200095F83000033323F0030392FBF3F2D4B2A9
:10233000844205D3054A20464FF4D17355F0B9FFC6
:1023400004EB4400A96A01EB8000B0BD73D5061C04
:1023500070B5134A926C52F82040FCB1114A10FB40
:1023600002101149B1F84010401A94F831100331AD
:1023700021F0030190FBF1F0C1B2490051FA80F65F
:1023800055F074FF0546A06A00EB8601204655F023
:10239000A4FF2846BDE8704055F06DBF70BD00BF7A
:1023A0003048412090F7FFFF3041412010B50D4CDF
:1023B0004CF090FD28B1012814BF04F5806404F5A9
:1023C0000064206810BD00BFB0B50446054D4CF058
:1023D00081FD28B1012814BF05F5806505F500656C
:1023E0002C60B0BD6400095010B5D0E9021282EA39
:1023F0000104A3B2002B18BF0123B4F5803F28BF0E
:10240000022323B1012B04D1B0F9100010BD00202C
:1024100010BD120C0B0CB2EB114F8FBFD01AD11A9A
:10242000B0F91000084410BD2DE9F843994615464F
:102430000F46044628B92B482BA140F23D124CF020
:1024400067FF2046FFF7D0FF20B3A368B4F9102040
:102450002168A84238BF0546ADB2A2EB134201EB9A
:1024600013411FFA83F81E0CAA4215D938462A4692
:1024700055F0DEFE55F0FAFE0746B9F1000F05D023
:102480002046FFF7B1FF401BC9F80000701948EA69
:10249000004020E0002522E0384655F0C9FEB4F99E
:1024A0001000811B78186A1A216855F0C1FE55F09A
:1024B000DDFE0746B9F1000F05D02046FFF794FF77
:1024C000401BC9F80000218A7019401A4FF6FF71AD
:1024D00048EA00404840A060384655F0CCFE284607
:1024E000BDE8F883F9D6061C63697263756C617286
:1024F0005F6275665F6765745F616E645F75706467
:102500006174655F6C656E002DE9F0411546884683
:10251000044620B91E481FA18C224CF0F9FEB4F9E4
:1025200010602046FFF760FF301A010415D081B219
:10253000A94238BF0546E7686068ADB2A6EB17420E
:1025400000EB17403E0CAA4209D941462A4655F0F5
:102550006FFE7019C7EA004015E0002514E04146FF
:1025600055F066FEB4F91000801B08EB00012A1A32
:10257000606855F05DFE218A7019401A4FF6FF71B0
:10258000C7EA00404840E0602846BDE8F08100BF4F
:10259000F9D6061C63697263756C61725F62756659
:1025A0005F707574000000000160704770B51446DC
:1025B0000E46054620B90A480A496B224CF0A8FE8F
:1025C000002C04DC084807496C224CF0A1FE0020D6
:1025D000C5E90160E86024F00300288270BD00BFF7
:1025E000F9D6061C04D7061CF0D6061C10B50C46FE
:1025F00002464FF488500021012314F0A1FB04701F
:10260000BDE8104010F0D8BBC088401AB0FA80F086
:102610004009704710B50022062A04BF012010BDF2
:102620008B5C845C01329C421CBF002010BDF3E730
:102630000078044A010900F00F00515C105C084466
:10264000C0B270470CCD061C114483180139984262
:1026500028BF704711F8012900F8012BF7E7114452
:1026600083180139984228BF704711F8012900F8F2
:10267000012BF7E7B0B5584D05F1140055F023FED6
:102680000446686918B9434801680520884734B191
:102690000020616820602046BDE8B0400847B0BD1A
:1026A0000022C0E90021704710B580B90D4C0E49D9
:1026B00003202268904722680C4905209047226831
:1026C0000B490A2090474448283055F033FE424CCD
:1026D000204655F02FFE04F11400BDE8104055F0DF
:1026E00029BE00BF584041206927011C7526011CE6
:1026F000F526011C70B555F0B9FD374E054606F1BB
:10270000280055F0E0FD0446B06A18B92148016878
:102710000A208847284655F0AEFD34B10020616894
:1027200020602046BDE87040084770BDF8B52A4DCE
:102730000446214605F1280055F010FE60B955F811
:10274000287F55F093FD06462846214655F0C5FDE5
:10275000304655F090FD07B1F8BD224801680A20C7
:10276000BDE8F840084700BFB0B51B4D284655F0FE
:10277000AAFD0446286818B906480168032088475E
:1027800034B10020616820602046BDE8B0400847B1
:10279000B0BD00BF5C40412070B50C460546022824
:1027A00004D3C8480D49B72255F092FD206800B106
:1027B00070BD05EB8500084901EB8006306820B943
:1027C00007480849405D0968884730462146BDE80A
:1027D000704055F082BD00BF7C4841202AD3061CC2
:1027E0006696061C78404120B0B50C46054621B9D6
:1027F000044805A1A32255F06BFDB5FBF4F000FBE6
:102800001450B0BDD0CE061C636F5F6D6174682E2E
:1028100068000000B0B50C46054621B9044805A182
:10282000A32255F055FDB5FBF4F000FB1450B0BDEC
:10283000D0CE061C636F5F6D6174682E6800000067
:10284000B0B50C46054621B9044805A1A32255F0B0
:102850003FFDB5FBF4F000FB1450B0BDD0CE061C1C
:10286000636F5F6D6174682E68000000B0B50C4640
:10287000054621B9044805A1A32255F029FDB5FB61
:10288000F4F000FB1450B0BDD0CE061C636F5F6D3A
:102890006174682E68000000B0B50C46054621B989
:1028A000044805A1A32255F013FDB5FBF4F000FB8D
:1028B0001450B0BDD0CE061C636F5F6D6174682E7E
:1028C00068000000B0B50C46054621B9044805A1D2
:1028D000A32255F0FDFCB5FBF4F000FB1450B0BD95
:1028E000D0CE061C636F5F6D6174682E68000000B7
:1028F000B0B50C46054621B9044805A1A32255F000
:10290000E7FCB5FBF4F000FB1450B0BDD0CE061CC4
:10291000636F5F6D6174682E68000000B0B50C468F
:10292000054621B9044805A1A32255F0D1FCB5FB09
:10293000F4F000FB1450B0BDD0CE061C636F5F6D89
:102940006174682E68000000B0B50C46054621B9D8
:10295000044805A1A32255F0BBFCB5FBF4F000FB35
:102960001450B0BDD0CE061C636F5F6D6174682ECD
:1029700068000000B0B50C46054621B9044805A121
:10298000A32255F0A5FCB5FBF4F000FB1450B0BD3C
:10299000D0CE061C636F5F6D6174682E6800000006
:1029A000B0B50C46054621B9044805A1A32255F04F
:1029B0008FFCB5FBF4F000FB1450B0BDD0CE061C6C
:1029C000636F5F6D6174682E68000000B0B50C46DF
:1029D000054621B9044805A1A32255F079FCB5FBB1
:1029E000F4F000FB1450B0BDD0CE061C636F5F6DD9
:1029F0006174682E68000000B0B50C46054621B928
:102A0000044805A1A32255F063FCB5FBF4F000FBDC
:102A10001450B0BDD0CE061C636F5F6D6174682E1C
:102A200068000000B0B50C46054621B9044805A170
:102A3000A32255F04DFCB5FBF4F000FB1450B0BDE3
:102A4000D0CE061C636F5F6D6174682E6800000055
:102A5000B0B50C46054621B9044805A1A32255F09E
:102A600037FCB5FBF4F000FB1450B0BDD0CE061C13
:102A7000636F5F6D6174682E68000000B0B50C462E
:102A8000054621B9044805A1A32255F021FCB5FB58
:102A9000F4F000FB1450B0BDD0CE061C636F5F6D28
:102AA0006174682E68000000B0B50C46054621B977
:102AB000044805A1A32255F00BFCB5FBF4F000FB84
:102AC0001450B0BDD0CE061C636F5F6D6174682E6C
:102AD00068000000B0B5094B00210922B2F1FF3FA8
:102AE000DCBFC8B2B0BD845C013A250904F00F0414
:102AF0001C5D5D5D21442944F0E700BF0CCD061C40
:102B000080B5F9F7AFFAC0B280BD80B5F9F7AAFA7F
:102B1000C0B280BD80B5F9F7A5FAC0B280BD80B55E
:102B2000F9F7A0FAC0B280BD80B5F9F79BFAC0B240
:102B300080BD80B5F9F796FAC0B280BD80B5F9F7CF
:102B400091FAC0B280BD80B5F9F78CFAC0B280BDF1
:102B500080B5F9F787FAC0B280BD80B5F9F782FA7F
:102B6000C0B280BD80B5F9F77DFAC0B280BD80B536
:102B7000F9F778FAC0B280BD80B5F9F773FAC0B240
:102B800080BD80B5F9F76EFAC0B280BD80B5F9F7A7
:102B900069FAC0B280BD80B5F9F764FAC0B280BDF1
:102BA00080B5F9F75FFAC0B280BD80B5F9F75AFA7F
:102BB00080B280BD0178427841EA02218278C078F3
:102BC00041EA024141EA0060704702090121012AFD
:102BD00088BF010908467047FEB50446684655F0AF
:102BE000C2FB764D029E6868371AB7F1FF3F05DCDD
:102BF0008548864940F28B1255F06AFB4FF47A7093
:102C00000E492A89B7FBF0F000FB017111448AB22A
:102C10002981B2F57A7F22BFA1F57A71298101302D
:102C2000E968CA43904202D92A7C01322A740844D6
:102C30006E60E8602969C4E90001FEBD18FCFFFF71
:102C400010B586B070B95D4C00202074E060208122
:102C500003A855F088FB059808496060064802689B
:102C60000720904755480021016001A8FFF7B4FFF5
:102C700000F006F806B010BD58404120F12C011CB0
:102C80004E480C4902688AB1C3689268D21A012A78
:102C900008DB094B9A4209DC4FF47A715143B1F5D4
:102CA0007A7F03D805480168072008474068084430
:102CB00055F05EBB00E9A4359FBB0D007840412074
:102CC0003E4B002211461A6862B182421346F9D186
:102CD0003A4A002918BF0A460368B1FA81F1490946
:102CE000136000E000214FF0FF3202600846704799
:102CF0002DE9FE4315480168072088476C462046A9
:102D0000FFF76AFF2D4DDFF83C84DFF800910026C5
:102D10002F68B7B1B8680099401A002811DC7968AB
:102D200031B9404649464FF4937255F0D1FA79686B
:102D300038683E602860384688472046FFF74CFFD9
:102D4000E6E7BDE8FE43FFF79BBF00BF5C404120C4
:102D5000B0B50C46054629B9EA482C4940F2C112E3
:102D600055F0B6FA4FF0FF30C5E90004B0BD00BF22
:102D7000B0B50446406820B9F2482449CB2255F04A
:102D8000A7FA206801300EBF00202046FFF798FF09
:102D90000A490022096829B18B68A568EB1A01D499
:102DA0000A46F7E7054B002A18BF13461C6021604E
:102DB000B2FA82F149090843B0BD00BFB8484120CA
:102DC00010B50446806821690844A0602046FFF7DA
:102DD000CFFF08B1FFF754FFE1682046BDE810407F
:102DE00008470000B0B50D46044629B9D548074943
:102DF0004FF4F37255F06CFA05484FF0FF31E5607F
:102E0000C4E90010B0BD00BFD0CE061C3ED3061CE6
:102E1000C12D011C002908BF01216FF00042914221
:102E200028BF11460161AFF30080BCB50546684676
:102E30000C46FFF7D1FE00982044A8602846FFF713
:102E400097FF08B1FFF71CFFBCBD002908BF012197
:102E50006FF00042914228BF1146FFF7E6BFE0B590
:102E60000168013109D0FFF72BFF30B16846FFF749
:102E7000B3FEBDE88C40FFF703BF8CBD2DE9F04FDA
:102E800087B0109C002989460192054698460E4657
:102E90000746069418BF4FF00109002818BF012506
:102EA0002CB9A848A8494FF49F7255F011FA207820
:102EB0003E2805D03C2801D101340694012002E0CF
:102EC000013400200694029006EB08004FF0000B3E
:102ED0000097049005EA090001254FF000090590CC
:102EE000384600200390207880B9BBF1000F00F035
:102EF000FC800399A9F101095C46CDF818B056FA97
:102F000081F0C9B24942013800EA0106BBF1000F65
:102F100003D05FEA096000F0E880207830380928A3
:102F200004D806A800F0F0F8069C054604F1010A52
:102F300001210320CDF818A094F80080A8F14202E6
:102F40000C2A29D8DFE802F051DA3DDADA5007DA44
:102F5000DADA62DA0700A8B2059A711C21F00101E1
:102F60004500002A66D0049A4E19964200F2C380AA
:102F7000029A22B138462A4655F0FFF95BE0002854
:102F800000F08E8031F8022B013812BA130C120EA9
:102F90003B707A700237F2E7B8F1530F06D0B8F100
:102FA0006E0F22D0B8F1730F40F0A8800498741C03
:102FB000844200F2A080B8F1530F3ED196F8009001
:102FC0003FE00599F01C20F00300002976D0049A18
:102FD000011D8A42C0F08F80029A0168002A68D0E1
:102FE0000A0A3970090C67E000210598ADB2E8B310
:102FF000049A701990427ED802980843012830D173
:10300000384631462A4655F0B8F92FE0A8B2850077
:10301000F01C20F00301059800283ED004984E19BA
:10302000864268D8029800284CD038462A4655F087
:10303000A4F933E04E192F4433E03046FFF7F8FA95
:103040008146059818B130783870DDF818A09AF8E4
:103050000000312812D0342812D032284DD102215C
:103060000FE0384631462A46FFF7EEFA2E442F4449
:10307000B8F16E0F1BD116F8015C21E0012100E0D0
:10308000042160180AF1010B03914942013701380C
:10309000CDF818B000EA010612E04E192F4406E000
:1030A0000E46B8F14E0F02D136F8025C08E0012559
:1030B00006E00A0C3A700A0A7A70B9700337061DE6
:1030C000069C10E700203A1885420AD00B580430BD
:1030D0001BBA1C0A137054701C0C1B0E9470D37016
:1030E000F1E70E1801251746EAE700980199381A0A
:1030F0000880002002E0012000E0032007B0BDE8C6
:10310000F08F00BFD0CE061C10B5044620B90D4884
:103110000D49E52255F0DCF82068411C216000785B
:1031200030380A78303A092A09D84A1C00EB800066
:103130002260097801EB400011463038F1E780B297
:1031400010BD00BFD0CE061C48D3061C2DE9F04FA1
:1031500087B00E46109F019211880446002E324619
:10316000069718BF0122002818BF01243D783E2D84
:1031700005D03C2D01D101370697012502E001372A
:103180000025069722400295334401444FF0010A7E
:103190004FF0000805464FF0000C0024009003910A
:1031A000049305920146397879B9B8F1000F00F01F
:1031B0003B8155FA84F0E1B2ACF1010C4746CDF801
:1031C00018804942013800EA0105B8F1000F03D028
:1031D0005FEA0C6100F0288139783039092906D876
:1031E00006A86746FFF790FFBC46069F824607F198
:1031F000010901210320CDF8189097F800B0ABF138
:1032000042020C2A3AD8DFE812F0670010014800A9
:103210001001100166000D00100110011001820064
:1032200010010D001FFA8AF0059B691C274621F04A
:1032300001014200002B00F08880049BB4189C42DE
:1032400000F20481039B8D189D4200F20181029BD4
:1032500033B108463146664655F08FF8B446B8E0BB
:10326000002800F0B480327873780138023642EAE0
:10327000032212BA120C21F8022BF1E7BBF1530F13
:1032800066D0BBF16E0F27D0BBF1730F40F0CD803D
:103290003046FFF7CDF984465CE00599E81C20F044
:1032A0000300002900F0A580049AF11C914200F26D
:1032B000C780039A011D8A42C0F0C48031787378B8
:1032C0002546B278029C1B02002C00F08D80194329
:1032D00041EA02418BE0002105981FFA8AF7002895
:1032E0005BD0049AF019904200F2AA80039AE81980
:1032F000904200F2A78002980843012844D1284652
:1033000031463A46A146644655F037F843E01FFA85
:103310008AF08200E81C20F003010598002851D0B3
:1033200004982746B418844200F2908003988D18C0
:10333000854200F28D80029800285ED00846314612
:10334000664655F01AF8B44649E0B4188D1840E0C6
:1033500096F800C0059858B10499701C88426FD83F
:103360000399681C88426DD830782870DDF8189071
:1033700099F8000001350136312816D0342816D0CE
:10338000322861D1022413E0284631463A46A1464C
:103390006446FFF759F9A4464C463E443D44BBF110
:1033A0006E0F11D116F801AC25E0012400E00424D1
:1033B000281909F1010861420138CDF8188000EAA6
:1033C000010518E016448D184FF0010A13E00D4670
:1033D0003446BBF14E0F02D135F802AC01E04FF09C
:1033E000010A26463C4606E043EA014111432C46C9
:1033F00001600336051D069FD5E600203318824282
:103400000DD01C785D7844EA05249D78DB7844EA89
:10341000054444EA03631BBA0B500430EEE70D1871
:103420004FF0010A1E46DDE700200099019A691A53
:10343000118004998E4288BF012007B0BDE8F08F4B
:103440000120F2E70220F0E70320EEE7012000E090
:1034500002200D46E9E70A0A017042700A0C090EC3
:103460008270C17070470A0A017042700A0C090E1E
:103470008270C17070470A0A017042700A0C090E0E
:103480008270C17070470A0A017042700A0C090EFE
:103490008270C17070470A0A017042700A0C090EEE
:1034A0008270C1707047000000B170470249082067
:1034B000012213F097BD00BF8494061C0000000099
:1034C0002DE9F84F2DED0E4BB0EE408A56EC107BF7
:1034D00020EAE0708A4600211C469146F0EE608AA0
:1034E0009FED890B116031464E28A8BF4E200190F8
:1034F00058EC105B384643462A46F8F7D8FF60B9C7
:103500009FED830B01203A463346C9F8000051EC89
:10351000100BF8F7AFFE41EC180BB0EE480ADDF8DF
:1035200060B006A8F0EE680A55F07CF89DED06AB99
:10353000B0EE408A2A464346F0EE608A51EC1A0B00
:10354000F8F7D0FF00284FD19FED730BCDE902585B
:103550004FF0000BCDF800A056EC105B9FED720B06
:1035600058EC107BDDE902235AEC1A9B5146484681
:10357000F8F7B8FF20BB484651462A463346F8F7CD
:10358000F1FE41EC100B06A855F04CF851EC100B75
:10359000B0EE409A3A464346F0EE609AF8F7C9FD1D
:1035A0002A463346F8F76CFEF8F7C6FF04EB0B012A
:1035B00030309DED06ABABF1010B81F84F00D1E748
:1035C000DDF800A0CBF1000500208DED049B8542C5
:1035D00006D02118594491F8501021540130F6E7D3
:1035E000DDF860B02E462CE051EC180B2A4643461D
:1035F000F8F727FF18BB9FED480B012559EC108BFE
:103600009FED470B56EC107B51EC180BB0EE489A2F
:1036100042464B46F0EE689AF8F732FE3A46334699
:1036200041EC180BF8F728FF013D0028ECD18DED97
:10363000048BB0EE498A0026F0EE698A01E000258D
:103640000026BBF1000FDDF804B0CAF80050A04618
:1036500008BFAB44BBF1000F29D49FED2F0B04EB47
:103660000B080DF1100957EC105B5E451ADC4F2E6C
:1036700018D851EC180B2A463B46F8F701FE41ECEE
:10368000100B484654F0CEFFB0EE408AF0EE608A50
:103690009DED040B51EC100BF8F74EFF3030A055A8
:1036A0000136E2E7BBF1500F0ADB04F14F080020BE
:1036B00088F800002046BDEC0E4B01B0BDE8F08F4D
:1036C00098F80000189D31214246431D302088F8AB
:1036D0000030DBB23A2BEAD3A242107004D912F8C0
:1036E000013D013313700DE01170DAF8003003F181
:1036F0000103CAF800302DB9A04588BF88F8000042
:1037000008F101081378E4E7000000000000000061
:1037100000000000000000800000000000002440C5
:10372000000000000000F03FB81E85EB51B89E3F3E
:10373000F23818BF1220704710B5044612F070FE20
:10374000204612F023F92046BDE810404BF0E0B8C7
:103750000249401AB0FA80F040097047B097061C41
:1037600010B5044630B906490620012213F03AFC90
:1037700000F026F82046BDE8104000F091B800BFE8
:103780009094061C10B504464FF4885000214FF663
:103790001142012313F0D4FAB4F1A53F04D0B4F1DF
:1037A000C33F03D1002100E003210170BDE81040B8
:1037B0000FF002BB01490880704700BFDC43412085
:1037C0001CB504201C4C0DF107018DF807004E4874
:1037D000224603683220984708B10248206000F072
:1037E00003F81CBD1A031E01F8B5042554F03EFD74
:1037F000114E0446FF203F2D02D070550135FAE7E7
:1038000000270EA5042F0ED0F05DFF2809D03B281D
:1038100005D33B212A46512354F04BFDF05D304443
:1038200007710137EEE70020FEF7CEFD2046BDE828
:10383000F84054F020BD00BF9C4341206462675FA4
:103840007377646961672E6300000000B0B5954826
:1038500004258178C2780379447905710025457182
:1038600041EA0221CE4A41EA0341536841EA046138
:1038700019400B0A8171C3710B0C03720323116091
:10388000090E4570C3704172E94801680220BDE825
:10389000B0400847E5494A6810400860704700BFDB
:1038A000E0B504218DF8071048B91448144902689E
:1038B00002209047E8481349416000F0B9F81248E7
:1038C0000DF107010DF1030203682F20984708B19D
:1038D00000200DE09DF803009DF8041040EA01204F
:1038E0009DF8051040EA01409DF8061040EA01608D
:1038F000EA49086000F0DEFC8CBD00BF5840412062
:103900000D39011CFFEF19005043412080B50448D8
:10391000016802208847BDE8804000F007BD00BF75
:103920005C404120FEB5054654F0A0FC594E0446CB
:10393000F1680878552818D1708A77684A190432D6
:103940003844824201D20F4603E0B2688A4208BF7F
:10395000B7603978552908D179190431814204D2E8
:10396000B06887420CD281420AD3307800250F28F4
:103970001CBF01303070204654F07DFC2846FEBD4F
:10398000280AF7607D70AA21B870281F78713970F5
:103990000121000A3971B871308A01303082F87122
:1039A000000A3872684654F0DEFC0098010A78720A
:1039B000B972010CF972010E39733178090141EACB
:1039C0001060387300203070F068284407F10D054E
:1039D000C11CF1605521C170CDE700BF70B554F036
:1039E00045FC114D0446A8680178552905D12A499E
:1039F0000EA0F02254F06CFCA86855212A1D01701D
:103A000007CA4B788E7843EA0623194411F8033F1E
:103A1000914208BF0846552B18BF0846A8602046AB
:103A2000BDE8704054F027BC284441204153530066
:103A3000B0B5184C0025C4E90155C4E90355FDF79C
:103A4000CBF9C168C08B258260825520C4E9011181
:103A5000E1600870B0BD00BF70B554F007FC0D4EBA
:103A60000446D6E901158D4203D3708A0844854285
:103A700005D3094A2846DF2354F01BFCB56815F826
:103A8000016B204654F0F7FBAA2E18BF00252846EC
:103A900070BD00BF2844412053D3061C01480230AA
:103AA000704700BFD848412010B50446E0488078F0
:103AB000400716D560880D3080B2FFF733FF80B124
:103AC0003521C54B01706288A0F8012003302188A0
:103AD000194454F0ADFBD94801680220BDE81040FC
:103AE000084710BD2DE9F0410446E448807880077E
:103AF00027D5B948D04F0D46804640EA01100F2126
:103B0000861C7889305A01EB1020FFF70BFFC0B1FB
:103B10000470290108F104047A892143B35A8C5AAC
:103B20001A0AA0F80140A0F8032005307B89C95A81
:103B3000414454F07DFBE24801680220BDE8F041B9
:103B40000847BDE8F08100BFF8B50646EC4880782C
:103B5000800724D501F10E0014460D46FFF7E2FE62
:103B6000E8B107463320B4493870C6EBC60009896E
:103B700001EB80000B49405A00F00F00787030468E
:103B800002F096FCB870381D21462A46FD7054F0AC
:103B90004FFBE94801680220BDE8F8400847F8BD3E
:103BA000D0484120048041202DE9FC410646E148EF
:103BB0008078800738D513200D46FFF7B3FE98B301
:103BC000044634209B49207041EA06109A4E8846EC
:103BD0007189475A284602F071FB7188942207F0D8
:103BE0000F0747EA002015FB02114144CA88130A57
:103BF0008DF806208DF805300D892E0A8DF80450B9
:103C00008DF803604989A4F80100E27023716571A1
:103C1000A671080AE17120728DF802108DF801007A
:103C2000E648016802208847BDE8FC81D048412071
:103C30007840412010B50446DF480078C0060AD518
:103C40000B20FFF76FFE30B10470DC4801680220E2
:103C5000BDE81040084710BDD0484120F8B50646E1
:103C6000EB480078400617D5142014460D46FFF7A0
:103C700059FE88B10746102031463870781CFFF78E
:103C8000EAFBB81D21467D71FFF7E5FBE1480168BD
:103C90000220BDE8F8400847F8BD00BFD0484120E9
:103CA000F8B50646EB488078C00722D002F1100034
:103CB0001C4615460F4680B2FFF734FEC8B1390ADC
:103CC0008770012E2A46C1704FF0020105714170C4
:103CD0004FF0620108BF61210170290A417106306D
:103CE000214654F0A5FAEE4801680220BDE8F840EC
:103CF0000847F8BD70B50646E8488078C00718D078
:103D000001F10F0014460D46FFF70CFE88B140F29A
:103D10006111867005712A460180310AC170053033
:103D2000214654F085FAEF4801680220BDE8704052
:103D3000084770BDF8B50646E9488078C00717D037
:103D400002F10E001C4615460F46FFF7EBFD78B159
:103D50000421C570877006702A46417004302146E0
:103D600054F066FADF4801680220BDE8F8400847D1
:103D7000F8BD00BF2DE9FE430546D948807880078D
:103D800028D514200C46FFF7CDFD18B30646292090
:103D90002949F44A3070C5EBC500A7189146098936
:103DA00042EA80000844B0F80480284602F080FB14
:103DB000B98854F80920B07008F00F007070EB4813
:103DC000C6F80320A6F80710ADF8081001920168A4
:103DD00002208847BDE8FE83008041202DE9F041A4
:103DE0000646EF488078800720D5132014460D46FC
:103DF000FFF798FDD0B107463020DB4938700D48F9
:103E000040EA0610498930F80180304602F056FA3F
:103E1000B87008F00F00C7F80350A7F80740787093
:103E2000F44801680220BDE8F0410847BDE8F08190
:103E3000D04841200280412030414120784041203B
:103E4000B0B50D4604460A2906D8012040F20C41BF
:103E5000A840084200D0B0BDE54800784007FAD538
:103E60000C20FFF75FFD0028F5D045700470F54881
:103E700001680220BDE8B040084700BFD04841209B
:103E8000F8B50746ED480078C00718D012201D4647
:103E900014460E46FFF746FD88B1390A4770817017
:103EA000310AC670017101214471C5710170210A86
:103EB0008171E44801680220BDE8F8400847F8BD78
:103EC00078404120B0B50446DC480078C00715D0E2
:103ED000658905F1130080B2FFF724FD70B105F18B
:103EE0000802002100F8011B92B2211D54F0A0F934
:103EF000D44801680220BDE8B0400847B0BD00BF0B
:103F0000D048412070B50646E9488078C00610D5F3
:103F10000E2015460C46FFF705FD50B1210A4470EE
:103F20000670C5708170C74801680220BDE8704006
:103F3000084770BDD048412078404120F8B59A42EA
:103F400019D00646DA484078400614D510201D46A0
:103F500014460F46FFF7E6FC68B123214670C77090
:103F60000170310A817045710471B6480168022000
:103F7000BDE8F8400847F8BDF8B50746CC4840789A
:103F8000400717D502F10E001C4615460E46FFF7F6
:103F9000C9FC78B1310A46700770C5702A46817035
:103FA0000430214654F044F9A64801680220BDE8D7
:103FB000F8400847F8BD00BFD04841207840412074
:103FC000F8B50746BA48407800071FD502F110003F
:103FD0001C4615460E46FFF7A5FCB8B1310A4670DF
:103FE0000770C5706A1E8170217801F001010171AE
:103FF00014F8011B490841710630214654F018F9A4
:10400000904801680220BDE8F8400847F8BD00BFAD
:10401000D048412078404120F8B50746A448407870
:10402000000715D50F201C4615460E46FFF77AFCF3
:1040300070B1310A46700770C5707F2D817018BF4E
:10404000002404717F4801680220BDE8F840084759
:10405000F8BD00BFD04841202DE9F0410646944804
:104060000078000717D51420984615460F46FFF72D
:1040700059FC80B104464770067002302946FFF7AC
:10408000EAF9A01D4146FFF7E6F96E4801680220F3
:10409000BDE8F0410847BDE8F08100BFD0484120AD
:1040A0007840412070B5054681484078800715D595
:1040B000292014460E46FFF735FC78B1132186708F
:1040C00045701C22017027490330214454F0B0F898
:1040D0005C4801680220BDE87040084770BD00BF21
:1040E000D0484120784041202DE9FC4106467048E7
:1040F0008078800734D5887F0C461530FFF712FC96
:1041000070B30546312017492870C6EBC6008846B3
:1041100041EA80001449098908448788304602F042
:10412000C7F923896668A27FA17DA87007F00F00F8
:104130006870C5F80360A5F807306972AA72009626
:10414000ADF8043094F82200218C084418FA80F16C
:1041500005F10B0054F06CF8EF4801680220884725
:10416000BDE8FC8100804120304141207840412061
:10417000B0B505464E48407880060FD50F200C4656
:10418000FFF7D0FB50B100F8015B2146FFF763F960
:10419000E14801680220BDE8B0400847B0BD00BF5B
:1041A000D0484120F8B506464148407880061DD5E4
:1041B0003C2014460D46FFF7B5FBB8B107461D205D
:1041C00031463870781CFFF746F9781D2146FFF715
:1041D00042F907F10A00214628227D7254F028F89E
:1041E000CD4801680220BDE8F8400847F8BD00BF8F
:1041F000D04841207840412070B504462C48407892
:10420000800619D51820FFF78DFBA8B1054621209F
:104210000B4E21462870681CB047A07E6871A81D0F
:104220006169B047616805F10A00B047BA480168A2
:104230000220BDE87040084770BD00BFD048412053
:104240005734011C784041202DE9F84304461848B2
:104250000078800629D5DDF820802520994616466D
:104260000D46FFF75FFB00B30746047028465C214C
:10427000F7F754FF411C781CF7F738FF300A7E74BB
:104280004946B87407F11300FFF7E5F807F1170086
:104290004146FFF7E0F853F0E9FF044600F046F826
:1042A0002046BDE8F84353F0E6BFBDE8F88300BF01
:1042B000D048412021480021C0F80610C0F8021063
:1042C0004FF481710180704710B51C4C2078012893
:1042D00006BF01206070FFF781FB02202070BDE85F
:1042E000104000F001B800BF10B5144C607850B118
:1042F000FFF7B2FBB0B10178427841EA02214A1ED1
:10430000C11C002006E02079617940EA0120E11C0F
:10431000C21C0120044B207092B20620BDE8104060
:1043200004F012BA10BD00BFC942011C0348007856
:10433000022808BFFFF7D8BF704700BFD848412008
:1043400000210022092908BF52F090BC50F821300A
:104350005FEA52024FEA330240F8212003F00102E3
:104360000131EFE72DE9F04F9DB0279C002C41D0A3
:104370000F4606464FF434700121984615464FF01B
:10438000010A12F0AFFCB8B3DDF898904FF4347125
:104390008346F7F780FECBE9014900200DF10409BF
:1043A0005A4C3146019009F10400A0470BF5B0705A
:1043B0003946A0470BF5BE702946A0470BF5CA70D9
:1043C0001C21F7F768FE48460121CBF898A101F0BF
:1043D000E2FC60B90BF5AE750121284601F0DBFC6B
:1043E00028B90BF5BC70012101F0D5FC40B158464D
:1043F00012F066FA122000E007201DB0BDE8F08F31
:10440000B8F1000F04D1284600F094FE0028EED049
:104410000DF104090121484601F0CEFC0446029842
:104420000BF5017A002600F00F073C488046301D4E
:104430000FB9A04228D2F90701D1002117E007F0F7
:104440000701A04238BFA7F110013A0758BF39460B
:10445000CA1D0E2ACBD811F00102C8D07F1A102F26
:10446000C5D801224346BA4012EA080FBFD00AF865
:10447000061081B2484601F080FCC000013600EB16
:104480006707112FD3DBB2E7601C8642AFD8CBF8A9
:10449000C8620BF10C0629465422304653F072FFD5
:1044A00008AD54212846F7F7F6FD2846314600F0BE
:1044B0008DFC00289BD0164808AD10F154040CD098
:1044C0000BEB00012A4601F5D87001F5AE7100F042
:1044D0000BFB00282046F0D189E7304601F0AEFC06
:1044E00000283FF484AF01205946ABF8CD029BF879
:1044F000C80201388BF8CC02064853F0EEFE97480C
:10450000016801208847002077E700BFBB4D011CF0
:10451000B0FEFFFFF8484120784041200101010032
:104520002DE9F04FADF5057D0D469099002900F07D
:104530009180DFF840AF009000200DF1880B1E46FF
:1045400017460DF1E008389042902D9022900BF123
:104550002C099AF81700FF280AD0FDF727FF9AF8D0
:1045600017100122C90002FA01F10843FDF72CFFE0
:10457000DDF838A208F104000021002212F1200326
:104580000DD0AB18BC18DB69E46943500BEB010399
:1045900004315C60B418043AE4691C63EEE76B4CC8
:1045A0004046A04722A8A0474846A0474FF0000B2E
:1045B000BAF1000FCDF8DCB0CDF8B0B04CD101AEFF
:1045C0002C213046F7F767FD7AAC2C212046F7F70F
:1045D00062FD6FA82C21F7F75EFD0DF5C87A2C213E
:1045E0005046F7F758FD59AF2C213846F7F753FDE1
:1045F0004EA82C21F7F74FFD43A82C21F7F74BFDD0
:10460000534D484649463246A8470DF18808224690
:1046100040464146A8476FAE404621463246A8472D
:104620004C4C404641465246A047504641463A46C9
:10463000A0474EAD304639462A46FAF71DFE2846B9
:1046400043AD45492A46A04701A829462422F7F749
:1046500040FD08B1122473E04FF4AA70022112F059
:104660002BFB0646C0F850B1009801AD22A92422C8
:1046700086F84C01284653F0DBFD2B98494624224E
:10468000CDF82CB00A9005F12C0053F0D1FD3698EE
:104690002421159005F15400F7F7FDFC06F18C0478
:1046A00001272846CDF884B02146CDE91F77F8F7D9
:1046B0005FFC06F5887038A9242253F0B9FDDDE9C6
:1046C0004101C6E94D0106F108002421F7F7E3FC9A
:1046D00006F130002421F762F7F7DDFC06F15C00FB
:1046E0002821C6E91577F7F7D6FC3F20C6E9217BDC
:1046F000C6E951B00920706096F84C01022810D12B
:1047000040F2BC70022112F0D7FA0146C6F85001FF
:104710002046F8F72DFC0020C6F84801032086F853
:104720004C0190983146C6F83C018F98C6F840017C
:10473000D74853F0D2FD094800240168002088477B
:1047400020460DF5057DBDE8F08F00BF6D6C061CA1
:104750004DF0001CD5C8001CC496061C78404120B2
:104760002DE9F047C2B0C94FF87DFF2809D0FDF709
:104770001DFEF97D0222C90002FA01F10843FDF78E
:1047800023FEDFF80C83404653F09DFD002800F027
:1047900078800546F87D6968002900F07980FF2857
:1047A00009D0FDF703FEF97D0422C90002FA01F1E8
:1047B0000843FDF709FE95F84C01421E032A00F25A
:1047C000F180D5F84801B349DFE802F00402A6C140
:1047D000D5F85011C0F1FF06C0F1BF0305F588728E
:1047E00000F01F0405F1080A76095B0902EB860652
:1047F00002EB830376685B68E640E34006F001065F
:1048000063F34106C0F17F035B0902EB83035B683E
:10481000E34003F0010346EA8303C0F13F06760953
:1048200002EB86025268E24002F0010243EAC20251
:10483000AAB102EB42100DF1840901EB8000494658
:104840008438F8F795FB6C46484651462246F8F7FF
:1048500077FA20465146F8F78BFBD5F84801002837
:1048600000F088806C4650462146F8F7A5FB2046AC
:104870005146F8F77DFBD5F848010138C5F84801E5
:1048800090E085A085A140F62F1253F021FD9AE01B
:10489000FF2809D0FDF78AFDF97D0822C90002FA38
:1048A00001F10843FDF790FD21AE58213046F7F79E
:1048B000F2FB05F1080006F12C023146F8F73CFC4A
:1048C000D5F8500108B111F0FBFF311D00226846F8
:1048D00012F1080305D000EB820310C9013ADC6134
:1048E000F6E706F13001002212F1080305D000EBD3
:1048F000820310C9013ADC63F6E7D5E94F20694627
:104900009047284611F0DCFFF87DFF285BD0FDF7CB
:104910004DFDF97D082250E005F18C0621AC3046B2
:104920002146F8F749FB20463146F8F721FBD5F838
:104930004801411CBF28C5F848111ED07F282AD045
:104940003F282FD1D5F8500100F1840127E0C11E86
:10495000042900F27C80DFE801F0037A5A647000D9
:10496000D5F8500100F1840100F58472F8F7E8F9F8
:10497000052083E70020686014E0D5F8500100F5B9
:1049800067713046F8F7F4FA0320C5F848010420AF
:1049900085F84C0106E0D5F8500100F5C6713046A7
:1049A000F8F7E6FA3A48294653F097FCF87DFF28D5
:1049B00009D0FDF7FBFCF97D0422C90002FA01F1E0
:1049C0008843FDF701FDD8F8000080B9454801682B
:1049D00000208847F87DFF2816D0FDF7E7FCF97D19
:1049E0000122C90002FA01F18843FDF7EDFCF87DD0
:1049F000FF2809D0FDF7DAFCF97D0222C90002FA8E
:104A000001F18843FDF7E0FC42B0BDE8F087D5F83E
:104A1000500100F5C67100F50472F8F791F906200F
:104A20002CE7D5F8502102F1840002F5C67102F599
:104A30002572F8F785F9072020E7D5F8500100F531
:104A4000257100F54672F8F77BF9092016E7A0F109
:104A500009010629A6D8D5F8503100EB401001EB2A
:104A6000411103EB800003EB8101A0F1840203F507
:104A70006770F8F765F9D5F848010F2804D13F2091
:104A8000C5F84801022083E70130F7E6A043412042
:104A9000E44841206088061C415353006563635F0E
:104AA000703235362E63000010B50D4C002124689D
:104AB0005CB1A268824201D02146F8E7084822464C
:104AC00053F065FC204611F0FBFE0548006800B17C
:104AD00010BD044801680120BDE81040084700BF30
:104AE000F84841205C4041202DE9F04F93B00E463C
:104AF0000546C4200221914612F0DEF8C421044686
:104B0000F7F7C9FA4E4506D0304600F00FFB60B10A
:104B1000284631460FE0204611F0D2FE28463146A5
:104B200013B0BDE8F04F00F051B9484600F0FEFA6E
:104B300060B128464946542253F024FC204611F027
:104B4000BFFE0125284613B0BDE8F08F04F18C00AC
:104B500004F1540A04F11C0B039004F17000059059
:104B600004F13800049009F13800029001F0F5F8E2
:104B700080B1B34504D0584631461C2253F058FB4F
:104B8000049806F11C0188421BD004981C2253F0A3
:104B90004FFB16E0DDF808802046414600F0CAFED3
:104BA0005746DFF8D8A8584631462246D047204617
:104BB00021464246D047049806F11C012246D047C0
:104BC000BA4606F13807384601F0C7F8019788B1B0
:104BD000CA4504D0504649461C2253F029FB05988B
:104BE00009F11C01D946884218D005981C2253F0BF
:104BF0001FFB13E02046394600F09CFEDFF87C885E
:104C0000504649462246C047204621463A46C047BC
:104C1000059809F11C012246C047D946039F494621
:104C20005246384600F099FE002800F0B380DDE9D6
:104C3000041204F1A80B584600F08FFE002800F083
:104C4000A9803846012101F0A6F868B15846012133
:104C500001F0A1F860B32846314600F0B7F80546E8
:104C6000204611F02DFE6DE748464946524600F0B9
:104C700075FC002800F08E800498059A014600F02B
:104C80006DFC002800F08680DDF80480404601F0CD
:104C900064F80646029801F060F87EB1A0B105F113
:104CA0003800874224D039461C2253F0C1FA1FE055
:104CB00005F138001C21F7F7EEF93FE768B14445EC
:104CC00010D02046414604E0029884420AD002995E
:104CD00020461C2253F0ACFA04E0029A20464146DA
:104CE00000F0D1FD05F1380021463A4600F0CBFD39
:104CF0002046594600F01EFE059E3946304600F01B
:104D000019FE50464946324600F0BDFD2846214670
:104D1000524600F022FEE8B32046294600F01AFD74
:104D2000C0B320465146224600F017FE90B31C4EF9
:104D3000204621465A46B047059938463A46B0477C
:104D4000049948463A46B047204621464A4600F074
:104D500004FEF8B12079C00707D105F11C002146F7
:104D60000122012500F00FFF7AE706AE214630460A
:104D700000F0AAFB70B130463146022200F003FF7A
:104D800005F11C00B0423FF4D9AE06A91C2253F035
:104D90004FFAD3E6204611F093FD0025D2E600BF7E
:104DA0008758011C0022D2B2172A88BF704702F030
:104DB000FC03CB5883500432F5E70022182A08BFC1
:104DC00070478B5883500432F8E700002DE9F04318
:104DD0009DB00DF158090D4604461C214846F7F7D1
:104DE0005AF90FA81C21F7F756F908A81C21F7F764
:104DF00052F901A81C21F7F74EF9284600F096F960
:104E000030B104F138001C21F7F745F90120A4E086
:104E100005F13807384600F0A0FFC8B116AE2946A4
:104E2000304600F087FD0FA8314600F093FC0028C3
:104E300000F0928016A80FAA014600F08FFB002810
:104E400000F08A80464816A900F154020FA823E01A
:104E50000FAE3946304600F06DFD16A829463246A1
:104E600000F07CFB002877D008A80FAA294600F0A4
:104E700074FD002870D00DF13C0816AE08AA40461B
:104E8000314600F000FD3046414600F063FC00284A
:104E900062D00FA816A9024600F060FB00285BD084
:104EA000384600F05AFF05F11C0838B1C1450AD058
:104EB00016A841461C2253F0BBF904E016A841464F
:104EC0003A4600F0E0FC04F1380016A900F042FC7C
:104ED000002841D001AE4146304600F02BFD08AF1E
:104EE00029463246384600F0CEFC38463946022282
:104EF00000F051FC80B316A808A900F02BFC58B3B1
:104F00000FA9204600F016FD16AA2046214600F003
:104F100024FD08B316AD01AE2846314600F00AFD67
:104F200030462946032200F036FCA8B116A808A98D
:104F3000224600F012FD78B116AD0FA928462A4688
:104F400000F0A1FC04F11C0001AA294600F005FDB7
:104F5000002818BF012000E000201DB0BDE8F0834C
:104F60005099061C1CB5049CCDE900340023FFF7C2
:104F7000F9F91CBDF0B58DB01C4615460E46C8B1FA
:104F800012A13046182253F053F946480DF1040C93
:104F900090E8CE004069ACE8CE000690434890E827
:104FA000CE0040690C9007A8CEC001AA0021284677
:104FB000A04707E0304600F023F830462946224655
:104FC00000F010F800200DB0F0BD00BFFF18A5F4F0
:104FD000EFD25E622B140CCFD6F15D0027DC8D91F1
:104FE000865F9107E0B5CDE900120349034A01232A
:104FF000FFF7B8F98CBD00BF0499061C1C99061C6C
:105000002DE9F84F04461E4F1E4D14300FF278085C
:1050100004F1100904F10C0A04F1080B261D00909C
:10502000B84701462046A847B84701463046A8473A
:10503000B84701465846A847B84701465046A847D2
:10504000B84701464846A847B84701460098A847D0
:105050001720002804D4215C01380029F9D002E08F
:1050600020780028DCD01720002807D418F800107A
:10507000225C8A42D4D8A0F10100F5D2BDE8F88FB5
:1050800065C0001C6734011C181469DAD8E4350ABD
:105090001B7CEFCCFFFFFFFFFFFFFFFFFFFFFF7F4A
:1050A00000487047C099061C00487047D899061CF4
:1050B00010B560B1F648016801208847EE4C2068C1
:1050C00050B1204653F0FFF811F0FAFBF7E705481E
:1050D0000549026801209047E748BDE8104053F0B9
:1050E00029B900BF58404120E951011CB0B588B032
:1050F000044600F01BF808B1012514E01C3401211E
:105100000125204600F047FE68B901A8A04204D05E
:1051100001A821461C2253F08BF8EA4901AA204637
:1051200000F0E5FD0546284608B0B0BD3830012145
:1051300000F031BE2DE9F04FB1B005462AA81C2180
:10514000F6F7A9FF23AC1C212046F6F7A4FF0DF1CA
:1051500070091C214846F6F79EFF15AF1C21384602
:10516000F6F799FF0DF1380B1C215846F6F793FF1F
:1051700007AE1C213046F6F78EFFEA461C2150464A
:10518000F6F789FF05F11C01DFF8E88D2AA80A4629
:10519000C047204629462A46C04748462946224657
:1051A000C0470F4C384629462A46A047584629464C
:1051B0003A46A047304649465A4600F0CEFB094AD7
:1051C00050463146A0472AA80AF1040118220430AB
:1051D000F6F77FFFB0FA80F0400931B0BDE8F08FFC
:1051E0005D55011C3499061C2DE9F04F95B0A14F77
:1051F000F87DFF2809D0FDF7D9F8F97D0222C90012
:1052000002FA01F10843FDF7DFF89B4C2168002901
:10521000084600915DD0F87DFF2809D0FDF7C6F85B
:10522000F97D0422C90002FA01F10843FDF7CCF828
:105230000098082490F8CE1290F8CC6290F8CDA295
:1052400000F5017900F5D8750191200648D019F9CB
:1052500006B0BAF1000F06D128462946FFF7B6FD81
:10526000002800F09780BBF1000F2ED0D8465FFADF
:105270008BF048BFCBF100080199CFB2B7EBD01F3C
:105280000CD0BAF1000F05D12846FFF72FFF0028F8
:1052900000F08080B7FA87F04009019000994FEA4A
:1052A00058005422BAF1000F00FB021000F10C026A
:1052B000284604D12946FFF717FC20B96AE01146B9
:1052C000542253F05FF84FF0000A013C013EBCDA73
:1052D00012E06BA06BA140F6193252F0F9FFA3E087
:1052E000701C09D0DDE90001012580F8CDA280F80D
:1052F000CC6280F8CE124EE0BAF1000F42D0009896
:105300001C2100F5F470F6F7C6FE02A81C21F6F782
:10531000C2FE0EA81C21F6F7BEFE009800F5F4763A
:10532000304600F01AFD534F534C48BB2846FFF758
:10533000FDFE28BB02A8314600F034F9002800F039
:1053400096800DF138090DF108084846414600F0F5
:10535000F1FADFF828A1284649462A46D0474846B0
:1053600049464246D047009D494605F5E67002464B
:10537000D04730461C21F6F78EFE0120C5F8EC011F
:1053800000250AE001980006BFD02846FFF7AEFED0
:105390000028BAD10225374F374CF87DFF2809D0B5
:1053A000FDF704F8F97D0422C90002FA01F18843EF
:1053B000FDF70AF845F00200022835D1F87DFF28F4
:1053C00009D0FCF7F3FFF97D0822C90002FA01F1C8
:1053D0000843FCF7F9FF284852F075FF009E0DF1D5
:1053E0000808404606F5DA71FFF7DCFC08F1180002
:1053F00006F5E871FFF7D6FCD6E90130002D18BF9D
:105400001F25294642469847304611F059FAF87D43
:10541000FF2809D0FCF7CAFFF97D0822C90002FA6B
:1054200001F18843FCF7D0FF206880B918480124B7
:10543000016801208847F87DFF2815D0FCF7B6FFEA
:10544000F97DC90004FA01F18843FCF7BDFFF87D3E
:10545000FF2809D0FCF7AAFFF97D0222C90002FA51
:1054600001F18843FCF7B0FF15B0BDE8F08F0225CD
:1054700093E700BFA0434120F84841208758011C12
:10548000415353006563635F703139322E6300000E
:105490005C404120016811B14FF0FF30704700F0CF
:1054A00001B8000010B50221044600F085FCC028B8
:1054B000C4BF012010BDA6492046BDE8104000F041
:1054C00004BC00BFF099061CB0B5044608680D4640
:1054D00078B19F48294600F0F8FBB0F1FF3F11DD9D
:1054E0009B4920462A4600F002FC0146002031B9C3
:1054F000B0BD974A2046294600F0D8FB0020206026
:105500000120B0BD924A2046294600F0F0FB002859
:105510000EBF002001202060B0BD00BFB0B50D4619
:105520000446814208D020463421F6F7B4FD2046D7
:1055300029461C2252F07CFE00210120072808D0B9
:1055400055F8202041EA420144F82010D10F0130E3
:10555000F4E711B1012144F82010B0BDF0B58DB0D1
:105560006D460F460446342116462846F6F793FD4D
:1055700028463946324600F099FB2846FFF792FF4D
:10558000002804D46946204600F0C2FB07E0A5428B
:1055900004D0694620461C2252F04AFE01200DB07C
:1055A000F0BD00002DE9F04FA9B00C46804614A8CC
:1055B0001C21F6F770FD0DAD1C212846F6F76BFD9A
:1055C00022A81C21F6F767FD01201C2123901BA8AF
:1055D000F6F761FDA5420ED00DA821461C2252F01F
:1055E00027FE5B490D9C14A81C2252F021FE0020CE
:1055F00014906CB906E0564914A81C2252F018FE0B
:10560000002014900DA814A900F05FFB00280FD40F
:105610006C46182104F11C00F6F73DFD0DAD204647
:105620001C22294652F004FE2846214600F0E2F9E9
:105630000DF1340A22AF6C460DF150090DF16C0BDF
:105640005046012100F0A7FB00286FD10025AEB223
:105650005046314600F091FBD0B99DF88C000135E1
:10566000C00705D138463946012200F08CFAEEE732
:1056700020463946FFF728FF002864D020462146FF
:10568000022200F080FA3846214600F0B3F9DEE746
:10569000280404D050465146324600F043FA002513
:1056A000AEB24846314600F068FBC8B99DF87000BC
:1056B0000135C00705D158465946012200F063FA6A
:1056C000EEE720465946FFF7FFFEE0B320462146AD
:1056D000022200F058FA5846214600F08BF9DFE725
:1056E000280404D048464946324600F01BFA50468A
:1056F000494600F0EAFA002809D4384639465A46A5
:1057000000F02BF9F8B1504651464A4608E0584699
:1057100059463A4600F021F9A8B148464946524652
:1057200000F01BF900287FF48BAF0CE014A800F008
:1057300014FB40B1C34504D01BA940461C2252F0C3
:1057400077FD012000E0002029B0BDE8F08F00BF08
:10575000F099061C70B58EB001AD0E46044634219A
:105760002846F6F798FC28463146FFF7D7FE28462C
:10577000FFF790FE002804D401A9204600F0C8FAE3
:1057800007E0A54204D001A920461C2252F050FD9A
:1057900001200EB070BD2DE9F04F8FB00DF1080A59
:1057A0000F460190342193465046F6F774FCBA45F3
:1057B00004D002A839461C2252F03AFD0AF118081A
:1057C0000AF10409BBF1010F52DB5046012100F040
:1057D000F3FAC0284ADCC0F1C0075F45C8BF5F4686
:1057E00037B1B8B2B0F5906F09D9504634212EE0E8
:1057F00050465146FFF792FEABF1010B2BE0C7F389
:105800004A1C17F01F0114D00AEB8C03C1F12002CF
:105810000020461D18D458F8205003EB80060138AC
:1058200005FA01F4B46125FA02F4F5692C43F46138
:10583000EFE70AEB8C0006214A1E05D45AF8213006
:1058400040F821301146F7E74FEA8C014846F6F759
:1058500022FCABEB070B5046FFF71CFE0028B1D42F
:105860005046514600F054FA0028ABD1002007E022
:105870000198824503D002A91C2252F0D9FC0120D4
:105880000FB0BDE8F08F2DE9F04F8FB00E460190BC
:1058900002A834211746F6F7FEFBBE423FD0304641
:1058A00000F04AFA0546384600F046FA0DF10808BD
:1058B000044634214046F6F7EEFBA5B39CB3BA4646
:1058C000A542AB4638BFB246DAF8043038BF3E4690
:1058D00006F1040938BFA3465A462E4608F10405CE
:1058E0004946284600F060FB45F82B00A64238BF29
:1058F000344605EB8B050026013CB0B2844212DD34
:10590000471C49465A460AEB8700436808EB870064
:10591000043000F074FB45F827000136EDE702A8DB
:10592000314600F055F9019802A900F063F80FB074
:10593000BDE8F08F70B58EB001AE0C46054634213F
:105940003046F6F7A8FB3046214600F041F92846DC
:10595000314600F04FF80EB070BD2DE9F0418EB029
:105960000DF104080F460446342116464046F6F76A
:1059700092FB3968306811B120B13D460FE060B14B
:10598000002502E0B0FA80F0450901A83946324608
:1059900000F08CF901951DBB11E035463E463046BE
:1059A000294600F092F9B0F1FF3F11DD01A8314620
:1059B0002A4600F09CF901460020A9B10190A045BB
:1059C00004D001A920461C2252F032FC01200BE039
:1059D00001A82946324600F08AF940B10120019021
:1059E00001A92046FFF770FD0EB0BDE8F081002050
:1059F000FAE700002DE9F04794B00DF11C080D46C0
:105A0000044634214046F6F746FB6F461C213846D3
:105A1000F6F741FB002002212060284600F0BBF988
:105A200038B1A54272D020462946342252F000FCFB
:105A30006CE02846FFF72EFD002863D0B0F1FF3F51
:105A400067DDA84504D007A829461C2252F0F0FBC8
:105A500038461C21F6F71FFBD5E90701261DDFF8A4
:105A6000C0900623CDE90301CDE9010108F104014D
:105A700007F1040830464246C8474FF0000A07467F
:105A800042460623CDE900AACDF808A0D5E90901D0
:105A9000CDE90501CDE9030130463146C847CDF8CF
:105AA00000A0002F4FF00603D5E90B12CDE9051237
:105AB000CDE90312CDE901124FF0010142461CBFAE
:105AC000022101270028304618BF0F463146C8473B
:105AD0000028984818BF0137051D37B130463146B8
:105AE0002A4600F0B9FA013FF7E7924D20462946D1
:105AF00000F0EBF8002809D42A1D3046314600F0AA
:105B0000ABFA03E020461C21F6F7C5FA14B0BDE855
:105B1000F087A542FAD0204629461C2286E700BF1E
:105B2000795F011CF8B5C12A03DB1C21F6F7B3FA33
:105B3000F8BD884202D00B68036000E0D2B1202398
:105B4000043092FBF3F4A2EB4412A2B101EB840502
:105B5000C2F12003023404352D6825FA02F6072C21
:105B600007D051F82450013405FA03F73E4340C0F2
:105B7000F3E70660F8BD621C072AFBD051F822301B
:105B8000013208C0F8E770B504460D4608461146D4
:105B9000164600F000F938B12046022E0CBF342121
:105BA0001C21F6F778FA70BDA5421CBF286820605A
:105BB00006EB4600410000204A1E48BF70BD55F864
:105BC000213040EA530044F82100D8071146F3E79A
:105BD0002DE9F04F8FB000240E4682463421046038
:105BE00002A8F6F758FA304600F0A6F8D3468146E8
:105BF00006F104084BF8044FB9F1020F0BEBC0009B
:105C00000BF1040740F8044C4FEA490001900ED311
:105C1000A9F101007368083682B23846314600F0B7
:105C2000C3F90AEB89010AF11007486000E0464613
:105C3000A9F10204043607EB8405012C0BDB56F8AE
:105C4000043CA2B23846314600F0D9F901C5043609
:105C5000013C0837F1E7019D584659465A462B4604
:105C600000F08AF902A8B9F1000F00F1040215D082
:105C70001046B9F1000F11D058F8041BA9F1010921
:105C80000B0C89B201FB03F449435B4311EB444124
:105C90004FEAD4346341E0E80213EAE75846594634
:105CA0002B4600F069F90FB0BDE8F08F70B50D46D6
:105CB000342114460646F6F7EEF9301D291D221D43
:105CC000062300F059F9F06170BD10B50622531E8D
:105CD00044BF002010BD51F8224050F82220A242BB
:105CE0001A46F4D04FF0FF3088BF012010BD70B5C8
:105CF0000D461C2114460646F6F7CDF9301D291D28
:105D0000221D00F0A9F9B0FA80F0400970BD000032
:105D100010B5084A0C4604300431043200F09CF9F6
:105D200030B1E16921B1081AE0611CBF002010BD4B
:105D3000012010BDF099061C021D05214FF0FF3017
:105D40000BB2834206DD8BB252F823300BB9013916
:105D5000F6E70846013080B270470221072906D0D5
:105D600050F821200131002AF8D000207047406807
:105D70000138B0FA80F040097047BF2984BF002085
:105D800070474A0901F01F0100EB82004068C840DB
:105D900000F00100704701EB41010430002249008E
:105DA00093B299429CBF0120704750F823300132D2
:105DB000002BF5D000207047F8B501EB41060446F2
:105DC00075002946FFF7E7FF08B10020F8BD6FF026
:105DD0001F0000EB861210466B1E2CD454F82510C1
:105DE000A0F120021D460029F5D000220B460F0C21
:105DF000B2EB114F18BF0B0C13F47F4418BF1B0AF2
:105E000013F0F00518BF1B0903F00C06B2EB114F9D
:105E100018BF012739010831002C08BF3901002DB6
:105E200018BF0431002E1CBF02319B08C3F340028F
:105E30001144013100E000210844F8BD2DE9F84F7C
:105E400004464FF48C70022110F036FF4FF48C7131
:105E50008246F6F720F90AF11C09009404F138058E
:105E6000A824B4F58C7F0AD00AEB0400A84203D022
:105E700029461C2252F0DCF954351C34F1E70AF1B2
:105E8000FC058C24382C09D00AEB0400A5F11C0178
:105E90002A46FFF7F8FC1C3C383DF3E70AF15400B2
:105EA0000146FFF77FFB00285CD04FF0020B002477
:105EB0003827BBF1080F26D20AEB07000AEB0408CB
:105EC00000F11C0608F18C05504631462A46FFF7C2
:105ED000DAFC08F1700248463146FFF7D4FC14F1B1
:105EE000700605D00AEB470051461C2252F0A0F97B
:105EF00026B1284649461C2252F09AF91C373834FC
:105F00000BF1020BD5E7DFF86CB00AF1A80700240B
:105F10004FF00108B4F5A87F22D00098012105199F
:105F200005F138063046FFF736FFB0B94846394626
:105F3000FFF700FD284629464A46D84748464946C5
:105F40003A46D84705F11C004A460146D847304634
:105F50001C21F6F7A0F8C5F83C801C375434D9E76B
:105F6000012500E00025504610F0AAFC2846BDE8B7
:105F7000F88F00BF8758011C84460020012B12DBDC
:105F8000F0B5002563B180C940CA013B7C19A41952
:105F900040F10006ED194CF8044B46F10005F1E71D
:105FA0002846BDE8F04070478446002032B32DE912
:105FB000F0411FFA83F84FEA134E0026DAB180C988
:105FC000013A3C0CBFB204FB08F504FB0EF407FBDE
:105FD0000EF35B1907FB08F528BF04F5803404EBCA
:105FE000134415EB034340F100059B1944EB0506F0
:105FF0004CF8043BE2E73046BDE8F04170472DE93C
:10600000F041044600202AB31FFA83FE4FEA134CE6
:106010004FF00008EAB180C9013A3D0CBFB205FB60
:106020000EF305FB0CF507FB0CF69B1907FB0EF6B0
:1060300028BF05F58035276816EB034645EB13436B
:1060400016EB080540F10006ED1943EB060820C4E5
:10605000E0E74046BDE8F081F0B5034600200024AB
:10606000062C08BFF0BD51F8246052F82450371AAE
:10607000AE42A7EB05074FF0000543F8247038BF88
:10608000012518BF28460134EAE70000B0B57F4C6F
:1060900000212468A4B1D4F84021824201D02146D5
:1060A000F7E77A4D2246284652F071F9D4F85001AC
:1060B00008B110F005FC204610F002FC286800B181
:1060C000B0BD714801680020BDE8B040084700BF7E
:1060D000BFB514460A46014608980025CDE900538D
:1060E000234602900220FEF71BFA04B0B0BD000068
:1060F00070B590B01C4615460E46A0B14B493046CF
:10610000202252F095F86E464A492022304652F03D
:106110008FF84A4906F12000202252F089F82846DB
:106120003146A04707E0304600F01AF830462946CD
:10613000224600F003F8002010B070BD1FB50446E1
:106140000120064B8DE80700034A01202146FEF797
:10615000E7F904B010BD00BFBE87061CDE87061C31
:106160002DE9FE4F04461C30DFF89480DFF8949050
:106170000FF2940A029004F1180004F1100B04F1DC
:106180000C0604F10807251D019004F1140000908D
:10619000C04701462046C847C04701462846C84771
:1061A000C04701463846C847C04701463046C84741
:1061B000C04701465846C847C04701460098C847EF
:1061C000C04701460198C847C04701460298C847E2
:1061D0001F20002804D4215C01380029F9D002E0F6
:1061E00020780028D4D01F20002807D41AF80010E7
:1061F000225C8A42CCD8A0F10100F5D2BDE8FE8F26
:1062000065C0001C7734011CA892317E61E5DC7901
:1062100042CF8BD3567D73DEFFFFFFFFFFFFFF7F73
:1062200000000080FFFFFF7F004870474088061C89
:10623000004870470088061C004870472088061CEC
:10624000B0B598B110480168002088470F4C20680D
:1062500088B1204652F037F80546D0F8500108B111
:1062600010F02EFB284610F02BFBF0E70448054900
:106270000268002090470548BDE8B04052F05AB887
:10628000584041206147011C5C404120E4484120C6
:10629000B0B50C460546B1F5804F05D39648514937
:1062A00040F6342252F014F8C8489421408805FB87
:1062B000010001494452B0BD44804120D749942295
:1062C000498800FB02101A49405AC0F34210704737
:1062D000B0B50C460546402905D3CE48CE4940F618
:1062E000850251F0F5FFCD489421408805FB01005F
:1062F0000F49425A6FF39F2242EA84224252B0BDB4
:10630000B0B50C460546402905D3D548D54940F6D9
:10631000850251F0DDFFD4489421408805FB01003F
:106320000349425A6FF39F2242EA84224252B0BD8F
:10633000368041202DE9F8431D4617460E4680461B
:1063400012F0FE0F05D0D948D9494FF45F7251F0D1
:10635000BFFF089C15F0FE0F05D0D448D44940F289
:106360007D3251F0B5FFDDF8249014F0FE0F05D01A
:10637000CE48CF4940F27E3251F0AAFF3F013602AB
:10638000ED00A40019F0FE0F05D0DA48DA494FF409
:10639000607251F09DFFD9489421134A408808FB50
:1063A000010047EA06012943214341EA09018152DC
:1063B000BDE8F883B0B50C460546022905D3E04890
:1063C000E0494FF46F7251F083FFDF489421408819
:1063D00005FB01000449425A22F0080242EAC402C5
:1063E0004252B0BDB6D4061C16804120D64A942332
:1063F000528800FB0320034A835A23F0FF03194409
:106400008152704768804120B0B50C46054602298C
:1064100004D3094809A1602251F05AFFDC4905EB79
:106420004500898801EB80004249425A22F48042AB
:1064300042EA84324252B0BDD0CE061C7265675F1C
:10644000656D5F626C655F7770616C2E680000003F
:10645000D649C0EBC000C98801EBC0003549405A9D
:10646000C0F34010704700BFD049C0EBC000C988DE
:1064700001EBC0002F49405AC0F3C010704700BF65
:10648000CA49C0EBC000C98801EBC0002949405A85
:10649000C0F34000704700BFE049C0EBC000C988AE
:1064A00001EBC0002349405AC0F3C000704700BF51
:1064B000E649C0EBC000098901EB8000BC49405AA5
:1064C000C0F30520704700BF10B50949C0EBC000FC
:1064D000098901EB80000749445AB4F5805F05D370
:1064E000054806A140F6250251F0F2FE204610BDF7
:1064F000304141200A804120D0CE061C7265675F82
:10650000656D5F626C655F72785F646573632E684A
:106510000000000010B5D94C00EB8010A48B04EBF8
:106520008000044C005B840B0C70C0F301211170DF
:10653000187010BD00804120E149C0EBC0000989FE
:1065400001EB80001A49405AC0F34010704700BF69
:10655000DB49C0EBC000098901EB80001449405AB7
:10656000C0F3C010704700BFE149C0EBC00009890B
:1065700001EB80000E49405AC0F38010704700BF05
:10658000DB49C0EBC000098901EB80000849405A93
:10659000C0F38010704700BFE249C0EBC00009891A
:1065A00001EB80000249405AC0F38010704700BFE1
:1065B00004804120DB49C0EBC000098901EB800069
:1065C0000349405AC0F34020704700BF304141208A
:1065D0000280412070B514460D460646022905D3B7
:1065E000DE486A4940F2CD5251F072FE20B2B0F15D
:1065F000FF3F05DCD948654940F2CE5251F068FEB4
:10660000DD489421634A408806FB010044EAC53115
:10661000815270BDD0CE061CB6D4061C304141203C
:1066200070B514460D460646022905D3CB48574996
:1066300040F2CD5251F04CFE20B2B0F1FF3F05DCEC
:10664000C648524940F2CE5251F042FECA48942107
:10665000504A408806FB010044EAC531815270BDB2
:10666000D0CE061CB6D4061C3041412070B514466D
:106670000D460646022905D3E148444940F2CD5271
:1066800051F026FE20B2B0F1FF3F05DCDC483F4967
:1066900040F2CE5251F01CFEE04894213D4A408821
:1066A00006FB010044EAC531815270BDD0CE061C04
:1066B000B6D4061C70B514460D460646022905D30D
:1066C000CF48324940F2CD5251F002FE20B2B0F133
:1066D000FF3F05DCE3482D4940F2CE5251F0F8FD72
:1066E000E24894212B4A408806FB010044EAC53168
:1066F000815270BDD0CE061CB6D4061C304141205C
:1067000070B514460D460646022905D3D5481F49E3
:1067100040F2CD5251F0DCFD20B2B0F1FF3F05DC7C
:10672000D0481A4940F2CE5251F0D2FDD6489421B9
:10673000184A408806FB010044EAC531815270BD09
:10674000D0CE061CB6D4061C3041412070B514468C
:106750000D460646022905D3C2480C4940F2CD52E7
:1067600051F0B6FD20B2B0F1FF3F05DCBD4807494E
:1067700040F2CE5251F0ACFDC3489421E34A408828
:1067800006FB010044EAC531815270BDB6D4061C37
:10679000304141201E804120BB49498901EB001056
:1067A0000349405AC0F30030704700BF30414120D8
:1067B000068041202DE9F0411D4617460E4604464D
:1067C00012F0FE0F05D0A748A74940F2BE2251F0B3
:1067D0007FFDDDF8188015F0FE0F05D0E848A249CE
:1067E00040F2BF2251F074FDFF013602AD0118F0F6
:1067F000C00F05D0E2489C494FF4307251F068FD5B
:10680000A14847EA0601B14A2943408941EA080103
:1068100000EB04108152BDE8F08100BF30414120FF
:10682000B0B50C460546402905D3E1488E4940F2F3
:10683000FA2251F04DFDDF48A449408900EB0510D4
:10684000425A22F03F0222434252B0BD3041412021
:10685000B0B50C460546402905D3D548824940F2DB
:10686000FA2251F035FDD3489849408900EB0510D4
:10687000425A22F03F0222434252B0BD30414120F1
:1068800070B515460E46044611F0F80F05D0E448E1
:10689000754940F2223251F01BFD760115F0E00FF0
:1068A00005D0EB48704940F2233251F011FDC14947
:1068B00046EA05001C4A498901EB0411885270BD63
:1068C00030414120B0B50C460546B1F5804F04D3A8
:1068D000EB486549552251F0FBFCEA4827494089BD
:1068E00000EB0510425A02F4404222434252B0BD2E
:1068F00030414120B0B50C460546B1F5804F05D377
:10690000EC4807494FF4217251F0E2FCEA4905EBEB
:106910004500498B01EB800003494452B0BD00BFE4
:10692000CFD4061C304141200A80412070B5144666
:1069300005460E0211F0FC0F04D0084808A13A22C7
:1069400051F0C6FCDC4A05EB851146EA0400928B47
:1069500002EB8101E84A885270BD00BFD0CE061C10
:106960007265675F656D5F626C655F74785F6973A0
:106970006F5F6275662E68003041412000804120C3
:106980002DE9F8431D4617460E46804612F0FE0FCD
:1069900005D0E64834494FF4997251F099FC089CAF
:1069A00015F0FE0F05D0E1482F4940F2331251F0A7
:1069B0008FFCDDF8249014F0FE0F05D0DB482A4947
:1069C0004FF49A7251F084FCFF013602AD0164016C
:1069D00019F0F00F05D0E64823494FF49B7251F0AF
:1069E00077FCB54847EA0601814A2943408921439B
:1069F00041EA090100EB08108152BDE8F88300BFAD
:106A0000D0CE061CAC4A528902EB0010784A835A59
:106A1000DBB243EA01218152704700BF304141207F
:106A2000F8B51C4617460E46054612F0FE0F04D078
:106A3000E6480D49952251F04BFC3F01360214F017
:106A4000FC0F04D0E1480849982251F041FC9A48D3
:106A500047EA0601664A2143408900EB051081524E
:106A6000F8BD00BFD0CE061CA1D4061C3041412089
:106A7000914900EB4000C98C01EB40100349405A9A
:106A8000C0F34030704700BF304141205E8041205C
:106A900010B50446132048F025FA04EB440100EB3E
:106AA00041100249405AC0F3802010BD5C80412053
:106AB000B0B500EB40001446400100EB4105132047
:106AC00048F010FA284401494452B0BD08804120E2
:106AD000B0B5054613200C4648F004FA05EB450115
:106AE00000EB411001494452B0BD00BF1C80412061
:106AF000B0B5054613200C4648F0F4F905EB450106
:106B000000EB411001494452B0BD00BF1E8041203E
:106B1000B0B5054613200C4648F0E4F905EB4501F5
:106B200000EB411001494452B0BD00BF208041201C
:106B3000B0B5054613200C4648F0D4F905EB4501E5
:106B400000EB411001494452B0BD00BF22804120FA
:106B5000B0B5054608B20C46B0F1FF3F05DCDF4892
:106B6000DF494FF4A56251F0B3FB132048F0BAF9A6
:106B700005EB450100EB41100F494452B0BD00BF89
:106B8000D0CE061CB0B5054608B20C46B0F1FF3FAA
:106B900005DCDF48DF494FF4A56251F099FBDE497F
:106BA00005EB4500C98C01EB401003494452B0BDD0
:106BB000D0CE061C304141202480412010B504462F
:106BC000132048F08FF904EB440100EB4110084911
:106BD000405A10BDB0B5054613200C4648F082F966
:106BE00005EB450100EB411001494452B0BD00BF27
:106BF0000280412010B50446132048F073F904EBDD
:106C0000440100EB41102D49445AB4F5805F05D38F
:106C1000DE48DF4940F21B1251F05AFB204610BDFE
:106C2000D0CE061CB0B50C460546B1F5805F05D345
:106C3000E148E24940F2211251F04AFB132048F0AA
:106C400051F905EB450100EB41101C494452B0BD20
:106C5000D0CE061CB0B50C460546B1F5805F05D315
:106C6000D548D64940F2211251F032FBD44905EB08
:106C70004500C98C01EB401010494452B0BD00BF23
:106C8000D0CE061C30414120B0B50C460546B1F5CA
:106C9000805F05D3C848C94940F2211251F018FB62
:106CA000C74905EB4500C98C01EB4010034944522C
:106CB000B0BD00BFD0CE061C304141200480412031
:106CC000B0B50C460546022904D3BB48BB496E2229
:106CD00051F0FEFA05EB4500074901EB4015132082
:106CE00048F000F9285A6FF3DF3040EAC43413202B
:106CF00048F0F8F82C52B0BD0080412070B5144621
:106D00000D460646042905DBAB48AC4940F26B62F0
:106D100051F0DEFA06EB4600400100EB450513207A
:106D200048F0E0F828440249445270BDD0CE061C19
:106D30003E804120B0B50C460546022905D3DE4809
:106D4000DE494FF4D67251F0C3FA05EB45003E49D7
:106D500001EB4015132048F0C5F8285A20F40060D4
:106D600040EAC424132048F0BDF82C52B0BD00BF47
:106D7000D0CE061C10B50446132048F0B3F804EB3F
:106D8000440100EB41103049405AC0F3022010BDCD
:106D9000B0B50C460546022905D3D448D4494FF472
:106DA000C47251F095FA05EB4500274901EB4015F7
:106DB000132048F097F8285A20F4804040EA8434A1
:106DC000132048F08FF82C52B0BD00BFD0CE061C67
:106DD000B0B50C460546022905D3E748E7494FF40C
:106DE000CA7251F075FA05EB4500174901EB4015E1
:106DF000132048F077F8285A20F4005040EA443431
:106E0000132048F06FF82C52B0BD00BFB0B50C464F
:106E10000546022905D3EB48D8494FF4D07251F00A
:106E200057FA05EB4500084901EB4015132048F0DF
:106E300059F8285A20F4805040EA0434132048F0CE
:106E400051F82C52B0BD00BF06804120B0B500EB18
:106E500040000C46154901EB4015132048F042F85C
:106E6000285A20F0FF000444132048F03BF82C522D
:106E7000B0BD00BFE54A00EB4000D28C02EB4010F1
:106E80000A4A835A23F0FF0319448152704700BF16
:106E9000DE4A00EB4000D28C02EB4010034A835ADA
:106EA00023F0FF0319448152704700BF2680412020
:106EB000B0B50C460546B1F5005F05D3CD48C249D3
:106EC00040F29B5251F004FAD04905EB4500C98CC1
:106ED00001EB401011494452B0BD00BFD0CE061C9A
:106EE0004CD6061CB0B50C460546B1F5005F05D37F
:106EF000C048B54940F29B5251F0EAF9C34905EB4D
:106F00004500C98C01EB401004494452B0BD00BF9C
:106F1000D0CE061C4CD6061C304141202880412092
:106F2000B0B50C460546022905D3F048A64940F203
:106F3000F22251F0CDF905EB4500224901EB401555
:106F4000132047F0CFFF285A6FF3DF3040EAC434F4
:106F5000132047F0C7FF2C52B0BD00BF70B50446E8
:106F600015460E02080605D5EC48ED494FF4377278
:106F700051F0AEF91320354347F0B4FF04EB440160
:106F800000EB41100F49455270BD00BFD0CE061C2A
:106F90004CD6061CB0B505020C46000605D5DF48E8
:106FA000DF494FF4377251F093F9DE4945EA0400A6
:106FB000044AC98C8852B0BDD0CE061C4CD6061CE3
:106FC0003041412014804120B0B5054614200C46C4
:106FD00047F088FF00EB051001494452B0BD00BFE7
:106FE0000A80412070B50646132014460D4647F02E
:106FF00079FF06EB460100EB41100449405AC10BF2
:107000006FF39F202970208070BD00BF5680412003
:1070100010B50446132047F065FF04EB440100223D
:1070200000EB41100149425210BD00BF4C8041208D
:1070300010B50446132047F055FF04EB440100222D
:1070400000EB41100149425210BD00BF4E8041206B
:1070500010B50446132047F045FF04EB440100221D
:1070600000EB41100149425210BD00BF5080412049
:1070700010B50446132047F035FF04EB440100EB44
:1070800041100149405A10BD5280412010B50446BC
:10709000132047F027FF04EB440100EB4110124995
:1070A000445AB4F5805F05D3DB489D4940F2A6728F
:1070B00051F00EF9204610BDD0CE061C4CD6061C51
:1070C00010B5B84900EB4000C98C01EB40100649EF
:1070D000445AB4F5805F05D3DE48914940F2A67268
:1070E00051F0F6F8204610BD54804120D0CE061C49
:1070F0004CD6061C10B50446142047F0F3FE00EBF6
:1071000004100C49405AC0F3C30010BDDD49098D7D
:1071100001EB00100749405AC0F3C300704700BF9D
:10712000D849098D01EB00100249405AC0F3C30051
:10713000704700BF0480412010B50446142047F07A
:10714000D1FE00EB04100149405A10BD0C804120D3
:10715000B0B50C460546042905D3C948704940F22C
:10716000822251F0B5F8C74905EB4500C98C01EB07
:10717000401016494452B0BDD0CE061C4CD6061C59
:1071800070B514460E46054611F47C4F05D0E04814
:1071900063494FF4207251F09BF8B60114F0FC0FD4
:1071A00005D0DB485E4940F2822251F091F8B54AA1
:1071B00005EB450146EA0400D28C02EB4111034A7B
:1071C000885270BDD0CE061C4CD6061C12804120C1
:1071D000B0B50C460546B1F5804F04D3054806A16D
:1071E000352251F075F8E2480949008D00EB051091
:1071F0004452B0BDD0CE061C7265675F656D5F629C
:10720000745F7278646573632E68000030414120BA
:107210000080412010B50446142047F063FE00EBC7
:1072200004109949405A10BD10B50446152047F086
:1072300059FE04EB440100EB81000849405A10BD9F
:10724000B0B5054615200C4647F04CFE05EB450150
:1072500000EB810001494452B0BD00BF06804120CF
:1072600010B50446132047F03DFE04EB4401002214
:1072700000EB41100149425210BD00BF4680412041
:1072800010B50446132047F02DFE04EB4401002204
:1072900000EB41100149425210BD00BF488041201F
:1072A00010B50446132047F01DFE04EB44010022F4
:1072B00000EB41100149425210BD00BF4A804120FD
:1072C000B0B50C460546B1F5804F05D3E2481449E8
:1072D00040F2564250F0FCFF132047F003FE05EB4E
:1072E000450100EB411010494452B0BDD0CE061C00
:1072F000B0B50C460546B1F5804F05D3D6480849D0
:1073000040F2564250F0E4FFD44905EB4500C98CE9
:1073100001EB401004494452B0BD00BFD0CE061C62
:107320004CD6061C304141201A8041202DE9F843FB
:107330001D4616460F46804611F0FE0F04D0D84871
:10734000D849932250F0C4FF16F0FE0F04D0E04855
:10735000E049942250F0BCFFDDF8209015F0FE0FBC
:1073600004D0DB48DB49952250F0B2FF7F023602A1
:10737000ED014FEAC90419F0F00F04D0D448D54903
:10738000962250F0A5FFD44908EB48003E4A498DAB
:1073900001EB800046EA0701294321438152BDE801
:1073A000F88300BF30414120B0B50C4605460229A4
:1073B00004D3D848D849B02250F08AFF05EB4500E5
:1073C000314901EB8005152047F08CFD285A6FF3F9
:1073D000DF3040EAC434152047F084FD2C52B0BDA4
:1073E000B0B50C460546082904D3DC48CA49F82242
:1073F00050F06EFF05EB4500234901EB8005152099
:1074000047F070FD285A20F007000443152047F08C
:1074100069FD2C52B0BD00BFD0CE061CB0B50C46E5
:107420000546102904D3DD48BB49EC2250F050FF3B
:1074300005EB4500144901EB8005152047F052FD8E
:10744000285A20F0780040EAC404152047F04AFD8D
:107450002C52B0BDD0CE061C10B50446102804D363
:10746000DE48AD49EC2250F033FF9B480649408D81
:10747000425A22F0780242EAC402425210BD00BFD2
:10748000D0CE061C304141200280412010B5044678
:10749000152047F027FD04EB440100EB810008496B
:1074A000405A10BDB0B5054615200C4647F01AFDF0
:1074B00005EB450100EB810001494452B0BD00BF1E
:1074C0000880412070B514460E46054611F47C4FE5
:1074D00005D0E34890494FF4957250F0F9FEF6005C
:1074E00014F0FC0F05D0DE488B494FF4967250F033
:1074F000EFFE152047F0F6FC05EB4501494A00EB8D
:10750000810046EA040141F00401815270BD00BFD0
:10751000D0CE061CF8B51C4616460F46054611F49B
:107520007C4F05D0DF487C494FF4957250F0D0FE77
:1075300016F0FE0F05D0DB48774940F22B1250F0D1
:10754000C7FEFF00B60014F0FC0F05D0D548724905
:107550004FF4967250F0BCFED34905EB4500314A1A
:10756000498D01EB800046EA070121438152F8BDB5
:1075700030414120B0B50446CD00B1F5806F05D350
:10758000DA4865494FF4957250F0A2FED94904EBF0
:107590004400244A498D01EB800045F002018152EC
:1075A000B0BD00BFB0B50446CD00B1F5806F05D3C6
:1075B000CE4859494FF4A77250F08AFE04EB4400BC
:1075C000184901EB8004152047F08CFC205A4EF23C
:1075D000070108400543152047F084FC2552B0BD43
:1075E00010B50446152047F07DFC04EB440100EB88
:1075F00081000C49405A00F0030010BDB0B500EB0B
:107600004000084901EB8004152047F06BFC205A2C
:1076100040F0010020F00205152047F063FC2552E0
:10762000B0BD00BF04804120B0B50C460546B1F5A1
:10763000804F04D3AD483849552250F049FEAD493A
:1076400005EB4500498D01EB80003449425A02F4B4
:10765000404222434252B0BDD0CE061C30414120B0
:1076600070B515460E460446022904D39F482A49A0
:10767000342250F02DFEB5F5804F04D39B482649A7
:10768000352250F025FE152045EAC63547F02AFC84
:1076900004EB440100EB81002049455270BD00BF5E
:1076A000D0CE061C27D6061CB0B50C460546B1F553
:1076B000804F04D38D481849352250F009FE8D497A
:1076C00005EB4500498D01EB800014494452B0BDE3
:1076D000D0CE061C27D6061C30414120B0B50C4642
:1076E0000546022904D381480B49492250F0F0FD98
:1076F00005EB4500094901EB8005152047F0F2FB39
:10770000285A6FF3DF3040EAC434152047F0EAFB13
:107710002C52B0BDD0CE061C27D6061C00804120BE
:10772000B0B50C460546022905D3704870494FF4A0
:10773000647250F0CDFD05EB4500374901EB401573
:10774000132047F0CFFB285A20F4806040EA8424BD
:10775000132047F0C7FB2C52B0BD00BFD0CE061C93
:10776000B0B50C460546042905D3604860494FF47E
:10777000677250F0ADFD05EB4500274901EB401560
:10778000132047F0AFFB285A20F4407040EA04244D
:10779000132047F0A7FB2C52B0BD00BFD0CE061C73
:1077A000B0B50C460546082905D3504850494FF45A
:1077B0005E7250F08DFD05EB4500174901EB401559
:1077C000132047F08FFB285A6FF35F3040EA4434B0
:1077D000132047F087FB2C52B0BD00BFD0CE061C53
:1077E000B0B50C460546042905D3404840494FF43E
:1077F000797250F06DFD05EB4500074901EB40152E
:10780000132047F06FFB285A20F003000443132095
:1078100047F068FB2C52B0BD1680412070B515466C
:107820000E460446022905D33048314940F20B4246
:1078300050F04EFDB5F5005F05D32C482C4940F2C1
:107840000C4250F045FD132045EAC63547F04AFB8F
:1078500004EB440100EB41102749455270BD00BFC5
:10786000D0CE061C70B514460E460546022905D337
:107870001E481F4940F20B4250F02AFDB4F5005F4C
:1078800005D31A481A4940F20C4250F021FD194A1A
:1078900005EB450144EAC630D28C02EB4111164A91
:1078A000885270BDD0CE061C3041412070B51446C0
:1078B0000E460546022905D30C480D4940F20B42FD
:1078C00050F006FDB4F5005F05D30848084940F2C2
:1078D0000C4250F0FDFC074A05EB450144EAC63076
:1078E000D28C02EB4111044A885270BDD0CE061CE6
:1078F0004CD6061C304141201880412070B54420F0
:1079000049F0CCFC0446002047F0A0FA01884088EA
:1079100001264843033020F003052580222E0DD098
:10792000F0B224F8165047F091FA018840880136E9
:107930004843033020F003000544EFE720462221AE
:1079400047F04CFA2046BDE8704048F085BC000086
:107950002DE9F041442049F0A1FC8E4D0446002061
:10796000A8470088033020F0030020800020A847AB
:107970000088033020F0030701206780A8470088B3
:107980004FF0030800EB800008EB400020F00300FC
:1079900007440220A780A847008807EBC007032000
:1079A000E780A847008800EB4000033020F0030088
:1079B000074404202781A847008800EB400008EB1B
:1079C000400020F00300074405206781A84746884F
:1079D0000520A84700887043033020F00300C61933
:1079E0000620A681A847008800EB400006EB800631
:1079F0000720E681A847008800EB400008EB400024
:107A000020F00300064408202682A847008800EBE7
:107A10004000033020F00300064409206682A84796
:107A20000088033020F0030006440A20A682A847FD
:107A3000008806EBC0060B20E682A847008806EB0C
:107A4000C0060C202683A847008806EB80060D2080
:107A50006683A847008800EB800008EB400020F018
:107A6000030006440E20A683A847008800EB800090
:107A700006EB80061320E68326846684A684E684CB
:107A8000A8470088C0EBC000033020F00300064484
:107A900014202685A847008806EB800615206685F9
:107AA000A847008806EBC0061620A685A847478889
:107AB0001620A84700887843033020F003000644CE
:107AC0001720E685A8470088C0EBC000033020F0EF
:107AD0000300064418202686A8470088033020F0BB
:107AE0000300064419206686A8470088033020F06A
:107AF000030006441A20A686A8470088033020F019
:107B0000030006441B20E686A8470088033020F0C7
:107B1000030006441C202687A847008808EB400085
:107B200020F0030006441D206687A8470088033024
:107B300020F0030006441E20A687A847008800EB1B
:107B4000400008EB400020F0030006441F20E687B9
:107B5000A847008806EB80062020A4F84060A847CC
:107B60000088033020F003003044A4F8420080B2C3
:107B7000B0F5E04F05D908A012A140F2874247F0C6
:107B8000C7FB2046222147F029F92046BDE8F041F5
:107B900048F062BB4DEE051C302026262022454DC4
:107BA0002062756666657220657863656564206D20
:107BB0006178696D756D206C656E67746820212130
:107BC00021220000656D5F636F6E6669675F637594
:107BD00073746F6D697A6564000000000B49425C44
:107BE0000844417842EA01218278C07841EA0241A2
:107BF00041EA0060704700BF044A815410440A0AF9
:107C000042700A0C090E8270C170704700804120DA
:107C100010B5064C2068400006D4012050F03FFB10
:107C2000206840F080502060012010BD14F000500A
:107C30001CB500240094FBF743FC1CBD48F00CBBB2
:107C4000F0B59FB0054600680C46002864D000EBF4
:107C50004000696801AF01EBC0003946A0F1180689
:107C600028463C2EA8BF3C26324600F055FA28682C
:107C7000B7EE002A9FED2C1A9FED2E4AB0EE423A45
:107C8000013800EE100A0020B8EEC00A00EE013AFA
:107C90009FED260A83FE003A00EE106AB8EEC00A95
:107CA00082EE000A32EE401A20EE032AB0EE405A6D
:107CB00021EE031A9FED1E3AB0422BDA34F9101070
:107CC00006EE101AB8EEC66A37F9101007EE101A51
:107CD00025EE066AB8EEC77A01EE076AB0EE437A7F
:107CE000B4EE436AF1EE10FA08DCB4EE446AB0EE8A
:107CF000467AF1EE10FAB8BFB0EE447ABDEEC76A2C
:107D000030EE055A31EE421A16EE101A24F8101011
:107D10000130D1E700202860284621461FB0BDE889
:107D2000F04000F053BA00BFCDCC4CBE00000000C4
:107D300000FEFF46000000C70021016000F2346130
:107D4000416100F2AC604FF4C37100F081BA10B52C
:107D500000239342A8BF10BD90ED000A0430BDEE91
:107D6000C00A10EE104A21F813400133F1E710B5B4
:107D700000239342A8BF10BD30F8134021F81340F0
:107D80000133F6E72DE9F84F2DED0A8B92B0054649
:107D900000688B46411E022963D203AED5E9012457
:107DA0002846314600F0B8F9E8680119091A8142FD
:107DB000FCDCA9606B68D5E9041208442861A2EBD9
:107DC0008000A2EB8302A0EB8301A86105F234607E
:107DD00000F0C0F9284659463C2200F09DF9686839
:107DE000002800F07E8100EE100A9FEDC62A9FED6C
:107DF000C63A0021B8EEC01AB7EE000A80EE011AAA
:107E0000B0EE414A814280F26C813BF9112030EEA4
:107E1000410A05EE102AB8EEC55A36F9112006EED1
:107E2000102A24EE055AB8EEC66A00EE065AB0EEE5
:107E3000426AB4EE425AF1EE10FA08DCB4EE435A4C
:107E4000B0EE456AF1EE10FAB8BFB0EE436ABDEE8F
:107E5000C65A31EE044A15EE102A2BF811200131D2
:107E6000D0E788B905EB800105F2AC621C31B0F5B2
:107E7000C37F11D032F91030013000EE103AB8EE65
:107E8000C00AA1EC010AF2E70628C0F22581584693
:107E90003C2100F0DDF928E16A699C489FED9CAA2D
:107EA00002EB8001B0EE4A9AA2F520760020019202
:107EB0008A469F280AD891ED000A91ED781A083178
:107EC000023000EE01AA00EE009AF2E79FED918ADF
:107ED000029589FE080A10EE100AF4F74CFB41ECFB
:107EE000100B50F007FC51EC100BF4F757FB00EEB1
:107EF000100A9FED87BA50460AF1080902274FF091
:107F0000000800258AEE00AA502F39D890ED001AFB
:107F100090EDA00AB0EE4BCA00F1080400204946DB
:107F20009F280AD801EB080291ED763A0831023019
:107F300092ED002A02EE03CAF2E701EE419A00EE4A
:107F4000009A89FE080A10EE100AF4F714FB41ECBF
:107F5000100B50F0CFFB51EC100BF4F71FFB00EEB1
:107F6000100A08F1080820468CEE000AB4EE4A0A0E
:107F700080FE0AAAF1EE10FAA8BF3D460237C3E719
:107F80009FED63AA4FF00009002D4FF00000C8BF1D
:107F9000A5F101090AEB8904B0EE4A9AB0F5207FF9
:107FA0000BD0311891ED000A2118043091ED001A20
:107FB00001EE00AA01EE019AF0E789FE080A4FF0EF
:107FC0005008502D10EE100AB8BF05F10108F4F763
:107FD000D2FA41EC100B50F08DFB51EC100BF4F782
:107FE000DDFA00EE100A01989FED49BA4F468AEE7D
:107FF00000AA00EB8900A0F25C45474537DA94ED12
:10800000001A94EDA00AB0EE4BCA013704F1040A3D
:108010000020B0F5207F09D0311891ED002A2918F1
:10802000043091ED003A03EE02CAF2E701EE419A04
:1080300000EE009A89FE080A10EE100AF4F79BFA87
:1080400041EC100B50F056FB51EC100BF4F7A6FA74
:1080500000EE100A043554468CEE000AB4EE4A0ACB
:1080600080FE0AAAF1EE10FAC8BFB946C5E7029D24
:10807000C9F178040026A6EBA40C24F00300A31099
:108080006969EC606B600A1A05F234609E4205DA99
:1080900052F8267040F826700136F7E72C6100246C
:1080A000AC6001EB8904A4F5F07404EB8C01AC61C5
:1080B00000F050F86A686869C2F5C371A0EB8200ED
:1080C00005EB410101F2AC61FFF741FE284659463C
:1080D0003C2200F021F808E0284659463C2200F0F6
:1080E0001BF82846594600F08BF82868594601309D
:1080F0002860284612B0BDEC0A8B01B0BDE8F04FF5
:1081000000F064B800FEFF46000000C7E8FEFFFF75
:108110000000000000007A43F8B514460D460646FC
:10812000BCB1B0683169B2690F1A02EB8000294610
:10813000A742C8BF27463A46FFF709FEB068316933
:10814000E41B05EB47053844411A18BF0146B160EE
:10815000E6E7F8BD10B59BB300EE103A9FED192A83
:108160009FED193A0024B8EEC01AB7EE000A80EE6F
:10817000011AB0EE414A9C4222DA91ED005A30EEEB
:10818000410A90ED006A24EE055A00EE065AB0EE60
:10819000426AB4EE425AF1EE10FA08DCB4EE435AE9
:1081A000B0EE456AF1EE10FAB8BFB0EE436A82ED68
:1081B000006A31EE044A0432043104300134DAE753
:1081C00010BD00BF00FEFF46000000C770B50546A9
:1081D0000A4E0C4600F224704FF4A57205F2AC6111
:1081E000B04705F5146120463C22B04705F604105F
:1081F00021463C223346BDE8704018476F7D011C84
:1082000000689FED112A013800EE100A0020B8EE38
:10821000C01AB7EE000A01EE020A9FED0C1A3C28C4
:1082200008BF704731F9102002EE102AB8EEC22ABA
:1082300020EE022A30EE010ABDEEC22A12EE102A0A
:1082400021F810200130EAE7CDCC4CBE0E745ABBA9
:10825000002200238B42A8BF704720F8132001336F
:10826000F8E7000070B500EBC002F34B03EBC2046B
:10827000FF22002384F8442084F8430000200022D9
:108280002161242A07D0A518DE430C32013385F87A
:108290002260A861F5E788688047074904F1080073
:1082A000FAF7FEF905492046FAF7FAF92046BDE843
:1082B000704000F03DB800BF7986011C6183011C4D
:1082C000B0B5044641F2021000211022012300251E
:1082D0000EF036FD05700AF06FFD94F83F00A5879B
:1082E00084F83E00204600F00BF894F843004FF469
:1082F000805101FA00F0BDE8B04050F04DB80000E8
:1083000003460320BE4A012183F840001869D0F8D3
:1083100000C003F13F0060470346A0F8461002206A
:1083200083F84000D3E90420D2F800C0B44A604783
:10833000B0B504460020B24A012184F8400020690B
:108340002346056804F13F00A84794F843004FF422
:10835000805101FA00F0BDE8B04050F01DB800BFF8
:10836000BCB5044690F8420058B1012804D094F8F6
:108370004000002800F02A812046BDE8BC40FFF7FD
:108380009FBF94F84000032800F28780DFE800F0E8
:108390000223466F94F83F10062984F84110EBD869
:1083A000012202FA01F010F06E0FE5D084F84020AF
:1083B000924A04F13C002346515C22691568904AB8
:1083C000A84794F843004FF4805101FA00F0BDE84B
:1083D000BC404FF0E6BF94F84100411E052900F271
:1083E000A180DFE801F003748D9FA7B594F83C00ED
:1083F00094F83E5094F83D1040EA0120A08780B2E6
:108400000BF0DAFA854200F29F8094F83E000028D3
:1084100000F0E78001210EF04FFC7EE094F841006F
:108420007649B4F84630626904F13C05095CCDE94F
:10843000005101214FF0BAFF94F84100411E052977
:1084400000F2B380DFE801F003A2A9B1BBC0636909
:1084500094F83E20A18F01200BF0BAFA6069002841
:1084600000F0B4800EF02CFA00206061AEE0E06B0A
:10847000614988421FD094F843004FF4805101FABB
:1084800000F04FF08EFF002003280FD0211801309C
:1084900091F83D2081F83C20F6E7AA48D84940F2FF
:1084A000C73202B0BDE8B0404FF012BF2046BDE871
:1084B000BC40FFF725BF40F603400BF07DFA0120DA
:1084C00040F60341002200230BF082FA7EE094F88C
:1084D0003E0094F83F1040EA0120E08794F83C10F9
:1084E00094F83D2041EA02210204A18789B272D0AA
:1084F00082B201200BF0A2F9606128B3E18F31E074
:1085000094F83C0094F83E2094F83D1040EA012095
:1085100081B2A08701200BF01DFE6061A0B194F82C
:108520003E101FE094F84310B54A40F236334FF046
:10853000C0FE1AE004F13C000DF05CFD606118B172
:10854000E18F6FF39F310DE02046FFF7B9FE0CE09D
:10855000FBF7A4FA606194F83D0094F83E1040EAFD
:10856000012081B22046FFF7D7FE94F8400000B109
:10857000BCBD002194F8410004F13C02CDE900119A
:108580001E490B5C01214FF011FFBCBD6369E28FF6
:10859000A18F01200BF0B8F918E0636994F83E2030
:1085A000A18F01200BF016FE10E094F84310944ABE
:1085B00040F2AA3302B0BDE8B0404FF07ABE616924
:1085C00028460DF079FD01E0FBF740F92046BDE8B3
:1085D000BC40FFF7ADBE0120002200230BF094F950
:1085E00005E0A18F0120002200230BF0F1F92046C5
:1085F000FFF79EFEB9E700BF01030C00A89A061C16
:108600000586011C024680F8421090F8430018B11C
:1086100000201146FAF7C0B81046FAF787B80000F4
:10862000B0B5754D1024A02C08BFB0BD2859806886
:1086300080474834F7E700BFF04E4120F8B56E4858
:108640000124002600F110052F46E00708D0012E76
:1086500006D857F8480BC068804704460136F4E74F
:1086600010B104F00100F8BD002EFAD055F8480B07
:1086700080688047013EF7E7F8B590F83C70054602
:1086800000F11006A0F10804FF2F06D15C4A28462D
:10869000214640F226234FF00CFE07EB4700002155
:1086A00046F8201006EB8000406800B18047FF20AC
:1086B00000213246002385F83C00032909D01768C1
:1086C00027B1977A9F4284BF08463B460C3201315E
:1086D000F3E7C1B285F83C00FF2911D04900AA6830
:1086E000234651FA80F1D2F804C0444A56F82100DA
:1086F00006EB81010989013101B0BDE8F040604716
:1087000094F843004FF4806101FA00F0BDE8F840AE
:108710004FF042BE10B5044629B10A48384940F22C
:10872000F3124FF0D5FD94F8430004F1080120B195
:108730000020BDE81040FAF72FB80846BDE8104009
:10874000F9F7F4BFD0CE061C2DE9FC410C461546C6
:10875000984600260021074622462B46CDE90066B2
:108760004FF024FE781E04F8017D042802D2002078
:10877000002607E0052F04D0062F2BD1012602206A
:1087800000E0012046EAC6021B4900EB400301EB72
:10879000C20202EB83031D84C3E9064812F8443F7A
:1087A000FF2B18BFBDE8FC81107006EBC600134A12
:1087B00001EBC006691C3069334647682046B8475C
:1087C00096F843004FF4806101FA00F0BDE8FC41E7
:1087D0004FF0E7BD0A4C3846022140F2B54322462D
:1087E0004FF067FD38460221224640F2D14302B0E5
:1087F000BDE8F0414FF05DBDF04E41201587011CF2
:10880000EAD2061CF8B50446011D484848224FF03C
:10881000B9FD4748052104F19405017045480560FC
:108820004548016821B104F12C00884700287BD01D
:108830004248434E2946B047A16C4248B047E16ADE
:108840004148B047216B4148B047616B4048B04751
:10885000A16B4048B047E1683FA0B047216942A002
:10886000B047616944A0B047A16947A0B047E1693A
:1088700049A0B047216A4CA0B047616A4EA0B047FA
:10888000A16A51A0B047E16B5348B047216C5348EF
:10889000B047616C5248B0472078400703D459482C
:1088A00048F0AAFC05E04CF061FE01464DA048F0FE
:1088B000A3FC554848F0A0FC5448EFF30981EFF3BE
:1088C000088248F099FC4CF0A1F82078C00602D448
:1088D0004F4848F091FC4F48002143F6E07C41604E
:1088E000BFF34F8F0268C2F34E31C2F3C9039A0738
:1088F00001330CEA411516461F4646EA050406F107
:108900004046013FC0F8EC41F7D14C1E00292146FA
:10891000EFD1BFF34F8FBFF36F8F4FF04CFD0120AE
:10892000BDE8F8404FF0BBBCF8BD00BF3C63412040
:108930000C494120846341209060412039E0061CAD
:10894000F911061C53E0061CEBDF061CF8DF061CC1
:1089500005E0061C1FE0061C7230343A20307825F2
:108960003038780A000000007230353A203078251F
:108970003038780A000000007230363A203078250E
:108980003038780A000000007230373A20307825FD
:108990003038780A000000007230383A20307825EC
:1089A0003038780A000000007230393A20307825DB
:1089B0003038780A000000007231303A20307825D3
:1089C0003038780A000000007231313A20307825C2
:1089D0003038780A0000000012E0061C46E0061C51
:1089E0002CE0061C68617264206661756C74206FEF
:1089F0006E207468726561643A2025730D0A0D0A51
:108A00000000000096DF061CBEDF061CD5DF061C3A
:108A1000B0DF061C80ED00E02DE9F04190B080460B
:108A2000EB480D0A16460C46006850F825700846BB
:108A30000EF030FA09280DD0042837D101AD2D49A8
:108A40003C2228464FF0F4FB204631462A4612F0DD
:108A500099FE48E026482146026840F204609047AB
:108A6000204601210EF040FA304600210FF069FC4B
:108A700097F8890000F00300032805D040F20F604A
:108A8000214622460EF0ACF998F8060098B907F195
:108A90003801284641F0A0F968B1012087F8440068
:108AA00087F8D401204610F003FE0DE030460C217B
:108AB0000FF047FC17E0012097F83920332187F8A1
:108AC0004500284614F07AFB3FF08AFC28B140F2BA
:108AD0001660214622460EF083F940F219602146C5
:108AE00022460EF07DF9002010B0BDE8F08100BFF5
:108AF000904041207C87061C70B590B00646084621
:108B000014460D460EF0C6F9042863D10020354AFC
:108B1000039009908DF81000CDF81200CDF81600E2
:108B20008DF82800CDF82A00CDF83600D6E90201EC
:108B3000CDE90101CDE907011821708A01EAC001E0
:108B400022FA01F101228DF80C108DF81110810626
:108B50004FF0100158BF0821ADF82E10ADF83010BD
:108B6000C1B200F4407002EB9112B0F5007F8DF8B5
:108B700032208DF83320C1F382018DF834108DF846
:108B800035104FF0040108BF0121B0F5807018BF07
:108B900008468DF824008DF829002146308AADF86A
:108BA0003A00307D8DF83E00F08A01AE324680F406
:108BB0007070ADF83C00284612F0E4FD9A49280A8E
:108BC0003C22096851F82000314600F5F0704FF062
:108BD0002FFB03E020460C210FF0B3FB002010B068
:108BE00070BD00BF020001032DE9F0412648140AC0
:108BF0000D46006850F82470204623F0F3FDC0BBFA
:108C0000688828B3A888F8F7C1F969880646002063
:108C1000F08011F47C4F0CD01CA240F2FF3040F2E7
:108C2000911340F2FF384FF044FBF088698820EA46
:108C30000800084329880A4660F30D02F28022F4F6
:108C4000405097F8A5205AB1002187F8A5100AE0F6
:108C5000288810F4405F04BF012087F8A50008E0D1
:108C600001F440510843F0802046314630F0D0F8FE
:108C700038B1688810B1A888F8F7A4F9204623F025
:108C800065FC0020BDE8F081C05541206C6C635F3D
:108C90006863692E6300000070B5488868B38888EF
:108CA0001E460D46F9F7F6F86988044611F47C4F24
:108CB00007D0134A40F2FF3040F252334FF0F9FA36
:108CC000698860896FF31F310E4A00F44060968115
:108CD0000843298801F4405301F440411844137DAE
:108CE00008442146608100201BF0A4F818B12089B7
:108CF000F9F7EEF801E03EF0CBFE002070BD00BFBA
:108D000081D5061C24554120F8B50D46E349140AC7
:108D10001046096851F824700EF0BCF8192811D8D3
:108D2000012101FA00F0414908420BD0688810B1D6
:108D3000A888F9F7CDF804F1800001210FF078FB45
:108D40000020F8BD688828B3A888F9F7A3F86988D7
:108D500006460020708111F47C4F0AD01D4A40F273
:108D6000FF3041F2FF134FF0A4FA7089698800F4D4
:108D70007C40084329886FF39F3001F4404210443F
:108D800097F85120708120F440505AB1002187F8A3
:108D900051100AE0288810F4405F04BF012087F8D2
:108DA0005100C3E701F440510843708197F84B101C
:108DB00039B100F44050B0F5805FB7D0002087F89B
:108DC0004B002046314616F0E7FF0028AED1B7E74A
:108DD0007C554120FDD5061C70B50D46080AE749B3
:108DE0001446096851F8206028460EF053F81928F7
:108DF0000BD8012101FA00F0E149084205D0022117
:108E000020460FF09EFA002070BD3FF0C9FD10B162
:108E1000002086F8930040F2166029462A460DF09D
:108E2000DFFF0021ECE700BF7C5541200100C003BB
:108E3000B0B5044645F0E6FFA04208D845F0E2FF91
:108E4000454A0146204640F25F534FF032FA434D07
:108E5000A869015D31B168483F494FF4AC624FF0F9
:108E600037FAA86901210155B0BD00BFB0B504466D
:108E700045F0C8FFA04208D845F0C4FF364A014675
:108E800020464FF4AD634FF014FA344DA869015DEC
:108E900031B95948304940F269524FF019FAA8697E
:108EA00000210155B0BD00BF70B50C46054645F028
:108EB000B7FFA84206D8284A2846002140F273533B
:108EC0004FF0F7F9254EC5EBC505F169485D30B1A6
:108ED000214A002140F274534FF0EBF9F16948192F
:108EE000A188A0F805102168C0F801100121F069DF
:108EF000415570BD10B5044645F092FFA04206D81A
:108F0000154A204600214FF4B1634FF0D2F9F849D9
:108F1000C4EBC4000022C9690A5410BDB0B50446B0
:108F200045F07EFFA04206D80B4A2046002140F2C1
:108F30007F534FF0BEF9EE4DC4EBC404E969085D00
:108F4000012806D0044A00214FF4B0634FF0B1F974
:108F5000E96902200855B0BD68D0061C804F412049
:108F6000F8B5244F244C254D0026082E1ED007EBC3
:108F7000C60137F83600496802380C3102B2002ABF
:108F800012D40B8801F10C0231F80C1C01386FF37C
:108F90009F236FF39F2199421146EFD32046294624
:108FA00040F621124FF094F90136DEE714483121E2
:108FB00001F08EF928B91048104940F626124FF0FA
:108FC00087F91048022101F083F928B90A480B49B2
:108FD00040F62A124FF07CF90B481F2101F078F976
:108FE00000B1F8BD0448054940F62F12BDE8F8402D
:108FF0004FF06EB9B09A061CD0CE061CD7D2061C14
:10900000E4A9061CD4A9061C6CAB061C2DE9F04192
:109010000D46080A59491446096851F82070284637
:109020000DF038FFA0F11701032908D338B101284A
:109030000DD197F8C80160B12046232101E02046F8
:109040000C210FF07EF900263046BDE8F0810226A3
:10905000FAE797F8930001281DD13FF0A1FC10B169
:10906000062087F8920097F897004FF0010887F8DC
:10907000D28118B187F8C88187F8CB8120460021BA
:1090800000260FF05EF9284687F88C6087F8448048
:1090900015F096FDD8E720460621D2E77C55412001
:1090A0002DE9F04190B00646E5480F0A90460D467E
:1090B000006850F8274008460DF0ECFE19280ED83D
:1090C000012101FA00F02E49084208D04046022151
:1090D0000FF037F90027384610B0BDE8F08130882E
:1090E00007F18001814225D194F854107088F5F77A
:1090F0004CFF074694F8571094F8582094F85930CC
:109100007088F5F7FEFE3843E083718888422FD1DE
:1091100040F0080000210027E08340460FF011F9DD
:10912000012029462A4684F8CF0140F213600DF051
:1091300057FED0E728460DF0ADFE01281BD10027D1
:1091400001210122ADF83A708DF83E70CDE901772A
:109150007088C0F342103388ADF83C0001A800903D
:10916000284612F049FC014640460FF0EAF8B2E703
:1091700040461A21ACE70227ADE700BF7C554120ED
:109180000100C003B0B5084C0020802804BF0020B7
:10919000B0BD255A08309D42F7D1204450F804CC88
:1091A0001846BDE8B0406047F096061CB0B5084CC4
:1091B0000020A82804BF0020B0BD255A08309D42D9
:1091C000F7D1204450F804CC1846BDE8B0406047C1
:1091D000C897061C10B5094A0020182804BF0020B3
:1091E00010BD145A08309C42F7D1104450F8042C9A
:1091F00008461946BDE81040104700BFF8AC061CF1
:10920000B0B50A4C0020B0F5007F04BF0020B0BD0F
:10921000255A08309D42F6D1204450F804CC084627
:1092200011461A46BDE8B040604700BF48AD061C75
:1092300010B5094A0020B0F5807F04BF002010BDA2
:10924000145A08309C42F6D110441A4650F804CC07
:109250000878BDE81040604740B1061C10B5094AC7
:109260000020B02804BF002010BD145A08309C42D2
:10927000F7D1104450F8042C08461946BDE81040B8
:10928000104700BF80B5061C10B5094A0020B0F594
:10929000407F04BF002010BD145A08309C42F6D114
:1092A000104450F8042C08461946BDE810401047F9
:1092B00078B6061C10B5094A0020B0F53A7F04BF05
:1092C000002010BD145A08309C42F6D1104450F8CA
:1092D000042C08461946BDE810401047F0B9061C9A
:1092E0000348B0F8640070470149A1F86400704772
:1092F000804F412010B543780C468178C21C184637
:10930000FAF716FA014620463DF052FC002010BD47
:1093100010B543780C468178C21C1846FAF708FA53
:10932000014620463EF053FE002010BD2DE9F843D3
:10933000DFF8289D8846054600270126002445F0D1
:109340006FFD844215D204EBC401D9F83400014406
:10935000897906290AD806FA01F111F0620F05D0C1
:10936000384429460622F2F7B4FE10B10937013419
:10937000E5E7E6B245F054FDB04235D904EBC40749
:10938000D9F8340038448079411F022909D22002DB
:10939000013081B2284642460DF0FCFC0120BDE8B8
:1093A000F883012825D1D9F8001051B9D9F8040063
:1093B00038B96F486F494FF4A6624EF089FFD9F86B
:1093C000001089B128460622F2F783FE28B16848CA
:1093D000684940F235524EF07BFF1DF0DFF90C2852
:1093E0000AD128460021D6E7404602212A463EF00F
:1093F000D9FD0020BDE8F883D9F8340002213844B3
:109400008171F6E770B50446084615460E460DF024
:1094100041FD48B1AA49300A096851F8201091F875
:10942000491019B10B2104E00C2102E019F0EAFD0A
:109430000146284622460EF05FFF002070BD00BFA7
:109440007C5541202DE9F04186B0474F88460546BE
:109450000026002445F0E4FC844211D204EBC40150
:10946000786B0144897901290AD0052905D3304454
:1094700029460622F2F72DFEB8B109360134E9E794
:109480000C26E4B245F0CCFCA04206D8287A02288B
:1094900002D8287B01280AD91226404631463EF0E0
:1094A000A4FD002006B0BDE8F0810B26E9E7002608
:1094B00045F0B6FC864207D206EBC600796B08443D
:1094C000807908B10136F3E7F4B245F0A9FCA04277
:1094D00048D906EBC60440F085F8796B0028214492
:1094E00008723FD0A888ADF8040028680090B5F94C
:1094F0000A00C20B02EA40003A8CADF80C00B87EBC
:109500008DF81000B88A10440290087A8DF8116026
:109510002E7A8DF812003FF003FA00210130ADF8E9
:109520001310124931F816104843ADF80E00684682
:109530001DF06EF80646786B012200EB04018A717B
:109540002A680251A88888803D602EB108480949E0
:1095500040F203524EF0BCFE404631463EF045FD1F
:1095600001209FE7092698E72857412028BD061CBF
:10957000D0CE061C93D6061C2DE9FE4314460029C6
:10958000CDE901014CD00546208801EB03080127F5
:109590000E46029101A94246009705EB000902A878
:1095A0004B4607F08DFEC0BB701C01A942464B46DE
:1095B0000097029002A807F083FE70BB301D0427BD
:1095C00001A942464B46029002A8009707F078FE98
:1095D00018BB06F1080001A942464B4600970290CD
:1095E00002A807F06DFEC0B906F10C0001A94246C1
:1095F0004B4602900420009002A807F061FE60B97B
:1096000006F110000290F2F75DFDC0B201A94246DA
:109610004B46009002A807F053FE0199491B01E058
:10962000002100202180BDE8FE8370B50A46044673
:109630004FF488500021082300260DF081FB0546D9
:10964000208836F065FB686020882E706880284688
:1096500009F0B2FB002070BD70B50A4604464FF415
:1096600088500021042300260DF06AFB0546A188DE
:10967000208836F051FB20882E706880284609F03B
:109680009BFB002070BD000070B514460C4A0546D7
:10969000080A126852F8206008460DF0FBFB38B14A
:1096A000A8780021002818BF012086F8530000E0A8
:1096B0000C212A8820460EF034FE002070BD00BF29
:1096C0007C55412070B50546084616460C460DF0FF
:1096D000E1FBC0B1692804BF022070BDF8F7F4FCBB
:1096E000064680880B49AA780844E91C4EF0A0FD84
:1096F000A8783146B071200A17F056F82046692143
:109700000DF0F2FB04E02A8830460C210EF009FE31
:10971000002070BD0080412070B50C464FF4885089
:1097200000214FF60342012300260DF009FB0546F8
:10973000A34881682078884728462E7009F03CFBB2
:10974000002070BD80B51A464FF4885000210123D7
:109750000DF0F6FA1121017009F02EFB002080BDFA
:1097600080B51A464FF48850002102230DF0E8FA24
:109770001121017009F020FB002080BDB0B50A4620
:1097800004464FF488500021012300250DF0D8FA3B
:109790002168034A0570516009F00EFB0020B0BD3E
:1097A00004564120B0B50C4641F2011000214FF69D
:1097B0001742012300250DF0C3FA30B1057009F0FE
:1097C000FBFAA17820882FF0D5FC0020B0BD000066
:1097D00080B50246C04889780068002950F8220008
:1097E000B0F89E3018BF012123F0400343EA8111F5
:1097F0000123A0F89E1011464FF488504FF63642D0
:109800000DF09EFA0021017009F0D6FA002080BD0B
:1098100070B50D464FF4885000214FF68542012364
:1098200000260DF08DFA0446287805280AD0032872
:1098300002D0022813D101266978AA7830464DF06B
:10984000D3F90AE00948016841F400410160D0F809
:10985000001441F40041C0F80014002000E0112081
:109860002070204609F0A8FA002070BDD0040950ED
:10987000B0B50D4619464FF488504FF611420123FA
:109880000DF05EFA297804460020012908BF4FF048
:10989000A530002908BF4FF0C33008B14EF090FD4D
:1098A00012202070204609F087FA0020B0BD80B554
:1098B0001A464FF48850002182230DF041FA1121FD
:1098C000017009F079FA002080BD70B54FF488501E
:1098D00000214FF61042182300260DF031FA051D25
:1098E000044600F1080100F10C0200F110032846C3
:1098F0000DF06AFB30B111202070C5E90066C5E9A2
:10990000026600E0267000206061204609F054FAEB
:10991000002070BD80B51A464FF488500021822384
:109920000DF00EFA1121017009F046FA002080BDF9
:109930007CB5A1F10C000DF033FA00240DF1020505
:10994000032C06D0E0B20DF0A5F825F81400013480
:10995000F6E70DF099F804464FF4885000214FF6D1
:1099600012420C2300260DF0EBF9032E06D000EB7B
:10997000460135F8162001364A80F6E7002184605A
:10998000017009F019FA01207CBD000070B51A467B
:109990000C464FF488500021822300260DF0D0F9A8
:1099A000054680202946AA1C01F8010FDE480368FD
:1099B0002078984728462E7009F0FEF9002070BDE7
:1099C0005043412010B502464FF488500021012336
:1099D00000240DF0B5F9047009F0EEF9002010BD77
:1099E00010B502464FF488500021012300240DF0E9
:1099F000A7F9047009F0E0F9002010BD10B5024687
:109A00004FF488500021012300240DF099F90470CF
:109A100009F0D2F9002010BD70B50C464FF4885003
:109A200000214FF63942082300260DF089F905463A
:109A30001348C16A20888847686020882E70688033
:109A4000284609F0B9F9002070BD00BF70B50C467A
:109A50004FF4885000214FF63A42042300260DF0BF
:109A60006FF9054606486168026B20889047208898
:109A70002E706880284609F09FF9002070BD00BF55
:109A80005C4341202DE9F041054613480E469046BF
:109A9000006850F82540887801210C300DF00CF951
:109AA0000746B078F11C38720020B278786007F170
:109AB00009004EF0BDFB04F1340039464EF00DFCB8
:109AC000284623F05FFA28464146002222F0D6F8C5
:109AD0000020BDE8F08100BFC055412010B50868E6
:109AE0001C464EF072FC4FF4885021464FF60F4250
:109AF00001230DF025F90021017009F05DF9002026
:109B000010BD10B50868F9F7C5FE4FF48850002164
:109B10004FF68442012300240DF012F9047009F07D
:109B20004BF9002010BD80B508461FF051F8002009
:109B300080BDBFB50C4619464FF488504FF66342BE
:109B400001230DF0FDF8054694E80700D4F80E3027
:109B5000ADF80810ADF80620ADF80400A089039315
:109B6000ADF80A0001A84EF035FC2870284609F02F
:109B700023F9002004B0B0BDB0B50D4619464FF42E
:109B800088504FF6624201230DF0DAF80446288827
:109B9000411E022909D800EB4000464901EBC000F4
:109BA00014384EF01CFC002000E0022020702046FB
:109BB00009F002F90020B0BDB0B586B00D461946D7
:109BC0004FF488504FF6644210230DF0B9F8044664
:109BD0000020D5F81230ADF80A002868D5E9021245
:109BE0000493ADF80000A888ADF80610298AADF8F6
:109BF00002000138ADF80E10A97DADF80C006846E2
:109C0000ADF808208DF814104EF0EEFB2070BDF872
:109C100004006060BDF80A00A060BDF80C00E060C0
:109C2000204609F0C9F8002006B0B0BD2DE9F84380
:109C30000D4619464FF488504FF6614204230DF04B
:109C40007FF80446288A411E02292BD8DFF8649049
:109C500000EB4001AA8A4FF00008EE68A9F80080E6
:109C600029F8312009EBC101134A41F8102C95E87D
:109C70008C0021F8040C688A21F80A3C21F8087C41
:109C800021F8066C21F8020CA87D21F80C2C8870B4
:109C9000A1F114004EF0ADFBB9F8000084F800808B
:109CA000608001E002202070204609F085F8002045
:109CB000BDE8F883DC434120B537011C80B51A4666
:109CC0004FF48850002101230DF03AF81121017062
:109CD00009F072F8002080BD80B54FF48850002153
:109CE0004FF6024201230DF02BF81121017009F00B
:109CF00063F8002080BD000070B51A460C464FF492
:109D000088500021012300260DF01AF80546364838
:109D1000A178E21C43682078984728462E7009F005
:109D20004BF8002070BD00BF504341202DE9F04F9B
:109D300087B00A4680464FF488500021042300254E
:109D40000CF0FEFF45800570044698F806000128D7
:109D500021D0A8BBC148DFF890A04FF0160B0DF141
:109D600005090DF1060790F84560012E31DB06F17B
:109D70006000DAF8003049463A468DF805B0C5B2C1
:109D80002846984728B9404639460622F2F7A1F9F5
:109D9000C0B1013EE9E7B148134D90F845100129E3
:109DA00017DB01F16000AA684E1EC0B2904702287E
:109DB0003146F4D058B96088314601306080EEE712
:109DC000122005E0DAF808102846884740B1032041
:109DD0002070204608F0F0FF002007B0BDE8F08FAB
:109DE00001206080F5E700BF504341202DE9FC4190
:109DF0000A460188064641F2011001230CF0A0FF3B
:109E0000434F80463078396851F820400020019057
:109E100074B194F8290001AA00213CF00DF848B172
:109E20003C483D4940F67B024EF052FA1F2059E073
:109E3000022057E0002500E0013544F0E3FF8542B1
:109E400014D2386850F825000028F5D0019990F810
:109E5000292049788A42EFD1617942798A42EBD050
:109E600090F82D00022818BF0528E5D1EDB244F086
:109E7000C9FFA84235D894F82B1094F82D00012979
:109E800027D104282DD1002088F80000404608F092
:109E900093FF94F82D0002282CD194F82800442137
:109EA00021F03CF918BBA17BE37A01984422009190
:109EB00021463BF017FE204616213BF0FDFD786859
:109EC000002584F82D5090B10C380CF0F9FC7D6021
:109ED0000DE00528D7D8012101FA00F010F0230F7A
:109EE000D1D00C2088F80000404608F065FF002023
:109EF000BDE8FC81052084F82D0094F82C002EF09C
:109F000009FD012084F82E00B07884F82A00EEE7DD
:109F100098444120D0CE061C4AD5061C2DE9F843B2
:109F200005461E4891468846006850F82540284658
:109F300022F0FEFB08B10C2728E0B4F8A200C0070D
:109F400023D128020C23011D40F209100A460CF00F
:109F5000F7FE134A0121064624F012FE3046294638
:109F60000022002724F04CFE98F8020030721328DB
:109F700008BF1620707230460CF01AFFB4F8A20029
:109F800040F00100A4F8A20000E03A272846494624
:109F90003A4621F083FE0020BDE8F883C0554120F9
:109FA000ADBE031C2DE9F041064622480F0A1446B7
:109FB0000D46006850F8278008460CF06BFF192802
:109FC0000CD8012101FA00F01B49084206D00C21EF
:109FD00020460EF0B6F90020BDE8F081B0780021EF
:109FE00016A2062915D0535C01318342F9D131887C
:109FF00007F180028A420ED1012188F8370040F231
:10A000001D602A4688F8CE1129460CF0E9FE002191
:10A01000DEE71221DCE728460CF03CFF01281CBFDC
:10A020000220BDE8F081B2783188284611F0BCFDED
:10A030000146CDE77C5541200100C00305131415EE
:10A040001A29000080B508460449012281F8312010
:10A0500000213DF0BCFF002080BD00BF28574120FB
:10A0600070B590B00646084614460D460CF012FF37
:10A07000042857D1D6E90201D6F81A20336ACDE96F
:10A080000101CDF8162021460793706A0890D6F892
:10A090003200CDF82E00D6F83600CDF83200708FA1
:10A0A000ADF8360096F83C008DF8380096F83D0083
:10A0B0008DF83900F08FADF83A0096F842008DF82F
:10A0C0003E0030690390307D8DF81000D6F8150001
:10A0D000CDF81100707E8DF81500B06A099096F8E1
:10A0E0002C008DF8280096F831008DF82D00D6F858
:10A0F0002D00CDF82900B6F8400001AE324680F4BC
:10A100007070ADF83C00284611F03CFB6F49280AFE
:10A110003C22096851F82000314600F5F0704EF0FD
:10A1200087F803E020460C210EF00BF9002010B058
:10A1300070BD00BF7CB50446084615460E460CF0BF
:10A14000A9FE60B161480021360A8DF80710A17898
:10A15000006850F8260039B12846122101E028464F
:10A1600002210EF0EEF81DE0012180F84B10284688
:10A1700000210EF0E6F80DF107013046002215F03F
:10A1800091FC9DF8071011B120880EF051F921883B
:10A1900041F20210392202230CF0D2FD2188018005
:10A1A00008F00AFE00207CBD2DE9F0410446EA4893
:10A1B0000F0A90460D46006850F8276008460CF0DC
:10A1C00069FEA0F11701032902D240460C2102E0EA
:10A1D00030B9404602210EF0B4F80020BDE8F0810D
:10A1E000D4F82E00C6F80A02D4E90101D4F81620EA
:10A1F000E369C6F8F221C6E97801C6F8F83106F538
:10A20000F071206AC6F8FC0194F8320086F80E025C
:10A2100094F8330086F80F0294F8340086F81002A0
:10A2200094F8350086F8110294F8360086F8120288
:10A2300094F8370086F8130294F8380086F8140270
:10A2400094F8390086F81502608FA6F8160294F883
:10A250003E0086F81A02207C86F8EC01E068C6F819
:10A26000E801607D86F8F101D4F81100C6F8ED012F
:10A2700094F8280086F80402606AC6F80002D4F850
:10A280002900C6F8050294F82D0086F80902A08F6F
:10A2900080F47070A6F81802384613F01DFA0746CD
:10A2A000404639460EF04DF8002F96D140F20B6033
:10A2B00029462A4604230CF043FD4FF48071418067
:10A2C000218801800CF074FD87E700BF7C55412098
:10A2D000B0B50C46054628B98C480C4940F68802B2
:10A2E0004DF0F6FF05F10801A01E02B2002A0BD4C2
:10A2F00001F1080211F8083C097801388B42114637
:10A3000024BF0020B0BDF0E70120B0BDD7D2061CAD
:10A31000F8B50446007802280ED0012829D000287C
:10A320005DD1AB4900200022322A00F085808B18D5
:10A330000A3283F82000F7E76078411E02292BD209
:10A34000267A701E02284AD8A149A51C00200022A6
:10A35000322A46D08B1893F8207047B193F82170B9
:10A36000022F04D193F822700FB983F820000A322B
:10A37000EEE76078411E022922D200F05FF8002843
:10A3800054D00121417061780129817033D0E18876
:10A390000181D4F802104EE000284DD1A4780020AD
:10A3A000611E02291CD88A490022322A36D08B1815
:10A3B0000A3293F82150022D08BF83F82000F4E7F9
:10A3C00068B9834900200022322A35D08B180A321E
:10A3D00093F82140012C08BF83F82000F4E71220F5
:10A3E000F8BD00F02BF808B30221C6704170617807
:10A3F000012981701CD1E1794172B4F80510A0F8EF
:10A400000710A178627911400171E178A2791140B9
:10A4100041712179E279114081710DE000F00EF86F
:10A4200020B10221C470A0F8011005E00720F8BD9A
:10A43000A9880181296841600020F8BD644A002193
:10A44000322904BF00207047501890F820300BB11B
:10A450000A31F5E7012100F8201F704710B50429E3
:10A460000BD8DFE801F0030311172600144A084651
:10A4700040F296534DF01DFF20E02448104940F271
:10A48000B5524DF025FF19E0016840680D4AC2E958
:10A49000021013E0016842680A48C0E90012002176
:10A4A00009A208290AD0535C445C23434354013178
:10A4B000F7E701684068034AC2E90410002010BDB4
:10A4C00068D0061C804F412000600400F80740025D
:10A4D00070B50D4E0C4696F8440002280DD11AF0C6
:10A4E000EDFF054628B10948094940F28E424DF07A
:10A4F000EFFE002086F8440000E00C2520462946A7
:10A500003DF065FD002070BD28574120D0CE061CCF
:10A5100093D6061C70B50D46080AC2491446096850
:10A5200051F8206028460CF0B5FC32280ED008B94E
:10A5300002210CE096F83C00022807D140F20A60A4
:10A5400029462A460CF04CFC002100E00C21204654
:10A550000DF0F7FE002070BD7C554120B0F57F7FE7
:10A5600091BF112044484180002070472DE9F843F5
:10A57000174E8046002444F045FC844207D2B0695F
:10A58000005D01340028F6D04FF00C0901E04FF0D7
:10A59000000980270F4CFDB244F042FC7F30A842F6
:10A5A0000AD3F069C5EBC50101370844005D0028F6
:10A5B000F1D04FF00C0907E0B9F1000F04D12E489B
:10A5C0004FF0000980F800804846BDE8F88300BFDE
:10A5D000804F412080FCFFFF2748017811B141895D
:10A5E00001314181704700BF2348017801291CBF18
:10A5F0004FF6FF70704741884089814298BF0146FD
:10A60000081A80B2704700BF1B48817901291CBF1E
:10A610004FF6FF70704701898089814298BF0146DB
:10A62000081A80B2704700BF13494A89824298BF16
:10A630000246101A488170470F498A89824298BFA2
:10A640000246101A888170470B4800218181C0E9B9
:10A6500000118160704700BF0748018100207047EA
:10A6600005498871704700BF0348817911B181891C
:10A6700001318181704700BFE84F41202DE9F04151
:10A6800086B0074667480E0A14460D46006850F823
:10A69000268008460CF0FEFB50B101280ED1F87858
:10A6A000012802D83A79032A0DD32046122101E06D
:10A6B000204602210DF045FE002700E00227384623
:10A6C00006B0BDE8F081B9687B6988F83D000138C3
:10A6D0003C69B0FA80F0C8F80010F968C8F81410A6
:10A6E000B97888F84210414601F83E2F424642F8B8
:10A6F000103F434643F8044F440998F83600471E7C
:10A70000B7FA87F77F09BC4228D0B8F820C00027E5
:10A7100008F1240E08F10C048DE814404246CDE9FE
:10A7200003C7F4F79FFA04464FF4016021460DF089
:10A7300008FE002CC3D10CF0ADFF013098F8363084
:10A74000B8F82420C1B2304612F0B1FE284614F009
:10A750006FFA284668210CF0C7FBADE706F18004CC
:10A7600041F202102122182321460CF0E9FA054695
:10A770004FF40160002100270DF0E3FD2F716C8084
:10A780002F70D8E90001D8E904232961B8F83D10F9
:10A79000A5F80510C5E9020328466A6108F00CFB1C
:10A7A0008DE700BF2DE9F8430446F0480F460D0A37
:10A7B00004232188006850F825804FF488500CF05D
:10A7C000BFFA4FF00009064680F80090208870809C
:10A7D00038460CF05FFBE8B130468DF8039008F086
:10A7E000EBFA01200DF10301012288F84B00284605
:10A7F00015F058F99DF8031011B120880DF018FEDE
:10A80000218841F20210112202230CF099FA2188CA
:10A81000018002E002203070304608F0CDFA0020BE
:10A82000BDE8F8837C55412010B50C46818800882E
:10A83000FFF794FE014620463CF0BAF9002010BD17
:10A84000B0B50C46054681880088FFF787FE0146B3
:10A8500020B9E988A878FFF7FFFE014620463DF0C1
:10A86000B6FB0020B0BD00002DE9F84388468146C4
:10A870000026002799F8000086420AD209EB8604D8
:10A88000658844F0BFFA854207D2A08801360744A4
:10A89000F0E7B8B2FFF7C8FE09E006A006A140F253
:10A8A0007D224DF015FD404612213CF081F900203B
:10A8B000BDE8F883415353006C6C6D5F6863692E8B
:10A8C000630000002DE9FE4F0546002000266FF0D2
:10A8D000FF0400274FF0000B019102902878864278
:10A8E00034D205EB8609B9F8028044F099FA7F303A
:10A8F000B9F802A0404528BFBAF1800F0CD244F04D
:10A9000093FA04FA00F080F47F4010EA0A0F07D0AF
:10A91000B9F80400834417E0B9F80400074413E0D1
:10A92000B9F8024044F06EFA844203D2B9F8040048
:10A93000074407E07448754940F67E224DF0C8FC94
:10A94000122002906FF0FF040136C7E70299080653
:10A9500004D00198C9B23DF03AFB06E0B8B2FFF767
:10A9600063FE1FFA8BF0FFF767FE0020BDE8FE8F45
:10A97000F8B5044610B12248C66919E0FEF7F0FAAE
:10A980001F4DA86908B10BF09BFF44F03BFA002172
:10A990000CF092F9A861E86908B10BF091FF44F05E
:10A9A0003FFAC0EBC00000210CF086F90646E861D2
:10A9B000134D6821AF692846F1F76DFBAF6144F094
:10A9C00021FA01463846F1F766FBEE6144F028FAB9
:10A9D000C0EBC0013046F1F75EFB0A480321FFF7E8
:10A9E0003DFD00201F21C5E904104FF4FD50A5F8DE
:10A9F0006400FFF729FE2046BDE8F84009F0ACB836
:10AA0000804F4120CCA9061C70B53E4E0C4696F8EE
:10AA1000440001280DD11AF051FD054628B13A48ED
:10AA20003A4940F235424DF053FC002086F844008C
:10AA300000E00C25204629463DF0C9FA002070BDF3
:10AA400070B586B02F4E05460C4696F8440008B106
:10AA50000C250DE0E87801382F2808D8A8789E2822
:10AA600005D168788B2802D128783F2807D912258C
:10AA7000204629463DF0B9FA002006B070BD3DF0F1
:10AA80004FFF00212B79EA78029129888DF80E304A
:10AA900096F82430ADF80410A9788DF80F30738C37
:10AAA0008DF80610F17C02EBD322A1F10201B1FA7C
:10AAB00081F1ADF80C204FEA51118DF8101030B132
:10AAC000012814BF4FF440704FF4007001E04FF4C0
:10AAD0008070ADF8120000208DF8140001A81AF063
:10AAE000B9FB054628B10848084940F21B424DF021
:10AAF000EFFB01203D2186F8440006F15100F1F7FB
:10AB0000CAFAB5E728574120D0CE061C93D6061CBA
:10AB1000F8B5044641480E0A0D46006850F8267004
:10AB200008460CF0B7F938280ED0392816D110484D
:10AB30002946026840F20360904797F8C531A27930
:10AB40003046192112F068FC40F2344000212246C0
:10AB50000DF0D2FB284613F059FD05E040F23440D9
:10AB60000C2122460DF0C8FB0020F8BD7C55412089
:10AB700090404120FEB5044628480E0A0D46006864
:10AB800050F8267008460CF085F900F0FE003828D1
:10AB90001ED197F8C7010121002808BF0221E279E0
:10ABA000A079114387F8BC010339B1FA81F1490951
:10ABB00087F8BD11207A87F8BE0128460CF06AF9A3
:10ABC000392807D1304612F0D9FB28463D2118E03C
:10ABD0000C211CE0192097F8C5118DF8050097F895
:10ABE000BE018DF80800B7F8BC01ADF8060041F0D1
:10ABF000FE0001A98DF80400304612F087FA2846BD
:10AC00003A210CF071F9284614F012F8002140F2B4
:10AC10002B4022460DF070FB0020FEBD7C554120EC
:10AC20007CB50A460188054641F2011001230CF06B
:10AC300087F8134904462878096851F82060AEB1B6
:10AC400096F8290001AA00213BF0F6F8054680B9E4
:10AC500096F82D0001280BD196F828000021002538
:10AC600020F028FB022086F82D0002E0022500E0FB
:10AC70000C252046257008F09FF800207CBD00BF01
:10AC8000984441202DE9F0470546C0790C460F282D
:10AC900002D82878012807D91227204639463BF0E8
:10ACA00087FF0020BDE8F087DFF8409799F80E0194
:10ACB000012801D10C27F0E7022089F80E013BF0B2
:10ACC000B3FA064644F09EF80C278642E5D32E469A
:10ACD00016F8011B30463BF09FFFDFF80CA78046BB
:10ACE000BAF80400BAF80610081A90FBF7F04045CD
:10ACF0000EDD08EB8801D9F8300000EB41014A7AFB
:10AD0000520716D5C988EA79D140C907C4D110E0E5
:10AD10003BF06AFF8046BAF80400BAF80610081A39
:10AD20000C2190FBF1F0404501D10727B5E7D9F898
:10AD3000300008EB88013268012340F8112000EB55
:10AD40004100B2888280D9F83000EA7900EB4100F6
:10AD500093402978C78801723B43C380437A43F00C
:10AD60000503437230463CF0FDF828B92A78EB79A8
:10AD70004046314634F078F800278EE72DE9FE4F43
:10AD80008B460178012906D9122158463BF010FF65
:10AD90000020BDE8FE8F054602D1A879C028F3D374
:10ADA000734E96F87A0028B13CF016F908B10C21E0
:10ADB000EBE7297805F1010840463BF02DFF6B4C8D
:10ADC000A188E288511A0C2291FBF2F1814208DD40
:10ADD00000EB8000316B01EB4000407AC0F340078C
:10ADE00000E00027297840463CF0C6FAE188228935
:10ADF000511A382291FBF2F48442C5DC05F1070AAE
:10AE00002C49102202975046F1F763F93768A0B138
:10AE100000264FF02709F0B284420EDD10FB0970C6
:10AE20008179FF2907D000F1170150461022F1F770
:10AE300050F90028A8D00136EDE700202721C6B23E
:10AE4000B44206DD16FB01729279FF2A01D001306F
:10AE5000F5E7B44201D1072197E7A946414652469A
:10AE600019F8170B00900298019030464B4634F0C9
:10AE700059FF3F4F27242A78386816FB04018A714E
:10AE800006FB04F2D8F8003083501022B8F8040012
:10AE900088804946386816FB040007304DF0C8F931
:10AEA00038685146102216FB040017304DF0C0F9E7
:10AEB00000216AE76E96061C2DE9F8438846054690
:10AEC0003CF0A6F8F0B12978022901D3FF2917D167
:10AED0006E1C30463BF0A0FE244C07464FF00C0998
:10AEE000A088E188081A90FBF9F0B8420CDDF04820
:10AEF00007EB8701006B00EB4101497A890711D507
:10AF000012212CE00C212AE03BF06EFE0746A088BF
:10AF1000E188081A90FBF9F0B84201D107211EE040
:10AF2000E348006B07EB8701326840F8112000EB23
:10AF30004100B2888280DE48006B00EB4100297836
:10AF4000427A017242F00302427230463BF0DCFF6B
:10AF500020B92A783846314639F044FA0021404673
:10AF60003BF026FE0020BDE8F88300BF30414120C1
:10AF7000145641202DE9F04F91B01646059131B19C
:10AF8000054601EB030828B130882F1805E00021A1
:10AF9000002078E006AD05F12B07012405A804A9DF
:10AFA00042463B46CDE90455009406F089F9002855
:10AFB00067D1681C04A942463B4600940390059063
:10AFC00005A806F07DF900285BD105F12A0A4FF0AB
:10AFD000FF340296039801340078844257D2AAF1D4
:10AFE00028000DF1100B0DF11409012642463B46D5
:10AFF000059048465946009606F062F900283FD170
:10B00000AAF12700594642463B460096059048461D
:10B0100006F056F9A0BBAAF12600594642463B4627
:10B02000059006200090484606F04AF940BBAAF178
:10B030002000594642463B4600960590484606F099
:10B040003FF9E8B9AAF11F00594642463B46059030
:10B050001AF8200C0090484606F032F980B9012019
:10B06000594642463B460AF12906CDF814A0009005
:10B07000484606F025F9B246029E0028AAD000E014
:10B08000029E0499491B318011B0BDE8F08F002069
:10B09000F7E72DE9F04F85B00A46054641F2011069
:10B0A0000021012300270BF04BFE8346287839F05E
:10B0B00075FB049010B104970C2620E002AE0297B5
:10B0C00043F09CFE87420CD2F8B2012132463AF09E
:10B0D000B3FE20B90299A878097E8142ECD00137ED
:10B0E000EEE7297E51B105F119090A4648467AB1C1
:10B0F00010F8013B013A013B1E2BF8D912265846A5
:10B100008BF8006007F058FE002005B0BDE8F08F16
:10B1100004A839F0A3FA049F0646002845D107F198
:10B12000320A00240DF10C08287E844215D219F849
:10B1300004307A780DF1070001210090404639F083
:10B1400015FE70BB9DF807000AF8040097F831005F
:10B150000134013087F83100E6E728780521B87519
:10B1600001206C88B8763C762879002808BF012138
:10B17000B976687DB874297EE88A87F831103882FC
:10B1800000212879796028B107F11B00691D102280
:10B190004DF04EF8E0B22C2105223CF0A7F906460E
:10B1A00003E00646072808BF0D26002EA7D0002F73
:10B1B000A5D0787839F024FAA1E770B50446007874
:10B1C00039F0ECFA98B10646807E01070DD400F004
:10B1D0000300411E012908D802280AD170781621DF
:10B1E0002AF0C2F800B305460CE00C250DE042251C
:10B1F0000BE0307E3CF094F93046442100220025DB
:10B2000039F092FA707839F0FBF94FF48850002148
:10B2100042F26C0202230BF093FD2178057041701D
:10B2200007F0CAFD002070BDB07E40F00300B0768C
:10B23000F8E700002DE9F8436C4D884695F80E01BB
:10B2400001281CD0022000263C274FF0010943F2C0
:10B250000C0485F80E0143F0D5FD86420AD2A86998
:10B26000C05D0D2803D809FA00F0204202D1403712
:10B270000136F0E7F4B243F0C5FDA04201D90C213C
:10B2800010E000263C2743F0BDFD864209D2A869A4
:10B29000C05D012804BFF0B23BF02EFB4037013601
:10B2A000F1E7002140463BF083FC0020BDE8F88335
:10B2B000145641202DE9F843DFF8609D884699F83F
:10B2C0000E01012801D10C252EE0022089F80E0183
:10B2D0003AF0AAFF064643F095FD0C25864223D39B
:10B2E000414C0026A088E188081A90FBF5F1F0B2E5
:10B2F000814218DD00EB8001D9F8302002EB4101DA
:10B300000A4612F8093FDF070BD09F074FF0FB07F3
:10B3100058BFFA273B4013700A7A4FF6FF7333F099
:10B32000FDFD0136DEE70025404629463BF040FCA6
:10B330000020BDE8F88300BF70B52C4D0C4695F891
:10B340007A0020B13BF048FE08B10C2115E02648F8
:10B3500000222723C1880089401A382190FBF1F090
:10B360002968FF25D6B2B04204DD16FB0316013270
:10B37000B571F7E734F052FD002120463BF018FC90
:10B38000002070BD2DE9F84388460C253BF040FEB7
:10B3900018B3154FDFF8849C0026B888F988081A7E
:10B3A00090FBF5F1F0B2814216DD00EB8001D9F897
:10B3B000302002EB41010A4612F8093FDC0709D0B0
:10B3C0005C074FF0FD0458BFFC24234013700A7A39
:10B3D00039F054F80136E0E70025404629463BF0B5
:10B3E000E7FB0020BDE8F88330414120145641209E
:10B3F0002DE9F8430546334890460E46006850F85C
:10B400002590284621F07EF908B10C2752E0284605
:10B4100021F09EFA28B9B9F89E00C00701D11A2779
:10B4200048E0B9F8A200C00641D43389F288718897
:10B43000B08820F0ADFCE0B328023023011D4FF4AA
:10B4400086700A460BF07CFC1F4A0521044623F057
:10B4500097FB204629460022002723F0D1FBB08825
:10B46000718860812181D6F80620E260B289B2EB52
:10B47000400F28BF420070896282B0EB410F28BFA5
:10B4800048002082284621F063FA80F0010040F253
:10B49000011184F82C002046A4F82D100BF088FC34
:10B4A000B9F8A20040F01000A9F8A20002E03A2783
:10B4B00000E01227284641463A4620F0EFFB0020E4
:10B4C000BDE8F883C055412021D5031C2DE9F04F7C
:10B4D0008BB0054600780C46EF2830D86978EF2904
:10B4E0002DD8AA78531E1E2B29D86F686C4EA7F151
:10B4F000FF03B34223D8B5F8088040F6FE76A8F1E2
:10B5000001039BB2B3421AD8B5F80AB040F69B7655
:10B51000ABF10503B34212D82B7B1E2B0FD895F845
:10B520000D90B9F1070F0AD8AB7B012B07D895F81E
:10B530000FA0BAF1010F02D82E7C022E0ED341F2D9
:10B5400001100021224601230BF0FAFB11210170AA
:10B5500007F032FC00200BB0BDE8F08F8DF804003E
:10B5600001208DF806208DF8051005F1110110223B
:10B570008DF81A608DF81530ADF8108002978DF8AF
:10B58000190001A817304CF053FE5FEA89704FF0A4
:10B59000020140F2E24058BF09F001018DF8141099
:10B5A000B7FBF0F909FB107000284FF0010018BF3D
:10B5B0008246BAF1000F04D0B8F1F60F0ED8012779
:10B5C00017E04FF47A7240F6C410B8F1FB0F09FB94
:10B5D00000FC0BFB02F20FD8012318E008F1F50084
:10B5E000F62280B2B0FBF2F708EB0700013890FBBF
:10B5F000F7F808F1050812E008F1FA03FB279BB2FF
:10B60000B3FBF7F308EB0307013F97FBF3F80220C6
:10B61000624538BF012003FB00F700FB09F9214A0E
:10B620004046002E18BF0430515C1F4AC0B2515C26
:10B63000F6F714F85FFA88F12A7B8DF816A0ADF8BA
:10B640000C908DF81770ADF8121018490132496846
:10B650007A430844A978D2B29630484341F64C5117
:10B6600009FB01F100EB80004000B1FBF0F0F9B202
:10B6700051FA80F0013890FBF1F07843C0B290426B
:10B6800088BF1046884298BF08468DF80E00B0FB70
:10B69000F1F021468DF8180001A800F009F859E7EB
:10B6A00000FF0F008396061C8896061C0456412056
:10B6B0002DE9F04F93B00546078940780C460DF10F
:10B6C00047010DF146023BF049F848B1064641F208
:10B6D00001100021224601230BF032FB067073E0BB
:10B6E00040F2E240002607FB00F80AAF0A9643F05A
:10B6F00085FB864217D2F0B201213A463AF09CFB14
:10B7000078B90A982A78817D8A4205D1807E00F036
:10B710000300022805D15DE0007E9DF846108142BD
:10B720005BD00136E3E74FF0000A43F067FB864247
:10B7300009D241F201100021224601230BF000FB47
:10B7400080F800A040E02878EF2834D8AB461BF8FA
:10B75000020F01381E282ED8288940F67C41043873
:10B76000884228D868689249FF38884223D8A94679
:10B7700019F80A0F411EC9B21E291CD8E9890139DE
:10B78000FA2918D8A9890022B2EB113F13D1697C9C
:10B79000012910D8A97C01290DD8EA7C531EDBB2FF
:10B7A000062B08D82B7D5E1E0E2E04D895F815E0CA
:10B7B000BEF10F0F14D941F20110002122460123DE
:10B7C0000BF0BEFA1221017007F0F6FA002013B058
:10B7D000BDE8F08F4FF00C0AA7E74FF0420AA4E74C
:10B7E000B0FBF2FC0CFB1206360603D103FB02F69B
:10B7F000864208D941F201100021224601230BF0B4
:10B800009FFA1121DFE711D2BEF1000FD3D00EFB5A
:10B8100002F1ACEB030001FB002086B243F0EEFA2C
:10B8200000EB8000B6EB400FE4D8A97C002948D09B
:10B83000E889E97C4FF6FD73821E51436A684244F1
:10B84000013AB2FBF8F201FB0231AA8989B29142B6
:10B85000B1D3297C8A07CDD0E04B01F00F020E094D
:10B860009A5C9B5D1A44012AC4D1AA7D002ADC4A55
:10B8700018BF0430C0B2515CDA4A565C3146F5F765
:10B88000EDFEA97D80460C200029314608BF082026
:10B890000596F5F7E3FE96304146CDF81080079007
:10B8A000D148697C406801290391404400F1960029
:10B8B0000990084619D19BF8000009994843019066
:10B8C0001AE069684046F7F755F800287FF473AF2F
:10B8D000E87C6968AA894843B0FBF8F1E8894143EC
:10B8E00089B28A423FF667AFB3E799F80000099939
:10B8F000D94648430191099099F8001041430798AF
:10B9000011FA80F82889029140F2E24148438045CB
:10B9100002D94FF03B0A04E0287838F03FFF12903C
:10B9200090B1002541F201100021224601230BF0C5
:10B9300007FA80F800A007F03FFA002D3FF446AF69
:10B94000129838F099FF41E79BF8001012A838F0E0
:10B9500085FE28B182460728E3D14FF00D0AE0E7C3
:10B960001299A87C4FF00009487501F13200089146
:10B9700006909BF8000081451CD2089809F1010649
:10B980000021F3B2427810A8009739F0EFF90028AF
:10B9900040F0F7809DF82800069901F80900089901
:10B9A000B14691F83100013081F83100E1E700BF84
:10B9B00000FF0F0008989DF84610C27D9DF84700D3
:10B9C0003AF06CFC8246002840F0DC80089EF07D56
:10B9D0003BF080FC82464FF41C7040F2712100273E
:10B9E0004FF0010B00EB48008DF83C70ADF83AB019
:10B9F000ADF83270B0FBF1F04FF0FF31ADF8300030
:10BA0000ADF82E00288901EB80018000ADF82A00F6
:10BA1000ADF82800F07DADF8341000F50070ADF8F9
:10BA20003800ADF836000AA84CF0DEFC002894D1AE
:10BA3000BDF82A00BDF83480AAF814B08AF8167050
:10BA4000AAF80800AAF80A80DDF82E00CAF80C004F
:10BA5000BDF83600CAF80470AAF81200AAF810005F
:10BA600050464CF0C6FC2878089E08214FF0020989
:10BA7000B1769DF84610B0759DF847003176707626
:10BA80000C21A87D002808BF0821B176A8780221E2
:10BA900086F83100A889F081A87BF074E87C3075C5
:10BAA0002889B0816868B060C1200BF005F970602A
:10BAB00096F83100022109EB40000BF0FDF87168A7
:10BAC000C1F88400059996F83100D6F804A08AF8E8
:10BAD0000600A87AEA7C95F80EC08AF808208AF851
:10BAE0000700A8898AF819C0AAF8220001982A89B3
:10BAF000CAF80C000998AAF80420CAF814003B48B8
:10BB0000405C8AF82400287D8AF81800687D8AF84D
:10BB10001000A87D0346002818BF01238AF836309C
:10BB2000AB7C8AF8203040F2E2435A436B68AAF8B3
:10BB30006480CAF81C30079BAAF86230049BAAF8FC
:10BB40006030029BCAE914327278039B8AF86E1047
:10BB50008AF86DC08AF86C70DAF884108AF86F3051
:10BB60008AF86B20F27D0A7001EB4702089B577040
:10BB700093F831309F4211D2069BDB5D0137937001
:10BB8000F2E78246089D9DF846109DF847006A78C6
:10BB90003AF0BEFB687838F033FDC2E6C8B1089FC2
:10BBA00005F11701102207F11B0630464CF040FB4F
:10BBB0000025104A3146CAF831508AF83550B87E0F
:10BBC0007B7800F0FC000130B8760948F4F7D0FD2E
:10BBD00000E001254FF0000AA4E600BF0CCD061CD2
:10BBE0008396061C8896061C04564120A896061CBF
:10BBF0006CB5061C2D4C051C2DE9F04F85B00A468E
:10BC0000054641F201100021012300260BF098F8AF
:10BC10000446202004963BF02BFA01460C20002914
:10BC20004AD0DFF8E0B0DBF80410002944D1A81CAA
:10BC3000002704AA0026019402901BE002295ED886
:10BC400099F804000DF10F018AF8280023F0DCFDBB
:10BC500088BB9DF80F00C8BB0298394639B130F84F
:10BC6000042BB8F8003001399A42F7D12CE00137A3
:10BC7000013622462978F0B2884229D205EB8009A4
:10BC8000DBF80010C84618F8020F51F820A0BAF1EE
:10BC9000000F2AD09AF82B00C0B99AF82900002189
:10BCA00014463AF0C9F810BB9AF82D100C2002295E
:10BCB00018BF0529C2D1019C2070204607F07CF8EE
:10BCC000002005B0BDE8F08F1220F4E70C20F2E769
:10BCD00001980026067007F06FF88BF80C60CBF81F
:10BCE000045039F085FA0120EBE70220E3E7CD4864
:10BCF000054940F617024CF0EBFA1F20DBE70B205A
:10BD0000D9E700BF984441204AD5061C2DE9F041EF
:10BD1000C24F0C4680460026002543F073F885424A
:10BD200008D2B869304490F83C00052802D040366B
:10BD30000135F2E7EDB243F065F8A84214D9B869CD
:10BD4000805928B9B748B84940F216224CF0C0FAD9
:10BD500031F080FB0C280ED14046032122460BF027
:10BD600019F80120BDE8F08120460C213AF020FFAF
:10BD70000020BDE8F081B86980590C380BF010F84C
:10BD8000B96900208851BDE8F08100BF2DE9F0417C
:10BD900098B0A24E054600200C468DF8070096F894
:10BDA0000E01022816D0012086F80E010020074659
:10BDB0008DF8070043F026F8874207D2B06900EB00
:10BDC000871090F83C10781C0529F0D143F01AF840
:10BDD000874207D20C2120463AF0F8FE002018B026
:10BDE000BDE8F081287930B96979A81D3BF08CF85D
:10BDF00008B10B21EFE729886888884201D9122110
:10BE0000E9E70B1F43F6FC72122193429CBF0438F2
:10BE10009042E0D8288AEB898342DCD8298BEA8AD1
:10BE20008A42ECD8AA8A12210A2AD4D3B0F5486FE4
:10BE3000D1D8062BCFD3B2F5486FCCD8698A8B08FE
:10BE40007C2BDCD86B79032BD9D82B7B032BD6D852
:10BE500001314843B0EB820FD1D2D80706D07049E8
:10BE600006F12200F6F7D6FB0028C8D10DF1070035
:10BE70003AF0AEF901460028ADD100200121B5F815
:10BE800018808DF81C00ADF812009DF80700ADF881
:10BE90001A10ADF81800ADF81600288A8100B8EB2A
:10BEA000400FADF80A104FF0FF3101EB8001ADF803
:10BEB0001410E9894FEA8102ADF8082028BF4FEA43
:10BEC00040080220B8F1020F98BF8046EF8A4FEA7F
:10BED0004802ADF81020B7EB410F28BF4F00022FEA
:10BEE00098BF07467800ADF80E0002A84CF07CFA27
:10BEF00008B10D216FE79DF80700B169800108586E
:10BF000020B148484849A9224CF0E2F9002000211C
:10BF100000223A230AF014FF9DF80730B2694FEA75
:10BF20008311505000B30121417269798170297BDE
:10BF300041702968C0F80A102979017069899DF853
:10BF40000730A0F80710D5F80610C0F80310D5F890
:10BF50000E10A0F81880C782C0F80E10698A4182BE
:10BF6000AF8A8782B26901E0AF8A698A02EB8310E7
:10BF7000052280F83C200120ADF84010ADF8427059
:10BF80008DF83200BDF8120029796A79ADF83E00CB
:10BF900028688DF8361096F87A108DF835200E90B6
:10BFA000BDF80C008DF85C108008ADF83C001F2037
:10BFB0008DF830004FF0FF300B906889ADF82A0003
:10BFC000D5F80600CDF826009DF807008DF833005F
:10BFD00000208DF83100287B03288DF834000FD81D
:10BFE000DFE800F002070207308CADF82400F069AA
:10BFF00004E0F08CADF82400D6F82200089004E0AC
:10C00000094A0021EE234CF054F908A830F05CFEF8
:10C010000146002818BF0321DDE600BF1456412069
:10C020006896061CD0CE061C5DD5061C2DE9F8438B
:10C03000324F054614468946386850F82560284630
:10C0400020F0A2FB18B9B6F89E00C00701D10C275A
:10C050000CE042F0D7FEA84207D9386850F8250016
:10C0600018B190F84800C00708D11A272846214681
:10C070003A461FF013FE0020BDE8F883B6F8A20090
:10C08000000738D4284639F0A3FD0028DFD1280264
:10C090003C23011D4FF485700A460AF051FE184AF0
:10C0A0000321804622F06CFD4046294600220027ED
:10C0B00022F0A6FDD9F80200D9F806101022C8E92E
:10C0C000020109F10C01B9F80A00A8F8380008F1DA
:10C0D00010004CF0ADF896F89E00C0F3401088F8C0
:10C0E0003A0040460AF064FEB6F8A20040F00800AC
:10C0F000A6F8A200BAE73A27B8E700BFC05541202A
:10C100008DD9031CE0B50021044B0122009100F100
:10C110001001F4F7BFFA00208CBD00BF476A051C70
:10C1200070B50C46098806464FF4885008230AF07B
:10C1300007FE0546304620F0ADFB08B1022017E0AF
:10C14000A178A1B11120042912D8CA1ED2B2022AA4
:10C150000ED330462FF072F90C49687191F839000E
:10C1600091F83B1038F02AF9A871002000E0122065
:10C17000A178287029712188698010B10020A5F864
:10C180000500284606F018FE002070BD5C434120E3
:10C190002DE9F04FC5B09346049131B10546CE1854
:10C1A00030B1BBF800002F1805E0002100201AE094
:10C1B00005AD05F58077012404A803A932463B4666
:10C1C000CDE90355009405F07BF850B9681C03A92C
:10C1D00032463B4600940290049004A805F070F8A3
:10C1E00030B10399491BABF8001045B0BDE8F08FA2
:10C1F00005F11A0A4FF0FF3102220298013100784E
:10C20000814280F0C080AAF118000DF110080DF1F4
:10C210000C090191009232463B46012404904046AD
:10C22000494605F04DF80028DBD1AAF11600494631
:10C2300032463B4600940490404605F041F8002801
:10C24000CFD1AAF11500494632463B46049006205C
:10C250000090404605F034F80028C2D1AAF10F0042
:10C260005C464FF0010B494632463B46049040463F
:10C27000CDF800B005F024F8002840F08280AAF143
:10C280000E00494632463B46CDF800B00490404689
:10C2900005F016F8002874D1AAF10D00494632467F
:10C2A0003B46CDF800B00490404605F009F8002860
:10C2B00067D1AAF10C00494632463B46CDF800B0A2
:10C2C0000490404604F0FCFF00285AD1AAF10B006C
:10C2D000494632463B46CDF800B00490404604F053
:10C2E000EFFF00284DD1AAF10A00494632463B46ED
:10C2F000049002200090404604F0E2FF0028A3468C
:10C300007FF46FAFAAF10800494632463B460490DD
:10C3100001200090404604F0D3FF00287FF461AF75
:10C32000AAF10700494632463B4604900620009099
:10C33000404604F0C5FF00287FF453AFAAF1010086
:10C34000494632463B46049001200090404604F0A6
:10C35000B7FF00287FF445AFCDF810A04046324625
:10C360003B460AF1FE081AF8011C0091494604F008
:10C37000A7FF01990028C2464FF002023FF43DAFEB
:10C380002FE7A3462DE700202BE700002DE9F04F13
:10C39000A5B00DF110088A4681460027422140468B
:10C3A0008DF80F70EFF777FEDD4E96F80E0101283D
:10C3B00017D0022086F80E01002004468DF80F00E9
:10C3C00042F020FD844207D2B06900EB841090F85F
:10C3D0003C10601C0529F0D142F014FD844208D2C3
:10C3E00000270C2150463AF0F1FB384625B0BDE855
:10C3F000F08F99F8000048B999F8021009F103008C
:10C400003AF082FD10B100270B21EBE799F80920E3
:10C4100000271121072AE5D812F00400E2D112F01A
:10C42000F80F02D000271221DCE7A84902F00F0024
:10C43000130909F10A0E02F0020C0027085CC95C1E
:10C440007346084412215FFA80FB02F001005C464B
:10C450007CB1BCF1000F00D038B11D88042DC1D3D0
:10C460005A88042ABED3AA42BCD810330138013CF2
:10C47000EEE7102000EB0B1C002000F110029445A9
:10C4800029D009EB0004238AE5899D42CAD8208B74
:10C49000E18A8142C6D8A08A002712210A28A1D3A6
:10C4A000B3F5486F9ED8062D9CD3B0F5486F99D848
:10C4B000618A8C087C2CB5D8013100EB8000002704
:10C4C0005943400001EB81014B1C1221B0EB530F8B
:10C4D0001046D2D286E799F802000128A2D899F82E
:10C4E000010003289ED8C007CDF808E007D078499E
:10C4F00006F12200F6F78EF800287FF493AF0DF1D5
:10C500000F0039F065FE10B1014600276AE71620DA
:10C5100009F10E0200271BFB00000090002000998B
:10C520005D4600F1160B594535D002F110014FF070
:10C53000FF34019111888B0028F80030404401231A
:10C5400043829DF80F30077547810382C38153886A
:10C5500004EB830484819C0044801489B4EB410F74
:10C5600028BF4C00022C98BF02246100C180518971
:10C57000B1EB430F28BF5900A14298BF21464900A3
:10C5800001814BF031FF019A002858464FF03B01E2
:10C59000AB46C4D026E79DF80F00B16982018A58E6
:10C5A00042B14C484C494FF4D3724BF091FEB16903
:10C5B0009DF80F00820101EB8010AE46002441F887
:10C5C0000290052108F10A020DF1540880F83C1090
:10C5D0001F208DF864004FF0FF3099F809C01890C3
:10C5E000B9F807008DF866C0ADF85E00D9F8030011
:10C5F000CDF85A0005EB45008300A34211D0029804
:10C6000008EB04050C348168076810300290296239
:10C6100032F8061CAF61178816328908EF83A983A8
:10C62000EBE70CF00501052918D1AEF1010208F184
:10C630001801BDF86E3002EB420201EB820108EBFB
:10C64000820049881944BDF86C30994288BFADF822
:10C650006C1030F8182F914288BF01809DF80F00B0
:10C6600099F8001099F802208DF8670001208DF8E4
:10C670006A1096F87A108DF869208DF8650099F89F
:10C6800001008DF8901003288DF868000FD8DFE8BE
:10C6900000F002070207308CADF85800F06904E0A2
:10C6A000F08CADF85800D6F82200159005E00A4A43
:10C6B000002140F2F3134BF0FCFD15A830F004FB11
:10C6C00001460127002818BF03218BE60CCD061C6C
:10C6D0006896061CD0CE061C5DD5061CBCB50D4662
:10C6E000044622B1F9F7A0FD58B90C2112E0D24856
:10C6F0001F2157300A06F8D0CAB20139825C002ADD
:10C70000F8D0084905F12002032300912946F9F7E2
:10C71000DFFC01462046BDE8BC403AF057BA00BFF6
:10C7200014564120656C051C80B50246084611462A
:10C730000022FFF7D3FF002080BD80B5034690F8AC
:10C74000402008461946FFF7C9FF002080BDB0B55C
:10C750000A4604464FF48850002110230AF0F0FAEC
:10C7600005462088291D05F1080205F10C036880A3
:10C77000C0B209F0EFF82870284606F01DFB002033
:10C78000B0BDF8B50A4604464FF488500021042392
:10C790000AF0D6FA0546A078022801D9122623E02D
:10C7A0002088B0F5007F0AD3C7B242F02BFB874246
:10C7B00019D238460121F22238F052FB0CE0B0F5D4
:10C7C000807F10D3C7B242F01DFB87420BD23846A0
:10C7D0000121F22239F0C2F8A2780646384601213A
:10C7E00009F046F900E0022620882E70688028466D
:10C7F00006F0E2FA0020F8BD70B50A4604464FF490
:10C800008850002110230AF09BFA05462088B0F5D5
:10C81000007F1AD3C6B242F0F5FA864233D2291D00
:10C8200005F1080205F10C03304609F093F81128D0
:10C8300018BF002828D13046012138F0D3FA58B368
:10C840003046002138F0CEFA1EE0B0F5807F1AD3D2
:10C85000C6B242F0D7FA864215D2291D05F1080268
:10C8600005F10C03304609F075F8112818BF0028AF
:10C870000AD13046012139F02DF868B13046002147
:10C8800039F028F800E002202870208868802846C7
:10C8900006F092FA002070BD0020F5E7F8B50A46D0
:10C8A00004464FF48850002104230AF049FA054653
:10C8B000A078022801D9122623E02088B0F5007F55
:10C8C0000AD3C7B242F09EFA874219D238460021F5
:10C8D000F22238F0C5FA0CE0B0F5807F10D3C7B271
:10C8E00042F090FA87420BD238460021F22239F00A
:10C8F00035F8A27806463846002109F0B9F800E07C
:10C90000022620882E706880284606F055FA0020FE
:10C91000F8BD000070B5144605461FF035FF20BB7A
:10C920002846012122F016F903281ED128460121AC
:10C9300022F0FCF8064622F061F90F2815D196F88E
:10C940003A00C8B12846012122F0FAF90E480068E1
:10C9500050F82500B0F89E1021F40071A0F89E1048
:10C96000284606211FF048FE0BE00C2228462146EF
:10C970001FF084F9002070BD28460F21062222F006
:10C980008DFC0022F2E700BFC0554120F8B51446E7
:10C990000E4605461FF0F8FED8B92846012122F0C0
:10C9A000D9F8032815D12846012122F0BFF80746FF
:10C9B00022F024F90F280CD107F11000B11C10222D
:10C9C0004BF036FC28460F210022002622F066FCA0
:10C9D00000E00C262846214632461FF04FF9002081
:10C9E000F8BD00002DE9F041ED4E0546884670681F
:10C9F000002818BF01202978B1FA81F1490988423D
:10CA000010D000273C2442F0FDF987420CD2B069D7
:10CA1000005D092803D12978F8B21FF0D9F8403415
:10CA20000137F0E7432100E0002140463AF0C0F82A
:10CA30000020BDE8F08100BF145641202DE9F041EF
:10CA4000D74F04460D4697F80E01012818D0022052
:10CA500087F80E0139F0E8FB064642F0D3F986422A
:10CA60000ED2304633F0DAFC90B1304636F00EFF8D
:10CA700050B1204603212A460AF08CF9012404E033
:10CA800028460C213AF094F800242046BDE8F081B5
:10CA9000B8694FEA8618002400EB861150F80800A8
:10CAA0000C3881F83C400AF07BF9B869002140F865
:10CAB000084028463AF07CF841F2031000213E225B
:10CAC00012230AF03DF944F20E4146800123018011
:10CAD000B96901EB861191F82C20027191F833208D
:10CAE0004271CA69098C0373C48104744181C0F81E
:10CAF000062006F061F9C8E7FEB5054680890C46B8
:10CB000043F6F6710A3888420CD82878032809D8E9
:10CB1000A878012806D868780F2803D86889800883
:10CB20007C2806D90025122120463AF04FF82846E5
:10CB3000FEBD9B4F97F80E0101280BD0022087F80D
:10CB40000E0139F071FB06468DF80B0042F05AF9E0
:10CB5000864202D200250C21E6E72878C00708D1DA
:10CB60006A78A978E81C3AF0FDF910B100250B218C
:10CB7000DAE70DF10B0039F02BFB10B1014600256F
:10CB8000D2E7B9699DF80B000E2201EB801080F806
:10CB90003C209DF80B0082018A5842B10B480C4999
:10CBA00040F2B2324BF094FBB9699DF80B00820160
:10CBB000AB788D5029786A780335009501F0010132
:10CBC00033F0F4FB01460125AEE700BFD0CE061CD2
:10CBD00068D5061C7CB514460E4605463AF08CF91D
:10CBE00028B939F023FD28461FF028FE30B10C2269
:10CBF000284621461FF042F800207CBD28461FF041
:10CC0000D1FE48B330790DF107010DF1060239F07C
:10CC10001DFB02460028EBD19DF8070000210022F1
:10CC2000002339F02DFE02460028E1D12802062318
:10CC3000011D40F211100A460AF082F801218170AC
:10CC4000718801809DF80610C1709DF80710017170
:10CC50000AF0AEF80022CBE71A22C9E7F8B514466D
:10CC60000E4605463AF048F928B939F0DFFC284667
:10CC70001FF0E4FD30B10C22284621461EF0FEFFD5
:10CC80000020F8BD28461FF08DFED0B1307900217C
:10CC90000022002300273AF05BFC02460028EBD17B
:10CCA00028020623011D40F211100A460AF048F836
:10CCB0007188877001803179C1700AF079F800229B
:10CCC000DAE71A22D8E7000070B5F54E0C4696F860
:10CCD0000E1101291AD00221057886F80E1142F0B2
:10CCE00091F8854212D2B06900EB851090F83C00B3
:10CCF0000F280BD1284636F0C9FD014638B9B06976
:10CD0000102100EB851080F83C1003E00C21204638
:10CD100039F04EFF002070BD70B54FF488500021EF
:10CD200042F21802092300260AF00AF80446451CBC
:10CD3000EFF798F901462846F6F7ADFB651DEFF7CA
:10CD400091F901462846F6F7A6FB2046267006F024
:10CD500033F8002070BD000010B50A464FF488502B
:10CD60000021022309F0ECFF0C49044691F8390038
:10CD700091F83B1037F022FB6070EC4890F80E11F0
:10CD800002290FBF0C20012180F80E110020207015
:10CD9000204606F011F8002010BD00BF5C43412082
:10CDA0001456412010B54FF48850002142F202027F
:10CDB0000623002409F0C4FFF549FB2304700A8B05
:10CDC000C98A4380511A01EB1161090A017105F00A
:10CDD000F3FF002010BD00BF10B50A464FF4885085
:10CDE00000210A23002409F0ABFFFB2140F6FF736A
:10CDF0000470418005210172F749CA8A098BC380FA
:10CE0000891A01EB1161090A017105F0D5FF0020B3
:10CE100010BD00BF70B50C46098806464FF4885017
:10CE200042F215020A2309F08BFF054630461FF037
:10CE300025FC08B10C2008E0F848006850F82600EE
:10CE400081686960007B28720020287020886880D3
:10CE5000284605F0B1FF002070BD00BF7FB50A462F
:10CE600004464FF488500021202309F069FF202157
:10CE70000546EFF710F92088B0F5007F0CD3C6B255
:10CE800041F0C0FF864224D205F1140105F11802D9
:10CE9000304638F069F81DE0B0F5807F19D3C6B28E
:10CEA00041F0B0FF864214D205F11C0005F11801D3
:10CEB00005F1140205F11003CDE90032CDE90210AD
:10CEC000291D05F1080205F10C03304638F0C4FEB7
:10CED00000E00220287020886880284605F06CFF5A
:10CEE000002004B070BD00002DE9F8430A46044656
:10CEF0004FF4885000211023002609F021FF054639
:10CF00002088A9462F462C46688049F80C6F47F8C0
:10CF1000086F24F8046F5FFA80F841F073FF404512
:10CF200008D9404621463A464B4609F05BFA48B1DB
:10CF30000C2000E002202870284605F03DFF00206C
:10CF4000BDE8F883208810B938680028F0D005487B
:10CF5000806810F8081000200029ECD1C9F8000002
:10CF6000E9E700BF0456412070B50A4605464FF474
:10CF7000885000210723002609F0E2FE29780446A4
:10CF800012202070012913D8681C3AF0F5F9924953
:10CF9000CA880989891A382291FBF2F1814205DD9C
:10CFA000611C32F053FF207010B905E002202070A0
:10CFB000A4F80560C4F80160204605F0FDFE0020DD
:10CFC00070BD00BFBCB508460021002439F0FEFD4D
:10CFD0001A4D01200DF106010DF107028DF8060032
:10CFE00082202B68984780B120208DF807408DF86B
:10CFF000060078485730F9F7B3F87648104A03210D
:10D000005730F9F79BF80020BCBD20208DF80600B2
:10D010009DF807000028ECD06E482B680DF1060142
:10D0200000F157028020984718B100208DF80700C2
:10D03000DFE79DF807000028DFD1DAE75043412001
:10D04000E572051CB0B54FF48850002142F203028E
:10D050000923002509F074FE044601303AF014F863
:10D060002046257005F0A8FE0020B0BD80B50A4618
:10D070004FF488500021042309F062FE554991F8CD
:10D080000E21012A0FBF0C21022281F80E2100215E
:10D0900001704FF4FE72428005F08EFE002080BDCC
:10D0A0001456412010B50A464FF4885000210A2337
:10D0B000002409F045FE05490470C0F80610C0F8C8
:10D0C000021005F079FE002010BD00BFFB004808EB
:10D0D000F8B50A464FF488500021022300250227A4
:10D0E00009F02EFEE34E0446457096F80E01012825
:10D0F00002D10C20207014E086F80E713C272570B8
:10D1000041F080FE854209D2B069C05D032802D893
:10D1100060780130607040370135F1E76078400891
:10D120006070204605F048FE0020F8BD14564120EE
:10D13000F8B50A4606464FF4885000210723002719
:10D1400009F0FEFD0446A0F8057012202546207067
:10D1500045F8017F3178012913D8701C3AF00CF999
:10D16000ED49CA880989891A382291FBF2F1814276
:10D1700005DD294632F084FE207010B903E002205C
:10D180002070AF802F60204605F016FE0020F8BD0D
:10D190003041412010B50A464FF488500021022347
:10D1A000022409F0CDFDB34A0C2192F80E31012B77
:10D1B0004FF00C031CBF82F80E410023D64A0370C7
:10D1C0009388D288D21A92FBF1F1417005F0F4FDF8
:10D1D000002010BD145641203041412070B50C464E
:10D1E000098806464FF48850062309F0A9FD054634
:10D1F00030461FF039FB08B10C2006E07948006882
:10D2000050F82600808DA880002028702088688033
:10D21000284605F0D1FD002070BD00BFC05541205B
:10D220002DE9F0416F4E05469046306850F8254094
:10D2300028461FF0C1FA08B10C2636E0B4F8A20067
:10D2400040072FD441F0DEFDA84207D9306850F8DE
:10D25000250018B190F84800000704D4B4F89E00E7
:10D2600010F0810F20D028020C23011D4FF4847090
:10D270000A4609F065FD114A0421074621F080FCA9
:10D28000384629460022002621F0BAFC01203872D7
:10D29000384609F08DFDB4F8A20040F00400A4F86F
:10D2A000A20002E03A2600E01A262846414632460D
:10D2B0001EF0F4FC0020BDE8F08100BF71C2031C29
:10D2C0002DE9F04385B00446002015460E468DF842
:10D2D000130020461FF0DEFA08B1022760E0204666
:10D2E00021211FF08DFB70B3B07870B31127042893
:10D2F00056D8C11E022953D33A490DF113020968C9
:10D3000051F824903849095C20462CF069FE7F28AA
:10D310001DD0804699F89700C8B19DF81300802869
:10D3200015D020462946002200271EF0B7FC9DF8A4
:10D330001300B37800210222CDE900802046029735
:10D340001FF0E8F832E01A272AE0122728E0B9F89F
:10D35000A200C0052ED420021023011D4FF48A70B4
:10D360000A4609F0EDFC214A0D21804621F008FC17
:10D370004FF48170002721460022A8F8090088F8A0
:10D380000D70B07888F80800404621F039FC40461E
:10D3900009F00EFDB9F8A20040F48070A9F8A200CF
:10D3A000204629463A461EF079FC0027384605B04B
:10D3B000BDE8F0832046002121F0CCFB0D2809D1E7
:10D3C0002046002121F0B2FB017AB278914201D1CE
:10D3D000817A09B10227E9E74FF481710027A0F8AB
:10D3E0000910DDE7C05541209996061C6DEF031C1E
:10D3F000B0B54FF48850002142F24C0206230025BC
:10D4000009F09EFC044636F0D5FF608032F052FEF3
:10D41000A0802046257005F0CFFC0020B0BD0000A4
:10D4200010B50A464FF4885000210223002409F069
:10D4300087FC39490470CA880989891A382291FB06
:10D44000F2F1417005F0B8FC002010BD10B54FF4AA
:10D450008850002142F223020623002409F070FCC8
:10D4600004490470896CC0F8021005F0A5FC002086
:10D4700010BD00BF1456412010B54FF48850002154
:10D4800042F21C020923002409F05AFC40F2FF3149
:10D490000470C0F805104FF0FF31C0F8011005F01E
:10D4A0008BFC002010BD0000B0B54FF48850002167
:10D4B00042F24B020323002509F042FC05700A4D9D
:10D4C000044695F8380095F83A1036F077FF60700A
:10D4D00095F8390095F83B1036F070FFA0702046A3
:10D4E00005F06AFC0020B0BD5C43412010B50A463F
:10D4F0004FF4885000210223002409F021FC064942
:10D5000004708A88C988891A0C2291FBF2F1417053
:10D5100005F052FC002010BD304141207CB50A4688
:10D52000018804464FF48850042309F009FC6D4932
:10D5300005462078096851F820603EB396F8290026
:10D5400001AA002138F078FC18BB96F82D000128BC
:10D550001ED1A17809B94421A17096F828001DF0C8
:10D56000A9FE304637F0ECFD0198314604304AF010
:10D57000A5FE019890F83B10013980F83B10090690
:10D5800002D1407838F00AFC002002E0022000E0DE
:10D590000C20287020886880284605F00DFC0020AB
:10D5A0007CBD00BF70B514460E4605461FF0AAF8B4
:10D5B00008B10C2210E0B0783B280CD1284601219C
:10D5C00021F0B4FA0028F4D0B2782846082121F0DE
:10D5D00047FD002200E01222284621461EF04EFBA5
:10D5E000002070BD70B514460E4605461FF08AF83F
:10D5F00008B10C2626E03389F2887188B0881EF0C5
:10D60000C7FBF0B12846012121F090FA0028F0D0A4
:10D610004189B288914288BF0A4642810189728855
:10D62000914288BF0A460281C1893289002691420F
:10D6300088BF0A46C28128460821002221F010FD39
:10D6400000E020262846214632461EF017FB002027
:10D6500070BD00002DE9F0410A4680464FF4885025
:10D6600000210223002709F06BFB054698F8000013
:10D670000021FF2237F019FD1A4C064641F0C2FB8B
:10D6800087420ED2206850F8270040B1717890F898
:10D6900029208A4203D190F82D00012802D80137B1
:10D6A000ECE7A6B1FCB241F0ADFBA04201D90C20E1
:10D6B0000EE0371D386828B138464AF004FE37F0CE
:10D6C0003FFDF7E7707838F069FB002000E00220AA
:10D6D000287098F800006870284605F06DFB00205F
:10D6E000BDE8F0819844412070B50A4604464FF4E5
:10D6F00088500021042309F023FB05462088B0F55B
:10D70000007F14D3C6B241F07DFB864224D2A078BC
:10D71000810705D53046012137F064FBE8B9A078D0
:10D72000C00717D03046002137F05CFB15E0B0F59C
:10D73000807F11D3C6B241F065FB86420CD2A0783F
:10D74000810705D53046012138F0C4F828B9A07802
:10D75000C0070AD1002000E00220287020886880DD
:10D76000284605F029FB002070BD3046002138F026
:10D77000B1F8F2E7B0B5154604461EF0ADFF08B1AA
:10D780000C222DE020461FF0CFF840B3204629465A
:10D7900000221EF083FA20020C23011D4FF4887032
:10D7A0000A4609F0CDFA114A0A21054621F0E8F9A6
:10D7B00028462146002221F023FA4FF480700121EF
:10D7C000A5F809000A48006850F82400B0F89E0047
:10D7D00021EA90202872284609F0EAFA04E01A2289
:10D7E000204629461EF05AFA0020B0BD21BC031C79
:10D7F000C0554120F8B5D54E0C4696F80E110129BA
:10D8000026D00221007886F80E11694638F0D6FE3F
:10D81000FF281FD00546B06900EB851090F83C103A
:10D82000012915D190F8397041F0ECFA87420AD2FB
:10D83000B06900EB851191F8391000EB811090F878
:10D840003C000A2804D1284639F056F8002102E0AD
:10D850000C2100E04221204639F0AAF90020F8BD51
:10D860002DE9F0410546C0790C460F2802D82878EA
:10D87000012807D912262046314639F099F90020AF
:10D88000BDE8F081DFF8FC8798F80E01012801D18E
:10D890000C26F0E7022088F80E0138F0C5FC074698
:10D8A00041F0B0FA0C268742E5D32F4617F8011B4A
:10D8B000384639F0B1F94C498A88C988891A91FBF0
:10D8C000F6F1814208DD00EB8006D8F8301001EB5C
:10D8D00046014A7A520701D44226CCE7EB792A78EE
:10D8E000012505FA03F3CD889D439BB2CD803946CF
:10D8F00031F014FBD8F8300000EB4600C18849B97C
:10D9000010F8091F01F0FB0202708A075CBF01F0EA
:10D91000FA0101700026AEE770B50C4601780129C6
:10D9200001D9122123E0BC4E054696F87A0028B1B1
:10D9300039F052FB08B10C2119E02978681C39F044
:10D940001BFD05462848C1880089401A382190FBF4
:10D95000F1F0A8420ADD284632F0BEFA30682721ED
:10D9600015FB0100FF218171002100E0022120460A
:10D9700039F01EF9002070BD70B50C46054639F02F
:10D9800047FBE8B12978022901D3FF2916D16E1C83
:10D99000304639F041F914498A88C988891A0C221D
:10D9A00091FBF2F1814209DD9B4A00EB8001126B91
:10D9B00002EB410111F8092F930707D4122100E06F
:10D9C0000C21204639F0F4F8002070BD53074FF0C9
:10D9D000FD0358BFFC231A400A702A78314636F0FE
:10D9E0004DFD0021EDE700BF30414120B0B586B0CC
:10D9F0000C46054639F092FB20B12878272803D938
:10DA000012210DE00C210BE08DF801000020012116
:10DA10008DF800006846ADF8041036F059F901465B
:10DA2000204639F0C5F8002006B0B0BDB0B586B0CC
:10DA30000C46054639F072FB58B12878272806D8DD
:10DA400069784A1E022A02D8AA78012A08D9122126
:10DA500000E00C21204639F0ABF8002006B0B0BD44
:10DA600000228DF8010068468DF804108DF805201D
:10DA70008DF8002036F02CF90146EBE7F0B587B0C1
:10DA80000C46054639F04AFB08B32878272806D803
:10DA90006B78591E022902D8A978012901D91221CF
:10DAA00016E0EE781221012E12D0142E10D829790A
:10DAB0000229F4D895F805C0ACF10102012AEED88C
:10DAC000AA79971E492FEAD8032B07D136B10C212A
:10DAD000204639F06DF8002007B0F0BD0C2A01D9BE
:10DAE0001121F5E78DF809608DF80500002001AEE1
:10DAF0008DF80A10E91D8DF80C208DF80BC08DF8FB
:10DB000008308DF8040006F109004AF091FB304618
:10DB100036F0DEF80146DBE7B0B50C46054639F0D5
:10DB20005BFA08B10C210BE02878012807D8DB4903
:10DB3000002818BF012081F87A00002100E012219E
:10DB4000204639F035F80020B0BD00BF1456412002
:10DB50002DE9FC41D14E05460C4696F80E010228EF
:10DB600001D10C2151E0012086F80E0128781F28F0
:10DB700001D9122149E0FF20002138F01FFDFF28C4
:10DB80008DF807002BD0B16901EB8010297811B90D
:10DB9000C28B8A4238D0B0F81C80F3F739FA58B3F8
:10DBA000294607461D4811F8012B38444AF040FB2E
:10DBB000B1699DF8070001EB80118F83B1692A7864
:10DBC00001EB8011CA83B16901EB801191F83C101F
:10DBD000022913D129783A4622F07EF814E00DF19B
:10DBE000070038F0F5FA014678B99DF8070038F0DB
:10DBF00009FE9DF80700C6E7072106E0B8F1000F0F
